{
  "contractName": "Autopetrified",
  "abi": [
    {
      "constant": true,
      "inputs": [],
      "name": "hasInitialized",
      "outputs": [
        {
          "name": "",
          "type": "bool"
        }
      ],
      "payable": false,
      "stateMutability": "view",
      "type": "function"
    },
    {
      "constant": true,
      "inputs": [],
      "name": "getInitializationBlock",
      "outputs": [
        {
          "name": "",
          "type": "uint256"
        }
      ],
      "payable": false,
      "stateMutability": "view",
      "type": "function"
    },
    {
      "constant": true,
      "inputs": [],
      "name": "isPetrified",
      "outputs": [
        {
          "name": "",
          "type": "bool"
        }
      ],
      "payable": false,
      "stateMutability": "view",
      "type": "function"
    },
    {
      "inputs": [],
      "payable": false,
      "stateMutability": "nonpayable",
      "type": "constructor"
    }
  ],
  "bytecode": "0x608060405234801561001057600080fd5b5061002861002d640100000000026401000000009004565b610157565b600061004661008c640100000000026401000000009004565b14151561005257600080fd5b61008a7fffffffffffffffffffffffffffffffffffffffffffffffffffffffffffffffff6100d6640100000000026401000000009004565b565b60006100d17febb05b386a8d34882b8711d156f463690983dc47815980fb82aeeff1aa43579e6001026000191661014564010000000002610180176401000000009004565b905090565b60006100ef61008c640100000000026401000000009004565b1415156100fb57600080fd5b610142817febb05b386a8d34882b8711d156f463690983dc47815980fb82aeeff1aa43579e600102600019166101506401000000000261018b179091906401000000009004565b50565b600081549050919050565b8082555050565b6101be806101666000396000f300608060405260043610610057576000357c0100000000000000000000000000000000000000000000000000000000900463ffffffff1680630803fac01461005c5780638b3dd7491461008b578063de4796ed146100b6575b600080fd5b34801561006857600080fd5b506100716100e5565b604051808215151515815260200191505060405180910390f35b34801561009757600080fd5b506100a0610110565b6040518082815260200191505060405180910390f35b3480156100c257600080fd5b506100cb610147565b604051808215151515815260200191505060405180910390f35b6000806100f0610110565b90506000811415801561010a575080610107610178565b10155b91505090565b60006101427febb05b386a8d34882b8711d156f463690983dc47815980fb82aeeff1aa43579e60010260001916610180565b905090565b60007fffffffffffffffffffffffffffffffffffffffffffffffffffffffffffffffff610172610110565b14905090565b600043905090565b600081549050919050565b80825550505600a165627a7a723058206e98e18d48bac3b0e07a87f8a5d10f2481701c7424978b686083bb65a51ec7c10029",
  "source": "/*\n * SPDX-License-Identitifer:    MIT\n */\n\npragma solidity ^0.4.24;\n\nimport \"./Petrifiable.sol\";\n\n\ncontract Autopetrified is Petrifiable {\n    constructor() public {\n        // Immediately petrify base (non-proxy) instances of inherited contracts on deploy.\n        // This renders them uninitializable (and unusable without a proxy).\n        petrify();\n    }\n}\n",
  "sourcePath": "@aragon/os/contracts/common/Autopetrified.sol",
  "compiler": {
    "name": "solc",
    "version": "0.4.24+commit.e67f0147.Emscripten.clang"
  },
  "schemaVersion": "2.0.1",
  "updatedAt": "2018-11-28T11:37:59.849Z"
}