{
  "contractName": "EVMScriptRunner",
  "abi": [
    {
      "constant": true,
      "inputs": [],
      "name": "hasInitialized",
      "outputs": [
        {
          "name": "",
          "type": "bool"
        }
      ],
      "payable": false,
      "stateMutability": "view",
      "type": "function"
    },
    {
      "constant": true,
      "inputs": [],
      "name": "KERNEL_APP_ID",
      "outputs": [
        {
          "name": "",
          "type": "bytes32"
        }
      ],
      "payable": false,
      "stateMutability": "view",
      "type": "function"
    },
    {
      "constant": true,
      "inputs": [],
      "name": "APP_ADDR_NAMESPACE",
      "outputs": [
        {
          "name": "",
          "type": "bytes32"
        }
      ],
      "payable": false,
      "stateMutability": "view",
      "type": "function"
    },
    {
      "constant": true,
      "inputs": [],
      "name": "EVMSCRIPT_REGISTRY_APP_ID",
      "outputs": [
        {
          "name": "",
          "type": "bytes32"
        }
      ],
      "payable": false,
      "stateMutability": "view",
      "type": "function"
    },
    {
      "constant": true,
      "inputs": [],
      "name": "CORE_NAMESPACE",
      "outputs": [
        {
          "name": "",
          "type": "bytes32"
        }
      ],
      "payable": false,
      "stateMutability": "view",
      "type": "function"
    },
    {
      "constant": true,
      "inputs": [],
      "name": "appId",
      "outputs": [
        {
          "name": "",
          "type": "bytes32"
        }
      ],
      "payable": false,
      "stateMutability": "view",
      "type": "function"
    },
    {
      "constant": true,
      "inputs": [],
      "name": "getInitializationBlock",
      "outputs": [
        {
          "name": "",
          "type": "uint256"
        }
      ],
      "payable": false,
      "stateMutability": "view",
      "type": "function"
    },
    {
      "constant": true,
      "inputs": [],
      "name": "ACL_APP_ID",
      "outputs": [
        {
          "name": "",
          "type": "bytes32"
        }
      ],
      "payable": false,
      "stateMutability": "view",
      "type": "function"
    },
    {
      "constant": true,
      "inputs": [],
      "name": "kernel",
      "outputs": [
        {
          "name": "",
          "type": "address"
        }
      ],
      "payable": false,
      "stateMutability": "view",
      "type": "function"
    },
    {
      "constant": true,
      "inputs": [],
      "name": "APP_BASES_NAMESPACE",
      "outputs": [
        {
          "name": "",
          "type": "bytes32"
        }
      ],
      "payable": false,
      "stateMutability": "view",
      "type": "function"
    },
    {
      "anonymous": false,
      "inputs": [
        {
          "indexed": true,
          "name": "executor",
          "type": "address"
        },
        {
          "indexed": false,
          "name": "script",
          "type": "bytes"
        },
        {
          "indexed": false,
          "name": "input",
          "type": "bytes"
        },
        {
          "indexed": false,
          "name": "returnData",
          "type": "bytes"
        }
      ],
      "name": "ScriptResult",
      "type": "event"
    },
    {
      "constant": true,
      "inputs": [
        {
          "name": "_script",
          "type": "bytes"
        }
      ],
      "name": "getExecutor",
      "outputs": [
        {
          "name": "",
          "type": "address"
        }
      ],
      "payable": false,
      "stateMutability": "view",
      "type": "function"
    }
  ],
  "bytecode": "0x608060405234801561001057600080fd5b506107bc806100206000396000f3006080604052600436106100af576000357c0100000000000000000000000000000000000000000000000000000000900463ffffffff1680630803fac0146100b45780631113ed0d146100e3578063178e60791461011657806360b1e05714610149578063756f60491461017c57806380afdea8146101af5780638b3dd749146101e2578063cbcc65eb1461020d578063d4aae0c414610240578063db8a61d414610297578063f92a79ff146102ca575b600080fd5b3480156100c057600080fd5b506100c9610373565b604051808215151515815260200191505060405180910390f35b3480156100ef57600080fd5b506100f861039e565b60405180826000191660001916815260200191505060405180910390f35b34801561012257600080fd5b5061012b6103c5565b60405180826000191660001916815260200191505060405180910390f35b34801561015557600080fd5b5061015e6103ec565b60405180826000191660001916815260200191505060405180910390f35b34801561018857600080fd5b50610191610413565b60405180826000191660001916815260200191505060405180910390f35b3480156101bb57600080fd5b506101c461043a565b60405180826000191660001916815260200191505060405180910390f35b3480156101ee57600080fd5b506101f7610471565b6040518082815260200191505060405180910390f35b34801561021957600080fd5b506102226104a8565b60405180826000191660001916815260200191505060405180910390f35b34801561024c57600080fd5b506102556104cf565b604051808273ffffffffffffffffffffffffffffffffffffffff1673ffffffffffffffffffffffffffffffffffffffff16815260200191505060405180910390f35b3480156102a357600080fd5b506102ac610506565b60405180826000191660001916815260200191505060405180910390f35b3480156102d657600080fd5b50610331600480360381019080803590602001908201803590602001908080601f016020809104026020016040519081016040528093929190818152602001838380828437820191505050505050919291929050505061052d565b604051808273ffffffffffffffffffffffffffffffffffffffff1673ffffffffffffffffffffffffffffffffffffffff16815260200191505060405180910390f35b60008061037e610471565b90506000811415801561039857508061039561064c565b10155b91505090565b7f3b4bf6bf3ad5000ecf0f989d5befde585c6860fea3e574a4fab4c49d1c177d9c60010281565b7fd6f028ca0e8edb4a8c9757ca4fdccab25fa1e0317da1188108f7d2dee14902fb60010281565b7fddbcfd564f642ab5627cf68b9b7d374fb4f8a36e941a75d89c87998cef03bd6160010281565b7fc681a85306374a5ab27f0bbc385296a54bcd314a1948b6cf61c4ea1bc44bb9f860010281565b600061046c7fd625496217aa6a3453eecb9c3489dc5a53e6c67b444329ea2b2cbc9ff547639b60010260001916610654565b905090565b60006104a37febb05b386a8d34882b8711d156f463690983dc47815980fb82aeeff1aa43579e6001026000191661065f565b905090565b7fe3262375f45a6e2026b7e7b18c2b807434f2508fe1a2a3dfb493c7df8f4aad6a60010281565b60006105017f4172f0f7d2289153072b0a6ca36959e0cbe2efc3afe50fc81636caa96338137b6001026000191661066a565b905090565b7ff1f3eb40f5bc1ad1344716ced8b8a0431d840b5783aea1fd01786bc26f35ac0f60010281565b6000610537610675565b73ffffffffffffffffffffffffffffffffffffffff166304bf2a7f836040518263ffffffff167c01000000000000000000000000000000000000000000000000000000000281526004018080602001828103825283818151815260200191508051906020019080838360005b838110156105be5780820151818401526020810190506105a3565b50505050905090810190601f1680156105eb5780820380516001836020036101000a031916815260200191505b5092505050602060405180830381600087803b15801561060a57600080fd5b505af115801561061e573d6000803e3d6000fd5b505050506040513d602081101561063457600080fd5b81019080805190602001909291905050509050919050565b600043905090565b600081549050919050565b600081549050919050565b600081549050919050565b6000806106806104cf565b73ffffffffffffffffffffffffffffffffffffffff1663be00bbd87fd6f028ca0e8edb4a8c9757ca4fdccab25fa1e0317da1188108f7d2dee14902fb6001027fddbcfd564f642ab5627cf68b9b7d374fb4f8a36e941a75d89c87998cef03bd616001026040518363ffffffff167c0100000000000000000000000000000000000000000000000000000000028152600401808360001916600019168152602001826000191660001916815260200192505050602060405180830381600087803b15801561074c57600080fd5b505af1158015610760573d6000803e3d6000fd5b505050506040513d602081101561077657600080fd5b8101908080519060200190929190505050905080915050905600a165627a7a72305820a6e8ff267e4163105ac56d13ba277b9b117f1e2f8d66145506afe81e45fd71860029",
  "source": "/*\n * SPDX-License-Identitifer:    MIT\n */\n\npragma solidity ^0.4.24;\n\nimport \"./IEVMScriptExecutor.sol\";\nimport \"./IEVMScriptRegistry.sol\";\n\nimport \"../apps/AppStorage.sol\";\nimport \"../kernel/KernelConstants.sol\";\nimport \"../common/Initializable.sol\";\n\n\ncontract EVMScriptRunner is AppStorage, Initializable, EVMScriptRegistryConstants, KernelConstants {\n    event ScriptResult(address indexed executor, bytes script, bytes input, bytes returnData);\n\n    function getExecutor(bytes _script) public view returns (IEVMScriptExecutor) {\n        return IEVMScriptExecutor(getExecutorRegistry().getScriptExecutor(_script));\n    }\n\n    function runScript(bytes _script, bytes _input, address[] _blacklist)\n        internal\n        isInitialized\n        protectState\n        returns (bytes)\n    {\n        // TODO: Too much data flying around, maybe extracting spec id here is cheaper\n        IEVMScriptExecutor executor = getExecutor(_script);\n        require(address(executor) != address(0));\n\n        bytes4 sig = executor.execScript.selector;\n\n        require(address(executor).delegatecall(abi.encodeWithSelector(sig, _script, _input, _blacklist)));\n\n        bytes memory output = returnedDataDecoded();\n\n        emit ScriptResult(address(executor), _script, _input, output);\n\n        return output;\n    }\n\n    function getExecutorRegistry() internal view returns (IEVMScriptRegistry) {\n        address registryAddr = kernel().getApp(APP_ADDR_NAMESPACE, EVMSCRIPT_REGISTRY_APP_ID);\n        return IEVMScriptRegistry(registryAddr);\n    }\n\n    /**\n    * @dev copies and returns last's call data. Needs to ABI decode first\n    */\n    function returnedDataDecoded() internal pure returns (bytes ret) {\n        assembly {\n            let size := returndatasize\n            switch size\n            case 0 {}\n            default {\n                ret := mload(0x40) // free mem ptr get\n                mstore(0x40, add(ret, add(size, 0x20))) // free mem ptr set\n                returndatacopy(ret, 0x20, sub(size, 0x20)) // copy return data\n            }\n        }\n        return ret;\n    }\n\n    modifier protectState {\n        address preKernel = address(kernel());\n        bytes32 preAppId = appId();\n        _; // exec\n        require(address(kernel()) == preKernel);\n        require(appId() == preAppId);\n    }\n}\n",
  "sourcePath": "@aragon/os/contracts/evmscript/EVMScriptRunner.sol",
  "compiler": {
    "name": "solc",
    "version": "0.4.24+commit.e67f0147.Emscripten.clang"
  },
  "schemaVersion": "2.0.1",
  "updatedAt": "2018-11-28T11:37:59.916Z"
}