{
  "contractName": "Genesis",
  "abi": [
    {
      "constant": true,
      "inputs": [],
      "name": "hasInitialized",
      "outputs": [
        {
          "name": "",
          "type": "bool"
        }
      ],
      "payable": false,
      "stateMutability": "view",
      "type": "function"
    },
    {
      "constant": true,
      "inputs": [
        {
          "name": "_script",
          "type": "bytes"
        }
      ],
      "name": "getEVMScriptExecutor",
      "outputs": [
        {
          "name": "",
          "type": "address"
        }
      ],
      "payable": false,
      "stateMutability": "view",
      "type": "function"
    },
    {
      "constant": true,
      "inputs": [],
      "name": "getRecoveryVault",
      "outputs": [
        {
          "name": "",
          "type": "address"
        }
      ],
      "payable": false,
      "stateMutability": "view",
      "type": "function"
    },
    {
      "constant": true,
      "inputs": [
        {
          "components": [
            {
              "name": "origin",
              "type": "address"
            },
            {
              "name": "blockstamp",
              "type": "uint256"
            },
            {
              "name": "tree",
              "type": "string"
            },
            {
              "name": "message",
              "type": "string"
            },
            {
              "name": "metadata",
              "type": "string"
            },
            {
              "components": [
                {
                  "name": "organism",
                  "type": "address"
                },
                {
                  "name": "hash",
                  "type": "bytes32"
                }
              ],
              "name": "parents",
              "type": "tuple[]"
            }
          ],
          "name": "_individuation",
          "type": "tuple"
        }
      ],
      "name": "hash",
      "outputs": [
        {
          "name": "",
          "type": "bytes32"
        }
      ],
      "payable": false,
      "stateMutability": "pure",
      "type": "function"
    },
    {
      "constant": true,
      "inputs": [
        {
          "components": [
            {
              "components": [
                {
                  "name": "destination",
                  "type": "address"
                },
                {
                  "name": "minimum",
                  "type": "uint256"
                },
                {
                  "name": "metadata",
                  "type": "string"
                }
              ],
              "name": "lineage",
              "type": "tuple"
            },
            {
              "name": "blockstamp",
              "type": "uint256"
            },
            {
              "name": "value",
              "type": "uint256"
            },
            {
              "name": "state",
              "type": "uint8"
            },
            {
              "name": "RFIid",
              "type": "uint256"
            }
          ],
          "name": "_RFL",
          "type": "tuple"
        }
      ],
      "name": "isAccepted",
      "outputs": [
        {
          "name": "",
          "type": "bool"
        }
      ],
      "payable": false,
      "stateMutability": "pure",
      "type": "function"
    },
    {
      "constant": true,
      "inputs": [
        {
          "name": "token",
          "type": "address"
        }
      ],
      "name": "allowRecoverability",
      "outputs": [
        {
          "name": "",
          "type": "bool"
        }
      ],
      "payable": false,
      "stateMutability": "view",
      "type": "function"
    },
    {
      "constant": true,
      "inputs": [],
      "name": "appId",
      "outputs": [
        {
          "name": "",
          "type": "bytes32"
        }
      ],
      "payable": false,
      "stateMutability": "view",
      "type": "function"
    },
    {
      "constant": true,
      "inputs": [],
      "name": "getInitializationBlock",
      "outputs": [
        {
          "name": "",
          "type": "uint256"
        }
      ],
      "payable": false,
      "stateMutability": "view",
      "type": "function"
    },
    {
      "constant": true,
      "inputs": [],
      "name": "head",
      "outputs": [
        {
          "name": "",
          "type": "bytes32"
        }
      ],
      "payable": false,
      "stateMutability": "view",
      "type": "function"
    },
    {
      "constant": false,
      "inputs": [
        {
          "name": "_token",
          "type": "address"
        }
      ],
      "name": "transferToVault",
      "outputs": [],
      "payable": false,
      "stateMutability": "nonpayable",
      "type": "function"
    },
    {
      "constant": true,
      "inputs": [
        {
          "name": "_sender",
          "type": "address"
        },
        {
          "name": "_role",
          "type": "bytes32"
        },
        {
          "name": "_params",
          "type": "uint256[]"
        }
      ],
      "name": "canPerform",
      "outputs": [
        {
          "name": "",
          "type": "bool"
        }
      ],
      "payable": false,
      "stateMutability": "view",
      "type": "function"
    },
    {
      "constant": true,
      "inputs": [],
      "name": "getEVMScriptRegistry",
      "outputs": [
        {
          "name": "",
          "type": "address"
        }
      ],
      "payable": false,
      "stateMutability": "view",
      "type": "function"
    },
    {
      "constant": true,
      "inputs": [],
      "name": "INDIVIDUATE_ROLE",
      "outputs": [
        {
          "name": "",
          "type": "bytes32"
        }
      ],
      "payable": false,
      "stateMutability": "view",
      "type": "function"
    },
    {
      "constant": true,
      "inputs": [],
      "name": "kernel",
      "outputs": [
        {
          "name": "",
          "type": "address"
        }
      ],
      "payable": false,
      "stateMutability": "view",
      "type": "function"
    },
    {
      "constant": true,
      "inputs": [],
      "name": "isPetrified",
      "outputs": [
        {
          "name": "",
          "type": "bool"
        }
      ],
      "payable": false,
      "stateMutability": "view",
      "type": "function"
    },
    {
      "constant": true,
      "inputs": [
        {
          "components": [
            {
              "components": [
                {
                  "name": "origin",
                  "type": "address"
                },
                {
                  "name": "tree",
                  "type": "string"
                },
                {
                  "name": "message",
                  "type": "string"
                },
                {
                  "name": "metadata",
                  "type": "string"
                },
                {
                  "components": [
                    {
                      "name": "organism",
                      "type": "address"
                    },
                    {
                      "name": "hash",
                      "type": "bytes32"
                    }
                  ],
                  "name": "parents",
                  "type": "tuple[]"
                }
              ],
              "name": "individuation",
              "type": "tuple"
            },
            {
              "name": "blockstamp",
              "type": "uint256"
            },
            {
              "name": "state",
              "type": "uint8"
            },
            {
              "name": "RFLids",
              "type": "uint256[]"
            }
          ],
          "name": "_RFI",
          "type": "tuple"
        }
      ],
      "name": "isPending",
      "outputs": [
        {
          "name": "",
          "type": "bool"
        }
      ],
      "payable": false,
      "stateMutability": "pure",
      "type": "function"
    },
    {
      "constant": true,
      "inputs": [
        {
          "components": [
            {
              "components": [
                {
                  "name": "destination",
                  "type": "address"
                },
                {
                  "name": "minimum",
                  "type": "uint256"
                },
                {
                  "name": "metadata",
                  "type": "string"
                }
              ],
              "name": "lineage",
              "type": "tuple"
            },
            {
              "name": "blockstamp",
              "type": "uint256"
            },
            {
              "name": "value",
              "type": "uint256"
            },
            {
              "name": "state",
              "type": "uint8"
            },
            {
              "name": "RFIid",
              "type": "uint256"
            }
          ],
          "name": "_RFL",
          "type": "tuple"
        }
      ],
      "name": "isPending",
      "outputs": [
        {
          "name": "",
          "type": "bool"
        }
      ],
      "payable": false,
      "stateMutability": "pure",
      "type": "function"
    },
    {
      "constant": true,
      "inputs": [
        {
          "name": "",
          "type": "bytes32"
        }
      ],
      "name": "individuations",
      "outputs": [
        {
          "name": "origin",
          "type": "address"
        },
        {
          "name": "blockstamp",
          "type": "uint256"
        },
        {
          "name": "tree",
          "type": "string"
        },
        {
          "name": "message",
          "type": "string"
        },
        {
          "name": "metadata",
          "type": "string"
        }
      ],
      "payable": false,
      "stateMutability": "view",
      "type": "function"
    },
    {
      "anonymous": false,
      "inputs": [
        {
          "indexed": false,
          "name": "hash",
          "type": "bytes32"
        }
      ],
      "name": "Individuate",
      "type": "event"
    },
    {
      "anonymous": false,
      "inputs": [
        {
          "indexed": true,
          "name": "executor",
          "type": "address"
        },
        {
          "indexed": false,
          "name": "script",
          "type": "bytes"
        },
        {
          "indexed": false,
          "name": "input",
          "type": "bytes"
        },
        {
          "indexed": false,
          "name": "returnData",
          "type": "bytes"
        }
      ],
      "name": "ScriptResult",
      "type": "event"
    },
    {
      "constant": false,
      "inputs": [],
      "name": "initialize",
      "outputs": [],
      "payable": false,
      "stateMutability": "nonpayable",
      "type": "function"
    },
    {
      "constant": false,
      "inputs": [
        {
          "components": [
            {
              "name": "origin",
              "type": "address"
            },
            {
              "name": "tree",
              "type": "string"
            },
            {
              "name": "message",
              "type": "string"
            },
            {
              "name": "metadata",
              "type": "string"
            },
            {
              "components": [
                {
                  "name": "organism",
                  "type": "address"
                },
                {
                  "name": "hash",
                  "type": "bytes32"
                }
              ],
              "name": "parents",
              "type": "tuple[]"
            }
          ],
          "name": "_individuation",
          "type": "tuple"
        }
      ],
      "name": "individuate",
      "outputs": [],
      "payable": false,
      "stateMutability": "nonpayable",
      "type": "function"
    },
    {
      "constant": true,
      "inputs": [
        {
          "name": "_hash",
          "type": "bytes32"
        }
      ],
      "name": "getIndividuation",
      "outputs": [
        {
          "components": [
            {
              "name": "origin",
              "type": "address"
            },
            {
              "name": "blockstamp",
              "type": "uint256"
            },
            {
              "name": "tree",
              "type": "string"
            },
            {
              "name": "message",
              "type": "string"
            },
            {
              "name": "metadata",
              "type": "string"
            },
            {
              "components": [
                {
                  "name": "organism",
                  "type": "address"
                },
                {
                  "name": "hash",
                  "type": "bytes32"
                }
              ],
              "name": "parents",
              "type": "tuple[]"
            }
          ],
          "name": "",
          "type": "tuple"
        }
      ],
      "payable": false,
      "stateMutability": "view",
      "type": "function"
    },
    {
      "constant": true,
      "inputs": [],
      "name": "getHead",
      "outputs": [
        {
          "components": [
            {
              "name": "origin",
              "type": "address"
            },
            {
              "name": "blockstamp",
              "type": "uint256"
            },
            {
              "name": "tree",
              "type": "string"
            },
            {
              "name": "message",
              "type": "string"
            },
            {
              "name": "metadata",
              "type": "string"
            },
            {
              "components": [
                {
                  "name": "organism",
                  "type": "address"
                },
                {
                  "name": "hash",
                  "type": "bytes32"
                }
              ],
              "name": "parents",
              "type": "tuple[]"
            }
          ],
          "name": "",
          "type": "tuple"
        }
      ],
      "payable": false,
      "stateMutability": "view",
      "type": "function"
    }
  ],
  "bytecode": "0x60806040526200001d62000023640100000000026401000000009004565b620002ef565b60006200003e620000f8640100000000026401000000009004565b146040805190810160405280601881526020017f494e49545f414c52454144595f494e495449414c495a45440000000000000000815250901515620000bb576040517f08c379a0000000000000000000000000000000000000000000000000000000008152600401620000b2919062000279565b60405180910390fd5b50620000f67fffffffffffffffffffffffffffffffffffffffffffffffffffffffffffffffff62000145640100000000026401000000009004565b565b6000620001407febb05b386a8d34882b8711d156f463690983dc47815980fb82aeeff1aa43579e600102600019166200022b6401000000000262001f36176401000000009004565b905090565b600062000160620000f8640100000000026401000000009004565b146040805190810160405280601881526020017f494e49545f414c52454144595f494e495449414c495a45440000000000000000815250901515620001dd576040517f08c379a0000000000000000000000000000000000000000000000000000000008152600401620001d4919062000279565b60405180910390fd5b5062000228817febb05b386a8d34882b8711d156f463690983dc47815980fb82aeeff1aa43579e60010260001916620002366401000000000262001f9e179091906401000000009004565b50565b600081549050919050565b8082555050565b60006200024a826200029d565b80845262000260816020860160208601620002a8565b6200026b81620002de565b602085010191505092915050565b600060208201905081810360008301526200029581846200023d565b905092915050565b600081519050919050565b60005b83811015620002c8578082015181840152602081019050620002ab565b83811115620002d8576000848401525b50505050565b6000601f19601f8301169050919050565b61329d80620002ff6000396000f300608060405260043610610128576000357c0100000000000000000000000000000000000000000000000000000000900463ffffffff1680630803fac01461012d578063115cb3ad146101585780632914b9bd1461019557806332f0a3b5146101d257806339a2d338146101fd5780635b15970d1461023a5780637e7db6e11461027757806380afdea8146102b45780638129fc1c146102df5780638b3dd749146102f65780638f7dcfa3146103215780639d4941d81461034c578063a0a66f7c14610375578063a1658fad1461039e578063a479e508146103db578063c34e0ed614610406578063d4aae0c414610431578063dc281aff1461045c578063de4796ed14610487578063e7fd8d08146104b2578063e95fe2ff146104ef578063f131fb991461052c575b600080fd5b34801561013957600080fd5b5061014261056d565b60405161014f9190612e80565b60405180910390f35b34801561016457600080fd5b5061017f600480360361017a91908101906129bc565b610598565b60405161018c9190612f8f565b60405180910390f35b3480156101a157600080fd5b506101bc60048036036101b791908101906129e5565b61095d565b6040516101c99190612f01565b60405180910390f35b3480156101de57600080fd5b506101e7610a14565b6040516101f49190612d88565b60405180910390f35b34801561020957600080fd5b50610224600480360361021f9190810190612a90565b610abe565b6040516102319190612e9b565b60405180910390f35b34801561024657600080fd5b50610261600480360361025c9190810190612b12565b610cd3565b60405161026e9190612e80565b60405180910390f35b34801561028357600080fd5b5061029e600480360361029991908101906128da565b610cfa565b6040516102ab9190612e80565b60405180910390f35b3480156102c057600080fd5b506102c9610d05565b6040516102d69190612e9b565b60405180910390f35b3480156102eb57600080fd5b506102f4610d3c565b005b34801561030257600080fd5b5061030b610dcb565b6040516103189190612fb1565b60405180910390f35b34801561032d57600080fd5b50610336610e02565b6040516103439190612e9b565b60405180910390f35b34801561035857600080fd5b50610373600480360361036e91908101906128da565b610e08565b005b34801561038157600080fd5b5061039c60048036036103979190810190612a4f565b61110c565b005b3480156103aa57600080fd5b506103c560048036036103c0919081019061292c565b61155d565b6040516103d29190612e80565b60405180910390f35b3480156103e757600080fd5b506103f061168a565b6040516103fd9190612f1c565b60405180910390f35b34801561041257600080fd5b5061041b61178c565b6040516104289190612e9b565b60405180910390f35b34801561043d57600080fd5b506104466117c5565b6040516104539190612f37565b60405180910390f35b34801561046857600080fd5b506104716117fc565b60405161047e9190612f8f565b60405180910390f35b34801561049357600080fd5b5061049c611bc0565b6040516104a99190612e80565b60405180910390f35b3480156104be57600080fd5b506104d960048036036104d49190810190612ad1565b611bf1565b6040516104e69190612e80565b60405180910390f35b3480156104fb57600080fd5b5061051660048036036105119190810190612b12565b611c17565b6040516105239190612e80565b60405180910390f35b34801561053857600080fd5b50610553600480360361054e91908101906129bc565b611c3d565b604051610564959493929190612e18565b60405180910390f35b600080610578610dcb565b90506000811415801561059257508061058f611e5b565b10155b91505090565b6105a0611fa5565b6105a861056d565b6040805190810160405280601481526020017f494e49545f4e4f545f494e495449414c495a4544000000000000000000000000815250901515610621576040517f08c379a00000000000000000000000000000000000000000000000000000000081526004016106189190612f6d565b60405180910390fd5b5060016000836000191660001916815260200190815260200160002060c060405190810160405290816000820160009054906101000a900473ffffffffffffffffffffffffffffffffffffffff1673ffffffffffffffffffffffffffffffffffffffff1673ffffffffffffffffffffffffffffffffffffffff16815260200160018201548152602001600282018054600181600116156101000203166002900480601f0160208091040260200160405190810160405280929190818152602001828054600181600116156101000203166002900480156107425780601f1061071757610100808354040283529160200191610742565b820191906000526020600020905b81548152906001019060200180831161072557829003601f168201915b50505050508152602001600382018054600181600116156101000203166002900480601f0160208091040260200160405190810160405280929190818152602001828054600181600116156101000203166002900480156107e45780601f106107b9576101008083540402835291602001916107e4565b820191906000526020600020905b8154815290600101906020018083116107c757829003601f168201915b50505050508152602001600482018054600181600116156101000203166002900480601f0160208091040260200160405190810160405280929190818152602001828054600181600116156101000203166002900480156108865780601f1061085b57610100808354040283529160200191610886565b820191906000526020600020905b81548152906001019060200180831161086957829003601f168201915b5050505050815260200160058201805480602002602001604051908101604052809291908181526020016000905b8282101561094e57838290600052602060002090600202016040805190810160405290816000820160009054906101000a900473ffffffffffffffffffffffffffffffffffffffff1673ffffffffffffffffffffffffffffffffffffffff1673ffffffffffffffffffffffffffffffffffffffff1681526020016001820154600019166000191681525050815260200190600101906108b4565b50505050815250509050919050565b600061096761168a565b73ffffffffffffffffffffffffffffffffffffffff166304bf2a7f836040518263ffffffff167c01000000000000000000000000000000000000000000000000000000000281526004016109bb9190612edf565b602060405180830381600087803b1580156109d557600080fd5b505af11580156109e9573d6000803e3d6000fd5b505050506040513d601f19601f82011682018060405250610a0d9190810190612a26565b9050919050565b6000610a1e6117c5565b73ffffffffffffffffffffffffffffffffffffffff166332f0a3b56040518163ffffffff167c0100000000000000000000000000000000000000000000000000000000028152600401602060405180830381600087803b158015610a8157600080fd5b505af1158015610a95573d6000803e3d6000fd5b505050506040513d601f19601f82011682018060405250610ab99190810190612903565b905090565b6000816000015182602001518360400151846060015185608001518660a00151604051602001808773ffffffffffffffffffffffffffffffffffffffff1673ffffffffffffffffffffffffffffffffffffffff166c0100000000000000000000000002815260140186815260200185805190602001908083835b602083101515610b5d5780518252602082019150602081019050602083039250610b38565b6001836020036101000a03801982511681845116808217855250505050505090500184805190602001908083835b602083101515610bb05780518252602082019150602081019050602083039250610b8b565b6001836020036101000a03801982511681845116808217855250505050505090500183805190602001908083835b602083101515610c035780518252602082019150602081019050602083039250610bde565b6001836020036101000a0380198251168184511680821785525050505050509050018280516000925b81841015610c4f5782849060200190602002015181526020019260010192610c2c565b9250505096505050505050506040516020818303038152906040526040518082805190602001908083835b602083101515610c9f5780518252602082019150602081019050602083039250610c7a565b6001836020036101000a03801982511681845116808217855250505050505090500191505060405180910390209050919050565b600060016004811115610ce257fe5b82606001516004811115610cf257fe5b149050919050565b600060019050919050565b6000610d377fd625496217aa6a3453eecb9c3489dc5a53e6c67b444329ea2b2cbc9ff547639b60010260001916611e63565b905090565b6000610d46610dcb565b146040805190810160405280601881526020017f494e49545f414c52454144595f494e495449414c495a45440000000000000000815250901515610dc0576040517f08c379a0000000000000000000000000000000000000000000000000000000008152600401610db79190612f6d565b60405180910390fd5b50610dc9611e6e565b565b6000610dfd7febb05b386a8d34882b8711d156f463690983dc47815980fb82aeeff1aa43579e60010260001916611f36565b905090565b60005481565b600080610e1483610cfa565b6040805190810160405280601281526020017f5245434f5645525f444953414c4c4f5745440000000000000000000000000000815250901515610e8d576040517f08c379a0000000000000000000000000000000000000000000000000000000008152600401610e849190612f6d565b60405180910390fd5b50610e96610a14565b9150610ea182611f41565b6040805190810160405280601a81526020017f5245434f5645525f5641554c545f4e4f545f434f4e5452414354000000000000815250901515610f1a576040517f08c379a0000000000000000000000000000000000000000000000000000000008152600401610f119190612f6d565b60405180910390fd5b50600073ffffffffffffffffffffffffffffffffffffffff168373ffffffffffffffffffffffffffffffffffffffff161415610fb3578173ffffffffffffffffffffffffffffffffffffffff166108fc3073ffffffffffffffffffffffffffffffffffffffff16319081150290604051600060405180830381858888f19350505050158015610fad573d6000803e3d6000fd5b50611107565b8273ffffffffffffffffffffffffffffffffffffffff166370a08231306040518263ffffffff167c01000000000000000000000000000000000000000000000000000000000281526004016110089190612f52565b602060405180830381600087803b15801561102257600080fd5b505af1158015611036573d6000803e3d6000fd5b505050506040513d601f19601f8201168201806040525061105a9190810190612b53565b90508273ffffffffffffffffffffffffffffffffffffffff1663a9059cbb83836040518363ffffffff167c01000000000000000000000000000000000000000000000000000000000281526004016110b3929190612def565b602060405180830381600087803b1580156110cd57600080fd5b505af11580156110e1573d6000803e3d6000fd5b505050506040513d601f19601f820116820180604052506111059190810190612993565b505b505050565b611114611fa5565b60008061111f61056d565b6040805190810160405280601481526020017f494e49545f4e4f545f494e495449414c495a4544000000000000000000000000815250901515611198576040517f08c379a000000000000000000000000000000000000000000000000000000000815260040161118f9190612f6d565b60405180910390fd5b5060405180807f494e4449564944554154455f524f4c45000000000000000000000000000000008152506010019050604051809103902061120a338260006040519080825280602002602001820160405280156112045781602001602082028038833980820191505090505b5061155d565b6040805190810160405280600f81526020017f4150505f415554485f4641494c45440000000000000000000000000000000000815250901515611283576040517f08c379a000000000000000000000000000000000000000000000000000000000815260040161127a9190612f6d565b60405180910390fd5b5060c060405190810160405280866000015173ffffffffffffffffffffffffffffffffffffffff168152602001438152602001866020015181526020018660400151815260200186606001518152602001866080015181525093506112e784610abe565b9250836000015160016000856000191660001916815260200190815260200160002060000160006101000a81548173ffffffffffffffffffffffffffffffffffffffff021916908373ffffffffffffffffffffffffffffffffffffffff160217905550836020015160016000856000191660001916815260200190815260200160002060010181905550836040015160016000856000191660001916815260200190815260200160002060020190805190602001906113a7929190611ff2565b50836060015160016000856000191660001916815260200190815260200160002060030190805190602001906113de929190611ff2565b5083608001516001600085600019166000191681526020019081526020016000206004019080519060200190611415929190611ff2565b508360a0015151600160008560001916600019168152602001908152602001600020600501816114459190612072565b50600091505b8360a0015151821015611514578360a001518281518110151561146a57fe5b906020019060200201516001600085600019166000191681526020019081526020016000206005018381548110151561149f57fe5b906000526020600020906002020160008201518160000160006101000a81548173ffffffffffffffffffffffffffffffffffffffff021916908373ffffffffffffffffffffffffffffffffffffffff16021790555060208201518160010190600019169055905050818060010192505061144b565b82600081600019169055507f60abf4225368bd17f1998b81eb52b7eeecfbb02ff266802d2fdd3324ce5eb6ef8360405161154e9190612e9b565b60405180910390a15050505050565b6000806060600061156c61056d565b151561157b5760009350611680565b6115836117c5565b9250600073ffffffffffffffffffffffffffffffffffffffff168373ffffffffffffffffffffffffffffffffffffffff1614156115c35760009350611680565b602085510290508491508082528273ffffffffffffffffffffffffffffffffffffffff1663fdef9106883089866040518563ffffffff167c010000000000000000000000000000000000000000000000000000000002815260040161162b9493929190612da3565b602060405180830381600087803b15801561164557600080fd5b505af1158015611659573d6000803e3d6000fd5b505050506040513d601f19601f8201168201806040525061167d9190810190612993565b93505b5050509392505050565b6000806116956117c5565b73ffffffffffffffffffffffffffffffffffffffff1663be00bbd87fd6f028ca0e8edb4a8c9757ca4fdccab25fa1e0317da1188108f7d2dee14902fb6001027fddbcfd564f642ab5627cf68b9b7d374fb4f8a36e941a75d89c87998cef03bd616001026040518363ffffffff167c0100000000000000000000000000000000000000000000000000000000028152600401611731929190612eb6565b602060405180830381600087803b15801561174b57600080fd5b505af115801561175f573d6000803e3d6000fd5b505050506040513d601f19601f820116820180604052506117839190810190612903565b90508091505090565b60405180807f494e4449564944554154455f524f4c45000000000000000000000000000000008152506010019050604051809103902081565b60006117f77f4172f0f7d2289153072b0a6ca36959e0cbe2efc3afe50fc81636caa96338137b60010260001916611f93565b905090565b611804611fa5565b61180c61056d565b6040805190810160405280601481526020017f494e49545f4e4f545f494e495449414c495a4544000000000000000000000000815250901515611885576040517f08c379a000000000000000000000000000000000000000000000000000000000815260040161187c9190612f6d565b60405180910390fd5b506001600080546000191660001916815260200190815260200160002060c060405190810160405290816000820160009054906101000a900473ffffffffffffffffffffffffffffffffffffffff1673ffffffffffffffffffffffffffffffffffffffff1673ffffffffffffffffffffffffffffffffffffffff16815260200160018201548152602001600282018054600181600116156101000203166002900480601f0160208091040260200160405190810160405280929190818152602001828054600181600116156101000203166002900480156119a75780601f1061197c576101008083540402835291602001916119a7565b820191906000526020600020905b81548152906001019060200180831161198a57829003601f168201915b50505050508152602001600382018054600181600116156101000203166002900480601f016020809104026020016040519081016040528092919081815260200182805460018160011615610100020316600290048015611a495780601f10611a1e57610100808354040283529160200191611a49565b820191906000526020600020905b815481529060010190602001808311611a2c57829003601f168201915b50505050508152602001600482018054600181600116156101000203166002900480601f016020809104026020016040519081016040528092919081815260200182805460018160011615610100020316600290048015611aeb5780601f10611ac057610100808354040283529160200191611aeb565b820191906000526020600020905b815481529060010190602001808311611ace57829003601f168201915b5050505050815260200160058201805480602002602001604051908101604052809291908181526020016000905b82821015611bb357838290600052602060002090600202016040805190810160405290816000820160009054906101000a900473ffffffffffffffffffffffffffffffffffffffff1673ffffffffffffffffffffffffffffffffffffffff1673ffffffffffffffffffffffffffffffffffffffff168152602001600182015460001916600019168152505081526020019060010190611b19565b5050505081525050905090565b60007fffffffffffffffffffffffffffffffffffffffffffffffffffffffffffffffff611beb610dcb565b14905090565b6000806003811115611bff57fe5b82604001516003811115611c0f57fe5b149050919050565b6000806004811115611c2557fe5b82606001516004811115611c3557fe5b149050919050565b60016020528060005260406000206000915090508060000160009054906101000a900473ffffffffffffffffffffffffffffffffffffffff1690806001015490806002018054600181600116156101000203166002900480601f016020809104026020016040519081016040528092919081815260200182805460018160011615610100020316600290048015611d155780601f10611cea57610100808354040283529160200191611d15565b820191906000526020600020905b815481529060010190602001808311611cf857829003601f168201915b505050505090806003018054600181600116156101000203166002900480601f016020809104026020016040519081016040528092919081815260200182805460018160011615610100020316600290048015611db35780601f10611d8857610100808354040283529160200191611db3565b820191906000526020600020905b815481529060010190602001808311611d9657829003601f168201915b505050505090806004018054600181600116156101000203166002900480601f016020809104026020016040519081016040528092919081815260200182805460018160011615610100020316600290048015611e515780601f10611e2657610100808354040283529160200191611e51565b820191906000526020600020905b815481529060010190602001808311611e3457829003601f168201915b5050505050905085565b600043905090565b600081549050919050565b6000611e78610dcb565b146040805190810160405280601881526020017f494e49545f414c52454144595f494e495449414c495a45440000000000000000815250901515611ef2576040517f08c379a0000000000000000000000000000000000000000000000000000000008152600401611ee99190612f6d565b60405180910390fd5b50611f34611efe611e5b565b7febb05b386a8d34882b8711d156f463690983dc47815980fb82aeeff1aa43579e60010260001916611f9e90919063ffffffff16565b565b600081549050919050565b600080600073ffffffffffffffffffffffffffffffffffffffff168373ffffffffffffffffffffffffffffffffffffffff161415611f825760009150611f8d565b823b90506000811191505b50919050565b600081549050919050565b8082555050565b60c060405190810160405280600073ffffffffffffffffffffffffffffffffffffffff16815260200160008152602001606081526020016060815260200160608152602001606081525090565b828054600181600116156101000203166002900490600052602060002090601f016020900481019282601f1061203357805160ff1916838001178555612061565b82800160010185558215612061579182015b82811115612060578251825591602001919060010190612045565b5b50905061206e91906120a4565b5090565b81548183558181111561209f5760020281600202836000526020600020918201910161209e91906120c9565b5b505050565b6120c691905b808211156120c25760008160009055506001016120aa565b5090565b90565b61211491905b8082111561211057600080820160006101000a81549073ffffffffffffffffffffffffffffffffffffffff02191690556001820160009055506002016120cf565b5090565b90565b60006121238235613144565b905092915050565b60006121378251613144565b905092915050565b600082601f830112151561215257600080fd5b813561216561216082612ff9565b612fcc565b9150818183526020840193506020810190508385604084028201111561218a57600080fd5b60005b838110156121ba57816121a088826123de565b84526020840193506040830192505060018101905061218d565b5050505092915050565b600082601f83011215156121d757600080fd5b81356121ea6121e582613021565b612fcc565b9150818183526020840193506020810190508385602084028201111561220f57600080fd5b60005b8381101561223f578161222588826128b2565b845260208401935060208301925050600181019050612212565b5050505092915050565b600082601f830112151561225c57600080fd5b813561226f61226a82613049565b612fcc565b9150818183526020840193506020810190508385602084028201111561229457600080fd5b60005b838110156122c457816122aa88826128b2565b845260208401935060208301925050600181019050612297565b5050505092915050565b60006122da8251613164565b905092915050565b60006122ee8235613170565b905092915050565b600082601f830112151561230957600080fd5b813561231c61231782613071565b612fcc565b9150808252602083016020830185838301111561233857600080fd5b612343838284613210565b50505092915050565b6000612358825161317a565b905092915050565b600061236c823561318c565b905092915050565b600061238082356131a5565b905092915050565b600082601f830112151561239b57600080fd5b81356123ae6123a98261309d565b612fcc565b915080825260208301602083018583830111156123ca57600080fd5b6123d5838284613210565b50505092915050565b6000604082840312156123f057600080fd5b6123fa6040612fcc565b9050600061240a84828501612117565b600083015250602061241e848285016122e2565b60208301525092915050565b600060a0828403121561243c57600080fd5b61244660a0612fcc565b9050600061245684828501612117565b600083015250602082013567ffffffffffffffff81111561247657600080fd5b61248284828501612388565b602083015250604082013567ffffffffffffffff8111156124a257600080fd5b6124ae84828501612388565b604083015250606082013567ffffffffffffffff8111156124ce57600080fd5b6124da84828501612388565b606083015250608082013567ffffffffffffffff8111156124fa57600080fd5b6125068482850161213f565b60808301525092915050565b600060a0828403121561252457600080fd5b61252e60a0612fcc565b9050600061253e84828501612117565b600083015250602082013567ffffffffffffffff81111561255e57600080fd5b61256a84828501612388565b602083015250604082013567ffffffffffffffff81111561258a57600080fd5b61259684828501612388565b604083015250606082013567ffffffffffffffff8111156125b657600080fd5b6125c284828501612388565b606083015250608082013567ffffffffffffffff8111156125e257600080fd5b6125ee8482850161213f565b60808301525092915050565b60006060828403121561260c57600080fd5b6126166060612fcc565b9050600061262684828501612117565b600083015250602061263a848285016128b2565b602083015250604082013567ffffffffffffffff81111561265a57600080fd5b61266684828501612388565b60408301525092915050565b600060c0828403121561268457600080fd5b61268e60c0612fcc565b9050600061269e84828501612117565b60008301525060206126b2848285016128b2565b602083015250604082013567ffffffffffffffff8111156126d257600080fd5b6126de84828501612388565b604083015250606082013567ffffffffffffffff8111156126fe57600080fd5b61270a84828501612388565b606083015250608082013567ffffffffffffffff81111561272a57600080fd5b61273684828501612388565b60808301525060a082013567ffffffffffffffff81111561275657600080fd5b6127628482850161213f565b60a08301525092915050565b60006080828403121561278057600080fd5b61278a6080612fcc565b9050600082013567ffffffffffffffff8111156127a657600080fd5b6127b28482850161242a565b60008301525060206127c6848285016128b2565b60208301525060406127da84828501612360565b604083015250606082013567ffffffffffffffff8111156127fa57600080fd5b612806848285016121c4565b60608301525092915050565b600060a0828403121561282457600080fd5b61282e60a0612fcc565b9050600082013567ffffffffffffffff81111561284a57600080fd5b612856848285016125fa565b600083015250602061286a848285016128b2565b602083015250604061287e848285016128b2565b604083015250606061289284828501612374565b60608301525060806128a6848285016128b2565b60808301525092915050565b60006128be82356131be565b905092915050565b60006128d282516131be565b905092915050565b6000602082840312156128ec57600080fd5b60006128fa84828501612117565b91505092915050565b60006020828403121561291557600080fd5b60006129238482850161212b565b91505092915050565b60008060006060848603121561294157600080fd5b600061294f86828701612117565b9350506020612960868287016122e2565b925050604084013567ffffffffffffffff81111561297d57600080fd5b61298986828701612249565b9150509250925092565b6000602082840312156129a557600080fd5b60006129b3848285016122ce565b91505092915050565b6000602082840312156129ce57600080fd5b60006129dc848285016122e2565b91505092915050565b6000602082840312156129f757600080fd5b600082013567ffffffffffffffff811115612a1157600080fd5b612a1d848285016122f6565b91505092915050565b600060208284031215612a3857600080fd5b6000612a468482850161234c565b91505092915050565b600060208284031215612a6157600080fd5b600082013567ffffffffffffffff811115612a7b57600080fd5b612a8784828501612512565b91505092915050565b600060208284031215612aa257600080fd5b600082013567ffffffffffffffff811115612abc57600080fd5b612ac884828501612672565b91505092915050565b600060208284031215612ae357600080fd5b600082013567ffffffffffffffff811115612afd57600080fd5b612b098482850161276e565b91505092915050565b600060208284031215612b2457600080fd5b600082013567ffffffffffffffff811115612b3e57600080fd5b612b4a84828501612812565b91505092915050565b600060208284031215612b6557600080fd5b6000612b73848285016128c6565b91505092915050565b612b8581613104565b82525050565b6000612b96826130d6565b808452602084019350612ba8836130c9565b60005b82811015612bda57612bbe868351612cac565b612bc7826130f7565b9150604086019550600181019050612bab565b50849250505092915050565b612bef81613124565b82525050565b612bfe81613130565b82525050565b6000612c0f826130e1565b808452612c2381602086016020860161321f565b612c2c81613252565b602085010191505092915050565b612c43816131c8565b82525050565b612c52816131da565b82525050565b612c61816131ec565b82525050565b612c70816131fe565b82525050565b6000612c81826130ec565b808452612c9581602086016020860161321f565b612c9e81613252565b602085010191505092915050565b604082016000820151612cc26000850182612b7c565b506020820151612cd56020850182612bf5565b50505050565b600060c083016000830151612cf36000860182612b7c565b506020830151612d066020860182612d79565b5060408301518482036040860152612d1e8282612c76565b91505060608301518482036060860152612d388282612c76565b91505060808301518482036080860152612d528282612c76565b91505060a083015184820360a0860152612d6c8282612b8b565b9150508091505092915050565b612d828161313a565b82525050565b6000602082019050612d9d6000830184612b7c565b92915050565b6000608082019050612db86000830187612b7c565b612dc56020830186612b7c565b612dd26040830185612bf5565b8181036060830152612de48184612c04565b905095945050505050565b6000604082019050612e046000830185612b7c565b612e116020830184612d79565b9392505050565b600060a082019050612e2d6000830188612b7c565b612e3a6020830187612d79565b8181036040830152612e4c8186612c76565b90508181036060830152612e608185612c76565b90508181036080830152612e748184612c76565b90509695505050505050565b6000602082019050612e956000830184612be6565b92915050565b6000602082019050612eb06000830184612bf5565b92915050565b6000604082019050612ecb6000830185612bf5565b612ed86020830184612bf5565b9392505050565b60006020820190508181036000830152612ef98184612c04565b905092915050565b6000602082019050612f166000830184612c3a565b92915050565b6000602082019050612f316000830184612c49565b92915050565b6000602082019050612f4c6000830184612c58565b92915050565b6000602082019050612f676000830184612c67565b92915050565b60006020820190508181036000830152612f878184612c76565b905092915050565b60006020820190508181036000830152612fa98184612cdb565b905092915050565b6000602082019050612fc66000830184612d79565b92915050565b6000604051905081810181811067ffffffffffffffff82111715612fef57600080fd5b8060405250919050565b600067ffffffffffffffff82111561301057600080fd5b602082029050602081019050919050565b600067ffffffffffffffff82111561303857600080fd5b602082029050602081019050919050565b600067ffffffffffffffff82111561306057600080fd5b602082029050602081019050919050565b600067ffffffffffffffff82111561308857600080fd5b601f19601f8301169050602081019050919050565b600067ffffffffffffffff8211156130b457600080fd5b601f19601f8301169050602081019050919050565b6000602082019050919050565b600081519050919050565b600081519050919050565b600081519050919050565b6000602082019050919050565b600073ffffffffffffffffffffffffffffffffffffffff82169050919050565b60008115159050919050565b6000819050919050565b6000819050919050565b600073ffffffffffffffffffffffffffffffffffffffff82169050919050565b60008115159050919050565b6000819050919050565b600061318582613104565b9050919050565b600060048210151561319d57600080fd5b819050919050565b60006005821015156131b657600080fd5b819050919050565b6000819050919050565b60006131d382613104565b9050919050565b60006131e582613104565b9050919050565b60006131f782613104565b9050919050565b600061320982613104565b9050919050565b82818337600083830152505050565b60005b8381101561323d578082015181840152602081019050613222565b8381111561324c576000848401525b50505050565b6000601f19601f83011690509190505600a265627a7a72305820c45039933d268f30672fc2b2475e641c3fc1f8f50ea7e4a855d109aa635abc476c6578706572696d656e74616cf50037",
  "source": "pragma solidity ^0.4.24;\npragma experimental ABIEncoderV2;\n\nimport \"../lib/PandoApp.sol\";\n\n\ncontract Genesis is PandoApp {\n\n    bytes32 constant public INDIVIDUATE_ROLE = keccak256(\"INDIVIDUATE_ROLE\");\n\n    bytes32 public head;\n    mapping(bytes32 => PandoApp.Individuation) public individuations;\n\n    event Individuate(bytes32 hash);\n\n\n    function initialize() external onlyInit {\n        initialized();\n    }\n\n    function individuate(PandoApp.IIndividuation _individuation) public isInitialized auth(INDIVIDUATE_ROLE) {\n        PandoApp.Individuation memory individuation = PandoApp.Individuation(\n            _individuation.origin,\n            block.number,\n            _individuation.tree,\n            _individuation.message,\n            _individuation.metadata,\n            _individuation.parents\n        );\n\n        bytes32 hash = PandoApp.hash(individuation);\n\n        individuations[hash].origin = individuation.origin;\n        individuations[hash].blockstamp = individuation.blockstamp;\n        individuations[hash].tree = individuation.tree;\n        individuations[hash].message = individuation.message;\n        individuations[hash].metadata = individuation.metadata;\n\n        // solc 4.0.24 cannot directly convert dynamic struct array from memory to storage\n        individuations[hash].parents.length = individuation.parents.length;\n        for (uint256 i = 0; i < individuation.parents.length; i++) {\n            individuations[hash].parents[i] = individuation.parents[i];\n        }\n\n        head = hash;\n\n        emit Individuate(hash);\n    }\n\n    function getIndividuation(bytes32 _hash) public view isInitialized returns (PandoApp.Individuation) {\n        return individuations[_hash];\n    }\n\n    function getHead() public view isInitialized returns (PandoApp.Individuation) {\n        return individuations[head];\n    }\n\n}\n",
  "sourcePath": "/Users/osarrouy/Documents/dapp/@pando/packages/organism/contracts/core/Genesis.sol",
  "compiler": {
    "name": "solc",
    "version": "0.4.24+commit.e67f0147.Emscripten.clang"
  },
  "schemaVersion": "2.0.1",
  "updatedAt": "2018-11-29T10:57:35.335Z"
}