{
  "contractName": "Organism",
  "abi": [
    {
      "constant": true,
      "inputs": [],
      "name": "hasInitialized",
      "outputs": [
        {
          "name": "",
          "type": "bool"
        }
      ],
      "payable": false,
      "stateMutability": "view",
      "type": "function"
    },
    {
      "constant": true,
      "inputs": [],
      "name": "REJECT_RFL_ROLE",
      "outputs": [
        {
          "name": "",
          "type": "bytes32"
        }
      ],
      "payable": false,
      "stateMutability": "view",
      "type": "function"
    },
    {
      "constant": true,
      "inputs": [],
      "name": "RFLsLength",
      "outputs": [
        {
          "name": "",
          "type": "uint256"
        }
      ],
      "payable": false,
      "stateMutability": "view",
      "type": "function"
    },
    {
      "constant": true,
      "inputs": [
        {
          "name": "_script",
          "type": "bytes"
        }
      ],
      "name": "getEVMScriptExecutor",
      "outputs": [
        {
          "name": "",
          "type": "address"
        }
      ],
      "payable": false,
      "stateMutability": "view",
      "type": "function"
    },
    {
      "constant": true,
      "inputs": [],
      "name": "CREATE_RFI_ROLE",
      "outputs": [
        {
          "name": "",
          "type": "bytes32"
        }
      ],
      "payable": false,
      "stateMutability": "view",
      "type": "function"
    },
    {
      "constant": true,
      "inputs": [],
      "name": "MERGE_RFI_ROLE",
      "outputs": [
        {
          "name": "",
          "type": "bytes32"
        }
      ],
      "payable": false,
      "stateMutability": "view",
      "type": "function"
    },
    {
      "constant": true,
      "inputs": [],
      "name": "getRecoveryVault",
      "outputs": [
        {
          "name": "",
          "type": "address"
        }
      ],
      "payable": false,
      "stateMutability": "view",
      "type": "function"
    },
    {
      "constant": true,
      "inputs": [],
      "name": "pando",
      "outputs": [
        {
          "name": "",
          "type": "address"
        }
      ],
      "payable": false,
      "stateMutability": "view",
      "type": "function"
    },
    {
      "constant": true,
      "inputs": [
        {
          "name": "",
          "type": "uint256"
        }
      ],
      "name": "RFIs",
      "outputs": [
        {
          "components": [
            {
              "name": "metadata",
              "type": "string"
            }
          ],
          "name": "individuation",
          "type": "tuple"
        },
        {
          "name": "blockstamp",
          "type": "uint256"
        },
        {
          "name": "state",
          "type": "uint8"
        }
      ],
      "payable": false,
      "stateMutability": "view",
      "type": "function"
    },
    {
      "constant": true,
      "inputs": [
        {
          "name": "token",
          "type": "address"
        }
      ],
      "name": "allowRecoverability",
      "outputs": [
        {
          "name": "",
          "type": "bool"
        }
      ],
      "payable": false,
      "stateMutability": "view",
      "type": "function"
    },
    {
      "constant": true,
      "inputs": [],
      "name": "RFIsLength",
      "outputs": [
        {
          "name": "",
          "type": "uint256"
        }
      ],
      "payable": false,
      "stateMutability": "view",
      "type": "function"
    },
    {
      "constant": true,
      "inputs": [],
      "name": "appId",
      "outputs": [
        {
          "name": "",
          "type": "bytes32"
        }
      ],
      "payable": false,
      "stateMutability": "view",
      "type": "function"
    },
    {
      "constant": true,
      "inputs": [],
      "name": "getInitializationBlock",
      "outputs": [
        {
          "name": "",
          "type": "uint256"
        }
      ],
      "payable": false,
      "stateMutability": "view",
      "type": "function"
    },
    {
      "constant": true,
      "inputs": [],
      "name": "REJECT_RFI_ROLE",
      "outputs": [
        {
          "name": "",
          "type": "bytes32"
        }
      ],
      "payable": false,
      "stateMutability": "view",
      "type": "function"
    },
    {
      "constant": false,
      "inputs": [
        {
          "name": "_token",
          "type": "address"
        }
      ],
      "name": "transferToVault",
      "outputs": [],
      "payable": false,
      "stateMutability": "nonpayable",
      "type": "function"
    },
    {
      "constant": true,
      "inputs": [
        {
          "name": "_sender",
          "type": "address"
        },
        {
          "name": "_role",
          "type": "bytes32"
        },
        {
          "name": "_params",
          "type": "uint256[]"
        }
      ],
      "name": "canPerform",
      "outputs": [
        {
          "name": "",
          "type": "bool"
        }
      ],
      "payable": false,
      "stateMutability": "view",
      "type": "function"
    },
    {
      "constant": true,
      "inputs": [],
      "name": "getEVMScriptRegistry",
      "outputs": [
        {
          "name": "",
          "type": "address"
        }
      ],
      "payable": false,
      "stateMutability": "view",
      "type": "function"
    },
    {
      "constant": true,
      "inputs": [],
      "name": "genesis",
      "outputs": [
        {
          "name": "",
          "type": "address"
        }
      ],
      "payable": false,
      "stateMutability": "view",
      "type": "function"
    },
    {
      "constant": true,
      "inputs": [],
      "name": "ACCEPT_RFL_ROLE",
      "outputs": [
        {
          "name": "",
          "type": "bytes32"
        }
      ],
      "payable": false,
      "stateMutability": "view",
      "type": "function"
    },
    {
      "constant": true,
      "inputs": [
        {
          "name": "",
          "type": "uint256"
        }
      ],
      "name": "RFLs",
      "outputs": [
        {
          "components": [
            {
              "name": "destination",
              "type": "address"
            },
            {
              "name": "minimum",
              "type": "uint256"
            },
            {
              "name": "metadata",
              "type": "string"
            }
          ],
          "name": "lineage",
          "type": "tuple"
        },
        {
          "name": "blockstamp",
          "type": "uint256"
        },
        {
          "name": "value",
          "type": "uint256"
        },
        {
          "name": "state",
          "type": "uint8"
        },
        {
          "name": "RFIid",
          "type": "uint256"
        }
      ],
      "payable": false,
      "stateMutability": "view",
      "type": "function"
    },
    {
      "constant": true,
      "inputs": [],
      "name": "lineage",
      "outputs": [
        {
          "name": "",
          "type": "address"
        }
      ],
      "payable": false,
      "stateMutability": "view",
      "type": "function"
    },
    {
      "constant": true,
      "inputs": [],
      "name": "kernel",
      "outputs": [
        {
          "name": "",
          "type": "address"
        }
      ],
      "payable": false,
      "stateMutability": "view",
      "type": "function"
    },
    {
      "constant": true,
      "inputs": [],
      "name": "isPetrified",
      "outputs": [
        {
          "name": "",
          "type": "bool"
        }
      ],
      "payable": false,
      "stateMutability": "view",
      "type": "function"
    },
    {
      "anonymous": false,
      "inputs": [
        {
          "indexed": true,
          "name": "id",
          "type": "uint256"
        }
      ],
      "name": "CreateRFI",
      "type": "event"
    },
    {
      "anonymous": false,
      "inputs": [
        {
          "indexed": true,
          "name": "id",
          "type": "uint256"
        }
      ],
      "name": "MergeRFI",
      "type": "event"
    },
    {
      "anonymous": false,
      "inputs": [
        {
          "indexed": true,
          "name": "id",
          "type": "uint256"
        }
      ],
      "name": "RejectRFI",
      "type": "event"
    },
    {
      "anonymous": false,
      "inputs": [
        {
          "indexed": true,
          "name": "id",
          "type": "uint256"
        }
      ],
      "name": "CancelRFI",
      "type": "event"
    },
    {
      "anonymous": false,
      "inputs": [
        {
          "indexed": true,
          "name": "id",
          "type": "uint256"
        }
      ],
      "name": "CreateRFL",
      "type": "event"
    },
    {
      "anonymous": false,
      "inputs": [
        {
          "indexed": true,
          "name": "id",
          "type": "uint256"
        },
        {
          "indexed": false,
          "name": "value",
          "type": "uint256"
        }
      ],
      "name": "AcceptRFL",
      "type": "event"
    },
    {
      "anonymous": false,
      "inputs": [
        {
          "indexed": true,
          "name": "id",
          "type": "uint256"
        }
      ],
      "name": "RejectRFL",
      "type": "event"
    },
    {
      "anonymous": false,
      "inputs": [
        {
          "indexed": true,
          "name": "id",
          "type": "uint256"
        }
      ],
      "name": "CancelRFL",
      "type": "event"
    },
    {
      "anonymous": false,
      "inputs": [
        {
          "indexed": true,
          "name": "id",
          "type": "uint256"
        },
        {
          "indexed": false,
          "name": "destination",
          "type": "address"
        },
        {
          "indexed": false,
          "name": "value",
          "type": "uint256"
        }
      ],
      "name": "IssueRFL",
      "type": "event"
    },
    {
      "anonymous": false,
      "inputs": [
        {
          "indexed": true,
          "name": "executor",
          "type": "address"
        },
        {
          "indexed": false,
          "name": "script",
          "type": "bytes"
        },
        {
          "indexed": false,
          "name": "input",
          "type": "bytes"
        },
        {
          "indexed": false,
          "name": "returnData",
          "type": "bytes"
        }
      ],
      "name": "ScriptResult",
      "type": "event"
    },
    {
      "constant": false,
      "inputs": [
        {
          "name": "_pando",
          "type": "address"
        },
        {
          "name": "_genesis",
          "type": "address"
        },
        {
          "name": "_lineage",
          "type": "address"
        }
      ],
      "name": "initialize",
      "outputs": [],
      "payable": false,
      "stateMutability": "nonpayable",
      "type": "function"
    },
    {
      "constant": false,
      "inputs": [
        {
          "components": [
            {
              "name": "metadata",
              "type": "string"
            }
          ],
          "name": "_individuation",
          "type": "tuple"
        },
        {
          "components": [
            {
              "name": "destination",
              "type": "address"
            },
            {
              "name": "minimum",
              "type": "uint256"
            },
            {
              "name": "metadata",
              "type": "string"
            }
          ],
          "name": "_lineages",
          "type": "tuple[]"
        }
      ],
      "name": "createRFI",
      "outputs": [
        {
          "name": "RFIid",
          "type": "uint256"
        }
      ],
      "payable": false,
      "stateMutability": "nonpayable",
      "type": "function"
    },
    {
      "constant": false,
      "inputs": [
        {
          "name": "_RFIid",
          "type": "uint256"
        }
      ],
      "name": "mergeRFI",
      "outputs": [],
      "payable": false,
      "stateMutability": "nonpayable",
      "type": "function"
    },
    {
      "constant": false,
      "inputs": [
        {
          "name": "_RFIid",
          "type": "uint256"
        }
      ],
      "name": "rejectRFI",
      "outputs": [],
      "payable": false,
      "stateMutability": "nonpayable",
      "type": "function"
    },
    {
      "constant": false,
      "inputs": [
        {
          "name": "_RFLid",
          "type": "uint256"
        },
        {
          "name": "_value",
          "type": "uint256"
        }
      ],
      "name": "acceptRFL",
      "outputs": [],
      "payable": false,
      "stateMutability": "nonpayable",
      "type": "function"
    },
    {
      "constant": false,
      "inputs": [
        {
          "name": "_RFLid",
          "type": "uint256"
        }
      ],
      "name": "rejectRFL",
      "outputs": [],
      "payable": false,
      "stateMutability": "nonpayable",
      "type": "function"
    },
    {
      "constant": true,
      "inputs": [
        {
          "name": "_RFIid",
          "type": "uint256"
        }
      ],
      "name": "canMergeRFI",
      "outputs": [
        {
          "name": "",
          "type": "bool"
        }
      ],
      "payable": false,
      "stateMutability": "view",
      "type": "function"
    },
    {
      "constant": true,
      "inputs": [
        {
          "name": "_RFIid",
          "type": "uint256"
        }
      ],
      "name": "canRejectRFI",
      "outputs": [
        {
          "name": "",
          "type": "bool"
        }
      ],
      "payable": false,
      "stateMutability": "view",
      "type": "function"
    },
    {
      "constant": true,
      "inputs": [
        {
          "name": "_RFLid",
          "type": "uint256"
        },
        {
          "name": "_value",
          "type": "uint256"
        }
      ],
      "name": "canAcceptRFL",
      "outputs": [
        {
          "name": "",
          "type": "bool"
        }
      ],
      "payable": false,
      "stateMutability": "view",
      "type": "function"
    },
    {
      "constant": true,
      "inputs": [
        {
          "name": "_RFLid",
          "type": "uint256"
        }
      ],
      "name": "canRejectRFL",
      "outputs": [
        {
          "name": "",
          "type": "bool"
        }
      ],
      "payable": false,
      "stateMutability": "view",
      "type": "function"
    },
    {
      "constant": true,
      "inputs": [
        {
          "name": "_RFIid",
          "type": "uint256"
        }
      ],
      "name": "getRFI",
      "outputs": [
        {
          "components": [
            {
              "components": [
                {
                  "name": "metadata",
                  "type": "string"
                }
              ],
              "name": "individuation",
              "type": "tuple"
            },
            {
              "name": "blockstamp",
              "type": "uint256"
            },
            {
              "name": "state",
              "type": "uint8"
            },
            {
              "name": "RFLids",
              "type": "uint256[]"
            }
          ],
          "name": "",
          "type": "tuple"
        }
      ],
      "payable": false,
      "stateMutability": "view",
      "type": "function"
    },
    {
      "constant": true,
      "inputs": [
        {
          "name": "_RFLid",
          "type": "uint256"
        }
      ],
      "name": "getRFL",
      "outputs": [
        {
          "components": [
            {
              "components": [
                {
                  "name": "destination",
                  "type": "address"
                },
                {
                  "name": "minimum",
                  "type": "uint256"
                },
                {
                  "name": "metadata",
                  "type": "string"
                }
              ],
              "name": "lineage",
              "type": "tuple"
            },
            {
              "name": "blockstamp",
              "type": "uint256"
            },
            {
              "name": "value",
              "type": "uint256"
            },
            {
              "name": "state",
              "type": "uint8"
            },
            {
              "name": "RFIid",
              "type": "uint256"
            }
          ],
          "name": "",
          "type": "tuple"
        }
      ],
      "payable": false,
      "stateMutability": "view",
      "type": "function"
    },
    {
      "constant": true,
      "inputs": [
        {
          "components": [
            {
              "name": "blockstamp",
              "type": "uint256"
            },
            {
              "name": "metadata",
              "type": "string"
            }
          ],
          "name": "_individuation",
          "type": "tuple"
        }
      ],
      "name": "getIndividuationHash",
      "outputs": [
        {
          "name": "",
          "type": "bytes32"
        }
      ],
      "payable": false,
      "stateMutability": "view",
      "type": "function"
    },
    {
      "constant": true,
      "inputs": [],
      "name": "head",
      "outputs": [
        {
          "name": "",
          "type": "bytes32"
        }
      ],
      "payable": false,
      "stateMutability": "view",
      "type": "function"
    },
    {
      "constant": true,
      "inputs": [],
      "name": "getHead",
      "outputs": [
        {
          "components": [
            {
              "name": "blockstamp",
              "type": "uint256"
            },
            {
              "name": "metadata",
              "type": "string"
            }
          ],
          "name": "",
          "type": "tuple"
        }
      ],
      "payable": false,
      "stateMutability": "view",
      "type": "function"
    }
  ],
  "bytecode": "0x608060405260006005556000600655620000276200002d640100000000026401000000009004565b620002f9565b60006200004862000102640100000000026401000000009004565b146040805190810160405280601881526020017f494e49545f414c52454144595f494e495449414c495a45440000000000000000815250901515620000c5576040517f08c379a0000000000000000000000000000000000000000000000000000000008152600401620000bc919062000283565b60405180910390fd5b50620001007fffffffffffffffffffffffffffffffffffffffffffffffffffffffffffffffff6200014f640100000000026401000000009004565b565b60006200014a7febb05b386a8d34882b8711d156f463690983dc47815980fb82aeeff1aa43579e6001026000191662000235640100000000026200284b176401000000009004565b905090565b60006200016a62000102640100000000026401000000009004565b146040805190810160405280601881526020017f494e49545f414c52454144595f494e495449414c495a45440000000000000000815250901515620001e7576040517f08c379a0000000000000000000000000000000000000000000000000000000008152600401620001de919062000283565b60405180910390fd5b5062000232817febb05b386a8d34882b8711d156f463690983dc47815980fb82aeeff1aa43579e60010260001916620002406401000000000262002d7c179091906401000000009004565b50565b600081549050919050565b8082555050565b60006200025482620002a7565b8084526200026a816020860160208601620002b2565b6200027581620002e8565b602085010191505092915050565b600060208201905081810360008301526200029f818462000247565b905092915050565b600081519050919050565b60005b83811015620002d2578082015181840152602081019050620002b5565b83811115620002e2576000848401525b50505050565b6000601f19601f8301169050919050565b6144c780620003096000396000f3006080604052600436106101d8576000357c0100000000000000000000000000000000000000000000000000000000900463ffffffff1680630803fac0146101dd5780630823678014610208578063103a90c8146102335780632914b9bd1461025e5780632adab4ea1461029b5780632d2e8012146102c657806331f70096146102f157806332f0a3b51461032e57806333ff6870146103595780634752915d146103965780634844c28d146103d35780635bddb420146103fe5780636d5f5ca71461043d5780636e0b314c14610466578063748b052c1461048f5780637e7db6e1146104b857806380201af2146104f557806380afdea814610520578063889bd35d1461054b5780638b3dd749146105885780638f7dcfa3146105b357806397569bb1146105de5780639bdc706d146106095780639d4941d814610646578063a1658fad1461066f578063a479e508146106ac578063a7f0b3de146106d7578063b462e70b14610702578063c0c53b8b1461072d578063c3eefd1e14610756578063c538f7de14610793578063c74656e7146107d4578063d4aae0c4146107ff578063dc281aff1461082a578063ddf6fa9c14610855578063de4796ed1461087e578063e8606afc146108a9578063fec7d70b146108e6575b600080fd5b3480156101e957600080fd5b506101f2610923565b6040516101ff9190613e27565b60405180910390f35b34801561021457600080fd5b5061021d61094e565b60405161022a9190613e42565b60405180910390f35b34801561023f57600080fd5b50610248610987565b6040516102559190614167565b60405180910390f35b34801561026a57600080fd5b5061028560048036036102809190810190613646565b61098d565b6040516102929190613ec3565b60405180910390f35b3480156102a757600080fd5b506102b0610a44565b6040516102bd9190613e42565b60405180910390f35b3480156102d257600080fd5b506102db610a7d565b6040516102e89190613e42565b60405180910390f35b3480156102fd57600080fd5b50610318600480360361031391908101906136ff565b610ab6565b6040516103259190614167565b60405180910390f35b34801561033a57600080fd5b50610343610c38565b6040516103509190613d97565b60405180910390f35b34801561036557600080fd5b50610380600480360361037b91908101906137ed565b610ce2565b60405161038d9190613e27565b60405180910390f35b3480156103a257600080fd5b506103bd60048036036103b8919081019061383f565b610d4d565b6040516103ca9190613e27565b60405180910390f35b3480156103df57600080fd5b506103e8610de3565b6040516103f59190613f2f565b60405180910390f35b34801561040a57600080fd5b50610425600480360361042091908101906137ed565b610e09565b60405161043493929190614047565b60405180910390f35b34801561044957600080fd5b50610464600480360361045f919081019061383f565b610eed565b005b34801561047257600080fd5b5061048d600480360361048891908101906137ed565b611032565b005b34801561049b57600080fd5b506104b660048036036104b191908101906137ed565b6111f6565b005b3480156104c457600080fd5b506104df60048036036104da919081019061353b565b611338565b6040516104ec9190613e27565b60405180910390f35b34801561050157600080fd5b5061050a611343565b6040516105179190614167565b60405180910390f35b34801561052c57600080fd5b50610535611349565b6040516105429190613e42565b60405180910390f35b34801561055757600080fd5b50610572600480360361056d91908101906137ed565b611380565b60405161057f9190614145565b60405180910390f35b34801561059457600080fd5b5061059d611559565b6040516105aa9190614167565b60405180910390f35b3480156105bf57600080fd5b506105c8611590565b6040516105d59190613e42565b60405180910390f35b3480156105ea57600080fd5b506105f3611654565b6040516106009190613e42565b60405180910390f35b34801561061557600080fd5b50610630600480360361062b91908101906137ed565b61168d565b60405161063d9190613e27565b60405180910390f35b34801561065257600080fd5b5061066d6004803603610668919081019061353b565b6116f8565b005b34801561067b57600080fd5b506106966004803603610691919081019061358d565b6119fc565b6040516106a39190613e27565b60405180910390f35b3480156106b857600080fd5b506106c1611b29565b6040516106ce9190613ede565b60405180910390f35b3480156106e357600080fd5b506106ec611c2b565b6040516106f99190613ea8565b60405180910390f35b34801561070e57600080fd5b50610717611c50565b6040516107249190613e42565b60405180910390f35b34801561073957600080fd5b50610754600480360361074f91908101906136b0565b611c89565b005b34801561076257600080fd5b5061077d600480360361077891908101906137ed565b611ddd565b60405161078a9190613e27565b60405180910390f35b34801561079f57600080fd5b506107ba60048036036107b591908101906137ed565b611edd565b6040516107cb9594939291906140a7565b60405180910390f35b3480156107e057600080fd5b506107e961202d565b6040516107f69190613f14565b60405180910390f35b34801561080b57600080fd5b50610814612053565b6040516108219190613ef9565b60405180910390f35b34801561083657600080fd5b5061083f61208a565b60405161084c9190614101565b60405180910390f35b34801561086157600080fd5b5061087c600480360361087791908101906137ed565b612159565b005b34801561088a57600080fd5b5061089361229b565b6040516108a09190613e27565b60405180910390f35b3480156108b557600080fd5b506108d060048036036108cb919081019061376b565b6122cc565b6040516108dd9190613e42565b60405180910390f35b3480156108f257600080fd5b5061090d600480360361090891908101906137ed565b61239e565b60405161091a9190614123565b60405180910390f35b60008061092e611559565b90506000811415801561094857508061094561255b565b10155b91505090565b60405180807f52454a4543545f52464c5f524f4c450000000000000000000000000000000000815250600f019050604051809103902081565b60065481565b6000610997611b29565b73ffffffffffffffffffffffffffffffffffffffff166304bf2a7f836040518263ffffffff167c01000000000000000000000000000000000000000000000000000000000281526004016109eb9190613e86565b602060405180830381600087803b158015610a0557600080fd5b505af1158015610a19573d6000803e3d6000fd5b505050506040513d601f19601f82011682018060405250610a3d9190810190613687565b9050919050565b60405180807f4352454154455f5246495f524f4c450000000000000000000000000000000000815250600f019050604051809103902081565b60405180807f4d455247455f5246495f524f4c45000000000000000000000000000000000000815250600e019050604051809103902081565b6000610ac0610923565b6040805190810160405280601481526020017f494e49545f4e4f545f494e495449414c495a4544000000000000000000000000815250901515610b39576040517f08c379a0000000000000000000000000000000000000000000000000000000008152600401610b309190613f65565b60405180910390fd5b5060405180807f4352454154455f5246495f524f4c450000000000000000000000000000000000815250600f0190506040518091039020610bab33826000604051908082528060200260200182016040528015610ba55781602001602082028038833980820191505090505b506119fc565b6040805190810160405280600f81526020017f4150505f415554485f4641494c45440000000000000000000000000000000000815250901515610c24576040517f08c379a0000000000000000000000000000000000000000000000000000000008152600401610c1b9190613f65565b60405180910390fd5b50610c2f8484612563565b91505092915050565b6000610c42612053565b73ffffffffffffffffffffffffffffffffffffffff166332f0a3b56040518163ffffffff167c0100000000000000000000000000000000000000000000000000000000028152600401602060405180830381600087803b158015610ca557600080fd5b505af1158015610cb9573d6000803e3d6000fd5b505050506040513d601f19601f82011682018060405250610cdd9190810190613564565b905090565b6000600654821115610cf75760009050610d48565b60006004811115610d0457fe5b6004600084815260200190815260200160002060050160009054906101000a900460ff166004811115610d3357fe5b141515610d435760009050610d48565b600190505b919050565b6000600654831115610d625760009050610ddd565b60006004811115610d6f57fe5b6004600085815260200190815260200160002060050160009054906101000a900460ff166004811115610d9e57fe5b141515610dae5760009050610ddd565b6004600084815260200190815260200160002060000160010154821015610dd85760009050610ddd565b600190505b92915050565b600260009054906101000a900473ffffffffffffffffffffffffffffffffffffffff1681565b60036020528060005260406000206000915090508060000160206040519081016040529081600082018054600181600116156101000203166002900480601f016020809104026020016040519081016040528092919081815260200182805460018160011615610100020316600290048015610ec65780601f10610e9b57610100808354040283529160200191610ec6565b820191906000526020600020905b815481529060010190602001808311610ea957829003601f168201915b505050505081525050908060010154908060020160009054906101000a900460ff16905083565b60405180807f4143434550545f52464c5f524f4c450000000000000000000000000000000000815250600f0190506040518091039020610f5e33826000604051908082528060200260200182016040528015610f585781602001602082028038833980820191505090505b506119fc565b6040805190810160405280600f81526020017f4150505f415554485f4641494c45440000000000000000000000000000000000815250901515610fd7576040517f08c379a0000000000000000000000000000000000000000000000000000000008152600401610fce9190613f65565b60405180910390fd5b50610fe28383610d4d565b1515611023576040517f08c379a000000000000000000000000000000000000000000000000000000000815260040161101a90613f87565b60405180910390fd5b61102d838361268d565b505050565b61103a610923565b6040805190810160405280601481526020017f494e49545f4e4f545f494e495449414c495a45440000000000000000000000008152509015156110b3576040517f08c379a00000000000000000000000000000000000000000000000000000000081526004016110aa9190613f65565b60405180910390fd5b5060405180807f52454a4543545f52464c5f524f4c450000000000000000000000000000000000815250600f01905060405180910390206111253382600060405190808252806020026020018201604052801561111f5781602001602082028038833980820191505090505b506119fc565b6040805190810160405280600f81526020017f4150505f415554485f4641494c4544000000000000000000000000000000000081525090151561119e576040517f08c379a00000000000000000000000000000000000000000000000000000000081526004016111959190613f65565b60405180910390fd5b506111a882610ce2565b15156111e9576040517f08c379a00000000000000000000000000000000000000000000000000000000081526004016111e090613fa7565b60405180910390fd5b6111f282612710565b5050565b60405180807f52454a4543545f5246495f524f4c450000000000000000000000000000000000815250600f0190506040518091039020611267338260006040519080825280602002602001820160405280156112615781602001602082028038833980820191505090505b506119fc565b6040805190810160405280600f81526020017f4150505f415554485f4641494c454400000000000000000000000000000000008152509015156112e0576040517f08c379a00000000000000000000000000000000000000000000000000000000081526004016112d79190613f65565b60405180910390fd5b506112ea8261168d565b151561132b576040517f08c379a000000000000000000000000000000000000000000000000000000000815260040161132290614007565b60405180910390fd5b6113348261278b565b5050565b600060019050919050565b60055481565b600061137b7fd625496217aa6a3453eecb9c3489dc5a53e6c67b444329ea2b2cbc9ff547639b60010260001916612840565b905090565b611388612f20565b8160065481111515156113d0576040517f08c379a00000000000000000000000000000000000000000000000000000000081526004016113c790613fc7565b60405180910390fd5b6004600084815260200190815260200160002060a0604051908101604052908160008201606060405190810160405290816000820160009054906101000a900473ffffffffffffffffffffffffffffffffffffffff1673ffffffffffffffffffffffffffffffffffffffff1673ffffffffffffffffffffffffffffffffffffffff16815260200160018201548152602001600282018054600181600116156101000203166002900480601f0160208091040260200160405190810160405280929190818152602001828054600181600116156101000203166002900480156114f95780601f106114ce576101008083540402835291602001916114f9565b820191906000526020600020905b8154815290600101906020018083116114dc57829003601f168201915b505050505081525050815260200160038201548152602001600482015481526020016005820160009054906101000a900460ff16600481111561153857fe5b600481111561154357fe5b8152602001600682015481525050915050919050565b600061158b7febb05b386a8d34882b8711d156f463690983dc47815980fb82aeeff1aa43579e6001026000191661284b565b905090565b60008060009054906101000a900473ffffffffffffffffffffffffffffffffffffffff1673ffffffffffffffffffffffffffffffffffffffff16638f7dcfa36040518163ffffffff167c0100000000000000000000000000000000000000000000000000000000028152600401602060405180830381600087803b15801561161757600080fd5b505af115801561162b573d6000803e3d6000fd5b505050506040513d601f19601f8201168201806040525061164f919081019061361d565b905090565b60405180807f52454a4543545f5246495f524f4c450000000000000000000000000000000000815250600f019050604051809103902081565b60006005548211156116a257600090506116f3565b600060038111156116af57fe5b6003600084815260200190815260200160002060020160009054906101000a900460ff1660038111156116de57fe5b1415156116ee57600090506116f3565b600190505b919050565b60008061170483611338565b6040805190810160405280601281526020017f5245434f5645525f444953414c4c4f574544000000000000000000000000000081525090151561177d576040517f08c379a00000000000000000000000000000000000000000000000000000000081526004016117749190613f65565b60405180910390fd5b50611786610c38565b915061179182612856565b6040805190810160405280601a81526020017f5245434f5645525f5641554c545f4e4f545f434f4e545241435400000000000081525090151561180a576040517f08c379a00000000000000000000000000000000000000000000000000000000081526004016118019190613f65565b60405180910390fd5b50600073ffffffffffffffffffffffffffffffffffffffff168373ffffffffffffffffffffffffffffffffffffffff1614156118a3578173ffffffffffffffffffffffffffffffffffffffff166108fc3073ffffffffffffffffffffffffffffffffffffffff16319081150290604051600060405180830381858888f1935050505015801561189d573d6000803e3d6000fd5b506119f7565b8273ffffffffffffffffffffffffffffffffffffffff166370a08231306040518263ffffffff167c01000000000000000000000000000000000000000000000000000000000281526004016118f89190613f4a565b602060405180830381600087803b15801561191257600080fd5b505af1158015611926573d6000803e3d6000fd5b505050506040513d601f19601f8201168201806040525061194a9190810190613816565b90508273ffffffffffffffffffffffffffffffffffffffff1663a9059cbb83836040518363ffffffff167c01000000000000000000000000000000000000000000000000000000000281526004016119a3929190613dfe565b602060405180830381600087803b1580156119bd57600080fd5b505af11580156119d1573d6000803e3d6000fd5b505050506040513d601f19601f820116820180604052506119f591908101906135f4565b505b505050565b60008060606000611a0b610923565b1515611a1a5760009350611b1f565b611a22612053565b9250600073ffffffffffffffffffffffffffffffffffffffff168373ffffffffffffffffffffffffffffffffffffffff161415611a625760009350611b1f565b602085510290508491508082528273ffffffffffffffffffffffffffffffffffffffff1663fdef9106883089866040518563ffffffff167c0100000000000000000000000000000000000000000000000000000000028152600401611aca9493929190613db2565b602060405180830381600087803b158015611ae457600080fd5b505af1158015611af8573d6000803e3d6000fd5b505050506040513d601f19601f82011682018060405250611b1c91908101906135f4565b93505b5050509392505050565b600080611b34612053565b73ffffffffffffffffffffffffffffffffffffffff1663be00bbd87fd6f028ca0e8edb4a8c9757ca4fdccab25fa1e0317da1188108f7d2dee14902fb6001027fddbcfd564f642ab5627cf68b9b7d374fb4f8a36e941a75d89c87998cef03bd616001026040518363ffffffff167c0100000000000000000000000000000000000000000000000000000000028152600401611bd0929190613e5d565b602060405180830381600087803b158015611bea57600080fd5b505af1158015611bfe573d6000803e3d6000fd5b505050506040513d601f19601f82011682018060405250611c229190810190613564565b90508091505090565b6000809054906101000a900473ffffffffffffffffffffffffffffffffffffffff1681565b60405180807f4143434550545f52464c5f524f4c450000000000000000000000000000000000815250600f019050604051809103902081565b6000611c93611559565b146040805190810160405280601881526020017f494e49545f414c52454144595f494e495449414c495a45440000000000000000815250901515611d0d576040517f08c379a0000000000000000000000000000000000000000000000000000000008152600401611d049190613f65565b60405180910390fd5b50611d166128a8565b82600260006101000a81548173ffffffffffffffffffffffffffffffffffffffff021916908373ffffffffffffffffffffffffffffffffffffffff160217905550816000806101000a81548173ffffffffffffffffffffffffffffffffffffffff021916908373ffffffffffffffffffffffffffffffffffffffff16021790555080600160006101000a81548173ffffffffffffffffffffffffffffffffffffffff021916908373ffffffffffffffffffffffffffffffffffffffff160217905550505050565b600080600080600554851115611df65760009350611ed5565b60036000868152602001908152602001600020925060006003811115611e1857fe5b8360020160009054906101000a900460ff166003811115611e3557fe5b141515611e455760009350611ed5565b600091505b8260030180549050821015611ed057600460008460030184815481101515611e6e57fe5b90600052602060002001548152602001908152602001600020905060016004811115611e9657fe5b8160050160009054906101000a900460ff166004811115611eb357fe5b141515611ec35760009350611ed5565b8180600101925050611e4a565b600193505b505050919050565b600460205280600052604060002060009150905080600001606060405190810160405290816000820160009054906101000a900473ffffffffffffffffffffffffffffffffffffffff1673ffffffffffffffffffffffffffffffffffffffff1673ffffffffffffffffffffffffffffffffffffffff16815260200160018201548152602001600282018054600181600116156101000203166002900480601f016020809104026020016040519081016040528092919081815260200182805460018160011615610100020316600290048015611ffa5780601f10611fcf57610100808354040283529160200191611ffa565b820191906000526020600020905b815481529060010190602001808311611fdd57829003601f168201915b505050505081525050908060030154908060040154908060050160009054906101000a900460ff16908060060154905085565b600160009054906101000a900473ffffffffffffffffffffffffffffffffffffffff1681565b60006120857f4172f0f7d2289153072b0a6ca36959e0cbe2efc3afe50fc81636caa96338137b60010260001916612970565b905090565b612092612f61565b6000809054906101000a900473ffffffffffffffffffffffffffffffffffffffff1673ffffffffffffffffffffffffffffffffffffffff1663dc281aff6040518163ffffffff167c0100000000000000000000000000000000000000000000000000000000028152600401600060405180830381600087803b15801561211757600080fd5b505af115801561212b573d6000803e3d6000fd5b505050506040513d6000823e3d601f19601f8201168201806040525061215491908101906137ac565b905090565b60405180807f4d455247455f5246495f524f4c45000000000000000000000000000000000000815250600e01905060405180910390206121ca338260006040519080825280602002602001820160405280156121c45781602001602082028038833980820191505090505b506119fc565b6040805190810160405280600f81526020017f4150505f415554485f4641494c45440000000000000000000000000000000000815250901515612243576040517f08c379a000000000000000000000000000000000000000000000000000000000815260040161223a9190613f65565b60405180910390fd5b5061224d82611ddd565b151561228e576040517f08c379a000000000000000000000000000000000000000000000000000000000815260040161228590613fe7565b60405180910390fd5b6122978261297b565b5050565b60007fffffffffffffffffffffffffffffffffffffffffffffffffffffffffffffffff6122c6611559565b14905090565b6000600260009054906101000a900473ffffffffffffffffffffffffffffffffffffffff1673ffffffffffffffffffffffffffffffffffffffff166357c337ee836040518263ffffffff167c01000000000000000000000000000000000000000000000000000000000281526004016123459190614101565b602060405180830381600087803b15801561235f57600080fd5b505af1158015612373573d6000803e3d6000fd5b505050506040513d601f19601f82011682018060405250612397919081019061361d565b9050919050565b6123a6612f7b565b8160055481111515156123ee576040517f08c379a00000000000000000000000000000000000000000000000000000000081526004016123e590614027565b60405180910390fd5b60036000848152602001908152602001600020608060405190810160405290816000820160206040519081016040529081600082018054600181600116156101000203166002900480601f0160208091040260200160405190810160405280929190818152602001828054600181600116156101000203166002900480156124b75780601f1061248c576101008083540402835291602001916124b7565b820191906000526020600020905b81548152906001019060200180831161249a57829003601f168201915b5050505050815250508152602001600182015481526020016002820160009054906101000a900460ff1660038111156124ec57fe5b60038111156124f757fe5b81526020016003820180548060200260200160405190810160405280929190818152602001828054801561254a57602002820191906000526020600020905b815481526020019060010190808311612536575b505050505081525050915050919050565b600043905090565b6000806000806000600160055401600581905550600554945060036000868152602001908152602001600020935086600001518460000160000190805190602001906125b0929190612fb5565b5043846001018190555060008460020160006101000a81548160ff021916908360038111156125db57fe5b0217905550600092505b85518310156126565761260f86848151811015156125ff57fe5b9060200190602002015186612adb565b91508360030180548091906001016126279190613035565b905081846003018281548110151561263b57fe5b906000526020600020018190555082806001019350506125e5565b847f35f2129c6d5c40f8bfc21ff096fc803eed03c578d74fabcf718966bce5e43a2460405160405180910390a25050505092915050565b600060046000848152602001908152602001600020905060018160050160006101000a81548160ff021916908360048111156126c557fe5b0217905550818160040181905550827fe798dd1723e7dfead0c42290d937f51c95c8f80f616ab3c5d515dd62333d0c69836040516127039190614167565b60405180910390a2505050565b600060046000838152602001908152602001600020905060038160050160006101000a81548160ff0219169083600481111561274857fe5b021790555061275a8160060154612bf4565b817feffb45481cc046f2f78b484c7ef03097fc7cd3f8cf92a6f150a6264c96c3e72c60405160405180910390a25050565b60008060036000848152602001908152602001600020915060028260020160006101000a81548160ff021916908360038111156127c457fe5b0217905550600090505b816003018054905081101561280e5761280182600301828154811015156127f157fe5b9060005260206000200154612d0e565b80806001019150506127ce565b827f572671bf73ebac1f3878b683b28d9a3864df03396326fbaa18f19c834a54b13a60405160405180910390a2505050565b600081549050919050565b600081549050919050565b600080600073ffffffffffffffffffffffffffffffffffffffff168373ffffffffffffffffffffffffffffffffffffffff16141561289757600091506128a2565b823b90506000811191505b50919050565b60006128b2611559565b146040805190810160405280601881526020017f494e49545f414c52454144595f494e495449414c495a4544000000000000000081525090151561292c576040517f08c379a00000000000000000000000000000000000000000000000000000000081526004016129239190613f65565b60405180910390fd5b5061296e61293861255b565b7febb05b386a8d34882b8711d156f463690983dc47815980fb82aeeff1aa43579e60010260001916612d7c90919063ffffffff16565b565b600081549050919050565b60008060036000848152602001908152602001600020915060018260020160006101000a81548160ff021916908360038111156129b457fe5b02179055506000809054906101000a900473ffffffffffffffffffffffffffffffffffffffff1673ffffffffffffffffffffffffffffffffffffffff1663c9ab7ed9836000016040518263ffffffff167c0100000000000000000000000000000000000000000000000000000000028152600401612a329190614085565b600060405180830381600087803b158015612a4c57600080fd5b505af1158015612a60573d6000803e3d6000fd5b50505050600090505b8160030180549050811015612aa957612a9c8260030182815481101515612a8c57fe5b9060005260206000200154612d83565b8080600101915050612a69565b827f2ade3f30658e8481c8027d9227280e030ebbea37526a8e9e29887165e919e2ed60405160405180910390a2505050565b600080600160065401600681905550600654915060046000838152602001908152602001600020905083600001518160000160000160006101000a81548173ffffffffffffffffffffffffffffffffffffffff021916908373ffffffffffffffffffffffffffffffffffffffff160217905550836020015181600001600101819055508360400151816000016002019080519060200190612b7d929190612fb5565b504381600301819055506000816004018190555060008160050160006101000a81548160ff02191690836004811115612bb257fe5b0217905550828160060181905550817fb696b79e6fa6e3e43f047d6702fce861e48c2267eeb009745f44a84b2c1dac4a60405160405180910390a25092915050565b600080600060036000858152602001908152602001600020925060038360020160006101000a81548160ff02191690836003811115612c2f57fe5b0217905550600091505b8260030180549050821015612cdb57600460008460030184815481101515612c5d57fe5b90600052602060002001548152602001908152602001600020905060036004811115612c8557fe5b8160050160009054906101000a900460ff166004811115612ca257fe5b141515612cce57612ccd8360030183815481101515612cbd57fe5b9060005260206000200154612d0e565b5b8180600101925050612c39565b837f17c608dd7335e9c727c3e10aea0adfba0b0e6cc35c4935c1de31e3b10711da7560405160405180910390a250505050565b600060046000838152602001908152602001600020905060048160050160006101000a81548160ff02191690836004811115612d4657fe5b0217905550817f7b78710b9fa400a202f9262b7daad859bf5663f0d88d45073184584fe6a166e060405160405180910390a25050565b8082555050565b600060046000838152602001908152602001600020905060028160050160006101000a81548160ff02191690836004811115612dbb57fe5b0217905550600160009054906101000a900473ffffffffffffffffffffffffffffffffffffffff1673ffffffffffffffffffffffffffffffffffffffff166340c10f198260000160000160009054906101000a900473ffffffffffffffffffffffffffffffffffffffff1683600401546040518363ffffffff167c0100000000000000000000000000000000000000000000000000000000028152600401612e64929190613dfe565b602060405180830381600087803b158015612e7e57600080fd5b505af1158015612e92573d6000803e3d6000fd5b505050506040513d601f19601f82011682018060405250612eb691908101906135f4565b50817fb74d3ab32949c67c027c76911841ff5e997d1276e5244bba79e532fa6ce91f838260000160000160009054906101000a900473ffffffffffffffffffffffffffffffffffffffff168360040154604051612f14929190613dfe565b60405180910390a25050565b60e060405190810160405280612f34613061565b8152602001600081526020016000815260200160006004811115612f5457fe5b8152602001600081525090565b604080519081016040528060008152602001606081525090565b608060405190810160405280612f8f613099565b81526020016000815260200160006003811115612fa857fe5b8152602001606081525090565b828054600181600116156101000203166002900490600052602060002090601f016020900481019282601f10612ff657805160ff1916838001178555613024565b82800160010185558215613024579182015b82811115613023578251825591602001919060010190613008565b5b50905061303191906130ad565b5090565b81548183558181111561305c5781836000526020600020918201910161305b91906130ad565b5b505050565b606060405190810160405280600073ffffffffffffffffffffffffffffffffffffffff16815260200160008152602001606081525090565b602060405190810160405280606081525090565b6130cf91905b808211156130cb5760008160009055506001016130b3565b5090565b90565b60006130de8235614310565b905092915050565b60006130f28251614310565b905092915050565b600082601f830112151561310d57600080fd5b813561312061311b826141af565b614182565b9150818183526020840193506020810190508360005b83811015613166578135860161314c88826133d3565b845260208401935060208301925050600181019050613136565b5050505092915050565b600082601f830112151561318357600080fd5b8135613196613191826141d7565b614182565b915081818352602084019350602081019050838560208402820111156131bb57600080fd5b60005b838110156131eb57816131d18882613513565b8452602084019350602083019250506001810190506131be565b5050505092915050565b60006132018251614330565b905092915050565b6000613215823561433c565b905092915050565b6000613229825161433c565b905092915050565b600082601f830112151561324457600080fd5b8135613257613252826141ff565b614182565b9150808252602083016020830185838301111561327357600080fd5b61327e83828461443a565b50505092915050565b60006132938235614346565b905092915050565b60006132a78251614358565b905092915050565b60006132bb823561436a565b905092915050565b60006132cf823561437c565b905092915050565b600082601f83011215156132ea57600080fd5b81356132fd6132f88261422b565b614182565b9150808252602083016020830185838301111561331957600080fd5b61332483828461443a565b50505092915050565b600082601f830112151561334057600080fd5b815161335361334e8261422b565b614182565b9150808252602083016020830185838301111561336f57600080fd5b61337a838284614449565b50505092915050565b60006020828403121561339557600080fd5b61339f6020614182565b9050600082013567ffffffffffffffff8111156133bb57600080fd5b6133c7848285016132d7565b60008301525092915050565b6000606082840312156133e557600080fd5b6133ef6060614182565b905060006133ff848285016130d2565b600083015250602061341384828501613513565b602083015250604082013567ffffffffffffffff81111561343357600080fd5b61343f848285016132d7565b60408301525092915050565b60006040828403121561345d57600080fd5b6134676040614182565b9050600061347784828501613513565b600083015250602082013567ffffffffffffffff81111561349757600080fd5b6134a3848285016132d7565b60208301525092915050565b6000604082840312156134c157600080fd5b6134cb6040614182565b905060006134db84828501613527565b600083015250602082015167ffffffffffffffff8111156134fb57600080fd5b6135078482850161332d565b60208301525092915050565b600061351f823561438e565b905092915050565b6000613533825161438e565b905092915050565b60006020828403121561354d57600080fd5b600061355b848285016130d2565b91505092915050565b60006020828403121561357657600080fd5b6000613584848285016130e6565b91505092915050565b6000806000606084860312156135a257600080fd5b60006135b0868287016130d2565b93505060206135c186828701613209565b925050604084013567ffffffffffffffff8111156135de57600080fd5b6135ea86828701613170565b9150509250925092565b60006020828403121561360657600080fd5b6000613614848285016131f5565b91505092915050565b60006020828403121561362f57600080fd5b600061363d8482850161321d565b91505092915050565b60006020828403121561365857600080fd5b600082013567ffffffffffffffff81111561367257600080fd5b61367e84828501613231565b91505092915050565b60006020828403121561369957600080fd5b60006136a78482850161329b565b91505092915050565b6000806000606084860312156136c557600080fd5b60006136d3868287016132c3565b93505060206136e486828701613287565b92505060406136f5868287016132af565b9150509250925092565b6000806040838503121561371257600080fd5b600083013567ffffffffffffffff81111561372c57600080fd5b61373885828601613383565b925050602083013567ffffffffffffffff81111561375557600080fd5b613761858286016130fa565b9150509250929050565b60006020828403121561377d57600080fd5b600082013567ffffffffffffffff81111561379757600080fd5b6137a38482850161344b565b91505092915050565b6000602082840312156137be57600080fd5b600082015167ffffffffffffffff8111156137d857600080fd5b6137e4848285016134af565b91505092915050565b6000602082840312156137ff57600080fd5b600061380d84828501613513565b91505092915050565b60006020828403121561382857600080fd5b600061383684828501613527565b91505092915050565b6000806040838503121561385257600080fd5b600061386085828601613513565b925050602061387185828601613513565b9150509250929050565b613884816142a4565b82525050565b600061389582614276565b8084526020840193506138a783614257565b60005b828110156138d9576138bd868351613d88565b6138c682614297565b91506020860195506001810190506138aa565b50849250505092915050565b6138ee816142c4565b82525050565b6138fd816142d0565b82525050565b600061390e82614281565b808452613922816020860160208601614449565b61392b8161447c565b602085010191505092915050565b61394281614398565b82525050565b613951816143aa565b82525050565b613960816143bc565b82525050565b61396f816143ce565b82525050565b61397e816143e0565b82525050565b61398d816143f2565b82525050565b61399c81614404565b82525050565b6139ab81614416565b82525050565b6139ba81614428565b82525050565b60006139cb8261428c565b8084526139df816020860160208601614449565b6139e88161447c565b602085010191505092915050565b600081546001811660008114613a135760018114613a3357613a74565b607f600283041680865260ff198316602087015260408601935050613a74565b60028204808652602086019550613a4985614264565b60005b82811015613a6b57815481890152600182019150602081019050613a4c565b80880195505050505b505092915050565b6000601182527f63616e6e6f74206163636570742052464c0000000000000000000000000000006020830152604082019050919050565b6000601182527f63616e6e6f742072656a6563742052464c0000000000000000000000000000006020830152604082019050919050565b6000601282527f52464c20646f6573206e6f7420657869737400000000000000000000000000006020830152604082019050919050565b6000601082527f63616e6e6f74206d6572676520524649000000000000000000000000000000006020830152604082019050919050565b6000601182527f63616e6e6f742072656a656374205246490000000000000000000000000000006020830152604082019050919050565b6000601282527f52464920646f6573206e6f7420657869737400000000000000000000000000006020830152604082019050919050565b60006020830160008301518482036000860152613be382826139c0565b9150508091505092915050565b60006020830160008084018583036000870152613c0d83826139f6565b925050819250505092915050565b6000606083016000830151613c33600086018261387b565b506020830151613c466020860182613d88565b5060408301518482036040860152613c5e82826139c0565b9150508091505092915050565b6000604083016000830151613c836000860182613d88565b5060208301518482036020860152613c9b82826139c0565b9150508091505092915050565b60006080830160008301518482036000860152613cc58282613bc6565b9150506020830151613cda6020860182613d88565b506040830151613ced60408601826139a2565b5060608301518482036060860152613d05828261388a565b9150508091505092915050565b600060a0830160008301518482036000860152613d2f8282613c1b565b9150506020830151613d446020860182613d88565b506040830151613d576040860182613d88565b506060830151613d6a60608601826139b1565b506080830151613d7d6080860182613d88565b508091505092915050565b613d9181614306565b82525050565b6000602082019050613dac600083018461387b565b92915050565b6000608082019050613dc7600083018761387b565b613dd4602083018661387b565b613de160408301856138f4565b8181036060830152613df38184613903565b905095945050505050565b6000604082019050613e13600083018561387b565b613e206020830184613d88565b9392505050565b6000602082019050613e3c60008301846138e5565b92915050565b6000602082019050613e5760008301846138f4565b92915050565b6000604082019050613e7260008301856138f4565b613e7f60208301846138f4565b9392505050565b60006020820190508181036000830152613ea08184613903565b905092915050565b6000602082019050613ebd6000830184613939565b92915050565b6000602082019050613ed86000830184613948565b92915050565b6000602082019050613ef36000830184613957565b92915050565b6000602082019050613f0e6000830184613966565b92915050565b6000602082019050613f296000830184613975565b92915050565b6000602082019050613f446000830184613984565b92915050565b6000602082019050613f5f6000830184613993565b92915050565b60006020820190508181036000830152613f7f81846139c0565b905092915050565b60006020820190508181036000830152613fa081613a7c565b9050919050565b60006020820190508181036000830152613fc081613ab3565b9050919050565b60006020820190508181036000830152613fe081613aea565b9050919050565b6000602082019050818103600083015261400081613b21565b9050919050565b6000602082019050818103600083015261402081613b58565b9050919050565b6000602082019050818103600083015261404081613b8f565b9050919050565b600060608201905081810360008301526140618186613bc6565b90506140706020830185613d88565b61407d60408301846139a2565b949350505050565b6000602082019050818103600083015261409f8184613bf0565b905092915050565b600060a08201905081810360008301526140c18188613c1b565b90506140d06020830187613d88565b6140dd6040830186613d88565b6140ea60608301856139b1565b6140f76080830184613d88565b9695505050505050565b6000602082019050818103600083015261411b8184613c6b565b905092915050565b6000602082019050818103600083015261413d8184613ca8565b905092915050565b6000602082019050818103600083015261415f8184613d12565b905092915050565b600060208201905061417c6000830184613d88565b92915050565b6000604051905081810181811067ffffffffffffffff821117156141a557600080fd5b8060405250919050565b600067ffffffffffffffff8211156141c657600080fd5b602082029050602081019050919050565b600067ffffffffffffffff8211156141ee57600080fd5b602082029050602081019050919050565b600067ffffffffffffffff82111561421657600080fd5b601f19601f8301169050602081019050919050565b600067ffffffffffffffff82111561424257600080fd5b601f19601f8301169050602081019050919050565b6000602082019050919050565b60008160005260206000209050919050565b600081519050919050565b600081519050919050565b600081519050919050565b6000602082019050919050565b600073ffffffffffffffffffffffffffffffffffffffff82169050919050565b60008115159050919050565b6000819050919050565b60006004821015156142e857fe5b819050919050565b60006005821015156142fe57fe5b819050919050565b6000819050919050565b600073ffffffffffffffffffffffffffffffffffffffff82169050919050565b60008115159050919050565b6000819050919050565b6000614351826142a4565b9050919050565b6000614363826142a4565b9050919050565b6000614375826142a4565b9050919050565b6000614387826142a4565b9050919050565b6000819050919050565b60006143a3826142a4565b9050919050565b60006143b5826142a4565b9050919050565b60006143c7826142a4565b9050919050565b60006143d9826142a4565b9050919050565b60006143eb826142a4565b9050919050565b60006143fd826142a4565b9050919050565b600061440f826142a4565b9050919050565b6000614421826142da565b9050919050565b6000614433826142f0565b9050919050565b82818337600083830152505050565b60005b8381101561446757808201518184015260208101905061444c565b83811115614476576000848401525b50505050565b6000601f19601f83011690509190505600a265627a7a72305820c3578a7d8143539cd178f516eda8e02fd5a193e7b1154ae369537326eea76cbf6c6578706572696d656e74616cf50037",
  "source": "pragma solidity ^0.4.24;\npragma experimental ABIEncoderV2;\n\n\nimport \"@aragon/os/contracts/apps/AragonApp.sol\";\nimport \"@pando/core/contracts/organism/IOrganism.sol\";\nimport \"@pando/core/contracts/lib/Pando.sol\";\nimport \"./Genesis.sol\";\nimport \"./Lineage.sol\";\n\n\ncontract Organism is IOrganism, AragonApp {\n    bytes32 constant public CREATE_RFI_ROLE  = keccak256(\"CREATE_RFI_ROLE\");\n    bytes32 constant public MERGE_RFI_ROLE   = keccak256(\"MERGE_RFI_ROLE\");\n    bytes32 constant public REJECT_RFI_ROLE  = keccak256(\"REJECT_RFI_ROLE\");\n    bytes32 constant public ACCEPT_RFL_ROLE  = keccak256(\"ACCEPT_RFL_ROLE\");\n    bytes32 constant public REJECT_RFL_ROLE  = keccak256(\"REJECT_RFL_ROLE\");\n\n    Genesis public genesis;\n    Lineage public lineage;\n    Pando   public pando;\n\n    // Use a mapping instead of an array to ease app upgrade\n    // See https://github.com/aragon/aragon-apps/pull/428\n    // See https://youtu.be/sJ7VECqHFAg?t=9m27s\n    mapping (uint256 => Pando.RFI) public RFIs;\n    mapping (uint256 => Pando.RFL) public RFLs;\n\n    uint256 public RFIsLength = 0;\n    uint256 public RFLsLength = 0;\n\n\n    event CreateRFI(uint256 indexed id);\n    event MergeRFI(uint256 indexed id);\n    event RejectRFI(uint256 indexed id);\n    event CancelRFI(uint256 indexed id);\n\n    event CreateRFL(uint256 indexed id);\n    event AcceptRFL(uint256 indexed id, uint256 value);\n    event RejectRFL(uint256 indexed id);\n    event CancelRFL(uint256 indexed id);\n    event IssueRFL(uint256 indexed id, address destination, uint256 value);\n\n    modifier RFIExists(uint256 _RFIid) {\n        require(_RFIid <= RFIsLength, \"RFI does not exist\");\n        _;\n    }\n\n    modifier RFLExists(uint256 _RFLid) {\n        require(_RFLid <= RFLsLength, \"RFL does not exist\");\n        _;\n    }\n\n    /*--------------------*/\n\n    function initialize(Pando _pando, Genesis _genesis, Lineage _lineage) external onlyInit {\n        initialized();\n        pando = _pando;\n        genesis = _genesis;\n        lineage = _lineage;\n    }\n\n    function createRFI(Pando.IIndividuation _individuation, Pando.ILineage[] _lineages)\n        public\n        isInitialized\n        auth(CREATE_RFI_ROLE)\n        returns (uint256 RFIid)\n    {\n        RFIid = _createRFI(_individuation, _lineages);\n    }\n\n    function mergeRFI(uint256 _RFIid) public auth(MERGE_RFI_ROLE) {\n        require(canMergeRFI(_RFIid), \"cannot merge RFI\");\n        _mergeRFI(_RFIid);\n    }\n\n    function rejectRFI(uint256 _RFIid) public auth(REJECT_RFI_ROLE) {\n        require(canRejectRFI(_RFIid), \"cannot reject RFI\");\n        _rejectRFI(_RFIid);\n    }\n\n    function acceptRFL(uint256 _RFLid, uint256 _value) public auth(ACCEPT_RFL_ROLE) {\n        require(canAcceptRFL(_RFLid, _value), \"cannot accept RFL\");\n        _acceptRFL(_RFLid, _value);\n    }\n\n    function rejectRFL(uint256 _RFLid) public isInitialized auth(REJECT_RFL_ROLE) {\n        require(canRejectRFL(_RFLid), \"cannot reject RFL\");\n        _rejectRFL(_RFLid);\n    }\n\n    /*--------------------*/\n\n    function canMergeRFI(uint256 _RFIid) public view returns (bool) {\n        if (_RFIid > RFIsLength)\n            return false;\n        Pando.RFI storage RFI = RFIs[_RFIid];\n        if (RFI.state != Pando.RFIState.Pending)\n            return false;\n        for (uint256 i = 0; i < RFI.RFLids.length; i++) {\n            Pando.RFL storage RFL = RFLs[RFI.RFLids[i]];\n            if (RFL.state != Pando.RFLState.Accepted)\n                return false;\n        }\n        return true;\n    }\n\n    function canRejectRFI(uint _RFIid) public view returns (bool) {\n        if (_RFIid > RFIsLength)\n            return false;\n        if (RFIs[_RFIid].state != Pando.RFIState.Pending)\n            return false;\n        return true;\n    }\n\n    function canAcceptRFL(uint256 _RFLid, uint256 _value) public view returns (bool) {\n        if (_RFLid > RFLsLength)\n            return false;\n        if (RFLs[_RFLid].state != Pando.RFLState.Pending)\n            return false;\n        if (_value < RFLs[_RFLid].lineage.minimum)\n            return false;\n        return true;\n    }\n\n    function canRejectRFL(uint _RFLid) public view returns (bool) {\n        if (_RFLid > RFLsLength)\n            return false;\n        if (RFLs[_RFLid].state != Pando.RFLState.Pending)\n            return false;\n        return true;\n    }\n\n    /*--------------------*/\n\n    /* function getLineageToken() public view returns (address) {\n        return address(lineage.token());\n    } */\n\n\n    function getRFI(uint256 _RFIid) public view RFIExists(_RFIid) returns (Pando.RFI) {\n        return RFIs[_RFIid];\n    }\n\n    function getRFL(uint256 _RFLid) public view RFLExists(_RFLid) returns (Pando.RFL) {\n        return RFLs[_RFLid];\n    }\n\n    function getIndividuationHash(Pando.Individuation _individuation) public view returns (bytes32) {\n        return pando.hash(_individuation);\n    }\n\n    function head() public view returns (bytes32) {\n        return genesis.head();\n    }\n\n    function getHead() public view returns (Pando.Individuation) {\n        return genesis.getHead();\n    }\n\n    /*--------------------*/\n\n    function _createRFI(Pando.IIndividuation _individuation, Pando.ILineage[] _lineages) internal returns (uint256 RFIid) {\n        // msg.sender is gonna be the address of a governance kit built on top of the API\n        // Do you we wanna make sure that the transaction is actually initialized by _individuation.origin ?\n        // If this is the case then we're gonna need to ask for a proof of identity through a ECDSA signature\n        // See https://github.com/OpenZeppelin/openzeppelin-solidity/blob/master/contracts/cryptography/ECDSA.sol\n\n        RFIsLength = RFIsLength + 1;\n        RFIid = RFIsLength;\n\n        Pando.RFI storage RFI = RFIs[RFIid];\n\n        RFI.individuation.metadata = _individuation.metadata;\n        RFI.blockstamp = block.number;\n        RFI.state = Pando.RFIState.Pending;\n\n        for (uint256 j = 0; j < _lineages.length; j++) {\n            uint256 RFLid = _createRFL(_lineages[j], RFIid);\n            uint256 index = RFI.RFLids.length++;\n            RFI.RFLids[index] = RFLid;\n        }\n\n        emit CreateRFI(RFIid);\n    }\n\n    function _mergeRFI(uint256 _RFIid) internal {\n        Pando.RFI storage RFI = RFIs[_RFIid];\n\n        RFI.state = Pando.RFIState.Merged;\n\n        genesis.individuate(RFI.individuation);\n\n        for (uint256 i = 0; i < RFI.RFLids.length; i++) {\n            _issueRFL(RFI.RFLids[i]);\n        }\n\n        emit MergeRFI(_RFIid);\n    }\n\n    function _rejectRFI(uint256 _RFIid) internal {\n        Pando.RFI storage RFI = RFIs[_RFIid];\n\n        RFI.state = Pando.RFIState.Rejected;\n\n        for (uint256 j = 0; j < RFI.RFLids.length; j++) {\n            _cancelRFL(RFI.RFLids[j]);\n        }\n\n        emit RejectRFI(_RFIid);\n    }\n\n    function _cancelRFI(uint256 _RFIid) internal {\n        Pando.RFI storage RFI = RFIs[_RFIid];\n\n        RFI.state = Pando.RFIState.Cancelled;\n\n        for (uint256 i = 0; i < RFI.RFLids.length; i++) {\n            Pando.RFL storage RFL = RFLs[RFI.RFLids[i]];\n\n            if (RFL.state != Pando.RFLState.Rejected)\n                _cancelRFL(RFI.RFLids[i]);\n        }\n\n        emit CancelRFI(_RFIid);\n    }\n\n    function _createRFL(Pando.ILineage _lineage, uint256 _RFIid) internal returns (uint256 RFLid) {\n        RFLsLength = RFLsLength + 1;\n        RFLid = RFLsLength;\n\n        Pando.RFL storage RFL = RFLs[RFLid];\n\n        RFL.lineage.destination = _lineage.destination;\n        RFL.lineage.minimum = _lineage.minimum;\n        RFL.lineage.metadata = _lineage.metadata;\n        RFL.blockstamp = block.number;\n        RFL.value = 0;\n        RFL.state = Pando.RFLState.Pending;\n        RFL.RFIid = _RFIid;\n\n        emit CreateRFL(RFLid);\n    }\n\n    function _acceptRFL(uint256 _RFLid, uint256 _value) internal {\n        Pando.RFL storage rfl = RFLs[_RFLid];\n\n        rfl.state = Pando.RFLState.Accepted;\n        rfl.value = _value;\n\n        emit AcceptRFL(_RFLid, _value);\n    }\n\n    function _rejectRFL(uint256 _RFLid) internal {\n        Pando.RFL storage rfl = RFLs[_RFLid];\n\n        rfl.state = Pando.RFLState.Rejected;\n\n        _cancelRFI(rfl.RFIid);\n\n        emit RejectRFL(_RFLid);\n    }\n\n    function _cancelRFL(uint256 _RFLid) internal {\n        Pando.RFL storage rfl = RFLs[_RFLid];\n\n        rfl.state = Pando.RFLState.Cancelled;\n\n        emit CancelRFL(_RFLid);\n    }\n\n    function _issueRFL(uint256 _RFLid) internal {\n        Pando.RFL storage rfl = RFLs[_RFLid];\n\n        rfl.state = Pando.RFLState.Issued;\n\n        lineage.mint(rfl.lineage.destination, rfl.value);\n\n        emit IssueRFL(_RFLid, rfl.lineage.destination, rfl.value);\n    }\n}\n",
  "sourcePath": "/Users/osarrouy/Documents/devs/@pando/packages/organism/contracts/Organism.sol",
  "compiler": {
    "name": "solc",
    "version": "0.4.24+commit.e67f0147.Emscripten.clang"
  },
  "schemaVersion": "2.0.1",
  "updatedAt": "2019-01-14T17:56:01.023Z"
}