{
  "contractName": "Organism",
  "abi": [
    {
      "constant": true,
      "inputs": [],
      "name": "hasInitialized",
      "outputs": [
        {
          "name": "",
          "type": "bool"
        }
      ],
      "payable": false,
      "stateMutability": "view",
      "type": "function"
    },
    {
      "constant": true,
      "inputs": [],
      "name": "REJECT_RFL_ROLE",
      "outputs": [
        {
          "name": "",
          "type": "bytes32"
        }
      ],
      "payable": false,
      "stateMutability": "view",
      "type": "function"
    },
    {
      "constant": true,
      "inputs": [],
      "name": "RFLsLength",
      "outputs": [
        {
          "name": "",
          "type": "uint256"
        }
      ],
      "payable": false,
      "stateMutability": "view",
      "type": "function"
    },
    {
      "constant": true,
      "inputs": [
        {
          "name": "_script",
          "type": "bytes"
        }
      ],
      "name": "getEVMScriptExecutor",
      "outputs": [
        {
          "name": "",
          "type": "address"
        }
      ],
      "payable": false,
      "stateMutability": "view",
      "type": "function"
    },
    {
      "constant": true,
      "inputs": [],
      "name": "CREATE_RFI_ROLE",
      "outputs": [
        {
          "name": "",
          "type": "bytes32"
        }
      ],
      "payable": false,
      "stateMutability": "view",
      "type": "function"
    },
    {
      "constant": true,
      "inputs": [],
      "name": "MERGE_RFI_ROLE",
      "outputs": [
        {
          "name": "",
          "type": "bytes32"
        }
      ],
      "payable": false,
      "stateMutability": "view",
      "type": "function"
    },
    {
      "constant": true,
      "inputs": [],
      "name": "getRecoveryVault",
      "outputs": [
        {
          "name": "",
          "type": "address"
        }
      ],
      "payable": false,
      "stateMutability": "view",
      "type": "function"
    },
    {
      "constant": true,
      "inputs": [
        {
          "components": [
            {
              "name": "origin",
              "type": "address"
            },
            {
              "name": "blockstamp",
              "type": "uint256"
            },
            {
              "name": "tree",
              "type": "string"
            },
            {
              "name": "message",
              "type": "string"
            },
            {
              "name": "metadata",
              "type": "string"
            },
            {
              "components": [
                {
                  "name": "organism",
                  "type": "address"
                },
                {
                  "name": "hash",
                  "type": "bytes32"
                }
              ],
              "name": "parents",
              "type": "tuple[]"
            }
          ],
          "name": "_individuation",
          "type": "tuple"
        }
      ],
      "name": "hash",
      "outputs": [
        {
          "name": "",
          "type": "bytes32"
        }
      ],
      "payable": false,
      "stateMutability": "pure",
      "type": "function"
    },
    {
      "constant": true,
      "inputs": [
        {
          "components": [
            {
              "components": [
                {
                  "name": "destination",
                  "type": "address"
                },
                {
                  "name": "minimum",
                  "type": "uint256"
                },
                {
                  "name": "metadata",
                  "type": "string"
                }
              ],
              "name": "lineage",
              "type": "tuple"
            },
            {
              "name": "blockstamp",
              "type": "uint256"
            },
            {
              "name": "value",
              "type": "uint256"
            },
            {
              "name": "state",
              "type": "uint8"
            },
            {
              "name": "RFIid",
              "type": "uint256"
            }
          ],
          "name": "_RFL",
          "type": "tuple"
        }
      ],
      "name": "isAccepted",
      "outputs": [
        {
          "name": "",
          "type": "bool"
        }
      ],
      "payable": false,
      "stateMutability": "pure",
      "type": "function"
    },
    {
      "constant": true,
      "inputs": [
        {
          "name": "",
          "type": "uint256"
        }
      ],
      "name": "RFIs",
      "outputs": [
        {
          "components": [
            {
              "name": "origin",
              "type": "address"
            },
            {
              "name": "tree",
              "type": "string"
            },
            {
              "name": "message",
              "type": "string"
            },
            {
              "name": "metadata",
              "type": "string"
            },
            {
              "components": [
                {
                  "name": "organism",
                  "type": "address"
                },
                {
                  "name": "hash",
                  "type": "bytes32"
                }
              ],
              "name": "parents",
              "type": "tuple[]"
            }
          ],
          "name": "individuation",
          "type": "tuple"
        },
        {
          "name": "blockstamp",
          "type": "uint256"
        },
        {
          "name": "state",
          "type": "uint8"
        }
      ],
      "payable": false,
      "stateMutability": "view",
      "type": "function"
    },
    {
      "constant": true,
      "inputs": [
        {
          "name": "token",
          "type": "address"
        }
      ],
      "name": "allowRecoverability",
      "outputs": [
        {
          "name": "",
          "type": "bool"
        }
      ],
      "payable": false,
      "stateMutability": "view",
      "type": "function"
    },
    {
      "constant": true,
      "inputs": [],
      "name": "RFIsLength",
      "outputs": [
        {
          "name": "",
          "type": "uint256"
        }
      ],
      "payable": false,
      "stateMutability": "view",
      "type": "function"
    },
    {
      "constant": true,
      "inputs": [],
      "name": "appId",
      "outputs": [
        {
          "name": "",
          "type": "bytes32"
        }
      ],
      "payable": false,
      "stateMutability": "view",
      "type": "function"
    },
    {
      "constant": true,
      "inputs": [],
      "name": "getInitializationBlock",
      "outputs": [
        {
          "name": "",
          "type": "uint256"
        }
      ],
      "payable": false,
      "stateMutability": "view",
      "type": "function"
    },
    {
      "constant": true,
      "inputs": [],
      "name": "REJECT_RFI_ROLE",
      "outputs": [
        {
          "name": "",
          "type": "bytes32"
        }
      ],
      "payable": false,
      "stateMutability": "view",
      "type": "function"
    },
    {
      "constant": false,
      "inputs": [
        {
          "name": "_token",
          "type": "address"
        }
      ],
      "name": "transferToVault",
      "outputs": [],
      "payable": false,
      "stateMutability": "nonpayable",
      "type": "function"
    },
    {
      "constant": true,
      "inputs": [
        {
          "name": "_sender",
          "type": "address"
        },
        {
          "name": "_role",
          "type": "bytes32"
        },
        {
          "name": "_params",
          "type": "uint256[]"
        }
      ],
      "name": "canPerform",
      "outputs": [
        {
          "name": "",
          "type": "bool"
        }
      ],
      "payable": false,
      "stateMutability": "view",
      "type": "function"
    },
    {
      "constant": true,
      "inputs": [],
      "name": "getEVMScriptRegistry",
      "outputs": [
        {
          "name": "",
          "type": "address"
        }
      ],
      "payable": false,
      "stateMutability": "view",
      "type": "function"
    },
    {
      "constant": true,
      "inputs": [],
      "name": "genesis",
      "outputs": [
        {
          "name": "",
          "type": "address"
        }
      ],
      "payable": false,
      "stateMutability": "view",
      "type": "function"
    },
    {
      "constant": true,
      "inputs": [],
      "name": "ACCEPT_RFL_ROLE",
      "outputs": [
        {
          "name": "",
          "type": "bytes32"
        }
      ],
      "payable": false,
      "stateMutability": "view",
      "type": "function"
    },
    {
      "constant": true,
      "inputs": [],
      "name": "INDIVIDUATE_ROLE",
      "outputs": [
        {
          "name": "",
          "type": "bytes32"
        }
      ],
      "payable": false,
      "stateMutability": "view",
      "type": "function"
    },
    {
      "constant": true,
      "inputs": [
        {
          "name": "",
          "type": "uint256"
        }
      ],
      "name": "RFLs",
      "outputs": [
        {
          "components": [
            {
              "name": "destination",
              "type": "address"
            },
            {
              "name": "minimum",
              "type": "uint256"
            },
            {
              "name": "metadata",
              "type": "string"
            }
          ],
          "name": "lineage",
          "type": "tuple"
        },
        {
          "name": "blockstamp",
          "type": "uint256"
        },
        {
          "name": "value",
          "type": "uint256"
        },
        {
          "name": "state",
          "type": "uint8"
        },
        {
          "name": "RFIid",
          "type": "uint256"
        }
      ],
      "payable": false,
      "stateMutability": "view",
      "type": "function"
    },
    {
      "constant": true,
      "inputs": [],
      "name": "lineage",
      "outputs": [
        {
          "name": "",
          "type": "address"
        }
      ],
      "payable": false,
      "stateMutability": "view",
      "type": "function"
    },
    {
      "constant": true,
      "inputs": [],
      "name": "kernel",
      "outputs": [
        {
          "name": "",
          "type": "address"
        }
      ],
      "payable": false,
      "stateMutability": "view",
      "type": "function"
    },
    {
      "constant": true,
      "inputs": [],
      "name": "isPetrified",
      "outputs": [
        {
          "name": "",
          "type": "bool"
        }
      ],
      "payable": false,
      "stateMutability": "view",
      "type": "function"
    },
    {
      "constant": true,
      "inputs": [
        {
          "components": [
            {
              "components": [
                {
                  "name": "origin",
                  "type": "address"
                },
                {
                  "name": "tree",
                  "type": "string"
                },
                {
                  "name": "message",
                  "type": "string"
                },
                {
                  "name": "metadata",
                  "type": "string"
                },
                {
                  "components": [
                    {
                      "name": "organism",
                      "type": "address"
                    },
                    {
                      "name": "hash",
                      "type": "bytes32"
                    }
                  ],
                  "name": "parents",
                  "type": "tuple[]"
                }
              ],
              "name": "individuation",
              "type": "tuple"
            },
            {
              "name": "blockstamp",
              "type": "uint256"
            },
            {
              "name": "state",
              "type": "uint8"
            },
            {
              "name": "RFLids",
              "type": "uint256[]"
            }
          ],
          "name": "_RFI",
          "type": "tuple"
        }
      ],
      "name": "isPending",
      "outputs": [
        {
          "name": "",
          "type": "bool"
        }
      ],
      "payable": false,
      "stateMutability": "pure",
      "type": "function"
    },
    {
      "constant": true,
      "inputs": [
        {
          "components": [
            {
              "components": [
                {
                  "name": "destination",
                  "type": "address"
                },
                {
                  "name": "minimum",
                  "type": "uint256"
                },
                {
                  "name": "metadata",
                  "type": "string"
                }
              ],
              "name": "lineage",
              "type": "tuple"
            },
            {
              "name": "blockstamp",
              "type": "uint256"
            },
            {
              "name": "value",
              "type": "uint256"
            },
            {
              "name": "state",
              "type": "uint8"
            },
            {
              "name": "RFIid",
              "type": "uint256"
            }
          ],
          "name": "_RFL",
          "type": "tuple"
        }
      ],
      "name": "isPending",
      "outputs": [
        {
          "name": "",
          "type": "bool"
        }
      ],
      "payable": false,
      "stateMutability": "pure",
      "type": "function"
    },
    {
      "anonymous": false,
      "inputs": [
        {
          "indexed": true,
          "name": "id",
          "type": "uint256"
        }
      ],
      "name": "CreateRFI",
      "type": "event"
    },
    {
      "anonymous": false,
      "inputs": [
        {
          "indexed": true,
          "name": "id",
          "type": "uint256"
        }
      ],
      "name": "MergeRFI",
      "type": "event"
    },
    {
      "anonymous": false,
      "inputs": [
        {
          "indexed": true,
          "name": "id",
          "type": "uint256"
        }
      ],
      "name": "RejectRFI",
      "type": "event"
    },
    {
      "anonymous": false,
      "inputs": [
        {
          "indexed": true,
          "name": "id",
          "type": "uint256"
        }
      ],
      "name": "CancelRFI",
      "type": "event"
    },
    {
      "anonymous": false,
      "inputs": [
        {
          "indexed": true,
          "name": "id",
          "type": "uint256"
        }
      ],
      "name": "CreateRFL",
      "type": "event"
    },
    {
      "anonymous": false,
      "inputs": [
        {
          "indexed": true,
          "name": "id",
          "type": "uint256"
        },
        {
          "indexed": false,
          "name": "value",
          "type": "uint256"
        }
      ],
      "name": "AcceptRFL",
      "type": "event"
    },
    {
      "anonymous": false,
      "inputs": [
        {
          "indexed": true,
          "name": "id",
          "type": "uint256"
        }
      ],
      "name": "RejectRFL",
      "type": "event"
    },
    {
      "anonymous": false,
      "inputs": [
        {
          "indexed": true,
          "name": "id",
          "type": "uint256"
        }
      ],
      "name": "CancelRFL",
      "type": "event"
    },
    {
      "anonymous": false,
      "inputs": [
        {
          "indexed": true,
          "name": "id",
          "type": "uint256"
        },
        {
          "indexed": false,
          "name": "destination",
          "type": "address"
        },
        {
          "indexed": false,
          "name": "value",
          "type": "uint256"
        }
      ],
      "name": "IssueRFL",
      "type": "event"
    },
    {
      "anonymous": false,
      "inputs": [
        {
          "indexed": true,
          "name": "executor",
          "type": "address"
        },
        {
          "indexed": false,
          "name": "script",
          "type": "bytes"
        },
        {
          "indexed": false,
          "name": "input",
          "type": "bytes"
        },
        {
          "indexed": false,
          "name": "returnData",
          "type": "bytes"
        }
      ],
      "name": "ScriptResult",
      "type": "event"
    },
    {
      "constant": false,
      "inputs": [
        {
          "name": "_genesis",
          "type": "address"
        },
        {
          "name": "_lineage",
          "type": "address"
        }
      ],
      "name": "initialize",
      "outputs": [],
      "payable": false,
      "stateMutability": "nonpayable",
      "type": "function"
    },
    {
      "constant": false,
      "inputs": [
        {
          "components": [
            {
              "name": "origin",
              "type": "address"
            },
            {
              "name": "tree",
              "type": "string"
            },
            {
              "name": "message",
              "type": "string"
            },
            {
              "name": "metadata",
              "type": "string"
            },
            {
              "components": [
                {
                  "name": "organism",
                  "type": "address"
                },
                {
                  "name": "hash",
                  "type": "bytes32"
                }
              ],
              "name": "parents",
              "type": "tuple[]"
            }
          ],
          "name": "_individuation",
          "type": "tuple"
        },
        {
          "components": [
            {
              "name": "destination",
              "type": "address"
            },
            {
              "name": "minimum",
              "type": "uint256"
            },
            {
              "name": "metadata",
              "type": "string"
            }
          ],
          "name": "_lineages",
          "type": "tuple[]"
        }
      ],
      "name": "createRFI",
      "outputs": [
        {
          "name": "RFIid",
          "type": "uint256"
        }
      ],
      "payable": false,
      "stateMutability": "nonpayable",
      "type": "function"
    },
    {
      "constant": false,
      "inputs": [
        {
          "name": "_RFIid",
          "type": "uint256"
        }
      ],
      "name": "mergeRFI",
      "outputs": [],
      "payable": false,
      "stateMutability": "nonpayable",
      "type": "function"
    },
    {
      "constant": false,
      "inputs": [
        {
          "name": "_RFIid",
          "type": "uint256"
        }
      ],
      "name": "rejectRFI",
      "outputs": [],
      "payable": false,
      "stateMutability": "nonpayable",
      "type": "function"
    },
    {
      "constant": false,
      "inputs": [
        {
          "name": "_RFLid",
          "type": "uint256"
        },
        {
          "name": "_value",
          "type": "uint256"
        }
      ],
      "name": "acceptRFL",
      "outputs": [],
      "payable": false,
      "stateMutability": "nonpayable",
      "type": "function"
    },
    {
      "constant": false,
      "inputs": [
        {
          "name": "_RFLid",
          "type": "uint256"
        }
      ],
      "name": "rejectRFL",
      "outputs": [],
      "payable": false,
      "stateMutability": "nonpayable",
      "type": "function"
    },
    {
      "constant": true,
      "inputs": [
        {
          "name": "_RFIid",
          "type": "uint256"
        }
      ],
      "name": "canMergeRFI",
      "outputs": [
        {
          "name": "",
          "type": "bool"
        }
      ],
      "payable": false,
      "stateMutability": "view",
      "type": "function"
    },
    {
      "constant": true,
      "inputs": [
        {
          "name": "_RFIid",
          "type": "uint256"
        }
      ],
      "name": "canRejectRFI",
      "outputs": [
        {
          "name": "",
          "type": "bool"
        }
      ],
      "payable": false,
      "stateMutability": "view",
      "type": "function"
    },
    {
      "constant": true,
      "inputs": [
        {
          "name": "_RFLid",
          "type": "uint256"
        },
        {
          "name": "_value",
          "type": "uint256"
        }
      ],
      "name": "canAcceptRFL",
      "outputs": [
        {
          "name": "",
          "type": "bool"
        }
      ],
      "payable": false,
      "stateMutability": "view",
      "type": "function"
    },
    {
      "constant": true,
      "inputs": [
        {
          "name": "_RFLid",
          "type": "uint256"
        }
      ],
      "name": "canRejectRFL",
      "outputs": [
        {
          "name": "",
          "type": "bool"
        }
      ],
      "payable": false,
      "stateMutability": "view",
      "type": "function"
    },
    {
      "constant": true,
      "inputs": [],
      "name": "getLineageToken",
      "outputs": [
        {
          "name": "",
          "type": "address"
        }
      ],
      "payable": false,
      "stateMutability": "view",
      "type": "function"
    },
    {
      "constant": true,
      "inputs": [
        {
          "name": "_RFIid",
          "type": "uint256"
        }
      ],
      "name": "getRFI",
      "outputs": [
        {
          "components": [
            {
              "components": [
                {
                  "name": "origin",
                  "type": "address"
                },
                {
                  "name": "tree",
                  "type": "string"
                },
                {
                  "name": "message",
                  "type": "string"
                },
                {
                  "name": "metadata",
                  "type": "string"
                },
                {
                  "components": [
                    {
                      "name": "organism",
                      "type": "address"
                    },
                    {
                      "name": "hash",
                      "type": "bytes32"
                    }
                  ],
                  "name": "parents",
                  "type": "tuple[]"
                }
              ],
              "name": "individuation",
              "type": "tuple"
            },
            {
              "name": "blockstamp",
              "type": "uint256"
            },
            {
              "name": "state",
              "type": "uint8"
            },
            {
              "name": "RFLids",
              "type": "uint256[]"
            }
          ],
          "name": "",
          "type": "tuple"
        }
      ],
      "payable": false,
      "stateMutability": "view",
      "type": "function"
    },
    {
      "constant": true,
      "inputs": [
        {
          "name": "_RFLid",
          "type": "uint256"
        }
      ],
      "name": "getRFL",
      "outputs": [
        {
          "components": [
            {
              "components": [
                {
                  "name": "destination",
                  "type": "address"
                },
                {
                  "name": "minimum",
                  "type": "uint256"
                },
                {
                  "name": "metadata",
                  "type": "string"
                }
              ],
              "name": "lineage",
              "type": "tuple"
            },
            {
              "name": "blockstamp",
              "type": "uint256"
            },
            {
              "name": "value",
              "type": "uint256"
            },
            {
              "name": "state",
              "type": "uint8"
            },
            {
              "name": "RFIid",
              "type": "uint256"
            }
          ],
          "name": "",
          "type": "tuple"
        }
      ],
      "payable": false,
      "stateMutability": "view",
      "type": "function"
    },
    {
      "constant": true,
      "inputs": [
        {
          "components": [
            {
              "name": "origin",
              "type": "address"
            },
            {
              "name": "blockstamp",
              "type": "uint256"
            },
            {
              "name": "tree",
              "type": "string"
            },
            {
              "name": "message",
              "type": "string"
            },
            {
              "name": "metadata",
              "type": "string"
            },
            {
              "components": [
                {
                  "name": "organism",
                  "type": "address"
                },
                {
                  "name": "hash",
                  "type": "bytes32"
                }
              ],
              "name": "parents",
              "type": "tuple[]"
            }
          ],
          "name": "_individuation",
          "type": "tuple"
        }
      ],
      "name": "getIndividuationHash",
      "outputs": [
        {
          "name": "",
          "type": "bytes32"
        }
      ],
      "payable": false,
      "stateMutability": "pure",
      "type": "function"
    },
    {
      "constant": true,
      "inputs": [],
      "name": "head",
      "outputs": [
        {
          "name": "",
          "type": "bytes32"
        }
      ],
      "payable": false,
      "stateMutability": "view",
      "type": "function"
    },
    {
      "constant": true,
      "inputs": [],
      "name": "getHead",
      "outputs": [
        {
          "components": [
            {
              "name": "origin",
              "type": "address"
            },
            {
              "name": "blockstamp",
              "type": "uint256"
            },
            {
              "name": "tree",
              "type": "string"
            },
            {
              "name": "message",
              "type": "string"
            },
            {
              "name": "metadata",
              "type": "string"
            },
            {
              "components": [
                {
                  "name": "organism",
                  "type": "address"
                },
                {
                  "name": "hash",
                  "type": "bytes32"
                }
              ],
              "name": "parents",
              "type": "tuple[]"
            }
          ],
          "name": "",
          "type": "tuple"
        }
      ],
      "payable": false,
      "stateMutability": "view",
      "type": "function"
    }
  ],
  "bytecode": "0x608060405260006004556000600555620000276200002d640100000000026401000000009004565b620002f9565b60006200004862000102640100000000026401000000009004565b146040805190810160405280601881526020017f494e49545f414c52454144595f494e495449414c495a45440000000000000000815250901515620000c5576040517f08c379a0000000000000000000000000000000000000000000000000000000008152600401620000bc919062000283565b60405180910390fd5b50620001007fffffffffffffffffffffffffffffffffffffffffffffffffffffffffffffffff6200014f640100000000026401000000009004565b565b60006200014a7febb05b386a8d34882b8711d156f463690983dc47815980fb82aeeff1aa43579e6001026000191662000235640100000000026200339c176401000000009004565b905090565b60006200016a62000102640100000000026401000000009004565b146040805190810160405280601881526020017f494e49545f414c52454144595f494e495449414c495a45440000000000000000815250901515620001e7576040517f08c379a0000000000000000000000000000000000000000000000000000000008152600401620001de919062000283565b60405180910390fd5b5062000232817febb05b386a8d34882b8711d156f463690983dc47815980fb82aeeff1aa43579e6001026000191662000240640100000000026200367d179091906401000000009004565b50565b600081549050919050565b8082555050565b60006200025482620002a7565b8084526200026a816020860160208601620002b2565b6200027581620002e8565b602085010191505092915050565b600060208201905081810360008301526200029f818462000247565b905092915050565b600081519050919050565b60005b83811015620002d2578082015181840152602081019050620002b5565b83811115620002e2576000848401525b50505050565b6000601f19601f8301169050919050565b61599980620003096000396000f30060806040526004361061020f576000357c0100000000000000000000000000000000000000000000000000000000900463ffffffff1680630803fac014610214578063082367801461023f578063103a90c81461026a578063143700be146102955780632914b9bd146102c05780632adab4ea146102fd5780632d2e8012146103285780633181f6b21461035357806332f0a3b51461039057806333ff6870146103bb57806339a2d338146103f85780634752915d14610435578063485cc955146104725780635b15970d1461049b5780635bddb420146104d85780636d5f5ca7146105175780636e0b314c14610540578063748b052c146105695780637e7db6e11461059257806380201af2146105cf57806380afdea8146105fa578063889bd35d146106255780638b3dd749146106625780638f7dcfa31461068d57806397569bb1146106b85780639bdc706d146106e35780639d4941d814610720578063a1658fad14610749578063a479e50814610786578063a7f0b3de146107b1578063b462e70b146107dc578063c34e0ed614610807578063c3eefd1e14610832578063c538f7de1461086f578063c74656e7146108b0578063d4aae0c4146108db578063dc281aff14610906578063ddf6fa9c14610931578063de4796ed1461095a578063e7fd8d0814610985578063e95fe2ff146109c2578063fd47d203146109ff578063fec7d70b14610a3c575b600080fd5b34801561022057600080fd5b50610229610a79565b604051610236919061525a565b60405180910390f35b34801561024b57600080fd5b50610254610aa4565b6040516102619190615275565b60405180910390f35b34801561027657600080fd5b5061027f610add565b60405161028c919061557f565b60405180910390f35b3480156102a157600080fd5b506102aa610ae3565b6040516102b791906151ca565b60405180910390f35b3480156102cc57600080fd5b506102e760048036036102e291908101906147c3565b610b0d565b6040516102f491906152f6565b60405180910390f35b34801561030957600080fd5b50610312610bc4565b60405161031f9190615275565b60405180910390f35b34801561033457600080fd5b5061033d610bfd565b60405161034a9190615275565b60405180910390f35b34801561035f57600080fd5b5061037a60048036036103759190810190614869565b610c36565b604051610387919061557f565b60405180910390f35b34801561039c57600080fd5b506103a5610db8565b6040516103b291906151ca565b60405180910390f35b3480156103c757600080fd5b506103e260048036036103dd91908101906149d9565b610e62565b6040516103ef919061525a565b60405180910390f35b34801561040457600080fd5b5061041f600480360361041a91908101906148d5565b610ecd565b60405161042c9190615275565b60405180910390f35b34801561044157600080fd5b5061045c60048036036104579190810190614a2b565b6110ae565b604051610469919061525a565b60405180910390f35b34801561047e57600080fd5b5061049960048036036104949190810190614804565b611144565b005b3480156104a757600080fd5b506104c260048036036104bd9190810190614998565b611256565b6040516104cf919061525a565b60405180910390f35b3480156104e457600080fd5b506104ff60048036036104fa91908101906149d9565b61127d565b60405161050e9392919061545f565b60405180910390f35b34801561052357600080fd5b5061053e60048036036105399190810190614a2b565b6115c2565b005b34801561054c57600080fd5b50610567600480360361056291908101906149d9565b611789565b005b34801561057557600080fd5b50610590600480360361058b91908101906149d9565b61194d565b005b34801561059e57600080fd5b506105b960048036036105b491908101906146b8565b611b11565b6040516105c6919061525a565b60405180910390f35b3480156105db57600080fd5b506105e4611b1c565b6040516105f1919061557f565b60405180910390f35b34801561060657600080fd5b5061060f611b22565b60405161061c9190615275565b60405180910390f35b34801561063157600080fd5b5061064c600480360361064791908101906149d9565b611b59565b604051610659919061555d565b60405180910390f35b34801561066e57600080fd5b50610677611d32565b604051610684919061557f565b60405180910390f35b34801561069957600080fd5b506106a2611d69565b6040516106af9190615275565b60405180910390f35b3480156106c457600080fd5b506106cd611e2d565b6040516106da9190615275565b60405180910390f35b3480156106ef57600080fd5b5061070a600480360361070591908101906149d9565b611e66565b604051610717919061525a565b60405180910390f35b34801561072c57600080fd5b50610747600480360361074291908101906146b8565b611ed1565b005b34801561075557600080fd5b50610770600480360361076b919081019061470a565b6121d5565b60405161077d919061525a565b60405180910390f35b34801561079257600080fd5b5061079b612302565b6040516107a89190615311565b60405180910390f35b3480156107bd57600080fd5b506107c6612404565b6040516107d391906152db565b60405180910390f35b3480156107e857600080fd5b506107f1612429565b6040516107fe9190615275565b60405180910390f35b34801561081357600080fd5b5061081c612462565b6040516108299190615275565b60405180910390f35b34801561083e57600080fd5b50610859600480360361085491908101906149d9565b61249b565b604051610866919061525a565b60405180910390f35b34801561087b57600080fd5b50610896600480360361089191908101906149d9565b61259b565b6040516108a79594939291906154bf565b60405180910390f35b3480156108bc57600080fd5b506108c56126eb565b6040516108d29190615347565b60405180910390f35b3480156108e757600080fd5b506108f0612711565b6040516108fd919061532c565b60405180910390f35b34801561091257600080fd5b5061091b612748565b6040516109289190615519565b60405180910390f35b34801561093d57600080fd5b50610958600480360361095391908101906149d9565b612817565b005b34801561096657600080fd5b5061096f6129db565b60405161097c919061525a565b60405180910390f35b34801561099157600080fd5b506109ac60048036036109a79190810190614957565b612a0c565b6040516109b9919061525a565b60405180910390f35b3480156109ce57600080fd5b506109e960048036036109e49190810190614998565b612a32565b6040516109f6919061525a565b60405180910390f35b348015610a0b57600080fd5b50610a266004803603610a2191908101906148d5565b612a58565b604051610a339190615275565b60405180910390f35b348015610a4857600080fd5b50610a636004803603610a5e91908101906149d9565b612a6a565b604051610a70919061553b565b60405180910390f35b600080610a84611d32565b905060008114158015610a9e575080610a9b612e88565b10155b91505090565b60405180807f52454a4543545f52464c5f524f4c450000000000000000000000000000000000815250600f019050604051809103902081565b60055481565b6000600160009054906101000a900473ffffffffffffffffffffffffffffffffffffffff16905090565b6000610b17612302565b73ffffffffffffffffffffffffffffffffffffffff166304bf2a7f836040518263ffffffff167c0100000000000000000000000000000000000000000000000000000000028152600401610b6b91906152b9565b602060405180830381600087803b158015610b8557600080fd5b505af1158015610b99573d6000803e3d6000fd5b505050506040513d601f19601f82011682018060405250610bbd9190810190614840565b9050919050565b60405180807f4352454154455f5246495f524f4c450000000000000000000000000000000000815250600f019050604051809103902081565b60405180807f4d455247455f5246495f524f4c45000000000000000000000000000000000000815250600e019050604051809103902081565b6000610c40610a79565b6040805190810160405280601481526020017f494e49545f4e4f545f494e495449414c495a4544000000000000000000000000815250901515610cb9576040517f08c379a0000000000000000000000000000000000000000000000000000000008152600401610cb0919061537d565b60405180910390fd5b5060405180807f4352454154455f5246495f524f4c450000000000000000000000000000000000815250600f0190506040518091039020610d2b33826000604051908082528060200260200182016040528015610d255781602001602082028038833980820191505090505b506121d5565b6040805190810160405280600f81526020017f4150505f415554485f4641494c45440000000000000000000000000000000000815250901515610da4576040517f08c379a0000000000000000000000000000000000000000000000000000000008152600401610d9b919061537d565b60405180910390fd5b50610daf8484612e90565b91505092915050565b6000610dc2612711565b73ffffffffffffffffffffffffffffffffffffffff166332f0a3b56040518163ffffffff167c0100000000000000000000000000000000000000000000000000000000028152600401602060405180830381600087803b158015610e2557600080fd5b505af1158015610e39573d6000803e3d6000fd5b505050506040513d601f19601f82011682018060405250610e5d91908101906146e1565b905090565b6000600554821115610e775760009050610ec8565b60006004811115610e8457fe5b6003600084815260200190815260200160002060050160009054906101000a900460ff166004811115610eb357fe5b141515610ec35760009050610ec8565b600190505b919050565b600081600001518260200151836040015184606001518560800151604051602001808673ffffffffffffffffffffffffffffffffffffffff1673ffffffffffffffffffffffffffffffffffffffff166c0100000000000000000000000002815260140185815260200184805190602001908083835b602083101515610f675780518252602082019150602081019050602083039250610f42565b6001836020036101000a03801982511681845116808217855250505050505090500183805190602001908083835b602083101515610fba5780518252602082019150602081019050602083039250610f95565b6001836020036101000a03801982511681845116808217855250505050505090500182805190602001908083835b60208310151561100d5780518252602082019150602081019050602083039250610fe8565b6001836020036101000a038019825116818451168082178552505050505050905001955050505050506040516020818303038152906040526040518082805190602001908083835b60208310151561107a5780518252602082019150602081019050602083039250611055565b6001836020036101000a03801982511681845116808217855250505050505090500191505060405180910390209050919050565b60006005548311156110c3576000905061113e565b600060048111156110d057fe5b6003600085815260200190815260200160002060050160009054906101000a900460ff1660048111156110ff57fe5b14151561110f576000905061113e565b6003600084815260200190815260200160002060000160010154821015611139576000905061113e565b600190505b92915050565b600061114e611d32565b146040805190810160405280601881526020017f494e49545f414c52454144595f494e495449414c495a454400000000000000008152509015156111c8576040517f08c379a00000000000000000000000000000000000000000000000000000000081526004016111bf919061537d565b60405180910390fd5b506111d1613116565b816000806101000a81548173ffffffffffffffffffffffffffffffffffffffff021916908373ffffffffffffffffffffffffffffffffffffffff16021790555080600160006101000a81548173ffffffffffffffffffffffffffffffffffffffff021916908373ffffffffffffffffffffffffffffffffffffffff1602179055505050565b60006001600481111561126557fe5b8260600151600481111561127557fe5b149050919050565b60026020528060005260406000206000915090508060000160a060405190810160405290816000820160009054906101000a900473ffffffffffffffffffffffffffffffffffffffff1673ffffffffffffffffffffffffffffffffffffffff1673ffffffffffffffffffffffffffffffffffffffff168152602001600182018054600181600116156101000203166002900480601f0160208091040260200160405190810160405280929190818152602001828054600181600116156101000203166002900480156113905780601f1061136557610100808354040283529160200191611390565b820191906000526020600020905b81548152906001019060200180831161137357829003601f168201915b50505050508152602001600282018054600181600116156101000203166002900480601f0160208091040260200160405190810160405280929190818152602001828054600181600116156101000203166002900480156114325780601f1061140757610100808354040283529160200191611432565b820191906000526020600020905b81548152906001019060200180831161141557829003601f168201915b50505050508152602001600382018054600181600116156101000203166002900480601f0160208091040260200160405190810160405280929190818152602001828054600181600116156101000203166002900480156114d45780601f106114a9576101008083540402835291602001916114d4565b820191906000526020600020905b8154815290600101906020018083116114b757829003601f168201915b5050505050815260200160048201805480602002602001604051908101604052809291908181526020016000905b8282101561159c57838290600052602060002090600202016040805190810160405290816000820160009054906101000a900473ffffffffffffffffffffffffffffffffffffffff1673ffffffffffffffffffffffffffffffffffffffff1673ffffffffffffffffffffffffffffffffffffffff168152602001600182015460001916600019168152505081526020019060010190611502565b5050505081525050908060050154908060060160009054906101000a900460ff16905083565b6115ca610a79565b6040805190810160405280601481526020017f494e49545f4e4f545f494e495449414c495a4544000000000000000000000000815250901515611643576040517f08c379a000000000000000000000000000000000000000000000000000000000815260040161163a919061537d565b60405180910390fd5b5060405180807f4143434550545f52464c5f524f4c450000000000000000000000000000000000815250600f01905060405180910390206116b5338260006040519080825280602002602001820160405280156116af5781602001602082028038833980820191505090505b506121d5565b6040805190810160405280600f81526020017f4150505f415554485f4641494c4544000000000000000000000000000000000081525090151561172e576040517f08c379a0000000000000000000000000000000000000000000000000000000008152600401611725919061537d565b60405180910390fd5b5061173983836110ae565b151561177a576040517f08c379a00000000000000000000000000000000000000000000000000000000081526004016117719061539f565b60405180910390fd5b61178483836131de565b505050565b611791610a79565b6040805190810160405280601481526020017f494e49545f4e4f545f494e495449414c495a454400000000000000000000000081525090151561180a576040517f08c379a0000000000000000000000000000000000000000000000000000000008152600401611801919061537d565b60405180910390fd5b5060405180807f52454a4543545f52464c5f524f4c450000000000000000000000000000000000815250600f019050604051809103902061187c338260006040519080825280602002602001820160405280156118765781602001602082028038833980820191505090505b506121d5565b6040805190810160405280600f81526020017f4150505f415554485f4641494c454400000000000000000000000000000000008152509015156118f5576040517f08c379a00000000000000000000000000000000000000000000000000000000081526004016118ec919061537d565b60405180910390fd5b506118ff82610e62565b1515611940576040517f08c379a0000000000000000000000000000000000000000000000000000000008152600401611937906153bf565b60405180910390fd5b61194982613261565b5050565b611955610a79565b6040805190810160405280601481526020017f494e49545f4e4f545f494e495449414c495a45440000000000000000000000008152509015156119ce576040517f08c379a00000000000000000000000000000000000000000000000000000000081526004016119c5919061537d565b60405180910390fd5b5060405180807f52454a4543545f5246495f524f4c450000000000000000000000000000000000815250600f0190506040518091039020611a4033826000604051908082528060200260200182016040528015611a3a5781602001602082028038833980820191505090505b506121d5565b6040805190810160405280600f81526020017f4150505f415554485f4641494c45440000000000000000000000000000000000815250901515611ab9576040517f08c379a0000000000000000000000000000000000000000000000000000000008152600401611ab0919061537d565b60405180910390fd5b50611ac382611e66565b1515611b04576040517f08c379a0000000000000000000000000000000000000000000000000000000008152600401611afb9061541f565b60405180910390fd5b611b0d826132dc565b5050565b600060019050919050565b60045481565b6000611b547fd625496217aa6a3453eecb9c3489dc5a53e6c67b444329ea2b2cbc9ff547639b60010260001916613391565b905090565b611b61613988565b816005548111151515611ba9576040517f08c379a0000000000000000000000000000000000000000000000000000000008152600401611ba0906153df565b60405180910390fd5b6003600084815260200190815260200160002060a0604051908101604052908160008201606060405190810160405290816000820160009054906101000a900473ffffffffffffffffffffffffffffffffffffffff1673ffffffffffffffffffffffffffffffffffffffff1673ffffffffffffffffffffffffffffffffffffffff16815260200160018201548152602001600282018054600181600116156101000203166002900480601f016020809104026020016040519081016040528092919081815260200182805460018160011615610100020316600290048015611cd25780601f10611ca757610100808354040283529160200191611cd2565b820191906000526020600020905b815481529060010190602001808311611cb557829003601f168201915b505050505081525050815260200160038201548152602001600482015481526020016005820160009054906101000a900460ff166004811115611d1157fe5b6004811115611d1c57fe5b8152602001600682015481525050915050919050565b6000611d647febb05b386a8d34882b8711d156f463690983dc47815980fb82aeeff1aa43579e6001026000191661339c565b905090565b60008060009054906101000a900473ffffffffffffffffffffffffffffffffffffffff1673ffffffffffffffffffffffffffffffffffffffff16638f7dcfa36040518163ffffffff167c0100000000000000000000000000000000000000000000000000000000028152600401602060405180830381600087803b158015611df057600080fd5b505af1158015611e04573d6000803e3d6000fd5b505050506040513d601f19601f82011682018060405250611e28919081019061479a565b905090565b60405180807f52454a4543545f5246495f524f4c450000000000000000000000000000000000815250600f019050604051809103902081565b6000600454821115611e7b5760009050611ecc565b60006003811115611e8857fe5b6002600084815260200190815260200160002060060160009054906101000a900460ff166003811115611eb757fe5b141515611ec75760009050611ecc565b600190505b919050565b600080611edd83611b11565b6040805190810160405280601281526020017f5245434f5645525f444953414c4c4f5745440000000000000000000000000000815250901515611f56576040517f08c379a0000000000000000000000000000000000000000000000000000000008152600401611f4d919061537d565b60405180910390fd5b50611f5f610db8565b9150611f6a826133a7565b6040805190810160405280601a81526020017f5245434f5645525f5641554c545f4e4f545f434f4e5452414354000000000000815250901515611fe3576040517f08c379a0000000000000000000000000000000000000000000000000000000008152600401611fda919061537d565b60405180910390fd5b50600073ffffffffffffffffffffffffffffffffffffffff168373ffffffffffffffffffffffffffffffffffffffff16141561207c578173ffffffffffffffffffffffffffffffffffffffff166108fc3073ffffffffffffffffffffffffffffffffffffffff16319081150290604051600060405180830381858888f19350505050158015612076573d6000803e3d6000fd5b506121d0565b8273ffffffffffffffffffffffffffffffffffffffff166370a08231306040518263ffffffff167c01000000000000000000000000000000000000000000000000000000000281526004016120d19190615362565b602060405180830381600087803b1580156120eb57600080fd5b505af11580156120ff573d6000803e3d6000fd5b505050506040513d601f19601f820116820180604052506121239190810190614a02565b90508273ffffffffffffffffffffffffffffffffffffffff1663a9059cbb83836040518363ffffffff167c010000000000000000000000000000000000000000000000000000000002815260040161217c929190615231565b602060405180830381600087803b15801561219657600080fd5b505af11580156121aa573d6000803e3d6000fd5b505050506040513d601f19601f820116820180604052506121ce9190810190614771565b505b505050565b600080606060006121e4610a79565b15156121f357600093506122f8565b6121fb612711565b9250600073ffffffffffffffffffffffffffffffffffffffff168373ffffffffffffffffffffffffffffffffffffffff16141561223b57600093506122f8565b602085510290508491508082528273ffffffffffffffffffffffffffffffffffffffff1663fdef9106883089866040518563ffffffff167c01000000000000000000000000000000000000000000000000000000000281526004016122a394939291906151e5565b602060405180830381600087803b1580156122bd57600080fd5b505af11580156122d1573d6000803e3d6000fd5b505050506040513d601f19601f820116820180604052506122f59190810190614771565b93505b5050509392505050565b60008061230d612711565b73ffffffffffffffffffffffffffffffffffffffff1663be00bbd87fd6f028ca0e8edb4a8c9757ca4fdccab25fa1e0317da1188108f7d2dee14902fb6001027fddbcfd564f642ab5627cf68b9b7d374fb4f8a36e941a75d89c87998cef03bd616001026040518363ffffffff167c01000000000000000000000000000000000000000000000000000000000281526004016123a9929190615290565b602060405180830381600087803b1580156123c357600080fd5b505af11580156123d7573d6000803e3d6000fd5b505050506040513d601f19601f820116820180604052506123fb91908101906146e1565b90508091505090565b6000809054906101000a900473ffffffffffffffffffffffffffffffffffffffff1681565b60405180807f4143434550545f52464c5f524f4c450000000000000000000000000000000000815250600f019050604051809103902081565b60405180807f494e4449564944554154455f524f4c45000000000000000000000000000000008152506010019050604051809103902081565b6000806000806004548511156124b45760009350612593565b600260008681526020019081526020016000209250600060038111156124d657fe5b8360060160009054906101000a900460ff1660038111156124f357fe5b1415156125035760009350612593565b600091505b826007018054905082101561258e5760036000846007018481548110151561252c57fe5b9060005260206000200154815260200190815260200160002090506001600481111561255457fe5b8160050160009054906101000a900460ff16600481111561257157fe5b1415156125815760009350612593565b8180600101925050612508565b600193505b505050919050565b600360205280600052604060002060009150905080600001606060405190810160405290816000820160009054906101000a900473ffffffffffffffffffffffffffffffffffffffff1673ffffffffffffffffffffffffffffffffffffffff1673ffffffffffffffffffffffffffffffffffffffff16815260200160018201548152602001600282018054600181600116156101000203166002900480601f0160208091040260200160405190810160405280929190818152602001828054600181600116156101000203166002900480156126b85780601f1061268d576101008083540402835291602001916126b8565b820191906000526020600020905b81548152906001019060200180831161269b57829003601f168201915b505050505081525050908060030154908060040154908060050160009054906101000a900460ff16908060060154905085565b600160009054906101000a900473ffffffffffffffffffffffffffffffffffffffff1681565b60006127437f4172f0f7d2289153072b0a6ca36959e0cbe2efc3afe50fc81636caa96338137b600102600019166133f9565b905090565b6127506139c9565b6000809054906101000a900473ffffffffffffffffffffffffffffffffffffffff1673ffffffffffffffffffffffffffffffffffffffff1663dc281aff6040518163ffffffff167c0100000000000000000000000000000000000000000000000000000000028152600401600060405180830381600087803b1580156127d557600080fd5b505af11580156127e9573d6000803e3d6000fd5b505050506040513d6000823e3d601f19601f820116820180604052506128129190810190614916565b905090565b61281f610a79565b6040805190810160405280601481526020017f494e49545f4e4f545f494e495449414c495a4544000000000000000000000000815250901515612898576040517f08c379a000000000000000000000000000000000000000000000000000000000815260040161288f919061537d565b60405180910390fd5b5060405180807f4d455247455f5246495f524f4c45000000000000000000000000000000000000815250600e019050604051809103902061290a338260006040519080825280602002602001820160405280156129045781602001602082028038833980820191505090505b506121d5565b6040805190810160405280600f81526020017f4150505f415554485f4641494c45440000000000000000000000000000000000815250901515612983576040517f08c379a000000000000000000000000000000000000000000000000000000000815260040161297a919061537d565b60405180910390fd5b5061298d8261249b565b15156129ce576040517f08c379a00000000000000000000000000000000000000000000000000000000081526004016129c5906153ff565b60405180910390fd5b6129d782613404565b5050565b60007fffffffffffffffffffffffffffffffffffffffffffffffffffffffffffffffff612a06611d32565b14905090565b6000806003811115612a1a57fe5b82604001516003811115612a2a57fe5b149050919050565b6000806004811115612a4057fe5b82606001516004811115612a5057fe5b149050919050565b6000612a6382610ecd565b9050919050565b612a72613a16565b816004548111151515612aba576040517f08c379a0000000000000000000000000000000000000000000000000000000008152600401612ab19061543f565b60405180910390fd5b60026000848152602001908152602001600020608060405190810160405290816000820160a060405190810160405290816000820160009054906101000a900473ffffffffffffffffffffffffffffffffffffffff1673ffffffffffffffffffffffffffffffffffffffff1673ffffffffffffffffffffffffffffffffffffffff168152602001600182018054600181600116156101000203166002900480601f016020809104026020016040519081016040528092919081815260200182805460018160011615610100020316600290048015612bd95780601f10612bae57610100808354040283529160200191612bd9565b820191906000526020600020905b815481529060010190602001808311612bbc57829003601f168201915b50505050508152602001600282018054600181600116156101000203166002900480601f016020809104026020016040519081016040528092919081815260200182805460018160011615610100020316600290048015612c7b5780601f10612c5057610100808354040283529160200191612c7b565b820191906000526020600020905b815481529060010190602001808311612c5e57829003601f168201915b50505050508152602001600382018054600181600116156101000203166002900480601f016020809104026020016040519081016040528092919081815260200182805460018160011615610100020316600290048015612d1d5780601f10612cf257610100808354040283529160200191612d1d565b820191906000526020600020905b815481529060010190602001808311612d0057829003601f168201915b5050505050815260200160048201805480602002602001604051908101604052809291908181526020016000905b82821015612de557838290600052602060002090600202016040805190810160405290816000820160009054906101000a900473ffffffffffffffffffffffffffffffffffffffff1673ffffffffffffffffffffffffffffffffffffffff1673ffffffffffffffffffffffffffffffffffffffff168152602001600182015460001916600019168152505081526020019060010190612d4b565b50505050815250508152602001600582015481526020016006820160009054906101000a900460ff166003811115612e1957fe5b6003811115612e2457fe5b815260200160078201805480602002602001604051908101604052809291908181526020018280548015612e7757602002820191906000526020600020905b815481526020019060010190808311612e63575b505050505081525050915050919050565b600043905090565b600080600080600080600160045401600481905550600454955060026000878152602001908152602001600020945087600001518560000160000160006101000a81548173ffffffffffffffffffffffffffffffffffffffff021916908373ffffffffffffffffffffffffffffffffffffffff1602179055508760200151856000016001019080519060200190612f28929190613a51565b508760400151856000016002019080519060200190612f48929190613a51565b508760600151856000016003019080519060200190612f68929190613a51565b5043856005018190555060008560060160006101000a81548160ff02191690836003811115612f9357fe5b02179055508760800151518560000160040181612fb09190613ad1565b50600093505b87608001515184101561306857876080015184815181101515612fd557fe5b906020019060200201518560000160040185815481101515612ff357fe5b906000526020600020906002020160008201518160000160006101000a81548173ffffffffffffffffffffffffffffffffffffffff021916908373ffffffffffffffffffffffffffffffffffffffff160217905550602082015181600101906000191690559050508380600101945050612fb6565b600092505b86518310156130de57613097878481518110151561308757fe5b9060200190602002015187613564565b91508460070180548091906001016130af9190613b03565b90508185600701828154811015156130c357fe5b9060005260206000200181905550828060010193505061306d565b857f35f2129c6d5c40f8bfc21ff096fc803eed03c578d74fabcf718966bce5e43a2460405160405180910390a2505050505092915050565b6000613120611d32565b146040805190810160405280601881526020017f494e49545f414c52454144595f494e495449414c495a4544000000000000000081525090151561319a576040517f08c379a0000000000000000000000000000000000000000000000000000000008152600401613191919061537d565b60405180910390fd5b506131dc6131a6612e88565b7febb05b386a8d34882b8711d156f463690983dc47815980fb82aeeff1aa43579e6001026000191661367d90919063ffffffff16565b565b600060036000848152602001908152602001600020905060018160050160006101000a81548160ff0219169083600481111561321657fe5b0217905550818160040181905550827fe798dd1723e7dfead0c42290d937f51c95c8f80f616ab3c5d515dd62333d0c6983604051613254919061557f565b60405180910390a2505050565b600060036000838152602001908152602001600020905060038160050160006101000a81548160ff0219169083600481111561329957fe5b02179055506132ab8160060154613684565b817feffb45481cc046f2f78b484c7ef03097fc7cd3f8cf92a6f150a6264c96c3e72c60405160405180910390a25050565b60008060026000848152602001908152602001600020915060028260060160006101000a81548160ff0219169083600381111561331557fe5b0217905550600090505b816007018054905081101561335f57613352826007018281548110151561334257fe5b906000526020600020015461379e565b808060010191505061331f565b827f572671bf73ebac1f3878b683b28d9a3864df03396326fbaa18f19c834a54b13a60405160405180910390a2505050565b600081549050919050565b600081549050919050565b600080600073ffffffffffffffffffffffffffffffffffffffff168373ffffffffffffffffffffffffffffffffffffffff1614156133e857600091506133f3565b823b90506000811191505b50919050565b600081549050919050565b60008060026000848152602001908152602001600020915060018260060160006101000a81548160ff0219169083600381111561343d57fe5b02179055506000809054906101000a900473ffffffffffffffffffffffffffffffffffffffff1673ffffffffffffffffffffffffffffffffffffffff1663a0a66f7c836000016040518263ffffffff167c01000000000000000000000000000000000000000000000000000000000281526004016134bb919061549d565b600060405180830381600087803b1580156134d557600080fd5b505af11580156134e9573d6000803e3d6000fd5b50505050600090505b816007018054905081101561353257613525826007018281548110151561351557fe5b906000526020600020015461380c565b80806001019150506134f2565b827f2ade3f30658e8481c8027d9227280e030ebbea37526a8e9e29887165e919e2ed60405160405180910390a2505050565b600080600160055401600581905550600554915060036000838152602001908152602001600020905083600001518160000160000160006101000a81548173ffffffffffffffffffffffffffffffffffffffff021916908373ffffffffffffffffffffffffffffffffffffffff160217905550836020015181600001600101819055508360400151816000016002019080519060200190613606929190613a51565b504381600301819055506000816004018190555060008160050160006101000a81548160ff0219169083600481111561363b57fe5b0217905550828160060181905550817fb696b79e6fa6e3e43f047d6702fce861e48c2267eeb009745f44a84b2c1dac4a60405160405180910390a25092915050565b8082555050565b600080600060026000858152602001908152602001600020925060038360060160006101000a81548160ff021916908360038111156136bf57fe5b0217905550600091505b826007018054905082101561376b576003600084600701848154811015156136ed57fe5b9060005260206000200154815260200190815260200160002090506003600481111561371557fe5b8160050160009054906101000a900460ff16600481111561373257fe5b14151561375e5761375d836007018381548110151561374d57fe5b906000526020600020015461379e565b5b81806001019250506136c9565b837f17c608dd7335e9c727c3e10aea0adfba0b0e6cc35c4935c1de31e3b10711da7560405160405180910390a250505050565b600060036000838152602001908152602001600020905060048160050160006101000a81548160ff021916908360048111156137d657fe5b0217905550817f7b78710b9fa400a202f9262b7daad859bf5663f0d88d45073184584fe6a166e060405160405180910390a25050565b600060036000838152602001908152602001600020905060028160050160006101000a81548160ff0219169083600481111561384457fe5b0217905550600160009054906101000a900473ffffffffffffffffffffffffffffffffffffffff1673ffffffffffffffffffffffffffffffffffffffff166340c10f198260000160000160009054906101000a900473ffffffffffffffffffffffffffffffffffffffff1683600401546040518363ffffffff167c01000000000000000000000000000000000000000000000000000000000281526004016138ed929190615231565b600060405180830381600087803b15801561390757600080fd5b505af115801561391b573d6000803e3d6000fd5b50505050817fb74d3ab32949c67c027c76911841ff5e997d1276e5244bba79e532fa6ce91f838260000160000160009054906101000a900473ffffffffffffffffffffffffffffffffffffffff16836004015460405161397c929190615231565b60405180910390a25050565b60e06040519081016040528061399c613b2f565b81526020016000815260200160008152602001600060048111156139bc57fe5b8152602001600081525090565b60c060405190810160405280600073ffffffffffffffffffffffffffffffffffffffff16815260200160008152602001606081526020016060815260200160608152602001606081525090565b61010060405190810160405280613a2b613b67565b81526020016000815260200160006003811115613a4457fe5b8152602001606081525090565b828054600181600116156101000203166002900490600052602060002090601f016020900481019282601f10613a9257805160ff1916838001178555613ac0565b82800160010185558215613ac0579182015b82811115613abf578251825591602001919060010190613aa4565b5b509050613acd9190613bad565b5090565b815481835581811115613afe57600202816002028360005260206000209182019101613afd9190613bd2565b5b505050565b815481835581811115613b2a57818360005260206000209182019101613b299190613bad565b5b505050565b606060405190810160405280600073ffffffffffffffffffffffffffffffffffffffff16815260200160008152602001606081525090565b60a060405190810160405280600073ffffffffffffffffffffffffffffffffffffffff168152602001606081526020016060815260200160608152602001606081525090565b613bcf91905b80821115613bcb576000816000905550600101613bb3565b5090565b90565b613c1d91905b80821115613c1957600080820160006101000a81549073ffffffffffffffffffffffffffffffffffffffff0219169055600182016000905550600201613bd8565b5090565b90565b6000613c2c82356157c7565b905092915050565b6000613c4082516157c7565b905092915050565b600082601f8301121515613c5b57600080fd5b8135613c6e613c69826155c7565b61559a565b91508181835260208401935060208101905083856040840282011115613c9357600080fd5b60005b83811015613cc35781613ca98882614074565b845260208401935060408301925050600181019050613c96565b5050505092915050565b600082601f8301121515613ce057600080fd5b8151613cf3613cee826155c7565b61559a565b91508181835260208401935060208101905083856040840282011115613d1857600080fd5b60005b83811015613d485781613d2e88826140c0565b845260208401935060408301925050600181019050613d1b565b5050505092915050565b600082601f8301121515613d6557600080fd5b8135613d78613d73826155ef565b61559a565b9150818183526020840193506020810190508360005b83811015613dbe5781358601613da488826142dc565b845260208401935060208301925050600181019050613d8e565b5050505092915050565b600082601f8301121515613ddb57600080fd5b8135613dee613de982615617565b61559a565b91508181835260208401935060208101905083856020840282011115613e1357600080fd5b60005b83811015613e435781613e298882614690565b845260208401935060208301925050600181019050613e16565b5050505092915050565b600082601f8301121515613e6057600080fd5b8135613e73613e6e8261563f565b61559a565b91508181835260208401935060208101905083856020840282011115613e9857600080fd5b60005b83811015613ec85781613eae8882614690565b845260208401935060208301925050600181019050613e9b565b5050505092915050565b6000613ede82516157e7565b905092915050565b6000613ef282356157f3565b905092915050565b6000613f0682516157f3565b905092915050565b600082601f8301121515613f2157600080fd5b8135613f34613f2f82615667565b61559a565b91508082526020830160208301858383011115613f5057600080fd5b613f5b8382846158ff565b50505092915050565b6000613f7082356157fd565b905092915050565b6000613f84825161580f565b905092915050565b6000613f988235615821565b905092915050565b6000613fac8235615833565b905092915050565b6000613fc0823561584c565b905092915050565b600082601f8301121515613fdb57600080fd5b8135613fee613fe982615693565b61559a565b9150808252602083016020830185838301111561400a57600080fd5b6140158382846158ff565b50505092915050565b600082601f830112151561403157600080fd5b815161404461403f82615693565b61559a565b9150808252602083016020830185838301111561406057600080fd5b61406b83828461590e565b50505092915050565b60006040828403121561408657600080fd5b614090604061559a565b905060006140a084828501613c20565b60008301525060206140b484828501613ee6565b60208301525092915050565b6000604082840312156140d257600080fd5b6140dc604061559a565b905060006140ec84828501613c34565b600083015250602061410084828501613efa565b60208301525092915050565b600060a0828403121561411e57600080fd5b61412860a061559a565b9050600061413884828501613c20565b600083015250602082013567ffffffffffffffff81111561415857600080fd5b61416484828501613fc8565b602083015250604082013567ffffffffffffffff81111561418457600080fd5b61419084828501613fc8565b604083015250606082013567ffffffffffffffff8111156141b057600080fd5b6141bc84828501613fc8565b606083015250608082013567ffffffffffffffff8111156141dc57600080fd5b6141e884828501613c48565b60808301525092915050565b600060a0828403121561420657600080fd5b61421060a061559a565b9050600061422084828501613c20565b600083015250602082013567ffffffffffffffff81111561424057600080fd5b61424c84828501613fc8565b602083015250604082013567ffffffffffffffff81111561426c57600080fd5b61427884828501613fc8565b604083015250606082013567ffffffffffffffff81111561429857600080fd5b6142a484828501613fc8565b606083015250608082013567ffffffffffffffff8111156142c457600080fd5b6142d084828501613c48565b60808301525092915050565b6000606082840312156142ee57600080fd5b6142f8606061559a565b9050600061430884828501613c20565b600083015250602061431c84828501614690565b602083015250604082013567ffffffffffffffff81111561433c57600080fd5b61434884828501613fc8565b60408301525092915050565b600060c0828403121561436657600080fd5b61437060c061559a565b9050600061438084828501613c20565b600083015250602061439484828501614690565b602083015250604082013567ffffffffffffffff8111156143b457600080fd5b6143c084828501613fc8565b604083015250606082013567ffffffffffffffff8111156143e057600080fd5b6143ec84828501613fc8565b606083015250608082013567ffffffffffffffff81111561440c57600080fd5b61441884828501613fc8565b60808301525060a082013567ffffffffffffffff81111561443857600080fd5b61444484828501613c48565b60a08301525092915050565b600060c0828403121561446257600080fd5b61446c60c061559a565b9050600061447c84828501613c34565b6000830152506020614490848285016146a4565b602083015250604082015167ffffffffffffffff8111156144b057600080fd5b6144bc8482850161401e565b604083015250606082015167ffffffffffffffff8111156144dc57600080fd5b6144e88482850161401e565b606083015250608082015167ffffffffffffffff81111561450857600080fd5b6145148482850161401e565b60808301525060a082015167ffffffffffffffff81111561453457600080fd5b61454084828501613ccd565b60a08301525092915050565b60006080828403121561455e57600080fd5b614568608061559a565b9050600082013567ffffffffffffffff81111561458457600080fd5b6145908482850161410c565b60008301525060206145a484828501614690565b60208301525060406145b884828501613fa0565b604083015250606082013567ffffffffffffffff8111156145d857600080fd5b6145e484828501613dc8565b60608301525092915050565b600060a0828403121561460257600080fd5b61460c60a061559a565b9050600082013567ffffffffffffffff81111561462857600080fd5b614634848285016142dc565b600083015250602061464884828501614690565b602083015250604061465c84828501614690565b604083015250606061467084828501613fb4565b606083015250608061468484828501614690565b60808301525092915050565b600061469c8235615865565b905092915050565b60006146b08251615865565b905092915050565b6000602082840312156146ca57600080fd5b60006146d884828501613c20565b91505092915050565b6000602082840312156146f357600080fd5b600061470184828501613c34565b91505092915050565b60008060006060848603121561471f57600080fd5b600061472d86828701613c20565b935050602061473e86828701613ee6565b925050604084013567ffffffffffffffff81111561475b57600080fd5b61476786828701613e4d565b9150509250925092565b60006020828403121561478357600080fd5b600061479184828501613ed2565b91505092915050565b6000602082840312156147ac57600080fd5b60006147ba84828501613efa565b91505092915050565b6000602082840312156147d557600080fd5b600082013567ffffffffffffffff8111156147ef57600080fd5b6147fb84828501613f0e565b91505092915050565b6000806040838503121561481757600080fd5b600061482585828601613f64565b925050602061483685828601613f8c565b9150509250929050565b60006020828403121561485257600080fd5b600061486084828501613f78565b91505092915050565b6000806040838503121561487c57600080fd5b600083013567ffffffffffffffff81111561489657600080fd5b6148a2858286016141f4565b925050602083013567ffffffffffffffff8111156148bf57600080fd5b6148cb85828601613d52565b9150509250929050565b6000602082840312156148e757600080fd5b600082013567ffffffffffffffff81111561490157600080fd5b61490d84828501614354565b91505092915050565b60006020828403121561492857600080fd5b600082015167ffffffffffffffff81111561494257600080fd5b61494e84828501614450565b91505092915050565b60006020828403121561496957600080fd5b600082013567ffffffffffffffff81111561498357600080fd5b61498f8482850161454c565b91505092915050565b6000602082840312156149aa57600080fd5b600082013567ffffffffffffffff8111156149c457600080fd5b6149d0848285016145f0565b91505092915050565b6000602082840312156149eb57600080fd5b60006149f984828501614690565b91505092915050565b600060208284031215614a1457600080fd5b6000614a22848285016146a4565b91505092915050565b60008060408385031215614a3e57600080fd5b6000614a4c85828601614690565b9250506020614a5d85828601614690565b9150509250929050565b614a708161575b565b82525050565b6000614a81826156fd565b808452602084019350614a93836156bf565b60005b82811015614ac557614aa9868351614e58565b614ab282615734565b9150604086019550600181019050614a96565b50849250505092915050565b6000614adc82615708565b808452602084019350614aee836156cc565b60005b82811015614b1f57614b038683614e87565b614b0c82615741565b9150604086019550600181019050614af1565b50849250505092915050565b6000614b3682615713565b808452602084019350614b48836156de565b60005b82811015614b7a57614b5e8683516151bb565b614b678261574e565b9150602086019550600181019050614b4b565b50849250505092915050565b614b8f8161577b565b82525050565b614b9e81615787565b82525050565b6000614baf8261571e565b808452614bc381602086016020860161590e565b614bcc81615941565b602085010191505092915050565b614be38161586f565b82525050565b614bf281615881565b82525050565b614c0181615893565b82525050565b614c10816158a5565b82525050565b614c1f816158b7565b82525050565b614c2e816158c9565b82525050565b614c3d816158db565b82525050565b614c4c816158ed565b82525050565b6000614c5d82615729565b808452614c7181602086016020860161590e565b614c7a81615941565b602085010191505092915050565b600081546001811660008114614ca55760018114614cc557614d06565b607f600283041680865260ff198316602087015260408601935050614d06565b60028204808652602086019550614cdb856156eb565b60005b82811015614cfd57815481890152600182019150602081019050614cde565b80880195505050505b505092915050565b6000601182527f63616e6e6f74206163636570742052464c0000000000000000000000000000006020830152604082019050919050565b6000601182527f63616e6e6f742072656a6563742052464c0000000000000000000000000000006020830152604082019050919050565b6000601282527f52464c20646f6573206e6f7420657869737400000000000000000000000000006020830152604082019050919050565b6000601082527f63616e6e6f74206d6572676520524649000000000000000000000000000000006020830152604082019050919050565b6000601182527f63616e6e6f742072656a656374205246490000000000000000000000000000006020830152604082019050919050565b6000601282527f52464920646f6573206e6f7420657869737400000000000000000000000000006020830152604082019050919050565b604082016000820151614e6e6000850182614a67565b506020820151614e816020850182614b95565b50505050565b604082016000808301549050614e9c81615952565b614ea96000860182614a67565b5060018301549050614eba81615952565b614ec76020860182614b95565b5050505050565b600060a083016000830151614ee66000860182614a67565b5060208301518482036020860152614efe8282614c52565b91505060408301518482036040860152614f188282614c52565b91505060608301518482036060860152614f328282614c52565b91505060808301518482036080860152614f4c8282614a76565b9150508091505092915050565b600060a083016000808401549050614f7081615952565b614f7d6000870182614a67565b50600184018583036020870152614f948382614c88565b925050600284018583036040870152614fad8382614c88565b925050600384018583036060870152614fc68382614c88565b925050600484018583036080870152614fdf8382614ad1565b925050819250505092915050565b60006060830160008301516150056000860182614a67565b50602083015161501860208601826151bb565b50604083015184820360408601526150308282614c52565b9150508091505092915050565b600060c0830160008301516150556000860182614a67565b50602083015161506860208601826151bb565b50604083015184820360408601526150808282614c52565b9150506060830151848203606086015261509a8282614c52565b915050608083015184820360808601526150b48282614c52565b91505060a083015184820360a08601526150ce8282614a76565b9150508091505092915050565b600060808301600083015184820360008601526150f88282614ece565b915050602083015161510d60208601826151bb565b5060408301516151206040860182614c34565b50606083015184820360608601526151388282614b2b565b9150508091505092915050565b600060a08301600083015184820360008601526151628282614fed565b915050602083015161517760208601826151bb565b50604083015161518a60408601826151bb565b50606083015161519d6060860182614c43565b5060808301516151b060808601826151bb565b508091505092915050565b6151c4816157bd565b82525050565b60006020820190506151df6000830184614a67565b92915050565b60006080820190506151fa6000830187614a67565b6152076020830186614a67565b6152146040830185614b95565b81810360608301526152268184614ba4565b905095945050505050565b60006040820190506152466000830185614a67565b61525360208301846151bb565b9392505050565b600060208201905061526f6000830184614b86565b92915050565b600060208201905061528a6000830184614b95565b92915050565b60006040820190506152a56000830185614b95565b6152b26020830184614b95565b9392505050565b600060208201905081810360008301526152d38184614ba4565b905092915050565b60006020820190506152f06000830184614bda565b92915050565b600060208201905061530b6000830184614be9565b92915050565b60006020820190506153266000830184614bf8565b92915050565b60006020820190506153416000830184614c07565b92915050565b600060208201905061535c6000830184614c16565b92915050565b60006020820190506153776000830184614c25565b92915050565b600060208201905081810360008301526153978184614c52565b905092915050565b600060208201905081810360008301526153b881614d0e565b9050919050565b600060208201905081810360008301526153d881614d45565b9050919050565b600060208201905081810360008301526153f881614d7c565b9050919050565b6000602082019050818103600083015261541881614db3565b9050919050565b6000602082019050818103600083015261543881614dea565b9050919050565b6000602082019050818103600083015261545881614e21565b9050919050565b600060608201905081810360008301526154798186614ece565b905061548860208301856151bb565b6154956040830184614c34565b949350505050565b600060208201905081810360008301526154b78184614f59565b905092915050565b600060a08201905081810360008301526154d98188614fed565b90506154e860208301876151bb565b6154f560408301866151bb565b6155026060830185614c43565b61550f60808301846151bb565b9695505050505050565b60006020820190508181036000830152615533818461503d565b905092915050565b6000602082019050818103600083015261555581846150db565b905092915050565b600060208201905081810360008301526155778184615145565b905092915050565b600060208201905061559460008301846151bb565b92915050565b6000604051905081810181811067ffffffffffffffff821117156155bd57600080fd5b8060405250919050565b600067ffffffffffffffff8211156155de57600080fd5b602082029050602081019050919050565b600067ffffffffffffffff82111561560657600080fd5b602082029050602081019050919050565b600067ffffffffffffffff82111561562e57600080fd5b602082029050602081019050919050565b600067ffffffffffffffff82111561565657600080fd5b602082029050602081019050919050565b600067ffffffffffffffff82111561567e57600080fd5b601f19601f8301169050602081019050919050565b600067ffffffffffffffff8211156156aa57600080fd5b601f19601f8301169050602081019050919050565b6000602082019050919050565b60008160005260206000209050919050565b6000602082019050919050565b60008160005260206000209050919050565b600081519050919050565b600081549050919050565b600081519050919050565b600081519050919050565b600081519050919050565b6000602082019050919050565b6000600182019050919050565b6000602082019050919050565b600073ffffffffffffffffffffffffffffffffffffffff82169050919050565b60008115159050919050565b6000819050919050565b600060048210151561579f57fe5b819050919050565b60006005821015156157b557fe5b819050919050565b6000819050919050565b600073ffffffffffffffffffffffffffffffffffffffff82169050919050565b60008115159050919050565b6000819050919050565b60006158088261575b565b9050919050565b600061581a8261575b565b9050919050565b600061582c8261575b565b9050919050565b600060048210151561584457600080fd5b819050919050565b600060058210151561585d57600080fd5b819050919050565b6000819050919050565b600061587a8261575b565b9050919050565b600061588c8261575b565b9050919050565b600061589e8261575b565b9050919050565b60006158b08261575b565b9050919050565b60006158c28261575b565b9050919050565b60006158d48261575b565b9050919050565b60006158e682615791565b9050919050565b60006158f8826157a7565b9050919050565b82818337600083830152505050565b60005b8381101561592c578082015181840152602081019050615911565b8381111561593b576000848401525b50505050565b6000601f19601f8301169050919050565b60006001820490509190505600a265627a7a72305820cd685a04969438eea7f325477ae4c42d834bd3759826741a05e7c0780351c9f46c6578706572696d656e74616cf50037",
  "source": "pragma solidity ^0.4.24;\npragma experimental ABIEncoderV2;\n\n/* import \"@aragon/apps-shared-minime/contracts/ITokenController.sol\";\nimport \"@aragon/apps-shared-minime/contracts/MiniMeToken.sol\"; */\nimport \"../lib/PandoApp.sol\";\nimport \"./Genesis.sol\";\nimport \"./Lineage.sol\";\n\n\ncontract Organism is PandoApp {\n    bytes32 constant public CREATE_RFI_ROLE  = keccak256(\"CREATE_RFI_ROLE\");\n    bytes32 constant public MERGE_RFI_ROLE   = keccak256(\"MERGE_RFI_ROLE\");\n    bytes32 constant public REJECT_RFI_ROLE  = keccak256(\"REJECT_RFI_ROLE\");\n    bytes32 constant public ACCEPT_RFL_ROLE  = keccak256(\"ACCEPT_RFL_ROLE\");\n    bytes32 constant public REJECT_RFL_ROLE  = keccak256(\"REJECT_RFL_ROLE\");\n    bytes32 constant public INDIVIDUATE_ROLE = keccak256(\"INDIVIDUATE_ROLE\");\n\n    Genesis public genesis;\n    Lineage public lineage;\n\n    // Use a mapping instead of an array to ease app upgrade\n    // See https://github.com/aragon/aragon-apps/pull/428\n    // See https://youtu.be/sJ7VECqHFAg?t=9m27s\n    mapping (uint256 => RFI) public RFIs;\n    mapping (uint256 => RFL) public RFLs;\n\n    uint256 public RFIsLength = 0;\n    uint256 public RFLsLength = 0;\n\n\n    event CreateRFI(uint256 indexed id);\n    event MergeRFI(uint256 indexed id);\n    event RejectRFI(uint256 indexed id);\n    event CancelRFI(uint256 indexed id);\n\n    event CreateRFL(uint256 indexed id);\n    event AcceptRFL(uint256 indexed id, uint256 value);\n    event RejectRFL(uint256 indexed id);\n    event CancelRFL(uint256 indexed id);\n    event IssueRFL(uint256 indexed id, address destination, uint256 value);\n\n    modifier RFIExists(uint256 _RFIid) {\n        require(_RFIid <= RFIsLength, \"RFI does not exist\");\n        _;\n    }\n\n    modifier RFLExists(uint256 _RFLid) {\n        require(_RFLid <= RFLsLength, \"RFL does not exist\");\n        _;\n    }\n\n    /*--------------------*/\n\n    function initialize(Genesis _genesis, Lineage _lineage) external onlyInit {\n        initialized();\n        genesis = _genesis;\n        lineage = _lineage;\n    }\n\n    function createRFI(IIndividuation _individuation, ILineage[] _lineages)\n        public\n        isInitialized\n        auth(CREATE_RFI_ROLE)\n        returns (uint256 RFIid)\n    {\n        RFIid = _createRFI(_individuation, _lineages);\n    }\n\n    function mergeRFI(uint256 _RFIid) public isInitialized auth(MERGE_RFI_ROLE) {\n        require(canMergeRFI(_RFIid), \"cannot merge RFI\");\n        _mergeRFI(_RFIid);\n    }\n\n    function rejectRFI(uint256 _RFIid) public isInitialized auth(REJECT_RFI_ROLE) {\n        require(canRejectRFI(_RFIid), \"cannot reject RFI\");\n        _rejectRFI(_RFIid);\n    }\n\n    function acceptRFL(uint256 _RFLid, uint256 _value) public isInitialized auth(ACCEPT_RFL_ROLE) {\n        require(canAcceptRFL(_RFLid, _value), \"cannot accept RFL\");\n        _acceptRFL(_RFLid, _value);\n    }\n\n    function rejectRFL(uint256 _RFLid) public isInitialized auth(REJECT_RFL_ROLE) {\n        require(canRejectRFL(_RFLid), \"cannot reject RFL\");\n        _rejectRFL(_RFLid);\n    }\n\n    /*--------------------*/\n\n    function canMergeRFI(uint256 _RFIid) public view returns (bool) {\n        if (_RFIid > RFIsLength)\n            return false;\n        RFI storage RFI_ = RFIs[_RFIid];\n        if (RFI_.state != RFIState.Pending)\n            return false;\n        for (uint256 i = 0; i < RFI_.RFLids.length; i++) {\n            RFL storage rfl = RFLs[RFI_.RFLids[i]];\n            if (rfl.state != RFLState.Accepted)\n                return false;\n        }\n        return true;\n    }\n\n    function canRejectRFI(uint _RFIid) public view returns (bool) {\n        if (_RFIid > RFIsLength)\n            return false;\n        if (RFIs[_RFIid].state != RFIState.Pending)\n            return false;\n        return true;\n    }\n\n    function canAcceptRFL(uint256 _RFLid, uint256 _value) public view returns (bool) {\n        if (_RFLid > RFLsLength)\n            return false;\n        if (RFLs[_RFLid].state != RFLState.Pending)\n            return false;\n        if (_value < RFLs[_RFLid].lineage.minimum)\n            return false;\n        return true;\n    }\n\n    function canRejectRFL(uint _RFLid) public view returns (bool) {\n        if (_RFLid > RFLsLength)\n            return false;\n        if (RFLs[_RFLid].state != RFLState.Pending)\n            return false;\n        return true;\n    }\n\n    /*--------------------*/\n\n    function getLineageToken() public view returns (address) {\n        return address(lineage);\n    }\n\n\n    function getRFI(uint256 _RFIid) public view RFIExists(_RFIid) returns (RFI) {\n        return RFIs[_RFIid];\n    }\n\n    function getRFL(uint256 _RFLid) public view RFLExists(_RFLid) returns (RFL) {\n        return RFLs[_RFLid];\n    }\n\n    function getIndividuationHash(Individuation _individuation) public pure returns (bytes32) {\n        return PandoApp.hash(_individuation);\n    }\n\n    function head() public view returns (bytes32) {\n        return genesis.head();\n    }\n\n    function getHead() public view returns (PandoApp.Individuation) {\n        return genesis.getHead();\n    }\n\n    /*--------------------*/\n\n    function _createRFI(IIndividuation _individuation, ILineage[] _lineages) internal returns (uint256 RFIid) {\n        // msg.sender is gonna be the address of a governance kit built on top of the API\n        // Do you we wanna make sure that the transaction is actually initialized by _individuation.origin ?\n        // If this is the case then we're gonna need to ask for a proof of identity through a ECDSA signature\n        // See https://github.com/OpenZeppelin/openzeppelin-solidity/blob/master/contracts/cryptography/ECDSA.sol\n\n        RFIsLength = RFIsLength + 1;\n        RFIid = RFIsLength;\n\n        RFI storage rfi = RFIs[RFIid];\n\n        rfi.individuation.origin = _individuation.origin;\n        rfi.individuation.tree = _individuation.tree;\n        rfi.individuation.message = _individuation.message;\n        rfi.individuation.metadata = _individuation.metadata;\n        rfi.blockstamp = block.number;\n        rfi.state = RFIState.Pending;\n\n        // solc 4.0.24 cannot directly convert dynamic struct array from memory to storage\n        rfi.individuation.parents.length = _individuation.parents.length;\n        for (uint256 i = 0; i < _individuation.parents.length; i++) {\n            rfi.individuation.parents[i] = _individuation.parents[i];\n        }\n\n        for (uint256 j = 0; j < _lineages.length; j++) {\n            uint256 RFLid = _createRFL(_lineages[j], RFIid);\n            uint256 index = rfi.RFLids.length++;\n            rfi.RFLids[index] = RFLid;\n        }\n\n        emit CreateRFI(RFIid);\n    }\n\n    function _mergeRFI(uint256 _RFIid) internal {\n        RFI storage rfi = RFIs[_RFIid];\n\n        rfi.state = RFIState.Merged;\n\n        genesis.individuate(rfi.individuation);\n\n        for (uint256 i = 0; i < rfi.RFLids.length; i++) {\n            _issueRFL(rfi.RFLids[i]);\n        }\n\n        emit MergeRFI(_RFIid);\n    }\n\n    function _rejectRFI(uint256 _RFIid) internal {\n        RFI storage rfi = RFIs[_RFIid];\n\n        rfi.state = RFIState.Rejected;\n\n        for (uint256 j = 0; j < rfi.RFLids.length; j++) {\n            _cancelRFL(rfi.RFLids[j]);\n        }\n\n        emit RejectRFI(_RFIid);\n    }\n\n    function _cancelRFI(uint256 _RFIid) internal {\n        RFI storage rfi = RFIs[_RFIid];\n\n        rfi.state = RFIState.Cancelled;\n\n        for (uint256 i = 0; i < rfi.RFLids.length; i++) {\n            RFL storage rfl = RFLs[rfi.RFLids[i]];\n\n            if (rfl.state != RFLState.Rejected)\n                _cancelRFL(rfi.RFLids[i]);\n        }\n\n        emit CancelRFI(_RFIid);\n    }\n\n    function _createRFL(ILineage _lineage, uint256 _RFIid) internal returns (uint256 RFLid) {\n        RFLsLength = RFLsLength + 1;\n        RFLid = RFLsLength;\n\n        RFL storage rfl = RFLs[RFLid];\n\n        rfl.lineage.destination = _lineage.destination;\n        rfl.lineage.minimum = _lineage.minimum;\n        rfl.lineage.metadata = _lineage.metadata;\n        rfl.blockstamp = block.number;\n        rfl.value = 0;\n        rfl.state = RFLState.Pending;\n        rfl.RFIid = _RFIid;\n\n        emit CreateRFL(RFLid);\n    }\n\n    function _acceptRFL(uint256 _RFLid, uint256 _value) internal {\n        RFL storage rfl = RFLs[_RFLid];\n\n        rfl.state = RFLState.Accepted;\n        rfl.value = _value;\n\n        emit AcceptRFL(_RFLid, _value);\n    }\n\n    function _rejectRFL(uint256 _RFLid) internal {\n        RFL storage rfl = RFLs[_RFLid];\n\n        rfl.state = RFLState.Rejected;\n\n        _cancelRFI(rfl.RFIid);\n\n        emit RejectRFL(_RFLid);\n    }\n\n    function _cancelRFL(uint256 _RFLid) internal {\n        RFL storage rfl = RFLs[_RFLid];\n\n        rfl.state = RFLState.Cancelled;\n\n        emit CancelRFL(_RFLid);\n    }\n\n    function _issueRFL(uint256 _RFLid) internal {\n        RFL storage rfl = RFLs[_RFLid];\n\n        rfl.state = RFLState.Issued;\n\n        lineage.mint(rfl.lineage.destination, rfl.value);\n\n        emit IssueRFL(_RFLid, rfl.lineage.destination, rfl.value);\n    }\n}\n",
  "sourcePath": "/Users/osarrouy/Documents/dapp/@pando/packages/organism/contracts/core/Organism.sol",
  "compiler": {
    "name": "solc",
    "version": "0.4.24+commit.e67f0147.Emscripten.clang"
  },
  "schemaVersion": "2.0.1",
  "updatedAt": "2018-12-02T16:54:09.086Z"
}