{
  "contractName": "PandoApp",
  "abi": [
    {
      "constant": true,
      "inputs": [],
      "name": "hasInitialized",
      "outputs": [
        {
          "name": "",
          "type": "bool"
        }
      ],
      "payable": false,
      "stateMutability": "view",
      "type": "function"
    },
    {
      "constant": true,
      "inputs": [
        {
          "name": "_script",
          "type": "bytes"
        }
      ],
      "name": "getEVMScriptExecutor",
      "outputs": [
        {
          "name": "",
          "type": "address"
        }
      ],
      "payable": false,
      "stateMutability": "view",
      "type": "function"
    },
    {
      "constant": true,
      "inputs": [],
      "name": "getRecoveryVault",
      "outputs": [
        {
          "name": "",
          "type": "address"
        }
      ],
      "payable": false,
      "stateMutability": "view",
      "type": "function"
    },
    {
      "constant": true,
      "inputs": [
        {
          "name": "token",
          "type": "address"
        }
      ],
      "name": "allowRecoverability",
      "outputs": [
        {
          "name": "",
          "type": "bool"
        }
      ],
      "payable": false,
      "stateMutability": "view",
      "type": "function"
    },
    {
      "constant": true,
      "inputs": [],
      "name": "appId",
      "outputs": [
        {
          "name": "",
          "type": "bytes32"
        }
      ],
      "payable": false,
      "stateMutability": "view",
      "type": "function"
    },
    {
      "constant": true,
      "inputs": [],
      "name": "getInitializationBlock",
      "outputs": [
        {
          "name": "",
          "type": "uint256"
        }
      ],
      "payable": false,
      "stateMutability": "view",
      "type": "function"
    },
    {
      "constant": false,
      "inputs": [
        {
          "name": "_token",
          "type": "address"
        }
      ],
      "name": "transferToVault",
      "outputs": [],
      "payable": false,
      "stateMutability": "nonpayable",
      "type": "function"
    },
    {
      "constant": true,
      "inputs": [
        {
          "name": "_sender",
          "type": "address"
        },
        {
          "name": "_role",
          "type": "bytes32"
        },
        {
          "name": "_params",
          "type": "uint256[]"
        }
      ],
      "name": "canPerform",
      "outputs": [
        {
          "name": "",
          "type": "bool"
        }
      ],
      "payable": false,
      "stateMutability": "view",
      "type": "function"
    },
    {
      "constant": true,
      "inputs": [],
      "name": "getEVMScriptRegistry",
      "outputs": [
        {
          "name": "",
          "type": "address"
        }
      ],
      "payable": false,
      "stateMutability": "view",
      "type": "function"
    },
    {
      "constant": true,
      "inputs": [],
      "name": "kernel",
      "outputs": [
        {
          "name": "",
          "type": "address"
        }
      ],
      "payable": false,
      "stateMutability": "view",
      "type": "function"
    },
    {
      "constant": true,
      "inputs": [],
      "name": "isPetrified",
      "outputs": [
        {
          "name": "",
          "type": "bool"
        }
      ],
      "payable": false,
      "stateMutability": "view",
      "type": "function"
    },
    {
      "anonymous": false,
      "inputs": [
        {
          "indexed": true,
          "name": "executor",
          "type": "address"
        },
        {
          "indexed": false,
          "name": "script",
          "type": "bytes"
        },
        {
          "indexed": false,
          "name": "input",
          "type": "bytes"
        },
        {
          "indexed": false,
          "name": "returnData",
          "type": "bytes"
        }
      ],
      "name": "ScriptResult",
      "type": "event"
    },
    {
      "constant": true,
      "inputs": [
        {
          "components": [
            {
              "components": [
                {
                  "name": "origin",
                  "type": "address"
                },
                {
                  "name": "tree",
                  "type": "string"
                },
                {
                  "name": "message",
                  "type": "string"
                },
                {
                  "name": "metadata",
                  "type": "string"
                },
                {
                  "components": [
                    {
                      "name": "organism",
                      "type": "address"
                    },
                    {
                      "name": "hash",
                      "type": "bytes32"
                    }
                  ],
                  "name": "parents",
                  "type": "tuple[]"
                }
              ],
              "name": "individuation",
              "type": "tuple"
            },
            {
              "name": "blockstamp",
              "type": "uint256"
            },
            {
              "name": "state",
              "type": "uint8"
            },
            {
              "name": "RFLids",
              "type": "uint256[]"
            }
          ],
          "name": "_RFI",
          "type": "tuple"
        }
      ],
      "name": "isPending",
      "outputs": [
        {
          "name": "",
          "type": "bool"
        }
      ],
      "payable": false,
      "stateMutability": "pure",
      "type": "function"
    },
    {
      "constant": true,
      "inputs": [
        {
          "components": [
            {
              "components": [
                {
                  "name": "destination",
                  "type": "address"
                },
                {
                  "name": "minimum",
                  "type": "uint256"
                },
                {
                  "name": "metadata",
                  "type": "string"
                }
              ],
              "name": "lineage",
              "type": "tuple"
            },
            {
              "name": "blockstamp",
              "type": "uint256"
            },
            {
              "name": "value",
              "type": "uint256"
            },
            {
              "name": "state",
              "type": "uint8"
            },
            {
              "name": "RFIid",
              "type": "uint256"
            }
          ],
          "name": "_RFL",
          "type": "tuple"
        }
      ],
      "name": "isPending",
      "outputs": [
        {
          "name": "",
          "type": "bool"
        }
      ],
      "payable": false,
      "stateMutability": "pure",
      "type": "function"
    },
    {
      "constant": true,
      "inputs": [
        {
          "components": [
            {
              "components": [
                {
                  "name": "destination",
                  "type": "address"
                },
                {
                  "name": "minimum",
                  "type": "uint256"
                },
                {
                  "name": "metadata",
                  "type": "string"
                }
              ],
              "name": "lineage",
              "type": "tuple"
            },
            {
              "name": "blockstamp",
              "type": "uint256"
            },
            {
              "name": "value",
              "type": "uint256"
            },
            {
              "name": "state",
              "type": "uint8"
            },
            {
              "name": "RFIid",
              "type": "uint256"
            }
          ],
          "name": "_RFL",
          "type": "tuple"
        }
      ],
      "name": "isAccepted",
      "outputs": [
        {
          "name": "",
          "type": "bool"
        }
      ],
      "payable": false,
      "stateMutability": "pure",
      "type": "function"
    },
    {
      "constant": true,
      "inputs": [
        {
          "components": [
            {
              "name": "origin",
              "type": "address"
            },
            {
              "name": "blockstamp",
              "type": "uint256"
            },
            {
              "name": "tree",
              "type": "string"
            },
            {
              "name": "message",
              "type": "string"
            },
            {
              "name": "metadata",
              "type": "string"
            },
            {
              "components": [
                {
                  "name": "organism",
                  "type": "address"
                },
                {
                  "name": "hash",
                  "type": "bytes32"
                }
              ],
              "name": "parents",
              "type": "tuple[]"
            }
          ],
          "name": "_individuation",
          "type": "tuple"
        }
      ],
      "name": "hash",
      "outputs": [
        {
          "name": "",
          "type": "bytes32"
        }
      ],
      "payable": false,
      "stateMutability": "pure",
      "type": "function"
    }
  ],
  "bytecode": "0x60806040526200001d62000023640100000000026401000000009004565b620002ef565b60006200003e620000f8640100000000026401000000009004565b146040805190810160405280601881526020017f494e49545f414c52454144595f494e495449414c495a45440000000000000000815250901515620000bb576040517f08c379a0000000000000000000000000000000000000000000000000000000008152600401620000b2919062000279565b60405180910390fd5b50620000f67fffffffffffffffffffffffffffffffffffffffffffffffffffffffffffffffff62000145640100000000026401000000009004565b565b6000620001407febb05b386a8d34882b8711d156f463690983dc47815980fb82aeeff1aa43579e600102600019166200022b6401000000000262000de8176401000000009004565b905090565b600062000160620000f8640100000000026401000000009004565b146040805190810160405280601881526020017f494e49545f414c52454144595f494e495449414c495a45440000000000000000815250901515620001dd576040517f08c379a0000000000000000000000000000000000000000000000000000000008152600401620001d4919062000279565b60405180910390fd5b5062000228817febb05b386a8d34882b8711d156f463690983dc47815980fb82aeeff1aa43579e60010260001916620002366401000000000262001c73179091906401000000009004565b50565b600081549050919050565b8082555050565b60006200024a826200029d565b80845262000260816020860160208601620002a8565b6200026b81620002de565b602085010191505092915050565b600060208201905081810360008301526200029581846200023d565b905092915050565b600081519050919050565b60005b83811015620002c8578082015181840152602081019050620002ab565b83811115620002d8576000848401525b50505050565b6000601f19601f8301169050919050565b611cb480620002ff6000396000f3006080604052600436106100db576000357c0100000000000000000000000000000000000000000000000000000000900463ffffffff1680630803fac0146100e05780632914b9bd1461010b57806332f0a3b51461014857806339a2d338146101735780635b15970d146101b05780637e7db6e1146101ed57806380afdea81461022a5780638b3dd749146102555780639d4941d814610280578063a1658fad146102a9578063a479e508146102e6578063d4aae0c414610311578063de4796ed1461033c578063e7fd8d0814610367578063e95fe2ff146103a4575b600080fd5b3480156100ec57600080fd5b506100f56103e1565b60405161010291906118d7565b60405180910390f35b34801561011757600080fd5b50610132600480360361012d919081019061160d565b61040c565b60405161013f9190611958565b60405180910390f35b34801561015457600080fd5b5061015d6104c3565b60405161016a9190611847565b60405180910390f35b34801561017f57600080fd5b5061019a60048036036101959190810190611677565b61056d565b6040516101a791906118f2565b60405180910390f35b3480156101bc57600080fd5b506101d760048036036101d291908101906116f9565b61074e565b6040516101e491906118d7565b60405180910390f35b3480156101f957600080fd5b50610214600480360361020f919081019061152b565b610775565b60405161022191906118d7565b60405180910390f35b34801561023657600080fd5b5061023f610780565b60405161024c91906118f2565b60405180910390f35b34801561026157600080fd5b5061026a6107b7565b60405161027791906119e6565b60405180910390f35b34801561028c57600080fd5b506102a760048036036102a2919081019061152b565b6107ee565b005b3480156102b557600080fd5b506102d060048036036102cb919081019061157d565b610af2565b6040516102dd91906118d7565b60405180910390f35b3480156102f257600080fd5b506102fb610c1f565b6040516103089190611973565b60405180910390f35b34801561031d57600080fd5b50610326610d21565b604051610333919061198e565b60405180910390f35b34801561034857600080fd5b50610351610d58565b60405161035e91906118d7565b60405180910390f35b34801561037357600080fd5b5061038e600480360361038991908101906116b8565b610d89565b60405161039b91906118d7565b60405180910390f35b3480156103b057600080fd5b506103cb60048036036103c691908101906116f9565b610daf565b6040516103d891906118d7565b60405180910390f35b6000806103ec6107b7565b905060008114158015610406575080610403610dd5565b10155b91505090565b6000610416610c1f565b73ffffffffffffffffffffffffffffffffffffffff166304bf2a7f836040518263ffffffff167c010000000000000000000000000000000000000000000000000000000002815260040161046a9190611936565b602060405180830381600087803b15801561048457600080fd5b505af1158015610498573d6000803e3d6000fd5b505050506040513d601f19601f820116820180604052506104bc919081019061164e565b9050919050565b60006104cd610d21565b73ffffffffffffffffffffffffffffffffffffffff166332f0a3b56040518163ffffffff167c0100000000000000000000000000000000000000000000000000000000028152600401602060405180830381600087803b15801561053057600080fd5b505af1158015610544573d6000803e3d6000fd5b505050506040513d601f19601f820116820180604052506105689190810190611554565b905090565b600081600001518260200151836040015184606001518560800151604051602001808673ffffffffffffffffffffffffffffffffffffffff1673ffffffffffffffffffffffffffffffffffffffff166c0100000000000000000000000002815260140185815260200184805190602001908083835b60208310151561060757805182526020820191506020810190506020830392506105e2565b6001836020036101000a03801982511681845116808217855250505050505090500183805190602001908083835b60208310151561065a5780518252602082019150602081019050602083039250610635565b6001836020036101000a03801982511681845116808217855250505050505090500182805190602001908083835b6020831015156106ad5780518252602082019150602081019050602083039250610688565b6001836020036101000a038019825116818451168082178552505050505050905001955050505050506040516020818303038152906040526040518082805190602001908083835b60208310151561071a57805182526020820191506020810190506020830392506106f5565b6001836020036101000a03801982511681845116808217855250505050505090500191505060405180910390209050919050565b60006001600481111561075d57fe5b8260600151600481111561076d57fe5b149050919050565b600060019050919050565b60006107b27fd625496217aa6a3453eecb9c3489dc5a53e6c67b444329ea2b2cbc9ff547639b60010260001916610ddd565b905090565b60006107e97febb05b386a8d34882b8711d156f463690983dc47815980fb82aeeff1aa43579e60010260001916610de8565b905090565b6000806107fa83610775565b6040805190810160405280601281526020017f5245434f5645525f444953414c4c4f5745440000000000000000000000000000815250901515610873576040517f08c379a000000000000000000000000000000000000000000000000000000000815260040161086a91906119c4565b60405180910390fd5b5061087c6104c3565b915061088782610df3565b6040805190810160405280601a81526020017f5245434f5645525f5641554c545f4e4f545f434f4e5452414354000000000000815250901515610900576040517f08c379a00000000000000000000000000000000000000000000000000000000081526004016108f791906119c4565b60405180910390fd5b50600073ffffffffffffffffffffffffffffffffffffffff168373ffffffffffffffffffffffffffffffffffffffff161415610999578173ffffffffffffffffffffffffffffffffffffffff166108fc3073ffffffffffffffffffffffffffffffffffffffff16319081150290604051600060405180830381858888f19350505050158015610993573d6000803e3d6000fd5b50610aed565b8273ffffffffffffffffffffffffffffffffffffffff166370a08231306040518263ffffffff167c01000000000000000000000000000000000000000000000000000000000281526004016109ee91906119a9565b602060405180830381600087803b158015610a0857600080fd5b505af1158015610a1c573d6000803e3d6000fd5b505050506040513d601f19601f82011682018060405250610a40919081019061173a565b90508273ffffffffffffffffffffffffffffffffffffffff1663a9059cbb83836040518363ffffffff167c0100000000000000000000000000000000000000000000000000000000028152600401610a999291906118ae565b602060405180830381600087803b158015610ab357600080fd5b505af1158015610ac7573d6000803e3d6000fd5b505050506040513d601f19601f82011682018060405250610aeb91908101906115e4565b505b505050565b60008060606000610b016103e1565b1515610b105760009350610c15565b610b18610d21565b9250600073ffffffffffffffffffffffffffffffffffffffff168373ffffffffffffffffffffffffffffffffffffffff161415610b585760009350610c15565b602085510290508491508082528273ffffffffffffffffffffffffffffffffffffffff1663fdef9106883089866040518563ffffffff167c0100000000000000000000000000000000000000000000000000000000028152600401610bc09493929190611862565b602060405180830381600087803b158015610bda57600080fd5b505af1158015610bee573d6000803e3d6000fd5b505050506040513d601f19601f82011682018060405250610c1291908101906115e4565b93505b5050509392505050565b600080610c2a610d21565b73ffffffffffffffffffffffffffffffffffffffff1663be00bbd87fd6f028ca0e8edb4a8c9757ca4fdccab25fa1e0317da1188108f7d2dee14902fb6001027fddbcfd564f642ab5627cf68b9b7d374fb4f8a36e941a75d89c87998cef03bd616001026040518363ffffffff167c0100000000000000000000000000000000000000000000000000000000028152600401610cc692919061190d565b602060405180830381600087803b158015610ce057600080fd5b505af1158015610cf4573d6000803e3d6000fd5b505050506040513d601f19601f82011682018060405250610d189190810190611554565b90508091505090565b6000610d537f4172f0f7d2289153072b0a6ca36959e0cbe2efc3afe50fc81636caa96338137b60010260001916610e45565b905090565b60007fffffffffffffffffffffffffffffffffffffffffffffffffffffffffffffffff610d836107b7565b14905090565b6000806003811115610d9757fe5b82604001516003811115610da757fe5b149050919050565b6000806004811115610dbd57fe5b82606001516004811115610dcd57fe5b149050919050565b600043905090565b600081549050919050565b600081549050919050565b600080600073ffffffffffffffffffffffffffffffffffffffff168373ffffffffffffffffffffffffffffffffffffffff161415610e345760009150610e3f565b823b90506000811191505b50919050565b600081549050919050565b6000610e5c8235611b54565b905092915050565b6000610e708251611b54565b905092915050565b600082601f8301121515610e8b57600080fd5b8135610e9e610e9982611a2e565b611a01565b91508181835260208401935060208101905083856040840282011115610ec357600080fd5b60005b83811015610ef35781610ed98882611117565b845260208401935060408301925050600181019050610ec6565b5050505092915050565b600082601f8301121515610f1057600080fd5b8135610f23610f1e82611a56565b611a01565b91508181835260208401935060208101905083856020840282011115610f4857600080fd5b60005b83811015610f785781610f5e8882611503565b845260208401935060208301925050600181019050610f4b565b5050505092915050565b600082601f8301121515610f9557600080fd5b8135610fa8610fa382611a7e565b611a01565b91508181835260208401935060208101905083856020840282011115610fcd57600080fd5b60005b83811015610ffd5781610fe38882611503565b845260208401935060208301925050600181019050610fd0565b5050505092915050565b60006110138251611b74565b905092915050565b60006110278235611b80565b905092915050565b600082601f830112151561104257600080fd5b813561105561105082611aa6565b611a01565b9150808252602083016020830185838301111561107157600080fd5b61107c838284611c20565b50505092915050565b60006110918251611b8a565b905092915050565b60006110a58235611b9c565b905092915050565b60006110b98235611bb5565b905092915050565b600082601f83011215156110d457600080fd5b81356110e76110e282611ad2565b611a01565b9150808252602083016020830185838301111561110357600080fd5b61110e838284611c20565b50505092915050565b60006040828403121561112957600080fd5b6111336040611a01565b9050600061114384828501610e50565b60008301525060206111578482850161101b565b60208301525092915050565b600060a0828403121561117557600080fd5b61117f60a0611a01565b9050600061118f84828501610e50565b600083015250602082013567ffffffffffffffff8111156111af57600080fd5b6111bb848285016110c1565b602083015250604082013567ffffffffffffffff8111156111db57600080fd5b6111e7848285016110c1565b604083015250606082013567ffffffffffffffff81111561120757600080fd5b611213848285016110c1565b606083015250608082013567ffffffffffffffff81111561123357600080fd5b61123f84828501610e78565b60808301525092915050565b60006060828403121561125d57600080fd5b6112676060611a01565b9050600061127784828501610e50565b600083015250602061128b84828501611503565b602083015250604082013567ffffffffffffffff8111156112ab57600080fd5b6112b7848285016110c1565b60408301525092915050565b600060c082840312156112d557600080fd5b6112df60c0611a01565b905060006112ef84828501610e50565b600083015250602061130384828501611503565b602083015250604082013567ffffffffffffffff81111561132357600080fd5b61132f848285016110c1565b604083015250606082013567ffffffffffffffff81111561134f57600080fd5b61135b848285016110c1565b606083015250608082013567ffffffffffffffff81111561137b57600080fd5b611387848285016110c1565b60808301525060a082013567ffffffffffffffff8111156113a757600080fd5b6113b384828501610e78565b60a08301525092915050565b6000608082840312156113d157600080fd5b6113db6080611a01565b9050600082013567ffffffffffffffff8111156113f757600080fd5b61140384828501611163565b600083015250602061141784828501611503565b602083015250604061142b84828501611099565b604083015250606082013567ffffffffffffffff81111561144b57600080fd5b61145784828501610efd565b60608301525092915050565b600060a0828403121561147557600080fd5b61147f60a0611a01565b9050600082013567ffffffffffffffff81111561149b57600080fd5b6114a78482850161124b565b60008301525060206114bb84828501611503565b60208301525060406114cf84828501611503565b60408301525060606114e3848285016110ad565b60608301525060806114f784828501611503565b60808301525092915050565b600061150f8235611bce565b905092915050565b60006115238251611bce565b905092915050565b60006020828403121561153d57600080fd5b600061154b84828501610e50565b91505092915050565b60006020828403121561156657600080fd5b600061157484828501610e64565b91505092915050565b60008060006060848603121561159257600080fd5b60006115a086828701610e50565b93505060206115b18682870161101b565b925050604084013567ffffffffffffffff8111156115ce57600080fd5b6115da86828701610f82565b9150509250925092565b6000602082840312156115f657600080fd5b600061160484828501611007565b91505092915050565b60006020828403121561161f57600080fd5b600082013567ffffffffffffffff81111561163957600080fd5b6116458482850161102f565b91505092915050565b60006020828403121561166057600080fd5b600061166e84828501611085565b91505092915050565b60006020828403121561168957600080fd5b600082013567ffffffffffffffff8111156116a357600080fd5b6116af848285016112c3565b91505092915050565b6000602082840312156116ca57600080fd5b600082013567ffffffffffffffff8111156116e457600080fd5b6116f0848285016113bf565b91505092915050565b60006020828403121561170b57600080fd5b600082013567ffffffffffffffff81111561172557600080fd5b61173184828501611463565b91505092915050565b60006020828403121561174c57600080fd5b600061175a84828501611517565b91505092915050565b61176c81611b14565b82525050565b61177b81611b34565b82525050565b61178a81611b40565b82525050565b600061179b82611afe565b8084526117af816020860160208601611c2f565b6117b881611c62565b602085010191505092915050565b6117cf81611bd8565b82525050565b6117de81611bea565b82525050565b6117ed81611bfc565b82525050565b6117fc81611c0e565b82525050565b600061180d82611b09565b808452611821816020860160208601611c2f565b61182a81611c62565b602085010191505092915050565b61184181611b4a565b82525050565b600060208201905061185c6000830184611763565b92915050565b60006080820190506118776000830187611763565b6118846020830186611763565b6118916040830185611781565b81810360608301526118a38184611790565b905095945050505050565b60006040820190506118c36000830185611763565b6118d06020830184611838565b9392505050565b60006020820190506118ec6000830184611772565b92915050565b60006020820190506119076000830184611781565b92915050565b60006040820190506119226000830185611781565b61192f6020830184611781565b9392505050565b600060208201905081810360008301526119508184611790565b905092915050565b600060208201905061196d60008301846117c6565b92915050565b600060208201905061198860008301846117d5565b92915050565b60006020820190506119a360008301846117e4565b92915050565b60006020820190506119be60008301846117f3565b92915050565b600060208201905081810360008301526119de8184611802565b905092915050565b60006020820190506119fb6000830184611838565b92915050565b6000604051905081810181811067ffffffffffffffff82111715611a2457600080fd5b8060405250919050565b600067ffffffffffffffff821115611a4557600080fd5b602082029050602081019050919050565b600067ffffffffffffffff821115611a6d57600080fd5b602082029050602081019050919050565b600067ffffffffffffffff821115611a9557600080fd5b602082029050602081019050919050565b600067ffffffffffffffff821115611abd57600080fd5b601f19601f8301169050602081019050919050565b600067ffffffffffffffff821115611ae957600080fd5b601f19601f8301169050602081019050919050565b600081519050919050565b600081519050919050565b600073ffffffffffffffffffffffffffffffffffffffff82169050919050565b60008115159050919050565b6000819050919050565b6000819050919050565b600073ffffffffffffffffffffffffffffffffffffffff82169050919050565b60008115159050919050565b6000819050919050565b6000611b9582611b14565b9050919050565b6000600482101515611bad57600080fd5b819050919050565b6000600582101515611bc657600080fd5b819050919050565b6000819050919050565b6000611be382611b14565b9050919050565b6000611bf582611b14565b9050919050565b6000611c0782611b14565b9050919050565b6000611c1982611b14565b9050919050565b82818337600083830152505050565b60005b83811015611c4d578082015181840152602081019050611c32565b83811115611c5c576000848401525b50505050565b6000601f19601f8301169050919050565b80825550505600a265627a7a723058203caeb0c435e012624919db2202c98de3fd1bd5aec96d95fddd6b888fab794e4a6c6578706572696d656e74616cf50037",
  "source": "pragma solidity ^0.4.24;\npragma experimental ABIEncoderV2;\n\nimport \"@aragon/os/contracts/apps/AragonApp.sol\";\n\ncontract PandoApp is AragonApp {\n    enum RFLState   { Pending, Accepted, Issued, Rejected, Cancelled }\n    enum RFIState   { Pending, Merged, Rejected, Cancelled }\n    enum RFISorting { Merge, Reject }\n\n    struct IID {\n        address organism;\n        bytes32 hash;\n    }\n\n    struct IIndividuation {\n        address origin;\n        string  tree;\n        string  message;\n        string  metadata;\n        IID[]   parents;\n    }\n\n    struct Individuation {\n        address origin;\n        uint256 blockstamp;\n        string  tree;\n        string  message;\n        string  metadata;\n        IID[]   parents;\n    }\n\n    struct RFI {\n        IIndividuation individuation;\n        uint256        blockstamp;\n        RFIState       state;\n        uint256[]      RFLids;\n    }\n\n    struct ILineage {\n        address  destination;\n        uint256  minimum;\n        string   metadata;\n    }\n\n    struct RFL {\n        ILineage lineage;\n        uint256  blockstamp;\n        uint256  value;\n        RFLState state;\n        uint256  RFIid;\n    }\n\n    function isPending(RFI _RFI) public pure returns (bool) {\n        return _RFI.state == RFIState.Pending;\n    }\n\n    function isPending(RFL _RFL) public pure returns (bool) {\n        return _RFL.state == RFLState.Pending;\n    }\n\n    function isAccepted(RFL _RFL) public pure returns (bool) {\n        return _RFL.state == RFLState.Accepted;\n    }\n\n    function hash(Individuation _individuation) public pure returns (bytes32) {\n        return keccak256(\n            abi.encodePacked(\n                _individuation.origin,\n                _individuation.blockstamp,\n                _individuation.tree,\n                _individuation.message,\n                _individuation.metadata)\n            );\n    }\n}\n",
  "sourcePath": "/Users/osarrouy/Documents/dapp/@pando/packages/organism/contracts/lib/PandoApp.sol",
  "compiler": {
    "name": "solc",
    "version": "0.4.24+commit.e67f0147.Emscripten.clang"
  },
  "schemaVersion": "2.0.1",
  "updatedAt": "2018-12-02T16:54:08.999Z"
}