{
  "contractName": "CallsScript",
  "abi": [
    {
      "constant": true,
      "inputs": [],
      "name": "hasInitialized",
      "outputs": [
        {
          "name": "",
          "type": "bool"
        }
      ],
      "payable": false,
      "stateMutability": "view",
      "type": "function"
    },
    {
      "constant": true,
      "inputs": [],
      "name": "getInitializationBlock",
      "outputs": [
        {
          "name": "",
          "type": "uint256"
        }
      ],
      "payable": false,
      "stateMutability": "view",
      "type": "function"
    },
    {
      "constant": true,
      "inputs": [],
      "name": "isPetrified",
      "outputs": [
        {
          "name": "",
          "type": "bool"
        }
      ],
      "payable": false,
      "stateMutability": "view",
      "type": "function"
    },
    {
      "anonymous": false,
      "inputs": [
        {
          "indexed": true,
          "name": "sender",
          "type": "address"
        },
        {
          "indexed": true,
          "name": "src",
          "type": "address"
        },
        {
          "indexed": true,
          "name": "dst",
          "type": "address"
        }
      ],
      "name": "LogScriptCall",
      "type": "event"
    },
    {
      "constant": false,
      "inputs": [
        {
          "name": "_script",
          "type": "bytes"
        },
        {
          "name": "",
          "type": "bytes"
        },
        {
          "name": "_blacklist",
          "type": "address[]"
        }
      ],
      "name": "execScript",
      "outputs": [
        {
          "name": "",
          "type": "bytes"
        }
      ],
      "payable": false,
      "stateMutability": "nonpayable",
      "type": "function"
    },
    {
      "constant": true,
      "inputs": [],
      "name": "executorType",
      "outputs": [
        {
          "name": "",
          "type": "bytes32"
        }
      ],
      "payable": false,
      "stateMutability": "pure",
      "type": "function"
    }
  ],
  "bytecode": "0x608060405261001b610020640100000000026401000000009004565b6102f2565b6000610039610153640100000000026401000000009004565b146040805190810160405280601881526020017f494e49545f414c52454144595f494e495449414c495a45440000000000000000815250901515610118576040517f08c379a00000000000000000000000000000000000000000000000000000000081526004018080602001828103825283818151815260200191508051906020019080838360005b838110156100dd5780820151818401526020810190506100c2565b50505050905090810190601f16801561010a5780820380516001836020036101000a031916815260200191505b509250505060405180910390fd5b506101517fffffffffffffffffffffffffffffffffffffffffffffffffffffffffffffffff61019d640100000000026401000000009004565b565b60006101987febb05b386a8d34882b8711d156f463690983dc47815980fb82aeeff1aa43579e600102600019166102e06401000000000261092f176401000000009004565b905090565b60006101b6610153640100000000026401000000009004565b146040805190810160405280601881526020017f494e49545f414c52454144595f494e495449414c495a45440000000000000000815250901515610295576040517f08c379a00000000000000000000000000000000000000000000000000000000081526004018080602001828103825283818151815260200191508051906020019080838360005b8381101561025a57808201518184015260208101905061023f565b50505050905090810190601f1680156102875780820380516001836020036101000a031916815260200191505b509250505060405180910390fd5b506102dd817febb05b386a8d34882b8711d156f463690983dc47815980fb82aeeff1aa43579e600102600019166102eb6401000000000261094b179091906401000000009004565b50565b600081549050919050565b8082555050565b61097e806103016000396000f30060806040526004361061006d576000357c0100000000000000000000000000000000000000000000000000000000900463ffffffff1680630803fac014610072578063279cea35146100a15780638333d9b2146101855780638b3dd749146101b8578063de4796ed146101e3575b600080fd5b34801561007e57600080fd5b50610087610212565b604051808215151515815260200191505060405180910390f35b3480156100ad57600080fd5b5061010a60048036038101908080359060200190820180359060200191909192939192939080359060200190820180359060200191909192939192939080359060200190820180359060200191909192939192939050505061023d565b6040518080602001828103825283818151815260200191508051906020019080838360005b8381101561014a57808201518184015260208101905061012f565b50505050905090810190601f1680156101775780820380516001836020036101000a031916815260200191505b509250505060405180910390f35b34801561019157600080fd5b5061019a6107e0565b60405180826000191660001916815260200191505060405180910390f35b3480156101c457600080fd5b506101cd61080b565b6040518082815260200191505060405180910390f35b3480156101ef57600080fd5b506101f8610842565b604051808215151515815260200191505060405180910390f35b60008061021d61080b565b905060008114158015610237575080610234610873565b10155b91505090565b60606000806000806000806000610252610212565b6040805190810160405280601481526020017f494e49545f4e4f545f494e495449414c495a4544000000000000000000000000815250901515610330576040517f08c379a00000000000000000000000000000000000000000000000000000000081526004018080602001828103825283818151815260200191508051906020019080838360005b838110156102f55780820151818401526020810190506102da565b50505050905090810190601f1680156103225780820380516001836020036101000a031916815260200191505b509250505060405180910390fd5b50600496505b8d8d90508710156107cf57610386878f8f8080601f01602080910402602001604051908101604052809392919081815260200183838082843782019150505050505061087b90919063ffffffff16565b9550600094505b898990508510156104de5789898681811015156103a657fe5b9050602002013573ffffffffffffffffffffffffffffffffffffffff1673ffffffffffffffffffffffffffffffffffffffff168673ffffffffffffffffffffffffffffffffffffffff1614156040805190810160405280601981526020017f45564d43414c4c535f424c41434b4c49535445445f43414c4c000000000000008152509015156104d0576040517f08c379a00000000000000000000000000000000000000000000000000000000081526004018080602001828103825283818151815260200191508051906020019080838360005b8381101561049557808201518184015260208101905061047a565b50505050905090810190601f1680156104c25780820380516001836020036101000a031916815260200191505b509250505060405180910390fd5b50848060010195505061038d565b8573ffffffffffffffffffffffffffffffffffffffff163073ffffffffffffffffffffffffffffffffffffffff163373ffffffffffffffffffffffffffffffffffffffff167f9dcff9d94fbfdb4622d11edb383005f95e78efb446c72d92f8e615c6025c470360405160405180910390a4610597601488018f8f8080601f0160208091040260200160405190810160405280939291908181526020018383808284378201915050505050506108c590919063ffffffff16565b63ffffffff1693506004601488010192506105ed838f8f8080601f01602080910402602001604051908101604052809392919081815260200183838082843782019150505050505061091f90919063ffffffff16565b915083830196508d8d90508711156040805190810160405280601781526020017f45564d43414c4c535f494e56414c49445f4c454e4754480000000000000000008152509015156106d9576040517f08c379a00000000000000000000000000000000000000000000000000000000081526004018080602001828103825283818151815260200191508051906020019080838360005b8381101561069e578082015181840152602081019050610683565b50505050905090810190601f1680156106cb5780820380516001836020036101000a031916815260200191505b509250505060405180910390fd5b50600080858460008a6113885a03f19050806040805190810160405280601681526020017f45564d43414c4c535f43414c4c5f5245564552544544000000000000000000008152509015156107c9576040517f08c379a00000000000000000000000000000000000000000000000000000000081526004018080602001828103825283818151815260200191508051906020019080838360005b8381101561078e578082015181840152602081019050610773565b50505050905090810190601f1680156107bb5780820380516001836020036101000a031916815260200191505b509250505060405180910390fd5b50610336565b505050505050509695505050505050565b60007f2dc858a00f3e417be1394b87c07158e989ec681ce8cc68a9093680ac1a870302600102905090565b600061083d7febb05b386a8d34882b8711d156f463690983dc47815980fb82aeeff1aa43579e6001026000191661092f565b905090565b60007fffffffffffffffffffffffffffffffffffffffffffffffffffffffffffffffff61086d61080b565b14905090565b600043905090565b600080610888848461093a565b90506c010000000000000000000000007fffffffffffffffffffffffffffffffffffffffff00000000000000000000000082160491505092915050565b6000806108d2848461093a565b90507c01000000000000000000000000000000000000000000000000000000007fffffffff0000000000000000000000000000000000000000000000000000000082160491505092915050565b6000816020018301905092915050565b600081549050919050565b600081602001830151905092915050565b80825550505600a165627a7a7230582070f719b45c4958e00bbe635c87199e6eb50a1c7e2c6f163906ff4dab4f9d95670029",
  "source": "pragma solidity 0.4.24;\n\n// Inspired by https://github.com/reverendus/tx-manager\n\nimport \"../ScriptHelpers.sol\";\nimport \"./BaseEVMScriptExecutor.sol\";\n\n\ncontract CallsScript is BaseEVMScriptExecutor {\n    using ScriptHelpers for bytes;\n\n    /* Hardcoded constants to save gas\n    bytes32 internal constant EXECUTOR_TYPE = keccak256(\"CALLS_SCRIPT\");\n    */\n    bytes32 internal constant EXECUTOR_TYPE = 0x2dc858a00f3e417be1394b87c07158e989ec681ce8cc68a9093680ac1a870302;\n\n    string private constant ERROR_BLACKLISTED_CALL = \"EVMCALLS_BLACKLISTED_CALL\";\n    string private constant ERROR_INVALID_LENGTH = \"EVMCALLS_INVALID_LENGTH\";\n    string private constant ERROR_CALL_REVERTED = \"EVMCALLS_CALL_REVERTED\";\n\n    event LogScriptCall(address indexed sender, address indexed src, address indexed dst);\n\n    /**\n    * @notice Executes a number of call scripts\n    * @param _script [ specId (uint32) ] many calls with this structure ->\n    *    [ to (address: 20 bytes) ] [ calldataLength (uint32: 4 bytes) ] [ calldata (calldataLength bytes) ]\n    * @param _blacklist Addresses the script cannot call to, or will revert.\n    * @return always returns empty byte array\n    */\n    function execScript(bytes _script, bytes, address[] _blacklist) external isInitialized returns (bytes) {\n        uint256 location = SCRIPT_START_LOCATION; // first 32 bits are spec id\n        while (location < _script.length) {\n            address contractAddress = _script.addressAt(location);\n            // Check address being called is not blacklist\n            for (uint i = 0; i < _blacklist.length; i++) {\n                require(contractAddress != _blacklist[i], ERROR_BLACKLISTED_CALL);\n            }\n\n            // logged before execution to ensure event ordering in receipt\n            // if failed entire execution is reverted regardless\n            emit LogScriptCall(msg.sender, address(this), contractAddress);\n\n            uint256 calldataLength = uint256(_script.uint32At(location + 0x14));\n            uint256 startOffset = location + 0x14 + 0x04;\n            uint256 calldataStart = _script.locationOf(startOffset);\n\n            // compute end of script / next location\n            location = startOffset + calldataLength;\n            require(location <= _script.length, ERROR_INVALID_LENGTH);\n\n            bool success;\n            assembly {\n                success := call(sub(gas, 5000), contractAddress, 0, calldataStart, calldataLength, 0, 0)\n            }\n\n            require(success, ERROR_CALL_REVERTED);\n        }\n    }\n\n    function executorType() external pure returns (bytes32) {\n        return EXECUTOR_TYPE;\n    }\n}\n",
  "sourcePath": "@aragon/os/contracts/evmscript/executors/CallsScript.sol",
  "compiler": {
    "name": "solc",
    "version": "0.4.24+commit.e67f0147.Emscripten.clang"
  },
  "schemaVersion": "3.0.0-beta.0",
  "updatedAt": "2018-11-28T12:30:20.452Z"
}