{
  "contractName": "DictatorKit",
  "abi": [
    {
      "constant": true,
      "inputs": [],
      "name": "hasInitialized",
      "outputs": [
        {
          "name": "",
          "type": "bool"
        }
      ],
      "payable": false,
      "stateMutability": "view",
      "type": "function"
    },
    {
      "constant": true,
      "inputs": [],
      "name": "KERNEL_APP_ID",
      "outputs": [
        {
          "name": "",
          "type": "bytes32"
        }
      ],
      "payable": false,
      "stateMutability": "view",
      "type": "function"
    },
    {
      "constant": true,
      "inputs": [],
      "name": "APP_ADDR_NAMESPACE",
      "outputs": [
        {
          "name": "",
          "type": "bytes32"
        }
      ],
      "payable": false,
      "stateMutability": "view",
      "type": "function"
    },
    {
      "constant": true,
      "inputs": [],
      "name": "getRecoveryVault",
      "outputs": [
        {
          "name": "",
          "type": "address"
        }
      ],
      "payable": false,
      "stateMutability": "view",
      "type": "function"
    },
    {
      "constant": true,
      "inputs": [],
      "name": "EVMSCRIPT_REGISTRY_APP_ID",
      "outputs": [
        {
          "name": "",
          "type": "bytes32"
        }
      ],
      "payable": false,
      "stateMutability": "view",
      "type": "function"
    },
    {
      "constant": true,
      "inputs": [],
      "name": "CORE_NAMESPACE",
      "outputs": [
        {
          "name": "",
          "type": "bytes32"
        }
      ],
      "payable": false,
      "stateMutability": "view",
      "type": "function"
    },
    {
      "constant": true,
      "inputs": [
        {
          "name": "token",
          "type": "address"
        }
      ],
      "name": "allowRecoverability",
      "outputs": [
        {
          "name": "",
          "type": "bool"
        }
      ],
      "payable": false,
      "stateMutability": "view",
      "type": "function"
    },
    {
      "constant": true,
      "inputs": [],
      "name": "appId",
      "outputs": [
        {
          "name": "",
          "type": "bytes32"
        }
      ],
      "payable": false,
      "stateMutability": "view",
      "type": "function"
    },
    {
      "constant": true,
      "inputs": [],
      "name": "ETH",
      "outputs": [
        {
          "name": "",
          "type": "address"
        }
      ],
      "payable": false,
      "stateMutability": "view",
      "type": "function"
    },
    {
      "constant": true,
      "inputs": [],
      "name": "getInitializationBlock",
      "outputs": [
        {
          "name": "",
          "type": "uint256"
        }
      ],
      "payable": false,
      "stateMutability": "view",
      "type": "function"
    },
    {
      "constant": false,
      "inputs": [
        {
          "name": "_token",
          "type": "address"
        }
      ],
      "name": "transferToVault",
      "outputs": [],
      "payable": false,
      "stateMutability": "nonpayable",
      "type": "function"
    },
    {
      "constant": true,
      "inputs": [
        {
          "name": "_sender",
          "type": "address"
        },
        {
          "name": "_role",
          "type": "bytes32"
        },
        {
          "name": "_params",
          "type": "uint256[]"
        }
      ],
      "name": "canPerform",
      "outputs": [
        {
          "name": "",
          "type": "bool"
        }
      ],
      "payable": false,
      "stateMutability": "view",
      "type": "function"
    },
    {
      "constant": true,
      "inputs": [],
      "name": "ACL_APP_ID",
      "outputs": [
        {
          "name": "",
          "type": "bytes32"
        }
      ],
      "payable": false,
      "stateMutability": "view",
      "type": "function"
    },
    {
      "constant": true,
      "inputs": [],
      "name": "api",
      "outputs": [
        {
          "name": "",
          "type": "address"
        }
      ],
      "payable": false,
      "stateMutability": "view",
      "type": "function"
    },
    {
      "constant": true,
      "inputs": [],
      "name": "kernel",
      "outputs": [
        {
          "name": "",
          "type": "address"
        }
      ],
      "payable": false,
      "stateMutability": "view",
      "type": "function"
    },
    {
      "constant": true,
      "inputs": [],
      "name": "APP_BASES_NAMESPACE",
      "outputs": [
        {
          "name": "",
          "type": "bytes32"
        }
      ],
      "payable": false,
      "stateMutability": "view",
      "type": "function"
    },
    {
      "constant": true,
      "inputs": [],
      "name": "isPetrified",
      "outputs": [
        {
          "name": "",
          "type": "bool"
        }
      ],
      "payable": false,
      "stateMutability": "view",
      "type": "function"
    },
    {
      "constant": true,
      "inputs": [],
      "name": "DICTATOR_ROLE",
      "outputs": [
        {
          "name": "",
          "type": "bytes32"
        }
      ],
      "payable": false,
      "stateMutability": "view",
      "type": "function"
    },
    {
      "constant": true,
      "inputs": [
        {
          "name": "_script",
          "type": "bytes"
        }
      ],
      "name": "getExecutor",
      "outputs": [
        {
          "name": "",
          "type": "address"
        }
      ],
      "payable": false,
      "stateMutability": "view",
      "type": "function"
    },
    {
      "anonymous": false,
      "inputs": [
        {
          "indexed": true,
          "name": "id",
          "type": "uint256"
        },
        {
          "indexed": false,
          "name": "sender",
          "type": "address"
        }
      ],
      "name": "CreateRFI",
      "type": "event"
    },
    {
      "anonymous": false,
      "inputs": [
        {
          "indexed": true,
          "name": "id",
          "type": "uint256"
        },
        {
          "indexed": false,
          "name": "sender",
          "type": "address"
        }
      ],
      "name": "MergeRFI",
      "type": "event"
    },
    {
      "anonymous": false,
      "inputs": [
        {
          "indexed": true,
          "name": "id",
          "type": "uint256"
        },
        {
          "indexed": false,
          "name": "sender",
          "type": "address"
        }
      ],
      "name": "RejectRFI",
      "type": "event"
    },
    {
      "anonymous": false,
      "inputs": [
        {
          "indexed": true,
          "name": "id",
          "type": "uint256"
        },
        {
          "indexed": false,
          "name": "sender",
          "type": "address"
        }
      ],
      "name": "CreateRFL",
      "type": "event"
    },
    {
      "anonymous": false,
      "inputs": [
        {
          "indexed": true,
          "name": "id",
          "type": "uint256"
        },
        {
          "indexed": false,
          "name": "value",
          "type": "uint256"
        },
        {
          "indexed": false,
          "name": "sender",
          "type": "address"
        }
      ],
      "name": "AcceptRFL",
      "type": "event"
    },
    {
      "anonymous": false,
      "inputs": [
        {
          "indexed": true,
          "name": "id",
          "type": "uint256"
        },
        {
          "indexed": false,
          "name": "sender",
          "type": "address"
        }
      ],
      "name": "RejectRFL",
      "type": "event"
    },
    {
      "anonymous": false,
      "inputs": [
        {
          "indexed": true,
          "name": "executor",
          "type": "address"
        },
        {
          "indexed": false,
          "name": "script",
          "type": "bytes"
        },
        {
          "indexed": false,
          "name": "input",
          "type": "bytes"
        },
        {
          "indexed": false,
          "name": "returnData",
          "type": "bytes"
        }
      ],
      "name": "ScriptResult",
      "type": "event"
    },
    {
      "constant": false,
      "inputs": [
        {
          "name": "_api",
          "type": "address"
        }
      ],
      "name": "initialize",
      "outputs": [],
      "payable": false,
      "stateMutability": "nonpayable",
      "type": "function"
    },
    {
      "constant": false,
      "inputs": [
        {
          "components": [
            {
              "name": "origin",
              "type": "address"
            },
            {
              "name": "tree",
              "type": "string"
            },
            {
              "name": "message",
              "type": "string"
            },
            {
              "name": "metadata",
              "type": "string"
            },
            {
              "components": [
                {
                  "name": "api",
                  "type": "address"
                },
                {
                  "name": "hash",
                  "type": "bytes32"
                }
              ],
              "name": "parents",
              "type": "tuple[]"
            }
          ],
          "name": "_individuation",
          "type": "tuple"
        },
        {
          "components": [
            {
              "name": "destination",
              "type": "address"
            },
            {
              "name": "minimum",
              "type": "uint256"
            },
            {
              "name": "metadata",
              "type": "string"
            }
          ],
          "name": "_lineages",
          "type": "tuple[]"
        }
      ],
      "name": "createRFI",
      "outputs": [],
      "payable": false,
      "stateMutability": "nonpayable",
      "type": "function"
    },
    {
      "constant": false,
      "inputs": [
        {
          "name": "_RFIid",
          "type": "uint256"
        }
      ],
      "name": "mergeRFI",
      "outputs": [],
      "payable": false,
      "stateMutability": "nonpayable",
      "type": "function"
    },
    {
      "constant": false,
      "inputs": [
        {
          "name": "_RFIid",
          "type": "uint256"
        }
      ],
      "name": "rejectRFI",
      "outputs": [],
      "payable": false,
      "stateMutability": "nonpayable",
      "type": "function"
    },
    {
      "constant": false,
      "inputs": [
        {
          "name": "_RFLid",
          "type": "uint256"
        },
        {
          "name": "_value",
          "type": "uint256"
        }
      ],
      "name": "acceptRFL",
      "outputs": [],
      "payable": false,
      "stateMutability": "nonpayable",
      "type": "function"
    },
    {
      "constant": false,
      "inputs": [
        {
          "name": "_RFLid",
          "type": "uint256"
        }
      ],
      "name": "rejectRFL",
      "outputs": [],
      "payable": false,
      "stateMutability": "nonpayable",
      "type": "function"
    }
  ],
  "bytecode": "0x60806040526200001d62000023640100000000026401000000009004565b6200015b565b60006200003e62000087640100000000026401000000009004565b1415156200004b57600080fd5b620000857fffffffffffffffffffffffffffffffffffffffffffffffffffffffffffffffff620000d4640100000000026401000000009004565b565b6000620000cf7febb05b386a8d34882b8711d156f463690983dc47815980fb82aeeff1aa43579e60010260001916620001496401000000000262001466176401000000009004565b905090565b6000620000ef62000087640100000000026401000000009004565b141515620000fc57600080fd5b62000146817febb05b386a8d34882b8711d156f463690983dc47815980fb82aeeff1aa43579e60010260001916620001546401000000000262001629179091906401000000009004565b50565b600081549050919050565b8082555050565b6124c5806200016b6000396000f300608060405260043610610149576000357c0100000000000000000000000000000000000000000000000000000000900463ffffffff1680630803fac01461014e5780631113ed0d14610179578063178e6079146101a45780633181f6b2146101cf57806332f0a3b5146101f857806360b1e057146102235780636d5f5ca71461024e5780636e0b314c14610277578063748b052c146102a0578063756f6049146102c95780637e7db6e1146102f457806380afdea8146103315780638322fff21461035c5780638b3dd749146103875780639d4941d8146103b2578063a1658fad146103db578063c4d66de814610418578063cbcc65eb14610441578063d2c18e0b1461046c578063d4aae0c414610497578063db8a61d4146104c2578063ddf6fa9c146104ed578063de4796ed14610516578063e5e3d15714610541578063f92a79ff1461056c575b600080fd5b34801561015a57600080fd5b506101636105a9565b604051610170919061205e565b60405180910390f35b34801561018557600080fd5b5061018e6105d4565b60405161019b9190612079565b60405180910390f35b3480156101b057600080fd5b506101b96105fb565b6040516101c69190612079565b60405180910390f35b3480156101db57600080fd5b506101f660048036036101f19190810190611c1d565b610622565b005b34801561020457600080fd5b5061020d610740565b60405161021a9190611fce565b60405180910390f35b34801561022f57600080fd5b5061023861082c565b6040516102459190612079565b60405180910390f35b34801561025a57600080fd5b5061027560048036036102709190810190611cdb565b610853565b005b34801561028357600080fd5b5061029e60048036036102999190810190611c89565b6109cb565b005b3480156102ac57600080fd5b506102c760048036036102c29190810190611c89565b610b3e565b005b3480156102d557600080fd5b506102de610cb1565b6040516102eb9190612079565b60405180910390f35b34801561030057600080fd5b5061031b60048036036103169190810190611aa8565b610cd8565b604051610328919061205e565b60405180910390f35b34801561033d57600080fd5b50610346610ce3565b6040516103539190612079565b60405180910390f35b34801561036857600080fd5b50610371610d1a565b60405161037e9190611fce565b60405180910390f35b34801561039357600080fd5b5061039c610d1f565b6040516103a99190612182565b60405180910390f35b3480156103be57600080fd5b506103d960048036036103d49190810190611aa8565b610d56565b005b3480156103e757600080fd5b5061040260048036036103fd9190810190611afa565b610f7c565b60405161040f919061205e565b60405180910390f35b34801561042457600080fd5b5061043f600480360361043a9190810190611bf4565b6110b4565b005b34801561044d57600080fd5b50610456611115565b6040516104639190612079565b60405180910390f35b34801561047857600080fd5b5061048161113c565b60405161048e9190612115565b60405180910390f35b3480156104a357600080fd5b506104ac611161565b6040516104b991906120fa565b60405180910390f35b3480156104ce57600080fd5b506104d7611198565b6040516104e49190612079565b60405180910390f35b3480156104f957600080fd5b50610514600480360361050f9190810190611c89565b6111bf565b005b34801561052257600080fd5b5061052b611332565b604051610538919061205e565b60405180910390f35b34801561054d57600080fd5b50610556611363565b6040516105639190612079565b60405180910390f35b34801561057857600080fd5b50610593600480360361058e9190810190611b8a565b61139c565b6040516105a091906120df565b60405180910390f35b6000806105b4610d1f565b9050600081141580156105ce5750806105cb611453565b10155b91505090565b7f3b4bf6bf3ad5000ecf0f989d5befde585c6860fea3e574a4fab4c49d1c177d9c60010281565b7fd6f028ca0e8edb4a8c9757ca4fdccab25fa1e0317da1188108f7d2dee14902fb60010281565b600061062c6105a9565b151561063757600080fd5b6000809054906101000a900473ffffffffffffffffffffffffffffffffffffffff1673ffffffffffffffffffffffffffffffffffffffff16633181f6b284846040518363ffffffff167c01000000000000000000000000000000000000000000000000000000000281526004016106af92919061214b565b602060405180830381600087803b1580156106c957600080fd5b505af11580156106dd573d6000803e3d6000fd5b505050506040513d601f19601f820116820180604052506107019190810190611cb2565b9050807f0c56f8c36b7554d544257f27835cbcc73c240d580ec0900f8bd4ff2175caa49f336040516107339190611fce565b60405180910390a2505050565b60008073ffffffffffffffffffffffffffffffffffffffff16610761611161565b73ffffffffffffffffffffffffffffffffffffffff161415151561078457600080fd5b61078c611161565b73ffffffffffffffffffffffffffffffffffffffff166332f0a3b56040518163ffffffff167c0100000000000000000000000000000000000000000000000000000000028152600401602060405180830381600087803b1580156107ef57600080fd5b505af1158015610803573d6000803e3d6000fd5b505050506040513d601f19601f820116820180604052506108279190810190611ad1565b905090565b7fddbcfd564f642ab5627cf68b9b7d374fb4f8a36e941a75d89c87998cef03bd6160010281565b61085b6105a9565b151561086657600080fd5b60405180807f4449435441544f525f524f4c4500000000000000000000000000000000000000815250600d01905060405180910390206108d7338260006040519080825280602002602001820160405280156108d15781602001602082028038833980820191505090505b50610f7c565b15156108e257600080fd5b6000809054906101000a900473ffffffffffffffffffffffffffffffffffffffff1673ffffffffffffffffffffffffffffffffffffffff16636d5f5ca784846040518363ffffffff167c010000000000000000000000000000000000000000000000000000000002815260040161095a9291906121c6565b600060405180830381600087803b15801561097457600080fd5b505af1158015610988573d6000803e3d6000fd5b50505050827f79ae0586cdce2f9ac51be4e90e29b1dcd8dfb152737ab9382dbde5f986e99f2883336040516109be92919061219d565b60405180910390a2505050565b6109d36105a9565b15156109de57600080fd5b60405180807f4449435441544f525f524f4c4500000000000000000000000000000000000000815250600d0190506040518091039020610a4f33826000604051908082528060200260200182016040528015610a495781602001602082028038833980820191505090505b50610f7c565b1515610a5a57600080fd5b6000809054906101000a900473ffffffffffffffffffffffffffffffffffffffff1673ffffffffffffffffffffffffffffffffffffffff16636e0b314c836040518263ffffffff167c0100000000000000000000000000000000000000000000000000000000028152600401610ad09190612182565b600060405180830381600087803b158015610aea57600080fd5b505af1158015610afe573d6000803e3d6000fd5b50505050817fdb553e9dd87d69c52eb43bc85959506b4590e502486d433c5efd069fce1b559b33604051610b329190611fce565b60405180910390a25050565b610b466105a9565b1515610b5157600080fd5b60405180807f4449435441544f525f524f4c4500000000000000000000000000000000000000815250600d0190506040518091039020610bc233826000604051908082528060200260200182016040528015610bbc5781602001602082028038833980820191505090505b50610f7c565b1515610bcd57600080fd5b6000809054906101000a900473ffffffffffffffffffffffffffffffffffffffff1673ffffffffffffffffffffffffffffffffffffffff1663748b052c836040518263ffffffff167c0100000000000000000000000000000000000000000000000000000000028152600401610c439190612182565b600060405180830381600087803b158015610c5d57600080fd5b505af1158015610c71573d6000803e3d6000fd5b50505050817f040130ae6b301b112be85e5808e8daf12ea354c87fa26fe1a44ae469648a6ae233604051610ca59190611fce565b60405180910390a25050565b7fc681a85306374a5ab27f0bbc385296a54bcd314a1948b6cf61c4ea1bc44bb9f860010281565b600060019050919050565b6000610d157fd625496217aa6a3453eecb9c3489dc5a53e6c67b444329ea2b2cbc9ff547639b6001026000191661145b565b905090565b600081565b6000610d517febb05b386a8d34882b8711d156f463690983dc47815980fb82aeeff1aa43579e60010260001916611466565b905090565b600080610d6283610cd8565b1515610d6d57600080fd5b610d75610740565b9150610d8082611471565b1515610d8b57600080fd5b600073ffffffffffffffffffffffffffffffffffffffff168373ffffffffffffffffffffffffffffffffffffffff161415610e23578173ffffffffffffffffffffffffffffffffffffffff166108fc3073ffffffffffffffffffffffffffffffffffffffff16319081150290604051600060405180830381858888f19350505050158015610e1d573d6000803e3d6000fd5b50610f77565b8273ffffffffffffffffffffffffffffffffffffffff166370a08231306040518263ffffffff167c0100000000000000000000000000000000000000000000000000000000028152600401610e789190612130565b602060405180830381600087803b158015610e9257600080fd5b505af1158015610ea6573d6000803e3d6000fd5b505050506040513d601f19601f82011682018060405250610eca9190810190611cb2565b90508273ffffffffffffffffffffffffffffffffffffffff1663a9059cbb83836040518363ffffffff167c0100000000000000000000000000000000000000000000000000000000028152600401610f23929190612035565b602060405180830381600087803b158015610f3d57600080fd5b505af1158015610f51573d6000803e3d6000fd5b505050506040513d601f19601f82011682018060405250610f759190810190611b61565b505b505050565b60008060606000610f8b6105a9565b1515610f9a57600093506110aa565b610fa2611161565b9250600073ffffffffffffffffffffffffffffffffffffffff168373ffffffffffffffffffffffffffffffffffffffff161415610fe257600093506110aa565b600085511115610ffa57602085510290508491508082525b8273ffffffffffffffffffffffffffffffffffffffff1663fdef9106883089866040518563ffffffff167c01000000000000000000000000000000000000000000000000000000000281526004016110559493929190611fe9565b602060405180830381600087803b15801561106f57600080fd5b505af1158015611083573d6000803e3d6000fd5b505050506040513d601f19601f820116820180604052506110a79190810190611b61565b93505b5050509392505050565b60006110be610d1f565b1415156110ca57600080fd5b6110d26114c3565b806000806101000a81548173ffffffffffffffffffffffffffffffffffffffff021916908373ffffffffffffffffffffffffffffffffffffffff16021790555050565b7fe3262375f45a6e2026b7e7b18c2b807434f2508fe1a2a3dfb493c7df8f4aad6a60010281565b6000809054906101000a900473ffffffffffffffffffffffffffffffffffffffff1681565b60006111937f4172f0f7d2289153072b0a6ca36959e0cbe2efc3afe50fc81636caa96338137b6001026000191661151c565b905090565b7ff1f3eb40f5bc1ad1344716ced8b8a0431d840b5783aea1fd01786bc26f35ac0f60010281565b6111c76105a9565b15156111d257600080fd5b60405180807f4449435441544f525f524f4c4500000000000000000000000000000000000000815250600d01905060405180910390206112433382600060405190808252806020026020018201604052801561123d5781602001602082028038833980820191505090505b50610f7c565b151561124e57600080fd5b6000809054906101000a900473ffffffffffffffffffffffffffffffffffffffff1673ffffffffffffffffffffffffffffffffffffffff1663ddf6fa9c836040518263ffffffff167c01000000000000000000000000000000000000000000000000000000000281526004016112c49190612182565b600060405180830381600087803b1580156112de57600080fd5b505af11580156112f2573d6000803e3d6000fd5b50505050817fb437070207d8119ff67a8ed011f535501d30493d59d9c54bd783643b058b144f336040516113269190611fce565b60405180910390a25050565b60007fffffffffffffffffffffffffffffffffffffffffffffffffffffffffffffffff61135d610d1f565b14905090565b60405180807f4449435441544f525f524f4c4500000000000000000000000000000000000000815250600d019050604051809103902081565b60006113a6611527565b73ffffffffffffffffffffffffffffffffffffffff166304bf2a7f836040518263ffffffff167c01000000000000000000000000000000000000000000000000000000000281526004016113fa91906120bd565b602060405180830381600087803b15801561141457600080fd5b505af1158015611428573d6000803e3d6000fd5b505050506040513d601f19601f8201168201806040525061144c9190810190611bcb565b9050919050565b600043905090565b600081549050919050565b600081549050919050565b600080600073ffffffffffffffffffffffffffffffffffffffff168373ffffffffffffffffffffffffffffffffffffffff1614156114b257600091506114bd565b823b90506000811191505b50919050565b60006114cd610d1f565b1415156114d957600080fd5b61151a6114e4611453565b7febb05b386a8d34882b8711d156f463690983dc47815980fb82aeeff1aa43579e6001026000191661162990919063ffffffff16565b565b600081549050919050565b600080611532611161565b73ffffffffffffffffffffffffffffffffffffffff1663be00bbd87fd6f028ca0e8edb4a8c9757ca4fdccab25fa1e0317da1188108f7d2dee14902fb6001027fddbcfd564f642ab5627cf68b9b7d374fb4f8a36e941a75d89c87998cef03bd616001026040518363ffffffff167c01000000000000000000000000000000000000000000000000000000000281526004016115ce929190612094565b602060405180830381600087803b1580156115e857600080fd5b505af11580156115fc573d6000803e3d6000fd5b505050506040513d601f19601f820116820180604052506116209190810190611ad1565b90508091505090565b8082555050565b600061163c823561238c565b905092915050565b6000611650825161238c565b905092915050565b600082601f830112151561166b57600080fd5b813561167e6116798261221c565b6121ef565b915081818352602084019350602081019050838560408402820111156116a357600080fd5b60005b838110156116d357816116b988826118d4565b8452602084019350604083019250506001810190506116a6565b5050505092915050565b600082601f83011215156116f057600080fd5b81356117036116fe82612244565b6121ef565b9150818183526020840193506020810190508360005b83811015611749578135860161172f8882611a08565b845260208401935060208301925050600181019050611719565b5050505092915050565b600082601f830112151561176657600080fd5b81356117796117748261226c565b6121ef565b9150818183526020840193506020810190508385602084028201111561179e57600080fd5b60005b838110156117ce57816117b48882611a80565b8452602084019350602083019250506001810190506117a1565b5050505092915050565b60006117e482516123ac565b905092915050565b60006117f882356123b8565b905092915050565b600082601f830112151561181357600080fd5b813561182661182182612294565b6121ef565b9150808252602083016020830185838301111561184257600080fd5b61184d838284612438565b50505092915050565b600061186282516123c2565b905092915050565b600061187682356123d4565b905092915050565b600082601f830112151561189157600080fd5b81356118a461189f826122c0565b6121ef565b915080825260208301602083018583830111156118c057600080fd5b6118cb838284612438565b50505092915050565b6000604082840312156118e657600080fd5b6118f060406121ef565b9050600061190084828501611630565b6000830152506020611914848285016117ec565b60208301525092915050565b600060a0828403121561193257600080fd5b61193c60a06121ef565b9050600061194c84828501611630565b600083015250602082013567ffffffffffffffff81111561196c57600080fd5b6119788482850161187e565b602083015250604082013567ffffffffffffffff81111561199857600080fd5b6119a48482850161187e565b604083015250606082013567ffffffffffffffff8111156119c457600080fd5b6119d08482850161187e565b606083015250608082013567ffffffffffffffff8111156119f057600080fd5b6119fc84828501611658565b60808301525092915050565b600060608284031215611a1a57600080fd5b611a2460606121ef565b90506000611a3484828501611630565b6000830152506020611a4884828501611a80565b602083015250604082013567ffffffffffffffff811115611a6857600080fd5b611a748482850161187e565b60408301525092915050565b6000611a8c82356123e6565b905092915050565b6000611aa082516123e6565b905092915050565b600060208284031215611aba57600080fd5b6000611ac884828501611630565b91505092915050565b600060208284031215611ae357600080fd5b6000611af184828501611644565b91505092915050565b600080600060608486031215611b0f57600080fd5b6000611b1d86828701611630565b9350506020611b2e868287016117ec565b925050604084013567ffffffffffffffff811115611b4b57600080fd5b611b5786828701611753565b9150509250925092565b600060208284031215611b7357600080fd5b6000611b81848285016117d8565b91505092915050565b600060208284031215611b9c57600080fd5b600082013567ffffffffffffffff811115611bb657600080fd5b611bc284828501611800565b91505092915050565b600060208284031215611bdd57600080fd5b6000611beb84828501611856565b91505092915050565b600060208284031215611c0657600080fd5b6000611c148482850161186a565b91505092915050565b60008060408385031215611c3057600080fd5b600083013567ffffffffffffffff811115611c4a57600080fd5b611c5685828601611920565b925050602083013567ffffffffffffffff811115611c7357600080fd5b611c7f858286016116dd565b9150509250929050565b600060208284031215611c9b57600080fd5b6000611ca984828501611a80565b91505092915050565b600060208284031215611cc457600080fd5b6000611cd284828501611a94565b91505092915050565b60008060408385031215611cee57600080fd5b6000611cfc85828601611a80565b9250506020611d0d85828601611a80565b9150509250929050565b611d208161234c565b82525050565b6000611d3182612306565b808452602084019350611d43836122ec565b60005b82811015611d7557611d59868351611eb5565b611d6282612332565b9150604086019550600181019050611d46565b50849250505092915050565b6000611d8c82612311565b80845260208401935083602082028501611da5856122f9565b60005b84811015611dde578383038852611dc0838351611f6f565b9250611dcb8261233f565b9150602088019750600181019050611da8565b508196508694505050505092915050565b611df88161236c565b82525050565b611e0781612378565b82525050565b6000611e188261231c565b808452611e2c816020860160208601612447565b611e358161247a565b602085010191505092915050565b611e4c816123f0565b82525050565b611e5b81612402565b82525050565b611e6a81612414565b82525050565b611e7981612426565b82525050565b6000611e8a82612327565b808452611e9e816020860160208601612447565b611ea78161247a565b602085010191505092915050565b604082016000820151611ecb6000850182611d17565b506020820151611ede6020850182611dfe565b50505050565b600060a083016000830151611efc6000860182611d17565b5060208301518482036020860152611f148282611e7f565b91505060408301518482036040860152611f2e8282611e7f565b91505060608301518482036060860152611f488282611e7f565b91505060808301518482036080860152611f628282611d26565b9150508091505092915050565b6000606083016000830151611f876000860182611d17565b506020830151611f9a6020860182611fbf565b5060408301518482036040860152611fb28282611e7f565b9150508091505092915050565b611fc881612382565b82525050565b6000602082019050611fe36000830184611d17565b92915050565b6000608082019050611ffe6000830187611d17565b61200b6020830186611d17565b6120186040830185611dfe565b818103606083015261202a8184611e0d565b905095945050505050565b600060408201905061204a6000830185611d17565b6120576020830184611fbf565b9392505050565b60006020820190506120736000830184611def565b92915050565b600060208201905061208e6000830184611dfe565b92915050565b60006040820190506120a96000830185611dfe565b6120b66020830184611dfe565b9392505050565b600060208201905081810360008301526120d78184611e0d565b905092915050565b60006020820190506120f46000830184611e43565b92915050565b600060208201905061210f6000830184611e52565b92915050565b600060208201905061212a6000830184611e61565b92915050565b60006020820190506121456000830184611e70565b92915050565b600060408201905081810360008301526121658185611ee4565b905081810360208301526121798184611d81565b90509392505050565b60006020820190506121976000830184611fbf565b92915050565b60006040820190506121b26000830185611fbf565b6121bf6020830184611d17565b9392505050565b60006040820190506121db6000830185611fbf565b6121e86020830184611fbf565b9392505050565b6000604051905081810181811067ffffffffffffffff8211171561221257600080fd5b8060405250919050565b600067ffffffffffffffff82111561223357600080fd5b602082029050602081019050919050565b600067ffffffffffffffff82111561225b57600080fd5b602082029050602081019050919050565b600067ffffffffffffffff82111561228357600080fd5b602082029050602081019050919050565b600067ffffffffffffffff8211156122ab57600080fd5b601f19601f8301169050602081019050919050565b600067ffffffffffffffff8211156122d757600080fd5b601f19601f8301169050602081019050919050565b6000602082019050919050565b6000602082019050919050565b600081519050919050565b600081519050919050565b600081519050919050565b600081519050919050565b6000602082019050919050565b6000602082019050919050565b600073ffffffffffffffffffffffffffffffffffffffff82169050919050565b60008115159050919050565b6000819050919050565b6000819050919050565b600073ffffffffffffffffffffffffffffffffffffffff82169050919050565b60008115159050919050565b6000819050919050565b60006123cd8261234c565b9050919050565b60006123df8261234c565b9050919050565b6000819050919050565b60006123fb8261234c565b9050919050565b600061240d8261234c565b9050919050565b600061241f8261234c565b9050919050565b60006124318261234c565b9050919050565b82818337600083830152505050565b60005b8381101561246557808201518184015260208101905061244a565b83811115612474576000848401525b50505050565b6000601f19601f83011690509190505600a265627a7a72305820d926e990c0098be3257a7b41f6a2fd87f1f78b99295d2988271ad58ec0814f276c6578706572696d656e74616cf50037",
  "source": "pragma solidity ^0.4.24;\npragma experimental ABIEncoderV2;\n\nimport \"./PandoKit.sol\";\n\n\ncontract DictatorKit is PandoKit {\n    bytes32 constant public DICTATOR_ROLE = keccak256(\"DICTATOR_ROLE\");\n\n\n    function initialize(PandoAPI _api) external onlyInit {\n        initialized();\n        api = _api;\n    }\n\n    function createRFI(Pando.IIndividuation _individuation, Pando.ILineage[] _lineages) public isInitialized {\n        uint256 RFIid = api.createRFI(_individuation, _lineages);\n        emit CreateRFI(RFIid, msg.sender);\n    }\n\n    function mergeRFI(uint256 _RFIid) public isInitialized auth(DICTATOR_ROLE) {\n        api.mergeRFI(_RFIid);\n        emit MergeRFI(_RFIid, msg.sender);\n    }\n\n    function rejectRFI(uint256 _RFIid) public isInitialized auth(DICTATOR_ROLE) {\n        api.rejectRFI(_RFIid);\n        emit RejectRFI(_RFIid, msg.sender);\n    }\n\n    function acceptRFL(uint256 _RFLid, uint256 _value) public isInitialized auth(DICTATOR_ROLE) {\n        api.acceptRFL(_RFLid, _value);\n        emit AcceptRFL(_RFLid, _value, msg.sender);\n    }\n\n    function rejectRFL(uint256 _RFLid) public isInitialized auth(DICTATOR_ROLE) {\n        api.rejectRFL(_RFLid);\n        emit RejectRFL(_RFLid, msg.sender);\n    }\n}\n",
  "sourcePath": "/Users/osarrouy/Documents/dapp/@pando/packages/core/contracts/kits/DictatorKit.sol",
  "compiler": {
    "name": "solc",
    "version": "0.4.24+commit.e67f0147.Emscripten.clang"
  },
  "schemaVersion": "2.0.1",
  "updatedAt": "2018-11-26T14:43:27.632Z"
}