{
  "contractName": "Genesis",
  "abi": [
    {
      "constant": true,
      "inputs": [],
      "name": "hasInitialized",
      "outputs": [
        {
          "name": "",
          "type": "bool"
        }
      ],
      "payable": false,
      "stateMutability": "view",
      "type": "function"
    },
    {
      "constant": true,
      "inputs": [
        {
          "name": "_script",
          "type": "bytes"
        }
      ],
      "name": "getEVMScriptExecutor",
      "outputs": [
        {
          "name": "",
          "type": "address"
        }
      ],
      "payable": false,
      "stateMutability": "view",
      "type": "function"
    },
    {
      "constant": true,
      "inputs": [],
      "name": "getRecoveryVault",
      "outputs": [
        {
          "name": "",
          "type": "address"
        }
      ],
      "payable": false,
      "stateMutability": "view",
      "type": "function"
    },
    {
      "constant": true,
      "inputs": [],
      "name": "pando",
      "outputs": [
        {
          "name": "",
          "type": "address"
        }
      ],
      "payable": false,
      "stateMutability": "view",
      "type": "function"
    },
    {
      "constant": true,
      "inputs": [
        {
          "name": "token",
          "type": "address"
        }
      ],
      "name": "allowRecoverability",
      "outputs": [
        {
          "name": "",
          "type": "bool"
        }
      ],
      "payable": false,
      "stateMutability": "view",
      "type": "function"
    },
    {
      "constant": true,
      "inputs": [],
      "name": "appId",
      "outputs": [
        {
          "name": "",
          "type": "bytes32"
        }
      ],
      "payable": false,
      "stateMutability": "view",
      "type": "function"
    },
    {
      "constant": true,
      "inputs": [],
      "name": "getInitializationBlock",
      "outputs": [
        {
          "name": "",
          "type": "uint256"
        }
      ],
      "payable": false,
      "stateMutability": "view",
      "type": "function"
    },
    {
      "constant": true,
      "inputs": [],
      "name": "head",
      "outputs": [
        {
          "name": "",
          "type": "bytes32"
        }
      ],
      "payable": false,
      "stateMutability": "view",
      "type": "function"
    },
    {
      "constant": false,
      "inputs": [
        {
          "name": "_token",
          "type": "address"
        }
      ],
      "name": "transferToVault",
      "outputs": [],
      "payable": false,
      "stateMutability": "nonpayable",
      "type": "function"
    },
    {
      "constant": true,
      "inputs": [
        {
          "name": "_sender",
          "type": "address"
        },
        {
          "name": "_role",
          "type": "bytes32"
        },
        {
          "name": "_params",
          "type": "uint256[]"
        }
      ],
      "name": "canPerform",
      "outputs": [
        {
          "name": "",
          "type": "bool"
        }
      ],
      "payable": false,
      "stateMutability": "view",
      "type": "function"
    },
    {
      "constant": true,
      "inputs": [],
      "name": "getEVMScriptRegistry",
      "outputs": [
        {
          "name": "",
          "type": "address"
        }
      ],
      "payable": false,
      "stateMutability": "view",
      "type": "function"
    },
    {
      "constant": true,
      "inputs": [],
      "name": "INDIVIDUATE_ROLE",
      "outputs": [
        {
          "name": "",
          "type": "bytes32"
        }
      ],
      "payable": false,
      "stateMutability": "view",
      "type": "function"
    },
    {
      "constant": true,
      "inputs": [],
      "name": "kernel",
      "outputs": [
        {
          "name": "",
          "type": "address"
        }
      ],
      "payable": false,
      "stateMutability": "view",
      "type": "function"
    },
    {
      "constant": true,
      "inputs": [],
      "name": "isPetrified",
      "outputs": [
        {
          "name": "",
          "type": "bool"
        }
      ],
      "payable": false,
      "stateMutability": "view",
      "type": "function"
    },
    {
      "constant": true,
      "inputs": [
        {
          "name": "",
          "type": "bytes32"
        }
      ],
      "name": "individuations",
      "outputs": [
        {
          "name": "blockstamp",
          "type": "uint256"
        },
        {
          "name": "metadata",
          "type": "string"
        }
      ],
      "payable": false,
      "stateMutability": "view",
      "type": "function"
    },
    {
      "anonymous": false,
      "inputs": [
        {
          "indexed": false,
          "name": "hash",
          "type": "bytes32"
        }
      ],
      "name": "Individuate",
      "type": "event"
    },
    {
      "anonymous": false,
      "inputs": [
        {
          "indexed": true,
          "name": "executor",
          "type": "address"
        },
        {
          "indexed": false,
          "name": "script",
          "type": "bytes"
        },
        {
          "indexed": false,
          "name": "input",
          "type": "bytes"
        },
        {
          "indexed": false,
          "name": "returnData",
          "type": "bytes"
        }
      ],
      "name": "ScriptResult",
      "type": "event"
    },
    {
      "constant": false,
      "inputs": [
        {
          "name": "_pando",
          "type": "address"
        }
      ],
      "name": "initialize",
      "outputs": [],
      "payable": false,
      "stateMutability": "nonpayable",
      "type": "function"
    },
    {
      "constant": false,
      "inputs": [
        {
          "components": [
            {
              "name": "metadata",
              "type": "string"
            }
          ],
          "name": "_individuation",
          "type": "tuple"
        }
      ],
      "name": "individuate",
      "outputs": [],
      "payable": false,
      "stateMutability": "nonpayable",
      "type": "function"
    },
    {
      "constant": true,
      "inputs": [
        {
          "name": "_hash",
          "type": "bytes32"
        }
      ],
      "name": "getIndividuation",
      "outputs": [
        {
          "components": [
            {
              "name": "blockstamp",
              "type": "uint256"
            },
            {
              "name": "metadata",
              "type": "string"
            }
          ],
          "name": "",
          "type": "tuple"
        }
      ],
      "payable": false,
      "stateMutability": "view",
      "type": "function"
    },
    {
      "constant": true,
      "inputs": [],
      "name": "getHead",
      "outputs": [
        {
          "components": [
            {
              "name": "blockstamp",
              "type": "uint256"
            },
            {
              "name": "metadata",
              "type": "string"
            }
          ],
          "name": "",
          "type": "tuple"
        }
      ],
      "payable": false,
      "stateMutability": "view",
      "type": "function"
    }
  ],
  "bytecode": "0x60806040526200001d62000023640100000000026401000000009004565b620002ef565b60006200003e620000f8640100000000026401000000009004565b146040805190810160405280601881526020017f494e49545f414c52454144595f494e495449414c495a45440000000000000000815250901515620000bb576040517f08c379a0000000000000000000000000000000000000000000000000000000008152600401620000b2919062000279565b60405180910390fd5b50620000f67fffffffffffffffffffffffffffffffffffffffffffffffffffffffffffffffff62000145640100000000026401000000009004565b565b6000620001407febb05b386a8d34882b8711d156f463690983dc47815980fb82aeeff1aa43579e600102600019166200022b640100000000026200137b176401000000009004565b905090565b600062000160620000f8640100000000026401000000009004565b146040805190810160405280601881526020017f494e49545f414c52454144595f494e495449414c495a45440000000000000000815250901515620001dd576040517f08c379a0000000000000000000000000000000000000000000000000000000008152600401620001d4919062000279565b60405180910390fd5b5062000228817febb05b386a8d34882b8711d156f463690983dc47815980fb82aeeff1aa43579e600102600019166200023664010000000002620014ab179091906401000000009004565b50565b600081549050919050565b8082555050565b60006200024a826200029d565b80845262000260816020860160208601620002a8565b6200026b81620002de565b602085010191505092915050565b600060208201905081810360008301526200029581846200023d565b905092915050565b600081519050919050565b60005b83811015620002c8578082015181840152602081019050620002ab565b83811115620002d8576000848401525b50505050565b6000601f19601f8301169050919050565b611f7c80620002ff6000396000f300608060405260043610610107576000357c0100000000000000000000000000000000000000000000000000000000900463ffffffff1680630803fac01461010c578063115cb3ad146101375780632914b9bd1461017457806332f0a3b5146101b15780634844c28d146101dc5780637e7db6e11461020757806380afdea8146102445780638b3dd7491461026f5780638f7dcfa31461029a5780639d4941d8146102c5578063a1658fad146102ee578063a479e5081461032b578063c34e0ed614610356578063c4d66de814610381578063c9ab7ed9146103aa578063d4aae0c4146103d3578063dc281aff146103fe578063de4796ed14610429578063f131fb9914610454575b600080fd5b34801561011857600080fd5b50610121610492565b60405161012e9190611b97565b60405180910390f35b34801561014357600080fd5b5061015e60048036036101599190810190611888565b6104bd565b60405161016b9190611cc1565b60405180910390f35b34801561018057600080fd5b5061019b600480360361019691908101906118da565b610620565b6040516101a89190611c18565b60405180910390f35b3480156101bd57600080fd5b506101c66106d7565b6040516101d39190611b07565b60405180910390f35b3480156101e857600080fd5b506101f1610781565b6040516101fe9190611c69565b60405180910390f35b34801561021357600080fd5b5061022e600480360361022991908101906117a6565b6107a6565b60405161023b9190611b97565b60405180910390f35b34801561025057600080fd5b506102596107b1565b6040516102669190611bb2565b60405180910390f35b34801561027b57600080fd5b506102846107e8565b6040516102919190611ce3565b60405180910390f35b3480156102a657600080fd5b506102af61081f565b6040516102bc9190611bb2565b60405180910390f35b3480156102d157600080fd5b506102ec60048036036102e791908101906117a6565b610825565b005b3480156102fa57600080fd5b50610315600480360361031091908101906117f8565b610b29565b6040516103229190611b97565b60405180910390f35b34801561033757600080fd5b50610340610c56565b60405161034d9190611c33565b60405180910390f35b34801561036257600080fd5b5061036b610d58565b6040516103789190611bb2565b60405180910390f35b34801561038d57600080fd5b506103a860048036036103a39190810190611944565b610d91565b005b3480156103b657600080fd5b506103d160048036036103cc919081019061196d565b610e61565b005b3480156103df57600080fd5b506103e86110e1565b6040516103f59190611c4e565b60405180910390f35b34801561040a57600080fd5b50610413611118565b6040516104209190611cc1565b60405180910390f35b34801561043557600080fd5b5061043e61127b565b60405161044b9190611b97565b60405180910390f35b34801561046057600080fd5b5061047b60048036036104769190810190611888565b6112ac565b604051610489929190611cfe565b60405180910390f35b60008061049d6107e8565b9050600081141580156104b75750806104b4611368565b10155b91505090565b6104c56114b2565b6104cd610492565b6040805190810160405280601481526020017f494e49545f4e4f545f494e495449414c495a4544000000000000000000000000815250901515610546576040517f08c379a000000000000000000000000000000000000000000000000000000000815260040161053d9190611c9f565b60405180910390fd5b5060026000836000191660001916815260200190815260200160002060408051908101604052908160008201548152602001600182018054600181600116156101000203166002900480601f0160208091040260200160405190810160405280929190818152602001828054600181600116156101000203166002900480156106105780601f106105e557610100808354040283529160200191610610565b820191906000526020600020905b8154815290600101906020018083116105f357829003601f168201915b5050505050815250509050919050565b600061062a610c56565b73ffffffffffffffffffffffffffffffffffffffff166304bf2a7f836040518263ffffffff167c010000000000000000000000000000000000000000000000000000000002815260040161067e9190611bf6565b602060405180830381600087803b15801561069857600080fd5b505af11580156106ac573d6000803e3d6000fd5b505050506040513d601f19601f820116820180604052506106d0919081019061191b565b9050919050565b60006106e16110e1565b73ffffffffffffffffffffffffffffffffffffffff166332f0a3b56040518163ffffffff167c0100000000000000000000000000000000000000000000000000000000028152600401602060405180830381600087803b15801561074457600080fd5b505af1158015610758573d6000803e3d6000fd5b505050506040513d601f19601f8201168201806040525061077c91908101906117cf565b905090565b6000809054906101000a900473ffffffffffffffffffffffffffffffffffffffff1681565b600060019050919050565b60006107e37fd625496217aa6a3453eecb9c3489dc5a53e6c67b444329ea2b2cbc9ff547639b60010260001916611370565b905090565b600061081a7febb05b386a8d34882b8711d156f463690983dc47815980fb82aeeff1aa43579e6001026000191661137b565b905090565b60015481565b600080610831836107a6565b6040805190810160405280601281526020017f5245434f5645525f444953414c4c4f57454400000000000000000000000000008152509015156108aa576040517f08c379a00000000000000000000000000000000000000000000000000000000081526004016108a19190611c9f565b60405180910390fd5b506108b36106d7565b91506108be82611386565b6040805190810160405280601a81526020017f5245434f5645525f5641554c545f4e4f545f434f4e5452414354000000000000815250901515610937576040517f08c379a000000000000000000000000000000000000000000000000000000000815260040161092e9190611c9f565b60405180910390fd5b50600073ffffffffffffffffffffffffffffffffffffffff168373ffffffffffffffffffffffffffffffffffffffff1614156109d0578173ffffffffffffffffffffffffffffffffffffffff166108fc3073ffffffffffffffffffffffffffffffffffffffff16319081150290604051600060405180830381858888f193505050501580156109ca573d6000803e3d6000fd5b50610b24565b8273ffffffffffffffffffffffffffffffffffffffff166370a08231306040518263ffffffff167c0100000000000000000000000000000000000000000000000000000000028152600401610a259190611c84565b602060405180830381600087803b158015610a3f57600080fd5b505af1158015610a53573d6000803e3d6000fd5b505050506040513d601f19601f82011682018060405250610a7791908101906119ae565b90508273ffffffffffffffffffffffffffffffffffffffff1663a9059cbb83836040518363ffffffff167c0100000000000000000000000000000000000000000000000000000000028152600401610ad0929190611b6e565b602060405180830381600087803b158015610aea57600080fd5b505af1158015610afe573d6000803e3d6000fd5b505050506040513d601f19601f82011682018060405250610b22919081019061185f565b505b505050565b60008060606000610b38610492565b1515610b475760009350610c4c565b610b4f6110e1565b9250600073ffffffffffffffffffffffffffffffffffffffff168373ffffffffffffffffffffffffffffffffffffffff161415610b8f5760009350610c4c565b602085510290508491508082528273ffffffffffffffffffffffffffffffffffffffff1663fdef9106883089866040518563ffffffff167c0100000000000000000000000000000000000000000000000000000000028152600401610bf79493929190611b22565b602060405180830381600087803b158015610c1157600080fd5b505af1158015610c25573d6000803e3d6000fd5b505050506040513d601f19601f82011682018060405250610c49919081019061185f565b93505b5050509392505050565b600080610c616110e1565b73ffffffffffffffffffffffffffffffffffffffff1663be00bbd87fd6f028ca0e8edb4a8c9757ca4fdccab25fa1e0317da1188108f7d2dee14902fb6001027fddbcfd564f642ab5627cf68b9b7d374fb4f8a36e941a75d89c87998cef03bd616001026040518363ffffffff167c0100000000000000000000000000000000000000000000000000000000028152600401610cfd929190611bcd565b602060405180830381600087803b158015610d1757600080fd5b505af1158015610d2b573d6000803e3d6000fd5b505050506040513d601f19601f82011682018060405250610d4f91908101906117cf565b90508091505090565b60405180807f494e4449564944554154455f524f4c45000000000000000000000000000000008152506010019050604051809103902081565b6000610d9b6107e8565b146040805190810160405280601881526020017f494e49545f414c52454144595f494e495449414c495a45440000000000000000815250901515610e15576040517f08c379a0000000000000000000000000000000000000000000000000000000008152600401610e0c9190611c9f565b60405180910390fd5b50610e1e6113d8565b806000806101000a81548173ffffffffffffffffffffffffffffffffffffffff021916908373ffffffffffffffffffffffffffffffffffffffff16021790555050565b610e696114b2565b600060405180807f494e4449564944554154455f524f4c450000000000000000000000000000000081525060100190506040518091039020610edc33826000604051908082528060200260200182016040528015610ed65781602001602082028038833980820191505090505b50610b29565b6040805190810160405280600f81526020017f4150505f415554485f4641494c45440000000000000000000000000000000000815250901515610f55576040517f08c379a0000000000000000000000000000000000000000000000000000000008152600401610f4c9190611c9f565b60405180910390fd5b506040805190810160405280438152602001856000015181525092506000809054906101000a900473ffffffffffffffffffffffffffffffffffffffff1673ffffffffffffffffffffffffffffffffffffffff166357c337ee846040518263ffffffff167c0100000000000000000000000000000000000000000000000000000000028152600401610fe79190611cc1565b602060405180830381600087803b15801561100157600080fd5b505af1158015611015573d6000803e3d6000fd5b505050506040513d601f19601f8201168201806040525061103991908101906118b1565b9150826000015160026000846000191660001916815260200190815260200160002060000181905550826020015160026000846000191660001916815260200190815260200160002060010190805190602001906110989291906114cc565b5081600181600019169055507f60abf4225368bd17f1998b81eb52b7eeecfbb02ff266802d2fdd3324ce5eb6ef826040516110d39190611bb2565b60405180910390a150505050565b60006111137f4172f0f7d2289153072b0a6ca36959e0cbe2efc3afe50fc81636caa96338137b600102600019166114a0565b905090565b6111206114b2565b611128610492565b6040805190810160405280601481526020017f494e49545f4e4f545f494e495449414c495a45440000000000000000000000008152509015156111a1576040517f08c379a00000000000000000000000000000000000000000000000000000000081526004016111989190611c9f565b60405180910390fd5b50600260006001546000191660001916815260200190815260200160002060408051908101604052908160008201548152602001600182018054600181600116156101000203166002900480601f01602080910402602001604051908101604052809291908181526020018280546001816001161561010002031660029004801561126d5780601f106112425761010080835404028352916020019161126d565b820191906000526020600020905b81548152906001019060200180831161125057829003601f168201915b505050505081525050905090565b60007fffffffffffffffffffffffffffffffffffffffffffffffffffffffffffffffff6112a66107e8565b14905090565b6002602052806000526040600020600091509050806000015490806001018054600181600116156101000203166002900480601f01602080910402602001604051908101604052809291908181526020018280546001816001161561010002031660029004801561135e5780601f106113335761010080835404028352916020019161135e565b820191906000526020600020905b81548152906001019060200180831161134157829003601f168201915b5050505050905082565b600043905090565b600081549050919050565b600081549050919050565b600080600073ffffffffffffffffffffffffffffffffffffffff168373ffffffffffffffffffffffffffffffffffffffff1614156113c757600091506113d2565b823b90506000811191505b50919050565b60006113e26107e8565b146040805190810160405280601881526020017f494e49545f414c52454144595f494e495449414c495a4544000000000000000081525090151561145c576040517f08c379a00000000000000000000000000000000000000000000000000000000081526004016114539190611c9f565b60405180910390fd5b5061149e611468611368565b7febb05b386a8d34882b8711d156f463690983dc47815980fb82aeeff1aa43579e600102600019166114ab90919063ffffffff16565b565b600081549050919050565b8082555050565b604080519081016040528060008152602001606081525090565b828054600181600116156101000203166002900490600052602060002090601f016020900481019282601f1061150d57805160ff191683800117855561153b565b8280016001018555821561153b579182015b8281111561153a57825182559160200191906001019061151f565b5b509050611548919061154c565b5090565b61156e91905b8082111561156a576000816000905550600101611552565b5090565b90565b600061157d8235611e31565b905092915050565b60006115918251611e31565b905092915050565b600082601f83011215156115ac57600080fd5b81356115bf6115ba82611d5b565b611d2e565b915081818352602084019350602081019050838560208402820111156115e457600080fd5b60005b8381101561161457816115fa888261177e565b8452602084019350602083019250506001810190506115e7565b5050505092915050565b600061162a8251611e51565b905092915050565b600061163e8235611e5d565b905092915050565b60006116528251611e5d565b905092915050565b600082601f830112151561166d57600080fd5b813561168061167b82611d83565b611d2e565b9150808252602083016020830185838301111561169c57600080fd5b6116a7838284611eef565b50505092915050565b60006116bc8251611e67565b905092915050565b60006116d08235611e79565b905092915050565b600082601f83011215156116eb57600080fd5b81356116fe6116f982611daf565b611d2e565b9150808252602083016020830185838301111561171a57600080fd5b611725838284611eef565b50505092915050565b60006020828403121561174057600080fd5b61174a6020611d2e565b9050600082013567ffffffffffffffff81111561176657600080fd5b611772848285016116d8565b60008301525092915050565b600061178a8235611e8b565b905092915050565b600061179e8251611e8b565b905092915050565b6000602082840312156117b857600080fd5b60006117c684828501611571565b91505092915050565b6000602082840312156117e157600080fd5b60006117ef84828501611585565b91505092915050565b60008060006060848603121561180d57600080fd5b600061181b86828701611571565b935050602061182c86828701611632565b925050604084013567ffffffffffffffff81111561184957600080fd5b61185586828701611599565b9150509250925092565b60006020828403121561187157600080fd5b600061187f8482850161161e565b91505092915050565b60006020828403121561189a57600080fd5b60006118a884828501611632565b91505092915050565b6000602082840312156118c357600080fd5b60006118d184828501611646565b91505092915050565b6000602082840312156118ec57600080fd5b600082013567ffffffffffffffff81111561190657600080fd5b6119128482850161165a565b91505092915050565b60006020828403121561192d57600080fd5b600061193b848285016116b0565b91505092915050565b60006020828403121561195657600080fd5b6000611964848285016116c4565b91505092915050565b60006020828403121561197f57600080fd5b600082013567ffffffffffffffff81111561199957600080fd5b6119a58482850161172e565b91505092915050565b6000602082840312156119c057600080fd5b60006119ce84828501611792565b91505092915050565b6119e081611df1565b82525050565b6119ef81611e11565b82525050565b6119fe81611e1d565b82525050565b6000611a0f82611ddb565b808452611a23816020860160208601611efe565b611a2c81611f31565b602085010191505092915050565b611a4381611e95565b82525050565b611a5281611ea7565b82525050565b611a6181611eb9565b82525050565b611a7081611ecb565b82525050565b611a7f81611edd565b82525050565b6000611a9082611de6565b808452611aa4816020860160208601611efe565b611aad81611f31565b602085010191505092915050565b6000604083016000830151611ad36000860182611af8565b5060208301518482036020860152611aeb8282611a85565b9150508091505092915050565b611b0181611e27565b82525050565b6000602082019050611b1c60008301846119d7565b92915050565b6000608082019050611b3760008301876119d7565b611b4460208301866119d7565b611b5160408301856119f5565b8181036060830152611b638184611a04565b905095945050505050565b6000604082019050611b8360008301856119d7565b611b906020830184611af8565b9392505050565b6000602082019050611bac60008301846119e6565b92915050565b6000602082019050611bc760008301846119f5565b92915050565b6000604082019050611be260008301856119f5565b611bef60208301846119f5565b9392505050565b60006020820190508181036000830152611c108184611a04565b905092915050565b6000602082019050611c2d6000830184611a3a565b92915050565b6000602082019050611c486000830184611a49565b92915050565b6000602082019050611c636000830184611a58565b92915050565b6000602082019050611c7e6000830184611a67565b92915050565b6000602082019050611c996000830184611a76565b92915050565b60006020820190508181036000830152611cb98184611a85565b905092915050565b60006020820190508181036000830152611cdb8184611abb565b905092915050565b6000602082019050611cf86000830184611af8565b92915050565b6000604082019050611d136000830185611af8565b8181036020830152611d258184611a85565b90509392505050565b6000604051905081810181811067ffffffffffffffff82111715611d5157600080fd5b8060405250919050565b600067ffffffffffffffff821115611d7257600080fd5b602082029050602081019050919050565b600067ffffffffffffffff821115611d9a57600080fd5b601f19601f8301169050602081019050919050565b600067ffffffffffffffff821115611dc657600080fd5b601f19601f8301169050602081019050919050565b600081519050919050565b600081519050919050565b600073ffffffffffffffffffffffffffffffffffffffff82169050919050565b60008115159050919050565b6000819050919050565b6000819050919050565b600073ffffffffffffffffffffffffffffffffffffffff82169050919050565b60008115159050919050565b6000819050919050565b6000611e7282611df1565b9050919050565b6000611e8482611df1565b9050919050565b6000819050919050565b6000611ea082611df1565b9050919050565b6000611eb282611df1565b9050919050565b6000611ec482611df1565b9050919050565b6000611ed682611df1565b9050919050565b6000611ee882611df1565b9050919050565b82818337600083830152505050565b60005b83811015611f1c578082015181840152602081019050611f01565b83811115611f2b576000848401525b50505050565b6000601f19601f83011690509190505600a265627a7a72305820fef9adc122c9ba5ef491e773aeefc2fec57f5b4a86d8b54601ae7d3b52c65dd26c6578706572696d656e74616cf50037",
  "source": "pragma solidity ^0.4.24;\npragma experimental ABIEncoderV2;\n\nimport \"@aragon/os/contracts/apps/AragonApp.sol\";\nimport \"@pando/core/contracts/lib/Pando.sol\";\nimport \"@pando/core/contracts/organism/IGenesis.sol\";\n\n\ncontract Genesis is IGenesis, AragonApp {\n    bytes32 constant public INDIVIDUATE_ROLE = keccak256(\"INDIVIDUATE_ROLE\");\n\n    Pando public pando;\n    bytes32 public head;\n    mapping(bytes32 => Pando.Individuation) public individuations;\n\n    event Individuate(bytes32 hash);\n\n\n    function initialize(Pando _pando) external onlyInit {\n        initialized();\n        pando = _pando;\n    }\n\n    function individuate(Pando.IIndividuation _individuation) public auth(INDIVIDUATE_ROLE) {\n        Pando.Individuation memory individuation = Pando.Individuation(\n            block.number,\n            _individuation.metadata\n        );\n\n        bytes32 hash = pando.hash(individuation);\n\n        individuations[hash].blockstamp = individuation.blockstamp;\n        individuations[hash].metadata = individuation.metadata;\n\n        head = hash;\n\n        emit Individuate(hash);\n    }\n\n    function getIndividuation(bytes32 _hash) public view isInitialized returns (Pando.Individuation) {\n        return individuations[_hash];\n    }\n\n    function getHead() public view isInitialized returns (Pando.Individuation) {\n        return individuations[head];\n    }\n\n}\n",
  "sourcePath": "/Users/osarrouy/Documents/devs/@pando/packages/organism/contracts/Genesis.sol",
  "compiler": {
    "name": "solc",
    "version": "0.4.24+commit.e67f0147.Emscripten.clang"
  },
  "schemaVersion": "3.0.0-beta.2",
  "updatedAt": "2019-01-15T16:03:12.371Z",
  "devdoc": {
    "methods": {
      "allowRecoverability(address)": {
        "details": "By default deriving from AragonApp makes it recoverable",
        "params": {
          "token": "Token address that would be recovered"
        },
        "return": "bool whether the app allows the recovery"
      },
      "canPerform(address,bytes32,uint256[])": {
        "details": "Check whether an action can be performed by a sender for a particular role on this app",
        "params": {
          "_params": "Permission params for the role",
          "_role": "Role on this app",
          "_sender": "Sender of the call"
        },
        "return": "Boolean indicating whether the sender has the permissions to perform the action.        Always returns false if the app hasn't been initialized yet."
      },
      "getInitializationBlock()": {
        "return": "Block number in which the contract was initialized"
      },
      "getRecoveryVault()": {
        "details": "Get the recovery vault for the app",
        "return": "Recovery vault address for the app"
      },
      "hasInitialized()": {
        "return": "Whether the contract has been initialized by the time of the current block"
      },
      "transferToVault(address)": {
        "params": {
          "_token": "Token balance to be sent to recovery vault."
        }
      }
    }
  },
  "userdoc": {
    "methods": {
      "transferToVault(address)": {
        "notice": "Send funds to recovery Vault. This contract should never receive funds,        but in case it does, this function allows one to recover them."
      }
    }
  }
}