{
  "contractName": "Genesis",
  "abi": [
    {
      "constant": true,
      "inputs": [],
      "name": "hasInitialized",
      "outputs": [
        {
          "name": "",
          "type": "bool"
        }
      ],
      "payable": false,
      "stateMutability": "view",
      "type": "function"
    },
    {
      "constant": true,
      "inputs": [
        {
          "name": "_script",
          "type": "bytes"
        }
      ],
      "name": "getEVMScriptExecutor",
      "outputs": [
        {
          "name": "",
          "type": "address"
        }
      ],
      "payable": false,
      "stateMutability": "view",
      "type": "function"
    },
    {
      "constant": true,
      "inputs": [],
      "name": "getRecoveryVault",
      "outputs": [
        {
          "name": "",
          "type": "address"
        }
      ],
      "payable": false,
      "stateMutability": "view",
      "type": "function"
    },
    {
      "constant": true,
      "inputs": [],
      "name": "organism",
      "outputs": [
        {
          "name": "",
          "type": "address"
        }
      ],
      "payable": false,
      "stateMutability": "view",
      "type": "function"
    },
    {
      "constant": true,
      "inputs": [
        {
          "name": "token",
          "type": "address"
        }
      ],
      "name": "allowRecoverability",
      "outputs": [
        {
          "name": "",
          "type": "bool"
        }
      ],
      "payable": false,
      "stateMutability": "view",
      "type": "function"
    },
    {
      "constant": true,
      "inputs": [],
      "name": "appId",
      "outputs": [
        {
          "name": "",
          "type": "bytes32"
        }
      ],
      "payable": false,
      "stateMutability": "view",
      "type": "function"
    },
    {
      "constant": true,
      "inputs": [],
      "name": "getInitializationBlock",
      "outputs": [
        {
          "name": "",
          "type": "uint256"
        }
      ],
      "payable": false,
      "stateMutability": "view",
      "type": "function"
    },
    {
      "constant": true,
      "inputs": [],
      "name": "head",
      "outputs": [
        {
          "name": "",
          "type": "bytes32"
        }
      ],
      "payable": false,
      "stateMutability": "view",
      "type": "function"
    },
    {
      "constant": false,
      "inputs": [
        {
          "name": "_token",
          "type": "address"
        }
      ],
      "name": "transferToVault",
      "outputs": [],
      "payable": false,
      "stateMutability": "nonpayable",
      "type": "function"
    },
    {
      "constant": true,
      "inputs": [
        {
          "name": "_sender",
          "type": "address"
        },
        {
          "name": "_role",
          "type": "bytes32"
        },
        {
          "name": "_params",
          "type": "uint256[]"
        }
      ],
      "name": "canPerform",
      "outputs": [
        {
          "name": "",
          "type": "bool"
        }
      ],
      "payable": false,
      "stateMutability": "view",
      "type": "function"
    },
    {
      "constant": true,
      "inputs": [],
      "name": "getEVMScriptRegistry",
      "outputs": [
        {
          "name": "",
          "type": "address"
        }
      ],
      "payable": false,
      "stateMutability": "view",
      "type": "function"
    },
    {
      "constant": true,
      "inputs": [],
      "name": "INDIVIDUATE_ROLE",
      "outputs": [
        {
          "name": "",
          "type": "bytes32"
        }
      ],
      "payable": false,
      "stateMutability": "view",
      "type": "function"
    },
    {
      "constant": true,
      "inputs": [],
      "name": "kernel",
      "outputs": [
        {
          "name": "",
          "type": "address"
        }
      ],
      "payable": false,
      "stateMutability": "view",
      "type": "function"
    },
    {
      "constant": true,
      "inputs": [],
      "name": "isPetrified",
      "outputs": [
        {
          "name": "",
          "type": "bool"
        }
      ],
      "payable": false,
      "stateMutability": "view",
      "type": "function"
    },
    {
      "constant": true,
      "inputs": [
        {
          "name": "",
          "type": "bytes32"
        }
      ],
      "name": "individuations",
      "outputs": [
        {
          "name": "blockstamp",
          "type": "uint256"
        },
        {
          "name": "metadata",
          "type": "string"
        }
      ],
      "payable": false,
      "stateMutability": "view",
      "type": "function"
    },
    {
      "anonymous": false,
      "inputs": [
        {
          "indexed": false,
          "name": "hash",
          "type": "bytes32"
        }
      ],
      "name": "Individuate",
      "type": "event"
    },
    {
      "anonymous": false,
      "inputs": [
        {
          "indexed": true,
          "name": "executor",
          "type": "address"
        },
        {
          "indexed": false,
          "name": "script",
          "type": "bytes"
        },
        {
          "indexed": false,
          "name": "input",
          "type": "bytes"
        },
        {
          "indexed": false,
          "name": "returnData",
          "type": "bytes"
        }
      ],
      "name": "ScriptResult",
      "type": "event"
    },
    {
      "constant": false,
      "inputs": [
        {
          "name": "_organism",
          "type": "address"
        }
      ],
      "name": "initialize",
      "outputs": [],
      "payable": false,
      "stateMutability": "nonpayable",
      "type": "function"
    },
    {
      "constant": false,
      "inputs": [
        {
          "components": [
            {
              "name": "metadata",
              "type": "string"
            }
          ],
          "name": "_individuation",
          "type": "tuple"
        }
      ],
      "name": "individuate",
      "outputs": [],
      "payable": false,
      "stateMutability": "nonpayable",
      "type": "function"
    },
    {
      "constant": true,
      "inputs": [
        {
          "name": "_hash",
          "type": "bytes32"
        }
      ],
      "name": "getIndividuation",
      "outputs": [
        {
          "components": [
            {
              "name": "blockstamp",
              "type": "uint256"
            },
            {
              "name": "metadata",
              "type": "string"
            }
          ],
          "name": "",
          "type": "tuple"
        }
      ],
      "payable": false,
      "stateMutability": "view",
      "type": "function"
    },
    {
      "constant": true,
      "inputs": [],
      "name": "getHead",
      "outputs": [
        {
          "components": [
            {
              "name": "blockstamp",
              "type": "uint256"
            },
            {
              "name": "metadata",
              "type": "string"
            }
          ],
          "name": "",
          "type": "tuple"
        }
      ],
      "payable": false,
      "stateMutability": "view",
      "type": "function"
    }
  ],
  "bytecode": "0x60806040526200001d62000023640100000000026401000000009004565b620002ef565b60006200003e620000f8640100000000026401000000009004565b146040805190810160405280601881526020017f494e49545f414c52454144595f494e495449414c495a45440000000000000000815250901515620000bb576040517f08c379a0000000000000000000000000000000000000000000000000000000008152600401620000b2919062000279565b60405180910390fd5b50620000f67fffffffffffffffffffffffffffffffffffffffffffffffffffffffffffffffff62000145640100000000026401000000009004565b565b6000620001407febb05b386a8d34882b8711d156f463690983dc47815980fb82aeeff1aa43579e600102600019166200022b6401000000000262001416176401000000009004565b905090565b600062000160620000f8640100000000026401000000009004565b146040805190810160405280601881526020017f494e49545f414c52454144595f494e495449414c495a45440000000000000000815250901515620001dd576040517f08c379a0000000000000000000000000000000000000000000000000000000008152600401620001d4919062000279565b60405180910390fd5b5062000228817febb05b386a8d34882b8711d156f463690983dc47815980fb82aeeff1aa43579e60010260001916620002366401000000000262001546179091906401000000009004565b50565b600081549050919050565b8082555050565b60006200024a826200029d565b80845262000260816020860160208601620002a8565b6200026b81620002de565b602085010191505092915050565b600060208201905081810360008301526200029581846200023d565b905092915050565b600081519050919050565b60005b83811015620002c8578082015181840152602081019050620002ab565b83811115620002d8576000848401525b50505050565b6000601f19601f8301169050919050565b61206680620002ff6000396000f300608060405260043610610107576000357c0100000000000000000000000000000000000000000000000000000000900463ffffffff1680630803fac01461010c578063115cb3ad146101375780632914b9bd1461017457806332f0a3b5146101b15780636f3b8105146101dc5780637e7db6e11461020757806380afdea8146102445780638b3dd7491461026f5780638f7dcfa31461029a5780639d4941d8146102c5578063a1658fad146102ee578063a479e5081461032b578063c34e0ed614610356578063c4d66de814610381578063c9ab7ed9146103aa578063d4aae0c4146103d3578063dc281aff146103fe578063de4796ed14610429578063f131fb9914610454575b600080fd5b34801561011857600080fd5b50610121610492565b60405161012e9190611c6f565b60405180910390f35b34801561014357600080fd5b5061015e60048036036101599190810190611937565b6104bd565b60405161016b9190611d99565b60405180910390f35b34801561018057600080fd5b5061019b60048036036101969190810190611989565b610620565b6040516101a89190611cf0565b60405180910390f35b3480156101bd57600080fd5b506101c66106d7565b6040516101d39190611bdf565b60405180910390f35b3480156101e857600080fd5b506101f1610781565b6040516101fe9190611d41565b60405180910390f35b34801561021357600080fd5b5061022e60048036036102299190810190611855565b6107a6565b60405161023b9190611c6f565b60405180910390f35b34801561025057600080fd5b506102596107b1565b6040516102669190611c8a565b60405180910390f35b34801561027b57600080fd5b506102846107e8565b6040516102919190611dbb565b60405180910390f35b3480156102a657600080fd5b506102af61081f565b6040516102bc9190611c8a565b60405180910390f35b3480156102d157600080fd5b506102ec60048036036102e79190810190611855565b610825565b005b3480156102fa57600080fd5b50610315600480360361031091908101906118a7565b610b29565b6040516103229190611c6f565b60405180910390f35b34801561033757600080fd5b50610340610c56565b60405161034d9190611d0b565b60405180910390f35b34801561036257600080fd5b5061036b610d58565b6040516103789190611c8a565b60405180910390f35b34801561038d57600080fd5b506103a860048036036103a391908101906119f3565b610d91565b005b3480156103b657600080fd5b506103d160048036036103cc9190810190611a45565b610e61565b005b3480156103df57600080fd5b506103e861117c565b6040516103f59190611d26565b60405180910390f35b34801561040a57600080fd5b506104136111b3565b6040516104209190611d99565b60405180910390f35b34801561043557600080fd5b5061043e611316565b60405161044b9190611c6f565b60405180910390f35b34801561046057600080fd5b5061047b60048036036104769190810190611937565b611347565b604051610489929190611dd6565b60405180910390f35b60008061049d6107e8565b9050600081141580156104b75750806104b4611403565b10155b91505090565b6104c561154d565b6104cd610492565b6040805190810160405280601481526020017f494e49545f4e4f545f494e495449414c495a4544000000000000000000000000815250901515610546576040517f08c379a000000000000000000000000000000000000000000000000000000000815260040161053d9190611d77565b60405180910390fd5b5060026000836000191660001916815260200190815260200160002060408051908101604052908160008201548152602001600182018054600181600116156101000203166002900480601f0160208091040260200160405190810160405280929190818152602001828054600181600116156101000203166002900480156106105780601f106105e557610100808354040283529160200191610610565b820191906000526020600020905b8154815290600101906020018083116105f357829003601f168201915b5050505050815250509050919050565b600061062a610c56565b73ffffffffffffffffffffffffffffffffffffffff166304bf2a7f836040518263ffffffff167c010000000000000000000000000000000000000000000000000000000002815260040161067e9190611cce565b602060405180830381600087803b15801561069857600080fd5b505af11580156106ac573d6000803e3d6000fd5b505050506040513d601f19601f820116820180604052506106d091908101906119ca565b9050919050565b60006106e161117c565b73ffffffffffffffffffffffffffffffffffffffff166332f0a3b56040518163ffffffff167c0100000000000000000000000000000000000000000000000000000000028152600401602060405180830381600087803b15801561074457600080fd5b505af1158015610758573d6000803e3d6000fd5b505050506040513d601f19601f8201168201806040525061077c919081019061187e565b905090565b6000809054906101000a900473ffffffffffffffffffffffffffffffffffffffff1681565b600060019050919050565b60006107e37fd625496217aa6a3453eecb9c3489dc5a53e6c67b444329ea2b2cbc9ff547639b6001026000191661140b565b905090565b600061081a7febb05b386a8d34882b8711d156f463690983dc47815980fb82aeeff1aa43579e60010260001916611416565b905090565b60015481565b600080610831836107a6565b6040805190810160405280601281526020017f5245434f5645525f444953414c4c4f57454400000000000000000000000000008152509015156108aa576040517f08c379a00000000000000000000000000000000000000000000000000000000081526004016108a19190611d77565b60405180910390fd5b506108b36106d7565b91506108be82611421565b6040805190810160405280601a81526020017f5245434f5645525f5641554c545f4e4f545f434f4e5452414354000000000000815250901515610937576040517f08c379a000000000000000000000000000000000000000000000000000000000815260040161092e9190611d77565b60405180910390fd5b50600073ffffffffffffffffffffffffffffffffffffffff168373ffffffffffffffffffffffffffffffffffffffff1614156109d0578173ffffffffffffffffffffffffffffffffffffffff166108fc3073ffffffffffffffffffffffffffffffffffffffff16319081150290604051600060405180830381858888f193505050501580156109ca573d6000803e3d6000fd5b50610b24565b8273ffffffffffffffffffffffffffffffffffffffff166370a08231306040518263ffffffff167c0100000000000000000000000000000000000000000000000000000000028152600401610a259190611d5c565b602060405180830381600087803b158015610a3f57600080fd5b505af1158015610a53573d6000803e3d6000fd5b505050506040513d601f19601f82011682018060405250610a779190810190611a86565b90508273ffffffffffffffffffffffffffffffffffffffff1663a9059cbb83836040518363ffffffff167c0100000000000000000000000000000000000000000000000000000000028152600401610ad0929190611c46565b602060405180830381600087803b158015610aea57600080fd5b505af1158015610afe573d6000803e3d6000fd5b505050506040513d601f19601f82011682018060405250610b22919081019061190e565b505b505050565b60008060606000610b38610492565b1515610b475760009350610c4c565b610b4f61117c565b9250600073ffffffffffffffffffffffffffffffffffffffff168373ffffffffffffffffffffffffffffffffffffffff161415610b8f5760009350610c4c565b602085510290508491508082528273ffffffffffffffffffffffffffffffffffffffff1663fdef9106883089866040518563ffffffff167c0100000000000000000000000000000000000000000000000000000000028152600401610bf79493929190611bfa565b602060405180830381600087803b158015610c1157600080fd5b505af1158015610c25573d6000803e3d6000fd5b505050506040513d601f19601f82011682018060405250610c49919081019061190e565b93505b5050509392505050565b600080610c6161117c565b73ffffffffffffffffffffffffffffffffffffffff1663be00bbd87fd6f028ca0e8edb4a8c9757ca4fdccab25fa1e0317da1188108f7d2dee14902fb6001027fddbcfd564f642ab5627cf68b9b7d374fb4f8a36e941a75d89c87998cef03bd616001026040518363ffffffff167c0100000000000000000000000000000000000000000000000000000000028152600401610cfd929190611ca5565b602060405180830381600087803b158015610d1757600080fd5b505af1158015610d2b573d6000803e3d6000fd5b505050506040513d601f19601f82011682018060405250610d4f919081019061187e565b90508091505090565b60405180807f494e4449564944554154455f524f4c45000000000000000000000000000000008152506010019050604051809103902081565b6000610d9b6107e8565b146040805190810160405280601881526020017f494e49545f414c52454144595f494e495449414c495a45440000000000000000815250901515610e15576040517f08c379a0000000000000000000000000000000000000000000000000000000008152600401610e0c9190611d77565b60405180910390fd5b50610e1e611473565b806000806101000a81548173ffffffffffffffffffffffffffffffffffffffff021916908373ffffffffffffffffffffffffffffffffffffffff16021790555050565b610e6961154d565b600060405180807f494e4449564944554154455f524f4c450000000000000000000000000000000081525060100190506040518091039020610edc33826000604051908082528060200260200182016040528015610ed65781602001602082028038833980820191505090505b50610b29565b6040805190810160405280600f81526020017f4150505f415554485f4641494c45440000000000000000000000000000000000815250901515610f55576040517f08c379a0000000000000000000000000000000000000000000000000000000008152600401610f4c9190611d77565b60405180910390fd5b506040805190810160405280438152602001856000015181525092506000809054906101000a900473ffffffffffffffffffffffffffffffffffffffff1673ffffffffffffffffffffffffffffffffffffffff16634844c28d6040518163ffffffff167c0100000000000000000000000000000000000000000000000000000000028152600401602060405180830381600087803b158015610ff657600080fd5b505af115801561100a573d6000803e3d6000fd5b505050506040513d601f19601f8201168201806040525061102e9190810190611a1c565b73ffffffffffffffffffffffffffffffffffffffff166357c337ee846040518263ffffffff167c01000000000000000000000000000000000000000000000000000000000281526004016110829190611d99565b602060405180830381600087803b15801561109c57600080fd5b505af11580156110b0573d6000803e3d6000fd5b505050506040513d601f19601f820116820180604052506110d49190810190611960565b915082600001516002600084600019166000191681526020019081526020016000206000018190555082602001516002600084600019166000191681526020019081526020016000206001019080519060200190611133929190611567565b5081600181600019169055507f60abf4225368bd17f1998b81eb52b7eeecfbb02ff266802d2fdd3324ce5eb6ef8260405161116e9190611c8a565b60405180910390a150505050565b60006111ae7f4172f0f7d2289153072b0a6ca36959e0cbe2efc3afe50fc81636caa96338137b6001026000191661153b565b905090565b6111bb61154d565b6111c3610492565b6040805190810160405280601481526020017f494e49545f4e4f545f494e495449414c495a454400000000000000000000000081525090151561123c576040517f08c379a00000000000000000000000000000000000000000000000000000000081526004016112339190611d77565b60405180910390fd5b50600260006001546000191660001916815260200190815260200160002060408051908101604052908160008201548152602001600182018054600181600116156101000203166002900480601f0160208091040260200160405190810160405280929190818152602001828054600181600116156101000203166002900480156113085780601f106112dd57610100808354040283529160200191611308565b820191906000526020600020905b8154815290600101906020018083116112eb57829003601f168201915b505050505081525050905090565b60007fffffffffffffffffffffffffffffffffffffffffffffffffffffffffffffffff6113416107e8565b14905090565b6002602052806000526040600020600091509050806000015490806001018054600181600116156101000203166002900480601f0160208091040260200160405190810160405280929190818152602001828054600181600116156101000203166002900480156113f95780601f106113ce576101008083540402835291602001916113f9565b820191906000526020600020905b8154815290600101906020018083116113dc57829003601f168201915b5050505050905082565b600043905090565b600081549050919050565b600081549050919050565b600080600073ffffffffffffffffffffffffffffffffffffffff168373ffffffffffffffffffffffffffffffffffffffff161415611462576000915061146d565b823b90506000811191505b50919050565b600061147d6107e8565b146040805190810160405280601881526020017f494e49545f414c52454144595f494e495449414c495a454400000000000000008152509015156114f7576040517f08c379a00000000000000000000000000000000000000000000000000000000081526004016114ee9190611d77565b60405180910390fd5b50611539611503611403565b7febb05b386a8d34882b8711d156f463690983dc47815980fb82aeeff1aa43579e6001026000191661154690919063ffffffff16565b565b600081549050919050565b8082555050565b604080519081016040528060008152602001606081525090565b828054600181600116156101000203166002900490600052602060002090601f016020900481019282601f106115a857805160ff19168380011785556115d6565b828001600101855582156115d6579182015b828111156115d55782518255916020019190600101906115ba565b5b5090506115e391906115e7565b5090565b61160991905b808211156116055760008160009055506001016115ed565b5090565b90565b60006116188235611f09565b905092915050565b600061162c8251611f09565b905092915050565b600082601f830112151561164757600080fd5b813561165a61165582611e33565b611e06565b9150818183526020840193506020810190508385602084028201111561167f57600080fd5b60005b838110156116af5781611695888261182d565b845260208401935060208301925050600181019050611682565b5050505092915050565b60006116c58251611f29565b905092915050565b60006116d98235611f35565b905092915050565b60006116ed8251611f35565b905092915050565b600082601f830112151561170857600080fd5b813561171b61171682611e5b565b611e06565b9150808252602083016020830185838301111561173757600080fd5b611742838284611fd9565b50505092915050565b60006117578251611f3f565b905092915050565b600061176b8235611f51565b905092915050565b600061177f8251611f63565b905092915050565b600082601f830112151561179a57600080fd5b81356117ad6117a882611e87565b611e06565b915080825260208301602083018583830111156117c957600080fd5b6117d4838284611fd9565b50505092915050565b6000602082840312156117ef57600080fd5b6117f96020611e06565b9050600082013567ffffffffffffffff81111561181557600080fd5b61182184828501611787565b60008301525092915050565b60006118398235611f75565b905092915050565b600061184d8251611f75565b905092915050565b60006020828403121561186757600080fd5b60006118758482850161160c565b91505092915050565b60006020828403121561189057600080fd5b600061189e84828501611620565b91505092915050565b6000806000606084860312156118bc57600080fd5b60006118ca8682870161160c565b93505060206118db868287016116cd565b925050604084013567ffffffffffffffff8111156118f857600080fd5b61190486828701611634565b9150509250925092565b60006020828403121561192057600080fd5b600061192e848285016116b9565b91505092915050565b60006020828403121561194957600080fd5b6000611957848285016116cd565b91505092915050565b60006020828403121561197257600080fd5b6000611980848285016116e1565b91505092915050565b60006020828403121561199b57600080fd5b600082013567ffffffffffffffff8111156119b557600080fd5b6119c1848285016116f5565b91505092915050565b6000602082840312156119dc57600080fd5b60006119ea8482850161174b565b91505092915050565b600060208284031215611a0557600080fd5b6000611a138482850161175f565b91505092915050565b600060208284031215611a2e57600080fd5b6000611a3c84828501611773565b91505092915050565b600060208284031215611a5757600080fd5b600082013567ffffffffffffffff811115611a7157600080fd5b611a7d848285016117dd565b91505092915050565b600060208284031215611a9857600080fd5b6000611aa684828501611841565b91505092915050565b611ab881611ec9565b82525050565b611ac781611ee9565b82525050565b611ad681611ef5565b82525050565b6000611ae782611eb3565b808452611afb816020860160208601611fe8565b611b048161201b565b602085010191505092915050565b611b1b81611f7f565b82525050565b611b2a81611f91565b82525050565b611b3981611fa3565b82525050565b611b4881611fb5565b82525050565b611b5781611fc7565b82525050565b6000611b6882611ebe565b808452611b7c816020860160208601611fe8565b611b858161201b565b602085010191505092915050565b6000604083016000830151611bab6000860182611bd0565b5060208301518482036020860152611bc38282611b5d565b9150508091505092915050565b611bd981611eff565b82525050565b6000602082019050611bf46000830184611aaf565b92915050565b6000608082019050611c0f6000830187611aaf565b611c1c6020830186611aaf565b611c296040830185611acd565b8181036060830152611c3b8184611adc565b905095945050505050565b6000604082019050611c5b6000830185611aaf565b611c686020830184611bd0565b9392505050565b6000602082019050611c846000830184611abe565b92915050565b6000602082019050611c9f6000830184611acd565b92915050565b6000604082019050611cba6000830185611acd565b611cc76020830184611acd565b9392505050565b60006020820190508181036000830152611ce88184611adc565b905092915050565b6000602082019050611d056000830184611b12565b92915050565b6000602082019050611d206000830184611b21565b92915050565b6000602082019050611d3b6000830184611b30565b92915050565b6000602082019050611d566000830184611b3f565b92915050565b6000602082019050611d716000830184611b4e565b92915050565b60006020820190508181036000830152611d918184611b5d565b905092915050565b60006020820190508181036000830152611db38184611b93565b905092915050565b6000602082019050611dd06000830184611bd0565b92915050565b6000604082019050611deb6000830185611bd0565b8181036020830152611dfd8184611b5d565b90509392505050565b6000604051905081810181811067ffffffffffffffff82111715611e2957600080fd5b8060405250919050565b600067ffffffffffffffff821115611e4a57600080fd5b602082029050602081019050919050565b600067ffffffffffffffff821115611e7257600080fd5b601f19601f8301169050602081019050919050565b600067ffffffffffffffff821115611e9e57600080fd5b601f19601f8301169050602081019050919050565b600081519050919050565b600081519050919050565b600073ffffffffffffffffffffffffffffffffffffffff82169050919050565b60008115159050919050565b6000819050919050565b6000819050919050565b600073ffffffffffffffffffffffffffffffffffffffff82169050919050565b60008115159050919050565b6000819050919050565b6000611f4a82611ec9565b9050919050565b6000611f5c82611ec9565b9050919050565b6000611f6e82611ec9565b9050919050565b6000819050919050565b6000611f8a82611ec9565b9050919050565b6000611f9c82611ec9565b9050919050565b6000611fae82611ec9565b9050919050565b6000611fc082611ec9565b9050919050565b6000611fd282611ec9565b9050919050565b82818337600083830152505050565b60005b83811015612006578082015181840152602081019050611feb565b83811115612015576000848401525b50505050565b6000601f19601f83011690509190505600a265627a7a72305820a3e574a535523575ac9ad6b9dfb585cf459dc1f864386852277cf551cfb9e9386c6578706572696d656e74616cf50037",
  "source": "pragma solidity ^0.4.24;\npragma experimental ABIEncoderV2;\n\nimport \"@aragon/os/contracts/apps/AragonApp.sol\";\n\nimport \"./Organism.sol\";\nimport \"../lib/Pando.sol\";\n\n\ncontract Genesis is AragonApp {\n\n    bytes32 constant public INDIVIDUATE_ROLE = keccak256(\"INDIVIDUATE_ROLE\");\n\n    Organism public organism;\n    bytes32 public head;\n    mapping(bytes32 => Pando.Individuation) public individuations;\n\n    event Individuate(bytes32 hash);\n\n\n    function initialize(Organism _organism) external onlyInit {\n        initialized();\n        organism = _organism;\n    }\n\n    function individuate(Pando.IIndividuation _individuation) public auth(INDIVIDUATE_ROLE) {\n        Pando.Individuation memory individuation = Pando.Individuation(\n            block.number,\n            _individuation.metadata\n        );\n\n        bytes32 hash = Pando(organism.pando()).hash(individuation);\n\n        individuations[hash].blockstamp = individuation.blockstamp;\n        individuations[hash].metadata = individuation.metadata;\n\n        head = hash;\n\n        emit Individuate(hash);\n    }\n\n    function getIndividuation(bytes32 _hash) public view isInitialized returns (Pando.Individuation) {\n        return individuations[_hash];\n    }\n\n    function getHead() public view isInitialized returns (Pando.Individuation) {\n        return individuations[head];\n    }\n\n}\n",
  "sourcePath": "/Users/osarrouy/Documents/dapp/@pando/packages/organism/contracts/core/Genesis.sol",
  "compiler": {
    "name": "solc",
    "version": "0.4.24+commit.e67f0147.Emscripten.clang"
  },
  "schemaVersion": "3.0.0-beta.2",
  "updatedAt": "2018-12-03T15:20:35.441Z",
  "devdoc": {
    "methods": {
      "allowRecoverability(address)": {
        "details": "By default deriving from AragonApp makes it recoverable",
        "params": {
          "token": "Token address that would be recovered"
        },
        "return": "bool whether the app allows the recovery"
      },
      "canPerform(address,bytes32,uint256[])": {
        "details": "Check whether an action can be performed by a sender for a particular role on this app",
        "params": {
          "_params": "Permission params for the role",
          "_role": "Role on this app",
          "_sender": "Sender of the call"
        },
        "return": "Boolean indicating whether the sender has the permissions to perform the action.        Always returns false if the app hasn't been initialized yet."
      },
      "getInitializationBlock()": {
        "return": "Block number in which the contract was initialized"
      },
      "getRecoveryVault()": {
        "details": "Get the recovery vault for the app",
        "return": "Recovery vault address for the app"
      },
      "hasInitialized()": {
        "return": "Whether the contract has been initialized by the time of the current block"
      },
      "transferToVault(address)": {
        "params": {
          "_token": "Token balance to be sent to recovery vault."
        }
      }
    }
  },
  "userdoc": {
    "methods": {
      "transferToVault(address)": {
        "notice": "Send funds to recovery Vault. This contract should never receive funds,        but in case it does, this function allows one to recover them."
      }
    }
  }
}