{
  "contractName": "Lineage",
  "abi": [
    {
      "constant": true,
      "inputs": [],
      "name": "hasInitialized",
      "outputs": [
        {
          "name": "",
          "type": "bool"
        }
      ],
      "payable": false,
      "stateMutability": "view",
      "type": "function"
    },
    {
      "constant": true,
      "inputs": [
        {
          "name": "_script",
          "type": "bytes"
        }
      ],
      "name": "getEVMScriptExecutor",
      "outputs": [
        {
          "name": "",
          "type": "address"
        }
      ],
      "payable": false,
      "stateMutability": "view",
      "type": "function"
    },
    {
      "constant": true,
      "inputs": [],
      "name": "getRecoveryVault",
      "outputs": [
        {
          "name": "",
          "type": "address"
        }
      ],
      "payable": false,
      "stateMutability": "view",
      "type": "function"
    },
    {
      "constant": true,
      "inputs": [
        {
          "name": "token",
          "type": "address"
        }
      ],
      "name": "allowRecoverability",
      "outputs": [
        {
          "name": "",
          "type": "bool"
        }
      ],
      "payable": false,
      "stateMutability": "view",
      "type": "function"
    },
    {
      "constant": true,
      "inputs": [],
      "name": "appId",
      "outputs": [
        {
          "name": "",
          "type": "bytes32"
        }
      ],
      "payable": false,
      "stateMutability": "view",
      "type": "function"
    },
    {
      "constant": true,
      "inputs": [],
      "name": "getInitializationBlock",
      "outputs": [
        {
          "name": "",
          "type": "uint256"
        }
      ],
      "payable": false,
      "stateMutability": "view",
      "type": "function"
    },
    {
      "constant": false,
      "inputs": [
        {
          "name": "_token",
          "type": "address"
        }
      ],
      "name": "transferToVault",
      "outputs": [],
      "payable": false,
      "stateMutability": "nonpayable",
      "type": "function"
    },
    {
      "constant": true,
      "inputs": [
        {
          "name": "_sender",
          "type": "address"
        },
        {
          "name": "_role",
          "type": "bytes32"
        },
        {
          "name": "_params",
          "type": "uint256[]"
        }
      ],
      "name": "canPerform",
      "outputs": [
        {
          "name": "",
          "type": "bool"
        }
      ],
      "payable": false,
      "stateMutability": "view",
      "type": "function"
    },
    {
      "constant": true,
      "inputs": [],
      "name": "getEVMScriptRegistry",
      "outputs": [
        {
          "name": "",
          "type": "address"
        }
      ],
      "payable": false,
      "stateMutability": "view",
      "type": "function"
    },
    {
      "constant": true,
      "inputs": [],
      "name": "kernel",
      "outputs": [
        {
          "name": "",
          "type": "address"
        }
      ],
      "payable": false,
      "stateMutability": "view",
      "type": "function"
    },
    {
      "constant": true,
      "inputs": [],
      "name": "isPetrified",
      "outputs": [
        {
          "name": "",
          "type": "bool"
        }
      ],
      "payable": false,
      "stateMutability": "view",
      "type": "function"
    },
    {
      "constant": true,
      "inputs": [],
      "name": "MINT_ROLE",
      "outputs": [
        {
          "name": "",
          "type": "bytes32"
        }
      ],
      "payable": false,
      "stateMutability": "view",
      "type": "function"
    },
    {
      "anonymous": false,
      "inputs": [
        {
          "indexed": true,
          "name": "executor",
          "type": "address"
        },
        {
          "indexed": false,
          "name": "script",
          "type": "bytes"
        },
        {
          "indexed": false,
          "name": "input",
          "type": "bytes"
        },
        {
          "indexed": false,
          "name": "returnData",
          "type": "bytes"
        }
      ],
      "name": "ScriptResult",
      "type": "event"
    },
    {
      "anonymous": false,
      "inputs": [
        {
          "indexed": true,
          "name": "from",
          "type": "address"
        },
        {
          "indexed": true,
          "name": "to",
          "type": "address"
        },
        {
          "indexed": false,
          "name": "value",
          "type": "uint256"
        }
      ],
      "name": "Transfer",
      "type": "event"
    },
    {
      "anonymous": false,
      "inputs": [
        {
          "indexed": true,
          "name": "owner",
          "type": "address"
        },
        {
          "indexed": true,
          "name": "spender",
          "type": "address"
        },
        {
          "indexed": false,
          "name": "value",
          "type": "uint256"
        }
      ],
      "name": "Approval",
      "type": "event"
    },
    {
      "constant": false,
      "inputs": [],
      "name": "initialize",
      "outputs": [],
      "payable": false,
      "stateMutability": "nonpayable",
      "type": "function"
    },
    {
      "constant": true,
      "inputs": [],
      "name": "totalSupply",
      "outputs": [
        {
          "name": "",
          "type": "uint256"
        }
      ],
      "payable": false,
      "stateMutability": "view",
      "type": "function"
    },
    {
      "constant": true,
      "inputs": [
        {
          "name": "owner",
          "type": "address"
        }
      ],
      "name": "balanceOf",
      "outputs": [
        {
          "name": "",
          "type": "uint256"
        }
      ],
      "payable": false,
      "stateMutability": "view",
      "type": "function"
    },
    {
      "constant": false,
      "inputs": [
        {
          "name": "to",
          "type": "address"
        },
        {
          "name": "value",
          "type": "uint256"
        }
      ],
      "name": "mint",
      "outputs": [
        {
          "name": "",
          "type": "bool"
        }
      ],
      "payable": false,
      "stateMutability": "nonpayable",
      "type": "function"
    },
    {
      "constant": true,
      "inputs": [
        {
          "name": "owner",
          "type": "address"
        },
        {
          "name": "spender",
          "type": "address"
        }
      ],
      "name": "allowance",
      "outputs": [
        {
          "name": "",
          "type": "uint256"
        }
      ],
      "payable": false,
      "stateMutability": "view",
      "type": "function"
    },
    {
      "constant": false,
      "inputs": [
        {
          "name": "to",
          "type": "address"
        },
        {
          "name": "value",
          "type": "uint256"
        }
      ],
      "name": "transfer",
      "outputs": [
        {
          "name": "",
          "type": "bool"
        }
      ],
      "payable": false,
      "stateMutability": "nonpayable",
      "type": "function"
    },
    {
      "constant": false,
      "inputs": [
        {
          "name": "spender",
          "type": "address"
        },
        {
          "name": "value",
          "type": "uint256"
        }
      ],
      "name": "approve",
      "outputs": [
        {
          "name": "",
          "type": "bool"
        }
      ],
      "payable": false,
      "stateMutability": "nonpayable",
      "type": "function"
    },
    {
      "constant": false,
      "inputs": [
        {
          "name": "from",
          "type": "address"
        },
        {
          "name": "to",
          "type": "address"
        },
        {
          "name": "value",
          "type": "uint256"
        }
      ],
      "name": "transferFrom",
      "outputs": [
        {
          "name": "",
          "type": "bool"
        }
      ],
      "payable": false,
      "stateMutability": "nonpayable",
      "type": "function"
    },
    {
      "constant": false,
      "inputs": [
        {
          "name": "spender",
          "type": "address"
        },
        {
          "name": "addedValue",
          "type": "uint256"
        }
      ],
      "name": "increaseAllowance",
      "outputs": [
        {
          "name": "",
          "type": "bool"
        }
      ],
      "payable": false,
      "stateMutability": "nonpayable",
      "type": "function"
    },
    {
      "constant": false,
      "inputs": [
        {
          "name": "spender",
          "type": "address"
        },
        {
          "name": "subtractedValue",
          "type": "uint256"
        }
      ],
      "name": "decreaseAllowance",
      "outputs": [
        {
          "name": "",
          "type": "bool"
        }
      ],
      "payable": false,
      "stateMutability": "nonpayable",
      "type": "function"
    }
  ],
  "bytecode": "0x60806040526200001d62000023640100000000026401000000009004565b62000309565b60006200003e6200015e640100000000026401000000009004565b146040805190810160405280601881526020017f494e49545f414c52454144595f494e495449414c495a4544000000000000000081525090151562000121576040517f08c379a00000000000000000000000000000000000000000000000000000000081526004018080602001828103825283818151815260200191508051906020019080838360005b83811015620000e5578082015181840152602081019050620000c8565b50505050905090810190601f168015620001135780820380516001836020036101000a031916815260200191505b509250505060405180910390fd5b506200015c7fffffffffffffffffffffffffffffffffffffffffffffffffffffffffffffffff620001ab640100000000026401000000009004565b565b6000620001a67febb05b386a8d34882b8711d156f463690983dc47815980fb82aeeff1aa43579e60010260001916620002f7640100000000026200188b176401000000009004565b905090565b6000620001c66200015e640100000000026401000000009004565b146040805190810160405280601881526020017f494e49545f414c52454144595f494e495449414c495a45440000000000000000815250901515620002a9576040517f08c379a00000000000000000000000000000000000000000000000000000000081526004018080602001828103825283818151815260200191508051906020019080838360005b838110156200026d57808201518184015260208101905062000250565b50505050905090810190601f1680156200029b5780820380516001836020036101000a031916815260200191505b509250505060405180910390fd5b50620002f4817febb05b386a8d34882b8711d156f463690983dc47815980fb82aeeff1aa43579e600102600019166200030264010000000002620019e8179091906401000000009004565b50565b600081549050919050565b8082555050565b611a1b80620003196000396000f300608060405260043610610128576000357c0100000000000000000000000000000000000000000000000000000000900463ffffffff1680630803fac01461012d578063095ea7b31461015c57806318160ddd146101c157806323b872dd146101ec5780632914b9bd1461027157806332f0a3b51461031a578063395093511461037157806340c10f19146103d657806370a082311461043b5780637e7db6e11461049257806380afdea8146104ed5780638129fc1c146105205780638b3dd749146105375780639d4941d814610562578063a1658fad146105a5578063a457c2d714610651578063a479e508146106b6578063a9059cbb1461070d578063d4aae0c414610772578063dd62ed3e146107c9578063de4796ed14610840578063e9a9c8501461086f575b600080fd5b34801561013957600080fd5b506101426108a2565b604051808215151515815260200191505060405180910390f35b34801561016857600080fd5b506101a7600480360381019080803573ffffffffffffffffffffffffffffffffffffffff169060200190929190803590602001909291905050506108cd565b604051808215151515815260200191505060405180910390f35b3480156101cd57600080fd5b506101d66108d8565b6040518082815260200191505060405180910390f35b3480156101f857600080fd5b50610257600480360381019080803573ffffffffffffffffffffffffffffffffffffffff169060200190929190803573ffffffffffffffffffffffffffffffffffffffff169060200190929190803590602001909291905050506108e2565b604051808215151515815260200191505060405180910390f35b34801561027d57600080fd5b506102d8600480360381019080803590602001908201803590602001908080601f01602080910402602001604051908101604052809392919081815260200183838082843782019150505050505091929192905050506108ee565b604051808273ffffffffffffffffffffffffffffffffffffffff1673ffffffffffffffffffffffffffffffffffffffff16815260200191505060405180910390f35b34801561032657600080fd5b5061032f610a0d565b604051808273ffffffffffffffffffffffffffffffffffffffff1673ffffffffffffffffffffffffffffffffffffffff16815260200191505060405180910390f35b34801561037d57600080fd5b506103bc600480360381019080803573ffffffffffffffffffffffffffffffffffffffff16906020019092919080359060200190929190505050610aba565b604051808215151515815260200191505060405180910390f35b3480156103e257600080fd5b50610421600480360381019080803573ffffffffffffffffffffffffffffffffffffffff16906020019092919080359060200190929190505050610ac5565b604051808215151515815260200191505060405180910390f35b34801561044757600080fd5b5061047c600480360381019080803573ffffffffffffffffffffffffffffffffffffffff169060200190929190505050610c2c565b6040518082815260200191505060405180910390f35b34801561049e57600080fd5b506104d3600480360381019080803573ffffffffffffffffffffffffffffffffffffffff169060200190929190505050610c74565b604051808215151515815260200191505060405180910390f35b3480156104f957600080fd5b50610502610c7f565b60405180826000191660001916815260200191505060405180910390f35b34801561052c57600080fd5b50610535610cb6565b005b34801561054357600080fd5b5061054c610daa565b6040518082815260200191505060405180910390f35b34801561056e57600080fd5b506105a3600480360381019080803573ffffffffffffffffffffffffffffffffffffffff169060200190929190505050610de1565b005b3480156105b157600080fd5b50610637600480360381019080803573ffffffffffffffffffffffffffffffffffffffff169060200190929190803560001916906020019092919080359060200190820180359060200190808060200260200160405190810160405280939291908181526020018383602002808284378201915050505050509192919290505050611213565b604051808215151515815260200191505060405180910390f35b34801561065d57600080fd5b5061069c600480360381019080803573ffffffffffffffffffffffffffffffffffffffff1690602001909291908035906020019092919050505061141a565b604051808215151515815260200191505060405180910390f35b3480156106c257600080fd5b506106cb611425565b604051808273ffffffffffffffffffffffffffffffffffffffff1673ffffffffffffffffffffffffffffffffffffffff16815260200191505060405180910390f35b34801561071957600080fd5b50610758600480360381019080803573ffffffffffffffffffffffffffffffffffffffff16906020019092919080359060200190929190505050611540565b604051808215151515815260200191505060405180910390f35b34801561077e57600080fd5b5061078761154b565b604051808273ffffffffffffffffffffffffffffffffffffffff1673ffffffffffffffffffffffffffffffffffffffff16815260200191505060405180910390f35b3480156107d557600080fd5b5061082a600480360381019080803573ffffffffffffffffffffffffffffffffffffffff169060200190929190803573ffffffffffffffffffffffffffffffffffffffff169060200190929190505050611582565b6040518082815260200191505060405180910390f35b34801561084c57600080fd5b5061085561158d565b604051808215151515815260200191505060405180910390f35b34801561087b57600080fd5b506108846115be565b60405180826000191660001916815260200191505060405180910390f35b6000806108ad610daa565b9050600081141580156108c75750806108c46115f7565b10155b91505090565b600080905092915050565b6000600154905090565b60008090509392505050565b60006108f8611425565b73ffffffffffffffffffffffffffffffffffffffff166304bf2a7f836040518263ffffffff167c01000000000000000000000000000000000000000000000000000000000281526004018080602001828103825283818151815260200191508051906020019080838360005b8381101561097f578082015181840152602081019050610964565b50505050905090810190601f1680156109ac5780820380516001836020036101000a031916815260200191505b5092505050602060405180830381600087803b1580156109cb57600080fd5b505af11580156109df573d6000803e3d6000fd5b505050506040513d60208110156109f557600080fd5b81019080805190602001909291905050509050919050565b6000610a1761154b565b73ffffffffffffffffffffffffffffffffffffffff166332f0a3b56040518163ffffffff167c0100000000000000000000000000000000000000000000000000000000028152600401602060405180830381600087803b158015610a7a57600080fd5b505af1158015610a8e573d6000803e3d6000fd5b505050506040513d6020811015610aa457600080fd5b8101908080519060200190929190505050905090565b600080905092915050565b600060405180807f4d494e545f524f4c45000000000000000000000000000000000000000000000081525060090190506040518091039020610b3833826000604051908082528060200260200182016040528015610b325781602001602082028038833980820191505090505b50611213565b6040805190810160405280600f81526020017f4150505f415554485f4641494c45440000000000000000000000000000000000815250901515610c16576040517f08c379a00000000000000000000000000000000000000000000000000000000081526004018080602001828103825283818151815260200191508051906020019080838360005b83811015610bdb578082015181840152602081019050610bc0565b50505050905090810190601f168015610c085780820380516001836020036101000a031916815260200191505b509250505060405180910390fd5b50610c2184846115ff565b600191505092915050565b60008060008373ffffffffffffffffffffffffffffffffffffffff1673ffffffffffffffffffffffffffffffffffffffff168152602001908152602001600020549050919050565b600060019050919050565b6000610cb17fd625496217aa6a3453eecb9c3489dc5a53e6c67b444329ea2b2cbc9ff547639b60010260001916611753565b905090565b6000610cc0610daa565b146040805190810160405280601881526020017f494e49545f414c52454144595f494e495449414c495a45440000000000000000815250901515610d9f576040517f08c379a00000000000000000000000000000000000000000000000000000000081526004018080602001828103825283818151815260200191508051906020019080838360005b83811015610d64578082015181840152602081019050610d49565b50505050905090810190601f168015610d915780820380516001836020036101000a031916815260200191505b509250505060405180910390fd5b50610da861175e565b565b6000610ddc7febb05b386a8d34882b8711d156f463690983dc47815980fb82aeeff1aa43579e6001026000191661188b565b905090565b600080610ded83610c74565b6040805190810160405280601281526020017f5245434f5645525f444953414c4c4f5745440000000000000000000000000000815250901515610ecb576040517f08c379a00000000000000000000000000000000000000000000000000000000081526004018080602001828103825283818151815260200191508051906020019080838360005b83811015610e90578082015181840152602081019050610e75565b50505050905090810190601f168015610ebd5780820380516001836020036101000a031916815260200191505b509250505060405180910390fd5b50610ed4610a0d565b9150610edf82611896565b6040805190810160405280601a81526020017f5245434f5645525f5641554c545f4e4f545f434f4e5452414354000000000000815250901515610fbd576040517f08c379a00000000000000000000000000000000000000000000000000000000081526004018080602001828103825283818151815260200191508051906020019080838360005b83811015610f82578082015181840152602081019050610f67565b50505050905090810190601f168015610faf5780820380516001836020036101000a031916815260200191505b509250505060405180910390fd5b50600073ffffffffffffffffffffffffffffffffffffffff168373ffffffffffffffffffffffffffffffffffffffff161415611056578173ffffffffffffffffffffffffffffffffffffffff166108fc3073ffffffffffffffffffffffffffffffffffffffff16319081150290604051600060405180830381858888f19350505050158015611050573d6000803e3d6000fd5b5061120e565b8273ffffffffffffffffffffffffffffffffffffffff166370a08231306040518263ffffffff167c0100000000000000000000000000000000000000000000000000000000028152600401808273ffffffffffffffffffffffffffffffffffffffff1673ffffffffffffffffffffffffffffffffffffffff168152602001915050602060405180830381600087803b1580156110f157600080fd5b505af1158015611105573d6000803e3d6000fd5b505050506040513d602081101561111b57600080fd5b810190808051906020019092919050505090508273ffffffffffffffffffffffffffffffffffffffff1663a9059cbb83836040518363ffffffff167c0100000000000000000000000000000000000000000000000000000000028152600401808373ffffffffffffffffffffffffffffffffffffffff1673ffffffffffffffffffffffffffffffffffffffff16815260200182815260200192505050602060405180830381600087803b1580156111d157600080fd5b505af11580156111e5573d6000803e3d6000fd5b505050506040513d60208110156111fb57600080fd5b8101908080519060200190929190505050505b505050565b600080606060006112226108a2565b15156112315760009350611410565b61123961154b565b9250600073ffffffffffffffffffffffffffffffffffffffff168373ffffffffffffffffffffffffffffffffffffffff1614156112795760009350611410565b602085510290508491508082528273ffffffffffffffffffffffffffffffffffffffff1663fdef9106883089866040518563ffffffff167c0100000000000000000000000000000000000000000000000000000000028152600401808573ffffffffffffffffffffffffffffffffffffffff1673ffffffffffffffffffffffffffffffffffffffff1681526020018473ffffffffffffffffffffffffffffffffffffffff1673ffffffffffffffffffffffffffffffffffffffff168152602001836000191660001916815260200180602001828103825283818151815260200191508051906020019080838360005b83811015611383578082015181840152602081019050611368565b50505050905090810190601f1680156113b05780820380516001836020036101000a031916815260200191505b5095505050505050602060405180830381600087803b1580156113d257600080fd5b505af11580156113e6573d6000803e3d6000fd5b505050506040513d60208110156113fc57600080fd5b810190808051906020019092919050505093505b5050509392505050565b600080905092915050565b60008061143061154b565b73ffffffffffffffffffffffffffffffffffffffff1663be00bbd87fd6f028ca0e8edb4a8c9757ca4fdccab25fa1e0317da1188108f7d2dee14902fb6001027fddbcfd564f642ab5627cf68b9b7d374fb4f8a36e941a75d89c87998cef03bd616001026040518363ffffffff167c0100000000000000000000000000000000000000000000000000000000028152600401808360001916600019168152602001826000191660001916815260200192505050602060405180830381600087803b1580156114fc57600080fd5b505af1158015611510573d6000803e3d6000fd5b505050506040513d602081101561152657600080fd5b810190808051906020019092919050505090508091505090565b600080905092915050565b600061157d7f4172f0f7d2289153072b0a6ca36959e0cbe2efc3afe50fc81636caa96338137b600102600019166118e8565b905090565b600080905092915050565b60007fffffffffffffffffffffffffffffffffffffffffffffffffffffffffffffffff6115b8610daa565b14905090565b60405180807f4d494e545f524f4c4500000000000000000000000000000000000000000000008152506009019050604051809103902081565b600043905090565b600073ffffffffffffffffffffffffffffffffffffffff168273ffffffffffffffffffffffffffffffffffffffff161415151561163b57600080fd5b611650816001546118f390919063ffffffff16565b6001819055506116a7816000808573ffffffffffffffffffffffffffffffffffffffff1673ffffffffffffffffffffffffffffffffffffffff168152602001908152602001600020546118f390919063ffffffff16565b6000808473ffffffffffffffffffffffffffffffffffffffff1673ffffffffffffffffffffffffffffffffffffffff168152602001908152602001600020819055508173ffffffffffffffffffffffffffffffffffffffff16600073ffffffffffffffffffffffffffffffffffffffff167fddf252ad1be2c89b69c2b068fc378daa952ba7f163c4a11628f55a4df523b3ef836040518082815260200191505060405180910390a35050565b600081549050919050565b6000611768610daa565b146040805190810160405280601881526020017f494e49545f414c52454144595f494e495449414c495a45440000000000000000815250901515611847576040517f08c379a00000000000000000000000000000000000000000000000000000000081526004018080602001828103825283818151815260200191508051906020019080838360005b8381101561180c5780820151818401526020810190506117f1565b50505050905090810190601f1680156118395780820380516001836020036101000a031916815260200191505b509250505060405180910390fd5b506118896118536115f7565b7febb05b386a8d34882b8711d156f463690983dc47815980fb82aeeff1aa43579e600102600019166119e890919063ffffffff16565b565b600081549050919050565b600080600073ffffffffffffffffffffffffffffffffffffffff168373ffffffffffffffffffffffffffffffffffffffff1614156118d757600091506118e2565b823b90506000811191505b50919050565b600081549050919050565b6000808284019050838110156040805190810160405280601181526020017f4d4154485f4144445f4f564552464c4f570000000000000000000000000000008152509015156119dd576040517f08c379a00000000000000000000000000000000000000000000000000000000081526004018080602001828103825283818151815260200191508051906020019080838360005b838110156119a2578082015181840152602081019050611987565b50505050905090810190601f1680156119cf5780820380516001836020036101000a031916815260200191505b509250505060405180910390fd5b508091505092915050565b80825550505600a165627a7a723058206c6a74d08ab93716224764ae1c52e1585f531efae61be6a1a130d64aa88d8a800029",
  "source": "pragma solidity ^0.4.24;\n\nimport \"@aragon/os/contracts/apps/AragonApp.sol\";\nimport \"@aragon/os/contracts/lib/math/SafeMath.sol\";\nimport \"@pando/core/contracts/organism/ILineage.sol\";\n\n\ncontract Lineage is ILineage, AragonApp {\n    using SafeMath for uint256;\n\n    bytes32 public constant MINT_ROLE = keccak256(\"MINT_ROLE\");\n\n    mapping (address => uint256) private _balances;\n\n    uint256 private _totalSupply;\n\n    function initialize() external onlyInit {\n        initialized();\n    }\n\n    function totalSupply() external view returns (uint256) {\n        return _totalSupply;\n    }\n\n    function balanceOf(address owner) external view returns (uint256) {\n        return _balances[owner];\n    }\n\n    function mint(address to, uint256 value) external auth(MINT_ROLE) returns (bool) {\n        _mint(to, value);\n        return true;\n    }\n\n    function allowance(address owner, address spender) external view returns (uint256) {\n        return 0;\n    }\n\n    function transfer(address to, uint256 value) external returns (bool) {\n        return false;\n    }\n\n    function approve(address spender, uint256 value) external returns (bool) {\n        return false;\n    }\n\n    function transferFrom(address from, address to, uint256 value) external returns (bool) {\n        return false;\n    }\n\n    function increaseAllowance(address spender, uint256 addedValue) external returns (bool) {\n        return false;\n    }\n\n    function decreaseAllowance(address spender, uint256 subtractedValue) external returns (bool) {\n        return false;\n    }\n\n    function _mint(address account, uint256 value) internal {\n        require(account != address(0));\n\n        _totalSupply = _totalSupply.add(value);\n        _balances[account] = _balances[account].add(value);\n        emit Transfer(address(0), account, value);\n    }\n\n    function _burn(address account, uint256 value) internal {\n        require(account != address(0));\n\n        _totalSupply = _totalSupply.sub(value);\n        _balances[account] = _balances[account].sub(value);\n        emit Transfer(account, address(0), value);\n    }\n}\n",
  "sourcePath": "/Users/osarrouy/Documents/devs/@pando/packages/organism/contracts/Lineage.sol",
  "compiler": {
    "name": "solc",
    "version": "0.4.24+commit.e67f0147.Emscripten.clang"
  },
  "schemaVersion": "3.0.0-beta.2",
  "updatedAt": "2019-01-14T15:06:23.106Z",
  "devdoc": {
    "methods": {
      "allowRecoverability(address)": {
        "details": "By default deriving from AragonApp makes it recoverable",
        "params": {
          "token": "Token address that would be recovered"
        },
        "return": "bool whether the app allows the recovery"
      },
      "canPerform(address,bytes32,uint256[])": {
        "details": "Check whether an action can be performed by a sender for a particular role on this app",
        "params": {
          "_params": "Permission params for the role",
          "_role": "Role on this app",
          "_sender": "Sender of the call"
        },
        "return": "Boolean indicating whether the sender has the permissions to perform the action.        Always returns false if the app hasn't been initialized yet."
      },
      "getInitializationBlock()": {
        "return": "Block number in which the contract was initialized"
      },
      "getRecoveryVault()": {
        "details": "Get the recovery vault for the app",
        "return": "Recovery vault address for the app"
      },
      "hasInitialized()": {
        "return": "Whether the contract has been initialized by the time of the current block"
      },
      "transferToVault(address)": {
        "params": {
          "_token": "Token balance to be sent to recovery vault."
        }
      }
    }
  },
  "userdoc": {
    "methods": {
      "transferToVault(address)": {
        "notice": "Send funds to recovery Vault. This contract should never receive funds,        but in case it does, this function allows one to recover them."
      }
    }
  }
}