{
  "contractName": "Organism",
  "abi": [
    {
      "constant": true,
      "inputs": [],
      "name": "hasInitialized",
      "outputs": [
        {
          "name": "",
          "type": "bool"
        }
      ],
      "payable": false,
      "stateMutability": "view",
      "type": "function"
    },
    {
      "constant": true,
      "inputs": [],
      "name": "REJECT_RFL_ROLE",
      "outputs": [
        {
          "name": "",
          "type": "bytes32"
        }
      ],
      "payable": false,
      "stateMutability": "view",
      "type": "function"
    },
    {
      "constant": true,
      "inputs": [],
      "name": "RFLsLength",
      "outputs": [
        {
          "name": "",
          "type": "uint256"
        }
      ],
      "payable": false,
      "stateMutability": "view",
      "type": "function"
    },
    {
      "constant": true,
      "inputs": [
        {
          "name": "_script",
          "type": "bytes"
        }
      ],
      "name": "getEVMScriptExecutor",
      "outputs": [
        {
          "name": "",
          "type": "address"
        }
      ],
      "payable": false,
      "stateMutability": "view",
      "type": "function"
    },
    {
      "constant": true,
      "inputs": [],
      "name": "CREATE_RFI_ROLE",
      "outputs": [
        {
          "name": "",
          "type": "bytes32"
        }
      ],
      "payable": false,
      "stateMutability": "view",
      "type": "function"
    },
    {
      "constant": true,
      "inputs": [],
      "name": "MERGE_RFI_ROLE",
      "outputs": [
        {
          "name": "",
          "type": "bytes32"
        }
      ],
      "payable": false,
      "stateMutability": "view",
      "type": "function"
    },
    {
      "constant": true,
      "inputs": [],
      "name": "getRecoveryVault",
      "outputs": [
        {
          "name": "",
          "type": "address"
        }
      ],
      "payable": false,
      "stateMutability": "view",
      "type": "function"
    },
    {
      "constant": true,
      "inputs": [],
      "name": "pando",
      "outputs": [
        {
          "name": "",
          "type": "address"
        }
      ],
      "payable": false,
      "stateMutability": "view",
      "type": "function"
    },
    {
      "constant": true,
      "inputs": [
        {
          "name": "",
          "type": "uint256"
        }
      ],
      "name": "RFIs",
      "outputs": [
        {
          "components": [
            {
              "name": "metadata",
              "type": "string"
            }
          ],
          "name": "individuation",
          "type": "tuple"
        },
        {
          "name": "blockstamp",
          "type": "uint256"
        },
        {
          "name": "state",
          "type": "uint8"
        }
      ],
      "payable": false,
      "stateMutability": "view",
      "type": "function"
    },
    {
      "constant": true,
      "inputs": [
        {
          "name": "token",
          "type": "address"
        }
      ],
      "name": "allowRecoverability",
      "outputs": [
        {
          "name": "",
          "type": "bool"
        }
      ],
      "payable": false,
      "stateMutability": "view",
      "type": "function"
    },
    {
      "constant": true,
      "inputs": [],
      "name": "RFIsLength",
      "outputs": [
        {
          "name": "",
          "type": "uint256"
        }
      ],
      "payable": false,
      "stateMutability": "view",
      "type": "function"
    },
    {
      "constant": true,
      "inputs": [],
      "name": "appId",
      "outputs": [
        {
          "name": "",
          "type": "bytes32"
        }
      ],
      "payable": false,
      "stateMutability": "view",
      "type": "function"
    },
    {
      "constant": true,
      "inputs": [],
      "name": "getInitializationBlock",
      "outputs": [
        {
          "name": "",
          "type": "uint256"
        }
      ],
      "payable": false,
      "stateMutability": "view",
      "type": "function"
    },
    {
      "constant": true,
      "inputs": [],
      "name": "REJECT_RFI_ROLE",
      "outputs": [
        {
          "name": "",
          "type": "bytes32"
        }
      ],
      "payable": false,
      "stateMutability": "view",
      "type": "function"
    },
    {
      "constant": false,
      "inputs": [
        {
          "name": "_token",
          "type": "address"
        }
      ],
      "name": "transferToVault",
      "outputs": [],
      "payable": false,
      "stateMutability": "nonpayable",
      "type": "function"
    },
    {
      "constant": true,
      "inputs": [
        {
          "name": "_sender",
          "type": "address"
        },
        {
          "name": "_role",
          "type": "bytes32"
        },
        {
          "name": "_params",
          "type": "uint256[]"
        }
      ],
      "name": "canPerform",
      "outputs": [
        {
          "name": "",
          "type": "bool"
        }
      ],
      "payable": false,
      "stateMutability": "view",
      "type": "function"
    },
    {
      "constant": true,
      "inputs": [],
      "name": "getEVMScriptRegistry",
      "outputs": [
        {
          "name": "",
          "type": "address"
        }
      ],
      "payable": false,
      "stateMutability": "view",
      "type": "function"
    },
    {
      "constant": true,
      "inputs": [],
      "name": "genesis",
      "outputs": [
        {
          "name": "",
          "type": "address"
        }
      ],
      "payable": false,
      "stateMutability": "view",
      "type": "function"
    },
    {
      "constant": true,
      "inputs": [],
      "name": "ACCEPT_RFL_ROLE",
      "outputs": [
        {
          "name": "",
          "type": "bytes32"
        }
      ],
      "payable": false,
      "stateMutability": "view",
      "type": "function"
    },
    {
      "constant": true,
      "inputs": [],
      "name": "INDIVIDUATE_ROLE",
      "outputs": [
        {
          "name": "",
          "type": "bytes32"
        }
      ],
      "payable": false,
      "stateMutability": "view",
      "type": "function"
    },
    {
      "constant": true,
      "inputs": [
        {
          "name": "",
          "type": "uint256"
        }
      ],
      "name": "RFLs",
      "outputs": [
        {
          "components": [
            {
              "name": "destination",
              "type": "address"
            },
            {
              "name": "minimum",
              "type": "uint256"
            },
            {
              "name": "metadata",
              "type": "string"
            }
          ],
          "name": "lineage",
          "type": "tuple"
        },
        {
          "name": "blockstamp",
          "type": "uint256"
        },
        {
          "name": "value",
          "type": "uint256"
        },
        {
          "name": "state",
          "type": "uint8"
        },
        {
          "name": "RFIid",
          "type": "uint256"
        }
      ],
      "payable": false,
      "stateMutability": "view",
      "type": "function"
    },
    {
      "constant": true,
      "inputs": [],
      "name": "lineage",
      "outputs": [
        {
          "name": "",
          "type": "address"
        }
      ],
      "payable": false,
      "stateMutability": "view",
      "type": "function"
    },
    {
      "constant": true,
      "inputs": [],
      "name": "kernel",
      "outputs": [
        {
          "name": "",
          "type": "address"
        }
      ],
      "payable": false,
      "stateMutability": "view",
      "type": "function"
    },
    {
      "constant": true,
      "inputs": [],
      "name": "isPetrified",
      "outputs": [
        {
          "name": "",
          "type": "bool"
        }
      ],
      "payable": false,
      "stateMutability": "view",
      "type": "function"
    },
    {
      "anonymous": false,
      "inputs": [
        {
          "indexed": true,
          "name": "id",
          "type": "uint256"
        }
      ],
      "name": "CreateRFI",
      "type": "event"
    },
    {
      "anonymous": false,
      "inputs": [
        {
          "indexed": true,
          "name": "id",
          "type": "uint256"
        }
      ],
      "name": "MergeRFI",
      "type": "event"
    },
    {
      "anonymous": false,
      "inputs": [
        {
          "indexed": true,
          "name": "id",
          "type": "uint256"
        }
      ],
      "name": "RejectRFI",
      "type": "event"
    },
    {
      "anonymous": false,
      "inputs": [
        {
          "indexed": true,
          "name": "id",
          "type": "uint256"
        }
      ],
      "name": "CancelRFI",
      "type": "event"
    },
    {
      "anonymous": false,
      "inputs": [
        {
          "indexed": true,
          "name": "id",
          "type": "uint256"
        }
      ],
      "name": "CreateRFL",
      "type": "event"
    },
    {
      "anonymous": false,
      "inputs": [
        {
          "indexed": true,
          "name": "id",
          "type": "uint256"
        },
        {
          "indexed": false,
          "name": "value",
          "type": "uint256"
        }
      ],
      "name": "AcceptRFL",
      "type": "event"
    },
    {
      "anonymous": false,
      "inputs": [
        {
          "indexed": true,
          "name": "id",
          "type": "uint256"
        }
      ],
      "name": "RejectRFL",
      "type": "event"
    },
    {
      "anonymous": false,
      "inputs": [
        {
          "indexed": true,
          "name": "id",
          "type": "uint256"
        }
      ],
      "name": "CancelRFL",
      "type": "event"
    },
    {
      "anonymous": false,
      "inputs": [
        {
          "indexed": true,
          "name": "id",
          "type": "uint256"
        },
        {
          "indexed": false,
          "name": "destination",
          "type": "address"
        },
        {
          "indexed": false,
          "name": "value",
          "type": "uint256"
        }
      ],
      "name": "IssueRFL",
      "type": "event"
    },
    {
      "anonymous": false,
      "inputs": [
        {
          "indexed": true,
          "name": "executor",
          "type": "address"
        },
        {
          "indexed": false,
          "name": "script",
          "type": "bytes"
        },
        {
          "indexed": false,
          "name": "input",
          "type": "bytes"
        },
        {
          "indexed": false,
          "name": "returnData",
          "type": "bytes"
        }
      ],
      "name": "ScriptResult",
      "type": "event"
    },
    {
      "constant": false,
      "inputs": [
        {
          "name": "_pando",
          "type": "address"
        },
        {
          "name": "_genesis",
          "type": "address"
        },
        {
          "name": "_lineage",
          "type": "address"
        }
      ],
      "name": "initialize",
      "outputs": [],
      "payable": false,
      "stateMutability": "nonpayable",
      "type": "function"
    },
    {
      "constant": false,
      "inputs": [
        {
          "components": [
            {
              "name": "metadata",
              "type": "string"
            }
          ],
          "name": "_individuation",
          "type": "tuple"
        },
        {
          "components": [
            {
              "name": "destination",
              "type": "address"
            },
            {
              "name": "minimum",
              "type": "uint256"
            },
            {
              "name": "metadata",
              "type": "string"
            }
          ],
          "name": "_lineages",
          "type": "tuple[]"
        }
      ],
      "name": "createRFI",
      "outputs": [
        {
          "name": "RFIid",
          "type": "uint256"
        }
      ],
      "payable": false,
      "stateMutability": "nonpayable",
      "type": "function"
    },
    {
      "constant": false,
      "inputs": [
        {
          "name": "_RFIid",
          "type": "uint256"
        }
      ],
      "name": "mergeRFI",
      "outputs": [],
      "payable": false,
      "stateMutability": "nonpayable",
      "type": "function"
    },
    {
      "constant": false,
      "inputs": [
        {
          "name": "_RFIid",
          "type": "uint256"
        }
      ],
      "name": "rejectRFI",
      "outputs": [],
      "payable": false,
      "stateMutability": "nonpayable",
      "type": "function"
    },
    {
      "constant": false,
      "inputs": [
        {
          "name": "_RFLid",
          "type": "uint256"
        },
        {
          "name": "_value",
          "type": "uint256"
        }
      ],
      "name": "acceptRFL",
      "outputs": [],
      "payable": false,
      "stateMutability": "nonpayable",
      "type": "function"
    },
    {
      "constant": false,
      "inputs": [
        {
          "name": "_RFLid",
          "type": "uint256"
        }
      ],
      "name": "rejectRFL",
      "outputs": [],
      "payable": false,
      "stateMutability": "nonpayable",
      "type": "function"
    },
    {
      "constant": true,
      "inputs": [
        {
          "name": "_RFIid",
          "type": "uint256"
        }
      ],
      "name": "canMergeRFI",
      "outputs": [
        {
          "name": "",
          "type": "bool"
        }
      ],
      "payable": false,
      "stateMutability": "view",
      "type": "function"
    },
    {
      "constant": true,
      "inputs": [
        {
          "name": "_RFIid",
          "type": "uint256"
        }
      ],
      "name": "canRejectRFI",
      "outputs": [
        {
          "name": "",
          "type": "bool"
        }
      ],
      "payable": false,
      "stateMutability": "view",
      "type": "function"
    },
    {
      "constant": true,
      "inputs": [
        {
          "name": "_RFLid",
          "type": "uint256"
        },
        {
          "name": "_value",
          "type": "uint256"
        }
      ],
      "name": "canAcceptRFL",
      "outputs": [
        {
          "name": "",
          "type": "bool"
        }
      ],
      "payable": false,
      "stateMutability": "view",
      "type": "function"
    },
    {
      "constant": true,
      "inputs": [
        {
          "name": "_RFLid",
          "type": "uint256"
        }
      ],
      "name": "canRejectRFL",
      "outputs": [
        {
          "name": "",
          "type": "bool"
        }
      ],
      "payable": false,
      "stateMutability": "view",
      "type": "function"
    },
    {
      "constant": true,
      "inputs": [
        {
          "name": "_RFIid",
          "type": "uint256"
        }
      ],
      "name": "getRFI",
      "outputs": [
        {
          "components": [
            {
              "components": [
                {
                  "name": "metadata",
                  "type": "string"
                }
              ],
              "name": "individuation",
              "type": "tuple"
            },
            {
              "name": "blockstamp",
              "type": "uint256"
            },
            {
              "name": "state",
              "type": "uint8"
            },
            {
              "name": "RFLids",
              "type": "uint256[]"
            }
          ],
          "name": "",
          "type": "tuple"
        }
      ],
      "payable": false,
      "stateMutability": "view",
      "type": "function"
    },
    {
      "constant": true,
      "inputs": [
        {
          "name": "_RFLid",
          "type": "uint256"
        }
      ],
      "name": "getRFL",
      "outputs": [
        {
          "components": [
            {
              "components": [
                {
                  "name": "destination",
                  "type": "address"
                },
                {
                  "name": "minimum",
                  "type": "uint256"
                },
                {
                  "name": "metadata",
                  "type": "string"
                }
              ],
              "name": "lineage",
              "type": "tuple"
            },
            {
              "name": "blockstamp",
              "type": "uint256"
            },
            {
              "name": "value",
              "type": "uint256"
            },
            {
              "name": "state",
              "type": "uint8"
            },
            {
              "name": "RFIid",
              "type": "uint256"
            }
          ],
          "name": "",
          "type": "tuple"
        }
      ],
      "payable": false,
      "stateMutability": "view",
      "type": "function"
    },
    {
      "constant": true,
      "inputs": [
        {
          "components": [
            {
              "name": "blockstamp",
              "type": "uint256"
            },
            {
              "name": "metadata",
              "type": "string"
            }
          ],
          "name": "_individuation",
          "type": "tuple"
        }
      ],
      "name": "getIndividuationHash",
      "outputs": [
        {
          "name": "",
          "type": "bytes32"
        }
      ],
      "payable": false,
      "stateMutability": "view",
      "type": "function"
    },
    {
      "constant": true,
      "inputs": [],
      "name": "head",
      "outputs": [
        {
          "name": "",
          "type": "bytes32"
        }
      ],
      "payable": false,
      "stateMutability": "view",
      "type": "function"
    },
    {
      "constant": true,
      "inputs": [],
      "name": "getHead",
      "outputs": [
        {
          "components": [
            {
              "name": "blockstamp",
              "type": "uint256"
            },
            {
              "name": "metadata",
              "type": "string"
            }
          ],
          "name": "",
          "type": "tuple"
        }
      ],
      "payable": false,
      "stateMutability": "view",
      "type": "function"
    }
  ],
  "bytecode": "0x608060405260006005556000600655620000276200002d640100000000026401000000009004565b620002f9565b60006200004862000102640100000000026401000000009004565b146040805190810160405280601881526020017f494e49545f414c52454144595f494e495449414c495a45440000000000000000815250901515620000c5576040517f08c379a0000000000000000000000000000000000000000000000000000000008152600401620000bc919062000283565b60405180910390fd5b50620001007fffffffffffffffffffffffffffffffffffffffffffffffffffffffffffffffff6200014f640100000000026401000000009004565b565b60006200014a7febb05b386a8d34882b8711d156f463690983dc47815980fb82aeeff1aa43579e600102600019166200023564010000000002620028ba176401000000009004565b905090565b60006200016a62000102640100000000026401000000009004565b146040805190810160405280601881526020017f494e49545f414c52454144595f494e495449414c495a45440000000000000000815250901515620001e7576040517f08c379a0000000000000000000000000000000000000000000000000000000008152600401620001de919062000283565b60405180910390fd5b5062000232817febb05b386a8d34882b8711d156f463690983dc47815980fb82aeeff1aa43579e60010260001916620002406401000000000262002deb179091906401000000009004565b50565b600081549050919050565b8082555050565b60006200025482620002a7565b8084526200026a816020860160208601620002b2565b6200027581620002e8565b602085010191505092915050565b600060208201905081810360008301526200029f818462000247565b905092915050565b600081519050919050565b60005b83811015620002d2578082015181840152602081019050620002b5565b83811115620002e2576000848401525b50505050565b6000601f19601f8301169050919050565b61453680620003096000396000f3006080604052600436106101e3576000357c0100000000000000000000000000000000000000000000000000000000900463ffffffff1680630803fac0146101e85780630823678014610213578063103a90c81461023e5780632914b9bd146102695780632adab4ea146102a65780632d2e8012146102d157806331f70096146102fc57806332f0a3b51461033957806333ff6870146103645780634752915d146103a15780634844c28d146103de5780635bddb420146104095780636d5f5ca7146104485780636e0b314c14610471578063748b052c1461049a5780637e7db6e1146104c357806380201af21461050057806380afdea81461052b578063889bd35d146105565780638b3dd749146105935780638f7dcfa3146105be57806397569bb1146105e95780639bdc706d146106145780639d4941d814610651578063a1658fad1461067a578063a479e508146106b7578063a7f0b3de146106e2578063b462e70b1461070d578063c0c53b8b14610738578063c34e0ed614610761578063c3eefd1e1461078c578063c538f7de146107c9578063c74656e71461080a578063d4aae0c414610835578063dc281aff14610860578063ddf6fa9c1461088b578063de4796ed146108b4578063e8606afc146108df578063fec7d70b1461091c575b600080fd5b3480156101f457600080fd5b506101fd610959565b60405161020a9190613e96565b60405180910390f35b34801561021f57600080fd5b50610228610984565b6040516102359190613eb1565b60405180910390f35b34801561024a57600080fd5b506102536109bd565b60405161026091906141d6565b60405180910390f35b34801561027557600080fd5b50610290600480360361028b91908101906136b5565b6109c3565b60405161029d9190613f32565b60405180910390f35b3480156102b257600080fd5b506102bb610a7a565b6040516102c89190613eb1565b60405180910390f35b3480156102dd57600080fd5b506102e6610ab3565b6040516102f39190613eb1565b60405180910390f35b34801561030857600080fd5b50610323600480360361031e919081019061376e565b610aec565b60405161033091906141d6565b60405180910390f35b34801561034557600080fd5b5061034e610c6e565b60405161035b9190613e06565b60405180910390f35b34801561037057600080fd5b5061038b6004803603610386919081019061385c565b610d18565b6040516103989190613e96565b60405180910390f35b3480156103ad57600080fd5b506103c860048036036103c391908101906138ae565b610d83565b6040516103d59190613e96565b60405180910390f35b3480156103ea57600080fd5b506103f3610e19565b6040516104009190613f9e565b60405180910390f35b34801561041557600080fd5b50610430600480360361042b919081019061385c565b610e3f565b60405161043f939291906140b6565b60405180910390f35b34801561045457600080fd5b5061046f600480360361046a91908101906138ae565b610f23565b005b34801561047d57600080fd5b506104986004803603610493919081019061385c565b611068565b005b3480156104a657600080fd5b506104c160048036036104bc919081019061385c565b61122c565b005b3480156104cf57600080fd5b506104ea60048036036104e591908101906135aa565b61136e565b6040516104f79190613e96565b60405180910390f35b34801561050c57600080fd5b50610515611379565b60405161052291906141d6565b60405180910390f35b34801561053757600080fd5b5061054061137f565b60405161054d9190613eb1565b60405180910390f35b34801561056257600080fd5b5061057d6004803603610578919081019061385c565b6113b6565b60405161058a91906141b4565b60405180910390f35b34801561059f57600080fd5b506105a861158f565b6040516105b591906141d6565b60405180910390f35b3480156105ca57600080fd5b506105d36115c6565b6040516105e09190613eb1565b60405180910390f35b3480156105f557600080fd5b506105fe61168a565b60405161060b9190613eb1565b60405180910390f35b34801561062057600080fd5b5061063b6004803603610636919081019061385c565b6116c3565b6040516106489190613e96565b60405180910390f35b34801561065d57600080fd5b50610678600480360361067391908101906135aa565b61172e565b005b34801561068657600080fd5b506106a1600480360361069c91908101906135fc565b611a32565b6040516106ae9190613e96565b60405180910390f35b3480156106c357600080fd5b506106cc611b5f565b6040516106d99190613f4d565b60405180910390f35b3480156106ee57600080fd5b506106f7611c61565b6040516107049190613f17565b60405180910390f35b34801561071957600080fd5b50610722611c86565b60405161072f9190613eb1565b60405180910390f35b34801561074457600080fd5b5061075f600480360361075a919081019061371f565b611cbf565b005b34801561076d57600080fd5b50610776611e13565b6040516107839190613eb1565b60405180910390f35b34801561079857600080fd5b506107b360048036036107ae919081019061385c565b611e4c565b6040516107c09190613e96565b60405180910390f35b3480156107d557600080fd5b506107f060048036036107eb919081019061385c565b611f4c565b604051610801959493929190614116565b60405180910390f35b34801561081657600080fd5b5061081f61209c565b60405161082c9190613f83565b60405180910390f35b34801561084157600080fd5b5061084a6120c2565b6040516108579190613f68565b60405180910390f35b34801561086c57600080fd5b506108756120f9565b6040516108829190614170565b60405180910390f35b34801561089757600080fd5b506108b260048036036108ad919081019061385c565b6121c8565b005b3480156108c057600080fd5b506108c961230a565b6040516108d69190613e96565b60405180910390f35b3480156108eb57600080fd5b50610906600480360361090191908101906137da565b61233b565b6040516109139190613eb1565b60405180910390f35b34801561092857600080fd5b50610943600480360361093e919081019061385c565b61240d565b6040516109509190614192565b60405180910390f35b60008061096461158f565b90506000811415801561097e57508061097b6125ca565b10155b91505090565b60405180807f52454a4543545f52464c5f524f4c450000000000000000000000000000000000815250600f019050604051809103902081565b60065481565b60006109cd611b5f565b73ffffffffffffffffffffffffffffffffffffffff166304bf2a7f836040518263ffffffff167c0100000000000000000000000000000000000000000000000000000000028152600401610a219190613ef5565b602060405180830381600087803b158015610a3b57600080fd5b505af1158015610a4f573d6000803e3d6000fd5b505050506040513d601f19601f82011682018060405250610a7391908101906136f6565b9050919050565b60405180807f4352454154455f5246495f524f4c450000000000000000000000000000000000815250600f019050604051809103902081565b60405180807f4d455247455f5246495f524f4c45000000000000000000000000000000000000815250600e019050604051809103902081565b6000610af6610959565b6040805190810160405280601481526020017f494e49545f4e4f545f494e495449414c495a4544000000000000000000000000815250901515610b6f576040517f08c379a0000000000000000000000000000000000000000000000000000000008152600401610b669190613fd4565b60405180910390fd5b5060405180807f4352454154455f5246495f524f4c450000000000000000000000000000000000815250600f0190506040518091039020610be133826000604051908082528060200260200182016040528015610bdb5781602001602082028038833980820191505090505b50611a32565b6040805190810160405280600f81526020017f4150505f415554485f4641494c45440000000000000000000000000000000000815250901515610c5a576040517f08c379a0000000000000000000000000000000000000000000000000000000008152600401610c519190613fd4565b60405180910390fd5b50610c6584846125d2565b91505092915050565b6000610c786120c2565b73ffffffffffffffffffffffffffffffffffffffff166332f0a3b56040518163ffffffff167c0100000000000000000000000000000000000000000000000000000000028152600401602060405180830381600087803b158015610cdb57600080fd5b505af1158015610cef573d6000803e3d6000fd5b505050506040513d601f19601f82011682018060405250610d1391908101906135d3565b905090565b6000600654821115610d2d5760009050610d7e565b60006004811115610d3a57fe5b6004600084815260200190815260200160002060050160009054906101000a900460ff166004811115610d6957fe5b141515610d795760009050610d7e565b600190505b919050565b6000600654831115610d985760009050610e13565b60006004811115610da557fe5b6004600085815260200190815260200160002060050160009054906101000a900460ff166004811115610dd457fe5b141515610de45760009050610e13565b6004600084815260200190815260200160002060000160010154821015610e0e5760009050610e13565b600190505b92915050565b600260009054906101000a900473ffffffffffffffffffffffffffffffffffffffff1681565b60036020528060005260406000206000915090508060000160206040519081016040529081600082018054600181600116156101000203166002900480601f016020809104026020016040519081016040528092919081815260200182805460018160011615610100020316600290048015610efc5780601f10610ed157610100808354040283529160200191610efc565b820191906000526020600020905b815481529060010190602001808311610edf57829003601f168201915b505050505081525050908060010154908060020160009054906101000a900460ff16905083565b60405180807f4143434550545f52464c5f524f4c450000000000000000000000000000000000815250600f0190506040518091039020610f9433826000604051908082528060200260200182016040528015610f8e5781602001602082028038833980820191505090505b50611a32565b6040805190810160405280600f81526020017f4150505f415554485f4641494c4544000000000000000000000000000000000081525090151561100d576040517f08c379a00000000000000000000000000000000000000000000000000000000081526004016110049190613fd4565b60405180910390fd5b506110188383610d83565b1515611059576040517f08c379a000000000000000000000000000000000000000000000000000000000815260040161105090613ff6565b60405180910390fd5b61106383836126fc565b505050565b611070610959565b6040805190810160405280601481526020017f494e49545f4e4f545f494e495449414c495a45440000000000000000000000008152509015156110e9576040517f08c379a00000000000000000000000000000000000000000000000000000000081526004016110e09190613fd4565b60405180910390fd5b5060405180807f52454a4543545f52464c5f524f4c450000000000000000000000000000000000815250600f019050604051809103902061115b338260006040519080825280602002602001820160405280156111555781602001602082028038833980820191505090505b50611a32565b6040805190810160405280600f81526020017f4150505f415554485f4641494c454400000000000000000000000000000000008152509015156111d4576040517f08c379a00000000000000000000000000000000000000000000000000000000081526004016111cb9190613fd4565b60405180910390fd5b506111de82610d18565b151561121f576040517f08c379a000000000000000000000000000000000000000000000000000000000815260040161121690614016565b60405180910390fd5b6112288261277f565b5050565b60405180807f52454a4543545f5246495f524f4c450000000000000000000000000000000000815250600f019050604051809103902061129d338260006040519080825280602002602001820160405280156112975781602001602082028038833980820191505090505b50611a32565b6040805190810160405280600f81526020017f4150505f415554485f4641494c45440000000000000000000000000000000000815250901515611316576040517f08c379a000000000000000000000000000000000000000000000000000000000815260040161130d9190613fd4565b60405180910390fd5b50611320826116c3565b1515611361576040517f08c379a000000000000000000000000000000000000000000000000000000000815260040161135890614076565b60405180910390fd5b61136a826127fa565b5050565b600060019050919050565b60055481565b60006113b17fd625496217aa6a3453eecb9c3489dc5a53e6c67b444329ea2b2cbc9ff547639b600102600019166128af565b905090565b6113be612f8f565b816006548111151515611406576040517f08c379a00000000000000000000000000000000000000000000000000000000081526004016113fd90614036565b60405180910390fd5b6004600084815260200190815260200160002060a0604051908101604052908160008201606060405190810160405290816000820160009054906101000a900473ffffffffffffffffffffffffffffffffffffffff1673ffffffffffffffffffffffffffffffffffffffff1673ffffffffffffffffffffffffffffffffffffffff16815260200160018201548152602001600282018054600181600116156101000203166002900480601f01602080910402602001604051908101604052809291908181526020018280546001816001161561010002031660029004801561152f5780601f106115045761010080835404028352916020019161152f565b820191906000526020600020905b81548152906001019060200180831161151257829003601f168201915b505050505081525050815260200160038201548152602001600482015481526020016005820160009054906101000a900460ff16600481111561156e57fe5b600481111561157957fe5b8152602001600682015481525050915050919050565b60006115c17febb05b386a8d34882b8711d156f463690983dc47815980fb82aeeff1aa43579e600102600019166128ba565b905090565b60008060009054906101000a900473ffffffffffffffffffffffffffffffffffffffff1673ffffffffffffffffffffffffffffffffffffffff16638f7dcfa36040518163ffffffff167c0100000000000000000000000000000000000000000000000000000000028152600401602060405180830381600087803b15801561164d57600080fd5b505af1158015611661573d6000803e3d6000fd5b505050506040513d601f19601f82011682018060405250611685919081019061368c565b905090565b60405180807f52454a4543545f5246495f524f4c450000000000000000000000000000000000815250600f019050604051809103902081565b60006005548211156116d85760009050611729565b600060038111156116e557fe5b6003600084815260200190815260200160002060020160009054906101000a900460ff16600381111561171457fe5b1415156117245760009050611729565b600190505b919050565b60008061173a8361136e565b6040805190810160405280601281526020017f5245434f5645525f444953414c4c4f57454400000000000000000000000000008152509015156117b3576040517f08c379a00000000000000000000000000000000000000000000000000000000081526004016117aa9190613fd4565b60405180910390fd5b506117bc610c6e565b91506117c7826128c5565b6040805190810160405280601a81526020017f5245434f5645525f5641554c545f4e4f545f434f4e5452414354000000000000815250901515611840576040517f08c379a00000000000000000000000000000000000000000000000000000000081526004016118379190613fd4565b60405180910390fd5b50600073ffffffffffffffffffffffffffffffffffffffff168373ffffffffffffffffffffffffffffffffffffffff1614156118d9578173ffffffffffffffffffffffffffffffffffffffff166108fc3073ffffffffffffffffffffffffffffffffffffffff16319081150290604051600060405180830381858888f193505050501580156118d3573d6000803e3d6000fd5b50611a2d565b8273ffffffffffffffffffffffffffffffffffffffff166370a08231306040518263ffffffff167c010000000000000000000000000000000000000000000000000000000002815260040161192e9190613fb9565b602060405180830381600087803b15801561194857600080fd5b505af115801561195c573d6000803e3d6000fd5b505050506040513d601f19601f820116820180604052506119809190810190613885565b90508273ffffffffffffffffffffffffffffffffffffffff1663a9059cbb83836040518363ffffffff167c01000000000000000000000000000000000000000000000000000000000281526004016119d9929190613e6d565b602060405180830381600087803b1580156119f357600080fd5b505af1158015611a07573d6000803e3d6000fd5b505050506040513d601f19601f82011682018060405250611a2b9190810190613663565b505b505050565b60008060606000611a41610959565b1515611a505760009350611b55565b611a586120c2565b9250600073ffffffffffffffffffffffffffffffffffffffff168373ffffffffffffffffffffffffffffffffffffffff161415611a985760009350611b55565b602085510290508491508082528273ffffffffffffffffffffffffffffffffffffffff1663fdef9106883089866040518563ffffffff167c0100000000000000000000000000000000000000000000000000000000028152600401611b009493929190613e21565b602060405180830381600087803b158015611b1a57600080fd5b505af1158015611b2e573d6000803e3d6000fd5b505050506040513d601f19601f82011682018060405250611b529190810190613663565b93505b5050509392505050565b600080611b6a6120c2565b73ffffffffffffffffffffffffffffffffffffffff1663be00bbd87fd6f028ca0e8edb4a8c9757ca4fdccab25fa1e0317da1188108f7d2dee14902fb6001027fddbcfd564f642ab5627cf68b9b7d374fb4f8a36e941a75d89c87998cef03bd616001026040518363ffffffff167c0100000000000000000000000000000000000000000000000000000000028152600401611c06929190613ecc565b602060405180830381600087803b158015611c2057600080fd5b505af1158015611c34573d6000803e3d6000fd5b505050506040513d601f19601f82011682018060405250611c5891908101906135d3565b90508091505090565b6000809054906101000a900473ffffffffffffffffffffffffffffffffffffffff1681565b60405180807f4143434550545f52464c5f524f4c450000000000000000000000000000000000815250600f019050604051809103902081565b6000611cc961158f565b146040805190810160405280601881526020017f494e49545f414c52454144595f494e495449414c495a45440000000000000000815250901515611d43576040517f08c379a0000000000000000000000000000000000000000000000000000000008152600401611d3a9190613fd4565b60405180910390fd5b50611d4c612917565b82600260006101000a81548173ffffffffffffffffffffffffffffffffffffffff021916908373ffffffffffffffffffffffffffffffffffffffff160217905550816000806101000a81548173ffffffffffffffffffffffffffffffffffffffff021916908373ffffffffffffffffffffffffffffffffffffffff16021790555080600160006101000a81548173ffffffffffffffffffffffffffffffffffffffff021916908373ffffffffffffffffffffffffffffffffffffffff160217905550505050565b60405180807f494e4449564944554154455f524f4c45000000000000000000000000000000008152506010019050604051809103902081565b600080600080600554851115611e655760009350611f44565b60036000868152602001908152602001600020925060006003811115611e8757fe5b8360020160009054906101000a900460ff166003811115611ea457fe5b141515611eb45760009350611f44565b600091505b8260030180549050821015611f3f57600460008460030184815481101515611edd57fe5b90600052602060002001548152602001908152602001600020905060016004811115611f0557fe5b8160050160009054906101000a900460ff166004811115611f2257fe5b141515611f325760009350611f44565b8180600101925050611eb9565b600193505b505050919050565b600460205280600052604060002060009150905080600001606060405190810160405290816000820160009054906101000a900473ffffffffffffffffffffffffffffffffffffffff1673ffffffffffffffffffffffffffffffffffffffff1673ffffffffffffffffffffffffffffffffffffffff16815260200160018201548152602001600282018054600181600116156101000203166002900480601f0160208091040260200160405190810160405280929190818152602001828054600181600116156101000203166002900480156120695780601f1061203e57610100808354040283529160200191612069565b820191906000526020600020905b81548152906001019060200180831161204c57829003601f168201915b505050505081525050908060030154908060040154908060050160009054906101000a900460ff16908060060154905085565b600160009054906101000a900473ffffffffffffffffffffffffffffffffffffffff1681565b60006120f47f4172f0f7d2289153072b0a6ca36959e0cbe2efc3afe50fc81636caa96338137b600102600019166129df565b905090565b612101612fd0565b6000809054906101000a900473ffffffffffffffffffffffffffffffffffffffff1673ffffffffffffffffffffffffffffffffffffffff1663dc281aff6040518163ffffffff167c0100000000000000000000000000000000000000000000000000000000028152600401600060405180830381600087803b15801561218657600080fd5b505af115801561219a573d6000803e3d6000fd5b505050506040513d6000823e3d601f19601f820116820180604052506121c3919081019061381b565b905090565b60405180807f4d455247455f5246495f524f4c45000000000000000000000000000000000000815250600e0190506040518091039020612239338260006040519080825280602002602001820160405280156122335781602001602082028038833980820191505090505b50611a32565b6040805190810160405280600f81526020017f4150505f415554485f4641494c454400000000000000000000000000000000008152509015156122b2576040517f08c379a00000000000000000000000000000000000000000000000000000000081526004016122a99190613fd4565b60405180910390fd5b506122bc82611e4c565b15156122fd576040517f08c379a00000000000000000000000000000000000000000000000000000000081526004016122f490614056565b60405180910390fd5b612306826129ea565b5050565b60007fffffffffffffffffffffffffffffffffffffffffffffffffffffffffffffffff61233561158f565b14905090565b6000600260009054906101000a900473ffffffffffffffffffffffffffffffffffffffff1673ffffffffffffffffffffffffffffffffffffffff166357c337ee836040518263ffffffff167c01000000000000000000000000000000000000000000000000000000000281526004016123b49190614170565b602060405180830381600087803b1580156123ce57600080fd5b505af11580156123e2573d6000803e3d6000fd5b505050506040513d601f19601f82011682018060405250612406919081019061368c565b9050919050565b612415612fea565b81600554811115151561245d576040517f08c379a000000000000000000000000000000000000000000000000000000000815260040161245490614096565b60405180910390fd5b60036000848152602001908152602001600020608060405190810160405290816000820160206040519081016040529081600082018054600181600116156101000203166002900480601f0160208091040260200160405190810160405280929190818152602001828054600181600116156101000203166002900480156125265780601f106124fb57610100808354040283529160200191612526565b820191906000526020600020905b81548152906001019060200180831161250957829003601f168201915b5050505050815250508152602001600182015481526020016002820160009054906101000a900460ff16600381111561255b57fe5b600381111561256657fe5b8152602001600382018054806020026020016040519081016040528092919081815260200182805480156125b957602002820191906000526020600020905b8154815260200190600101908083116125a5575b505050505081525050915050919050565b600043905090565b60008060008060006001600554016005819055506005549450600360008681526020019081526020016000209350866000015184600001600001908051906020019061261f929190613024565b5043846001018190555060008460020160006101000a81548160ff0219169083600381111561264a57fe5b0217905550600092505b85518310156126c55761267e868481518110151561266e57fe5b9060200190602002015186612b4a565b915083600301805480919060010161269691906130a4565b90508184600301828154811015156126aa57fe5b90600052602060002001819055508280600101935050612654565b847f35f2129c6d5c40f8bfc21ff096fc803eed03c578d74fabcf718966bce5e43a2460405160405180910390a25050505092915050565b600060046000848152602001908152602001600020905060018160050160006101000a81548160ff0219169083600481111561273457fe5b0217905550818160040181905550827fe798dd1723e7dfead0c42290d937f51c95c8f80f616ab3c5d515dd62333d0c698360405161277291906141d6565b60405180910390a2505050565b600060046000838152602001908152602001600020905060038160050160006101000a81548160ff021916908360048111156127b757fe5b02179055506127c98160060154612c63565b817feffb45481cc046f2f78b484c7ef03097fc7cd3f8cf92a6f150a6264c96c3e72c60405160405180910390a25050565b60008060036000848152602001908152602001600020915060028260020160006101000a81548160ff0219169083600381111561283357fe5b0217905550600090505b816003018054905081101561287d57612870826003018281548110151561286057fe5b9060005260206000200154612d7d565b808060010191505061283d565b827f572671bf73ebac1f3878b683b28d9a3864df03396326fbaa18f19c834a54b13a60405160405180910390a2505050565b600081549050919050565b600081549050919050565b600080600073ffffffffffffffffffffffffffffffffffffffff168373ffffffffffffffffffffffffffffffffffffffff1614156129065760009150612911565b823b90506000811191505b50919050565b600061292161158f565b146040805190810160405280601881526020017f494e49545f414c52454144595f494e495449414c495a4544000000000000000081525090151561299b576040517f08c379a00000000000000000000000000000000000000000000000000000000081526004016129929190613fd4565b60405180910390fd5b506129dd6129a76125ca565b7febb05b386a8d34882b8711d156f463690983dc47815980fb82aeeff1aa43579e60010260001916612deb90919063ffffffff16565b565b600081549050919050565b60008060036000848152602001908152602001600020915060018260020160006101000a81548160ff02191690836003811115612a2357fe5b02179055506000809054906101000a900473ffffffffffffffffffffffffffffffffffffffff1673ffffffffffffffffffffffffffffffffffffffff1663c9ab7ed9836000016040518263ffffffff167c0100000000000000000000000000000000000000000000000000000000028152600401612aa191906140f4565b600060405180830381600087803b158015612abb57600080fd5b505af1158015612acf573d6000803e3d6000fd5b50505050600090505b8160030180549050811015612b1857612b0b8260030182815481101515612afb57fe5b9060005260206000200154612df2565b8080600101915050612ad8565b827f2ade3f30658e8481c8027d9227280e030ebbea37526a8e9e29887165e919e2ed60405160405180910390a2505050565b600080600160065401600681905550600654915060046000838152602001908152602001600020905083600001518160000160000160006101000a81548173ffffffffffffffffffffffffffffffffffffffff021916908373ffffffffffffffffffffffffffffffffffffffff160217905550836020015181600001600101819055508360400151816000016002019080519060200190612bec929190613024565b504381600301819055506000816004018190555060008160050160006101000a81548160ff02191690836004811115612c2157fe5b0217905550828160060181905550817fb696b79e6fa6e3e43f047d6702fce861e48c2267eeb009745f44a84b2c1dac4a60405160405180910390a25092915050565b600080600060036000858152602001908152602001600020925060038360020160006101000a81548160ff02191690836003811115612c9e57fe5b0217905550600091505b8260030180549050821015612d4a57600460008460030184815481101515612ccc57fe5b90600052602060002001548152602001908152602001600020905060036004811115612cf457fe5b8160050160009054906101000a900460ff166004811115612d1157fe5b141515612d3d57612d3c8360030183815481101515612d2c57fe5b9060005260206000200154612d7d565b5b8180600101925050612ca8565b837f17c608dd7335e9c727c3e10aea0adfba0b0e6cc35c4935c1de31e3b10711da7560405160405180910390a250505050565b600060046000838152602001908152602001600020905060048160050160006101000a81548160ff02191690836004811115612db557fe5b0217905550817f7b78710b9fa400a202f9262b7daad859bf5663f0d88d45073184584fe6a166e060405160405180910390a25050565b8082555050565b600060046000838152602001908152602001600020905060028160050160006101000a81548160ff02191690836004811115612e2a57fe5b0217905550600160009054906101000a900473ffffffffffffffffffffffffffffffffffffffff1673ffffffffffffffffffffffffffffffffffffffff166340c10f198260000160000160009054906101000a900473ffffffffffffffffffffffffffffffffffffffff1683600401546040518363ffffffff167c0100000000000000000000000000000000000000000000000000000000028152600401612ed3929190613e6d565b602060405180830381600087803b158015612eed57600080fd5b505af1158015612f01573d6000803e3d6000fd5b505050506040513d601f19601f82011682018060405250612f259190810190613663565b50817fb74d3ab32949c67c027c76911841ff5e997d1276e5244bba79e532fa6ce91f838260000160000160009054906101000a900473ffffffffffffffffffffffffffffffffffffffff168360040154604051612f83929190613e6d565b60405180910390a25050565b60e060405190810160405280612fa36130d0565b8152602001600081526020016000815260200160006004811115612fc357fe5b8152602001600081525090565b604080519081016040528060008152602001606081525090565b608060405190810160405280612ffe613108565b8152602001600081526020016000600381111561301757fe5b8152602001606081525090565b828054600181600116156101000203166002900490600052602060002090601f016020900481019282601f1061306557805160ff1916838001178555613093565b82800160010185558215613093579182015b82811115613092578251825591602001919060010190613077565b5b5090506130a0919061311c565b5090565b8154818355818111156130cb578183600052602060002091820191016130ca919061311c565b5b505050565b606060405190810160405280600073ffffffffffffffffffffffffffffffffffffffff16815260200160008152602001606081525090565b602060405190810160405280606081525090565b61313e91905b8082111561313a576000816000905550600101613122565b5090565b90565b600061314d823561437f565b905092915050565b6000613161825161437f565b905092915050565b600082601f830112151561317c57600080fd5b813561318f61318a8261421e565b6141f1565b9150818183526020840193506020810190508360005b838110156131d557813586016131bb8882613442565b8452602084019350602083019250506001810190506131a5565b5050505092915050565b600082601f83011215156131f257600080fd5b813561320561320082614246565b6141f1565b9150818183526020840193506020810190508385602084028201111561322a57600080fd5b60005b8381101561325a57816132408882613582565b84526020840193506020830192505060018101905061322d565b5050505092915050565b6000613270825161439f565b905092915050565b600061328482356143ab565b905092915050565b600061329882516143ab565b905092915050565b600082601f83011215156132b357600080fd5b81356132c66132c18261426e565b6141f1565b915080825260208301602083018583830111156132e257600080fd5b6132ed8382846144a9565b50505092915050565b600061330282356143b5565b905092915050565b600061331682516143c7565b905092915050565b600061332a82356143d9565b905092915050565b600061333e82356143eb565b905092915050565b600082601f830112151561335957600080fd5b813561336c6133678261429a565b6141f1565b9150808252602083016020830185838301111561338857600080fd5b6133938382846144a9565b50505092915050565b600082601f83011215156133af57600080fd5b81516133c26133bd8261429a565b6141f1565b915080825260208301602083018583830111156133de57600080fd5b6133e98382846144b8565b50505092915050565b60006020828403121561340457600080fd5b61340e60206141f1565b9050600082013567ffffffffffffffff81111561342a57600080fd5b61343684828501613346565b60008301525092915050565b60006060828403121561345457600080fd5b61345e60606141f1565b9050600061346e84828501613141565b600083015250602061348284828501613582565b602083015250604082013567ffffffffffffffff8111156134a257600080fd5b6134ae84828501613346565b60408301525092915050565b6000604082840312156134cc57600080fd5b6134d660406141f1565b905060006134e684828501613582565b600083015250602082013567ffffffffffffffff81111561350657600080fd5b61351284828501613346565b60208301525092915050565b60006040828403121561353057600080fd5b61353a60406141f1565b9050600061354a84828501613596565b600083015250602082015167ffffffffffffffff81111561356a57600080fd5b6135768482850161339c565b60208301525092915050565b600061358e82356143fd565b905092915050565b60006135a282516143fd565b905092915050565b6000602082840312156135bc57600080fd5b60006135ca84828501613141565b91505092915050565b6000602082840312156135e557600080fd5b60006135f384828501613155565b91505092915050565b60008060006060848603121561361157600080fd5b600061361f86828701613141565b935050602061363086828701613278565b925050604084013567ffffffffffffffff81111561364d57600080fd5b613659868287016131df565b9150509250925092565b60006020828403121561367557600080fd5b600061368384828501613264565b91505092915050565b60006020828403121561369e57600080fd5b60006136ac8482850161328c565b91505092915050565b6000602082840312156136c757600080fd5b600082013567ffffffffffffffff8111156136e157600080fd5b6136ed848285016132a0565b91505092915050565b60006020828403121561370857600080fd5b60006137168482850161330a565b91505092915050565b60008060006060848603121561373457600080fd5b600061374286828701613332565b9350506020613753868287016132f6565b92505060406137648682870161331e565b9150509250925092565b6000806040838503121561378157600080fd5b600083013567ffffffffffffffff81111561379b57600080fd5b6137a7858286016133f2565b925050602083013567ffffffffffffffff8111156137c457600080fd5b6137d085828601613169565b9150509250929050565b6000602082840312156137ec57600080fd5b600082013567ffffffffffffffff81111561380657600080fd5b613812848285016134ba565b91505092915050565b60006020828403121561382d57600080fd5b600082015167ffffffffffffffff81111561384757600080fd5b6138538482850161351e565b91505092915050565b60006020828403121561386e57600080fd5b600061387c84828501613582565b91505092915050565b60006020828403121561389757600080fd5b60006138a584828501613596565b91505092915050565b600080604083850312156138c157600080fd5b60006138cf85828601613582565b92505060206138e085828601613582565b9150509250929050565b6138f381614313565b82525050565b6000613904826142e5565b808452602084019350613916836142c6565b60005b828110156139485761392c868351613df7565b61393582614306565b9150602086019550600181019050613919565b50849250505092915050565b61395d81614333565b82525050565b61396c8161433f565b82525050565b600061397d826142f0565b8084526139918160208601602086016144b8565b61399a816144eb565b602085010191505092915050565b6139b181614407565b82525050565b6139c081614419565b82525050565b6139cf8161442b565b82525050565b6139de8161443d565b82525050565b6139ed8161444f565b82525050565b6139fc81614461565b82525050565b613a0b81614473565b82525050565b613a1a81614485565b82525050565b613a2981614497565b82525050565b6000613a3a826142fb565b808452613a4e8160208601602086016144b8565b613a57816144eb565b602085010191505092915050565b600081546001811660008114613a825760018114613aa257613ae3565b607f600283041680865260ff198316602087015260408601935050613ae3565b60028204808652602086019550613ab8856142d3565b60005b82811015613ada57815481890152600182019150602081019050613abb565b80880195505050505b505092915050565b6000601182527f63616e6e6f74206163636570742052464c0000000000000000000000000000006020830152604082019050919050565b6000601182527f63616e6e6f742072656a6563742052464c0000000000000000000000000000006020830152604082019050919050565b6000601282527f52464c20646f6573206e6f7420657869737400000000000000000000000000006020830152604082019050919050565b6000601082527f63616e6e6f74206d6572676520524649000000000000000000000000000000006020830152604082019050919050565b6000601182527f63616e6e6f742072656a656374205246490000000000000000000000000000006020830152604082019050919050565b6000601282527f52464920646f6573206e6f7420657869737400000000000000000000000000006020830152604082019050919050565b60006020830160008301518482036000860152613c528282613a2f565b9150508091505092915050565b60006020830160008084018583036000870152613c7c8382613a65565b925050819250505092915050565b6000606083016000830151613ca260008601826138ea565b506020830151613cb56020860182613df7565b5060408301518482036040860152613ccd8282613a2f565b9150508091505092915050565b6000604083016000830151613cf26000860182613df7565b5060208301518482036020860152613d0a8282613a2f565b9150508091505092915050565b60006080830160008301518482036000860152613d348282613c35565b9150506020830151613d496020860182613df7565b506040830151613d5c6040860182613a11565b5060608301518482036060860152613d7482826138f9565b9150508091505092915050565b600060a0830160008301518482036000860152613d9e8282613c8a565b9150506020830151613db36020860182613df7565b506040830151613dc66040860182613df7565b506060830151613dd96060860182613a20565b506080830151613dec6080860182613df7565b508091505092915050565b613e0081614375565b82525050565b6000602082019050613e1b60008301846138ea565b92915050565b6000608082019050613e3660008301876138ea565b613e4360208301866138ea565b613e506040830185613963565b8181036060830152613e628184613972565b905095945050505050565b6000604082019050613e8260008301856138ea565b613e8f6020830184613df7565b9392505050565b6000602082019050613eab6000830184613954565b92915050565b6000602082019050613ec66000830184613963565b92915050565b6000604082019050613ee16000830185613963565b613eee6020830184613963565b9392505050565b60006020820190508181036000830152613f0f8184613972565b905092915050565b6000602082019050613f2c60008301846139a8565b92915050565b6000602082019050613f4760008301846139b7565b92915050565b6000602082019050613f6260008301846139c6565b92915050565b6000602082019050613f7d60008301846139d5565b92915050565b6000602082019050613f9860008301846139e4565b92915050565b6000602082019050613fb360008301846139f3565b92915050565b6000602082019050613fce6000830184613a02565b92915050565b60006020820190508181036000830152613fee8184613a2f565b905092915050565b6000602082019050818103600083015261400f81613aeb565b9050919050565b6000602082019050818103600083015261402f81613b22565b9050919050565b6000602082019050818103600083015261404f81613b59565b9050919050565b6000602082019050818103600083015261406f81613b90565b9050919050565b6000602082019050818103600083015261408f81613bc7565b9050919050565b600060208201905081810360008301526140af81613bfe565b9050919050565b600060608201905081810360008301526140d08186613c35565b90506140df6020830185613df7565b6140ec6040830184613a11565b949350505050565b6000602082019050818103600083015261410e8184613c5f565b905092915050565b600060a08201905081810360008301526141308188613c8a565b905061413f6020830187613df7565b61414c6040830186613df7565b6141596060830185613a20565b6141666080830184613df7565b9695505050505050565b6000602082019050818103600083015261418a8184613cda565b905092915050565b600060208201905081810360008301526141ac8184613d17565b905092915050565b600060208201905081810360008301526141ce8184613d81565b905092915050565b60006020820190506141eb6000830184613df7565b92915050565b6000604051905081810181811067ffffffffffffffff8211171561421457600080fd5b8060405250919050565b600067ffffffffffffffff82111561423557600080fd5b602082029050602081019050919050565b600067ffffffffffffffff82111561425d57600080fd5b602082029050602081019050919050565b600067ffffffffffffffff82111561428557600080fd5b601f19601f8301169050602081019050919050565b600067ffffffffffffffff8211156142b157600080fd5b601f19601f8301169050602081019050919050565b6000602082019050919050565b60008160005260206000209050919050565b600081519050919050565b600081519050919050565b600081519050919050565b6000602082019050919050565b600073ffffffffffffffffffffffffffffffffffffffff82169050919050565b60008115159050919050565b6000819050919050565b600060048210151561435757fe5b819050919050565b600060058210151561436d57fe5b819050919050565b6000819050919050565b600073ffffffffffffffffffffffffffffffffffffffff82169050919050565b60008115159050919050565b6000819050919050565b60006143c082614313565b9050919050565b60006143d282614313565b9050919050565b60006143e482614313565b9050919050565b60006143f682614313565b9050919050565b6000819050919050565b600061441282614313565b9050919050565b600061442482614313565b9050919050565b600061443682614313565b9050919050565b600061444882614313565b9050919050565b600061445a82614313565b9050919050565b600061446c82614313565b9050919050565b600061447e82614313565b9050919050565b600061449082614349565b9050919050565b60006144a28261435f565b9050919050565b82818337600083830152505050565b60005b838110156144d65780820151818401526020810190506144bb565b838111156144e5576000848401525b50505050565b6000601f19601f83011690509190505600a265627a7a723058209ba9ac503ab1a68d04da5ecc6f3735ab37c59e3048f43bc38dc32f13ec5fc2cc6c6578706572696d656e74616cf50037",
  "source": "pragma solidity ^0.4.24;\npragma experimental ABIEncoderV2;\n\n/* import \"@aragon/apps-shared-minime/contracts/ITokenController.sol\";\nimport \"@aragon/apps-shared-minime/contracts/MiniMeToken.sol\"; */\nimport \"@aragon/os/contracts/apps/AragonApp.sol\";\nimport \"@pando/core/contracts/organism/IOrganism.sol\";\nimport \"@pando/core/contracts/lib/Pando.sol\";\n\nimport \"./Genesis.sol\";\nimport \"./Lineage.sol\";\n\n\ncontract Organism is IOrganism, AragonApp {\n    bytes32 constant public CREATE_RFI_ROLE  = keccak256(\"CREATE_RFI_ROLE\");\n    bytes32 constant public MERGE_RFI_ROLE   = keccak256(\"MERGE_RFI_ROLE\");\n    bytes32 constant public REJECT_RFI_ROLE  = keccak256(\"REJECT_RFI_ROLE\");\n    bytes32 constant public ACCEPT_RFL_ROLE  = keccak256(\"ACCEPT_RFL_ROLE\");\n    bytes32 constant public REJECT_RFL_ROLE  = keccak256(\"REJECT_RFL_ROLE\");\n    bytes32 constant public INDIVIDUATE_ROLE = keccak256(\"INDIVIDUATE_ROLE\");\n\n    Genesis public genesis;\n    Lineage public lineage;\n    Pando   public pando;\n\n    // Use a mapping instead of an array to ease app upgrade\n    // See https://github.com/aragon/aragon-apps/pull/428\n    // See https://youtu.be/sJ7VECqHFAg?t=9m27s\n    mapping (uint256 => Pando.RFI) public RFIs;\n    mapping (uint256 => Pando.RFL) public RFLs;\n\n    uint256 public RFIsLength = 0;\n    uint256 public RFLsLength = 0;\n\n\n    event CreateRFI(uint256 indexed id);\n    event MergeRFI(uint256 indexed id);\n    event RejectRFI(uint256 indexed id);\n    event CancelRFI(uint256 indexed id);\n\n    event CreateRFL(uint256 indexed id);\n    event AcceptRFL(uint256 indexed id, uint256 value);\n    event RejectRFL(uint256 indexed id);\n    event CancelRFL(uint256 indexed id);\n    event IssueRFL(uint256 indexed id, address destination, uint256 value);\n\n    modifier RFIExists(uint256 _RFIid) {\n        require(_RFIid <= RFIsLength, \"RFI does not exist\");\n        _;\n    }\n\n    modifier RFLExists(uint256 _RFLid) {\n        require(_RFLid <= RFLsLength, \"RFL does not exist\");\n        _;\n    }\n\n    /*--------------------*/\n\n    function initialize(Pando _pando, Genesis _genesis, Lineage _lineage) external onlyInit {\n        initialized();\n        pando = _pando;\n        genesis = _genesis;\n        lineage = _lineage;\n    }\n\n    function createRFI(Pando.IIndividuation _individuation, Pando.ILineage[] _lineages)\n        public\n        isInitialized\n        auth(CREATE_RFI_ROLE)\n        returns (uint256 RFIid)\n    {\n        RFIid = _createRFI(_individuation, _lineages);\n    }\n\n    function mergeRFI(uint256 _RFIid) public auth(MERGE_RFI_ROLE) {\n        require(canMergeRFI(_RFIid), \"cannot merge RFI\");\n        _mergeRFI(_RFIid);\n    }\n\n    function rejectRFI(uint256 _RFIid) public auth(REJECT_RFI_ROLE) {\n        require(canRejectRFI(_RFIid), \"cannot reject RFI\");\n        _rejectRFI(_RFIid);\n    }\n\n    function acceptRFL(uint256 _RFLid, uint256 _value) public auth(ACCEPT_RFL_ROLE) {\n        require(canAcceptRFL(_RFLid, _value), \"cannot accept RFL\");\n        _acceptRFL(_RFLid, _value);\n    }\n\n    function rejectRFL(uint256 _RFLid) public isInitialized auth(REJECT_RFL_ROLE) {\n        require(canRejectRFL(_RFLid), \"cannot reject RFL\");\n        _rejectRFL(_RFLid);\n    }\n\n    /*--------------------*/\n\n    function canMergeRFI(uint256 _RFIid) public view returns (bool) {\n        if (_RFIid > RFIsLength)\n            return false;\n        Pando.RFI storage RFI = RFIs[_RFIid];\n        if (RFI.state != Pando.RFIState.Pending)\n            return false;\n        for (uint256 i = 0; i < RFI.RFLids.length; i++) {\n            Pando.RFL storage RFL = RFLs[RFI.RFLids[i]];\n            if (RFL.state != Pando.RFLState.Accepted)\n                return false;\n        }\n        return true;\n    }\n\n    function canRejectRFI(uint _RFIid) public view returns (bool) {\n        if (_RFIid > RFIsLength)\n            return false;\n        if (RFIs[_RFIid].state != Pando.RFIState.Pending)\n            return false;\n        return true;\n    }\n\n    function canAcceptRFL(uint256 _RFLid, uint256 _value) public view returns (bool) {\n        if (_RFLid > RFLsLength)\n            return false;\n        if (RFLs[_RFLid].state != Pando.RFLState.Pending)\n            return false;\n        if (_value < RFLs[_RFLid].lineage.minimum)\n            return false;\n        return true;\n    }\n\n    function canRejectRFL(uint _RFLid) public view returns (bool) {\n        if (_RFLid > RFLsLength)\n            return false;\n        if (RFLs[_RFLid].state != Pando.RFLState.Pending)\n            return false;\n        return true;\n    }\n\n    /*--------------------*/\n\n    /* function getLineageToken() public view returns (address) {\n        return address(lineage.token());\n    } */\n\n\n    function getRFI(uint256 _RFIid) public view RFIExists(_RFIid) returns (Pando.RFI) {\n        return RFIs[_RFIid];\n    }\n\n    function getRFL(uint256 _RFLid) public view RFLExists(_RFLid) returns (Pando.RFL) {\n        return RFLs[_RFLid];\n    }\n\n    function getIndividuationHash(Pando.Individuation _individuation) public view returns (bytes32) {\n        return pando.hash(_individuation);\n    }\n\n    function head() public view returns (bytes32) {\n        return genesis.head();\n    }\n\n    function getHead() public view returns (Pando.Individuation) {\n        return genesis.getHead();\n    }\n\n    /*--------------------*/\n\n    function _createRFI(Pando.IIndividuation _individuation, Pando.ILineage[] _lineages) internal returns (uint256 RFIid) {\n        // msg.sender is gonna be the address of a governance kit built on top of the API\n        // Do you we wanna make sure that the transaction is actually initialized by _individuation.origin ?\n        // If this is the case then we're gonna need to ask for a proof of identity through a ECDSA signature\n        // See https://github.com/OpenZeppelin/openzeppelin-solidity/blob/master/contracts/cryptography/ECDSA.sol\n\n        RFIsLength = RFIsLength + 1;\n        RFIid = RFIsLength;\n\n        Pando.RFI storage RFI = RFIs[RFIid];\n\n        RFI.individuation.metadata = _individuation.metadata;\n        RFI.blockstamp = block.number;\n        RFI.state = Pando.RFIState.Pending;\n\n        for (uint256 j = 0; j < _lineages.length; j++) {\n            uint256 RFLid = _createRFL(_lineages[j], RFIid);\n            uint256 index = RFI.RFLids.length++;\n            RFI.RFLids[index] = RFLid;\n        }\n\n        emit CreateRFI(RFIid);\n    }\n\n    function _mergeRFI(uint256 _RFIid) internal {\n        Pando.RFI storage RFI = RFIs[_RFIid];\n\n        RFI.state = Pando.RFIState.Merged;\n\n        genesis.individuate(RFI.individuation);\n\n        for (uint256 i = 0; i < RFI.RFLids.length; i++) {\n            _issueRFL(RFI.RFLids[i]);\n        }\n\n        emit MergeRFI(_RFIid);\n    }\n\n    function _rejectRFI(uint256 _RFIid) internal {\n        Pando.RFI storage RFI = RFIs[_RFIid];\n\n        RFI.state = Pando.RFIState.Rejected;\n\n        for (uint256 j = 0; j < RFI.RFLids.length; j++) {\n            _cancelRFL(RFI.RFLids[j]);\n        }\n\n        emit RejectRFI(_RFIid);\n    }\n\n    function _cancelRFI(uint256 _RFIid) internal {\n        Pando.RFI storage RFI = RFIs[_RFIid];\n\n        RFI.state = Pando.RFIState.Cancelled;\n\n        for (uint256 i = 0; i < RFI.RFLids.length; i++) {\n            Pando.RFL storage RFL = RFLs[RFI.RFLids[i]];\n\n            if (RFL.state != Pando.RFLState.Rejected)\n                _cancelRFL(RFI.RFLids[i]);\n        }\n\n        emit CancelRFI(_RFIid);\n    }\n\n    function _createRFL(Pando.ILineage _lineage, uint256 _RFIid) internal returns (uint256 RFLid) {\n        RFLsLength = RFLsLength + 1;\n        RFLid = RFLsLength;\n\n        Pando.RFL storage RFL = RFLs[RFLid];\n\n        RFL.lineage.destination = _lineage.destination;\n        RFL.lineage.minimum = _lineage.minimum;\n        RFL.lineage.metadata = _lineage.metadata;\n        RFL.blockstamp = block.number;\n        RFL.value = 0;\n        RFL.state = Pando.RFLState.Pending;\n        RFL.RFIid = _RFIid;\n\n        emit CreateRFL(RFLid);\n    }\n\n    function _acceptRFL(uint256 _RFLid, uint256 _value) internal {\n        Pando.RFL storage rfl = RFLs[_RFLid];\n\n        rfl.state = Pando.RFLState.Accepted;\n        rfl.value = _value;\n\n        emit AcceptRFL(_RFLid, _value);\n    }\n\n    function _rejectRFL(uint256 _RFLid) internal {\n        Pando.RFL storage rfl = RFLs[_RFLid];\n\n        rfl.state = Pando.RFLState.Rejected;\n\n        _cancelRFI(rfl.RFIid);\n\n        emit RejectRFL(_RFLid);\n    }\n\n    function _cancelRFL(uint256 _RFLid) internal {\n        Pando.RFL storage rfl = RFLs[_RFLid];\n\n        rfl.state = Pando.RFLState.Cancelled;\n\n        emit CancelRFL(_RFLid);\n    }\n\n    function _issueRFL(uint256 _RFLid) internal {\n        Pando.RFL storage rfl = RFLs[_RFLid];\n\n        rfl.state = Pando.RFLState.Issued;\n\n        lineage.mint(rfl.lineage.destination, rfl.value);\n\n        emit IssueRFL(_RFLid, rfl.lineage.destination, rfl.value);\n    }\n}\n",
  "sourcePath": "/Users/osarrouy/Documents/devs/@pando/packages/organism/contracts/Organism.sol",
  "compiler": {
    "name": "solc",
    "version": "0.4.24+commit.e67f0147.Emscripten.clang"
  },
  "schemaVersion": "3.0.0-beta.2",
  "updatedAt": "2019-01-14T15:06:23.107Z",
  "devdoc": {
    "methods": {
      "allowRecoverability(address)": {
        "details": "By default deriving from AragonApp makes it recoverable",
        "params": {
          "token": "Token address that would be recovered"
        },
        "return": "bool whether the app allows the recovery"
      },
      "canPerform(address,bytes32,uint256[])": {
        "details": "Check whether an action can be performed by a sender for a particular role on this app",
        "params": {
          "_params": "Permission params for the role",
          "_role": "Role on this app",
          "_sender": "Sender of the call"
        },
        "return": "Boolean indicating whether the sender has the permissions to perform the action.        Always returns false if the app hasn't been initialized yet."
      },
      "getInitializationBlock()": {
        "return": "Block number in which the contract was initialized"
      },
      "getRecoveryVault()": {
        "details": "Get the recovery vault for the app",
        "return": "Recovery vault address for the app"
      },
      "hasInitialized()": {
        "return": "Whether the contract has been initialized by the time of the current block"
      },
      "transferToVault(address)": {
        "params": {
          "_token": "Token balance to be sent to recovery vault."
        }
      }
    }
  },
  "userdoc": {
    "methods": {
      "transferToVault(address)": {
        "notice": "Send funds to recovery Vault. This contract should never receive funds,        but in case it does, this function allows one to recover them."
      }
    }
  }
}