{
  "contractName": "Organism",
  "abi": [
    {
      "constant": true,
      "inputs": [],
      "name": "hasInitialized",
      "outputs": [
        {
          "name": "",
          "type": "bool"
        }
      ],
      "payable": false,
      "stateMutability": "view",
      "type": "function"
    },
    {
      "constant": true,
      "inputs": [],
      "name": "REJECT_RFL_ROLE",
      "outputs": [
        {
          "name": "",
          "type": "bytes32"
        }
      ],
      "payable": false,
      "stateMutability": "view",
      "type": "function"
    },
    {
      "constant": true,
      "inputs": [],
      "name": "RFLsLength",
      "outputs": [
        {
          "name": "",
          "type": "uint256"
        }
      ],
      "payable": false,
      "stateMutability": "view",
      "type": "function"
    },
    {
      "constant": true,
      "inputs": [
        {
          "name": "_script",
          "type": "bytes"
        }
      ],
      "name": "getEVMScriptExecutor",
      "outputs": [
        {
          "name": "",
          "type": "address"
        }
      ],
      "payable": false,
      "stateMutability": "view",
      "type": "function"
    },
    {
      "constant": true,
      "inputs": [],
      "name": "CREATE_RFI_ROLE",
      "outputs": [
        {
          "name": "",
          "type": "bytes32"
        }
      ],
      "payable": false,
      "stateMutability": "view",
      "type": "function"
    },
    {
      "constant": true,
      "inputs": [],
      "name": "MERGE_RFI_ROLE",
      "outputs": [
        {
          "name": "",
          "type": "bytes32"
        }
      ],
      "payable": false,
      "stateMutability": "view",
      "type": "function"
    },
    {
      "constant": true,
      "inputs": [],
      "name": "getRecoveryVault",
      "outputs": [
        {
          "name": "",
          "type": "address"
        }
      ],
      "payable": false,
      "stateMutability": "view",
      "type": "function"
    },
    {
      "constant": true,
      "inputs": [],
      "name": "pando",
      "outputs": [
        {
          "name": "",
          "type": "address"
        }
      ],
      "payable": false,
      "stateMutability": "view",
      "type": "function"
    },
    {
      "constant": true,
      "inputs": [
        {
          "name": "",
          "type": "uint256"
        }
      ],
      "name": "RFIs",
      "outputs": [
        {
          "components": [
            {
              "name": "metadata",
              "type": "string"
            }
          ],
          "name": "individuation",
          "type": "tuple"
        },
        {
          "name": "blockstamp",
          "type": "uint256"
        },
        {
          "name": "state",
          "type": "uint8"
        }
      ],
      "payable": false,
      "stateMutability": "view",
      "type": "function"
    },
    {
      "constant": true,
      "inputs": [
        {
          "name": "token",
          "type": "address"
        }
      ],
      "name": "allowRecoverability",
      "outputs": [
        {
          "name": "",
          "type": "bool"
        }
      ],
      "payable": false,
      "stateMutability": "view",
      "type": "function"
    },
    {
      "constant": true,
      "inputs": [],
      "name": "RFIsLength",
      "outputs": [
        {
          "name": "",
          "type": "uint256"
        }
      ],
      "payable": false,
      "stateMutability": "view",
      "type": "function"
    },
    {
      "constant": true,
      "inputs": [],
      "name": "appId",
      "outputs": [
        {
          "name": "",
          "type": "bytes32"
        }
      ],
      "payable": false,
      "stateMutability": "view",
      "type": "function"
    },
    {
      "constant": true,
      "inputs": [],
      "name": "getInitializationBlock",
      "outputs": [
        {
          "name": "",
          "type": "uint256"
        }
      ],
      "payable": false,
      "stateMutability": "view",
      "type": "function"
    },
    {
      "constant": true,
      "inputs": [],
      "name": "REJECT_RFI_ROLE",
      "outputs": [
        {
          "name": "",
          "type": "bytes32"
        }
      ],
      "payable": false,
      "stateMutability": "view",
      "type": "function"
    },
    {
      "constant": false,
      "inputs": [
        {
          "name": "_token",
          "type": "address"
        }
      ],
      "name": "transferToVault",
      "outputs": [],
      "payable": false,
      "stateMutability": "nonpayable",
      "type": "function"
    },
    {
      "constant": true,
      "inputs": [
        {
          "name": "_sender",
          "type": "address"
        },
        {
          "name": "_role",
          "type": "bytes32"
        },
        {
          "name": "_params",
          "type": "uint256[]"
        }
      ],
      "name": "canPerform",
      "outputs": [
        {
          "name": "",
          "type": "bool"
        }
      ],
      "payable": false,
      "stateMutability": "view",
      "type": "function"
    },
    {
      "constant": true,
      "inputs": [],
      "name": "getEVMScriptRegistry",
      "outputs": [
        {
          "name": "",
          "type": "address"
        }
      ],
      "payable": false,
      "stateMutability": "view",
      "type": "function"
    },
    {
      "constant": true,
      "inputs": [],
      "name": "genesis",
      "outputs": [
        {
          "name": "",
          "type": "address"
        }
      ],
      "payable": false,
      "stateMutability": "view",
      "type": "function"
    },
    {
      "constant": true,
      "inputs": [],
      "name": "ACCEPT_RFL_ROLE",
      "outputs": [
        {
          "name": "",
          "type": "bytes32"
        }
      ],
      "payable": false,
      "stateMutability": "view",
      "type": "function"
    },
    {
      "constant": true,
      "inputs": [],
      "name": "INDIVIDUATE_ROLE",
      "outputs": [
        {
          "name": "",
          "type": "bytes32"
        }
      ],
      "payable": false,
      "stateMutability": "view",
      "type": "function"
    },
    {
      "constant": true,
      "inputs": [
        {
          "name": "",
          "type": "uint256"
        }
      ],
      "name": "RFLs",
      "outputs": [
        {
          "components": [
            {
              "name": "destination",
              "type": "address"
            },
            {
              "name": "minimum",
              "type": "uint256"
            },
            {
              "name": "metadata",
              "type": "string"
            }
          ],
          "name": "lineage",
          "type": "tuple"
        },
        {
          "name": "blockstamp",
          "type": "uint256"
        },
        {
          "name": "value",
          "type": "uint256"
        },
        {
          "name": "state",
          "type": "uint8"
        },
        {
          "name": "RFIid",
          "type": "uint256"
        }
      ],
      "payable": false,
      "stateMutability": "view",
      "type": "function"
    },
    {
      "constant": true,
      "inputs": [],
      "name": "lineage",
      "outputs": [
        {
          "name": "",
          "type": "address"
        }
      ],
      "payable": false,
      "stateMutability": "view",
      "type": "function"
    },
    {
      "constant": true,
      "inputs": [],
      "name": "kernel",
      "outputs": [
        {
          "name": "",
          "type": "address"
        }
      ],
      "payable": false,
      "stateMutability": "view",
      "type": "function"
    },
    {
      "constant": true,
      "inputs": [],
      "name": "isPetrified",
      "outputs": [
        {
          "name": "",
          "type": "bool"
        }
      ],
      "payable": false,
      "stateMutability": "view",
      "type": "function"
    },
    {
      "anonymous": false,
      "inputs": [
        {
          "indexed": true,
          "name": "id",
          "type": "uint256"
        }
      ],
      "name": "CreateRFI",
      "type": "event"
    },
    {
      "anonymous": false,
      "inputs": [
        {
          "indexed": true,
          "name": "id",
          "type": "uint256"
        }
      ],
      "name": "MergeRFI",
      "type": "event"
    },
    {
      "anonymous": false,
      "inputs": [
        {
          "indexed": true,
          "name": "id",
          "type": "uint256"
        }
      ],
      "name": "RejectRFI",
      "type": "event"
    },
    {
      "anonymous": false,
      "inputs": [
        {
          "indexed": true,
          "name": "id",
          "type": "uint256"
        }
      ],
      "name": "CancelRFI",
      "type": "event"
    },
    {
      "anonymous": false,
      "inputs": [
        {
          "indexed": true,
          "name": "id",
          "type": "uint256"
        }
      ],
      "name": "CreateRFL",
      "type": "event"
    },
    {
      "anonymous": false,
      "inputs": [
        {
          "indexed": true,
          "name": "id",
          "type": "uint256"
        },
        {
          "indexed": false,
          "name": "value",
          "type": "uint256"
        }
      ],
      "name": "AcceptRFL",
      "type": "event"
    },
    {
      "anonymous": false,
      "inputs": [
        {
          "indexed": true,
          "name": "id",
          "type": "uint256"
        }
      ],
      "name": "RejectRFL",
      "type": "event"
    },
    {
      "anonymous": false,
      "inputs": [
        {
          "indexed": true,
          "name": "id",
          "type": "uint256"
        }
      ],
      "name": "CancelRFL",
      "type": "event"
    },
    {
      "anonymous": false,
      "inputs": [
        {
          "indexed": true,
          "name": "id",
          "type": "uint256"
        },
        {
          "indexed": false,
          "name": "destination",
          "type": "address"
        },
        {
          "indexed": false,
          "name": "value",
          "type": "uint256"
        }
      ],
      "name": "IssueRFL",
      "type": "event"
    },
    {
      "anonymous": false,
      "inputs": [
        {
          "indexed": true,
          "name": "executor",
          "type": "address"
        },
        {
          "indexed": false,
          "name": "script",
          "type": "bytes"
        },
        {
          "indexed": false,
          "name": "input",
          "type": "bytes"
        },
        {
          "indexed": false,
          "name": "returnData",
          "type": "bytes"
        }
      ],
      "name": "ScriptResult",
      "type": "event"
    },
    {
      "constant": false,
      "inputs": [
        {
          "name": "_pando",
          "type": "address"
        },
        {
          "name": "_genesis",
          "type": "address"
        },
        {
          "name": "_lineage",
          "type": "address"
        }
      ],
      "name": "initialize",
      "outputs": [],
      "payable": false,
      "stateMutability": "nonpayable",
      "type": "function"
    },
    {
      "constant": false,
      "inputs": [
        {
          "components": [
            {
              "name": "metadata",
              "type": "string"
            }
          ],
          "name": "_individuation",
          "type": "tuple"
        },
        {
          "components": [
            {
              "name": "destination",
              "type": "address"
            },
            {
              "name": "minimum",
              "type": "uint256"
            },
            {
              "name": "metadata",
              "type": "string"
            }
          ],
          "name": "_lineages",
          "type": "tuple[]"
        }
      ],
      "name": "createRFI",
      "outputs": [
        {
          "name": "RFIid",
          "type": "uint256"
        }
      ],
      "payable": false,
      "stateMutability": "nonpayable",
      "type": "function"
    },
    {
      "constant": false,
      "inputs": [
        {
          "name": "_RFIid",
          "type": "uint256"
        }
      ],
      "name": "mergeRFI",
      "outputs": [],
      "payable": false,
      "stateMutability": "nonpayable",
      "type": "function"
    },
    {
      "constant": false,
      "inputs": [
        {
          "name": "_RFIid",
          "type": "uint256"
        }
      ],
      "name": "rejectRFI",
      "outputs": [],
      "payable": false,
      "stateMutability": "nonpayable",
      "type": "function"
    },
    {
      "constant": false,
      "inputs": [
        {
          "name": "_RFLid",
          "type": "uint256"
        },
        {
          "name": "_value",
          "type": "uint256"
        }
      ],
      "name": "acceptRFL",
      "outputs": [],
      "payable": false,
      "stateMutability": "nonpayable",
      "type": "function"
    },
    {
      "constant": false,
      "inputs": [
        {
          "name": "_RFLid",
          "type": "uint256"
        }
      ],
      "name": "rejectRFL",
      "outputs": [],
      "payable": false,
      "stateMutability": "nonpayable",
      "type": "function"
    },
    {
      "constant": true,
      "inputs": [
        {
          "name": "_RFIid",
          "type": "uint256"
        }
      ],
      "name": "canMergeRFI",
      "outputs": [
        {
          "name": "",
          "type": "bool"
        }
      ],
      "payable": false,
      "stateMutability": "view",
      "type": "function"
    },
    {
      "constant": true,
      "inputs": [
        {
          "name": "_RFIid",
          "type": "uint256"
        }
      ],
      "name": "canRejectRFI",
      "outputs": [
        {
          "name": "",
          "type": "bool"
        }
      ],
      "payable": false,
      "stateMutability": "view",
      "type": "function"
    },
    {
      "constant": true,
      "inputs": [
        {
          "name": "_RFLid",
          "type": "uint256"
        },
        {
          "name": "_value",
          "type": "uint256"
        }
      ],
      "name": "canAcceptRFL",
      "outputs": [
        {
          "name": "",
          "type": "bool"
        }
      ],
      "payable": false,
      "stateMutability": "view",
      "type": "function"
    },
    {
      "constant": true,
      "inputs": [
        {
          "name": "_RFLid",
          "type": "uint256"
        }
      ],
      "name": "canRejectRFL",
      "outputs": [
        {
          "name": "",
          "type": "bool"
        }
      ],
      "payable": false,
      "stateMutability": "view",
      "type": "function"
    },
    {
      "constant": true,
      "inputs": [],
      "name": "getLineageToken",
      "outputs": [
        {
          "name": "",
          "type": "address"
        }
      ],
      "payable": false,
      "stateMutability": "view",
      "type": "function"
    },
    {
      "constant": true,
      "inputs": [
        {
          "name": "_RFIid",
          "type": "uint256"
        }
      ],
      "name": "getRFI",
      "outputs": [
        {
          "components": [
            {
              "components": [
                {
                  "name": "metadata",
                  "type": "string"
                }
              ],
              "name": "individuation",
              "type": "tuple"
            },
            {
              "name": "blockstamp",
              "type": "uint256"
            },
            {
              "name": "state",
              "type": "uint8"
            },
            {
              "name": "RFLids",
              "type": "uint256[]"
            }
          ],
          "name": "",
          "type": "tuple"
        }
      ],
      "payable": false,
      "stateMutability": "view",
      "type": "function"
    },
    {
      "constant": true,
      "inputs": [
        {
          "name": "_RFLid",
          "type": "uint256"
        }
      ],
      "name": "getRFL",
      "outputs": [
        {
          "components": [
            {
              "components": [
                {
                  "name": "destination",
                  "type": "address"
                },
                {
                  "name": "minimum",
                  "type": "uint256"
                },
                {
                  "name": "metadata",
                  "type": "string"
                }
              ],
              "name": "lineage",
              "type": "tuple"
            },
            {
              "name": "blockstamp",
              "type": "uint256"
            },
            {
              "name": "value",
              "type": "uint256"
            },
            {
              "name": "state",
              "type": "uint8"
            },
            {
              "name": "RFIid",
              "type": "uint256"
            }
          ],
          "name": "",
          "type": "tuple"
        }
      ],
      "payable": false,
      "stateMutability": "view",
      "type": "function"
    },
    {
      "constant": true,
      "inputs": [
        {
          "components": [
            {
              "name": "blockstamp",
              "type": "uint256"
            },
            {
              "name": "metadata",
              "type": "string"
            }
          ],
          "name": "_individuation",
          "type": "tuple"
        }
      ],
      "name": "getIndividuationHash",
      "outputs": [
        {
          "name": "",
          "type": "bytes32"
        }
      ],
      "payable": false,
      "stateMutability": "view",
      "type": "function"
    },
    {
      "constant": true,
      "inputs": [],
      "name": "head",
      "outputs": [
        {
          "name": "",
          "type": "bytes32"
        }
      ],
      "payable": false,
      "stateMutability": "view",
      "type": "function"
    },
    {
      "constant": true,
      "inputs": [],
      "name": "getHead",
      "outputs": [
        {
          "components": [
            {
              "name": "blockstamp",
              "type": "uint256"
            },
            {
              "name": "metadata",
              "type": "string"
            }
          ],
          "name": "",
          "type": "tuple"
        }
      ],
      "payable": false,
      "stateMutability": "view",
      "type": "function"
    }
  ],
  "bytecode": "0x608060405260006005556000600655620000276200002d640100000000026401000000009004565b620002f9565b60006200004862000102640100000000026401000000009004565b146040805190810160405280601881526020017f494e49545f414c52454144595f494e495449414c495a45440000000000000000815250901515620000c5576040517f08c379a0000000000000000000000000000000000000000000000000000000008152600401620000bc919062000283565b60405180910390fd5b50620001007fffffffffffffffffffffffffffffffffffffffffffffffffffffffffffffffff6200014f640100000000026401000000009004565b565b60006200014a7febb05b386a8d34882b8711d156f463690983dc47815980fb82aeeff1aa43579e600102600019166200023564010000000002620029b5176401000000009004565b905090565b60006200016a62000102640100000000026401000000009004565b146040805190810160405280601881526020017f494e49545f414c52454144595f494e495449414c495a45440000000000000000815250901515620001e7576040517f08c379a0000000000000000000000000000000000000000000000000000000008152600401620001de919062000283565b60405180910390fd5b5062000232817febb05b386a8d34882b8711d156f463690983dc47815980fb82aeeff1aa43579e60010260001916620002406401000000000262002ee6179091906401000000009004565b50565b600081549050919050565b8082555050565b60006200025482620002a7565b8084526200026a816020860160208601620002b2565b6200027581620002e8565b602085010191505092915050565b600060208201905081810360008301526200029f818462000247565b905092915050565b600081519050919050565b60005b83811015620002d2578082015181840152602081019050620002b5565b83811115620002e2576000848401525b50505050565b6000601f19601f8301169050919050565b61465f80620003096000396000f3006080604052600436106101ee576000357c0100000000000000000000000000000000000000000000000000000000900463ffffffff1680630803fac0146101f3578063082367801461021e578063103a90c814610249578063143700be146102745780632914b9bd1461029f5780632adab4ea146102dc5780632d2e80121461030757806331f700961461033257806332f0a3b51461036f57806333ff68701461039a5780634752915d146103d75780634844c28d146104145780635bddb4201461043f5780636d5f5ca71461047e5780636e0b314c146104a7578063748b052c146104d05780637e7db6e1146104f957806380201af21461053657806380afdea814610561578063889bd35d1461058c5780638b3dd749146105c95780638f7dcfa3146105f457806397569bb11461061f5780639bdc706d1461064a5780639d4941d814610687578063a1658fad146106b0578063a479e508146106ed578063a7f0b3de14610718578063b462e70b14610743578063c0c53b8b1461076e578063c34e0ed614610797578063c3eefd1e146107c2578063c538f7de146107ff578063c74656e714610840578063d4aae0c41461086b578063dc281aff14610896578063ddf6fa9c146108c1578063de4796ed146108ea578063e8606afc14610915578063fec7d70b14610952575b600080fd5b3480156101ff57600080fd5b5061020861098f565b6040516102159190613fad565b60405180910390f35b34801561022a57600080fd5b506102336109ba565b6040516102409190613fc8565b60405180910390f35b34801561025557600080fd5b5061025e6109f3565b60405161026b91906142ed565b60405180910390f35b34801561028057600080fd5b506102896109f9565b6040516102969190613f1d565b60405180910390f35b3480156102ab57600080fd5b506102c660048036036102c191908101906137a3565b610abe565b6040516102d39190614049565b60405180910390f35b3480156102e857600080fd5b506102f1610b75565b6040516102fe9190613fc8565b60405180910390f35b34801561031357600080fd5b5061031c610bae565b6040516103299190613fc8565b60405180910390f35b34801561033e57600080fd5b5061035960048036036103549190810190613885565b610be7565b60405161036691906142ed565b60405180910390f35b34801561037b57600080fd5b50610384610d69565b6040516103919190613f1d565b60405180910390f35b3480156103a657600080fd5b506103c160048036036103bc9190810190613973565b610e13565b6040516103ce9190613fad565b60405180910390f35b3480156103e357600080fd5b506103fe60048036036103f991908101906139c5565b610e7e565b60405161040b9190613fad565b60405180910390f35b34801561042057600080fd5b50610429610f14565b60405161043691906140b5565b60405180910390f35b34801561044b57600080fd5b5061046660048036036104619190810190613973565b610f3a565b604051610475939291906141cd565b60405180910390f35b34801561048a57600080fd5b506104a560048036036104a091908101906139c5565b61101e565b005b3480156104b357600080fd5b506104ce60048036036104c99190810190613973565b611163565b005b3480156104dc57600080fd5b506104f760048036036104f29190810190613973565b611327565b005b34801561050557600080fd5b50610520600480360361051b9190810190613698565b611469565b60405161052d9190613fad565b60405180910390f35b34801561054257600080fd5b5061054b611474565b60405161055891906142ed565b60405180910390f35b34801561056d57600080fd5b5061057661147a565b6040516105839190613fc8565b60405180910390f35b34801561059857600080fd5b506105b360048036036105ae9190810190613973565b6114b1565b6040516105c091906142cb565b60405180910390f35b3480156105d557600080fd5b506105de61168a565b6040516105eb91906142ed565b60405180910390f35b34801561060057600080fd5b506106096116c1565b6040516106169190613fc8565b60405180910390f35b34801561062b57600080fd5b50610634611785565b6040516106419190613fc8565b60405180910390f35b34801561065657600080fd5b50610671600480360361066c9190810190613973565b6117be565b60405161067e9190613fad565b60405180910390f35b34801561069357600080fd5b506106ae60048036036106a99190810190613698565b611829565b005b3480156106bc57600080fd5b506106d760048036036106d291908101906136ea565b611b2d565b6040516106e49190613fad565b60405180910390f35b3480156106f957600080fd5b50610702611c5a565b60405161070f9190614064565b60405180910390f35b34801561072457600080fd5b5061072d611d5c565b60405161073a919061402e565b60405180910390f35b34801561074f57600080fd5b50610758611d81565b6040516107659190613fc8565b60405180910390f35b34801561077a57600080fd5b5061079560048036036107909190810190613836565b611dba565b005b3480156107a357600080fd5b506107ac611f0e565b6040516107b99190613fc8565b60405180910390f35b3480156107ce57600080fd5b506107e960048036036107e49190810190613973565b611f47565b6040516107f69190613fad565b60405180910390f35b34801561080b57600080fd5b5061082660048036036108219190810190613973565b612047565b60405161083795949392919061422d565b60405180910390f35b34801561084c57600080fd5b50610855612197565b604051610862919061409a565b60405180910390f35b34801561087757600080fd5b506108806121bd565b60405161088d919061407f565b60405180910390f35b3480156108a257600080fd5b506108ab6121f4565b6040516108b89190614287565b60405180910390f35b3480156108cd57600080fd5b506108e860048036036108e39190810190613973565b6122c3565b005b3480156108f657600080fd5b506108ff612405565b60405161090c9190613fad565b60405180910390f35b34801561092157600080fd5b5061093c600480360361093791908101906138f1565b612436565b6040516109499190613fc8565b60405180910390f35b34801561095e57600080fd5b5061097960048036036109749190810190613973565b612508565b60405161098691906142a9565b60405180910390f35b60008061099a61168a565b9050600081141580156109b45750806109b16126c5565b10155b91505090565b60405180807f52454a4543545f52464c5f524f4c450000000000000000000000000000000000815250600f019050604051809103902081565b60065481565b6000600160009054906101000a900473ffffffffffffffffffffffffffffffffffffffff1673ffffffffffffffffffffffffffffffffffffffff1663fc0c546a6040518163ffffffff167c0100000000000000000000000000000000000000000000000000000000028152600401602060405180830381600087803b158015610a8157600080fd5b505af1158015610a95573d6000803e3d6000fd5b505050506040513d601f19601f82011682018060405250610ab9919081019061380d565b905090565b6000610ac8611c5a565b73ffffffffffffffffffffffffffffffffffffffff166304bf2a7f836040518263ffffffff167c0100000000000000000000000000000000000000000000000000000000028152600401610b1c919061400c565b602060405180830381600087803b158015610b3657600080fd5b505af1158015610b4a573d6000803e3d6000fd5b505050506040513d601f19601f82011682018060405250610b6e91908101906137e4565b9050919050565b60405180807f4352454154455f5246495f524f4c450000000000000000000000000000000000815250600f019050604051809103902081565b60405180807f4d455247455f5246495f524f4c45000000000000000000000000000000000000815250600e019050604051809103902081565b6000610bf161098f565b6040805190810160405280601481526020017f494e49545f4e4f545f494e495449414c495a4544000000000000000000000000815250901515610c6a576040517f08c379a0000000000000000000000000000000000000000000000000000000008152600401610c6191906140eb565b60405180910390fd5b5060405180807f4352454154455f5246495f524f4c450000000000000000000000000000000000815250600f0190506040518091039020610cdc33826000604051908082528060200260200182016040528015610cd65781602001602082028038833980820191505090505b50611b2d565b6040805190810160405280600f81526020017f4150505f415554485f4641494c45440000000000000000000000000000000000815250901515610d55576040517f08c379a0000000000000000000000000000000000000000000000000000000008152600401610d4c91906140eb565b60405180910390fd5b50610d6084846126cd565b91505092915050565b6000610d736121bd565b73ffffffffffffffffffffffffffffffffffffffff166332f0a3b56040518163ffffffff167c0100000000000000000000000000000000000000000000000000000000028152600401602060405180830381600087803b158015610dd657600080fd5b505af1158015610dea573d6000803e3d6000fd5b505050506040513d601f19601f82011682018060405250610e0e91908101906136c1565b905090565b6000600654821115610e285760009050610e79565b60006004811115610e3557fe5b6004600084815260200190815260200160002060050160009054906101000a900460ff166004811115610e6457fe5b141515610e745760009050610e79565b600190505b919050565b6000600654831115610e935760009050610f0e565b60006004811115610ea057fe5b6004600085815260200190815260200160002060050160009054906101000a900460ff166004811115610ecf57fe5b141515610edf5760009050610f0e565b6004600084815260200190815260200160002060000160010154821015610f095760009050610f0e565b600190505b92915050565b600260009054906101000a900473ffffffffffffffffffffffffffffffffffffffff1681565b60036020528060005260406000206000915090508060000160206040519081016040529081600082018054600181600116156101000203166002900480601f016020809104026020016040519081016040528092919081815260200182805460018160011615610100020316600290048015610ff75780601f10610fcc57610100808354040283529160200191610ff7565b820191906000526020600020905b815481529060010190602001808311610fda57829003601f168201915b505050505081525050908060010154908060020160009054906101000a900460ff16905083565b60405180807f4143434550545f52464c5f524f4c450000000000000000000000000000000000815250600f019050604051809103902061108f338260006040519080825280602002602001820160405280156110895781602001602082028038833980820191505090505b50611b2d565b6040805190810160405280600f81526020017f4150505f415554485f4641494c45440000000000000000000000000000000000815250901515611108576040517f08c379a00000000000000000000000000000000000000000000000000000000081526004016110ff91906140eb565b60405180910390fd5b506111138383610e7e565b1515611154576040517f08c379a000000000000000000000000000000000000000000000000000000000815260040161114b9061410d565b60405180910390fd5b61115e83836127f7565b505050565b61116b61098f565b6040805190810160405280601481526020017f494e49545f4e4f545f494e495449414c495a45440000000000000000000000008152509015156111e4576040517f08c379a00000000000000000000000000000000000000000000000000000000081526004016111db91906140eb565b60405180910390fd5b5060405180807f52454a4543545f52464c5f524f4c450000000000000000000000000000000000815250600f0190506040518091039020611256338260006040519080825280602002602001820160405280156112505781602001602082028038833980820191505090505b50611b2d565b6040805190810160405280600f81526020017f4150505f415554485f4641494c454400000000000000000000000000000000008152509015156112cf576040517f08c379a00000000000000000000000000000000000000000000000000000000081526004016112c691906140eb565b60405180910390fd5b506112d982610e13565b151561131a576040517f08c379a00000000000000000000000000000000000000000000000000000000081526004016113119061412d565b60405180910390fd5b6113238261287a565b5050565b60405180807f52454a4543545f5246495f524f4c450000000000000000000000000000000000815250600f0190506040518091039020611398338260006040519080825280602002602001820160405280156113925781602001602082028038833980820191505090505b50611b2d565b6040805190810160405280600f81526020017f4150505f415554485f4641494c45440000000000000000000000000000000000815250901515611411576040517f08c379a000000000000000000000000000000000000000000000000000000000815260040161140891906140eb565b60405180910390fd5b5061141b826117be565b151561145c576040517f08c379a00000000000000000000000000000000000000000000000000000000081526004016114539061418d565b60405180910390fd5b611465826128f5565b5050565b600060019050919050565b60055481565b60006114ac7fd625496217aa6a3453eecb9c3489dc5a53e6c67b444329ea2b2cbc9ff547639b600102600019166129aa565b905090565b6114b9613069565b816006548111151515611501576040517f08c379a00000000000000000000000000000000000000000000000000000000081526004016114f89061414d565b60405180910390fd5b6004600084815260200190815260200160002060a0604051908101604052908160008201606060405190810160405290816000820160009054906101000a900473ffffffffffffffffffffffffffffffffffffffff1673ffffffffffffffffffffffffffffffffffffffff1673ffffffffffffffffffffffffffffffffffffffff16815260200160018201548152602001600282018054600181600116156101000203166002900480601f01602080910402602001604051908101604052809291908181526020018280546001816001161561010002031660029004801561162a5780601f106115ff5761010080835404028352916020019161162a565b820191906000526020600020905b81548152906001019060200180831161160d57829003601f168201915b505050505081525050815260200160038201548152602001600482015481526020016005820160009054906101000a900460ff16600481111561166957fe5b600481111561167457fe5b8152602001600682015481525050915050919050565b60006116bc7febb05b386a8d34882b8711d156f463690983dc47815980fb82aeeff1aa43579e600102600019166129b5565b905090565b60008060009054906101000a900473ffffffffffffffffffffffffffffffffffffffff1673ffffffffffffffffffffffffffffffffffffffff16638f7dcfa36040518163ffffffff167c0100000000000000000000000000000000000000000000000000000000028152600401602060405180830381600087803b15801561174857600080fd5b505af115801561175c573d6000803e3d6000fd5b505050506040513d601f19601f82011682018060405250611780919081019061377a565b905090565b60405180807f52454a4543545f5246495f524f4c450000000000000000000000000000000000815250600f019050604051809103902081565b60006005548211156117d35760009050611824565b600060038111156117e057fe5b6003600084815260200190815260200160002060020160009054906101000a900460ff16600381111561180f57fe5b14151561181f5760009050611824565b600190505b919050565b60008061183583611469565b6040805190810160405280601281526020017f5245434f5645525f444953414c4c4f57454400000000000000000000000000008152509015156118ae576040517f08c379a00000000000000000000000000000000000000000000000000000000081526004016118a591906140eb565b60405180910390fd5b506118b7610d69565b91506118c2826129c0565b6040805190810160405280601a81526020017f5245434f5645525f5641554c545f4e4f545f434f4e545241435400000000000081525090151561193b576040517f08c379a000000000000000000000000000000000000000000000000000000000815260040161193291906140eb565b60405180910390fd5b50600073ffffffffffffffffffffffffffffffffffffffff168373ffffffffffffffffffffffffffffffffffffffff1614156119d4578173ffffffffffffffffffffffffffffffffffffffff166108fc3073ffffffffffffffffffffffffffffffffffffffff16319081150290604051600060405180830381858888f193505050501580156119ce573d6000803e3d6000fd5b50611b28565b8273ffffffffffffffffffffffffffffffffffffffff166370a08231306040518263ffffffff167c0100000000000000000000000000000000000000000000000000000000028152600401611a2991906140d0565b602060405180830381600087803b158015611a4357600080fd5b505af1158015611a57573d6000803e3d6000fd5b505050506040513d601f19601f82011682018060405250611a7b919081019061399c565b90508273ffffffffffffffffffffffffffffffffffffffff1663a9059cbb83836040518363ffffffff167c0100000000000000000000000000000000000000000000000000000000028152600401611ad4929190613f84565b602060405180830381600087803b158015611aee57600080fd5b505af1158015611b02573d6000803e3d6000fd5b505050506040513d601f19601f82011682018060405250611b269190810190613751565b505b505050565b60008060606000611b3c61098f565b1515611b4b5760009350611c50565b611b536121bd565b9250600073ffffffffffffffffffffffffffffffffffffffff168373ffffffffffffffffffffffffffffffffffffffff161415611b935760009350611c50565b602085510290508491508082528273ffffffffffffffffffffffffffffffffffffffff1663fdef9106883089866040518563ffffffff167c0100000000000000000000000000000000000000000000000000000000028152600401611bfb9493929190613f38565b602060405180830381600087803b158015611c1557600080fd5b505af1158015611c29573d6000803e3d6000fd5b505050506040513d601f19601f82011682018060405250611c4d9190810190613751565b93505b5050509392505050565b600080611c656121bd565b73ffffffffffffffffffffffffffffffffffffffff1663be00bbd87fd6f028ca0e8edb4a8c9757ca4fdccab25fa1e0317da1188108f7d2dee14902fb6001027fddbcfd564f642ab5627cf68b9b7d374fb4f8a36e941a75d89c87998cef03bd616001026040518363ffffffff167c0100000000000000000000000000000000000000000000000000000000028152600401611d01929190613fe3565b602060405180830381600087803b158015611d1b57600080fd5b505af1158015611d2f573d6000803e3d6000fd5b505050506040513d601f19601f82011682018060405250611d5391908101906136c1565b90508091505090565b6000809054906101000a900473ffffffffffffffffffffffffffffffffffffffff1681565b60405180807f4143434550545f52464c5f524f4c450000000000000000000000000000000000815250600f019050604051809103902081565b6000611dc461168a565b146040805190810160405280601881526020017f494e49545f414c52454144595f494e495449414c495a45440000000000000000815250901515611e3e576040517f08c379a0000000000000000000000000000000000000000000000000000000008152600401611e3591906140eb565b60405180910390fd5b50611e47612a12565b82600260006101000a81548173ffffffffffffffffffffffffffffffffffffffff021916908373ffffffffffffffffffffffffffffffffffffffff160217905550816000806101000a81548173ffffffffffffffffffffffffffffffffffffffff021916908373ffffffffffffffffffffffffffffffffffffffff16021790555080600160006101000a81548173ffffffffffffffffffffffffffffffffffffffff021916908373ffffffffffffffffffffffffffffffffffffffff160217905550505050565b60405180807f494e4449564944554154455f524f4c45000000000000000000000000000000008152506010019050604051809103902081565b600080600080600554851115611f60576000935061203f565b60036000868152602001908152602001600020925060006003811115611f8257fe5b8360020160009054906101000a900460ff166003811115611f9f57fe5b141515611faf576000935061203f565b600091505b826003018054905082101561203a57600460008460030184815481101515611fd857fe5b9060005260206000200154815260200190815260200160002090506001600481111561200057fe5b8160050160009054906101000a900460ff16600481111561201d57fe5b14151561202d576000935061203f565b8180600101925050611fb4565b600193505b505050919050565b600460205280600052604060002060009150905080600001606060405190810160405290816000820160009054906101000a900473ffffffffffffffffffffffffffffffffffffffff1673ffffffffffffffffffffffffffffffffffffffff1673ffffffffffffffffffffffffffffffffffffffff16815260200160018201548152602001600282018054600181600116156101000203166002900480601f0160208091040260200160405190810160405280929190818152602001828054600181600116156101000203166002900480156121645780601f1061213957610100808354040283529160200191612164565b820191906000526020600020905b81548152906001019060200180831161214757829003601f168201915b505050505081525050908060030154908060040154908060050160009054906101000a900460ff16908060060154905085565b600160009054906101000a900473ffffffffffffffffffffffffffffffffffffffff1681565b60006121ef7f4172f0f7d2289153072b0a6ca36959e0cbe2efc3afe50fc81636caa96338137b60010260001916612ada565b905090565b6121fc6130aa565b6000809054906101000a900473ffffffffffffffffffffffffffffffffffffffff1673ffffffffffffffffffffffffffffffffffffffff1663dc281aff6040518163ffffffff167c0100000000000000000000000000000000000000000000000000000000028152600401600060405180830381600087803b15801561228157600080fd5b505af1158015612295573d6000803e3d6000fd5b505050506040513d6000823e3d601f19601f820116820180604052506122be9190810190613932565b905090565b60405180807f4d455247455f5246495f524f4c45000000000000000000000000000000000000815250600e01905060405180910390206123343382600060405190808252806020026020018201604052801561232e5781602001602082028038833980820191505090505b50611b2d565b6040805190810160405280600f81526020017f4150505f415554485f4641494c454400000000000000000000000000000000008152509015156123ad576040517f08c379a00000000000000000000000000000000000000000000000000000000081526004016123a491906140eb565b60405180910390fd5b506123b782611f47565b15156123f8576040517f08c379a00000000000000000000000000000000000000000000000000000000081526004016123ef9061416d565b60405180910390fd5b61240182612ae5565b5050565b60007fffffffffffffffffffffffffffffffffffffffffffffffffffffffffffffffff61243061168a565b14905090565b6000600260009054906101000a900473ffffffffffffffffffffffffffffffffffffffff1673ffffffffffffffffffffffffffffffffffffffff166357c337ee836040518263ffffffff167c01000000000000000000000000000000000000000000000000000000000281526004016124af9190614287565b602060405180830381600087803b1580156124c957600080fd5b505af11580156124dd573d6000803e3d6000fd5b505050506040513d601f19601f82011682018060405250612501919081019061377a565b9050919050565b6125106130c4565b816005548111151515612558576040517f08c379a000000000000000000000000000000000000000000000000000000000815260040161254f906141ad565b60405180910390fd5b60036000848152602001908152602001600020608060405190810160405290816000820160206040519081016040529081600082018054600181600116156101000203166002900480601f0160208091040260200160405190810160405280929190818152602001828054600181600116156101000203166002900480156126215780601f106125f657610100808354040283529160200191612621565b820191906000526020600020905b81548152906001019060200180831161260457829003601f168201915b5050505050815250508152602001600182015481526020016002820160009054906101000a900460ff16600381111561265657fe5b600381111561266157fe5b8152602001600382018054806020026020016040519081016040528092919081815260200182805480156126b457602002820191906000526020600020905b8154815260200190600101908083116126a0575b505050505081525050915050919050565b600043905090565b60008060008060006001600554016005819055506005549450600360008681526020019081526020016000209350866000015184600001600001908051906020019061271a9291906130fe565b5043846001018190555060008460020160006101000a81548160ff0219169083600381111561274557fe5b0217905550600092505b85518310156127c057612779868481518110151561276957fe5b9060200190602002015186612c45565b9150836003018054809190600101612791919061317e565b90508184600301828154811015156127a557fe5b9060005260206000200181905550828060010193505061274f565b847f35f2129c6d5c40f8bfc21ff096fc803eed03c578d74fabcf718966bce5e43a2460405160405180910390a25050505092915050565b600060046000848152602001908152602001600020905060018160050160006101000a81548160ff0219169083600481111561282f57fe5b0217905550818160040181905550827fe798dd1723e7dfead0c42290d937f51c95c8f80f616ab3c5d515dd62333d0c698360405161286d91906142ed565b60405180910390a2505050565b600060046000838152602001908152602001600020905060038160050160006101000a81548160ff021916908360048111156128b257fe5b02179055506128c48160060154612d5e565b817feffb45481cc046f2f78b484c7ef03097fc7cd3f8cf92a6f150a6264c96c3e72c60405160405180910390a25050565b60008060036000848152602001908152602001600020915060028260020160006101000a81548160ff0219169083600381111561292e57fe5b0217905550600090505b81600301805490508110156129785761296b826003018281548110151561295b57fe5b9060005260206000200154612e78565b8080600101915050612938565b827f572671bf73ebac1f3878b683b28d9a3864df03396326fbaa18f19c834a54b13a60405160405180910390a2505050565b600081549050919050565b600081549050919050565b600080600073ffffffffffffffffffffffffffffffffffffffff168373ffffffffffffffffffffffffffffffffffffffff161415612a015760009150612a0c565b823b90506000811191505b50919050565b6000612a1c61168a565b146040805190810160405280601881526020017f494e49545f414c52454144595f494e495449414c495a45440000000000000000815250901515612a96576040517f08c379a0000000000000000000000000000000000000000000000000000000008152600401612a8d91906140eb565b60405180910390fd5b50612ad8612aa26126c5565b7febb05b386a8d34882b8711d156f463690983dc47815980fb82aeeff1aa43579e60010260001916612ee690919063ffffffff16565b565b600081549050919050565b60008060036000848152602001908152602001600020915060018260020160006101000a81548160ff02191690836003811115612b1e57fe5b02179055506000809054906101000a900473ffffffffffffffffffffffffffffffffffffffff1673ffffffffffffffffffffffffffffffffffffffff1663c9ab7ed9836000016040518263ffffffff167c0100000000000000000000000000000000000000000000000000000000028152600401612b9c919061420b565b600060405180830381600087803b158015612bb657600080fd5b505af1158015612bca573d6000803e3d6000fd5b50505050600090505b8160030180549050811015612c1357612c068260030182815481101515612bf657fe5b9060005260206000200154612eed565b8080600101915050612bd3565b827f2ade3f30658e8481c8027d9227280e030ebbea37526a8e9e29887165e919e2ed60405160405180910390a2505050565b600080600160065401600681905550600654915060046000838152602001908152602001600020905083600001518160000160000160006101000a81548173ffffffffffffffffffffffffffffffffffffffff021916908373ffffffffffffffffffffffffffffffffffffffff160217905550836020015181600001600101819055508360400151816000016002019080519060200190612ce79291906130fe565b504381600301819055506000816004018190555060008160050160006101000a81548160ff02191690836004811115612d1c57fe5b0217905550828160060181905550817fb696b79e6fa6e3e43f047d6702fce861e48c2267eeb009745f44a84b2c1dac4a60405160405180910390a25092915050565b600080600060036000858152602001908152602001600020925060038360020160006101000a81548160ff02191690836003811115612d9957fe5b0217905550600091505b8260030180549050821015612e4557600460008460030184815481101515612dc757fe5b90600052602060002001548152602001908152602001600020905060036004811115612def57fe5b8160050160009054906101000a900460ff166004811115612e0c57fe5b141515612e3857612e378360030183815481101515612e2757fe5b9060005260206000200154612e78565b5b8180600101925050612da3565b837f17c608dd7335e9c727c3e10aea0adfba0b0e6cc35c4935c1de31e3b10711da7560405160405180910390a250505050565b600060046000838152602001908152602001600020905060048160050160006101000a81548160ff02191690836004811115612eb057fe5b0217905550817f7b78710b9fa400a202f9262b7daad859bf5663f0d88d45073184584fe6a166e060405160405180910390a25050565b8082555050565b600060046000838152602001908152602001600020905060028160050160006101000a81548160ff02191690836004811115612f2557fe5b0217905550600160009054906101000a900473ffffffffffffffffffffffffffffffffffffffff1673ffffffffffffffffffffffffffffffffffffffff166340c10f198260000160000160009054906101000a900473ffffffffffffffffffffffffffffffffffffffff1683600401546040518363ffffffff167c0100000000000000000000000000000000000000000000000000000000028152600401612fce929190613f84565b600060405180830381600087803b158015612fe857600080fd5b505af1158015612ffc573d6000803e3d6000fd5b50505050817fb74d3ab32949c67c027c76911841ff5e997d1276e5244bba79e532fa6ce91f838260000160000160009054906101000a900473ffffffffffffffffffffffffffffffffffffffff16836004015460405161305d929190613f84565b60405180910390a25050565b60e06040519081016040528061307d6131aa565b815260200160008152602001600081526020016000600481111561309d57fe5b8152602001600081525090565b604080519081016040528060008152602001606081525090565b6080604051908101604052806130d86131e2565b815260200160008152602001600060038111156130f157fe5b8152602001606081525090565b828054600181600116156101000203166002900490600052602060002090601f016020900481019282601f1061313f57805160ff191683800117855561316d565b8280016001018555821561316d579182015b8281111561316c578251825591602001919060010190613151565b5b50905061317a91906131f6565b5090565b8154818355818111156131a5578183600052602060002091820191016131a491906131f6565b5b505050565b606060405190810160405280600073ffffffffffffffffffffffffffffffffffffffff16815260200160008152602001606081525090565b602060405190810160405280606081525090565b61321891905b808211156132145760008160009055506001016131fc565b5090565b90565b60006132278235614496565b905092915050565b600061323b8251614496565b905092915050565b600082601f830112151561325657600080fd5b813561326961326482614335565b614308565b9150818183526020840193506020810190508360005b838110156132af57813586016132958882613530565b84526020840193506020830192505060018101905061327f565b5050505092915050565b600082601f83011215156132cc57600080fd5b81356132df6132da8261435d565b614308565b9150818183526020840193506020810190508385602084028201111561330457600080fd5b60005b83811015613334578161331a8882613670565b845260208401935060208301925050600181019050613307565b5050505092915050565b600061334a82516144b6565b905092915050565b600061335e82356144c2565b905092915050565b600061337282516144c2565b905092915050565b600082601f830112151561338d57600080fd5b81356133a061339b82614385565b614308565b915080825260208301602083018583830111156133bc57600080fd5b6133c78382846145d2565b50505092915050565b60006133dc82356144cc565b905092915050565b60006133f082516144de565b905092915050565b600061340482356144f0565b905092915050565b60006134188251614502565b905092915050565b600061342c8235614514565b905092915050565b600082601f830112151561344757600080fd5b813561345a613455826143b1565b614308565b9150808252602083016020830185838301111561347657600080fd5b6134818382846145d2565b50505092915050565b600082601f830112151561349d57600080fd5b81516134b06134ab826143b1565b614308565b915080825260208301602083018583830111156134cc57600080fd5b6134d78382846145e1565b50505092915050565b6000602082840312156134f257600080fd5b6134fc6020614308565b9050600082013567ffffffffffffffff81111561351857600080fd5b61352484828501613434565b60008301525092915050565b60006060828403121561354257600080fd5b61354c6060614308565b9050600061355c8482850161321b565b600083015250602061357084828501613670565b602083015250604082013567ffffffffffffffff81111561359057600080fd5b61359c84828501613434565b60408301525092915050565b6000604082840312156135ba57600080fd5b6135c46040614308565b905060006135d484828501613670565b600083015250602082013567ffffffffffffffff8111156135f457600080fd5b61360084828501613434565b60208301525092915050565b60006040828403121561361e57600080fd5b6136286040614308565b9050600061363884828501613684565b600083015250602082015167ffffffffffffffff81111561365857600080fd5b6136648482850161348a565b60208301525092915050565b600061367c8235614526565b905092915050565b60006136908251614526565b905092915050565b6000602082840312156136aa57600080fd5b60006136b88482850161321b565b91505092915050565b6000602082840312156136d357600080fd5b60006136e18482850161322f565b91505092915050565b6000806000606084860312156136ff57600080fd5b600061370d8682870161321b565b935050602061371e86828701613352565b925050604084013567ffffffffffffffff81111561373b57600080fd5b613747868287016132b9565b9150509250925092565b60006020828403121561376357600080fd5b60006137718482850161333e565b91505092915050565b60006020828403121561378c57600080fd5b600061379a84828501613366565b91505092915050565b6000602082840312156137b557600080fd5b600082013567ffffffffffffffff8111156137cf57600080fd5b6137db8482850161337a565b91505092915050565b6000602082840312156137f657600080fd5b6000613804848285016133e4565b91505092915050565b60006020828403121561381f57600080fd5b600061382d8482850161340c565b91505092915050565b60008060006060848603121561384b57600080fd5b600061385986828701613420565b935050602061386a868287016133d0565b925050604061387b868287016133f8565b9150509250925092565b6000806040838503121561389857600080fd5b600083013567ffffffffffffffff8111156138b257600080fd5b6138be858286016134e0565b925050602083013567ffffffffffffffff8111156138db57600080fd5b6138e785828601613243565b9150509250929050565b60006020828403121561390357600080fd5b600082013567ffffffffffffffff81111561391d57600080fd5b613929848285016135a8565b91505092915050565b60006020828403121561394457600080fd5b600082015167ffffffffffffffff81111561395e57600080fd5b61396a8482850161360c565b91505092915050565b60006020828403121561398557600080fd5b600061399384828501613670565b91505092915050565b6000602082840312156139ae57600080fd5b60006139bc84828501613684565b91505092915050565b600080604083850312156139d857600080fd5b60006139e685828601613670565b92505060206139f785828601613670565b9150509250929050565b613a0a8161442a565b82525050565b6000613a1b826143fc565b808452602084019350613a2d836143dd565b60005b82811015613a5f57613a43868351613f0e565b613a4c8261441d565b9150602086019550600181019050613a30565b50849250505092915050565b613a748161444a565b82525050565b613a8381614456565b82525050565b6000613a9482614407565b808452613aa88160208601602086016145e1565b613ab181614614565b602085010191505092915050565b613ac881614530565b82525050565b613ad781614542565b82525050565b613ae681614554565b82525050565b613af581614566565b82525050565b613b0481614578565b82525050565b613b138161458a565b82525050565b613b228161459c565b82525050565b613b31816145ae565b82525050565b613b40816145c0565b82525050565b6000613b5182614412565b808452613b658160208601602086016145e1565b613b6e81614614565b602085010191505092915050565b600081546001811660008114613b995760018114613bb957613bfa565b607f600283041680865260ff198316602087015260408601935050613bfa565b60028204808652602086019550613bcf856143ea565b60005b82811015613bf157815481890152600182019150602081019050613bd2565b80880195505050505b505092915050565b6000601182527f63616e6e6f74206163636570742052464c0000000000000000000000000000006020830152604082019050919050565b6000601182527f63616e6e6f742072656a6563742052464c0000000000000000000000000000006020830152604082019050919050565b6000601282527f52464c20646f6573206e6f7420657869737400000000000000000000000000006020830152604082019050919050565b6000601082527f63616e6e6f74206d6572676520524649000000000000000000000000000000006020830152604082019050919050565b6000601182527f63616e6e6f742072656a656374205246490000000000000000000000000000006020830152604082019050919050565b6000601282527f52464920646f6573206e6f7420657869737400000000000000000000000000006020830152604082019050919050565b60006020830160008301518482036000860152613d698282613b46565b9150508091505092915050565b60006020830160008084018583036000870152613d938382613b7c565b925050819250505092915050565b6000606083016000830151613db96000860182613a01565b506020830151613dcc6020860182613f0e565b5060408301518482036040860152613de48282613b46565b9150508091505092915050565b6000604083016000830151613e096000860182613f0e565b5060208301518482036020860152613e218282613b46565b9150508091505092915050565b60006080830160008301518482036000860152613e4b8282613d4c565b9150506020830151613e606020860182613f0e565b506040830151613e736040860182613b28565b5060608301518482036060860152613e8b8282613a10565b9150508091505092915050565b600060a0830160008301518482036000860152613eb58282613da1565b9150506020830151613eca6020860182613f0e565b506040830151613edd6040860182613f0e565b506060830151613ef06060860182613b37565b506080830151613f036080860182613f0e565b508091505092915050565b613f178161448c565b82525050565b6000602082019050613f326000830184613a01565b92915050565b6000608082019050613f4d6000830187613a01565b613f5a6020830186613a01565b613f676040830185613a7a565b8181036060830152613f798184613a89565b905095945050505050565b6000604082019050613f996000830185613a01565b613fa66020830184613f0e565b9392505050565b6000602082019050613fc26000830184613a6b565b92915050565b6000602082019050613fdd6000830184613a7a565b92915050565b6000604082019050613ff86000830185613a7a565b6140056020830184613a7a565b9392505050565b600060208201905081810360008301526140268184613a89565b905092915050565b60006020820190506140436000830184613abf565b92915050565b600060208201905061405e6000830184613ace565b92915050565b60006020820190506140796000830184613add565b92915050565b60006020820190506140946000830184613aec565b92915050565b60006020820190506140af6000830184613afb565b92915050565b60006020820190506140ca6000830184613b0a565b92915050565b60006020820190506140e56000830184613b19565b92915050565b600060208201905081810360008301526141058184613b46565b905092915050565b6000602082019050818103600083015261412681613c02565b9050919050565b6000602082019050818103600083015261414681613c39565b9050919050565b6000602082019050818103600083015261416681613c70565b9050919050565b6000602082019050818103600083015261418681613ca7565b9050919050565b600060208201905081810360008301526141a681613cde565b9050919050565b600060208201905081810360008301526141c681613d15565b9050919050565b600060608201905081810360008301526141e78186613d4c565b90506141f66020830185613f0e565b6142036040830184613b28565b949350505050565b600060208201905081810360008301526142258184613d76565b905092915050565b600060a08201905081810360008301526142478188613da1565b90506142566020830187613f0e565b6142636040830186613f0e565b6142706060830185613b37565b61427d6080830184613f0e565b9695505050505050565b600060208201905081810360008301526142a18184613df1565b905092915050565b600060208201905081810360008301526142c38184613e2e565b905092915050565b600060208201905081810360008301526142e58184613e98565b905092915050565b60006020820190506143026000830184613f0e565b92915050565b6000604051905081810181811067ffffffffffffffff8211171561432b57600080fd5b8060405250919050565b600067ffffffffffffffff82111561434c57600080fd5b602082029050602081019050919050565b600067ffffffffffffffff82111561437457600080fd5b602082029050602081019050919050565b600067ffffffffffffffff82111561439c57600080fd5b601f19601f8301169050602081019050919050565b600067ffffffffffffffff8211156143c857600080fd5b601f19601f8301169050602081019050919050565b6000602082019050919050565b60008160005260206000209050919050565b600081519050919050565b600081519050919050565b600081519050919050565b6000602082019050919050565b600073ffffffffffffffffffffffffffffffffffffffff82169050919050565b60008115159050919050565b6000819050919050565b600060048210151561446e57fe5b819050919050565b600060058210151561448457fe5b819050919050565b6000819050919050565b600073ffffffffffffffffffffffffffffffffffffffff82169050919050565b60008115159050919050565b6000819050919050565b60006144d78261442a565b9050919050565b60006144e98261442a565b9050919050565b60006144fb8261442a565b9050919050565b600061450d8261442a565b9050919050565b600061451f8261442a565b9050919050565b6000819050919050565b600061453b8261442a565b9050919050565b600061454d8261442a565b9050919050565b600061455f8261442a565b9050919050565b60006145718261442a565b9050919050565b60006145838261442a565b9050919050565b60006145958261442a565b9050919050565b60006145a78261442a565b9050919050565b60006145b982614460565b9050919050565b60006145cb82614476565b9050919050565b82818337600083830152505050565b60005b838110156145ff5780820151818401526020810190506145e4565b8381111561460e576000848401525b50505050565b6000601f19601f83011690509190505600a265627a7a7230582003540c549ba3802ad024aabfd757542ecf8d38fd4cd140d046c949dacd43d6056c6578706572696d656e74616cf50037",
  "source": "pragma solidity ^0.4.24;\npragma experimental ABIEncoderV2;\n\n/* import \"@aragon/apps-shared-minime/contracts/ITokenController.sol\";\nimport \"@aragon/apps-shared-minime/contracts/MiniMeToken.sol\"; */\nimport \"@aragon/os/contracts/apps/AragonApp.sol\";\nimport \"../lib/Pando.sol\";\nimport \"./Genesis.sol\";\nimport \"./Lineage.sol\";\n\n\ncontract Organism is AragonApp {\n    bytes32 constant public CREATE_RFI_ROLE  = keccak256(\"CREATE_RFI_ROLE\");\n    bytes32 constant public MERGE_RFI_ROLE   = keccak256(\"MERGE_RFI_ROLE\");\n    bytes32 constant public REJECT_RFI_ROLE  = keccak256(\"REJECT_RFI_ROLE\");\n    bytes32 constant public ACCEPT_RFL_ROLE  = keccak256(\"ACCEPT_RFL_ROLE\");\n    bytes32 constant public REJECT_RFL_ROLE  = keccak256(\"REJECT_RFL_ROLE\");\n    bytes32 constant public INDIVIDUATE_ROLE = keccak256(\"INDIVIDUATE_ROLE\");\n\n    Genesis public genesis;\n    Lineage public lineage;\n    Pando   public pando;\n\n    // Use a mapping instead of an array to ease app upgrade\n    // See https://github.com/aragon/aragon-apps/pull/428\n    // See https://youtu.be/sJ7VECqHFAg?t=9m27s\n    mapping (uint256 => Pando.RFI) public RFIs;\n    mapping (uint256 => Pando.RFL) public RFLs;\n\n    uint256 public RFIsLength = 0;\n    uint256 public RFLsLength = 0;\n\n\n    event CreateRFI(uint256 indexed id);\n    event MergeRFI(uint256 indexed id);\n    event RejectRFI(uint256 indexed id);\n    event CancelRFI(uint256 indexed id);\n\n    event CreateRFL(uint256 indexed id);\n    event AcceptRFL(uint256 indexed id, uint256 value);\n    event RejectRFL(uint256 indexed id);\n    event CancelRFL(uint256 indexed id);\n    event IssueRFL(uint256 indexed id, address destination, uint256 value);\n\n    modifier RFIExists(uint256 _RFIid) {\n        require(_RFIid <= RFIsLength, \"RFI does not exist\");\n        _;\n    }\n\n    modifier RFLExists(uint256 _RFLid) {\n        require(_RFLid <= RFLsLength, \"RFL does not exist\");\n        _;\n    }\n\n    /*--------------------*/\n\n    function initialize(Pando _pando, Genesis _genesis, Lineage _lineage) external onlyInit {\n        initialized();\n        pando   = _pando;\n        genesis = _genesis;\n        lineage = _lineage;\n    }\n\n    function createRFI(Pando.IIndividuation _individuation, Pando.ILineage[] _lineages)\n        public\n        isInitialized\n        auth(CREATE_RFI_ROLE)\n        returns (uint256 RFIid)\n    {\n        RFIid = _createRFI(_individuation, _lineages);\n    }\n\n    function mergeRFI(uint256 _RFIid) public auth(MERGE_RFI_ROLE) {\n        require(canMergeRFI(_RFIid), \"cannot merge RFI\");\n        _mergeRFI(_RFIid);\n    }\n\n    function rejectRFI(uint256 _RFIid) public auth(REJECT_RFI_ROLE) {\n        require(canRejectRFI(_RFIid), \"cannot reject RFI\");\n        _rejectRFI(_RFIid);\n    }\n\n    function acceptRFL(uint256 _RFLid, uint256 _value) public auth(ACCEPT_RFL_ROLE) {\n        require(canAcceptRFL(_RFLid, _value), \"cannot accept RFL\");\n        _acceptRFL(_RFLid, _value);\n    }\n\n    function rejectRFL(uint256 _RFLid) public isInitialized auth(REJECT_RFL_ROLE) {\n        require(canRejectRFL(_RFLid), \"cannot reject RFL\");\n        _rejectRFL(_RFLid);\n    }\n\n    /*--------------------*/\n\n    function canMergeRFI(uint256 _RFIid) public view returns (bool) {\n        if (_RFIid > RFIsLength)\n            return false;\n        Pando.RFI storage RFI = RFIs[_RFIid];\n        if (RFI.state != Pando.RFIState.Pending)\n            return false;\n        for (uint256 i = 0; i < RFI.RFLids.length; i++) {\n            Pando.RFL storage RFL = RFLs[RFI.RFLids[i]];\n            if (RFL.state != Pando.RFLState.Accepted)\n                return false;\n        }\n        return true;\n    }\n\n    function canRejectRFI(uint _RFIid) public view returns (bool) {\n        if (_RFIid > RFIsLength)\n            return false;\n        if (RFIs[_RFIid].state != Pando.RFIState.Pending)\n            return false;\n        return true;\n    }\n\n    function canAcceptRFL(uint256 _RFLid, uint256 _value) public view returns (bool) {\n        if (_RFLid > RFLsLength)\n            return false;\n        if (RFLs[_RFLid].state != Pando.RFLState.Pending)\n            return false;\n        if (_value < RFLs[_RFLid].lineage.minimum)\n            return false;\n        return true;\n    }\n\n    function canRejectRFL(uint _RFLid) public view returns (bool) {\n        if (_RFLid > RFLsLength)\n            return false;\n        if (RFLs[_RFLid].state != Pando.RFLState.Pending)\n            return false;\n        return true;\n    }\n\n    /*--------------------*/\n\n    function getLineageToken() public view returns (address) {\n        return address(lineage.token());\n    }\n\n\n    function getRFI(uint256 _RFIid) public view RFIExists(_RFIid) returns (Pando.RFI) {\n        return RFIs[_RFIid];\n    }\n\n    function getRFL(uint256 _RFLid) public view RFLExists(_RFLid) returns (Pando.RFL) {\n        return RFLs[_RFLid];\n    }\n\n    function getIndividuationHash(Pando.Individuation _individuation) public view returns (bytes32) {\n        return pando.hash(_individuation);\n    }\n\n    function head() public view returns (bytes32) {\n        return genesis.head();\n    }\n\n    function getHead() public view returns (Pando.Individuation) {\n        return genesis.getHead();\n    }\n\n    /*--------------------*/\n\n    function _createRFI(Pando.IIndividuation _individuation, Pando.ILineage[] _lineages) internal returns (uint256 RFIid) {\n        // msg.sender is gonna be the address of a governance kit built on top of the API\n        // Do you we wanna make sure that the transaction is actually initialized by _individuation.origin ?\n        // If this is the case then we're gonna need to ask for a proof of identity through a ECDSA signature\n        // See https://github.com/OpenZeppelin/openzeppelin-solidity/blob/master/contracts/cryptography/ECDSA.sol\n\n        RFIsLength = RFIsLength + 1;\n        RFIid = RFIsLength;\n\n        Pando.RFI storage RFI = RFIs[RFIid];\n\n        RFI.individuation.metadata = _individuation.metadata;\n        RFI.blockstamp = block.number;\n        RFI.state = Pando.RFIState.Pending;\n\n        for (uint256 j = 0; j < _lineages.length; j++) {\n            uint256 RFLid = _createRFL(_lineages[j], RFIid);\n            uint256 index = RFI.RFLids.length++;\n            RFI.RFLids[index] = RFLid;\n        }\n\n        emit CreateRFI(RFIid);\n    }\n\n    function _mergeRFI(uint256 _RFIid) internal {\n        Pando.RFI storage RFI = RFIs[_RFIid];\n\n        RFI.state = Pando.RFIState.Merged;\n\n        genesis.individuate(RFI.individuation);\n\n        for (uint256 i = 0; i < RFI.RFLids.length; i++) {\n            _issueRFL(RFI.RFLids[i]);\n        }\n\n        emit MergeRFI(_RFIid);\n    }\n\n    function _rejectRFI(uint256 _RFIid) internal {\n        Pando.RFI storage RFI = RFIs[_RFIid];\n\n        RFI.state = Pando.RFIState.Rejected;\n\n        for (uint256 j = 0; j < RFI.RFLids.length; j++) {\n            _cancelRFL(RFI.RFLids[j]);\n        }\n\n        emit RejectRFI(_RFIid);\n    }\n\n    function _cancelRFI(uint256 _RFIid) internal {\n        Pando.RFI storage RFI = RFIs[_RFIid];\n\n        RFI.state = Pando.RFIState.Cancelled;\n\n        for (uint256 i = 0; i < RFI.RFLids.length; i++) {\n            Pando.RFL storage RFL = RFLs[RFI.RFLids[i]];\n\n            if (RFL.state != Pando.RFLState.Rejected)\n                _cancelRFL(RFI.RFLids[i]);\n        }\n\n        emit CancelRFI(_RFIid);\n    }\n\n    function _createRFL(Pando.ILineage _lineage, uint256 _RFIid) internal returns (uint256 RFLid) {\n        RFLsLength = RFLsLength + 1;\n        RFLid = RFLsLength;\n\n        Pando.RFL storage RFL = RFLs[RFLid];\n\n        RFL.lineage.destination = _lineage.destination;\n        RFL.lineage.minimum = _lineage.minimum;\n        RFL.lineage.metadata = _lineage.metadata;\n        RFL.blockstamp = block.number;\n        RFL.value = 0;\n        RFL.state = Pando.RFLState.Pending;\n        RFL.RFIid = _RFIid;\n\n        emit CreateRFL(RFLid);\n    }\n\n    function _acceptRFL(uint256 _RFLid, uint256 _value) internal {\n        Pando.RFL storage rfl = RFLs[_RFLid];\n\n        rfl.state = Pando.RFLState.Accepted;\n        rfl.value = _value;\n\n        emit AcceptRFL(_RFLid, _value);\n    }\n\n    function _rejectRFL(uint256 _RFLid) internal {\n        Pando.RFL storage rfl = RFLs[_RFLid];\n\n        rfl.state = Pando.RFLState.Rejected;\n\n        _cancelRFI(rfl.RFIid);\n\n        emit RejectRFL(_RFLid);\n    }\n\n    function _cancelRFL(uint256 _RFLid) internal {\n        Pando.RFL storage rfl = RFLs[_RFLid];\n\n        rfl.state = Pando.RFLState.Cancelled;\n\n        emit CancelRFL(_RFLid);\n    }\n\n    function _issueRFL(uint256 _RFLid) internal {\n        Pando.RFL storage rfl = RFLs[_RFLid];\n\n        rfl.state = Pando.RFLState.Issued;\n\n        lineage.mint(rfl.lineage.destination, rfl.value);\n\n        emit IssueRFL(_RFLid, rfl.lineage.destination, rfl.value);\n    }\n}\n",
  "sourcePath": "/Users/osarrouy/Documents/dapp/@pando/packages/organism/contracts/core/Organism.sol",
  "compiler": {
    "name": "solc",
    "version": "0.4.24+commit.e67f0147.Emscripten.clang"
  },
  "schemaVersion": "3.0.0-beta.2",
  "updatedAt": "2018-12-03T15:20:35.452Z",
  "devdoc": {
    "methods": {
      "allowRecoverability(address)": {
        "details": "By default deriving from AragonApp makes it recoverable",
        "params": {
          "token": "Token address that would be recovered"
        },
        "return": "bool whether the app allows the recovery"
      },
      "canPerform(address,bytes32,uint256[])": {
        "details": "Check whether an action can be performed by a sender for a particular role on this app",
        "params": {
          "_params": "Permission params for the role",
          "_role": "Role on this app",
          "_sender": "Sender of the call"
        },
        "return": "Boolean indicating whether the sender has the permissions to perform the action.        Always returns false if the app hasn't been initialized yet."
      },
      "getInitializationBlock()": {
        "return": "Block number in which the contract was initialized"
      },
      "getRecoveryVault()": {
        "details": "Get the recovery vault for the app",
        "return": "Recovery vault address for the app"
      },
      "hasInitialized()": {
        "return": "Whether the contract has been initialized by the time of the current block"
      },
      "transferToVault(address)": {
        "params": {
          "_token": "Token balance to be sent to recovery vault."
        }
      }
    }
  },
  "userdoc": {
    "methods": {
      "transferToVault(address)": {
        "notice": "Send funds to recovery Vault. This contract should never receive funds,        but in case it does, this function allows one to recover them."
      }
    }
  }
}