{
  "contractName": "Organism",
  "abi": [
    {
      "constant": true,
      "inputs": [],
      "name": "hasInitialized",
      "outputs": [
        {
          "name": "",
          "type": "bool"
        }
      ],
      "payable": false,
      "stateMutability": "view",
      "type": "function"
    },
    {
      "constant": true,
      "inputs": [],
      "name": "REJECT_RFL_ROLE",
      "outputs": [
        {
          "name": "",
          "type": "bytes32"
        }
      ],
      "payable": false,
      "stateMutability": "view",
      "type": "function"
    },
    {
      "constant": true,
      "inputs": [],
      "name": "RFLsLength",
      "outputs": [
        {
          "name": "",
          "type": "uint256"
        }
      ],
      "payable": false,
      "stateMutability": "view",
      "type": "function"
    },
    {
      "constant": true,
      "inputs": [
        {
          "name": "_script",
          "type": "bytes"
        }
      ],
      "name": "getEVMScriptExecutor",
      "outputs": [
        {
          "name": "",
          "type": "address"
        }
      ],
      "payable": false,
      "stateMutability": "view",
      "type": "function"
    },
    {
      "constant": true,
      "inputs": [],
      "name": "CREATE_RFI_ROLE",
      "outputs": [
        {
          "name": "",
          "type": "bytes32"
        }
      ],
      "payable": false,
      "stateMutability": "view",
      "type": "function"
    },
    {
      "constant": true,
      "inputs": [],
      "name": "MERGE_RFI_ROLE",
      "outputs": [
        {
          "name": "",
          "type": "bytes32"
        }
      ],
      "payable": false,
      "stateMutability": "view",
      "type": "function"
    },
    {
      "constant": true,
      "inputs": [],
      "name": "getRecoveryVault",
      "outputs": [
        {
          "name": "",
          "type": "address"
        }
      ],
      "payable": false,
      "stateMutability": "view",
      "type": "function"
    },
    {
      "constant": true,
      "inputs": [
        {
          "components": [
            {
              "name": "origin",
              "type": "address"
            },
            {
              "name": "blockstamp",
              "type": "uint256"
            },
            {
              "name": "tree",
              "type": "string"
            },
            {
              "name": "message",
              "type": "string"
            },
            {
              "name": "metadata",
              "type": "string"
            },
            {
              "components": [
                {
                  "name": "organism",
                  "type": "address"
                },
                {
                  "name": "hash",
                  "type": "bytes32"
                }
              ],
              "name": "parents",
              "type": "tuple[]"
            }
          ],
          "name": "_individuation",
          "type": "tuple"
        }
      ],
      "name": "hash",
      "outputs": [
        {
          "name": "",
          "type": "bytes32"
        }
      ],
      "payable": false,
      "stateMutability": "pure",
      "type": "function"
    },
    {
      "constant": true,
      "inputs": [
        {
          "components": [
            {
              "components": [
                {
                  "name": "destination",
                  "type": "address"
                },
                {
                  "name": "minimum",
                  "type": "uint256"
                },
                {
                  "name": "metadata",
                  "type": "string"
                }
              ],
              "name": "lineage",
              "type": "tuple"
            },
            {
              "name": "blockstamp",
              "type": "uint256"
            },
            {
              "name": "value",
              "type": "uint256"
            },
            {
              "name": "state",
              "type": "uint8"
            },
            {
              "name": "RFIid",
              "type": "uint256"
            }
          ],
          "name": "_RFL",
          "type": "tuple"
        }
      ],
      "name": "isAccepted",
      "outputs": [
        {
          "name": "",
          "type": "bool"
        }
      ],
      "payable": false,
      "stateMutability": "pure",
      "type": "function"
    },
    {
      "constant": true,
      "inputs": [
        {
          "name": "",
          "type": "uint256"
        }
      ],
      "name": "RFIs",
      "outputs": [
        {
          "components": [
            {
              "name": "origin",
              "type": "address"
            },
            {
              "name": "tree",
              "type": "string"
            },
            {
              "name": "message",
              "type": "string"
            },
            {
              "name": "metadata",
              "type": "string"
            },
            {
              "components": [
                {
                  "name": "organism",
                  "type": "address"
                },
                {
                  "name": "hash",
                  "type": "bytes32"
                }
              ],
              "name": "parents",
              "type": "tuple[]"
            }
          ],
          "name": "individuation",
          "type": "tuple"
        },
        {
          "name": "blockstamp",
          "type": "uint256"
        },
        {
          "name": "state",
          "type": "uint8"
        }
      ],
      "payable": false,
      "stateMutability": "view",
      "type": "function"
    },
    {
      "constant": true,
      "inputs": [
        {
          "name": "token",
          "type": "address"
        }
      ],
      "name": "allowRecoverability",
      "outputs": [
        {
          "name": "",
          "type": "bool"
        }
      ],
      "payable": false,
      "stateMutability": "view",
      "type": "function"
    },
    {
      "constant": true,
      "inputs": [],
      "name": "RFIsLength",
      "outputs": [
        {
          "name": "",
          "type": "uint256"
        }
      ],
      "payable": false,
      "stateMutability": "view",
      "type": "function"
    },
    {
      "constant": true,
      "inputs": [],
      "name": "appId",
      "outputs": [
        {
          "name": "",
          "type": "bytes32"
        }
      ],
      "payable": false,
      "stateMutability": "view",
      "type": "function"
    },
    {
      "constant": true,
      "inputs": [],
      "name": "getInitializationBlock",
      "outputs": [
        {
          "name": "",
          "type": "uint256"
        }
      ],
      "payable": false,
      "stateMutability": "view",
      "type": "function"
    },
    {
      "constant": true,
      "inputs": [],
      "name": "REJECT_RFI_ROLE",
      "outputs": [
        {
          "name": "",
          "type": "bytes32"
        }
      ],
      "payable": false,
      "stateMutability": "view",
      "type": "function"
    },
    {
      "constant": false,
      "inputs": [
        {
          "name": "_token",
          "type": "address"
        }
      ],
      "name": "transferToVault",
      "outputs": [],
      "payable": false,
      "stateMutability": "nonpayable",
      "type": "function"
    },
    {
      "constant": true,
      "inputs": [
        {
          "name": "_sender",
          "type": "address"
        },
        {
          "name": "_role",
          "type": "bytes32"
        },
        {
          "name": "_params",
          "type": "uint256[]"
        }
      ],
      "name": "canPerform",
      "outputs": [
        {
          "name": "",
          "type": "bool"
        }
      ],
      "payable": false,
      "stateMutability": "view",
      "type": "function"
    },
    {
      "constant": true,
      "inputs": [],
      "name": "getEVMScriptRegistry",
      "outputs": [
        {
          "name": "",
          "type": "address"
        }
      ],
      "payable": false,
      "stateMutability": "view",
      "type": "function"
    },
    {
      "constant": true,
      "inputs": [],
      "name": "genesis",
      "outputs": [
        {
          "name": "",
          "type": "address"
        }
      ],
      "payable": false,
      "stateMutability": "view",
      "type": "function"
    },
    {
      "constant": true,
      "inputs": [],
      "name": "ACCEPT_RFL_ROLE",
      "outputs": [
        {
          "name": "",
          "type": "bytes32"
        }
      ],
      "payable": false,
      "stateMutability": "view",
      "type": "function"
    },
    {
      "constant": true,
      "inputs": [],
      "name": "INDIVIDUATE_ROLE",
      "outputs": [
        {
          "name": "",
          "type": "bytes32"
        }
      ],
      "payable": false,
      "stateMutability": "view",
      "type": "function"
    },
    {
      "constant": true,
      "inputs": [
        {
          "name": "",
          "type": "uint256"
        }
      ],
      "name": "RFLs",
      "outputs": [
        {
          "components": [
            {
              "name": "destination",
              "type": "address"
            },
            {
              "name": "minimum",
              "type": "uint256"
            },
            {
              "name": "metadata",
              "type": "string"
            }
          ],
          "name": "lineage",
          "type": "tuple"
        },
        {
          "name": "blockstamp",
          "type": "uint256"
        },
        {
          "name": "value",
          "type": "uint256"
        },
        {
          "name": "state",
          "type": "uint8"
        },
        {
          "name": "RFIid",
          "type": "uint256"
        }
      ],
      "payable": false,
      "stateMutability": "view",
      "type": "function"
    },
    {
      "constant": true,
      "inputs": [],
      "name": "lineage",
      "outputs": [
        {
          "name": "",
          "type": "address"
        }
      ],
      "payable": false,
      "stateMutability": "view",
      "type": "function"
    },
    {
      "constant": true,
      "inputs": [],
      "name": "kernel",
      "outputs": [
        {
          "name": "",
          "type": "address"
        }
      ],
      "payable": false,
      "stateMutability": "view",
      "type": "function"
    },
    {
      "constant": true,
      "inputs": [],
      "name": "isPetrified",
      "outputs": [
        {
          "name": "",
          "type": "bool"
        }
      ],
      "payable": false,
      "stateMutability": "view",
      "type": "function"
    },
    {
      "constant": true,
      "inputs": [
        {
          "components": [
            {
              "components": [
                {
                  "name": "origin",
                  "type": "address"
                },
                {
                  "name": "tree",
                  "type": "string"
                },
                {
                  "name": "message",
                  "type": "string"
                },
                {
                  "name": "metadata",
                  "type": "string"
                },
                {
                  "components": [
                    {
                      "name": "organism",
                      "type": "address"
                    },
                    {
                      "name": "hash",
                      "type": "bytes32"
                    }
                  ],
                  "name": "parents",
                  "type": "tuple[]"
                }
              ],
              "name": "individuation",
              "type": "tuple"
            },
            {
              "name": "blockstamp",
              "type": "uint256"
            },
            {
              "name": "state",
              "type": "uint8"
            },
            {
              "name": "RFLids",
              "type": "uint256[]"
            }
          ],
          "name": "_RFI",
          "type": "tuple"
        }
      ],
      "name": "isPending",
      "outputs": [
        {
          "name": "",
          "type": "bool"
        }
      ],
      "payable": false,
      "stateMutability": "pure",
      "type": "function"
    },
    {
      "constant": true,
      "inputs": [
        {
          "components": [
            {
              "components": [
                {
                  "name": "destination",
                  "type": "address"
                },
                {
                  "name": "minimum",
                  "type": "uint256"
                },
                {
                  "name": "metadata",
                  "type": "string"
                }
              ],
              "name": "lineage",
              "type": "tuple"
            },
            {
              "name": "blockstamp",
              "type": "uint256"
            },
            {
              "name": "value",
              "type": "uint256"
            },
            {
              "name": "state",
              "type": "uint8"
            },
            {
              "name": "RFIid",
              "type": "uint256"
            }
          ],
          "name": "_RFL",
          "type": "tuple"
        }
      ],
      "name": "isPending",
      "outputs": [
        {
          "name": "",
          "type": "bool"
        }
      ],
      "payable": false,
      "stateMutability": "pure",
      "type": "function"
    },
    {
      "anonymous": false,
      "inputs": [
        {
          "indexed": true,
          "name": "id",
          "type": "uint256"
        }
      ],
      "name": "CreateRFI",
      "type": "event"
    },
    {
      "anonymous": false,
      "inputs": [
        {
          "indexed": true,
          "name": "id",
          "type": "uint256"
        }
      ],
      "name": "MergeRFI",
      "type": "event"
    },
    {
      "anonymous": false,
      "inputs": [
        {
          "indexed": true,
          "name": "id",
          "type": "uint256"
        }
      ],
      "name": "RejectRFI",
      "type": "event"
    },
    {
      "anonymous": false,
      "inputs": [
        {
          "indexed": true,
          "name": "id",
          "type": "uint256"
        }
      ],
      "name": "CancelRFI",
      "type": "event"
    },
    {
      "anonymous": false,
      "inputs": [
        {
          "indexed": true,
          "name": "id",
          "type": "uint256"
        }
      ],
      "name": "CreateRFL",
      "type": "event"
    },
    {
      "anonymous": false,
      "inputs": [
        {
          "indexed": true,
          "name": "id",
          "type": "uint256"
        },
        {
          "indexed": false,
          "name": "value",
          "type": "uint256"
        }
      ],
      "name": "AcceptRFL",
      "type": "event"
    },
    {
      "anonymous": false,
      "inputs": [
        {
          "indexed": true,
          "name": "id",
          "type": "uint256"
        }
      ],
      "name": "RejectRFL",
      "type": "event"
    },
    {
      "anonymous": false,
      "inputs": [
        {
          "indexed": true,
          "name": "id",
          "type": "uint256"
        }
      ],
      "name": "CancelRFL",
      "type": "event"
    },
    {
      "anonymous": false,
      "inputs": [
        {
          "indexed": true,
          "name": "id",
          "type": "uint256"
        },
        {
          "indexed": false,
          "name": "destination",
          "type": "address"
        },
        {
          "indexed": false,
          "name": "value",
          "type": "uint256"
        }
      ],
      "name": "IssueRFL",
      "type": "event"
    },
    {
      "anonymous": false,
      "inputs": [
        {
          "indexed": true,
          "name": "executor",
          "type": "address"
        },
        {
          "indexed": false,
          "name": "script",
          "type": "bytes"
        },
        {
          "indexed": false,
          "name": "input",
          "type": "bytes"
        },
        {
          "indexed": false,
          "name": "returnData",
          "type": "bytes"
        }
      ],
      "name": "ScriptResult",
      "type": "event"
    },
    {
      "constant": false,
      "inputs": [
        {
          "name": "_genesis",
          "type": "address"
        },
        {
          "name": "_lineage",
          "type": "address"
        }
      ],
      "name": "initialize",
      "outputs": [],
      "payable": false,
      "stateMutability": "nonpayable",
      "type": "function"
    },
    {
      "constant": false,
      "inputs": [
        {
          "components": [
            {
              "name": "origin",
              "type": "address"
            },
            {
              "name": "tree",
              "type": "string"
            },
            {
              "name": "message",
              "type": "string"
            },
            {
              "name": "metadata",
              "type": "string"
            },
            {
              "components": [
                {
                  "name": "organism",
                  "type": "address"
                },
                {
                  "name": "hash",
                  "type": "bytes32"
                }
              ],
              "name": "parents",
              "type": "tuple[]"
            }
          ],
          "name": "_individuation",
          "type": "tuple"
        },
        {
          "components": [
            {
              "name": "destination",
              "type": "address"
            },
            {
              "name": "minimum",
              "type": "uint256"
            },
            {
              "name": "metadata",
              "type": "string"
            }
          ],
          "name": "_lineages",
          "type": "tuple[]"
        }
      ],
      "name": "createRFI",
      "outputs": [
        {
          "name": "RFIid",
          "type": "uint256"
        }
      ],
      "payable": false,
      "stateMutability": "nonpayable",
      "type": "function"
    },
    {
      "constant": false,
      "inputs": [
        {
          "name": "_RFIid",
          "type": "uint256"
        }
      ],
      "name": "mergeRFI",
      "outputs": [],
      "payable": false,
      "stateMutability": "nonpayable",
      "type": "function"
    },
    {
      "constant": false,
      "inputs": [
        {
          "name": "_RFIid",
          "type": "uint256"
        }
      ],
      "name": "rejectRFI",
      "outputs": [],
      "payable": false,
      "stateMutability": "nonpayable",
      "type": "function"
    },
    {
      "constant": false,
      "inputs": [
        {
          "name": "_RFLid",
          "type": "uint256"
        },
        {
          "name": "_value",
          "type": "uint256"
        }
      ],
      "name": "acceptRFL",
      "outputs": [],
      "payable": false,
      "stateMutability": "nonpayable",
      "type": "function"
    },
    {
      "constant": false,
      "inputs": [
        {
          "name": "_RFLid",
          "type": "uint256"
        }
      ],
      "name": "rejectRFL",
      "outputs": [],
      "payable": false,
      "stateMutability": "nonpayable",
      "type": "function"
    },
    {
      "constant": true,
      "inputs": [
        {
          "name": "_RFIid",
          "type": "uint256"
        }
      ],
      "name": "canMergeRFI",
      "outputs": [
        {
          "name": "",
          "type": "bool"
        }
      ],
      "payable": false,
      "stateMutability": "view",
      "type": "function"
    },
    {
      "constant": true,
      "inputs": [
        {
          "name": "_RFIid",
          "type": "uint256"
        }
      ],
      "name": "canRejectRFI",
      "outputs": [
        {
          "name": "",
          "type": "bool"
        }
      ],
      "payable": false,
      "stateMutability": "view",
      "type": "function"
    },
    {
      "constant": true,
      "inputs": [
        {
          "name": "_RFLid",
          "type": "uint256"
        },
        {
          "name": "_value",
          "type": "uint256"
        }
      ],
      "name": "canAcceptRFL",
      "outputs": [
        {
          "name": "",
          "type": "bool"
        }
      ],
      "payable": false,
      "stateMutability": "view",
      "type": "function"
    },
    {
      "constant": true,
      "inputs": [
        {
          "name": "_RFLid",
          "type": "uint256"
        }
      ],
      "name": "canRejectRFL",
      "outputs": [
        {
          "name": "",
          "type": "bool"
        }
      ],
      "payable": false,
      "stateMutability": "view",
      "type": "function"
    },
    {
      "constant": true,
      "inputs": [],
      "name": "getLineageToken",
      "outputs": [
        {
          "name": "",
          "type": "address"
        }
      ],
      "payable": false,
      "stateMutability": "view",
      "type": "function"
    },
    {
      "constant": true,
      "inputs": [
        {
          "name": "_RFIid",
          "type": "uint256"
        }
      ],
      "name": "getRFI",
      "outputs": [
        {
          "components": [
            {
              "components": [
                {
                  "name": "origin",
                  "type": "address"
                },
                {
                  "name": "tree",
                  "type": "string"
                },
                {
                  "name": "message",
                  "type": "string"
                },
                {
                  "name": "metadata",
                  "type": "string"
                },
                {
                  "components": [
                    {
                      "name": "organism",
                      "type": "address"
                    },
                    {
                      "name": "hash",
                      "type": "bytes32"
                    }
                  ],
                  "name": "parents",
                  "type": "tuple[]"
                }
              ],
              "name": "individuation",
              "type": "tuple"
            },
            {
              "name": "blockstamp",
              "type": "uint256"
            },
            {
              "name": "state",
              "type": "uint8"
            },
            {
              "name": "RFLids",
              "type": "uint256[]"
            }
          ],
          "name": "",
          "type": "tuple"
        }
      ],
      "payable": false,
      "stateMutability": "view",
      "type": "function"
    },
    {
      "constant": true,
      "inputs": [
        {
          "name": "_RFLid",
          "type": "uint256"
        }
      ],
      "name": "getRFL",
      "outputs": [
        {
          "components": [
            {
              "components": [
                {
                  "name": "destination",
                  "type": "address"
                },
                {
                  "name": "minimum",
                  "type": "uint256"
                },
                {
                  "name": "metadata",
                  "type": "string"
                }
              ],
              "name": "lineage",
              "type": "tuple"
            },
            {
              "name": "blockstamp",
              "type": "uint256"
            },
            {
              "name": "value",
              "type": "uint256"
            },
            {
              "name": "state",
              "type": "uint8"
            },
            {
              "name": "RFIid",
              "type": "uint256"
            }
          ],
          "name": "",
          "type": "tuple"
        }
      ],
      "payable": false,
      "stateMutability": "view",
      "type": "function"
    },
    {
      "constant": true,
      "inputs": [
        {
          "components": [
            {
              "name": "origin",
              "type": "address"
            },
            {
              "name": "blockstamp",
              "type": "uint256"
            },
            {
              "name": "tree",
              "type": "string"
            },
            {
              "name": "message",
              "type": "string"
            },
            {
              "name": "metadata",
              "type": "string"
            },
            {
              "components": [
                {
                  "name": "organism",
                  "type": "address"
                },
                {
                  "name": "hash",
                  "type": "bytes32"
                }
              ],
              "name": "parents",
              "type": "tuple[]"
            }
          ],
          "name": "_individuation",
          "type": "tuple"
        }
      ],
      "name": "getIndividuationHash",
      "outputs": [
        {
          "name": "",
          "type": "bytes32"
        }
      ],
      "payable": false,
      "stateMutability": "pure",
      "type": "function"
    },
    {
      "constant": true,
      "inputs": [],
      "name": "head",
      "outputs": [
        {
          "name": "",
          "type": "bytes32"
        }
      ],
      "payable": false,
      "stateMutability": "view",
      "type": "function"
    },
    {
      "constant": true,
      "inputs": [],
      "name": "getHead",
      "outputs": [
        {
          "components": [
            {
              "name": "origin",
              "type": "address"
            },
            {
              "name": "blockstamp",
              "type": "uint256"
            },
            {
              "name": "tree",
              "type": "string"
            },
            {
              "name": "message",
              "type": "string"
            },
            {
              "name": "metadata",
              "type": "string"
            },
            {
              "components": [
                {
                  "name": "organism",
                  "type": "address"
                },
                {
                  "name": "hash",
                  "type": "bytes32"
                }
              ],
              "name": "parents",
              "type": "tuple[]"
            }
          ],
          "name": "",
          "type": "tuple"
        }
      ],
      "payable": false,
      "stateMutability": "view",
      "type": "function"
    }
  ],
  "bytecode": "0x608060405260006004556000600555620000276200002d640100000000026401000000009004565b620002f9565b60006200004862000102640100000000026401000000009004565b146040805190810160405280601881526020017f494e49545f414c52454144595f494e495449414c495a45440000000000000000815250901515620000c5576040517f08c379a0000000000000000000000000000000000000000000000000000000008152600401620000bc919062000283565b60405180910390fd5b50620001007fffffffffffffffffffffffffffffffffffffffffffffffffffffffffffffffff6200014f640100000000026401000000009004565b565b60006200014a7febb05b386a8d34882b8711d156f463690983dc47815980fb82aeeff1aa43579e600102600019166200023564010000000002620033d0176401000000009004565b905090565b60006200016a62000102640100000000026401000000009004565b146040805190810160405280601881526020017f494e49545f414c52454144595f494e495449414c495a45440000000000000000815250901515620001e7576040517f08c379a0000000000000000000000000000000000000000000000000000000008152600401620001de919062000283565b60405180910390fd5b5062000232817febb05b386a8d34882b8711d156f463690983dc47815980fb82aeeff1aa43579e600102600019166200024064010000000002620036b1179091906401000000009004565b50565b600081549050919050565b8082555050565b60006200025482620002a7565b8084526200026a816020860160208601620002b2565b6200027581620002e8565b602085010191505092915050565b600060208201905081810360008301526200029f818462000247565b905092915050565b600081519050919050565b60005b83811015620002d2578082015181840152602081019050620002b5565b83811115620002e2576000848401525b50505050565b6000601f19601f8301169050919050565b6159ee80620003096000396000f30060806040526004361061020f576000357c0100000000000000000000000000000000000000000000000000000000900463ffffffff1680630803fac014610214578063082367801461023f578063103a90c81461026a578063143700be146102955780632914b9bd146102c05780632adab4ea146102fd5780632d2e8012146103285780633181f6b21461035357806332f0a3b51461039057806333ff6870146103bb57806339a2d338146103f85780634752915d14610435578063485cc955146104725780635b15970d1461049b5780635bddb420146104d85780636d5f5ca7146105175780636e0b314c14610540578063748b052c146105695780637e7db6e11461059257806380201af2146105cf57806380afdea8146105fa578063889bd35d146106255780638b3dd749146106625780638f7dcfa31461068d57806397569bb1146106b85780639bdc706d146106e35780639d4941d814610720578063a1658fad14610749578063a479e50814610786578063a7f0b3de146107b1578063b462e70b146107dc578063c34e0ed614610807578063c3eefd1e14610832578063c538f7de1461086f578063c74656e7146108b0578063d4aae0c4146108db578063dc281aff14610906578063ddf6fa9c14610931578063de4796ed1461095a578063e7fd8d0814610985578063e95fe2ff146109c2578063fd47d203146109ff578063fec7d70b14610a3c575b600080fd5b34801561022057600080fd5b50610229610a79565b60405161023691906152af565b60405180910390f35b34801561024b57600080fd5b50610254610aa4565b60405161026191906152ca565b60405180910390f35b34801561027657600080fd5b5061027f610add565b60405161028c91906155d4565b60405180910390f35b3480156102a157600080fd5b506102aa610ae3565b6040516102b7919061521f565b60405180910390f35b3480156102cc57600080fd5b506102e760048036036102e29190810190614818565b610b0d565b6040516102f4919061534b565b60405180910390f35b34801561030957600080fd5b50610312610bc4565b60405161031f91906152ca565b60405180910390f35b34801561033457600080fd5b5061033d610bfd565b60405161034a91906152ca565b60405180910390f35b34801561035f57600080fd5b5061037a600480360361037591908101906148be565b610c36565b60405161038791906155d4565b60405180910390f35b34801561039c57600080fd5b506103a5610db8565b6040516103b2919061521f565b60405180910390f35b3480156103c757600080fd5b506103e260048036036103dd9190810190614a2e565b610e62565b6040516103ef91906152af565b60405180910390f35b34801561040457600080fd5b5061041f600480360361041a919081019061492a565b610ecd565b60405161042c91906152ca565b60405180910390f35b34801561044157600080fd5b5061045c60048036036104579190810190614a80565b6110e2565b60405161046991906152af565b60405180910390f35b34801561047e57600080fd5b5061049960048036036104949190810190614859565b611178565b005b3480156104a757600080fd5b506104c260048036036104bd91908101906149ed565b61128a565b6040516104cf91906152af565b60405180910390f35b3480156104e457600080fd5b506104ff60048036036104fa9190810190614a2e565b6112b1565b60405161050e939291906154b4565b60405180910390f35b34801561052357600080fd5b5061053e60048036036105399190810190614a80565b6115f6565b005b34801561054c57600080fd5b5061056760048036036105629190810190614a2e565b6117bd565b005b34801561057557600080fd5b50610590600480360361058b9190810190614a2e565b611981565b005b34801561059e57600080fd5b506105b960048036036105b4919081019061470d565b611b45565b6040516105c691906152af565b60405180910390f35b3480156105db57600080fd5b506105e4611b50565b6040516105f191906155d4565b60405180910390f35b34801561060657600080fd5b5061060f611b56565b60405161061c91906152ca565b60405180910390f35b34801561063157600080fd5b5061064c60048036036106479190810190614a2e565b611b8d565b60405161065991906155b2565b60405180910390f35b34801561066e57600080fd5b50610677611d66565b60405161068491906155d4565b60405180910390f35b34801561069957600080fd5b506106a2611d9d565b6040516106af91906152ca565b60405180910390f35b3480156106c457600080fd5b506106cd611e61565b6040516106da91906152ca565b60405180910390f35b3480156106ef57600080fd5b5061070a60048036036107059190810190614a2e565b611e9a565b60405161071791906152af565b60405180910390f35b34801561072c57600080fd5b506107476004803603610742919081019061470d565b611f05565b005b34801561075557600080fd5b50610770600480360361076b919081019061475f565b612209565b60405161077d91906152af565b60405180910390f35b34801561079257600080fd5b5061079b612336565b6040516107a89190615366565b60405180910390f35b3480156107bd57600080fd5b506107c6612438565b6040516107d39190615330565b60405180910390f35b3480156107e857600080fd5b506107f161245d565b6040516107fe91906152ca565b60405180910390f35b34801561081357600080fd5b5061081c612496565b60405161082991906152ca565b60405180910390f35b34801561083e57600080fd5b5061085960048036036108549190810190614a2e565b6124cf565b60405161086691906152af565b60405180910390f35b34801561087b57600080fd5b5061089660048036036108919190810190614a2e565b6125cf565b6040516108a7959493929190615514565b60405180910390f35b3480156108bc57600080fd5b506108c561271f565b6040516108d2919061539c565b60405180910390f35b3480156108e757600080fd5b506108f0612745565b6040516108fd9190615381565b60405180910390f35b34801561091257600080fd5b5061091b61277c565b604051610928919061556e565b60405180910390f35b34801561093d57600080fd5b5061095860048036036109539190810190614a2e565b61284b565b005b34801561096657600080fd5b5061096f612a0f565b60405161097c91906152af565b60405180910390f35b34801561099157600080fd5b506109ac60048036036109a791908101906149ac565b612a40565b6040516109b991906152af565b60405180910390f35b3480156109ce57600080fd5b506109e960048036036109e491908101906149ed565b612a66565b6040516109f691906152af565b60405180910390f35b348015610a0b57600080fd5b50610a266004803603610a21919081019061492a565b612a8c565b604051610a3391906152ca565b60405180910390f35b348015610a4857600080fd5b50610a636004803603610a5e9190810190614a2e565b612a9e565b604051610a709190615590565b60405180910390f35b600080610a84611d66565b905060008114158015610a9e575080610a9b612ebc565b10155b91505090565b60405180807f52454a4543545f52464c5f524f4c450000000000000000000000000000000000815250600f019050604051809103902081565b60055481565b6000600160009054906101000a900473ffffffffffffffffffffffffffffffffffffffff16905090565b6000610b17612336565b73ffffffffffffffffffffffffffffffffffffffff166304bf2a7f836040518263ffffffff167c0100000000000000000000000000000000000000000000000000000000028152600401610b6b919061530e565b602060405180830381600087803b158015610b8557600080fd5b505af1158015610b99573d6000803e3d6000fd5b505050506040513d601f19601f82011682018060405250610bbd9190810190614895565b9050919050565b60405180807f4352454154455f5246495f524f4c450000000000000000000000000000000000815250600f019050604051809103902081565b60405180807f4d455247455f5246495f524f4c45000000000000000000000000000000000000815250600e019050604051809103902081565b6000610c40610a79565b6040805190810160405280601481526020017f494e49545f4e4f545f494e495449414c495a4544000000000000000000000000815250901515610cb9576040517f08c379a0000000000000000000000000000000000000000000000000000000008152600401610cb091906153d2565b60405180910390fd5b5060405180807f4352454154455f5246495f524f4c450000000000000000000000000000000000815250600f0190506040518091039020610d2b33826000604051908082528060200260200182016040528015610d255781602001602082028038833980820191505090505b50612209565b6040805190810160405280600f81526020017f4150505f415554485f4641494c45440000000000000000000000000000000000815250901515610da4576040517f08c379a0000000000000000000000000000000000000000000000000000000008152600401610d9b91906153d2565b60405180910390fd5b50610daf8484612ec4565b91505092915050565b6000610dc2612745565b73ffffffffffffffffffffffffffffffffffffffff166332f0a3b56040518163ffffffff167c0100000000000000000000000000000000000000000000000000000000028152600401602060405180830381600087803b158015610e2557600080fd5b505af1158015610e39573d6000803e3d6000fd5b505050506040513d601f19601f82011682018060405250610e5d9190810190614736565b905090565b6000600554821115610e775760009050610ec8565b60006004811115610e8457fe5b6003600084815260200190815260200160002060050160009054906101000a900460ff166004811115610eb357fe5b141515610ec35760009050610ec8565b600190505b919050565b6000816000015182602001518360400151846060015185608001518660a00151604051602001808773ffffffffffffffffffffffffffffffffffffffff1673ffffffffffffffffffffffffffffffffffffffff166c0100000000000000000000000002815260140186815260200185805190602001908083835b602083101515610f6c5780518252602082019150602081019050602083039250610f47565b6001836020036101000a03801982511681845116808217855250505050505090500184805190602001908083835b602083101515610fbf5780518252602082019150602081019050602083039250610f9a565b6001836020036101000a03801982511681845116808217855250505050505090500183805190602001908083835b6020831015156110125780518252602082019150602081019050602083039250610fed565b6001836020036101000a0380198251168184511680821785525050505050509050018280516000925b8184101561105e578284906020019060200201518152602001926001019261103b565b9250505096505050505050506040516020818303038152906040526040518082805190602001908083835b6020831015156110ae5780518252602082019150602081019050602083039250611089565b6001836020036101000a03801982511681845116808217855250505050505090500191505060405180910390209050919050565b60006005548311156110f75760009050611172565b6000600481111561110457fe5b6003600085815260200190815260200160002060050160009054906101000a900460ff16600481111561113357fe5b1415156111435760009050611172565b600360008481526020019081526020016000206000016001015482101561116d5760009050611172565b600190505b92915050565b6000611182611d66565b146040805190810160405280601881526020017f494e49545f414c52454144595f494e495449414c495a454400000000000000008152509015156111fc576040517f08c379a00000000000000000000000000000000000000000000000000000000081526004016111f391906153d2565b60405180910390fd5b5061120561314a565b816000806101000a81548173ffffffffffffffffffffffffffffffffffffffff021916908373ffffffffffffffffffffffffffffffffffffffff16021790555080600160006101000a81548173ffffffffffffffffffffffffffffffffffffffff021916908373ffffffffffffffffffffffffffffffffffffffff1602179055505050565b60006001600481111561129957fe5b826060015160048111156112a957fe5b149050919050565b60026020528060005260406000206000915090508060000160a060405190810160405290816000820160009054906101000a900473ffffffffffffffffffffffffffffffffffffffff1673ffffffffffffffffffffffffffffffffffffffff1673ffffffffffffffffffffffffffffffffffffffff168152602001600182018054600181600116156101000203166002900480601f0160208091040260200160405190810160405280929190818152602001828054600181600116156101000203166002900480156113c45780601f10611399576101008083540402835291602001916113c4565b820191906000526020600020905b8154815290600101906020018083116113a757829003601f168201915b50505050508152602001600282018054600181600116156101000203166002900480601f0160208091040260200160405190810160405280929190818152602001828054600181600116156101000203166002900480156114665780601f1061143b57610100808354040283529160200191611466565b820191906000526020600020905b81548152906001019060200180831161144957829003601f168201915b50505050508152602001600382018054600181600116156101000203166002900480601f0160208091040260200160405190810160405280929190818152602001828054600181600116156101000203166002900480156115085780601f106114dd57610100808354040283529160200191611508565b820191906000526020600020905b8154815290600101906020018083116114eb57829003601f168201915b5050505050815260200160048201805480602002602001604051908101604052809291908181526020016000905b828210156115d057838290600052602060002090600202016040805190810160405290816000820160009054906101000a900473ffffffffffffffffffffffffffffffffffffffff1673ffffffffffffffffffffffffffffffffffffffff1673ffffffffffffffffffffffffffffffffffffffff168152602001600182015460001916600019168152505081526020019060010190611536565b5050505081525050908060050154908060060160009054906101000a900460ff16905083565b6115fe610a79565b6040805190810160405280601481526020017f494e49545f4e4f545f494e495449414c495a4544000000000000000000000000815250901515611677576040517f08c379a000000000000000000000000000000000000000000000000000000000815260040161166e91906153d2565b60405180910390fd5b5060405180807f4143434550545f52464c5f524f4c450000000000000000000000000000000000815250600f01905060405180910390206116e9338260006040519080825280602002602001820160405280156116e35781602001602082028038833980820191505090505b50612209565b6040805190810160405280600f81526020017f4150505f415554485f4641494c45440000000000000000000000000000000000815250901515611762576040517f08c379a000000000000000000000000000000000000000000000000000000000815260040161175991906153d2565b60405180910390fd5b5061176d83836110e2565b15156117ae576040517f08c379a00000000000000000000000000000000000000000000000000000000081526004016117a5906153f4565b60405180910390fd5b6117b88383613212565b505050565b6117c5610a79565b6040805190810160405280601481526020017f494e49545f4e4f545f494e495449414c495a454400000000000000000000000081525090151561183e576040517f08c379a000000000000000000000000000000000000000000000000000000000815260040161183591906153d2565b60405180910390fd5b5060405180807f52454a4543545f52464c5f524f4c450000000000000000000000000000000000815250600f01905060405180910390206118b0338260006040519080825280602002602001820160405280156118aa5781602001602082028038833980820191505090505b50612209565b6040805190810160405280600f81526020017f4150505f415554485f4641494c45440000000000000000000000000000000000815250901515611929576040517f08c379a000000000000000000000000000000000000000000000000000000000815260040161192091906153d2565b60405180910390fd5b5061193382610e62565b1515611974576040517f08c379a000000000000000000000000000000000000000000000000000000000815260040161196b90615414565b60405180910390fd5b61197d82613295565b5050565b611989610a79565b6040805190810160405280601481526020017f494e49545f4e4f545f494e495449414c495a4544000000000000000000000000815250901515611a02576040517f08c379a00000000000000000000000000000000000000000000000000000000081526004016119f991906153d2565b60405180910390fd5b5060405180807f52454a4543545f5246495f524f4c450000000000000000000000000000000000815250600f0190506040518091039020611a7433826000604051908082528060200260200182016040528015611a6e5781602001602082028038833980820191505090505b50612209565b6040805190810160405280600f81526020017f4150505f415554485f4641494c45440000000000000000000000000000000000815250901515611aed576040517f08c379a0000000000000000000000000000000000000000000000000000000008152600401611ae491906153d2565b60405180910390fd5b50611af782611e9a565b1515611b38576040517f08c379a0000000000000000000000000000000000000000000000000000000008152600401611b2f90615474565b60405180910390fd5b611b4182613310565b5050565b600060019050919050565b60045481565b6000611b887fd625496217aa6a3453eecb9c3489dc5a53e6c67b444329ea2b2cbc9ff547639b600102600019166133c5565b905090565b611b956139dd565b816005548111151515611bdd576040517f08c379a0000000000000000000000000000000000000000000000000000000008152600401611bd490615434565b60405180910390fd5b6003600084815260200190815260200160002060a0604051908101604052908160008201606060405190810160405290816000820160009054906101000a900473ffffffffffffffffffffffffffffffffffffffff1673ffffffffffffffffffffffffffffffffffffffff1673ffffffffffffffffffffffffffffffffffffffff16815260200160018201548152602001600282018054600181600116156101000203166002900480601f016020809104026020016040519081016040528092919081815260200182805460018160011615610100020316600290048015611d065780601f10611cdb57610100808354040283529160200191611d06565b820191906000526020600020905b815481529060010190602001808311611ce957829003601f168201915b505050505081525050815260200160038201548152602001600482015481526020016005820160009054906101000a900460ff166004811115611d4557fe5b6004811115611d5057fe5b8152602001600682015481525050915050919050565b6000611d987febb05b386a8d34882b8711d156f463690983dc47815980fb82aeeff1aa43579e600102600019166133d0565b905090565b60008060009054906101000a900473ffffffffffffffffffffffffffffffffffffffff1673ffffffffffffffffffffffffffffffffffffffff16638f7dcfa36040518163ffffffff167c0100000000000000000000000000000000000000000000000000000000028152600401602060405180830381600087803b158015611e2457600080fd5b505af1158015611e38573d6000803e3d6000fd5b505050506040513d601f19601f82011682018060405250611e5c91908101906147ef565b905090565b60405180807f52454a4543545f5246495f524f4c450000000000000000000000000000000000815250600f019050604051809103902081565b6000600454821115611eaf5760009050611f00565b60006003811115611ebc57fe5b6002600084815260200190815260200160002060060160009054906101000a900460ff166003811115611eeb57fe5b141515611efb5760009050611f00565b600190505b919050565b600080611f1183611b45565b6040805190810160405280601281526020017f5245434f5645525f444953414c4c4f5745440000000000000000000000000000815250901515611f8a576040517f08c379a0000000000000000000000000000000000000000000000000000000008152600401611f8191906153d2565b60405180910390fd5b50611f93610db8565b9150611f9e826133db565b6040805190810160405280601a81526020017f5245434f5645525f5641554c545f4e4f545f434f4e5452414354000000000000815250901515612017576040517f08c379a000000000000000000000000000000000000000000000000000000000815260040161200e91906153d2565b60405180910390fd5b50600073ffffffffffffffffffffffffffffffffffffffff168373ffffffffffffffffffffffffffffffffffffffff1614156120b0578173ffffffffffffffffffffffffffffffffffffffff166108fc3073ffffffffffffffffffffffffffffffffffffffff16319081150290604051600060405180830381858888f193505050501580156120aa573d6000803e3d6000fd5b50612204565b8273ffffffffffffffffffffffffffffffffffffffff166370a08231306040518263ffffffff167c010000000000000000000000000000000000000000000000000000000002815260040161210591906153b7565b602060405180830381600087803b15801561211f57600080fd5b505af1158015612133573d6000803e3d6000fd5b505050506040513d601f19601f820116820180604052506121579190810190614a57565b90508273ffffffffffffffffffffffffffffffffffffffff1663a9059cbb83836040518363ffffffff167c01000000000000000000000000000000000000000000000000000000000281526004016121b0929190615286565b602060405180830381600087803b1580156121ca57600080fd5b505af11580156121de573d6000803e3d6000fd5b505050506040513d601f19601f8201168201806040525061220291908101906147c6565b505b505050565b60008060606000612218610a79565b1515612227576000935061232c565b61222f612745565b9250600073ffffffffffffffffffffffffffffffffffffffff168373ffffffffffffffffffffffffffffffffffffffff16141561226f576000935061232c565b602085510290508491508082528273ffffffffffffffffffffffffffffffffffffffff1663fdef9106883089866040518563ffffffff167c01000000000000000000000000000000000000000000000000000000000281526004016122d7949392919061523a565b602060405180830381600087803b1580156122f157600080fd5b505af1158015612305573d6000803e3d6000fd5b505050506040513d601f19601f8201168201806040525061232991908101906147c6565b93505b5050509392505050565b600080612341612745565b73ffffffffffffffffffffffffffffffffffffffff1663be00bbd87fd6f028ca0e8edb4a8c9757ca4fdccab25fa1e0317da1188108f7d2dee14902fb6001027fddbcfd564f642ab5627cf68b9b7d374fb4f8a36e941a75d89c87998cef03bd616001026040518363ffffffff167c01000000000000000000000000000000000000000000000000000000000281526004016123dd9291906152e5565b602060405180830381600087803b1580156123f757600080fd5b505af115801561240b573d6000803e3d6000fd5b505050506040513d601f19601f8201168201806040525061242f9190810190614736565b90508091505090565b6000809054906101000a900473ffffffffffffffffffffffffffffffffffffffff1681565b60405180807f4143434550545f52464c5f524f4c450000000000000000000000000000000000815250600f019050604051809103902081565b60405180807f494e4449564944554154455f524f4c45000000000000000000000000000000008152506010019050604051809103902081565b6000806000806004548511156124e857600093506125c7565b6002600086815260200190815260200160002092506000600381111561250a57fe5b8360060160009054906101000a900460ff16600381111561252757fe5b14151561253757600093506125c7565b600091505b82600701805490508210156125c25760036000846007018481548110151561256057fe5b9060005260206000200154815260200190815260200160002090506001600481111561258857fe5b8160050160009054906101000a900460ff1660048111156125a557fe5b1415156125b557600093506125c7565b818060010192505061253c565b600193505b505050919050565b600360205280600052604060002060009150905080600001606060405190810160405290816000820160009054906101000a900473ffffffffffffffffffffffffffffffffffffffff1673ffffffffffffffffffffffffffffffffffffffff1673ffffffffffffffffffffffffffffffffffffffff16815260200160018201548152602001600282018054600181600116156101000203166002900480601f0160208091040260200160405190810160405280929190818152602001828054600181600116156101000203166002900480156126ec5780601f106126c1576101008083540402835291602001916126ec565b820191906000526020600020905b8154815290600101906020018083116126cf57829003601f168201915b505050505081525050908060030154908060040154908060050160009054906101000a900460ff16908060060154905085565b600160009054906101000a900473ffffffffffffffffffffffffffffffffffffffff1681565b60006127777f4172f0f7d2289153072b0a6ca36959e0cbe2efc3afe50fc81636caa96338137b6001026000191661342d565b905090565b612784613a1e565b6000809054906101000a900473ffffffffffffffffffffffffffffffffffffffff1673ffffffffffffffffffffffffffffffffffffffff1663dc281aff6040518163ffffffff167c0100000000000000000000000000000000000000000000000000000000028152600401600060405180830381600087803b15801561280957600080fd5b505af115801561281d573d6000803e3d6000fd5b505050506040513d6000823e3d601f19601f82011682018060405250612846919081019061496b565b905090565b612853610a79565b6040805190810160405280601481526020017f494e49545f4e4f545f494e495449414c495a45440000000000000000000000008152509015156128cc576040517f08c379a00000000000000000000000000000000000000000000000000000000081526004016128c391906153d2565b60405180910390fd5b5060405180807f4d455247455f5246495f524f4c45000000000000000000000000000000000000815250600e019050604051809103902061293e338260006040519080825280602002602001820160405280156129385781602001602082028038833980820191505090505b50612209565b6040805190810160405280600f81526020017f4150505f415554485f4641494c454400000000000000000000000000000000008152509015156129b7576040517f08c379a00000000000000000000000000000000000000000000000000000000081526004016129ae91906153d2565b60405180910390fd5b506129c1826124cf565b1515612a02576040517f08c379a00000000000000000000000000000000000000000000000000000000081526004016129f990615454565b60405180910390fd5b612a0b82613438565b5050565b60007fffffffffffffffffffffffffffffffffffffffffffffffffffffffffffffffff612a3a611d66565b14905090565b6000806003811115612a4e57fe5b82604001516003811115612a5e57fe5b149050919050565b6000806004811115612a7457fe5b82606001516004811115612a8457fe5b149050919050565b6000612a9782610ecd565b9050919050565b612aa6613a6b565b816004548111151515612aee576040517f08c379a0000000000000000000000000000000000000000000000000000000008152600401612ae590615494565b60405180910390fd5b60026000848152602001908152602001600020608060405190810160405290816000820160a060405190810160405290816000820160009054906101000a900473ffffffffffffffffffffffffffffffffffffffff1673ffffffffffffffffffffffffffffffffffffffff1673ffffffffffffffffffffffffffffffffffffffff168152602001600182018054600181600116156101000203166002900480601f016020809104026020016040519081016040528092919081815260200182805460018160011615610100020316600290048015612c0d5780601f10612be257610100808354040283529160200191612c0d565b820191906000526020600020905b815481529060010190602001808311612bf057829003601f168201915b50505050508152602001600282018054600181600116156101000203166002900480601f016020809104026020016040519081016040528092919081815260200182805460018160011615610100020316600290048015612caf5780601f10612c8457610100808354040283529160200191612caf565b820191906000526020600020905b815481529060010190602001808311612c9257829003601f168201915b50505050508152602001600382018054600181600116156101000203166002900480601f016020809104026020016040519081016040528092919081815260200182805460018160011615610100020316600290048015612d515780601f10612d2657610100808354040283529160200191612d51565b820191906000526020600020905b815481529060010190602001808311612d3457829003601f168201915b5050505050815260200160048201805480602002602001604051908101604052809291908181526020016000905b82821015612e1957838290600052602060002090600202016040805190810160405290816000820160009054906101000a900473ffffffffffffffffffffffffffffffffffffffff1673ffffffffffffffffffffffffffffffffffffffff1673ffffffffffffffffffffffffffffffffffffffff168152602001600182015460001916600019168152505081526020019060010190612d7f565b50505050815250508152602001600582015481526020016006820160009054906101000a900460ff166003811115612e4d57fe5b6003811115612e5857fe5b815260200160078201805480602002602001604051908101604052809291908181526020018280548015612eab57602002820191906000526020600020905b815481526020019060010190808311612e97575b505050505081525050915050919050565b600043905090565b600080600080600080600160045401600481905550600454955060026000878152602001908152602001600020945087600001518560000160000160006101000a81548173ffffffffffffffffffffffffffffffffffffffff021916908373ffffffffffffffffffffffffffffffffffffffff1602179055508760200151856000016001019080519060200190612f5c929190613aa6565b508760400151856000016002019080519060200190612f7c929190613aa6565b508760600151856000016003019080519060200190612f9c929190613aa6565b5043856005018190555060008560060160006101000a81548160ff02191690836003811115612fc757fe5b02179055508760800151518560000160040181612fe49190613b26565b50600093505b87608001515184101561309c5787608001518481518110151561300957fe5b90602001906020020151856000016004018581548110151561302757fe5b906000526020600020906002020160008201518160000160006101000a81548173ffffffffffffffffffffffffffffffffffffffff021916908373ffffffffffffffffffffffffffffffffffffffff160217905550602082015181600101906000191690559050508380600101945050612fea565b600092505b8651831015613112576130cb87848151811015156130bb57fe5b9060200190602002015187613598565b91508460070180548091906001016130e39190613b58565b90508185600701828154811015156130f757fe5b906000526020600020018190555082806001019350506130a1565b857f35f2129c6d5c40f8bfc21ff096fc803eed03c578d74fabcf718966bce5e43a2460405160405180910390a2505050505092915050565b6000613154611d66565b146040805190810160405280601881526020017f494e49545f414c52454144595f494e495449414c495a454400000000000000008152509015156131ce576040517f08c379a00000000000000000000000000000000000000000000000000000000081526004016131c591906153d2565b60405180910390fd5b506132106131da612ebc565b7febb05b386a8d34882b8711d156f463690983dc47815980fb82aeeff1aa43579e600102600019166136b190919063ffffffff16565b565b600060036000848152602001908152602001600020905060018160050160006101000a81548160ff0219169083600481111561324a57fe5b0217905550818160040181905550827fe798dd1723e7dfead0c42290d937f51c95c8f80f616ab3c5d515dd62333d0c698360405161328891906155d4565b60405180910390a2505050565b600060036000838152602001908152602001600020905060038160050160006101000a81548160ff021916908360048111156132cd57fe5b02179055506132df81600601546136b8565b817feffb45481cc046f2f78b484c7ef03097fc7cd3f8cf92a6f150a6264c96c3e72c60405160405180910390a25050565b60008060026000848152602001908152602001600020915060028260060160006101000a81548160ff0219169083600381111561334957fe5b0217905550600090505b816007018054905081101561339357613386826007018281548110151561337657fe5b90600052602060002001546137d2565b8080600101915050613353565b827f572671bf73ebac1f3878b683b28d9a3864df03396326fbaa18f19c834a54b13a60405160405180910390a2505050565b600081549050919050565b600081549050919050565b600080600073ffffffffffffffffffffffffffffffffffffffff168373ffffffffffffffffffffffffffffffffffffffff16141561341c5760009150613427565b823b90506000811191505b50919050565b600081549050919050565b60008060026000848152602001908152602001600020915060018260060160006101000a81548160ff0219169083600381111561347157fe5b02179055506000809054906101000a900473ffffffffffffffffffffffffffffffffffffffff1673ffffffffffffffffffffffffffffffffffffffff1663a0a66f7c836000016040518263ffffffff167c01000000000000000000000000000000000000000000000000000000000281526004016134ef91906154f2565b600060405180830381600087803b15801561350957600080fd5b505af115801561351d573d6000803e3d6000fd5b50505050600090505b816007018054905081101561356657613559826007018281548110151561354957fe5b9060005260206000200154613840565b8080600101915050613526565b827f2ade3f30658e8481c8027d9227280e030ebbea37526a8e9e29887165e919e2ed60405160405180910390a2505050565b600080600160055401600581905550600554915060036000838152602001908152602001600020905083600001518160000160000160006101000a81548173ffffffffffffffffffffffffffffffffffffffff021916908373ffffffffffffffffffffffffffffffffffffffff16021790555083602001518160000160010181905550836040015181600001600201908051906020019061363a929190613aa6565b504381600301819055506000816004018190555060008160050160006101000a81548160ff0219169083600481111561366f57fe5b0217905550828160060181905550817fb696b79e6fa6e3e43f047d6702fce861e48c2267eeb009745f44a84b2c1dac4a60405160405180910390a25092915050565b8082555050565b600080600060026000858152602001908152602001600020925060038360060160006101000a81548160ff021916908360038111156136f357fe5b0217905550600091505b826007018054905082101561379f5760036000846007018481548110151561372157fe5b9060005260206000200154815260200190815260200160002090506003600481111561374957fe5b8160050160009054906101000a900460ff16600481111561376657fe5b14151561379257613791836007018381548110151561378157fe5b90600052602060002001546137d2565b5b81806001019250506136fd565b837f17c608dd7335e9c727c3e10aea0adfba0b0e6cc35c4935c1de31e3b10711da7560405160405180910390a250505050565b600060036000838152602001908152602001600020905060048160050160006101000a81548160ff0219169083600481111561380a57fe5b0217905550817f7b78710b9fa400a202f9262b7daad859bf5663f0d88d45073184584fe6a166e060405160405180910390a25050565b600060036000838152602001908152602001600020905060028160050160006101000a81548160ff0219169083600481111561387857fe5b0217905550600160009054906101000a900473ffffffffffffffffffffffffffffffffffffffff1673ffffffffffffffffffffffffffffffffffffffff166340c10f198260000160000160009054906101000a900473ffffffffffffffffffffffffffffffffffffffff1683600401546040518363ffffffff167c0100000000000000000000000000000000000000000000000000000000028152600401613921929190615286565b602060405180830381600087803b15801561393b57600080fd5b505af115801561394f573d6000803e3d6000fd5b505050506040513d601f19601f8201168201806040525061397391908101906147c6565b50817fb74d3ab32949c67c027c76911841ff5e997d1276e5244bba79e532fa6ce91f838260000160000160009054906101000a900473ffffffffffffffffffffffffffffffffffffffff1683600401546040516139d1929190615286565b60405180910390a25050565b60e0604051908101604052806139f1613b84565b8152602001600081526020016000815260200160006004811115613a1157fe5b8152602001600081525090565b60c060405190810160405280600073ffffffffffffffffffffffffffffffffffffffff16815260200160008152602001606081526020016060815260200160608152602001606081525090565b61010060405190810160405280613a80613bbc565b81526020016000815260200160006003811115613a9957fe5b8152602001606081525090565b828054600181600116156101000203166002900490600052602060002090601f016020900481019282601f10613ae757805160ff1916838001178555613b15565b82800160010185558215613b15579182015b82811115613b14578251825591602001919060010190613af9565b5b509050613b229190613c02565b5090565b815481835581811115613b5357600202816002028360005260206000209182019101613b529190613c27565b5b505050565b815481835581811115613b7f57818360005260206000209182019101613b7e9190613c02565b5b505050565b606060405190810160405280600073ffffffffffffffffffffffffffffffffffffffff16815260200160008152602001606081525090565b60a060405190810160405280600073ffffffffffffffffffffffffffffffffffffffff168152602001606081526020016060815260200160608152602001606081525090565b613c2491905b80821115613c20576000816000905550600101613c08565b5090565b90565b613c7291905b80821115613c6e57600080820160006101000a81549073ffffffffffffffffffffffffffffffffffffffff0219169055600182016000905550600201613c2d565b5090565b90565b6000613c81823561581c565b905092915050565b6000613c95825161581c565b905092915050565b600082601f8301121515613cb057600080fd5b8135613cc3613cbe8261561c565b6155ef565b91508181835260208401935060208101905083856040840282011115613ce857600080fd5b60005b83811015613d185781613cfe88826140c9565b845260208401935060408301925050600181019050613ceb565b5050505092915050565b600082601f8301121515613d3557600080fd5b8151613d48613d438261561c565b6155ef565b91508181835260208401935060208101905083856040840282011115613d6d57600080fd5b60005b83811015613d9d5781613d838882614115565b845260208401935060408301925050600181019050613d70565b5050505092915050565b600082601f8301121515613dba57600080fd5b8135613dcd613dc882615644565b6155ef565b9150818183526020840193506020810190508360005b83811015613e135781358601613df98882614331565b845260208401935060208301925050600181019050613de3565b5050505092915050565b600082601f8301121515613e3057600080fd5b8135613e43613e3e8261566c565b6155ef565b91508181835260208401935060208101905083856020840282011115613e6857600080fd5b60005b83811015613e985781613e7e88826146e5565b845260208401935060208301925050600181019050613e6b565b5050505092915050565b600082601f8301121515613eb557600080fd5b8135613ec8613ec382615694565b6155ef565b91508181835260208401935060208101905083856020840282011115613eed57600080fd5b60005b83811015613f1d5781613f0388826146e5565b845260208401935060208301925050600181019050613ef0565b5050505092915050565b6000613f33825161583c565b905092915050565b6000613f478235615848565b905092915050565b6000613f5b8251615848565b905092915050565b600082601f8301121515613f7657600080fd5b8135613f89613f84826156bc565b6155ef565b91508082526020830160208301858383011115613fa557600080fd5b613fb0838284615954565b50505092915050565b6000613fc58235615852565b905092915050565b6000613fd98251615864565b905092915050565b6000613fed8235615876565b905092915050565b60006140018235615888565b905092915050565b600061401582356158a1565b905092915050565b600082601f830112151561403057600080fd5b813561404361403e826156e8565b6155ef565b9150808252602083016020830185838301111561405f57600080fd5b61406a838284615954565b50505092915050565b600082601f830112151561408657600080fd5b8151614099614094826156e8565b6155ef565b915080825260208301602083018583830111156140b557600080fd5b6140c0838284615963565b50505092915050565b6000604082840312156140db57600080fd5b6140e560406155ef565b905060006140f584828501613c75565b600083015250602061410984828501613f3b565b60208301525092915050565b60006040828403121561412757600080fd5b61413160406155ef565b9050600061414184828501613c89565b600083015250602061415584828501613f4f565b60208301525092915050565b600060a0828403121561417357600080fd5b61417d60a06155ef565b9050600061418d84828501613c75565b600083015250602082013567ffffffffffffffff8111156141ad57600080fd5b6141b98482850161401d565b602083015250604082013567ffffffffffffffff8111156141d957600080fd5b6141e58482850161401d565b604083015250606082013567ffffffffffffffff81111561420557600080fd5b6142118482850161401d565b606083015250608082013567ffffffffffffffff81111561423157600080fd5b61423d84828501613c9d565b60808301525092915050565b600060a0828403121561425b57600080fd5b61426560a06155ef565b9050600061427584828501613c75565b600083015250602082013567ffffffffffffffff81111561429557600080fd5b6142a18482850161401d565b602083015250604082013567ffffffffffffffff8111156142c157600080fd5b6142cd8482850161401d565b604083015250606082013567ffffffffffffffff8111156142ed57600080fd5b6142f98482850161401d565b606083015250608082013567ffffffffffffffff81111561431957600080fd5b61432584828501613c9d565b60808301525092915050565b60006060828403121561434357600080fd5b61434d60606155ef565b9050600061435d84828501613c75565b6000830152506020614371848285016146e5565b602083015250604082013567ffffffffffffffff81111561439157600080fd5b61439d8482850161401d565b60408301525092915050565b600060c082840312156143bb57600080fd5b6143c560c06155ef565b905060006143d584828501613c75565b60008301525060206143e9848285016146e5565b602083015250604082013567ffffffffffffffff81111561440957600080fd5b6144158482850161401d565b604083015250606082013567ffffffffffffffff81111561443557600080fd5b6144418482850161401d565b606083015250608082013567ffffffffffffffff81111561446157600080fd5b61446d8482850161401d565b60808301525060a082013567ffffffffffffffff81111561448d57600080fd5b61449984828501613c9d565b60a08301525092915050565b600060c082840312156144b757600080fd5b6144c160c06155ef565b905060006144d184828501613c89565b60008301525060206144e5848285016146f9565b602083015250604082015167ffffffffffffffff81111561450557600080fd5b61451184828501614073565b604083015250606082015167ffffffffffffffff81111561453157600080fd5b61453d84828501614073565b606083015250608082015167ffffffffffffffff81111561455d57600080fd5b61456984828501614073565b60808301525060a082015167ffffffffffffffff81111561458957600080fd5b61459584828501613d22565b60a08301525092915050565b6000608082840312156145b357600080fd5b6145bd60806155ef565b9050600082013567ffffffffffffffff8111156145d957600080fd5b6145e584828501614161565b60008301525060206145f9848285016146e5565b602083015250604061460d84828501613ff5565b604083015250606082013567ffffffffffffffff81111561462d57600080fd5b61463984828501613e1d565b60608301525092915050565b600060a0828403121561465757600080fd5b61466160a06155ef565b9050600082013567ffffffffffffffff81111561467d57600080fd5b61468984828501614331565b600083015250602061469d848285016146e5565b60208301525060406146b1848285016146e5565b60408301525060606146c584828501614009565b60608301525060806146d9848285016146e5565b60808301525092915050565b60006146f182356158ba565b905092915050565b600061470582516158ba565b905092915050565b60006020828403121561471f57600080fd5b600061472d84828501613c75565b91505092915050565b60006020828403121561474857600080fd5b600061475684828501613c89565b91505092915050565b60008060006060848603121561477457600080fd5b600061478286828701613c75565b935050602061479386828701613f3b565b925050604084013567ffffffffffffffff8111156147b057600080fd5b6147bc86828701613ea2565b9150509250925092565b6000602082840312156147d857600080fd5b60006147e684828501613f27565b91505092915050565b60006020828403121561480157600080fd5b600061480f84828501613f4f565b91505092915050565b60006020828403121561482a57600080fd5b600082013567ffffffffffffffff81111561484457600080fd5b61485084828501613f63565b91505092915050565b6000806040838503121561486c57600080fd5b600061487a85828601613fb9565b925050602061488b85828601613fe1565b9150509250929050565b6000602082840312156148a757600080fd5b60006148b584828501613fcd565b91505092915050565b600080604083850312156148d157600080fd5b600083013567ffffffffffffffff8111156148eb57600080fd5b6148f785828601614249565b925050602083013567ffffffffffffffff81111561491457600080fd5b61492085828601613da7565b9150509250929050565b60006020828403121561493c57600080fd5b600082013567ffffffffffffffff81111561495657600080fd5b614962848285016143a9565b91505092915050565b60006020828403121561497d57600080fd5b600082015167ffffffffffffffff81111561499757600080fd5b6149a3848285016144a5565b91505092915050565b6000602082840312156149be57600080fd5b600082013567ffffffffffffffff8111156149d857600080fd5b6149e4848285016145a1565b91505092915050565b6000602082840312156149ff57600080fd5b600082013567ffffffffffffffff811115614a1957600080fd5b614a2584828501614645565b91505092915050565b600060208284031215614a4057600080fd5b6000614a4e848285016146e5565b91505092915050565b600060208284031215614a6957600080fd5b6000614a77848285016146f9565b91505092915050565b60008060408385031215614a9357600080fd5b6000614aa1858286016146e5565b9250506020614ab2858286016146e5565b9150509250929050565b614ac5816157b0565b82525050565b6000614ad682615752565b808452602084019350614ae883615714565b60005b82811015614b1a57614afe868351614ead565b614b0782615789565b9150604086019550600181019050614aeb565b50849250505092915050565b6000614b318261575d565b808452602084019350614b4383615721565b60005b82811015614b7457614b588683614edc565b614b6182615796565b9150604086019550600181019050614b46565b50849250505092915050565b6000614b8b82615768565b808452602084019350614b9d83615733565b60005b82811015614bcf57614bb3868351615210565b614bbc826157a3565b9150602086019550600181019050614ba0565b50849250505092915050565b614be4816157d0565b82525050565b614bf3816157dc565b82525050565b6000614c0482615773565b808452614c18816020860160208601615963565b614c2181615996565b602085010191505092915050565b614c38816158c4565b82525050565b614c47816158d6565b82525050565b614c56816158e8565b82525050565b614c65816158fa565b82525050565b614c748161590c565b82525050565b614c838161591e565b82525050565b614c9281615930565b82525050565b614ca181615942565b82525050565b6000614cb28261577e565b808452614cc6816020860160208601615963565b614ccf81615996565b602085010191505092915050565b600081546001811660008114614cfa5760018114614d1a57614d5b565b607f600283041680865260ff198316602087015260408601935050614d5b565b60028204808652602086019550614d3085615740565b60005b82811015614d5257815481890152600182019150602081019050614d33565b80880195505050505b505092915050565b6000601182527f63616e6e6f74206163636570742052464c0000000000000000000000000000006020830152604082019050919050565b6000601182527f63616e6e6f742072656a6563742052464c0000000000000000000000000000006020830152604082019050919050565b6000601282527f52464c20646f6573206e6f7420657869737400000000000000000000000000006020830152604082019050919050565b6000601082527f63616e6e6f74206d6572676520524649000000000000000000000000000000006020830152604082019050919050565b6000601182527f63616e6e6f742072656a656374205246490000000000000000000000000000006020830152604082019050919050565b6000601282527f52464920646f6573206e6f7420657869737400000000000000000000000000006020830152604082019050919050565b604082016000820151614ec36000850182614abc565b506020820151614ed66020850182614bea565b50505050565b604082016000808301549050614ef1816159a7565b614efe6000860182614abc565b5060018301549050614f0f816159a7565b614f1c6020860182614bea565b5050505050565b600060a083016000830151614f3b6000860182614abc565b5060208301518482036020860152614f538282614ca7565b91505060408301518482036040860152614f6d8282614ca7565b91505060608301518482036060860152614f878282614ca7565b91505060808301518482036080860152614fa18282614acb565b9150508091505092915050565b600060a083016000808401549050614fc5816159a7565b614fd26000870182614abc565b50600184018583036020870152614fe98382614cdd565b9250506002840185830360408701526150028382614cdd565b92505060038401858303606087015261501b8382614cdd565b9250506004840185830360808701526150348382614b26565b925050819250505092915050565b600060608301600083015161505a6000860182614abc565b50602083015161506d6020860182615210565b50604083015184820360408601526150858282614ca7565b9150508091505092915050565b600060c0830160008301516150aa6000860182614abc565b5060208301516150bd6020860182615210565b50604083015184820360408601526150d58282614ca7565b915050606083015184820360608601526150ef8282614ca7565b915050608083015184820360808601526151098282614ca7565b91505060a083015184820360a08601526151238282614acb565b9150508091505092915050565b6000608083016000830151848203600086015261514d8282614f23565b91505060208301516151626020860182615210565b5060408301516151756040860182614c89565b506060830151848203606086015261518d8282614b80565b9150508091505092915050565b600060a08301600083015184820360008601526151b78282615042565b91505060208301516151cc6020860182615210565b5060408301516151df6040860182615210565b5060608301516151f26060860182614c98565b5060808301516152056080860182615210565b508091505092915050565b61521981615812565b82525050565b60006020820190506152346000830184614abc565b92915050565b600060808201905061524f6000830187614abc565b61525c6020830186614abc565b6152696040830185614bea565b818103606083015261527b8184614bf9565b905095945050505050565b600060408201905061529b6000830185614abc565b6152a86020830184615210565b9392505050565b60006020820190506152c46000830184614bdb565b92915050565b60006020820190506152df6000830184614bea565b92915050565b60006040820190506152fa6000830185614bea565b6153076020830184614bea565b9392505050565b600060208201905081810360008301526153288184614bf9565b905092915050565b60006020820190506153456000830184614c2f565b92915050565b60006020820190506153606000830184614c3e565b92915050565b600060208201905061537b6000830184614c4d565b92915050565b60006020820190506153966000830184614c5c565b92915050565b60006020820190506153b16000830184614c6b565b92915050565b60006020820190506153cc6000830184614c7a565b92915050565b600060208201905081810360008301526153ec8184614ca7565b905092915050565b6000602082019050818103600083015261540d81614d63565b9050919050565b6000602082019050818103600083015261542d81614d9a565b9050919050565b6000602082019050818103600083015261544d81614dd1565b9050919050565b6000602082019050818103600083015261546d81614e08565b9050919050565b6000602082019050818103600083015261548d81614e3f565b9050919050565b600060208201905081810360008301526154ad81614e76565b9050919050565b600060608201905081810360008301526154ce8186614f23565b90506154dd6020830185615210565b6154ea6040830184614c89565b949350505050565b6000602082019050818103600083015261550c8184614fae565b905092915050565b600060a082019050818103600083015261552e8188615042565b905061553d6020830187615210565b61554a6040830186615210565b6155576060830185614c98565b6155646080830184615210565b9695505050505050565b600060208201905081810360008301526155888184615092565b905092915050565b600060208201905081810360008301526155aa8184615130565b905092915050565b600060208201905081810360008301526155cc818461519a565b905092915050565b60006020820190506155e96000830184615210565b92915050565b6000604051905081810181811067ffffffffffffffff8211171561561257600080fd5b8060405250919050565b600067ffffffffffffffff82111561563357600080fd5b602082029050602081019050919050565b600067ffffffffffffffff82111561565b57600080fd5b602082029050602081019050919050565b600067ffffffffffffffff82111561568357600080fd5b602082029050602081019050919050565b600067ffffffffffffffff8211156156ab57600080fd5b602082029050602081019050919050565b600067ffffffffffffffff8211156156d357600080fd5b601f19601f8301169050602081019050919050565b600067ffffffffffffffff8211156156ff57600080fd5b601f19601f8301169050602081019050919050565b6000602082019050919050565b60008160005260206000209050919050565b6000602082019050919050565b60008160005260206000209050919050565b600081519050919050565b600081549050919050565b600081519050919050565b600081519050919050565b600081519050919050565b6000602082019050919050565b6000600182019050919050565b6000602082019050919050565b600073ffffffffffffffffffffffffffffffffffffffff82169050919050565b60008115159050919050565b6000819050919050565b60006004821015156157f457fe5b819050919050565b600060058210151561580a57fe5b819050919050565b6000819050919050565b600073ffffffffffffffffffffffffffffffffffffffff82169050919050565b60008115159050919050565b6000819050919050565b600061585d826157b0565b9050919050565b600061586f826157b0565b9050919050565b6000615881826157b0565b9050919050565b600060048210151561589957600080fd5b819050919050565b60006005821015156158b257600080fd5b819050919050565b6000819050919050565b60006158cf826157b0565b9050919050565b60006158e1826157b0565b9050919050565b60006158f3826157b0565b9050919050565b6000615905826157b0565b9050919050565b6000615917826157b0565b9050919050565b6000615929826157b0565b9050919050565b600061593b826157e6565b9050919050565b600061594d826157fc565b9050919050565b82818337600083830152505050565b60005b83811015615981578082015181840152602081019050615966565b83811115615990576000848401525b50505050565b6000601f19601f8301169050919050565b60006001820490509190505600a265627a7a723058201b99573dd399b2d12a2b745d8128794509acf3ae7e8d3197be1ff4fa038e8ef26c6578706572696d656e74616cf50037",
  "source": "pragma solidity ^0.4.24;\npragma experimental ABIEncoderV2;\n\n/* import \"@aragon/apps-shared-minime/contracts/ITokenController.sol\";\nimport \"@aragon/apps-shared-minime/contracts/MiniMeToken.sol\"; */\nimport \"../lib/PandoApp.sol\";\nimport \"./Genesis.sol\";\nimport \"./Lineage.sol\";\n\n\ncontract Organism is PandoApp {\n    bytes32 constant public CREATE_RFI_ROLE  = keccak256(\"CREATE_RFI_ROLE\");\n    bytes32 constant public MERGE_RFI_ROLE   = keccak256(\"MERGE_RFI_ROLE\");\n    bytes32 constant public REJECT_RFI_ROLE  = keccak256(\"REJECT_RFI_ROLE\");\n    bytes32 constant public ACCEPT_RFL_ROLE  = keccak256(\"ACCEPT_RFL_ROLE\");\n    bytes32 constant public REJECT_RFL_ROLE  = keccak256(\"REJECT_RFL_ROLE\");\n    bytes32 constant public INDIVIDUATE_ROLE = keccak256(\"INDIVIDUATE_ROLE\");\n\n    Genesis public genesis;\n    Lineage public lineage;\n\n    // Use a mapping instead of an array to ease app upgrade\n    // See https://github.com/aragon/aragon-apps/pull/428\n    // See https://youtu.be/sJ7VECqHFAg?t=9m27s\n    mapping (uint256 => RFI) public RFIs;\n    mapping (uint256 => RFL) public RFLs;\n\n    uint256 public RFIsLength = 0;\n    uint256 public RFLsLength = 0;\n\n\n    event CreateRFI(uint256 indexed id);\n    event MergeRFI(uint256 indexed id);\n    event RejectRFI(uint256 indexed id);\n    event CancelRFI(uint256 indexed id);\n\n    event CreateRFL(uint256 indexed id);\n    event AcceptRFL(uint256 indexed id, uint256 value);\n    event RejectRFL(uint256 indexed id);\n    event CancelRFL(uint256 indexed id);\n    event IssueRFL(uint256 indexed id, address destination, uint256 value);\n\n    modifier RFIExists(uint256 _RFIid) {\n        require(_RFIid <= RFIsLength, \"RFI does not exist\");\n        _;\n    }\n\n    modifier RFLExists(uint256 _RFLid) {\n        require(_RFLid <= RFLsLength, \"RFL does not exist\");\n        _;\n    }\n\n    /*--------------------*/\n\n    function initialize(Genesis _genesis, Lineage _lineage) external onlyInit {\n        initialized();\n        genesis = _genesis;\n        lineage = _lineage;\n    }\n\n    function createRFI(IIndividuation _individuation, ILineage[] _lineages)\n        public\n        isInitialized\n        auth(CREATE_RFI_ROLE)\n        returns (uint256 RFIid)\n    {\n        RFIid = _createRFI(_individuation, _lineages);\n    }\n\n    function mergeRFI(uint256 _RFIid) public isInitialized auth(MERGE_RFI_ROLE) {\n        require(canMergeRFI(_RFIid), \"cannot merge RFI\");\n        _mergeRFI(_RFIid);\n    }\n\n    function rejectRFI(uint256 _RFIid) public isInitialized auth(REJECT_RFI_ROLE) {\n        require(canRejectRFI(_RFIid), \"cannot reject RFI\");\n        _rejectRFI(_RFIid);\n    }\n\n    function acceptRFL(uint256 _RFLid, uint256 _value) public isInitialized auth(ACCEPT_RFL_ROLE) {\n        require(canAcceptRFL(_RFLid, _value), \"cannot accept RFL\");\n        _acceptRFL(_RFLid, _value);\n    }\n\n    function rejectRFL(uint256 _RFLid) public isInitialized auth(REJECT_RFL_ROLE) {\n        require(canRejectRFL(_RFLid), \"cannot reject RFL\");\n        _rejectRFL(_RFLid);\n    }\n\n    /*--------------------*/\n\n    function canMergeRFI(uint256 _RFIid) public view returns (bool) {\n        if (_RFIid > RFIsLength)\n            return false;\n        RFI storage RFI_ = RFIs[_RFIid];\n        if (RFI_.state != RFIState.Pending)\n            return false;\n        for (uint256 i = 0; i < RFI_.RFLids.length; i++) {\n            RFL storage rfl = RFLs[RFI_.RFLids[i]];\n            if (rfl.state != RFLState.Accepted)\n                return false;\n        }\n        return true;\n    }\n\n    function canRejectRFI(uint _RFIid) public view returns (bool) {\n        if (_RFIid > RFIsLength)\n            return false;\n        if (RFIs[_RFIid].state != RFIState.Pending)\n            return false;\n        return true;\n    }\n\n    function canAcceptRFL(uint256 _RFLid, uint256 _value) public view returns (bool) {\n        if (_RFLid > RFLsLength)\n            return false;\n        if (RFLs[_RFLid].state != RFLState.Pending)\n            return false;\n        if (_value < RFLs[_RFLid].lineage.minimum)\n            return false;\n        return true;\n    }\n\n    function canRejectRFL(uint _RFLid) public view returns (bool) {\n        if (_RFLid > RFLsLength)\n            return false;\n        if (RFLs[_RFLid].state != RFLState.Pending)\n            return false;\n        return true;\n    }\n\n    /*--------------------*/\n\n    function getLineageToken() public view returns (address) {\n        return address(lineage);\n    }\n\n\n    function getRFI(uint256 _RFIid) public view RFIExists(_RFIid) returns (RFI) {\n        return RFIs[_RFIid];\n    }\n\n    function getRFL(uint256 _RFLid) public view RFLExists(_RFLid) returns (RFL) {\n        return RFLs[_RFLid];\n    }\n\n    function getIndividuationHash(Individuation _individuation) public pure returns (bytes32) {\n        return hash(_individuation);\n    }\n\n    function head() public view returns (bytes32) {\n        return genesis.head();\n    }\n\n    function getHead() public view returns (PandoApp.Individuation) {\n        return genesis.getHead();\n    }\n\n    /*--------------------*/\n\n    function _createRFI(IIndividuation _individuation, ILineage[] _lineages) internal returns (uint256 RFIid) {\n        // msg.sender is gonna be the address of a governance kit built on top of the API\n        // Do you we wanna make sure that the transaction is actually initialized by _individuation.origin ?\n        // If this is the case then we're gonna need to ask for a proof of identity through a ECDSA signature\n        // See https://github.com/OpenZeppelin/openzeppelin-solidity/blob/master/contracts/cryptography/ECDSA.sol\n\n        RFIsLength = RFIsLength + 1;\n        RFIid = RFIsLength;\n\n        RFI storage rfi = RFIs[RFIid];\n\n        rfi.individuation.origin = _individuation.origin;\n        rfi.individuation.tree = _individuation.tree;\n        rfi.individuation.message = _individuation.message;\n        rfi.individuation.metadata = _individuation.metadata;\n        rfi.blockstamp = block.number;\n        rfi.state = RFIState.Pending;\n\n        // solc 4.0.24 cannot directly convert dynamic struct array from memory to storage\n        rfi.individuation.parents.length = _individuation.parents.length;\n        for (uint256 i = 0; i < _individuation.parents.length; i++) {\n            rfi.individuation.parents[i] = _individuation.parents[i];\n        }\n\n        for (uint256 j = 0; j < _lineages.length; j++) {\n            uint256 RFLid = _createRFL(_lineages[j], RFIid);\n            uint256 index = rfi.RFLids.length++;\n            rfi.RFLids[index] = RFLid;\n        }\n\n        emit CreateRFI(RFIid);\n    }\n\n    function _mergeRFI(uint256 _RFIid) internal {\n        RFI storage rfi = RFIs[_RFIid];\n\n        rfi.state = RFIState.Merged;\n\n        genesis.individuate(rfi.individuation);\n\n        for (uint256 i = 0; i < rfi.RFLids.length; i++) {\n            _issueRFL(rfi.RFLids[i]);\n        }\n\n        emit MergeRFI(_RFIid);\n    }\n\n    function _rejectRFI(uint256 _RFIid) internal {\n        RFI storage rfi = RFIs[_RFIid];\n\n        rfi.state = RFIState.Rejected;\n\n        for (uint256 j = 0; j < rfi.RFLids.length; j++) {\n            _cancelRFL(rfi.RFLids[j]);\n        }\n\n        emit RejectRFI(_RFIid);\n    }\n\n    function _cancelRFI(uint256 _RFIid) internal {\n        RFI storage rfi = RFIs[_RFIid];\n\n        rfi.state = RFIState.Cancelled;\n\n        for (uint256 i = 0; i < rfi.RFLids.length; i++) {\n            RFL storage rfl = RFLs[rfi.RFLids[i]];\n\n            if (rfl.state != RFLState.Rejected)\n                _cancelRFL(rfi.RFLids[i]);\n        }\n\n        emit CancelRFI(_RFIid);\n    }\n\n    function _createRFL(ILineage _lineage, uint256 _RFIid) internal returns (uint256 RFLid) {\n        RFLsLength = RFLsLength + 1;\n        RFLid = RFLsLength;\n\n        RFL storage rfl = RFLs[RFLid];\n\n        rfl.lineage.destination = _lineage.destination;\n        rfl.lineage.minimum = _lineage.minimum;\n        rfl.lineage.metadata = _lineage.metadata;\n        rfl.blockstamp = block.number;\n        rfl.value = 0;\n        rfl.state = RFLState.Pending;\n        rfl.RFIid = _RFIid;\n\n        emit CreateRFL(RFLid);\n    }\n\n    function _acceptRFL(uint256 _RFLid, uint256 _value) internal {\n        RFL storage rfl = RFLs[_RFLid];\n\n        rfl.state = RFLState.Accepted;\n        rfl.value = _value;\n\n        emit AcceptRFL(_RFLid, _value);\n    }\n\n    function _rejectRFL(uint256 _RFLid) internal {\n        RFL storage rfl = RFLs[_RFLid];\n\n        rfl.state = RFLState.Rejected;\n\n        _cancelRFI(rfl.RFIid);\n\n        emit RejectRFL(_RFLid);\n    }\n\n    function _cancelRFL(uint256 _RFLid) internal {\n        RFL storage rfl = RFLs[_RFLid];\n\n        rfl.state = RFLState.Cancelled;\n\n        emit CancelRFL(_RFLid);\n    }\n\n    function _issueRFL(uint256 _RFLid) internal {\n        RFL storage rfl = RFLs[_RFLid];\n\n        rfl.state = RFLState.Issued;\n\n        lineage.mint(rfl.lineage.destination, rfl.value);\n\n        emit IssueRFL(_RFLid, rfl.lineage.destination, rfl.value);\n    }\n}\n",
  "sourcePath": "/Users/osarrouy/Documents/dapp/@pando/packages/organism/contracts/core/Organism.sol",
  "compiler": {
    "name": "solc",
    "version": "0.4.24+commit.e67f0147.Emscripten.clang"
  },
  "schemaVersion": "3.0.0-beta.0",
  "updatedAt": "2018-11-28T12:42:48.988Z"
}