{
  "contractName": "PandoGenesis",
  "abi": [
    {
      "constant": true,
      "inputs": [],
      "name": "hasInitialized",
      "outputs": [
        {
          "name": "",
          "type": "bool"
        }
      ],
      "payable": false,
      "stateMutability": "view",
      "type": "function"
    },
    {
      "constant": true,
      "inputs": [],
      "name": "KERNEL_APP_ID",
      "outputs": [
        {
          "name": "",
          "type": "bytes32"
        }
      ],
      "payable": false,
      "stateMutability": "view",
      "type": "function"
    },
    {
      "constant": true,
      "inputs": [],
      "name": "APP_ADDR_NAMESPACE",
      "outputs": [
        {
          "name": "",
          "type": "bytes32"
        }
      ],
      "payable": false,
      "stateMutability": "view",
      "type": "function"
    },
    {
      "constant": true,
      "inputs": [],
      "name": "getRecoveryVault",
      "outputs": [
        {
          "name": "",
          "type": "address"
        }
      ],
      "payable": false,
      "stateMutability": "view",
      "type": "function"
    },
    {
      "constant": true,
      "inputs": [
        {
          "components": [
            {
              "name": "origin",
              "type": "address"
            },
            {
              "name": "blockstamp",
              "type": "uint256"
            },
            {
              "name": "tree",
              "type": "string"
            },
            {
              "name": "message",
              "type": "string"
            },
            {
              "name": "metadata",
              "type": "string"
            },
            {
              "components": [
                {
                  "name": "api",
                  "type": "address"
                },
                {
                  "name": "hash",
                  "type": "bytes32"
                }
              ],
              "name": "parents",
              "type": "tuple[]"
            }
          ],
          "name": "_individuation",
          "type": "tuple"
        }
      ],
      "name": "hash",
      "outputs": [
        {
          "name": "",
          "type": "bytes32"
        }
      ],
      "payable": false,
      "stateMutability": "pure",
      "type": "function"
    },
    {
      "constant": true,
      "inputs": [
        {
          "components": [
            {
              "components": [
                {
                  "name": "destination",
                  "type": "address"
                },
                {
                  "name": "minimum",
                  "type": "uint256"
                },
                {
                  "name": "metadata",
                  "type": "string"
                }
              ],
              "name": "lineage",
              "type": "tuple"
            },
            {
              "name": "blockstamp",
              "type": "uint256"
            },
            {
              "name": "value",
              "type": "uint256"
            },
            {
              "name": "state",
              "type": "uint8"
            },
            {
              "name": "RFIid",
              "type": "uint256"
            }
          ],
          "name": "_RFL",
          "type": "tuple"
        }
      ],
      "name": "isAccepted",
      "outputs": [
        {
          "name": "",
          "type": "bool"
        }
      ],
      "payable": false,
      "stateMutability": "pure",
      "type": "function"
    },
    {
      "constant": true,
      "inputs": [],
      "name": "EVMSCRIPT_REGISTRY_APP_ID",
      "outputs": [
        {
          "name": "",
          "type": "bytes32"
        }
      ],
      "payable": false,
      "stateMutability": "view",
      "type": "function"
    },
    {
      "constant": true,
      "inputs": [],
      "name": "CORE_NAMESPACE",
      "outputs": [
        {
          "name": "",
          "type": "bytes32"
        }
      ],
      "payable": false,
      "stateMutability": "view",
      "type": "function"
    },
    {
      "constant": true,
      "inputs": [
        {
          "name": "token",
          "type": "address"
        }
      ],
      "name": "allowRecoverability",
      "outputs": [
        {
          "name": "",
          "type": "bool"
        }
      ],
      "payable": false,
      "stateMutability": "view",
      "type": "function"
    },
    {
      "constant": true,
      "inputs": [],
      "name": "appId",
      "outputs": [
        {
          "name": "",
          "type": "bytes32"
        }
      ],
      "payable": false,
      "stateMutability": "view",
      "type": "function"
    },
    {
      "constant": true,
      "inputs": [],
      "name": "ETH",
      "outputs": [
        {
          "name": "",
          "type": "address"
        }
      ],
      "payable": false,
      "stateMutability": "view",
      "type": "function"
    },
    {
      "constant": true,
      "inputs": [],
      "name": "getInitializationBlock",
      "outputs": [
        {
          "name": "",
          "type": "uint256"
        }
      ],
      "payable": false,
      "stateMutability": "view",
      "type": "function"
    },
    {
      "constant": true,
      "inputs": [],
      "name": "head",
      "outputs": [
        {
          "name": "",
          "type": "bytes32"
        }
      ],
      "payable": false,
      "stateMutability": "view",
      "type": "function"
    },
    {
      "constant": false,
      "inputs": [
        {
          "name": "_token",
          "type": "address"
        }
      ],
      "name": "transferToVault",
      "outputs": [],
      "payable": false,
      "stateMutability": "nonpayable",
      "type": "function"
    },
    {
      "constant": true,
      "inputs": [
        {
          "name": "_sender",
          "type": "address"
        },
        {
          "name": "_role",
          "type": "bytes32"
        },
        {
          "name": "_params",
          "type": "uint256[]"
        }
      ],
      "name": "canPerform",
      "outputs": [
        {
          "name": "",
          "type": "bool"
        }
      ],
      "payable": false,
      "stateMutability": "view",
      "type": "function"
    },
    {
      "constant": true,
      "inputs": [],
      "name": "INDIVIDUATE_ROLE",
      "outputs": [
        {
          "name": "",
          "type": "bytes32"
        }
      ],
      "payable": false,
      "stateMutability": "view",
      "type": "function"
    },
    {
      "constant": true,
      "inputs": [],
      "name": "ACL_APP_ID",
      "outputs": [
        {
          "name": "",
          "type": "bytes32"
        }
      ],
      "payable": false,
      "stateMutability": "view",
      "type": "function"
    },
    {
      "constant": true,
      "inputs": [],
      "name": "kernel",
      "outputs": [
        {
          "name": "",
          "type": "address"
        }
      ],
      "payable": false,
      "stateMutability": "view",
      "type": "function"
    },
    {
      "constant": true,
      "inputs": [],
      "name": "APP_BASES_NAMESPACE",
      "outputs": [
        {
          "name": "",
          "type": "bytes32"
        }
      ],
      "payable": false,
      "stateMutability": "view",
      "type": "function"
    },
    {
      "constant": true,
      "inputs": [],
      "name": "isPetrified",
      "outputs": [
        {
          "name": "",
          "type": "bool"
        }
      ],
      "payable": false,
      "stateMutability": "view",
      "type": "function"
    },
    {
      "constant": true,
      "inputs": [
        {
          "components": [
            {
              "components": [
                {
                  "name": "origin",
                  "type": "address"
                },
                {
                  "name": "tree",
                  "type": "string"
                },
                {
                  "name": "message",
                  "type": "string"
                },
                {
                  "name": "metadata",
                  "type": "string"
                },
                {
                  "components": [
                    {
                      "name": "api",
                      "type": "address"
                    },
                    {
                      "name": "hash",
                      "type": "bytes32"
                    }
                  ],
                  "name": "parents",
                  "type": "tuple[]"
                }
              ],
              "name": "individuation",
              "type": "tuple"
            },
            {
              "name": "blockstamp",
              "type": "uint256"
            },
            {
              "name": "state",
              "type": "uint8"
            },
            {
              "name": "RFLids",
              "type": "uint256[]"
            }
          ],
          "name": "_RFI",
          "type": "tuple"
        }
      ],
      "name": "isPending",
      "outputs": [
        {
          "name": "",
          "type": "bool"
        }
      ],
      "payable": false,
      "stateMutability": "pure",
      "type": "function"
    },
    {
      "constant": true,
      "inputs": [
        {
          "components": [
            {
              "components": [
                {
                  "name": "destination",
                  "type": "address"
                },
                {
                  "name": "minimum",
                  "type": "uint256"
                },
                {
                  "name": "metadata",
                  "type": "string"
                }
              ],
              "name": "lineage",
              "type": "tuple"
            },
            {
              "name": "blockstamp",
              "type": "uint256"
            },
            {
              "name": "value",
              "type": "uint256"
            },
            {
              "name": "state",
              "type": "uint8"
            },
            {
              "name": "RFIid",
              "type": "uint256"
            }
          ],
          "name": "_RFL",
          "type": "tuple"
        }
      ],
      "name": "isPending",
      "outputs": [
        {
          "name": "",
          "type": "bool"
        }
      ],
      "payable": false,
      "stateMutability": "pure",
      "type": "function"
    },
    {
      "constant": true,
      "inputs": [
        {
          "name": "",
          "type": "bytes32"
        }
      ],
      "name": "individuations",
      "outputs": [
        {
          "name": "origin",
          "type": "address"
        },
        {
          "name": "blockstamp",
          "type": "uint256"
        },
        {
          "name": "tree",
          "type": "string"
        },
        {
          "name": "message",
          "type": "string"
        },
        {
          "name": "metadata",
          "type": "string"
        }
      ],
      "payable": false,
      "stateMutability": "view",
      "type": "function"
    },
    {
      "constant": true,
      "inputs": [
        {
          "name": "_script",
          "type": "bytes"
        }
      ],
      "name": "getExecutor",
      "outputs": [
        {
          "name": "",
          "type": "address"
        }
      ],
      "payable": false,
      "stateMutability": "view",
      "type": "function"
    },
    {
      "anonymous": false,
      "inputs": [
        {
          "indexed": false,
          "name": "hash",
          "type": "bytes32"
        }
      ],
      "name": "Individuate",
      "type": "event"
    },
    {
      "anonymous": false,
      "inputs": [
        {
          "indexed": true,
          "name": "executor",
          "type": "address"
        },
        {
          "indexed": false,
          "name": "script",
          "type": "bytes"
        },
        {
          "indexed": false,
          "name": "input",
          "type": "bytes"
        },
        {
          "indexed": false,
          "name": "returnData",
          "type": "bytes"
        }
      ],
      "name": "ScriptResult",
      "type": "event"
    },
    {
      "constant": false,
      "inputs": [],
      "name": "initialize",
      "outputs": [],
      "payable": false,
      "stateMutability": "nonpayable",
      "type": "function"
    },
    {
      "constant": false,
      "inputs": [
        {
          "components": [
            {
              "name": "origin",
              "type": "address"
            },
            {
              "name": "tree",
              "type": "string"
            },
            {
              "name": "message",
              "type": "string"
            },
            {
              "name": "metadata",
              "type": "string"
            },
            {
              "components": [
                {
                  "name": "api",
                  "type": "address"
                },
                {
                  "name": "hash",
                  "type": "bytes32"
                }
              ],
              "name": "parents",
              "type": "tuple[]"
            }
          ],
          "name": "_individuation",
          "type": "tuple"
        }
      ],
      "name": "individuate",
      "outputs": [],
      "payable": false,
      "stateMutability": "nonpayable",
      "type": "function"
    },
    {
      "constant": true,
      "inputs": [
        {
          "name": "_hash",
          "type": "bytes32"
        }
      ],
      "name": "getIndividuation",
      "outputs": [
        {
          "components": [
            {
              "name": "origin",
              "type": "address"
            },
            {
              "name": "blockstamp",
              "type": "uint256"
            },
            {
              "name": "tree",
              "type": "string"
            },
            {
              "name": "message",
              "type": "string"
            },
            {
              "name": "metadata",
              "type": "string"
            },
            {
              "components": [
                {
                  "name": "api",
                  "type": "address"
                },
                {
                  "name": "hash",
                  "type": "bytes32"
                }
              ],
              "name": "parents",
              "type": "tuple[]"
            }
          ],
          "name": "",
          "type": "tuple"
        }
      ],
      "payable": false,
      "stateMutability": "view",
      "type": "function"
    },
    {
      "constant": true,
      "inputs": [],
      "name": "getHead",
      "outputs": [
        {
          "components": [
            {
              "name": "origin",
              "type": "address"
            },
            {
              "name": "blockstamp",
              "type": "uint256"
            },
            {
              "name": "tree",
              "type": "string"
            },
            {
              "name": "message",
              "type": "string"
            },
            {
              "name": "metadata",
              "type": "string"
            },
            {
              "components": [
                {
                  "name": "api",
                  "type": "address"
                },
                {
                  "name": "hash",
                  "type": "bytes32"
                }
              ],
              "name": "parents",
              "type": "tuple[]"
            }
          ],
          "name": "",
          "type": "tuple"
        }
      ],
      "payable": false,
      "stateMutability": "view",
      "type": "function"
    }
  ],
  "bytecode": "0x60806040526200001d62000023640100000000026401000000009004565b6200015b565b60006200003e62000087640100000000026401000000009004565b1415156200004b57600080fd5b620000857fffffffffffffffffffffffffffffffffffffffffffffffffffffffffffffffff620000d4640100000000026401000000009004565b565b6000620000cf7febb05b386a8d34882b8711d156f463690983dc47815980fb82aeeff1aa43579e60010260001916620001496401000000000262001d3c176401000000009004565b905090565b6000620000ef62000087640100000000026401000000009004565b141515620000fc57600080fd5b62000146817febb05b386a8d34882b8711d156f463690983dc47815980fb82aeeff1aa43579e60010260001916620001546401000000000262001ea6179091906401000000009004565b50565b600081549050919050565b8082555050565b613147806200016b6000396000f30060806040526004361061016a576000357c0100000000000000000000000000000000000000000000000000000000900463ffffffff1680630803fac01461016f5780631113ed0d1461019a578063115cb3ad146101c5578063178e60791461020257806332f0a3b51461022d57806339a2d338146102585780635b15970d1461029557806360b1e057146102d2578063756f6049146102fd5780637e7db6e11461032857806380afdea8146103655780638129fc1c146103905780638322fff2146103a75780638b3dd749146103d25780638f7dcfa3146103fd5780639d4941d814610428578063a0a66f7c14610451578063a1658fad1461047a578063c34e0ed6146104b7578063cbcc65eb146104e2578063d4aae0c41461050d578063db8a61d414610538578063dc281aff14610563578063de4796ed1461058e578063e7fd8d08146105b9578063e95fe2ff146105f6578063f131fb9914610633578063f92a79ff14610674575b600080fd5b34801561017b57600080fd5b506101846106b1565b6040516101919190612d79565b60405180910390f35b3480156101a657600080fd5b506101af6106dc565b6040516101bc9190612d94565b60405180910390f35b3480156101d157600080fd5b506101ec60048036036101e791908101906128c4565b610703565b6040516101f99190612e4b565b60405180910390f35b34801561020e57600080fd5b50610217610a59565b6040516102249190612d94565b60405180910390f35b34801561023957600080fd5b50610242610a80565b60405161024f9190612c81565b60405180910390f35b34801561026457600080fd5b5061027f600480360361027a9190810190612998565b610b6c565b60405161028c9190612d94565b60405180910390f35b3480156102a157600080fd5b506102bc60048036036102b79190810190612a1a565b610d81565b6040516102c99190612d79565b60405180910390f35b3480156102de57600080fd5b506102e7610da8565b6040516102f49190612d94565b60405180910390f35b34801561030957600080fd5b50610312610dcf565b60405161031f9190612d94565b60405180910390f35b34801561033457600080fd5b5061034f600480360361034a91908101906127e2565b610df6565b60405161035c9190612d79565b60405180910390f35b34801561037157600080fd5b5061037a610e01565b6040516103879190612d94565b60405180910390f35b34801561039c57600080fd5b506103a5610e38565b005b3480156103b357600080fd5b506103bc610e58565b6040516103c99190612c81565b60405180910390f35b3480156103de57600080fd5b506103e7610e5d565b6040516103f49190612e6d565b60405180910390f35b34801561040957600080fd5b50610412610e94565b60405161041f9190612d94565b60405180910390f35b34801561043457600080fd5b5061044f600480360361044a91908101906127e2565b610e9a565b005b34801561045d57600080fd5b5061047860048036036104739190810190612957565b6110c0565b005b34801561048657600080fd5b506104a1600480360361049c9190810190612834565b611433565b6040516104ae9190612d79565b60405180910390f35b3480156104c357600080fd5b506104cc61156b565b6040516104d99190612d94565b60405180910390f35b3480156104ee57600080fd5b506104f76115a4565b6040516105049190612d94565b60405180910390f35b34801561051957600080fd5b506105226115cb565b60405161052f9190612e15565b60405180910390f35b34801561054457600080fd5b5061054d611602565b60405161055a9190612d94565b60405180910390f35b34801561056f57600080fd5b50610578611629565b6040516105859190612e4b565b60405180910390f35b34801561059a57600080fd5b506105a361197e565b6040516105b09190612d79565b60405180910390f35b3480156105c557600080fd5b506105e060048036036105db91908101906129d9565b6119af565b6040516105ed9190612d79565b60405180910390f35b34801561060257600080fd5b5061061d60048036036106189190810190612a1a565b6119d5565b60405161062a9190612d79565b60405180910390f35b34801561063f57600080fd5b5061065a600480360361065591908101906128c4565b6119fb565b60405161066b959493929190612d11565b60405180910390f35b34801561068057600080fd5b5061069b600480360361069691908101906128ed565b611c19565b6040516106a89190612dfa565b60405180910390f35b6000806106bc610e5d565b9050600081141580156106d65750806106d3611cd0565b10155b91505090565b7f3b4bf6bf3ad5000ecf0f989d5befde585c6860fea3e574a4fab4c49d1c177d9c60010281565b61070b611ead565b6107136106b1565b151561071e57600080fd5b60016000836000191660001916815260200190815260200160002060c060405190810160405290816000820160009054906101000a900473ffffffffffffffffffffffffffffffffffffffff1673ffffffffffffffffffffffffffffffffffffffff1673ffffffffffffffffffffffffffffffffffffffff16815260200160018201548152602001600282018054600181600116156101000203166002900480601f01602080910402602001604051908101604052809291908181526020018280546001816001161561010002031660029004801561083e5780601f106108135761010080835404028352916020019161083e565b820191906000526020600020905b81548152906001019060200180831161082157829003601f168201915b50505050508152602001600382018054600181600116156101000203166002900480601f0160208091040260200160405190810160405280929190818152602001828054600181600116156101000203166002900480156108e05780601f106108b5576101008083540402835291602001916108e0565b820191906000526020600020905b8154815290600101906020018083116108c357829003601f168201915b50505050508152602001600482018054600181600116156101000203166002900480601f0160208091040260200160405190810160405280929190818152602001828054600181600116156101000203166002900480156109825780601f1061095757610100808354040283529160200191610982565b820191906000526020600020905b81548152906001019060200180831161096557829003601f168201915b5050505050815260200160058201805480602002602001604051908101604052809291908181526020016000905b82821015610a4a57838290600052602060002090600202016040805190810160405290816000820160009054906101000a900473ffffffffffffffffffffffffffffffffffffffff1673ffffffffffffffffffffffffffffffffffffffff1673ffffffffffffffffffffffffffffffffffffffff1681526020016001820154600019166000191681525050815260200190600101906109b0565b50505050815250509050919050565b7fd6f028ca0e8edb4a8c9757ca4fdccab25fa1e0317da1188108f7d2dee14902fb60010281565b60008073ffffffffffffffffffffffffffffffffffffffff16610aa16115cb565b73ffffffffffffffffffffffffffffffffffffffff1614151515610ac457600080fd5b610acc6115cb565b73ffffffffffffffffffffffffffffffffffffffff166332f0a3b56040518163ffffffff167c0100000000000000000000000000000000000000000000000000000000028152600401602060405180830381600087803b158015610b2f57600080fd5b505af1158015610b43573d6000803e3d6000fd5b505050506040513d601f19601f82011682018060405250610b67919081019061280b565b905090565b6000816000015182602001518360400151846060015185608001518660a00151604051602001808773ffffffffffffffffffffffffffffffffffffffff1673ffffffffffffffffffffffffffffffffffffffff166c0100000000000000000000000002815260140186815260200185805190602001908083835b602083101515610c0b5780518252602082019150602081019050602083039250610be6565b6001836020036101000a03801982511681845116808217855250505050505090500184805190602001908083835b602083101515610c5e5780518252602082019150602081019050602083039250610c39565b6001836020036101000a03801982511681845116808217855250505050505090500183805190602001908083835b602083101515610cb15780518252602082019150602081019050602083039250610c8c565b6001836020036101000a0380198251168184511680821785525050505050509050018280516000925b81841015610cfd5782849060200190602002015181526020019260010192610cda565b9250505096505050505050506040516020818303038152906040526040518082805190602001908083835b602083101515610d4d5780518252602082019150602081019050602083039250610d28565b6001836020036101000a03801982511681845116808217855250505050505090500191505060405180910390209050919050565b600060016004811115610d9057fe5b82606001516004811115610da057fe5b149050919050565b7fddbcfd564f642ab5627cf68b9b7d374fb4f8a36e941a75d89c87998cef03bd6160010281565b7fc681a85306374a5ab27f0bbc385296a54bcd314a1948b6cf61c4ea1bc44bb9f860010281565b600060019050919050565b6000610e337fd625496217aa6a3453eecb9c3489dc5a53e6c67b444329ea2b2cbc9ff547639b60010260001916611cd8565b905090565b6000610e42610e5d565b141515610e4e57600080fd5b610e56611ce3565b565b600081565b6000610e8f7febb05b386a8d34882b8711d156f463690983dc47815980fb82aeeff1aa43579e60010260001916611d3c565b905090565b60005481565b600080610ea683610df6565b1515610eb157600080fd5b610eb9610a80565b9150610ec482611d47565b1515610ecf57600080fd5b600073ffffffffffffffffffffffffffffffffffffffff168373ffffffffffffffffffffffffffffffffffffffff161415610f67578173ffffffffffffffffffffffffffffffffffffffff166108fc3073ffffffffffffffffffffffffffffffffffffffff16319081150290604051600060405180830381858888f19350505050158015610f61573d6000803e3d6000fd5b506110bb565b8273ffffffffffffffffffffffffffffffffffffffff166370a08231306040518263ffffffff167c0100000000000000000000000000000000000000000000000000000000028152600401610fbc9190612e30565b602060405180830381600087803b158015610fd657600080fd5b505af1158015610fea573d6000803e3d6000fd5b505050506040513d601f19601f8201168201806040525061100e9190810190612a5b565b90508273ffffffffffffffffffffffffffffffffffffffff1663a9059cbb83836040518363ffffffff167c0100000000000000000000000000000000000000000000000000000000028152600401611067929190612ce8565b602060405180830381600087803b15801561108157600080fd5b505af1158015611095573d6000803e3d6000fd5b505050506040513d601f19601f820116820180604052506110b9919081019061289b565b505b505050565b6110c8611ead565b6000806110d36106b1565b15156110de57600080fd5b60405180807f494e4449564944554154455f524f4c45000000000000000000000000000000008152506010019050604051809103902061114f338260006040519080825280602002602001820160405280156111495781602001602082028038833980820191505090505b50611433565b151561115a57600080fd5b60c060405190810160405280866000015173ffffffffffffffffffffffffffffffffffffffff168152602001438152602001866020015181526020018660400151815260200186606001518152602001866080015181525093506111bd84610b6c565b9250836000015160016000856000191660001916815260200190815260200160002060000160006101000a81548173ffffffffffffffffffffffffffffffffffffffff021916908373ffffffffffffffffffffffffffffffffffffffff1602179055508360200151600160008560001916600019168152602001908152602001600020600101819055508360400151600160008560001916600019168152602001908152602001600020600201908051906020019061127d929190611efa565b50836060015160016000856000191660001916815260200190815260200160002060030190805190602001906112b4929190611efa565b50836080015160016000856000191660001916815260200190815260200160002060040190805190602001906112eb929190611efa565b508360a00151516001600085600019166000191681526020019081526020016000206005018161131b9190611f7a565b50600091505b8360a00151518210156113ea578360a001518281518110151561134057fe5b906020019060200201516001600085600019166000191681526020019081526020016000206005018381548110151561137557fe5b906000526020600020906002020160008201518160000160006101000a81548173ffffffffffffffffffffffffffffffffffffffff021916908373ffffffffffffffffffffffffffffffffffffffff160217905550602082015181600101906000191690559050508180600101925050611321565b82600081600019169055507f60abf4225368bd17f1998b81eb52b7eeecfbb02ff266802d2fdd3324ce5eb6ef836040516114249190612d94565b60405180910390a15050505050565b600080606060006114426106b1565b15156114515760009350611561565b6114596115cb565b9250600073ffffffffffffffffffffffffffffffffffffffff168373ffffffffffffffffffffffffffffffffffffffff1614156114995760009350611561565b6000855111156114b157602085510290508491508082525b8273ffffffffffffffffffffffffffffffffffffffff1663fdef9106883089866040518563ffffffff167c010000000000000000000000000000000000000000000000000000000002815260040161150c9493929190612c9c565b602060405180830381600087803b15801561152657600080fd5b505af115801561153a573d6000803e3d6000fd5b505050506040513d601f19601f8201168201806040525061155e919081019061289b565b93505b5050509392505050565b60405180807f494e4449564944554154455f524f4c45000000000000000000000000000000008152506010019050604051809103902081565b7fe3262375f45a6e2026b7e7b18c2b807434f2508fe1a2a3dfb493c7df8f4aad6a60010281565b60006115fd7f4172f0f7d2289153072b0a6ca36959e0cbe2efc3afe50fc81636caa96338137b60010260001916611d99565b905090565b7ff1f3eb40f5bc1ad1344716ced8b8a0431d840b5783aea1fd01786bc26f35ac0f60010281565b611631611ead565b6116396106b1565b151561164457600080fd5b6001600080546000191660001916815260200190815260200160002060c060405190810160405290816000820160009054906101000a900473ffffffffffffffffffffffffffffffffffffffff1673ffffffffffffffffffffffffffffffffffffffff1673ffffffffffffffffffffffffffffffffffffffff16815260200160018201548152602001600282018054600181600116156101000203166002900480601f0160208091040260200160405190810160405280929190818152602001828054600181600116156101000203166002900480156117655780601f1061173a57610100808354040283529160200191611765565b820191906000526020600020905b81548152906001019060200180831161174857829003601f168201915b50505050508152602001600382018054600181600116156101000203166002900480601f0160208091040260200160405190810160405280929190818152602001828054600181600116156101000203166002900480156118075780601f106117dc57610100808354040283529160200191611807565b820191906000526020600020905b8154815290600101906020018083116117ea57829003601f168201915b50505050508152602001600482018054600181600116156101000203166002900480601f0160208091040260200160405190810160405280929190818152602001828054600181600116156101000203166002900480156118a95780601f1061187e576101008083540402835291602001916118a9565b820191906000526020600020905b81548152906001019060200180831161188c57829003601f168201915b5050505050815260200160058201805480602002602001604051908101604052809291908181526020016000905b8282101561197157838290600052602060002090600202016040805190810160405290816000820160009054906101000a900473ffffffffffffffffffffffffffffffffffffffff1673ffffffffffffffffffffffffffffffffffffffff1673ffffffffffffffffffffffffffffffffffffffff1681526020016001820154600019166000191681525050815260200190600101906118d7565b5050505081525050905090565b60007fffffffffffffffffffffffffffffffffffffffffffffffffffffffffffffffff6119a9610e5d565b14905090565b60008060038111156119bd57fe5b826040015160038111156119cd57fe5b149050919050565b60008060048111156119e357fe5b826060015160048111156119f357fe5b149050919050565b60016020528060005260406000206000915090508060000160009054906101000a900473ffffffffffffffffffffffffffffffffffffffff1690806001015490806002018054600181600116156101000203166002900480601f016020809104026020016040519081016040528092919081815260200182805460018160011615610100020316600290048015611ad35780601f10611aa857610100808354040283529160200191611ad3565b820191906000526020600020905b815481529060010190602001808311611ab657829003601f168201915b505050505090806003018054600181600116156101000203166002900480601f016020809104026020016040519081016040528092919081815260200182805460018160011615610100020316600290048015611b715780601f10611b4657610100808354040283529160200191611b71565b820191906000526020600020905b815481529060010190602001808311611b5457829003601f168201915b505050505090806004018054600181600116156101000203166002900480601f016020809104026020016040519081016040528092919081815260200182805460018160011615610100020316600290048015611c0f5780601f10611be457610100808354040283529160200191611c0f565b820191906000526020600020905b815481529060010190602001808311611bf257829003601f168201915b5050505050905085565b6000611c23611da4565b73ffffffffffffffffffffffffffffffffffffffff166304bf2a7f836040518263ffffffff167c0100000000000000000000000000000000000000000000000000000000028152600401611c779190612dd8565b602060405180830381600087803b158015611c9157600080fd5b505af1158015611ca5573d6000803e3d6000fd5b505050506040513d601f19601f82011682018060405250611cc9919081019061292e565b9050919050565b600043905090565b600081549050919050565b6000611ced610e5d565b141515611cf957600080fd5b611d3a611d04611cd0565b7febb05b386a8d34882b8711d156f463690983dc47815980fb82aeeff1aa43579e60010260001916611ea690919063ffffffff16565b565b600081549050919050565b600080600073ffffffffffffffffffffffffffffffffffffffff168373ffffffffffffffffffffffffffffffffffffffff161415611d885760009150611d93565b823b90506000811191505b50919050565b600081549050919050565b600080611daf6115cb565b73ffffffffffffffffffffffffffffffffffffffff1663be00bbd87fd6f028ca0e8edb4a8c9757ca4fdccab25fa1e0317da1188108f7d2dee14902fb6001027fddbcfd564f642ab5627cf68b9b7d374fb4f8a36e941a75d89c87998cef03bd616001026040518363ffffffff167c0100000000000000000000000000000000000000000000000000000000028152600401611e4b929190612daf565b602060405180830381600087803b158015611e6557600080fd5b505af1158015611e79573d6000803e3d6000fd5b505050506040513d601f19601f82011682018060405250611e9d919081019061280b565b90508091505090565b8082555050565b60c060405190810160405280600073ffffffffffffffffffffffffffffffffffffffff16815260200160008152602001606081526020016060815260200160608152602001606081525090565b828054600181600116156101000203166002900490600052602060002090601f016020900481019282601f10611f3b57805160ff1916838001178555611f69565b82800160010185558215611f69579182015b82811115611f68578251825591602001919060010190611f4d565b5b509050611f769190611fac565b5090565b815481835581811115611fa757600202816002028360005260206000209182019101611fa69190611fd1565b5b505050565b611fce91905b80821115611fca576000816000905550600101611fb2565b5090565b90565b61201c91905b8082111561201857600080820160006101000a81549073ffffffffffffffffffffffffffffffffffffffff0219169055600182016000905550600201611fd7565b5090565b90565b600061202b8235613000565b905092915050565b600061203f8251613000565b905092915050565b600082601f830112151561205a57600080fd5b813561206d61206882612eb5565b612e88565b9150818183526020840193506020810190508385604084028201111561209257600080fd5b60005b838110156120c257816120a888826122e6565b845260208401935060408301925050600181019050612095565b5050505092915050565b600082601f83011215156120df57600080fd5b81356120f26120ed82612edd565b612e88565b9150818183526020840193506020810190508385602084028201111561211757600080fd5b60005b83811015612147578161212d88826127ba565b84526020840193506020830192505060018101905061211a565b5050505092915050565b600082601f830112151561216457600080fd5b813561217761217282612f05565b612e88565b9150818183526020840193506020810190508385602084028201111561219c57600080fd5b60005b838110156121cc57816121b288826127ba565b84526020840193506020830192505060018101905061219f565b5050505092915050565b60006121e28251613020565b905092915050565b60006121f6823561302c565b905092915050565b600082601f830112151561221157600080fd5b813561222461221f82612f2d565b612e88565b9150808252602083016020830185838301111561224057600080fd5b61224b8382846130ba565b50505092915050565b60006122608251613036565b905092915050565b60006122748235613048565b905092915050565b60006122888235613061565b905092915050565b600082601f83011215156122a357600080fd5b81356122b66122b182612f59565b612e88565b915080825260208301602083018583830111156122d257600080fd5b6122dd8382846130ba565b50505092915050565b6000604082840312156122f857600080fd5b6123026040612e88565b905060006123128482850161201f565b6000830152506020612326848285016121ea565b60208301525092915050565b600060a0828403121561234457600080fd5b61234e60a0612e88565b9050600061235e8482850161201f565b600083015250602082013567ffffffffffffffff81111561237e57600080fd5b61238a84828501612290565b602083015250604082013567ffffffffffffffff8111156123aa57600080fd5b6123b684828501612290565b604083015250606082013567ffffffffffffffff8111156123d657600080fd5b6123e284828501612290565b606083015250608082013567ffffffffffffffff81111561240257600080fd5b61240e84828501612047565b60808301525092915050565b600060a0828403121561242c57600080fd5b61243660a0612e88565b905060006124468482850161201f565b600083015250602082013567ffffffffffffffff81111561246657600080fd5b61247284828501612290565b602083015250604082013567ffffffffffffffff81111561249257600080fd5b61249e84828501612290565b604083015250606082013567ffffffffffffffff8111156124be57600080fd5b6124ca84828501612290565b606083015250608082013567ffffffffffffffff8111156124ea57600080fd5b6124f684828501612047565b60808301525092915050565b60006060828403121561251457600080fd5b61251e6060612e88565b9050600061252e8482850161201f565b6000830152506020612542848285016127ba565b602083015250604082013567ffffffffffffffff81111561256257600080fd5b61256e84828501612290565b60408301525092915050565b600060c0828403121561258c57600080fd5b61259660c0612e88565b905060006125a68482850161201f565b60008301525060206125ba848285016127ba565b602083015250604082013567ffffffffffffffff8111156125da57600080fd5b6125e684828501612290565b604083015250606082013567ffffffffffffffff81111561260657600080fd5b61261284828501612290565b606083015250608082013567ffffffffffffffff81111561263257600080fd5b61263e84828501612290565b60808301525060a082013567ffffffffffffffff81111561265e57600080fd5b61266a84828501612047565b60a08301525092915050565b60006080828403121561268857600080fd5b6126926080612e88565b9050600082013567ffffffffffffffff8111156126ae57600080fd5b6126ba84828501612332565b60008301525060206126ce848285016127ba565b60208301525060406126e284828501612268565b604083015250606082013567ffffffffffffffff81111561270257600080fd5b61270e848285016120cc565b60608301525092915050565b600060a0828403121561272c57600080fd5b61273660a0612e88565b9050600082013567ffffffffffffffff81111561275257600080fd5b61275e84828501612502565b6000830152506020612772848285016127ba565b6020830152506040612786848285016127ba565b604083015250606061279a8482850161227c565b60608301525060806127ae848285016127ba565b60808301525092915050565b60006127c6823561307a565b905092915050565b60006127da825161307a565b905092915050565b6000602082840312156127f457600080fd5b60006128028482850161201f565b91505092915050565b60006020828403121561281d57600080fd5b600061282b84828501612033565b91505092915050565b60008060006060848603121561284957600080fd5b60006128578682870161201f565b9350506020612868868287016121ea565b925050604084013567ffffffffffffffff81111561288557600080fd5b61289186828701612151565b9150509250925092565b6000602082840312156128ad57600080fd5b60006128bb848285016121d6565b91505092915050565b6000602082840312156128d657600080fd5b60006128e4848285016121ea565b91505092915050565b6000602082840312156128ff57600080fd5b600082013567ffffffffffffffff81111561291957600080fd5b612925848285016121fe565b91505092915050565b60006020828403121561294057600080fd5b600061294e84828501612254565b91505092915050565b60006020828403121561296957600080fd5b600082013567ffffffffffffffff81111561298357600080fd5b61298f8482850161241a565b91505092915050565b6000602082840312156129aa57600080fd5b600082013567ffffffffffffffff8111156129c457600080fd5b6129d08482850161257a565b91505092915050565b6000602082840312156129eb57600080fd5b600082013567ffffffffffffffff811115612a0557600080fd5b612a1184828501612676565b91505092915050565b600060208284031215612a2c57600080fd5b600082013567ffffffffffffffff811115612a4657600080fd5b612a528482850161271a565b91505092915050565b600060208284031215612a6d57600080fd5b6000612a7b848285016127ce565b91505092915050565b612a8d81612fc0565b82525050565b6000612a9e82612f92565b808452602084019350612ab083612f85565b60005b82811015612ae257612ac6868351612ba5565b612acf82612fb3565b9150604086019550600181019050612ab3565b50849250505092915050565b612af781612fe0565b82525050565b612b0681612fec565b82525050565b6000612b1782612f9d565b808452612b2b8160208601602086016130c9565b612b34816130fc565b602085010191505092915050565b612b4b81613084565b82525050565b612b5a81613096565b82525050565b612b69816130a8565b82525050565b6000612b7a82612fa8565b808452612b8e8160208601602086016130c9565b612b97816130fc565b602085010191505092915050565b604082016000820151612bbb6000850182612a84565b506020820151612bce6020850182612afd565b50505050565b600060c083016000830151612bec6000860182612a84565b506020830151612bff6020860182612c72565b5060408301518482036040860152612c178282612b6f565b91505060608301518482036060860152612c318282612b6f565b91505060808301518482036080860152612c4b8282612b6f565b91505060a083015184820360a0860152612c658282612a93565b9150508091505092915050565b612c7b81612ff6565b82525050565b6000602082019050612c966000830184612a84565b92915050565b6000608082019050612cb16000830187612a84565b612cbe6020830186612a84565b612ccb6040830185612afd565b8181036060830152612cdd8184612b0c565b905095945050505050565b6000604082019050612cfd6000830185612a84565b612d0a6020830184612c72565b9392505050565b600060a082019050612d266000830188612a84565b612d336020830187612c72565b8181036040830152612d458186612b6f565b90508181036060830152612d598185612b6f565b90508181036080830152612d6d8184612b6f565b90509695505050505050565b6000602082019050612d8e6000830184612aee565b92915050565b6000602082019050612da96000830184612afd565b92915050565b6000604082019050612dc46000830185612afd565b612dd16020830184612afd565b9392505050565b60006020820190508181036000830152612df28184612b0c565b905092915050565b6000602082019050612e0f6000830184612b42565b92915050565b6000602082019050612e2a6000830184612b51565b92915050565b6000602082019050612e456000830184612b60565b92915050565b60006020820190508181036000830152612e658184612bd4565b905092915050565b6000602082019050612e826000830184612c72565b92915050565b6000604051905081810181811067ffffffffffffffff82111715612eab57600080fd5b8060405250919050565b600067ffffffffffffffff821115612ecc57600080fd5b602082029050602081019050919050565b600067ffffffffffffffff821115612ef457600080fd5b602082029050602081019050919050565b600067ffffffffffffffff821115612f1c57600080fd5b602082029050602081019050919050565b600067ffffffffffffffff821115612f4457600080fd5b601f19601f8301169050602081019050919050565b600067ffffffffffffffff821115612f7057600080fd5b601f19601f8301169050602081019050919050565b6000602082019050919050565b600081519050919050565b600081519050919050565b600081519050919050565b6000602082019050919050565b600073ffffffffffffffffffffffffffffffffffffffff82169050919050565b60008115159050919050565b6000819050919050565b6000819050919050565b600073ffffffffffffffffffffffffffffffffffffffff82169050919050565b60008115159050919050565b6000819050919050565b600061304182612fc0565b9050919050565b600060048210151561305957600080fd5b819050919050565b600060058210151561307257600080fd5b819050919050565b6000819050919050565b600061308f82612fc0565b9050919050565b60006130a182612fc0565b9050919050565b60006130b382612fc0565b9050919050565b82818337600083830152505050565b60005b838110156130e75780820151818401526020810190506130cc565b838111156130f6576000848401525b50505050565b6000601f19601f83011690509190505600a265627a7a72305820b0473e73cc81bc3a12d67309323253a77b348b9dcb174f806098c81f576945926c6578706572696d656e74616cf50037",
  "source": "pragma solidity ^0.4.24;\npragma experimental ABIEncoderV2;\n\nimport \"@aragon/os/contracts/apps/AragonApp.sol\";\nimport \"../lib/Pando.sol\";\nimport \"./PandoApp.sol\";\n\n\n\ncontract PandoGenesis is PandoApp {\n\n    bytes32 constant public INDIVIDUATE_ROLE = keccak256(\"INDIVIDUATE_ROLE\");\n\n    bytes32 public head;\n    mapping(bytes32 => PandoApp.Individuation) public individuations;\n\n    event Individuate(bytes32 hash);\n\n\n    function initialize() external onlyInit {\n        initialized();\n    }\n\n    function individuate(PandoApp.IIndividuation _individuation) public isInitialized auth(INDIVIDUATE_ROLE) {\n        PandoApp.Individuation memory individuation = PandoApp.Individuation(\n            _individuation.origin,\n            block.number,\n            _individuation.tree,\n            _individuation.message,\n            _individuation.metadata,\n            _individuation.parents\n        );\n\n        bytes32 hash = PandoApp.hash(individuation);\n\n        individuations[hash].origin = individuation.origin;\n        individuations[hash].blockstamp = individuation.blockstamp;\n        individuations[hash].tree = individuation.tree;\n        individuations[hash].message = individuation.message;\n        individuations[hash].metadata = individuation.metadata;\n\n        // solc 4.0.24 cannot directly convert dynamic struct array from memory to storage\n        individuations[hash].parents.length = individuation.parents.length;\n        for (uint256 i = 0; i < individuation.parents.length; i++) {\n            individuations[hash].parents[i] = individuation.parents[i];\n        }\n\n        head = hash;\n\n        emit Individuate(hash);\n    }\n\n    function getIndividuation(bytes32 _hash) public view isInitialized returns (PandoApp.Individuation) {\n        return individuations[_hash];\n    }\n\n    function getHead() public view isInitialized returns (PandoApp.Individuation) {\n        return individuations[head];\n    }\n\n}\n",
  "sourcePath": "/Users/osarrouy/Documents/dapp/@pando/packages/core/contracts/core/PandoGenesis.sol",
  "compiler": {
    "name": "solc",
    "version": "0.4.24+commit.e67f0147.Emscripten.clang"
  },
  "schemaVersion": "3.0.0-beta.1",
  "updatedAt": "2018-11-26T15:23:12.681Z"
}