{
  "contractName": "PandoAPI",
  "abi": [
    {
      "constant": true,
      "inputs": [],
      "name": "hasInitialized",
      "outputs": [
        {
          "name": "",
          "type": "bool"
        }
      ],
      "payable": false,
      "stateMutability": "view",
      "type": "function"
    },
    {
      "constant": true,
      "inputs": [],
      "name": "REJECT_RFL_ROLE",
      "outputs": [
        {
          "name": "",
          "type": "bytes32"
        }
      ],
      "payable": false,
      "stateMutability": "view",
      "type": "function"
    },
    {
      "constant": true,
      "inputs": [],
      "name": "RFLsLength",
      "outputs": [
        {
          "name": "",
          "type": "uint256"
        }
      ],
      "payable": false,
      "stateMutability": "view",
      "type": "function"
    },
    {
      "constant": true,
      "inputs": [],
      "name": "KERNEL_APP_ID",
      "outputs": [
        {
          "name": "",
          "type": "bytes32"
        }
      ],
      "payable": false,
      "stateMutability": "view",
      "type": "function"
    },
    {
      "constant": true,
      "inputs": [],
      "name": "APP_ADDR_NAMESPACE",
      "outputs": [
        {
          "name": "",
          "type": "bytes32"
        }
      ],
      "payable": false,
      "stateMutability": "view",
      "type": "function"
    },
    {
      "constant": true,
      "inputs": [],
      "name": "CREATE_RFI_ROLE",
      "outputs": [
        {
          "name": "",
          "type": "bytes32"
        }
      ],
      "payable": false,
      "stateMutability": "view",
      "type": "function"
    },
    {
      "constant": true,
      "inputs": [],
      "name": "MERGE_RFI_ROLE",
      "outputs": [
        {
          "name": "",
          "type": "bytes32"
        }
      ],
      "payable": false,
      "stateMutability": "view",
      "type": "function"
    },
    {
      "constant": true,
      "inputs": [],
      "name": "getRecoveryVault",
      "outputs": [
        {
          "name": "",
          "type": "address"
        }
      ],
      "payable": false,
      "stateMutability": "view",
      "type": "function"
    },
    {
      "constant": true,
      "inputs": [
        {
          "components": [
            {
              "name": "origin",
              "type": "address"
            },
            {
              "name": "blockstamp",
              "type": "uint256"
            },
            {
              "name": "tree",
              "type": "string"
            },
            {
              "name": "message",
              "type": "string"
            },
            {
              "name": "metadata",
              "type": "string"
            },
            {
              "components": [
                {
                  "name": "api",
                  "type": "address"
                },
                {
                  "name": "hash",
                  "type": "bytes32"
                }
              ],
              "name": "parents",
              "type": "tuple[]"
            }
          ],
          "name": "_individuation",
          "type": "tuple"
        }
      ],
      "name": "hash",
      "outputs": [
        {
          "name": "",
          "type": "bytes32"
        }
      ],
      "payable": false,
      "stateMutability": "pure",
      "type": "function"
    },
    {
      "constant": true,
      "inputs": [
        {
          "components": [
            {
              "components": [
                {
                  "name": "destination",
                  "type": "address"
                },
                {
                  "name": "minimum",
                  "type": "uint256"
                },
                {
                  "name": "metadata",
                  "type": "string"
                }
              ],
              "name": "lineage",
              "type": "tuple"
            },
            {
              "name": "blockstamp",
              "type": "uint256"
            },
            {
              "name": "value",
              "type": "uint256"
            },
            {
              "name": "state",
              "type": "uint8"
            },
            {
              "name": "RFIid",
              "type": "uint256"
            }
          ],
          "name": "_RFL",
          "type": "tuple"
        }
      ],
      "name": "isAccepted",
      "outputs": [
        {
          "name": "",
          "type": "bool"
        }
      ],
      "payable": false,
      "stateMutability": "pure",
      "type": "function"
    },
    {
      "constant": true,
      "inputs": [
        {
          "name": "",
          "type": "uint256"
        }
      ],
      "name": "RFIs",
      "outputs": [
        {
          "components": [
            {
              "name": "origin",
              "type": "address"
            },
            {
              "name": "tree",
              "type": "string"
            },
            {
              "name": "message",
              "type": "string"
            },
            {
              "name": "metadata",
              "type": "string"
            },
            {
              "components": [
                {
                  "name": "api",
                  "type": "address"
                },
                {
                  "name": "hash",
                  "type": "bytes32"
                }
              ],
              "name": "parents",
              "type": "tuple[]"
            }
          ],
          "name": "individuation",
          "type": "tuple"
        },
        {
          "name": "blockstamp",
          "type": "uint256"
        },
        {
          "name": "state",
          "type": "uint8"
        }
      ],
      "payable": false,
      "stateMutability": "view",
      "type": "function"
    },
    {
      "constant": true,
      "inputs": [],
      "name": "EVMSCRIPT_REGISTRY_APP_ID",
      "outputs": [
        {
          "name": "",
          "type": "bytes32"
        }
      ],
      "payable": false,
      "stateMutability": "view",
      "type": "function"
    },
    {
      "constant": true,
      "inputs": [],
      "name": "CORE_NAMESPACE",
      "outputs": [
        {
          "name": "",
          "type": "bytes32"
        }
      ],
      "payable": false,
      "stateMutability": "view",
      "type": "function"
    },
    {
      "constant": true,
      "inputs": [
        {
          "name": "token",
          "type": "address"
        }
      ],
      "name": "allowRecoverability",
      "outputs": [
        {
          "name": "",
          "type": "bool"
        }
      ],
      "payable": false,
      "stateMutability": "view",
      "type": "function"
    },
    {
      "constant": true,
      "inputs": [],
      "name": "RFIsLength",
      "outputs": [
        {
          "name": "",
          "type": "uint256"
        }
      ],
      "payable": false,
      "stateMutability": "view",
      "type": "function"
    },
    {
      "constant": true,
      "inputs": [],
      "name": "appId",
      "outputs": [
        {
          "name": "",
          "type": "bytes32"
        }
      ],
      "payable": false,
      "stateMutability": "view",
      "type": "function"
    },
    {
      "constant": true,
      "inputs": [],
      "name": "ETH",
      "outputs": [
        {
          "name": "",
          "type": "address"
        }
      ],
      "payable": false,
      "stateMutability": "view",
      "type": "function"
    },
    {
      "constant": true,
      "inputs": [],
      "name": "getInitializationBlock",
      "outputs": [
        {
          "name": "",
          "type": "uint256"
        }
      ],
      "payable": false,
      "stateMutability": "view",
      "type": "function"
    },
    {
      "constant": true,
      "inputs": [],
      "name": "REJECT_RFI_ROLE",
      "outputs": [
        {
          "name": "",
          "type": "bytes32"
        }
      ],
      "payable": false,
      "stateMutability": "view",
      "type": "function"
    },
    {
      "constant": false,
      "inputs": [
        {
          "name": "_token",
          "type": "address"
        }
      ],
      "name": "transferToVault",
      "outputs": [],
      "payable": false,
      "stateMutability": "nonpayable",
      "type": "function"
    },
    {
      "constant": true,
      "inputs": [
        {
          "name": "_sender",
          "type": "address"
        },
        {
          "name": "_role",
          "type": "bytes32"
        },
        {
          "name": "_params",
          "type": "uint256[]"
        }
      ],
      "name": "canPerform",
      "outputs": [
        {
          "name": "",
          "type": "bool"
        }
      ],
      "payable": false,
      "stateMutability": "view",
      "type": "function"
    },
    {
      "constant": true,
      "inputs": [],
      "name": "genesis",
      "outputs": [
        {
          "name": "",
          "type": "address"
        }
      ],
      "payable": false,
      "stateMutability": "view",
      "type": "function"
    },
    {
      "constant": true,
      "inputs": [],
      "name": "ACCEPT_RFL_ROLE",
      "outputs": [
        {
          "name": "",
          "type": "bytes32"
        }
      ],
      "payable": false,
      "stateMutability": "view",
      "type": "function"
    },
    {
      "constant": true,
      "inputs": [],
      "name": "BURN_ROLE",
      "outputs": [
        {
          "name": "",
          "type": "bytes32"
        }
      ],
      "payable": false,
      "stateMutability": "view",
      "type": "function"
    },
    {
      "constant": true,
      "inputs": [],
      "name": "INDIVIDUATE_ROLE",
      "outputs": [
        {
          "name": "",
          "type": "bytes32"
        }
      ],
      "payable": false,
      "stateMutability": "view",
      "type": "function"
    },
    {
      "constant": true,
      "inputs": [
        {
          "name": "",
          "type": "uint256"
        }
      ],
      "name": "RFLs",
      "outputs": [
        {
          "components": [
            {
              "name": "destination",
              "type": "address"
            },
            {
              "name": "minimum",
              "type": "uint256"
            },
            {
              "name": "metadata",
              "type": "string"
            }
          ],
          "name": "lineage",
          "type": "tuple"
        },
        {
          "name": "blockstamp",
          "type": "uint256"
        },
        {
          "name": "value",
          "type": "uint256"
        },
        {
          "name": "state",
          "type": "uint8"
        },
        {
          "name": "RFIid",
          "type": "uint256"
        }
      ],
      "payable": false,
      "stateMutability": "view",
      "type": "function"
    },
    {
      "constant": true,
      "inputs": [],
      "name": "lineage",
      "outputs": [
        {
          "name": "",
          "type": "address"
        }
      ],
      "payable": false,
      "stateMutability": "view",
      "type": "function"
    },
    {
      "constant": true,
      "inputs": [],
      "name": "ACL_APP_ID",
      "outputs": [
        {
          "name": "",
          "type": "bytes32"
        }
      ],
      "payable": false,
      "stateMutability": "view",
      "type": "function"
    },
    {
      "constant": true,
      "inputs": [],
      "name": "kernel",
      "outputs": [
        {
          "name": "",
          "type": "address"
        }
      ],
      "payable": false,
      "stateMutability": "view",
      "type": "function"
    },
    {
      "constant": true,
      "inputs": [],
      "name": "APP_BASES_NAMESPACE",
      "outputs": [
        {
          "name": "",
          "type": "bytes32"
        }
      ],
      "payable": false,
      "stateMutability": "view",
      "type": "function"
    },
    {
      "constant": true,
      "inputs": [],
      "name": "isPetrified",
      "outputs": [
        {
          "name": "",
          "type": "bool"
        }
      ],
      "payable": false,
      "stateMutability": "view",
      "type": "function"
    },
    {
      "constant": true,
      "inputs": [
        {
          "components": [
            {
              "components": [
                {
                  "name": "origin",
                  "type": "address"
                },
                {
                  "name": "tree",
                  "type": "string"
                },
                {
                  "name": "message",
                  "type": "string"
                },
                {
                  "name": "metadata",
                  "type": "string"
                },
                {
                  "components": [
                    {
                      "name": "api",
                      "type": "address"
                    },
                    {
                      "name": "hash",
                      "type": "bytes32"
                    }
                  ],
                  "name": "parents",
                  "type": "tuple[]"
                }
              ],
              "name": "individuation",
              "type": "tuple"
            },
            {
              "name": "blockstamp",
              "type": "uint256"
            },
            {
              "name": "state",
              "type": "uint8"
            },
            {
              "name": "RFLids",
              "type": "uint256[]"
            }
          ],
          "name": "_RFI",
          "type": "tuple"
        }
      ],
      "name": "isPending",
      "outputs": [
        {
          "name": "",
          "type": "bool"
        }
      ],
      "payable": false,
      "stateMutability": "pure",
      "type": "function"
    },
    {
      "constant": true,
      "inputs": [
        {
          "components": [
            {
              "components": [
                {
                  "name": "destination",
                  "type": "address"
                },
                {
                  "name": "minimum",
                  "type": "uint256"
                },
                {
                  "name": "metadata",
                  "type": "string"
                }
              ],
              "name": "lineage",
              "type": "tuple"
            },
            {
              "name": "blockstamp",
              "type": "uint256"
            },
            {
              "name": "value",
              "type": "uint256"
            },
            {
              "name": "state",
              "type": "uint8"
            },
            {
              "name": "RFIid",
              "type": "uint256"
            }
          ],
          "name": "_RFL",
          "type": "tuple"
        }
      ],
      "name": "isPending",
      "outputs": [
        {
          "name": "",
          "type": "bool"
        }
      ],
      "payable": false,
      "stateMutability": "pure",
      "type": "function"
    },
    {
      "constant": true,
      "inputs": [],
      "name": "MINT_ROLE",
      "outputs": [
        {
          "name": "",
          "type": "bytes32"
        }
      ],
      "payable": false,
      "stateMutability": "view",
      "type": "function"
    },
    {
      "constant": true,
      "inputs": [
        {
          "name": "_script",
          "type": "bytes"
        }
      ],
      "name": "getExecutor",
      "outputs": [
        {
          "name": "",
          "type": "address"
        }
      ],
      "payable": false,
      "stateMutability": "view",
      "type": "function"
    },
    {
      "anonymous": false,
      "inputs": [
        {
          "indexed": true,
          "name": "id",
          "type": "uint256"
        }
      ],
      "name": "CreateRFI",
      "type": "event"
    },
    {
      "anonymous": false,
      "inputs": [
        {
          "indexed": true,
          "name": "id",
          "type": "uint256"
        }
      ],
      "name": "MergeRFI",
      "type": "event"
    },
    {
      "anonymous": false,
      "inputs": [
        {
          "indexed": true,
          "name": "id",
          "type": "uint256"
        }
      ],
      "name": "RejectRFI",
      "type": "event"
    },
    {
      "anonymous": false,
      "inputs": [
        {
          "indexed": true,
          "name": "id",
          "type": "uint256"
        }
      ],
      "name": "CancelRFI",
      "type": "event"
    },
    {
      "anonymous": false,
      "inputs": [
        {
          "indexed": true,
          "name": "id",
          "type": "uint256"
        }
      ],
      "name": "CreateRFL",
      "type": "event"
    },
    {
      "anonymous": false,
      "inputs": [
        {
          "indexed": true,
          "name": "id",
          "type": "uint256"
        },
        {
          "indexed": false,
          "name": "value",
          "type": "uint256"
        }
      ],
      "name": "AcceptRFL",
      "type": "event"
    },
    {
      "anonymous": false,
      "inputs": [
        {
          "indexed": true,
          "name": "id",
          "type": "uint256"
        }
      ],
      "name": "RejectRFL",
      "type": "event"
    },
    {
      "anonymous": false,
      "inputs": [
        {
          "indexed": true,
          "name": "id",
          "type": "uint256"
        }
      ],
      "name": "CancelRFL",
      "type": "event"
    },
    {
      "anonymous": false,
      "inputs": [
        {
          "indexed": true,
          "name": "id",
          "type": "uint256"
        },
        {
          "indexed": false,
          "name": "destination",
          "type": "address"
        },
        {
          "indexed": false,
          "name": "value",
          "type": "uint256"
        }
      ],
      "name": "IssueRFL",
      "type": "event"
    },
    {
      "anonymous": false,
      "inputs": [
        {
          "indexed": true,
          "name": "executor",
          "type": "address"
        },
        {
          "indexed": false,
          "name": "script",
          "type": "bytes"
        },
        {
          "indexed": false,
          "name": "input",
          "type": "bytes"
        },
        {
          "indexed": false,
          "name": "returnData",
          "type": "bytes"
        }
      ],
      "name": "ScriptResult",
      "type": "event"
    },
    {
      "constant": false,
      "inputs": [
        {
          "name": "_genesis",
          "type": "address"
        },
        {
          "name": "_lineage",
          "type": "address"
        }
      ],
      "name": "initialize",
      "outputs": [],
      "payable": false,
      "stateMutability": "nonpayable",
      "type": "function"
    },
    {
      "constant": false,
      "inputs": [
        {
          "components": [
            {
              "name": "origin",
              "type": "address"
            },
            {
              "name": "tree",
              "type": "string"
            },
            {
              "name": "message",
              "type": "string"
            },
            {
              "name": "metadata",
              "type": "string"
            },
            {
              "components": [
                {
                  "name": "api",
                  "type": "address"
                },
                {
                  "name": "hash",
                  "type": "bytes32"
                }
              ],
              "name": "parents",
              "type": "tuple[]"
            }
          ],
          "name": "_individuation",
          "type": "tuple"
        },
        {
          "components": [
            {
              "name": "destination",
              "type": "address"
            },
            {
              "name": "minimum",
              "type": "uint256"
            },
            {
              "name": "metadata",
              "type": "string"
            }
          ],
          "name": "_lineages",
          "type": "tuple[]"
        }
      ],
      "name": "createRFI",
      "outputs": [
        {
          "name": "RFIid",
          "type": "uint256"
        }
      ],
      "payable": false,
      "stateMutability": "nonpayable",
      "type": "function"
    },
    {
      "constant": false,
      "inputs": [
        {
          "name": "_RFIid",
          "type": "uint256"
        }
      ],
      "name": "mergeRFI",
      "outputs": [],
      "payable": false,
      "stateMutability": "nonpayable",
      "type": "function"
    },
    {
      "constant": false,
      "inputs": [
        {
          "name": "_RFIid",
          "type": "uint256"
        }
      ],
      "name": "rejectRFI",
      "outputs": [],
      "payable": false,
      "stateMutability": "nonpayable",
      "type": "function"
    },
    {
      "constant": false,
      "inputs": [
        {
          "name": "_RFLid",
          "type": "uint256"
        },
        {
          "name": "_value",
          "type": "uint256"
        }
      ],
      "name": "acceptRFL",
      "outputs": [],
      "payable": false,
      "stateMutability": "nonpayable",
      "type": "function"
    },
    {
      "constant": false,
      "inputs": [
        {
          "name": "_RFLid",
          "type": "uint256"
        }
      ],
      "name": "rejectRFL",
      "outputs": [],
      "payable": false,
      "stateMutability": "nonpayable",
      "type": "function"
    },
    {
      "constant": true,
      "inputs": [
        {
          "name": "_RFIid",
          "type": "uint256"
        }
      ],
      "name": "canMergeRFI",
      "outputs": [
        {
          "name": "",
          "type": "bool"
        }
      ],
      "payable": false,
      "stateMutability": "view",
      "type": "function"
    },
    {
      "constant": true,
      "inputs": [
        {
          "name": "_RFIid",
          "type": "uint256"
        }
      ],
      "name": "canRejectRFI",
      "outputs": [
        {
          "name": "",
          "type": "bool"
        }
      ],
      "payable": false,
      "stateMutability": "view",
      "type": "function"
    },
    {
      "constant": true,
      "inputs": [
        {
          "name": "_RFLid",
          "type": "uint256"
        },
        {
          "name": "_value",
          "type": "uint256"
        }
      ],
      "name": "canAcceptRFL",
      "outputs": [
        {
          "name": "",
          "type": "bool"
        }
      ],
      "payable": false,
      "stateMutability": "view",
      "type": "function"
    },
    {
      "constant": true,
      "inputs": [
        {
          "name": "_RFLid",
          "type": "uint256"
        }
      ],
      "name": "canRejectRFL",
      "outputs": [
        {
          "name": "",
          "type": "bool"
        }
      ],
      "payable": false,
      "stateMutability": "view",
      "type": "function"
    },
    {
      "constant": true,
      "inputs": [],
      "name": "getLineageToken",
      "outputs": [
        {
          "name": "",
          "type": "address"
        }
      ],
      "payable": false,
      "stateMutability": "view",
      "type": "function"
    },
    {
      "constant": true,
      "inputs": [
        {
          "name": "_RFIid",
          "type": "uint256"
        }
      ],
      "name": "getRFI",
      "outputs": [
        {
          "components": [
            {
              "components": [
                {
                  "name": "origin",
                  "type": "address"
                },
                {
                  "name": "tree",
                  "type": "string"
                },
                {
                  "name": "message",
                  "type": "string"
                },
                {
                  "name": "metadata",
                  "type": "string"
                },
                {
                  "components": [
                    {
                      "name": "api",
                      "type": "address"
                    },
                    {
                      "name": "hash",
                      "type": "bytes32"
                    }
                  ],
                  "name": "parents",
                  "type": "tuple[]"
                }
              ],
              "name": "individuation",
              "type": "tuple"
            },
            {
              "name": "blockstamp",
              "type": "uint256"
            },
            {
              "name": "state",
              "type": "uint8"
            },
            {
              "name": "RFLids",
              "type": "uint256[]"
            }
          ],
          "name": "",
          "type": "tuple"
        }
      ],
      "payable": false,
      "stateMutability": "view",
      "type": "function"
    },
    {
      "constant": true,
      "inputs": [
        {
          "name": "_RFLid",
          "type": "uint256"
        }
      ],
      "name": "getRFL",
      "outputs": [
        {
          "components": [
            {
              "components": [
                {
                  "name": "destination",
                  "type": "address"
                },
                {
                  "name": "minimum",
                  "type": "uint256"
                },
                {
                  "name": "metadata",
                  "type": "string"
                }
              ],
              "name": "lineage",
              "type": "tuple"
            },
            {
              "name": "blockstamp",
              "type": "uint256"
            },
            {
              "name": "value",
              "type": "uint256"
            },
            {
              "name": "state",
              "type": "uint8"
            },
            {
              "name": "RFIid",
              "type": "uint256"
            }
          ],
          "name": "",
          "type": "tuple"
        }
      ],
      "payable": false,
      "stateMutability": "view",
      "type": "function"
    },
    {
      "constant": true,
      "inputs": [
        {
          "components": [
            {
              "name": "origin",
              "type": "address"
            },
            {
              "name": "blockstamp",
              "type": "uint256"
            },
            {
              "name": "tree",
              "type": "string"
            },
            {
              "name": "message",
              "type": "string"
            },
            {
              "name": "metadata",
              "type": "string"
            },
            {
              "components": [
                {
                  "name": "api",
                  "type": "address"
                },
                {
                  "name": "hash",
                  "type": "bytes32"
                }
              ],
              "name": "parents",
              "type": "tuple[]"
            }
          ],
          "name": "_individuation",
          "type": "tuple"
        }
      ],
      "name": "getIndividuationHash",
      "outputs": [
        {
          "name": "",
          "type": "bytes32"
        }
      ],
      "payable": false,
      "stateMutability": "pure",
      "type": "function"
    },
    {
      "constant": true,
      "inputs": [],
      "name": "head",
      "outputs": [
        {
          "name": "",
          "type": "bytes32"
        }
      ],
      "payable": false,
      "stateMutability": "view",
      "type": "function"
    },
    {
      "constant": true,
      "inputs": [],
      "name": "getHead",
      "outputs": [
        {
          "components": [
            {
              "name": "origin",
              "type": "address"
            },
            {
              "name": "blockstamp",
              "type": "uint256"
            },
            {
              "name": "tree",
              "type": "string"
            },
            {
              "name": "message",
              "type": "string"
            },
            {
              "name": "metadata",
              "type": "string"
            },
            {
              "components": [
                {
                  "name": "api",
                  "type": "address"
                },
                {
                  "name": "hash",
                  "type": "bytes32"
                }
              ],
              "name": "parents",
              "type": "tuple[]"
            }
          ],
          "name": "",
          "type": "tuple"
        }
      ],
      "payable": false,
      "stateMutability": "view",
      "type": "function"
    }
  ],
  "bytecode": "0x608060405260006004556000600555620000276200002d640100000000026401000000009004565b62000165565b60006200004862000091640100000000026401000000009004565b1415156200005557600080fd5b6200008f7fffffffffffffffffffffffffffffffffffffffffffffffffffffffffffffffff620000de640100000000026401000000009004565b565b6000620000d97febb05b386a8d34882b8711d156f463690983dc47815980fb82aeeff1aa43579e600102600019166200015364010000000002620030b5176401000000009004565b905090565b6000620000f962000091640100000000026401000000009004565b1415156200010657600080fd5b62000150817febb05b386a8d34882b8711d156f463690983dc47815980fb82aeeff1aa43579e600102600019166200015e6401000000000262003498179091906401000000009004565b50565b600081549050919050565b8082555050565b6157a580620001756000396000f300608060405260043610610267576000357c0100000000000000000000000000000000000000000000000000000000900463ffffffff1680630803fac01461026c5780630823678014610297578063103a90c8146102c25780631113ed0d146102ed578063143700be14610318578063178e6079146103435780632adab4ea1461036e5780632d2e8012146103995780633181f6b2146103c457806332f0a3b51461040157806333ff68701461042c57806339a2d338146104695780634752915d146104a6578063485cc955146104e35780635b15970d1461050c5780635bddb4201461054957806360b1e057146105885780636d5f5ca7146105b35780636e0b314c146105dc578063748b052c14610605578063756f60491461062e5780637e7db6e11461065957806380201af21461069657806380afdea8146106c15780638322fff2146106ec578063889bd35d146107175780638b3dd749146107545780638f7dcfa31461077f57806397569bb1146107aa5780639bdc706d146107d55780639d4941d814610812578063a1658fad1461083b578063a7f0b3de14610878578063b462e70b146108a3578063b930908f146108ce578063c34e0ed6146108f9578063c3eefd1e14610924578063c538f7de14610961578063c74656e7146109a2578063cbcc65eb146109cd578063d4aae0c4146109f8578063db8a61d414610a23578063dc281aff14610a4e578063ddf6fa9c14610a79578063de4796ed14610aa2578063e7fd8d0814610acd578063e95fe2ff14610b0a578063e9a9c85014610b47578063f92a79ff14610b72578063fd47d20314610baf578063fec7d70b14610bec575b600080fd5b34801561027857600080fd5b50610281610c29565b60405161028e91906150a3565b60405180910390f35b3480156102a357600080fd5b506102ac610c54565b6040516102b991906150be565b60405180910390f35b3480156102ce57600080fd5b506102d7610c8d565b6040516102e4919061538b565b60405180910390f35b3480156102f957600080fd5b50610302610c93565b60405161030f91906150be565b60405180910390f35b34801561032457600080fd5b5061032d610cba565b60405161033a9190615013565b60405180910390f35b34801561034f57600080fd5b50610358610d7f565b60405161036591906150be565b60405180910390f35b34801561037a57600080fd5b50610383610da6565b60405161039091906150be565b60405180910390f35b3480156103a557600080fd5b506103ae610ddf565b6040516103bb91906150be565b60405180910390f35b3480156103d057600080fd5b506103eb60048036036103e691908101906146c1565b610e18565b6040516103f8919061538b565b60405180910390f35b34801561040d57600080fd5b50610416610ebc565b6040516104239190615013565b60405180910390f35b34801561043857600080fd5b50610453600480360361044e9190810190614831565b610fa8565b60405161046091906150a3565b60405180910390f35b34801561047557600080fd5b50610490600480360361048b919081019061472d565b611013565b60405161049d91906150be565b60405180910390f35b3480156104b257600080fd5b506104cd60048036036104c89190810190614883565b611228565b6040516104da91906150a3565b60405180910390f35b3480156104ef57600080fd5b5061050a60048036036105059190810190614685565b6112be565b005b34801561051857600080fd5b50610533600480360361052e91908101906147f0565b611361565b60405161054091906150a3565b60405180910390f35b34801561055557600080fd5b50610570600480360361056b9190810190614831565b611388565b60405161057f9392919061526b565b60405180910390f35b34801561059457600080fd5b5061059d6116cd565b6040516105aa91906150be565b60405180910390f35b3480156105bf57600080fd5b506105da60048036036105d59190810190614883565b6116f4565b005b3480156105e857600080fd5b5061060360048036036105fe9190810190614831565b6117dd565b005b34801561061157600080fd5b5061062c60048036036106279190810190614831565b6118c3565b005b34801561063a57600080fd5b506106436119a9565b60405161065091906150be565b60405180910390f35b34801561066557600080fd5b50610680600480360361067b91908101906144e7565b6119d0565b60405161068d91906150a3565b60405180910390f35b3480156106a257600080fd5b506106ab6119db565b6040516106b8919061538b565b60405180910390f35b3480156106cd57600080fd5b506106d66119e1565b6040516106e391906150be565b60405180910390f35b3480156106f857600080fd5b50610701611a18565b60405161070e9190615013565b60405180910390f35b34801561072357600080fd5b5061073e60048036036107399190810190614831565b611a1d565b60405161074b9190615369565b60405180910390f35b34801561076057600080fd5b50610769611bf6565b604051610776919061538b565b60405180910390f35b34801561078b57600080fd5b50610794611c2d565b6040516107a191906150be565b60405180910390f35b3480156107b657600080fd5b506107bf611cf1565b6040516107cc91906150be565b60405180910390f35b3480156107e157600080fd5b506107fc60048036036107f79190810190614831565b611d2a565b60405161080991906150a3565b60405180910390f35b34801561081e57600080fd5b50610839600480360361083491908101906144e7565b611d95565b005b34801561084757600080fd5b50610862600480360361085d9190810190614539565b611fbb565b60405161086f91906150a3565b60405180910390f35b34801561088457600080fd5b5061088d6120f3565b60405161089a919061515a565b60405180910390f35b3480156108af57600080fd5b506108b8612118565b6040516108c591906150be565b60405180910390f35b3480156108da57600080fd5b506108e3612151565b6040516108f091906150be565b60405180910390f35b34801561090557600080fd5b5061090e61218a565b60405161091b91906150be565b60405180910390f35b34801561093057600080fd5b5061094b60048036036109469190810190614831565b6121c3565b60405161095891906150a3565b60405180910390f35b34801561096d57600080fd5b5061098860048036036109839190810190614831565b6122c3565b6040516109999594939291906152cb565b60405180910390f35b3480156109ae57600080fd5b506109b7612413565b6040516109c49190615175565b60405180910390f35b3480156109d957600080fd5b506109e2612439565b6040516109ef91906150be565b60405180910390f35b348015610a0457600080fd5b50610a0d612460565b604051610a1a919061513f565b60405180910390f35b348015610a2f57600080fd5b50610a38612497565b604051610a4591906150be565b60405180910390f35b348015610a5a57600080fd5b50610a636124be565b604051610a709190615325565b60405180910390f35b348015610a8557600080fd5b50610aa06004803603610a9b9190810190614831565b61258d565b005b348015610aae57600080fd5b50610ab7612673565b604051610ac491906150a3565b60405180910390f35b348015610ad957600080fd5b50610af46004803603610aef91908101906147af565b6126a4565b604051610b0191906150a3565b60405180910390f35b348015610b1657600080fd5b50610b316004803603610b2c91908101906147f0565b6126ca565b604051610b3e91906150a3565b60405180910390f35b348015610b5357600080fd5b50610b5c6126f0565b604051610b6991906150be565b60405180910390f35b348015610b7e57600080fd5b50610b996004803603610b9491908101906145f2565b612729565b604051610ba69190615124565b60405180910390f35b348015610bbb57600080fd5b50610bd66004803603610bd1919081019061472d565b6127e0565b604051610be391906150be565b60405180910390f35b348015610bf857600080fd5b50610c136004803603610c0e9190810190614831565b6127f2565b604051610c209190615347565b60405180910390f35b600080610c34611bf6565b905060008114158015610c4e575080610c4b612c10565b10155b91505090565b60405180807f52454a4543545f52464c5f524f4c450000000000000000000000000000000000815250600f019050604051809103902081565b60055481565b7f3b4bf6bf3ad5000ecf0f989d5befde585c6860fea3e574a4fab4c49d1c177d9c60010281565b6000600160009054906101000a900473ffffffffffffffffffffffffffffffffffffffff1673ffffffffffffffffffffffffffffffffffffffff1663fc0c546a6040518163ffffffff167c0100000000000000000000000000000000000000000000000000000000028152600401602060405180830381600087803b158015610d4257600080fd5b505af1158015610d56573d6000803e3d6000fd5b505050506040513d601f19601f82011682018060405250610d7a919081019061465c565b905090565b7fd6f028ca0e8edb4a8c9757ca4fdccab25fa1e0317da1188108f7d2dee14902fb60010281565b60405180807f4352454154455f5246495f524f4c450000000000000000000000000000000000815250600f019050604051809103902081565b60405180807f4d455247455f5246495f524f4c45000000000000000000000000000000000000815250600e019050604051809103902081565b6000610e22610c29565b1515610e2d57600080fd5b60405180807f4352454154455f5246495f524f4c450000000000000000000000000000000000815250600f0190506040518091039020610e9e33826000604051908082528060200260200182016040528015610e985781602001602082028038833980820191505090505b50611fbb565b1515610ea957600080fd5b610eb38484612c18565b91505092915050565b60008073ffffffffffffffffffffffffffffffffffffffff16610edd612460565b73ffffffffffffffffffffffffffffffffffffffff1614151515610f0057600080fd5b610f08612460565b73ffffffffffffffffffffffffffffffffffffffff166332f0a3b56040518163ffffffff167c0100000000000000000000000000000000000000000000000000000000028152600401602060405180830381600087803b158015610f6b57600080fd5b505af1158015610f7f573d6000803e3d6000fd5b505050506040513d601f19601f82011682018060405250610fa39190810190614510565b905090565b6000600554821115610fbd576000905061100e565b60006004811115610fca57fe5b6003600084815260200190815260200160002060050160009054906101000a900460ff166004811115610ff957fe5b141515611009576000905061100e565b600190505b919050565b6000816000015182602001518360400151846060015185608001518660a00151604051602001808773ffffffffffffffffffffffffffffffffffffffff1673ffffffffffffffffffffffffffffffffffffffff166c0100000000000000000000000002815260140186815260200185805190602001908083835b6020831015156110b2578051825260208201915060208101905060208303925061108d565b6001836020036101000a03801982511681845116808217855250505050505090500184805190602001908083835b60208310151561110557805182526020820191506020810190506020830392506110e0565b6001836020036101000a03801982511681845116808217855250505050505090500183805190602001908083835b6020831015156111585780518252602082019150602081019050602083039250611133565b6001836020036101000a0380198251168184511680821785525050505050509050018280516000925b818410156111a45782849060200190602002015181526020019260010192611181565b9250505096505050505050506040516020818303038152906040526040518082805190602001908083835b6020831015156111f457805182526020820191506020810190506020830392506111cf565b6001836020036101000a03801982511681845116808217855250505050505090500191505060405180910390209050919050565b600060055483111561123d57600090506112b8565b6000600481111561124a57fe5b6003600085815260200190815260200160002060050160009054906101000a900460ff16600481111561127957fe5b14151561128957600090506112b8565b60036000848152602001908152602001600020600001600101548210156112b357600090506112b8565b600190505b92915050565b60006112c8611bf6565b1415156112d457600080fd5b6112dc612e9e565b816000806101000a81548173ffffffffffffffffffffffffffffffffffffffff021916908373ffffffffffffffffffffffffffffffffffffffff16021790555080600160006101000a81548173ffffffffffffffffffffffffffffffffffffffff021916908373ffffffffffffffffffffffffffffffffffffffff1602179055505050565b60006001600481111561137057fe5b8260600151600481111561138057fe5b149050919050565b60026020528060005260406000206000915090508060000160a060405190810160405290816000820160009054906101000a900473ffffffffffffffffffffffffffffffffffffffff1673ffffffffffffffffffffffffffffffffffffffff1673ffffffffffffffffffffffffffffffffffffffff168152602001600182018054600181600116156101000203166002900480601f01602080910402602001604051908101604052809291908181526020018280546001816001161561010002031660029004801561149b5780601f106114705761010080835404028352916020019161149b565b820191906000526020600020905b81548152906001019060200180831161147e57829003601f168201915b50505050508152602001600282018054600181600116156101000203166002900480601f01602080910402602001604051908101604052809291908181526020018280546001816001161561010002031660029004801561153d5780601f106115125761010080835404028352916020019161153d565b820191906000526020600020905b81548152906001019060200180831161152057829003601f168201915b50505050508152602001600382018054600181600116156101000203166002900480601f0160208091040260200160405190810160405280929190818152602001828054600181600116156101000203166002900480156115df5780601f106115b4576101008083540402835291602001916115df565b820191906000526020600020905b8154815290600101906020018083116115c257829003601f168201915b5050505050815260200160048201805480602002602001604051908101604052809291908181526020016000905b828210156116a757838290600052602060002090600202016040805190810160405290816000820160009054906101000a900473ffffffffffffffffffffffffffffffffffffffff1673ffffffffffffffffffffffffffffffffffffffff1673ffffffffffffffffffffffffffffffffffffffff16815260200160018201546000191660001916815250508152602001906001019061160d565b5050505081525050908060050154908060060160009054906101000a900460ff16905083565b7fddbcfd564f642ab5627cf68b9b7d374fb4f8a36e941a75d89c87998cef03bd6160010281565b6116fc610c29565b151561170757600080fd5b60405180807f4143434550545f52464c5f524f4c450000000000000000000000000000000000815250600f0190506040518091039020611778338260006040519080825280602002602001820160405280156117725781602001602082028038833980820191505090505b50611fbb565b151561178357600080fd5b61178d8383611228565b15156117ce576040517f08c379a00000000000000000000000000000000000000000000000000000000081526004016117c5906151ab565b60405180910390fd5b6117d88383612ef7565b505050565b6117e5610c29565b15156117f057600080fd5b60405180807f52454a4543545f52464c5f524f4c450000000000000000000000000000000000815250600f01905060405180910390206118613382600060405190808252806020026020018201604052801561185b5781602001602082028038833980820191505090505b50611fbb565b151561186c57600080fd5b61187582610fa8565b15156118b6576040517f08c379a00000000000000000000000000000000000000000000000000000000081526004016118ad906151cb565b60405180910390fd5b6118bf82612f7a565b5050565b6118cb610c29565b15156118d657600080fd5b60405180807f52454a4543545f5246495f524f4c450000000000000000000000000000000000815250600f0190506040518091039020611947338260006040519080825280602002602001820160405280156119415781602001602082028038833980820191505090505b50611fbb565b151561195257600080fd5b61195b82611d2a565b151561199c576040517f08c379a00000000000000000000000000000000000000000000000000000000081526004016119939061522b565b60405180910390fd5b6119a582612ff5565b5050565b7fc681a85306374a5ab27f0bbc385296a54bcd314a1948b6cf61c4ea1bc44bb9f860010281565b600060019050919050565b60045481565b6000611a137fd625496217aa6a3453eecb9c3489dc5a53e6c67b444329ea2b2cbc9ff547639b600102600019166130aa565b905090565b600081565b611a256137a3565b816005548111151515611a6d576040517f08c379a0000000000000000000000000000000000000000000000000000000008152600401611a64906151eb565b60405180910390fd5b6003600084815260200190815260200160002060a0604051908101604052908160008201606060405190810160405290816000820160009054906101000a900473ffffffffffffffffffffffffffffffffffffffff1673ffffffffffffffffffffffffffffffffffffffff1673ffffffffffffffffffffffffffffffffffffffff16815260200160018201548152602001600282018054600181600116156101000203166002900480601f016020809104026020016040519081016040528092919081815260200182805460018160011615610100020316600290048015611b965780601f10611b6b57610100808354040283529160200191611b96565b820191906000526020600020905b815481529060010190602001808311611b7957829003601f168201915b505050505081525050815260200160038201548152602001600482015481526020016005820160009054906101000a900460ff166004811115611bd557fe5b6004811115611be057fe5b8152602001600682015481525050915050919050565b6000611c287febb05b386a8d34882b8711d156f463690983dc47815980fb82aeeff1aa43579e600102600019166130b5565b905090565b60008060009054906101000a900473ffffffffffffffffffffffffffffffffffffffff1673ffffffffffffffffffffffffffffffffffffffff16638f7dcfa36040518163ffffffff167c0100000000000000000000000000000000000000000000000000000000028152600401602060405180830381600087803b158015611cb457600080fd5b505af1158015611cc8573d6000803e3d6000fd5b505050506040513d601f19601f82011682018060405250611cec91908101906145c9565b905090565b60405180807f52454a4543545f5246495f524f4c450000000000000000000000000000000000815250600f019050604051809103902081565b6000600454821115611d3f5760009050611d90565b60006003811115611d4c57fe5b6002600084815260200190815260200160002060060160009054906101000a900460ff166003811115611d7b57fe5b141515611d8b5760009050611d90565b600190505b919050565b600080611da1836119d0565b1515611dac57600080fd5b611db4610ebc565b9150611dbf826130c0565b1515611dca57600080fd5b600073ffffffffffffffffffffffffffffffffffffffff168373ffffffffffffffffffffffffffffffffffffffff161415611e62578173ffffffffffffffffffffffffffffffffffffffff166108fc3073ffffffffffffffffffffffffffffffffffffffff16319081150290604051600060405180830381858888f19350505050158015611e5c573d6000803e3d6000fd5b50611fb6565b8273ffffffffffffffffffffffffffffffffffffffff166370a08231306040518263ffffffff167c0100000000000000000000000000000000000000000000000000000000028152600401611eb79190615190565b602060405180830381600087803b158015611ed157600080fd5b505af1158015611ee5573d6000803e3d6000fd5b505050506040513d601f19601f82011682018060405250611f09919081019061485a565b90508273ffffffffffffffffffffffffffffffffffffffff1663a9059cbb83836040518363ffffffff167c0100000000000000000000000000000000000000000000000000000000028152600401611f6292919061507a565b602060405180830381600087803b158015611f7c57600080fd5b505af1158015611f90573d6000803e3d6000fd5b505050506040513d601f19601f82011682018060405250611fb491908101906145a0565b505b505050565b60008060606000611fca610c29565b1515611fd957600093506120e9565b611fe1612460565b9250600073ffffffffffffffffffffffffffffffffffffffff168373ffffffffffffffffffffffffffffffffffffffff16141561202157600093506120e9565b60008551111561203957602085510290508491508082525b8273ffffffffffffffffffffffffffffffffffffffff1663fdef9106883089866040518563ffffffff167c0100000000000000000000000000000000000000000000000000000000028152600401612094949392919061502e565b602060405180830381600087803b1580156120ae57600080fd5b505af11580156120c2573d6000803e3d6000fd5b505050506040513d601f19601f820116820180604052506120e691908101906145a0565b93505b5050509392505050565b6000809054906101000a900473ffffffffffffffffffffffffffffffffffffffff1681565b60405180807f4143434550545f52464c5f524f4c450000000000000000000000000000000000815250600f019050604051809103902081565b60405180807f4255524e5f524f4c4500000000000000000000000000000000000000000000008152506009019050604051809103902081565b60405180807f494e4449564944554154455f524f4c45000000000000000000000000000000008152506010019050604051809103902081565b6000806000806004548511156121dc57600093506122bb565b600260008681526020019081526020016000209250600060038111156121fe57fe5b8360060160009054906101000a900460ff16600381111561221b57fe5b14151561222b57600093506122bb565b600091505b82600701805490508210156122b65760036000846007018481548110151561225457fe5b9060005260206000200154815260200190815260200160002090506001600481111561227c57fe5b8160050160009054906101000a900460ff16600481111561229957fe5b1415156122a957600093506122bb565b8180600101925050612230565b600193505b505050919050565b600360205280600052604060002060009150905080600001606060405190810160405290816000820160009054906101000a900473ffffffffffffffffffffffffffffffffffffffff1673ffffffffffffffffffffffffffffffffffffffff1673ffffffffffffffffffffffffffffffffffffffff16815260200160018201548152602001600282018054600181600116156101000203166002900480601f0160208091040260200160405190810160405280929190818152602001828054600181600116156101000203166002900480156123e05780601f106123b5576101008083540402835291602001916123e0565b820191906000526020600020905b8154815290600101906020018083116123c357829003601f168201915b505050505081525050908060030154908060040154908060050160009054906101000a900460ff16908060060154905085565b600160009054906101000a900473ffffffffffffffffffffffffffffffffffffffff1681565b7fe3262375f45a6e2026b7e7b18c2b807434f2508fe1a2a3dfb493c7df8f4aad6a60010281565b60006124927f4172f0f7d2289153072b0a6ca36959e0cbe2efc3afe50fc81636caa96338137b60010260001916613112565b905090565b7ff1f3eb40f5bc1ad1344716ced8b8a0431d840b5783aea1fd01786bc26f35ac0f60010281565b6124c66137e4565b6000809054906101000a900473ffffffffffffffffffffffffffffffffffffffff1673ffffffffffffffffffffffffffffffffffffffff1663dc281aff6040518163ffffffff167c0100000000000000000000000000000000000000000000000000000000028152600401600060405180830381600087803b15801561254b57600080fd5b505af115801561255f573d6000803e3d6000fd5b505050506040513d6000823e3d601f19601f82011682018060405250612588919081019061476e565b905090565b612595610c29565b15156125a057600080fd5b60405180807f4d455247455f5246495f524f4c45000000000000000000000000000000000000815250600e01905060405180910390206126113382600060405190808252806020026020018201604052801561260b5781602001602082028038833980820191505090505b50611fbb565b151561261c57600080fd5b612625826121c3565b1515612666576040517f08c379a000000000000000000000000000000000000000000000000000000000815260040161265d9061520b565b60405180910390fd5b61266f8261311d565b5050565b60007fffffffffffffffffffffffffffffffffffffffffffffffffffffffffffffffff61269e611bf6565b14905090565b60008060038111156126b257fe5b826040015160038111156126c257fe5b149050919050565b60008060048111156126d857fe5b826060015160048111156126e857fe5b149050919050565b60405180807f4d494e545f524f4c4500000000000000000000000000000000000000000000008152506009019050604051809103902081565b600061273361327d565b73ffffffffffffffffffffffffffffffffffffffff166304bf2a7f836040518263ffffffff167c01000000000000000000000000000000000000000000000000000000000281526004016127879190615102565b602060405180830381600087803b1580156127a157600080fd5b505af11580156127b5573d6000803e3d6000fd5b505050506040513d601f19601f820116820180604052506127d99190810190614633565b9050919050565b60006127eb82611013565b9050919050565b6127fa613831565b816004548111151515612842576040517f08c379a00000000000000000000000000000000000000000000000000000000081526004016128399061524b565b60405180910390fd5b60026000848152602001908152602001600020608060405190810160405290816000820160a060405190810160405290816000820160009054906101000a900473ffffffffffffffffffffffffffffffffffffffff1673ffffffffffffffffffffffffffffffffffffffff1673ffffffffffffffffffffffffffffffffffffffff168152602001600182018054600181600116156101000203166002900480601f0160208091040260200160405190810160405280929190818152602001828054600181600116156101000203166002900480156129615780601f1061293657610100808354040283529160200191612961565b820191906000526020600020905b81548152906001019060200180831161294457829003601f168201915b50505050508152602001600282018054600181600116156101000203166002900480601f016020809104026020016040519081016040528092919081815260200182805460018160011615610100020316600290048015612a035780601f106129d857610100808354040283529160200191612a03565b820191906000526020600020905b8154815290600101906020018083116129e657829003601f168201915b50505050508152602001600382018054600181600116156101000203166002900480601f016020809104026020016040519081016040528092919081815260200182805460018160011615610100020316600290048015612aa55780601f10612a7a57610100808354040283529160200191612aa5565b820191906000526020600020905b815481529060010190602001808311612a8857829003601f168201915b5050505050815260200160048201805480602002602001604051908101604052809291908181526020016000905b82821015612b6d57838290600052602060002090600202016040805190810160405290816000820160009054906101000a900473ffffffffffffffffffffffffffffffffffffffff1673ffffffffffffffffffffffffffffffffffffffff1673ffffffffffffffffffffffffffffffffffffffff168152602001600182015460001916600019168152505081526020019060010190612ad3565b50505050815250508152602001600582015481526020016006820160009054906101000a900460ff166003811115612ba157fe5b6003811115612bac57fe5b815260200160078201805480602002602001604051908101604052809291908181526020018280548015612bff57602002820191906000526020600020905b815481526020019060010190808311612beb575b505050505081525050915050919050565b600043905090565b600080600080600080600160045401600481905550600454955060026000878152602001908152602001600020945087600001518560000160000160006101000a81548173ffffffffffffffffffffffffffffffffffffffff021916908373ffffffffffffffffffffffffffffffffffffffff1602179055508760200151856000016001019080519060200190612cb092919061386c565b508760400151856000016002019080519060200190612cd092919061386c565b508760600151856000016003019080519060200190612cf092919061386c565b5043856005018190555060008560060160006101000a81548160ff02191690836003811115612d1b57fe5b02179055508760800151518560000160040181612d3891906138ec565b50600093505b876080015151841015612df057876080015184815181101515612d5d57fe5b906020019060200201518560000160040185815481101515612d7b57fe5b906000526020600020906002020160008201518160000160006101000a81548173ffffffffffffffffffffffffffffffffffffffff021916908373ffffffffffffffffffffffffffffffffffffffff160217905550602082015181600101906000191690559050508380600101945050612d3e565b600092505b8651831015612e6657612e1f8784815181101515612e0f57fe5b906020019060200201518761337f565b9150846007018054809190600101612e37919061391e565b9050818560070182815481101515612e4b57fe5b90600052602060002001819055508280600101935050612df5565b857f35f2129c6d5c40f8bfc21ff096fc803eed03c578d74fabcf718966bce5e43a2460405160405180910390a2505050505092915050565b6000612ea8611bf6565b141515612eb457600080fd5b612ef5612ebf612c10565b7febb05b386a8d34882b8711d156f463690983dc47815980fb82aeeff1aa43579e6001026000191661349890919063ffffffff16565b565b600060036000848152602001908152602001600020905060018160050160006101000a81548160ff02191690836004811115612f2f57fe5b0217905550818160040181905550827fe798dd1723e7dfead0c42290d937f51c95c8f80f616ab3c5d515dd62333d0c6983604051612f6d919061538b565b60405180910390a2505050565b600060036000838152602001908152602001600020905060038160050160006101000a81548160ff02191690836004811115612fb257fe5b0217905550612fc4816006015461349f565b817feffb45481cc046f2f78b484c7ef03097fc7cd3f8cf92a6f150a6264c96c3e72c60405160405180910390a25050565b60008060026000848152602001908152602001600020915060028260060160006101000a81548160ff0219169083600381111561302e57fe5b0217905550600090505b81600701805490508110156130785761306b826007018281548110151561305b57fe5b90600052602060002001546135b9565b8080600101915050613038565b827f572671bf73ebac1f3878b683b28d9a3864df03396326fbaa18f19c834a54b13a60405160405180910390a2505050565b600081549050919050565b600081549050919050565b600080600073ffffffffffffffffffffffffffffffffffffffff168373ffffffffffffffffffffffffffffffffffffffff161415613101576000915061310c565b823b90506000811191505b50919050565b600081549050919050565b60008060026000848152602001908152602001600020915060018260060160006101000a81548160ff0219169083600381111561315657fe5b02179055506000809054906101000a900473ffffffffffffffffffffffffffffffffffffffff1673ffffffffffffffffffffffffffffffffffffffff1663a0a66f7c836000016040518263ffffffff167c01000000000000000000000000000000000000000000000000000000000281526004016131d491906152a9565b600060405180830381600087803b1580156131ee57600080fd5b505af1158015613202573d6000803e3d6000fd5b50505050600090505b816007018054905081101561324b5761323e826007018281548110151561322e57fe5b9060005260206000200154613627565b808060010191505061320b565b827f2ade3f30658e8481c8027d9227280e030ebbea37526a8e9e29887165e919e2ed60405160405180910390a2505050565b600080613288612460565b73ffffffffffffffffffffffffffffffffffffffff1663be00bbd87fd6f028ca0e8edb4a8c9757ca4fdccab25fa1e0317da1188108f7d2dee14902fb6001027fddbcfd564f642ab5627cf68b9b7d374fb4f8a36e941a75d89c87998cef03bd616001026040518363ffffffff167c01000000000000000000000000000000000000000000000000000000000281526004016133249291906150d9565b602060405180830381600087803b15801561333e57600080fd5b505af1158015613352573d6000803e3d6000fd5b505050506040513d601f19601f820116820180604052506133769190810190614510565b90508091505090565b600080600160055401600581905550600554915060036000838152602001908152602001600020905083600001518160000160000160006101000a81548173ffffffffffffffffffffffffffffffffffffffff021916908373ffffffffffffffffffffffffffffffffffffffff16021790555083602001518160000160010181905550836040015181600001600201908051906020019061342192919061386c565b504381600301819055506000816004018190555060008160050160006101000a81548160ff0219169083600481111561345657fe5b0217905550828160060181905550817fb696b79e6fa6e3e43f047d6702fce861e48c2267eeb009745f44a84b2c1dac4a60405160405180910390a25092915050565b8082555050565b600080600060026000858152602001908152602001600020925060038360060160006101000a81548160ff021916908360038111156134da57fe5b0217905550600091505b82600701805490508210156135865760036000846007018481548110151561350857fe5b9060005260206000200154815260200190815260200160002090506003600481111561353057fe5b8160050160009054906101000a900460ff16600481111561354d57fe5b14151561357957613578836007018381548110151561356857fe5b90600052602060002001546135b9565b5b81806001019250506134e4565b837f17c608dd7335e9c727c3e10aea0adfba0b0e6cc35c4935c1de31e3b10711da7560405160405180910390a250505050565b600060036000838152602001908152602001600020905060048160050160006101000a81548160ff021916908360048111156135f157fe5b0217905550817f7b78710b9fa400a202f9262b7daad859bf5663f0d88d45073184584fe6a166e060405160405180910390a25050565b600060036000838152602001908152602001600020905060028160050160006101000a81548160ff0219169083600481111561365f57fe5b0217905550600160009054906101000a900473ffffffffffffffffffffffffffffffffffffffff1673ffffffffffffffffffffffffffffffffffffffff166340c10f198260000160000160009054906101000a900473ffffffffffffffffffffffffffffffffffffffff1683600401546040518363ffffffff167c010000000000000000000000000000000000000000000000000000000002815260040161370892919061507a565b600060405180830381600087803b15801561372257600080fd5b505af1158015613736573d6000803e3d6000fd5b50505050817fb74d3ab32949c67c027c76911841ff5e997d1276e5244bba79e532fa6ce91f838260000160000160009054906101000a900473ffffffffffffffffffffffffffffffffffffffff16836004015460405161379792919061507a565b60405180910390a25050565b60e0604051908101604052806137b761394a565b81526020016000815260200160008152602001600060048111156137d757fe5b8152602001600081525090565b60c060405190810160405280600073ffffffffffffffffffffffffffffffffffffffff16815260200160008152602001606081526020016060815260200160608152602001606081525090565b61010060405190810160405280613846613982565b8152602001600081526020016000600381111561385f57fe5b8152602001606081525090565b828054600181600116156101000203166002900490600052602060002090601f016020900481019282601f106138ad57805160ff19168380011785556138db565b828001600101855582156138db579182015b828111156138da5782518255916020019190600101906138bf565b5b5090506138e891906139c8565b5090565b8154818355818111156139195760020281600202836000526020600020918201910161391891906139ed565b5b505050565b8154818355818111156139455781836000526020600020918201910161394491906139c8565b5b505050565b606060405190810160405280600073ffffffffffffffffffffffffffffffffffffffff16815260200160008152602001606081525090565b60a060405190810160405280600073ffffffffffffffffffffffffffffffffffffffff168152602001606081526020016060815260200160608152602001606081525090565b6139ea91905b808211156139e65760008160009055506001016139ce565b5090565b90565b613a3891905b80821115613a3457600080820160006101000a81549073ffffffffffffffffffffffffffffffffffffffff02191690556001820160009055506002016139f3565b5090565b90565b6000613a4782356155d3565b905092915050565b6000613a5b82516155d3565b905092915050565b600082601f8301121515613a7657600080fd5b8135613a89613a84826153d3565b6153a6565b91508181835260208401935060208101905083856040840282011115613aae57600080fd5b60005b83811015613ade5781613ac48882613ea3565b845260208401935060408301925050600181019050613ab1565b5050505092915050565b600082601f8301121515613afb57600080fd5b8151613b0e613b09826153d3565b6153a6565b91508181835260208401935060208101905083856040840282011115613b3357600080fd5b60005b83811015613b635781613b498882613eef565b845260208401935060408301925050600181019050613b36565b5050505092915050565b600082601f8301121515613b8057600080fd5b8135613b93613b8e826153fb565b6153a6565b9150818183526020840193506020810190508360005b83811015613bd95781358601613bbf888261410b565b845260208401935060208301925050600181019050613ba9565b5050505092915050565b600082601f8301121515613bf657600080fd5b8135613c09613c0482615423565b6153a6565b91508181835260208401935060208101905083856020840282011115613c2e57600080fd5b60005b83811015613c5e5781613c4488826144bf565b845260208401935060208301925050600181019050613c31565b5050505092915050565b600082601f8301121515613c7b57600080fd5b8135613c8e613c898261544b565b6153a6565b91508181835260208401935060208101905083856020840282011115613cb357600080fd5b60005b83811015613ce35781613cc988826144bf565b845260208401935060208301925050600181019050613cb6565b5050505092915050565b6000613cf982516155f3565b905092915050565b6000613d0d82356155ff565b905092915050565b6000613d2182516155ff565b905092915050565b600082601f8301121515613d3c57600080fd5b8135613d4f613d4a82615473565b6153a6565b91508082526020830160208301858383011115613d6b57600080fd5b613d7683828461570b565b50505092915050565b6000613d8b8251615609565b905092915050565b6000613d9f825161561b565b905092915050565b6000613db3823561562d565b905092915050565b6000613dc7823561563f565b905092915050565b6000613ddb8235615651565b905092915050565b6000613def823561566a565b905092915050565b600082601f8301121515613e0a57600080fd5b8135613e1d613e188261549f565b6153a6565b91508082526020830160208301858383011115613e3957600080fd5b613e4483828461570b565b50505092915050565b600082601f8301121515613e6057600080fd5b8151613e73613e6e8261549f565b6153a6565b91508082526020830160208301858383011115613e8f57600080fd5b613e9a83828461571a565b50505092915050565b600060408284031215613eb557600080fd5b613ebf60406153a6565b90506000613ecf84828501613a3b565b6000830152506020613ee384828501613d01565b60208301525092915050565b600060408284031215613f0157600080fd5b613f0b60406153a6565b90506000613f1b84828501613a4f565b6000830152506020613f2f84828501613d15565b60208301525092915050565b600060a08284031215613f4d57600080fd5b613f5760a06153a6565b90506000613f6784828501613a3b565b600083015250602082013567ffffffffffffffff811115613f8757600080fd5b613f9384828501613df7565b602083015250604082013567ffffffffffffffff811115613fb357600080fd5b613fbf84828501613df7565b604083015250606082013567ffffffffffffffff811115613fdf57600080fd5b613feb84828501613df7565b606083015250608082013567ffffffffffffffff81111561400b57600080fd5b61401784828501613a63565b60808301525092915050565b600060a0828403121561403557600080fd5b61403f60a06153a6565b9050600061404f84828501613a3b565b600083015250602082013567ffffffffffffffff81111561406f57600080fd5b61407b84828501613df7565b602083015250604082013567ffffffffffffffff81111561409b57600080fd5b6140a784828501613df7565b604083015250606082013567ffffffffffffffff8111156140c757600080fd5b6140d384828501613df7565b606083015250608082013567ffffffffffffffff8111156140f357600080fd5b6140ff84828501613a63565b60808301525092915050565b60006060828403121561411d57600080fd5b61412760606153a6565b9050600061413784828501613a3b565b600083015250602061414b848285016144bf565b602083015250604082013567ffffffffffffffff81111561416b57600080fd5b61417784828501613df7565b60408301525092915050565b600060c0828403121561419557600080fd5b61419f60c06153a6565b905060006141af84828501613a3b565b60008301525060206141c3848285016144bf565b602083015250604082013567ffffffffffffffff8111156141e357600080fd5b6141ef84828501613df7565b604083015250606082013567ffffffffffffffff81111561420f57600080fd5b61421b84828501613df7565b606083015250608082013567ffffffffffffffff81111561423b57600080fd5b61424784828501613df7565b60808301525060a082013567ffffffffffffffff81111561426757600080fd5b61427384828501613a63565b60a08301525092915050565b600060c0828403121561429157600080fd5b61429b60c06153a6565b905060006142ab84828501613a4f565b60008301525060206142bf848285016144d3565b602083015250604082015167ffffffffffffffff8111156142df57600080fd5b6142eb84828501613e4d565b604083015250606082015167ffffffffffffffff81111561430b57600080fd5b61431784828501613e4d565b606083015250608082015167ffffffffffffffff81111561433757600080fd5b61434384828501613e4d565b60808301525060a082015167ffffffffffffffff81111561436357600080fd5b61436f84828501613ae8565b60a08301525092915050565b60006080828403121561438d57600080fd5b61439760806153a6565b9050600082013567ffffffffffffffff8111156143b357600080fd5b6143bf84828501613f3b565b60008301525060206143d3848285016144bf565b60208301525060406143e784828501613dcf565b604083015250606082013567ffffffffffffffff81111561440757600080fd5b61441384828501613be3565b60608301525092915050565b600060a0828403121561443157600080fd5b61443b60a06153a6565b9050600082013567ffffffffffffffff81111561445757600080fd5b6144638482850161410b565b6000830152506020614477848285016144bf565b602083015250604061448b848285016144bf565b604083015250606061449f84828501613de3565b60608301525060806144b3848285016144bf565b60808301525092915050565b60006144cb8235615683565b905092915050565b60006144df8251615683565b905092915050565b6000602082840312156144f957600080fd5b600061450784828501613a3b565b91505092915050565b60006020828403121561452257600080fd5b600061453084828501613a4f565b91505092915050565b60008060006060848603121561454e57600080fd5b600061455c86828701613a3b565b935050602061456d86828701613d01565b925050604084013567ffffffffffffffff81111561458a57600080fd5b61459686828701613c68565b9150509250925092565b6000602082840312156145b257600080fd5b60006145c084828501613ced565b91505092915050565b6000602082840312156145db57600080fd5b60006145e984828501613d15565b91505092915050565b60006020828403121561460457600080fd5b600082013567ffffffffffffffff81111561461e57600080fd5b61462a84828501613d29565b91505092915050565b60006020828403121561464557600080fd5b600061465384828501613d7f565b91505092915050565b60006020828403121561466e57600080fd5b600061467c84828501613d93565b91505092915050565b6000806040838503121561469857600080fd5b60006146a685828601613da7565b92505060206146b785828601613dbb565b9150509250929050565b600080604083850312156146d457600080fd5b600083013567ffffffffffffffff8111156146ee57600080fd5b6146fa85828601614023565b925050602083013567ffffffffffffffff81111561471757600080fd5b61472385828601613b6d565b9150509250929050565b60006020828403121561473f57600080fd5b600082013567ffffffffffffffff81111561475957600080fd5b61476584828501614183565b91505092915050565b60006020828403121561478057600080fd5b600082015167ffffffffffffffff81111561479a57600080fd5b6147a68482850161427f565b91505092915050565b6000602082840312156147c157600080fd5b600082013567ffffffffffffffff8111156147db57600080fd5b6147e78482850161437b565b91505092915050565b60006020828403121561480257600080fd5b600082013567ffffffffffffffff81111561481c57600080fd5b6148288482850161441f565b91505092915050565b60006020828403121561484357600080fd5b6000614851848285016144bf565b91505092915050565b60006020828403121561486c57600080fd5b600061487a848285016144d3565b91505092915050565b6000806040838503121561489657600080fd5b60006148a4858286016144bf565b92505060206148b5858286016144bf565b9150509250929050565b6148c881615567565b82525050565b60006148d982615509565b8084526020840193506148eb836154cb565b60005b8281101561491d57614901868351614ca1565b61490a82615540565b91506040860195506001810190506148ee565b50849250505092915050565b600061493482615514565b808452602084019350614946836154d8565b60005b828110156149775761495b8683614cd0565b6149648261554d565b9150604086019550600181019050614949565b50849250505092915050565b600061498e8261551f565b8084526020840193506149a0836154ea565b60005b828110156149d2576149b6868351615004565b6149bf8261555a565b91506020860195506001810190506149a3565b50849250505092915050565b6149e781615587565b82525050565b6149f681615593565b82525050565b6000614a078261552a565b808452614a1b81602086016020860161571a565b614a248161574d565b602085010191505092915050565b614a3b8161568d565b82525050565b614a4a8161569f565b82525050565b614a59816156b1565b82525050565b614a68816156c3565b82525050565b614a77816156d5565b82525050565b614a86816156e7565b82525050565b614a95816156f9565b82525050565b6000614aa682615535565b808452614aba81602086016020860161571a565b614ac38161574d565b602085010191505092915050565b600081546001811660008114614aee5760018114614b0e57614b4f565b607f600283041680865260ff198316602087015260408601935050614b4f565b60028204808652602086019550614b24856154f7565b60005b82811015614b4657815481890152600182019150602081019050614b27565b80880195505050505b505092915050565b6000601182527f63616e6e6f74206163636570742052464c0000000000000000000000000000006020830152604082019050919050565b6000601182527f63616e6e6f742072656a6563742052464c0000000000000000000000000000006020830152604082019050919050565b6000601282527f52464c20646f6573206e6f7420657869737400000000000000000000000000006020830152604082019050919050565b6000601082527f63616e6e6f74206d6572676520524649000000000000000000000000000000006020830152604082019050919050565b6000601182527f63616e6e6f742072656a656374205246490000000000000000000000000000006020830152604082019050919050565b6000601282527f52464920646f6573206e6f7420657869737400000000000000000000000000006020830152604082019050919050565b604082016000820151614cb760008501826148bf565b506020820151614cca60208501826149ed565b50505050565b604082016000808301549050614ce58161575e565b614cf260008601826148bf565b5060018301549050614d038161575e565b614d1060208601826149ed565b5050505050565b600060a083016000830151614d2f60008601826148bf565b5060208301518482036020860152614d478282614a9b565b91505060408301518482036040860152614d618282614a9b565b91505060608301518482036060860152614d7b8282614a9b565b91505060808301518482036080860152614d9582826148ce565b9150508091505092915050565b600060a083016000808401549050614db98161575e565b614dc660008701826148bf565b50600184018583036020870152614ddd8382614ad1565b925050600284018583036040870152614df68382614ad1565b925050600384018583036060870152614e0f8382614ad1565b925050600484018583036080870152614e288382614929565b925050819250505092915050565b6000606083016000830151614e4e60008601826148bf565b506020830151614e616020860182615004565b5060408301518482036040860152614e798282614a9b565b9150508091505092915050565b600060c083016000830151614e9e60008601826148bf565b506020830151614eb16020860182615004565b5060408301518482036040860152614ec98282614a9b565b91505060608301518482036060860152614ee38282614a9b565b91505060808301518482036080860152614efd8282614a9b565b91505060a083015184820360a0860152614f1782826148ce565b9150508091505092915050565b60006080830160008301518482036000860152614f418282614d17565b9150506020830151614f566020860182615004565b506040830151614f696040860182614a7d565b5060608301518482036060860152614f818282614983565b9150508091505092915050565b600060a0830160008301518482036000860152614fab8282614e36565b9150506020830151614fc06020860182615004565b506040830151614fd36040860182615004565b506060830151614fe66060860182614a8c565b506080830151614ff96080860182615004565b508091505092915050565b61500d816155c9565b82525050565b600060208201905061502860008301846148bf565b92915050565b600060808201905061504360008301876148bf565b61505060208301866148bf565b61505d60408301856149ed565b818103606083015261506f81846149fc565b905095945050505050565b600060408201905061508f60008301856148bf565b61509c6020830184615004565b9392505050565b60006020820190506150b860008301846149de565b92915050565b60006020820190506150d360008301846149ed565b92915050565b60006040820190506150ee60008301856149ed565b6150fb60208301846149ed565b9392505050565b6000602082019050818103600083015261511c81846149fc565b905092915050565b60006020820190506151396000830184614a32565b92915050565b60006020820190506151546000830184614a41565b92915050565b600060208201905061516f6000830184614a50565b92915050565b600060208201905061518a6000830184614a5f565b92915050565b60006020820190506151a56000830184614a6e565b92915050565b600060208201905081810360008301526151c481614b57565b9050919050565b600060208201905081810360008301526151e481614b8e565b9050919050565b6000602082019050818103600083015261520481614bc5565b9050919050565b6000602082019050818103600083015261522481614bfc565b9050919050565b6000602082019050818103600083015261524481614c33565b9050919050565b6000602082019050818103600083015261526481614c6a565b9050919050565b600060608201905081810360008301526152858186614d17565b90506152946020830185615004565b6152a16040830184614a7d565b949350505050565b600060208201905081810360008301526152c38184614da2565b905092915050565b600060a08201905081810360008301526152e58188614e36565b90506152f46020830187615004565b6153016040830186615004565b61530e6060830185614a8c565b61531b6080830184615004565b9695505050505050565b6000602082019050818103600083015261533f8184614e86565b905092915050565b600060208201905081810360008301526153618184614f24565b905092915050565b600060208201905081810360008301526153838184614f8e565b905092915050565b60006020820190506153a06000830184615004565b92915050565b6000604051905081810181811067ffffffffffffffff821117156153c957600080fd5b8060405250919050565b600067ffffffffffffffff8211156153ea57600080fd5b602082029050602081019050919050565b600067ffffffffffffffff82111561541257600080fd5b602082029050602081019050919050565b600067ffffffffffffffff82111561543a57600080fd5b602082029050602081019050919050565b600067ffffffffffffffff82111561546257600080fd5b602082029050602081019050919050565b600067ffffffffffffffff82111561548a57600080fd5b601f19601f8301169050602081019050919050565b600067ffffffffffffffff8211156154b657600080fd5b601f19601f8301169050602081019050919050565b6000602082019050919050565b60008160005260206000209050919050565b6000602082019050919050565b60008160005260206000209050919050565b600081519050919050565b600081549050919050565b600081519050919050565b600081519050919050565b600081519050919050565b6000602082019050919050565b6000600182019050919050565b6000602082019050919050565b600073ffffffffffffffffffffffffffffffffffffffff82169050919050565b60008115159050919050565b6000819050919050565b60006004821015156155ab57fe5b819050919050565b60006005821015156155c157fe5b819050919050565b6000819050919050565b600073ffffffffffffffffffffffffffffffffffffffff82169050919050565b60008115159050919050565b6000819050919050565b600061561482615567565b9050919050565b600061562682615567565b9050919050565b600061563882615567565b9050919050565b600061564a82615567565b9050919050565b600060048210151561566257600080fd5b819050919050565b600060058210151561567b57600080fd5b819050919050565b6000819050919050565b600061569882615567565b9050919050565b60006156aa82615567565b9050919050565b60006156bc82615567565b9050919050565b60006156ce82615567565b9050919050565b60006156e082615567565b9050919050565b60006156f28261559d565b9050919050565b6000615704826155b3565b9050919050565b82818337600083830152505050565b60005b8381101561573857808201518184015260208101905061571d565b83811115615747576000848401525b50505050565b6000601f19601f8301169050919050565b60006001820490509190505600a265627a7a72305820682d494427926a5c9d933f28de58cd61fad92c5c63c057454f9f62733d3c20636c6578706572696d656e74616cf50037",
  "source": "pragma solidity ^0.4.24;\npragma experimental ABIEncoderV2;\n\n/* import \"@aragon/apps-shared-minime/contracts/ITokenController.sol\";\nimport \"@aragon/apps-shared-minime/contracts/MiniMeToken.sol\"; */\nimport \"./PandoApp.sol\";\nimport \"./PandoGenesis.sol\";\nimport \"./PandoLineage.sol\";\n\n\ncontract PandoAPI is PandoApp {\n    bytes32 constant public CREATE_RFI_ROLE  = keccak256(\"CREATE_RFI_ROLE\");\n    bytes32 constant public MERGE_RFI_ROLE   = keccak256(\"MERGE_RFI_ROLE\");\n    bytes32 constant public REJECT_RFI_ROLE  = keccak256(\"REJECT_RFI_ROLE\");\n    bytes32 constant public ACCEPT_RFL_ROLE  = keccak256(\"ACCEPT_RFL_ROLE\");\n    bytes32 constant public REJECT_RFL_ROLE  = keccak256(\"REJECT_RFL_ROLE\");\n    bytes32 constant public INDIVIDUATE_ROLE = keccak256(\"INDIVIDUATE_ROLE\");\n    bytes32 public constant MINT_ROLE = keccak256(\"MINT_ROLE\");\n    bytes32 public constant BURN_ROLE = keccak256(\"BURN_ROLE\");\n\n    PandoGenesis public genesis;\n    PandoLineage public lineage;\n\n\n\n\n\n\n\n\n    // Use a mapping instead of an array to ease app upgrade\n    // See https://github.com/aragon/aragon-apps/pull/428\n    // See https://youtu.be/sJ7VECqHFAg?t=9m27s\n    mapping (uint256 => RFI) public RFIs;\n    mapping (uint256 => RFL) public RFLs;\n\n    uint256 public RFIsLength = 0;\n    uint256 public RFLsLength = 0;\n\n\n    event CreateRFI(uint256 indexed id);\n    event MergeRFI(uint256 indexed id);\n    event RejectRFI(uint256 indexed id);\n    event CancelRFI(uint256 indexed id);\n\n    event CreateRFL(uint256 indexed id);\n    event AcceptRFL(uint256 indexed id, uint256 value);\n    event RejectRFL(uint256 indexed id);\n    event CancelRFL(uint256 indexed id);\n    event IssueRFL(uint256 indexed id, address destination, uint256 value);\n\n    modifier RFIExists(uint256 _RFIid) {\n        require(_RFIid <= RFIsLength, \"RFI does not exist\");\n        _;\n    }\n\n    modifier RFLExists(uint256 _RFLid) {\n        require(_RFLid <= RFLsLength, \"RFL does not exist\");\n        _;\n    }\n\n    /*--------------------*/\n\n    function initialize(PandoGenesis _genesis, PandoLineage _lineage) external onlyInit {\n        initialized();\n        genesis = _genesis;\n        lineage = _lineage;\n    }\n\n    function createRFI(IIndividuation _individuation, ILineage[] _lineages)\n        public\n        isInitialized\n        auth(CREATE_RFI_ROLE)\n        returns (uint256 RFIid)\n    {\n        RFIid = _createRFI(_individuation, _lineages);\n    }\n\n    function mergeRFI(uint256 _RFIid) public isInitialized auth(MERGE_RFI_ROLE) {\n        require(canMergeRFI(_RFIid), \"cannot merge RFI\");\n        _mergeRFI(_RFIid);\n    }\n\n    function rejectRFI(uint256 _RFIid) public isInitialized auth(REJECT_RFI_ROLE) {\n        require(canRejectRFI(_RFIid), \"cannot reject RFI\");\n        _rejectRFI(_RFIid);\n    }\n\n    function acceptRFL(uint256 _RFLid, uint256 _value) public isInitialized auth(ACCEPT_RFL_ROLE) {\n        require(canAcceptRFL(_RFLid, _value), \"cannot accept RFL\");\n        _acceptRFL(_RFLid, _value);\n    }\n\n    function rejectRFL(uint256 _RFLid) public isInitialized auth(REJECT_RFL_ROLE) {\n        require(canRejectRFL(_RFLid), \"cannot reject RFL\");\n        _rejectRFL(_RFLid);\n    }\n\n    /*--------------------*/\n\n    function canMergeRFI(uint256 _RFIid) public view returns (bool) {\n        if (_RFIid > RFIsLength)\n            return false;\n        RFI storage RFI_ = RFIs[_RFIid];\n        if (RFI_.state != RFIState.Pending)\n            return false;\n        for (uint256 i = 0; i < RFI_.RFLids.length; i++) {\n            RFL storage rfl = RFLs[RFI_.RFLids[i]];\n            if (rfl.state != RFLState.Accepted)\n                return false;\n        }\n        return true;\n    }\n\n    function canRejectRFI(uint _RFIid) public view returns (bool) {\n        if (_RFIid > RFIsLength)\n            return false;\n        if (RFIs[_RFIid].state != RFIState.Pending)\n            return false;\n        return true;\n    }\n\n    function canAcceptRFL(uint256 _RFLid, uint256 _value) public view returns (bool) {\n        if (_RFLid > RFLsLength)\n            return false;\n        if (RFLs[_RFLid].state != RFLState.Pending)\n            return false;\n        if (_value < RFLs[_RFLid].lineage.minimum)\n            return false;\n        return true;\n    }\n\n    function canRejectRFL(uint _RFLid) public view returns (bool) {\n        if (_RFLid > RFLsLength)\n            return false;\n        if (RFLs[_RFLid].state != RFLState.Pending)\n            return false;\n        return true;\n    }\n\n    /*--------------------*/\n\n    function getLineageToken() public view returns (address) {\n        return address(lineage.token());\n    }\n\n\n    function getRFI(uint256 _RFIid) public view RFIExists(_RFIid) returns (RFI) {\n        return RFIs[_RFIid];\n    }\n\n    function getRFL(uint256 _RFLid) public view RFLExists(_RFLid) returns (RFL) {\n        return RFLs[_RFLid];\n    }\n\n    function getIndividuationHash(Individuation _individuation) public pure returns (bytes32) {\n        return hash(_individuation);\n    }\n\n    function head() public view returns (bytes32) {\n        return genesis.head();\n    }\n\n    function getHead() public view returns (PandoApp.Individuation) {\n        return genesis.getHead();\n    }\n\n    /*--------------------*/\n\n    function _createRFI(IIndividuation _individuation, ILineage[] _lineages) internal returns (uint256 RFIid) {\n        // msg.sender is gonna be the address of a governance kit built on top of the API\n        // Do you we wanna make sure that the transaction is actually initialized by _individuation.origin ?\n        // If this is the case then we're gonna need to ask for a proof of identity through a ECDSA signature\n        // See https://github.com/OpenZeppelin/openzeppelin-solidity/blob/master/contracts/cryptography/ECDSA.sol\n\n        RFIsLength = RFIsLength + 1;\n        RFIid = RFIsLength;\n\n        RFI storage rfi = RFIs[RFIid];\n\n        rfi.individuation.origin = _individuation.origin;\n        rfi.individuation.tree = _individuation.tree;\n        rfi.individuation.message = _individuation.message;\n        rfi.individuation.metadata = _individuation.metadata;\n        rfi.blockstamp = block.number;\n        rfi.state = RFIState.Pending;\n\n        // solc 4.0.24 cannot directly convert dynamic struct array from memory to storage\n        rfi.individuation.parents.length = _individuation.parents.length;\n        for (uint256 i = 0; i < _individuation.parents.length; i++) {\n            rfi.individuation.parents[i] = _individuation.parents[i];\n        }\n\n        for (uint256 j = 0; j < _lineages.length; j++) {\n            uint256 RFLid = _createRFL(_lineages[j], RFIid);\n            uint256 index = rfi.RFLids.length++;\n            rfi.RFLids[index] = RFLid;\n        }\n\n        emit CreateRFI(RFIid);\n    }\n\n    function _mergeRFI(uint256 _RFIid) internal {\n        RFI storage rfi = RFIs[_RFIid];\n\n        rfi.state = RFIState.Merged;\n\n        genesis.individuate(rfi.individuation);\n\n        for (uint256 i = 0; i < rfi.RFLids.length; i++) {\n            _issueRFL(rfi.RFLids[i]);\n        }\n\n        emit MergeRFI(_RFIid);\n    }\n\n    function _rejectRFI(uint256 _RFIid) internal {\n        RFI storage rfi = RFIs[_RFIid];\n\n        rfi.state = RFIState.Rejected;\n\n        for (uint256 j = 0; j < rfi.RFLids.length; j++) {\n            _cancelRFL(rfi.RFLids[j]);\n        }\n\n        emit RejectRFI(_RFIid);\n    }\n\n    function _cancelRFI(uint256 _RFIid) internal {\n        RFI storage rfi = RFIs[_RFIid];\n\n        rfi.state = RFIState.Cancelled;\n\n        for (uint256 i = 0; i < rfi.RFLids.length; i++) {\n            RFL storage rfl = RFLs[rfi.RFLids[i]];\n\n            if (rfl.state != RFLState.Rejected)\n                _cancelRFL(rfi.RFLids[i]);\n        }\n\n        emit CancelRFI(_RFIid);\n    }\n\n    function _createRFL(ILineage _lineage, uint256 _RFIid) internal returns (uint256 RFLid) {\n        RFLsLength = RFLsLength + 1;\n        RFLid = RFLsLength;\n\n        RFL storage rfl = RFLs[RFLid];\n\n        rfl.lineage.destination = _lineage.destination;\n        rfl.lineage.minimum = _lineage.minimum;\n        rfl.lineage.metadata = _lineage.metadata;\n        rfl.blockstamp = block.number;\n        rfl.value = 0;\n        rfl.state = RFLState.Pending;\n        rfl.RFIid = _RFIid;\n\n        emit CreateRFL(RFLid);\n    }\n\n    function _acceptRFL(uint256 _RFLid, uint256 _value) internal {\n        RFL storage rfl = RFLs[_RFLid];\n\n        rfl.state = RFLState.Accepted;\n        rfl.value = _value;\n\n        emit AcceptRFL(_RFLid, _value);\n    }\n\n    function _rejectRFL(uint256 _RFLid) internal {\n        RFL storage rfl = RFLs[_RFLid];\n\n        rfl.state = RFLState.Rejected;\n\n        _cancelRFI(rfl.RFIid);\n\n        emit RejectRFL(_RFLid);\n    }\n\n    function _cancelRFL(uint256 _RFLid) internal {\n        RFL storage rfl = RFLs[_RFLid];\n\n        rfl.state = RFLState.Cancelled;\n\n        emit CancelRFL(_RFLid);\n    }\n\n    function _issueRFL(uint256 _RFLid) internal {\n        RFL storage rfl = RFLs[_RFLid];\n\n        rfl.state = RFLState.Issued;\n\n        lineage.mint(rfl.lineage.destination, rfl.value);\n\n        emit IssueRFL(_RFLid, rfl.lineage.destination, rfl.value);\n    }\n}\n",
  "sourcePath": "/Users/osarrouy/Documents/dapp/@pando/packages/core/contracts/core/PandoAPI.sol",
  "compiler": {
    "name": "solc",
    "version": "0.4.24+commit.e67f0147.Emscripten.clang"
  },
  "schemaVersion": "3.0.0-beta.1",
  "updatedAt": "2018-11-26T15:23:12.709Z"
}