{
  "contractName": "Petrifiable",
  "abi": [
    {
      "constant": true,
      "inputs": [],
      "name": "hasInitialized",
      "outputs": [
        {
          "name": "",
          "type": "bool"
        }
      ],
      "payable": false,
      "stateMutability": "view",
      "type": "function"
    },
    {
      "constant": true,
      "inputs": [],
      "name": "getInitializationBlock",
      "outputs": [
        {
          "name": "",
          "type": "uint256"
        }
      ],
      "payable": false,
      "stateMutability": "view",
      "type": "function"
    },
    {
      "constant": true,
      "inputs": [],
      "name": "isPetrified",
      "outputs": [
        {
          "name": "",
          "type": "bool"
        }
      ],
      "payable": false,
      "stateMutability": "view",
      "type": "function"
    }
  ],
  "bytecode": "0x608060405234801561001057600080fd5b506101b7806100206000396000f300608060405260043610610057576000357c0100000000000000000000000000000000000000000000000000000000900463ffffffff1680630803fac01461005c5780638b3dd7491461008b578063de4796ed146100b6575b600080fd5b34801561006857600080fd5b506100716100e5565b604051808215151515815260200191505060405180910390f35b34801561009757600080fd5b506100a0610110565b6040518082815260200191505060405180910390f35b3480156100c257600080fd5b506100cb610147565b604051808215151515815260200191505060405180910390f35b6000806100f0610110565b90506000811415801561010a575080610107610178565b10155b91505090565b60006101427febb05b386a8d34882b8711d156f463690983dc47815980fb82aeeff1aa43579e60010260001916610180565b905090565b60007fffffffffffffffffffffffffffffffffffffffffffffffffffffffffffffffff610172610110565b14905090565b600043905090565b6000815490509190505600a165627a7a72305820b430f9ef424a642dbbc44d5f54dfe1fd1b7382b2aa99de6a4745bbb9b633e1670029",
  "source": "/*\n * SPDX-License-Identitifer:    MIT\n */\n\npragma solidity ^0.4.24;\n\nimport \"./Initializable.sol\";\n\n\ncontract Petrifiable is Initializable {\n    // Use block UINT256_MAX (which should be never) as the initializable date\n    uint256 internal constant PETRIFIED_BLOCK = uint256(-1);\n\n    function isPetrified() public view returns (bool) {\n        return getInitializationBlock() == PETRIFIED_BLOCK;\n    }\n\n    /**\n    * @dev Function to be called by top level contract to prevent being initialized.\n    *      Useful for freezing base contracts when they're used behind proxies.\n    */\n    function petrify() internal onlyInit {\n        initializedAt(PETRIFIED_BLOCK);\n    }\n}\n",
  "sourcePath": "@aragon/os/contracts/common/Petrifiable.sol",
  "compiler": {
    "name": "solc",
    "version": "0.4.24+commit.e67f0147.Emscripten.clang"
  },
  "schemaVersion": "3.0.0-beta.2",
  "updatedAt": "2018-12-05T16:41:24.757Z",
  "devdoc": {
    "methods": {
      "getInitializationBlock()": {
        "return": "Block number in which the contract was initialized"
      },
      "hasInitialized()": {
        "return": "Whether the contract has been initialized by the time of the current block"
      }
    }
  },
  "userdoc": {
    "methods": {}
  }
}