{
  "contractName": "ACL",
  "abi": [
    {
      "constant": false,
      "inputs": [
        {
          "name": "_entity",
          "type": "address"
        },
        {
          "name": "_app",
          "type": "address"
        },
        {
          "name": "_role",
          "type": "bytes32"
        }
      ],
      "name": "grantPermission",
      "outputs": [],
      "payable": false,
      "stateMutability": "nonpayable",
      "type": "function"
    },
    {
      "constant": true,
      "inputs": [],
      "name": "CREATE_PERMISSIONS_ROLE",
      "outputs": [
        {
          "name": "",
          "type": "bytes32"
        }
      ],
      "payable": false,
      "stateMutability": "view",
      "type": "function"
    },
    {
      "constant": true,
      "inputs": [],
      "name": "EVMSCRIPT_REGISTRY_APP_ID",
      "outputs": [
        {
          "name": "",
          "type": "bytes32"
        }
      ],
      "payable": false,
      "stateMutability": "view",
      "type": "function"
    },
    {
      "constant": false,
      "inputs": [
        {
          "name": "_entity",
          "type": "address"
        },
        {
          "name": "_app",
          "type": "address"
        },
        {
          "name": "_role",
          "type": "bytes32"
        },
        {
          "name": "_params",
          "type": "uint256[]"
        }
      ],
      "name": "grantPermissionP",
      "outputs": [],
      "payable": false,
      "stateMutability": "nonpayable",
      "type": "function"
    },
    {
      "constant": true,
      "inputs": [
        {
          "name": "_who",
          "type": "address"
        },
        {
          "name": "_where",
          "type": "address"
        },
        {
          "name": "_what",
          "type": "bytes32"
        }
      ],
      "name": "hasPermission",
      "outputs": [
        {
          "name": "",
          "type": "bool"
        }
      ],
      "payable": false,
      "stateMutability": "view",
      "type": "function"
    },
    {
      "constant": true,
      "inputs": [
        {
          "name": "",
          "type": "bytes32"
        },
        {
          "name": "",
          "type": "uint256"
        }
      ],
      "name": "permissionParams",
      "outputs": [
        {
          "name": "id",
          "type": "uint8"
        },
        {
          "name": "op",
          "type": "uint8"
        },
        {
          "name": "value",
          "type": "uint240"
        }
      ],
      "payable": false,
      "stateMutability": "view",
      "type": "function"
    },
    {
      "constant": true,
      "inputs": [],
      "name": "appId",
      "outputs": [
        {
          "name": "",
          "type": "bytes32"
        }
      ],
      "payable": false,
      "stateMutability": "view",
      "type": "function"
    },
    {
      "constant": true,
      "inputs": [],
      "name": "getInitializationBlock",
      "outputs": [
        {
          "name": "",
          "type": "uint256"
        }
      ],
      "payable": false,
      "stateMutability": "view",
      "type": "function"
    },
    {
      "constant": true,
      "inputs": [],
      "name": "EVMSCRIPT_REGISTRY_APP",
      "outputs": [
        {
          "name": "",
          "type": "bytes32"
        }
      ],
      "payable": false,
      "stateMutability": "view",
      "type": "function"
    },
    {
      "constant": false,
      "inputs": [
        {
          "name": "_entity",
          "type": "address"
        },
        {
          "name": "_app",
          "type": "address"
        },
        {
          "name": "_role",
          "type": "bytes32"
        }
      ],
      "name": "revokePermission",
      "outputs": [],
      "payable": false,
      "stateMutability": "nonpayable",
      "type": "function"
    },
    {
      "constant": false,
      "inputs": [
        {
          "name": "_newManager",
          "type": "address"
        },
        {
          "name": "_app",
          "type": "address"
        },
        {
          "name": "_role",
          "type": "bytes32"
        }
      ],
      "name": "setPermissionManager",
      "outputs": [],
      "payable": false,
      "stateMutability": "nonpayable",
      "type": "function"
    },
    {
      "constant": true,
      "inputs": [
        {
          "name": "_app",
          "type": "address"
        },
        {
          "name": "_role",
          "type": "bytes32"
        }
      ],
      "name": "getPermissionManager",
      "outputs": [
        {
          "name": "",
          "type": "address"
        }
      ],
      "payable": false,
      "stateMutability": "view",
      "type": "function"
    },
    {
      "constant": false,
      "inputs": [
        {
          "name": "_entity",
          "type": "address"
        },
        {
          "name": "_app",
          "type": "address"
        },
        {
          "name": "_role",
          "type": "bytes32"
        },
        {
          "name": "_manager",
          "type": "address"
        }
      ],
      "name": "createPermission",
      "outputs": [],
      "payable": false,
      "stateMutability": "nonpayable",
      "type": "function"
    },
    {
      "constant": false,
      "inputs": [
        {
          "name": "_permissionsCreator",
          "type": "address"
        }
      ],
      "name": "initialize",
      "outputs": [],
      "payable": false,
      "stateMutability": "nonpayable",
      "type": "function"
    },
    {
      "constant": true,
      "inputs": [],
      "name": "EMPTY_PARAM_HASH",
      "outputs": [
        {
          "name": "",
          "type": "bytes32"
        }
      ],
      "payable": false,
      "stateMutability": "view",
      "type": "function"
    },
    {
      "constant": true,
      "inputs": [],
      "name": "kernel",
      "outputs": [
        {
          "name": "",
          "type": "address"
        }
      ],
      "payable": false,
      "stateMutability": "view",
      "type": "function"
    },
    {
      "constant": true,
      "inputs": [
        {
          "name": "_who",
          "type": "address"
        },
        {
          "name": "_where",
          "type": "address"
        },
        {
          "name": "_what",
          "type": "bytes32"
        },
        {
          "name": "_how",
          "type": "uint256[]"
        }
      ],
      "name": "hasPermission",
      "outputs": [
        {
          "name": "",
          "type": "bool"
        }
      ],
      "payable": false,
      "stateMutability": "view",
      "type": "function"
    },
    {
      "constant": true,
      "inputs": [
        {
          "name": "_script",
          "type": "bytes"
        }
      ],
      "name": "getExecutor",
      "outputs": [
        {
          "name": "",
          "type": "address"
        }
      ],
      "payable": false,
      "stateMutability": "view",
      "type": "function"
    },
    {
      "constant": true,
      "inputs": [
        {
          "name": "_who",
          "type": "address"
        },
        {
          "name": "_where",
          "type": "address"
        },
        {
          "name": "_what",
          "type": "bytes32"
        },
        {
          "name": "_how",
          "type": "bytes"
        }
      ],
      "name": "hasPermission",
      "outputs": [
        {
          "name": "",
          "type": "bool"
        }
      ],
      "payable": false,
      "stateMutability": "view",
      "type": "function"
    },
    {
      "anonymous": false,
      "inputs": [
        {
          "indexed": true,
          "name": "entity",
          "type": "address"
        },
        {
          "indexed": true,
          "name": "app",
          "type": "address"
        },
        {
          "indexed": true,
          "name": "role",
          "type": "bytes32"
        },
        {
          "indexed": false,
          "name": "allowed",
          "type": "bool"
        }
      ],
      "name": "SetPermission",
      "type": "event"
    },
    {
      "anonymous": false,
      "inputs": [
        {
          "indexed": true,
          "name": "app",
          "type": "address"
        },
        {
          "indexed": true,
          "name": "role",
          "type": "bytes32"
        },
        {
          "indexed": true,
          "name": "manager",
          "type": "address"
        }
      ],
      "name": "ChangePermissionManager",
      "type": "event"
    },
    {
      "constant": true,
      "inputs": [
        {
          "name": "_sender",
          "type": "address"
        },
        {
          "name": "_role",
          "type": "bytes32"
        },
        {
          "name": "params",
          "type": "uint256[]"
        }
      ],
      "name": "canPerform",
      "outputs": [
        {
          "name": "",
          "type": "bool"
        }
      ],
      "payable": false,
      "stateMutability": "view",
      "type": "function"
    }
  ],
  "bytecode": "0x6060604052341561000f57600080fd5b6122b18061001e6000396000f300606060405260043610610112576000357c0100000000000000000000000000000000000000000000000000000000900463ffffffff1680630a8ed3db146101175780633d6ab68f1461017c57806360b1e057146101ad5780636815c992146101de5780636d6712d814610283578063710a83151461030057806380afdea81461039e5780638b3dd749146103cf5780639b3fdf4c146103f85780639d0effdb14610429578063a1658fad1461048e578063afd925df1461052c578063b190572714610591578063be03847814610617578063c4d66de81461069b578063c513f66e146106d4578063d4aae0c414610705578063f520b58d1461075a578063f92a79ff14610817578063fdef9106146108b4575b600080fd5b341561012257600080fd5b61017a600480803573ffffffffffffffffffffffffffffffffffffffff1690602001909190803573ffffffffffffffffffffffffffffffffffffffff1690602001909190803560001916906020019091905050610974565b005b341561018757600080fd5b61018f6109a4565b60405180826000191660001916815260200191505060405180910390f35b34156101b857600080fd5b6101c06109dd565b60405180826000191660001916815260200191505060405180910390f35b34156101e957600080fd5b610281600480803573ffffffffffffffffffffffffffffffffffffffff1690602001909190803573ffffffffffffffffffffffffffffffffffffffff169060200190919080356000191690602001909190803590602001908201803590602001908080602002602001604051908101604052809392919081815260200183836020028082843782019150505050505091905050610a16565b005b341561028e57600080fd5b6102e6600480803573ffffffffffffffffffffffffffffffffffffffff1690602001909190803573ffffffffffffffffffffffffffffffffffffffff1690602001909190803560001916906020019091905050610aba565b604051808215151515815260200191505060405180910390f35b341561030b57600080fd5b61032e600480803560001916906020019091908035906020019091905050610afc565b604051808460ff1660ff1681526020018360ff1660ff168152602001827dffffffffffffffffffffffffffffffffffffffffffffffffffffffffffff167dffffffffffffffffffffffffffffffffffffffffffffffffffffffffffff168152602001935050505060405180910390f35b34156103a957600080fd5b6103b1610b83565b60405180826000191660001916815260200191505060405180910390f35b34156103da57600080fd5b6103e2610b89565b6040518082815260200191505060405180910390f35b341561040357600080fd5b61040b610b93565b60405180826000191660001916815260200191505060405180910390f35b341561043457600080fd5b61048c600480803573ffffffffffffffffffffffffffffffffffffffff1690602001909190803573ffffffffffffffffffffffffffffffffffffffff1690602001909190803560001916906020019091905050610c2e565b005b341561049957600080fd5b610512600480803573ffffffffffffffffffffffffffffffffffffffff169060200190919080356000191690602001909190803590602001908201803590602001908080602002602001604051908101604052809392919081815260200183836020028082843782019150505050505091905050610ca0565b604051808215151515815260200191505060405180910390f35b341561053757600080fd5b61058f600480803573ffffffffffffffffffffffffffffffffffffffff1690602001909190803573ffffffffffffffffffffffffffffffffffffffff1690602001909190803560001916906020019091905050610ea0565b005b341561059c57600080fd5b6105d5600480803573ffffffffffffffffffffffffffffffffffffffff1690602001909190803560001916906020019091905050610ef7565b604051808273ffffffffffffffffffffffffffffffffffffffff1673ffffffffffffffffffffffffffffffffffffffff16815260200191505060405180910390f35b341561062257600080fd5b610699600480803573ffffffffffffffffffffffffffffffffffffffff1690602001909190803573ffffffffffffffffffffffffffffffffffffffff169060200190919080356000191690602001909190803573ffffffffffffffffffffffffffffffffffffffff16906020019091905050610f46565b005b34156106a657600080fd5b6106d2600480803573ffffffffffffffffffffffffffffffffffffffff16906020019091905050610fa3565b005b34156106df57600080fd5b6106e761105b565b60405180826000191660001916815260200191505060405180910390f35b341561071057600080fd5b610718611075565b604051808273ffffffffffffffffffffffffffffffffffffffff1673ffffffffffffffffffffffffffffffffffffffff16815260200191505060405180910390f35b341561076557600080fd5b6107fd600480803573ffffffffffffffffffffffffffffffffffffffff1690602001909190803573ffffffffffffffffffffffffffffffffffffffff16906020019091908035600019169060200190919080359060200190820180359060200190808060200260200160405190810160405280939291908181526020018383602002808284378201915050505050509190505061109a565b604051808215151515815260200191505060405180910390f35b341561082257600080fd5b610872600480803590602001908201803590602001908080601f016020809104026020016040519081016040528093929190818152602001838380828437820191505050505050919050506111a4565b604051808273ffffffffffffffffffffffffffffffffffffffff1673ffffffffffffffffffffffffffffffffffffffff16815260200191505060405180910390f35b34156108bf57600080fd5b61095a600480803573ffffffffffffffffffffffffffffffffffffffff1690602001909190803573ffffffffffffffffffffffffffffffffffffffff169060200190919080356000191690602001909190803590602001908201803590602001908080601f016020809104026020016040519081016040528093929190818152602001838380828437820191505050505050919050506112ab565b604051808215151515815260200191505060405180910390f35b61099f83838360006040518059106109895750595b9080825280602002602001820160405250610a16565b505050565b60405180807f4352454154455f5045524d495353494f4e535f524f4c450000000000000000008152506017019050604051809103902081565b60405180807f65766d7265672e617261676f6e706d2e657468000000000000000000000000008152506013019050604051809103902081565b60008383610a248282610ef7565b73ffffffffffffffffffffffffffffffffffffffff163373ffffffffffffffffffffffffffffffffffffffff16141515610a5d57600080fd5b610a68878787610aba565b151515610a7457600080fd5b6000845111610a99576000604051808281526020019150506040518091039020610aa3565b610aa2846112e5565b5b9250610ab1878787866114c1565b50505050505050565b6000610ac4612171565b6000604051805910610ad35750595b90808252806020026020018201604052509050610af28585858461109a565b9150509392505050565b606560205281600052604060002081815481101515610b1757fe5b9060005260206000209001600091509150508060000160009054906101000a900460ff16908060000160019054906101000a900460ff16908060000160029054906101000a90047dffffffffffffffffffffffffffffffffffffffffffffffffffffffffffff16905083565b60015481565b6000600354905090565b60405180807f61707000000000000000000000000000000000000000000000000000000000008152506003019050604051809103902060405180807f65766d7265672e617261676f6e706d2e6574680000000000000000000000000081525060130190506040518091039020604051808360001916600019168152602001826000191660001916815260200192505050604051809103902081565b8181610c3a8282610ef7565b73ffffffffffffffffffffffffffffffffffffffff163373ffffffffffffffffffffffffffffffffffffffff16141515610c7357600080fd5b610c7e858585610aba565b1515610c8957600080fd5b610c9985858560006001026114c1565b5050505050565b6000610caa612185565b60008084511115610cc357602084510290508391508082525b60008060009054906101000a900473ffffffffffffffffffffffffffffffffffffffff1673ffffffffffffffffffffffffffffffffffffffff161480610e9557506000809054906101000a900473ffffffffffffffffffffffffffffffffffffffff1673ffffffffffffffffffffffffffffffffffffffff1663fdef9106873088866000604051602001526040518563ffffffff167c0100000000000000000000000000000000000000000000000000000000028152600401808573ffffffffffffffffffffffffffffffffffffffff1673ffffffffffffffffffffffffffffffffffffffff1681526020018473ffffffffffffffffffffffffffffffffffffffff1673ffffffffffffffffffffffffffffffffffffffff168152602001836000191660001916815260200180602001828103825283818151815260200191508051906020019080838360005b83811015610e2b578082015181840152602081019050610e10565b50505050905090810190601f168015610e585780820380516001836020036101000a031916815260200191505b5095505050505050602060405180830381600087803b1515610e7957600080fd5b6102c65a03f11515610e8a57600080fd5b505050604051805190505b925050509392505050565b8181610eac8282610ef7565b73ffffffffffffffffffffffffffffffffffffffff163373ffffffffffffffffffffffffffffffffffffffff16141515610ee557600080fd5b610ef0858585611572565b5050505050565b600060666000610f078585611639565b6000191660001916815260200190815260200160002060009054906101000a900473ffffffffffffffffffffffffffffffffffffffff16905092915050565b610f86333060405180807f4352454154455f5045524d495353494f4e535f524f4c4500000000000000000081525060170190506040518091039020610aba565b1515610f9157600080fd5b610f9d848484846116ad565b50505050565b6000600354141515610fb457600080fd5b610fbc611724565b6000809054906101000a900473ffffffffffffffffffffffffffffffffffffffff1673ffffffffffffffffffffffffffffffffffffffff163373ffffffffffffffffffffffffffffffffffffffff1614151561101757600080fd5b611058813060405180807f4352454154455f5045524d495353494f4e535f524f4c4500000000000000000081525060170190506040518091039020846116ad565b50565b600060405180828152602001915050604051809103902081565b6000809054906101000a900473ffffffffffffffffffffffffffffffffffffffff1681565b6000806000606460006110ae898989611745565b600019166000191681526020019081526020016000205491506000600102600019168260001916141580156110ec57506110eb82888888886117fd565b5b156110fa576001925061119a565b606460006111297fffffffffffffffffffffffffffffffffffffffffffffffffffffffffffffffff8989611745565b600019166000191681526020019081526020016000205490506000600102600019168160001916141580156111875750611186817fffffffffffffffffffffffffffffffffffffffffffffffffffffffffffffffff8888886117fd565b5b15611195576001925061119a565b600092505b5050949350505050565b60006111ae611848565b73ffffffffffffffffffffffffffffffffffffffff166304bf2a7f836000604051602001526040518263ffffffff167c01000000000000000000000000000000000000000000000000000000000281526004018080602001828103825283818151815260200191508051906020019080838360005b8381101561123e578082015181840152602081019050611223565b50505050905090810190601f16801561126b5780820380516001836020036101000a031916815260200191505b5092505050602060405180830381600087803b151561128957600080fd5b6102c65a03f1151561129a57600080fd5b505050604051805190509050919050565b60006112b5612171565b6000602084518115156112c457fe5b0490508391508082526112d98787878561109a565b92505050949350505050565b60008060008060006112f5612199565b8660405180828051906020019060200280838360005b8381101561132657808201518184015260208101905061130b565b505050509050019150506040518091039020945060656000866000191660001916815260200190815260200160002093506000848054905014156114b457600092505b86518310156114b357868381518110151561138057fe5b9060200190602002015191506060604051908101604052806113a1846119a6565b60ff1681526020016113b2846119b8565b60ff168152602001837dffffffffffffffffffffffffffffffffffffffffffffffffffffffffffff1681525090508380548060010182816113f391906121e1565b9160005260206000209001600083909190915060008201518160000160006101000a81548160ff021916908360ff16021790555060208201518160000160016101000a81548160ff021916908360ff16021790555060408201518160000160026101000a8154817dffffffffffffffffffffffffffffffffffffffffffffffffffffffffffff02191690837dffffffffffffffffffffffffffffffffffffffffffffffffffffffffffff1602179055505050508280600101935050611369565b5b8495505050505050919050565b80606460006114d1878787611745565b60001916600019168152602001908152602001600020816000191690555081600019168373ffffffffffffffffffffffffffffffffffffffff168573ffffffffffffffffffffffffffffffffffffffff167f759b9a74d5354b5801710a0c1b283cc9f0d32b607ac8ced10c83ac8e75c77d5260006001026000191685600019161415604051808215151515815260200191505060405180910390a450505050565b82606660006115818585611639565b6000191660001916815260200190815260200160002060006101000a81548173ffffffffffffffffffffffffffffffffffffffff021916908373ffffffffffffffffffffffffffffffffffffffff1602179055508273ffffffffffffffffffffffffffffffffffffffff1681600019168373ffffffffffffffffffffffffffffffffffffffff167ff3addc8b8e25ee11528a61b0e65092cae0666ef0ec0c64cb303993c88d689b4d60405160405180910390a4505050565b600060018383604051808481526020018373ffffffffffffffffffffffffffffffffffffffff1673ffffffffffffffffffffffffffffffffffffffff166c01000000000000000000000000028152601401826000191660001916815260200193505050506040518091039020905092915050565b600073ffffffffffffffffffffffffffffffffffffffff166116cf8484610ef7565b73ffffffffffffffffffffffffffffffffffffffff161415156116f157600080fd5b61171384848460006040518082815260200191505060405180910390206114c1565b61171e818484611572565b50505050565b600060035414151561173557600080fd5b61173d6119ca565b600381905550565b60006002848484604051808581526020018473ffffffffffffffffffffffffffffffffffffffff1673ffffffffffffffffffffffffffffffffffffffff166c010000000000000000000000000281526014018373ffffffffffffffffffffffffffffffffffffffff1673ffffffffffffffffffffffffffffffffffffffff166c010000000000000000000000000281526014018260001916600019168152602001945050505050604051809103902090509392505050565b600080604051808281526020019150506040518091039020600019168660001916141561182d576001905061183f565b61183c866000878787876119d2565b90505b95945050505050565b6000806000809054906101000a900473ffffffffffffffffffffffffffffffffffffffff1673ffffffffffffffffffffffffffffffffffffffff166342c71f1d60405180807f61707000000000000000000000000000000000000000000000000000000000008152506003019050604051809103902060405180807f65766d7265672e617261676f6e706d2e657468000000000000000000000000008152506013019050604051809103902060405180836000191660001916815260200182600019166000191681526020019250505060405180910390206000604051602001526040518263ffffffff167c0100000000000000000000000000000000000000000000000000000000028152600401808260001916600019168152602001915050602060405180830381600087803b151561198257600080fd5b6102c65a03f1151561199357600080fd5b5050506040518051905090508091505090565b600060f8829060020a90049050919050565b600060f0829060020a90049050919050565b600043905090565b60006119dc612199565b600080606560008b60001916600019168152602001908152602001600020805490508963ffffffff16101515611a155760009350611e07565b606560008b600019166000191681526020019081526020016000208963ffffffff16815481101515611a4357fe5b9060005260206000209001606060405190810160405290816000820160009054906101000a900460ff1660ff1660ff1681526020016000820160019054906101000a900460ff1660ff1660ff1681526020016000820160029054906101000a90047dffffffffffffffffffffffffffffffffffffffffffffffffffffffffffff167dffffffffffffffffffffffffffffffffffffffffffffffffffffffffffff167dffffffffffffffffffffffffffffffffffffffffffffffffffffffffffff1681525050925060cc60ff16836000015160ff161415611b3257611b2b838b8a8a8a8a611e14565b9350611e07565b82604001517dffffffffffffffffffffffffffffffffffffffffffffffffffffffffffff16905060cb60ff16836000015160ff161415611c8e57826040015173ffffffffffffffffffffffffffffffffffffffff16631a2b62508989896000604051602001526040518463ffffffff167c0100000000000000000000000000000000000000000000000000000000028152600401808473ffffffffffffffffffffffffffffffffffffffff1673ffffffffffffffffffffffffffffffffffffffff1681526020018373ffffffffffffffffffffffffffffffffffffffff1673ffffffffffffffffffffffffffffffffffffffff16815260200182600019166000191681526020019350505050602060405180830381600087803b1515611c5757600080fd5b6102c65a03f11515611c6857600080fd5b50505060405180519050611c7d576000611c80565b60015b60ff16915060019050611dac565b60c860ff16836000015160ff161415611cb057611ca9612035565b9150611dab565b60c960ff16836000015160ff161415611cdc57611ccb61203d565b67ffffffffffffffff169150611daa565b60ca60ff16836000015160ff161415611d0d573373ffffffffffffffffffffffffffffffffffffffff169150611da9565b60cd60ff16836000015160ff161415611d4c5782604001517dffffffffffffffffffffffffffffffffffffffffffffffffffffffffffff169150611da8565b8451836000015160ff16101515611d665760009350611e07565b84836000015160ff16815181101515611d7b57fe5b906020019060200201517dffffffffffffffffffffffffffffffffffffffffffffffffffffffffffff1691505b5b5b5b5b600c80811115611db857fe5b836020015160ff16600c811115611dcb57fe5b600c811115611dd657fe5b1415611de757600082119350611e07565b611e0482846020015160ff16600c811115611dfe57fe5b83612045565b93505b5050509695505050505050565b6000806000806000806000806000600b600c811115611e2f57fe5b8f6020015160ff16600c811115611e4257fe5b600c811115611e4d57fe5b1415611eb757611e808f604001517dffffffffffffffffffffffffffffffffffffffffffffffffffffffffffff1661214c565b975097509750611e948e898f8f8f8f6119d2565b9450611eb08e86611ea55787611ea7565b885b8f8f8f8f6119d2565b9850612023565b611ee48f604001517dffffffffffffffffffffffffffffffffffffffffffffffffffffffffffff1661214c565b5093509350611ef78e858f8f8f8f6119d2565b91506007600c811115611f0657fe5b8f6020015160ff16600c811115611f1957fe5b600c811115611f2457fe5b1415611f335781159850612023565b818015611f6857506009600c811115611f4857fe5b8f6020015160ff16600c811115611f5b57fe5b600c811115611f6657fe5b145b15611f765760019850612023565b81158015611fac57506008600c811115611f8c57fe5b8f6020015160ff16600c811115611f9f57fe5b600c811115611faa57fe5b145b15611fba5760009850612023565b611fc88e848f8f8f8f6119d2565b9050600a600c811115611fd757fe5b8f6020015160ff16600c811115611fea57fe5b600c811115611ff557fe5b141561201f57818015612006575080155b806120185750811580156120175750805b5b9850612023565b8098505b50505050505050509695505050505050565b600043905090565b600042905090565b60006001600c81111561205457fe5b83600c81111561206057fe5b1415612070578184149050612145565b6002600c81111561207d57fe5b83600c81111561208957fe5b141561209a57818414159050612145565b6003600c8111156120a757fe5b83600c8111156120b357fe5b14156120c3578184119050612145565b6004600c8111156120d057fe5b83600c8111156120dc57fe5b14156120ec578184109050612145565b6005600c8111156120f957fe5b83600c81111561210557fe5b141561211657818410159050612145565b6006600c81111561212357fe5b83600c81111561212f57fe5b141561214057818411159050612145565b600090505b9392505050565b60008060008392506020849060020a900491506040849060020a900490509193909250565b602060405190810160405280600081525090565b602060405190810160405280600081525090565b606060405190810160405280600060ff168152602001600060ff16815260200160007dffffffffffffffffffffffffffffffffffffffffffffffffffffffffffff1681525090565b81548183558181151161220857818360005260206000209182019101612207919061220d565b5b505050565b61228291905b8082111561227e57600080820160006101000a81549060ff02191690556000820160016101000a81549060ff02191690556000820160026101000a8154907dffffffffffffffffffffffffffffffffffffffffffffffffffffffffffff021916905550600101612213565b5090565b905600a165627a7a7230582076ebcd72497e9f7086bc94c06aa1ebbe8f10a10f69bc488632c557d1d822c4860029",
  "source": "pragma solidity ^0.4.18;\n\nimport \"../apps/AragonApp.sol\";\nimport \"./ACLSyntaxSugar.sol\";\nimport \"./IACL.sol\";\n\n\ninterface ACLOracle {\n    function canPerform(address who, address where, bytes32 what) public view returns (bool);\n}\n\n\ncontract ACL is IACL, AragonApp, ACLHelpers {\n    bytes32 constant public CREATE_PERMISSIONS_ROLE = keccak256(\"CREATE_PERMISSIONS_ROLE\");\n\n    // whether a certain entity has a permission\n    mapping (bytes32 => bytes32) permissions; // 0 for no permission, or parameters id\n    mapping (bytes32 => Param[]) public permissionParams;\n\n    // who is the manager of a permission\n    mapping (bytes32 => address) permissionManager;\n\n    enum Op { NONE, EQ, NEQ, GT, LT, GTE, LTE, NOT, AND, OR, XOR, IF_ELSE, RET } // op types\n\n    struct Param {\n        uint8 id;\n        uint8 op;\n        uint240 value; // even though value is an uint240 it can store addresses\n        // in the case of 32 byte hashes losing 2 bytes precision isn't a huge deal\n        // op and id take less than 1 byte each so it can be kept in 1 sstore\n    }\n\n    uint8 constant BLOCK_NUMBER_PARAM_ID = 200;\n    uint8 constant TIMESTAMP_PARAM_ID    = 201;\n    uint8 constant SENDER_PARAM_ID       = 202;\n    uint8 constant ORACLE_PARAM_ID       = 203;\n    uint8 constant LOGIC_OP_PARAM_ID     = 204;\n    uint8 constant PARAM_VALUE_PARAM_ID  = 205;\n    // TODO: Add execution times param type?\n\n    bytes32 constant public EMPTY_PARAM_HASH = keccak256(uint256(0));\n    address constant ANY_ENTITY = address(-1);\n\n    modifier onlyPermissionManager(address _app, bytes32 _role) {\n        require(msg.sender == getPermissionManager(_app, _role));\n        _;\n    }\n\n    event SetPermission(address indexed entity, address indexed app, bytes32 indexed role, bool allowed);\n    event ChangePermissionManager(address indexed app, bytes32 indexed role, address indexed manager);\n\n    /**\n    * @dev Initialize can only be called once. It saves the block number in which it was initialized.\n    * @notice Initializes an ACL instance and sets `_permissionsCreator` as the entity that can create other permissions\n    * @param _permissionsCreator Entity that will be given permission over createPermission\n    */\n    function initialize(address _permissionsCreator) onlyInit public {\n        initialized();\n        require(msg.sender == address(kernel));\n\n        _createPermission(_permissionsCreator, this, CREATE_PERMISSIONS_ROLE, _permissionsCreator);\n    }\n\n    /**\n    * @dev Creates a permission that wasn't previously set. Access is limited by the ACL.\n    *      If a created permission is removed it is possible to reset it with createPermission.\n    * @notice Create a new permission granting `_entity` the ability to perform actions of role `_role` on `_app` (setting `_manager` as the permission manager)\n    * @param _entity Address of the whitelisted entity that will be able to perform the role\n    * @param _app Address of the app in which the role will be allowed (requires app to depend on kernel for ACL)\n    * @param _role Identifier for the group of actions in app given access to perform\n    * @param _manager Address of the entity that will be able to grant and revoke the permission further.\n    */\n    function createPermission(address _entity, address _app, bytes32 _role, address _manager) external {\n        require(hasPermission(msg.sender, address(this), CREATE_PERMISSIONS_ROLE));\n\n        _createPermission(_entity, _app, _role, _manager);\n    }\n\n    /**\n    * @dev Grants permission if allowed. This requires `msg.sender` to be the permission manager\n    * @notice Grants `_entity` the ability to perform actions of role `_role` on `_app`\n    * @param _entity Address of the whitelisted entity that will be able to perform the role\n    * @param _app Address of the app in which the role will be allowed (requires app to depend on kernel for ACL)\n    * @param _role Identifier for the group of actions in app given access to perform\n    */\n    function grantPermission(address _entity, address _app, bytes32 _role)\n        external\n    {\n        grantPermissionP(_entity, _app, _role, new uint256[](0));\n    }\n\n    /**\n    * @dev Grants a permission with parameters if allowed. This requires `msg.sender` to be the permission manager\n    * @notice Grants `_entity` the ability to perform actions of role `_role` on `_app`\n    * @param _entity Address of the whitelisted entity that will be able to perform the role\n    * @param _app Address of the app in which the role will be allowed (requires app to depend on kernel for ACL)\n    * @param _role Identifier for the group of actions in app given access to perform\n    * @param _params Permission parameters\n    */\n    function grantPermissionP(address _entity, address _app, bytes32 _role, uint256[] _params)\n        onlyPermissionManager(_app, _role)\n        public\n    {\n        require(!hasPermission(_entity, _app, _role));\n\n        bytes32 paramsHash = _params.length > 0 ? _saveParams(_params) : EMPTY_PARAM_HASH;\n        _setPermission(_entity, _app, _role, paramsHash);\n    }\n\n    /**\n    * @dev Revokes permission if allowed. This requires `msg.sender` to be the the permission manager\n    * @notice Revokes `_entity` the ability to perform actions of role `_role` on `_app`\n    * @param _entity Address of the whitelisted entity to revoke access from\n    * @param _app Address of the app in which the role will be revoked\n    * @param _role Identifier for the group of actions in app being revoked\n    */\n    function revokePermission(address _entity, address _app, bytes32 _role)\n        onlyPermissionManager(_app, _role)\n        external\n    {\n        require(hasPermission(_entity, _app, _role));\n\n        _setPermission(_entity, _app, _role, bytes32(0));\n    }\n\n    /**\n    * @notice Sets `_newManager` as the manager of the permission `_role` in `_app`\n    * @param _newManager Address for the new manager\n    * @param _app Address of the app in which the permission management is being transferred\n    * @param _role Identifier for the group of actions being transferred\n    */\n    function setPermissionManager(address _newManager, address _app, bytes32 _role)\n        onlyPermissionManager(_app, _role)\n        external\n    {\n        _setPermissionManager(_newManager, _app, _role);\n    }\n\n    /**\n    * @dev Get manager for permission\n    * @param _app Address of the app\n    * @param _role Identifier for a group of actions in app\n    * @return address of the manager for the permission\n    */\n    function getPermissionManager(address _app, bytes32 _role) public view returns (address) {\n        return permissionManager[roleHash(_app, _role)];\n    }\n\n    /**\n    * @dev Function called by apps to check ACL on kernel or to check permission statu\n    * @param _who Sender of the original call\n    * @param _where Address of the app\n    * @param _where Identifier for a group of actions in app\n    * @param _how Permission parameters\n    * @return boolean indicating whether the ACL allows the role or not\n    */\n    function hasPermission(address _who, address _where, bytes32 _what, bytes memory _how) public view returns (bool) {\n        uint256[] memory how;\n        uint256 intsLength = _how.length / 32;\n        assembly {\n            how := _how // forced casting\n            mstore(how, intsLength)\n        }\n        // _how is invalid from this point fwd\n        return hasPermission(_who, _where, _what, how);\n    }\n\n    function hasPermission(address _who, address _where, bytes32 _what, uint256[] memory _how) public view returns (bool) {\n        bytes32 whoParams = permissions[permissionHash(_who, _where, _what)];\n        if (whoParams != bytes32(0) && evalParams(whoParams, _who, _where, _what, _how)) {\n            return true;\n        }\n\n        bytes32 anyParams = permissions[permissionHash(ANY_ENTITY, _where, _what)];\n        if (anyParams != bytes32(0) && evalParams(anyParams, ANY_ENTITY, _where, _what, _how)) {\n            return true;\n        }\n\n        return false;\n    }\n\n    function hasPermission(address _who, address _where, bytes32 _what) public view returns (bool) {\n        uint256[] memory empty = new uint256[](0);\n        return hasPermission(_who, _where, _what, empty);\n    }\n\n    /**\n    * @dev Internal createPermission for access inside the kernel (on instantiation)\n    */\n    function _createPermission(address _entity, address _app, bytes32 _role, address _manager) internal {\n        // only allow permission creation (or re-creation) when there is no manager\n        require(getPermissionManager(_app, _role) == address(0));\n\n        _setPermission(_entity, _app, _role, EMPTY_PARAM_HASH);\n        _setPermissionManager(_manager, _app, _role);\n    }\n\n    /**\n    * @dev Internal function called to actually save the permission\n    */\n    function _setPermission(address _entity, address _app, bytes32 _role, bytes32 _paramsHash) internal {\n        permissions[permissionHash(_entity, _app, _role)] = _paramsHash;\n\n        SetPermission(_entity, _app, _role, _paramsHash != bytes32(0));\n    }\n\n    function _saveParams(uint256[] _encodedParams) internal returns (bytes32) {\n        bytes32 paramHash = keccak256(_encodedParams);\n        Param[] storage params = permissionParams[paramHash];\n\n        if (params.length == 0) { // params not saved before\n            for (uint256 i = 0; i < _encodedParams.length; i++) {\n                uint256 encodedParam = _encodedParams[i];\n                Param memory param = Param(decodeParamId(encodedParam), decodeParamOp(encodedParam), uint240(encodedParam));\n                params.push(param);\n            }\n        }\n\n        return paramHash;\n    }\n\n    function evalParams(\n        bytes32 _paramsHash,\n        address _who,\n        address _where,\n        bytes32 _what,\n        uint256[] _how\n    ) internal view returns (bool)\n    {\n        if (_paramsHash == EMPTY_PARAM_HASH) {\n            return true;\n        }\n\n        return evalParam(_paramsHash, 0, _who, _where, _what, _how);\n    }\n\n    function evalParam(\n        bytes32 _paramsHash,\n        uint32 _paramId,\n        address _who,\n        address _where,\n        bytes32 _what,\n        uint256[] _how\n    ) internal view returns (bool)\n    {\n        if (_paramId >= permissionParams[_paramsHash].length) {\n            return false; // out of bounds\n        }\n\n        Param memory param = permissionParams[_paramsHash][_paramId];\n\n        if (param.id == LOGIC_OP_PARAM_ID) {\n            return evalLogic(param, _paramsHash, _who, _where, _what, _how);\n        }\n\n        uint256 value;\n        uint256 comparedTo = uint256(param.value);\n\n        // get value\n        if (param.id == ORACLE_PARAM_ID) {\n            value = ACLOracle(param.value).canPerform(_who, _where, _what) ? 1 : 0;\n            comparedTo = 1;\n        } else if (param.id == BLOCK_NUMBER_PARAM_ID) {\n            value = blockN();\n        } else if (param.id == TIMESTAMP_PARAM_ID) {\n            value = time();\n        } else if (param.id == SENDER_PARAM_ID) {\n            value = uint256(msg.sender);\n        } else if (param.id == PARAM_VALUE_PARAM_ID) {\n            value = uint256(param.value);\n        } else {\n            if (param.id >= _how.length) {\n                return false;\n            }\n            value = uint256(uint240(_how[param.id])); // force lost precision\n        }\n\n        if (Op(param.op) == Op.RET) {\n            return uint256(value) > 0;\n        }\n\n        return compare(value, Op(param.op), comparedTo);\n    }\n\n    function evalLogic(Param _param, bytes32 _paramsHash, address _who, address _where, bytes32 _what, uint256[] _how) internal view returns (bool) {\n        if (Op(_param.op) == Op.IF_ELSE) {\n            var (condition, success, failure) = decodeParamsList(uint256(_param.value));\n            bool result = evalParam(_paramsHash, condition, _who, _where, _what, _how);\n\n            return evalParam(_paramsHash, result ? success : failure, _who, _where, _what, _how);\n        }\n\n        var (v1, v2,) = decodeParamsList(uint256(_param.value));\n        bool r1 = evalParam(_paramsHash, v1, _who, _where, _what, _how);\n\n        if (Op(_param.op) == Op.NOT) {\n            return !r1;\n        }\n\n        if (r1 && Op(_param.op) == Op.OR) {\n            return true;\n        }\n\n        if (!r1 && Op(_param.op) == Op.AND) {\n            return false;\n        }\n\n        bool r2 = evalParam(_paramsHash, v2, _who, _where, _what, _how);\n\n        if (Op(_param.op) == Op.XOR) {\n            return (r1 && !r2) || (!r1 && r2);\n        }\n\n        return r2; // both or and and depend on result of r2 after checks\n    }\n\n    function compare(uint256 _a, Op _op, uint256 _b) internal pure returns (bool) {\n        if (_op == Op.EQ)  return _a == _b;                              // solium-disable-line lbrace\n        if (_op == Op.NEQ) return _a != _b;                              // solium-disable-line lbrace\n        if (_op == Op.GT)  return _a > _b;                               // solium-disable-line lbrace\n        if (_op == Op.LT)  return _a < _b;                               // solium-disable-line lbrace\n        if (_op == Op.GTE) return _a >= _b;                              // solium-disable-line lbrace\n        if (_op == Op.LTE) return _a <= _b;                              // solium-disable-line lbrace\n        return false;\n    }\n\n    /**\n    * @dev Internal function that sets management\n    */\n    function _setPermissionManager(address _newManager, address _app, bytes32 _role) internal {\n        permissionManager[roleHash(_app, _role)] = _newManager;\n        ChangePermissionManager(_app, _role, _newManager);\n    }\n\n    function roleHash(address _where, bytes32 _what) pure internal returns (bytes32) {\n        return keccak256(uint256(1), _where, _what);\n    }\n\n    function permissionHash(address _who, address _where, bytes32 _what) pure internal returns (bytes32) {\n        return keccak256(uint256(2), _who, _where, _what);\n    }\n\n    function time() internal view returns (uint64) { return uint64(block.timestamp); } // solium-disable-line security/no-block-members\n\n    function blockN() internal view returns (uint256) { return block.number; }\n}\n",
  "sourcePath": "/Users/osarrouy/Documents/Devs/dapps/@wespr/swarm/contracts/acl/ACL.sol",
  "compiler": {
    "name": "solc",
    "version": "0.4.19+commit.c4cbbb05.Emscripten.clang"
  },
  "schemaVersion": "1.0.1",
  "updatedAt": "2018-02-24T12:52:45.172Z"
}