{
  "contractName": "AppStorage",
  "abi": [
    {
      "constant": true,
      "inputs": [],
      "name": "appId",
      "outputs": [
        {
          "name": "",
          "type": "bytes32"
        }
      ],
      "payable": false,
      "stateMutability": "view",
      "type": "function"
    },
    {
      "constant": true,
      "inputs": [],
      "name": "kernel",
      "outputs": [
        {
          "name": "",
          "type": "address"
        }
      ],
      "payable": false,
      "stateMutability": "view",
      "type": "function"
    }
  ],
  "bytecode": "0x6060604052341561000f57600080fd5b6101258061001e6000396000f3006060604052600436106049576000357c0100000000000000000000000000000000000000000000000000000000900463ffffffff16806380afdea814604e578063d4aae0c414607c575b600080fd5b3415605857600080fd5b605e60ce565b60405180826000191660001916815260200191505060405180910390f35b3415608657600080fd5b608c60d4565b604051808273ffffffffffffffffffffffffffffffffffffffff1673ffffffffffffffffffffffffffffffffffffffff16815260200191505060405180910390f35b60015481565b6000809054906101000a900473ffffffffffffffffffffffffffffffffffffffff16815600a165627a7a72305820bc80a030cf7dd82658d7760f70e0b4bc25bb1809f1c5fa67198a847ec7660c860029",
  "source": "pragma solidity ^0.4.18;\n\nimport \"../kernel/IKernel.sol\";\n\n\ncontract AppStorage {\n    IKernel public kernel;\n    bytes32 public appId;\n    address internal pinnedCode; // used by Proxy Pinned\n    uint256 internal initializationBlock; // used by Initializable\n    uint256[95] private storageOffset; // forces App storage to start at after 100 slots\n    uint256 private offset;\n}\n",
  "sourcePath": "/Users/osarrouy/Documents/Devs/dapps/@wespr/swarm/contracts/apps/AppStorage.sol",
  "compiler": {
    "name": "solc",
    "version": "0.4.19+commit.c4cbbb05.Emscripten.clang"
  },
  "schemaVersion": "1.0.1",
  "updatedAt": "2018-03-01T11:33:06.429Z"
}