{
  "contractName": "EVMScriptRegistryFactory",
  "abi": [
    {
      "constant": true,
      "inputs": [],
      "name": "baseReg",
      "outputs": [
        {
          "name": "",
          "type": "address"
        }
      ],
      "payable": false,
      "stateMutability": "view",
      "type": "function"
    },
    {
      "constant": true,
      "inputs": [],
      "name": "baseDeployDel",
      "outputs": [
        {
          "name": "",
          "type": "address"
        }
      ],
      "payable": false,
      "stateMutability": "view",
      "type": "function"
    },
    {
      "constant": true,
      "inputs": [],
      "name": "EVMSCRIPT_REGISTRY_APP_ID",
      "outputs": [
        {
          "name": "",
          "type": "bytes32"
        }
      ],
      "payable": false,
      "stateMutability": "view",
      "type": "function"
    },
    {
      "constant": true,
      "inputs": [],
      "name": "EVMSCRIPT_REGISTRY_APP",
      "outputs": [
        {
          "name": "",
          "type": "bytes32"
        }
      ],
      "payable": false,
      "stateMutability": "view",
      "type": "function"
    },
    {
      "constant": true,
      "inputs": [],
      "name": "baseCalls",
      "outputs": [
        {
          "name": "",
          "type": "address"
        }
      ],
      "payable": false,
      "stateMutability": "view",
      "type": "function"
    },
    {
      "constant": false,
      "inputs": [
        {
          "name": "_kernel",
          "type": "address"
        },
        {
          "name": "_appId",
          "type": "bytes32"
        },
        {
          "name": "_initializePayload",
          "type": "bytes"
        }
      ],
      "name": "newAppProxyPinned",
      "outputs": [
        {
          "name": "",
          "type": "address"
        }
      ],
      "payable": false,
      "stateMutability": "nonpayable",
      "type": "function"
    },
    {
      "constant": false,
      "inputs": [
        {
          "name": "_kernel",
          "type": "address"
        },
        {
          "name": "_appId",
          "type": "bytes32"
        }
      ],
      "name": "newAppProxy",
      "outputs": [
        {
          "name": "",
          "type": "address"
        }
      ],
      "payable": false,
      "stateMutability": "nonpayable",
      "type": "function"
    },
    {
      "constant": true,
      "inputs": [],
      "name": "baseDel",
      "outputs": [
        {
          "name": "",
          "type": "address"
        }
      ],
      "payable": false,
      "stateMutability": "view",
      "type": "function"
    },
    {
      "constant": false,
      "inputs": [
        {
          "name": "_kernel",
          "type": "address"
        },
        {
          "name": "_appId",
          "type": "bytes32"
        },
        {
          "name": "_initializePayload",
          "type": "bytes"
        }
      ],
      "name": "newAppProxy",
      "outputs": [
        {
          "name": "",
          "type": "address"
        }
      ],
      "payable": false,
      "stateMutability": "nonpayable",
      "type": "function"
    },
    {
      "constant": false,
      "inputs": [
        {
          "name": "_kernel",
          "type": "address"
        },
        {
          "name": "_appId",
          "type": "bytes32"
        }
      ],
      "name": "newAppProxyPinned",
      "outputs": [
        {
          "name": "",
          "type": "address"
        }
      ],
      "payable": false,
      "stateMutability": "nonpayable",
      "type": "function"
    },
    {
      "inputs": [],
      "payable": false,
      "stateMutability": "nonpayable",
      "type": "constructor"
    },
    {
      "anonymous": false,
      "inputs": [
        {
          "indexed": false,
          "name": "proxy",
          "type": "address"
        }
      ],
      "name": "NewAppProxy",
      "type": "event"
    },
    {
      "constant": false,
      "inputs": [
        {
          "name": "_dao",
          "type": "address"
        },
        {
          "name": "_root",
          "type": "address"
        }
      ],
      "name": "newEVMScriptRegistry",
      "outputs": [
        {
          "name": "reg",
          "type": "address"
        }
      ],
      "payable": false,
      "stateMutability": "nonpayable",
      "type": "function"
    }
  ],
  "bytecode": "0x606060405234156200001057600080fd5b6200001a62000199565b604051809103906000f08015156200003157600080fd5b6000806101000a81548173ffffffffffffffffffffffffffffffffffffffff021916908373ffffffffffffffffffffffffffffffffffffffff1602179055506200007a620001aa565b604051809103906000f08015156200009157600080fd5b600160006101000a81548173ffffffffffffffffffffffffffffffffffffffff021916908373ffffffffffffffffffffffffffffffffffffffff160217905550620000db620001bb565b604051809103906000f0801515620000f257600080fd5b600260006101000a81548173ffffffffffffffffffffffffffffffffffffffff021916908373ffffffffffffffffffffffffffffffffffffffff1602179055506200013c620001cc565b604051809103906000f08015156200015357600080fd5b600360006101000a81548173ffffffffffffffffffffffffffffffffffffffff021916908373ffffffffffffffffffffffffffffffffffffffff160217905550620001dd565b604051610f238062002dda83390190565b60405161046e8062003cfd83390190565b6040516105c0806200416b83390190565b604051610663806200472b83390190565b612bed80620001ed6000396000f300606060405260043610620000bb576000357c0100000000000000000000000000000000000000000000000000000000900463ffffffff168063127d679c14620000c05780631b380940146200011857806360b1e0571462000170578063869abc2414620001a45780639b3fdf4c146200023f578063af9a21bc1462000273578063d162f8b014620002cb578063e156a8f31462000397578063e602e7121462000420578063ede658b01462000478578063ff289fc51462000544575b600080fd5b3415620000cc57600080fd5b620000d6620005cd565b604051808273ffffffffffffffffffffffffffffffffffffffff1673ffffffffffffffffffffffffffffffffffffffff16815260200191505060405180910390f35b34156200012457600080fd5b6200012e620005f2565b604051808273ffffffffffffffffffffffffffffffffffffffff1673ffffffffffffffffffffffffffffffffffffffff16815260200191505060405180910390f35b34156200017c57600080fd5b6200018662000618565b60405180826000191660001916815260200191505060405180910390f35b3415620001b057600080fd5b620001fd600480803573ffffffffffffffffffffffffffffffffffffffff1690602001909190803573ffffffffffffffffffffffffffffffffffffffff1690602001909190505062000651565b604051808273ffffffffffffffffffffffffffffffffffffffff1673ffffffffffffffffffffffffffffffffffffffff16815260200191505060405180910390f35b34156200024b57600080fd5b6200025562001179565b60405180826000191660001916815260200191505060405180910390f35b34156200027f57600080fd5b6200028962001214565b604051808273ffffffffffffffffffffffffffffffffffffffff1673ffffffffffffffffffffffffffffffffffffffff16815260200191505060405180910390f35b3415620002d757600080fd5b62000355600480803573ffffffffffffffffffffffffffffffffffffffff169060200190919080356000191690602001909190803590602001908201803590602001908080601f016020809104026020016040519081016040528093929190818152602001838380828437820191505050505050919050506200123a565b604051808273ffffffffffffffffffffffffffffffffffffffff1673ffffffffffffffffffffffffffffffffffffffff16815260200191505060405180910390f35b3415620003a357600080fd5b620003de600480803573ffffffffffffffffffffffffffffffffffffffff169060200190919080356000191690602001909190505062001385565b604051808273ffffffffffffffffffffffffffffffffffffffff1673ffffffffffffffffffffffffffffffffffffffff16815260200191505060405180910390f35b34156200042c57600080fd5b62000436620013c0565b604051808273ffffffffffffffffffffffffffffffffffffffff1673ffffffffffffffffffffffffffffffffffffffff16815260200191505060405180910390f35b34156200048457600080fd5b62000502600480803573ffffffffffffffffffffffffffffffffffffffff169060200190919080356000191690602001909190803590602001908201803590602001908080601f01602080910402602001604051908101604052809392919081815260200183838082843782019150505050505091905050620013e6565b604051808273ffffffffffffffffffffffffffffffffffffffff1673ffffffffffffffffffffffffffffffffffffffff16815260200191505060405180910390f35b34156200055057600080fd5b6200058b600480803573ffffffffffffffffffffffffffffffffffffffff169060200190919080356000191690602001909190505062001531565b604051808273ffffffffffffffffffffffffffffffffffffffff1673ffffffffffffffffffffffffffffffffffffffff16815260200191505060405180910390f35b6000809054906101000a900473ffffffffffffffffffffffffffffffffffffffff1681565b600360009054906101000a900473ffffffffffffffffffffffffffffffffffffffff1681565b60405180807f65766d7265672e617261676f6e706d2e657468000000000000000000000000008152506013019050604051809103902081565b6000808373ffffffffffffffffffffffffffffffffffffffff1663958fde8260405180807f65766d7265672e617261676f6e706d2e65746800000000000000000000000000815250601301905060405180910390206000809054906101000a900473ffffffffffffffffffffffffffffffffffffffff166000604051602001526040518363ffffffff167c01000000000000000000000000000000000000000000000000000000000281526004018083600019166000191681526020018273ffffffffffffffffffffffffffffffffffffffff1673ffffffffffffffffffffffffffffffffffffffff16815260200192505050602060405180830381600087803b15156200075e57600080fd5b6102c65a03f115156200077057600080fd5b5050506040518051905091508173ffffffffffffffffffffffffffffffffffffffff16638129fc1c6040518163ffffffff167c0100000000000000000000000000000000000000000000000000000000028152600401600060405180830381600087803b1515620007e057600080fd5b6102c65a03f11515620007f257600080fd5b5050508373ffffffffffffffffffffffffffffffffffffffff1663de2873596000604051602001526040518163ffffffff167c0100000000000000000000000000000000000000000000000000000000028152600401602060405180830381600087803b15156200086257600080fd5b6102c65a03f115156200087457600080fd5b5050506040518051905090508373ffffffffffffffffffffffffffffffffffffffff1663ae5b25408573ffffffffffffffffffffffffffffffffffffffff1663178e60796000604051602001526040518163ffffffff167c0100000000000000000000000000000000000000000000000000000000028152600401602060405180830381600087803b15156200090957600080fd5b6102c65a03f115156200091b57600080fd5b5050506040518051905060405180807f65766d7265672e617261676f6e706d2e6574680000000000000000000000000081525060130190506040518091039020856000604051602001526040518463ffffffff167c010000000000000000000000000000000000000000000000000000000002815260040180846000191660001916815260200183600019166000191681526020018273ffffffffffffffffffffffffffffffffffffffff1673ffffffffffffffffffffffffffffffffffffffff1681526020019350505050602060405180830381600087803b151562000a0157600080fd5b6102c65a03f1151562000a1357600080fd5b50505060405180519050508073ffffffffffffffffffffffffffffffffffffffff1663be03847830848573ffffffffffffffffffffffffffffffffffffffff1663bd8fde1c6000604051602001526040518163ffffffff167c0100000000000000000000000000000000000000000000000000000000028152600401602060405180830381600087803b151562000aa957600080fd5b6102c65a03f1151562000abb57600080fd5b50505060405180519050306040518563ffffffff167c0100000000000000000000000000000000000000000000000000000000028152600401808573ffffffffffffffffffffffffffffffffffffffff1673ffffffffffffffffffffffffffffffffffffffff1681526020018473ffffffffffffffffffffffffffffffffffffffff1673ffffffffffffffffffffffffffffffffffffffff16815260200183600019166000191681526020018273ffffffffffffffffffffffffffffffffffffffff1673ffffffffffffffffffffffffffffffffffffffff168152602001945050505050600060405180830381600087803b151562000bb957600080fd5b6102c65a03f1151562000bcb57600080fd5b5050508173ffffffffffffffffffffffffffffffffffffffff166387a16f12600160009054906101000a900473ffffffffffffffffffffffffffffffffffffffff166000604051602001526040518263ffffffff167c0100000000000000000000000000000000000000000000000000000000028152600401808273ffffffffffffffffffffffffffffffffffffffff1673ffffffffffffffffffffffffffffffffffffffff168152602001915050602060405180830381600087803b151562000c9457600080fd5b6102c65a03f1151562000ca657600080fd5b50505060405180519050508173ffffffffffffffffffffffffffffffffffffffff166387a16f12600260009054906101000a900473ffffffffffffffffffffffffffffffffffffffff166000604051602001526040518263ffffffff167c0100000000000000000000000000000000000000000000000000000000028152600401808273ffffffffffffffffffffffffffffffffffffffff1673ffffffffffffffffffffffffffffffffffffffff168152602001915050602060405180830381600087803b151562000d7757600080fd5b6102c65a03f1151562000d8957600080fd5b50505060405180519050508173ffffffffffffffffffffffffffffffffffffffff166387a16f12600360009054906101000a900473ffffffffffffffffffffffffffffffffffffffff166000604051602001526040518263ffffffff167c0100000000000000000000000000000000000000000000000000000000028152600401808273ffffffffffffffffffffffffffffffffffffffff1673ffffffffffffffffffffffffffffffffffffffff168152602001915050602060405180830381600087803b151562000e5a57600080fd5b6102c65a03f1151562000e6c57600080fd5b50505060405180519050508073ffffffffffffffffffffffffffffffffffffffff16639d0effdb30848573ffffffffffffffffffffffffffffffffffffffff1663bd8fde1c6000604051602001526040518163ffffffff167c0100000000000000000000000000000000000000000000000000000000028152600401602060405180830381600087803b151562000f0257600080fd5b6102c65a03f1151562000f1457600080fd5b505050604051805190506040518463ffffffff167c0100000000000000000000000000000000000000000000000000000000028152600401808473ffffffffffffffffffffffffffffffffffffffff1673ffffffffffffffffffffffffffffffffffffffff1681526020018373ffffffffffffffffffffffffffffffffffffffff1673ffffffffffffffffffffffffffffffffffffffff16815260200182600019166000191681526020019350505050600060405180830381600087803b151562000fde57600080fd5b6102c65a03f1151562000ff057600080fd5b5050508073ffffffffffffffffffffffffffffffffffffffff1663afd925df84848573ffffffffffffffffffffffffffffffffffffffff1663bd8fde1c6000604051602001526040518163ffffffff167c0100000000000000000000000000000000000000000000000000000000028152600401602060405180830381600087803b15156200107e57600080fd5b6102c65a03f115156200109057600080fd5b505050604051805190506040518463ffffffff167c0100000000000000000000000000000000000000000000000000000000028152600401808473ffffffffffffffffffffffffffffffffffffffff1673ffffffffffffffffffffffffffffffffffffffff1681526020018373ffffffffffffffffffffffffffffffffffffffff1673ffffffffffffffffffffffffffffffffffffffff16815260200182600019166000191681526020019350505050600060405180830381600087803b15156200115a57600080fd5b6102c65a03f115156200116c57600080fd5b5050508191505092915050565b60405180807f61707000000000000000000000000000000000000000000000000000000000008152506003019050604051809103902060405180807f65766d7265672e617261676f6e706d2e6574680000000000000000000000000081525060130190506040518091039020604051808360001916600019168152602001826000191660001916815260200192505050604051809103902081565b600160009054906101000a900473ffffffffffffffffffffffffffffffffffffffff1681565b6000808484846200124a6200156c565b808473ffffffffffffffffffffffffffffffffffffffff1673ffffffffffffffffffffffffffffffffffffffff168152602001836000191660001916815260200180602001828103825283818151815260200191508051906020019080838360005b83811015620012c9578082015181840152602081019050620012ac565b50505050905090810190601f168015620012f75780820380516001836020036101000a031916815260200191505b50945050505050604051809103906000f08015156200131557600080fd5b90507fe28f1412cafe58e22073759128eddcccfd9c1e3326665df874bdaf26077231a981604051808273ffffffffffffffffffffffffffffffffffffffff1673ffffffffffffffffffffffffffffffffffffffff16815260200191505060405180910390a1809150509392505050565b6000620013b8838360006040518059106200139d5750595b9080825280601f01601f1916602001820160405250620013e6565b905092915050565b600260009054906101000a900473ffffffffffffffffffffffffffffffffffffffff1681565b600080848484620013f66200157d565b808473ffffffffffffffffffffffffffffffffffffffff1673ffffffffffffffffffffffffffffffffffffffff168152602001836000191660001916815260200180602001828103825283818151815260200191508051906020019080838360005b838110156200147557808201518184015260208101905062001458565b50505050905090810190601f168015620014a35780820380516001836020036101000a031916815260200191505b50945050505050604051809103906000f0801515620014c157600080fd5b90507fe28f1412cafe58e22073759128eddcccfd9c1e3326665df874bdaf26077231a981604051808273ffffffffffffffffffffffffffffffffffffffff1673ffffffffffffffffffffffffffffffffffffffff16815260200191505060405180910390a1809150509392505050565b60006200156483836000604051805910620015495750595b9080825280601f01601f19166020018201604052506200123a565b905092915050565b604051610b2a806200158f83390190565b604051610b0980620020b98339019056006060604052341561000f57600080fd5b604051610b2a380380610b2a833981016040528080519060200190919080519060200190919080518201919050508282826000836000806101000a81548173ffffffffffffffffffffffffffffffffffffffff021916908373ffffffffffffffffffffffffffffffffffffffff16021790555082600181600019169055506100ab60015461023b64010000000002610655176401000000009004565b9050600082511115610173576100d38161036164010000000002610642176401000000009004565b15156100de57600080fd5b8073ffffffffffffffffffffffffffffffffffffffff168260405180828051906020019080838360005b83811015610123578082015181840152602081019050610108565b50505050905090810190601f1680156101505780820380516001836020036101000a031916815260200191505b509150506000604051808303818561646e5a03f4915050151561017257600080fd5b5b5050505061019560015461023b64010000000002610655176401000000009004565b600260006101000a81548173ffffffffffffffffffffffffffffffffffffffff021916908373ffffffffffffffffffffffffffffffffffffffff160217905550600073ffffffffffffffffffffffffffffffffffffffff16600260009054906101000a900473ffffffffffffffffffffffffffffffffffffffff1673ffffffffffffffffffffffffffffffffffffffff161415151561023357600080fd5b505050610374565b60008060009054906101000a900473ffffffffffffffffffffffffffffffffffffffff1673ffffffffffffffffffffffffffffffffffffffff166342c71f1d60405180807f6261736500000000000000000000000000000000000000000000000000000000815250600401905060405180910390208460405180836000191660001916815260200182600019166000191681526020019250505060405180910390206000604051602001526040518263ffffffff167c0100000000000000000000000000000000000000000000000000000000028152600401808260001916600019168152602001915050602060405180830381600087803b151561033f57600080fd5b6102c65a03f1151561035057600080fd5b505050604051805190509050919050565b600080823b905060008111915050919050565b6107a7806103836000396000f3006060604052600436106100af576000357c0100000000000000000000000000000000000000000000000000000000900463ffffffff1680631113ed0d146100f5578063178e6079146101265780632501269914610157578063756f60491461018857806380afdea8146101b9578063a3b4b07f146101ea578063cbcc65eb1461021b578063d4aae0c41461024c578063daa3a163146102a1578063db8a61d4146102ce578063ea879634146102ff575b6100f36100ba610354565b6000368080601f01602080910402602001604051908101604052809392919081815260200183838082843782019150505050505061037e565b005b341561010057600080fd5b6101086103bc565b60405180826000191660001916815260200191505060405180910390f35b341561013157600080fd5b6101396103f5565b60405180826000191660001916815260200191505060405180910390f35b341561016257600080fd5b61016a61042e565b60405180826000191660001916815260200191505060405180910390f35b341561019357600080fd5b61019b6104c9565b60405180826000191660001916815260200191505060405180910390f35b34156101c457600080fd5b6101cc610502565b60405180826000191660001916815260200191505060405180910390f35b34156101f557600080fd5b6101fd610508565b60405180826000191660001916815260200191505060405180910390f35b341561022657600080fd5b61022e6105a3565b60405180826000191660001916815260200191505060405180910390f35b341561025757600080fd5b61025f6105dc565b604051808273ffffffffffffffffffffffffffffffffffffffff1673ffffffffffffffffffffffffffffffffffffffff16815260200191505060405180910390f35b34156102ac57600080fd5b6102b4610601565b604051808215151515815260200191505060405180910390f35b34156102d957600080fd5b6102e1610609565b60405180826000191660001916815260200191505060405180910390f35b341561030a57600080fd5b610312610354565b604051808273ffffffffffffffffffffffffffffffffffffffff1673ffffffffffffffffffffffffffffffffffffffff16815260200191505060405180910390f35b6000600260009054906101000a900473ffffffffffffffffffffffffffffffffffffffff16905090565b61038782610642565b151561039257600080fd5b600080825160208401856127105a03f43d604051816000823e82600081146103b8578282f35b8282fd5b60405180807f6b65726e656c2e617261676f6e706d2e657468000000000000000000000000008152506013019050604051809103902081565b60405180807f61707000000000000000000000000000000000000000000000000000000000008152506003019050604051809103902081565b60405180807f636f7265000000000000000000000000000000000000000000000000000000008152506004019050604051809103902060405180807f6b65726e656c2e617261676f6e706d2e6574680000000000000000000000000081525060130190506040518091039020604051808360001916600019168152602001826000191660001916815260200192505050604051809103902081565b60405180807f636f7265000000000000000000000000000000000000000000000000000000008152506004019050604051809103902081565b60015481565b60405180807f61707000000000000000000000000000000000000000000000000000000000008152506003019050604051809103902060405180807f61636c2e617261676f6e706d2e6574680000000000000000000000000000000081525060100190506040518091039020604051808360001916600019168152602001826000191660001916815260200192505050604051809103902081565b60405180807f61636c2e617261676f6e706d2e657468000000000000000000000000000000008152506010019050604051809103902081565b6000809054906101000a900473ffffffffffffffffffffffffffffffffffffffff1681565b600080905090565b60405180807f62617365000000000000000000000000000000000000000000000000000000008152506004019050604051809103902081565b600080823b905060008111915050919050565b60008060009054906101000a900473ffffffffffffffffffffffffffffffffffffffff1673ffffffffffffffffffffffffffffffffffffffff166342c71f1d60405180807f6261736500000000000000000000000000000000000000000000000000000000815250600401905060405180910390208460405180836000191660001916815260200182600019166000191681526020019250505060405180910390206000604051602001526040518263ffffffff167c0100000000000000000000000000000000000000000000000000000000028152600401808260001916600019168152602001915050602060405180830381600087803b151561075957600080fd5b6102c65a03f1151561076a57600080fd5b5050506040518051905090509190505600a165627a7a72305820bb2acef393eb3217a30763705b2a3f74ef0fde58b795a5398e8a264bdb61a3b000296060604052341561000f57600080fd5b604051610b09380380610b09833981016040528080519060200190919080519060200190919080518201919050508282826000836000806101000a81548173ffffffffffffffffffffffffffffffffffffffff021916908373ffffffffffffffffffffffffffffffffffffffff16021790555082600181600019169055506100ab60015461017f640100000000026106dd176401000000009004565b9050600082511115610173576100d3816102a564010000000002610803176401000000009004565b15156100de57600080fd5b8073ffffffffffffffffffffffffffffffffffffffff168260405180828051906020019080838360005b83811015610123578082015181840152602081019050610108565b50505050905090810190601f1680156101505780820380516001836020036101000a031916815260200191505b509150506000604051808303818561646e5a03f4915050151561017257600080fd5b5b505050505050506102b8565b60008060009054906101000a900473ffffffffffffffffffffffffffffffffffffffff1673ffffffffffffffffffffffffffffffffffffffff166342c71f1d60405180807f6261736500000000000000000000000000000000000000000000000000000000815250600401905060405180910390208460405180836000191660001916815260200182600019166000191681526020019250505060405180910390206000604051602001526040518263ffffffff167c0100000000000000000000000000000000000000000000000000000000028152600401808260001916600019168152602001915050602060405180830381600087803b151561028357600080fd5b6102c65a03f1151561029457600080fd5b505050604051805190509050919050565b600080823b905060008111915050919050565b610842806102c76000396000f3006060604052600436106100ba576000357c0100000000000000000000000000000000000000000000000000000000900463ffffffff1680631113ed0d1461012c578063178e60791461015d578063250126991461018e5780633bc7ebac146101bf578063756f60491461021457806380afdea814610245578063a3b4b07f14610276578063cbcc65eb146102a7578063d4aae0c4146102d8578063daa3a1631461032d578063db8a61d41461035a578063ea8796341461038b575b60006100c46103e0565b905060008173ffffffffffffffffffffffffffffffffffffffff16141515156100ec57600080fd5b610129816000368080601f0160208091040260200160405190810160405280939291908181526020018383808284378201915050505050506103f2565b50005b341561013757600080fd5b61013f610430565b60405180826000191660001916815260200191505060405180910390f35b341561016857600080fd5b610170610469565b60405180826000191660001916815260200191505060405180910390f35b341561019957600080fd5b6101a16104a2565b60405180826000191660001916815260200191505060405180910390f35b34156101ca57600080fd5b6101d261053d565b604051808273ffffffffffffffffffffffffffffffffffffffff1673ffffffffffffffffffffffffffffffffffffffff16815260200191505060405180910390f35b341561021f57600080fd5b610227610563565b60405180826000191660001916815260200191505060405180910390f35b341561025057600080fd5b61025861059c565b60405180826000191660001916815260200191505060405180910390f35b341561028157600080fd5b6102896105a2565b60405180826000191660001916815260200191505060405180910390f35b34156102b257600080fd5b6102ba61063d565b60405180826000191660001916815260200191505060405180910390f35b34156102e357600080fd5b6102eb610676565b604051808273ffffffffffffffffffffffffffffffffffffffff1673ffffffffffffffffffffffffffffffffffffffff16815260200191505060405180910390f35b341561033857600080fd5b61034061069b565b604051808215151515815260200191505060405180910390f35b341561036557600080fd5b61036d6106a4565b60405180826000191660001916815260200191505060405180910390f35b341561039657600080fd5b61039e6103e0565b604051808273ffffffffffffffffffffffffffffffffffffffff1673ffffffffffffffffffffffffffffffffffffffff16815260200191505060405180910390f35b60006103ed6001546106dd565b905090565b6103fb82610803565b151561040657600080fd5b600080825160208401856127105a03f43d604051816000823e826000811461042c578282f35b8282fd5b60405180807f6b65726e656c2e617261676f6e706d2e657468000000000000000000000000008152506013019050604051809103902081565b60405180807f61707000000000000000000000000000000000000000000000000000000000008152506003019050604051809103902081565b60405180807f636f7265000000000000000000000000000000000000000000000000000000008152506004019050604051809103902060405180807f6b65726e656c2e617261676f6e706d2e6574680000000000000000000000000081525060130190506040518091039020604051808360001916600019168152602001826000191660001916815260200192505050604051809103902081565b606460009054906101000a900473ffffffffffffffffffffffffffffffffffffffff1681565b60405180807f636f7265000000000000000000000000000000000000000000000000000000008152506004019050604051809103902081565b60015481565b60405180807f61707000000000000000000000000000000000000000000000000000000000008152506003019050604051809103902060405180807f61636c2e617261676f6e706d2e6574680000000000000000000000000000000081525060100190506040518091039020604051808360001916600019168152602001826000191660001916815260200192505050604051809103902081565b60405180807f61636c2e617261676f6e706d2e657468000000000000000000000000000000008152506010019050604051809103902081565b6000809054906101000a900473ffffffffffffffffffffffffffffffffffffffff1681565b60006001905090565b60405180807f62617365000000000000000000000000000000000000000000000000000000008152506004019050604051809103902081565b60008060009054906101000a900473ffffffffffffffffffffffffffffffffffffffff1673ffffffffffffffffffffffffffffffffffffffff166342c71f1d60405180807f6261736500000000000000000000000000000000000000000000000000000000815250600401905060405180910390208460405180836000191660001916815260200182600019166000191681526020019250505060405180910390206000604051602001526040518263ffffffff167c0100000000000000000000000000000000000000000000000000000000028152600401808260001916600019168152602001915050602060405180830381600087803b15156107e157600080fd5b6102c65a03f115156107f257600080fd5b505050604051805190509050919050565b600080823b9050600081119150509190505600a165627a7a723058202e03375b5253439c92c5de1d807e1f3bbca65bd49798ea992bb1bdb55a0c30c50029a165627a7a72305820d09875a92c6339f78a31f1ed8742c4926ecd0a15dfc63221fc0a2ed62e3b62e000296060604052341561000f57600080fd5b610f058061001e6000396000f3006060604052600436106100c5576000357c0100000000000000000000000000000000000000000000000000000000900463ffffffff16806304bf2a7f146100ca5780635ca4d4bb1461016757806360b1e0571461018a57806380afdea8146101bb5780638129fc1c146101ec57806387a16f12146102015780638b3dd7491461024e5780639b3fdf4c14610277578063a1658fad146102a8578063bd8fde1c14610346578063d4aae0c414610377578063f92a79ff146103cc578063f97a05df14610469575b600080fd5b34156100d557600080fd5b610125600480803590602001908201803590602001908080601f016020809104026020016040519081016040528093929190818152602001838380828437820191505050505050919050506104d7565b604051808273ffffffffffffffffffffffffffffffffffffffff1673ffffffffffffffffffffffffffffffffffffffff16815260200191505060405180910390f35b341561017257600080fd5b6101886004808035906020019091905050610578565b005b341561019557600080fd5b61019d6105eb565b60405180826000191660001916815260200191505060405180910390f35b34156101c657600080fd5b6101ce610624565b60405180826000191660001916815260200191505060405180910390f35b34156101f757600080fd5b6101ff61062a565b005b341561020c57600080fd5b610238600480803573ffffffffffffffffffffffffffffffffffffffff16906020019091905050610704565b6040518082815260200191505060405180910390f35b341561025957600080fd5b610261610804565b6040518082815260200191505060405180910390f35b341561028257600080fd5b61028a61080e565b60405180826000191660001916815260200191505060405180910390f35b34156102b357600080fd5b61032c600480803573ffffffffffffffffffffffffffffffffffffffff1690602001909190803560001916906020019091908035906020019082018035906020019080806020026020016040519081016040528093929190818152602001838360200280828437820191505050505050919050506108a9565b604051808215151515815260200191505060405180910390f35b341561035157600080fd5b610359610aa9565b60405180826000191660001916815260200191505060405180910390f35b341561038257600080fd5b61038a610ab0565b604051808273ffffffffffffffffffffffffffffffffffffffff1673ffffffffffffffffffffffffffffffffffffffff16815260200191505060405180910390f35b34156103d757600080fd5b610427600480803590602001908201803590602001908080601f01602080910402602001604051908101604052809392919081815260200183838082843782019150505050505091905050610ad5565b604051808273ffffffffffffffffffffffffffffffffffffffff1673ffffffffffffffffffffffffffffffffffffffff16815260200191505060405180910390f35b341561047457600080fd5b61048a6004808035906020019091905050610bdc565b604051808373ffffffffffffffffffffffffffffffffffffffff1673ffffffffffffffffffffffffffffffffffffffff168152602001821515151581526020019250505060405180910390f35b60008060006104e584610c39565b63ffffffff169150600082148061050157506064805490508210155b1561050f5760009250610571565b60648281548110151561051e57fe5b906000526020600020900190508060000160149054906101000a900460ff1661054857600061056e565b8060000160009054906101000a900473ffffffffffffffffffffffffffffffffffffffff165b92505b5050919050565b600180026105a6338260006040518059106105905750595b90808252806020026020018201604052506108a9565b15156105b157600080fd5b60006064838154811015156105c257fe5b906000526020600020900160000160146101000a81548160ff0219169083151502179055505050565b60405180807f65766d7265672e617261676f6e706d2e657468000000000000000000000000008152506013019050604051809103902081565b60015481565b600060035414151561063b57600080fd5b610643610c4d565b606480548060010182816106579190610e3f565b916000526020600020900160006040805190810160405280600073ffffffffffffffffffffffffffffffffffffffff16815260200160001515815250909190915060008201518160000160006101000a81548173ffffffffffffffffffffffffffffffffffffffff021916908373ffffffffffffffffffffffffffffffffffffffff16021790555060208201518160000160146101000a81548160ff021916908315150217905550505050565b6000600180026107343382600060405180591061071e5750595b90808252806020026020018201604052506108a9565b151561073f57600080fd5b606480548060010182816107539190610e3f565b9160005260206000209001600060408051908101604052808773ffffffffffffffffffffffffffffffffffffffff16815260200160011515815250909190915060008201518160000160006101000a81548173ffffffffffffffffffffffffffffffffffffffff021916908373ffffffffffffffffffffffffffffffffffffffff16021790555060208201518160000160146101000a81548160ff0219169083151502179055505050915050919050565b6000600354905090565b60405180807f61707000000000000000000000000000000000000000000000000000000000008152506003019050604051809103902060405180807f65766d7265672e617261676f6e706d2e6574680000000000000000000000000081525060130190506040518091039020604051808360001916600019168152602001826000191660001916815260200192505050604051809103902081565b60006108b3610e6b565b600080845111156108cc57602084510290508391508082525b60008060009054906101000a900473ffffffffffffffffffffffffffffffffffffffff1673ffffffffffffffffffffffffffffffffffffffff161480610a9e57506000809054906101000a900473ffffffffffffffffffffffffffffffffffffffff1673ffffffffffffffffffffffffffffffffffffffff1663fdef9106873088866000604051602001526040518563ffffffff167c0100000000000000000000000000000000000000000000000000000000028152600401808573ffffffffffffffffffffffffffffffffffffffff1673ffffffffffffffffffffffffffffffffffffffff1681526020018473ffffffffffffffffffffffffffffffffffffffff1673ffffffffffffffffffffffffffffffffffffffff168152602001836000191660001916815260200180602001828103825283818151815260200191508051906020019080838360005b83811015610a34578082015181840152602081019050610a19565b50505050905090810190601f168015610a615780820380516001836020036101000a031916815260200191505b5095505050505050602060405180830381600087803b1515610a8257600080fd5b6102c65a03f11515610a9357600080fd5b505050604051805190505b925050509392505050565b6001800281565b6000809054906101000a900473ffffffffffffffffffffffffffffffffffffffff1681565b6000610adf610c6e565b73ffffffffffffffffffffffffffffffffffffffff166304bf2a7f836000604051602001526040518263ffffffff167c01000000000000000000000000000000000000000000000000000000000281526004018080602001828103825283818151815260200191508051906020019080838360005b83811015610b6f578082015181840152602081019050610b54565b50505050905090810190601f168015610b9c5780820380516001836020036101000a031916815260200191505b5092505050602060405180830381600087803b1515610bba57600080fd5b6102c65a03f11515610bcb57600080fd5b505050604051805190509050919050565b606481815481101515610beb57fe5b90600052602060002090016000915090508060000160009054906101000a900473ffffffffffffffffffffffffffffffffffffffff16908060000160149054906101000a900460ff16905082565b6000610c46826000610dcc565b9050919050565b6000600354141515610c5e57600080fd5b610c66610e26565b600381905550565b6000806000809054906101000a900473ffffffffffffffffffffffffffffffffffffffff1673ffffffffffffffffffffffffffffffffffffffff166342c71f1d60405180807f61707000000000000000000000000000000000000000000000000000000000008152506003019050604051809103902060405180807f65766d7265672e617261676f6e706d2e657468000000000000000000000000008152506013019050604051809103902060405180836000191660001916815260200182600019166000191681526020019250505060405180910390206000604051602001526040518263ffffffff167c0100000000000000000000000000000000000000000000000000000000028152600401808260001916600019168152602001915050602060405180830381600087803b1515610da857600080fd5b6102c65a03f11515610db957600080fd5b5050506040518051905090508091505090565b600080610dd98484610e2e565b90507c01000000000000000000000000000000000000000000000000000000007fffffffff0000000000000000000000000000000000000000000000000000000082160491505092915050565b600043905090565b600081602001830151905092915050565b815481835581811511610e6657818360005260206000209182019101610e659190610e7f565b5b505050565b602060405190810160405280600081525090565b610ed691905b80821115610ed257600080820160006101000a81549073ffffffffffffffffffffffffffffffffffffffff02191690556000820160146101000a81549060ff021916905550600101610e85565b5090565b905600a165627a7a72305820d176ddce26c145be1df1daeb2ef02bba652df4cd835f08c65b335e9cf27654f200296060604052341561000f57600080fd5b6104508061001e6000396000f300606060405260043610610041576000357c0100000000000000000000000000000000000000000000000000000000900463ffffffff168063279cea3514610046575b600080fd5b341561005157600080fd5b61009a6004808035906020019082018035906020019190919290803590602001908201803590602001919091929080359060200190820180359060200191909192905050610115565b6040518080602001828103825283818151815260200191508051906020019080838360005b838110156100da5780820151818401526020810190506100bf565b50505050905090810190601f1680156101075780820380516001836020036101000a031916815260200191505b509250505060405180910390f35b61011d610410565b6000806000806000600494505b8b8b905085101561033c5761017a858d8d8080601f01602080910402602001604051908101604052809392919081815260200183838082843782019150505050505061034b90919063ffffffff16565b9350600092505b878790508310156101fe57878784818110151561019a57fe5b9050602002013573ffffffffffffffffffffffffffffffffffffffff1673ffffffffffffffffffffffffffffffffffffffff168473ffffffffffffffffffffffffffffffffffffffff16141515156101f157600080fd5b8280600101935050610181565b8373ffffffffffffffffffffffffffffffffffffffff163073ffffffffffffffffffffffffffffffffffffffff163373ffffffffffffffffffffffffffffffffffffffff167f9dcff9d94fbfdb4622d11edb383005f95e78efb446c72d92f8e615c6025c470360405160405180910390a46102b7601486018d8d8080601f01602080910402602001604051908101604052809392919081815260200183838082843782019150505050505061039590919063ffffffff16565b63ffffffff16915061030a600460148701018d8d8080601f0160208091040260200160405190810160405280939291908181526020018383808284378201915050505050506103ef90919063ffffffff16565b905060008083836000886113885a03f180600081146103285761032d565b600080fd5b5050816018018501945061012a565b50505050509695505050505050565b60008061035884846103ff565b90506c010000000000000000000000007fffffffffffffffffffffffffffffffffffffffff00000000000000000000000082160491505092915050565b6000806103a284846103ff565b90507c01000000000000000000000000000000000000000000000000000000007fffffffff0000000000000000000000000000000000000000000000000000000082160491505092915050565b6000816020018301905092915050565b600081602001830151905092915050565b6020604051908101604052806000815250905600a165627a7a723058201e85b6c4332f8c5f2eb3cfa59252197785646dca26f5c608506fa8c7991219c600296060604052341561000f57600080fd5b6105a28061001e6000396000f300606060405260043610610041576000357c0100000000000000000000000000000000000000000000000000000000900463ffffffff168063279cea3514610046575b600080fd5b341561005157600080fd5b61009a6004808035906020019082018035906020019190919290803590602001908201803590602001919091929080359060200190820180359060200191909192905050610115565b6040518080602001828103825283818151815260200191508051906020019080838360005b838110156100da5780820151818401526020810190506100bf565b50505050905090810190601f1680156101075780820380516001836020036101000a031916815260200191505b509250505060405180910390f35b61011d610562565b60008383905014151561012f57600080fd5b60146004018787905014151561014457600080fd5b6101c561018d600489898080601f0160208091040260200160405190810160405280939291908181526020018383808284378201915050505050506101d190919063ffffffff16565b86868080601f01602080910402602001604051908101604052809392919081815260200183838082843782019150505050505061021b565b90509695505050505050565b6000806101de84846102f2565b90506c010000000000000000000000007fffffffffffffffffffffffffffffffffffffffff00000000000000000000000082160491505092915050565b610223610562565b61022c83610303565b151561023757600080fd5b8273ffffffffffffffffffffffffffffffffffffffff1660008351116102645761025f610316565b610266565b825b60405180828051906020019080838360005b83811015610293578082015181840152602081019050610278565b50505050905090810190601f1680156102c05780820380516001836020036101000a031916815260200191505b509150506000604051808303818561646e5a03f491505015156102e257600080fd5b6102ea610388565b905092915050565b600081602001830151905092915050565b600080823b905060008111915050919050565b61031e610562565b610383600073ffffffffffffffffffffffffffffffffffffffff1663c1c0e9c490507c0100000000000000000000000000000000000000000000000000000000027bffffffffffffffffffffffffffffffffffffffffffffffffffffffff19166103b1565b905090565b610390610562565b3d6040519150602081018201604052808252806000602084013e5080905090565b6103b9610562565b6103c1610562565b60046040518059106103d05750595b9080825280601f01601f19166020018201604052509050828160008151811015156103f757fe5b9060200101907effffffffffffffffffffffffffffffffffffffffffffffffffffffffffffff1916908160001a9053506008837bffffffffffffffffffffffffffffffffffffffffffffffffffffffff19169060020a0281600181518110151561045d57fe5b9060200101907effffffffffffffffffffffffffffffffffffffffffffffffffffffffffffff1916908160001a9053506010837bffffffffffffffffffffffffffffffffffffffffffffffffffffffff19169060020a028160028151811015156104c357fe5b9060200101907effffffffffffffffffffffffffffffffffffffffffffffffffffffffffffff1916908160001a9053506018837bffffffffffffffffffffffffffffffffffffffffffffffffffffffff19169060020a0281600381518110151561052957fe5b9060200101907effffffffffffffffffffffffffffffffffffffffffffffffffffffffffffff1916908160001a90535080915050919050565b6020604051908101604052806000815250905600a165627a7a72305820bc3ef8af938ac107c314564da5d9ba4435a196823e60da6dae2564c1caa690bb00296060604052341561000f57600080fd5b6106458061001e6000396000f300606060405260043610610041576000357c0100000000000000000000000000000000000000000000000000000000900463ffffffff168063279cea3514610046575b600080fd5b341561005157600080fd5b61009a6004808035906020019082018035906020019190919290803590602001908201803590602001919091929080359060200190820180359060200191909192905050610115565b6040518080602001828103825283818151815260200191508051906020019080838360005b838110156100da5780820151818401526020810190506100bf565b50505050905090810190601f1680156101075780820380516001836020036101000a031916815260200191505b509250505060405180910390f35b61011d610605565b60008060008585905014151561013257600080fd5b88886040518083838082843782019150509250505060405180910390209150600080836000191660001916815260200190815260200160002060009054906101000a900473ffffffffffffffffffffffffffffffffffffffff169050600073ffffffffffffffffffffffffffffffffffffffff168173ffffffffffffffffffffffffffffffffffffffff16141561025a576101fe89898080601f0160208091040260200160405190810160405280939291908181526020018383808284378201915050505050506102a4565b905080600080846000191660001916815260200190815260200160002060006101000a81548173ffffffffffffffffffffffffffffffffffffffff021916908373ffffffffffffffffffffffffffffffffffffffff1602179055505b6102968188888080601f0160208091040260200160405190810160405280939291908181526020018383808284378201915050505050506102cf565b925050509695505050505050565b60006004825103602483016000f09050803b15600181146102c4576102c9565b600080fd5b50919050565b6102d7610605565b6102e0836103a6565b15156102eb57600080fd5b8273ffffffffffffffffffffffffffffffffffffffff166000835111610318576103136103b9565b61031a565b825b60405180828051906020019080838360005b8381101561034757808201518184015260208101905061032c565b50505050905090810190601f1680156103745780820380516001836020036101000a031916815260200191505b509150506000604051808303818561646e5a03f4915050151561039657600080fd5b61039e61042b565b905092915050565b600080823b905060008111915050919050565b6103c1610605565b610426600073ffffffffffffffffffffffffffffffffffffffff1663c1c0e9c490507c0100000000000000000000000000000000000000000000000000000000027bffffffffffffffffffffffffffffffffffffffffffffffffffffffff1916610454565b905090565b610433610605565b3d6040519150602081018201604052808252806000602084013e5080905090565b61045c610605565b610464610605565b60046040518059106104735750595b9080825280601f01601f191660200182016040525090508281600081518110151561049a57fe5b9060200101907effffffffffffffffffffffffffffffffffffffffffffffffffffffffffffff1916908160001a9053506008837bffffffffffffffffffffffffffffffffffffffffffffffffffffffff19169060020a0281600181518110151561050057fe5b9060200101907effffffffffffffffffffffffffffffffffffffffffffffffffffffffffffff1916908160001a9053506010837bffffffffffffffffffffffffffffffffffffffffffffffffffffffff19169060020a0281600281518110151561056657fe5b9060200101907effffffffffffffffffffffffffffffffffffffffffffffffffffffffffffff1916908160001a9053506018837bffffffffffffffffffffffffffffffffffffffffffffffffffffffff19169060020a028160038151811015156105cc57fe5b9060200101907effffffffffffffffffffffffffffffffffffffffffffffffffffffffffffff1916908160001a90535080915050919050565b6020604051908101604052806000815250905600a165627a7a72305820c6b942b7a9e58ec93c6203115797fab29f6d9512fe62036ad6e73e093c1203990029",
  "source": "pragma solidity ^0.4.18;\n\nimport \"../evmscript/EVMScriptRegistry.sol\";\n\nimport \"../evmscript/executors/CallsScript.sol\";\nimport \"../evmscript/executors/DelegateScript.sol\";\nimport \"../evmscript/executors/DeployDelegateScript.sol\";\n\nimport \"./AppProxyFactory.sol\";\nimport \"../kernel/Kernel.sol\";\nimport \"../acl/ACL.sol\";\n\n\ncontract EVMScriptRegistryFactory is AppProxyFactory, EVMScriptRegistryConstants {\n    address public baseReg;\n    address public baseCalls;\n    address public baseDel;\n    address public baseDeployDel;\n\n    function EVMScriptRegistryFactory() public {\n        baseReg = address(new EVMScriptRegistry());\n        baseCalls = address(new CallsScript());\n        baseDel = address(new DelegateScript());\n        baseDeployDel = address(new DeployDelegateScript());\n    }\n\n    function newEVMScriptRegistry(Kernel _dao, address _root) public returns (EVMScriptRegistry reg) {\n        reg = EVMScriptRegistry(_dao.newPinnedAppInstance(EVMSCRIPT_REGISTRY_APP_ID, baseReg));\n        reg.initialize();\n\n        ACL acl = ACL(_dao.acl());\n\n        _dao.setApp(_dao.APP_ADDR_NAMESPACE(), EVMSCRIPT_REGISTRY_APP_ID, reg);\n        acl.createPermission(this, reg, reg.REGISTRY_MANAGER_ROLE(), this);\n\n        reg.addScriptExecutor(baseCalls);     // spec 1 = CallsScript\n        reg.addScriptExecutor(baseDel);       // spec 2 = DelegateScript\n        reg.addScriptExecutor(baseDeployDel); // spec 3 = DeployDelegateScript\n\n        acl.revokePermission(this, reg, reg.REGISTRY_MANAGER_ROLE());\n        acl.setPermissionManager(_root, reg, reg.REGISTRY_MANAGER_ROLE());\n\n        return reg;\n    }\n}\n",
  "sourcePath": "/Users/osarrouy/Documents/Devs/dapps/@wespr/swarm/contracts/factory/EVMScriptRegistryFactory.sol",
  "compiler": {
    "name": "solc",
    "version": "0.4.19+commit.c4cbbb05.Emscripten.clang"
  },
  "schemaVersion": "1.0.1",
  "updatedAt": "2018-02-20T14:48:34.698Z"
}