{
  "contractName": "Lineage",
  "abi": [
    {
      "constant": true,
      "inputs": [],
      "name": "hasInitialized",
      "outputs": [
        {
          "name": "",
          "type": "bool"
        }
      ],
      "payable": false,
      "stateMutability": "view",
      "type": "function"
    },
    {
      "constant": true,
      "inputs": [
        {
          "name": "_script",
          "type": "bytes"
        }
      ],
      "name": "getEVMScriptExecutor",
      "outputs": [
        {
          "name": "",
          "type": "address"
        }
      ],
      "payable": false,
      "stateMutability": "view",
      "type": "function"
    },
    {
      "constant": true,
      "inputs": [],
      "name": "getRecoveryVault",
      "outputs": [
        {
          "name": "",
          "type": "address"
        }
      ],
      "payable": false,
      "stateMutability": "view",
      "type": "function"
    },
    {
      "constant": true,
      "inputs": [
        {
          "name": "token",
          "type": "address"
        }
      ],
      "name": "allowRecoverability",
      "outputs": [
        {
          "name": "",
          "type": "bool"
        }
      ],
      "payable": false,
      "stateMutability": "view",
      "type": "function"
    },
    {
      "constant": true,
      "inputs": [],
      "name": "appId",
      "outputs": [
        {
          "name": "",
          "type": "bytes32"
        }
      ],
      "payable": false,
      "stateMutability": "view",
      "type": "function"
    },
    {
      "constant": true,
      "inputs": [],
      "name": "getInitializationBlock",
      "outputs": [
        {
          "name": "",
          "type": "uint256"
        }
      ],
      "payable": false,
      "stateMutability": "view",
      "type": "function"
    },
    {
      "constant": false,
      "inputs": [
        {
          "name": "_token",
          "type": "address"
        }
      ],
      "name": "transferToVault",
      "outputs": [],
      "payable": false,
      "stateMutability": "nonpayable",
      "type": "function"
    },
    {
      "constant": true,
      "inputs": [
        {
          "name": "_sender",
          "type": "address"
        },
        {
          "name": "_role",
          "type": "bytes32"
        },
        {
          "name": "_params",
          "type": "uint256[]"
        }
      ],
      "name": "canPerform",
      "outputs": [
        {
          "name": "",
          "type": "bool"
        }
      ],
      "payable": false,
      "stateMutability": "view",
      "type": "function"
    },
    {
      "constant": true,
      "inputs": [],
      "name": "getEVMScriptRegistry",
      "outputs": [
        {
          "name": "",
          "type": "address"
        }
      ],
      "payable": false,
      "stateMutability": "view",
      "type": "function"
    },
    {
      "constant": true,
      "inputs": [],
      "name": "BURN_ROLE",
      "outputs": [
        {
          "name": "",
          "type": "bytes32"
        }
      ],
      "payable": false,
      "stateMutability": "view",
      "type": "function"
    },
    {
      "constant": true,
      "inputs": [],
      "name": "kernel",
      "outputs": [
        {
          "name": "",
          "type": "address"
        }
      ],
      "payable": false,
      "stateMutability": "view",
      "type": "function"
    },
    {
      "constant": true,
      "inputs": [],
      "name": "isPetrified",
      "outputs": [
        {
          "name": "",
          "type": "bool"
        }
      ],
      "payable": false,
      "stateMutability": "view",
      "type": "function"
    },
    {
      "constant": true,
      "inputs": [],
      "name": "MINT_ROLE",
      "outputs": [
        {
          "name": "",
          "type": "bytes32"
        }
      ],
      "payable": false,
      "stateMutability": "view",
      "type": "function"
    },
    {
      "constant": true,
      "inputs": [],
      "name": "token",
      "outputs": [
        {
          "name": "",
          "type": "address"
        }
      ],
      "payable": false,
      "stateMutability": "view",
      "type": "function"
    },
    {
      "anonymous": false,
      "inputs": [
        {
          "indexed": true,
          "name": "executor",
          "type": "address"
        },
        {
          "indexed": false,
          "name": "script",
          "type": "bytes"
        },
        {
          "indexed": false,
          "name": "input",
          "type": "bytes"
        },
        {
          "indexed": false,
          "name": "returnData",
          "type": "bytes"
        }
      ],
      "name": "ScriptResult",
      "type": "event"
    },
    {
      "constant": false,
      "inputs": [
        {
          "name": "_token",
          "type": "address"
        }
      ],
      "name": "initialize",
      "outputs": [],
      "payable": false,
      "stateMutability": "nonpayable",
      "type": "function"
    },
    {
      "constant": false,
      "inputs": [
        {
          "name": "_receiver",
          "type": "address"
        },
        {
          "name": "_amount",
          "type": "uint256"
        }
      ],
      "name": "mint",
      "outputs": [],
      "payable": false,
      "stateMutability": "nonpayable",
      "type": "function"
    },
    {
      "constant": false,
      "inputs": [
        {
          "name": "_holder",
          "type": "address"
        },
        {
          "name": "_amount",
          "type": "uint256"
        }
      ],
      "name": "burn",
      "outputs": [],
      "payable": false,
      "stateMutability": "nonpayable",
      "type": "function"
    },
    {
      "constant": false,
      "inputs": [
        {
          "name": "",
          "type": "address"
        }
      ],
      "name": "proxyPayment",
      "outputs": [
        {
          "name": "",
          "type": "bool"
        }
      ],
      "payable": true,
      "stateMutability": "payable",
      "type": "function"
    },
    {
      "constant": false,
      "inputs": [
        {
          "name": "_from",
          "type": "address"
        },
        {
          "name": "_to",
          "type": "address"
        },
        {
          "name": "_amount",
          "type": "uint256"
        }
      ],
      "name": "onTransfer",
      "outputs": [
        {
          "name": "",
          "type": "bool"
        }
      ],
      "payable": false,
      "stateMutability": "nonpayable",
      "type": "function"
    },
    {
      "constant": false,
      "inputs": [
        {
          "name": "",
          "type": "address"
        },
        {
          "name": "",
          "type": "address"
        },
        {
          "name": "",
          "type": "uint256"
        }
      ],
      "name": "onApprove",
      "outputs": [
        {
          "name": "",
          "type": "bool"
        }
      ],
      "payable": false,
      "stateMutability": "nonpayable",
      "type": "function"
    }
  ],
  "bytecode": "0x60806040526200001d62000023640100000000026401000000009004565b620002ef565b60006200003e620000f8640100000000026401000000009004565b146040805190810160405280601881526020017f494e49545f414c52454144595f494e495449414c495a45440000000000000000815250901515620000bb576040517f08c379a0000000000000000000000000000000000000000000000000000000008152600401620000b2919062000279565b60405180910390fd5b50620000f67fffffffffffffffffffffffffffffffffffffffffffffffffffffffffffffffff62000145640100000000026401000000009004565b565b6000620001407febb05b386a8d34882b8711d156f463690983dc47815980fb82aeeff1aa43579e600102600019166200022b64010000000002620013d0176401000000009004565b905090565b600062000160620000f8640100000000026401000000009004565b146040805190810160405280601881526020017f494e49545f414c52454144595f494e495449414c495a45440000000000000000815250901515620001dd576040517f08c379a0000000000000000000000000000000000000000000000000000000008152600401620001d4919062000279565b60405180910390fd5b5062000228817febb05b386a8d34882b8711d156f463690983dc47815980fb82aeeff1aa43579e60010260001916620002366401000000000262001500179091906401000000009004565b50565b600081549050919050565b8082555050565b60006200024a826200029d565b80845262000260816020860160208601620002a8565b6200026b81620002de565b602085010191505092915050565b600060208201905081810360008301526200029581846200023d565b905092915050565b600081519050919050565b60005b83811015620002c8578082015181840152602081019050620002ab565b83811115620002d8576000848401525b50505050565b6000601f19601f8301169050919050565b611e8f80620002ff6000396000f300608060405260043610610112576000357c0100000000000000000000000000000000000000000000000000000000900463ffffffff1680630803fac0146101175780632914b9bd1461014257806332f0a3b51461017f57806340c10f19146101aa5780634a393149146101d35780637e7db6e11461021057806380afdea81461024d5780638b3dd749146102785780639d4941d8146102a35780639dc29fac146102cc578063a1658fad146102f5578063a479e50814610332578063b930908f1461035d578063c4d66de814610388578063d4aae0c4146103b1578063da682aeb146103dc578063de4796ed14610419578063e9a9c85014610444578063f48c30541461046f578063fc0c546a1461049f575b600080fd5b34801561012357600080fd5b5061012c6104ca565b6040516101399190611ae8565b60405180910390f35b34801561014e57600080fd5b50610169600480360361016491908101906117ef565b6104f5565b6040516101769190611b69565b60405180910390f35b34801561018b57600080fd5b506101946105ac565b6040516101a19190611a58565b60405180910390f35b3480156101b657600080fd5b506101d160048036036101cc919081019061178a565b610656565b005b3480156101df57600080fd5b506101fa60048036036101f591908101906116d4565b610750565b6040516102079190611ae8565b60405180910390f35b34801561021c57600080fd5b5061023760048036036102329190810190611682565b61075c565b6040516102449190611ae8565b60405180910390f35b34801561025957600080fd5b50610262610767565b60405161026f9190611b03565b60405180910390f35b34801561028457600080fd5b5061028d61079e565b60405161029a9190611c52565b60405180910390f35b3480156102af57600080fd5b506102ca60048036036102c59190810190611682565b6107d5565b005b3480156102d857600080fd5b506102f360048036036102ee919081019061178a565b610ad9565b005b34801561030157600080fd5b5061031c60048036036103179190810190611723565b610c94565b6040516103299190611ae8565b60405180910390f35b34801561033e57600080fd5b50610347610dc1565b6040516103549190611b84565b60405180910390f35b34801561036957600080fd5b50610372610ec3565b60405161037f9190611b03565b60405180910390f35b34801561039457600080fd5b506103af60048036036103aa9190810190611859565b610efc565b005b3480156103bd57600080fd5b506103c6611180565b6040516103d39190611b9f565b60405180910390f35b3480156103e857600080fd5b5061040360048036036103fe91908101906116d4565b6111b7565b6040516104109190611ae8565b60405180910390f35b34801561042557600080fd5b5061042e6111c3565b60405161043b9190611ae8565b60405180910390f35b34801561045057600080fd5b506104596111f4565b6040516104669190611b03565b60405180910390f35b61048960048036036104849190810190611682565b61122d565b6040516104969190611ae8565b60405180910390f35b3480156104ab57600080fd5b506104b46112c9565b6040516104c19190611bba565b60405180910390f35b6000806104d561079e565b9050600081141580156104ef5750806104ec6112ee565b10155b91505090565b60006104ff610dc1565b73ffffffffffffffffffffffffffffffffffffffff166304bf2a7f836040518263ffffffff167c01000000000000000000000000000000000000000000000000000000000281526004016105539190611b47565b602060405180830381600087803b15801561056d57600080fd5b505af1158015610581573d6000803e3d6000fd5b505050506040513d601f19601f820116820180604052506105a59190810190611830565b9050919050565b60006105b6611180565b73ffffffffffffffffffffffffffffffffffffffff166332f0a3b56040518163ffffffff167c0100000000000000000000000000000000000000000000000000000000028152600401602060405180830381600087803b15801561061957600080fd5b505af115801561062d573d6000803e3d6000fd5b505050506040513d601f19601f8201168201806040525061065191908101906116ab565b905090565b60405180807f4d494e545f524f4c450000000000000000000000000000000000000000000000815250600901905060405180910390206106c7338260006040519080825280602002602001820160405280156106c15781602001602082028038833980820191505090505b50610c94565b6040805190810160405280600f81526020017f4150505f415554485f4641494c45440000000000000000000000000000000000815250901515610740576040517f08c379a00000000000000000000000000000000000000000000000000000000081526004016107379190611bf0565b60405180910390fd5b5061074b83836112f6565b505050565b60008090509392505050565b600060019050919050565b60006107997fd625496217aa6a3453eecb9c3489dc5a53e6c67b444329ea2b2cbc9ff547639b600102600019166113c5565b905090565b60006107d07febb05b386a8d34882b8711d156f463690983dc47815980fb82aeeff1aa43579e600102600019166113d0565b905090565b6000806107e18361075c565b6040805190810160405280601281526020017f5245434f5645525f444953414c4c4f574544000000000000000000000000000081525090151561085a576040517f08c379a00000000000000000000000000000000000000000000000000000000081526004016108519190611bf0565b60405180910390fd5b506108636105ac565b915061086e826113db565b6040805190810160405280601a81526020017f5245434f5645525f5641554c545f4e4f545f434f4e54524143540000000000008152509015156108e7576040517f08c379a00000000000000000000000000000000000000000000000000000000081526004016108de9190611bf0565b60405180910390fd5b50600073ffffffffffffffffffffffffffffffffffffffff168373ffffffffffffffffffffffffffffffffffffffff161415610980578173ffffffffffffffffffffffffffffffffffffffff166108fc3073ffffffffffffffffffffffffffffffffffffffff16319081150290604051600060405180830381858888f1935050505015801561097a573d6000803e3d6000fd5b50610ad4565b8273ffffffffffffffffffffffffffffffffffffffff166370a08231306040518263ffffffff167c01000000000000000000000000000000000000000000000000000000000281526004016109d59190611bd5565b602060405180830381600087803b1580156109ef57600080fd5b505af1158015610a03573d6000803e3d6000fd5b505050506040513d601f19601f82011682018060405250610a279190810190611882565b90508273ffffffffffffffffffffffffffffffffffffffff1663a9059cbb83836040518363ffffffff167c0100000000000000000000000000000000000000000000000000000000028152600401610a80929190611abf565b602060405180830381600087803b158015610a9a57600080fd5b505af1158015610aae573d6000803e3d6000fd5b505050506040513d601f19601f82011682018060405250610ad291908101906117c6565b505b505050565b60405180807f4255524e5f524f4c45000000000000000000000000000000000000000000000081525060090190506040518091039020610b4a33826000604051908082528060200260200182016040528015610b445781602001602082028038833980820191505090505b50610c94565b6040805190810160405280600f81526020017f4150505f415554485f4641494c45440000000000000000000000000000000000815250901515610bc3576040517f08c379a0000000000000000000000000000000000000000000000000000000008152600401610bba9190611bf0565b60405180910390fd5b506000809054906101000a900473ffffffffffffffffffffffffffffffffffffffff1673ffffffffffffffffffffffffffffffffffffffff1663d3ce77fe84846040518363ffffffff167c0100000000000000000000000000000000000000000000000000000000028152600401610c3c929190611abf565b602060405180830381600087803b158015610c5657600080fd5b505af1158015610c6a573d6000803e3d6000fd5b505050506040513d601f19601f82011682018060405250610c8e91908101906117c6565b50505050565b60008060606000610ca36104ca565b1515610cb25760009350610db7565b610cba611180565b9250600073ffffffffffffffffffffffffffffffffffffffff168373ffffffffffffffffffffffffffffffffffffffff161415610cfa5760009350610db7565b602085510290508491508082528273ffffffffffffffffffffffffffffffffffffffff1663fdef9106883089866040518563ffffffff167c0100000000000000000000000000000000000000000000000000000000028152600401610d629493929190611a73565b602060405180830381600087803b158015610d7c57600080fd5b505af1158015610d90573d6000803e3d6000fd5b505050506040513d601f19601f82011682018060405250610db491908101906117c6565b93505b5050509392505050565b600080610dcc611180565b73ffffffffffffffffffffffffffffffffffffffff1663be00bbd87fd6f028ca0e8edb4a8c9757ca4fdccab25fa1e0317da1188108f7d2dee14902fb6001027fddbcfd564f642ab5627cf68b9b7d374fb4f8a36e941a75d89c87998cef03bd616001026040518363ffffffff167c0100000000000000000000000000000000000000000000000000000000028152600401610e68929190611b1e565b602060405180830381600087803b158015610e8257600080fd5b505af1158015610e96573d6000803e3d6000fd5b505050506040513d601f19601f82011682018060405250610eba91908101906116ab565b90508091505090565b60405180807f4255524e5f524f4c4500000000000000000000000000000000000000000000008152506009019050604051809103902081565b6000610f0661079e565b146040805190810160405280601881526020017f494e49545f414c52454144595f494e495449414c495a45440000000000000000815250901515610f80576040517f08c379a0000000000000000000000000000000000000000000000000000000008152600401610f779190611bf0565b60405180910390fd5b503073ffffffffffffffffffffffffffffffffffffffff168173ffffffffffffffffffffffffffffffffffffffff1663f77c47916040518163ffffffff167c0100000000000000000000000000000000000000000000000000000000028152600401602060405180830381600087803b158015610ffc57600080fd5b505af1158015611010573d6000803e3d6000fd5b505050506040513d601f19601f8201168201806040525061103491908101906116ab565b73ffffffffffffffffffffffffffffffffffffffff1614151561108c576040517f08c379a000000000000000000000000000000000000000000000000000000000815260040161108390611c12565b60405180910390fd5b61109461142d565b806000806101000a81548173ffffffffffffffffffffffffffffffffffffffff021916908373ffffffffffffffffffffffffffffffffffffffff1602179055506000809054906101000a900473ffffffffffffffffffffffffffffffffffffffff1673ffffffffffffffffffffffffffffffffffffffff1663f41e60c560006040518263ffffffff167c010000000000000000000000000000000000000000000000000000000002815260040161114b9190611ae8565b600060405180830381600087803b15801561116557600080fd5b505af1158015611179573d6000803e3d6000fd5b5050505050565b60006111b27f4172f0f7d2289153072b0a6ca36959e0cbe2efc3afe50fc81636caa96338137b600102600019166114f5565b905090565b60008090509392505050565b60007fffffffffffffffffffffffffffffffffffffffffffffffffffffffffffffffff6111ee61079e565b14905090565b60405180807f4d494e545f524f4c4500000000000000000000000000000000000000000000008152506009019050604051809103902081565b60008060009054906101000a900473ffffffffffffffffffffffffffffffffffffffff1673ffffffffffffffffffffffffffffffffffffffff163373ffffffffffffffffffffffffffffffffffffffff161415156112c0576040517f08c379a00000000000000000000000000000000000000000000000000000000081526004016112b790611c32565b60405180910390fd5b60009050919050565b6000809054906101000a900473ffffffffffffffffffffffffffffffffffffffff1681565b600043905090565b6000809054906101000a900473ffffffffffffffffffffffffffffffffffffffff1673ffffffffffffffffffffffffffffffffffffffff1663827f32c083836040518363ffffffff167c010000000000000000000000000000000000000000000000000000000002815260040161136e929190611abf565b602060405180830381600087803b15801561138857600080fd5b505af115801561139c573d6000803e3d6000fd5b505050506040513d601f19601f820116820180604052506113c091908101906117c6565b505050565b600081549050919050565b600081549050919050565b600080600073ffffffffffffffffffffffffffffffffffffffff168373ffffffffffffffffffffffffffffffffffffffff16141561141c5760009150611427565b823b90506000811191505b50919050565b600061143761079e565b146040805190810160405280601881526020017f494e49545f414c52454144595f494e495449414c495a454400000000000000008152509015156114b1576040517f08c379a00000000000000000000000000000000000000000000000000000000081526004016114a89190611bf0565b60405180910390fd5b506114f36114bd6112ee565b7febb05b386a8d34882b8711d156f463690983dc47815980fb82aeeff1aa43579e6001026000191661150090919063ffffffff16565b565b600081549050919050565b8082555050565b60006115138235611d44565b905092915050565b60006115278251611d44565b905092915050565b600082601f830112151561154257600080fd5b813561155561155082611c9a565b611c6d565b9150818183526020840193506020810190508385602084028201111561157a57600080fd5b60005b838110156115aa5781611590888261165a565b84526020840193506020830192505060018101905061157d565b5050505092915050565b60006115c08251611d64565b905092915050565b60006115d48235611d70565b905092915050565b600082601f83011215156115ef57600080fd5b81356116026115fd82611cc2565b611c6d565b9150808252602083016020830185838301111561161e57600080fd5b611629838284611e02565b50505092915050565b600061163e8251611d7a565b905092915050565b60006116528235611d8c565b905092915050565b60006116668235611d9e565b905092915050565b600061167a8251611d9e565b905092915050565b60006020828403121561169457600080fd5b60006116a284828501611507565b91505092915050565b6000602082840312156116bd57600080fd5b60006116cb8482850161151b565b91505092915050565b6000806000606084860312156116e957600080fd5b60006116f786828701611507565b935050602061170886828701611507565b92505060406117198682870161165a565b9150509250925092565b60008060006060848603121561173857600080fd5b600061174686828701611507565b9350506020611757868287016115c8565b925050604084013567ffffffffffffffff81111561177457600080fd5b6117808682870161152f565b9150509250925092565b6000806040838503121561179d57600080fd5b60006117ab85828601611507565b92505060206117bc8582860161165a565b9150509250929050565b6000602082840312156117d857600080fd5b60006117e6848285016115b4565b91505092915050565b60006020828403121561180157600080fd5b600082013567ffffffffffffffff81111561181b57600080fd5b611827848285016115dc565b91505092915050565b60006020828403121561184257600080fd5b600061185084828501611632565b91505092915050565b60006020828403121561186b57600080fd5b600061187984828501611646565b91505092915050565b60006020828403121561189457600080fd5b60006118a28482850161166e565b91505092915050565b6118b481611d04565b82525050565b6118c381611d24565b82525050565b6118d281611d30565b82525050565b60006118e382611cee565b8084526118f7816020860160208601611e11565b61190081611e44565b602085010191505092915050565b61191781611da8565b82525050565b61192681611dba565b82525050565b61193581611dcc565b82525050565b61194481611dde565b82525050565b61195381611df0565b82525050565b600061196482611cf9565b808452611978816020860160208601611e11565b61198181611e44565b602085010191505092915050565b6000603682527f7468697320636f6e7472616374206973206e6f7420736574206173206120636f60208301527f6e74726f6c6c6572206f66207468697320746f6b656e000000000000000000006040830152606082019050919050565b6000603682527f6f6e6c792074686520636f6e74726f6c6c656420746f6b656e2063616e20736560208301527f6e642045544820746f20746869732061646472657373000000000000000000006040830152606082019050919050565b611a5281611d3a565b82525050565b6000602082019050611a6d60008301846118ab565b92915050565b6000608082019050611a8860008301876118ab565b611a9560208301866118ab565b611aa260408301856118c9565b8181036060830152611ab481846118d8565b905095945050505050565b6000604082019050611ad460008301856118ab565b611ae16020830184611a49565b9392505050565b6000602082019050611afd60008301846118ba565b92915050565b6000602082019050611b1860008301846118c9565b92915050565b6000604082019050611b3360008301856118c9565b611b4060208301846118c9565b9392505050565b60006020820190508181036000830152611b6181846118d8565b905092915050565b6000602082019050611b7e600083018461190e565b92915050565b6000602082019050611b99600083018461191d565b92915050565b6000602082019050611bb4600083018461192c565b92915050565b6000602082019050611bcf600083018461193b565b92915050565b6000602082019050611bea600083018461194a565b92915050565b60006020820190508181036000830152611c0a8184611959565b905092915050565b60006020820190508181036000830152611c2b8161198f565b9050919050565b60006020820190508181036000830152611c4b816119ec565b9050919050565b6000602082019050611c676000830184611a49565b92915050565b6000604051905081810181811067ffffffffffffffff82111715611c9057600080fd5b8060405250919050565b600067ffffffffffffffff821115611cb157600080fd5b602082029050602081019050919050565b600067ffffffffffffffff821115611cd957600080fd5b601f19601f8301169050602081019050919050565b600081519050919050565b600081519050919050565b600073ffffffffffffffffffffffffffffffffffffffff82169050919050565b60008115159050919050565b6000819050919050565b6000819050919050565b600073ffffffffffffffffffffffffffffffffffffffff82169050919050565b60008115159050919050565b6000819050919050565b6000611d8582611d04565b9050919050565b6000611d9782611d04565b9050919050565b6000819050919050565b6000611db382611d04565b9050919050565b6000611dc582611d04565b9050919050565b6000611dd782611d04565b9050919050565b6000611de982611d04565b9050919050565b6000611dfb82611d04565b9050919050565b82818337600083830152505050565b60005b83811015611e2f578082015181840152602081019050611e14565b83811115611e3e576000848401525b50505050565b6000601f19601f83011690509190505600a265627a7a72305820f985ffa0ef5776d93c4304ea53d3f5d0bcf3a57feb6c97a5f84227ec953c68556c6578706572696d656e74616cf50037",
  "source": "pragma solidity ^0.4.24;\npragma experimental ABIEncoderV2;\n\nimport \"@aragon/os/contracts/apps/AragonApp.sol\";\nimport \"@aragon/apps-shared-minime/contracts/ITokenController.sol\";\nimport \"@aragon/apps-shared-minime/contracts/MiniMeToken.sol\";\nimport \"@pando/core/contracts/organism/ILineage.sol\";\n\n\ncontract Lineage is ILineage, ITokenController, AragonApp {\n    bytes32 public constant MINT_ROLE = keccak256(\"MINT_ROLE\");\n    bytes32 public constant BURN_ROLE = keccak256(\"BURN_ROLE\");\n\n    MiniMeToken public token;\n\n\n    function initialize(MiniMeToken _token) external onlyInit {\n        require(_token.controller() == address(this), \"this contract is not set as a controller of this token\");\n\n        initialized();\n\n        token = _token;\n        token.enableTransfers(false);\n    }\n\n    function mint(address _receiver, uint256 _amount) external auth(MINT_ROLE) {\n        _mint(_receiver, _amount);\n    }\n\n    function burn(address _holder, uint256 _amount) external auth(BURN_ROLE) {\n        // minime.destroyTokens() never returns false, only reverts on failure\n        token.destroyTokens(_holder, _amount);\n    }\n\n    function proxyPayment(address) external payable returns (bool) {\n        // Sender check is required to avoid anyone sending ETH to the Token Manager through this method\n        // Even though it is tested, solidity-coverage doesnt get it because\n        // MiniMeToken is not instrumented and entire tx is reverted\n        require(msg.sender == address(token), \"only the controlled token can send ETH to this address\");\n        return false;\n    }\n\n    function onTransfer(address _from, address _to, uint _amount) external returns(bool) {\n        return false;\n    }\n\n    function onApprove(address, address, uint) external returns (bool) {\n        return false;\n    }\n\n    function _mint(address _receiver, uint256 _amount) internal {\n        token.generateTokens(_receiver, _amount); // minime.generateTokens() never returns false\n    }\n}\n",
  "sourcePath": "/Users/osarrouy/Documents/dapp/@pando/packages/organism/contracts/Lineage.sol",
  "compiler": {
    "name": "solc",
    "version": "0.4.24+commit.e67f0147.Emscripten.clang"
  },
  "schemaVersion": "2.0.1",
  "updatedAt": "2018-12-05T16:43:10.086Z"
}