{
  "contractName": "PandoApp",
  "abi": [
    {
      "constant": true,
      "inputs": [],
      "name": "hasInitialized",
      "outputs": [
        {
          "name": "",
          "type": "bool"
        }
      ],
      "payable": false,
      "stateMutability": "view",
      "type": "function"
    },
    {
      "constant": true,
      "inputs": [],
      "name": "KERNEL_APP_ID",
      "outputs": [
        {
          "name": "",
          "type": "bytes32"
        }
      ],
      "payable": false,
      "stateMutability": "view",
      "type": "function"
    },
    {
      "constant": true,
      "inputs": [],
      "name": "APP_ADDR_NAMESPACE",
      "outputs": [
        {
          "name": "",
          "type": "bytes32"
        }
      ],
      "payable": false,
      "stateMutability": "view",
      "type": "function"
    },
    {
      "constant": true,
      "inputs": [],
      "name": "getRecoveryVault",
      "outputs": [
        {
          "name": "",
          "type": "address"
        }
      ],
      "payable": false,
      "stateMutability": "view",
      "type": "function"
    },
    {
      "constant": true,
      "inputs": [],
      "name": "EVMSCRIPT_REGISTRY_APP_ID",
      "outputs": [
        {
          "name": "",
          "type": "bytes32"
        }
      ],
      "payable": false,
      "stateMutability": "view",
      "type": "function"
    },
    {
      "constant": true,
      "inputs": [],
      "name": "CORE_NAMESPACE",
      "outputs": [
        {
          "name": "",
          "type": "bytes32"
        }
      ],
      "payable": false,
      "stateMutability": "view",
      "type": "function"
    },
    {
      "constant": true,
      "inputs": [
        {
          "name": "token",
          "type": "address"
        }
      ],
      "name": "allowRecoverability",
      "outputs": [
        {
          "name": "",
          "type": "bool"
        }
      ],
      "payable": false,
      "stateMutability": "view",
      "type": "function"
    },
    {
      "constant": true,
      "inputs": [],
      "name": "appId",
      "outputs": [
        {
          "name": "",
          "type": "bytes32"
        }
      ],
      "payable": false,
      "stateMutability": "view",
      "type": "function"
    },
    {
      "constant": true,
      "inputs": [],
      "name": "ETH",
      "outputs": [
        {
          "name": "",
          "type": "address"
        }
      ],
      "payable": false,
      "stateMutability": "view",
      "type": "function"
    },
    {
      "constant": true,
      "inputs": [],
      "name": "getInitializationBlock",
      "outputs": [
        {
          "name": "",
          "type": "uint256"
        }
      ],
      "payable": false,
      "stateMutability": "view",
      "type": "function"
    },
    {
      "constant": false,
      "inputs": [
        {
          "name": "_token",
          "type": "address"
        }
      ],
      "name": "transferToVault",
      "outputs": [],
      "payable": false,
      "stateMutability": "nonpayable",
      "type": "function"
    },
    {
      "constant": true,
      "inputs": [
        {
          "name": "_sender",
          "type": "address"
        },
        {
          "name": "_role",
          "type": "bytes32"
        },
        {
          "name": "_params",
          "type": "uint256[]"
        }
      ],
      "name": "canPerform",
      "outputs": [
        {
          "name": "",
          "type": "bool"
        }
      ],
      "payable": false,
      "stateMutability": "view",
      "type": "function"
    },
    {
      "constant": true,
      "inputs": [],
      "name": "ACL_APP_ID",
      "outputs": [
        {
          "name": "",
          "type": "bytes32"
        }
      ],
      "payable": false,
      "stateMutability": "view",
      "type": "function"
    },
    {
      "constant": true,
      "inputs": [],
      "name": "kernel",
      "outputs": [
        {
          "name": "",
          "type": "address"
        }
      ],
      "payable": false,
      "stateMutability": "view",
      "type": "function"
    },
    {
      "constant": true,
      "inputs": [],
      "name": "APP_BASES_NAMESPACE",
      "outputs": [
        {
          "name": "",
          "type": "bytes32"
        }
      ],
      "payable": false,
      "stateMutability": "view",
      "type": "function"
    },
    {
      "constant": true,
      "inputs": [],
      "name": "isPetrified",
      "outputs": [
        {
          "name": "",
          "type": "bool"
        }
      ],
      "payable": false,
      "stateMutability": "view",
      "type": "function"
    },
    {
      "constant": true,
      "inputs": [
        {
          "name": "_script",
          "type": "bytes"
        }
      ],
      "name": "getExecutor",
      "outputs": [
        {
          "name": "",
          "type": "address"
        }
      ],
      "payable": false,
      "stateMutability": "view",
      "type": "function"
    },
    {
      "anonymous": false,
      "inputs": [
        {
          "indexed": true,
          "name": "executor",
          "type": "address"
        },
        {
          "indexed": false,
          "name": "script",
          "type": "bytes"
        },
        {
          "indexed": false,
          "name": "input",
          "type": "bytes"
        },
        {
          "indexed": false,
          "name": "returnData",
          "type": "bytes"
        }
      ],
      "name": "ScriptResult",
      "type": "event"
    },
    {
      "constant": true,
      "inputs": [
        {
          "components": [
            {
              "components": [
                {
                  "name": "origin",
                  "type": "address"
                },
                {
                  "name": "tree",
                  "type": "string"
                },
                {
                  "name": "message",
                  "type": "string"
                },
                {
                  "name": "metadata",
                  "type": "string"
                },
                {
                  "components": [
                    {
                      "name": "api",
                      "type": "address"
                    },
                    {
                      "name": "hash",
                      "type": "bytes32"
                    }
                  ],
                  "name": "parents",
                  "type": "tuple[]"
                }
              ],
              "name": "individuation",
              "type": "tuple"
            },
            {
              "name": "blockstamp",
              "type": "uint256"
            },
            {
              "name": "state",
              "type": "uint8"
            },
            {
              "name": "RFLids",
              "type": "uint256[]"
            }
          ],
          "name": "_RFI",
          "type": "tuple"
        }
      ],
      "name": "isPending",
      "outputs": [
        {
          "name": "",
          "type": "bool"
        }
      ],
      "payable": false,
      "stateMutability": "pure",
      "type": "function"
    },
    {
      "constant": true,
      "inputs": [
        {
          "components": [
            {
              "components": [
                {
                  "name": "destination",
                  "type": "address"
                },
                {
                  "name": "minimum",
                  "type": "uint256"
                },
                {
                  "name": "metadata",
                  "type": "string"
                }
              ],
              "name": "lineage",
              "type": "tuple"
            },
            {
              "name": "blockstamp",
              "type": "uint256"
            },
            {
              "name": "value",
              "type": "uint256"
            },
            {
              "name": "state",
              "type": "uint8"
            },
            {
              "name": "RFIid",
              "type": "uint256"
            }
          ],
          "name": "_RFL",
          "type": "tuple"
        }
      ],
      "name": "isPending",
      "outputs": [
        {
          "name": "",
          "type": "bool"
        }
      ],
      "payable": false,
      "stateMutability": "pure",
      "type": "function"
    },
    {
      "constant": true,
      "inputs": [
        {
          "components": [
            {
              "components": [
                {
                  "name": "destination",
                  "type": "address"
                },
                {
                  "name": "minimum",
                  "type": "uint256"
                },
                {
                  "name": "metadata",
                  "type": "string"
                }
              ],
              "name": "lineage",
              "type": "tuple"
            },
            {
              "name": "blockstamp",
              "type": "uint256"
            },
            {
              "name": "value",
              "type": "uint256"
            },
            {
              "name": "state",
              "type": "uint8"
            },
            {
              "name": "RFIid",
              "type": "uint256"
            }
          ],
          "name": "_RFL",
          "type": "tuple"
        }
      ],
      "name": "isAccepted",
      "outputs": [
        {
          "name": "",
          "type": "bool"
        }
      ],
      "payable": false,
      "stateMutability": "pure",
      "type": "function"
    },
    {
      "constant": true,
      "inputs": [
        {
          "components": [
            {
              "name": "origin",
              "type": "address"
            },
            {
              "name": "blockstamp",
              "type": "uint256"
            },
            {
              "name": "tree",
              "type": "string"
            },
            {
              "name": "message",
              "type": "string"
            },
            {
              "name": "metadata",
              "type": "string"
            },
            {
              "components": [
                {
                  "name": "api",
                  "type": "address"
                },
                {
                  "name": "hash",
                  "type": "bytes32"
                }
              ],
              "name": "parents",
              "type": "tuple[]"
            }
          ],
          "name": "_individuation",
          "type": "tuple"
        }
      ],
      "name": "hash",
      "outputs": [
        {
          "name": "",
          "type": "bytes32"
        }
      ],
      "payable": false,
      "stateMutability": "pure",
      "type": "function"
    }
  ],
  "bytecode": "0x60806040526200001d62000023640100000000026401000000009004565b6200015b565b60006200003e62000087640100000000026401000000009004565b1415156200004b57600080fd5b620000857fffffffffffffffffffffffffffffffffffffffffffffffffffffffffffffffff620000d4640100000000026401000000009004565b565b6000620000cf7febb05b386a8d34882b8711d156f463690983dc47815980fb82aeeff1aa43579e60010260001916620001496401000000000262000ebc176401000000009004565b905090565b6000620000ef62000087640100000000026401000000009004565b141515620000fc57600080fd5b62000146817febb05b386a8d34882b8711d156f463690983dc47815980fb82aeeff1aa43579e60010260001916620001546401000000000262001daa179091906401000000009004565b50565b600081549050919050565b8082555050565b611deb806200016b6000396000f30060806040526004361061011d576000357c0100000000000000000000000000000000000000000000000000000000900463ffffffff1680630803fac0146101225780631113ed0d1461014d578063178e60791461017857806332f0a3b5146101a357806339a2d338146101ce5780635b15970d1461020b57806360b1e05714610248578063756f6049146102735780637e7db6e11461029e57806380afdea8146102db5780638322fff2146103065780638b3dd749146103315780639d4941d81461035c578063a1658fad14610385578063cbcc65eb146103c2578063d4aae0c4146103ed578063db8a61d414610418578063de4796ed14610443578063e7fd8d081461046e578063e95fe2ff146104ab578063f92a79ff146104e8575b600080fd5b34801561012e57600080fd5b50610137610525565b6040516101449190611a68565b60405180910390f35b34801561015957600080fd5b50610162610550565b60405161016f9190611a83565b60405180910390f35b34801561018457600080fd5b5061018d610577565b60405161019a9190611a83565b60405180910390f35b3480156101af57600080fd5b506101b861059e565b6040516101c591906119d8565b60405180910390f35b3480156101da57600080fd5b506101f560048036036101f0919081019061184d565b61068a565b6040516102029190611a83565b60405180910390f35b34801561021757600080fd5b50610232600480360361022d91908101906118cf565b61089f565b60405161023f9190611a68565b60405180910390f35b34801561025457600080fd5b5061025d6108c6565b60405161026a9190611a83565b60405180910390f35b34801561027f57600080fd5b506102886108ed565b6040516102959190611a83565b60405180910390f35b3480156102aa57600080fd5b506102c560048036036102c09190810190611701565b610914565b6040516102d29190611a68565b60405180910390f35b3480156102e757600080fd5b506102f061091f565b6040516102fd9190611a83565b60405180910390f35b34801561031257600080fd5b5061031b610956565b60405161032891906119d8565b60405180910390f35b34801561033d57600080fd5b5061034661095b565b6040516103539190611b3a565b60405180910390f35b34801561036857600080fd5b50610383600480360361037e9190810190611701565b610992565b005b34801561039157600080fd5b506103ac60048036036103a79190810190611753565b610bb8565b6040516103b99190611a68565b60405180910390f35b3480156103ce57600080fd5b506103d7610cf0565b6040516103e49190611a83565b60405180910390f35b3480156103f957600080fd5b50610402610d17565b60405161040f9190611b04565b60405180910390f35b34801561042457600080fd5b5061042d610d4e565b60405161043a9190611a83565b60405180910390f35b34801561044f57600080fd5b50610458610d75565b6040516104659190611a68565b60405180910390f35b34801561047a57600080fd5b506104956004803603610490919081019061188e565b610da6565b6040516104a29190611a68565b60405180910390f35b3480156104b757600080fd5b506104d260048036036104cd91908101906118cf565b610dcc565b6040516104df9190611a68565b60405180910390f35b3480156104f457600080fd5b5061050f600480360361050a91908101906117e3565b610df2565b60405161051c9190611ae9565b60405180910390f35b60008061053061095b565b90506000811415801561054a575080610547610ea9565b10155b91505090565b7f3b4bf6bf3ad5000ecf0f989d5befde585c6860fea3e574a4fab4c49d1c177d9c60010281565b7fd6f028ca0e8edb4a8c9757ca4fdccab25fa1e0317da1188108f7d2dee14902fb60010281565b60008073ffffffffffffffffffffffffffffffffffffffff166105bf610d17565b73ffffffffffffffffffffffffffffffffffffffff16141515156105e257600080fd5b6105ea610d17565b73ffffffffffffffffffffffffffffffffffffffff166332f0a3b56040518163ffffffff167c0100000000000000000000000000000000000000000000000000000000028152600401602060405180830381600087803b15801561064d57600080fd5b505af1158015610661573d6000803e3d6000fd5b505050506040513d601f19601f82011682018060405250610685919081019061172a565b905090565b6000816000015182602001518360400151846060015185608001518660a00151604051602001808773ffffffffffffffffffffffffffffffffffffffff1673ffffffffffffffffffffffffffffffffffffffff166c0100000000000000000000000002815260140186815260200185805190602001908083835b6020831015156107295780518252602082019150602081019050602083039250610704565b6001836020036101000a03801982511681845116808217855250505050505090500184805190602001908083835b60208310151561077c5780518252602082019150602081019050602083039250610757565b6001836020036101000a03801982511681845116808217855250505050505090500183805190602001908083835b6020831015156107cf57805182526020820191506020810190506020830392506107aa565b6001836020036101000a0380198251168184511680821785525050505050509050018280516000925b8184101561081b57828490602001906020020151815260200192600101926107f8565b9250505096505050505050506040516020818303038152906040526040518082805190602001908083835b60208310151561086b5780518252602082019150602081019050602083039250610846565b6001836020036101000a03801982511681845116808217855250505050505090500191505060405180910390209050919050565b6000600160048111156108ae57fe5b826060015160048111156108be57fe5b149050919050565b7fddbcfd564f642ab5627cf68b9b7d374fb4f8a36e941a75d89c87998cef03bd6160010281565b7fc681a85306374a5ab27f0bbc385296a54bcd314a1948b6cf61c4ea1bc44bb9f860010281565b600060019050919050565b60006109517fd625496217aa6a3453eecb9c3489dc5a53e6c67b444329ea2b2cbc9ff547639b60010260001916610eb1565b905090565b600081565b600061098d7febb05b386a8d34882b8711d156f463690983dc47815980fb82aeeff1aa43579e60010260001916610ebc565b905090565b60008061099e83610914565b15156109a957600080fd5b6109b161059e565b91506109bc82610ec7565b15156109c757600080fd5b600073ffffffffffffffffffffffffffffffffffffffff168373ffffffffffffffffffffffffffffffffffffffff161415610a5f578173ffffffffffffffffffffffffffffffffffffffff166108fc3073ffffffffffffffffffffffffffffffffffffffff16319081150290604051600060405180830381858888f19350505050158015610a59573d6000803e3d6000fd5b50610bb3565b8273ffffffffffffffffffffffffffffffffffffffff166370a08231306040518263ffffffff167c0100000000000000000000000000000000000000000000000000000000028152600401610ab49190611b1f565b602060405180830381600087803b158015610ace57600080fd5b505af1158015610ae2573d6000803e3d6000fd5b505050506040513d601f19601f82011682018060405250610b069190810190611910565b90508273ffffffffffffffffffffffffffffffffffffffff1663a9059cbb83836040518363ffffffff167c0100000000000000000000000000000000000000000000000000000000028152600401610b5f929190611a3f565b602060405180830381600087803b158015610b7957600080fd5b505af1158015610b8d573d6000803e3d6000fd5b505050506040513d601f19601f82011682018060405250610bb191908101906117ba565b505b505050565b60008060606000610bc7610525565b1515610bd65760009350610ce6565b610bde610d17565b9250600073ffffffffffffffffffffffffffffffffffffffff168373ffffffffffffffffffffffffffffffffffffffff161415610c1e5760009350610ce6565b600085511115610c3657602085510290508491508082525b8273ffffffffffffffffffffffffffffffffffffffff1663fdef9106883089866040518563ffffffff167c0100000000000000000000000000000000000000000000000000000000028152600401610c9194939291906119f3565b602060405180830381600087803b158015610cab57600080fd5b505af1158015610cbf573d6000803e3d6000fd5b505050506040513d601f19601f82011682018060405250610ce391908101906117ba565b93505b5050509392505050565b7fe3262375f45a6e2026b7e7b18c2b807434f2508fe1a2a3dfb493c7df8f4aad6a60010281565b6000610d497f4172f0f7d2289153072b0a6ca36959e0cbe2efc3afe50fc81636caa96338137b60010260001916610f19565b905090565b7ff1f3eb40f5bc1ad1344716ced8b8a0431d840b5783aea1fd01786bc26f35ac0f60010281565b60007fffffffffffffffffffffffffffffffffffffffffffffffffffffffffffffffff610da061095b565b14905090565b6000806003811115610db457fe5b82604001516003811115610dc457fe5b149050919050565b6000806004811115610dda57fe5b82606001516004811115610dea57fe5b149050919050565b6000610dfc610f24565b73ffffffffffffffffffffffffffffffffffffffff166304bf2a7f836040518263ffffffff167c0100000000000000000000000000000000000000000000000000000000028152600401610e509190611ac7565b602060405180830381600087803b158015610e6a57600080fd5b505af1158015610e7e573d6000803e3d6000fd5b505050506040513d601f19601f82011682018060405250610ea29190810190611824565b9050919050565b600043905090565b600081549050919050565b600081549050919050565b600080600073ffffffffffffffffffffffffffffffffffffffff168373ffffffffffffffffffffffffffffffffffffffff161415610f085760009150610f13565b823b90506000811191505b50919050565b600081549050919050565b600080610f2f610d17565b73ffffffffffffffffffffffffffffffffffffffff1663be00bbd87fd6f028ca0e8edb4a8c9757ca4fdccab25fa1e0317da1188108f7d2dee14902fb6001027fddbcfd564f642ab5627cf68b9b7d374fb4f8a36e941a75d89c87998cef03bd616001026040518363ffffffff167c0100000000000000000000000000000000000000000000000000000000028152600401610fcb929190611a9e565b602060405180830381600087803b158015610fe557600080fd5b505af1158015610ff9573d6000803e3d6000fd5b505050506040513d601f19601f8201168201806040525061101d919081019061172a565b90508091505090565b60006110328235611c9d565b905092915050565b60006110468251611c9d565b905092915050565b600082601f830112151561106157600080fd5b813561107461106f82611b82565b611b55565b9150818183526020840193506020810190508385604084028201111561109957600080fd5b60005b838110156110c957816110af88826112ed565b84526020840193506040830192505060018101905061109c565b5050505092915050565b600082601f83011215156110e657600080fd5b81356110f96110f482611baa565b611b55565b9150818183526020840193506020810190508385602084028201111561111e57600080fd5b60005b8381101561114e578161113488826116d9565b845260208401935060208301925050600181019050611121565b5050505092915050565b600082601f830112151561116b57600080fd5b813561117e61117982611bd2565b611b55565b915081818352602084019350602081019050838560208402820111156111a357600080fd5b60005b838110156111d357816111b988826116d9565b8452602084019350602083019250506001810190506111a6565b5050505092915050565b60006111e98251611cbd565b905092915050565b60006111fd8235611cc9565b905092915050565b600082601f830112151561121857600080fd5b813561122b61122682611bfa565b611b55565b9150808252602083016020830185838301111561124757600080fd5b611252838284611d57565b50505092915050565b60006112678251611cd3565b905092915050565b600061127b8235611ce5565b905092915050565b600061128f8235611cfe565b905092915050565b600082601f83011215156112aa57600080fd5b81356112bd6112b882611c26565b611b55565b915080825260208301602083018583830111156112d957600080fd5b6112e4838284611d57565b50505092915050565b6000604082840312156112ff57600080fd5b6113096040611b55565b9050600061131984828501611026565b600083015250602061132d848285016111f1565b60208301525092915050565b600060a0828403121561134b57600080fd5b61135560a0611b55565b9050600061136584828501611026565b600083015250602082013567ffffffffffffffff81111561138557600080fd5b61139184828501611297565b602083015250604082013567ffffffffffffffff8111156113b157600080fd5b6113bd84828501611297565b604083015250606082013567ffffffffffffffff8111156113dd57600080fd5b6113e984828501611297565b606083015250608082013567ffffffffffffffff81111561140957600080fd5b6114158482850161104e565b60808301525092915050565b60006060828403121561143357600080fd5b61143d6060611b55565b9050600061144d84828501611026565b6000830152506020611461848285016116d9565b602083015250604082013567ffffffffffffffff81111561148157600080fd5b61148d84828501611297565b60408301525092915050565b600060c082840312156114ab57600080fd5b6114b560c0611b55565b905060006114c584828501611026565b60008301525060206114d9848285016116d9565b602083015250604082013567ffffffffffffffff8111156114f957600080fd5b61150584828501611297565b604083015250606082013567ffffffffffffffff81111561152557600080fd5b61153184828501611297565b606083015250608082013567ffffffffffffffff81111561155157600080fd5b61155d84828501611297565b60808301525060a082013567ffffffffffffffff81111561157d57600080fd5b6115898482850161104e565b60a08301525092915050565b6000608082840312156115a757600080fd5b6115b16080611b55565b9050600082013567ffffffffffffffff8111156115cd57600080fd5b6115d984828501611339565b60008301525060206115ed848285016116d9565b60208301525060406116018482850161126f565b604083015250606082013567ffffffffffffffff81111561162157600080fd5b61162d848285016110d3565b60608301525092915050565b600060a0828403121561164b57600080fd5b61165560a0611b55565b9050600082013567ffffffffffffffff81111561167157600080fd5b61167d84828501611421565b6000830152506020611691848285016116d9565b60208301525060406116a5848285016116d9565b60408301525060606116b984828501611283565b60608301525060806116cd848285016116d9565b60808301525092915050565b60006116e58235611d17565b905092915050565b60006116f98251611d17565b905092915050565b60006020828403121561171357600080fd5b600061172184828501611026565b91505092915050565b60006020828403121561173c57600080fd5b600061174a8482850161103a565b91505092915050565b60008060006060848603121561176857600080fd5b600061177686828701611026565b9350506020611787868287016111f1565b925050604084013567ffffffffffffffff8111156117a457600080fd5b6117b086828701611158565b9150509250925092565b6000602082840312156117cc57600080fd5b60006117da848285016111dd565b91505092915050565b6000602082840312156117f557600080fd5b600082013567ffffffffffffffff81111561180f57600080fd5b61181b84828501611205565b91505092915050565b60006020828403121561183657600080fd5b60006118448482850161125b565b91505092915050565b60006020828403121561185f57600080fd5b600082013567ffffffffffffffff81111561187957600080fd5b61188584828501611499565b91505092915050565b6000602082840312156118a057600080fd5b600082013567ffffffffffffffff8111156118ba57600080fd5b6118c684828501611595565b91505092915050565b6000602082840312156118e157600080fd5b600082013567ffffffffffffffff8111156118fb57600080fd5b61190784828501611639565b91505092915050565b60006020828403121561192257600080fd5b6000611930848285016116ed565b91505092915050565b61194281611c5d565b82525050565b61195181611c7d565b82525050565b61196081611c89565b82525050565b600061197182611c52565b808452611985816020860160208601611d66565b61198e81611d99565b602085010191505092915050565b6119a581611d21565b82525050565b6119b481611d33565b82525050565b6119c381611d45565b82525050565b6119d281611c93565b82525050565b60006020820190506119ed6000830184611939565b92915050565b6000608082019050611a086000830187611939565b611a156020830186611939565b611a226040830185611957565b8181036060830152611a348184611966565b905095945050505050565b6000604082019050611a546000830185611939565b611a6160208301846119c9565b9392505050565b6000602082019050611a7d6000830184611948565b92915050565b6000602082019050611a986000830184611957565b92915050565b6000604082019050611ab36000830185611957565b611ac06020830184611957565b9392505050565b60006020820190508181036000830152611ae18184611966565b905092915050565b6000602082019050611afe600083018461199c565b92915050565b6000602082019050611b1960008301846119ab565b92915050565b6000602082019050611b3460008301846119ba565b92915050565b6000602082019050611b4f60008301846119c9565b92915050565b6000604051905081810181811067ffffffffffffffff82111715611b7857600080fd5b8060405250919050565b600067ffffffffffffffff821115611b9957600080fd5b602082029050602081019050919050565b600067ffffffffffffffff821115611bc157600080fd5b602082029050602081019050919050565b600067ffffffffffffffff821115611be957600080fd5b602082029050602081019050919050565b600067ffffffffffffffff821115611c1157600080fd5b601f19601f8301169050602081019050919050565b600067ffffffffffffffff821115611c3d57600080fd5b601f19601f8301169050602081019050919050565b600081519050919050565b600073ffffffffffffffffffffffffffffffffffffffff82169050919050565b60008115159050919050565b6000819050919050565b6000819050919050565b600073ffffffffffffffffffffffffffffffffffffffff82169050919050565b60008115159050919050565b6000819050919050565b6000611cde82611c5d565b9050919050565b6000600482101515611cf657600080fd5b819050919050565b6000600582101515611d0f57600080fd5b819050919050565b6000819050919050565b6000611d2c82611c5d565b9050919050565b6000611d3e82611c5d565b9050919050565b6000611d5082611c5d565b9050919050565b82818337600083830152505050565b60005b83811015611d84578082015181840152602081019050611d69565b83811115611d93576000848401525b50505050565b6000601f19601f8301169050919050565b80825550505600a265627a7a723058209b9aedf95695325952bbdd9dcb432951fc1bee49cb6b3b93993ed61883d8c0596c6578706572696d656e74616cf50037",
  "source": "pragma solidity ^0.4.24;\npragma experimental ABIEncoderV2;\n\nimport \"@aragon/os/contracts/apps/AragonApp.sol\";\n\ncontract PandoApp is AragonApp {\n    enum RFLState   { Pending, Accepted, Issued, Rejected, Cancelled }\n    enum RFIState   { Pending, Merged, Rejected, Cancelled }\n    enum RFISorting { Merge, Reject }\n\n    struct IID {\n        address api;\n        bytes32 hash;\n    }\n\n    struct IIndividuation {\n        address origin;\n        string  tree;\n        string  message;\n        string  metadata;\n        IID[]   parents;\n    }\n\n    struct Individuation {\n        address origin;\n        uint256 blockstamp;\n        string  tree;\n        string  message;\n        string  metadata;\n        IID[]   parents;\n    }\n\n    struct RFI {\n        IIndividuation individuation;\n        uint256        blockstamp;\n        RFIState       state;\n        uint256[]      RFLids;\n    }\n\n    struct ILineage {\n        address  destination;\n        uint256  minimum;\n        string   metadata;\n    }\n\n    struct RFL {\n        ILineage lineage;\n        uint256  blockstamp;\n        uint256  value;\n        RFLState state;\n        uint256  RFIid;\n    }\n\n    function isPending(RFI _RFI) public pure returns (bool) {\n        return _RFI.state == RFIState.Pending;\n    }\n\n    function isPending(RFL _RFL) public pure returns (bool) {\n        return _RFL.state == RFLState.Pending;\n    }\n\n    function isAccepted(RFL _RFL) public pure returns (bool) {\n        return _RFL.state == RFLState.Accepted;\n    }\n\n    function hash(Individuation _individuation) public pure returns (bytes32) {\n        return keccak256(\n            abi.encodePacked(\n                _individuation.origin,\n                _individuation.blockstamp,\n                _individuation.tree,\n                _individuation.message,\n                _individuation.metadata,\n                _individuation.parents)\n            );\n    }\n}\n",
  "sourcePath": "/Users/osarrouy/Documents/dapp/@pando/packages/core/contracts/core/PandoApp.sol",
  "compiler": {
    "name": "solc",
    "version": "0.4.24+commit.e67f0147.Emscripten.clang"
  },
  "schemaVersion": "2.0.1",
  "updatedAt": "2018-11-28T11:37:59.911Z"
}