{
  "contractName": "EVMScriptRegistryConstants",
  "abi": [
    {
      "constant": true,
      "inputs": [],
      "name": "EVMSCRIPT_REGISTRY_APP_ID",
      "outputs": [
        {
          "name": "",
          "type": "bytes32"
        }
      ],
      "payable": false,
      "stateMutability": "view",
      "type": "function"
    }
  ],
  "bytecode": "0x608060405234801561001057600080fd5b5060c78061001f6000396000f300608060405260043610603f576000357c0100000000000000000000000000000000000000000000000000000000900463ffffffff16806360b1e057146044575b600080fd5b348015604f57600080fd5b5060566074565b60405180826000191660001916815260200191505060405180910390f35b7fddbcfd564f642ab5627cf68b9b7d374fb4f8a36e941a75d89c87998cef03bd61600102815600a165627a7a72305820bcd0418ccbc0b3eb4ed5b031ee67708c19ffd51e5191fd51577ed30082a0156f0029",
  "source": "/*\n * SPDX-License-Identitifer:    MIT\n */\n\npragma solidity ^0.4.24;\n\nimport \"./IEVMScriptExecutor.sol\";\n\n\ncontract EVMScriptRegistryConstants {\n    /* Hardcoded constants to save gas\n    bytes32 public constant EVMSCRIPT_REGISTRY_APP_ID = apmNamehash(\"evmreg\");\n    */\n    bytes32 public constant EVMSCRIPT_REGISTRY_APP_ID = 0xddbcfd564f642ab5627cf68b9b7d374fb4f8a36e941a75d89c87998cef03bd61;\n}\n\n\ninterface IEVMScriptRegistry {\n    function addScriptExecutor(IEVMScriptExecutor executor) external returns (uint id);\n    function disableScriptExecutor(uint256 executorId) external;\n\n    // TODO: this should be external\n    // See https://github.com/ethereum/solidity/issues/4832\n    function getScriptExecutor(bytes script) public view returns (IEVMScriptExecutor);\n}\n",
  "sourcePath": "@aragon/os/contracts/evmscript/IEVMScriptRegistry.sol",
  "compiler": {
    "name": "solc",
    "version": "0.4.24+commit.e67f0147.Emscripten.clang"
  },
  "schemaVersion": "2.0.1",
  "updatedAt": "2018-11-25T16:34:26.754Z"
}