{
  "contractName": "KernelConstants",
  "abi": [
    {
      "constant": true,
      "inputs": [],
      "name": "KERNEL_APP_ID",
      "outputs": [
        {
          "name": "",
          "type": "bytes32"
        }
      ],
      "payable": false,
      "stateMutability": "view",
      "type": "function"
    },
    {
      "constant": true,
      "inputs": [],
      "name": "APP_ADDR_NAMESPACE",
      "outputs": [
        {
          "name": "",
          "type": "bytes32"
        }
      ],
      "payable": false,
      "stateMutability": "view",
      "type": "function"
    },
    {
      "constant": true,
      "inputs": [],
      "name": "CORE_NAMESPACE",
      "outputs": [
        {
          "name": "",
          "type": "bytes32"
        }
      ],
      "payable": false,
      "stateMutability": "view",
      "type": "function"
    },
    {
      "constant": true,
      "inputs": [],
      "name": "ACL_APP_ID",
      "outputs": [
        {
          "name": "",
          "type": "bytes32"
        }
      ],
      "payable": false,
      "stateMutability": "view",
      "type": "function"
    },
    {
      "constant": true,
      "inputs": [],
      "name": "APP_BASES_NAMESPACE",
      "outputs": [
        {
          "name": "",
          "type": "bytes32"
        }
      ],
      "payable": false,
      "stateMutability": "view",
      "type": "function"
    }
  ],
  "bytecode": "0x608060405234801561001057600080fd5b50610260806100206000396000f30060806040526004361061006d576000357c0100000000000000000000000000000000000000000000000000000000900463ffffffff1680631113ed0d14610072578063178e6079146100a5578063756f6049146100d8578063cbcc65eb1461010b578063db8a61d41461013e575b600080fd5b34801561007e57600080fd5b50610087610171565b60405180826000191660001916815260200191505060405180910390f35b3480156100b157600080fd5b506100ba610198565b60405180826000191660001916815260200191505060405180910390f35b3480156100e457600080fd5b506100ed6101bf565b60405180826000191660001916815260200191505060405180910390f35b34801561011757600080fd5b506101206101e6565b60405180826000191660001916815260200191505060405180910390f35b34801561014a57600080fd5b5061015361020d565b60405180826000191660001916815260200191505060405180910390f35b7f3b4bf6bf3ad5000ecf0f989d5befde585c6860fea3e574a4fab4c49d1c177d9c60010281565b7fd6f028ca0e8edb4a8c9757ca4fdccab25fa1e0317da1188108f7d2dee14902fb60010281565b7fc681a85306374a5ab27f0bbc385296a54bcd314a1948b6cf61c4ea1bc44bb9f860010281565b7fe3262375f45a6e2026b7e7b18c2b807434f2508fe1a2a3dfb493c7df8f4aad6a60010281565b7ff1f3eb40f5bc1ad1344716ced8b8a0431d840b5783aea1fd01786bc26f35ac0f600102815600a165627a7a723058209c6f75e73203ec6c7d7af4188c213dab90e5629191a4ac17315e5b254f668e720029",
  "source": "pragma solidity 0.4.24;\n\n\ncontract KernelConstants {\n    /*\n    bytes32 public constant CORE_NAMESPACE = keccak256(\"core\");\n    bytes32 public constant APP_BASES_NAMESPACE = keccak256(\"base\");\n    bytes32 public constant APP_ADDR_NAMESPACE = keccak256(\"app\");\n\n    bytes32 public constant KERNEL_APP_ID = apmNamehash(\"kernel\");\n    bytes32 public constant ACL_APP_ID = apmNamehash(\"acl\");\n    */\n    bytes32 public constant CORE_NAMESPACE = 0xc681a85306374a5ab27f0bbc385296a54bcd314a1948b6cf61c4ea1bc44bb9f8;\n    bytes32 public constant APP_BASES_NAMESPACE = 0xf1f3eb40f5bc1ad1344716ced8b8a0431d840b5783aea1fd01786bc26f35ac0f;\n    bytes32 public constant APP_ADDR_NAMESPACE = 0xd6f028ca0e8edb4a8c9757ca4fdccab25fa1e0317da1188108f7d2dee14902fb;\n\n    bytes32 public constant KERNEL_APP_ID = 0x3b4bf6bf3ad5000ecf0f989d5befde585c6860fea3e574a4fab4c49d1c177d9c;\n    bytes32 public constant ACL_APP_ID = 0xe3262375f45a6e2026b7e7b18c2b807434f2508fe1a2a3dfb493c7df8f4aad6a;\n}\n",
  "sourcePath": "@aragon/os/contracts/kernel/KernelConstants.sol",
  "compiler": {
    "name": "solc",
    "version": "0.4.24+commit.e67f0147.Emscripten.clang"
  },
  "schemaVersion": "2.0.1",
  "updatedAt": "2018-11-25T16:34:26.753Z"
}