{
  "contractName": "PandoLineage",
  "abi": [
    {
      "constant": true,
      "inputs": [],
      "name": "hasInitialized",
      "outputs": [
        {
          "name": "",
          "type": "bool"
        }
      ],
      "payable": false,
      "stateMutability": "view",
      "type": "function"
    },
    {
      "constant": true,
      "inputs": [],
      "name": "KERNEL_APP_ID",
      "outputs": [
        {
          "name": "",
          "type": "bytes32"
        }
      ],
      "payable": false,
      "stateMutability": "view",
      "type": "function"
    },
    {
      "constant": true,
      "inputs": [],
      "name": "APP_ADDR_NAMESPACE",
      "outputs": [
        {
          "name": "",
          "type": "bytes32"
        }
      ],
      "payable": false,
      "stateMutability": "view",
      "type": "function"
    },
    {
      "constant": true,
      "inputs": [],
      "name": "getRecoveryVault",
      "outputs": [
        {
          "name": "",
          "type": "address"
        }
      ],
      "payable": false,
      "stateMutability": "view",
      "type": "function"
    },
    {
      "constant": true,
      "inputs": [],
      "name": "EVMSCRIPT_REGISTRY_APP_ID",
      "outputs": [
        {
          "name": "",
          "type": "bytes32"
        }
      ],
      "payable": false,
      "stateMutability": "view",
      "type": "function"
    },
    {
      "constant": true,
      "inputs": [],
      "name": "CORE_NAMESPACE",
      "outputs": [
        {
          "name": "",
          "type": "bytes32"
        }
      ],
      "payable": false,
      "stateMutability": "view",
      "type": "function"
    },
    {
      "constant": true,
      "inputs": [
        {
          "name": "token",
          "type": "address"
        }
      ],
      "name": "allowRecoverability",
      "outputs": [
        {
          "name": "",
          "type": "bool"
        }
      ],
      "payable": false,
      "stateMutability": "view",
      "type": "function"
    },
    {
      "constant": true,
      "inputs": [],
      "name": "appId",
      "outputs": [
        {
          "name": "",
          "type": "bytes32"
        }
      ],
      "payable": false,
      "stateMutability": "view",
      "type": "function"
    },
    {
      "constant": true,
      "inputs": [],
      "name": "ETH",
      "outputs": [
        {
          "name": "",
          "type": "address"
        }
      ],
      "payable": false,
      "stateMutability": "view",
      "type": "function"
    },
    {
      "constant": true,
      "inputs": [],
      "name": "getInitializationBlock",
      "outputs": [
        {
          "name": "",
          "type": "uint256"
        }
      ],
      "payable": false,
      "stateMutability": "view",
      "type": "function"
    },
    {
      "constant": false,
      "inputs": [
        {
          "name": "_token",
          "type": "address"
        }
      ],
      "name": "transferToVault",
      "outputs": [],
      "payable": false,
      "stateMutability": "nonpayable",
      "type": "function"
    },
    {
      "constant": true,
      "inputs": [
        {
          "name": "_sender",
          "type": "address"
        },
        {
          "name": "_role",
          "type": "bytes32"
        },
        {
          "name": "_params",
          "type": "uint256[]"
        }
      ],
      "name": "canPerform",
      "outputs": [
        {
          "name": "",
          "type": "bool"
        }
      ],
      "payable": false,
      "stateMutability": "view",
      "type": "function"
    },
    {
      "constant": true,
      "inputs": [],
      "name": "BURN_ROLE",
      "outputs": [
        {
          "name": "",
          "type": "bytes32"
        }
      ],
      "payable": false,
      "stateMutability": "view",
      "type": "function"
    },
    {
      "constant": true,
      "inputs": [],
      "name": "ACL_APP_ID",
      "outputs": [
        {
          "name": "",
          "type": "bytes32"
        }
      ],
      "payable": false,
      "stateMutability": "view",
      "type": "function"
    },
    {
      "constant": true,
      "inputs": [],
      "name": "kernel",
      "outputs": [
        {
          "name": "",
          "type": "address"
        }
      ],
      "payable": false,
      "stateMutability": "view",
      "type": "function"
    },
    {
      "constant": true,
      "inputs": [],
      "name": "APP_BASES_NAMESPACE",
      "outputs": [
        {
          "name": "",
          "type": "bytes32"
        }
      ],
      "payable": false,
      "stateMutability": "view",
      "type": "function"
    },
    {
      "constant": true,
      "inputs": [],
      "name": "isPetrified",
      "outputs": [
        {
          "name": "",
          "type": "bool"
        }
      ],
      "payable": false,
      "stateMutability": "view",
      "type": "function"
    },
    {
      "constant": true,
      "inputs": [],
      "name": "MINT_ROLE",
      "outputs": [
        {
          "name": "",
          "type": "bytes32"
        }
      ],
      "payable": false,
      "stateMutability": "view",
      "type": "function"
    },
    {
      "constant": true,
      "inputs": [
        {
          "name": "_script",
          "type": "bytes"
        }
      ],
      "name": "getExecutor",
      "outputs": [
        {
          "name": "",
          "type": "address"
        }
      ],
      "payable": false,
      "stateMutability": "view",
      "type": "function"
    },
    {
      "constant": true,
      "inputs": [],
      "name": "token",
      "outputs": [
        {
          "name": "",
          "type": "address"
        }
      ],
      "payable": false,
      "stateMutability": "view",
      "type": "function"
    },
    {
      "anonymous": false,
      "inputs": [
        {
          "indexed": true,
          "name": "executor",
          "type": "address"
        },
        {
          "indexed": false,
          "name": "script",
          "type": "bytes"
        },
        {
          "indexed": false,
          "name": "input",
          "type": "bytes"
        },
        {
          "indexed": false,
          "name": "returnData",
          "type": "bytes"
        }
      ],
      "name": "ScriptResult",
      "type": "event"
    },
    {
      "constant": false,
      "inputs": [
        {
          "name": "_token",
          "type": "address"
        }
      ],
      "name": "initialize",
      "outputs": [],
      "payable": false,
      "stateMutability": "nonpayable",
      "type": "function"
    },
    {
      "constant": false,
      "inputs": [
        {
          "name": "_receiver",
          "type": "address"
        },
        {
          "name": "_amount",
          "type": "uint256"
        }
      ],
      "name": "mint",
      "outputs": [],
      "payable": false,
      "stateMutability": "nonpayable",
      "type": "function"
    },
    {
      "constant": false,
      "inputs": [
        {
          "name": "_holder",
          "type": "address"
        },
        {
          "name": "_amount",
          "type": "uint256"
        }
      ],
      "name": "burn",
      "outputs": [],
      "payable": false,
      "stateMutability": "nonpayable",
      "type": "function"
    },
    {
      "constant": false,
      "inputs": [
        {
          "name": "",
          "type": "address"
        }
      ],
      "name": "proxyPayment",
      "outputs": [
        {
          "name": "",
          "type": "bool"
        }
      ],
      "payable": true,
      "stateMutability": "payable",
      "type": "function"
    },
    {
      "constant": false,
      "inputs": [
        {
          "name": "_from",
          "type": "address"
        },
        {
          "name": "_to",
          "type": "address"
        },
        {
          "name": "_amount",
          "type": "uint256"
        }
      ],
      "name": "onTransfer",
      "outputs": [
        {
          "name": "",
          "type": "bool"
        }
      ],
      "payable": false,
      "stateMutability": "nonpayable",
      "type": "function"
    },
    {
      "constant": false,
      "inputs": [
        {
          "name": "",
          "type": "address"
        },
        {
          "name": "",
          "type": "address"
        },
        {
          "name": "",
          "type": "uint256"
        }
      ],
      "name": "onApprove",
      "outputs": [
        {
          "name": "",
          "type": "bool"
        }
      ],
      "payable": false,
      "stateMutability": "nonpayable",
      "type": "function"
    }
  ],
  "bytecode": "0x60806040526200001d62000023640100000000026401000000009004565b6200015b565b60006200003e62000087640100000000026401000000009004565b1415156200004b57600080fd5b620000857fffffffffffffffffffffffffffffffffffffffffffffffffffffffffffffffff620000d4640100000000026401000000009004565b565b6000620000cf7febb05b386a8d34882b8711d156f463690983dc47815980fb82aeeff1aa43579e60010260001916620001496401000000000262001323176401000000009004565b905090565b6000620000ef62000087640100000000026401000000009004565b141515620000fc57600080fd5b62000146817febb05b386a8d34882b8711d156f463690983dc47815980fb82aeeff1aa43579e600102600019166200015464010000000002620014e6179091906401000000009004565b50565b600081549050919050565b8082555050565b611dd6806200016b6000396000f300608060405260043610610154576000357c0100000000000000000000000000000000000000000000000000000000900463ffffffff1680630803fac0146101595780631113ed0d14610184578063178e6079146101af57806332f0a3b5146101da57806340c10f19146102055780634a3931491461022e57806360b1e0571461026b578063756f6049146102965780637e7db6e1146102c157806380afdea8146102fe5780638322fff2146103295780638b3dd749146103545780639d4941d81461037f5780639dc29fac146103a8578063a1658fad146103d1578063b930908f1461040e578063c4d66de814610439578063cbcc65eb14610462578063d4aae0c41461048d578063da682aeb146104b8578063db8a61d4146104f5578063de4796ed14610520578063e9a9c8501461054b578063f48c305414610576578063f92a79ff146105a6578063fc0c546a146105e3575b600080fd5b34801561016557600080fd5b5061016e61060e565b60405161017b9190611a89565b60405180910390f35b34801561019057600080fd5b50610199610639565b6040516101a69190611aa4565b60405180910390f35b3480156101bb57600080fd5b506101c4610660565b6040516101d19190611aa4565b60405180910390f35b3480156101e657600080fd5b506101ef610687565b6040516101fc91906119f9565b60405180910390f35b34801561021157600080fd5b5061022c60048036036102279190810190611770565b610773565b005b34801561023a57600080fd5b50610255600480360361025091908101906116ba565b6107fe565b6040516102629190611a89565b60405180910390f35b34801561027757600080fd5b5061028061080a565b60405161028d9190611aa4565b60405180910390f35b3480156102a257600080fd5b506102ab610831565b6040516102b89190611aa4565b60405180910390f35b3480156102cd57600080fd5b506102e860048036036102e39190810190611668565b610858565b6040516102f59190611a89565b60405180910390f35b34801561030a57600080fd5b50610313610863565b6040516103209190611aa4565b60405180910390f35b34801561033557600080fd5b5061033e61089a565b60405161034b91906119f9565b60405180910390f35b34801561036057600080fd5b5061036961089f565b6040516103769190611bb6565b60405180910390f35b34801561038b57600080fd5b506103a660048036036103a19190810190611668565b6108d6565b005b3480156103b457600080fd5b506103cf60048036036103ca9190810190611770565b610afc565b005b3480156103dd57600080fd5b506103f860048036036103f39190810190611709565b610c48565b6040516104059190611a89565b60405180910390f35b34801561041a57600080fd5b50610423610d80565b6040516104309190611aa4565b60405180910390f35b34801561044557600080fd5b50610460600480360361045b919081019061183f565b610db9565b005b34801561046e57600080fd5b50610477610fce565b6040516104849190611aa4565b60405180910390f35b34801561049957600080fd5b506104a2610ff5565b6040516104af9190611b25565b60405180910390f35b3480156104c457600080fd5b506104df60048036036104da91908101906116ba565b61102c565b6040516104ec9190611a89565b60405180910390f35b34801561050157600080fd5b5061050a611038565b6040516105179190611aa4565b60405180910390f35b34801561052c57600080fd5b5061053561105f565b6040516105429190611a89565b60405180910390f35b34801561055757600080fd5b50610560611090565b60405161056d9190611aa4565b60405180910390f35b610590600480360361058b9190810190611668565b6110c9565b60405161059d9190611a89565b60405180910390f35b3480156105b257600080fd5b506105cd60048036036105c891908101906117d5565b611165565b6040516105da9190611b0a565b60405180910390f35b3480156105ef57600080fd5b506105f861121c565b6040516106059190611b40565b60405180910390f35b60008061061961089f565b905060008114158015610633575080610630611241565b10155b91505090565b7f3b4bf6bf3ad5000ecf0f989d5befde585c6860fea3e574a4fab4c49d1c177d9c60010281565b7fd6f028ca0e8edb4a8c9757ca4fdccab25fa1e0317da1188108f7d2dee14902fb60010281565b60008073ffffffffffffffffffffffffffffffffffffffff166106a8610ff5565b73ffffffffffffffffffffffffffffffffffffffff16141515156106cb57600080fd5b6106d3610ff5565b73ffffffffffffffffffffffffffffffffffffffff166332f0a3b56040518163ffffffff167c0100000000000000000000000000000000000000000000000000000000028152600401602060405180830381600087803b15801561073657600080fd5b505af115801561074a573d6000803e3d6000fd5b505050506040513d601f19601f8201168201806040525061076e9190810190611691565b905090565b60405180807f4d494e545f524f4c450000000000000000000000000000000000000000000000815250600901905060405180910390206107e4338260006040519080825280602002602001820160405280156107de5781602001602082028038833980820191505090505b50610c48565b15156107ef57600080fd5b6107f98383611249565b505050565b60008090509392505050565b7fddbcfd564f642ab5627cf68b9b7d374fb4f8a36e941a75d89c87998cef03bd6160010281565b7fc681a85306374a5ab27f0bbc385296a54bcd314a1948b6cf61c4ea1bc44bb9f860010281565b600060019050919050565b60006108957fd625496217aa6a3453eecb9c3489dc5a53e6c67b444329ea2b2cbc9ff547639b60010260001916611318565b905090565b600081565b60006108d17febb05b386a8d34882b8711d156f463690983dc47815980fb82aeeff1aa43579e60010260001916611323565b905090565b6000806108e283610858565b15156108ed57600080fd5b6108f5610687565b91506109008261132e565b151561090b57600080fd5b600073ffffffffffffffffffffffffffffffffffffffff168373ffffffffffffffffffffffffffffffffffffffff1614156109a3578173ffffffffffffffffffffffffffffffffffffffff166108fc3073ffffffffffffffffffffffffffffffffffffffff16319081150290604051600060405180830381858888f1935050505015801561099d573d6000803e3d6000fd5b50610af7565b8273ffffffffffffffffffffffffffffffffffffffff166370a08231306040518263ffffffff167c01000000000000000000000000000000000000000000000000000000000281526004016109f89190611b5b565b602060405180830381600087803b158015610a1257600080fd5b505af1158015610a26573d6000803e3d6000fd5b505050506040513d601f19601f82011682018060405250610a4a9190810190611868565b90508273ffffffffffffffffffffffffffffffffffffffff1663a9059cbb83836040518363ffffffff167c0100000000000000000000000000000000000000000000000000000000028152600401610aa3929190611a60565b602060405180830381600087803b158015610abd57600080fd5b505af1158015610ad1573d6000803e3d6000fd5b505050506040513d601f19601f82011682018060405250610af591908101906117ac565b505b505050565b60405180807f4255524e5f524f4c45000000000000000000000000000000000000000000000081525060090190506040518091039020610b6d33826000604051908082528060200260200182016040528015610b675781602001602082028038833980820191505090505b50610c48565b1515610b7857600080fd5b6000809054906101000a900473ffffffffffffffffffffffffffffffffffffffff1673ffffffffffffffffffffffffffffffffffffffff1663d3ce77fe84846040518363ffffffff167c0100000000000000000000000000000000000000000000000000000000028152600401610bf0929190611a60565b602060405180830381600087803b158015610c0a57600080fd5b505af1158015610c1e573d6000803e3d6000fd5b505050506040513d601f19601f82011682018060405250610c4291908101906117ac565b50505050565b60008060606000610c5761060e565b1515610c665760009350610d76565b610c6e610ff5565b9250600073ffffffffffffffffffffffffffffffffffffffff168373ffffffffffffffffffffffffffffffffffffffff161415610cae5760009350610d76565b600085511115610cc657602085510290508491508082525b8273ffffffffffffffffffffffffffffffffffffffff1663fdef9106883089866040518563ffffffff167c0100000000000000000000000000000000000000000000000000000000028152600401610d219493929190611a14565b602060405180830381600087803b158015610d3b57600080fd5b505af1158015610d4f573d6000803e3d6000fd5b505050506040513d601f19601f82011682018060405250610d7391908101906117ac565b93505b5050509392505050565b60405180807f4255524e5f524f4c4500000000000000000000000000000000000000000000008152506009019050604051809103902081565b6000610dc361089f565b141515610dcf57600080fd5b3073ffffffffffffffffffffffffffffffffffffffff168173ffffffffffffffffffffffffffffffffffffffff1663f77c47916040518163ffffffff167c0100000000000000000000000000000000000000000000000000000000028152600401602060405180830381600087803b158015610e4a57600080fd5b505af1158015610e5e573d6000803e3d6000fd5b505050506040513d601f19601f82011682018060405250610e829190810190611691565b73ffffffffffffffffffffffffffffffffffffffff16141515610eda576040517f08c379a0000000000000000000000000000000000000000000000000000000008152600401610ed190611b76565b60405180910390fd5b610ee2611380565b806000806101000a81548173ffffffffffffffffffffffffffffffffffffffff021916908373ffffffffffffffffffffffffffffffffffffffff1602179055506000809054906101000a900473ffffffffffffffffffffffffffffffffffffffff1673ffffffffffffffffffffffffffffffffffffffff1663f41e60c560006040518263ffffffff167c0100000000000000000000000000000000000000000000000000000000028152600401610f999190611a89565b600060405180830381600087803b158015610fb357600080fd5b505af1158015610fc7573d6000803e3d6000fd5b5050505050565b7fe3262375f45a6e2026b7e7b18c2b807434f2508fe1a2a3dfb493c7df8f4aad6a60010281565b60006110277f4172f0f7d2289153072b0a6ca36959e0cbe2efc3afe50fc81636caa96338137b600102600019166113d9565b905090565b60008090509392505050565b7ff1f3eb40f5bc1ad1344716ced8b8a0431d840b5783aea1fd01786bc26f35ac0f60010281565b60007fffffffffffffffffffffffffffffffffffffffffffffffffffffffffffffffff61108a61089f565b14905090565b60405180807f4d494e545f524f4c4500000000000000000000000000000000000000000000008152506009019050604051809103902081565b60008060009054906101000a900473ffffffffffffffffffffffffffffffffffffffff1673ffffffffffffffffffffffffffffffffffffffff163373ffffffffffffffffffffffffffffffffffffffff1614151561115c576040517f08c379a000000000000000000000000000000000000000000000000000000000815260040161115390611b96565b60405180910390fd5b60009050919050565b600061116f6113e4565b73ffffffffffffffffffffffffffffffffffffffff166304bf2a7f836040518263ffffffff167c01000000000000000000000000000000000000000000000000000000000281526004016111c39190611ae8565b602060405180830381600087803b1580156111dd57600080fd5b505af11580156111f1573d6000803e3d6000fd5b505050506040513d601f19601f820116820180604052506112159190810190611816565b9050919050565b6000809054906101000a900473ffffffffffffffffffffffffffffffffffffffff1681565b600043905090565b6000809054906101000a900473ffffffffffffffffffffffffffffffffffffffff1673ffffffffffffffffffffffffffffffffffffffff1663827f32c083836040518363ffffffff167c01000000000000000000000000000000000000000000000000000000000281526004016112c1929190611a60565b602060405180830381600087803b1580156112db57600080fd5b505af11580156112ef573d6000803e3d6000fd5b505050506040513d601f19601f8201168201806040525061131391908101906117ac565b505050565b600081549050919050565b600081549050919050565b600080600073ffffffffffffffffffffffffffffffffffffffff168373ffffffffffffffffffffffffffffffffffffffff16141561136f576000915061137a565b823b90506000811191505b50919050565b600061138a61089f565b14151561139657600080fd5b6113d76113a1611241565b7febb05b386a8d34882b8711d156f463690983dc47815980fb82aeeff1aa43579e600102600019166114e690919063ffffffff16565b565b600081549050919050565b6000806113ef610ff5565b73ffffffffffffffffffffffffffffffffffffffff1663be00bbd87fd6f028ca0e8edb4a8c9757ca4fdccab25fa1e0317da1188108f7d2dee14902fb6001027fddbcfd564f642ab5627cf68b9b7d374fb4f8a36e941a75d89c87998cef03bd616001026040518363ffffffff167c010000000000000000000000000000000000000000000000000000000002815260040161148b929190611abf565b602060405180830381600087803b1580156114a557600080fd5b505af11580156114b9573d6000803e3d6000fd5b505050506040513d601f19601f820116820180604052506114dd9190810190611691565b90508091505090565b8082555050565b60006114f98235611c9d565b905092915050565b600061150d8251611c9d565b905092915050565b600082601f830112151561152857600080fd5b813561153b61153682611bfe565b611bd1565b9150818183526020840193506020810190508385602084028201111561156057600080fd5b60005b8381101561159057816115768882611640565b845260208401935060208301925050600181019050611563565b5050505092915050565b60006115a68251611cbd565b905092915050565b60006115ba8235611cc9565b905092915050565b600082601f83011215156115d557600080fd5b81356115e86115e382611c26565b611bd1565b9150808252602083016020830185838301111561160457600080fd5b61160f838284611d49565b50505092915050565b60006116248251611cd3565b905092915050565b60006116388235611ce5565b905092915050565b600061164c8235611cf7565b905092915050565b60006116608251611cf7565b905092915050565b60006020828403121561167a57600080fd5b6000611688848285016114ed565b91505092915050565b6000602082840312156116a357600080fd5b60006116b184828501611501565b91505092915050565b6000806000606084860312156116cf57600080fd5b60006116dd868287016114ed565b93505060206116ee868287016114ed565b92505060406116ff86828701611640565b9150509250925092565b60008060006060848603121561171e57600080fd5b600061172c868287016114ed565b935050602061173d868287016115ae565b925050604084013567ffffffffffffffff81111561175a57600080fd5b61176686828701611515565b9150509250925092565b6000806040838503121561178357600080fd5b6000611791858286016114ed565b92505060206117a285828601611640565b9150509250929050565b6000602082840312156117be57600080fd5b60006117cc8482850161159a565b91505092915050565b6000602082840312156117e757600080fd5b600082013567ffffffffffffffff81111561180157600080fd5b61180d848285016115c2565b91505092915050565b60006020828403121561182857600080fd5b600061183684828501611618565b91505092915050565b60006020828403121561185157600080fd5b600061185f8482850161162c565b91505092915050565b60006020828403121561187a57600080fd5b600061188884828501611654565b91505092915050565b61189a81611c5d565b82525050565b6118a981611c7d565b82525050565b6118b881611c89565b82525050565b60006118c982611c52565b8084526118dd816020860160208601611d58565b6118e681611d8b565b602085010191505092915050565b6118fd81611d01565b82525050565b61190c81611d13565b82525050565b61191b81611d25565b82525050565b61192a81611d37565b82525050565b6000603682527f7468697320636f6e7472616374206973206e6f7420736574206173206120636f60208301527f6e74726f6c6c6572206f66207468697320746f6b656e000000000000000000006040830152606082019050919050565b6000603682527f6f6e6c792074686520636f6e74726f6c6c656420746f6b656e2063616e20736560208301527f6e642045544820746f20746869732061646472657373000000000000000000006040830152606082019050919050565b6119f381611c93565b82525050565b6000602082019050611a0e6000830184611891565b92915050565b6000608082019050611a296000830187611891565b611a366020830186611891565b611a4360408301856118af565b8181036060830152611a5581846118be565b905095945050505050565b6000604082019050611a756000830185611891565b611a8260208301846119ea565b9392505050565b6000602082019050611a9e60008301846118a0565b92915050565b6000602082019050611ab960008301846118af565b92915050565b6000604082019050611ad460008301856118af565b611ae160208301846118af565b9392505050565b60006020820190508181036000830152611b0281846118be565b905092915050565b6000602082019050611b1f60008301846118f4565b92915050565b6000602082019050611b3a6000830184611903565b92915050565b6000602082019050611b556000830184611912565b92915050565b6000602082019050611b706000830184611921565b92915050565b60006020820190508181036000830152611b8f81611930565b9050919050565b60006020820190508181036000830152611baf8161198d565b9050919050565b6000602082019050611bcb60008301846119ea565b92915050565b6000604051905081810181811067ffffffffffffffff82111715611bf457600080fd5b8060405250919050565b600067ffffffffffffffff821115611c1557600080fd5b602082029050602081019050919050565b600067ffffffffffffffff821115611c3d57600080fd5b601f19601f8301169050602081019050919050565b600081519050919050565b600073ffffffffffffffffffffffffffffffffffffffff82169050919050565b60008115159050919050565b6000819050919050565b6000819050919050565b600073ffffffffffffffffffffffffffffffffffffffff82169050919050565b60008115159050919050565b6000819050919050565b6000611cde82611c5d565b9050919050565b6000611cf082611c5d565b9050919050565b6000819050919050565b6000611d0c82611c5d565b9050919050565b6000611d1e82611c5d565b9050919050565b6000611d3082611c5d565b9050919050565b6000611d4282611c5d565b9050919050565b82818337600083830152505050565b60005b83811015611d76578082015181840152602081019050611d5b565b83811115611d85576000848401525b50505050565b6000601f19601f83011690509190505600a265627a7a7230582036bac31ee551e8ad94bef1abb1b7f232be84bfd99a364b44b7acc60e5d50bfd66c6578706572696d656e74616cf50037",
  "source": "pragma solidity ^0.4.24;\npragma experimental ABIEncoderV2;\n\nimport \"@aragon/os/contracts/apps/AragonApp.sol\";\nimport \"@aragon/apps-shared-minime/contracts/ITokenController.sol\";\nimport \"@aragon/apps-shared-minime/contracts/MiniMeToken.sol\";\n\n\ncontract PandoLineage is ITokenController, AragonApp {\n    bytes32 public constant MINT_ROLE = keccak256(\"MINT_ROLE\");\n    bytes32 public constant BURN_ROLE = keccak256(\"BURN_ROLE\");\n\n    MiniMeToken public token;\n\n\n    function initialize(MiniMeToken _token) external onlyInit {\n        require(_token.controller() == address(this), \"this contract is not set as a controller of this token\");\n\n        initialized();\n\n        token = _token;\n        token.enableTransfers(false);\n    }\n\n    function mint(address _receiver, uint256 _amount) external auth(MINT_ROLE) {\n        _mint(_receiver, _amount);\n    }\n\n    function burn(address _holder, uint256 _amount) external auth(BURN_ROLE) {\n        // minime.destroyTokens() never returns false, only reverts on failure\n        token.destroyTokens(_holder, _amount);\n    }\n\n    function proxyPayment(address) public payable returns (bool) {\n        // Sender check is required to avoid anyone sending ETH to the Token Manager through this method\n        // Even though it is tested, solidity-coverage doesnt get it because\n        // MiniMeToken is not instrumented and entire tx is reverted\n        require(msg.sender == address(token), \"only the controlled token can send ETH to this address\");\n        return false;\n    }\n\n    function onTransfer(address _from, address _to, uint _amount) external returns(bool) {\n        return false;\n    }\n\n    function onApprove(address, address, uint) public returns (bool) {\n        return false;\n    }\n\n    function _mint(address _receiver, uint256 _amount) internal {\n        token.generateTokens(_receiver, _amount); // minime.generateTokens() never returns false\n    }\n}\n",
  "sourcePath": "/Users/osarrouy/Documents/dapp/@pando/packages/core/contracts/core/PandoLineage.sol",
  "compiler": {
    "name": "solc",
    "version": "0.4.24+commit.e67f0147.Emscripten.clang"
  },
  "schemaVersion": "2.0.1",
  "updatedAt": "2018-11-25T16:34:26.776Z"
}