{
  "contractName": "PandoAPI",
  "abi": [
    {
      "constant": true,
      "inputs": [],
      "name": "hasInitialized",
      "outputs": [
        {
          "name": "",
          "type": "bool"
        }
      ],
      "payable": false,
      "stateMutability": "view",
      "type": "function"
    },
    {
      "constant": true,
      "inputs": [],
      "name": "REJECT_RFL_ROLE",
      "outputs": [
        {
          "name": "",
          "type": "bytes32"
        }
      ],
      "payable": false,
      "stateMutability": "view",
      "type": "function"
    },
    {
      "constant": true,
      "inputs": [],
      "name": "RFLsLength",
      "outputs": [
        {
          "name": "",
          "type": "uint256"
        }
      ],
      "payable": false,
      "stateMutability": "view",
      "type": "function"
    },
    {
      "constant": true,
      "inputs": [],
      "name": "KERNEL_APP_ID",
      "outputs": [
        {
          "name": "",
          "type": "bytes32"
        }
      ],
      "payable": false,
      "stateMutability": "view",
      "type": "function"
    },
    {
      "constant": true,
      "inputs": [],
      "name": "APP_ADDR_NAMESPACE",
      "outputs": [
        {
          "name": "",
          "type": "bytes32"
        }
      ],
      "payable": false,
      "stateMutability": "view",
      "type": "function"
    },
    {
      "constant": true,
      "inputs": [],
      "name": "CREATE_RFI_ROLE",
      "outputs": [
        {
          "name": "",
          "type": "bytes32"
        }
      ],
      "payable": false,
      "stateMutability": "view",
      "type": "function"
    },
    {
      "constant": true,
      "inputs": [],
      "name": "MERGE_RFI_ROLE",
      "outputs": [
        {
          "name": "",
          "type": "bytes32"
        }
      ],
      "payable": false,
      "stateMutability": "view",
      "type": "function"
    },
    {
      "constant": true,
      "inputs": [],
      "name": "getRecoveryVault",
      "outputs": [
        {
          "name": "",
          "type": "address"
        }
      ],
      "payable": false,
      "stateMutability": "view",
      "type": "function"
    },
    {
      "constant": true,
      "inputs": [
        {
          "name": "",
          "type": "uint256"
        }
      ],
      "name": "RFIs",
      "outputs": [
        {
          "components": [
            {
              "name": "origin",
              "type": "address"
            },
            {
              "name": "tree",
              "type": "string"
            },
            {
              "name": "message",
              "type": "string"
            },
            {
              "name": "metadata",
              "type": "string"
            },
            {
              "components": [
                {
                  "name": "api",
                  "type": "address"
                },
                {
                  "name": "hash",
                  "type": "bytes32"
                }
              ],
              "name": "parents",
              "type": "tuple[]"
            }
          ],
          "name": "individuation",
          "type": "tuple"
        },
        {
          "name": "blockstamp",
          "type": "uint256"
        },
        {
          "name": "state",
          "type": "uint8"
        }
      ],
      "payable": false,
      "stateMutability": "view",
      "type": "function"
    },
    {
      "constant": true,
      "inputs": [],
      "name": "EVMSCRIPT_REGISTRY_APP_ID",
      "outputs": [
        {
          "name": "",
          "type": "bytes32"
        }
      ],
      "payable": false,
      "stateMutability": "view",
      "type": "function"
    },
    {
      "constant": true,
      "inputs": [],
      "name": "CORE_NAMESPACE",
      "outputs": [
        {
          "name": "",
          "type": "bytes32"
        }
      ],
      "payable": false,
      "stateMutability": "view",
      "type": "function"
    },
    {
      "constant": true,
      "inputs": [
        {
          "name": "token",
          "type": "address"
        }
      ],
      "name": "allowRecoverability",
      "outputs": [
        {
          "name": "",
          "type": "bool"
        }
      ],
      "payable": false,
      "stateMutability": "view",
      "type": "function"
    },
    {
      "constant": true,
      "inputs": [],
      "name": "RFIsLength",
      "outputs": [
        {
          "name": "",
          "type": "uint256"
        }
      ],
      "payable": false,
      "stateMutability": "view",
      "type": "function"
    },
    {
      "constant": true,
      "inputs": [],
      "name": "appId",
      "outputs": [
        {
          "name": "",
          "type": "bytes32"
        }
      ],
      "payable": false,
      "stateMutability": "view",
      "type": "function"
    },
    {
      "constant": true,
      "inputs": [],
      "name": "ETH",
      "outputs": [
        {
          "name": "",
          "type": "address"
        }
      ],
      "payable": false,
      "stateMutability": "view",
      "type": "function"
    },
    {
      "constant": true,
      "inputs": [],
      "name": "getInitializationBlock",
      "outputs": [
        {
          "name": "",
          "type": "uint256"
        }
      ],
      "payable": false,
      "stateMutability": "view",
      "type": "function"
    },
    {
      "constant": true,
      "inputs": [],
      "name": "REJECT_RFI_ROLE",
      "outputs": [
        {
          "name": "",
          "type": "bytes32"
        }
      ],
      "payable": false,
      "stateMutability": "view",
      "type": "function"
    },
    {
      "constant": false,
      "inputs": [
        {
          "name": "_token",
          "type": "address"
        }
      ],
      "name": "transferToVault",
      "outputs": [],
      "payable": false,
      "stateMutability": "nonpayable",
      "type": "function"
    },
    {
      "constant": true,
      "inputs": [
        {
          "name": "_sender",
          "type": "address"
        },
        {
          "name": "_role",
          "type": "bytes32"
        },
        {
          "name": "_params",
          "type": "uint256[]"
        }
      ],
      "name": "canPerform",
      "outputs": [
        {
          "name": "",
          "type": "bool"
        }
      ],
      "payable": false,
      "stateMutability": "view",
      "type": "function"
    },
    {
      "constant": true,
      "inputs": [],
      "name": "genesis",
      "outputs": [
        {
          "name": "",
          "type": "address"
        }
      ],
      "payable": false,
      "stateMutability": "view",
      "type": "function"
    },
    {
      "constant": true,
      "inputs": [],
      "name": "ACCEPT_RFL_ROLE",
      "outputs": [
        {
          "name": "",
          "type": "bytes32"
        }
      ],
      "payable": false,
      "stateMutability": "view",
      "type": "function"
    },
    {
      "constant": true,
      "inputs": [
        {
          "name": "",
          "type": "uint256"
        }
      ],
      "name": "RFLs",
      "outputs": [
        {
          "components": [
            {
              "name": "destination",
              "type": "address"
            },
            {
              "name": "minimum",
              "type": "uint256"
            },
            {
              "name": "metadata",
              "type": "string"
            }
          ],
          "name": "lineage",
          "type": "tuple"
        },
        {
          "name": "blockstamp",
          "type": "uint256"
        },
        {
          "name": "value",
          "type": "uint256"
        },
        {
          "name": "state",
          "type": "uint8"
        },
        {
          "name": "RFIid",
          "type": "uint256"
        }
      ],
      "payable": false,
      "stateMutability": "view",
      "type": "function"
    },
    {
      "constant": true,
      "inputs": [],
      "name": "lineage",
      "outputs": [
        {
          "name": "",
          "type": "address"
        }
      ],
      "payable": false,
      "stateMutability": "view",
      "type": "function"
    },
    {
      "constant": true,
      "inputs": [],
      "name": "ACL_APP_ID",
      "outputs": [
        {
          "name": "",
          "type": "bytes32"
        }
      ],
      "payable": false,
      "stateMutability": "view",
      "type": "function"
    },
    {
      "constant": true,
      "inputs": [],
      "name": "kernel",
      "outputs": [
        {
          "name": "",
          "type": "address"
        }
      ],
      "payable": false,
      "stateMutability": "view",
      "type": "function"
    },
    {
      "constant": true,
      "inputs": [],
      "name": "APP_BASES_NAMESPACE",
      "outputs": [
        {
          "name": "",
          "type": "bytes32"
        }
      ],
      "payable": false,
      "stateMutability": "view",
      "type": "function"
    },
    {
      "constant": true,
      "inputs": [],
      "name": "isPetrified",
      "outputs": [
        {
          "name": "",
          "type": "bool"
        }
      ],
      "payable": false,
      "stateMutability": "view",
      "type": "function"
    },
    {
      "constant": true,
      "inputs": [
        {
          "name": "_script",
          "type": "bytes"
        }
      ],
      "name": "getExecutor",
      "outputs": [
        {
          "name": "",
          "type": "address"
        }
      ],
      "payable": false,
      "stateMutability": "view",
      "type": "function"
    },
    {
      "anonymous": false,
      "inputs": [
        {
          "indexed": true,
          "name": "id",
          "type": "uint256"
        }
      ],
      "name": "CreateRFI",
      "type": "event"
    },
    {
      "anonymous": false,
      "inputs": [
        {
          "indexed": true,
          "name": "id",
          "type": "uint256"
        }
      ],
      "name": "MergeRFI",
      "type": "event"
    },
    {
      "anonymous": false,
      "inputs": [
        {
          "indexed": true,
          "name": "id",
          "type": "uint256"
        }
      ],
      "name": "RejectRFI",
      "type": "event"
    },
    {
      "anonymous": false,
      "inputs": [
        {
          "indexed": true,
          "name": "id",
          "type": "uint256"
        }
      ],
      "name": "CancelRFI",
      "type": "event"
    },
    {
      "anonymous": false,
      "inputs": [
        {
          "indexed": true,
          "name": "id",
          "type": "uint256"
        }
      ],
      "name": "CreateRFL",
      "type": "event"
    },
    {
      "anonymous": false,
      "inputs": [
        {
          "indexed": true,
          "name": "id",
          "type": "uint256"
        },
        {
          "indexed": false,
          "name": "value",
          "type": "uint256"
        }
      ],
      "name": "AcceptRFL",
      "type": "event"
    },
    {
      "anonymous": false,
      "inputs": [
        {
          "indexed": true,
          "name": "id",
          "type": "uint256"
        }
      ],
      "name": "RejectRFL",
      "type": "event"
    },
    {
      "anonymous": false,
      "inputs": [
        {
          "indexed": true,
          "name": "id",
          "type": "uint256"
        }
      ],
      "name": "CancelRFL",
      "type": "event"
    },
    {
      "anonymous": false,
      "inputs": [
        {
          "indexed": true,
          "name": "id",
          "type": "uint256"
        },
        {
          "indexed": false,
          "name": "destination",
          "type": "address"
        },
        {
          "indexed": false,
          "name": "value",
          "type": "uint256"
        }
      ],
      "name": "IssueRFL",
      "type": "event"
    },
    {
      "anonymous": false,
      "inputs": [
        {
          "indexed": true,
          "name": "executor",
          "type": "address"
        },
        {
          "indexed": false,
          "name": "script",
          "type": "bytes"
        },
        {
          "indexed": false,
          "name": "input",
          "type": "bytes"
        },
        {
          "indexed": false,
          "name": "returnData",
          "type": "bytes"
        }
      ],
      "name": "ScriptResult",
      "type": "event"
    },
    {
      "constant": false,
      "inputs": [
        {
          "name": "_genesis",
          "type": "address"
        },
        {
          "name": "_lineage",
          "type": "address"
        }
      ],
      "name": "initialize",
      "outputs": [],
      "payable": false,
      "stateMutability": "nonpayable",
      "type": "function"
    },
    {
      "constant": false,
      "inputs": [
        {
          "components": [
            {
              "name": "origin",
              "type": "address"
            },
            {
              "name": "tree",
              "type": "string"
            },
            {
              "name": "message",
              "type": "string"
            },
            {
              "name": "metadata",
              "type": "string"
            },
            {
              "components": [
                {
                  "name": "api",
                  "type": "address"
                },
                {
                  "name": "hash",
                  "type": "bytes32"
                }
              ],
              "name": "parents",
              "type": "tuple[]"
            }
          ],
          "name": "_individuation",
          "type": "tuple"
        },
        {
          "components": [
            {
              "name": "destination",
              "type": "address"
            },
            {
              "name": "minimum",
              "type": "uint256"
            },
            {
              "name": "metadata",
              "type": "string"
            }
          ],
          "name": "_lineages",
          "type": "tuple[]"
        }
      ],
      "name": "createRFI",
      "outputs": [
        {
          "name": "RFIid",
          "type": "uint256"
        }
      ],
      "payable": false,
      "stateMutability": "nonpayable",
      "type": "function"
    },
    {
      "constant": false,
      "inputs": [
        {
          "name": "_RFIid",
          "type": "uint256"
        }
      ],
      "name": "mergeRFI",
      "outputs": [],
      "payable": false,
      "stateMutability": "nonpayable",
      "type": "function"
    },
    {
      "constant": false,
      "inputs": [
        {
          "name": "_RFIid",
          "type": "uint256"
        }
      ],
      "name": "rejectRFI",
      "outputs": [],
      "payable": false,
      "stateMutability": "nonpayable",
      "type": "function"
    },
    {
      "constant": false,
      "inputs": [
        {
          "name": "_RFLid",
          "type": "uint256"
        },
        {
          "name": "_value",
          "type": "uint256"
        }
      ],
      "name": "acceptRFL",
      "outputs": [],
      "payable": false,
      "stateMutability": "nonpayable",
      "type": "function"
    },
    {
      "constant": false,
      "inputs": [
        {
          "name": "_RFLid",
          "type": "uint256"
        }
      ],
      "name": "rejectRFL",
      "outputs": [],
      "payable": false,
      "stateMutability": "nonpayable",
      "type": "function"
    },
    {
      "constant": true,
      "inputs": [
        {
          "name": "_RFIid",
          "type": "uint256"
        }
      ],
      "name": "canMergeRFI",
      "outputs": [
        {
          "name": "",
          "type": "bool"
        }
      ],
      "payable": false,
      "stateMutability": "view",
      "type": "function"
    },
    {
      "constant": true,
      "inputs": [
        {
          "name": "_RFIid",
          "type": "uint256"
        }
      ],
      "name": "canRejectRFI",
      "outputs": [
        {
          "name": "",
          "type": "bool"
        }
      ],
      "payable": false,
      "stateMutability": "view",
      "type": "function"
    },
    {
      "constant": true,
      "inputs": [
        {
          "name": "_RFLid",
          "type": "uint256"
        },
        {
          "name": "_value",
          "type": "uint256"
        }
      ],
      "name": "canAcceptRFL",
      "outputs": [
        {
          "name": "",
          "type": "bool"
        }
      ],
      "payable": false,
      "stateMutability": "view",
      "type": "function"
    },
    {
      "constant": true,
      "inputs": [
        {
          "name": "_RFLid",
          "type": "uint256"
        }
      ],
      "name": "canRejectRFL",
      "outputs": [
        {
          "name": "",
          "type": "bool"
        }
      ],
      "payable": false,
      "stateMutability": "view",
      "type": "function"
    },
    {
      "constant": true,
      "inputs": [],
      "name": "getLineageToken",
      "outputs": [
        {
          "name": "",
          "type": "address"
        }
      ],
      "payable": false,
      "stateMutability": "view",
      "type": "function"
    },
    {
      "constant": true,
      "inputs": [
        {
          "name": "_RFIid",
          "type": "uint256"
        }
      ],
      "name": "getRFI",
      "outputs": [
        {
          "components": [
            {
              "components": [
                {
                  "name": "origin",
                  "type": "address"
                },
                {
                  "name": "tree",
                  "type": "string"
                },
                {
                  "name": "message",
                  "type": "string"
                },
                {
                  "name": "metadata",
                  "type": "string"
                },
                {
                  "components": [
                    {
                      "name": "api",
                      "type": "address"
                    },
                    {
                      "name": "hash",
                      "type": "bytes32"
                    }
                  ],
                  "name": "parents",
                  "type": "tuple[]"
                }
              ],
              "name": "individuation",
              "type": "tuple"
            },
            {
              "name": "blockstamp",
              "type": "uint256"
            },
            {
              "name": "state",
              "type": "uint8"
            },
            {
              "name": "RFLids",
              "type": "uint256[]"
            }
          ],
          "name": "",
          "type": "tuple"
        }
      ],
      "payable": false,
      "stateMutability": "view",
      "type": "function"
    },
    {
      "constant": true,
      "inputs": [
        {
          "name": "_RFLid",
          "type": "uint256"
        }
      ],
      "name": "getRFL",
      "outputs": [
        {
          "components": [
            {
              "components": [
                {
                  "name": "destination",
                  "type": "address"
                },
                {
                  "name": "minimum",
                  "type": "uint256"
                },
                {
                  "name": "metadata",
                  "type": "string"
                }
              ],
              "name": "lineage",
              "type": "tuple"
            },
            {
              "name": "blockstamp",
              "type": "uint256"
            },
            {
              "name": "value",
              "type": "uint256"
            },
            {
              "name": "state",
              "type": "uint8"
            },
            {
              "name": "RFIid",
              "type": "uint256"
            }
          ],
          "name": "",
          "type": "tuple"
        }
      ],
      "payable": false,
      "stateMutability": "view",
      "type": "function"
    },
    {
      "constant": true,
      "inputs": [],
      "name": "head",
      "outputs": [
        {
          "name": "",
          "type": "bytes32"
        }
      ],
      "payable": false,
      "stateMutability": "view",
      "type": "function"
    },
    {
      "constant": true,
      "inputs": [],
      "name": "getHead",
      "outputs": [
        {
          "components": [
            {
              "name": "origin",
              "type": "address"
            },
            {
              "name": "blockstamp",
              "type": "uint256"
            },
            {
              "name": "tree",
              "type": "string"
            },
            {
              "name": "message",
              "type": "string"
            },
            {
              "name": "metadata",
              "type": "string"
            },
            {
              "components": [
                {
                  "name": "api",
                  "type": "address"
                },
                {
                  "name": "hash",
                  "type": "bytes32"
                }
              ],
              "name": "parents",
              "type": "tuple[]"
            }
          ],
          "name": "",
          "type": "tuple"
        }
      ],
      "payable": false,
      "stateMutability": "view",
      "type": "function"
    },
    {
      "constant": true,
      "inputs": [
        {
          "components": [
            {
              "name": "origin",
              "type": "address"
            },
            {
              "name": "blockstamp",
              "type": "uint256"
            },
            {
              "name": "tree",
              "type": "string"
            },
            {
              "name": "message",
              "type": "string"
            },
            {
              "name": "metadata",
              "type": "string"
            },
            {
              "components": [
                {
                  "name": "api",
                  "type": "address"
                },
                {
                  "name": "hash",
                  "type": "bytes32"
                }
              ],
              "name": "parents",
              "type": "tuple[]"
            }
          ],
          "name": "_individuation",
          "type": "tuple"
        }
      ],
      "name": "getIndividuationHash",
      "outputs": [
        {
          "name": "",
          "type": "bytes32"
        }
      ],
      "payable": false,
      "stateMutability": "pure",
      "type": "function"
    }
  ],
  "bytecode": "0x608060405260006004556000600555620000276200002d640100000000026401000000009004565b62000165565b60006200004862000091640100000000026401000000009004565b1415156200005557600080fd5b6200008f7fffffffffffffffffffffffffffffffffffffffffffffffffffffffffffffffff620000de640100000000026401000000009004565b565b6000620000d97febb05b386a8d34882b8711d156f463690983dc47815980fb82aeeff1aa43579e600102600019166200015364010000000002620034a9176401000000009004565b905090565b6000620000f962000091640100000000026401000000009004565b1415156200010657600080fd5b62000150817febb05b386a8d34882b8711d156f463690983dc47815980fb82aeeff1aa43579e600102600019166200015e640100000000026200388c179091906401000000009004565b50565b600081549050919050565b8082555050565b615c1d80620001756000396000f30060806040526004361061021a576000357c0100000000000000000000000000000000000000000000000000000000900463ffffffff1680630803fac01461021f578063082367801461024a578063103a90c8146102755780631113ed0d146102a0578063143700be146102cb578063178e6079146102f65780632adab4ea146103215780632d2e80121461034c5780633181f6b21461037757806332f0a3b5146103b457806333ff6870146103df5780634752915d1461041c578063485cc955146104595780635bddb4201461048257806360b1e057146104c15780636d5f5ca7146104ec5780636e0b314c14610515578063748b052c1461053e578063756f6049146105675780637e7db6e11461059257806380201af2146105cf57806380afdea8146105fa5780638322fff214610625578063889bd35d146106505780638b3dd7491461068d5780638f7dcfa3146106b857806397569bb1146106e35780639bdc706d1461070e5780639d4941d81461074b578063a1658fad14610774578063a7f0b3de146107b1578063b462e70b146107dc578063c3eefd1e14610807578063c538f7de14610844578063c74656e714610885578063cbcc65eb146108b0578063d4aae0c4146108db578063db8a61d414610906578063dc281aff14610931578063ddf6fa9c1461095c578063de4796ed14610985578063f92a79ff146109b0578063fd47d203146109ed578063fec7d70b14610a2a575b600080fd5b34801561022b57600080fd5b50610234610a67565b604051610241919061550f565b60405180910390f35b34801561025657600080fd5b5061025f610a92565b60405161026c919061552a565b60405180910390f35b34801561028157600080fd5b5061028a610acb565b604051610297919061585d565b60405180910390f35b3480156102ac57600080fd5b506102b5610ad1565b6040516102c2919061552a565b60405180910390f35b3480156102d757600080fd5b506102e0610af8565b6040516102ed919061547f565b60405180910390f35b34801561030257600080fd5b5061030b610bbd565b604051610318919061552a565b60405180910390f35b34801561032d57600080fd5b50610336610be4565b604051610343919061552a565b60405180910390f35b34801561035857600080fd5b50610361610c1d565b60405161036e919061552a565b60405180910390f35b34801561038357600080fd5b5061039e600480360361039991908101906147f0565b610c56565b6040516103ab919061585d565b60405180910390f35b3480156103c057600080fd5b506103c9610cfa565b6040516103d6919061547f565b60405180910390f35b3480156103eb57600080fd5b50610406600480360361040191908101906148de565b610de6565b604051610413919061550f565b60405180910390f35b34801561042857600080fd5b50610443600480360361043e9190810190614930565b611039565b604051610450919061550f565b60405180910390f35b34801561046557600080fd5b50610480600480360361047b91908101906147b4565b6112b7565b005b34801561048e57600080fd5b506104a960048036036104a491908101906148de565b6113aa565b6040516104b8939291906156d7565b60405180910390f35b3480156104cd57600080fd5b506104d66116ef565b6040516104e3919061552a565b60405180910390f35b3480156104f857600080fd5b50610513600480360361050e9190810190614930565b611716565b005b34801561052157600080fd5b5061053c600480360361053791908101906148de565b6117ff565b005b34801561054a57600080fd5b50610565600480360361056091908101906148de565b6118e5565b005b34801561057357600080fd5b5061057c6119cb565b604051610589919061552a565b60405180910390f35b34801561059e57600080fd5b506105b960048036036105b49190810190614616565b6119f2565b6040516105c6919061550f565b60405180910390f35b3480156105db57600080fd5b506105e46119fd565b6040516105f1919061585d565b60405180910390f35b34801561060657600080fd5b5061060f611a03565b60405161061c919061552a565b60405180910390f35b34801561063157600080fd5b5061063a611a3a565b604051610647919061547f565b60405180910390f35b34801561065c57600080fd5b50610677600480360361067291908101906148de565b611a3f565b6040516106849190615819565b60405180910390f35b34801561069957600080fd5b506106a2611c18565b6040516106af919061585d565b60405180910390f35b3480156106c457600080fd5b506106cd611c4f565b6040516106da919061552a565b60405180910390f35b3480156106ef57600080fd5b506106f8611d13565b604051610705919061552a565b60405180910390f35b34801561071a57600080fd5b50610735600480360361073091908101906148de565b611d4c565b604051610742919061550f565b60405180910390f35b34801561075757600080fd5b50610772600480360361076d9190810190614616565b6121e4565b005b34801561078057600080fd5b5061079b60048036036107969190810190614668565b61240a565b6040516107a8919061550f565b60405180910390f35b3480156107bd57600080fd5b506107c6612542565b6040516107d391906155c6565b60405180910390f35b3480156107e857600080fd5b506107f1612567565b6040516107fe919061552a565b60405180910390f35b34801561081357600080fd5b5061082e600480360361082991908101906148de565b6125a0565b60405161083b919061550f565b60405180910390f35b34801561085057600080fd5b5061086b600480360361086691908101906148de565b6126a0565b60405161087c959493929190615737565b60405180910390f35b34801561089157600080fd5b5061089a6127f0565b6040516108a791906155e1565b60405180910390f35b3480156108bc57600080fd5b506108c5612816565b6040516108d2919061552a565b60405180910390f35b3480156108e757600080fd5b506108f061283d565b6040516108fd91906155ab565b60405180910390f35b34801561091257600080fd5b5061091b612874565b604051610928919061552a565b60405180910390f35b34801561093d57600080fd5b5061094661289b565b6040516109539190615791565b60405180910390f35b34801561096857600080fd5b50610983600480360361097e91908101906148de565b61296a565b005b34801561099157600080fd5b5061099a612a50565b6040516109a7919061550f565b60405180910390f35b3480156109bc57600080fd5b506109d760048036036109d29190810190614721565b612a81565b6040516109e49190615590565b60405180910390f35b3480156109f957600080fd5b50610a146004803603610a0f919081019061485c565b612b38565b604051610a21919061552a565b60405180910390f35b348015610a3657600080fd5b50610a516004803603610a4c91908101906148de565b612be6565b604051610a5e91906157d5565b60405180910390f35b600080610a72611c18565b905060008114158015610a8c575080610a89613004565b10155b91505090565b60405180807f52454a4543545f52464c5f524f4c450000000000000000000000000000000000815250600f019050604051809103902081565b60055481565b7f3b4bf6bf3ad5000ecf0f989d5befde585c6860fea3e574a4fab4c49d1c177d9c60010281565b6000600160009054906101000a900473ffffffffffffffffffffffffffffffffffffffff1673ffffffffffffffffffffffffffffffffffffffff1663fc0c546a6040518163ffffffff167c0100000000000000000000000000000000000000000000000000000000028152600401602060405180830381600087803b158015610b8057600080fd5b505af1158015610b94573d6000803e3d6000fd5b505050506040513d601f19601f82011682018060405250610bb8919081019061478b565b905090565b7fd6f028ca0e8edb4a8c9757ca4fdccab25fa1e0317da1188108f7d2dee14902fb60010281565b60405180807f4352454154455f5246495f524f4c450000000000000000000000000000000000815250600f019050604051809103902081565b60405180807f4d455247455f5246495f524f4c45000000000000000000000000000000000000815250600e019050604051809103902081565b6000610c60610a67565b1515610c6b57600080fd5b60405180807f4352454154455f5246495f524f4c450000000000000000000000000000000000815250600f0190506040518091039020610cdc33826000604051908082528060200260200182016040528015610cd65781602001602082028038833980820191505090505b5061240a565b1515610ce757600080fd5b610cf1848461300c565b91505092915050565b60008073ffffffffffffffffffffffffffffffffffffffff16610d1b61283d565b73ffffffffffffffffffffffffffffffffffffffff1614151515610d3e57600080fd5b610d4661283d565b73ffffffffffffffffffffffffffffffffffffffff166332f0a3b56040518163ffffffff167c0100000000000000000000000000000000000000000000000000000000028152600401602060405180830381600087803b158015610da957600080fd5b505af1158015610dbd573d6000803e3d6000fd5b505050506040513d601f19601f82011682018060405250610de1919081019061463f565b905090565b6000600554821115610dfb5760009050611034565b6003600083815260200190815260200160002060a0604051908101604052908160008201606060405190810160405290816000820160009054906101000a900473ffffffffffffffffffffffffffffffffffffffff1673ffffffffffffffffffffffffffffffffffffffff1673ffffffffffffffffffffffffffffffffffffffff16815260200160018201548152602001600282018054600181600116156101000203166002900480601f016020809104026020016040519081016040528092919081815260200182805460018160011615610100020316600290048015610f245780601f10610ef957610100808354040283529160200191610f24565b820191906000526020600020905b815481529060010190602001808311610f0757829003601f168201915b505050505081525050815260200160038201548152602001600482015481526020016005820160009054906101000a900460ff166004811115610f6357fe5b6004811115610f6e57fe5b815260200160068201548152505073__Pando_________________________________63c4dafbbf90916040518263ffffffff167c0100000000000000000000000000000000000000000000000000000000028152600401610fd0919061583b565b60206040518083038186803b158015610fe857600080fd5b505af4158015610ffc573d6000803e3d6000fd5b505050506040513d601f19601f8201168201806040525061102091908101906146cf565b151561102f5760009050611034565b600190505b919050565b600060055483111561104e57600090506112b1565b6003600084815260200190815260200160002060a0604051908101604052908160008201606060405190810160405290816000820160009054906101000a900473ffffffffffffffffffffffffffffffffffffffff1673ffffffffffffffffffffffffffffffffffffffff1673ffffffffffffffffffffffffffffffffffffffff16815260200160018201548152602001600282018054600181600116156101000203166002900480601f0160208091040260200160405190810160405280929190818152602001828054600181600116156101000203166002900480156111775780601f1061114c57610100808354040283529160200191611177565b820191906000526020600020905b81548152906001019060200180831161115a57829003601f168201915b505050505081525050815260200160038201548152602001600482015481526020016005820160009054906101000a900460ff1660048111156111b657fe5b60048111156111c157fe5b815260200160068201548152505073__Pando_________________________________63c4dafbbf90916040518263ffffffff167c0100000000000000000000000000000000000000000000000000000000028152600401611223919061583b565b60206040518083038186803b15801561123b57600080fd5b505af415801561124f573d6000803e3d6000fd5b505050506040513d601f19601f8201168201806040525061127391908101906146cf565b151561128257600090506112b1565b60036000848152602001908152602001600020600001600101548210156112ac57600090506112b1565b600190505b92915050565b6112bf613b97565b60006112c9611c18565b1415156112d557600080fd5b6112dd613292565b6020604051908101604052806040805190810160405280600b81526020017f74686973697361746573740000000000000000000000000000000000000000008152508152509050826000806101000a81548173ffffffffffffffffffffffffffffffffffffffff021916908373ffffffffffffffffffffffffffffffffffffffff16021790555081600160006101000a81548173ffffffffffffffffffffffffffffffffffffffff021916908373ffffffffffffffffffffffffffffffffffffffff160217905550505050565b60026020528060005260406000206000915090508060000160a060405190810160405290816000820160009054906101000a900473ffffffffffffffffffffffffffffffffffffffff1673ffffffffffffffffffffffffffffffffffffffff1673ffffffffffffffffffffffffffffffffffffffff168152602001600182018054600181600116156101000203166002900480601f0160208091040260200160405190810160405280929190818152602001828054600181600116156101000203166002900480156114bd5780601f10611492576101008083540402835291602001916114bd565b820191906000526020600020905b8154815290600101906020018083116114a057829003601f168201915b50505050508152602001600282018054600181600116156101000203166002900480601f01602080910402602001604051908101604052809291908181526020018280546001816001161561010002031660029004801561155f5780601f106115345761010080835404028352916020019161155f565b820191906000526020600020905b81548152906001019060200180831161154257829003601f168201915b50505050508152602001600382018054600181600116156101000203166002900480601f0160208091040260200160405190810160405280929190818152602001828054600181600116156101000203166002900480156116015780601f106115d657610100808354040283529160200191611601565b820191906000526020600020905b8154815290600101906020018083116115e457829003601f168201915b5050505050815260200160048201805480602002602001604051908101604052809291908181526020016000905b828210156116c957838290600052602060002090600202016040805190810160405290816000820160009054906101000a900473ffffffffffffffffffffffffffffffffffffffff1673ffffffffffffffffffffffffffffffffffffffff1673ffffffffffffffffffffffffffffffffffffffff16815260200160018201546000191660001916815250508152602001906001019061162f565b5050505081525050908060050154908060060160009054906101000a900460ff16905083565b7fddbcfd564f642ab5627cf68b9b7d374fb4f8a36e941a75d89c87998cef03bd6160010281565b61171e610a67565b151561172957600080fd5b60405180807f4143434550545f52464c5f524f4c450000000000000000000000000000000000815250600f019050604051809103902061179a338260006040519080825280602002602001820160405280156117945781602001602082028038833980820191505090505b5061240a565b15156117a557600080fd5b6117af8383611039565b15156117f0576040517f08c379a00000000000000000000000000000000000000000000000000000000081526004016117e790615617565b60405180910390fd5b6117fa83836132eb565b505050565b611807610a67565b151561181257600080fd5b60405180807f52454a4543545f52464c5f524f4c450000000000000000000000000000000000815250600f01905060405180910390206118833382600060405190808252806020026020018201604052801561187d5781602001602082028038833980820191505090505b5061240a565b151561188e57600080fd5b61189782610de6565b15156118d8576040517f08c379a00000000000000000000000000000000000000000000000000000000081526004016118cf90615637565b60405180910390fd5b6118e18261336e565b5050565b6118ed610a67565b15156118f857600080fd5b60405180807f52454a4543545f5246495f524f4c450000000000000000000000000000000000815250600f0190506040518091039020611969338260006040519080825280602002602001820160405280156119635781602001602082028038833980820191505090505b5061240a565b151561197457600080fd5b61197d82611d4c565b15156119be576040517f08c379a00000000000000000000000000000000000000000000000000000000081526004016119b590615697565b60405180910390fd5b6119c7826133e9565b5050565b7fc681a85306374a5ab27f0bbc385296a54bcd314a1948b6cf61c4ea1bc44bb9f860010281565b600060019050919050565b60045481565b6000611a357fd625496217aa6a3453eecb9c3489dc5a53e6c67b444329ea2b2cbc9ff547639b6001026000191661349e565b905090565b600081565b611a47613bab565b816005548111151515611a8f576040517f08c379a0000000000000000000000000000000000000000000000000000000008152600401611a8690615657565b60405180910390fd5b6003600084815260200190815260200160002060a0604051908101604052908160008201606060405190810160405290816000820160009054906101000a900473ffffffffffffffffffffffffffffffffffffffff1673ffffffffffffffffffffffffffffffffffffffff1673ffffffffffffffffffffffffffffffffffffffff16815260200160018201548152602001600282018054600181600116156101000203166002900480601f016020809104026020016040519081016040528092919081815260200182805460018160011615610100020316600290048015611bb85780601f10611b8d57610100808354040283529160200191611bb8565b820191906000526020600020905b815481529060010190602001808311611b9b57829003601f168201915b505050505081525050815260200160038201548152602001600482015481526020016005820160009054906101000a900460ff166004811115611bf757fe5b6004811115611c0257fe5b8152602001600682015481525050915050919050565b6000611c4a7febb05b386a8d34882b8711d156f463690983dc47815980fb82aeeff1aa43579e600102600019166134a9565b905090565b60008060009054906101000a900473ffffffffffffffffffffffffffffffffffffffff1673ffffffffffffffffffffffffffffffffffffffff16638f7dcfa36040518163ffffffff167c0100000000000000000000000000000000000000000000000000000000028152600401602060405180830381600087803b158015611cd657600080fd5b505af1158015611cea573d6000803e3d6000fd5b505050506040513d601f19601f82011682018060405250611d0e91908101906146f8565b905090565b60405180807f52454a4543545f5246495f524f4c450000000000000000000000000000000000815250600f019050604051809103902081565b6000600454821115611d6157600090506121df565b60026000838152602001908152602001600020608060405190810160405290816000820160a060405190810160405290816000820160009054906101000a900473ffffffffffffffffffffffffffffffffffffffff1673ffffffffffffffffffffffffffffffffffffffff1673ffffffffffffffffffffffffffffffffffffffff168152602001600182018054600181600116156101000203166002900480601f016020809104026020016040519081016040528092919081815260200182805460018160011615610100020316600290048015611e805780601f10611e5557610100808354040283529160200191611e80565b820191906000526020600020905b815481529060010190602001808311611e6357829003601f168201915b50505050508152602001600282018054600181600116156101000203166002900480601f016020809104026020016040519081016040528092919081815260200182805460018160011615610100020316600290048015611f225780601f10611ef757610100808354040283529160200191611f22565b820191906000526020600020905b815481529060010190602001808311611f0557829003601f168201915b50505050508152602001600382018054600181600116156101000203166002900480601f016020809104026020016040519081016040528092919081815260200182805460018160011615610100020316600290048015611fc45780601f10611f9957610100808354040283529160200191611fc4565b820191906000526020600020905b815481529060010190602001808311611fa757829003601f168201915b5050505050815260200160048201805480602002602001604051908101604052809291908181526020016000905b8282101561208c57838290600052602060002090600202016040805190810160405290816000820160009054906101000a900473ffffffffffffffffffffffffffffffffffffffff1673ffffffffffffffffffffffffffffffffffffffff1673ffffffffffffffffffffffffffffffffffffffff168152602001600182015460001916600019168152505081526020019060010190611ff2565b50505050815250508152602001600582015481526020016006820160009054906101000a900460ff1660038111156120c057fe5b60038111156120cb57fe5b81526020016007820180548060200260200160405190810160405280929190818152602001828054801561211e57602002820191906000526020600020905b81548152602001906001019080831161210a575b50505050508152505073__Pando_________________________________638630d62f90916040518263ffffffff167c010000000000000000000000000000000000000000000000000000000002815260040161217b91906157f7565b60206040518083038186803b15801561219357600080fd5b505af41580156121a7573d6000803e3d6000fd5b505050506040513d601f19601f820116820180604052506121cb91908101906146cf565b15156121da57600090506121df565b600190505b919050565b6000806121f0836119f2565b15156121fb57600080fd5b612203610cfa565b915061220e826134b4565b151561221957600080fd5b600073ffffffffffffffffffffffffffffffffffffffff168373ffffffffffffffffffffffffffffffffffffffff1614156122b1578173ffffffffffffffffffffffffffffffffffffffff166108fc3073ffffffffffffffffffffffffffffffffffffffff16319081150290604051600060405180830381858888f193505050501580156122ab573d6000803e3d6000fd5b50612405565b8273ffffffffffffffffffffffffffffffffffffffff166370a08231306040518263ffffffff167c010000000000000000000000000000000000000000000000000000000002815260040161230691906155fc565b602060405180830381600087803b15801561232057600080fd5b505af1158015612334573d6000803e3d6000fd5b505050506040513d601f19601f820116820180604052506123589190810190614907565b90508273ffffffffffffffffffffffffffffffffffffffff1663a9059cbb83836040518363ffffffff167c01000000000000000000000000000000000000000000000000000000000281526004016123b19291906154e6565b602060405180830381600087803b1580156123cb57600080fd5b505af11580156123df573d6000803e3d6000fd5b505050506040513d601f19601f8201168201806040525061240391908101906146cf565b505b505050565b60008060606000612419610a67565b15156124285760009350612538565b61243061283d565b9250600073ffffffffffffffffffffffffffffffffffffffff168373ffffffffffffffffffffffffffffffffffffffff1614156124705760009350612538565b60008551111561248857602085510290508491508082525b8273ffffffffffffffffffffffffffffffffffffffff1663fdef9106883089866040518563ffffffff167c01000000000000000000000000000000000000000000000000000000000281526004016124e3949392919061549a565b602060405180830381600087803b1580156124fd57600080fd5b505af1158015612511573d6000803e3d6000fd5b505050506040513d601f19601f8201168201806040525061253591908101906146cf565b93505b5050509392505050565b6000809054906101000a900473ffffffffffffffffffffffffffffffffffffffff1681565b60405180807f4143434550545f52464c5f524f4c450000000000000000000000000000000000815250600f019050604051809103902081565b6000806000806004548511156125b95760009350612698565b600260008681526020019081526020016000209250600060038111156125db57fe5b8360060160009054906101000a900460ff1660038111156125f857fe5b1415156126085760009350612698565b600091505b82600701805490508210156126935760036000846007018481548110151561263157fe5b9060005260206000200154815260200190815260200160002090506001600481111561265957fe5b8160050160009054906101000a900460ff16600481111561267657fe5b1415156126865760009350612698565b818060010192505061260d565b600193505b505050919050565b600360205280600052604060002060009150905080600001606060405190810160405290816000820160009054906101000a900473ffffffffffffffffffffffffffffffffffffffff1673ffffffffffffffffffffffffffffffffffffffff1673ffffffffffffffffffffffffffffffffffffffff16815260200160018201548152602001600282018054600181600116156101000203166002900480601f0160208091040260200160405190810160405280929190818152602001828054600181600116156101000203166002900480156127bd5780601f10612792576101008083540402835291602001916127bd565b820191906000526020600020905b8154815290600101906020018083116127a057829003601f168201915b505050505081525050908060030154908060040154908060050160009054906101000a900460ff16908060060154905085565b600160009054906101000a900473ffffffffffffffffffffffffffffffffffffffff1681565b7fe3262375f45a6e2026b7e7b18c2b807434f2508fe1a2a3dfb493c7df8f4aad6a60010281565b600061286f7f4172f0f7d2289153072b0a6ca36959e0cbe2efc3afe50fc81636caa96338137b60010260001916613506565b905090565b7ff1f3eb40f5bc1ad1344716ced8b8a0431d840b5783aea1fd01786bc26f35ac0f60010281565b6128a3613bec565b6000809054906101000a900473ffffffffffffffffffffffffffffffffffffffff1673ffffffffffffffffffffffffffffffffffffffff1663dc281aff6040518163ffffffff167c0100000000000000000000000000000000000000000000000000000000028152600401600060405180830381600087803b15801561292857600080fd5b505af115801561293c573d6000803e3d6000fd5b505050506040513d6000823e3d601f19601f82011682018060405250612965919081019061489d565b905090565b612972610a67565b151561297d57600080fd5b60405180807f4d455247455f5246495f524f4c45000000000000000000000000000000000000815250600e01905060405180910390206129ee338260006040519080825280602002602001820160405280156129e85781602001602082028038833980820191505090505b5061240a565b15156129f957600080fd5b612a02826125a0565b1515612a43576040517f08c379a0000000000000000000000000000000000000000000000000000000008152600401612a3a90615677565b60405180910390fd5b612a4c82613511565b5050565b60007fffffffffffffffffffffffffffffffffffffffffffffffffffffffffffffffff612a7b611c18565b14905090565b6000612a8b613671565b73ffffffffffffffffffffffffffffffffffffffff166304bf2a7f836040518263ffffffff167c0100000000000000000000000000000000000000000000000000000000028152600401612adf919061556e565b602060405180830381600087803b158015612af957600080fd5b505af1158015612b0d573d6000803e3d6000fd5b505050506040513d601f19601f82011682018060405250612b319190810190614762565b9050919050565b60008173__Pando_________________________________63b1c2d68d90916040518263ffffffff167c0100000000000000000000000000000000000000000000000000000000028152600401612b8f91906157b3565b60206040518083038186803b158015612ba757600080fd5b505af4158015612bbb573d6000803e3d6000fd5b505050506040513d601f19601f82011682018060405250612bdf91908101906146f8565b9050919050565b612bee613c39565b816004548111151515612c36576040517f08c379a0000000000000000000000000000000000000000000000000000000008152600401612c2d906156b7565b60405180910390fd5b60026000848152602001908152602001600020608060405190810160405290816000820160a060405190810160405290816000820160009054906101000a900473ffffffffffffffffffffffffffffffffffffffff1673ffffffffffffffffffffffffffffffffffffffff1673ffffffffffffffffffffffffffffffffffffffff168152602001600182018054600181600116156101000203166002900480601f016020809104026020016040519081016040528092919081815260200182805460018160011615610100020316600290048015612d555780601f10612d2a57610100808354040283529160200191612d55565b820191906000526020600020905b815481529060010190602001808311612d3857829003601f168201915b50505050508152602001600282018054600181600116156101000203166002900480601f016020809104026020016040519081016040528092919081815260200182805460018160011615610100020316600290048015612df75780601f10612dcc57610100808354040283529160200191612df7565b820191906000526020600020905b815481529060010190602001808311612dda57829003601f168201915b50505050508152602001600382018054600181600116156101000203166002900480601f016020809104026020016040519081016040528092919081815260200182805460018160011615610100020316600290048015612e995780601f10612e6e57610100808354040283529160200191612e99565b820191906000526020600020905b815481529060010190602001808311612e7c57829003601f168201915b5050505050815260200160048201805480602002602001604051908101604052809291908181526020016000905b82821015612f6157838290600052602060002090600202016040805190810160405290816000820160009054906101000a900473ffffffffffffffffffffffffffffffffffffffff1673ffffffffffffffffffffffffffffffffffffffff1673ffffffffffffffffffffffffffffffffffffffff168152602001600182015460001916600019168152505081526020019060010190612ec7565b50505050815250508152602001600582015481526020016006820160009054906101000a900460ff166003811115612f9557fe5b6003811115612fa057fe5b815260200160078201805480602002602001604051908101604052809291908181526020018280548015612ff357602002820191906000526020600020905b815481526020019060010190808311612fdf575b505050505081525050915050919050565b600043905090565b600080600080600080600160045401600481905550600454955060026000878152602001908152602001600020945087600001518560000160000160006101000a81548173ffffffffffffffffffffffffffffffffffffffff021916908373ffffffffffffffffffffffffffffffffffffffff16021790555087602001518560000160010190805190602001906130a4929190613c74565b5087604001518560000160020190805190602001906130c4929190613c74565b5087606001518560000160030190805190602001906130e4929190613c74565b5043856005018190555060008560060160006101000a81548160ff0219169083600381111561310f57fe5b0217905550876080015151856000016004018161312c9190613cf4565b50600093505b8760800151518410156131e45787608001518481518110151561315157fe5b90602001906020020151856000016004018581548110151561316f57fe5b906000526020600020906002020160008201518160000160006101000a81548173ffffffffffffffffffffffffffffffffffffffff021916908373ffffffffffffffffffffffffffffffffffffffff160217905550602082015181600101906000191690559050508380600101945050613132565b600092505b865183101561325a57613213878481518110151561320357fe5b9060200190602002015187613773565b915084600701805480919060010161322b9190613d26565b905081856007018281548110151561323f57fe5b906000526020600020018190555082806001019350506131e9565b857f35f2129c6d5c40f8bfc21ff096fc803eed03c578d74fabcf718966bce5e43a2460405160405180910390a2505050505092915050565b600061329c611c18565b1415156132a857600080fd5b6132e96132b3613004565b7febb05b386a8d34882b8711d156f463690983dc47815980fb82aeeff1aa43579e6001026000191661388c90919063ffffffff16565b565b600060036000848152602001908152602001600020905060018160050160006101000a81548160ff0219169083600481111561332357fe5b0217905550818160040181905550827fe798dd1723e7dfead0c42290d937f51c95c8f80f616ab3c5d515dd62333d0c6983604051613361919061585d565b60405180910390a2505050565b600060036000838152602001908152602001600020905060038160050160006101000a81548160ff021916908360048111156133a657fe5b02179055506133b88160060154613893565b817feffb45481cc046f2f78b484c7ef03097fc7cd3f8cf92a6f150a6264c96c3e72c60405160405180910390a25050565b60008060026000848152602001908152602001600020915060028260060160006101000a81548160ff0219169083600381111561342257fe5b0217905550600090505b816007018054905081101561346c5761345f826007018281548110151561344f57fe5b90600052602060002001546139ad565b808060010191505061342c565b827f572671bf73ebac1f3878b683b28d9a3864df03396326fbaa18f19c834a54b13a60405160405180910390a2505050565b600081549050919050565b600081549050919050565b600080600073ffffffffffffffffffffffffffffffffffffffff168373ffffffffffffffffffffffffffffffffffffffff1614156134f55760009150613500565b823b90506000811191505b50919050565b600081549050919050565b60008060026000848152602001908152602001600020915060018260060160006101000a81548160ff0219169083600381111561354a57fe5b02179055506000809054906101000a900473ffffffffffffffffffffffffffffffffffffffff1673ffffffffffffffffffffffffffffffffffffffff1663a0a66f7c836000016040518263ffffffff167c01000000000000000000000000000000000000000000000000000000000281526004016135c89190615715565b600060405180830381600087803b1580156135e257600080fd5b505af11580156135f6573d6000803e3d6000fd5b50505050600090505b816007018054905081101561363f57613632826007018281548110151561362257fe5b9060005260206000200154613a1b565b80806001019150506135ff565b827f2ade3f30658e8481c8027d9227280e030ebbea37526a8e9e29887165e919e2ed60405160405180910390a2505050565b60008061367c61283d565b73ffffffffffffffffffffffffffffffffffffffff1663be00bbd87fd6f028ca0e8edb4a8c9757ca4fdccab25fa1e0317da1188108f7d2dee14902fb6001027fddbcfd564f642ab5627cf68b9b7d374fb4f8a36e941a75d89c87998cef03bd616001026040518363ffffffff167c0100000000000000000000000000000000000000000000000000000000028152600401613718929190615545565b602060405180830381600087803b15801561373257600080fd5b505af1158015613746573d6000803e3d6000fd5b505050506040513d601f19601f8201168201806040525061376a919081019061463f565b90508091505090565b600080600160055401600581905550600554915060036000838152602001908152602001600020905083600001518160000160000160006101000a81548173ffffffffffffffffffffffffffffffffffffffff021916908373ffffffffffffffffffffffffffffffffffffffff160217905550836020015181600001600101819055508360400151816000016002019080519060200190613815929190613c74565b504381600301819055506000816004018190555060008160050160006101000a81548160ff0219169083600481111561384a57fe5b0217905550828160060181905550817fb696b79e6fa6e3e43f047d6702fce861e48c2267eeb009745f44a84b2c1dac4a60405160405180910390a25092915050565b8082555050565b600080600060026000858152602001908152602001600020925060038360060160006101000a81548160ff021916908360038111156138ce57fe5b0217905550600091505b826007018054905082101561397a576003600084600701848154811015156138fc57fe5b9060005260206000200154815260200190815260200160002090506003600481111561392457fe5b8160050160009054906101000a900460ff16600481111561394157fe5b14151561396d5761396c836007018381548110151561395c57fe5b90600052602060002001546139ad565b5b81806001019250506138d8565b837f17c608dd7335e9c727c3e10aea0adfba0b0e6cc35c4935c1de31e3b10711da7560405160405180910390a250505050565b600060036000838152602001908152602001600020905060048160050160006101000a81548160ff021916908360048111156139e557fe5b0217905550817f7b78710b9fa400a202f9262b7daad859bf5663f0d88d45073184584fe6a166e060405160405180910390a25050565b600060036000838152602001908152602001600020905060028160050160006101000a81548160ff02191690836004811115613a5357fe5b0217905550600160009054906101000a900473ffffffffffffffffffffffffffffffffffffffff1673ffffffffffffffffffffffffffffffffffffffff166340c10f198260000160000160009054906101000a900473ffffffffffffffffffffffffffffffffffffffff1683600401546040518363ffffffff167c0100000000000000000000000000000000000000000000000000000000028152600401613afc9291906154e6565b600060405180830381600087803b158015613b1657600080fd5b505af1158015613b2a573d6000803e3d6000fd5b50505050817fb74d3ab32949c67c027c76911841ff5e997d1276e5244bba79e532fa6ce91f838260000160000160009054906101000a900473ffffffffffffffffffffffffffffffffffffffff168360040154604051613b8b9291906154e6565b60405180910390a25050565b602060405190810160405280606081525090565b60e060405190810160405280613bbf613d52565b8152602001600081526020016000815260200160006004811115613bdf57fe5b8152602001600081525090565b60c060405190810160405280600073ffffffffffffffffffffffffffffffffffffffff16815260200160008152602001606081526020016060815260200160608152602001606081525090565b61010060405190810160405280613c4e613d8a565b81526020016000815260200160006003811115613c6757fe5b8152602001606081525090565b828054600181600116156101000203166002900490600052602060002090601f016020900481019282601f10613cb557805160ff1916838001178555613ce3565b82800160010185558215613ce3579182015b82811115613ce2578251825591602001919060010190613cc7565b5b509050613cf09190613dd0565b5090565b815481835581811115613d2157600202816002028360005260206000209182019101613d209190613df5565b5b505050565b815481835581811115613d4d57818360005260206000209182019101613d4c9190613dd0565b5b505050565b606060405190810160405280600073ffffffffffffffffffffffffffffffffffffffff16815260200160008152602001606081525090565b60a060405190810160405280600073ffffffffffffffffffffffffffffffffffffffff168152602001606081526020016060815260200160608152602001606081525090565b613df291905b80821115613dee576000816000905550600101613dd6565b5090565b90565b613e4091905b80821115613e3c57600080820160006101000a81549073ffffffffffffffffffffffffffffffffffffffff0219169055600182016000905550600201613dfb565b5090565b90565b6000613e4f8235615a7d565b905092915050565b6000613e638251615a7d565b905092915050565b600082601f8301121515613e7e57600080fd5b8135613e91613e8c826158a5565b615878565b91508181835260208401935060208101905083856040840282011115613eb657600080fd5b60005b83811015613ee65781613ecc88826141fe565b845260208401935060408301925050600181019050613eb9565b5050505092915050565b600082601f8301121515613f0357600080fd5b8151613f16613f11826158a5565b615878565b91508181835260208401935060208101905083856040840282011115613f3b57600080fd5b60005b83811015613f6b5781613f51888261424a565b845260208401935060408301925050600181019050613f3e565b5050505092915050565b600082601f8301121515613f8857600080fd5b8135613f9b613f96826158cd565b615878565b9150818183526020840193506020810190508360005b83811015613fe15781358601613fc7888261437e565b845260208401935060208301925050600181019050613fb1565b5050505092915050565b600082601f8301121515613ffe57600080fd5b813561401161400c826158f5565b615878565b9150818183526020840193506020810190508385602084028201111561403657600080fd5b60005b83811015614066578161404c88826145ee565b845260208401935060208301925050600181019050614039565b5050505092915050565b600061407c8251615a9d565b905092915050565b60006140908235615aa9565b905092915050565b60006140a48251615aa9565b905092915050565b600082601f83011215156140bf57600080fd5b81356140d26140cd8261591d565b615878565b915080825260208301602083018583830111156140ee57600080fd5b6140f9838284615b83565b50505092915050565b600061410e8251615ab3565b905092915050565b60006141228251615ac5565b905092915050565b60006141368235615ad7565b905092915050565b600061414a8235615ae9565b905092915050565b600082601f830112151561416557600080fd5b813561417861417382615949565b615878565b9150808252602083016020830185838301111561419457600080fd5b61419f838284615b83565b50505092915050565b600082601f83011215156141bb57600080fd5b81516141ce6141c982615949565b615878565b915080825260208301602083018583830111156141ea57600080fd5b6141f5838284615b92565b50505092915050565b60006040828403121561421057600080fd5b61421a6040615878565b9050600061422a84828501613e43565b600083015250602061423e84828501614084565b60208301525092915050565b60006040828403121561425c57600080fd5b6142666040615878565b9050600061427684828501613e57565b600083015250602061428a84828501614098565b60208301525092915050565b600060a082840312156142a857600080fd5b6142b260a0615878565b905060006142c284828501613e43565b600083015250602082013567ffffffffffffffff8111156142e257600080fd5b6142ee84828501614152565b602083015250604082013567ffffffffffffffff81111561430e57600080fd5b61431a84828501614152565b604083015250606082013567ffffffffffffffff81111561433a57600080fd5b61434684828501614152565b606083015250608082013567ffffffffffffffff81111561436657600080fd5b61437284828501613e6b565b60808301525092915050565b60006060828403121561439057600080fd5b61439a6060615878565b905060006143aa84828501613e43565b60008301525060206143be848285016145ee565b602083015250604082013567ffffffffffffffff8111156143de57600080fd5b6143ea84828501614152565b60408301525092915050565b600060c0828403121561440857600080fd5b61441260c0615878565b9050600061442284828501613e43565b6000830152506020614436848285016145ee565b602083015250604082013567ffffffffffffffff81111561445657600080fd5b61446284828501614152565b604083015250606082013567ffffffffffffffff81111561448257600080fd5b61448e84828501614152565b606083015250608082013567ffffffffffffffff8111156144ae57600080fd5b6144ba84828501614152565b60808301525060a082013567ffffffffffffffff8111156144da57600080fd5b6144e684828501613e6b565b60a08301525092915050565b600060c0828403121561450457600080fd5b61450e60c0615878565b9050600061451e84828501613e57565b600083015250602061453284828501614602565b602083015250604082015167ffffffffffffffff81111561455257600080fd5b61455e848285016141a8565b604083015250606082015167ffffffffffffffff81111561457e57600080fd5b61458a848285016141a8565b606083015250608082015167ffffffffffffffff8111156145aa57600080fd5b6145b6848285016141a8565b60808301525060a082015167ffffffffffffffff8111156145d657600080fd5b6145e284828501613ef0565b60a08301525092915050565b60006145fa8235615afb565b905092915050565b600061460e8251615afb565b905092915050565b60006020828403121561462857600080fd5b600061463684828501613e43565b91505092915050565b60006020828403121561465157600080fd5b600061465f84828501613e57565b91505092915050565b60008060006060848603121561467d57600080fd5b600061468b86828701613e43565b935050602061469c86828701614084565b925050604084013567ffffffffffffffff8111156146b957600080fd5b6146c586828701613feb565b9150509250925092565b6000602082840312156146e157600080fd5b60006146ef84828501614070565b91505092915050565b60006020828403121561470a57600080fd5b600061471884828501614098565b91505092915050565b60006020828403121561473357600080fd5b600082013567ffffffffffffffff81111561474d57600080fd5b614759848285016140ac565b91505092915050565b60006020828403121561477457600080fd5b600061478284828501614102565b91505092915050565b60006020828403121561479d57600080fd5b60006147ab84828501614116565b91505092915050565b600080604083850312156147c757600080fd5b60006147d58582860161412a565b92505060206147e68582860161413e565b9150509250929050565b6000806040838503121561480357600080fd5b600083013567ffffffffffffffff81111561481d57600080fd5b61482985828601614296565b925050602083013567ffffffffffffffff81111561484657600080fd5b61485285828601613f75565b9150509250929050565b60006020828403121561486e57600080fd5b600082013567ffffffffffffffff81111561488857600080fd5b614894848285016143f6565b91505092915050565b6000602082840312156148af57600080fd5b600082015167ffffffffffffffff8111156148c957600080fd5b6148d5848285016144f2565b91505092915050565b6000602082840312156148f057600080fd5b60006148fe848285016145ee565b91505092915050565b60006020828403121561491957600080fd5b600061492784828501614602565b91505092915050565b6000806040838503121561494357600080fd5b6000614951858286016145ee565b9250506020614962858286016145ee565b9150509250929050565b61497581615a11565b82525050565b61498481615a11565b82525050565b6000614995826159b3565b8084526020840193506149a783615975565b60005b828110156149d9576149bd868351614e76565b6149c6826159ea565b91506040860195506001810190506149aa565b50849250505092915050565b60006149f0826159b3565b808452602084019350614a0283615975565b60005b82811015614a3457614a18868351614ea5565b614a21826159ea565b9150604086019550600181019050614a05565b50849250505092915050565b6000614a4b826159be565b808452602084019350614a5d83615982565b60005b82811015614a8e57614a728683614ed4565b614a7b826159f7565b9150604086019550600181019050614a60565b50849250505092915050565b6000614aa5826159c9565b808452602084019350614ab783615994565b60005b82811015614ae957614acd868351615461565b614ad682615a04565b9150602086019550600181019050614aba565b50849250505092915050565b6000614b00826159c9565b808452602084019350614b1283615994565b60005b82811015614b4457614b28868351615470565b614b3182615a04565b9150602086019550600181019050614b15565b50849250505092915050565b614b5981615a31565b82525050565b614b6881615a3d565b82525050565b614b7781615a3d565b82525050565b6000614b88826159d4565b808452614b9c816020860160208601615b92565b614ba581615bc5565b602085010191505092915050565b614bbc81615b05565b82525050565b614bcb81615b17565b82525050565b614bda81615b29565b82525050565b614be981615b3b565b82525050565b614bf881615b4d565b82525050565b614c0781615b5f565b82525050565b614c1681615b5f565b82525050565b614c2581615b71565b82525050565b614c3481615b71565b82525050565b6000614c45826159df565b808452614c59816020860160208601615b92565b614c6281615bc5565b602085010191505092915050565b6000614c7b826159df565b808452614c8f816020860160208601615b92565b614c9881615bc5565b602085010191505092915050565b600081546001811660008114614cc35760018114614ce357614d24565b607f600283041680865260ff198316602087015260408601935050614d24565b60028204808652602086019550614cf9856159a1565b60005b82811015614d1b57815481890152600182019150602081019050614cfc565b80880195505050505b505092915050565b6000601182527f63616e6e6f74206163636570742052464c0000000000000000000000000000006020830152604082019050919050565b6000601182527f63616e6e6f742072656a6563742052464c0000000000000000000000000000006020830152604082019050919050565b6000601282527f52464c20646f6573206e6f7420657869737400000000000000000000000000006020830152604082019050919050565b6000601082527f63616e6e6f74206d6572676520524649000000000000000000000000000000006020830152604082019050919050565b6000601182527f63616e6e6f742072656a656374205246490000000000000000000000000000006020830152604082019050919050565b6000601282527f52464920646f6573206e6f7420657869737400000000000000000000000000006020830152604082019050919050565b604082016000820151614e8c600085018261496c565b506020820151614e9f6020850182614b5f565b50505050565b604082016000820151614ebb600085018261497b565b506020820151614ece6020850182614b6e565b50505050565b604082016000808301549050614ee981615bd6565b614ef6600086018261496c565b5060018301549050614f0781615bd6565b614f146020860182614b5f565b5050505050565b600060a083016000830151614f33600086018261496c565b5060208301518482036020860152614f4b8282614c3a565b91505060408301518482036040860152614f658282614c3a565b91505060608301518482036060860152614f7f8282614c3a565b91505060808301518482036080860152614f99828261498a565b9150508091505092915050565b600060a083016000830151614fbe600086018261497b565b5060208301518482036020860152614fd68282614c70565b91505060408301518482036040860152614ff08282614c70565b9150506060830151848203606086015261500a8282614c70565b9150506080830151848203608086015261502482826149e5565b9150508091505092915050565b600060a08301600080840154905061504881615bd6565b615055600087018261496c565b5060018401858303602087015261506c8382614ca6565b9250506002840185830360408701526150858382614ca6565b92505060038401858303606087015261509e8382614ca6565b9250506004840185830360808701526150b78382614a40565b925050819250505092915050565b60006060830160008301516150dd600086018261496c565b5060208301516150f06020860182615461565b50604083015184820360408601526151088282614c3a565b9150508091505092915050565b600060608301600083015161512d600086018261497b565b5060208301516151406020860182615470565b50604083015184820360408601526151588282614c70565b9150508091505092915050565b600060c08301600083015161517d600086018261496c565b5060208301516151906020860182615461565b50604083015184820360408601526151a88282614c3a565b915050606083015184820360608601526151c28282614c3a565b915050608083015184820360808601526151dc8282614c3a565b91505060a083015184820360a08601526151f6828261498a565b9150508091505092915050565b600060c08301600083015161521b600086018261497b565b50602083015161522e6020860182615470565b50604083015184820360408601526152468282614c70565b915050606083015184820360608601526152608282614c70565b9150506080830151848203608086015261527a8282614c70565b91505060a083015184820360a086015261529482826149e5565b9150508091505092915050565b600060808301600083015184820360008601526152be8282614f1b565b91505060208301516152d36020860182615461565b5060408301516152e66040860182614bfe565b50606083015184820360608601526152fe8282614a9a565b9150508091505092915050565b600060808301600083015184820360008601526153288282614fa6565b915050602083015161533d6020860182615470565b5060408301516153506040860182614c0d565b50606083015184820360608601526153688282614af5565b9150508091505092915050565b600060a083016000830151848203600086015261539282826150c5565b91505060208301516153a76020860182615461565b5060408301516153ba6040860182615461565b5060608301516153cd6060860182614c1c565b5060808301516153e06080860182615461565b508091505092915050565b600060a08301600083015184820360008601526154088282615115565b915050602083015161541d6020860182615470565b5060408301516154306040860182615470565b5060608301516154436060860182614c2b565b5060808301516154566080860182615470565b508091505092915050565b61546a81615a73565b82525050565b61547981615a73565b82525050565b6000602082019050615494600083018461496c565b92915050565b60006080820190506154af600083018761496c565b6154bc602083018661496c565b6154c96040830185614b5f565b81810360608301526154db8184614b7d565b905095945050505050565b60006040820190506154fb600083018561496c565b6155086020830184615461565b9392505050565b60006020820190506155246000830184614b50565b92915050565b600060208201905061553f6000830184614b5f565b92915050565b600060408201905061555a6000830185614b5f565b6155676020830184614b5f565b9392505050565b600060208201905081810360008301526155888184614b7d565b905092915050565b60006020820190506155a56000830184614bb3565b92915050565b60006020820190506155c06000830184614bc2565b92915050565b60006020820190506155db6000830184614bd1565b92915050565b60006020820190506155f66000830184614be0565b92915050565b60006020820190506156116000830184614bef565b92915050565b6000602082019050818103600083015261563081614d2c565b9050919050565b6000602082019050818103600083015261565081614d63565b9050919050565b6000602082019050818103600083015261567081614d9a565b9050919050565b6000602082019050818103600083015261569081614dd1565b9050919050565b600060208201905081810360008301526156b081614e08565b9050919050565b600060208201905081810360008301526156d081614e3f565b9050919050565b600060608201905081810360008301526156f18186614f1b565b90506157006020830185615461565b61570d6040830184614bfe565b949350505050565b6000602082019050818103600083015261572f8184615031565b905092915050565b600060a082019050818103600083015261575181886150c5565b90506157606020830187615461565b61576d6040830186615461565b61577a6060830185614c1c565b6157876080830184615461565b9695505050505050565b600060208201905081810360008301526157ab8184615165565b905092915050565b600060208201905081810360008301526157cd8184615203565b905092915050565b600060208201905081810360008301526157ef81846152a1565b905092915050565b60006020820190508181036000830152615811818461530b565b905092915050565b600060208201905081810360008301526158338184615375565b905092915050565b6000602082019050818103600083015261585581846153eb565b905092915050565b60006020820190506158726000830184615461565b92915050565b6000604051905081810181811067ffffffffffffffff8211171561589b57600080fd5b8060405250919050565b600067ffffffffffffffff8211156158bc57600080fd5b602082029050602081019050919050565b600067ffffffffffffffff8211156158e457600080fd5b602082029050602081019050919050565b600067ffffffffffffffff82111561590c57600080fd5b602082029050602081019050919050565b600067ffffffffffffffff82111561593457600080fd5b601f19601f8301169050602081019050919050565b600067ffffffffffffffff82111561596057600080fd5b601f19601f8301169050602081019050919050565b6000602082019050919050565b60008160005260206000209050919050565b6000602082019050919050565b60008160005260206000209050919050565b600081519050919050565b600081549050919050565b600081519050919050565b600081519050919050565b600081519050919050565b6000602082019050919050565b6000600182019050919050565b6000602082019050919050565b600073ffffffffffffffffffffffffffffffffffffffff82169050919050565b60008115159050919050565b6000819050919050565b6000600482101515615a5557fe5b819050919050565b6000600582101515615a6b57fe5b819050919050565b6000819050919050565b600073ffffffffffffffffffffffffffffffffffffffff82169050919050565b60008115159050919050565b6000819050919050565b6000615abe82615a11565b9050919050565b6000615ad082615a11565b9050919050565b6000615ae282615a11565b9050919050565b6000615af482615a11565b9050919050565b6000819050919050565b6000615b1082615a11565b9050919050565b6000615b2282615a11565b9050919050565b6000615b3482615a11565b9050919050565b6000615b4682615a11565b9050919050565b6000615b5882615a11565b9050919050565b6000615b6a82615a47565b9050919050565b6000615b7c82615a5d565b9050919050565b82818337600083830152505050565b60005b83811015615bb0578082015181840152602081019050615b95565b83811115615bbf576000848401525b50505050565b6000601f19601f8301169050919050565b60006001820490509190505600a265627a7a72305820f861233714151d6ee784f877c88030a8c16ca679bfbbf7f222a6172b9b4776a36c6578706572696d656e74616cf50037",
  "source": "pragma solidity ^0.4.24;\npragma experimental ABIEncoderV2;\n\nimport \"@aragon/os/contracts/apps/AragonApp.sol\";\nimport \"../../contracts/lib/Pando.sol\";\nimport \"../../contracts/core/PandoGenesis.sol\";\nimport \"../../contracts/core/PandoLineage.sol\";\nimport \"./Test.sol\";\n\n\ncontract PandoAPI is AragonApp {\n    using Pando for Pando.Individuation;\n    using Pando for Pando.RFI;\n    using Pando for Pando.RFL;\n\n    bytes32 constant public CREATE_RFI_ROLE = keccak256(\"CREATE_RFI_ROLE\");\n    bytes32 constant public MERGE_RFI_ROLE  = keccak256(\"MERGE_RFI_ROLE\");\n    bytes32 constant public REJECT_RFI_ROLE = keccak256(\"REJECT_RFI_ROLE\");\n    bytes32 constant public ACCEPT_RFL_ROLE = keccak256(\"ACCEPT_RFL_ROLE\");\n    bytes32 constant public REJECT_RFL_ROLE = keccak256(\"REJECT_RFL_ROLE\");\n\n    PandoGenesis public genesis;\n    PandoLineage public lineage;\n\n    // Use a mapping instead of an array to ease app upgrade\n    // See https://github.com/aragon/aragon-apps/pull/428\n    // See https://youtu.be/sJ7VECqHFAg?t=9m27s\n    mapping (uint256 => Pando.RFI) public RFIs;\n    mapping (uint256 => Pando.RFL) public RFLs;\n\n    uint256 public RFIsLength = 0;\n    uint256 public RFLsLength = 0;\n\n    event CreateRFI(uint256 indexed id);\n    event MergeRFI(uint256 indexed id);\n    event RejectRFI(uint256 indexed id);\n    event CancelRFI(uint256 indexed id);\n\n    event CreateRFL(uint256 indexed id);\n    event AcceptRFL(uint256 indexed id, uint256 value);\n    event RejectRFL(uint256 indexed id);\n    event CancelRFL(uint256 indexed id);\n    event IssueRFL(uint256 indexed id, address destination, uint256 value);\n\n    modifier RFIExists(uint256 _RFIid) {\n        require(_RFIid <= RFIsLength, \"RFI does not exist\");\n        _;\n    }\n\n    modifier RFLExists(uint256 _RFLid) {\n        require(_RFLid <= RFLsLength, \"RFL does not exist\");\n        _;\n    }\n\n    /*--------------------*/\n\n    function initialize(PandoGenesis _genesis, PandoLineage _lineage) external onlyInit {\n        initialized();\n        Test.Toto memory t = Test.Toto('thisisatest');\n        genesis = _genesis;\n        lineage = _lineage;\n    }\n\n    function createRFI(Pando.IIndividuation _individuation, Pando.ILineage[] _lineages)\n        public\n        isInitialized\n        auth(CREATE_RFI_ROLE)\n        returns (uint256 RFIid)\n    {\n        RFIid = _createRFI(_individuation, _lineages);\n    }\n\n    function mergeRFI(uint256 _RFIid) public isInitialized auth(MERGE_RFI_ROLE) {\n        require(canMergeRFI(_RFIid), \"cannot merge RFI\");\n        _mergeRFI(_RFIid);\n    }\n\n    function rejectRFI(uint256 _RFIid) public isInitialized auth(REJECT_RFI_ROLE) {\n        require(canRejectRFI(_RFIid), \"cannot reject RFI\");\n        _rejectRFI(_RFIid);\n    }\n\n    function acceptRFL(uint256 _RFLid, uint256 _value) public isInitialized auth(ACCEPT_RFL_ROLE) {\n        require(canAcceptRFL(_RFLid, _value), \"cannot accept RFL\");\n        _acceptRFL(_RFLid, _value);\n    }\n\n    function rejectRFL(uint256 _RFLid) public isInitialized auth(REJECT_RFL_ROLE) {\n        require(canRejectRFL(_RFLid), \"cannot reject RFL\");\n        _rejectRFL(_RFLid);\n    }\n\n    /*--------------------*/\n\n    function canMergeRFI(uint256 _RFIid) public view returns (bool) {\n        if (_RFIid > RFIsLength)\n            return false;\n        Pando.RFI storage RFI = RFIs[_RFIid];\n        if (RFI.state != Pando.RFIState.Pending)\n            return false;\n        for (uint256 i = 0; i < RFI.RFLids.length; i++) {\n            Pando.RFL storage RFL = RFLs[RFI.RFLids[i]];\n            if (RFL.state != Pando.RFLState.Accepted)\n                return false;\n        }\n        return true;\n    }\n\n    function canRejectRFI(uint _RFIid) public view returns (bool) {\n        if (_RFIid > RFIsLength)\n            return false;\n        if (!RFIs[_RFIid].isPending())\n            return false;\n        return true;\n    }\n\n    function canAcceptRFL(uint256 _RFLid, uint256 _value) public view returns (bool) {\n        if (_RFLid > RFLsLength)\n            return false;\n        if (!RFLs[_RFLid].isPending())\n            return false;\n        if (_value < RFLs[_RFLid].lineage.minimum)\n            return false;\n        return true;\n    }\n\n    function canRejectRFL(uint _RFLid) public view returns (bool) {\n        if (_RFLid > RFLsLength)\n            return false;\n        if (!RFLs[_RFLid].isPending())\n            return false;\n        return true;\n    }\n\n    /*--------------------*/\n\n    function getLineageToken() public view returns (address) {\n        return address(lineage.token());\n    }\n\n    function getRFI(uint256 _RFIid) public view RFIExists(_RFIid) returns (Pando.RFI) {\n        return RFIs[_RFIid];\n    }\n\n    function getRFL(uint256 _RFLid) public view RFLExists(_RFLid) returns (Pando.RFL) {\n        return RFLs[_RFLid];\n    }\n\n    function head() public view returns (bytes32) {\n        return genesis.head();\n    }\n\n    function getHead() public view returns (Pando.Individuation) {\n        return genesis.getHead();\n    }\n\n    function getIndividuationHash(Pando.Individuation _individuation) public pure returns (bytes32) {\n        return _individuation.hash();\n    }\n\n    /*--------------------*/\n\n    function _createRFI(Pando.IIndividuation _individuation, Pando.ILineage[] _lineages) internal returns (uint256 RFIid) {\n        // msg.sender is gonna be the address of a governance kit built on top of the API\n        // Do you we wanna make sure that the transaction is actually initialized by _individuation.origin ?\n        // If this is the case then we're gonna need to ask for a proof of identity through a ECDSA signature\n        // See https://github.com/OpenZeppelin/openzeppelin-solidity/blob/master/contracts/cryptography/ECDSA.sol\n\n        RFIsLength = RFIsLength + 1;\n        RFIid = RFIsLength;\n\n        Pando.RFI storage RFI = RFIs[RFIid];\n\n        RFI.individuation.origin = _individuation.origin;\n        RFI.individuation.tree = _individuation.tree;\n        RFI.individuation.message = _individuation.message;\n        RFI.individuation.metadata = _individuation.metadata;\n        RFI.blockstamp = block.number;\n        RFI.state = Pando.RFIState.Pending;\n\n        // solc 4.0.24 cannot directly convert dynamic struct array from memory to storage\n        RFI.individuation.parents.length = _individuation.parents.length;\n        for (uint256 i = 0; i < _individuation.parents.length; i++) {\n            RFI.individuation.parents[i] = _individuation.parents[i];\n        }\n\n        for (uint256 j = 0; j < _lineages.length; j++) {\n            uint256 RFLid = _createRFL(_lineages[j], RFIid);\n            uint256 index = RFI.RFLids.length++;\n            RFI.RFLids[index] = RFLid;\n        }\n\n        emit CreateRFI(RFIid);\n    }\n\n    function _mergeRFI(uint256 _RFIid) internal {\n        Pando.RFI storage RFI = RFIs[_RFIid];\n\n        RFI.state = Pando.RFIState.Merged;\n\n        genesis.individuate(RFI.individuation);\n\n        for (uint256 i = 0; i < RFI.RFLids.length; i++) {\n            _issueRFL(RFI.RFLids[i]);\n        }\n\n        emit MergeRFI(_RFIid);\n    }\n\n    function _rejectRFI(uint256 _RFIid) internal {\n        Pando.RFI storage RFI = RFIs[_RFIid];\n\n        RFI.state = Pando.RFIState.Rejected;\n\n        for (uint256 j = 0; j < RFI.RFLids.length; j++) {\n            _cancelRFL(RFI.RFLids[j]);\n        }\n\n        emit RejectRFI(_RFIid);\n    }\n\n    function _cancelRFI(uint256 _RFIid) internal {\n        Pando.RFI storage RFI = RFIs[_RFIid];\n\n        RFI.state = Pando.RFIState.Cancelled;\n\n        for (uint256 i = 0; i < RFI.RFLids.length; i++) {\n            Pando.RFL storage RFL = RFLs[RFI.RFLids[i]];\n\n            if (RFL.state != Pando.RFLState.Rejected)\n                _cancelRFL(RFI.RFLids[i]);\n        }\n\n        emit CancelRFI(_RFIid);\n    }\n\n    function _createRFL(Pando.ILineage _lineage, uint256 _RFIid) internal returns (uint256 RFLid) {\n        RFLsLength = RFLsLength + 1;\n        RFLid = RFLsLength;\n\n        Pando.RFL storage RFL = RFLs[RFLid];\n\n        RFL.lineage.destination = _lineage.destination;\n        RFL.lineage.minimum = _lineage.minimum;\n        RFL.lineage.metadata = _lineage.metadata;\n        RFL.blockstamp = block.number;\n        RFL.value = 0;\n        RFL.state = Pando.RFLState.Pending;\n        RFL.RFIid = _RFIid;\n\n        emit CreateRFL(RFLid);\n    }\n\n    function _acceptRFL(uint256 _RFLid, uint256 _value) internal {\n        Pando.RFL storage RFL = RFLs[_RFLid];\n\n        RFL.state = Pando.RFLState.Accepted;\n        RFL.value = _value;\n\n        emit AcceptRFL(_RFLid, _value);\n    }\n\n    function _rejectRFL(uint256 _RFLid) internal {\n        Pando.RFL storage RFL = RFLs[_RFLid];\n\n        RFL.state = Pando.RFLState.Rejected;\n\n        _cancelRFI(RFL.RFIid);\n\n        emit RejectRFL(_RFLid);\n    }\n\n    function _cancelRFL(uint256 _RFLid) internal {\n        Pando.RFL storage RFL = RFLs[_RFLid];\n\n        RFL.state = Pando.RFLState.Cancelled;\n\n        emit CancelRFL(_RFLid);\n    }\n\n    function _issueRFL(uint256 _RFLid) internal {\n        Pando.RFL storage RFL = RFLs[_RFLid];\n\n        RFL.state = Pando.RFLState.Issued;\n\n        lineage.mint(RFL.lineage.destination, RFL.value);\n\n        emit IssueRFL(_RFLid, RFL.lineage.destination, RFL.value);\n    }\n}\n",
  "sourcePath": "/Users/osarrouy/Documents/dapp/@pando/packages/core/organism/contracts/Organism.sol",
  "compiler": {
    "name": "solc",
    "version": "0.4.24+commit.e67f0147.Emscripten.clang"
  },
  "schemaVersion": "2.0.1",
  "updatedAt": "2018-11-25T16:34:26.858Z"
}