{
  "contractName": "PandoGenesis",
  "abi": [
    {
      "constant": true,
      "inputs": [],
      "name": "hasInitialized",
      "outputs": [
        {
          "name": "",
          "type": "bool"
        }
      ],
      "payable": false,
      "stateMutability": "view",
      "type": "function"
    },
    {
      "constant": true,
      "inputs": [],
      "name": "KERNEL_APP_ID",
      "outputs": [
        {
          "name": "",
          "type": "bytes32"
        }
      ],
      "payable": false,
      "stateMutability": "view",
      "type": "function"
    },
    {
      "constant": true,
      "inputs": [],
      "name": "APP_ADDR_NAMESPACE",
      "outputs": [
        {
          "name": "",
          "type": "bytes32"
        }
      ],
      "payable": false,
      "stateMutability": "view",
      "type": "function"
    },
    {
      "constant": true,
      "inputs": [],
      "name": "getRecoveryVault",
      "outputs": [
        {
          "name": "",
          "type": "address"
        }
      ],
      "payable": false,
      "stateMutability": "view",
      "type": "function"
    },
    {
      "constant": true,
      "inputs": [],
      "name": "EVMSCRIPT_REGISTRY_APP_ID",
      "outputs": [
        {
          "name": "",
          "type": "bytes32"
        }
      ],
      "payable": false,
      "stateMutability": "view",
      "type": "function"
    },
    {
      "constant": true,
      "inputs": [],
      "name": "CORE_NAMESPACE",
      "outputs": [
        {
          "name": "",
          "type": "bytes32"
        }
      ],
      "payable": false,
      "stateMutability": "view",
      "type": "function"
    },
    {
      "constant": true,
      "inputs": [
        {
          "name": "token",
          "type": "address"
        }
      ],
      "name": "allowRecoverability",
      "outputs": [
        {
          "name": "",
          "type": "bool"
        }
      ],
      "payable": false,
      "stateMutability": "view",
      "type": "function"
    },
    {
      "constant": true,
      "inputs": [],
      "name": "appId",
      "outputs": [
        {
          "name": "",
          "type": "bytes32"
        }
      ],
      "payable": false,
      "stateMutability": "view",
      "type": "function"
    },
    {
      "constant": true,
      "inputs": [],
      "name": "ETH",
      "outputs": [
        {
          "name": "",
          "type": "address"
        }
      ],
      "payable": false,
      "stateMutability": "view",
      "type": "function"
    },
    {
      "constant": true,
      "inputs": [],
      "name": "getInitializationBlock",
      "outputs": [
        {
          "name": "",
          "type": "uint256"
        }
      ],
      "payable": false,
      "stateMutability": "view",
      "type": "function"
    },
    {
      "constant": true,
      "inputs": [],
      "name": "head",
      "outputs": [
        {
          "name": "",
          "type": "bytes32"
        }
      ],
      "payable": false,
      "stateMutability": "view",
      "type": "function"
    },
    {
      "constant": false,
      "inputs": [
        {
          "name": "_token",
          "type": "address"
        }
      ],
      "name": "transferToVault",
      "outputs": [],
      "payable": false,
      "stateMutability": "nonpayable",
      "type": "function"
    },
    {
      "constant": true,
      "inputs": [
        {
          "name": "_sender",
          "type": "address"
        },
        {
          "name": "_role",
          "type": "bytes32"
        },
        {
          "name": "_params",
          "type": "uint256[]"
        }
      ],
      "name": "canPerform",
      "outputs": [
        {
          "name": "",
          "type": "bool"
        }
      ],
      "payable": false,
      "stateMutability": "view",
      "type": "function"
    },
    {
      "constant": true,
      "inputs": [],
      "name": "INDIVIDUATE_ROLE",
      "outputs": [
        {
          "name": "",
          "type": "bytes32"
        }
      ],
      "payable": false,
      "stateMutability": "view",
      "type": "function"
    },
    {
      "constant": true,
      "inputs": [],
      "name": "ACL_APP_ID",
      "outputs": [
        {
          "name": "",
          "type": "bytes32"
        }
      ],
      "payable": false,
      "stateMutability": "view",
      "type": "function"
    },
    {
      "constant": true,
      "inputs": [],
      "name": "kernel",
      "outputs": [
        {
          "name": "",
          "type": "address"
        }
      ],
      "payable": false,
      "stateMutability": "view",
      "type": "function"
    },
    {
      "constant": true,
      "inputs": [],
      "name": "APP_BASES_NAMESPACE",
      "outputs": [
        {
          "name": "",
          "type": "bytes32"
        }
      ],
      "payable": false,
      "stateMutability": "view",
      "type": "function"
    },
    {
      "constant": true,
      "inputs": [],
      "name": "isPetrified",
      "outputs": [
        {
          "name": "",
          "type": "bool"
        }
      ],
      "payable": false,
      "stateMutability": "view",
      "type": "function"
    },
    {
      "constant": true,
      "inputs": [
        {
          "name": "",
          "type": "bytes32"
        }
      ],
      "name": "individuations",
      "outputs": [
        {
          "name": "origin",
          "type": "address"
        },
        {
          "name": "blockstamp",
          "type": "uint256"
        },
        {
          "name": "tree",
          "type": "string"
        },
        {
          "name": "message",
          "type": "string"
        },
        {
          "name": "metadata",
          "type": "string"
        }
      ],
      "payable": false,
      "stateMutability": "view",
      "type": "function"
    },
    {
      "constant": true,
      "inputs": [
        {
          "name": "_script",
          "type": "bytes"
        }
      ],
      "name": "getExecutor",
      "outputs": [
        {
          "name": "",
          "type": "address"
        }
      ],
      "payable": false,
      "stateMutability": "view",
      "type": "function"
    },
    {
      "anonymous": false,
      "inputs": [
        {
          "indexed": false,
          "name": "hash",
          "type": "bytes32"
        }
      ],
      "name": "Individuate",
      "type": "event"
    },
    {
      "anonymous": false,
      "inputs": [
        {
          "indexed": true,
          "name": "executor",
          "type": "address"
        },
        {
          "indexed": false,
          "name": "script",
          "type": "bytes"
        },
        {
          "indexed": false,
          "name": "input",
          "type": "bytes"
        },
        {
          "indexed": false,
          "name": "returnData",
          "type": "bytes"
        }
      ],
      "name": "ScriptResult",
      "type": "event"
    },
    {
      "constant": false,
      "inputs": [],
      "name": "initialize",
      "outputs": [],
      "payable": false,
      "stateMutability": "nonpayable",
      "type": "function"
    },
    {
      "constant": false,
      "inputs": [
        {
          "components": [
            {
              "name": "origin",
              "type": "address"
            },
            {
              "name": "tree",
              "type": "string"
            },
            {
              "name": "message",
              "type": "string"
            },
            {
              "name": "metadata",
              "type": "string"
            },
            {
              "components": [
                {
                  "name": "api",
                  "type": "address"
                },
                {
                  "name": "hash",
                  "type": "bytes32"
                }
              ],
              "name": "parents",
              "type": "tuple[]"
            }
          ],
          "name": "_individuation",
          "type": "tuple"
        }
      ],
      "name": "individuate",
      "outputs": [],
      "payable": false,
      "stateMutability": "nonpayable",
      "type": "function"
    },
    {
      "constant": true,
      "inputs": [
        {
          "name": "_hash",
          "type": "bytes32"
        }
      ],
      "name": "getIndividuation",
      "outputs": [
        {
          "components": [
            {
              "name": "origin",
              "type": "address"
            },
            {
              "name": "blockstamp",
              "type": "uint256"
            },
            {
              "name": "tree",
              "type": "string"
            },
            {
              "name": "message",
              "type": "string"
            },
            {
              "name": "metadata",
              "type": "string"
            },
            {
              "components": [
                {
                  "name": "api",
                  "type": "address"
                },
                {
                  "name": "hash",
                  "type": "bytes32"
                }
              ],
              "name": "parents",
              "type": "tuple[]"
            }
          ],
          "name": "",
          "type": "tuple"
        }
      ],
      "payable": false,
      "stateMutability": "view",
      "type": "function"
    },
    {
      "constant": true,
      "inputs": [],
      "name": "getHead",
      "outputs": [
        {
          "components": [
            {
              "name": "origin",
              "type": "address"
            },
            {
              "name": "blockstamp",
              "type": "uint256"
            },
            {
              "name": "tree",
              "type": "string"
            },
            {
              "name": "message",
              "type": "string"
            },
            {
              "name": "metadata",
              "type": "string"
            },
            {
              "components": [
                {
                  "name": "api",
                  "type": "address"
                },
                {
                  "name": "hash",
                  "type": "bytes32"
                }
              ],
              "name": "parents",
              "type": "tuple[]"
            }
          ],
          "name": "",
          "type": "tuple"
        }
      ],
      "payable": false,
      "stateMutability": "view",
      "type": "function"
    }
  ],
  "bytecode": "0x60806040526200001d62000023640100000000026401000000009004565b6200015b565b60006200003e62000087640100000000026401000000009004565b1415156200004b57600080fd5b620000857fffffffffffffffffffffffffffffffffffffffffffffffffffffffffffffffff620000d4640100000000026401000000009004565b565b6000620000cf7febb05b386a8d34882b8711d156f463690983dc47815980fb82aeeff1aa43579e60010260001916620001496401000000000262001a30176401000000009004565b905090565b6000620000ef62000087640100000000026401000000009004565b141515620000fc57600080fd5b62000146817febb05b386a8d34882b8711d156f463690983dc47815980fb82aeeff1aa43579e60010260001916620001546401000000000262001b9a179091906401000000009004565b50565b600081549050919050565b8082555050565b612abb806200016b6000396000f30060806040526004361061013e576000357c0100000000000000000000000000000000000000000000000000000000900463ffffffff1680630803fac0146101435780631113ed0d1461016e578063115cb3ad14610199578063178e6079146101d657806332f0a3b51461020157806360b1e0571461022c578063756f6049146102575780637e7db6e11461028257806380afdea8146102bf5780638129fc1c146102ea5780638322fff2146103015780638b3dd7491461032c5780638f7dcfa3146103575780639d4941d814610382578063a0a66f7c146103ab578063a1658fad146103d4578063c34e0ed614610411578063cbcc65eb1461043c578063d4aae0c414610467578063db8a61d414610492578063dc281aff146104bd578063de4796ed146104e8578063f131fb9914610513578063f92a79ff14610554575b600080fd5b34801561014f57600080fd5b50610158610591565b6040516101659190612725565b60405180910390f35b34801561017a57600080fd5b506101836105bc565b6040516101909190612740565b60405180910390f35b3480156101a557600080fd5b506101c060048036036101bb919081019061217f565b6105e3565b6040516101cd91906127f7565b60405180910390f35b3480156101e257600080fd5b506101eb610939565b6040516101f89190612740565b60405180910390f35b34801561020d57600080fd5b50610216610960565b604051610223919061262d565b60405180910390f35b34801561023857600080fd5b50610241610a4c565b60405161024e9190612740565b60405180910390f35b34801561026357600080fd5b5061026c610a73565b6040516102799190612740565b60405180910390f35b34801561028e57600080fd5b506102a960048036036102a4919081019061209d565b610a9a565b6040516102b69190612725565b60405180910390f35b3480156102cb57600080fd5b506102d4610aa5565b6040516102e19190612740565b60405180910390f35b3480156102f657600080fd5b506102ff610adc565b005b34801561030d57600080fd5b50610316610afc565b604051610323919061262d565b60405180910390f35b34801561033857600080fd5b50610341610b01565b60405161034e919061283b565b60405180910390f35b34801561036357600080fd5b5061036c610b38565b6040516103799190612740565b60405180910390f35b34801561038e57600080fd5b506103a960048036036103a4919081019061209d565b610b3e565b005b3480156103b757600080fd5b506103d260048036036103cd919081019061223b565b610d64565b005b3480156103e057600080fd5b506103fb60048036036103f691908101906120ef565b611173565b6040516104089190612725565b60405180910390f35b34801561041d57600080fd5b506104266112ab565b6040516104339190612740565b60405180910390f35b34801561044857600080fd5b506104516112e4565b60405161045e9190612740565b60405180910390f35b34801561047357600080fd5b5061047c61130b565b60405161048991906127c1565b60405180910390f35b34801561049e57600080fd5b506104a7611342565b6040516104b49190612740565b60405180910390f35b3480156104c957600080fd5b506104d2611369565b6040516104df91906127f7565b60405180910390f35b3480156104f457600080fd5b506104fd6116be565b60405161050a9190612725565b60405180910390f35b34801561051f57600080fd5b5061053a6004803603610535919081019061217f565b6116ef565b60405161054b9594939291906126bd565b60405180910390f35b34801561056057600080fd5b5061057b600480360361057691908101906121d1565b61190d565b60405161058891906127a6565b60405180910390f35b60008061059c610b01565b9050600081141580156105b65750806105b36119c4565b10155b91505090565b7f3b4bf6bf3ad5000ecf0f989d5befde585c6860fea3e574a4fab4c49d1c177d9c60010281565b6105eb611ba1565b6105f3610591565b15156105fe57600080fd5b60016000836000191660001916815260200190815260200160002060c060405190810160405290816000820160009054906101000a900473ffffffffffffffffffffffffffffffffffffffff1673ffffffffffffffffffffffffffffffffffffffff1673ffffffffffffffffffffffffffffffffffffffff16815260200160018201548152602001600282018054600181600116156101000203166002900480601f01602080910402602001604051908101604052809291908181526020018280546001816001161561010002031660029004801561071e5780601f106106f35761010080835404028352916020019161071e565b820191906000526020600020905b81548152906001019060200180831161070157829003601f168201915b50505050508152602001600382018054600181600116156101000203166002900480601f0160208091040260200160405190810160405280929190818152602001828054600181600116156101000203166002900480156107c05780601f10610795576101008083540402835291602001916107c0565b820191906000526020600020905b8154815290600101906020018083116107a357829003601f168201915b50505050508152602001600482018054600181600116156101000203166002900480601f0160208091040260200160405190810160405280929190818152602001828054600181600116156101000203166002900480156108625780601f1061083757610100808354040283529160200191610862565b820191906000526020600020905b81548152906001019060200180831161084557829003601f168201915b5050505050815260200160058201805480602002602001604051908101604052809291908181526020016000905b8282101561092a57838290600052602060002090600202016040805190810160405290816000820160009054906101000a900473ffffffffffffffffffffffffffffffffffffffff1673ffffffffffffffffffffffffffffffffffffffff1673ffffffffffffffffffffffffffffffffffffffff168152602001600182015460001916600019168152505081526020019060010190610890565b50505050815250509050919050565b7fd6f028ca0e8edb4a8c9757ca4fdccab25fa1e0317da1188108f7d2dee14902fb60010281565b60008073ffffffffffffffffffffffffffffffffffffffff1661098161130b565b73ffffffffffffffffffffffffffffffffffffffff16141515156109a457600080fd5b6109ac61130b565b73ffffffffffffffffffffffffffffffffffffffff166332f0a3b56040518163ffffffff167c0100000000000000000000000000000000000000000000000000000000028152600401602060405180830381600087803b158015610a0f57600080fd5b505af1158015610a23573d6000803e3d6000fd5b505050506040513d601f19601f82011682018060405250610a4791908101906120c6565b905090565b7fddbcfd564f642ab5627cf68b9b7d374fb4f8a36e941a75d89c87998cef03bd6160010281565b7fc681a85306374a5ab27f0bbc385296a54bcd314a1948b6cf61c4ea1bc44bb9f860010281565b600060019050919050565b6000610ad77fd625496217aa6a3453eecb9c3489dc5a53e6c67b444329ea2b2cbc9ff547639b600102600019166119cc565b905090565b6000610ae6610b01565b141515610af257600080fd5b610afa6119d7565b565b600081565b6000610b337febb05b386a8d34882b8711d156f463690983dc47815980fb82aeeff1aa43579e60010260001916611a30565b905090565b60005481565b600080610b4a83610a9a565b1515610b5557600080fd5b610b5d610960565b9150610b6882611a3b565b1515610b7357600080fd5b600073ffffffffffffffffffffffffffffffffffffffff168373ffffffffffffffffffffffffffffffffffffffff161415610c0b578173ffffffffffffffffffffffffffffffffffffffff166108fc3073ffffffffffffffffffffffffffffffffffffffff16319081150290604051600060405180830381858888f19350505050158015610c05573d6000803e3d6000fd5b50610d5f565b8273ffffffffffffffffffffffffffffffffffffffff166370a08231306040518263ffffffff167c0100000000000000000000000000000000000000000000000000000000028152600401610c6091906127dc565b602060405180830381600087803b158015610c7a57600080fd5b505af1158015610c8e573d6000803e3d6000fd5b505050506040513d601f19601f82011682018060405250610cb2919081019061227c565b90508273ffffffffffffffffffffffffffffffffffffffff1663a9059cbb83836040518363ffffffff167c0100000000000000000000000000000000000000000000000000000000028152600401610d0b929190612694565b602060405180830381600087803b158015610d2557600080fd5b505af1158015610d39573d6000803e3d6000fd5b505050506040513d601f19601f82011682018060405250610d5d9190810190612156565b505b505050565b610d6c611ba1565b600080610d77610591565b1515610d8257600080fd5b60405180807f494e4449564944554154455f524f4c450000000000000000000000000000000081525060100190506040518091039020610df333826000604051908082528060200260200182016040528015610ded5781602001602082028038833980820191505090505b50611173565b1515610dfe57600080fd5b60c060405190810160405280866000015173ffffffffffffffffffffffffffffffffffffffff168152602001438152602001866020015181526020018660400151815260200186606001518152602001866080015181525093508373__Pando_________________________________63b1c2d68d90916040518263ffffffff167c0100000000000000000000000000000000000000000000000000000000028152600401610ead9190612819565b60206040518083038186803b158015610ec557600080fd5b505af4158015610ed9573d6000803e3d6000fd5b505050506040513d601f19601f82011682018060405250610efd91908101906121a8565b9250836000015160016000856000191660001916815260200190815260200160002060000160006101000a81548173ffffffffffffffffffffffffffffffffffffffff021916908373ffffffffffffffffffffffffffffffffffffffff16021790555083602001516001600085600019166000191681526020019081526020016000206001018190555083604001516001600085600019166000191681526020019081526020016000206002019080519060200190610fbd929190611bee565b5083606001516001600085600019166000191681526020019081526020016000206003019080519060200190610ff4929190611bee565b508360800151600160008560001916600019168152602001908152602001600020600401908051906020019061102b929190611bee565b508360a00151516001600085600019166000191681526020019081526020016000206005018161105b9190611c6e565b50600091505b8360a001515182101561112a578360a001518281518110151561108057fe5b90602001906020020151600160008560001916600019168152602001908152602001600020600501838154811015156110b557fe5b906000526020600020906002020160008201518160000160006101000a81548173ffffffffffffffffffffffffffffffffffffffff021916908373ffffffffffffffffffffffffffffffffffffffff160217905550602082015181600101906000191690559050508180600101925050611061565b82600081600019169055507f60abf4225368bd17f1998b81eb52b7eeecfbb02ff266802d2fdd3324ce5eb6ef836040516111649190612740565b60405180910390a15050505050565b60008060606000611182610591565b151561119157600093506112a1565b61119961130b565b9250600073ffffffffffffffffffffffffffffffffffffffff168373ffffffffffffffffffffffffffffffffffffffff1614156111d957600093506112a1565b6000855111156111f157602085510290508491508082525b8273ffffffffffffffffffffffffffffffffffffffff1663fdef9106883089866040518563ffffffff167c010000000000000000000000000000000000000000000000000000000002815260040161124c9493929190612648565b602060405180830381600087803b15801561126657600080fd5b505af115801561127a573d6000803e3d6000fd5b505050506040513d601f19601f8201168201806040525061129e9190810190612156565b93505b5050509392505050565b60405180807f494e4449564944554154455f524f4c45000000000000000000000000000000008152506010019050604051809103902081565b7fe3262375f45a6e2026b7e7b18c2b807434f2508fe1a2a3dfb493c7df8f4aad6a60010281565b600061133d7f4172f0f7d2289153072b0a6ca36959e0cbe2efc3afe50fc81636caa96338137b60010260001916611a8d565b905090565b7ff1f3eb40f5bc1ad1344716ced8b8a0431d840b5783aea1fd01786bc26f35ac0f60010281565b611371611ba1565b611379610591565b151561138457600080fd5b6001600080546000191660001916815260200190815260200160002060c060405190810160405290816000820160009054906101000a900473ffffffffffffffffffffffffffffffffffffffff1673ffffffffffffffffffffffffffffffffffffffff1673ffffffffffffffffffffffffffffffffffffffff16815260200160018201548152602001600282018054600181600116156101000203166002900480601f0160208091040260200160405190810160405280929190818152602001828054600181600116156101000203166002900480156114a55780601f1061147a576101008083540402835291602001916114a5565b820191906000526020600020905b81548152906001019060200180831161148857829003601f168201915b50505050508152602001600382018054600181600116156101000203166002900480601f0160208091040260200160405190810160405280929190818152602001828054600181600116156101000203166002900480156115475780601f1061151c57610100808354040283529160200191611547565b820191906000526020600020905b81548152906001019060200180831161152a57829003601f168201915b50505050508152602001600482018054600181600116156101000203166002900480601f0160208091040260200160405190810160405280929190818152602001828054600181600116156101000203166002900480156115e95780601f106115be576101008083540402835291602001916115e9565b820191906000526020600020905b8154815290600101906020018083116115cc57829003601f168201915b5050505050815260200160058201805480602002602001604051908101604052809291908181526020016000905b828210156116b157838290600052602060002090600202016040805190810160405290816000820160009054906101000a900473ffffffffffffffffffffffffffffffffffffffff1673ffffffffffffffffffffffffffffffffffffffff1673ffffffffffffffffffffffffffffffffffffffff168152602001600182015460001916600019168152505081526020019060010190611617565b5050505081525050905090565b60007fffffffffffffffffffffffffffffffffffffffffffffffffffffffffffffffff6116e9610b01565b14905090565b60016020528060005260406000206000915090508060000160009054906101000a900473ffffffffffffffffffffffffffffffffffffffff1690806001015490806002018054600181600116156101000203166002900480601f0160208091040260200160405190810160405280929190818152602001828054600181600116156101000203166002900480156117c75780601f1061179c576101008083540402835291602001916117c7565b820191906000526020600020905b8154815290600101906020018083116117aa57829003601f168201915b505050505090806003018054600181600116156101000203166002900480601f0160208091040260200160405190810160405280929190818152602001828054600181600116156101000203166002900480156118655780601f1061183a57610100808354040283529160200191611865565b820191906000526020600020905b81548152906001019060200180831161184857829003601f168201915b505050505090806004018054600181600116156101000203166002900480601f0160208091040260200160405190810160405280929190818152602001828054600181600116156101000203166002900480156119035780601f106118d857610100808354040283529160200191611903565b820191906000526020600020905b8154815290600101906020018083116118e657829003601f168201915b5050505050905085565b6000611917611a98565b73ffffffffffffffffffffffffffffffffffffffff166304bf2a7f836040518263ffffffff167c010000000000000000000000000000000000000000000000000000000002815260040161196b9190612784565b602060405180830381600087803b15801561198557600080fd5b505af1158015611999573d6000803e3d6000fd5b505050506040513d601f19601f820116820180604052506119bd9190810190612212565b9050919050565b600043905090565b600081549050919050565b60006119e1610b01565b1415156119ed57600080fd5b611a2e6119f86119c4565b7febb05b386a8d34882b8711d156f463690983dc47815980fb82aeeff1aa43579e60010260001916611b9a90919063ffffffff16565b565b600081549050919050565b600080600073ffffffffffffffffffffffffffffffffffffffff168373ffffffffffffffffffffffffffffffffffffffff161415611a7c5760009150611a87565b823b90506000811191505b50919050565b600081549050919050565b600080611aa361130b565b73ffffffffffffffffffffffffffffffffffffffff1663be00bbd87fd6f028ca0e8edb4a8c9757ca4fdccab25fa1e0317da1188108f7d2dee14902fb6001027fddbcfd564f642ab5627cf68b9b7d374fb4f8a36e941a75d89c87998cef03bd616001026040518363ffffffff167c0100000000000000000000000000000000000000000000000000000000028152600401611b3f92919061275b565b602060405180830381600087803b158015611b5957600080fd5b505af1158015611b6d573d6000803e3d6000fd5b505050506040513d601f19601f82011682018060405250611b9191908101906120c6565b90508091505090565b8082555050565b60c060405190810160405280600073ffffffffffffffffffffffffffffffffffffffff16815260200160008152602001606081526020016060815260200160608152602001606081525090565b828054600181600116156101000203166002900490600052602060002090601f016020900481019282601f10611c2f57805160ff1916838001178555611c5d565b82800160010185558215611c5d579182015b82811115611c5c578251825591602001919060010190611c41565b5b509050611c6a9190611ca0565b5090565b815481835581811115611c9b57600202816002028360005260206000209182019101611c9a9190611cc5565b5b505050565b611cc291905b80821115611cbe576000816000905550600101611ca6565b5090565b90565b611d1091905b80821115611d0c57600080820160006101000a81549073ffffffffffffffffffffffffffffffffffffffff0219169055600182016000905550600201611ccb565b5090565b90565b6000611d1f82356129a6565b905092915050565b6000611d3382516129a6565b905092915050565b600082601f8301121515611d4e57600080fd5b8135611d61611d5c82612883565b612856565b91508181835260208401935060208101905083856040840282011115611d8657600080fd5b60005b83811015611db65781611d9c8882611f41565b845260208401935060408301925050600181019050611d89565b5050505092915050565b600082601f8301121515611dd357600080fd5b8135611de6611de1826128ab565b612856565b91508181835260208401935060208101905083856020840282011115611e0b57600080fd5b60005b83811015611e3b5781611e218882612075565b845260208401935060208301925050600181019050611e0e565b5050505092915050565b6000611e5182516129c6565b905092915050565b6000611e6582356129d2565b905092915050565b6000611e7982516129d2565b905092915050565b600082601f8301121515611e9457600080fd5b8135611ea7611ea2826128d3565b612856565b91508082526020830160208301858383011115611ec357600080fd5b611ece838284612a2e565b50505092915050565b6000611ee382516129dc565b905092915050565b600082601f8301121515611efe57600080fd5b8135611f11611f0c826128ff565b612856565b91508082526020830160208301858383011115611f2d57600080fd5b611f38838284612a2e565b50505092915050565b600060408284031215611f5357600080fd5b611f5d6040612856565b90506000611f6d84828501611d13565b6000830152506020611f8184828501611e59565b60208301525092915050565b600060a08284031215611f9f57600080fd5b611fa960a0612856565b90506000611fb984828501611d13565b600083015250602082013567ffffffffffffffff811115611fd957600080fd5b611fe584828501611eeb565b602083015250604082013567ffffffffffffffff81111561200557600080fd5b61201184828501611eeb565b604083015250606082013567ffffffffffffffff81111561203157600080fd5b61203d84828501611eeb565b606083015250608082013567ffffffffffffffff81111561205d57600080fd5b61206984828501611d3b565b60808301525092915050565b600061208182356129ee565b905092915050565b600061209582516129ee565b905092915050565b6000602082840312156120af57600080fd5b60006120bd84828501611d13565b91505092915050565b6000602082840312156120d857600080fd5b60006120e684828501611d27565b91505092915050565b60008060006060848603121561210457600080fd5b600061211286828701611d13565b935050602061212386828701611e59565b925050604084013567ffffffffffffffff81111561214057600080fd5b61214c86828701611dc0565b9150509250925092565b60006020828403121561216857600080fd5b600061217684828501611e45565b91505092915050565b60006020828403121561219157600080fd5b600061219f84828501611e59565b91505092915050565b6000602082840312156121ba57600080fd5b60006121c884828501611e6d565b91505092915050565b6000602082840312156121e357600080fd5b600082013567ffffffffffffffff8111156121fd57600080fd5b61220984828501611e81565b91505092915050565b60006020828403121561222457600080fd5b600061223284828501611ed7565b91505092915050565b60006020828403121561224d57600080fd5b600082013567ffffffffffffffff81111561226757600080fd5b61227384828501611f8d565b91505092915050565b60006020828403121561228e57600080fd5b600061229c84828501612089565b91505092915050565b6122ae81612966565b82525050565b6122bd81612966565b82525050565b60006122ce82612938565b8084526020840193506122e08361292b565b60005b82811015612312576122f6868351612475565b6122ff82612959565b91506040860195506001810190506122e3565b50849250505092915050565b600061232982612938565b80845260208401935061233b8361292b565b60005b8281101561236d576123518683516124a4565b61235a82612959565b915060408601955060018101905061233e565b50849250505092915050565b61238281612986565b82525050565b61239181612992565b82525050565b6123a081612992565b82525050565b60006123b182612943565b8084526123c5816020860160208601612a3d565b6123ce81612a70565b602085010191505092915050565b6123e5816129f8565b82525050565b6123f481612a0a565b82525050565b61240381612a1c565b82525050565b60006124148261294e565b808452612428816020860160208601612a3d565b61243181612a70565b602085010191505092915050565b600061244a8261294e565b80845261245e816020860160208601612a3d565b61246781612a70565b602085010191505092915050565b60408201600082015161248b60008501826122a5565b50602082015161249e6020850182612388565b50505050565b6040820160008201516124ba60008501826122b4565b5060208201516124cd6020850182612397565b50505050565b600060c0830160008301516124eb60008601826122a5565b5060208301516124fe602086018261260f565b50604083015184820360408601526125168282612409565b915050606083015184820360608601526125308282612409565b9150506080830151848203608086015261254a8282612409565b91505060a083015184820360a086015261256482826122c3565b9150508091505092915050565b600060c08301600083015161258960008601826122b4565b50602083015161259c602086018261261e565b50604083015184820360408601526125b4828261243f565b915050606083015184820360608601526125ce828261243f565b915050608083015184820360808601526125e8828261243f565b91505060a083015184820360a0860152612602828261231e565b9150508091505092915050565b6126188161299c565b82525050565b6126278161299c565b82525050565b600060208201905061264260008301846122a5565b92915050565b600060808201905061265d60008301876122a5565b61266a60208301866122a5565b6126776040830185612388565b818103606083015261268981846123a6565b905095945050505050565b60006040820190506126a960008301856122a5565b6126b6602083018461260f565b9392505050565b600060a0820190506126d260008301886122a5565b6126df602083018761260f565b81810360408301526126f18186612409565b905081810360608301526127058185612409565b905081810360808301526127198184612409565b90509695505050505050565b600060208201905061273a6000830184612379565b92915050565b60006020820190506127556000830184612388565b92915050565b60006040820190506127706000830185612388565b61277d6020830184612388565b9392505050565b6000602082019050818103600083015261279e81846123a6565b905092915050565b60006020820190506127bb60008301846123dc565b92915050565b60006020820190506127d660008301846123eb565b92915050565b60006020820190506127f160008301846123fa565b92915050565b6000602082019050818103600083015261281181846124d3565b905092915050565b600060208201905081810360008301526128338184612571565b905092915050565b6000602082019050612850600083018461260f565b92915050565b6000604051905081810181811067ffffffffffffffff8211171561287957600080fd5b8060405250919050565b600067ffffffffffffffff82111561289a57600080fd5b602082029050602081019050919050565b600067ffffffffffffffff8211156128c257600080fd5b602082029050602081019050919050565b600067ffffffffffffffff8211156128ea57600080fd5b601f19601f8301169050602081019050919050565b600067ffffffffffffffff82111561291657600080fd5b601f19601f8301169050602081019050919050565b6000602082019050919050565b600081519050919050565b600081519050919050565b600081519050919050565b6000602082019050919050565b600073ffffffffffffffffffffffffffffffffffffffff82169050919050565b60008115159050919050565b6000819050919050565b6000819050919050565b600073ffffffffffffffffffffffffffffffffffffffff82169050919050565b60008115159050919050565b6000819050919050565b60006129e782612966565b9050919050565b6000819050919050565b6000612a0382612966565b9050919050565b6000612a1582612966565b9050919050565b6000612a2782612966565b9050919050565b82818337600083830152505050565b60005b83811015612a5b578082015181840152602081019050612a40565b83811115612a6a576000848401525b50505050565b6000601f19601f83011690509190505600a265627a7a72305820f23e6e9966b875efd3a9c76dd7b932cb4cb5f9b4762afa5813ac51b309dc944f6c6578706572696d656e74616cf50037",
  "source": "pragma solidity ^0.4.24;\npragma experimental ABIEncoderV2;\n\nimport \"@aragon/os/contracts/apps/AragonApp.sol\";\nimport \"../lib/Pando.sol\";\n\n\ncontract PandoGenesis is AragonApp {\n    using Pando for Pando.Individuation;\n\n    bytes32 constant public INDIVIDUATE_ROLE = keccak256(\"INDIVIDUATE_ROLE\");\n\n    bytes32 public head;\n    mapping(bytes32 => Pando.Individuation) public individuations;\n\n    event Individuate(bytes32 hash);\n\n\n    function initialize() external onlyInit {\n        initialized();\n    }\n\n    function individuate(Pando.IIndividuation _individuation) public isInitialized auth(INDIVIDUATE_ROLE) {\n        Pando.Individuation memory individuation = Pando.Individuation(\n            _individuation.origin,\n            block.number,\n            _individuation.tree,\n            _individuation.message,\n            _individuation.metadata,\n            _individuation.parents\n        );\n\n        bytes32 hash = individuation.hash();\n\n        individuations[hash].origin = individuation.origin;\n        individuations[hash].blockstamp = individuation.blockstamp;\n        individuations[hash].tree = individuation.tree;\n        individuations[hash].message = individuation.message;\n        individuations[hash].metadata = individuation.metadata;\n\n        // solc 4.0.24 cannot directly convert dynamic struct array from memory to storage\n        individuations[hash].parents.length = individuation.parents.length;\n        for (uint256 i = 0; i < individuation.parents.length; i++) {\n            individuations[hash].parents[i] = individuation.parents[i];\n        }\n\n        head = hash;\n\n        emit Individuate(hash);\n    }\n\n    function getIndividuation(bytes32 _hash) public view isInitialized returns (Pando.Individuation) {\n        return individuations[_hash];\n    }\n\n    function getHead() public view isInitialized returns (Pando.Individuation) {\n        return individuations[head];\n    }\n\n}\n",
  "sourcePath": "/Users/osarrouy/Documents/dapp/@pando/packages/core/contracts/core/PandoGenesis.sol",
  "compiler": {
    "name": "solc",
    "version": "0.4.24+commit.e67f0147.Emscripten.clang"
  },
  "schemaVersion": "2.0.1",
  "updatedAt": "2018-11-25T16:34:26.783Z"
}