{
  "contractName": "Organism",
  "abi": [
    {
      "constant": true,
      "inputs": [],
      "name": "hasInitialized",
      "outputs": [
        {
          "name": "",
          "type": "bool"
        }
      ],
      "payable": false,
      "stateMutability": "view",
      "type": "function"
    },
    {
      "constant": true,
      "inputs": [],
      "name": "REJECT_RFL_ROLE",
      "outputs": [
        {
          "name": "",
          "type": "bytes32"
        }
      ],
      "payable": false,
      "stateMutability": "view",
      "type": "function"
    },
    {
      "constant": true,
      "inputs": [],
      "name": "RFLsLength",
      "outputs": [
        {
          "name": "",
          "type": "uint256"
        }
      ],
      "payable": false,
      "stateMutability": "view",
      "type": "function"
    },
    {
      "constant": true,
      "inputs": [],
      "name": "KERNEL_APP_ID",
      "outputs": [
        {
          "name": "",
          "type": "bytes32"
        }
      ],
      "payable": false,
      "stateMutability": "view",
      "type": "function"
    },
    {
      "constant": true,
      "inputs": [],
      "name": "APP_ADDR_NAMESPACE",
      "outputs": [
        {
          "name": "",
          "type": "bytes32"
        }
      ],
      "payable": false,
      "stateMutability": "view",
      "type": "function"
    },
    {
      "constant": true,
      "inputs": [],
      "name": "CREATE_RFI_ROLE",
      "outputs": [
        {
          "name": "",
          "type": "bytes32"
        }
      ],
      "payable": false,
      "stateMutability": "view",
      "type": "function"
    },
    {
      "constant": true,
      "inputs": [],
      "name": "MERGE_RFI_ROLE",
      "outputs": [
        {
          "name": "",
          "type": "bytes32"
        }
      ],
      "payable": false,
      "stateMutability": "view",
      "type": "function"
    },
    {
      "constant": true,
      "inputs": [],
      "name": "getRecoveryVault",
      "outputs": [
        {
          "name": "",
          "type": "address"
        }
      ],
      "payable": false,
      "stateMutability": "view",
      "type": "function"
    },
    {
      "constant": true,
      "inputs": [
        {
          "components": [
            {
              "name": "origin",
              "type": "address"
            },
            {
              "name": "blockstamp",
              "type": "uint256"
            },
            {
              "name": "tree",
              "type": "string"
            },
            {
              "name": "message",
              "type": "string"
            },
            {
              "name": "metadata",
              "type": "string"
            },
            {
              "components": [
                {
                  "name": "api",
                  "type": "address"
                },
                {
                  "name": "hash",
                  "type": "bytes32"
                }
              ],
              "name": "parents",
              "type": "tuple[]"
            }
          ],
          "name": "_individuation",
          "type": "tuple"
        }
      ],
      "name": "hash",
      "outputs": [
        {
          "name": "",
          "type": "bytes32"
        }
      ],
      "payable": false,
      "stateMutability": "pure",
      "type": "function"
    },
    {
      "constant": true,
      "inputs": [
        {
          "components": [
            {
              "components": [
                {
                  "name": "destination",
                  "type": "address"
                },
                {
                  "name": "minimum",
                  "type": "uint256"
                },
                {
                  "name": "metadata",
                  "type": "string"
                }
              ],
              "name": "lineage",
              "type": "tuple"
            },
            {
              "name": "blockstamp",
              "type": "uint256"
            },
            {
              "name": "value",
              "type": "uint256"
            },
            {
              "name": "state",
              "type": "uint8"
            },
            {
              "name": "RFIid",
              "type": "uint256"
            }
          ],
          "name": "_RFL",
          "type": "tuple"
        }
      ],
      "name": "isAccepted",
      "outputs": [
        {
          "name": "",
          "type": "bool"
        }
      ],
      "payable": false,
      "stateMutability": "pure",
      "type": "function"
    },
    {
      "constant": true,
      "inputs": [
        {
          "name": "",
          "type": "uint256"
        }
      ],
      "name": "RFIs",
      "outputs": [
        {
          "components": [
            {
              "name": "origin",
              "type": "address"
            },
            {
              "name": "tree",
              "type": "string"
            },
            {
              "name": "message",
              "type": "string"
            },
            {
              "name": "metadata",
              "type": "string"
            },
            {
              "components": [
                {
                  "name": "api",
                  "type": "address"
                },
                {
                  "name": "hash",
                  "type": "bytes32"
                }
              ],
              "name": "parents",
              "type": "tuple[]"
            }
          ],
          "name": "individuation",
          "type": "tuple"
        },
        {
          "name": "blockstamp",
          "type": "uint256"
        },
        {
          "name": "state",
          "type": "uint8"
        }
      ],
      "payable": false,
      "stateMutability": "view",
      "type": "function"
    },
    {
      "constant": true,
      "inputs": [],
      "name": "EVMSCRIPT_REGISTRY_APP_ID",
      "outputs": [
        {
          "name": "",
          "type": "bytes32"
        }
      ],
      "payable": false,
      "stateMutability": "view",
      "type": "function"
    },
    {
      "constant": true,
      "inputs": [],
      "name": "CORE_NAMESPACE",
      "outputs": [
        {
          "name": "",
          "type": "bytes32"
        }
      ],
      "payable": false,
      "stateMutability": "view",
      "type": "function"
    },
    {
      "constant": true,
      "inputs": [
        {
          "name": "token",
          "type": "address"
        }
      ],
      "name": "allowRecoverability",
      "outputs": [
        {
          "name": "",
          "type": "bool"
        }
      ],
      "payable": false,
      "stateMutability": "view",
      "type": "function"
    },
    {
      "constant": true,
      "inputs": [],
      "name": "RFIsLength",
      "outputs": [
        {
          "name": "",
          "type": "uint256"
        }
      ],
      "payable": false,
      "stateMutability": "view",
      "type": "function"
    },
    {
      "constant": true,
      "inputs": [],
      "name": "appId",
      "outputs": [
        {
          "name": "",
          "type": "bytes32"
        }
      ],
      "payable": false,
      "stateMutability": "view",
      "type": "function"
    },
    {
      "constant": true,
      "inputs": [],
      "name": "ETH",
      "outputs": [
        {
          "name": "",
          "type": "address"
        }
      ],
      "payable": false,
      "stateMutability": "view",
      "type": "function"
    },
    {
      "constant": true,
      "inputs": [],
      "name": "getInitializationBlock",
      "outputs": [
        {
          "name": "",
          "type": "uint256"
        }
      ],
      "payable": false,
      "stateMutability": "view",
      "type": "function"
    },
    {
      "constant": true,
      "inputs": [],
      "name": "REJECT_RFI_ROLE",
      "outputs": [
        {
          "name": "",
          "type": "bytes32"
        }
      ],
      "payable": false,
      "stateMutability": "view",
      "type": "function"
    },
    {
      "constant": false,
      "inputs": [
        {
          "name": "_token",
          "type": "address"
        }
      ],
      "name": "transferToVault",
      "outputs": [],
      "payable": false,
      "stateMutability": "nonpayable",
      "type": "function"
    },
    {
      "constant": true,
      "inputs": [
        {
          "name": "_sender",
          "type": "address"
        },
        {
          "name": "_role",
          "type": "bytes32"
        },
        {
          "name": "_params",
          "type": "uint256[]"
        }
      ],
      "name": "canPerform",
      "outputs": [
        {
          "name": "",
          "type": "bool"
        }
      ],
      "payable": false,
      "stateMutability": "view",
      "type": "function"
    },
    {
      "constant": true,
      "inputs": [],
      "name": "genesis",
      "outputs": [
        {
          "name": "",
          "type": "address"
        }
      ],
      "payable": false,
      "stateMutability": "view",
      "type": "function"
    },
    {
      "constant": true,
      "inputs": [],
      "name": "ACCEPT_RFL_ROLE",
      "outputs": [
        {
          "name": "",
          "type": "bytes32"
        }
      ],
      "payable": false,
      "stateMutability": "view",
      "type": "function"
    },
    {
      "constant": true,
      "inputs": [],
      "name": "INDIVIDUATE_ROLE",
      "outputs": [
        {
          "name": "",
          "type": "bytes32"
        }
      ],
      "payable": false,
      "stateMutability": "view",
      "type": "function"
    },
    {
      "constant": true,
      "inputs": [
        {
          "name": "",
          "type": "uint256"
        }
      ],
      "name": "RFLs",
      "outputs": [
        {
          "components": [
            {
              "name": "destination",
              "type": "address"
            },
            {
              "name": "minimum",
              "type": "uint256"
            },
            {
              "name": "metadata",
              "type": "string"
            }
          ],
          "name": "lineage",
          "type": "tuple"
        },
        {
          "name": "blockstamp",
          "type": "uint256"
        },
        {
          "name": "value",
          "type": "uint256"
        },
        {
          "name": "state",
          "type": "uint8"
        },
        {
          "name": "RFIid",
          "type": "uint256"
        }
      ],
      "payable": false,
      "stateMutability": "view",
      "type": "function"
    },
    {
      "constant": true,
      "inputs": [],
      "name": "lineage",
      "outputs": [
        {
          "name": "",
          "type": "address"
        }
      ],
      "payable": false,
      "stateMutability": "view",
      "type": "function"
    },
    {
      "constant": true,
      "inputs": [],
      "name": "ACL_APP_ID",
      "outputs": [
        {
          "name": "",
          "type": "bytes32"
        }
      ],
      "payable": false,
      "stateMutability": "view",
      "type": "function"
    },
    {
      "constant": true,
      "inputs": [],
      "name": "kernel",
      "outputs": [
        {
          "name": "",
          "type": "address"
        }
      ],
      "payable": false,
      "stateMutability": "view",
      "type": "function"
    },
    {
      "constant": true,
      "inputs": [],
      "name": "APP_BASES_NAMESPACE",
      "outputs": [
        {
          "name": "",
          "type": "bytes32"
        }
      ],
      "payable": false,
      "stateMutability": "view",
      "type": "function"
    },
    {
      "constant": true,
      "inputs": [],
      "name": "isPetrified",
      "outputs": [
        {
          "name": "",
          "type": "bool"
        }
      ],
      "payable": false,
      "stateMutability": "view",
      "type": "function"
    },
    {
      "constant": true,
      "inputs": [
        {
          "components": [
            {
              "components": [
                {
                  "name": "origin",
                  "type": "address"
                },
                {
                  "name": "tree",
                  "type": "string"
                },
                {
                  "name": "message",
                  "type": "string"
                },
                {
                  "name": "metadata",
                  "type": "string"
                },
                {
                  "components": [
                    {
                      "name": "api",
                      "type": "address"
                    },
                    {
                      "name": "hash",
                      "type": "bytes32"
                    }
                  ],
                  "name": "parents",
                  "type": "tuple[]"
                }
              ],
              "name": "individuation",
              "type": "tuple"
            },
            {
              "name": "blockstamp",
              "type": "uint256"
            },
            {
              "name": "state",
              "type": "uint8"
            },
            {
              "name": "RFLids",
              "type": "uint256[]"
            }
          ],
          "name": "_RFI",
          "type": "tuple"
        }
      ],
      "name": "isPending",
      "outputs": [
        {
          "name": "",
          "type": "bool"
        }
      ],
      "payable": false,
      "stateMutability": "pure",
      "type": "function"
    },
    {
      "constant": true,
      "inputs": [
        {
          "components": [
            {
              "components": [
                {
                  "name": "destination",
                  "type": "address"
                },
                {
                  "name": "minimum",
                  "type": "uint256"
                },
                {
                  "name": "metadata",
                  "type": "string"
                }
              ],
              "name": "lineage",
              "type": "tuple"
            },
            {
              "name": "blockstamp",
              "type": "uint256"
            },
            {
              "name": "value",
              "type": "uint256"
            },
            {
              "name": "state",
              "type": "uint8"
            },
            {
              "name": "RFIid",
              "type": "uint256"
            }
          ],
          "name": "_RFL",
          "type": "tuple"
        }
      ],
      "name": "isPending",
      "outputs": [
        {
          "name": "",
          "type": "bool"
        }
      ],
      "payable": false,
      "stateMutability": "pure",
      "type": "function"
    },
    {
      "constant": true,
      "inputs": [
        {
          "name": "_script",
          "type": "bytes"
        }
      ],
      "name": "getExecutor",
      "outputs": [
        {
          "name": "",
          "type": "address"
        }
      ],
      "payable": false,
      "stateMutability": "view",
      "type": "function"
    },
    {
      "anonymous": false,
      "inputs": [
        {
          "indexed": true,
          "name": "id",
          "type": "uint256"
        }
      ],
      "name": "CreateRFI",
      "type": "event"
    },
    {
      "anonymous": false,
      "inputs": [
        {
          "indexed": true,
          "name": "id",
          "type": "uint256"
        }
      ],
      "name": "MergeRFI",
      "type": "event"
    },
    {
      "anonymous": false,
      "inputs": [
        {
          "indexed": true,
          "name": "id",
          "type": "uint256"
        }
      ],
      "name": "RejectRFI",
      "type": "event"
    },
    {
      "anonymous": false,
      "inputs": [
        {
          "indexed": true,
          "name": "id",
          "type": "uint256"
        }
      ],
      "name": "CancelRFI",
      "type": "event"
    },
    {
      "anonymous": false,
      "inputs": [
        {
          "indexed": true,
          "name": "id",
          "type": "uint256"
        }
      ],
      "name": "CreateRFL",
      "type": "event"
    },
    {
      "anonymous": false,
      "inputs": [
        {
          "indexed": true,
          "name": "id",
          "type": "uint256"
        },
        {
          "indexed": false,
          "name": "value",
          "type": "uint256"
        }
      ],
      "name": "AcceptRFL",
      "type": "event"
    },
    {
      "anonymous": false,
      "inputs": [
        {
          "indexed": true,
          "name": "id",
          "type": "uint256"
        }
      ],
      "name": "RejectRFL",
      "type": "event"
    },
    {
      "anonymous": false,
      "inputs": [
        {
          "indexed": true,
          "name": "id",
          "type": "uint256"
        }
      ],
      "name": "CancelRFL",
      "type": "event"
    },
    {
      "anonymous": false,
      "inputs": [
        {
          "indexed": true,
          "name": "id",
          "type": "uint256"
        },
        {
          "indexed": false,
          "name": "destination",
          "type": "address"
        },
        {
          "indexed": false,
          "name": "value",
          "type": "uint256"
        }
      ],
      "name": "IssueRFL",
      "type": "event"
    },
    {
      "anonymous": false,
      "inputs": [
        {
          "indexed": true,
          "name": "executor",
          "type": "address"
        },
        {
          "indexed": false,
          "name": "script",
          "type": "bytes"
        },
        {
          "indexed": false,
          "name": "input",
          "type": "bytes"
        },
        {
          "indexed": false,
          "name": "returnData",
          "type": "bytes"
        }
      ],
      "name": "ScriptResult",
      "type": "event"
    },
    {
      "constant": false,
      "inputs": [
        {
          "name": "_genesis",
          "type": "address"
        },
        {
          "name": "_lineage",
          "type": "address"
        }
      ],
      "name": "initialize",
      "outputs": [],
      "payable": false,
      "stateMutability": "nonpayable",
      "type": "function"
    },
    {
      "constant": false,
      "inputs": [
        {
          "components": [
            {
              "name": "origin",
              "type": "address"
            },
            {
              "name": "tree",
              "type": "string"
            },
            {
              "name": "message",
              "type": "string"
            },
            {
              "name": "metadata",
              "type": "string"
            },
            {
              "components": [
                {
                  "name": "api",
                  "type": "address"
                },
                {
                  "name": "hash",
                  "type": "bytes32"
                }
              ],
              "name": "parents",
              "type": "tuple[]"
            }
          ],
          "name": "_individuation",
          "type": "tuple"
        },
        {
          "components": [
            {
              "name": "destination",
              "type": "address"
            },
            {
              "name": "minimum",
              "type": "uint256"
            },
            {
              "name": "metadata",
              "type": "string"
            }
          ],
          "name": "_lineages",
          "type": "tuple[]"
        }
      ],
      "name": "createRFI",
      "outputs": [
        {
          "name": "RFIid",
          "type": "uint256"
        }
      ],
      "payable": false,
      "stateMutability": "nonpayable",
      "type": "function"
    },
    {
      "constant": false,
      "inputs": [
        {
          "name": "_RFIid",
          "type": "uint256"
        }
      ],
      "name": "mergeRFI",
      "outputs": [],
      "payable": false,
      "stateMutability": "nonpayable",
      "type": "function"
    },
    {
      "constant": false,
      "inputs": [
        {
          "name": "_RFIid",
          "type": "uint256"
        }
      ],
      "name": "rejectRFI",
      "outputs": [],
      "payable": false,
      "stateMutability": "nonpayable",
      "type": "function"
    },
    {
      "constant": false,
      "inputs": [
        {
          "name": "_RFLid",
          "type": "uint256"
        },
        {
          "name": "_value",
          "type": "uint256"
        }
      ],
      "name": "acceptRFL",
      "outputs": [],
      "payable": false,
      "stateMutability": "nonpayable",
      "type": "function"
    },
    {
      "constant": false,
      "inputs": [
        {
          "name": "_RFLid",
          "type": "uint256"
        }
      ],
      "name": "rejectRFL",
      "outputs": [],
      "payable": false,
      "stateMutability": "nonpayable",
      "type": "function"
    },
    {
      "constant": true,
      "inputs": [
        {
          "name": "_RFIid",
          "type": "uint256"
        }
      ],
      "name": "canMergeRFI",
      "outputs": [
        {
          "name": "",
          "type": "bool"
        }
      ],
      "payable": false,
      "stateMutability": "view",
      "type": "function"
    },
    {
      "constant": true,
      "inputs": [
        {
          "name": "_RFIid",
          "type": "uint256"
        }
      ],
      "name": "canRejectRFI",
      "outputs": [
        {
          "name": "",
          "type": "bool"
        }
      ],
      "payable": false,
      "stateMutability": "view",
      "type": "function"
    },
    {
      "constant": true,
      "inputs": [
        {
          "name": "_RFLid",
          "type": "uint256"
        },
        {
          "name": "_value",
          "type": "uint256"
        }
      ],
      "name": "canAcceptRFL",
      "outputs": [
        {
          "name": "",
          "type": "bool"
        }
      ],
      "payable": false,
      "stateMutability": "view",
      "type": "function"
    },
    {
      "constant": true,
      "inputs": [
        {
          "name": "_RFLid",
          "type": "uint256"
        }
      ],
      "name": "canRejectRFL",
      "outputs": [
        {
          "name": "",
          "type": "bool"
        }
      ],
      "payable": false,
      "stateMutability": "view",
      "type": "function"
    },
    {
      "constant": true,
      "inputs": [],
      "name": "getLineageToken",
      "outputs": [
        {
          "name": "",
          "type": "address"
        }
      ],
      "payable": false,
      "stateMutability": "view",
      "type": "function"
    },
    {
      "constant": true,
      "inputs": [
        {
          "name": "_RFIid",
          "type": "uint256"
        }
      ],
      "name": "getRFI",
      "outputs": [
        {
          "components": [
            {
              "components": [
                {
                  "name": "origin",
                  "type": "address"
                },
                {
                  "name": "tree",
                  "type": "string"
                },
                {
                  "name": "message",
                  "type": "string"
                },
                {
                  "name": "metadata",
                  "type": "string"
                },
                {
                  "components": [
                    {
                      "name": "api",
                      "type": "address"
                    },
                    {
                      "name": "hash",
                      "type": "bytes32"
                    }
                  ],
                  "name": "parents",
                  "type": "tuple[]"
                }
              ],
              "name": "individuation",
              "type": "tuple"
            },
            {
              "name": "blockstamp",
              "type": "uint256"
            },
            {
              "name": "state",
              "type": "uint8"
            },
            {
              "name": "RFLids",
              "type": "uint256[]"
            }
          ],
          "name": "",
          "type": "tuple"
        }
      ],
      "payable": false,
      "stateMutability": "view",
      "type": "function"
    },
    {
      "constant": true,
      "inputs": [
        {
          "name": "_RFLid",
          "type": "uint256"
        }
      ],
      "name": "getRFL",
      "outputs": [
        {
          "components": [
            {
              "components": [
                {
                  "name": "destination",
                  "type": "address"
                },
                {
                  "name": "minimum",
                  "type": "uint256"
                },
                {
                  "name": "metadata",
                  "type": "string"
                }
              ],
              "name": "lineage",
              "type": "tuple"
            },
            {
              "name": "blockstamp",
              "type": "uint256"
            },
            {
              "name": "value",
              "type": "uint256"
            },
            {
              "name": "state",
              "type": "uint8"
            },
            {
              "name": "RFIid",
              "type": "uint256"
            }
          ],
          "name": "",
          "type": "tuple"
        }
      ],
      "payable": false,
      "stateMutability": "view",
      "type": "function"
    },
    {
      "constant": true,
      "inputs": [
        {
          "components": [
            {
              "name": "origin",
              "type": "address"
            },
            {
              "name": "blockstamp",
              "type": "uint256"
            },
            {
              "name": "tree",
              "type": "string"
            },
            {
              "name": "message",
              "type": "string"
            },
            {
              "name": "metadata",
              "type": "string"
            },
            {
              "components": [
                {
                  "name": "api",
                  "type": "address"
                },
                {
                  "name": "hash",
                  "type": "bytes32"
                }
              ],
              "name": "parents",
              "type": "tuple[]"
            }
          ],
          "name": "_individuation",
          "type": "tuple"
        }
      ],
      "name": "getIndividuationHash",
      "outputs": [
        {
          "name": "",
          "type": "bytes32"
        }
      ],
      "payable": false,
      "stateMutability": "pure",
      "type": "function"
    },
    {
      "constant": true,
      "inputs": [],
      "name": "head",
      "outputs": [
        {
          "name": "",
          "type": "bytes32"
        }
      ],
      "payable": false,
      "stateMutability": "view",
      "type": "function"
    },
    {
      "constant": true,
      "inputs": [],
      "name": "getHead",
      "outputs": [
        {
          "components": [
            {
              "name": "origin",
              "type": "address"
            },
            {
              "name": "blockstamp",
              "type": "uint256"
            },
            {
              "name": "tree",
              "type": "string"
            },
            {
              "name": "message",
              "type": "string"
            },
            {
              "name": "metadata",
              "type": "string"
            },
            {
              "components": [
                {
                  "name": "api",
                  "type": "address"
                },
                {
                  "name": "hash",
                  "type": "bytes32"
                }
              ],
              "name": "parents",
              "type": "tuple[]"
            }
          ],
          "name": "",
          "type": "tuple"
        }
      ],
      "payable": false,
      "stateMutability": "view",
      "type": "function"
    }
  ],
  "bytecode": "0x608060405260006004556000600555620000276200002d640100000000026401000000009004565b62000165565b60006200004862000091640100000000026401000000009004565b1415156200005557600080fd5b6200008f7fffffffffffffffffffffffffffffffffffffffffffffffffffffffffffffffff620000de640100000000026401000000009004565b565b6000620000d97febb05b386a8d34882b8711d156f463690983dc47815980fb82aeeff1aa43579e60010260001916620001536401000000000262002f3c176401000000009004565b905090565b6000620000f962000091640100000000026401000000009004565b1415156200010657600080fd5b62000150817febb05b386a8d34882b8711d156f463690983dc47815980fb82aeeff1aa43579e600102600019166200015e640100000000026200331f179091906401000000009004565b50565b600081549050919050565b8082555050565b6155fe80620001756000396000f300608060405260043610610251576000357c0100000000000000000000000000000000000000000000000000000000900463ffffffff1680630803fac0146102565780630823678014610281578063103a90c8146102ac5780631113ed0d146102d7578063143700be14610302578063178e60791461032d5780632adab4ea146103585780632d2e8012146103835780633181f6b2146103ae57806332f0a3b5146103eb57806333ff68701461041657806339a2d338146104535780634752915d14610490578063485cc955146104cd5780635b15970d146104f65780635bddb4201461053357806360b1e057146105725780636d5f5ca71461059d5780636e0b314c146105c6578063748b052c146105ef578063756f6049146106185780637e7db6e11461064357806380201af21461068057806380afdea8146106ab5780638322fff2146106d6578063889bd35d146107015780638b3dd7491461073e5780638f7dcfa31461076957806397569bb1146107945780639bdc706d146107bf5780639d4941d8146107fc578063a1658fad14610825578063a7f0b3de14610862578063b462e70b1461088d578063c34e0ed6146108b8578063c3eefd1e146108e3578063c538f7de14610920578063c74656e714610961578063cbcc65eb1461098c578063d4aae0c4146109b7578063db8a61d4146109e2578063dc281aff14610a0d578063ddf6fa9c14610a38578063de4796ed14610a61578063e7fd8d0814610a8c578063e95fe2ff14610ac9578063f92a79ff14610b06578063fd47d20314610b43578063fec7d70b14610b80575b600080fd5b34801561026257600080fd5b5061026b610bbd565b6040516102789190614f0e565b60405180910390f35b34801561028d57600080fd5b50610296610be8565b6040516102a39190614f29565b60405180910390f35b3480156102b857600080fd5b506102c1610c21565b6040516102ce91906151f6565b60405180910390f35b3480156102e357600080fd5b506102ec610c27565b6040516102f99190614f29565b60405180910390f35b34801561030e57600080fd5b50610317610c4e565b6040516103249190614e7e565b60405180910390f35b34801561033957600080fd5b50610342610c78565b60405161034f9190614f29565b60405180910390f35b34801561036457600080fd5b5061036d610c9f565b60405161037a9190614f29565b60405180910390f35b34801561038f57600080fd5b50610398610cd8565b6040516103a59190614f29565b60405180910390f35b3480156103ba57600080fd5b506103d560048036036103d0919081019061452c565b610d11565b6040516103e291906151f6565b60405180910390f35b3480156103f757600080fd5b50610400610db5565b60405161040d9190614e7e565b60405180910390f35b34801561042257600080fd5b5061043d6004803603610438919081019061469c565b610ea1565b60405161044a9190614f0e565b60405180910390f35b34801561045f57600080fd5b5061047a60048036036104759190810190614598565b610f0c565b6040516104879190614f29565b60405180910390f35b34801561049c57600080fd5b506104b760048036036104b291908101906146ee565b611121565b6040516104c49190614f0e565b60405180910390f35b3480156104d957600080fd5b506104f460048036036104ef91908101906144f0565b6111b7565b005b34801561050257600080fd5b5061051d6004803603610518919081019061465b565b61125a565b60405161052a9190614f0e565b60405180910390f35b34801561053f57600080fd5b5061055a6004803603610555919081019061469c565b611281565b604051610569939291906150d6565b60405180910390f35b34801561057e57600080fd5b506105876115c6565b6040516105949190614f29565b60405180910390f35b3480156105a957600080fd5b506105c460048036036105bf91908101906146ee565b6115ed565b005b3480156105d257600080fd5b506105ed60048036036105e8919081019061469c565b6116d6565b005b3480156105fb57600080fd5b506106166004803603610611919081019061469c565b6117bc565b005b34801561062457600080fd5b5061062d6118a2565b60405161063a9190614f29565b60405180910390f35b34801561064f57600080fd5b5061066a6004803603610665919081019061437b565b6118c9565b6040516106779190614f0e565b60405180910390f35b34801561068c57600080fd5b506106956118d4565b6040516106a291906151f6565b60405180910390f35b3480156106b757600080fd5b506106c06118da565b6040516106cd9190614f29565b60405180910390f35b3480156106e257600080fd5b506106eb611911565b6040516106f89190614e7e565b60405180910390f35b34801561070d57600080fd5b506107286004803603610723919081019061469c565b611916565b60405161073591906151d4565b60405180910390f35b34801561074a57600080fd5b50610753611aef565b60405161076091906151f6565b60405180910390f35b34801561077557600080fd5b5061077e611b26565b60405161078b9190614f29565b60405180910390f35b3480156107a057600080fd5b506107a9611bea565b6040516107b69190614f29565b60405180910390f35b3480156107cb57600080fd5b506107e660048036036107e1919081019061469c565b611c23565b6040516107f39190614f0e565b60405180910390f35b34801561080857600080fd5b50610823600480360361081e919081019061437b565b611c8e565b005b34801561083157600080fd5b5061084c600480360361084791908101906143cd565b611eb4565b6040516108599190614f0e565b60405180910390f35b34801561086e57600080fd5b50610877611fec565b6040516108849190614fe0565b60405180910390f35b34801561089957600080fd5b506108a2612011565b6040516108af9190614f29565b60405180910390f35b3480156108c457600080fd5b506108cd61204a565b6040516108da9190614f29565b60405180910390f35b3480156108ef57600080fd5b5061090a6004803603610905919081019061469c565b612083565b6040516109179190614f0e565b60405180910390f35b34801561092c57600080fd5b506109476004803603610942919081019061469c565b612183565b604051610958959493929190615136565b60405180910390f35b34801561096d57600080fd5b506109766122d3565b6040516109839190614fc5565b60405180910390f35b34801561099857600080fd5b506109a16122f9565b6040516109ae9190614f29565b60405180910390f35b3480156109c357600080fd5b506109cc612320565b6040516109d99190614faa565b60405180910390f35b3480156109ee57600080fd5b506109f7612357565b604051610a049190614f29565b60405180910390f35b348015610a1957600080fd5b50610a2261237e565b604051610a2f9190615190565b60405180910390f35b348015610a4457600080fd5b50610a5f6004803603610a5a919081019061469c565b61244d565b005b348015610a6d57600080fd5b50610a76612533565b604051610a839190614f0e565b60405180910390f35b348015610a9857600080fd5b50610ab36004803603610aae919081019061461a565b612564565b604051610ac09190614f0e565b60405180910390f35b348015610ad557600080fd5b50610af06004803603610aeb919081019061465b565b61258a565b604051610afd9190614f0e565b60405180910390f35b348015610b1257600080fd5b50610b2d6004803603610b289190810190614486565b6125b0565b604051610b3a9190614f8f565b60405180910390f35b348015610b4f57600080fd5b50610b6a6004803603610b659190810190614598565b612667565b604051610b779190614f29565b60405180910390f35b348015610b8c57600080fd5b50610ba76004803603610ba2919081019061469c565b612679565b604051610bb491906151b2565b60405180910390f35b600080610bc8611aef565b905060008114158015610be2575080610bdf612a97565b10155b91505090565b60405180807f52454a4543545f52464c5f524f4c450000000000000000000000000000000000815250600f019050604051809103902081565b60055481565b7f3b4bf6bf3ad5000ecf0f989d5befde585c6860fea3e574a4fab4c49d1c177d9c60010281565b6000600160009054906101000a900473ffffffffffffffffffffffffffffffffffffffff16905090565b7fd6f028ca0e8edb4a8c9757ca4fdccab25fa1e0317da1188108f7d2dee14902fb60010281565b60405180807f4352454154455f5246495f524f4c450000000000000000000000000000000000815250600f019050604051809103902081565b60405180807f4d455247455f5246495f524f4c45000000000000000000000000000000000000815250600e019050604051809103902081565b6000610d1b610bbd565b1515610d2657600080fd5b60405180807f4352454154455f5246495f524f4c450000000000000000000000000000000000815250600f0190506040518091039020610d9733826000604051908082528060200260200182016040528015610d915781602001602082028038833980820191505090505b50611eb4565b1515610da257600080fd5b610dac8484612a9f565b91505092915050565b60008073ffffffffffffffffffffffffffffffffffffffff16610dd6612320565b73ffffffffffffffffffffffffffffffffffffffff1614151515610df957600080fd5b610e01612320565b73ffffffffffffffffffffffffffffffffffffffff166332f0a3b56040518163ffffffff167c0100000000000000000000000000000000000000000000000000000000028152600401602060405180830381600087803b158015610e6457600080fd5b505af1158015610e78573d6000803e3d6000fd5b505050506040513d601f19601f82011682018060405250610e9c91908101906143a4565b905090565b6000600554821115610eb65760009050610f07565b60006004811115610ec357fe5b6003600084815260200190815260200160002060050160009054906101000a900460ff166004811115610ef257fe5b141515610f025760009050610f07565b600190505b919050565b6000816000015182602001518360400151846060015185608001518660a00151604051602001808773ffffffffffffffffffffffffffffffffffffffff1673ffffffffffffffffffffffffffffffffffffffff166c0100000000000000000000000002815260140186815260200185805190602001908083835b602083101515610fab5780518252602082019150602081019050602083039250610f86565b6001836020036101000a03801982511681845116808217855250505050505090500184805190602001908083835b602083101515610ffe5780518252602082019150602081019050602083039250610fd9565b6001836020036101000a03801982511681845116808217855250505050505090500183805190602001908083835b602083101515611051578051825260208201915060208101905060208303925061102c565b6001836020036101000a0380198251168184511680821785525050505050509050018280516000925b8184101561109d578284906020019060200201518152602001926001019261107a565b9250505096505050505050506040516020818303038152906040526040518082805190602001908083835b6020831015156110ed57805182526020820191506020810190506020830392506110c8565b6001836020036101000a03801982511681845116808217855250505050505090500191505060405180910390209050919050565b600060055483111561113657600090506111b1565b6000600481111561114357fe5b6003600085815260200190815260200160002060050160009054906101000a900460ff16600481111561117257fe5b14151561118257600090506111b1565b60036000848152602001908152602001600020600001600101548210156111ac57600090506111b1565b600190505b92915050565b60006111c1611aef565b1415156111cd57600080fd5b6111d5612d25565b816000806101000a81548173ffffffffffffffffffffffffffffffffffffffff021916908373ffffffffffffffffffffffffffffffffffffffff16021790555080600160006101000a81548173ffffffffffffffffffffffffffffffffffffffff021916908373ffffffffffffffffffffffffffffffffffffffff1602179055505050565b60006001600481111561126957fe5b8260600151600481111561127957fe5b149050919050565b60026020528060005260406000206000915090508060000160a060405190810160405290816000820160009054906101000a900473ffffffffffffffffffffffffffffffffffffffff1673ffffffffffffffffffffffffffffffffffffffff1673ffffffffffffffffffffffffffffffffffffffff168152602001600182018054600181600116156101000203166002900480601f0160208091040260200160405190810160405280929190818152602001828054600181600116156101000203166002900480156113945780601f1061136957610100808354040283529160200191611394565b820191906000526020600020905b81548152906001019060200180831161137757829003601f168201915b50505050508152602001600282018054600181600116156101000203166002900480601f0160208091040260200160405190810160405280929190818152602001828054600181600116156101000203166002900480156114365780601f1061140b57610100808354040283529160200191611436565b820191906000526020600020905b81548152906001019060200180831161141957829003601f168201915b50505050508152602001600382018054600181600116156101000203166002900480601f0160208091040260200160405190810160405280929190818152602001828054600181600116156101000203166002900480156114d85780601f106114ad576101008083540402835291602001916114d8565b820191906000526020600020905b8154815290600101906020018083116114bb57829003601f168201915b5050505050815260200160048201805480602002602001604051908101604052809291908181526020016000905b828210156115a057838290600052602060002090600202016040805190810160405290816000820160009054906101000a900473ffffffffffffffffffffffffffffffffffffffff1673ffffffffffffffffffffffffffffffffffffffff1673ffffffffffffffffffffffffffffffffffffffff168152602001600182015460001916600019168152505081526020019060010190611506565b5050505081525050908060050154908060060160009054906101000a900460ff16905083565b7fddbcfd564f642ab5627cf68b9b7d374fb4f8a36e941a75d89c87998cef03bd6160010281565b6115f5610bbd565b151561160057600080fd5b60405180807f4143434550545f52464c5f524f4c450000000000000000000000000000000000815250600f01905060405180910390206116713382600060405190808252806020026020018201604052801561166b5781602001602082028038833980820191505090505b50611eb4565b151561167c57600080fd5b6116868383611121565b15156116c7576040517f08c379a00000000000000000000000000000000000000000000000000000000081526004016116be90615016565b60405180910390fd5b6116d18383612d7e565b505050565b6116de610bbd565b15156116e957600080fd5b60405180807f52454a4543545f52464c5f524f4c450000000000000000000000000000000000815250600f019050604051809103902061175a338260006040519080825280602002602001820160405280156117545781602001602082028038833980820191505090505b50611eb4565b151561176557600080fd5b61176e82610ea1565b15156117af576040517f08c379a00000000000000000000000000000000000000000000000000000000081526004016117a690615036565b60405180910390fd5b6117b882612e01565b5050565b6117c4610bbd565b15156117cf57600080fd5b60405180807f52454a4543545f5246495f524f4c450000000000000000000000000000000000815250600f01905060405180910390206118403382600060405190808252806020026020018201604052801561183a5781602001602082028038833980820191505090505b50611eb4565b151561184b57600080fd5b61185482611c23565b1515611895576040517f08c379a000000000000000000000000000000000000000000000000000000000815260040161188c90615096565b60405180910390fd5b61189e82612e7c565b5050565b7fc681a85306374a5ab27f0bbc385296a54bcd314a1948b6cf61c4ea1bc44bb9f860010281565b600060019050919050565b60045481565b600061190c7fd625496217aa6a3453eecb9c3489dc5a53e6c67b444329ea2b2cbc9ff547639b60010260001916612f31565b905090565b600081565b61191e61364b565b816005548111151515611966576040517f08c379a000000000000000000000000000000000000000000000000000000000815260040161195d90615056565b60405180910390fd5b6003600084815260200190815260200160002060a0604051908101604052908160008201606060405190810160405290816000820160009054906101000a900473ffffffffffffffffffffffffffffffffffffffff1673ffffffffffffffffffffffffffffffffffffffff1673ffffffffffffffffffffffffffffffffffffffff16815260200160018201548152602001600282018054600181600116156101000203166002900480601f016020809104026020016040519081016040528092919081815260200182805460018160011615610100020316600290048015611a8f5780601f10611a6457610100808354040283529160200191611a8f565b820191906000526020600020905b815481529060010190602001808311611a7257829003601f168201915b505050505081525050815260200160038201548152602001600482015481526020016005820160009054906101000a900460ff166004811115611ace57fe5b6004811115611ad957fe5b8152602001600682015481525050915050919050565b6000611b217febb05b386a8d34882b8711d156f463690983dc47815980fb82aeeff1aa43579e60010260001916612f3c565b905090565b60008060009054906101000a900473ffffffffffffffffffffffffffffffffffffffff1673ffffffffffffffffffffffffffffffffffffffff16638f7dcfa36040518163ffffffff167c0100000000000000000000000000000000000000000000000000000000028152600401602060405180830381600087803b158015611bad57600080fd5b505af1158015611bc1573d6000803e3d6000fd5b505050506040513d601f19601f82011682018060405250611be5919081019061445d565b905090565b60405180807f52454a4543545f5246495f524f4c450000000000000000000000000000000000815250600f019050604051809103902081565b6000600454821115611c385760009050611c89565b60006003811115611c4557fe5b6002600084815260200190815260200160002060060160009054906101000a900460ff166003811115611c7457fe5b141515611c845760009050611c89565b600190505b919050565b600080611c9a836118c9565b1515611ca557600080fd5b611cad610db5565b9150611cb882612f47565b1515611cc357600080fd5b600073ffffffffffffffffffffffffffffffffffffffff168373ffffffffffffffffffffffffffffffffffffffff161415611d5b578173ffffffffffffffffffffffffffffffffffffffff166108fc3073ffffffffffffffffffffffffffffffffffffffff16319081150290604051600060405180830381858888f19350505050158015611d55573d6000803e3d6000fd5b50611eaf565b8273ffffffffffffffffffffffffffffffffffffffff166370a08231306040518263ffffffff167c0100000000000000000000000000000000000000000000000000000000028152600401611db09190614ffb565b602060405180830381600087803b158015611dca57600080fd5b505af1158015611dde573d6000803e3d6000fd5b505050506040513d601f19601f82011682018060405250611e0291908101906146c5565b90508273ffffffffffffffffffffffffffffffffffffffff1663a9059cbb83836040518363ffffffff167c0100000000000000000000000000000000000000000000000000000000028152600401611e5b929190614ee5565b602060405180830381600087803b158015611e7557600080fd5b505af1158015611e89573d6000803e3d6000fd5b505050506040513d601f19601f82011682018060405250611ead9190810190614434565b505b505050565b60008060606000611ec3610bbd565b1515611ed25760009350611fe2565b611eda612320565b9250600073ffffffffffffffffffffffffffffffffffffffff168373ffffffffffffffffffffffffffffffffffffffff161415611f1a5760009350611fe2565b600085511115611f3257602085510290508491508082525b8273ffffffffffffffffffffffffffffffffffffffff1663fdef9106883089866040518563ffffffff167c0100000000000000000000000000000000000000000000000000000000028152600401611f8d9493929190614e99565b602060405180830381600087803b158015611fa757600080fd5b505af1158015611fbb573d6000803e3d6000fd5b505050506040513d601f19601f82011682018060405250611fdf9190810190614434565b93505b5050509392505050565b6000809054906101000a900473ffffffffffffffffffffffffffffffffffffffff1681565b60405180807f4143434550545f52464c5f524f4c450000000000000000000000000000000000815250600f019050604051809103902081565b60405180807f494e4449564944554154455f524f4c45000000000000000000000000000000008152506010019050604051809103902081565b60008060008060045485111561209c576000935061217b565b600260008681526020019081526020016000209250600060038111156120be57fe5b8360060160009054906101000a900460ff1660038111156120db57fe5b1415156120eb576000935061217b565b600091505b82600701805490508210156121765760036000846007018481548110151561211457fe5b9060005260206000200154815260200190815260200160002090506001600481111561213c57fe5b8160050160009054906101000a900460ff16600481111561215957fe5b141515612169576000935061217b565b81806001019250506120f0565b600193505b505050919050565b600360205280600052604060002060009150905080600001606060405190810160405290816000820160009054906101000a900473ffffffffffffffffffffffffffffffffffffffff1673ffffffffffffffffffffffffffffffffffffffff1673ffffffffffffffffffffffffffffffffffffffff16815260200160018201548152602001600282018054600181600116156101000203166002900480601f0160208091040260200160405190810160405280929190818152602001828054600181600116156101000203166002900480156122a05780601f10612275576101008083540402835291602001916122a0565b820191906000526020600020905b81548152906001019060200180831161228357829003601f168201915b505050505081525050908060030154908060040154908060050160009054906101000a900460ff16908060060154905085565b600160009054906101000a900473ffffffffffffffffffffffffffffffffffffffff1681565b7fe3262375f45a6e2026b7e7b18c2b807434f2508fe1a2a3dfb493c7df8f4aad6a60010281565b60006123527f4172f0f7d2289153072b0a6ca36959e0cbe2efc3afe50fc81636caa96338137b60010260001916612f99565b905090565b7ff1f3eb40f5bc1ad1344716ced8b8a0431d840b5783aea1fd01786bc26f35ac0f60010281565b61238661368c565b6000809054906101000a900473ffffffffffffffffffffffffffffffffffffffff1673ffffffffffffffffffffffffffffffffffffffff1663dc281aff6040518163ffffffff167c0100000000000000000000000000000000000000000000000000000000028152600401600060405180830381600087803b15801561240b57600080fd5b505af115801561241f573d6000803e3d6000fd5b505050506040513d6000823e3d601f19601f8201168201806040525061244891908101906145d9565b905090565b612455610bbd565b151561246057600080fd5b60405180807f4d455247455f5246495f524f4c45000000000000000000000000000000000000815250600e01905060405180910390206124d1338260006040519080825280602002602001820160405280156124cb5781602001602082028038833980820191505090505b50611eb4565b15156124dc57600080fd5b6124e582612083565b1515612526576040517f08c379a000000000000000000000000000000000000000000000000000000000815260040161251d90615076565b60405180910390fd5b61252f82612fa4565b5050565b60007fffffffffffffffffffffffffffffffffffffffffffffffffffffffffffffffff61255e611aef565b14905090565b600080600381111561257257fe5b8260400151600381111561258257fe5b149050919050565b600080600481111561259857fe5b826060015160048111156125a857fe5b149050919050565b60006125ba613104565b73ffffffffffffffffffffffffffffffffffffffff166304bf2a7f836040518263ffffffff167c010000000000000000000000000000000000000000000000000000000002815260040161260e9190614f6d565b602060405180830381600087803b15801561262857600080fd5b505af115801561263c573d6000803e3d6000fd5b505050506040513d601f19601f8201168201806040525061266091908101906144c7565b9050919050565b600061267282610f0c565b9050919050565b6126816136d9565b8160045481111515156126c9576040517f08c379a00000000000000000000000000000000000000000000000000000000081526004016126c0906150b6565b60405180910390fd5b60026000848152602001908152602001600020608060405190810160405290816000820160a060405190810160405290816000820160009054906101000a900473ffffffffffffffffffffffffffffffffffffffff1673ffffffffffffffffffffffffffffffffffffffff1673ffffffffffffffffffffffffffffffffffffffff168152602001600182018054600181600116156101000203166002900480601f0160208091040260200160405190810160405280929190818152602001828054600181600116156101000203166002900480156127e85780601f106127bd576101008083540402835291602001916127e8565b820191906000526020600020905b8154815290600101906020018083116127cb57829003601f168201915b50505050508152602001600282018054600181600116156101000203166002900480601f01602080910402602001604051908101604052809291908181526020018280546001816001161561010002031660029004801561288a5780601f1061285f5761010080835404028352916020019161288a565b820191906000526020600020905b81548152906001019060200180831161286d57829003601f168201915b50505050508152602001600382018054600181600116156101000203166002900480601f01602080910402602001604051908101604052809291908181526020018280546001816001161561010002031660029004801561292c5780601f106129015761010080835404028352916020019161292c565b820191906000526020600020905b81548152906001019060200180831161290f57829003601f168201915b5050505050815260200160048201805480602002602001604051908101604052809291908181526020016000905b828210156129f457838290600052602060002090600202016040805190810160405290816000820160009054906101000a900473ffffffffffffffffffffffffffffffffffffffff1673ffffffffffffffffffffffffffffffffffffffff1673ffffffffffffffffffffffffffffffffffffffff16815260200160018201546000191660001916815250508152602001906001019061295a565b50505050815250508152602001600582015481526020016006820160009054906101000a900460ff166003811115612a2857fe5b6003811115612a3357fe5b815260200160078201805480602002602001604051908101604052809291908181526020018280548015612a8657602002820191906000526020600020905b815481526020019060010190808311612a72575b505050505081525050915050919050565b600043905090565b600080600080600080600160045401600481905550600454955060026000878152602001908152602001600020945087600001518560000160000160006101000a81548173ffffffffffffffffffffffffffffffffffffffff021916908373ffffffffffffffffffffffffffffffffffffffff1602179055508760200151856000016001019080519060200190612b37929190613714565b508760400151856000016002019080519060200190612b57929190613714565b508760600151856000016003019080519060200190612b77929190613714565b5043856005018190555060008560060160006101000a81548160ff02191690836003811115612ba257fe5b02179055508760800151518560000160040181612bbf9190613794565b50600093505b876080015151841015612c7757876080015184815181101515612be457fe5b906020019060200201518560000160040185815481101515612c0257fe5b906000526020600020906002020160008201518160000160006101000a81548173ffffffffffffffffffffffffffffffffffffffff021916908373ffffffffffffffffffffffffffffffffffffffff160217905550602082015181600101906000191690559050508380600101945050612bc5565b600092505b8651831015612ced57612ca68784815181101515612c9657fe5b9060200190602002015187613206565b9150846007018054809190600101612cbe91906137c6565b9050818560070182815481101515612cd257fe5b90600052602060002001819055508280600101935050612c7c565b857f35f2129c6d5c40f8bfc21ff096fc803eed03c578d74fabcf718966bce5e43a2460405160405180910390a2505050505092915050565b6000612d2f611aef565b141515612d3b57600080fd5b612d7c612d46612a97565b7febb05b386a8d34882b8711d156f463690983dc47815980fb82aeeff1aa43579e6001026000191661331f90919063ffffffff16565b565b600060036000848152602001908152602001600020905060018160050160006101000a81548160ff02191690836004811115612db657fe5b0217905550818160040181905550827fe798dd1723e7dfead0c42290d937f51c95c8f80f616ab3c5d515dd62333d0c6983604051612df491906151f6565b60405180910390a2505050565b600060036000838152602001908152602001600020905060038160050160006101000a81548160ff02191690836004811115612e3957fe5b0217905550612e4b8160060154613326565b817feffb45481cc046f2f78b484c7ef03097fc7cd3f8cf92a6f150a6264c96c3e72c60405160405180910390a25050565b60008060026000848152602001908152602001600020915060028260060160006101000a81548160ff02191690836003811115612eb557fe5b0217905550600090505b8160070180549050811015612eff57612ef28260070182815481101515612ee257fe5b9060005260206000200154613440565b8080600101915050612ebf565b827f572671bf73ebac1f3878b683b28d9a3864df03396326fbaa18f19c834a54b13a60405160405180910390a2505050565b600081549050919050565b600081549050919050565b600080600073ffffffffffffffffffffffffffffffffffffffff168373ffffffffffffffffffffffffffffffffffffffff161415612f885760009150612f93565b823b90506000811191505b50919050565b600081549050919050565b60008060026000848152602001908152602001600020915060018260060160006101000a81548160ff02191690836003811115612fdd57fe5b02179055506000809054906101000a900473ffffffffffffffffffffffffffffffffffffffff1673ffffffffffffffffffffffffffffffffffffffff1663a0a66f7c836000016040518263ffffffff167c010000000000000000000000000000000000000000000000000000000002815260040161305b9190615114565b600060405180830381600087803b15801561307557600080fd5b505af1158015613089573d6000803e3d6000fd5b50505050600090505b81600701805490508110156130d2576130c582600701828154811015156130b557fe5b90600052602060002001546134ae565b8080600101915050613092565b827f2ade3f30658e8481c8027d9227280e030ebbea37526a8e9e29887165e919e2ed60405160405180910390a2505050565b60008061310f612320565b73ffffffffffffffffffffffffffffffffffffffff1663be00bbd87fd6f028ca0e8edb4a8c9757ca4fdccab25fa1e0317da1188108f7d2dee14902fb6001027fddbcfd564f642ab5627cf68b9b7d374fb4f8a36e941a75d89c87998cef03bd616001026040518363ffffffff167c01000000000000000000000000000000000000000000000000000000000281526004016131ab929190614f44565b602060405180830381600087803b1580156131c557600080fd5b505af11580156131d9573d6000803e3d6000fd5b505050506040513d601f19601f820116820180604052506131fd91908101906143a4565b90508091505090565b600080600160055401600581905550600554915060036000838152602001908152602001600020905083600001518160000160000160006101000a81548173ffffffffffffffffffffffffffffffffffffffff021916908373ffffffffffffffffffffffffffffffffffffffff1602179055508360200151816000016001018190555083604001518160000160020190805190602001906132a8929190613714565b504381600301819055506000816004018190555060008160050160006101000a81548160ff021916908360048111156132dd57fe5b0217905550828160060181905550817fb696b79e6fa6e3e43f047d6702fce861e48c2267eeb009745f44a84b2c1dac4a60405160405180910390a25092915050565b8082555050565b600080600060026000858152602001908152602001600020925060038360060160006101000a81548160ff0219169083600381111561336157fe5b0217905550600091505b826007018054905082101561340d5760036000846007018481548110151561338f57fe5b906000526020600020015481526020019081526020016000209050600360048111156133b757fe5b8160050160009054906101000a900460ff1660048111156133d457fe5b141515613400576133ff83600701838154811015156133ef57fe5b9060005260206000200154613440565b5b818060010192505061336b565b837f17c608dd7335e9c727c3e10aea0adfba0b0e6cc35c4935c1de31e3b10711da7560405160405180910390a250505050565b600060036000838152602001908152602001600020905060048160050160006101000a81548160ff0219169083600481111561347857fe5b0217905550817f7b78710b9fa400a202f9262b7daad859bf5663f0d88d45073184584fe6a166e060405160405180910390a25050565b600060036000838152602001908152602001600020905060028160050160006101000a81548160ff021916908360048111156134e657fe5b0217905550600160009054906101000a900473ffffffffffffffffffffffffffffffffffffffff1673ffffffffffffffffffffffffffffffffffffffff166340c10f198260000160000160009054906101000a900473ffffffffffffffffffffffffffffffffffffffff1683600401546040518363ffffffff167c010000000000000000000000000000000000000000000000000000000002815260040161358f929190614ee5565b602060405180830381600087803b1580156135a957600080fd5b505af11580156135bd573d6000803e3d6000fd5b505050506040513d601f19601f820116820180604052506135e19190810190614434565b50817fb74d3ab32949c67c027c76911841ff5e997d1276e5244bba79e532fa6ce91f838260000160000160009054906101000a900473ffffffffffffffffffffffffffffffffffffffff16836004015460405161363f929190614ee5565b60405180910390a25050565b60e06040519081016040528061365f6137f2565b815260200160008152602001600081526020016000600481111561367f57fe5b8152602001600081525090565b60c060405190810160405280600073ffffffffffffffffffffffffffffffffffffffff16815260200160008152602001606081526020016060815260200160608152602001606081525090565b610100604051908101604052806136ee61382a565b8152602001600081526020016000600381111561370757fe5b8152602001606081525090565b828054600181600116156101000203166002900490600052602060002090601f016020900481019282601f1061375557805160ff1916838001178555613783565b82800160010185558215613783579182015b82811115613782578251825591602001919060010190613767565b5b5090506137909190613870565b5090565b8154818355818111156137c1576002028160020283600052602060002091820191016137c09190613895565b5b505050565b8154818355818111156137ed578183600052602060002091820191016137ec9190613870565b5b505050565b606060405190810160405280600073ffffffffffffffffffffffffffffffffffffffff16815260200160008152602001606081525090565b60a060405190810160405280600073ffffffffffffffffffffffffffffffffffffffff168152602001606081526020016060815260200160608152602001606081525090565b61389291905b8082111561388e576000816000905550600101613876565b5090565b90565b6138e091905b808211156138dc57600080820160006101000a81549073ffffffffffffffffffffffffffffffffffffffff021916905560018201600090555060020161389b565b5090565b90565b60006138ef823561543e565b905092915050565b6000613903825161543e565b905092915050565b600082601f830112151561391e57600080fd5b813561393161392c8261523e565b615211565b9150818183526020840193506020810190508385604084028201111561395657600080fd5b60005b83811015613986578161396c8882613d37565b845260208401935060408301925050600181019050613959565b5050505092915050565b600082601f83011215156139a357600080fd5b81516139b66139b18261523e565b615211565b915081818352602084019350602081019050838560408402820111156139db57600080fd5b60005b83811015613a0b57816139f18882613d83565b8452602084019350604083019250506001810190506139de565b5050505092915050565b600082601f8301121515613a2857600080fd5b8135613a3b613a3682615266565b615211565b9150818183526020840193506020810190508360005b83811015613a815781358601613a678882613f9f565b845260208401935060208301925050600181019050613a51565b5050505092915050565b600082601f8301121515613a9e57600080fd5b8135613ab1613aac8261528e565b615211565b91508181835260208401935060208101905083856020840282011115613ad657600080fd5b60005b83811015613b065781613aec8882614353565b845260208401935060208301925050600181019050613ad9565b5050505092915050565b600082601f8301121515613b2357600080fd5b8135613b36613b31826152b6565b615211565b91508181835260208401935060208101905083856020840282011115613b5b57600080fd5b60005b83811015613b8b5781613b718882614353565b845260208401935060208301925050600181019050613b5e565b5050505092915050565b6000613ba1825161545e565b905092915050565b6000613bb5823561546a565b905092915050565b6000613bc9825161546a565b905092915050565b600082601f8301121515613be457600080fd5b8135613bf7613bf2826152de565b615211565b91508082526020830160208301858383011115613c1357600080fd5b613c1e838284615564565b50505092915050565b6000613c338251615474565b905092915050565b6000613c478235615486565b905092915050565b6000613c5b8235615498565b905092915050565b6000613c6f82356154aa565b905092915050565b6000613c8382356154c3565b905092915050565b600082601f8301121515613c9e57600080fd5b8135613cb1613cac8261530a565b615211565b91508082526020830160208301858383011115613ccd57600080fd5b613cd8838284615564565b50505092915050565b600082601f8301121515613cf457600080fd5b8151613d07613d028261530a565b615211565b91508082526020830160208301858383011115613d2357600080fd5b613d2e838284615573565b50505092915050565b600060408284031215613d4957600080fd5b613d536040615211565b90506000613d63848285016138e3565b6000830152506020613d7784828501613ba9565b60208301525092915050565b600060408284031215613d9557600080fd5b613d9f6040615211565b90506000613daf848285016138f7565b6000830152506020613dc384828501613bbd565b60208301525092915050565b600060a08284031215613de157600080fd5b613deb60a0615211565b90506000613dfb848285016138e3565b600083015250602082013567ffffffffffffffff811115613e1b57600080fd5b613e2784828501613c8b565b602083015250604082013567ffffffffffffffff811115613e4757600080fd5b613e5384828501613c8b565b604083015250606082013567ffffffffffffffff811115613e7357600080fd5b613e7f84828501613c8b565b606083015250608082013567ffffffffffffffff811115613e9f57600080fd5b613eab8482850161390b565b60808301525092915050565b600060a08284031215613ec957600080fd5b613ed360a0615211565b90506000613ee3848285016138e3565b600083015250602082013567ffffffffffffffff811115613f0357600080fd5b613f0f84828501613c8b565b602083015250604082013567ffffffffffffffff811115613f2f57600080fd5b613f3b84828501613c8b565b604083015250606082013567ffffffffffffffff811115613f5b57600080fd5b613f6784828501613c8b565b606083015250608082013567ffffffffffffffff811115613f8757600080fd5b613f938482850161390b565b60808301525092915050565b600060608284031215613fb157600080fd5b613fbb6060615211565b90506000613fcb848285016138e3565b6000830152506020613fdf84828501614353565b602083015250604082013567ffffffffffffffff811115613fff57600080fd5b61400b84828501613c8b565b60408301525092915050565b600060c0828403121561402957600080fd5b61403360c0615211565b90506000614043848285016138e3565b600083015250602061405784828501614353565b602083015250604082013567ffffffffffffffff81111561407757600080fd5b61408384828501613c8b565b604083015250606082013567ffffffffffffffff8111156140a357600080fd5b6140af84828501613c8b565b606083015250608082013567ffffffffffffffff8111156140cf57600080fd5b6140db84828501613c8b565b60808301525060a082013567ffffffffffffffff8111156140fb57600080fd5b6141078482850161390b565b60a08301525092915050565b600060c0828403121561412557600080fd5b61412f60c0615211565b9050600061413f848285016138f7565b600083015250602061415384828501614367565b602083015250604082015167ffffffffffffffff81111561417357600080fd5b61417f84828501613ce1565b604083015250606082015167ffffffffffffffff81111561419f57600080fd5b6141ab84828501613ce1565b606083015250608082015167ffffffffffffffff8111156141cb57600080fd5b6141d784828501613ce1565b60808301525060a082015167ffffffffffffffff8111156141f757600080fd5b61420384828501613990565b60a08301525092915050565b60006080828403121561422157600080fd5b61422b6080615211565b9050600082013567ffffffffffffffff81111561424757600080fd5b61425384828501613dcf565b600083015250602061426784828501614353565b602083015250604061427b84828501613c63565b604083015250606082013567ffffffffffffffff81111561429b57600080fd5b6142a784828501613a8b565b60608301525092915050565b600060a082840312156142c557600080fd5b6142cf60a0615211565b9050600082013567ffffffffffffffff8111156142eb57600080fd5b6142f784828501613f9f565b600083015250602061430b84828501614353565b602083015250604061431f84828501614353565b604083015250606061433384828501613c77565b606083015250608061434784828501614353565b60808301525092915050565b600061435f82356154dc565b905092915050565b600061437382516154dc565b905092915050565b60006020828403121561438d57600080fd5b600061439b848285016138e3565b91505092915050565b6000602082840312156143b657600080fd5b60006143c4848285016138f7565b91505092915050565b6000806000606084860312156143e257600080fd5b60006143f0868287016138e3565b935050602061440186828701613ba9565b925050604084013567ffffffffffffffff81111561441e57600080fd5b61442a86828701613b10565b9150509250925092565b60006020828403121561444657600080fd5b600061445484828501613b95565b91505092915050565b60006020828403121561446f57600080fd5b600061447d84828501613bbd565b91505092915050565b60006020828403121561449857600080fd5b600082013567ffffffffffffffff8111156144b257600080fd5b6144be84828501613bd1565b91505092915050565b6000602082840312156144d957600080fd5b60006144e784828501613c27565b91505092915050565b6000806040838503121561450357600080fd5b600061451185828601613c4f565b925050602061452285828601613c3b565b9150509250929050565b6000806040838503121561453f57600080fd5b600083013567ffffffffffffffff81111561455957600080fd5b61456585828601613eb7565b925050602083013567ffffffffffffffff81111561458257600080fd5b61458e85828601613a15565b9150509250929050565b6000602082840312156145aa57600080fd5b600082013567ffffffffffffffff8111156145c457600080fd5b6145d084828501614017565b91505092915050565b6000602082840312156145eb57600080fd5b600082015167ffffffffffffffff81111561460557600080fd5b61461184828501614113565b91505092915050565b60006020828403121561462c57600080fd5b600082013567ffffffffffffffff81111561464657600080fd5b6146528482850161420f565b91505092915050565b60006020828403121561466d57600080fd5b600082013567ffffffffffffffff81111561468757600080fd5b614693848285016142b3565b91505092915050565b6000602082840312156146ae57600080fd5b60006146bc84828501614353565b91505092915050565b6000602082840312156146d757600080fd5b60006146e584828501614367565b91505092915050565b6000806040838503121561470157600080fd5b600061470f85828601614353565b925050602061472085828601614353565b9150509250929050565b614733816153d2565b82525050565b600061474482615374565b80845260208401935061475683615336565b60005b828110156147885761476c868351614b0c565b614775826153ab565b9150604086019550600181019050614759565b50849250505092915050565b600061479f8261537f565b8084526020840193506147b183615343565b60005b828110156147e2576147c68683614b3b565b6147cf826153b8565b91506040860195506001810190506147b4565b50849250505092915050565b60006147f98261538a565b80845260208401935061480b83615355565b60005b8281101561483d57614821868351614e6f565b61482a826153c5565b915060208601955060018101905061480e565b50849250505092915050565b614852816153f2565b82525050565b614861816153fe565b82525050565b600061487282615395565b808452614886816020860160208601615573565b61488f816155a6565b602085010191505092915050565b6148a6816154e6565b82525050565b6148b5816154f8565b82525050565b6148c48161550a565b82525050565b6148d38161551c565b82525050565b6148e28161552e565b82525050565b6148f181615540565b82525050565b61490081615552565b82525050565b6000614911826153a0565b808452614925816020860160208601615573565b61492e816155a6565b602085010191505092915050565b6000815460018116600081146149595760018114614979576149ba565b607f600283041680865260ff1983166020870152604086019350506149ba565b6002820480865260208601955061498f85615362565b60005b828110156149b157815481890152600182019150602081019050614992565b80880195505050505b505092915050565b6000601182527f63616e6e6f74206163636570742052464c0000000000000000000000000000006020830152604082019050919050565b6000601182527f63616e6e6f742072656a6563742052464c0000000000000000000000000000006020830152604082019050919050565b6000601282527f52464c20646f6573206e6f7420657869737400000000000000000000000000006020830152604082019050919050565b6000601082527f63616e6e6f74206d6572676520524649000000000000000000000000000000006020830152604082019050919050565b6000601182527f63616e6e6f742072656a656374205246490000000000000000000000000000006020830152604082019050919050565b6000601282527f52464920646f6573206e6f7420657869737400000000000000000000000000006020830152604082019050919050565b604082016000820151614b22600085018261472a565b506020820151614b356020850182614858565b50505050565b604082016000808301549050614b50816155b7565b614b5d600086018261472a565b5060018301549050614b6e816155b7565b614b7b6020860182614858565b5050505050565b600060a083016000830151614b9a600086018261472a565b5060208301518482036020860152614bb28282614906565b91505060408301518482036040860152614bcc8282614906565b91505060608301518482036060860152614be68282614906565b91505060808301518482036080860152614c008282614739565b9150508091505092915050565b600060a083016000808401549050614c24816155b7565b614c31600087018261472a565b50600184018583036020870152614c48838261493c565b925050600284018583036040870152614c61838261493c565b925050600384018583036060870152614c7a838261493c565b925050600484018583036080870152614c938382614794565b925050819250505092915050565b6000606083016000830151614cb9600086018261472a565b506020830151614ccc6020860182614e6f565b5060408301518482036040860152614ce48282614906565b9150508091505092915050565b600060c083016000830151614d09600086018261472a565b506020830151614d1c6020860182614e6f565b5060408301518482036040860152614d348282614906565b91505060608301518482036060860152614d4e8282614906565b91505060808301518482036080860152614d688282614906565b91505060a083015184820360a0860152614d828282614739565b9150508091505092915050565b60006080830160008301518482036000860152614dac8282614b82565b9150506020830151614dc16020860182614e6f565b506040830151614dd460408601826148e8565b5060608301518482036060860152614dec82826147ee565b9150508091505092915050565b600060a0830160008301518482036000860152614e168282614ca1565b9150506020830151614e2b6020860182614e6f565b506040830151614e3e6040860182614e6f565b506060830151614e5160608601826148f7565b506080830151614e646080860182614e6f565b508091505092915050565b614e7881615434565b82525050565b6000602082019050614e93600083018461472a565b92915050565b6000608082019050614eae600083018761472a565b614ebb602083018661472a565b614ec86040830185614858565b8181036060830152614eda8184614867565b905095945050505050565b6000604082019050614efa600083018561472a565b614f076020830184614e6f565b9392505050565b6000602082019050614f236000830184614849565b92915050565b6000602082019050614f3e6000830184614858565b92915050565b6000604082019050614f596000830185614858565b614f666020830184614858565b9392505050565b60006020820190508181036000830152614f878184614867565b905092915050565b6000602082019050614fa4600083018461489d565b92915050565b6000602082019050614fbf60008301846148ac565b92915050565b6000602082019050614fda60008301846148bb565b92915050565b6000602082019050614ff560008301846148ca565b92915050565b600060208201905061501060008301846148d9565b92915050565b6000602082019050818103600083015261502f816149c2565b9050919050565b6000602082019050818103600083015261504f816149f9565b9050919050565b6000602082019050818103600083015261506f81614a30565b9050919050565b6000602082019050818103600083015261508f81614a67565b9050919050565b600060208201905081810360008301526150af81614a9e565b9050919050565b600060208201905081810360008301526150cf81614ad5565b9050919050565b600060608201905081810360008301526150f08186614b82565b90506150ff6020830185614e6f565b61510c60408301846148e8565b949350505050565b6000602082019050818103600083015261512e8184614c0d565b905092915050565b600060a08201905081810360008301526151508188614ca1565b905061515f6020830187614e6f565b61516c6040830186614e6f565b61517960608301856148f7565b6151866080830184614e6f565b9695505050505050565b600060208201905081810360008301526151aa8184614cf1565b905092915050565b600060208201905081810360008301526151cc8184614d8f565b905092915050565b600060208201905081810360008301526151ee8184614df9565b905092915050565b600060208201905061520b6000830184614e6f565b92915050565b6000604051905081810181811067ffffffffffffffff8211171561523457600080fd5b8060405250919050565b600067ffffffffffffffff82111561525557600080fd5b602082029050602081019050919050565b600067ffffffffffffffff82111561527d57600080fd5b602082029050602081019050919050565b600067ffffffffffffffff8211156152a557600080fd5b602082029050602081019050919050565b600067ffffffffffffffff8211156152cd57600080fd5b602082029050602081019050919050565b600067ffffffffffffffff8211156152f557600080fd5b601f19601f8301169050602081019050919050565b600067ffffffffffffffff82111561532157600080fd5b601f19601f8301169050602081019050919050565b6000602082019050919050565b60008160005260206000209050919050565b6000602082019050919050565b60008160005260206000209050919050565b600081519050919050565b600081549050919050565b600081519050919050565b600081519050919050565b600081519050919050565b6000602082019050919050565b6000600182019050919050565b6000602082019050919050565b600073ffffffffffffffffffffffffffffffffffffffff82169050919050565b60008115159050919050565b6000819050919050565b600060048210151561541657fe5b819050919050565b600060058210151561542c57fe5b819050919050565b6000819050919050565b600073ffffffffffffffffffffffffffffffffffffffff82169050919050565b60008115159050919050565b6000819050919050565b600061547f826153d2565b9050919050565b6000615491826153d2565b9050919050565b60006154a3826153d2565b9050919050565b60006004821015156154bb57600080fd5b819050919050565b60006005821015156154d457600080fd5b819050919050565b6000819050919050565b60006154f1826153d2565b9050919050565b6000615503826153d2565b9050919050565b6000615515826153d2565b9050919050565b6000615527826153d2565b9050919050565b6000615539826153d2565b9050919050565b600061554b82615408565b9050919050565b600061555d8261541e565b9050919050565b82818337600083830152505050565b60005b83811015615591578082015181840152602081019050615576565b838111156155a0576000848401525b50505050565b6000601f19601f8301169050919050565b60006001820490509190505600a265627a7a72305820ef0377194b2ef349f9f974c49a668ba0213bbb39abb23812e20b84bb3dff79de6c6578706572696d656e74616cf50037",
  "source": "pragma solidity ^0.4.24;\npragma experimental ABIEncoderV2;\n\n/* import \"@aragon/apps-shared-minime/contracts/ITokenController.sol\";\nimport \"@aragon/apps-shared-minime/contracts/MiniMeToken.sol\"; */\nimport \"./PandoApp.sol\";\nimport \"./PandoGenesis.sol\";\nimport \"./Lineage.sol\";\n\n\ncontract Organism is PandoApp {\n    bytes32 constant public CREATE_RFI_ROLE  = keccak256(\"CREATE_RFI_ROLE\");\n    bytes32 constant public MERGE_RFI_ROLE   = keccak256(\"MERGE_RFI_ROLE\");\n    bytes32 constant public REJECT_RFI_ROLE  = keccak256(\"REJECT_RFI_ROLE\");\n    bytes32 constant public ACCEPT_RFL_ROLE  = keccak256(\"ACCEPT_RFL_ROLE\");\n    bytes32 constant public REJECT_RFL_ROLE  = keccak256(\"REJECT_RFL_ROLE\");\n    bytes32 constant public INDIVIDUATE_ROLE = keccak256(\"INDIVIDUATE_ROLE\");\n\n    PandoGenesis public genesis;\n    Lineage public lineage;\n\n    // Use a mapping instead of an array to ease app upgrade\n    // See https://github.com/aragon/aragon-apps/pull/428\n    // See https://youtu.be/sJ7VECqHFAg?t=9m27s\n    mapping (uint256 => RFI) public RFIs;\n    mapping (uint256 => RFL) public RFLs;\n\n    uint256 public RFIsLength = 0;\n    uint256 public RFLsLength = 0;\n\n\n    event CreateRFI(uint256 indexed id);\n    event MergeRFI(uint256 indexed id);\n    event RejectRFI(uint256 indexed id);\n    event CancelRFI(uint256 indexed id);\n\n    event CreateRFL(uint256 indexed id);\n    event AcceptRFL(uint256 indexed id, uint256 value);\n    event RejectRFL(uint256 indexed id);\n    event CancelRFL(uint256 indexed id);\n    event IssueRFL(uint256 indexed id, address destination, uint256 value);\n\n    modifier RFIExists(uint256 _RFIid) {\n        require(_RFIid <= RFIsLength, \"RFI does not exist\");\n        _;\n    }\n\n    modifier RFLExists(uint256 _RFLid) {\n        require(_RFLid <= RFLsLength, \"RFL does not exist\");\n        _;\n    }\n\n    /*--------------------*/\n\n    function initialize(PandoGenesis _genesis, Lineage _lineage) external onlyInit {\n        initialized();\n        genesis = _genesis;\n        lineage = _lineage;\n    }\n\n    function createRFI(IIndividuation _individuation, ILineage[] _lineages)\n        public\n        isInitialized\n        auth(CREATE_RFI_ROLE)\n        returns (uint256 RFIid)\n    {\n        RFIid = _createRFI(_individuation, _lineages);\n    }\n\n    function mergeRFI(uint256 _RFIid) public isInitialized auth(MERGE_RFI_ROLE) {\n        require(canMergeRFI(_RFIid), \"cannot merge RFI\");\n        _mergeRFI(_RFIid);\n    }\n\n    function rejectRFI(uint256 _RFIid) public isInitialized auth(REJECT_RFI_ROLE) {\n        require(canRejectRFI(_RFIid), \"cannot reject RFI\");\n        _rejectRFI(_RFIid);\n    }\n\n    function acceptRFL(uint256 _RFLid, uint256 _value) public isInitialized auth(ACCEPT_RFL_ROLE) {\n        require(canAcceptRFL(_RFLid, _value), \"cannot accept RFL\");\n        _acceptRFL(_RFLid, _value);\n    }\n\n    function rejectRFL(uint256 _RFLid) public isInitialized auth(REJECT_RFL_ROLE) {\n        require(canRejectRFL(_RFLid), \"cannot reject RFL\");\n        _rejectRFL(_RFLid);\n    }\n\n    /*--------------------*/\n\n    function canMergeRFI(uint256 _RFIid) public view returns (bool) {\n        if (_RFIid > RFIsLength)\n            return false;\n        RFI storage RFI_ = RFIs[_RFIid];\n        if (RFI_.state != RFIState.Pending)\n            return false;\n        for (uint256 i = 0; i < RFI_.RFLids.length; i++) {\n            RFL storage rfl = RFLs[RFI_.RFLids[i]];\n            if (rfl.state != RFLState.Accepted)\n                return false;\n        }\n        return true;\n    }\n\n    function canRejectRFI(uint _RFIid) public view returns (bool) {\n        if (_RFIid > RFIsLength)\n            return false;\n        if (RFIs[_RFIid].state != RFIState.Pending)\n            return false;\n        return true;\n    }\n\n    function canAcceptRFL(uint256 _RFLid, uint256 _value) public view returns (bool) {\n        if (_RFLid > RFLsLength)\n            return false;\n        if (RFLs[_RFLid].state != RFLState.Pending)\n            return false;\n        if (_value < RFLs[_RFLid].lineage.minimum)\n            return false;\n        return true;\n    }\n\n    function canRejectRFL(uint _RFLid) public view returns (bool) {\n        if (_RFLid > RFLsLength)\n            return false;\n        if (RFLs[_RFLid].state != RFLState.Pending)\n            return false;\n        return true;\n    }\n\n    /*--------------------*/\n\n    function getLineageToken() public view returns (address) {\n        return address(lineage);\n    }\n\n\n    function getRFI(uint256 _RFIid) public view RFIExists(_RFIid) returns (RFI) {\n        return RFIs[_RFIid];\n    }\n\n    function getRFL(uint256 _RFLid) public view RFLExists(_RFLid) returns (RFL) {\n        return RFLs[_RFLid];\n    }\n\n    function getIndividuationHash(Individuation _individuation) public pure returns (bytes32) {\n        return hash(_individuation);\n    }\n\n    function head() public view returns (bytes32) {\n        return genesis.head();\n    }\n\n    function getHead() public view returns (PandoApp.Individuation) {\n        return genesis.getHead();\n    }\n\n    /*--------------------*/\n\n    function _createRFI(IIndividuation _individuation, ILineage[] _lineages) internal returns (uint256 RFIid) {\n        // msg.sender is gonna be the address of a governance kit built on top of the API\n        // Do you we wanna make sure that the transaction is actually initialized by _individuation.origin ?\n        // If this is the case then we're gonna need to ask for a proof of identity through a ECDSA signature\n        // See https://github.com/OpenZeppelin/openzeppelin-solidity/blob/master/contracts/cryptography/ECDSA.sol\n\n        RFIsLength = RFIsLength + 1;\n        RFIid = RFIsLength;\n\n        RFI storage rfi = RFIs[RFIid];\n\n        rfi.individuation.origin = _individuation.origin;\n        rfi.individuation.tree = _individuation.tree;\n        rfi.individuation.message = _individuation.message;\n        rfi.individuation.metadata = _individuation.metadata;\n        rfi.blockstamp = block.number;\n        rfi.state = RFIState.Pending;\n\n        // solc 4.0.24 cannot directly convert dynamic struct array from memory to storage\n        rfi.individuation.parents.length = _individuation.parents.length;\n        for (uint256 i = 0; i < _individuation.parents.length; i++) {\n            rfi.individuation.parents[i] = _individuation.parents[i];\n        }\n\n        for (uint256 j = 0; j < _lineages.length; j++) {\n            uint256 RFLid = _createRFL(_lineages[j], RFIid);\n            uint256 index = rfi.RFLids.length++;\n            rfi.RFLids[index] = RFLid;\n        }\n\n        emit CreateRFI(RFIid);\n    }\n\n    function _mergeRFI(uint256 _RFIid) internal {\n        RFI storage rfi = RFIs[_RFIid];\n\n        rfi.state = RFIState.Merged;\n\n        genesis.individuate(rfi.individuation);\n\n        for (uint256 i = 0; i < rfi.RFLids.length; i++) {\n            _issueRFL(rfi.RFLids[i]);\n        }\n\n        emit MergeRFI(_RFIid);\n    }\n\n    function _rejectRFI(uint256 _RFIid) internal {\n        RFI storage rfi = RFIs[_RFIid];\n\n        rfi.state = RFIState.Rejected;\n\n        for (uint256 j = 0; j < rfi.RFLids.length; j++) {\n            _cancelRFL(rfi.RFLids[j]);\n        }\n\n        emit RejectRFI(_RFIid);\n    }\n\n    function _cancelRFI(uint256 _RFIid) internal {\n        RFI storage rfi = RFIs[_RFIid];\n\n        rfi.state = RFIState.Cancelled;\n\n        for (uint256 i = 0; i < rfi.RFLids.length; i++) {\n            RFL storage rfl = RFLs[rfi.RFLids[i]];\n\n            if (rfl.state != RFLState.Rejected)\n                _cancelRFL(rfi.RFLids[i]);\n        }\n\n        emit CancelRFI(_RFIid);\n    }\n\n    function _createRFL(ILineage _lineage, uint256 _RFIid) internal returns (uint256 RFLid) {\n        RFLsLength = RFLsLength + 1;\n        RFLid = RFLsLength;\n\n        RFL storage rfl = RFLs[RFLid];\n\n        rfl.lineage.destination = _lineage.destination;\n        rfl.lineage.minimum = _lineage.minimum;\n        rfl.lineage.metadata = _lineage.metadata;\n        rfl.blockstamp = block.number;\n        rfl.value = 0;\n        rfl.state = RFLState.Pending;\n        rfl.RFIid = _RFIid;\n\n        emit CreateRFL(RFLid);\n    }\n\n    function _acceptRFL(uint256 _RFLid, uint256 _value) internal {\n        RFL storage rfl = RFLs[_RFLid];\n\n        rfl.state = RFLState.Accepted;\n        rfl.value = _value;\n\n        emit AcceptRFL(_RFLid, _value);\n    }\n\n    function _rejectRFL(uint256 _RFLid) internal {\n        RFL storage rfl = RFLs[_RFLid];\n\n        rfl.state = RFLState.Rejected;\n\n        _cancelRFI(rfl.RFIid);\n\n        emit RejectRFL(_RFLid);\n    }\n\n    function _cancelRFL(uint256 _RFLid) internal {\n        RFL storage rfl = RFLs[_RFLid];\n\n        rfl.state = RFLState.Cancelled;\n\n        emit CancelRFL(_RFLid);\n    }\n\n    function _issueRFL(uint256 _RFLid) internal {\n        RFL storage rfl = RFLs[_RFLid];\n\n        rfl.state = RFLState.Issued;\n\n        lineage.mint(rfl.lineage.destination, rfl.value);\n\n        emit IssueRFL(_RFLid, rfl.lineage.destination, rfl.value);\n    }\n}\n",
  "sourcePath": "/Users/osarrouy/Documents/dapp/@pando/packages/core/contracts/core/Organism.sol",
  "compiler": {
    "name": "solc",
    "version": "0.4.24+commit.e67f0147.Emscripten.clang"
  },
  "schemaVersion": "2.0.1",
  "updatedAt": "2018-11-28T11:38:00.026Z"
}