{
  "contractName": "PandoApp",
  "abi": [
    {
      "constant": true,
      "inputs": [],
      "name": "hasInitialized",
      "outputs": [
        {
          "name": "",
          "type": "bool"
        }
      ],
      "payable": false,
      "stateMutability": "view",
      "type": "function"
    },
    {
      "constant": true,
      "inputs": [
        {
          "name": "_script",
          "type": "bytes"
        }
      ],
      "name": "getEVMScriptExecutor",
      "outputs": [
        {
          "name": "",
          "type": "address"
        }
      ],
      "payable": false,
      "stateMutability": "view",
      "type": "function"
    },
    {
      "constant": true,
      "inputs": [],
      "name": "getRecoveryVault",
      "outputs": [
        {
          "name": "",
          "type": "address"
        }
      ],
      "payable": false,
      "stateMutability": "view",
      "type": "function"
    },
    {
      "constant": true,
      "inputs": [
        {
          "name": "token",
          "type": "address"
        }
      ],
      "name": "allowRecoverability",
      "outputs": [
        {
          "name": "",
          "type": "bool"
        }
      ],
      "payable": false,
      "stateMutability": "view",
      "type": "function"
    },
    {
      "constant": true,
      "inputs": [],
      "name": "appId",
      "outputs": [
        {
          "name": "",
          "type": "bytes32"
        }
      ],
      "payable": false,
      "stateMutability": "view",
      "type": "function"
    },
    {
      "constant": true,
      "inputs": [],
      "name": "getInitializationBlock",
      "outputs": [
        {
          "name": "",
          "type": "uint256"
        }
      ],
      "payable": false,
      "stateMutability": "view",
      "type": "function"
    },
    {
      "constant": false,
      "inputs": [
        {
          "name": "_token",
          "type": "address"
        }
      ],
      "name": "transferToVault",
      "outputs": [],
      "payable": false,
      "stateMutability": "nonpayable",
      "type": "function"
    },
    {
      "constant": true,
      "inputs": [
        {
          "name": "_sender",
          "type": "address"
        },
        {
          "name": "_role",
          "type": "bytes32"
        },
        {
          "name": "_params",
          "type": "uint256[]"
        }
      ],
      "name": "canPerform",
      "outputs": [
        {
          "name": "",
          "type": "bool"
        }
      ],
      "payable": false,
      "stateMutability": "view",
      "type": "function"
    },
    {
      "constant": true,
      "inputs": [],
      "name": "getEVMScriptRegistry",
      "outputs": [
        {
          "name": "",
          "type": "address"
        }
      ],
      "payable": false,
      "stateMutability": "view",
      "type": "function"
    },
    {
      "constant": true,
      "inputs": [],
      "name": "kernel",
      "outputs": [
        {
          "name": "",
          "type": "address"
        }
      ],
      "payable": false,
      "stateMutability": "view",
      "type": "function"
    },
    {
      "constant": true,
      "inputs": [],
      "name": "isPetrified",
      "outputs": [
        {
          "name": "",
          "type": "bool"
        }
      ],
      "payable": false,
      "stateMutability": "view",
      "type": "function"
    },
    {
      "anonymous": false,
      "inputs": [
        {
          "indexed": true,
          "name": "executor",
          "type": "address"
        },
        {
          "indexed": false,
          "name": "script",
          "type": "bytes"
        },
        {
          "indexed": false,
          "name": "input",
          "type": "bytes"
        },
        {
          "indexed": false,
          "name": "returnData",
          "type": "bytes"
        }
      ],
      "name": "ScriptResult",
      "type": "event"
    },
    {
      "constant": true,
      "inputs": [
        {
          "components": [
            {
              "components": [
                {
                  "name": "origin",
                  "type": "address"
                },
                {
                  "name": "tree",
                  "type": "string"
                },
                {
                  "name": "message",
                  "type": "string"
                },
                {
                  "name": "metadata",
                  "type": "string"
                },
                {
                  "components": [
                    {
                      "name": "organism",
                      "type": "address"
                    },
                    {
                      "name": "hash",
                      "type": "bytes32"
                    }
                  ],
                  "name": "parents",
                  "type": "tuple[]"
                }
              ],
              "name": "individuation",
              "type": "tuple"
            },
            {
              "name": "blockstamp",
              "type": "uint256"
            },
            {
              "name": "state",
              "type": "uint8"
            },
            {
              "name": "RFLids",
              "type": "uint256[]"
            }
          ],
          "name": "_RFI",
          "type": "tuple"
        }
      ],
      "name": "isPending",
      "outputs": [
        {
          "name": "",
          "type": "bool"
        }
      ],
      "payable": false,
      "stateMutability": "pure",
      "type": "function"
    },
    {
      "constant": true,
      "inputs": [
        {
          "components": [
            {
              "components": [
                {
                  "name": "destination",
                  "type": "address"
                },
                {
                  "name": "minimum",
                  "type": "uint256"
                },
                {
                  "name": "metadata",
                  "type": "string"
                }
              ],
              "name": "lineage",
              "type": "tuple"
            },
            {
              "name": "blockstamp",
              "type": "uint256"
            },
            {
              "name": "value",
              "type": "uint256"
            },
            {
              "name": "state",
              "type": "uint8"
            },
            {
              "name": "RFIid",
              "type": "uint256"
            }
          ],
          "name": "_RFL",
          "type": "tuple"
        }
      ],
      "name": "isPending",
      "outputs": [
        {
          "name": "",
          "type": "bool"
        }
      ],
      "payable": false,
      "stateMutability": "pure",
      "type": "function"
    },
    {
      "constant": true,
      "inputs": [
        {
          "components": [
            {
              "components": [
                {
                  "name": "destination",
                  "type": "address"
                },
                {
                  "name": "minimum",
                  "type": "uint256"
                },
                {
                  "name": "metadata",
                  "type": "string"
                }
              ],
              "name": "lineage",
              "type": "tuple"
            },
            {
              "name": "blockstamp",
              "type": "uint256"
            },
            {
              "name": "value",
              "type": "uint256"
            },
            {
              "name": "state",
              "type": "uint8"
            },
            {
              "name": "RFIid",
              "type": "uint256"
            }
          ],
          "name": "_RFL",
          "type": "tuple"
        }
      ],
      "name": "isAccepted",
      "outputs": [
        {
          "name": "",
          "type": "bool"
        }
      ],
      "payable": false,
      "stateMutability": "pure",
      "type": "function"
    },
    {
      "constant": true,
      "inputs": [
        {
          "components": [
            {
              "name": "origin",
              "type": "address"
            },
            {
              "name": "blockstamp",
              "type": "uint256"
            },
            {
              "name": "tree",
              "type": "string"
            },
            {
              "name": "message",
              "type": "string"
            },
            {
              "name": "metadata",
              "type": "string"
            },
            {
              "components": [
                {
                  "name": "organism",
                  "type": "address"
                },
                {
                  "name": "hash",
                  "type": "bytes32"
                }
              ],
              "name": "parents",
              "type": "tuple[]"
            }
          ],
          "name": "_individuation",
          "type": "tuple"
        }
      ],
      "name": "hash",
      "outputs": [
        {
          "name": "",
          "type": "bytes32"
        }
      ],
      "payable": false,
      "stateMutability": "pure",
      "type": "function"
    }
  ],
  "bytecode": "0x60806040526200001d62000023640100000000026401000000009004565b620002ef565b60006200003e620000f8640100000000026401000000009004565b146040805190810160405280601881526020017f494e49545f414c52454144595f494e495449414c495a45440000000000000000815250901515620000bb576040517f08c379a0000000000000000000000000000000000000000000000000000000008152600401620000b2919062000279565b60405180910390fd5b50620000f67fffffffffffffffffffffffffffffffffffffffffffffffffffffffffffffffff62000145640100000000026401000000009004565b565b6000620001407febb05b386a8d34882b8711d156f463690983dc47815980fb82aeeff1aa43579e600102600019166200022b6401000000000262000e1c176401000000009004565b905090565b600062000160620000f8640100000000026401000000009004565b146040805190810160405280601881526020017f494e49545f414c52454144595f494e495449414c495a45440000000000000000815250901515620001dd576040517f08c379a0000000000000000000000000000000000000000000000000000000008152600401620001d4919062000279565b60405180910390fd5b5062000228817febb05b386a8d34882b8711d156f463690983dc47815980fb82aeeff1aa43579e60010260001916620002366401000000000262001ca7179091906401000000009004565b50565b600081549050919050565b8082555050565b60006200024a826200029d565b80845262000260816020860160208601620002a8565b6200026b81620002de565b602085010191505092915050565b600060208201905081810360008301526200029581846200023d565b905092915050565b600081519050919050565b60005b83811015620002c8578082015181840152602081019050620002ab565b83811115620002d8576000848401525b50505050565b6000601f19601f8301169050919050565b611ce880620002ff6000396000f3006080604052600436106100db576000357c0100000000000000000000000000000000000000000000000000000000900463ffffffff1680630803fac0146100e05780632914b9bd1461010b57806332f0a3b51461014857806339a2d338146101735780635b15970d146101b05780637e7db6e1146101ed57806380afdea81461022a5780638b3dd749146102555780639d4941d814610280578063a1658fad146102a9578063a479e508146102e6578063d4aae0c414610311578063de4796ed1461033c578063e7fd8d0814610367578063e95fe2ff146103a4575b600080fd5b3480156100ec57600080fd5b506100f56103e1565b604051610102919061190b565b60405180910390f35b34801561011757600080fd5b50610132600480360361012d9190810190611641565b61040c565b60405161013f919061198c565b60405180910390f35b34801561015457600080fd5b5061015d6104c3565b60405161016a919061187b565b60405180910390f35b34801561017f57600080fd5b5061019a600480360361019591908101906116ab565b61056d565b6040516101a79190611926565b60405180910390f35b3480156101bc57600080fd5b506101d760048036036101d2919081019061172d565b610782565b6040516101e4919061190b565b60405180910390f35b3480156101f957600080fd5b50610214600480360361020f919081019061155f565b6107a9565b604051610221919061190b565b60405180910390f35b34801561023657600080fd5b5061023f6107b4565b60405161024c9190611926565b60405180910390f35b34801561026157600080fd5b5061026a6107eb565b6040516102779190611a1a565b60405180910390f35b34801561028c57600080fd5b506102a760048036036102a2919081019061155f565b610822565b005b3480156102b557600080fd5b506102d060048036036102cb91908101906115b1565b610b26565b6040516102dd919061190b565b60405180910390f35b3480156102f257600080fd5b506102fb610c53565b60405161030891906119a7565b60405180910390f35b34801561031d57600080fd5b50610326610d55565b60405161033391906119c2565b60405180910390f35b34801561034857600080fd5b50610351610d8c565b60405161035e919061190b565b60405180910390f35b34801561037357600080fd5b5061038e600480360361038991908101906116ec565b610dbd565b60405161039b919061190b565b60405180910390f35b3480156103b057600080fd5b506103cb60048036036103c6919081019061172d565b610de3565b6040516103d8919061190b565b60405180910390f35b6000806103ec6107eb565b905060008114158015610406575080610403610e09565b10155b91505090565b6000610416610c53565b73ffffffffffffffffffffffffffffffffffffffff166304bf2a7f836040518263ffffffff167c010000000000000000000000000000000000000000000000000000000002815260040161046a919061196a565b602060405180830381600087803b15801561048457600080fd5b505af1158015610498573d6000803e3d6000fd5b505050506040513d601f19601f820116820180604052506104bc9190810190611682565b9050919050565b60006104cd610d55565b73ffffffffffffffffffffffffffffffffffffffff166332f0a3b56040518163ffffffff167c0100000000000000000000000000000000000000000000000000000000028152600401602060405180830381600087803b15801561053057600080fd5b505af1158015610544573d6000803e3d6000fd5b505050506040513d601f19601f820116820180604052506105689190810190611588565b905090565b6000816000015182602001518360400151846060015185608001518660a00151604051602001808773ffffffffffffffffffffffffffffffffffffffff1673ffffffffffffffffffffffffffffffffffffffff166c0100000000000000000000000002815260140186815260200185805190602001908083835b60208310151561060c57805182526020820191506020810190506020830392506105e7565b6001836020036101000a03801982511681845116808217855250505050505090500184805190602001908083835b60208310151561065f578051825260208201915060208101905060208303925061063a565b6001836020036101000a03801982511681845116808217855250505050505090500183805190602001908083835b6020831015156106b2578051825260208201915060208101905060208303925061068d565b6001836020036101000a0380198251168184511680821785525050505050509050018280516000925b818410156106fe57828490602001906020020151815260200192600101926106db565b9250505096505050505050506040516020818303038152906040526040518082805190602001908083835b60208310151561074e5780518252602082019150602081019050602083039250610729565b6001836020036101000a03801982511681845116808217855250505050505090500191505060405180910390209050919050565b60006001600481111561079157fe5b826060015160048111156107a157fe5b149050919050565b600060019050919050565b60006107e67fd625496217aa6a3453eecb9c3489dc5a53e6c67b444329ea2b2cbc9ff547639b60010260001916610e11565b905090565b600061081d7febb05b386a8d34882b8711d156f463690983dc47815980fb82aeeff1aa43579e60010260001916610e1c565b905090565b60008061082e836107a9565b6040805190810160405280601281526020017f5245434f5645525f444953414c4c4f57454400000000000000000000000000008152509015156108a7576040517f08c379a000000000000000000000000000000000000000000000000000000000815260040161089e91906119f8565b60405180910390fd5b506108b06104c3565b91506108bb82610e27565b6040805190810160405280601a81526020017f5245434f5645525f5641554c545f4e4f545f434f4e5452414354000000000000815250901515610934576040517f08c379a000000000000000000000000000000000000000000000000000000000815260040161092b91906119f8565b60405180910390fd5b50600073ffffffffffffffffffffffffffffffffffffffff168373ffffffffffffffffffffffffffffffffffffffff1614156109cd578173ffffffffffffffffffffffffffffffffffffffff166108fc3073ffffffffffffffffffffffffffffffffffffffff16319081150290604051600060405180830381858888f193505050501580156109c7573d6000803e3d6000fd5b50610b21565b8273ffffffffffffffffffffffffffffffffffffffff166370a08231306040518263ffffffff167c0100000000000000000000000000000000000000000000000000000000028152600401610a2291906119dd565b602060405180830381600087803b158015610a3c57600080fd5b505af1158015610a50573d6000803e3d6000fd5b505050506040513d601f19601f82011682018060405250610a74919081019061176e565b90508273ffffffffffffffffffffffffffffffffffffffff1663a9059cbb83836040518363ffffffff167c0100000000000000000000000000000000000000000000000000000000028152600401610acd9291906118e2565b602060405180830381600087803b158015610ae757600080fd5b505af1158015610afb573d6000803e3d6000fd5b505050506040513d601f19601f82011682018060405250610b1f9190810190611618565b505b505050565b60008060606000610b356103e1565b1515610b445760009350610c49565b610b4c610d55565b9250600073ffffffffffffffffffffffffffffffffffffffff168373ffffffffffffffffffffffffffffffffffffffff161415610b8c5760009350610c49565b602085510290508491508082528273ffffffffffffffffffffffffffffffffffffffff1663fdef9106883089866040518563ffffffff167c0100000000000000000000000000000000000000000000000000000000028152600401610bf49493929190611896565b602060405180830381600087803b158015610c0e57600080fd5b505af1158015610c22573d6000803e3d6000fd5b505050506040513d601f19601f82011682018060405250610c469190810190611618565b93505b5050509392505050565b600080610c5e610d55565b73ffffffffffffffffffffffffffffffffffffffff1663be00bbd87fd6f028ca0e8edb4a8c9757ca4fdccab25fa1e0317da1188108f7d2dee14902fb6001027fddbcfd564f642ab5627cf68b9b7d374fb4f8a36e941a75d89c87998cef03bd616001026040518363ffffffff167c0100000000000000000000000000000000000000000000000000000000028152600401610cfa929190611941565b602060405180830381600087803b158015610d1457600080fd5b505af1158015610d28573d6000803e3d6000fd5b505050506040513d601f19601f82011682018060405250610d4c9190810190611588565b90508091505090565b6000610d877f4172f0f7d2289153072b0a6ca36959e0cbe2efc3afe50fc81636caa96338137b60010260001916610e79565b905090565b60007fffffffffffffffffffffffffffffffffffffffffffffffffffffffffffffffff610db76107eb565b14905090565b6000806003811115610dcb57fe5b82604001516003811115610ddb57fe5b149050919050565b6000806004811115610df157fe5b82606001516004811115610e0157fe5b149050919050565b600043905090565b600081549050919050565b600081549050919050565b600080600073ffffffffffffffffffffffffffffffffffffffff168373ffffffffffffffffffffffffffffffffffffffff161415610e685760009150610e73565b823b90506000811191505b50919050565b600081549050919050565b6000610e908235611b88565b905092915050565b6000610ea48251611b88565b905092915050565b600082601f8301121515610ebf57600080fd5b8135610ed2610ecd82611a62565b611a35565b91508181835260208401935060208101905083856040840282011115610ef757600080fd5b60005b83811015610f275781610f0d888261114b565b845260208401935060408301925050600181019050610efa565b5050505092915050565b600082601f8301121515610f4457600080fd5b8135610f57610f5282611a8a565b611a35565b91508181835260208401935060208101905083856020840282011115610f7c57600080fd5b60005b83811015610fac5781610f928882611537565b845260208401935060208301925050600181019050610f7f565b5050505092915050565b600082601f8301121515610fc957600080fd5b8135610fdc610fd782611ab2565b611a35565b9150818183526020840193506020810190508385602084028201111561100157600080fd5b60005b8381101561103157816110178882611537565b845260208401935060208301925050600181019050611004565b5050505092915050565b60006110478251611ba8565b905092915050565b600061105b8235611bb4565b905092915050565b600082601f830112151561107657600080fd5b813561108961108482611ada565b611a35565b915080825260208301602083018583830111156110a557600080fd5b6110b0838284611c54565b50505092915050565b60006110c58251611bbe565b905092915050565b60006110d98235611bd0565b905092915050565b60006110ed8235611be9565b905092915050565b600082601f830112151561110857600080fd5b813561111b61111682611b06565b611a35565b9150808252602083016020830185838301111561113757600080fd5b611142838284611c54565b50505092915050565b60006040828403121561115d57600080fd5b6111676040611a35565b9050600061117784828501610e84565b600083015250602061118b8482850161104f565b60208301525092915050565b600060a082840312156111a957600080fd5b6111b360a0611a35565b905060006111c384828501610e84565b600083015250602082013567ffffffffffffffff8111156111e357600080fd5b6111ef848285016110f5565b602083015250604082013567ffffffffffffffff81111561120f57600080fd5b61121b848285016110f5565b604083015250606082013567ffffffffffffffff81111561123b57600080fd5b611247848285016110f5565b606083015250608082013567ffffffffffffffff81111561126757600080fd5b61127384828501610eac565b60808301525092915050565b60006060828403121561129157600080fd5b61129b6060611a35565b905060006112ab84828501610e84565b60008301525060206112bf84828501611537565b602083015250604082013567ffffffffffffffff8111156112df57600080fd5b6112eb848285016110f5565b60408301525092915050565b600060c0828403121561130957600080fd5b61131360c0611a35565b9050600061132384828501610e84565b600083015250602061133784828501611537565b602083015250604082013567ffffffffffffffff81111561135757600080fd5b611363848285016110f5565b604083015250606082013567ffffffffffffffff81111561138357600080fd5b61138f848285016110f5565b606083015250608082013567ffffffffffffffff8111156113af57600080fd5b6113bb848285016110f5565b60808301525060a082013567ffffffffffffffff8111156113db57600080fd5b6113e784828501610eac565b60a08301525092915050565b60006080828403121561140557600080fd5b61140f6080611a35565b9050600082013567ffffffffffffffff81111561142b57600080fd5b61143784828501611197565b600083015250602061144b84828501611537565b602083015250604061145f848285016110cd565b604083015250606082013567ffffffffffffffff81111561147f57600080fd5b61148b84828501610f31565b60608301525092915050565b600060a082840312156114a957600080fd5b6114b360a0611a35565b9050600082013567ffffffffffffffff8111156114cf57600080fd5b6114db8482850161127f565b60008301525060206114ef84828501611537565b602083015250604061150384828501611537565b6040830152506060611517848285016110e1565b606083015250608061152b84828501611537565b60808301525092915050565b60006115438235611c02565b905092915050565b60006115578251611c02565b905092915050565b60006020828403121561157157600080fd5b600061157f84828501610e84565b91505092915050565b60006020828403121561159a57600080fd5b60006115a884828501610e98565b91505092915050565b6000806000606084860312156115c657600080fd5b60006115d486828701610e84565b93505060206115e58682870161104f565b925050604084013567ffffffffffffffff81111561160257600080fd5b61160e86828701610fb6565b9150509250925092565b60006020828403121561162a57600080fd5b60006116388482850161103b565b91505092915050565b60006020828403121561165357600080fd5b600082013567ffffffffffffffff81111561166d57600080fd5b61167984828501611063565b91505092915050565b60006020828403121561169457600080fd5b60006116a2848285016110b9565b91505092915050565b6000602082840312156116bd57600080fd5b600082013567ffffffffffffffff8111156116d757600080fd5b6116e3848285016112f7565b91505092915050565b6000602082840312156116fe57600080fd5b600082013567ffffffffffffffff81111561171857600080fd5b611724848285016113f3565b91505092915050565b60006020828403121561173f57600080fd5b600082013567ffffffffffffffff81111561175957600080fd5b61176584828501611497565b91505092915050565b60006020828403121561178057600080fd5b600061178e8482850161154b565b91505092915050565b6117a081611b48565b82525050565b6117af81611b68565b82525050565b6117be81611b74565b82525050565b60006117cf82611b32565b8084526117e3816020860160208601611c63565b6117ec81611c96565b602085010191505092915050565b61180381611c0c565b82525050565b61181281611c1e565b82525050565b61182181611c30565b82525050565b61183081611c42565b82525050565b600061184182611b3d565b808452611855816020860160208601611c63565b61185e81611c96565b602085010191505092915050565b61187581611b7e565b82525050565b60006020820190506118906000830184611797565b92915050565b60006080820190506118ab6000830187611797565b6118b86020830186611797565b6118c560408301856117b5565b81810360608301526118d781846117c4565b905095945050505050565b60006040820190506118f76000830185611797565b611904602083018461186c565b9392505050565b600060208201905061192060008301846117a6565b92915050565b600060208201905061193b60008301846117b5565b92915050565b600060408201905061195660008301856117b5565b61196360208301846117b5565b9392505050565b6000602082019050818103600083015261198481846117c4565b905092915050565b60006020820190506119a160008301846117fa565b92915050565b60006020820190506119bc6000830184611809565b92915050565b60006020820190506119d76000830184611818565b92915050565b60006020820190506119f26000830184611827565b92915050565b60006020820190508181036000830152611a128184611836565b905092915050565b6000602082019050611a2f600083018461186c565b92915050565b6000604051905081810181811067ffffffffffffffff82111715611a5857600080fd5b8060405250919050565b600067ffffffffffffffff821115611a7957600080fd5b602082029050602081019050919050565b600067ffffffffffffffff821115611aa157600080fd5b602082029050602081019050919050565b600067ffffffffffffffff821115611ac957600080fd5b602082029050602081019050919050565b600067ffffffffffffffff821115611af157600080fd5b601f19601f8301169050602081019050919050565b600067ffffffffffffffff821115611b1d57600080fd5b601f19601f8301169050602081019050919050565b600081519050919050565b600081519050919050565b600073ffffffffffffffffffffffffffffffffffffffff82169050919050565b60008115159050919050565b6000819050919050565b6000819050919050565b600073ffffffffffffffffffffffffffffffffffffffff82169050919050565b60008115159050919050565b6000819050919050565b6000611bc982611b48565b9050919050565b6000600482101515611be157600080fd5b819050919050565b6000600582101515611bfa57600080fd5b819050919050565b6000819050919050565b6000611c1782611b48565b9050919050565b6000611c2982611b48565b9050919050565b6000611c3b82611b48565b9050919050565b6000611c4d82611b48565b9050919050565b82818337600083830152505050565b60005b83811015611c81578082015181840152602081019050611c66565b83811115611c90576000848401525b50505050565b6000601f19601f8301169050919050565b80825550505600a265627a7a7230582018f4856bf3f917815251095a25a936d8ef2526640eec24258752e3f87c9f93e56c6578706572696d656e74616cf50037",
  "source": "pragma solidity ^0.4.24;\npragma experimental ABIEncoderV2;\n\nimport \"@aragon/os/contracts/apps/AragonApp.sol\";\n\ncontract PandoApp is AragonApp {\n    enum RFLState   { Pending, Accepted, Issued, Rejected, Cancelled }\n    enum RFIState   { Pending, Merged, Rejected, Cancelled }\n    enum RFISorting { Merge, Reject }\n\n    struct IID {\n        address organism;\n        bytes32 hash;\n    }\n\n    struct IIndividuation {\n        address origin;\n        string  tree;\n        string  message;\n        string  metadata;\n        IID[]   parents;\n    }\n\n    struct Individuation {\n        address origin;\n        uint256 blockstamp;\n        string  tree;\n        string  message;\n        string  metadata;\n        IID[]   parents;\n    }\n\n    struct RFI {\n        IIndividuation individuation;\n        uint256        blockstamp;\n        RFIState       state;\n        uint256[]      RFLids;\n    }\n\n    struct ILineage {\n        address  destination;\n        uint256  minimum;\n        string   metadata;\n    }\n\n    struct RFL {\n        ILineage lineage;\n        uint256  blockstamp;\n        uint256  value;\n        RFLState state;\n        uint256  RFIid;\n    }\n\n    function isPending(RFI _RFI) public pure returns (bool) {\n        return _RFI.state == RFIState.Pending;\n    }\n\n    function isPending(RFL _RFL) public pure returns (bool) {\n        return _RFL.state == RFLState.Pending;\n    }\n\n    function isAccepted(RFL _RFL) public pure returns (bool) {\n        return _RFL.state == RFLState.Accepted;\n    }\n\n    function hash(Individuation _individuation) public pure returns (bytes32) {\n        return keccak256(\n            abi.encodePacked(\n                _individuation.origin,\n                _individuation.blockstamp,\n                _individuation.tree,\n                _individuation.message,\n                _individuation.metadata,\n                _individuation.parents)\n            );\n    }\n}\n",
  "sourcePath": "/Users/osarrouy/Documents/dapp/@pando/packages/organism/contracts/lib/PandoApp.sol",
  "compiler": {
    "name": "solc",
    "version": "0.4.24+commit.e67f0147.Emscripten.clang"
  },
  "schemaVersion": "2.0.1",
  "updatedAt": "2018-11-29T10:57:11.699Z"
}