{
  "contractName": "DemocracyScheme",
  "abi": [
    {
      "constant": true,
      "inputs": [],
      "name": "hasInitialized",
      "outputs": [
        {
          "name": "",
          "type": "bool"
        }
      ],
      "payable": false,
      "stateMutability": "view",
      "type": "function"
    },
    {
      "constant": true,
      "inputs": [
        {
          "name": "",
          "type": "address"
        },
        {
          "name": "",
          "type": "uint256"
        }
      ],
      "name": "RFLVotes",
      "outputs": [
        {
          "name": "RFLid",
          "type": "uint256"
        },
        {
          "name": "blockstamp",
          "type": "uint256"
        },
        {
          "name": "supply",
          "type": "uint256"
        },
        {
          "name": "quorum",
          "type": "uint256"
        },
        {
          "name": "required",
          "type": "uint256"
        },
        {
          "name": "yea",
          "type": "uint256"
        },
        {
          "name": "nay",
          "type": "uint256"
        },
        {
          "name": "total",
          "type": "uint256"
        },
        {
          "name": "participation",
          "type": "uint256"
        },
        {
          "name": "state",
          "type": "uint8"
        }
      ],
      "payable": false,
      "stateMutability": "view",
      "type": "function"
    },
    {
      "constant": true,
      "inputs": [],
      "name": "quorum",
      "outputs": [
        {
          "name": "",
          "type": "uint256"
        }
      ],
      "payable": false,
      "stateMutability": "view",
      "type": "function"
    },
    {
      "constant": true,
      "inputs": [
        {
          "name": "",
          "type": "address"
        },
        {
          "name": "",
          "type": "uint256"
        },
        {
          "name": "",
          "type": "address"
        }
      ],
      "name": "RFLVotesBallots",
      "outputs": [
        {
          "name": "state",
          "type": "uint8"
        },
        {
          "name": "value",
          "type": "uint256"
        }
      ],
      "payable": false,
      "stateMutability": "view",
      "type": "function"
    },
    {
      "constant": true,
      "inputs": [
        {
          "name": "_script",
          "type": "bytes"
        }
      ],
      "name": "getEVMScriptExecutor",
      "outputs": [
        {
          "name": "",
          "type": "address"
        }
      ],
      "payable": false,
      "stateMutability": "view",
      "type": "function"
    },
    {
      "constant": true,
      "inputs": [],
      "name": "getRecoveryVault",
      "outputs": [
        {
          "name": "",
          "type": "address"
        }
      ],
      "payable": false,
      "stateMutability": "view",
      "type": "function"
    },
    {
      "constant": true,
      "inputs": [],
      "name": "UPDATE_PARAMETERS_ROLE",
      "outputs": [
        {
          "name": "",
          "type": "bytes32"
        }
      ],
      "payable": false,
      "stateMutability": "view",
      "type": "function"
    },
    {
      "constant": true,
      "inputs": [
        {
          "name": "",
          "type": "address"
        },
        {
          "name": "",
          "type": "uint256"
        }
      ],
      "name": "RFIVotes",
      "outputs": [
        {
          "name": "RFIid",
          "type": "uint256"
        },
        {
          "name": "blockstamp",
          "type": "uint256"
        },
        {
          "name": "supply",
          "type": "uint256"
        },
        {
          "name": "quorum",
          "type": "uint256"
        },
        {
          "name": "required",
          "type": "uint256"
        },
        {
          "name": "yea",
          "type": "uint256"
        },
        {
          "name": "nay",
          "type": "uint256"
        },
        {
          "name": "participation",
          "type": "uint256"
        },
        {
          "name": "state",
          "type": "uint8"
        }
      ],
      "payable": false,
      "stateMutability": "view",
      "type": "function"
    },
    {
      "constant": true,
      "inputs": [
        {
          "name": "token",
          "type": "address"
        }
      ],
      "name": "allowRecoverability",
      "outputs": [
        {
          "name": "",
          "type": "bool"
        }
      ],
      "payable": false,
      "stateMutability": "view",
      "type": "function"
    },
    {
      "constant": true,
      "inputs": [],
      "name": "appId",
      "outputs": [
        {
          "name": "",
          "type": "bytes32"
        }
      ],
      "payable": false,
      "stateMutability": "view",
      "type": "function"
    },
    {
      "constant": true,
      "inputs": [
        {
          "name": "",
          "type": "address"
        },
        {
          "name": "",
          "type": "uint256"
        },
        {
          "name": "",
          "type": "address"
        }
      ],
      "name": "RFIVotesBallots",
      "outputs": [
        {
          "name": "",
          "type": "uint8"
        }
      ],
      "payable": false,
      "stateMutability": "view",
      "type": "function"
    },
    {
      "constant": true,
      "inputs": [],
      "name": "getInitializationBlock",
      "outputs": [
        {
          "name": "",
          "type": "uint256"
        }
      ],
      "payable": false,
      "stateMutability": "view",
      "type": "function"
    },
    {
      "constant": false,
      "inputs": [
        {
          "name": "_token",
          "type": "address"
        }
      ],
      "name": "transferToVault",
      "outputs": [],
      "payable": false,
      "stateMutability": "nonpayable",
      "type": "function"
    },
    {
      "constant": true,
      "inputs": [
        {
          "name": "_sender",
          "type": "address"
        },
        {
          "name": "_role",
          "type": "bytes32"
        },
        {
          "name": "_params",
          "type": "uint256[]"
        }
      ],
      "name": "canPerform",
      "outputs": [
        {
          "name": "",
          "type": "bool"
        }
      ],
      "payable": false,
      "stateMutability": "view",
      "type": "function"
    },
    {
      "constant": true,
      "inputs": [],
      "name": "getEVMScriptRegistry",
      "outputs": [
        {
          "name": "",
          "type": "address"
        }
      ],
      "payable": false,
      "stateMutability": "view",
      "type": "function"
    },
    {
      "constant": true,
      "inputs": [],
      "name": "kernel",
      "outputs": [
        {
          "name": "",
          "type": "address"
        }
      ],
      "payable": false,
      "stateMutability": "view",
      "type": "function"
    },
    {
      "constant": true,
      "inputs": [],
      "name": "required",
      "outputs": [
        {
          "name": "",
          "type": "uint256"
        }
      ],
      "payable": false,
      "stateMutability": "view",
      "type": "function"
    },
    {
      "constant": true,
      "inputs": [],
      "name": "isPetrified",
      "outputs": [
        {
          "name": "",
          "type": "bool"
        }
      ],
      "payable": false,
      "stateMutability": "view",
      "type": "function"
    },
    {
      "constant": true,
      "inputs": [],
      "name": "token",
      "outputs": [
        {
          "name": "",
          "type": "address"
        }
      ],
      "payable": false,
      "stateMutability": "view",
      "type": "function"
    },
    {
      "anonymous": false,
      "inputs": [
        {
          "indexed": false,
          "name": "organism",
          "type": "address"
        },
        {
          "indexed": false,
          "name": "id",
          "type": "uint256"
        }
      ],
      "name": "NewRFIVote",
      "type": "event"
    },
    {
      "anonymous": false,
      "inputs": [
        {
          "indexed": false,
          "name": "organism",
          "type": "address"
        },
        {
          "indexed": false,
          "name": "id",
          "type": "uint256"
        },
        {
          "indexed": false,
          "name": "voter",
          "type": "address"
        },
        {
          "indexed": false,
          "name": "supports",
          "type": "bool"
        },
        {
          "indexed": false,
          "name": "stake",
          "type": "uint256"
        }
      ],
      "name": "CastRFIVote",
      "type": "event"
    },
    {
      "anonymous": false,
      "inputs": [
        {
          "indexed": false,
          "name": "organism",
          "type": "address"
        },
        {
          "indexed": false,
          "name": "id",
          "type": "uint256"
        }
      ],
      "name": "CancelRFIVote",
      "type": "event"
    },
    {
      "anonymous": false,
      "inputs": [
        {
          "indexed": false,
          "name": "organism",
          "type": "address"
        },
        {
          "indexed": false,
          "name": "id",
          "type": "uint256"
        }
      ],
      "name": "ExecuteRFIVote",
      "type": "event"
    },
    {
      "anonymous": false,
      "inputs": [
        {
          "indexed": false,
          "name": "organism",
          "type": "address"
        },
        {
          "indexed": false,
          "name": "id",
          "type": "uint256"
        }
      ],
      "name": "NewRFLVote",
      "type": "event"
    },
    {
      "anonymous": false,
      "inputs": [
        {
          "indexed": false,
          "name": "organism",
          "type": "address"
        },
        {
          "indexed": false,
          "name": "id",
          "type": "uint256"
        },
        {
          "indexed": false,
          "name": "voter",
          "type": "address"
        },
        {
          "indexed": false,
          "name": "supports",
          "type": "bool"
        },
        {
          "indexed": false,
          "name": "value",
          "type": "uint256"
        },
        {
          "indexed": false,
          "name": "stake",
          "type": "uint256"
        }
      ],
      "name": "CastRFLVote",
      "type": "event"
    },
    {
      "anonymous": false,
      "inputs": [
        {
          "indexed": false,
          "name": "organism",
          "type": "address"
        },
        {
          "indexed": false,
          "name": "id",
          "type": "uint256"
        }
      ],
      "name": "CancelRFLVote",
      "type": "event"
    },
    {
      "anonymous": false,
      "inputs": [
        {
          "indexed": false,
          "name": "organism",
          "type": "address"
        },
        {
          "indexed": false,
          "name": "id",
          "type": "uint256"
        }
      ],
      "name": "ExecuteRFLVote",
      "type": "event"
    },
    {
      "anonymous": false,
      "inputs": [
        {
          "indexed": true,
          "name": "executor",
          "type": "address"
        },
        {
          "indexed": false,
          "name": "script",
          "type": "bytes"
        },
        {
          "indexed": false,
          "name": "input",
          "type": "bytes"
        },
        {
          "indexed": false,
          "name": "returnData",
          "type": "bytes"
        }
      ],
      "name": "ScriptResult",
      "type": "event"
    },
    {
      "anonymous": false,
      "inputs": [
        {
          "indexed": true,
          "name": "organism",
          "type": "address"
        },
        {
          "indexed": true,
          "name": "id",
          "type": "uint256"
        },
        {
          "indexed": false,
          "name": "sender",
          "type": "address"
        }
      ],
      "name": "CreateRFI",
      "type": "event"
    },
    {
      "anonymous": false,
      "inputs": [
        {
          "indexed": true,
          "name": "organism",
          "type": "address"
        },
        {
          "indexed": true,
          "name": "id",
          "type": "uint256"
        },
        {
          "indexed": false,
          "name": "sender",
          "type": "address"
        }
      ],
      "name": "MergeRFI",
      "type": "event"
    },
    {
      "anonymous": false,
      "inputs": [
        {
          "indexed": true,
          "name": "organism",
          "type": "address"
        },
        {
          "indexed": true,
          "name": "id",
          "type": "uint256"
        },
        {
          "indexed": false,
          "name": "sender",
          "type": "address"
        }
      ],
      "name": "RejectRFI",
      "type": "event"
    },
    {
      "anonymous": false,
      "inputs": [
        {
          "indexed": true,
          "name": "organism",
          "type": "address"
        },
        {
          "indexed": true,
          "name": "id",
          "type": "uint256"
        },
        {
          "indexed": false,
          "name": "sender",
          "type": "address"
        }
      ],
      "name": "CreateRFL",
      "type": "event"
    },
    {
      "anonymous": false,
      "inputs": [
        {
          "indexed": true,
          "name": "organism",
          "type": "address"
        },
        {
          "indexed": true,
          "name": "id",
          "type": "uint256"
        },
        {
          "indexed": false,
          "name": "value",
          "type": "uint256"
        },
        {
          "indexed": false,
          "name": "sender",
          "type": "address"
        }
      ],
      "name": "AcceptRFL",
      "type": "event"
    },
    {
      "anonymous": false,
      "inputs": [
        {
          "indexed": true,
          "name": "organism",
          "type": "address"
        },
        {
          "indexed": true,
          "name": "id",
          "type": "uint256"
        },
        {
          "indexed": false,
          "name": "sender",
          "type": "address"
        }
      ],
      "name": "RejectRFL",
      "type": "event"
    },
    {
      "constant": false,
      "inputs": [
        {
          "name": "_token",
          "type": "address"
        },
        {
          "name": "_quorum",
          "type": "uint256"
        },
        {
          "name": "_required",
          "type": "uint256"
        }
      ],
      "name": "initialize",
      "outputs": [],
      "payable": false,
      "stateMutability": "nonpayable",
      "type": "function"
    },
    {
      "constant": false,
      "inputs": [
        {
          "name": "_organism",
          "type": "address"
        },
        {
          "components": [
            {
              "name": "metadata",
              "type": "string"
            }
          ],
          "name": "_individuation",
          "type": "tuple"
        },
        {
          "components": [
            {
              "name": "destination",
              "type": "address"
            },
            {
              "name": "minimum",
              "type": "uint256"
            },
            {
              "name": "metadata",
              "type": "string"
            }
          ],
          "name": "_lineages",
          "type": "tuple[]"
        }
      ],
      "name": "createRFI",
      "outputs": [],
      "payable": false,
      "stateMutability": "nonpayable",
      "type": "function"
    },
    {
      "constant": false,
      "inputs": [
        {
          "name": "_organism",
          "type": "address"
        },
        {
          "name": "_RFIid",
          "type": "uint256"
        }
      ],
      "name": "mergeRFI",
      "outputs": [],
      "payable": false,
      "stateMutability": "nonpayable",
      "type": "function"
    },
    {
      "constant": false,
      "inputs": [
        {
          "name": "_organism",
          "type": "address"
        },
        {
          "name": "_RFIid",
          "type": "uint256"
        }
      ],
      "name": "rejectRFI",
      "outputs": [],
      "payable": false,
      "stateMutability": "nonpayable",
      "type": "function"
    },
    {
      "constant": false,
      "inputs": [
        {
          "name": "_organism",
          "type": "address"
        },
        {
          "name": "_RFLid",
          "type": "uint256"
        },
        {
          "name": "_value",
          "type": "uint256"
        }
      ],
      "name": "acceptRFL",
      "outputs": [],
      "payable": false,
      "stateMutability": "nonpayable",
      "type": "function"
    },
    {
      "constant": false,
      "inputs": [
        {
          "name": "_organism",
          "type": "address"
        },
        {
          "name": "_RFLid",
          "type": "uint256"
        }
      ],
      "name": "rejectRFL",
      "outputs": [],
      "payable": false,
      "stateMutability": "nonpayable",
      "type": "function"
    },
    {
      "constant": true,
      "inputs": [
        {
          "name": "_organism",
          "type": "address"
        },
        {
          "name": "_RFIid",
          "type": "uint256"
        }
      ],
      "name": "getRFIVote",
      "outputs": [
        {
          "components": [
            {
              "name": "RFIid",
              "type": "uint256"
            },
            {
              "name": "blockstamp",
              "type": "uint256"
            },
            {
              "name": "supply",
              "type": "uint256"
            },
            {
              "name": "quorum",
              "type": "uint256"
            },
            {
              "name": "required",
              "type": "uint256"
            },
            {
              "name": "yea",
              "type": "uint256"
            },
            {
              "name": "nay",
              "type": "uint256"
            },
            {
              "name": "participation",
              "type": "uint256"
            },
            {
              "name": "state",
              "type": "uint8"
            }
          ],
          "name": "",
          "type": "tuple"
        }
      ],
      "payable": false,
      "stateMutability": "view",
      "type": "function"
    },
    {
      "constant": true,
      "inputs": [
        {
          "name": "_organism",
          "type": "address"
        },
        {
          "name": "_RFLid",
          "type": "uint256"
        }
      ],
      "name": "getRFLVote",
      "outputs": [
        {
          "components": [
            {
              "name": "RFLid",
              "type": "uint256"
            },
            {
              "name": "blockstamp",
              "type": "uint256"
            },
            {
              "name": "supply",
              "type": "uint256"
            },
            {
              "name": "quorum",
              "type": "uint256"
            },
            {
              "name": "required",
              "type": "uint256"
            },
            {
              "name": "yea",
              "type": "uint256"
            },
            {
              "name": "nay",
              "type": "uint256"
            },
            {
              "name": "total",
              "type": "uint256"
            },
            {
              "name": "participation",
              "type": "uint256"
            },
            {
              "name": "state",
              "type": "uint8"
            }
          ],
          "name": "",
          "type": "tuple"
        }
      ],
      "payable": false,
      "stateMutability": "view",
      "type": "function"
    },
    {
      "constant": true,
      "inputs": [
        {
          "name": "_organism",
          "type": "address"
        },
        {
          "name": "_RFIid",
          "type": "uint256"
        }
      ],
      "name": "getRFIMetadata",
      "outputs": [
        {
          "name": "",
          "type": "string"
        }
      ],
      "payable": false,
      "stateMutability": "view",
      "type": "function"
    },
    {
      "constant": true,
      "inputs": [
        {
          "name": "_organism",
          "type": "address"
        },
        {
          "name": "_RFIid",
          "type": "uint256"
        },
        {
          "name": "_voter",
          "type": "address"
        }
      ],
      "name": "canVoteOnRFI",
      "outputs": [
        {
          "name": "",
          "type": "bool"
        }
      ],
      "payable": false,
      "stateMutability": "view",
      "type": "function"
    },
    {
      "constant": true,
      "inputs": [
        {
          "name": "_organism",
          "type": "address"
        },
        {
          "name": "_RFLid",
          "type": "uint256"
        },
        {
          "name": "_voter",
          "type": "address"
        }
      ],
      "name": "canVoteOnRFL",
      "outputs": [
        {
          "name": "",
          "type": "bool"
        }
      ],
      "payable": false,
      "stateMutability": "view",
      "type": "function"
    },
    {
      "constant": true,
      "inputs": [
        {
          "name": "_organism",
          "type": "address"
        },
        {
          "name": "_RFIid",
          "type": "uint256"
        }
      ],
      "name": "canExecuteRFIVote",
      "outputs": [
        {
          "name": "",
          "type": "bool"
        }
      ],
      "payable": false,
      "stateMutability": "view",
      "type": "function"
    },
    {
      "constant": true,
      "inputs": [
        {
          "name": "_organism",
          "type": "address"
        },
        {
          "name": "_RFLid",
          "type": "uint256"
        }
      ],
      "name": "canExecuteRFLVote",
      "outputs": [
        {
          "name": "",
          "type": "bool"
        }
      ],
      "payable": false,
      "stateMutability": "view",
      "type": "function"
    }
  ],
  "bytecode": "0x60806040526200001d62000023640100000000026401000000009004565b620002ef565b60006200003e620000f8640100000000026401000000009004565b146040805190810160405280601881526020017f494e49545f414c52454144595f494e495449414c495a45440000000000000000815250901515620000bb576040517f08c379a0000000000000000000000000000000000000000000000000000000008152600401620000b2919062000279565b60405180910390fd5b50620000f67fffffffffffffffffffffffffffffffffffffffffffffffffffffffffffffffff62000145640100000000026401000000009004565b565b6000620001407febb05b386a8d34882b8711d156f463690983dc47815980fb82aeeff1aa43579e600102600019166200022b64010000000002620027ea176401000000009004565b905090565b600062000160620000f8640100000000026401000000009004565b146040805190810160405280601881526020017f494e49545f414c52454144595f494e495449414c495a45440000000000000000815250901515620001dd576040517f08c379a0000000000000000000000000000000000000000000000000000000008152600401620001d4919062000279565b60405180910390fd5b5062000228817febb05b386a8d34882b8711d156f463690983dc47815980fb82aeeff1aa43579e600102600019166200023664010000000002620032ca179091906401000000009004565b50565b600081549050919050565b8082555050565b60006200024a826200029d565b80845262000260816020860160208601620002a8565b6200026b81620002de565b602085010191505092915050565b600060208201905081810360008301526200029581846200023d565b905092915050565b600081519050919050565b60005b83811015620002c8578082015181840152602081019050620002ab565b83811115620002d8576000848401525b50505050565b6000601f19601f8301169050919050565b615d6880620002ff6000396000f300608060405260043610610196576000357c0100000000000000000000000000000000000000000000000000000000900463ffffffff1680630803fac01461019b5780630e732bf2146101c657806312ddd3c11461020c5780631703a018146102495780631c633087146102745780632914b9bd146102b257806332f0a3b5146102ef5780633b2f7a5c1461031a5780634901f6bc14610357578063555985331461038257806357f887dd146103ab5780636e39432f146103d45780637a1ac61e146104195780637e7db6e11461044257806380afdea81461047f57806382116aff146104aa5780638a989dfa146104e75780638b3dd749146105245780638b68b6a21461054f5780639d4941d81461058c578063a1658fad146105b5578063a479e508146105f2578063ac6752311461061d578063bf32aed31461065a578063cf61ee3d14610697578063d49b10e5146106d4578063d4aae0c4146106fd578063dc8452cd14610728578063de4796ed14610753578063e26700b01461077e578063e70b68a5146107a7578063fc0c546a146107d0575b600080fd5b3480156101a757600080fd5b506101b06107fb565b6040516101bd91906154c2565b60405180910390f35b3480156101d257600080fd5b506101ed60048036036101e89190810190614b90565b610826565b6040516102039a99989796959493929190615958565b60405180910390f35b34801561021857600080fd5b50610233600480360361022e9190810190614d69565b610894565b60405161024091906154c2565b60405180910390f35b34801561025557600080fd5b5061025e610a93565b60405161026b919061585e565b60405180910390f35b34801561028057600080fd5b5061029b60048036036102969190810190614bcc565b610a99565b6040516102a99291906156c2565b60405180910390f35b3480156102be57600080fd5b506102d960048036036102d49190810190614c44565b610ae4565b6040516102e69190615543565b60405180910390f35b3480156102fb57600080fd5b50610304610b9b565b6040516103119190615432565b60405180910390f35b34801561032657600080fd5b50610341600480360361033c9190810190614d2d565b610c45565b60405161034e9190615826565b60405180910390f35b34801561036357600080fd5b5061036c610dcb565b60405161037991906154dd565b60405180910390f35b34801561038e57600080fd5b506103a960048036036103a49190810190614d2d565b610e04565b005b3480156103b757600080fd5b506103d260048036036103cd9190810190614cae565b610ee4565b005b3480156103e057600080fd5b506103fb60048036036103f69190810190614b90565b610f76565b604051610410999897969594939291906158cb565b60405180910390f35b34801561042557600080fd5b50610440600480360361043b9190810190614e07565b610fde565b005b34801561044e57600080fd5b5061046960048036036104649190810190614ad7565b611110565b60405161047691906154c2565b60405180910390f35b34801561048b57600080fd5b5061049461111b565b6040516104a191906154dd565b60405180910390f35b3480156104b657600080fd5b506104d160048036036104cc9190810190614d2d565b611152565b6040516104de9190615842565b60405180910390f35b3480156104f357600080fd5b5061050e60048036036105099190810190614bcc565b6112e2565b60405161051b91906156a7565b60405180910390f35b34801561053057600080fd5b5061053961131e565b604051610546919061585e565b60405180910390f35b34801561055b57600080fd5b5061057660048036036105719190810190614d69565b611355565b60405161058391906154c2565b60405180910390f35b34801561059857600080fd5b506105b360048036036105ae9190810190614ad7565b611554565b005b3480156105c157600080fd5b506105dc60048036036105d79190810190614b29565b611858565b6040516105e991906154c2565b60405180910390f35b3480156105fe57600080fd5b50610607611985565b604051610614919061555e565b60405180910390f35b34801561062957600080fd5b50610644600480360361063f9190810190614d2d565b611a87565b604051610651919061570d565b60405180910390f35b34801561066657600080fd5b50610681600480360361067c9190810190614d2d565b611be1565b60405161068e91906154c2565b60405180910390f35b3480156106a357600080fd5b506106be60048036036106b99190810190614d2d565b611d32565b6040516106cb91906154c2565b60405180910390f35b3480156106e057600080fd5b506106fb60048036036106f69190810190614d2d565b612071565b005b34801561070957600080fd5b50610712612151565b60405161071f9190615579565b60405180910390f35b34801561073457600080fd5b5061073d612188565b60405161074a919061585e565b60405180910390f35b34801561075f57600080fd5b5061076861218e565b60405161077591906154c2565b60405180910390f35b34801561078a57600080fd5b506107a560048036036107a09190810190614d2d565b6121bf565b005b3480156107b357600080fd5b506107ce60048036036107c99190810190614db8565b61229f565b005b3480156107dc57600080fd5b506107e561247f565b6040516107f29190615671565b60405180910390f35b60008061080661131e565b90506000811415801561082057508061081d6124a4565b10155b91505090565b6004602052816000526040600020602052806000526040600020600091509150508060000154908060010154908060020154908060030154908060040154908060050154908060060154908060070154908060080154908060090160009054906101000a900460ff1690508a565b60008084846000600460008473ffffffffffffffffffffffffffffffffffffffff1673ffffffffffffffffffffffffffffffffffffffff168152602001908152602001600020600083815260200190815260200160002060000154111515610931576040517f08c379a00000000000000000000000000000000000000000000000000000000081526004016109289061578f565b60405180910390fd5b600460008873ffffffffffffffffffffffffffffffffffffffff1673ffffffffffffffffffffffffffffffffffffffff168152602001908152602001600020600087815260200190815260200160002092506000600281111561099057fe5b8360090160009054906101000a900460ff1660028111156109ad57fe5b148015610a87575060008060009054906101000a900473ffffffffffffffffffffffffffffffffffffffff1673ffffffffffffffffffffffffffffffffffffffff16634ee2cd7e8786600101546040518363ffffffff167c0100000000000000000000000000000000000000000000000000000000028152600401610a33929190615499565b602060405180830381600087803b158015610a4d57600080fd5b505af1158015610a61573d6000803e3d6000fd5b505050506040513d601f19601f82011682018060405250610a859190810190614ed8565b115b93505050509392505050565b60025481565b600660205282600052604060002060205281600052604060002060205280600052604060002060009250925050508060000160009054906101000a900460ff16908060010154905082565b6000610aee611985565b73ffffffffffffffffffffffffffffffffffffffff166304bf2a7f836040518263ffffffff167c0100000000000000000000000000000000000000000000000000000000028152600401610b429190615521565b602060405180830381600087803b158015610b5c57600080fd5b505af1158015610b70573d6000803e3d6000fd5b505050506040513d601f19601f82011682018060405250610b949190810190614c85565b9050919050565b6000610ba5612151565b73ffffffffffffffffffffffffffffffffffffffff166332f0a3b56040518163ffffffff167c0100000000000000000000000000000000000000000000000000000000028152600401602060405180830381600087803b158015610c0857600080fd5b505af1158015610c1c573d6000803e3d6000fd5b505050506040513d601f19601f82011682018060405250610c409190810190614b00565b905090565b610c4d614327565b82826000600360008473ffffffffffffffffffffffffffffffffffffffff1673ffffffffffffffffffffffffffffffffffffffff168152602001908152602001600020600083815260200190815260200160002060000154111515610ce7576040517f08c379a0000000000000000000000000000000000000000000000000000000008152600401610cde906157af565b60405180910390fd5b600360008673ffffffffffffffffffffffffffffffffffffffff1673ffffffffffffffffffffffffffffffffffffffff1681526020019081526020016000206000858152602001908152602001600020610120604051908101604052908160008201548152602001600182015481526020016002820154815260200160038201548152602001600482015481526020016005820154815260200160068201548152602001600782015481526020016008820160009054906101000a900460ff166002811115610db257fe5b6002811115610dbd57fe5b815250509250505092915050565b60405180807f5550444154455f504152414d45544552535f524f4c45000000000000000000008152506016019050604051809103902081565b610e0c6107fb565b6040805190810160405280601481526020017f494e49545f4e4f545f494e495449414c495a4544000000000000000000000000815250901515610e85576040517f08c379a0000000000000000000000000000000000000000000000000000000008152600401610e7c91906156eb565b60405180910390fd5b508181610e93828233610894565b1515610ed4576040517f08c379a0000000000000000000000000000000000000000000000000000000008152600401610ecb9061572f565b60405180910390fd5b610ede84846124ac565b50505050565b610eec6107fb565b6040805190810160405280601481526020017f494e49545f4e4f545f494e495449414c495a4544000000000000000000000000815250901515610f65576040517f08c379a0000000000000000000000000000000000000000000000000000000008152600401610f5c91906156eb565b60405180910390fd5b50610f7183838361250d565b505050565b6003602052816000526040600020602052806000526040600020600091509150508060000154908060010154908060020154908060030154908060040154908060050154908060060154908060070154908060080160009054906101000a900460ff16905089565b6000610fe861131e565b146040805190810160405280601881526020017f494e49545f414c52454144595f494e495449414c495a45440000000000000000815250901515611062576040517f08c379a000000000000000000000000000000000000000000000000000000000815260040161105991906156eb565b60405180910390fd5b50606482111580156110745750818111155b15156110b5576040517f08c379a00000000000000000000000000000000000000000000000000000000081526004016110ac9061576f565b60405180910390fd5b6110bd612717565b826000806101000a81548173ffffffffffffffffffffffffffffffffffffffff021916908373ffffffffffffffffffffffffffffffffffffffff1602179055508160028190555080600181905550505050565b600060019050919050565b600061114d7fd625496217aa6a3453eecb9c3489dc5a53e6c67b444329ea2b2cbc9ff547639b600102600019166127df565b905090565b61115a61437f565b82826000600460008473ffffffffffffffffffffffffffffffffffffffff1673ffffffffffffffffffffffffffffffffffffffff1681526020019081526020016000206000838152602001908152602001600020600001541115156111f4576040517f08c379a00000000000000000000000000000000000000000000000000000000081526004016111eb9061578f565b60405180910390fd5b600460008673ffffffffffffffffffffffffffffffffffffffff1673ffffffffffffffffffffffffffffffffffffffff168152602001908152602001600020600085815260200190815260200160002061014060405190810160405290816000820154815260200160018201548152602001600282015481526020016003820154815260200160048201548152602001600582015481526020016006820154815260200160078201548152602001600882015481526020016009820160009054906101000a900460ff1660028111156112c957fe5b60028111156112d457fe5b815250509250505092915050565b6005602052826000526040600020602052816000526040600020602052806000526040600020600092509250509054906101000a900460ff1681565b60006113507febb05b386a8d34882b8711d156f463690983dc47815980fb82aeeff1aa43579e600102600019166127ea565b905090565b60008084846000600360008473ffffffffffffffffffffffffffffffffffffffff1673ffffffffffffffffffffffffffffffffffffffff1681526020019081526020016000206000838152602001908152602001600020600001541115156113f2576040517f08c379a00000000000000000000000000000000000000000000000000000000081526004016113e9906157af565b60405180910390fd5b600360008873ffffffffffffffffffffffffffffffffffffffff1673ffffffffffffffffffffffffffffffffffffffff168152602001908152602001600020600087815260200190815260200160002092506000600281111561145157fe5b8360080160009054906101000a900460ff16600281111561146e57fe5b148015611548575060008060009054906101000a900473ffffffffffffffffffffffffffffffffffffffff1673ffffffffffffffffffffffffffffffffffffffff16634ee2cd7e8786600101546040518363ffffffff167c01000000000000000000000000000000000000000000000000000000000281526004016114f4929190615499565b602060405180830381600087803b15801561150e57600080fd5b505af1158015611522573d6000803e3d6000fd5b505050506040513d601f19601f820116820180604052506115469190810190614ed8565b115b93505050509392505050565b60008061156083611110565b6040805190810160405280601281526020017f5245434f5645525f444953414c4c4f57454400000000000000000000000000008152509015156115d9576040517f08c379a00000000000000000000000000000000000000000000000000000000081526004016115d091906156eb565b60405180910390fd5b506115e2610b9b565b91506115ed826127f5565b6040805190810160405280601a81526020017f5245434f5645525f5641554c545f4e4f545f434f4e5452414354000000000000815250901515611666576040517f08c379a000000000000000000000000000000000000000000000000000000000815260040161165d91906156eb565b60405180910390fd5b50600073ffffffffffffffffffffffffffffffffffffffff168373ffffffffffffffffffffffffffffffffffffffff1614156116ff578173ffffffffffffffffffffffffffffffffffffffff166108fc3073ffffffffffffffffffffffffffffffffffffffff16319081150290604051600060405180830381858888f193505050501580156116f9573d6000803e3d6000fd5b50611853565b8273ffffffffffffffffffffffffffffffffffffffff166370a08231306040518263ffffffff167c0100000000000000000000000000000000000000000000000000000000028152600401611754919061568c565b602060405180830381600087803b15801561176e57600080fd5b505af1158015611782573d6000803e3d6000fd5b505050506040513d601f19601f820116820180604052506117a69190810190614ed8565b90508273ffffffffffffffffffffffffffffffffffffffff1663a9059cbb83836040518363ffffffff167c01000000000000000000000000000000000000000000000000000000000281526004016117ff929190615499565b602060405180830381600087803b15801561181957600080fd5b505af115801561182d573d6000803e3d6000fd5b505050506040513d601f19601f820116820180604052506118519190810190614c1b565b505b505050565b600080606060006118676107fb565b1515611876576000935061197b565b61187e612151565b9250600073ffffffffffffffffffffffffffffffffffffffff168373ffffffffffffffffffffffffffffffffffffffff1614156118be576000935061197b565b602085510290508491508082528273ffffffffffffffffffffffffffffffffffffffff1663fdef9106883089866040518563ffffffff167c0100000000000000000000000000000000000000000000000000000000028152600401611926949392919061544d565b602060405180830381600087803b15801561194057600080fd5b505af1158015611954573d6000803e3d6000fd5b505050506040513d601f19601f820116820180604052506119789190810190614c1b565b93505b5050509392505050565b600080611990612151565b73ffffffffffffffffffffffffffffffffffffffff1663be00bbd87fd6f028ca0e8edb4a8c9757ca4fdccab25fa1e0317da1188108f7d2dee14902fb6001027fddbcfd564f642ab5627cf68b9b7d374fb4f8a36e941a75d89c87998cef03bd616001026040518363ffffffff167c0100000000000000000000000000000000000000000000000000000000028152600401611a2c9291906154f8565b602060405180830381600087803b158015611a4657600080fd5b505af1158015611a5a573d6000803e3d6000fd5b505050506040513d601f19601f82011682018060405250611a7e9190810190614b00565b90508091505090565b606082826000600360008473ffffffffffffffffffffffffffffffffffffffff1673ffffffffffffffffffffffffffffffffffffffff168152602001908152602001600020600083815260200190815260200160002060000154111515611b23576040517f08c379a0000000000000000000000000000000000000000000000000000000008152600401611b1a906157af565b60405180910390fd5b8473ffffffffffffffffffffffffffffffffffffffff1663fec7d70b856040518263ffffffff167c0100000000000000000000000000000000000000000000000000000000028152600401611b78919061585e565b600060405180830381600087803b158015611b9257600080fd5b505af1158015611ba6573d6000803e3d6000fd5b505050506040513d6000823e3d601f19601f82011682018060405250611bcf9190810190614e56565b60000151600001519250505092915050565b60008083836000600460008473ffffffffffffffffffffffffffffffffffffffff1673ffffffffffffffffffffffffffffffffffffffff168152602001908152602001600020600083815260200190815260200160002060000154111515611c7e576040517f08c379a0000000000000000000000000000000000000000000000000000000008152600401611c759061578f565b60405180910390fd5b600460008773ffffffffffffffffffffffffffffffffffffffff1673ffffffffffffffffffffffffffffffffffffffff1681526020019081526020016000206000868152602001908152602001600020925060006002811115611cdd57fe5b8360090160009054906101000a900460ff166002811115611cfa57fe5b141515611d0a5760009350611d29565b82600301548360080154101515611d245760019350611d29565b600093505b50505092915050565b600080611d3d6143de565b6000611d47614418565b86866000600360008473ffffffffffffffffffffffffffffffffffffffff1673ffffffffffffffffffffffffffffffffffffffff168152602001908152602001600020600083815260200190815260200160002060000154111515611de1576040517f08c379a0000000000000000000000000000000000000000000000000000000008152600401611dd8906157af565b60405180910390fd5b600360008a73ffffffffffffffffffffffffffffffffffffffff1673ffffffffffffffffffffffffffffffffffffffff168152602001908152602001600020600089815260200190815260200160002095508873ffffffffffffffffffffffffffffffffffffffff1663fec7d70b87600001546040518263ffffffff167c0100000000000000000000000000000000000000000000000000000000028152600401611e8c919061585e565b600060405180830381600087803b158015611ea657600080fd5b505af1158015611eba573d6000803e3d6000fd5b505050506040513d6000823e3d601f19601f82011682018060405250611ee39190810190614e56565b945060006002811115611ef257fe5b8660080160009054906101000a900460ff166002811115611f0f57fe5b141515611f1f5760009650612065565b85600301548660070154101515612060578560040154866005015410151561205757600093505b846060015151841015612056578873ffffffffffffffffffffffffffffffffffffffff1663889bd35d866060015186815181101515611f8157fe5b906020019060200201516040518263ffffffff167c0100000000000000000000000000000000000000000000000000000000028152600401611fc3919061585e565b600060405180830381600087803b158015611fdd57600080fd5b505af1158015611ff1573d6000803e3d6000fd5b505050506040513d6000823e3d601f19601f8201168201806040525061201a9190810190614e97565b92506001600481111561202957fe5b8360600151600481111561203957fe5b1415156120495760009650612065565b8380600101945050611f46565b5b60019650612065565b600096505b50505050505092915050565b6120796107fb565b6040805190810160405280601481526020017f494e49545f4e4f545f494e495449414c495a45440000000000000000000000008152509015156120f2576040517f08c379a00000000000000000000000000000000000000000000000000000000081526004016120e991906156eb565b60405180910390fd5b508181612100828233611355565b1515612141576040517f08c379a0000000000000000000000000000000000000000000000000000000008152600401612138906157cf565b60405180910390fd5b61214b8484612847565b50505050565b60006121837f4172f0f7d2289153072b0a6ca36959e0cbe2efc3afe50fc81636caa96338137b600102600019166128a7565b905090565b60015481565b60007fffffffffffffffffffffffffffffffffffffffffffffffffffffffffffffffff6121b961131e565b14905090565b6121c76107fb565b6040805190810160405280601481526020017f494e49545f4e4f545f494e495449414c495a4544000000000000000000000000815250901515612240576040517f08c379a000000000000000000000000000000000000000000000000000000000815260040161223791906156eb565b60405180910390fd5b50818161224e828233611355565b151561228f576040517f08c379a0000000000000000000000000000000000000000000000000000000008152600401612286906157cf565b60405180910390fd5b61229984846128b2565b50505050565b6122a76107fb565b6040805190810160405280601481526020017f494e49545f4e4f545f494e495449414c495a4544000000000000000000000000815250901515612320576040517f08c379a000000000000000000000000000000000000000000000000000000000815260040161231791906156eb565b60405180910390fd5b50828261232e828233610894565b151561236f576040517f08c379a00000000000000000000000000000000000000000000000000000000081526004016123669061572f565b60405180910390fd5b8484848273ffffffffffffffffffffffffffffffffffffffff1663889bd35d836040518263ffffffff167c01000000000000000000000000000000000000000000000000000000000281526004016123c7919061585e565b600060405180830381600087803b1580156123e157600080fd5b505af11580156123f5573d6000803e3d6000fd5b505050506040513d6000823e3d601f19601f8201168201806040525061241e9190810190614e97565b6000015160200151811015151561246a576040517f08c379a00000000000000000000000000000000000000000000000000000000081526004016124619061574f565b60405180910390fd5b612475888888612912565b5050505050505050565b6000809054906101000a900473ffffffffffffffffffffffffffffffffffffffff1681565b600043905090565b6124ba828260008033612976565b808273ffffffffffffffffffffffffffffffffffffffff167f21b055818c289a0776966d1f4b862b9f71d742681cc90611b5b08dd04f931b87336040516125019190615432565b60405180910390a35050565b60006125176143de565b60008573ffffffffffffffffffffffffffffffffffffffff166331f7009686866040518363ffffffff167c01000000000000000000000000000000000000000000000000000000000281526004016125709291906157ef565b602060405180830381600087803b15801561258a57600080fd5b505af115801561259e573d6000803e3d6000fd5b505050506040513d601f19601f820116820180604052506125c29190810190614ed8565b92508573ffffffffffffffffffffffffffffffffffffffff1663fec7d70b846040518263ffffffff167c0100000000000000000000000000000000000000000000000000000000028152600401612619919061585e565b600060405180830381600087803b15801561263357600080fd5b505af1158015612647573d6000803e3d6000fd5b505050506040513d6000823e3d601f19601f820116820180604052506126709190810190614e56565b9150600090505b8160600151518110156126b6576126a98683606001518381518110151561269a57fe5b90602001906020020151612e54565b8080600101915050612677565b6126c08684613085565b828673ffffffffffffffffffffffffffffffffffffffff167f7fa5d1ac92146f74ddbebc254679a8e41cda6b732d19aa71b819018f48f0313d336040516127079190615432565b60405180910390a3505050505050565b600061272161131e565b146040805190810160405280601881526020017f494e49545f414c52454144595f494e495449414c495a4544000000000000000081525090151561279b576040517f08c379a000000000000000000000000000000000000000000000000000000000815260040161279291906156eb565b60405180910390fd5b506127dd6127a76124a4565b7febb05b386a8d34882b8711d156f463690983dc47815980fb82aeeff1aa43579e600102600019166132ca90919063ffffffff16565b565b600081549050919050565b600081549050919050565b600080600073ffffffffffffffffffffffffffffffffffffffff168373ffffffffffffffffffffffffffffffffffffffff1614156128365760009150612841565b823b90506000811191505b50919050565b61285482826000336132d1565b808273ffffffffffffffffffffffffffffffffffffffff167f765f3d8e266a9fa3317b8fcdbe47e2ee878db83230fe389d4bc83c72adc3b39f3360405161289b9190615432565b60405180910390a35050565b600081549050919050565b6128bf82826001336132d1565b808273ffffffffffffffffffffffffffffffffffffffff167fad6ee225281f20a74c5e6e7947529076ca2b4639c983cc0539d57bfeda0afcc2336040516129069190615432565b60405180910390a35050565b612920838360018433612976565b818373ffffffffffffffffffffffffffffffffffffffff167f30c734dd2fc051e35d9c49d0950fe6fd43e42658c2397d489d4629cf029c2fd48333604051612969929190615879565b60405180910390a3505050565b6000806000600460008973ffffffffffffffffffffffffffffffffffffffff1673ffffffffffffffffffffffffffffffffffffffff168152602001908152602001600020600088815260200190815260200160002092506000809054906101000a900473ffffffffffffffffffffffffffffffffffffffff1673ffffffffffffffffffffffffffffffffffffffff16634ee2cd7e8585600101546040518363ffffffff167c0100000000000000000000000000000000000000000000000000000000028152600401612a49929190615499565b602060405180830381600087803b158015612a6357600080fd5b505af1158015612a77573d6000803e3d6000fd5b505050506040513d601f19601f82011682018060405250612a9b9190810190614ed8565b9150600660008973ffffffffffffffffffffffffffffffffffffffff1673ffffffffffffffffffffffffffffffffffffffff168152602001908152602001600020600088815260200190815260200160002060008573ffffffffffffffffffffffffffffffffffffffff1673ffffffffffffffffffffffffffffffffffffffff168152602001908152602001600020905060006002811115612b3957fe5b8160000160009054906101000a900460ff166002811115612b5657fe5b141515612b7d57612b7482846008015461382690919063ffffffff16565b83600801819055505b60016002811115612b8a57fe5b8160000160009054906101000a900460ff166002811115612ba757fe5b1415612c0657612bc482846005015461382690919063ffffffff16565b8360050181905550612bf9612be68260010154846138b690919063ffffffff16565b846007015461382690919063ffffffff16565b8360070181905550612c56565b600280811115612c1257fe5b8160000160009054906101000a900460ff166002811115612c2f57fe5b1415612c5557612c4c82846006015461382690919063ffffffff16565b83600601819055505b5b8515612d3157612c7382846005015461396390919063ffffffff16565b8360050181905550612ca4612c9186846138b690919063ffffffff16565b846007015461396390919063ffffffff16565b836007018190555060018160000160006101000a81548160ff02191690836002811115612ccd57fe5b0217905550848160010181905550868873ffffffffffffffffffffffffffffffffffffffff167f30c734dd2fc051e35d9c49d0950fe6fd43e42658c2397d489d4629cf029c2fd48787604051612d24929190615879565b60405180910390a3612dd0565b612d4882846006015461396390919063ffffffff16565b836006018190555060028160000160006101000a81548160ff02191690836002811115612d7157fe5b021790555060008160010181905550868873ffffffffffffffffffffffffffffffffffffffff167f21b055818c289a0776966d1f4b862b9f71d742681cc90611b5b08dd04f931b8786604051612dc79190615432565b60405180910390a35b612de782846008015461396390919063ffffffff16565b83600801819055507f67f31659f141f0c2f72116eb452e307316e88a210cd462934e5215c762d0fa7c888886898987604051612e2896959493929190615610565b60405180910390a1612e3a8888611be1565b15612e4a57612e4988886139f3565b5b5050505050505050565b6000600460008473ffffffffffffffffffffffffffffffffffffffff1673ffffffffffffffffffffffffffffffffffffffff168152602001908152602001600020600083815260200190815260200160002090508181600001819055506001430381600101819055506000809054906101000a900473ffffffffffffffffffffffffffffffffffffffff1673ffffffffffffffffffffffffffffffffffffffff1663981b24d082600101546040518263ffffffff167c0100000000000000000000000000000000000000000000000000000000028152600401612f37919061585e565b602060405180830381600087803b158015612f5157600080fd5b505af1158015612f65573d6000803e3d6000fd5b505050506040513d601f19601f82011682018060405250612f899190810190614ed8565b8160020181905550612fbd6064612faf83600201546002546138b690919063ffffffff16565b613ca590919063ffffffff16565b8160030181905550612ff16064612fe383600201546001546138b690919063ffffffff16565b613ca590919063ffffffff16565b81600401819055506000816005018190555060008160060181905550600081600701819055506000816008018190555060008160090160006101000a81548160ff0219169083600281111561304257fe5b02179055507fc80dfb75ae81bddc2353e7829374e3cdd75c0b514ebea75b04ebd43557d938508383604051613078929190615594565b60405180910390a1505050565b6000600360008473ffffffffffffffffffffffffffffffffffffffff1673ffffffffffffffffffffffffffffffffffffffff168152602001908152602001600020600083815260200190815260200160002090508181600001819055506001430381600101819055506000809054906101000a900473ffffffffffffffffffffffffffffffffffffffff1673ffffffffffffffffffffffffffffffffffffffff1663981b24d082600101546040518263ffffffff167c0100000000000000000000000000000000000000000000000000000000028152600401613168919061585e565b602060405180830381600087803b15801561318257600080fd5b505af1158015613196573d6000803e3d6000fd5b505050506040513d601f19601f820116820180604052506131ba9190810190614ed8565b81600201819055506131ee60646131e083600201546002546138b690919063ffffffff16565b613ca590919063ffffffff16565b8160030181905550613222606461321483600201546001546138b690919063ffffffff16565b613ca590919063ffffffff16565b816004018190555060008160050181905550600081600601819055506000816007018190555060008160080160006101000a81548160ff0219169083600281111561326957fe5b02179055507f459c0186854b229ea01639896d9758052452d4d6fe7a865172ff28c621b912cb838360405161329f929190615594565b60405180910390a16132b2838333611355565b156132c5576132c483836001336132d1565b5b505050565b8082555050565b6000806000600360008873ffffffffffffffffffffffffffffffffffffffff1673ffffffffffffffffffffffffffffffffffffffff168152602001908152602001600020600087815260200190815260200160002092506000809054906101000a900473ffffffffffffffffffffffffffffffffffffffff1673ffffffffffffffffffffffffffffffffffffffff16634ee2cd7e8585600101546040518363ffffffff167c01000000000000000000000000000000000000000000000000000000000281526004016133a4929190615499565b602060405180830381600087803b1580156133be57600080fd5b505af11580156133d2573d6000803e3d6000fd5b505050506040513d601f19601f820116820180604052506133f69190810190614ed8565b9150600560008873ffffffffffffffffffffffffffffffffffffffff1673ffffffffffffffffffffffffffffffffffffffff168152602001908152602001600020600087815260200190815260200160002060008573ffffffffffffffffffffffffffffffffffffffff1673ffffffffffffffffffffffffffffffffffffffff16815260200190815260200160002060009054906101000a900460ff169050600060028111156134a257fe5b8160028111156134ae57fe5b1415156134d5576134cc82846007015461382690919063ffffffff16565b83600701819055505b600160028111156134e257fe5b8160028111156134ee57fe5b14156135185761350b82846005015461382690919063ffffffff16565b8360050181905550613557565b60028081111561352457fe5b81600281111561353057fe5b14156135565761354d82846006015461382690919063ffffffff16565b83600601819055505b5b84156136835761357482846005015461396390919063ffffffff16565b83600501819055506001600560008973ffffffffffffffffffffffffffffffffffffffff1673ffffffffffffffffffffffffffffffffffffffff168152602001908152602001600020600088815260200190815260200160002060008673ffffffffffffffffffffffffffffffffffffffff1673ffffffffffffffffffffffffffffffffffffffff16815260200190815260200160002060006101000a81548160ff0219169083600281111561362657fe5b021790555082600001548773ffffffffffffffffffffffffffffffffffffffff167fad6ee225281f20a74c5e6e7947529076ca2b4639c983cc0539d57bfeda0afcc2866040516136769190615432565b60405180910390a36137a5565b61369a82846006015461396390919063ffffffff16565b83600601819055506002600560008973ffffffffffffffffffffffffffffffffffffffff1673ffffffffffffffffffffffffffffffffffffffff168152602001908152602001600020600088815260200190815260200160002060008673ffffffffffffffffffffffffffffffffffffffff1673ffffffffffffffffffffffffffffffffffffffff16815260200190815260200160002060006101000a81548160ff0219169083600281111561374c57fe5b021790555082600001548773ffffffffffffffffffffffffffffffffffffffff167f765f3d8e266a9fa3317b8fcdbe47e2ee878db83230fe389d4bc83c72adc3b39f8660405161379c9190615432565b60405180910390a35b6137bc82846007015461396390919063ffffffff16565b83600701819055507ffc7e41801886fcb2f2ed05ea98f973fefd40c265b70ae68ef54e897c07e6a48587878688866040516137fb9594939291906155bd565b60405180910390a161380d8787611d32565b1561381d5761381c8787613d3e565b5b50505050505050565b600080838311156040805190810160405280601281526020017f4d4154485f5355425f554e444552464c4f5700000000000000000000000000008152509015156138a6576040517f08c379a000000000000000000000000000000000000000000000000000000000815260040161389d91906156eb565b60405180910390fd5b5082840390508091505092915050565b60008060008414156138cb576000915061395c565b82840290508284828115156138dc57fe5b04146040805190810160405280601181526020017f4d4154485f4d554c5f4f564552464c4f57000000000000000000000000000000815250901515613957576040517f08c379a000000000000000000000000000000000000000000000000000000000815260040161394e91906156eb565b60405180910390fd5b508091505b5092915050565b6000808284019050838110156040805190810160405280601181526020017f4d4154485f4144445f4f564552464c4f570000000000000000000000000000008152509015156139e8576040517f08c379a00000000000000000000000000000000000000000000000000000000081526004016139df91906156eb565b60405180910390fd5b508091505092915050565b6000600460008473ffffffffffffffffffffffffffffffffffffffff1673ffffffffffffffffffffffffffffffffffffffff1681526020019081526020016000206000838152602001908152602001600020905060018160090160006101000a81548160ff02191690836002811115613a6857fe5b021790555080600401548160050154101515613b26578273ffffffffffffffffffffffffffffffffffffffff16636d5f5ca783613ab684600501548560070154613ca590919063ffffffff16565b6040518363ffffffff167c0100000000000000000000000000000000000000000000000000000000028152600401613aef9291906158a2565b600060405180830381600087803b158015613b0957600080fd5b505af1158015613b1d573d6000803e3d6000fd5b50505050613c67565b613bdf838473ffffffffffffffffffffffffffffffffffffffff1663889bd35d856040518263ffffffff167c0100000000000000000000000000000000000000000000000000000000028152600401613b7f919061585e565b600060405180830381600087803b158015613b9957600080fd5b505af1158015613bad573d6000803e3d6000fd5b505050506040513d6000823e3d601f19601f82011682018060405250613bd69190810190614e97565b6080015161401d565b8273ffffffffffffffffffffffffffffffffffffffff16636e0b314c836040518263ffffffff167c0100000000000000000000000000000000000000000000000000000000028152600401613c34919061585e565b600060405180830381600087803b158015613c4e57600080fd5b505af1158015613c62573d6000803e3d6000fd5b505050505b7f7a62334ca907cda9edac6f0e64f13251c06a45b9bca0cb82817346d4dd730f6a8383604051613c98929190615594565b60405180910390a1505050565b600080600083116040805190810160405280600d81526020017f4d4154485f4449565f5a45524f00000000000000000000000000000000000000815250901515613d25576040517f08c379a0000000000000000000000000000000000000000000000000000000008152600401613d1c91906156eb565b60405180910390fd5b508284811515613d3157fe5b0490508091505092915050565b6000613d486143de565b6000600360008673ffffffffffffffffffffffffffffffffffffffff1673ffffffffffffffffffffffffffffffffffffffff1681526020019081526020016000206000858152602001908152602001600020925082600401548360050154101515613e39578473ffffffffffffffffffffffffffffffffffffffff1663ddf6fa9c856040518263ffffffff167c0100000000000000000000000000000000000000000000000000000000028152600401613e02919061585e565b600060405180830381600087803b158015613e1c57600080fd5b505af1158015613e30573d6000803e3d6000fd5b50505050613fb7565b8473ffffffffffffffffffffffffffffffffffffffff1663fec7d70b856040518263ffffffff167c0100000000000000000000000000000000000000000000000000000000028152600401613e8e919061585e565b600060405180830381600087803b158015613ea857600080fd5b505af1158015613ebc573d6000803e3d6000fd5b505050506040513d6000823e3d601f19601f82011682018060405250613ee59190810190614e56565b9150600090505b816060015151811015613f2b57613f1e85836060015183815181101515613f0f57fe5b9060200190602002015161426f565b8080600101915050613eec565b8473ffffffffffffffffffffffffffffffffffffffff1663748b052c84600001546040518263ffffffff167c0100000000000000000000000000000000000000000000000000000000028152600401613f84919061585e565b600060405180830381600087803b158015613f9e57600080fd5b505af1158015613fb2573d6000803e3d6000fd5b505050505b60018360080160006101000a81548160ff02191690836002811115613fd857fe5b02179055507ff9e893896160019f494e6a908a16f04628a4a8a152ca59b6abea9ba8b14e4b6c858560405161400e929190615594565b60405180910390a15050505050565b60006140276143de565b6000600360008673ffffffffffffffffffffffffffffffffffffffff1673ffffffffffffffffffffffffffffffffffffffff168152602001908152602001600020600085815260200190815260200160002092508473ffffffffffffffffffffffffffffffffffffffff1663fec7d70b856040518263ffffffff167c01000000000000000000000000000000000000000000000000000000000281526004016140d0919061585e565b600060405180830381600087803b1580156140ea57600080fd5b505af11580156140fe573d6000803e3d6000fd5b505050506040513d6000823e3d601f19601f820116820180604052506141279190810190614e56565b915060028360080160006101000a81548160ff0219169083600281111561414a57fe5b0217905550600090505b81606001515181101561422f576001600281111561416e57fe5b600460008773ffffffffffffffffffffffffffffffffffffffff1673ffffffffffffffffffffffffffffffffffffffff16815260200190815260200160002060008460600151848151811015156141c157fe5b90602001906020020151815260200190815260200160002060090160009054906101000a900460ff1660028111156141f557fe5b141515614222576142218583606001518381518110151561421257fe5b9060200190602002015161426f565b5b8080600101915050614154565b7f430ff3f9c6554faf1a1b8c7cbf1bf5c479c8eb64538239f8991be60a3bc15e0f8585604051614260929190615594565b60405180910390a15050505050565b6000600460008473ffffffffffffffffffffffffffffffffffffffff1673ffffffffffffffffffffffffffffffffffffffff1681526020019081526020016000206000838152602001908152602001600020905060028160090160006101000a81548160ff021916908360028111156142e457fe5b02179055507f8c6d65bc51d03af5d344851f84b2f3d571456b100242ab79f91a1dae16964acf838360405161431a929190615594565b60405180910390a1505050565b6101206040519081016040528060008152602001600081526020016000815260200160008152602001600081526020016000815260200160008152602001600081526020016000600281111561437957fe5b81525090565b61014060405190810160405280600081526020016000815260200160008152602001600081526020016000815260200160008152602001600081526020016000815260200160008152602001600060028111156143d857fe5b81525090565b6080604051908101604052806143f2614459565b8152602001600081526020016000600381111561440b57fe5b8152602001606081525090565b60e06040519081016040528061442c61446d565b815260200160008152602001600081526020016000600481111561444c57fe5b8152602001600081525090565b602060405190810160405280606081525090565b606060405190810160405280600073ffffffffffffffffffffffffffffffffffffffff16815260200160008152602001606081525090565b60006144b18235615ba3565b905092915050565b60006144c58251615ba3565b905092915050565b600082601f83011215156144e057600080fd5b81356144f36144ee82615a21565b6159f4565b9150818183526020840193506020810190508360005b83811015614539578135860161451f888261487b565b845260208401935060208301925050600181019050614509565b5050505092915050565b600082601f830112151561455657600080fd5b815161456961456482615a49565b6159f4565b9150818183526020840193506020810190508385602084028201111561458e57600080fd5b60005b838110156145be57816145a48882614ac3565b845260208401935060208301925050600181019050614591565b5050505092915050565b600082601f83011215156145db57600080fd5b81356145ee6145e982615a71565b6159f4565b9150818183526020840193506020810190508385602084028201111561461357600080fd5b60005b8381101561464357816146298882614aaf565b845260208401935060208301925050600181019050614616565b5050505092915050565b60006146598251615bc3565b905092915050565b600061466d8235615bcf565b905092915050565b600082601f830112151561468857600080fd5b813561469b61469682615a99565b6159f4565b915080825260208301602083018583830111156146b757600080fd5b6146c2838284615cdb565b50505092915050565b60006146d78251615bd9565b905092915050565b60006146eb8235615beb565b905092915050565b60006146ff8235615bfd565b905092915050565b60006147138251615c0f565b905092915050565b60006147278251615c28565b905092915050565b600082601f830112151561474257600080fd5b813561475561475082615ac5565b6159f4565b9150808252602083016020830185838301111561477157600080fd5b61477c838284615cdb565b50505092915050565b600082601f830112151561479857600080fd5b81516147ab6147a682615ac5565b6159f4565b915080825260208301602083018583830111156147c757600080fd5b6147d2838284615cea565b50505092915050565b6000602082840312156147ed57600080fd5b6147f760206159f4565b9050600082015167ffffffffffffffff81111561481357600080fd5b61481f84828501614785565b60008301525092915050565b60006020828403121561483d57600080fd5b61484760206159f4565b9050600082013567ffffffffffffffff81111561486357600080fd5b61486f8482850161472f565b60008301525092915050565b60006060828403121561488d57600080fd5b61489760606159f4565b905060006148a7848285016144a5565b60008301525060206148bb84828501614aaf565b602083015250604082013567ffffffffffffffff8111156148db57600080fd5b6148e78482850161472f565b60408301525092915050565b60006060828403121561490557600080fd5b61490f60606159f4565b9050600061491f848285016144b9565b600083015250602061493384828501614ac3565b602083015250604082015167ffffffffffffffff81111561495357600080fd5b61495f84828501614785565b60408301525092915050565b60006080828403121561497d57600080fd5b61498760806159f4565b9050600082015167ffffffffffffffff8111156149a357600080fd5b6149af848285016147db565b60008301525060206149c384828501614ac3565b60208301525060406149d784828501614707565b604083015250606082015167ffffffffffffffff8111156149f757600080fd5b614a0384828501614543565b60608301525092915050565b600060a08284031215614a2157600080fd5b614a2b60a06159f4565b9050600082015167ffffffffffffffff811115614a4757600080fd5b614a53848285016148f3565b6000830152506020614a6784828501614ac3565b6020830152506040614a7b84828501614ac3565b6040830152506060614a8f8482850161471b565b6060830152506080614aa384828501614ac3565b60808301525092915050565b6000614abb8235615c41565b905092915050565b6000614acf8251615c41565b905092915050565b600060208284031215614ae957600080fd5b6000614af7848285016144a5565b91505092915050565b600060208284031215614b1257600080fd5b6000614b20848285016144b9565b91505092915050565b600080600060608486031215614b3e57600080fd5b6000614b4c868287016144a5565b9350506020614b5d86828701614661565b925050604084013567ffffffffffffffff811115614b7a57600080fd5b614b86868287016145c8565b9150509250925092565b60008060408385031215614ba357600080fd5b6000614bb1858286016144a5565b9250506020614bc285828601614aaf565b9150509250929050565b600080600060608486031215614be157600080fd5b6000614bef868287016144a5565b9350506020614c0086828701614aaf565b9250506040614c11868287016144a5565b9150509250925092565b600060208284031215614c2d57600080fd5b6000614c3b8482850161464d565b91505092915050565b600060208284031215614c5657600080fd5b600082013567ffffffffffffffff811115614c7057600080fd5b614c7c84828501614675565b91505092915050565b600060208284031215614c9757600080fd5b6000614ca5848285016146cb565b91505092915050565b600080600060608486031215614cc357600080fd5b6000614cd1868287016146df565b935050602084013567ffffffffffffffff811115614cee57600080fd5b614cfa8682870161482b565b925050604084013567ffffffffffffffff811115614d1757600080fd5b614d23868287016144cd565b9150509250925092565b60008060408385031215614d4057600080fd5b6000614d4e858286016146df565b9250506020614d5f85828601614aaf565b9150509250929050565b600080600060608486031215614d7e57600080fd5b6000614d8c868287016146df565b9350506020614d9d86828701614aaf565b9250506040614dae868287016144a5565b9150509250925092565b600080600060608486031215614dcd57600080fd5b6000614ddb868287016146df565b9350506020614dec86828701614aaf565b9250506040614dfd86828701614aaf565b9150509250925092565b600080600060608486031215614e1c57600080fd5b6000614e2a868287016146f3565b9350506020614e3b86828701614aaf565b9250506040614e4c86828701614aaf565b9150509250925092565b600060208284031215614e6857600080fd5b600082015167ffffffffffffffff811115614e8257600080fd5b614e8e8482850161496b565b91505092915050565b600060208284031215614ea957600080fd5b600082015167ffffffffffffffff811115614ec357600080fd5b614ecf84828501614a0f565b91505092915050565b600060208284031215614eea57600080fd5b6000614ef884828501614ac3565b91505092915050565b614f0a81615b37565b82525050565b6000614f1b82615afe565b80845260208401935083602082028501614f3485615af1565b60005b84811015614f6d578383038852614f4f838351615250565b9250614f5a82615b2a565b9150602088019750600181019050614f37565b508196508694505050505092915050565b614f8781615b57565b82525050565b614f9681615b63565b82525050565b6000614fa782615b09565b808452614fbb816020860160208601615cea565b614fc481615d1d565b602085010191505092915050565b614fdb81615c4b565b82525050565b614fea81615c5d565b82525050565b614ff981615c6f565b82525050565b61500881615c81565b82525050565b61501781615c93565b82525050565b61502681615ca5565b82525050565b61503581615cb7565b82525050565b61504481615cc9565b82525050565b600061505582615b1f565b808452615069816020860160208601615cea565b61507281615d1d565b602085010191505092915050565b600061508b82615b14565b80845261509f816020860160208601615cea565b6150a881615d1d565b602085010191505092915050565b6000601982527f73656e6465722063616e6e6f7420766f7465206f6e2052464c000000000000006020830152604082019050919050565b6000602082527f76616c756520697320696e666572696f7220746f2052464c206d696e696d756d6020830152604082019050919050565b6000602682527f696e697469616c697a6174696f6e20706172616d6574657273206f7574206f6660208301527f20626f756e6400000000000000000000000000000000000000000000000000006040830152606082019050919050565b6000601282527f52464c20646f6573206e6f7420657869737400000000000000000000000000006020830152604082019050919050565b6000601282527f52464920646f6573206e6f7420657869737400000000000000000000000000006020830152604082019050919050565b6000601982527f73656e6465722063616e6e6f7420766f7465206f6e20524649000000000000006020830152604082019050919050565b600060208301600083015184820360008601526152438282615080565b9150508091505092915050565b60006060830160008301516152686000860182614f01565b50602083015161527b6020860182615423565b50604083015184820360408601526152938282615080565b9150508091505092915050565b610120820160008201516152b76000850182615423565b5060208201516152ca6020850182615423565b5060408201516152dd6040850182615423565b5060608201516152f06060850182615423565b5060808201516153036080850182615423565b5060a082015161531660a0850182615423565b5060c082015161532960c0850182615423565b5060e082015161533c60e0850182615423565b5061010082015161535161010085018261502c565b50505050565b6101408201600082015161536e6000850182615423565b5060208201516153816020850182615423565b5060408201516153946040850182615423565b5060608201516153a76060850182615423565b5060808201516153ba6080850182615423565b5060a08201516153cd60a0850182615423565b5060c08201516153e060c0850182615423565b5060e08201516153f360e0850182615423565b50610100820151615408610100850182615423565b5061012082015161541d61012085018261502c565b50505050565b61542c81615b99565b82525050565b60006020820190506154476000830184614f01565b92915050565b60006080820190506154626000830187614f01565b61546f6020830186614f01565b61547c6040830185614f8d565b818103606083015261548e8184614f9c565b905095945050505050565b60006040820190506154ae6000830185614f01565b6154bb6020830184615423565b9392505050565b60006020820190506154d76000830184614f7e565b92915050565b60006020820190506154f26000830184614f8d565b92915050565b600060408201905061550d6000830185614f8d565b61551a6020830184614f8d565b9392505050565b6000602082019050818103600083015261553b8184614f9c565b905092915050565b60006020820190506155586000830184614fd2565b92915050565b60006020820190506155736000830184614fe1565b92915050565b600060208201905061558e6000830184614ff0565b92915050565b60006040820190506155a96000830185614fff565b6155b66020830184615423565b9392505050565b600060a0820190506155d26000830188614fff565b6155df6020830187615423565b6155ec6040830186614f01565b6155f96060830185614f7e565b6156066080830184615423565b9695505050505050565b600060c0820190506156256000830189614fff565b6156326020830188615423565b61563f6040830187614f01565b61564c6060830186614f7e565b6156596080830185615423565b61566660a0830184615423565b979650505050505050565b6000602082019050615686600083018461500e565b92915050565b60006020820190506156a1600083018461501d565b92915050565b60006020820190506156bc600083018461503b565b92915050565b60006040820190506156d7600083018561503b565b6156e46020830184615423565b9392505050565b600060208201905081810360008301526157058184615080565b905092915050565b60006020820190508181036000830152615727818461504a565b905092915050565b60006020820190508181036000830152615748816150b6565b9050919050565b60006020820190508181036000830152615768816150ed565b9050919050565b6000602082019050818103600083015261578881615124565b9050919050565b600060208201905081810360008301526157a881615181565b9050919050565b600060208201905081810360008301526157c8816151b8565b9050919050565b600060208201905081810360008301526157e8816151ef565b9050919050565b600060408201905081810360008301526158098185615226565b9050818103602083015261581d8184614f10565b90509392505050565b60006101208201905061583c60008301846152a0565b92915050565b6000610140820190506158586000830184615357565b92915050565b60006020820190506158736000830184615423565b92915050565b600060408201905061588e6000830185615423565b61589b6020830184614f01565b9392505050565b60006040820190506158b76000830185615423565b6158c46020830184615423565b9392505050565b6000610120820190506158e1600083018c615423565b6158ee602083018b615423565b6158fb604083018a615423565b6159086060830189615423565b6159156080830188615423565b61592260a0830187615423565b61592f60c0830186615423565b61593c60e0830185615423565b61594a61010083018461502c565b9a9950505050505050505050565b60006101408201905061596e600083018d615423565b61597b602083018c615423565b615988604083018b615423565b615995606083018a615423565b6159a26080830189615423565b6159af60a0830188615423565b6159bc60c0830187615423565b6159c960e0830186615423565b6159d7610100830185615423565b6159e561012083018461502c565b9b9a5050505050505050505050565b6000604051905081810181811067ffffffffffffffff82111715615a1757600080fd5b8060405250919050565b600067ffffffffffffffff821115615a3857600080fd5b602082029050602081019050919050565b600067ffffffffffffffff821115615a6057600080fd5b602082029050602081019050919050565b600067ffffffffffffffff821115615a8857600080fd5b602082029050602081019050919050565b600067ffffffffffffffff821115615ab057600080fd5b601f19601f8301169050602081019050919050565b600067ffffffffffffffff821115615adc57600080fd5b601f19601f8301169050602081019050919050565b6000602082019050919050565b600081519050919050565b600081519050919050565b600081519050919050565b600081519050919050565b6000602082019050919050565b600073ffffffffffffffffffffffffffffffffffffffff82169050919050565b60008115159050919050565b6000819050919050565b6000600382101515615b7b57fe5b819050919050565b6000600382101515615b9157fe5b819050919050565b6000819050919050565b600073ffffffffffffffffffffffffffffffffffffffff82169050919050565b60008115159050919050565b6000819050919050565b6000615be482615b37565b9050919050565b6000615bf682615b37565b9050919050565b6000615c0882615b37565b9050919050565b6000600482101515615c2057600080fd5b819050919050565b6000600582101515615c3957600080fd5b819050919050565b6000819050919050565b6000615c5682615b37565b9050919050565b6000615c6882615b37565b9050919050565b6000615c7a82615b37565b9050919050565b6000615c8c82615b37565b9050919050565b6000615c9e82615b37565b9050919050565b6000615cb082615b37565b9050919050565b6000615cc282615b6d565b9050919050565b6000615cd482615b83565b9050919050565b82818337600083830152505050565b60005b83811015615d08578082015181840152602081019050615ced565b83811115615d17576000848401525b50505050565b6000601f19601f83011690509190505600a265627a7a7230582030e60e62c28080f79ff4dc8fedd3ee4de7e518bcf05afa565567fd4aee2f0fae6c6578706572696d656e74616cf50037",
  "source": "pragma solidity ^0.4.24;\npragma experimental ABIEncoderV2;\n\nimport \"@aragon/os/contracts/apps/AragonApp.sol\";\nimport \"@aragon/os/contracts/lib/math/SafeMath.sol\";\nimport \"@aragon/os/contracts/lib/math/SafeMath64.sol\";\nimport \"@aragon/apps-shared-minime/contracts/MiniMeToken.sol\";\nimport \"@pando/core/contracts/organism/IOrganism.sol\";\nimport \"@pando/core/contracts/scheme/IPandoScheme.sol\";\n\n\ncontract DemocracyScheme is IPandoScheme, AragonApp {\n    using SafeMath for uint256;\n    using SafeMath64 for uint64;\n\n    bytes32 public constant UPDATE_PARAMETERS_ROLE = keccak256(\"UPDATE_PARAMETERS_ROLE\");\n\n    enum VoteState  { Pending, Executed, Cancelled }\n    enum VoterState { Absent, Yea, Nay }\n\n    struct RFLBallot {\n        VoterState state;\n        uint256    value;\n    }\n\n    struct RFIVote {\n        uint256   RFIid;\n        uint256   blockstamp;\n        uint256   supply;\n        uint256   quorum;\n        uint256   required;\n        uint256   yea;\n        uint256   nay;\n        uint256   participation;\n        VoteState state;\n    }\n\n    struct RFLVote {\n        uint256   RFLid;\n        uint256   blockstamp;\n        uint256   supply;\n        uint256   quorum;\n        uint256   required;\n        uint256   yea;\n        uint256   nay;\n        uint256   total;\n        uint256   participation;\n        VoteState state;\n    }\n\n    MiniMeToken public token;\n    uint256     public required;\n    uint256     public quorum;\n\n    mapping(address => mapping(uint256 => RFIVote)) public RFIVotes; // mapping RFIs to related vote\n    mapping(address => mapping(uint256 => RFLVote)) public RFLVotes; // mapping RFLs to related vote\n\n    mapping(address => mapping(uint256 => mapping(address => VoterState))) public RFIVotesBallots;\n    mapping(address => mapping(uint256 => mapping(address => RFLBallot)))  public RFLVotesBallots;\n\n    event NewRFIVote(IOrganism organism, uint256 id);\n    event CastRFIVote(IOrganism organism, uint256 id, address voter, bool supports, uint256 stake);\n    event CancelRFIVote(IOrganism organism, uint256 id);\n    event ExecuteRFIVote(IOrganism organism, uint256 id);\n\n    event NewRFLVote(IOrganism organism, uint256 id);\n    event CastRFLVote(IOrganism organism, uint256 id, address voter, bool supports, uint256 value, uint256 stake);\n    event CancelRFLVote(IOrganism organism, uint256 id);\n    event ExecuteRFLVote(IOrganism organism, uint256 id);\n\n    modifier RFIVoteExists(IOrganism _organism, uint256 _RFIid) {\n        require(RFIVotes[address(_organism)][_RFIid].RFIid > 0, \"RFI does not exist\");\n        _;\n    }\n\n    modifier RFLVoteExists(IOrganism _organism, uint256 _RFLid) {\n        require(RFLVotes[address(_organism)][_RFLid].RFLid > 0, \"RFL does not exist\");\n        _;\n    }\n\n    modifier senderCanVoteOnRFI(IOrganism _organism, uint256 _RFIid) {\n        require(canVoteOnRFI(_organism, _RFIid, msg.sender), \"sender cannot vote on RFI\");\n        _;\n    }\n\n    modifier senderCanVoteOnRFL(IOrganism _organism, uint256 _RFLid) {\n        require(canVoteOnRFL(_organism, _RFLid, msg.sender), \"sender cannot vote on RFL\");\n        _;\n    }\n\n    modifier valueIsSuperiorToRFLMinimum(IOrganism _organism, uint256 _RFLid, uint256 _value) {\n        require(_value >= _organism.getRFL(_RFLid).lineage.minimum, \"value is inferior to RFL minimum\");\n        _;\n    }\n\n    function initialize(MiniMeToken _token, uint256 _quorum, uint256 _required) external onlyInit {\n        require(_quorum <= 100 && _required <= _quorum, \"initialization parameters out of bound\");\n\n        initialized();\n\n        token = _token;\n        quorum = _quorum;\n        required = _required;\n    }\n\n    function createRFI(IOrganism _organism, Pando.IIndividuation _individuation, Pando.ILineage[] _lineages) isInitialized {\n        _createRFI(_organism, _individuation, _lineages);\n    }\n\n    function mergeRFI(IOrganism _organism, uint256 _RFIid) public isInitialized senderCanVoteOnRFI(_organism, _RFIid) {\n        _mergeRFI(_organism, _RFIid);\n    }\n\n    function rejectRFI(IOrganism _organism, uint256 _RFIid) public isInitialized senderCanVoteOnRFI(_organism, _RFIid) {\n        _rejectRFI(_organism, _RFIid);\n    }\n\n    function acceptRFL(IOrganism _organism, uint256 _RFLid, uint256 _value)\n        public\n        isInitialized\n        senderCanVoteOnRFL(_organism, _RFLid)\n        valueIsSuperiorToRFLMinimum(_organism, _RFLid, _value)\n    {\n        _acceptRFL(_organism, _RFLid, _value);\n    }\n\n    function rejectRFL(IOrganism _organism, uint256 _RFLid) public isInitialized senderCanVoteOnRFL(_organism, _RFLid) {\n        _rejectRFL(_organism, _RFLid);\n    }\n\n    /*--------------------*/\n\n    function getRFIVote(IOrganism _organism, uint256 _RFIid) public view RFIVoteExists(_organism, _RFIid) returns (RFIVote) {\n        return RFIVotes[address(_organism)][_RFIid];\n    }\n\n    function getRFLVote(IOrganism _organism, uint256 _RFLid) public view RFLVoteExists(_organism, _RFLid) returns (RFLVote) {\n        return RFLVotes[address(_organism)][_RFLid];\n    }\n\n    function getRFIMetadata(IOrganism _organism, uint256 _RFIid) public view RFIVoteExists(_organism, _RFIid) returns (string) {\n        return _organism.getRFI(_RFIid).individuation.metadata;\n    }\n\n    /*--------------------*/\n\n    function _createRFI(IOrganism _organism, Pando.IIndividuation _individuation, Pando.ILineage[] _lineages) internal {\n        uint256 RFIid = _organism.createRFI(_individuation, _lineages);\n\n        Pando.RFI memory RFI = _organism.getRFI(RFIid);\n\n        for (uint256 i = 0; i < RFI.RFLids.length; i++) {\n            _newRFLVote(_organism, RFI.RFLids[i]);\n        }\n\n        _newRFIVote(_organism, RFIid);\n\n        emit CreateRFI(_organism, RFIid, msg.sender);\n    }\n\n    function _mergeRFI(IOrganism _organism, uint256 _RFIid) internal {\n        _voteRFI(_organism, _RFIid, true, msg.sender);\n        emit MergeRFI(_organism, _RFIid, msg.sender);\n    }\n\n    function _rejectRFI(IOrganism _organism, uint256 _RFIid) internal {\n        _voteRFI(_organism, _RFIid, false, msg.sender);\n        emit RejectRFI(_organism, _RFIid, msg.sender);\n    }\n\n    function _newRFIVote(IOrganism _organism, uint256 _RFIid) internal {\n        RFIVote storage vote = RFIVotes[address(_organism)][_RFIid];\n\n        vote.RFIid = _RFIid;\n        vote.blockstamp = block.number - 1; // avoid double voting in this very block\n        vote.supply = token.totalSupplyAt(vote.blockstamp);\n        vote.quorum = quorum.mul(vote.supply).div(100);\n        vote.required = required.mul(vote.supply).div(100);\n        vote.yea = 0;\n        vote.nay = 0;\n        vote.participation = 0;\n        vote.state = VoteState.Pending;\n\n        emit NewRFIVote(_organism, _RFIid);\n\n        if (canVoteOnRFI(_organism, _RFIid, msg.sender)) {\n            _voteRFI(_organism, _RFIid, true, msg.sender);\n        }\n    }\n\n    function _cancelRFIVote(IOrganism _organism, uint256 _RFIid) internal {\n        RFIVote   storage vote = RFIVotes[address(_organism)][_RFIid];\n        Pando.RFI memory  RFI = _organism.getRFI(_RFIid);\n\n        vote.state = VoteState.Cancelled;\n\n        for (uint256 i = 0; i < RFI.RFLids.length; i++) {\n            if (RFLVotes[address(_organism)][RFI.RFLids[i]].state != VoteState.Executed)\n                _cancelRFLVote(_organism, RFI.RFLids[i]);\n        }\n\n        emit CancelRFIVote(_organism, _RFIid);\n    }\n\n    function _voteRFI(IOrganism _organism, uint256 _RFIid, bool _supports, address _voter) internal {\n        RFIVote storage vote = RFIVotes[address(_organism)][_RFIid];\n\n        uint256 stake = token.balanceOfAt(_voter, vote.blockstamp);\n        VoterState state = RFIVotesBallots[address(_organism)][_RFIid][_voter];\n\n        if (state != VoterState.Absent) {\n            vote.participation = vote.participation.sub(stake);\n        }\n\n        if (state == VoterState.Yea) {\n            vote.yea = vote.yea.sub(stake);\n        } else if (state == VoterState.Nay) {\n            vote.nay = vote.nay.sub(stake);\n        }\n\n        if (_supports) {\n            vote.yea = vote.yea.add(stake);\n            RFIVotesBallots[address(_organism)][_RFIid][_voter] = VoterState.Yea;\n            emit MergeRFI(_organism, vote.RFIid, _voter);\n\n        } else {\n            vote.nay = vote.nay.add(stake);\n            RFIVotesBallots[address(_organism)][_RFIid][_voter] = VoterState.Nay;\n            emit RejectRFI(_organism, vote.RFIid, _voter);\n        }\n\n        vote.participation = vote.participation.add(stake);\n\n        emit CastRFIVote(_organism, _RFIid, _voter, _supports, stake);\n\n        if (canExecuteRFIVote(_organism, _RFIid)) {\n            _executeRFIVote(_organism, _RFIid);\n        }\n    }\n\n    function _executeRFIVote(IOrganism _organism, uint256 _RFIid) internal {\n        RFIVote storage vote = RFIVotes[address(_organism)][_RFIid];\n\n        if (vote.yea >= vote.required) {\n            _organism.mergeRFI(_RFIid);\n        } else {\n            Pando.RFI memory RFI = _organism.getRFI(_RFIid);\n\n            for (uint256 i = 0; i < RFI.RFLids.length; i++) {\n                _cancelRFLVote(_organism, RFI.RFLids[i]);\n            }\n\n            _organism.rejectRFI(vote.RFIid);\n        }\n\n        vote.state = VoteState.Executed;\n\n        emit ExecuteRFIVote(_organism, _RFIid);\n    }\n\n    function _acceptRFL(IOrganism _organism, uint256 _RFLid, uint256 _value) internal {\n        _voteRFL(_organism, _RFLid, true, _value, msg.sender);\n        emit AcceptRFL(_organism, _RFLid, _value, msg.sender);\n    }\n\n    function _rejectRFL(IOrganism _organism, uint256 _RFLid) internal {\n        _voteRFL(_organism, _RFLid, false, 0, msg.sender);\n        emit RejectRFL(_organism, _RFLid, msg.sender);\n    }\n\n    function _newRFLVote(IOrganism _organism, uint256 _RFLid) internal {\n        RFLVote storage vote = RFLVotes[address(_organism)][_RFLid];\n\n        vote.RFLid = _RFLid;\n        vote.blockstamp = block.number - 1; // avoid double voting in this very block\n        vote.supply = token.totalSupplyAt(vote.blockstamp);\n        vote.quorum = quorum.mul(vote.supply).div(100);\n        vote.required = required.mul(vote.supply).div(100);\n        vote.yea = 0;\n        vote.nay = 0;\n        vote.total = 0;\n        vote.participation = 0;\n        vote.state = VoteState.Pending;\n\n        emit NewRFLVote(_organism, _RFLid);\n    }\n\n    function _cancelRFLVote(IOrganism _organism, uint256 _RFLid) internal {\n        RFLVote storage vote = RFLVotes[address(_organism)][_RFLid];\n\n        vote.state = VoteState.Cancelled;\n\n        emit CancelRFLVote(_organism, _RFLid);\n    }\n\n    function _voteRFL(IOrganism _organism, uint256 _RFLid, bool _supports, uint256 _value, address _voter) internal {\n        RFLVote storage vote = RFLVotes[address(_organism)][_RFLid];\n\n        uint256 stake = token.balanceOfAt(_voter, vote.blockstamp);\n        RFLBallot storage ballot = RFLVotesBallots[address(_organism)][_RFLid][_voter];\n\n        if (ballot.state != VoterState.Absent) {\n            vote.participation = vote.participation.sub(stake);\n        }\n\n        if (ballot.state == VoterState.Yea) {\n            vote.yea = vote.yea.sub(stake);\n            vote.total = vote.total.sub(stake.mul(ballot.value));\n        } else if (ballot.state == VoterState.Nay) {\n            vote.nay = vote.nay.sub(stake);\n        }\n\n        if (_supports) {\n            vote.yea = vote.yea.add(stake);\n            vote.total = vote.total.add(stake.mul(_value));\n            ballot.state = VoterState.Yea;\n            ballot.value = _value;\n            emit AcceptRFL(_organism, _RFLid, _value, _voter);\n\n        } else {\n            vote.nay = vote.nay.add(stake);\n            ballot.state = VoterState.Nay;\n            ballot.value = 0;\n            emit RejectRFL(_organism, _RFLid, _voter);\n        }\n\n        vote.participation = vote.participation.add(stake);\n\n        emit CastRFLVote(_organism, _RFLid, _voter, _supports, _value, stake);\n\n        if (canExecuteRFLVote(_organism, _RFLid)) {\n            _executeRFLVote(_organism, _RFLid);\n        }\n    }\n\n    function _executeRFLVote(IOrganism _organism, uint256 _RFLid) internal {\n        RFLVote storage vote = RFLVotes[address(_organism)][_RFLid];\n\n        vote.state = VoteState.Executed;\n\n        if (vote.yea >= vote.required) {\n            _organism.acceptRFL(_RFLid, vote.total.div(vote.yea));\n        } else {\n            _cancelRFIVote(_organism, _organism.getRFL(_RFLid).RFIid);\n            _organism.rejectRFL(_RFLid);\n        }\n\n        emit ExecuteRFLVote(_organism, _RFLid);\n    }\n\n    /*--------------------*/\n\n    function canVoteOnRFI(IOrganism _organism, uint256 _RFIid, address _voter) public view RFIVoteExists(_organism, _RFIid) returns (bool) {\n        RFIVote storage vote = RFIVotes[address(_organism)][_RFIid];\n\n        return vote.state == VoteState.Pending && token.balanceOfAt(_voter, vote.blockstamp) > 0;\n    }\n\n    function canVoteOnRFL(IOrganism _organism, uint256 _RFLid, address _voter) public view RFLVoteExists(_organism, _RFLid) returns (bool) {\n        RFLVote storage vote = RFLVotes[address(_organism)][_RFLid];\n\n        return vote.state == VoteState.Pending && token.balanceOfAt(_voter, vote.blockstamp) > 0;\n    }\n\n    function canExecuteRFIVote(IOrganism _organism, uint256 _RFIid) public view RFIVoteExists(_organism, _RFIid) returns (bool) {\n        RFIVote storage vote = RFIVotes[address(_organism)][_RFIid];\n        Pando.RFI memory RFI = _organism.getRFI(vote.RFIid);\n\n        if (vote.state != VoteState.Pending) {\n            return false;\n        }\n\n        if (vote.participation >= vote.quorum) {\n            if (vote.yea >= vote.required) {\n                for (uint256 i = 0; i < RFI.RFLids.length; i++) {\n                    Pando.RFL memory RFL = _organism.getRFL(RFI.RFLids[i]);\n                    if (RFL.state != Pando.RFLState.Accepted) {\n                        return false;\n                    }\n                }\n            }\n            return true;\n        }\n\n        return false;\n    }\n\n    function canExecuteRFLVote(IOrganism _organism, uint256 _RFLid) public view RFLVoteExists(_organism, _RFLid) returns (bool) {\n        RFLVote storage vote = RFLVotes[address(_organism)][_RFLid];\n\n        if (vote.state != VoteState.Pending) {\n            return false;\n        }\n\n        if (vote.participation >= vote.quorum) {\n            return true;\n        }\n\n        return false;\n    }\n}\n",
  "sourcePath": "@pando/scheme-democracy/contracts/DemocracyScheme.sol",
  "compiler": {
    "name": "solc",
    "version": "0.4.24+commit.e67f0147.Emscripten.clang"
  },
  "schemaVersion": "3.0.0-beta.2",
  "updatedAt": "2019-01-12T11:43:17.704Z",
  "devdoc": {
    "methods": {
      "allowRecoverability(address)": {
        "details": "By default deriving from AragonApp makes it recoverable",
        "params": {
          "token": "Token address that would be recovered"
        },
        "return": "bool whether the app allows the recovery"
      },
      "canPerform(address,bytes32,uint256[])": {
        "details": "Check whether an action can be performed by a sender for a particular role on this app",
        "params": {
          "_params": "Permission params for the role",
          "_role": "Role on this app",
          "_sender": "Sender of the call"
        },
        "return": "Boolean indicating whether the sender has the permissions to perform the action.        Always returns false if the app hasn't been initialized yet."
      },
      "getInitializationBlock()": {
        "return": "Block number in which the contract was initialized"
      },
      "getRecoveryVault()": {
        "details": "Get the recovery vault for the app",
        "return": "Recovery vault address for the app"
      },
      "hasInitialized()": {
        "return": "Whether the contract has been initialized by the time of the current block"
      },
      "transferToVault(address)": {
        "params": {
          "_token": "Token balance to be sent to recovery vault."
        }
      }
    }
  },
  "userdoc": {
    "methods": {
      "transferToVault(address)": {
        "notice": "Send funds to recovery Vault. This contract should never receive funds,        but in case it does, this function allows one to recover them."
      }
    }
  }
}