{
  "contractName": "Finance",
  "abi": [
    {
      "constant": true,
      "inputs": [],
      "name": "hasInitialized",
      "outputs": [
        {
          "name": "",
          "type": "bool"
        }
      ],
      "payable": false,
      "stateMutability": "view",
      "type": "function"
    },
    {
      "constant": true,
      "inputs": [],
      "name": "CREATE_PAYMENTS_ROLE",
      "outputs": [
        {
          "name": "",
          "type": "bytes32"
        }
      ],
      "payable": false,
      "stateMutability": "view",
      "type": "function"
    },
    {
      "constant": true,
      "inputs": [
        {
          "name": "_script",
          "type": "bytes"
        }
      ],
      "name": "getEVMScriptExecutor",
      "outputs": [
        {
          "name": "",
          "type": "address"
        }
      ],
      "payable": false,
      "stateMutability": "view",
      "type": "function"
    },
    {
      "constant": true,
      "inputs": [],
      "name": "getRecoveryVault",
      "outputs": [
        {
          "name": "",
          "type": "address"
        }
      ],
      "payable": false,
      "stateMutability": "view",
      "type": "function"
    },
    {
      "constant": true,
      "inputs": [],
      "name": "CHANGE_PERIOD_ROLE",
      "outputs": [
        {
          "name": "",
          "type": "bytes32"
        }
      ],
      "payable": false,
      "stateMutability": "view",
      "type": "function"
    },
    {
      "constant": true,
      "inputs": [],
      "name": "CHANGE_BUDGETS_ROLE",
      "outputs": [
        {
          "name": "",
          "type": "bytes32"
        }
      ],
      "payable": false,
      "stateMutability": "view",
      "type": "function"
    },
    {
      "constant": true,
      "inputs": [],
      "name": "periodsLength",
      "outputs": [
        {
          "name": "",
          "type": "uint64"
        }
      ],
      "payable": false,
      "stateMutability": "view",
      "type": "function"
    },
    {
      "constant": true,
      "inputs": [],
      "name": "appId",
      "outputs": [
        {
          "name": "",
          "type": "bytes32"
        }
      ],
      "payable": false,
      "stateMutability": "view",
      "type": "function"
    },
    {
      "constant": true,
      "inputs": [],
      "name": "getInitializationBlock",
      "outputs": [
        {
          "name": "",
          "type": "uint256"
        }
      ],
      "payable": false,
      "stateMutability": "view",
      "type": "function"
    },
    {
      "constant": true,
      "inputs": [],
      "name": "EXECUTE_PAYMENTS_ROLE",
      "outputs": [
        {
          "name": "",
          "type": "bytes32"
        }
      ],
      "payable": false,
      "stateMutability": "view",
      "type": "function"
    },
    {
      "constant": false,
      "inputs": [
        {
          "name": "_token",
          "type": "address"
        }
      ],
      "name": "transferToVault",
      "outputs": [],
      "payable": false,
      "stateMutability": "nonpayable",
      "type": "function"
    },
    {
      "constant": true,
      "inputs": [
        {
          "name": "_sender",
          "type": "address"
        },
        {
          "name": "_role",
          "type": "bytes32"
        },
        {
          "name": "_params",
          "type": "uint256[]"
        }
      ],
      "name": "canPerform",
      "outputs": [
        {
          "name": "",
          "type": "bool"
        }
      ],
      "payable": false,
      "stateMutability": "view",
      "type": "function"
    },
    {
      "constant": true,
      "inputs": [],
      "name": "getEVMScriptRegistry",
      "outputs": [
        {
          "name": "",
          "type": "address"
        }
      ],
      "payable": false,
      "stateMutability": "view",
      "type": "function"
    },
    {
      "constant": true,
      "inputs": [],
      "name": "kernel",
      "outputs": [
        {
          "name": "",
          "type": "address"
        }
      ],
      "payable": false,
      "stateMutability": "view",
      "type": "function"
    },
    {
      "constant": true,
      "inputs": [],
      "name": "paymentsNextIndex",
      "outputs": [
        {
          "name": "",
          "type": "uint256"
        }
      ],
      "payable": false,
      "stateMutability": "view",
      "type": "function"
    },
    {
      "constant": true,
      "inputs": [],
      "name": "isPetrified",
      "outputs": [
        {
          "name": "",
          "type": "bool"
        }
      ],
      "payable": false,
      "stateMutability": "view",
      "type": "function"
    },
    {
      "constant": true,
      "inputs": [],
      "name": "MANAGE_PAYMENTS_ROLE",
      "outputs": [
        {
          "name": "",
          "type": "bytes32"
        }
      ],
      "payable": false,
      "stateMutability": "view",
      "type": "function"
    },
    {
      "constant": true,
      "inputs": [],
      "name": "transactionsNextIndex",
      "outputs": [
        {
          "name": "",
          "type": "uint256"
        }
      ],
      "payable": false,
      "stateMutability": "view",
      "type": "function"
    },
    {
      "constant": true,
      "inputs": [],
      "name": "vault",
      "outputs": [
        {
          "name": "",
          "type": "address"
        }
      ],
      "payable": false,
      "stateMutability": "view",
      "type": "function"
    },
    {
      "payable": true,
      "stateMutability": "payable",
      "type": "fallback"
    },
    {
      "anonymous": false,
      "inputs": [
        {
          "indexed": true,
          "name": "periodId",
          "type": "uint64"
        },
        {
          "indexed": false,
          "name": "periodStarts",
          "type": "uint64"
        },
        {
          "indexed": false,
          "name": "periodEnds",
          "type": "uint64"
        }
      ],
      "name": "NewPeriod",
      "type": "event"
    },
    {
      "anonymous": false,
      "inputs": [
        {
          "indexed": true,
          "name": "token",
          "type": "address"
        },
        {
          "indexed": false,
          "name": "amount",
          "type": "uint256"
        },
        {
          "indexed": false,
          "name": "hasBudget",
          "type": "bool"
        }
      ],
      "name": "SetBudget",
      "type": "event"
    },
    {
      "anonymous": false,
      "inputs": [
        {
          "indexed": true,
          "name": "paymentId",
          "type": "uint256"
        },
        {
          "indexed": true,
          "name": "recipient",
          "type": "address"
        },
        {
          "indexed": false,
          "name": "maxRepeats",
          "type": "uint64"
        },
        {
          "indexed": false,
          "name": "reference",
          "type": "string"
        }
      ],
      "name": "NewPayment",
      "type": "event"
    },
    {
      "anonymous": false,
      "inputs": [
        {
          "indexed": true,
          "name": "transactionId",
          "type": "uint256"
        },
        {
          "indexed": false,
          "name": "incoming",
          "type": "bool"
        },
        {
          "indexed": true,
          "name": "entity",
          "type": "address"
        },
        {
          "indexed": false,
          "name": "amount",
          "type": "uint256"
        },
        {
          "indexed": false,
          "name": "reference",
          "type": "string"
        }
      ],
      "name": "NewTransaction",
      "type": "event"
    },
    {
      "anonymous": false,
      "inputs": [
        {
          "indexed": true,
          "name": "paymentId",
          "type": "uint256"
        },
        {
          "indexed": false,
          "name": "inactive",
          "type": "bool"
        }
      ],
      "name": "ChangePaymentState",
      "type": "event"
    },
    {
      "anonymous": false,
      "inputs": [
        {
          "indexed": false,
          "name": "newDuration",
          "type": "uint64"
        }
      ],
      "name": "ChangePeriodDuration",
      "type": "event"
    },
    {
      "anonymous": false,
      "inputs": [
        {
          "indexed": false,
          "name": "paymentId",
          "type": "uint256"
        }
      ],
      "name": "PaymentFailure",
      "type": "event"
    },
    {
      "anonymous": false,
      "inputs": [
        {
          "indexed": true,
          "name": "executor",
          "type": "address"
        },
        {
          "indexed": false,
          "name": "script",
          "type": "bytes"
        },
        {
          "indexed": false,
          "name": "input",
          "type": "bytes"
        },
        {
          "indexed": false,
          "name": "returnData",
          "type": "bytes"
        }
      ],
      "name": "ScriptResult",
      "type": "event"
    },
    {
      "constant": false,
      "inputs": [
        {
          "name": "_vault",
          "type": "address"
        },
        {
          "name": "_periodDuration",
          "type": "uint64"
        }
      ],
      "name": "initialize",
      "outputs": [],
      "payable": false,
      "stateMutability": "nonpayable",
      "type": "function"
    },
    {
      "constant": false,
      "inputs": [
        {
          "name": "_token",
          "type": "address"
        },
        {
          "name": "_amount",
          "type": "uint256"
        },
        {
          "name": "_reference",
          "type": "string"
        }
      ],
      "name": "deposit",
      "outputs": [],
      "payable": true,
      "stateMutability": "payable",
      "type": "function"
    },
    {
      "constant": false,
      "inputs": [
        {
          "name": "_token",
          "type": "address"
        },
        {
          "name": "_receiver",
          "type": "address"
        },
        {
          "name": "_amount",
          "type": "uint256"
        },
        {
          "name": "_initialPaymentTime",
          "type": "uint64"
        },
        {
          "name": "_interval",
          "type": "uint64"
        },
        {
          "name": "_maxRepeats",
          "type": "uint64"
        },
        {
          "name": "_reference",
          "type": "string"
        }
      ],
      "name": "newPayment",
      "outputs": [
        {
          "name": "paymentId",
          "type": "uint256"
        }
      ],
      "payable": false,
      "stateMutability": "nonpayable",
      "type": "function"
    },
    {
      "constant": false,
      "inputs": [
        {
          "name": "_periodDuration",
          "type": "uint64"
        }
      ],
      "name": "setPeriodDuration",
      "outputs": [],
      "payable": false,
      "stateMutability": "nonpayable",
      "type": "function"
    },
    {
      "constant": false,
      "inputs": [
        {
          "name": "_token",
          "type": "address"
        },
        {
          "name": "_amount",
          "type": "uint256"
        }
      ],
      "name": "setBudget",
      "outputs": [],
      "payable": false,
      "stateMutability": "nonpayable",
      "type": "function"
    },
    {
      "constant": false,
      "inputs": [
        {
          "name": "_token",
          "type": "address"
        }
      ],
      "name": "removeBudget",
      "outputs": [],
      "payable": false,
      "stateMutability": "nonpayable",
      "type": "function"
    },
    {
      "constant": false,
      "inputs": [
        {
          "name": "_paymentId",
          "type": "uint256"
        }
      ],
      "name": "executePayment",
      "outputs": [],
      "payable": false,
      "stateMutability": "nonpayable",
      "type": "function"
    },
    {
      "constant": false,
      "inputs": [
        {
          "name": "_paymentId",
          "type": "uint256"
        }
      ],
      "name": "receiverExecutePayment",
      "outputs": [],
      "payable": false,
      "stateMutability": "nonpayable",
      "type": "function"
    },
    {
      "constant": false,
      "inputs": [
        {
          "name": "_paymentId",
          "type": "uint256"
        },
        {
          "name": "_active",
          "type": "bool"
        }
      ],
      "name": "setPaymentStatus",
      "outputs": [],
      "payable": false,
      "stateMutability": "nonpayable",
      "type": "function"
    },
    {
      "constant": false,
      "inputs": [
        {
          "name": "_token",
          "type": "address"
        }
      ],
      "name": "recoverToVault",
      "outputs": [],
      "payable": false,
      "stateMutability": "nonpayable",
      "type": "function"
    },
    {
      "constant": false,
      "inputs": [
        {
          "name": "_maxTransitions",
          "type": "uint64"
        }
      ],
      "name": "tryTransitionAccountingPeriod",
      "outputs": [
        {
          "name": "success",
          "type": "bool"
        }
      ],
      "payable": false,
      "stateMutability": "nonpayable",
      "type": "function"
    },
    {
      "constant": true,
      "inputs": [
        {
          "name": "",
          "type": "address"
        }
      ],
      "name": "allowRecoverability",
      "outputs": [
        {
          "name": "",
          "type": "bool"
        }
      ],
      "payable": false,
      "stateMutability": "view",
      "type": "function"
    },
    {
      "constant": true,
      "inputs": [
        {
          "name": "_paymentId",
          "type": "uint256"
        }
      ],
      "name": "getPayment",
      "outputs": [
        {
          "name": "token",
          "type": "address"
        },
        {
          "name": "receiver",
          "type": "address"
        },
        {
          "name": "amount",
          "type": "uint256"
        },
        {
          "name": "initialPaymentTime",
          "type": "uint64"
        },
        {
          "name": "interval",
          "type": "uint64"
        },
        {
          "name": "maxRepeats",
          "type": "uint64"
        },
        {
          "name": "inactive",
          "type": "bool"
        },
        {
          "name": "repeats",
          "type": "uint64"
        },
        {
          "name": "createdBy",
          "type": "address"
        }
      ],
      "payable": false,
      "stateMutability": "view",
      "type": "function"
    },
    {
      "constant": true,
      "inputs": [
        {
          "name": "_transactionId",
          "type": "uint256"
        }
      ],
      "name": "getTransaction",
      "outputs": [
        {
          "name": "periodId",
          "type": "uint64"
        },
        {
          "name": "amount",
          "type": "uint256"
        },
        {
          "name": "paymentId",
          "type": "uint256"
        },
        {
          "name": "paymentRepeatNumber",
          "type": "uint64"
        },
        {
          "name": "token",
          "type": "address"
        },
        {
          "name": "entity",
          "type": "address"
        },
        {
          "name": "isIncoming",
          "type": "bool"
        },
        {
          "name": "date",
          "type": "uint64"
        }
      ],
      "payable": false,
      "stateMutability": "view",
      "type": "function"
    },
    {
      "constant": true,
      "inputs": [
        {
          "name": "_periodId",
          "type": "uint64"
        }
      ],
      "name": "getPeriod",
      "outputs": [
        {
          "name": "isCurrent",
          "type": "bool"
        },
        {
          "name": "startTime",
          "type": "uint64"
        },
        {
          "name": "endTime",
          "type": "uint64"
        },
        {
          "name": "firstTransactionId",
          "type": "uint256"
        },
        {
          "name": "lastTransactionId",
          "type": "uint256"
        }
      ],
      "payable": false,
      "stateMutability": "view",
      "type": "function"
    },
    {
      "constant": true,
      "inputs": [
        {
          "name": "_periodId",
          "type": "uint64"
        },
        {
          "name": "_token",
          "type": "address"
        }
      ],
      "name": "getPeriodTokenStatement",
      "outputs": [
        {
          "name": "expenses",
          "type": "uint256"
        },
        {
          "name": "income",
          "type": "uint256"
        }
      ],
      "payable": false,
      "stateMutability": "view",
      "type": "function"
    },
    {
      "constant": true,
      "inputs": [
        {
          "name": "_paymentId",
          "type": "uint256"
        }
      ],
      "name": "nextPaymentTime",
      "outputs": [
        {
          "name": "",
          "type": "uint64"
        }
      ],
      "payable": false,
      "stateMutability": "view",
      "type": "function"
    },
    {
      "constant": true,
      "inputs": [],
      "name": "getPeriodDuration",
      "outputs": [
        {
          "name": "",
          "type": "uint64"
        }
      ],
      "payable": false,
      "stateMutability": "view",
      "type": "function"
    },
    {
      "constant": true,
      "inputs": [
        {
          "name": "_token",
          "type": "address"
        }
      ],
      "name": "getBudget",
      "outputs": [
        {
          "name": "budget",
          "type": "uint256"
        },
        {
          "name": "hasBudget",
          "type": "bool"
        }
      ],
      "payable": false,
      "stateMutability": "view",
      "type": "function"
    },
    {
      "constant": true,
      "inputs": [
        {
          "name": "_token",
          "type": "address"
        }
      ],
      "name": "getRemainingBudget",
      "outputs": [
        {
          "name": "",
          "type": "uint256"
        }
      ],
      "payable": false,
      "stateMutability": "view",
      "type": "function"
    },
    {
      "constant": true,
      "inputs": [],
      "name": "currentPeriodId",
      "outputs": [
        {
          "name": "",
          "type": "uint64"
        }
      ],
      "payable": false,
      "stateMutability": "view",
      "type": "function"
    }
  ],
  "bytecode": "0x60806040526200001d62000023640100000000026401000000009004565b62000309565b60006200003e6200015e640100000000026401000000009004565b146040805190810160405280601881526020017f494e49545f414c52454144595f494e495449414c495a4544000000000000000081525090151562000121576040517f08c379a00000000000000000000000000000000000000000000000000000000081526004018080602001828103825283818151815260200191508051906020019080838360005b83811015620000e5578082015181840152602081019050620000c8565b50505050905090810190601f168015620001135780820380516001836020036101000a031916815260200191505b509250505060405180910390fd5b506200015c7fffffffffffffffffffffffffffffffffffffffffffffffffffffffffffffffff620001ab640100000000026401000000009004565b565b6000620001a67febb05b386a8d34882b8711d156f463690983dc47815980fb82aeeff1aa43579e60010260001916620002f7640100000000026200690f176401000000009004565b905090565b6000620001c66200015e640100000000026401000000009004565b146040805190810160405280601881526020017f494e49545f414c52454144595f494e495449414c495a45440000000000000000815250901515620002a9576040517f08c379a00000000000000000000000000000000000000000000000000000000081526004018080602001828103825283818151815260200191508051906020019080838360005b838110156200026d57808201518184015260208101905062000250565b50505050905090810190601f1680156200029b5780820380516001836020036101000a031916815260200191505b509250505060405180910390fd5b50620002f4817febb05b386a8d34882b8711d156f463690983dc47815980fb82aeeff1aa43579e60010260001916620003026401000000000262007151179091906401000000009004565b50565b600081549050919050565b8082555050565b6174bb80620003196000396000f3006080604052600436106101ee576000357c0100000000000000000000000000000000000000000000000000000000900463ffffffff1680630803fac01461041a5780630842ace414610449578063162a0cf81461047c5780631798de81146104a957806318f053da1461050057806319b7d7bd146105435780632914b9bd146105a55780632d00cad31461064e5780633280a8361461068757806332f0a3b5146107d857806333ea3dc81461082f5780635985feec146109395780635b14dbc81461096c5780636436f1891461099f57806367047c4a146109cc578063671273f414610a5f5780636abe602d14610a965780636f0558b114610ad557806374bfb42614610baa5780637e7db6e114610bf757806380afdea814610c525780638b3dd74914610c855780639297d86014610cb0578063981cc34214610cf3578063988e659514610d265780639d4941d814610d65578063a1658fad14610da8578063a479e50814610e54578063a662944114610eab578063b36fec5714610efa578063bfe07da614610f39578063cb045a9614610f91578063d2d27b4114610fe6578063d4aae0c414611058578063de048a7b146110af578063de4796ed146110da578063e94ebac514611109578063eaa7ec681461113c578063eca8181714611167578063fbfa77cf146111be575b6101f6611215565b6040805190810160405280601481526020017f494e49545f4e4f545f494e495449414c495a45440000000000000000000000008152509015156102d4576040517f08c379a00000000000000000000000000000000000000000000000000000000081526004018080602001828103825283818151815260200191508051906020019080838360005b8381101561029957808201518184015260208101905061027e565b50505050905090810190601f1680156102c65780820380516001836020036101000a031916815260200191505b509250505060405180910390fd5b5060006102f16102e2611240565b67ffffffffffffffff16611268565b9050806040805190810160405280601b81526020017f46494e414e43455f434f4d504c4554455f5452414e534954494f4e00000000008152509015156103d2576040517f08c379a00000000000000000000000000000000000000000000000000000000081526004018080602001828103825283818151815260200191508051906020019080838360005b8381101561039757808201518184015260208101905061037c565b50505050905090810190601f1680156103c45780820380516001836020036101000a031916815260200191505b509250505060405180910390fd5b506104176000346040805190810160405280601d81526020017f4574686572207472616e7366657220746f2046696e616e636520617070000000815250336001611382565b50005b34801561042657600080fd5b5061042f611215565b604051808215151515815260200191505060405180910390f35b34801561045557600080fd5b5061045e611a83565b60405180826000191660001916815260200191505060405180910390f35b34801561048857600080fd5b506104a760048036038101908080359060200190929190505050611abc565b005b3480156104b557600080fd5b506104fe600480360381019080803573ffffffffffffffffffffffffffffffffffffffff169060200190929190803567ffffffffffffffff169060200190929190505050611f01565b005b34801561050c57600080fd5b50610541600480360381019080803573ffffffffffffffffffffffffffffffffffffffff16906020019092919050505061228b565b005b34801561054f57600080fd5b50610584600480360381019080803573ffffffffffffffffffffffffffffffffffffffff16906020019092919050505061265a565b60405180838152602001821515151581526020019250505060405180910390f35b3480156105b157600080fd5b5061060c600480360381019080803590602001908201803590602001908080601f01602080910402602001604051908101604052809392919081815260200183838082843782019150505050505091929192905050506126f8565b604051808273ffffffffffffffffffffffffffffffffffffffff1673ffffffffffffffffffffffffffffffffffffffff16815260200191505060405180910390f35b34801561065a57600080fd5b5061068560048036038101908080359060200190929190803515159060200190929190505050612817565b005b34801561069357600080fd5b506106b260048036038101908080359060200190929190505050612ab5565b604051808a73ffffffffffffffffffffffffffffffffffffffff1673ffffffffffffffffffffffffffffffffffffffff1681526020018973ffffffffffffffffffffffffffffffffffffffff1673ffffffffffffffffffffffffffffffffffffffff1681526020018881526020018767ffffffffffffffff1667ffffffffffffffff1681526020018667ffffffffffffffff1667ffffffffffffffff1681526020018567ffffffffffffffff1667ffffffffffffffff168152602001841515151581526020018367ffffffffffffffff1667ffffffffffffffff1681526020018273ffffffffffffffffffffffffffffffffffffffff1673ffffffffffffffffffffffffffffffffffffffff168152602001995050505050505050505060405180910390f35b3480156107e457600080fd5b506107ed612cd5565b604051808273ffffffffffffffffffffffffffffffffffffffff1673ffffffffffffffffffffffffffffffffffffffff16815260200191505060405180910390f35b34801561083b57600080fd5b5061085a60048036038101908080359060200190929190505050612d82565b604051808967ffffffffffffffff1667ffffffffffffffff1681526020018881526020018781526020018667ffffffffffffffff1667ffffffffffffffff1681526020018573ffffffffffffffffffffffffffffffffffffffff1673ffffffffffffffffffffffffffffffffffffffff1681526020018473ffffffffffffffffffffffffffffffffffffffff1673ffffffffffffffffffffffffffffffffffffffff168152602001831515151581526020018267ffffffffffffffff1667ffffffffffffffff1681526020019850505050505050505060405180910390f35b34801561094557600080fd5b5061094e612f64565b60405180826000191660001916815260200191505060405180910390f35b34801561097857600080fd5b50610981612f9d565b60405180826000191660001916815260200191505060405180910390f35b3480156109ab57600080fd5b506109ca60048036038101908080359060200190929190505050612fd6565b005b3480156109d857600080fd5b50610a01600480360381019080803567ffffffffffffffff169060200190929190505050613504565b60405180861515151581526020018567ffffffffffffffff1667ffffffffffffffff1681526020018467ffffffffffffffff1667ffffffffffffffff1681526020018381526020018281526020019550505050505060405180910390f35b348015610a6b57600080fd5b50610a94600480360381019080803567ffffffffffffffff1690602001909291905050506136b2565b005b348015610aa257600080fd5b50610aab613a74565b604051808267ffffffffffffffff1667ffffffffffffffff16815260200191505060405180910390f35b348015610ae157600080fd5b50610b94600480360381019080803573ffffffffffffffffffffffffffffffffffffffff169060200190929190803573ffffffffffffffffffffffffffffffffffffffff16906020019092919080359060200190929190803567ffffffffffffffff169060200190929190803567ffffffffffffffff169060200190929190803567ffffffffffffffff169060200190929190803590602001908201803590602001919091929391929390505050613a8e565b6040518082815260200191505060405180910390f35b348015610bb657600080fd5b50610bf5600480360381019080803573ffffffffffffffffffffffffffffffffffffffff169060200190929190803590602001909291905050506141f6565b005b348015610c0357600080fd5b50610c38600480360381019080803573ffffffffffffffffffffffffffffffffffffffff16906020019092919050505061461a565b604051808215151515815260200191505060405180910390f35b348015610c5e57600080fd5b50610c6761462c565b60405180826000191660001916815260200191505060405180910390f35b348015610c9157600080fd5b50610c9a614663565b6040518082815260200191505060405180910390f35b348015610cbc57600080fd5b50610cf1600480360381019080803573ffffffffffffffffffffffffffffffffffffffff16906020019092919050505061469a565b005b348015610cff57600080fd5b50610d08614ad6565b60405180826000191660001916815260200191505060405180910390f35b348015610d3257600080fd5b50610d3b614b0f565b604051808267ffffffffffffffff1667ffffffffffffffff16815260200191505060405180910390f35b348015610d7157600080fd5b50610da6600480360381019080803573ffffffffffffffffffffffffffffffffffffffff169060200190929190505050614c05565b005b348015610db457600080fd5b50610e3a600480360381019080803573ffffffffffffffffffffffffffffffffffffffff169060200190929190803560001916906020019092919080359060200190820180359060200190808060200260200160405190810160405280939291908181526020018383602002808284378201915050505050509192919290505050615037565b604051808215151515815260200191505060405180910390f35b348015610e6057600080fd5b50610e6961523e565b604051808273ffffffffffffffffffffffffffffffffffffffff1673ffffffffffffffffffffffffffffffffffffffff16815260200191505060405180910390f35b348015610eb757600080fd5b50610ee0600480360381019080803567ffffffffffffffff169060200190929190505050615359565b604051808215151515815260200191505060405180910390f35b348015610f0657600080fd5b50610f0f61545c565b604051808267ffffffffffffffff1667ffffffffffffffff16815260200191505060405180910390f35b610f8f600480360381019080803573ffffffffffffffffffffffffffffffffffffffff1690602001909291908035906020019092919080359060200190820180359060200191909192939192939050505061547d565b005b348015610f9d57600080fd5b50610fbc600480360381019080803590602001909291905050506156a9565b604051808267ffffffffffffffff1667ffffffffffffffff16815260200191505060405180910390f35b348015610ff257600080fd5b5061103b600480360381019080803567ffffffffffffffff169060200190929190803573ffffffffffffffffffffffffffffffffffffffff169060200190929190505050615a5e565b604051808381526020018281526020019250505060405180910390f35b34801561106457600080fd5b5061106d615bf0565b604051808273ffffffffffffffffffffffffffffffffffffffff1673ffffffffffffffffffffffffffffffffffffffff16815260200191505060405180910390f35b3480156110bb57600080fd5b506110c4615c27565b6040518082815260200191505060405180910390f35b3480156110e657600080fd5b506110ef615c2d565b604051808215151515815260200191505060405180910390f35b34801561111557600080fd5b5061111e615c5e565b60405180826000191660001916815260200191505060405180910390f35b34801561114857600080fd5b50611151615c97565b6040518082815260200191505060405180910390f35b34801561117357600080fd5b506111a8600480360381019080803573ffffffffffffffffffffffffffffffffffffffff169060200190929190505050615c9d565b6040518082815260200191505060405180910390f35b3480156111ca57600080fd5b506111d3615d96565b604051808273ffffffffffffffffffffffffffffffffffffffff1673ffffffffffffffffffffffffffffffffffffffff16815260200191505060405180910390f35b600080611220614663565b90506000811415801561123a575080611237615dbb565b10155b91505090565b60007fffffffffffffffffffffffffffffffffffffffffffffffffffffffffffffffff905090565b600080600060086000611279615dc3565b67ffffffffffffffff1667ffffffffffffffff16815260200190815260200160002091506112a5615de4565b90505b8160000160089054906101000a900467ffffffffffffffff1667ffffffffffffffff168167ffffffffffffffff1611156113765760008414156112ee576000925061137b565b611302600185615dfb90919063ffffffff16565b935060008260010154141515611331576113286001600754615dfb90919063ffffffff16565b82600201819055505b61136f61136a60018460000160089054906101000a900467ffffffffffffffff1667ffffffffffffffff16615ef090919063ffffffff16565b615ff9565b91506112a8565b600192505b5050919050565b600084116040805190810160405280601b81526020017f46494e414e43455f4445504f5349545f414d4f554e545f5a45524f0000000000815250901515611464576040517f08c379a00000000000000000000000000000000000000000000000000000000081526004018080602001828103825283818151815260200191508051906020019080838360005b8381101561142957808201518184015260208101905061140e565b50505050905090810190601f1680156114565780820380516001836020036101000a031916815260200191505b509250505060405180910390fd5b50611471858386866161d3565b801561178757600073ffffffffffffffffffffffffffffffffffffffff168573ffffffffffffffffffffffffffffffffffffffff161415156116a3578473ffffffffffffffffffffffffffffffffffffffff166323b872dd3330876040518463ffffffff167c0100000000000000000000000000000000000000000000000000000000028152600401808473ffffffffffffffffffffffffffffffffffffffff1673ffffffffffffffffffffffffffffffffffffffff1681526020018373ffffffffffffffffffffffffffffffffffffffff1673ffffffffffffffffffffffffffffffffffffffff1681526020018281526020019350505050602060405180830381600087803b15801561158457600080fd5b505af1158015611598573d6000803e3d6000fd5b505050506040513d60208110156115ae57600080fd5b81019080805190602001909291905050506040805190810160405280602081526020017f46494e414e43455f544b4e5f5452414e534645525f46524f4d5f52455645525481525090151561169d576040517f08c379a00000000000000000000000000000000000000000000000000000000081526004018080602001828103825283818151815260200191508051906020019080838360005b83811015611662578082015181840152602081019050611647565b50505050905090810190601f16801561168f5780820380516001836020036101000a031916815260200191505b509250505060405180910390fd5b50611786565b8334146040805190810160405280601681526020017f46494e414e43455f56414c55455f4d49534d4154434800000000000000000000815250901515611784576040517f08c379a00000000000000000000000000000000000000000000000000000000081526004018080602001828103825283818151815260200191508051906020019080838360005b8381101561174957808201518184015260208101905061172e565b50505050905090810190601f1680156117765780820380516001836020036101000a031916815260200191505b509250505060405180910390fd5b505b5b600073ffffffffffffffffffffffffffffffffffffffff168573ffffffffffffffffffffffffffffffffffffffff16141561189f576000809054906101000a900473ffffffffffffffffffffffffffffffffffffffff1673ffffffffffffffffffffffffffffffffffffffff166347e7ef24856000876040518463ffffffff167c0100000000000000000000000000000000000000000000000000000000028152600401808373ffffffffffffffffffffffffffffffffffffffff1673ffffffffffffffffffffffffffffffffffffffff168152602001828152602001925050506000604051808303818588803b15801561188157600080fd5b505af1158015611895573d6000803e3d6000fd5b5050505050611a7c565b8473ffffffffffffffffffffffffffffffffffffffff1663095ea7b36000809054906101000a900473ffffffffffffffffffffffffffffffffffffffff16866040518363ffffffff167c0100000000000000000000000000000000000000000000000000000000028152600401808373ffffffffffffffffffffffffffffffffffffffff1673ffffffffffffffffffffffffffffffffffffffff16815260200182815260200192505050602060405180830381600087803b15801561196357600080fd5b505af1158015611977573d6000803e3d6000fd5b505050506040513d602081101561198d57600080fd5b8101908080519060200190929190505050506000809054906101000a900473ffffffffffffffffffffffffffffffffffffffff1673ffffffffffffffffffffffffffffffffffffffff166347e7ef2486866040518363ffffffff167c0100000000000000000000000000000000000000000000000000000000028152600401808373ffffffffffffffffffffffffffffffffffffffff1673ffffffffffffffffffffffffffffffffffffffff16815260200182815260200192505050600060405180830381600087803b158015611a6357600080fd5b505af1158015611a77573d6000803e3d6000fd5b505050505b5050505050565b60405180807f4352454154455f5041594d454e54535f524f4c450000000000000000000000008152506014019050604051809103902081565b60405180807f455845435554455f5041594d454e54535f524f4c45000000000000000000000081525060150190506040518091039020611b128260046000858152602001908152602001600020600301546161ea565b611b1d338383615037565b6040805190810160405280600f81526020017f4150505f415554485f4641494c45440000000000000000000000000000000000815250901515611bfb576040517f08c379a00000000000000000000000000000000000000000000000000000000081526004018080602001828103825283818151815260200191508051906020019080838360005b83811015611bc0578082015181840152602081019050611ba5565b50505050905090810190601f168015611bed5780820380516001836020036101000a031916815260200191505b509250505060405180910390fd5b5082600081118015611c0e575060055481105b6040805190810160405280601281526020017f46494e414e43455f4e4f5f5041594d454e540000000000000000000000000000815250901515611cec576040517f08c379a00000000000000000000000000000000000000000000000000000000081526004018080602001828103825283818151815260200191508051906020019080838360005b83811015611cb1578082015181840152602081019050611c96565b50505050905090810190601f168015611cde5780820380516001836020036101000a031916815260200191505b509250505060405180910390fd5b506000611d09611cfa611240565b67ffffffffffffffff16611268565b9050806040805190810160405280601b81526020017f46494e414e43455f434f4d504c4554455f5452414e534954494f4e0000000000815250901515611dea576040517f08c379a00000000000000000000000000000000000000000000000000000000081526004018080602001828103825283818151815260200191508051906020019080838360005b83811015611daf578082015181840152602081019050611d94565b50505050905090810190601f168015611ddc5780820380516001836020036101000a031916815260200191505b509250505060405180910390fd5b50611df3615de4565b67ffffffffffffffff16611e06866156a9565b67ffffffffffffffff1611156040805190810160405280601c81526020017f46494e414e43455f455845435554455f5041594d454e545f54494d4500000000815250901515611ef0576040517f08c379a00000000000000000000000000000000000000000000000000000000081526004018080602001828103825283818151815260200191508051906020019080838360005b83811015611eb5578082015181840152602081019050611e9a565b50505050905090810190601f168015611ee25780820380516001836020036101000a031916815260200191505b509250505060405180910390fd5b50611efa85616261565b5050505050565b6000611f0b614663565b146040805190810160405280601881526020017f494e49545f414c52454144595f494e495449414c495a45440000000000000000815250901515611fea576040517f08c379a00000000000000000000000000000000000000000000000000000000081526004018080602001828103825283818151815260200191508051906020019080838360005b83811015611faf578082015181840152602081019050611f94565b50505050905090810190601f168015611fdc5780820380516001836020036101000a031916815260200191505b509250505060405180910390fd5b50611ff36164fe565b611ffc8261662b565b6040805190810160405280601a81526020017f46494e414e43455f5641554c545f4e4f545f434f4e54524143540000000000008152509015156120da576040517f08c379a00000000000000000000000000000000000000000000000000000000081526004018080602001828103825283818151815260200191508051906020019080838360005b8381101561209f578082015181840152602081019050612084565b50505050905090810190601f1680156120cc5780820380516001836020036101000a031916815260200191505b509250505060405180910390fd5b50816000806101000a81548173ffffffffffffffffffffffffffffffffffffffff021916908373ffffffffffffffffffffffffffffffffffffffff160217905550620151808167ffffffffffffffff1610156040805190810160405280601d81526020017f46494e414e43455f494e49545f504552494f445f544f4f5f53484f525400000081525090151561220a576040517f08c379a00000000000000000000000000000000000000000000000000000000081526004018080602001828103825283818151815260200191508051906020019080838360005b838110156121cf5780820151818401526020810190506121b4565b50505050905090810190601f1680156121fc5780820380516001836020036101000a031916815260200191505b509250505060405180910390fd5b5080600160000160006101000a81548167ffffffffffffffff021916908367ffffffffffffffff16021790555060016004600080815260200190815260200160002060020160146101000a81548160ff02191690831515021790555060016005819055506001600781905550612286612281615de4565b615ff9565b505050565b60405180807f4348414e47455f425544474554535f524f4c45000000000000000000000000008152506013019050604051809103902061236f8260006001800160008673ffffffffffffffffffffffffffffffffffffffff1673ffffffffffffffffffffffffffffffffffffffff16815260200190815260200160002054600160020160008773ffffffffffffffffffffffffffffffffffffffff1673ffffffffffffffffffffffffffffffffffffffff16815260200190815260200160002060009054906101000a900460ff16612364576000612367565b60015b60ff1661667d565b61237a338383615037565b6040805190810160405280600f81526020017f4150505f415554485f4641494c45440000000000000000000000000000000000815250901515612458576040517f08c379a00000000000000000000000000000000000000000000000000000000081526004018080602001828103825283818151815260200191508051906020019080838360005b8381101561241d578082015181840152602081019050612402565b50505050905090810190601f16801561244a5780820380516001836020036101000a031916815260200191505b509250505060405180910390fd5b506000612475612466611240565b67ffffffffffffffff16611268565b9050806040805190810160405280601b81526020017f46494e414e43455f434f4d504c4554455f5452414e534954494f4e0000000000815250901515612556576040517f08c379a00000000000000000000000000000000000000000000000000000000081526004018080602001828103825283818151815260200191508051906020019080838360005b8381101561251b578082015181840152602081019050612500565b50505050905090810190601f1680156125485780820380516001836020036101000a031916815260200191505b509250505060405180910390fd5b5060006001800160008673ffffffffffffffffffffffffffffffffffffffff1673ffffffffffffffffffffffffffffffffffffffff168152602001908152602001600020819055506000600160020160008673ffffffffffffffffffffffffffffffffffffffff1673ffffffffffffffffffffffffffffffffffffffff16815260200190815260200160002060006101000a81548160ff0219169083151502179055508373ffffffffffffffffffffffffffffffffffffffff167f6e768d8fe4a1460cae6d5af9382c3e9abbc41f66f2ec91fda24b12e3c2796f0360008060405180838152602001821515151581526020019250505060405180910390a250505050565b6000806001800160008473ffffffffffffffffffffffffffffffffffffffff1673ffffffffffffffffffffffffffffffffffffffff168152602001908152602001600020549150600160020160008473ffffffffffffffffffffffffffffffffffffffff1673ffffffffffffffffffffffffffffffffffffffff16815260200190815260200160002060009054906101000a900460ff169050915091565b600061270261523e565b73ffffffffffffffffffffffffffffffffffffffff166304bf2a7f836040518263ffffffff167c01000000000000000000000000000000000000000000000000000000000281526004018080602001828103825283818151815260200191508051906020019080838360005b8381101561278957808201518184015260208101905061276e565b50505050905090810190601f1680156127b65780820380516001836020036101000a031916815260200191505b5092505050602060405180830381600087803b1580156127d557600080fd5b505af11580156127e9573d6000803e3d6000fd5b505050506040513d60208110156127ff57600080fd5b81019080805190602001909291905050509050919050565b60405180807f4d414e4147455f5041594d454e54535f524f4c4500000000000000000000000081525060140190506040518091039020612868838361285d576000612860565b60015b60ff166161ea565b612873338383615037565b6040805190810160405280600f81526020017f4150505f415554485f4641494c45440000000000000000000000000000000000815250901515612951576040517f08c379a00000000000000000000000000000000000000000000000000000000081526004018080602001828103825283818151815260200191508051906020019080838360005b838110156129165780820151818401526020810190506128fb565b50505050905090810190601f1680156129435780820380516001836020036101000a031916815260200191505b509250505060405180910390fd5b5083600081118015612964575060055481105b6040805190810160405280601281526020017f46494e414e43455f4e4f5f5041594d454e540000000000000000000000000000815250901515612a42576040517f08c379a00000000000000000000000000000000000000000000000000000000081526004018080602001828103825283818151815260200191508051906020019080838360005b83811015612a075780820151818401526020810190506129ec565b50505050905090810190601f168015612a345780820380516001836020036101000a031916815260200191505b509250505060405180910390fd5b5083156004600087815260200190815260200160002060020160146101000a81548160ff021916908315150217905550847faca91836ee6e44bf1c422f7ee89afb243a4fb775d9fe87150ff5f8e566dc161285604051808215151515815260200191505060405180910390a25050505050565b6000806000806000806000806000808a600081118015612ad6575060055481105b6040805190810160405280601281526020017f46494e414e43455f4e4f5f5041594d454e540000000000000000000000000000815250901515612bb4576040517f08c379a00000000000000000000000000000000000000000000000000000000081526004018080602001828103825283818151815260200191508051906020019080838360005b83811015612b79578082015181840152602081019050612b5e565b50505050905090810190601f168015612ba65780820380516001836020036101000a031916815260200191505b509250505060405180910390fd5b50600460008d815260200190815260200160002091508160000160009054906101000a900473ffffffffffffffffffffffffffffffffffffffff169a508160010160009054906101000a900473ffffffffffffffffffffffffffffffffffffffff169950816003015498508160040160009054906101000a900467ffffffffffffffff1697508160040160089054906101000a900467ffffffffffffffff1696508160040160109054906101000a900467ffffffffffffffff1695508160040160189054906101000a900467ffffffffffffffff1693508160020160149054906101000a900460ff1694508160020160009054906101000a900473ffffffffffffffffffffffffffffffffffffffff16925050509193959799909294969850565b6000612cdf615bf0565b73ffffffffffffffffffffffffffffffffffffffff166332f0a3b56040518163ffffffff167c0100000000000000000000000000000000000000000000000000000000028152600401602060405180830381600087803b158015612d4257600080fd5b505af1158015612d56573d6000803e3d6000fd5b505050506040513d6020811015612d6c57600080fd5b8101908080519060200190929190505050905090565b600080600080600080600080600089600081118015612da2575060075481105b6040805190810160405280601681526020017f46494e414e43455f4e4f5f5452414e53414354494f4e00000000000000000000815250901515612e80576040517f08c379a00000000000000000000000000000000000000000000000000000000081526004018080602001828103825283818151815260200191508051906020019080838360005b83811015612e45578082015181840152602081019050612e2a565b50505050905090810190601f168015612e725780820380516001836020036101000a031916815260200191505b509250505060405180910390fd5b50600660008c815260200190815260200160002091508160000160009054906101000a900473ffffffffffffffffffffffffffffffffffffffff1695508160010160009054906101000a900473ffffffffffffffffffffffffffffffffffffffff1694508160010160149054906101000a900460ff1693508160040160089054906101000a900467ffffffffffffffff1692508160040160109054906101000a900467ffffffffffffffff16995081600201549850816003015497508160040160009054906101000a900467ffffffffffffffff1696505050919395975091939597565b60405180807f4348414e47455f504552494f445f524f4c4500000000000000000000000000008152506012019050604051809103902081565b60405180807f4348414e47455f425544474554535f524f4c45000000000000000000000000008152506013019050604051809103902081565b612fde611215565b6040805190810160405280601481526020017f494e49545f4e4f545f494e495449414c495a45440000000000000000000000008152509015156130bc576040517f08c379a00000000000000000000000000000000000000000000000000000000081526004018080602001828103825283818151815260200191508051906020019080838360005b83811015613081578082015181840152602081019050613066565b50505050905090810190601f1680156130ae5780820380516001836020036101000a031916815260200191505b509250505060405180910390fd5b50806000811180156130cf575060055481105b6040805190810160405280601281526020017f46494e414e43455f4e4f5f5041594d454e5400000000000000000000000000008152509015156131ad576040517f08c379a00000000000000000000000000000000000000000000000000000000081526004018080602001828103825283818151815260200191508051906020019080838360005b83811015613172578082015181840152602081019050613157565b50505050905090810190601f16801561319f5780820380516001836020036101000a031916815260200191505b509250505060405180910390fd5b5060006131ca6131bb611240565b67ffffffffffffffff16611268565b9050806040805190810160405280601b81526020017f46494e414e43455f434f4d504c4554455f5452414e534954494f4e00000000008152509015156132ab576040517f08c379a00000000000000000000000000000000000000000000000000000000081526004018080602001828103825283818151815260200191508051906020019080838360005b83811015613270578082015181840152602081019050613255565b50505050905090810190601f16801561329d5780820380516001836020036101000a031916815260200191505b509250505060405180910390fd5b506132b4615de4565b67ffffffffffffffff166132c7846156a9565b67ffffffffffffffff1611156040805190810160405280601e81526020017f46494e414e43455f524356525f455845435f5041594d454e545f54494d4500008152509015156133b1576040517f08c379a00000000000000000000000000000000000000000000000000000000081526004018080602001828103825283818151815260200191508051906020019080838360005b8381101561337657808201518184015260208101905061335b565b50505050905090810190601f1680156133a35780820380516001836020036101000a031916815260200191505b509250505060405180910390fd5b503373ffffffffffffffffffffffffffffffffffffffff166004600085815260200190815260200160002060010160009054906101000a900473ffffffffffffffffffffffffffffffffffffffff1673ffffffffffffffffffffffffffffffffffffffff16146040805190810160405280601881526020017f46494e414e43455f5041594d454e545f524543454956455200000000000000008152509015156134f5576040517f08c379a00000000000000000000000000000000000000000000000000000000081526004018080602001828103825283818151815260200191508051906020019080838360005b838110156134ba57808201518184015260208101905061349f565b50505050905090810190601f1680156134e75780820380516001836020036101000a031916815260200191505b509250505060405180910390fd5b506134ff83616261565b505050565b60008060008060008086600960009054906101000a900467ffffffffffffffff1667ffffffffffffffff168167ffffffffffffffff16106040805190810160405280601181526020017f46494e414e43455f4e4f5f504552494f44000000000000000000000000000000815250901515613619576040517f08c379a00000000000000000000000000000000000000000000000000000000081526004018080602001828103825283818151815260200191508051906020019080838360005b838110156135de5780820151818401526020810190506135c3565b50505050905090810190601f16801561360b5780820380516001836020036101000a031916815260200191505b509250505060405180910390fd5b50600860008967ffffffffffffffff1667ffffffffffffffff16815260200190815260200160002091508767ffffffffffffffff16613656615dc3565b67ffffffffffffffff161496508160000160009054906101000a900467ffffffffffffffff1695508160000160089054906101000a900467ffffffffffffffff1694508160010154935081600201549250505091939590929450565b60405180807f4348414e47455f504552494f445f524f4c4500000000000000000000000000008152506012019050604051809103902061371f8267ffffffffffffffff16600160000160009054906101000a900467ffffffffffffffff1667ffffffffffffffff166161ea565b61372a338383615037565b6040805190810160405280600f81526020017f4150505f415554485f4641494c45440000000000000000000000000000000000815250901515613808576040517f08c379a00000000000000000000000000000000000000000000000000000000081526004018080602001828103825283818151815260200191508051906020019080838360005b838110156137cd5780820151818401526020810190506137b2565b50505050905090810190601f1680156137fa5780820380516001836020036101000a031916815260200191505b509250505060405180910390fd5b506000613825613816611240565b67ffffffffffffffff16611268565b9050806040805190810160405280601b81526020017f46494e414e43455f434f4d504c4554455f5452414e534954494f4e0000000000815250901515613906576040517f08c379a00000000000000000000000000000000000000000000000000000000081526004018080602001828103825283818151815260200191508051906020019080838360005b838110156138cb5780820151818401526020810190506138b0565b50505050905090810190601f1680156138f85780820380516001836020036101000a031916815260200191505b509250505060405180910390fd5b50620151808467ffffffffffffffff1610156040805190810160405280601c81526020017f46494e414e43455f5345545f504552494f445f544f4f5f53484f5254000000008152509015156139f6576040517f08c379a00000000000000000000000000000000000000000000000000000000081526004018080602001828103825283818151815260200191508051906020019080838360005b838110156139bb5780820151818401526020810190506139a0565b50505050905090810190601f1680156139e85780820380516001836020036101000a031916815260200191505b509250505060405180910390fd5b5083600160000160006101000a81548167ffffffffffffffff021916908367ffffffffffffffff1602179055507fa32389dd0d5a3bf7cc635f8c30fee3b70d06a6c547d6dbf31628378ee267bfc984604051808267ffffffffffffffff1667ffffffffffffffff16815260200191505060405180910390a150505050565b600960009054906101000a900467ffffffffffffffff1681565b60008060405180807f4352454154455f5041594d454e54535f524f4c4500000000000000000000000081525060140190506040518091039020613ae88b8b8b8a67ffffffffffffffff168a67ffffffffffffffff166166ab565b613af3338383615037565b6040805190810160405280600f81526020017f4150505f415554485f4641494c45440000000000000000000000000000000000815250901515613bd1576040517f08c379a00000000000000000000000000000000000000000000000000000000081526004018080602001828103825283818151815260200191508051906020019080838360005b83811015613b96578082015181840152602081019050613b7b565b50505050905090810190601f168015613bc35780820380516001836020036101000a031916815260200191505b509250505060405180910390fd5b506000613bee613bdf611240565b67ffffffffffffffff16611268565b9050806040805190810160405280601b81526020017f46494e414e43455f434f4d504c4554455f5452414e534954494f4e0000000000815250901515613ccf576040517f08c379a00000000000000000000000000000000000000000000000000000000081526004018080602001828103825283818151815260200191508051906020019080838360005b83811015613c94578082015181840152602081019050613c79565b50505050905090810190601f168015613cc15780820380516001836020036101000a031916815260200191505b509250505060405180910390fd5b5060008b116040805190810160405280601f81526020017f46494e414e43455f4e45575f5041594d454e545f414d4f554e545f5a45524f00815250901515613db2576040517f08c379a00000000000000000000000000000000000000000000000000000000081526004018080602001828103825283818151815260200191508051906020019080838360005b83811015613d77578082015181840152602081019050613d5c565b50505050905090810190601f168015613da45780820380516001836020036101000a031916815260200191505b509250505060405180910390fd5b50613dbb615de4565b67ffffffffffffffff168a67ffffffffffffffff1611158015613de8575060018867ffffffffffffffff16145b15613e3357613e2e8d8d8d6000808c8c8080601f0160208091040260200160405190810160405280939291908181526020018383808284378201915050505050506166f1565b6141e6565b8a6001800160008f73ffffffffffffffffffffffffffffffffffffffff1673ffffffffffffffffffffffffffffffffffffffff16815260200190815260200160002054101580613ed05750600160020160008e73ffffffffffffffffffffffffffffffffffffffff1673ffffffffffffffffffffffffffffffffffffffff16815260200190815260200160002060009054906101000a900460ff16155b6040805190810160405280600e81526020017f46494e414e43455f425544474554000000000000000000000000000000000000815250901515613fae576040517f08c379a00000000000000000000000000000000000000000000000000000000081526004018080602001828103825283818151815260200191508051906020019080838360005b83811015613f73578082015181840152602081019050613f58565b50505050905090810190601f168015613fa05780820380516001836020036101000a031916815260200191505b509250505060405180910390fd5b50600560008154809291906001019190505594508b73ffffffffffffffffffffffffffffffffffffffff16857f41e8c14bdf2b044354d788d944b364e1de0b64aeddeba755b8ef69ab68bd90838a8a8a604051808467ffffffffffffffff1667ffffffffffffffff168152602001806020018281038252848482818152602001925080828437820191505094505050505060405180910390a36004600086815260200190815260200160002093508c8460000160006101000a81548173ffffffffffffffffffffffffffffffffffffffff021916908373ffffffffffffffffffffffffffffffffffffffff1602179055508b8460010160006101000a81548173ffffffffffffffffffffffffffffffffffffffff021916908373ffffffffffffffffffffffffffffffffffffffff1602179055508a8460030181905550898460040160006101000a81548167ffffffffffffffff021916908367ffffffffffffffff160217905550888460040160086101000a81548167ffffffffffffffff021916908367ffffffffffffffff160217905550878460040160106101000a81548167ffffffffffffffff021916908367ffffffffffffffff160217905550338460020160006101000a81548173ffffffffffffffffffffffffffffffffffffffff021916908373ffffffffffffffffffffffffffffffffffffffff1602179055506141b7615de4565b67ffffffffffffffff166141ca866156a9565b67ffffffffffffffff161115156141e5576141e485616261565b5b5b5050505098975050505050505050565b60405180807f4348414e47455f425544474554535f524f4c4500000000000000000000000000815250601301905060405180910390206142d983836001800160008773ffffffffffffffffffffffffffffffffffffffff1673ffffffffffffffffffffffffffffffffffffffff16815260200190815260200160002054600160020160008873ffffffffffffffffffffffffffffffffffffffff1673ffffffffffffffffffffffffffffffffffffffff16815260200190815260200160002060009054906101000a900460ff166142ce5760006142d1565b60015b60ff1661667d565b6142e4338383615037565b6040805190810160405280600f81526020017f4150505f415554485f4641494c454400000000000000000000000000000000008152509015156143c2576040517f08c379a00000000000000000000000000000000000000000000000000000000081526004018080602001828103825283818151815260200191508051906020019080838360005b8381101561438757808201518184015260208101905061436c565b50505050905090810190601f1680156143b45780820380516001836020036101000a031916815260200191505b509250505060405180910390fd5b5060006143df6143d0611240565b67ffffffffffffffff16611268565b9050806040805190810160405280601b81526020017f46494e414e43455f434f4d504c4554455f5452414e534954494f4e00000000008152509015156144c0576040517f08c379a00000000000000000000000000000000000000000000000000000000081526004018080602001828103825283818151815260200191508051906020019080838360005b8381101561448557808201518184015260208101905061446a565b50505050905090810190601f1680156144b25780820380516001836020036101000a031916815260200191505b509250505060405180910390fd5b50836001800160008773ffffffffffffffffffffffffffffffffffffffff1673ffffffffffffffffffffffffffffffffffffffff16815260200190815260200160002081905550600160020160008673ffffffffffffffffffffffffffffffffffffffff1673ffffffffffffffffffffffffffffffffffffffff16815260200190815260200160002060009054906101000a900460ff1615156145b85760018060020160008773ffffffffffffffffffffffffffffffffffffffff1673ffffffffffffffffffffffffffffffffffffffff16815260200190815260200160002060006101000a81548160ff0219169083151502179055505b8473ffffffffffffffffffffffffffffffffffffffff167f6e768d8fe4a1460cae6d5af9382c3e9abbc41f66f2ec91fda24b12e3c2796f0385600160405180838152602001821515151581526020019250505060405180910390a25050505050565b6000614624611215565b159050919050565b600061465e7fd625496217aa6a3453eecb9c3489dc5a53e6c67b444329ea2b2cbc9ff547639b60010260001916616904565b905090565b60006146957febb05b386a8d34882b8711d156f463690983dc47815980fb82aeeff1aa43579e6001026000191661690f565b905090565b60006146a4611215565b6040805190810160405280601481526020017f494e49545f4e4f545f494e495449414c495a4544000000000000000000000000815250901515614782576040517f08c379a00000000000000000000000000000000000000000000000000000000081526004018080602001828103825283818151815260200191508051906020019080838360005b8381101561474757808201518184015260208101905061472c565b50505050905090810190601f1680156147745780820380516001836020036101000a031916815260200191505b509250505060405180910390fd5b50600061479f614790611240565b67ffffffffffffffff16611268565b9050806040805190810160405280601b81526020017f46494e414e43455f434f4d504c4554455f5452414e534954494f4e0000000000815250901515614880576040517f08c379a00000000000000000000000000000000000000000000000000000000081526004018080602001828103825283818151815260200191508051906020019080838360005b8381101561484557808201518184015260208101905061482a565b50505050905090810190601f1680156148725780820380516001836020036101000a031916815260200191505b509250505060405180910390fd5b50600073ffffffffffffffffffffffffffffffffffffffff168373ffffffffffffffffffffffffffffffffffffffff1614614990578273ffffffffffffffffffffffffffffffffffffffff166370a08231306040518263ffffffff167c0100000000000000000000000000000000000000000000000000000000028152600401808273ffffffffffffffffffffffffffffffffffffffff1673ffffffffffffffffffffffffffffffffffffffff168152602001915050602060405180830381600087803b15801561495057600080fd5b505af1158015614964573d6000803e3d6000fd5b505050506040513d602081101561497a57600080fd5b81019080805190602001909291905050506149a9565b3073ffffffffffffffffffffffffffffffffffffffff16315b9150600082116040805190810160405280601b81526020017f46494e414e43455f5245434f5645525f414d4f554e545f5a45524f0000000000815250901515614a8d576040517f08c379a00000000000000000000000000000000000000000000000000000000081526004018080602001828103825283818151815260200191508051906020019080838360005b83811015614a52578082015181840152602081019050614a37565b50505050905090810190601f168015614a7f5780820380516001836020036101000a031916815260200191505b509250505060405180910390fd5b50614ad183836040805190810160405280601081526020017f5265636f76657220746f205661756c7400000000000000000000000000000000815250306000611382565b505050565b60405180807f455845435554455f5041594d454e54535f524f4c4500000000000000000000008152506015019050604051809103902081565b6000614b19611215565b6040805190810160405280601481526020017f494e49545f4e4f545f494e495449414c495a4544000000000000000000000000815250901515614bf7576040517f08c379a00000000000000000000000000000000000000000000000000000000081526004018080602001828103825283818151815260200191508051906020019080838360005b83811015614bbc578082015181840152602081019050614ba1565b50505050905090810190601f168015614be95780820380516001836020036101000a031916815260200191505b509250505060405180910390fd5b50614c00615dc3565b905090565b600080614c118361461a565b6040805190810160405280601281526020017f5245434f5645525f444953414c4c4f5745440000000000000000000000000000815250901515614cef576040517f08c379a00000000000000000000000000000000000000000000000000000000081526004018080602001828103825283818151815260200191508051906020019080838360005b83811015614cb4578082015181840152602081019050614c99565b50505050905090810190601f168015614ce15780820380516001836020036101000a031916815260200191505b509250505060405180910390fd5b50614cf8612cd5565b9150614d038261662b565b6040805190810160405280601a81526020017f5245434f5645525f5641554c545f4e4f545f434f4e5452414354000000000000815250901515614de1576040517f08c379a00000000000000000000000000000000000000000000000000000000081526004018080602001828103825283818151815260200191508051906020019080838360005b83811015614da6578082015181840152602081019050614d8b565b50505050905090810190601f168015614dd35780820380516001836020036101000a031916815260200191505b509250505060405180910390fd5b50600073ffffffffffffffffffffffffffffffffffffffff168373ffffffffffffffffffffffffffffffffffffffff161415614e7a578173ffffffffffffffffffffffffffffffffffffffff166108fc3073ffffffffffffffffffffffffffffffffffffffff16319081150290604051600060405180830381858888f19350505050158015614e74573d6000803e3d6000fd5b50615032565b8273ffffffffffffffffffffffffffffffffffffffff166370a08231306040518263ffffffff167c0100000000000000000000000000000000000000000000000000000000028152600401808273ffffffffffffffffffffffffffffffffffffffff1673ffffffffffffffffffffffffffffffffffffffff168152602001915050602060405180830381600087803b158015614f1557600080fd5b505af1158015614f29573d6000803e3d6000fd5b505050506040513d6020811015614f3f57600080fd5b810190808051906020019092919050505090508273ffffffffffffffffffffffffffffffffffffffff1663a9059cbb83836040518363ffffffff167c0100000000000000000000000000000000000000000000000000000000028152600401808373ffffffffffffffffffffffffffffffffffffffff1673ffffffffffffffffffffffffffffffffffffffff16815260200182815260200192505050602060405180830381600087803b158015614ff557600080fd5b505af1158015615009573d6000803e3d6000fd5b505050506040513d602081101561501f57600080fd5b8101908080519060200190929190505050505b505050565b60008060606000615046611215565b15156150555760009350615234565b61505d615bf0565b9250600073ffffffffffffffffffffffffffffffffffffffff168373ffffffffffffffffffffffffffffffffffffffff16141561509d5760009350615234565b602085510290508491508082528273ffffffffffffffffffffffffffffffffffffffff1663fdef9106883089866040518563ffffffff167c0100000000000000000000000000000000000000000000000000000000028152600401808573ffffffffffffffffffffffffffffffffffffffff1673ffffffffffffffffffffffffffffffffffffffff1681526020018473ffffffffffffffffffffffffffffffffffffffff1673ffffffffffffffffffffffffffffffffffffffff168152602001836000191660001916815260200180602001828103825283818151815260200191508051906020019080838360005b838110156151a757808201518184015260208101905061518c565b50505050905090810190601f1680156151d45780820380516001836020036101000a031916815260200191505b5095505050505050602060405180830381600087803b1580156151f657600080fd5b505af115801561520a573d6000803e3d6000fd5b505050506040513d602081101561522057600080fd5b810190808051906020019092919050505093505b5050509392505050565b600080615249615bf0565b73ffffffffffffffffffffffffffffffffffffffff1663be00bbd87fd6f028ca0e8edb4a8c9757ca4fdccab25fa1e0317da1188108f7d2dee14902fb6001027fddbcfd564f642ab5627cf68b9b7d374fb4f8a36e941a75d89c87998cef03bd616001026040518363ffffffff167c0100000000000000000000000000000000000000000000000000000000028152600401808360001916600019168152602001826000191660001916815260200192505050602060405180830381600087803b15801561531557600080fd5b505af1158015615329573d6000803e3d6000fd5b505050506040513d602081101561533f57600080fd5b810190808051906020019092919050505090508091505090565b6000615363611215565b6040805190810160405280601481526020017f494e49545f4e4f545f494e495449414c495a4544000000000000000000000000815250901515615441576040517f08c379a00000000000000000000000000000000000000000000000000000000081526004018080602001828103825283818151815260200191508051906020019080838360005b838110156154065780820151818401526020810190506153eb565b50505050905090810190601f1680156154335780820380516001836020036101000a031916815260200191505b509250505060405180910390fd5b506154558267ffffffffffffffff16611268565b9050919050565b6000600160000160009054906101000a900467ffffffffffffffff16905090565b615485611215565b6040805190810160405280601481526020017f494e49545f4e4f545f494e495449414c495a4544000000000000000000000000815250901515615563576040517f08c379a00000000000000000000000000000000000000000000000000000000081526004018080602001828103825283818151815260200191508051906020019080838360005b8381101561552857808201518184015260208101905061550d565b50505050905090810190601f1680156155555780820380516001836020036101000a031916815260200191505b509250505060405180910390fd5b506000615580615571611240565b67ffffffffffffffff16611268565b9050806040805190810160405280601b81526020017f46494e414e43455f434f4d504c4554455f5452414e534954494f4e0000000000815250901515615661576040517f08c379a00000000000000000000000000000000000000000000000000000000081526004018080602001828103825283818151815260200191508051906020019080838360005b8381101561562657808201518184015260208101905061560b565b50505050905090810190601f1680156156535780820380516001836020036101000a031916815260200191505b509250505060405180910390fd5b506156a2858585858080601f016020809104026020016040519081016040528093929190818152602001838380828437820191505050505050336001611382565b5050505050565b60006156b36173d6565b600080846000811180156156c8575060055481105b6040805190810160405280601281526020017f46494e414e43455f4e4f5f5041594d454e5400000000000000000000000000008152509015156157a6576040517f08c379a00000000000000000000000000000000000000000000000000000000081526004018080602001828103825283818151815260200191508051906020019080838360005b8381101561576b578082015181840152602081019050615750565b50505050905090810190601f1680156157985780820380516001836020036101000a031916815260200191505b509250505060405180910390fd5b506004600087815260200190815260200160002061012060405190810160405290816000820160009054906101000a900473ffffffffffffffffffffffffffffffffffffffff1673ffffffffffffffffffffffffffffffffffffffff1673ffffffffffffffffffffffffffffffffffffffff1681526020016001820160009054906101000a900473ffffffffffffffffffffffffffffffffffffffff1673ffffffffffffffffffffffffffffffffffffffff1673ffffffffffffffffffffffffffffffffffffffff1681526020016002820160009054906101000a900473ffffffffffffffffffffffffffffffffffffffff1673ffffffffffffffffffffffffffffffffffffffff1673ffffffffffffffffffffffffffffffffffffffff1681526020016002820160149054906101000a900460ff16151515158152602001600382015481526020016004820160009054906101000a900467ffffffffffffffff1667ffffffffffffffff1667ffffffffffffffff1681526020016004820160089054906101000a900467ffffffffffffffff1667ffffffffffffffff1667ffffffffffffffff1681526020016004820160109054906101000a900467ffffffffffffffff1667ffffffffffffffff1667ffffffffffffffff1681526020016004820160189054906101000a900467ffffffffffffffff1667ffffffffffffffff1667ffffffffffffffff168152505093508360e0015167ffffffffffffffff1684610100015167ffffffffffffffff16101515615a06577fffffffffffffffffffffffffffffffffffffffffffffffffffffffffffffffff9450615a55565b615a2c8460c0015185610100015167ffffffffffffffff1661691a90919063ffffffff16565b9250615a4f838560a0015167ffffffffffffffff16615ef090919063ffffffff16565b91508194505b50505050919050565b600080600084600960009054906101000a900467ffffffffffffffff1667ffffffffffffffff168167ffffffffffffffff16106040805190810160405280601181526020017f46494e414e43455f4e4f5f504552494f44000000000000000000000000000000815250901515615b6f576040517f08c379a00000000000000000000000000000000000000000000000000000000081526004018080602001828103825283818151815260200191508051906020019080838360005b83811015615b34578082015181840152602081019050615b19565b50505050905090810190601f168015615b615780820380516001836020036101000a031916815260200191505b509250505060405180910390fd5b50600860008767ffffffffffffffff1667ffffffffffffffff16815260200190815260200160002060030160008673ffffffffffffffffffffffffffffffffffffffff1673ffffffffffffffffffffffffffffffffffffffff1681526020019081526020016000209150816000015493508160010154925050509250929050565b6000615c227f4172f0f7d2289153072b0a6ca36959e0cbe2efc3afe50fc81636caa96338137b60010260001916616a2b565b905090565b60055481565b60007fffffffffffffffffffffffffffffffffffffffffffffffffffffffffffffffff615c58614663565b14905090565b60405180807f4d414e4147455f5041594d454e54535f524f4c450000000000000000000000008152506014019050604051809103902081565b60075481565b6000615ca7611215565b6040805190810160405280601481526020017f494e49545f4e4f545f494e495449414c495a4544000000000000000000000000815250901515615d85576040517f08c379a00000000000000000000000000000000000000000000000000000000081526004018080602001828103825283818151815260200191508051906020019080838360005b83811015615d4a578082015181840152602081019050615d2f565b50505050905090810190601f168015615d775780820380516001836020036101000a031916815260200191505b509250505060405180910390fd5b50615d8f82616a36565b9050919050565b6000809054906101000a900473ffffffffffffffffffffffffffffffffffffffff1681565b600043905090565b60006001600960009054906101000a900467ffffffffffffffff1603905090565b6000615df6615df1616bdb565b616be3565b905090565b600080838311156040805190810160405280601281526020017f4d4154485f5355425f554e444552464c4f570000000000000000000000000000815250901515615ee0576040517f08c379a00000000000000000000000000000000000000000000000000000000081526004018080602001828103825283818151815260200191508051906020019080838360005b83811015615ea5578082015181840152602081019050615e8a565b50505050905090810190601f168015615ed25780820380516001836020036101000a031916815260200191505b509250505060405180910390fd5b5082840390508091505092915050565b60008082840190508367ffffffffffffffff168167ffffffffffffffff1610156040805190810160405280601381526020017f4d41544836345f4144445f4f564552464c4f5700000000000000000000000000815250901515615fee576040517f08c379a00000000000000000000000000000000000000000000000000000000081526004018080602001828103825283818151815260200191508051906020019080838360005b83811015615fb3578082015181840152602081019050615f98565b50505050905090810190601f168015615fe05780820380516001836020036101000a031916815260200191505b509250505060405180910390fd5b508091505092915050565b6000806000806009600081819054906101000a900467ffffffffffffffff168092919060010191906101000a81548167ffffffffffffffff021916908367ffffffffffffffff1602179055509250600860008467ffffffffffffffff1667ffffffffffffffff1681526020019081526020016000209150848260000160006101000a81548167ffffffffffffffff021916908367ffffffffffffffff16021790555060018060000160009054906101000a900467ffffffffffffffff1686010390508467ffffffffffffffff168167ffffffffffffffff1610156160fb577fffffffffffffffffffffffffffffffffffffffffffffffffffffffffffffffff90505b808260000160086101000a81548167ffffffffffffffff021916908367ffffffffffffffff1602179055508267ffffffffffffffff167fe183df4530c4b573af76d47f020d4b86e418cef40ed4c9ce924b563e791b832c8360000160009054906101000a900467ffffffffffffffff168460000160089054906101000a900467ffffffffffffffff16604051808367ffffffffffffffff1667ffffffffffffffff1681526020018267ffffffffffffffff1667ffffffffffffffff1681526020019250505060405180910390a2819350505050919050565b6161e4600185858560008087616cfa565b50505050565b6060600260405190808252806020026020018201604052801561621c5781602001602082028038833980820191505090505b5090508281600081518110151561622f57fe5b90602001906020020181815250508181600181518110151561624d57fe5b906020019060200201818152505092915050565b6000806004600084815260200190815260200160002091508160020160149054906101000a900460ff16156040805190810160405280601881526020017f46494e414e43455f5041594d454e545f494e414354495645000000000000000081525090151561636a576040517f08c379a00000000000000000000000000000000000000000000000000000000081526004018080602001828103825283818151815260200191508051906020019080838360005b8381101561632f578082015181840152602081019050616314565b50505050905090810190601f16801561635c5780820380516001836020036101000a031916815260200191505b509250505060405180910390fd5b50600090505b616378615de4565b67ffffffffffffffff1661638b846156a9565b67ffffffffffffffff16111580156163ad575060148167ffffffffffffffff16105b156164f8576163e48260000160009054906101000a900473ffffffffffffffffffffffffffffffffffffffff168360030154617039565b1515616426577f5f352e4123f4620cacbb8eb0dd683705aaa3e1f9384adbbd85b665b205097f51836040518082815260200191505060405180910390a16164f9565b60018260040160188282829054906101000a900467ffffffffffffffff160192506101000a81548167ffffffffffffffff021916908367ffffffffffffffff1602179055506001810190506164f38260000160009054906101000a900473ffffffffffffffffffffffffffffffffffffffff168360010160009054906101000a900473ffffffffffffffffffffffffffffffffffffffff168460030154868660040160189054906101000a900467ffffffffffffffff1660206040519081016040528060008152506166f1565b616370565b5b505050565b6000616508614663565b146040805190810160405280601881526020017f494e49545f414c52454144595f494e495449414c495a454400000000000000008152509015156165e7576040517f08c379a00000000000000000000000000000000000000000000000000000000081526004018080602001828103825283818151815260200191508051906020019080838360005b838110156165ac578082015181840152602081019050616591565b50505050905090810190601f1680156165d95780820380516001836020036101000a031916815260200191505b509250505060405180910390fd5b506166296165f3615dbb565b7febb05b386a8d34882b8711d156f463690983dc47815980fb82aeeff1aa43579e6001026000191661715190919063ffffffff16565b565b600080600073ffffffffffffffffffffffffffffffffffffffff168373ffffffffffffffffffffffffffffffffffffffff16141561666c5760009150616677565b823b90506000811191505b50919050565b60606166a18573ffffffffffffffffffffffffffffffffffffffff16858585617158565b9050949350505050565b60606166e68673ffffffffffffffffffffffffffffffffffffffff168673ffffffffffffffffffffffffffffffffffffffff1686868661720d565b905095945050505050565b836166fb87616a36565b10156040805190810160405280601881526020017f46494e414e43455f52454d41494e494e475f42554447455400000000000000008152509015156167db576040517f08c379a00000000000000000000000000000000000000000000000000000000081526004018080602001828103825283818151815260200191508051906020019080838360005b838110156167a0578082015181840152602081019050616785565b50505050905090810190601f1680156167cd5780820380516001836020036101000a031916815260200191505b509250505060405180910390fd5b506167ec6000878787878787616cfa565b6000809054906101000a900473ffffffffffffffffffffffffffffffffffffffff1673ffffffffffffffffffffffffffffffffffffffff1663beabacc88787876040518463ffffffff167c0100000000000000000000000000000000000000000000000000000000028152600401808473ffffffffffffffffffffffffffffffffffffffff1673ffffffffffffffffffffffffffffffffffffffff1681526020018373ffffffffffffffffffffffffffffffffffffffff1673ffffffffffffffffffffffffffffffffffffffff1681526020018281526020019350505050600060405180830381600087803b1580156168e457600080fd5b505af11580156168f8573d6000803e3d6000fd5b50505050505050505050565b600081549050919050565b600081549050919050565b6000808267ffffffffffffffff168467ffffffffffffffff160290506801000000000000000081106040805190810160405280601381526020017f4d41544836345f4d554c5f4f564552464c4f5700000000000000000000000000815250901515616a20576040517f08c379a00000000000000000000000000000000000000000000000000000000081526004018080602001828103825283818151815260200191508051906020019080838360005b838110156169e55780820151818401526020810190506169ca565b50505050905090810190601f168015616a125780820380516001836020036101000a031916815260200191505b509250505060405180910390fd5b508091505092915050565b600081549050919050565b600080600160020160008473ffffffffffffffffffffffffffffffffffffffff1673ffffffffffffffffffffffffffffffffffffffff16815260200190815260200160002060009054906101000a900460ff161515616ab7577fffffffffffffffffffffffffffffffffffffffffffffffffffffffffffffffff9150616bd5565b60086000616ac3615dc3565b67ffffffffffffffff1667ffffffffffffffff16815260200190815260200160002060030160008473ffffffffffffffffffffffffffffffffffffffff1673ffffffffffffffffffffffffffffffffffffffff1681526020019081526020016000206000015490506001800160008473ffffffffffffffffffffffffffffffffffffffff1673ffffffffffffffffffffffffffffffffffffffff1681526020019081526020016000205481101515616b7e5760009150616bd5565b616bd2816001800160008673ffffffffffffffffffffffffffffffffffffffff1673ffffffffffffffffffffffffffffffffffffffff16815260200190815260200160002054615dfb90919063ffffffff16565b91505b50919050565b600042905090565b60007fffffffffffffffffffffffffffffffffffffffffffffffffffffffffffffffff67ffffffffffffffff168211156040805190810160405280601581526020017f55494e5436345f4e554d4245525f544f4f5f4249470000000000000000000000815250901515616cf1576040517f08c379a00000000000000000000000000000000000000000000000000000000081526004018080602001828103825283818151815260200191508051906020019080838360005b83811015616cb6578082015181840152602081019050616c9b565b50505050905090810190601f168015616ce35780820380516001836020036101000a031916815260200191505b509250505060405180910390fd5b50819050919050565b6000806000806000616d0a615dc3565b9450600860008667ffffffffffffffff1667ffffffffffffffff16815260200190815260200160002060030160008c73ffffffffffffffffffffffffffffffffffffffff1673ffffffffffffffffffffffffffffffffffffffff16815260200190815260200160002093508b15616d9f57616d928985600101546172e190919063ffffffff16565b8460010181905550616dbf565b616db68985600001546172e190919063ffffffff16565b84600001819055505b600760008154809291906001019190505592506006600084815260200190815260200160002091508a8260000160006101000a81548173ffffffffffffffffffffffffffffffffffffffff021916908373ffffffffffffffffffffffffffffffffffffffff160217905550898260010160006101000a81548173ffffffffffffffffffffffffffffffffffffffff021916908373ffffffffffffffffffffffffffffffffffffffff1602179055508b8260010160146101000a81548160ff021916908315150217905550888260020181905550878260030181905550868260040160006101000a81548167ffffffffffffffff021916908367ffffffffffffffff160217905550616ece615de4565b8260040160086101000a81548167ffffffffffffffff021916908367ffffffffffffffff160217905550848260040160106101000a81548167ffffffffffffffff021916908367ffffffffffffffff160217905550600860008667ffffffffffffffff1667ffffffffffffffff1681526020019081526020016000209050600081600101541415616f63578281600101819055505b8973ffffffffffffffffffffffffffffffffffffffff16837f5b2c6f4cb53711ae51d600df17fa68f8239b4a704f766c99642f667d1d7bd40e8e8c8a604051808415151515815260200183815260200180602001828103825283818151815260200191508051906020019080838360005b83811015616fef578082015181840152602081019050616fd4565b50505050905090810190601f16801561701c5780820380516001836020036101000a031916815260200191505b5094505050505060405180910390a3505050505050505050505050565b60008161704584616a36565b101580156171495750816000809054906101000a900473ffffffffffffffffffffffffffffffffffffffff1673ffffffffffffffffffffffffffffffffffffffff1663e3d670d7856040518263ffffffff167c0100000000000000000000000000000000000000000000000000000000028152600401808273ffffffffffffffffffffffffffffffffffffffff1673ffffffffffffffffffffffffffffffffffffffff168152602001915050602060405180830381600087803b15801561710b57600080fd5b505af115801561711f573d6000803e3d6000fd5b505050506040513d602081101561713557600080fd5b810190808051906020019092919050505010155b905092915050565b8082555050565b6060600460405190808252806020026020018201604052801561718a5781602001602082028038833980820191505090505b5090508481600081518110151561719d57fe5b9060200190602002018181525050838160018151811015156171bb57fe5b9060200190602002018181525050828160028151811015156171d957fe5b9060200190602002018181525050818160038151811015156171f757fe5b9060200190602002018181525050949350505050565b6060600560405190808252806020026020018201604052801561723f5781602001602082028038833980820191505090505b5090508581600081518110151561725257fe5b90602001906020020181815250508481600181518110151561727057fe5b90602001906020020181815250508381600281518110151561728e57fe5b9060200190602002018181525050828160038151811015156172ac57fe5b9060200190602002018181525050818160048151811015156172ca57fe5b906020019060200201818152505095945050505050565b6000808284019050838110156040805190810160405280601181526020017f4d4154485f4144445f4f564552464c4f570000000000000000000000000000008152509015156173cb576040517f08c379a00000000000000000000000000000000000000000000000000000000081526004018080602001828103825283818151815260200191508051906020019080838360005b83811015617390578082015181840152602081019050617375565b50505050905090810190601f1680156173bd5780820380516001836020036101000a031916815260200191505b509250505060405180910390fd5b508091505092915050565b61012060405190810160405280600073ffffffffffffffffffffffffffffffffffffffff168152602001600073ffffffffffffffffffffffffffffffffffffffff168152602001600073ffffffffffffffffffffffffffffffffffffffff16815260200160001515815260200160008152602001600067ffffffffffffffff168152602001600067ffffffffffffffff168152602001600067ffffffffffffffff168152602001600067ffffffffffffffff16815250905600a165627a7a723058206e31d7c54339cc83b9ec8db70483620bf154eeece59137a49b72a95f560003320029",
  "source": "/*\n * SPDX-License-Identitifer:    GPL-3.0-or-later\n */\n\npragma solidity 0.4.24;\n\nimport \"@aragon/os/contracts/apps/AragonApp.sol\";\nimport \"@aragon/os/contracts/common/EtherTokenConstant.sol\";\nimport \"@aragon/os/contracts/common/IsContract.sol\";\n\nimport \"@aragon/os/contracts/lib/token/ERC20.sol\";\nimport \"@aragon/os/contracts/lib/math/SafeMath.sol\";\nimport \"@aragon/os/contracts/lib/math/SafeMath64.sol\";\n\nimport \"@aragon/apps-vault/contracts/Vault.sol\";\n\n\ncontract Finance is EtherTokenConstant, IsContract, AragonApp {\n    using SafeMath for uint256;\n    using SafeMath64 for uint64;\n\n    bytes32 public constant CREATE_PAYMENTS_ROLE = keccak256(\"CREATE_PAYMENTS_ROLE\");\n    bytes32 public constant CHANGE_PERIOD_ROLE = keccak256(\"CHANGE_PERIOD_ROLE\");\n    bytes32 public constant CHANGE_BUDGETS_ROLE = keccak256(\"CHANGE_BUDGETS_ROLE\");\n    bytes32 public constant EXECUTE_PAYMENTS_ROLE = keccak256(\"EXECUTE_PAYMENTS_ROLE\");\n    bytes32 public constant MANAGE_PAYMENTS_ROLE = keccak256(\"MANAGE_PAYMENTS_ROLE\");\n\n    uint256 internal constant NO_PAYMENT = 0;\n    uint256 internal constant NO_TRANSACTION = 0;\n    uint256 internal constant MAX_PAYMENTS_PER_TX = 20;\n    uint256 internal constant MAX_UINT = uint256(-1);\n    uint64 internal constant MAX_UINT64 = uint64(-1);\n\n    string private constant ERROR_COMPLETE_TRANSITION = \"FINANCE_COMPLETE_TRANSITION\";\n    string private constant ERROR_NO_PAYMENT = \"FINANCE_NO_PAYMENT\";\n    string private constant ERROR_NO_TRANSACTION = \"FINANCE_NO_TRANSACTION\";\n    string private constant ERROR_NO_PERIOD = \"FINANCE_NO_PERIOD\";\n    string private constant ERROR_VAULT_NOT_CONTRACT = \"FINANCE_VAULT_NOT_CONTRACT\";\n    string private constant ERROR_INIT_PERIOD_TOO_SHORT = \"FINANCE_INIT_PERIOD_TOO_SHORT\";\n    string private constant ERROR_SET_PERIOD_TOO_SHORT = \"FINANCE_SET_PERIOD_TOO_SHORT\";\n    string private constant ERROR_NEW_PAYMENT_AMOUNT_ZERO = \"FINANCE_NEW_PAYMENT_AMOUNT_ZERO\";\n    string private constant ERROR_RECOVER_AMOUNT_ZERO = \"FINANCE_RECOVER_AMOUNT_ZERO\";\n    string private constant ERROR_DEPOSIT_AMOUNT_ZERO = \"FINANCE_DEPOSIT_AMOUNT_ZERO\";\n    string private constant ERROR_BUDGET = \"FINANCE_BUDGET\";\n    string private constant ERROR_EXECUTE_PAYMENT_TIME = \"FINANCE_EXECUTE_PAYMENT_TIME\";\n    string private constant ERROR_RECEIVER_EXECUTE_PAYMENT_TIME = \"FINANCE_RCVR_EXEC_PAYMENT_TIME\";\n    string private constant ERROR_PAYMENT_RECEIVER = \"FINANCE_PAYMENT_RECEIVER\";\n    string private constant ERROR_TOKEN_TRANSFER_FROM_REVERTED = \"FINANCE_TKN_TRANSFER_FROM_REVERT\";\n    string private constant ERROR_VALUE_MISMATCH = \"FINANCE_VALUE_MISMATCH\";\n    string private constant ERROR_PAYMENT_INACTIVE = \"FINANCE_PAYMENT_INACTIVE\";\n    string private constant ERROR_REMAINING_BUDGET = \"FINANCE_REMAINING_BUDGET\";\n\n    // Order optimized for storage\n    struct Payment {\n        address token;\n        address receiver;\n        address createdBy;\n        bool inactive;\n        uint256 amount;\n        uint64 initialPaymentTime;\n        uint64 interval;\n        uint64 maxRepeats;\n        uint64 repeats;\n    }\n\n    // Order optimized for storage\n    struct Transaction {\n        address token;\n        address entity;\n        bool isIncoming;\n        uint256 amount;\n        uint256 paymentId;\n        uint64 paymentRepeatNumber;\n        uint64 date;\n        uint64 periodId;\n    }\n\n    struct TokenStatement {\n        uint256 expenses;\n        uint256 income;\n    }\n\n    struct Period {\n        uint64 startTime;\n        uint64 endTime;\n        uint256 firstTransactionId;\n        uint256 lastTransactionId;\n\n        mapping (address => TokenStatement) tokenStatement;\n    }\n\n    struct Settings {\n        uint64 periodDuration;\n        mapping (address => uint256) budgets;\n        mapping (address => bool) hasBudget;\n    }\n\n    Vault public vault;\n    Settings internal settings;\n\n    // We are mimicing arrays, we use mappings instead to make app upgrade more graceful\n    mapping (uint256 => Payment) internal payments;\n    // Payments start at index 1, to allow us to use payments[0] for transactions that are not\n    // linked to a recurring payment\n    uint256 public paymentsNextIndex;\n\n    mapping (uint256 => Transaction) internal transactions;\n    uint256 public transactionsNextIndex;\n\n    mapping (uint64 => Period) internal periods;\n    uint64 public periodsLength;\n\n    event NewPeriod(uint64 indexed periodId, uint64 periodStarts, uint64 periodEnds);\n    event SetBudget(address indexed token, uint256 amount, bool hasBudget);\n    event NewPayment(uint256 indexed paymentId, address indexed recipient, uint64 maxRepeats, string reference);\n    event NewTransaction(uint256 indexed transactionId, bool incoming, address indexed entity, uint256 amount, string reference);\n    event ChangePaymentState(uint256 indexed paymentId, bool inactive);\n    event ChangePeriodDuration(uint64 newDuration);\n    event PaymentFailure(uint256 paymentId);\n\n    // Modifier used by all methods that impact accounting to make sure accounting period\n    // is changed before the operation if needed\n    // NOTE: its use **MUST** be accompanied by an initialization check\n    modifier transitionsPeriod {\n        bool completeTransition = _tryTransitionAccountingPeriod(getMaxPeriodTransitions());\n        require(completeTransition, ERROR_COMPLETE_TRANSITION);\n        _;\n    }\n\n    modifier paymentExists(uint256 _paymentId) {\n        require(_paymentId > 0 && _paymentId < paymentsNextIndex, ERROR_NO_PAYMENT);\n        _;\n    }\n\n    modifier transactionExists(uint256 _transactionId) {\n        require(_transactionId > 0 && _transactionId < transactionsNextIndex, ERROR_NO_TRANSACTION);\n        _;\n    }\n\n    modifier periodExists(uint64 _periodId) {\n        require(_periodId < periodsLength, ERROR_NO_PERIOD);\n        _;\n    }\n\n    /**\n     * @dev Sends ETH to Vault. Sends all the available balance.\n     * @notice Deposit ETH to the Vault, to avoid locking them in this Finance app forever\n     */\n    function () external payable isInitialized transitionsPeriod {\n        _deposit(\n            ETH,\n            msg.value,\n            \"Ether transfer to Finance app\",\n            msg.sender,\n            true\n        );\n    }\n\n    /**\n    * @notice Initialize Finance app for Vault at `_vault` with period length of `@transformTime(_periodDuration)`\n    * @param _vault Address of the vault Finance will rely on (non changeable)\n    * @param _periodDuration Duration in seconds of each period\n    */\n    function initialize(Vault _vault, uint64 _periodDuration) external onlyInit {\n        initialized();\n\n        require(isContract(_vault), ERROR_VAULT_NOT_CONTRACT);\n        vault = _vault;\n\n        require(_periodDuration >= 1 days, ERROR_INIT_PERIOD_TOO_SHORT);\n        settings.periodDuration = _periodDuration;\n\n        // Reserve the first recurring payment index as an unused index for transactions not linked to a payment\n        payments[0].inactive = true;\n        paymentsNextIndex = 1;\n\n        // Reserve the first transaction index as an unused index for periods with no transactions\n        transactionsNextIndex = 1;\n\n        // Start the first period\n        _newPeriod(getTimestamp64());\n    }\n\n    /**\n    * @dev Deposit for approved ERC20 tokens or ETH\n    * @notice Deposit `@tokenAmount(_token, _amount)`\n    * @param _token Address of deposited token\n    * @param _amount Amount of tokens sent\n    * @param _reference Reason for payment\n    */\n    function deposit(address _token, uint256 _amount, string _reference) external payable isInitialized transitionsPeriod {\n        _deposit(\n            _token,\n            _amount,\n            _reference,\n            msg.sender,\n            true\n        );\n    }\n\n    /**\n    * @notice Create a new payment of `@tokenAmount(_token, _amount)` to `_receiver``_maxRepeats > 0 ? ', executing ' + _maxRepeats + ' times at intervals of ' + @transformTime(_interval) : ''`\n    * @param _token Address of token for payment\n    * @param _receiver Address that will receive payment\n    * @param _amount Tokens that are payed every time the payment is due\n    * @param _initialPaymentTime Timestamp for when the first payment is done\n    * @param _interval Number of seconds that need to pass between payment transactions\n    * @param _maxRepeats Maximum instances a payment can be executed\n    * @param _reference String detailing payment reason\n    */\n    function newPayment(\n        address _token,\n        address _receiver,\n        uint256 _amount,\n        uint64 _initialPaymentTime,\n        uint64 _interval,\n        uint64 _maxRepeats,\n        string _reference\n    )\n        external\n        authP(CREATE_PAYMENTS_ROLE, arr(_token, _receiver, _amount, _interval, _maxRepeats))\n        transitionsPeriod\n        returns (uint256 paymentId)\n    {\n        require(_amount > 0, ERROR_NEW_PAYMENT_AMOUNT_ZERO);\n\n        // Avoid saving payment data for 1 time immediate payments\n        if (_initialPaymentTime <= getTimestamp64() && _maxRepeats == 1) {\n            _makePaymentTransaction(\n                _token,\n                _receiver,\n                _amount,\n                NO_PAYMENT,   // unrelated to any payment id; it isn't created\n                0,   // also unrelated to any payment repeats\n                _reference\n            );\n            return;\n        }\n\n        // Budget must allow at least one instance of this payment each period, or not be set at all\n        require(settings.budgets[_token] >= _amount || !settings.hasBudget[_token], ERROR_BUDGET);\n\n        paymentId = paymentsNextIndex++;\n        emit NewPayment(paymentId, _receiver, _maxRepeats, _reference);\n\n        Payment storage payment = payments[paymentId];\n        payment.token = _token;\n        payment.receiver = _receiver;\n        payment.amount = _amount;\n        payment.initialPaymentTime = _initialPaymentTime;\n        payment.interval = _interval;\n        payment.maxRepeats = _maxRepeats;\n        payment.createdBy = msg.sender;\n\n        if (nextPaymentTime(paymentId) <= getTimestamp64()) {\n            _executePayment(paymentId);\n        }\n    }\n\n    /**\n    * @notice Change period duration to `@transformTime(_periodDuration)`, effective for next accounting period\n    * @param _periodDuration Duration in seconds for accounting periods\n    */\n    function setPeriodDuration(uint64 _periodDuration)\n        external\n        authP(CHANGE_PERIOD_ROLE, arr(uint256(_periodDuration), uint256(settings.periodDuration)))\n        transitionsPeriod\n    {\n        require(_periodDuration >= 1 days, ERROR_SET_PERIOD_TOO_SHORT);\n        settings.periodDuration = _periodDuration;\n        emit ChangePeriodDuration(_periodDuration);\n    }\n\n    /**\n    * @notice Set budget for `_token.symbol(): string` to `@tokenAmount(_token, _amount, false)`, effective immediately\n    * @param _token Address for token\n    * @param _amount New budget amount\n    */\n    function setBudget(\n        address _token,\n        uint256 _amount\n    )\n        external\n        authP(CHANGE_BUDGETS_ROLE, arr(_token, _amount, settings.budgets[_token], settings.hasBudget[_token] ? 1 : 0))\n        transitionsPeriod\n    {\n        settings.budgets[_token] = _amount;\n        if (!settings.hasBudget[_token]) {\n            settings.hasBudget[_token] = true;\n        }\n        emit SetBudget(_token, _amount, true);\n    }\n\n    /**\n    * @notice Remove spending limit for `_token.symbol(): string`, effective immediately\n    * @param _token Address for token\n    */\n    function removeBudget(address _token)\n        external\n        authP(CHANGE_BUDGETS_ROLE, arr(_token, uint256(0), settings.budgets[_token], settings.hasBudget[_token] ? 1 : 0))\n        transitionsPeriod\n    {\n        settings.budgets[_token] = 0;\n        settings.hasBudget[_token] = false;\n        emit SetBudget(_token, 0, false);\n    }\n\n    /**\n    * @dev Executes any payment (requires role)\n    * @notice Execute pending payment #`_paymentId`\n    * @param _paymentId Identifier for payment\n    */\n    function executePayment(uint256 _paymentId)\n        external\n        authP(EXECUTE_PAYMENTS_ROLE, arr(_paymentId, payments[_paymentId].amount))\n        paymentExists(_paymentId)\n        transitionsPeriod\n    {\n        require(nextPaymentTime(_paymentId) <= getTimestamp64(), ERROR_EXECUTE_PAYMENT_TIME);\n\n        _executePayment(_paymentId);\n    }\n\n    /**\n    * @dev Always allows receiver of a payment to trigger execution\n    * @notice Execute pending payment #`_paymentId`\n    * @param _paymentId Identifier for payment\n    */\n    function receiverExecutePayment(uint256 _paymentId) external isInitialized paymentExists(_paymentId) transitionsPeriod {\n        require(nextPaymentTime(_paymentId) <= getTimestamp64(), ERROR_RECEIVER_EXECUTE_PAYMENT_TIME);\n        require(payments[_paymentId].receiver == msg.sender, ERROR_PAYMENT_RECEIVER);\n\n        _executePayment(_paymentId);\n    }\n\n    /**\n    * @notice `_active ? 'Activate' : 'Disable'` payment #`_paymentId`\n    * @dev Note that we do not require this action to transition periods, as it doesn't directly\n    *      impact any accounting periods.\n    *      Not having to transition periods also makes disabling payments easier to prevent funds\n    *      from being pulled out in the event of a breach.\n    * @param _paymentId Identifier for payment\n    * @param _active Whether it will be active or inactive\n    */\n    function setPaymentStatus(uint256 _paymentId, bool _active)\n        external\n        authP(MANAGE_PAYMENTS_ROLE, arr(_paymentId, uint256(_active ? 1 : 0)))\n        paymentExists(_paymentId)\n    {\n        payments[_paymentId].inactive = !_active;\n        emit ChangePaymentState(_paymentId, _active);\n    }\n\n    /**\n     * @dev Allows making a simple payment from this contract to the Vault, to avoid locked tokens.\n     *      This contract should never receive tokens with a simple transfer call, but in case it\n     *      happens, this function allows for their recovery.\n     * @notice Send tokens held in this contract to the Vault\n     * @param _token Token whose balance is going to be transferred.\n     */\n    function recoverToVault(address _token) public isInitialized transitionsPeriod {\n        uint256 amount = _token == ETH ? address(this).balance : ERC20(_token).balanceOf(this);\n        require(amount > 0, ERROR_RECOVER_AMOUNT_ZERO);\n\n        _deposit(\n            _token,\n            amount,\n            \"Recover to Vault\",\n            this,\n            false\n        );\n    }\n\n    /**\n    * @dev Transitions accounting periods if needed. For preventing OOG attacks, a maxTransitions\n    *      param is provided. If more than the specified number of periods need to be transitioned,\n    *      it will return false.\n    * @notice Transition accounting period if needed\n    * @param _maxTransitions Maximum periods that can be transitioned\n    * @return success Boolean indicating whether the accounting period is the correct one (if false,\n    *                 maxTransitions was surpased and another call is needed)\n    */\n    function tryTransitionAccountingPeriod(uint64 _maxTransitions) public isInitialized returns (bool success) {\n        return _tryTransitionAccountingPeriod(_maxTransitions);\n    }\n\n    // consts\n\n    /**\n    * @dev Disable recovery escape hatch if the app has been initialized, as it could be used\n    *      maliciously to transfer funds in the Finance app to another Vault\n    *      finance#recoverToVault() should be used to recover funds to the Finance's vault\n    */\n    function allowRecoverability(address) public view returns (bool) {\n        return !hasInitialized();\n    }\n\n    function getPayment(uint256 _paymentId)\n        public\n        view\n        paymentExists(_paymentId)\n        returns (\n            address token,\n            address receiver,\n            uint256 amount,\n            uint64 initialPaymentTime,\n            uint64 interval,\n            uint64 maxRepeats,\n            bool inactive,\n            uint64 repeats,\n            address createdBy\n        )\n    {\n        Payment storage payment = payments[_paymentId];\n\n        token = payment.token;\n        receiver = payment.receiver;\n        amount = payment.amount;\n        initialPaymentTime = payment.initialPaymentTime;\n        interval = payment.interval;\n        maxRepeats = payment.maxRepeats;\n        repeats = payment.repeats;\n        inactive = payment.inactive;\n        createdBy = payment.createdBy;\n    }\n\n    function getTransaction(uint256 _transactionId)\n        public\n        view\n        transactionExists(_transactionId)\n        returns (\n            uint64 periodId,\n            uint256 amount,\n            uint256 paymentId,\n            uint64 paymentRepeatNumber,\n            address token,\n            address entity,\n            bool isIncoming,\n            uint64 date\n        )\n    {\n        Transaction storage transaction = transactions[_transactionId];\n\n        token = transaction.token;\n        entity = transaction.entity;\n        isIncoming = transaction.isIncoming;\n        date = transaction.date;\n        periodId = transaction.periodId;\n        amount = transaction.amount;\n        paymentId = transaction.paymentId;\n        paymentRepeatNumber = transaction.paymentRepeatNumber;\n    }\n\n    function getPeriod(uint64 _periodId)\n        public\n        view\n        periodExists(_periodId)\n        returns (\n            bool isCurrent,\n            uint64 startTime,\n            uint64 endTime,\n            uint256 firstTransactionId,\n            uint256 lastTransactionId\n        )\n    {\n        Period storage period = periods[_periodId];\n\n        isCurrent = _currentPeriodId() == _periodId;\n\n        startTime = period.startTime;\n        endTime = period.endTime;\n        firstTransactionId = period.firstTransactionId;\n        lastTransactionId = period.lastTransactionId;\n    }\n\n    function getPeriodTokenStatement(uint64 _periodId, address _token)\n        public\n        view\n        periodExists(_periodId)\n        returns (uint256 expenses, uint256 income)\n    {\n        TokenStatement storage tokenStatement = periods[_periodId].tokenStatement[_token];\n        expenses = tokenStatement.expenses;\n        income = tokenStatement.income;\n    }\n\n    function nextPaymentTime(uint256 _paymentId) public view paymentExists(_paymentId) returns (uint64) {\n        Payment memory payment = payments[_paymentId];\n\n        if (payment.repeats >= payment.maxRepeats) {\n            return MAX_UINT64; // re-executes in some billions of years time... should not need to worry\n        }\n\n        // Split in multiple lines to circunvent linter warning\n        uint64 increase = payment.repeats.mul(payment.interval);\n        uint64 nextPayment = payment.initialPaymentTime.add(increase);\n        return nextPayment;\n    }\n\n    function getPeriodDuration() public view returns (uint64) {\n        return settings.periodDuration;\n    }\n\n    function getBudget(address _token) public view returns (uint256 budget, bool hasBudget) {\n        budget = settings.budgets[_token];\n        hasBudget = settings.hasBudget[_token];\n    }\n\n    /**\n    * @dev We have to check for initialization as periods are only valid after initializing\n    */\n    function getRemainingBudget(address _token) public view isInitialized returns (uint256) {\n        return _getRemainingBudget(_token);\n    }\n\n    /**\n    * @dev We have to check for initialization as periods are only valid after initializing\n    */\n    function currentPeriodId() public view isInitialized returns (uint64) {\n        return _currentPeriodId();\n    }\n\n    // internal fns\n\n    function _deposit(address _token, uint256 _amount, string _reference, address _sender, bool _isExternalDeposit) internal {\n        require(_amount > 0, ERROR_DEPOSIT_AMOUNT_ZERO);\n        _recordIncomingTransaction(\n            _token,\n            _sender,\n            _amount,\n            _reference\n        );\n\n        // If it is an external deposit, check that the assets are actually transferred\n        // External deposit will be false when the assets were already in the Finance app\n        // and just need to be transferred to the vault\n        if (_isExternalDeposit) {\n            if (_token != ETH) {\n                // Get the tokens to Finance\n                require(ERC20(_token).transferFrom(msg.sender, this, _amount), ERROR_TOKEN_TRANSFER_FROM_REVERTED);\n            } else {\n                // Ensure that the ETH sent with the transaction equals the amount in the deposit\n                require(msg.value == _amount, ERROR_VALUE_MISMATCH);\n            }\n        }\n\n        if (_token == ETH) {\n            vault.deposit.value(_amount)(ETH, _amount);\n        } else {\n            ERC20(_token).approve(vault, _amount);\n            // finally we can deposit them\n            vault.deposit(_token, _amount);\n        }\n    }\n\n    function _newPeriod(uint64 _startTime) internal returns (Period storage) {\n        // There should be no way for this to overflow since each period is at least one day\n        uint64 newPeriodId = periodsLength++;\n\n        Period storage period = periods[newPeriodId];\n        period.startTime = _startTime;\n\n        // Be careful here to not overflow; if startTime + periodDuration overflows, we set endTime\n        // to MAX_UINT64 (let's assume that's the end of time for now).\n        uint64 endTime = _startTime + settings.periodDuration - 1;\n        if (endTime < _startTime) { // overflowed\n            endTime = MAX_UINT64;\n        }\n        period.endTime = endTime;\n\n        emit NewPeriod(newPeriodId, period.startTime, period.endTime);\n\n        return period;\n    }\n\n    function _executePayment(uint256 _paymentId) internal {\n        Payment storage payment = payments[_paymentId];\n        require(!payment.inactive, ERROR_PAYMENT_INACTIVE);\n\n        uint64 payed = 0;\n        while (nextPaymentTime(_paymentId) <= getTimestamp64() && payed < MAX_PAYMENTS_PER_TX) {\n            if (!_canMakePayment(payment.token, payment.amount)) {\n                emit PaymentFailure(_paymentId);\n                return;\n            }\n\n            // The while() predicate prevents these two from ever overflowing\n            payment.repeats += 1;\n            payed += 1;\n\n            _makePaymentTransaction(\n                payment.token,\n                payment.receiver,\n                payment.amount,\n                _paymentId,\n                payment.repeats,\n                \"\"\n            );\n        }\n    }\n\n    function _makePaymentTransaction(\n        address _token,\n        address _receiver,\n        uint256 _amount,\n        uint256 _paymentId,\n        uint64 _paymentRepeatNumber,\n        string _reference\n    )\n        internal\n    {\n        require(_getRemainingBudget(_token) >= _amount, ERROR_REMAINING_BUDGET);\n        _recordTransaction(\n            false,\n            _token,\n            _receiver,\n            _amount,\n            _paymentId,\n            _paymentRepeatNumber,\n            _reference\n        );\n\n        vault.transfer(_token, _receiver, _amount);\n    }\n\n    function _recordIncomingTransaction(\n        address _token,\n        address _sender,\n        uint256 _amount,\n        string _reference\n    )\n        internal\n    {\n        _recordTransaction(\n            true, // incoming transaction\n            _token,\n            _sender,\n            _amount,\n            NO_PAYMENT, // unrelated to any existing payment\n            0, // and no payment repeats\n            _reference\n        );\n    }\n\n    function _recordTransaction(\n        bool _incoming,\n        address _token,\n        address _entity,\n        uint256 _amount,\n        uint256 _paymentId,\n        uint64 _paymentRepeatNumber,\n        string _reference\n    )\n        internal\n    {\n        uint64 periodId = _currentPeriodId();\n        TokenStatement storage tokenStatement = periods[periodId].tokenStatement[_token];\n        if (_incoming) {\n            tokenStatement.income = tokenStatement.income.add(_amount);\n        } else {\n            tokenStatement.expenses = tokenStatement.expenses.add(_amount);\n        }\n\n        uint256 transactionId = transactionsNextIndex++;\n        Transaction storage transaction = transactions[transactionId];\n        transaction.token = _token;\n        transaction.entity = _entity;\n        transaction.isIncoming = _incoming;\n        transaction.amount = _amount;\n        transaction.paymentId = _paymentId;\n        transaction.paymentRepeatNumber = _paymentRepeatNumber;\n        transaction.date = getTimestamp64();\n        transaction.periodId = periodId;\n\n        Period storage period = periods[periodId];\n        if (period.firstTransactionId == NO_TRANSACTION) {\n            period.firstTransactionId = transactionId;\n        }\n\n        emit NewTransaction(transactionId, _incoming, _entity, _amount, _reference);\n    }\n\n    function _tryTransitionAccountingPeriod(uint256 _maxTransitions) internal returns (bool success) {\n        Period storage currentPeriod = periods[_currentPeriodId()];\n        uint64 timestamp = getTimestamp64();\n\n        // Transition periods if necessary\n        while (timestamp > currentPeriod.endTime) {\n            if (_maxTransitions == 0) {\n                // Required number of transitions is over allowed number, return false indicating\n                // it didn't fully transition\n                return false;\n            }\n            _maxTransitions = _maxTransitions.sub(1);\n\n            // If there were any transactions in period, record which was the last\n            // In case 0 transactions occured, first and last tx id will be 0\n            if (currentPeriod.firstTransactionId != NO_TRANSACTION) {\n                currentPeriod.lastTransactionId = transactionsNextIndex.sub(1);\n            }\n\n            // New period starts at end time + 1\n            currentPeriod = _newPeriod(currentPeriod.endTime.add(1));\n        }\n\n        return true;\n    }\n\n    function _canMakePayment(address _token, uint256 _amount) internal view returns (bool) {\n        return _getRemainingBudget(_token) >= _amount && vault.balance(_token) >= _amount;\n    }\n\n    function _getRemainingBudget(address _token) internal view returns (uint256) {\n        if (!settings.hasBudget[_token]) {\n            return MAX_UINT;\n        }\n\n        uint256 spent = periods[_currentPeriodId()].tokenStatement[_token].expenses;\n\n        // A budget decrease can cause the spent amount to be greater than period budget\n        // If so, return 0 to not allow more spending during period\n        if (spent >= settings.budgets[_token]) {\n            return 0;\n        }\n\n        return settings.budgets[_token].sub(spent);\n    }\n\n    function _currentPeriodId() internal view returns (uint64) {\n        // There is no way for this to overflow if protected by an initialization check\n        return periodsLength - 1;\n    }\n\n    // Must be view for mocking purposes\n    function getMaxPeriodTransitions() internal view returns (uint64) { return MAX_UINT64; }\n}\n",
  "sourcePath": "@aragon/apps-finance/contracts/Finance.sol",
  "compiler": {
    "name": "solc",
    "version": "0.4.24+commit.e67f0147.Emscripten.clang"
  },
  "schemaVersion": "3.0.0-beta.2",
  "updatedAt": "2019-01-12T11:43:17.615Z",
  "devdoc": {
    "methods": {
      "allowRecoverability(address)": {
        "details": "Disable recovery escape hatch if the app has been initialized, as it could be used     maliciously to transfer funds in the Finance app to another Vault     finance#recoverToVault() should be used to recover funds to the Finance's vault"
      },
      "canPerform(address,bytes32,uint256[])": {
        "details": "Check whether an action can be performed by a sender for a particular role on this app",
        "params": {
          "_params": "Permission params for the role",
          "_role": "Role on this app",
          "_sender": "Sender of the call"
        },
        "return": "Boolean indicating whether the sender has the permissions to perform the action.        Always returns false if the app hasn't been initialized yet."
      },
      "currentPeriodId()": {
        "details": "We have to check for initialization as periods are only valid after initializing"
      },
      "deposit(address,uint256,string)": {
        "details": "Deposit for approved ERC20 tokens or ETH",
        "params": {
          "_amount": "Amount of tokens sent",
          "_reference": "Reason for payment",
          "_token": "Address of deposited token"
        }
      },
      "executePayment(uint256)": {
        "details": "Executes any payment (requires role)",
        "params": {
          "_paymentId": "Identifier for payment"
        }
      },
      "getInitializationBlock()": {
        "return": "Block number in which the contract was initialized"
      },
      "getRecoveryVault()": {
        "details": "Get the recovery vault for the app",
        "return": "Recovery vault address for the app"
      },
      "getRemainingBudget(address)": {
        "details": "We have to check for initialization as periods are only valid after initializing"
      },
      "hasInitialized()": {
        "return": "Whether the contract has been initialized by the time of the current block"
      },
      "initialize(address,uint64)": {
        "params": {
          "_periodDuration": "Duration in seconds of each period",
          "_vault": "Address of the vault Finance will rely on (non changeable)"
        }
      },
      "newPayment(address,address,uint256,uint64,uint64,uint64,string)": {
        "params": {
          "_amount": "Tokens that are payed every time the payment is due",
          "_initialPaymentTime": "Timestamp for when the first payment is done",
          "_interval": "Number of seconds that need to pass between payment transactions",
          "_maxRepeats": "Maximum instances a payment can be executed",
          "_receiver": "Address that will receive payment",
          "_reference": "String detailing payment reason",
          "_token": "Address of token for payment"
        }
      },
      "receiverExecutePayment(uint256)": {
        "details": "Always allows receiver of a payment to trigger execution",
        "params": {
          "_paymentId": "Identifier for payment"
        }
      },
      "recoverToVault(address)": {
        "details": "Allows making a simple payment from this contract to the Vault, to avoid locked tokens.     This contract should never receive tokens with a simple transfer call, but in case it     happens, this function allows for their recovery.",
        "params": {
          "_token": "Token whose balance is going to be transferred."
        }
      },
      "removeBudget(address)": {
        "params": {
          "_token": "Address for token"
        }
      },
      "setBudget(address,uint256)": {
        "params": {
          "_amount": "New budget amount",
          "_token": "Address for token"
        }
      },
      "setPaymentStatus(uint256,bool)": {
        "details": "Note that we do not require this action to transition periods, as it doesn't directly     impact any accounting periods.     Not having to transition periods also makes disabling payments easier to prevent funds     from being pulled out in the event of a breach.",
        "params": {
          "_active": "Whether it will be active or inactive",
          "_paymentId": "Identifier for payment"
        }
      },
      "setPeriodDuration(uint64)": {
        "params": {
          "_periodDuration": "Duration in seconds for accounting periods"
        }
      },
      "transferToVault(address)": {
        "params": {
          "_token": "Token balance to be sent to recovery vault."
        }
      },
      "tryTransitionAccountingPeriod(uint64)": {
        "details": "Transitions accounting periods if needed. For preventing OOG attacks, a maxTransitions     param is provided. If more than the specified number of periods need to be transitioned,     it will return false.",
        "params": {
          "_maxTransitions": "Maximum periods that can be transitioned"
        },
        "return": "success Boolean indicating whether the accounting period is the correct one (if false,                maxTransitions was surpased and another call is needed)"
      }
    }
  },
  "userdoc": {
    "methods": {
      "deposit(address,uint256,string)": {
        "notice": "Deposit `@tokenAmount(_token, _amount)`"
      },
      "executePayment(uint256)": {
        "notice": "Execute pending payment #`_paymentId`"
      },
      "initialize(address,uint64)": {
        "notice": "Initialize Finance app for Vault at `_vault` with period length of `@transformTime(_periodDuration)`"
      },
      "newPayment(address,address,uint256,uint64,uint64,uint64,string)": {
        "notice": "Create a new payment of `@tokenAmount(_token, _amount)` to `_receiver``_maxRepeats > 0 ? ', executing ' + _maxRepeats + ' times at intervals of ' + @transformTime(_interval) : ''`"
      },
      "receiverExecutePayment(uint256)": {
        "notice": "Execute pending payment #`_paymentId`"
      },
      "recoverToVault(address)": {
        "notice": "Send tokens held in this contract to the Vault"
      },
      "removeBudget(address)": {
        "notice": "Remove spending limit for `_token.symbol(): string`, effective immediately"
      },
      "setBudget(address,uint256)": {
        "notice": "Set budget for `_token.symbol(): string` to `@tokenAmount(_token, _amount, false)`, effective immediately"
      },
      "setPaymentStatus(uint256,bool)": {
        "notice": "`_active ? 'Activate' : 'Disable'` payment #`_paymentId`"
      },
      "setPeriodDuration(uint64)": {
        "notice": "Change period duration to `@transformTime(_periodDuration)`, effective for next accounting period"
      },
      "transferToVault(address)": {
        "notice": "Send funds to recovery Vault. This contract should never receive funds,        but in case it does, this function allows one to recover them."
      },
      "tryTransitionAccountingPeriod(uint64)": {
        "notice": "Transition accounting period if needed"
      }
    }
  }
}