{
  "contractName": "Pando",
  "abi": [
    {
      "inputs": [],
      "payable": false,
      "stateMutability": "nonpayable",
      "type": "constructor"
    },
    {
      "constant": true,
      "inputs": [
        {
          "components": [
            {
              "name": "blockstamp",
              "type": "uint256"
            },
            {
              "name": "metadata",
              "type": "string"
            }
          ],
          "name": "_individuation",
          "type": "tuple"
        }
      ],
      "name": "hash",
      "outputs": [
        {
          "name": "",
          "type": "bytes32"
        }
      ],
      "payable": false,
      "stateMutability": "pure",
      "type": "function"
    }
  ],
  "bytecode": "0x608060405234801561001057600080fd5b5061035a806100206000396000f300608060405260043610610041576000357c0100000000000000000000000000000000000000000000000000000000900463ffffffff16806357c337ee14610046575b600080fd5b34801561005257600080fd5b5061006d60048036036100689190810190610239565b610083565b60405161007a9190610289565b60405180910390f35b6000816000015182602001516040516020018083815260200182805190602001908083835b6020831015156100cd57805182526020820191506020810190506020830392506100a8565b6001836020036101000a038019825116818451168082178552505050505050905001925050506040516020818303038152906040526040518082805190602001908083835b6020831015156101375780518252602082019150602081019050602083039250610112565b6001836020036101000a03801982511681845116808217855250505050505090500191505060405180910390209050919050565b600082601f830112151561017e57600080fd5b813561019161018c826102d1565b6102a4565b915080825260208301602083018583830111156101ad57600080fd5b6101b8838284610311565b50505092915050565b6000604082840312156101d357600080fd5b6101dd60406102a4565b905060006101ed84828501610225565b600083015250602082013567ffffffffffffffff81111561020d57600080fd5b6102198482850161016b565b60208301525092915050565b60006102318235610307565b905092915050565b60006020828403121561024b57600080fd5b600082013567ffffffffffffffff81111561026557600080fd5b610271848285016101c1565b91505092915050565b610283816102fd565b82525050565b600060208201905061029e600083018461027a565b92915050565b6000604051905081810181811067ffffffffffffffff821117156102c757600080fd5b8060405250919050565b600067ffffffffffffffff8211156102e857600080fd5b601f19601f8301169050602081019050919050565b6000819050919050565b6000819050919050565b828183376000838301525050505600a265627a7a7230582044b5201f80855a136a376fdd4bd1b95b8f9a2631c610360a47c0381fe307c95f6c6578706572696d656e74616cf50037",
  "source": "pragma solidity ^0.4.24;\npragma experimental ABIEncoderV2;\n\n\ncontract Pando {\n    enum RFLState   { Pending, Accepted, Issued, Rejected, Cancelled }\n    enum RFIState   { Pending, Merged, Rejected, Cancelled }\n    enum RFISorting { Merge, Reject }\n\n    struct IID {\n        address organism;\n        bytes32 hash;\n    }\n\n    struct IIndividuation {\n        string  metadata;\n    }\n\n    struct Individuation {\n        uint256 blockstamp;\n        string  metadata;\n    }\n\n    struct RFI {\n        IIndividuation individuation;\n        uint256        blockstamp;\n        RFIState       state;\n        uint256[]      RFLids;\n    }\n\n    struct ILineage {\n        address  destination;\n        uint256  minimum;\n        string   metadata;\n    }\n\n    struct RFL {\n        ILineage lineage;\n        uint256  blockstamp;\n        uint256  value;\n        RFLState state;\n        uint256  RFIid;\n    }\n\n    constructor() public {}\n\n    function hash(Individuation _individuation) public pure returns (bytes32) {\n        return keccak256(\n            abi.encodePacked(\n                _individuation.blockstamp,\n                _individuation.metadata)\n            );\n    }\n}\n",
  "sourcePath": "@pando/core/contracts/lib/Pando.sol",
  "compiler": {
    "name": "solc",
    "version": "0.4.24+commit.e67f0147.Emscripten.clang"
  },
  "schemaVersion": "3.0.0-beta.2",
  "updatedAt": "2018-12-05T17:21:32.950Z",
  "devdoc": {
    "methods": {}
  },
  "userdoc": {
    "methods": {}
  }
}