{
  "contractName": "DemocracyScheme",
  "abi": [
    {
      "constant": true,
      "inputs": [],
      "name": "hasInitialized",
      "outputs": [
        {
          "name": "",
          "type": "bool"
        }
      ],
      "payable": false,
      "stateMutability": "view",
      "type": "function"
    },
    {
      "constant": true,
      "inputs": [
        {
          "name": "",
          "type": "address"
        },
        {
          "name": "",
          "type": "uint256"
        }
      ],
      "name": "RFLVotes",
      "outputs": [
        {
          "name": "RFLid",
          "type": "uint256"
        },
        {
          "name": "blockstamp",
          "type": "uint256"
        },
        {
          "name": "supply",
          "type": "uint256"
        },
        {
          "name": "quorum",
          "type": "uint256"
        },
        {
          "name": "required",
          "type": "uint256"
        },
        {
          "name": "yea",
          "type": "uint256"
        },
        {
          "name": "nay",
          "type": "uint256"
        },
        {
          "name": "total",
          "type": "uint256"
        },
        {
          "name": "participation",
          "type": "uint256"
        },
        {
          "name": "state",
          "type": "uint8"
        }
      ],
      "payable": false,
      "stateMutability": "view",
      "type": "function"
    },
    {
      "constant": true,
      "inputs": [],
      "name": "quorum",
      "outputs": [
        {
          "name": "",
          "type": "uint256"
        }
      ],
      "payable": false,
      "stateMutability": "view",
      "type": "function"
    },
    {
      "constant": true,
      "inputs": [
        {
          "name": "",
          "type": "address"
        },
        {
          "name": "",
          "type": "uint256"
        },
        {
          "name": "",
          "type": "address"
        }
      ],
      "name": "RFLVotesBallots",
      "outputs": [
        {
          "name": "state",
          "type": "uint8"
        },
        {
          "name": "value",
          "type": "uint256"
        }
      ],
      "payable": false,
      "stateMutability": "view",
      "type": "function"
    },
    {
      "constant": true,
      "inputs": [
        {
          "name": "_script",
          "type": "bytes"
        }
      ],
      "name": "getEVMScriptExecutor",
      "outputs": [
        {
          "name": "",
          "type": "address"
        }
      ],
      "payable": false,
      "stateMutability": "view",
      "type": "function"
    },
    {
      "constant": true,
      "inputs": [],
      "name": "getRecoveryVault",
      "outputs": [
        {
          "name": "",
          "type": "address"
        }
      ],
      "payable": false,
      "stateMutability": "view",
      "type": "function"
    },
    {
      "constant": true,
      "inputs": [],
      "name": "UPDATE_PARAMETERS_ROLE",
      "outputs": [
        {
          "name": "",
          "type": "bytes32"
        }
      ],
      "payable": false,
      "stateMutability": "view",
      "type": "function"
    },
    {
      "constant": true,
      "inputs": [
        {
          "name": "",
          "type": "address"
        },
        {
          "name": "",
          "type": "uint256"
        }
      ],
      "name": "RFIVotes",
      "outputs": [
        {
          "name": "RFIid",
          "type": "uint256"
        },
        {
          "name": "blockstamp",
          "type": "uint256"
        },
        {
          "name": "supply",
          "type": "uint256"
        },
        {
          "name": "quorum",
          "type": "uint256"
        },
        {
          "name": "required",
          "type": "uint256"
        },
        {
          "name": "yea",
          "type": "uint256"
        },
        {
          "name": "nay",
          "type": "uint256"
        },
        {
          "name": "participation",
          "type": "uint256"
        },
        {
          "name": "state",
          "type": "uint8"
        }
      ],
      "payable": false,
      "stateMutability": "view",
      "type": "function"
    },
    {
      "constant": true,
      "inputs": [
        {
          "name": "token",
          "type": "address"
        }
      ],
      "name": "allowRecoverability",
      "outputs": [
        {
          "name": "",
          "type": "bool"
        }
      ],
      "payable": false,
      "stateMutability": "view",
      "type": "function"
    },
    {
      "constant": true,
      "inputs": [],
      "name": "appId",
      "outputs": [
        {
          "name": "",
          "type": "bytes32"
        }
      ],
      "payable": false,
      "stateMutability": "view",
      "type": "function"
    },
    {
      "constant": true,
      "inputs": [
        {
          "name": "",
          "type": "address"
        },
        {
          "name": "",
          "type": "uint256"
        },
        {
          "name": "",
          "type": "address"
        }
      ],
      "name": "RFIVotesBallots",
      "outputs": [
        {
          "name": "",
          "type": "uint8"
        }
      ],
      "payable": false,
      "stateMutability": "view",
      "type": "function"
    },
    {
      "constant": true,
      "inputs": [],
      "name": "getInitializationBlock",
      "outputs": [
        {
          "name": "",
          "type": "uint256"
        }
      ],
      "payable": false,
      "stateMutability": "view",
      "type": "function"
    },
    {
      "constant": false,
      "inputs": [
        {
          "name": "_token",
          "type": "address"
        }
      ],
      "name": "transferToVault",
      "outputs": [],
      "payable": false,
      "stateMutability": "nonpayable",
      "type": "function"
    },
    {
      "constant": true,
      "inputs": [
        {
          "name": "_sender",
          "type": "address"
        },
        {
          "name": "_role",
          "type": "bytes32"
        },
        {
          "name": "_params",
          "type": "uint256[]"
        }
      ],
      "name": "canPerform",
      "outputs": [
        {
          "name": "",
          "type": "bool"
        }
      ],
      "payable": false,
      "stateMutability": "view",
      "type": "function"
    },
    {
      "constant": true,
      "inputs": [],
      "name": "getEVMScriptRegistry",
      "outputs": [
        {
          "name": "",
          "type": "address"
        }
      ],
      "payable": false,
      "stateMutability": "view",
      "type": "function"
    },
    {
      "constant": true,
      "inputs": [],
      "name": "kernel",
      "outputs": [
        {
          "name": "",
          "type": "address"
        }
      ],
      "payable": false,
      "stateMutability": "view",
      "type": "function"
    },
    {
      "constant": true,
      "inputs": [],
      "name": "required",
      "outputs": [
        {
          "name": "",
          "type": "uint256"
        }
      ],
      "payable": false,
      "stateMutability": "view",
      "type": "function"
    },
    {
      "constant": true,
      "inputs": [],
      "name": "isPetrified",
      "outputs": [
        {
          "name": "",
          "type": "bool"
        }
      ],
      "payable": false,
      "stateMutability": "view",
      "type": "function"
    },
    {
      "constant": true,
      "inputs": [],
      "name": "token",
      "outputs": [
        {
          "name": "",
          "type": "address"
        }
      ],
      "payable": false,
      "stateMutability": "view",
      "type": "function"
    },
    {
      "anonymous": false,
      "inputs": [
        {
          "indexed": false,
          "name": "organism",
          "type": "address"
        },
        {
          "indexed": false,
          "name": "id",
          "type": "uint256"
        }
      ],
      "name": "NewRFIVote",
      "type": "event"
    },
    {
      "anonymous": false,
      "inputs": [
        {
          "indexed": false,
          "name": "organism",
          "type": "address"
        },
        {
          "indexed": false,
          "name": "id",
          "type": "uint256"
        },
        {
          "indexed": false,
          "name": "voter",
          "type": "address"
        },
        {
          "indexed": false,
          "name": "supports",
          "type": "bool"
        },
        {
          "indexed": false,
          "name": "stake",
          "type": "uint256"
        }
      ],
      "name": "CastRFIVote",
      "type": "event"
    },
    {
      "anonymous": false,
      "inputs": [
        {
          "indexed": false,
          "name": "organism",
          "type": "address"
        },
        {
          "indexed": false,
          "name": "id",
          "type": "uint256"
        }
      ],
      "name": "CancelRFIVote",
      "type": "event"
    },
    {
      "anonymous": false,
      "inputs": [
        {
          "indexed": false,
          "name": "organism",
          "type": "address"
        },
        {
          "indexed": false,
          "name": "id",
          "type": "uint256"
        }
      ],
      "name": "ExecuteRFIVote",
      "type": "event"
    },
    {
      "anonymous": false,
      "inputs": [
        {
          "indexed": false,
          "name": "organism",
          "type": "address"
        },
        {
          "indexed": false,
          "name": "id",
          "type": "uint256"
        }
      ],
      "name": "NewRFLVote",
      "type": "event"
    },
    {
      "anonymous": false,
      "inputs": [
        {
          "indexed": false,
          "name": "organism",
          "type": "address"
        },
        {
          "indexed": false,
          "name": "id",
          "type": "uint256"
        },
        {
          "indexed": false,
          "name": "voter",
          "type": "address"
        },
        {
          "indexed": false,
          "name": "supports",
          "type": "bool"
        },
        {
          "indexed": false,
          "name": "value",
          "type": "uint256"
        },
        {
          "indexed": false,
          "name": "stake",
          "type": "uint256"
        }
      ],
      "name": "CastRFLVote",
      "type": "event"
    },
    {
      "anonymous": false,
      "inputs": [
        {
          "indexed": false,
          "name": "organism",
          "type": "address"
        },
        {
          "indexed": false,
          "name": "id",
          "type": "uint256"
        }
      ],
      "name": "CancelRFLVote",
      "type": "event"
    },
    {
      "anonymous": false,
      "inputs": [
        {
          "indexed": false,
          "name": "organism",
          "type": "address"
        },
        {
          "indexed": false,
          "name": "id",
          "type": "uint256"
        }
      ],
      "name": "ExecuteRFLVote",
      "type": "event"
    },
    {
      "anonymous": false,
      "inputs": [
        {
          "indexed": true,
          "name": "executor",
          "type": "address"
        },
        {
          "indexed": false,
          "name": "script",
          "type": "bytes"
        },
        {
          "indexed": false,
          "name": "input",
          "type": "bytes"
        },
        {
          "indexed": false,
          "name": "returnData",
          "type": "bytes"
        }
      ],
      "name": "ScriptResult",
      "type": "event"
    },
    {
      "anonymous": false,
      "inputs": [
        {
          "indexed": true,
          "name": "organism",
          "type": "address"
        },
        {
          "indexed": true,
          "name": "id",
          "type": "uint256"
        },
        {
          "indexed": false,
          "name": "sender",
          "type": "address"
        }
      ],
      "name": "CreateRFI",
      "type": "event"
    },
    {
      "anonymous": false,
      "inputs": [
        {
          "indexed": true,
          "name": "organism",
          "type": "address"
        },
        {
          "indexed": true,
          "name": "id",
          "type": "uint256"
        },
        {
          "indexed": false,
          "name": "sender",
          "type": "address"
        }
      ],
      "name": "MergeRFI",
      "type": "event"
    },
    {
      "anonymous": false,
      "inputs": [
        {
          "indexed": true,
          "name": "organism",
          "type": "address"
        },
        {
          "indexed": true,
          "name": "id",
          "type": "uint256"
        },
        {
          "indexed": false,
          "name": "sender",
          "type": "address"
        }
      ],
      "name": "RejectRFI",
      "type": "event"
    },
    {
      "anonymous": false,
      "inputs": [
        {
          "indexed": true,
          "name": "organism",
          "type": "address"
        },
        {
          "indexed": true,
          "name": "id",
          "type": "uint256"
        },
        {
          "indexed": false,
          "name": "sender",
          "type": "address"
        }
      ],
      "name": "CreateRFL",
      "type": "event"
    },
    {
      "anonymous": false,
      "inputs": [
        {
          "indexed": true,
          "name": "organism",
          "type": "address"
        },
        {
          "indexed": true,
          "name": "id",
          "type": "uint256"
        },
        {
          "indexed": false,
          "name": "value",
          "type": "uint256"
        },
        {
          "indexed": false,
          "name": "sender",
          "type": "address"
        }
      ],
      "name": "AcceptRFL",
      "type": "event"
    },
    {
      "anonymous": false,
      "inputs": [
        {
          "indexed": true,
          "name": "organism",
          "type": "address"
        },
        {
          "indexed": true,
          "name": "id",
          "type": "uint256"
        },
        {
          "indexed": false,
          "name": "sender",
          "type": "address"
        }
      ],
      "name": "RejectRFL",
      "type": "event"
    },
    {
      "constant": false,
      "inputs": [
        {
          "name": "_token",
          "type": "address"
        },
        {
          "name": "_quorum",
          "type": "uint256"
        },
        {
          "name": "_required",
          "type": "uint256"
        }
      ],
      "name": "initialize",
      "outputs": [],
      "payable": false,
      "stateMutability": "nonpayable",
      "type": "function"
    },
    {
      "constant": false,
      "inputs": [
        {
          "name": "_organism",
          "type": "address"
        },
        {
          "components": [
            {
              "name": "metadata",
              "type": "string"
            }
          ],
          "name": "_individuation",
          "type": "tuple"
        },
        {
          "components": [
            {
              "name": "destination",
              "type": "address"
            },
            {
              "name": "minimum",
              "type": "uint256"
            },
            {
              "name": "metadata",
              "type": "string"
            }
          ],
          "name": "_lineages",
          "type": "tuple[]"
        }
      ],
      "name": "createRFI",
      "outputs": [],
      "payable": false,
      "stateMutability": "nonpayable",
      "type": "function"
    },
    {
      "constant": false,
      "inputs": [
        {
          "name": "_organism",
          "type": "address"
        },
        {
          "name": "_RFIid",
          "type": "uint256"
        }
      ],
      "name": "mergeRFI",
      "outputs": [],
      "payable": false,
      "stateMutability": "nonpayable",
      "type": "function"
    },
    {
      "constant": false,
      "inputs": [
        {
          "name": "_organism",
          "type": "address"
        },
        {
          "name": "_RFIid",
          "type": "uint256"
        }
      ],
      "name": "rejectRFI",
      "outputs": [],
      "payable": false,
      "stateMutability": "nonpayable",
      "type": "function"
    },
    {
      "constant": false,
      "inputs": [
        {
          "name": "_organism",
          "type": "address"
        },
        {
          "name": "_RFLid",
          "type": "uint256"
        },
        {
          "name": "_value",
          "type": "uint256"
        }
      ],
      "name": "acceptRFL",
      "outputs": [],
      "payable": false,
      "stateMutability": "nonpayable",
      "type": "function"
    },
    {
      "constant": false,
      "inputs": [
        {
          "name": "_organism",
          "type": "address"
        },
        {
          "name": "_RFLid",
          "type": "uint256"
        }
      ],
      "name": "rejectRFL",
      "outputs": [],
      "payable": false,
      "stateMutability": "nonpayable",
      "type": "function"
    },
    {
      "constant": true,
      "inputs": [
        {
          "name": "_organism",
          "type": "address"
        },
        {
          "name": "_RFIid",
          "type": "uint256"
        }
      ],
      "name": "getRFIVote",
      "outputs": [
        {
          "components": [
            {
              "name": "RFIid",
              "type": "uint256"
            },
            {
              "name": "blockstamp",
              "type": "uint256"
            },
            {
              "name": "supply",
              "type": "uint256"
            },
            {
              "name": "quorum",
              "type": "uint256"
            },
            {
              "name": "required",
              "type": "uint256"
            },
            {
              "name": "yea",
              "type": "uint256"
            },
            {
              "name": "nay",
              "type": "uint256"
            },
            {
              "name": "participation",
              "type": "uint256"
            },
            {
              "name": "state",
              "type": "uint8"
            }
          ],
          "name": "",
          "type": "tuple"
        }
      ],
      "payable": false,
      "stateMutability": "view",
      "type": "function"
    },
    {
      "constant": true,
      "inputs": [
        {
          "name": "_organism",
          "type": "address"
        },
        {
          "name": "_RFLid",
          "type": "uint256"
        }
      ],
      "name": "getRFLVote",
      "outputs": [
        {
          "components": [
            {
              "name": "RFLid",
              "type": "uint256"
            },
            {
              "name": "blockstamp",
              "type": "uint256"
            },
            {
              "name": "supply",
              "type": "uint256"
            },
            {
              "name": "quorum",
              "type": "uint256"
            },
            {
              "name": "required",
              "type": "uint256"
            },
            {
              "name": "yea",
              "type": "uint256"
            },
            {
              "name": "nay",
              "type": "uint256"
            },
            {
              "name": "total",
              "type": "uint256"
            },
            {
              "name": "participation",
              "type": "uint256"
            },
            {
              "name": "state",
              "type": "uint8"
            }
          ],
          "name": "",
          "type": "tuple"
        }
      ],
      "payable": false,
      "stateMutability": "view",
      "type": "function"
    },
    {
      "constant": true,
      "inputs": [
        {
          "name": "_organism",
          "type": "address"
        },
        {
          "name": "_RFIid",
          "type": "uint256"
        }
      ],
      "name": "getRFIMetadata",
      "outputs": [
        {
          "name": "",
          "type": "string"
        }
      ],
      "payable": false,
      "stateMutability": "view",
      "type": "function"
    },
    {
      "constant": true,
      "inputs": [
        {
          "name": "_organism",
          "type": "address"
        },
        {
          "name": "_RFLid",
          "type": "uint256"
        }
      ],
      "name": "getRFL",
      "outputs": [
        {
          "components": [
            {
              "components": [
                {
                  "name": "destination",
                  "type": "address"
                },
                {
                  "name": "minimum",
                  "type": "uint256"
                },
                {
                  "name": "metadata",
                  "type": "string"
                }
              ],
              "name": "lineage",
              "type": "tuple"
            },
            {
              "name": "blockstamp",
              "type": "uint256"
            },
            {
              "name": "value",
              "type": "uint256"
            },
            {
              "name": "state",
              "type": "uint8"
            },
            {
              "name": "RFIid",
              "type": "uint256"
            }
          ],
          "name": "",
          "type": "tuple"
        }
      ],
      "payable": false,
      "stateMutability": "view",
      "type": "function"
    },
    {
      "constant": true,
      "inputs": [
        {
          "name": "_organism",
          "type": "address"
        },
        {
          "name": "_RFIid",
          "type": "uint256"
        },
        {
          "name": "_voter",
          "type": "address"
        }
      ],
      "name": "canVoteOnRFI",
      "outputs": [
        {
          "name": "",
          "type": "bool"
        }
      ],
      "payable": false,
      "stateMutability": "view",
      "type": "function"
    },
    {
      "constant": true,
      "inputs": [
        {
          "name": "_organism",
          "type": "address"
        },
        {
          "name": "_RFLid",
          "type": "uint256"
        },
        {
          "name": "_voter",
          "type": "address"
        }
      ],
      "name": "canVoteOnRFL",
      "outputs": [
        {
          "name": "",
          "type": "bool"
        }
      ],
      "payable": false,
      "stateMutability": "view",
      "type": "function"
    },
    {
      "constant": true,
      "inputs": [
        {
          "name": "_organism",
          "type": "address"
        },
        {
          "name": "_RFIid",
          "type": "uint256"
        }
      ],
      "name": "canExecuteRFIVote",
      "outputs": [
        {
          "name": "",
          "type": "bool"
        }
      ],
      "payable": false,
      "stateMutability": "view",
      "type": "function"
    },
    {
      "constant": true,
      "inputs": [
        {
          "name": "_organism",
          "type": "address"
        },
        {
          "name": "_RFLid",
          "type": "uint256"
        }
      ],
      "name": "canExecuteRFLVote",
      "outputs": [
        {
          "name": "",
          "type": "bool"
        }
      ],
      "payable": false,
      "stateMutability": "view",
      "type": "function"
    }
  ],
  "bytecode": "0x60806040526200001d62000023640100000000026401000000009004565b620002ef565b60006200003e620000f8640100000000026401000000009004565b146040805190810160405280601881526020017f494e49545f414c52454144595f494e495449414c495a45440000000000000000815250901515620000bb576040517f08c379a0000000000000000000000000000000000000000000000000000000008152600401620000b2919062000279565b60405180910390fd5b50620000f67fffffffffffffffffffffffffffffffffffffffffffffffffffffffffffffffff62000145640100000000026401000000009004565b565b6000620001407febb05b386a8d34882b8711d156f463690983dc47815980fb82aeeff1aa43579e600102600019166200022b640100000000026200298a176401000000009004565b905090565b600062000160620000f8640100000000026401000000009004565b146040805190810160405280601881526020017f494e49545f414c52454144595f494e495449414c495a45440000000000000000815250901515620001dd576040517f08c379a0000000000000000000000000000000000000000000000000000000008152600401620001d4919062000279565b60405180910390fd5b5062000228817febb05b386a8d34882b8711d156f463690983dc47815980fb82aeeff1aa43579e6001026000191662000236640100000000026200346a179091906401000000009004565b50565b600081549050919050565b8082555050565b60006200024a826200029d565b80845262000260816020860160208601620002a8565b6200026b81620002de565b602085010191505092915050565b600060208201905081810360008301526200029581846200023d565b905092915050565b600081519050919050565b60005b83811015620002c8578082015181840152602081019050620002ab565b83811115620002d8576000848401525b50505050565b6000601f19601f8301169050919050565b615fd780620002ff6000396000f3006080604052600436106101a1576000357c0100000000000000000000000000000000000000000000000000000000900463ffffffff1680630803fac0146101a65780630ab1929e146101d15780630e732bf21461020e57806312ddd3c1146102545780631703a018146102915780631c633087146102bc5780632914b9bd146102fa57806332f0a3b5146103375780633b2f7a5c146103625780634901f6bc1461039f57806355598533146103ca57806357f887dd146103f35780636e39432f1461041c5780637a1ac61e146104615780637e7db6e11461048a57806380afdea8146104c757806382116aff146104f25780638a989dfa1461052f5780638b3dd7491461056c5780638b68b6a2146105975780639d4941d8146105d4578063a1658fad146105fd578063a479e5081461063a578063ac67523114610665578063bf32aed3146106a2578063cf61ee3d146106df578063d49b10e51461071c578063d4aae0c414610745578063dc8452cd14610770578063de4796ed1461079b578063e26700b0146107c6578063e70b68a5146107ef578063fc0c546a14610818575b600080fd5b3480156101b257600080fd5b506101bb610843565b6040516101c891906156e7565b60405180910390f35b3480156101dd57600080fd5b506101f860048036036101f39190810190614ecd565b61086e565b6040516102059190615a83565b60405180910390f35b34801561021a57600080fd5b5061023560048036036102309190810190614d30565b6109c6565b60405161024b9a99989796959493929190615b9f565b60405180910390f35b34801561026057600080fd5b5061027b60048036036102769190810190614f09565b610a34565b60405161028891906156e7565b60405180910390f35b34801561029d57600080fd5b506102a6610c33565b6040516102b39190615aa5565b60405180910390f35b3480156102c857600080fd5b506102e360048036036102de9190810190614d6c565b610c39565b6040516102f19291906158e7565b60405180910390f35b34801561030657600080fd5b50610321600480360361031c9190810190614de4565b610c84565b60405161032e9190615768565b60405180910390f35b34801561034357600080fd5b5061034c610d3b565b6040516103599190615657565b60405180910390f35b34801561036e57600080fd5b5061038960048036036103849190810190614ecd565b610de5565b6040516103969190615a4b565b60405180910390f35b3480156103ab57600080fd5b506103b4610f6b565b6040516103c19190615702565b60405180910390f35b3480156103d657600080fd5b506103f160048036036103ec9190810190614ecd565b610fa4565b005b3480156103ff57600080fd5b5061041a60048036036104159190810190614e4e565b611084565b005b34801561042857600080fd5b50610443600480360361043e9190810190614d30565b611116565b60405161045899989796959493929190615b12565b60405180910390f35b34801561046d57600080fd5b5061048860048036036104839190810190614fa7565b61117e565b005b34801561049657600080fd5b506104b160048036036104ac9190810190614c77565b6112b0565b6040516104be91906156e7565b60405180910390f35b3480156104d357600080fd5b506104dc6112bb565b6040516104e99190615702565b60405180910390f35b3480156104fe57600080fd5b5061051960048036036105149190810190614ecd565b6112f2565b6040516105269190615a67565b60405180910390f35b34801561053b57600080fd5b5061055660048036036105519190810190614d6c565b611482565b60405161056391906158cc565b60405180910390f35b34801561057857600080fd5b506105816114be565b60405161058e9190615aa5565b60405180910390f35b3480156105a357600080fd5b506105be60048036036105b99190810190614f09565b6114f5565b6040516105cb91906156e7565b60405180910390f35b3480156105e057600080fd5b506105fb60048036036105f69190810190614c77565b6116f4565b005b34801561060957600080fd5b50610624600480360361061f9190810190614cc9565b6119f8565b60405161063191906156e7565b60405180910390f35b34801561064657600080fd5b5061064f611b25565b60405161065c9190615783565b60405180910390f35b34801561067157600080fd5b5061068c60048036036106879190810190614ecd565b611c27565b6040516106999190615932565b60405180910390f35b3480156106ae57600080fd5b506106c960048036036106c49190810190614ecd565b611d81565b6040516106d691906156e7565b60405180910390f35b3480156106eb57600080fd5b5061070660048036036107019190810190614ecd565b611ed2565b60405161071391906156e7565b60405180910390f35b34801561072857600080fd5b50610743600480360361073e9190810190614ecd565b612211565b005b34801561075157600080fd5b5061075a6122f1565b604051610767919061579e565b60405180910390f35b34801561077c57600080fd5b50610785612328565b6040516107929190615aa5565b60405180910390f35b3480156107a757600080fd5b506107b061232e565b6040516107bd91906156e7565b60405180910390f35b3480156107d257600080fd5b506107ed60048036036107e89190810190614ecd565b61235f565b005b3480156107fb57600080fd5b5061081660048036036108119190810190614f58565b61243f565b005b34801561082457600080fd5b5061082d61261f565b60405161083a9190615896565b60405180910390f35b60008061084e6114be565b905060008114158015610868575080610865612644565b10155b91505090565b6108766144c7565b82826000600460008473ffffffffffffffffffffffffffffffffffffffff1673ffffffffffffffffffffffffffffffffffffffff168152602001908152602001600020600083815260200190815260200160002060000154111515610910576040517f08c379a0000000000000000000000000000000000000000000000000000000008152600401610907906159b4565b60405180910390fd5b8473ffffffffffffffffffffffffffffffffffffffff1663889bd35d856040518263ffffffff167c01000000000000000000000000000000000000000000000000000000000281526004016109659190615aa5565b600060405180830381600087803b15801561097f57600080fd5b505af1158015610993573d6000803e3d6000fd5b505050506040513d6000823e3d601f19601f820116820180604052506109bc9190810190615037565b9250505092915050565b6004602052816000526040600020602052806000526040600020600091509150508060000154908060010154908060020154908060030154908060040154908060050154908060060154908060070154908060080154908060090160009054906101000a900460ff1690508a565b60008084846000600460008473ffffffffffffffffffffffffffffffffffffffff1673ffffffffffffffffffffffffffffffffffffffff168152602001908152602001600020600083815260200190815260200160002060000154111515610ad1576040517f08c379a0000000000000000000000000000000000000000000000000000000008152600401610ac8906159b4565b60405180910390fd5b600460008873ffffffffffffffffffffffffffffffffffffffff1673ffffffffffffffffffffffffffffffffffffffff1681526020019081526020016000206000878152602001908152602001600020925060006002811115610b3057fe5b8360090160009054906101000a900460ff166002811115610b4d57fe5b148015610c27575060008060009054906101000a900473ffffffffffffffffffffffffffffffffffffffff1673ffffffffffffffffffffffffffffffffffffffff16634ee2cd7e8786600101546040518363ffffffff167c0100000000000000000000000000000000000000000000000000000000028152600401610bd39291906156be565b602060405180830381600087803b158015610bed57600080fd5b505af1158015610c01573d6000803e3d6000fd5b505050506040513d601f19601f82011682018060405250610c259190810190615078565b115b93505050509392505050565b60025481565b600660205282600052604060002060205281600052604060002060205280600052604060002060009250925050508060000160009054906101000a900460ff16908060010154905082565b6000610c8e611b25565b73ffffffffffffffffffffffffffffffffffffffff166304bf2a7f836040518263ffffffff167c0100000000000000000000000000000000000000000000000000000000028152600401610ce29190615746565b602060405180830381600087803b158015610cfc57600080fd5b505af1158015610d10573d6000803e3d6000fd5b505050506040513d601f19601f82011682018060405250610d349190810190614e25565b9050919050565b6000610d456122f1565b73ffffffffffffffffffffffffffffffffffffffff166332f0a3b56040518163ffffffff167c0100000000000000000000000000000000000000000000000000000000028152600401602060405180830381600087803b158015610da857600080fd5b505af1158015610dbc573d6000803e3d6000fd5b505050506040513d601f19601f82011682018060405250610de09190810190614ca0565b905090565b610ded614508565b82826000600360008473ffffffffffffffffffffffffffffffffffffffff1673ffffffffffffffffffffffffffffffffffffffff168152602001908152602001600020600083815260200190815260200160002060000154111515610e87576040517f08c379a0000000000000000000000000000000000000000000000000000000008152600401610e7e906159d4565b60405180910390fd5b600360008673ffffffffffffffffffffffffffffffffffffffff1673ffffffffffffffffffffffffffffffffffffffff1681526020019081526020016000206000858152602001908152602001600020610120604051908101604052908160008201548152602001600182015481526020016002820154815260200160038201548152602001600482015481526020016005820154815260200160068201548152602001600782015481526020016008820160009054906101000a900460ff166002811115610f5257fe5b6002811115610f5d57fe5b815250509250505092915050565b60405180807f5550444154455f504152414d45544552535f524f4c45000000000000000000008152506016019050604051809103902081565b610fac610843565b6040805190810160405280601481526020017f494e49545f4e4f545f494e495449414c495a4544000000000000000000000000815250901515611025576040517f08c379a000000000000000000000000000000000000000000000000000000000815260040161101c9190615910565b60405180910390fd5b508181611033828233610a34565b1515611074576040517f08c379a000000000000000000000000000000000000000000000000000000000815260040161106b90615954565b60405180910390fd5b61107e848461264c565b50505050565b61108c610843565b6040805190810160405280601481526020017f494e49545f4e4f545f494e495449414c495a4544000000000000000000000000815250901515611105576040517f08c379a00000000000000000000000000000000000000000000000000000000081526004016110fc9190615910565b60405180910390fd5b506111118383836126ad565b505050565b6003602052816000526040600020602052806000526040600020600091509150508060000154908060010154908060020154908060030154908060040154908060050154908060060154908060070154908060080160009054906101000a900460ff16905089565b60006111886114be565b146040805190810160405280601881526020017f494e49545f414c52454144595f494e495449414c495a45440000000000000000815250901515611202576040517f08c379a00000000000000000000000000000000000000000000000000000000081526004016111f99190615910565b60405180910390fd5b50606482111580156112145750818111155b1515611255576040517f08c379a000000000000000000000000000000000000000000000000000000000815260040161124c90615994565b60405180910390fd5b61125d6128b7565b826000806101000a81548173ffffffffffffffffffffffffffffffffffffffff021916908373ffffffffffffffffffffffffffffffffffffffff1602179055508160028190555080600181905550505050565b600060019050919050565b60006112ed7fd625496217aa6a3453eecb9c3489dc5a53e6c67b444329ea2b2cbc9ff547639b6001026000191661297f565b905090565b6112fa614560565b82826000600460008473ffffffffffffffffffffffffffffffffffffffff1673ffffffffffffffffffffffffffffffffffffffff168152602001908152602001600020600083815260200190815260200160002060000154111515611394576040517f08c379a000000000000000000000000000000000000000000000000000000000815260040161138b906159b4565b60405180910390fd5b600460008673ffffffffffffffffffffffffffffffffffffffff1673ffffffffffffffffffffffffffffffffffffffff168152602001908152602001600020600085815260200190815260200160002061014060405190810160405290816000820154815260200160018201548152602001600282015481526020016003820154815260200160048201548152602001600582015481526020016006820154815260200160078201548152602001600882015481526020016009820160009054906101000a900460ff16600281111561146957fe5b600281111561147457fe5b815250509250505092915050565b6005602052826000526040600020602052816000526040600020602052806000526040600020600092509250509054906101000a900460ff1681565b60006114f07febb05b386a8d34882b8711d156f463690983dc47815980fb82aeeff1aa43579e6001026000191661298a565b905090565b60008084846000600360008473ffffffffffffffffffffffffffffffffffffffff1673ffffffffffffffffffffffffffffffffffffffff168152602001908152602001600020600083815260200190815260200160002060000154111515611592576040517f08c379a0000000000000000000000000000000000000000000000000000000008152600401611589906159d4565b60405180910390fd5b600360008873ffffffffffffffffffffffffffffffffffffffff1673ffffffffffffffffffffffffffffffffffffffff16815260200190815260200160002060008781526020019081526020016000209250600060028111156115f157fe5b8360080160009054906101000a900460ff16600281111561160e57fe5b1480156116e8575060008060009054906101000a900473ffffffffffffffffffffffffffffffffffffffff1673ffffffffffffffffffffffffffffffffffffffff16634ee2cd7e8786600101546040518363ffffffff167c01000000000000000000000000000000000000000000000000000000000281526004016116949291906156be565b602060405180830381600087803b1580156116ae57600080fd5b505af11580156116c2573d6000803e3d6000fd5b505050506040513d601f19601f820116820180604052506116e69190810190615078565b115b93505050509392505050565b600080611700836112b0565b6040805190810160405280601281526020017f5245434f5645525f444953414c4c4f5745440000000000000000000000000000815250901515611779576040517f08c379a00000000000000000000000000000000000000000000000000000000081526004016117709190615910565b60405180910390fd5b50611782610d3b565b915061178d82612995565b6040805190810160405280601a81526020017f5245434f5645525f5641554c545f4e4f545f434f4e5452414354000000000000815250901515611806576040517f08c379a00000000000000000000000000000000000000000000000000000000081526004016117fd9190615910565b60405180910390fd5b50600073ffffffffffffffffffffffffffffffffffffffff168373ffffffffffffffffffffffffffffffffffffffff16141561189f578173ffffffffffffffffffffffffffffffffffffffff166108fc3073ffffffffffffffffffffffffffffffffffffffff16319081150290604051600060405180830381858888f19350505050158015611899573d6000803e3d6000fd5b506119f3565b8273ffffffffffffffffffffffffffffffffffffffff166370a08231306040518263ffffffff167c01000000000000000000000000000000000000000000000000000000000281526004016118f491906158b1565b602060405180830381600087803b15801561190e57600080fd5b505af1158015611922573d6000803e3d6000fd5b505050506040513d601f19601f820116820180604052506119469190810190615078565b90508273ffffffffffffffffffffffffffffffffffffffff1663a9059cbb83836040518363ffffffff167c010000000000000000000000000000000000000000000000000000000002815260040161199f9291906156be565b602060405180830381600087803b1580156119b957600080fd5b505af11580156119cd573d6000803e3d6000fd5b505050506040513d601f19601f820116820180604052506119f19190810190614dbb565b505b505050565b60008060606000611a07610843565b1515611a165760009350611b1b565b611a1e6122f1565b9250600073ffffffffffffffffffffffffffffffffffffffff168373ffffffffffffffffffffffffffffffffffffffff161415611a5e5760009350611b1b565b602085510290508491508082528273ffffffffffffffffffffffffffffffffffffffff1663fdef9106883089866040518563ffffffff167c0100000000000000000000000000000000000000000000000000000000028152600401611ac69493929190615672565b602060405180830381600087803b158015611ae057600080fd5b505af1158015611af4573d6000803e3d6000fd5b505050506040513d601f19601f82011682018060405250611b189190810190614dbb565b93505b5050509392505050565b600080611b306122f1565b73ffffffffffffffffffffffffffffffffffffffff1663be00bbd87fd6f028ca0e8edb4a8c9757ca4fdccab25fa1e0317da1188108f7d2dee14902fb6001027fddbcfd564f642ab5627cf68b9b7d374fb4f8a36e941a75d89c87998cef03bd616001026040518363ffffffff167c0100000000000000000000000000000000000000000000000000000000028152600401611bcc92919061571d565b602060405180830381600087803b158015611be657600080fd5b505af1158015611bfa573d6000803e3d6000fd5b505050506040513d601f19601f82011682018060405250611c1e9190810190614ca0565b90508091505090565b606082826000600360008473ffffffffffffffffffffffffffffffffffffffff1673ffffffffffffffffffffffffffffffffffffffff168152602001908152602001600020600083815260200190815260200160002060000154111515611cc3576040517f08c379a0000000000000000000000000000000000000000000000000000000008152600401611cba906159d4565b60405180910390fd5b8473ffffffffffffffffffffffffffffffffffffffff1663fec7d70b856040518263ffffffff167c0100000000000000000000000000000000000000000000000000000000028152600401611d189190615aa5565b600060405180830381600087803b158015611d3257600080fd5b505af1158015611d46573d6000803e3d6000fd5b505050506040513d6000823e3d601f19601f82011682018060405250611d6f9190810190614ff6565b60000151600001519250505092915050565b60008083836000600460008473ffffffffffffffffffffffffffffffffffffffff1673ffffffffffffffffffffffffffffffffffffffff168152602001908152602001600020600083815260200190815260200160002060000154111515611e1e576040517f08c379a0000000000000000000000000000000000000000000000000000000008152600401611e15906159b4565b60405180910390fd5b600460008773ffffffffffffffffffffffffffffffffffffffff1673ffffffffffffffffffffffffffffffffffffffff1681526020019081526020016000206000868152602001908152602001600020925060006002811115611e7d57fe5b8360090160009054906101000a900460ff166002811115611e9a57fe5b141515611eaa5760009350611ec9565b82600301548360080154101515611ec45760019350611ec9565b600093505b50505092915050565b600080611edd6145bf565b6000611ee76144c7565b86866000600360008473ffffffffffffffffffffffffffffffffffffffff1673ffffffffffffffffffffffffffffffffffffffff168152602001908152602001600020600083815260200190815260200160002060000154111515611f81576040517f08c379a0000000000000000000000000000000000000000000000000000000008152600401611f78906159d4565b60405180910390fd5b600360008a73ffffffffffffffffffffffffffffffffffffffff1673ffffffffffffffffffffffffffffffffffffffff168152602001908152602001600020600089815260200190815260200160002095508873ffffffffffffffffffffffffffffffffffffffff1663fec7d70b87600001546040518263ffffffff167c010000000000000000000000000000000000000000000000000000000002815260040161202c9190615aa5565b600060405180830381600087803b15801561204657600080fd5b505af115801561205a573d6000803e3d6000fd5b505050506040513d6000823e3d601f19601f820116820180604052506120839190810190614ff6565b94506000600281111561209257fe5b8660080160009054906101000a900460ff1660028111156120af57fe5b1415156120bf5760009650612205565b8560030154866007015410151561220057856004015486600501541015156121f757600093505b8460600151518410156121f6578873ffffffffffffffffffffffffffffffffffffffff1663889bd35d86606001518681518110151561212157fe5b906020019060200201516040518263ffffffff167c01000000000000000000000000000000000000000000000000000000000281526004016121639190615aa5565b600060405180830381600087803b15801561217d57600080fd5b505af1158015612191573d6000803e3d6000fd5b505050506040513d6000823e3d601f19601f820116820180604052506121ba9190810190615037565b9250600160048111156121c957fe5b836060015160048111156121d957fe5b1415156121e95760009650612205565b83806001019450506120e6565b5b60019650612205565b600096505b50505050505092915050565b612219610843565b6040805190810160405280601481526020017f494e49545f4e4f545f494e495449414c495a4544000000000000000000000000815250901515612292576040517f08c379a00000000000000000000000000000000000000000000000000000000081526004016122899190615910565b60405180910390fd5b5081816122a08282336114f5565b15156122e1576040517f08c379a00000000000000000000000000000000000000000000000000000000081526004016122d8906159f4565b60405180910390fd5b6122eb84846129e7565b50505050565b60006123237f4172f0f7d2289153072b0a6ca36959e0cbe2efc3afe50fc81636caa96338137b60010260001916612a47565b905090565b60015481565b60007fffffffffffffffffffffffffffffffffffffffffffffffffffffffffffffffff6123596114be565b14905090565b612367610843565b6040805190810160405280601481526020017f494e49545f4e4f545f494e495449414c495a45440000000000000000000000008152509015156123e0576040517f08c379a00000000000000000000000000000000000000000000000000000000081526004016123d79190615910565b60405180910390fd5b5081816123ee8282336114f5565b151561242f576040517f08c379a0000000000000000000000000000000000000000000000000000000008152600401612426906159f4565b60405180910390fd5b6124398484612a52565b50505050565b612447610843565b6040805190810160405280601481526020017f494e49545f4e4f545f494e495449414c495a45440000000000000000000000008152509015156124c0576040517f08c379a00000000000000000000000000000000000000000000000000000000081526004016124b79190615910565b60405180910390fd5b5082826124ce828233610a34565b151561250f576040517f08c379a000000000000000000000000000000000000000000000000000000000815260040161250690615954565b60405180910390fd5b8484848273ffffffffffffffffffffffffffffffffffffffff1663889bd35d836040518263ffffffff167c01000000000000000000000000000000000000000000000000000000000281526004016125679190615aa5565b600060405180830381600087803b15801561258157600080fd5b505af1158015612595573d6000803e3d6000fd5b505050506040513d6000823e3d601f19601f820116820180604052506125be9190810190615037565b6000015160200151811015151561260a576040517f08c379a000000000000000000000000000000000000000000000000000000000815260040161260190615974565b60405180910390fd5b612615888888612ab2565b5050505050505050565b6000809054906101000a900473ffffffffffffffffffffffffffffffffffffffff1681565b600043905090565b61265a828260008033612b16565b808273ffffffffffffffffffffffffffffffffffffffff167f21b055818c289a0776966d1f4b862b9f71d742681cc90611b5b08dd04f931b87336040516126a19190615657565b60405180910390a35050565b60006126b76145bf565b60008573ffffffffffffffffffffffffffffffffffffffff166331f7009686866040518363ffffffff167c0100000000000000000000000000000000000000000000000000000000028152600401612710929190615a14565b602060405180830381600087803b15801561272a57600080fd5b505af115801561273e573d6000803e3d6000fd5b505050506040513d601f19601f820116820180604052506127629190810190615078565b92508573ffffffffffffffffffffffffffffffffffffffff1663fec7d70b846040518263ffffffff167c01000000000000000000000000000000000000000000000000000000000281526004016127b99190615aa5565b600060405180830381600087803b1580156127d357600080fd5b505af11580156127e7573d6000803e3d6000fd5b505050506040513d6000823e3d601f19601f820116820180604052506128109190810190614ff6565b9150600090505b816060015151811015612856576128498683606001518381518110151561283a57fe5b90602001906020020151612ff4565b8080600101915050612817565b6128608684613225565b828673ffffffffffffffffffffffffffffffffffffffff167f7fa5d1ac92146f74ddbebc254679a8e41cda6b732d19aa71b819018f48f0313d336040516128a79190615657565b60405180910390a3505050505050565b60006128c16114be565b146040805190810160405280601881526020017f494e49545f414c52454144595f494e495449414c495a4544000000000000000081525090151561293b576040517f08c379a00000000000000000000000000000000000000000000000000000000081526004016129329190615910565b60405180910390fd5b5061297d612947612644565b7febb05b386a8d34882b8711d156f463690983dc47815980fb82aeeff1aa43579e6001026000191661346a90919063ffffffff16565b565b600081549050919050565b600081549050919050565b600080600073ffffffffffffffffffffffffffffffffffffffff168373ffffffffffffffffffffffffffffffffffffffff1614156129d657600091506129e1565b823b90506000811191505b50919050565b6129f48282600033613471565b808273ffffffffffffffffffffffffffffffffffffffff167f765f3d8e266a9fa3317b8fcdbe47e2ee878db83230fe389d4bc83c72adc3b39f33604051612a3b9190615657565b60405180910390a35050565b600081549050919050565b612a5f8282600133613471565b808273ffffffffffffffffffffffffffffffffffffffff167fad6ee225281f20a74c5e6e7947529076ca2b4639c983cc0539d57bfeda0afcc233604051612aa69190615657565b60405180910390a35050565b612ac0838360018433612b16565b818373ffffffffffffffffffffffffffffffffffffffff167f30c734dd2fc051e35d9c49d0950fe6fd43e42658c2397d489d4629cf029c2fd48333604051612b09929190615ac0565b60405180910390a3505050565b6000806000600460008973ffffffffffffffffffffffffffffffffffffffff1673ffffffffffffffffffffffffffffffffffffffff168152602001908152602001600020600088815260200190815260200160002092506000809054906101000a900473ffffffffffffffffffffffffffffffffffffffff1673ffffffffffffffffffffffffffffffffffffffff16634ee2cd7e8585600101546040518363ffffffff167c0100000000000000000000000000000000000000000000000000000000028152600401612be99291906156be565b602060405180830381600087803b158015612c0357600080fd5b505af1158015612c17573d6000803e3d6000fd5b505050506040513d601f19601f82011682018060405250612c3b9190810190615078565b9150600660008973ffffffffffffffffffffffffffffffffffffffff1673ffffffffffffffffffffffffffffffffffffffff168152602001908152602001600020600088815260200190815260200160002060008573ffffffffffffffffffffffffffffffffffffffff1673ffffffffffffffffffffffffffffffffffffffff168152602001908152602001600020905060006002811115612cd957fe5b8160000160009054906101000a900460ff166002811115612cf657fe5b141515612d1d57612d148284600801546139c690919063ffffffff16565b83600801819055505b60016002811115612d2a57fe5b8160000160009054906101000a900460ff166002811115612d4757fe5b1415612da657612d648284600501546139c690919063ffffffff16565b8360050181905550612d99612d86826001015484613a5690919063ffffffff16565b84600701546139c690919063ffffffff16565b8360070181905550612df6565b600280811115612db257fe5b8160000160009054906101000a900460ff166002811115612dcf57fe5b1415612df557612dec8284600601546139c690919063ffffffff16565b83600601819055505b5b8515612ed157612e13828460050154613b0390919063ffffffff16565b8360050181905550612e44612e318684613a5690919063ffffffff16565b8460070154613b0390919063ffffffff16565b836007018190555060018160000160006101000a81548160ff02191690836002811115612e6d57fe5b0217905550848160010181905550868873ffffffffffffffffffffffffffffffffffffffff167f30c734dd2fc051e35d9c49d0950fe6fd43e42658c2397d489d4629cf029c2fd48787604051612ec4929190615ac0565b60405180910390a3612f70565b612ee8828460060154613b0390919063ffffffff16565b836006018190555060028160000160006101000a81548160ff02191690836002811115612f1157fe5b021790555060008160010181905550868873ffffffffffffffffffffffffffffffffffffffff167f21b055818c289a0776966d1f4b862b9f71d742681cc90611b5b08dd04f931b8786604051612f679190615657565b60405180910390a35b612f87828460080154613b0390919063ffffffff16565b83600801819055507f67f31659f141f0c2f72116eb452e307316e88a210cd462934e5215c762d0fa7c888886898987604051612fc896959493929190615835565b60405180910390a1612fda8888611d81565b15612fea57612fe98888613b93565b5b5050505050505050565b6000600460008473ffffffffffffffffffffffffffffffffffffffff1673ffffffffffffffffffffffffffffffffffffffff168152602001908152602001600020600083815260200190815260200160002090508181600001819055506001430381600101819055506000809054906101000a900473ffffffffffffffffffffffffffffffffffffffff1673ffffffffffffffffffffffffffffffffffffffff1663981b24d082600101546040518263ffffffff167c01000000000000000000000000000000000000000000000000000000000281526004016130d79190615aa5565b602060405180830381600087803b1580156130f157600080fd5b505af1158015613105573d6000803e3d6000fd5b505050506040513d601f19601f820116820180604052506131299190810190615078565b816002018190555061315d606461314f8360020154600254613a5690919063ffffffff16565b613e4590919063ffffffff16565b816003018190555061319160646131838360020154600154613a5690919063ffffffff16565b613e4590919063ffffffff16565b81600401819055506000816005018190555060008160060181905550600081600701819055506000816008018190555060008160090160006101000a81548160ff021916908360028111156131e257fe5b02179055507fc80dfb75ae81bddc2353e7829374e3cdd75c0b514ebea75b04ebd43557d9385083836040516132189291906157b9565b60405180910390a1505050565b6000600360008473ffffffffffffffffffffffffffffffffffffffff1673ffffffffffffffffffffffffffffffffffffffff168152602001908152602001600020600083815260200190815260200160002090508181600001819055506001430381600101819055506000809054906101000a900473ffffffffffffffffffffffffffffffffffffffff1673ffffffffffffffffffffffffffffffffffffffff1663981b24d082600101546040518263ffffffff167c01000000000000000000000000000000000000000000000000000000000281526004016133089190615aa5565b602060405180830381600087803b15801561332257600080fd5b505af1158015613336573d6000803e3d6000fd5b505050506040513d601f19601f8201168201806040525061335a9190810190615078565b816002018190555061338e60646133808360020154600254613a5690919063ffffffff16565b613e4590919063ffffffff16565b81600301819055506133c260646133b48360020154600154613a5690919063ffffffff16565b613e4590919063ffffffff16565b816004018190555060008160050181905550600081600601819055506000816007018190555060008160080160006101000a81548160ff0219169083600281111561340957fe5b02179055507f459c0186854b229ea01639896d9758052452d4d6fe7a865172ff28c621b912cb838360405161343f9291906157b9565b60405180910390a16134528383336114f5565b15613465576134648383600133613471565b5b505050565b8082555050565b6000806000600360008873ffffffffffffffffffffffffffffffffffffffff1673ffffffffffffffffffffffffffffffffffffffff168152602001908152602001600020600087815260200190815260200160002092506000809054906101000a900473ffffffffffffffffffffffffffffffffffffffff1673ffffffffffffffffffffffffffffffffffffffff16634ee2cd7e8585600101546040518363ffffffff167c01000000000000000000000000000000000000000000000000000000000281526004016135449291906156be565b602060405180830381600087803b15801561355e57600080fd5b505af1158015613572573d6000803e3d6000fd5b505050506040513d601f19601f820116820180604052506135969190810190615078565b9150600560008873ffffffffffffffffffffffffffffffffffffffff1673ffffffffffffffffffffffffffffffffffffffff168152602001908152602001600020600087815260200190815260200160002060008573ffffffffffffffffffffffffffffffffffffffff1673ffffffffffffffffffffffffffffffffffffffff16815260200190815260200160002060009054906101000a900460ff1690506000600281111561364257fe5b81600281111561364e57fe5b1415156136755761366c8284600701546139c690919063ffffffff16565b83600701819055505b6001600281111561368257fe5b81600281111561368e57fe5b14156136b8576136ab8284600501546139c690919063ffffffff16565b83600501819055506136f7565b6002808111156136c457fe5b8160028111156136d057fe5b14156136f6576136ed8284600601546139c690919063ffffffff16565b83600601819055505b5b841561382357613714828460050154613b0390919063ffffffff16565b83600501819055506001600560008973ffffffffffffffffffffffffffffffffffffffff1673ffffffffffffffffffffffffffffffffffffffff168152602001908152602001600020600088815260200190815260200160002060008673ffffffffffffffffffffffffffffffffffffffff1673ffffffffffffffffffffffffffffffffffffffff16815260200190815260200160002060006101000a81548160ff021916908360028111156137c657fe5b021790555082600001548773ffffffffffffffffffffffffffffffffffffffff167fad6ee225281f20a74c5e6e7947529076ca2b4639c983cc0539d57bfeda0afcc2866040516138169190615657565b60405180910390a3613945565b61383a828460060154613b0390919063ffffffff16565b83600601819055506002600560008973ffffffffffffffffffffffffffffffffffffffff1673ffffffffffffffffffffffffffffffffffffffff168152602001908152602001600020600088815260200190815260200160002060008673ffffffffffffffffffffffffffffffffffffffff1673ffffffffffffffffffffffffffffffffffffffff16815260200190815260200160002060006101000a81548160ff021916908360028111156138ec57fe5b021790555082600001548773ffffffffffffffffffffffffffffffffffffffff167f765f3d8e266a9fa3317b8fcdbe47e2ee878db83230fe389d4bc83c72adc3b39f8660405161393c9190615657565b60405180910390a35b61395c828460070154613b0390919063ffffffff16565b83600701819055507ffc7e41801886fcb2f2ed05ea98f973fefd40c265b70ae68ef54e897c07e6a485878786888660405161399b9594939291906157e2565b60405180910390a16139ad8787611ed2565b156139bd576139bc8787613ede565b5b50505050505050565b600080838311156040805190810160405280601281526020017f4d4154485f5355425f554e444552464c4f570000000000000000000000000000815250901515613a46576040517f08c379a0000000000000000000000000000000000000000000000000000000008152600401613a3d9190615910565b60405180910390fd5b5082840390508091505092915050565b6000806000841415613a6b5760009150613afc565b8284029050828482811515613a7c57fe5b04146040805190810160405280601181526020017f4d4154485f4d554c5f4f564552464c4f57000000000000000000000000000000815250901515613af7576040517f08c379a0000000000000000000000000000000000000000000000000000000008152600401613aee9190615910565b60405180910390fd5b508091505b5092915050565b6000808284019050838110156040805190810160405280601181526020017f4d4154485f4144445f4f564552464c4f57000000000000000000000000000000815250901515613b88576040517f08c379a0000000000000000000000000000000000000000000000000000000008152600401613b7f9190615910565b60405180910390fd5b508091505092915050565b6000600460008473ffffffffffffffffffffffffffffffffffffffff1673ffffffffffffffffffffffffffffffffffffffff1681526020019081526020016000206000838152602001908152602001600020905060018160090160006101000a81548160ff02191690836002811115613c0857fe5b021790555080600401548160050154101515613cc6578273ffffffffffffffffffffffffffffffffffffffff16636d5f5ca783613c5684600501548560070154613e4590919063ffffffff16565b6040518363ffffffff167c0100000000000000000000000000000000000000000000000000000000028152600401613c8f929190615ae9565b600060405180830381600087803b158015613ca957600080fd5b505af1158015613cbd573d6000803e3d6000fd5b50505050613e07565b613d7f838473ffffffffffffffffffffffffffffffffffffffff1663889bd35d856040518263ffffffff167c0100000000000000000000000000000000000000000000000000000000028152600401613d1f9190615aa5565b600060405180830381600087803b158015613d3957600080fd5b505af1158015613d4d573d6000803e3d6000fd5b505050506040513d6000823e3d601f19601f82011682018060405250613d769190810190615037565b608001516141bd565b8273ffffffffffffffffffffffffffffffffffffffff16636e0b314c836040518263ffffffff167c0100000000000000000000000000000000000000000000000000000000028152600401613dd49190615aa5565b600060405180830381600087803b158015613dee57600080fd5b505af1158015613e02573d6000803e3d6000fd5b505050505b7f7a62334ca907cda9edac6f0e64f13251c06a45b9bca0cb82817346d4dd730f6a8383604051613e389291906157b9565b60405180910390a1505050565b600080600083116040805190810160405280600d81526020017f4d4154485f4449565f5a45524f00000000000000000000000000000000000000815250901515613ec5576040517f08c379a0000000000000000000000000000000000000000000000000000000008152600401613ebc9190615910565b60405180910390fd5b508284811515613ed157fe5b0490508091505092915050565b6000613ee86145bf565b6000600360008673ffffffffffffffffffffffffffffffffffffffff1673ffffffffffffffffffffffffffffffffffffffff1681526020019081526020016000206000858152602001908152602001600020925082600401548360050154101515613fd9578473ffffffffffffffffffffffffffffffffffffffff1663ddf6fa9c856040518263ffffffff167c0100000000000000000000000000000000000000000000000000000000028152600401613fa29190615aa5565b600060405180830381600087803b158015613fbc57600080fd5b505af1158015613fd0573d6000803e3d6000fd5b50505050614157565b8473ffffffffffffffffffffffffffffffffffffffff1663fec7d70b856040518263ffffffff167c010000000000000000000000000000000000000000000000000000000002815260040161402e9190615aa5565b600060405180830381600087803b15801561404857600080fd5b505af115801561405c573d6000803e3d6000fd5b505050506040513d6000823e3d601f19601f820116820180604052506140859190810190614ff6565b9150600090505b8160600151518110156140cb576140be858360600151838151811015156140af57fe5b9060200190602002015161440f565b808060010191505061408c565b8473ffffffffffffffffffffffffffffffffffffffff1663748b052c84600001546040518263ffffffff167c01000000000000000000000000000000000000000000000000000000000281526004016141249190615aa5565b600060405180830381600087803b15801561413e57600080fd5b505af1158015614152573d6000803e3d6000fd5b505050505b60018360080160006101000a81548160ff0219169083600281111561417857fe5b02179055507ff9e893896160019f494e6a908a16f04628a4a8a152ca59b6abea9ba8b14e4b6c85856040516141ae9291906157b9565b60405180910390a15050505050565b60006141c76145bf565b6000600360008673ffffffffffffffffffffffffffffffffffffffff1673ffffffffffffffffffffffffffffffffffffffff168152602001908152602001600020600085815260200190815260200160002092508473ffffffffffffffffffffffffffffffffffffffff1663fec7d70b856040518263ffffffff167c01000000000000000000000000000000000000000000000000000000000281526004016142709190615aa5565b600060405180830381600087803b15801561428a57600080fd5b505af115801561429e573d6000803e3d6000fd5b505050506040513d6000823e3d601f19601f820116820180604052506142c79190810190614ff6565b915060028360080160006101000a81548160ff021916908360028111156142ea57fe5b0217905550600090505b8160600151518110156143cf576001600281111561430e57fe5b600460008773ffffffffffffffffffffffffffffffffffffffff1673ffffffffffffffffffffffffffffffffffffffff168152602001908152602001600020600084606001518481518110151561436157fe5b90602001906020020151815260200190815260200160002060090160009054906101000a900460ff16600281111561439557fe5b1415156143c2576143c1858360600151838151811015156143b257fe5b9060200190602002015161440f565b5b80806001019150506142f4565b7f430ff3f9c6554faf1a1b8c7cbf1bf5c479c8eb64538239f8991be60a3bc15e0f85856040516144009291906157b9565b60405180910390a15050505050565b6000600460008473ffffffffffffffffffffffffffffffffffffffff1673ffffffffffffffffffffffffffffffffffffffff1681526020019081526020016000206000838152602001908152602001600020905060028160090160006101000a81548160ff0219169083600281111561448457fe5b02179055507f8c6d65bc51d03af5d344851f84b2f3d571456b100242ab79f91a1dae16964acf83836040516144ba9291906157b9565b60405180910390a1505050565b60e0604051908101604052806144db6145f9565b81526020016000815260200160008152602001600060048111156144fb57fe5b8152602001600081525090565b6101206040519081016040528060008152602001600081526020016000815260200160008152602001600081526020016000815260200160008152602001600081526020016000600281111561455a57fe5b81525090565b61014060405190810160405280600081526020016000815260200160008152602001600081526020016000815260200160008152602001600081526020016000815260200160008152602001600060028111156145b957fe5b81525090565b6080604051908101604052806145d3614631565b815260200160008152602001600060038111156145ec57fe5b8152602001606081525090565b606060405190810160405280600073ffffffffffffffffffffffffffffffffffffffff16815260200160008152602001606081525090565b602060405190810160405280606081525090565b60006146518235615e00565b905092915050565b60006146658251615e00565b905092915050565b600082601f830112151561468057600080fd5b813561469361468e82615c68565b615c3b565b9150818183526020840193506020810190508360005b838110156146d957813586016146bf8882614a1b565b8452602084019350602083019250506001810190506146a9565b5050505092915050565b600082601f83011215156146f657600080fd5b815161470961470482615c90565b615c3b565b9150818183526020840193506020810190508385602084028201111561472e57600080fd5b60005b8381101561475e57816147448882614c63565b845260208401935060208301925050600181019050614731565b5050505092915050565b600082601f830112151561477b57600080fd5b813561478e61478982615cb8565b615c3b565b915081818352602084019350602081019050838560208402820111156147b357600080fd5b60005b838110156147e357816147c98882614c4f565b8452602084019350602083019250506001810190506147b6565b5050505092915050565b60006147f98251615e20565b905092915050565b600061480d8235615e2c565b905092915050565b600082601f830112151561482857600080fd5b813561483b61483682615ce0565b615c3b565b9150808252602083016020830185838301111561485757600080fd5b614862838284615f4a565b50505092915050565b60006148778251615e36565b905092915050565b600061488b8235615e48565b905092915050565b600061489f8235615e5a565b905092915050565b60006148b38251615e6c565b905092915050565b60006148c78251615e85565b905092915050565b600082601f83011215156148e257600080fd5b81356148f56148f082615d0c565b615c3b565b9150808252602083016020830185838301111561491157600080fd5b61491c838284615f4a565b50505092915050565b600082601f830112151561493857600080fd5b815161494b61494682615d0c565b615c3b565b9150808252602083016020830185838301111561496757600080fd5b614972838284615f59565b50505092915050565b60006020828403121561498d57600080fd5b6149976020615c3b565b9050600082015167ffffffffffffffff8111156149b357600080fd5b6149bf84828501614925565b60008301525092915050565b6000602082840312156149dd57600080fd5b6149e76020615c3b565b9050600082013567ffffffffffffffff811115614a0357600080fd5b614a0f848285016148cf565b60008301525092915050565b600060608284031215614a2d57600080fd5b614a376060615c3b565b90506000614a4784828501614645565b6000830152506020614a5b84828501614c4f565b602083015250604082013567ffffffffffffffff811115614a7b57600080fd5b614a87848285016148cf565b60408301525092915050565b600060608284031215614aa557600080fd5b614aaf6060615c3b565b90506000614abf84828501614659565b6000830152506020614ad384828501614c63565b602083015250604082015167ffffffffffffffff811115614af357600080fd5b614aff84828501614925565b60408301525092915050565b600060808284031215614b1d57600080fd5b614b276080615c3b565b9050600082015167ffffffffffffffff811115614b4357600080fd5b614b4f8482850161497b565b6000830152506020614b6384828501614c63565b6020830152506040614b77848285016148a7565b604083015250606082015167ffffffffffffffff811115614b9757600080fd5b614ba3848285016146e3565b60608301525092915050565b600060a08284031215614bc157600080fd5b614bcb60a0615c3b565b9050600082015167ffffffffffffffff811115614be757600080fd5b614bf384828501614a93565b6000830152506020614c0784828501614c63565b6020830152506040614c1b84828501614c63565b6040830152506060614c2f848285016148bb565b6060830152506080614c4384828501614c63565b60808301525092915050565b6000614c5b8235615e9e565b905092915050565b6000614c6f8251615e9e565b905092915050565b600060208284031215614c8957600080fd5b6000614c9784828501614645565b91505092915050565b600060208284031215614cb257600080fd5b6000614cc084828501614659565b91505092915050565b600080600060608486031215614cde57600080fd5b6000614cec86828701614645565b9350506020614cfd86828701614801565b925050604084013567ffffffffffffffff811115614d1a57600080fd5b614d2686828701614768565b9150509250925092565b60008060408385031215614d4357600080fd5b6000614d5185828601614645565b9250506020614d6285828601614c4f565b9150509250929050565b600080600060608486031215614d8157600080fd5b6000614d8f86828701614645565b9350506020614da086828701614c4f565b9250506040614db186828701614645565b9150509250925092565b600060208284031215614dcd57600080fd5b6000614ddb848285016147ed565b91505092915050565b600060208284031215614df657600080fd5b600082013567ffffffffffffffff811115614e1057600080fd5b614e1c84828501614815565b91505092915050565b600060208284031215614e3757600080fd5b6000614e458482850161486b565b91505092915050565b600080600060608486031215614e6357600080fd5b6000614e718682870161487f565b935050602084013567ffffffffffffffff811115614e8e57600080fd5b614e9a868287016149cb565b925050604084013567ffffffffffffffff811115614eb757600080fd5b614ec38682870161466d565b9150509250925092565b60008060408385031215614ee057600080fd5b6000614eee8582860161487f565b9250506020614eff85828601614c4f565b9150509250929050565b600080600060608486031215614f1e57600080fd5b6000614f2c8682870161487f565b9350506020614f3d86828701614c4f565b9250506040614f4e86828701614645565b9150509250925092565b600080600060608486031215614f6d57600080fd5b6000614f7b8682870161487f565b9350506020614f8c86828701614c4f565b9250506040614f9d86828701614c4f565b9150509250925092565b600080600060608486031215614fbc57600080fd5b6000614fca86828701614893565b9350506020614fdb86828701614c4f565b9250506040614fec86828701614c4f565b9150509250925092565b60006020828403121561500857600080fd5b600082015167ffffffffffffffff81111561502257600080fd5b61502e84828501614b0b565b91505092915050565b60006020828403121561504957600080fd5b600082015167ffffffffffffffff81111561506357600080fd5b61506f84828501614baf565b91505092915050565b60006020828403121561508a57600080fd5b600061509884828501614c63565b91505092915050565b6150aa81615d7e565b82525050565b60006150bb82615d45565b808452602084019350836020820285016150d485615d38565b60005b8481101561510d5783830388526150ef8383516153ff565b92506150fa82615d71565b91506020880197506001810190506150d7565b508196508694505050505092915050565b61512781615d9e565b82525050565b61513681615daa565b82525050565b600061514782615d50565b80845261515b816020860160208601615f59565b61516481615f8c565b602085010191505092915050565b61517b81615ea8565b82525050565b61518a81615eba565b82525050565b61519981615ecc565b82525050565b6151a881615ede565b82525050565b6151b781615ef0565b82525050565b6151c681615f02565b82525050565b6151d581615f14565b82525050565b6151e481615f26565b82525050565b6151f381615f38565b82525050565b600061520482615d66565b808452615218816020860160208601615f59565b61522181615f8c565b602085010191505092915050565b600061523a82615d5b565b80845261524e816020860160208601615f59565b61525781615f8c565b602085010191505092915050565b6000601982527f73656e6465722063616e6e6f7420766f7465206f6e2052464c000000000000006020830152604082019050919050565b6000602082527f76616c756520697320696e666572696f7220746f2052464c206d696e696d756d6020830152604082019050919050565b6000602682527f696e697469616c697a6174696f6e20706172616d6574657273206f7574206f6660208301527f20626f756e6400000000000000000000000000000000000000000000000000006040830152606082019050919050565b6000601282527f52464c20646f6573206e6f7420657869737400000000000000000000000000006020830152604082019050919050565b6000601282527f52464920646f6573206e6f7420657869737400000000000000000000000000006020830152604082019050919050565b6000601982527f73656e6465722063616e6e6f7420766f7465206f6e20524649000000000000006020830152604082019050919050565b600060208301600083015184820360008601526153f2828261522f565b9150508091505092915050565b600060608301600083015161541760008601826150a1565b50602083015161542a6020860182615648565b5060408301518482036040860152615442828261522f565b9150508091505092915050565b610120820160008201516154666000850182615648565b5060208201516154796020850182615648565b50604082015161548c6040850182615648565b50606082015161549f6060850182615648565b5060808201516154b26080850182615648565b5060a08201516154c560a0850182615648565b5060c08201516154d860c0850182615648565b5060e08201516154eb60e0850182615648565b506101008201516155006101008501826151db565b50505050565b6101408201600082015161551d6000850182615648565b5060208201516155306020850182615648565b5060408201516155436040850182615648565b5060608201516155566060850182615648565b5060808201516155696080850182615648565b5060a082015161557c60a0850182615648565b5060c082015161558f60c0850182615648565b5060e08201516155a260e0850182615648565b506101008201516155b7610100850182615648565b506101208201516155cc6101208501826151db565b50505050565b600060a08301600083015184820360008601526155ef82826153ff565b91505060208301516156046020860182615648565b5060408301516156176040860182615648565b50606083015161562a60608601826151cc565b50608083015161563d6080860182615648565b508091505092915050565b61565181615df6565b82525050565b600060208201905061566c60008301846150a1565b92915050565b600060808201905061568760008301876150a1565b61569460208301866150a1565b6156a1604083018561512d565b81810360608301526156b3818461513c565b905095945050505050565b60006040820190506156d360008301856150a1565b6156e06020830184615648565b9392505050565b60006020820190506156fc600083018461511e565b92915050565b6000602082019050615717600083018461512d565b92915050565b6000604082019050615732600083018561512d565b61573f602083018461512d565b9392505050565b60006020820190508181036000830152615760818461513c565b905092915050565b600060208201905061577d6000830184615172565b92915050565b60006020820190506157986000830184615181565b92915050565b60006020820190506157b36000830184615190565b92915050565b60006040820190506157ce600083018561519f565b6157db6020830184615648565b9392505050565b600060a0820190506157f7600083018861519f565b6158046020830187615648565b61581160408301866150a1565b61581e606083018561511e565b61582b6080830184615648565b9695505050505050565b600060c08201905061584a600083018961519f565b6158576020830188615648565b61586460408301876150a1565b615871606083018661511e565b61587e6080830185615648565b61588b60a0830184615648565b979650505050505050565b60006020820190506158ab60008301846151ae565b92915050565b60006020820190506158c660008301846151bd565b92915050565b60006020820190506158e160008301846151ea565b92915050565b60006040820190506158fc60008301856151ea565b6159096020830184615648565b9392505050565b6000602082019050818103600083015261592a818461522f565b905092915050565b6000602082019050818103600083015261594c81846151f9565b905092915050565b6000602082019050818103600083015261596d81615265565b9050919050565b6000602082019050818103600083015261598d8161529c565b9050919050565b600060208201905081810360008301526159ad816152d3565b9050919050565b600060208201905081810360008301526159cd81615330565b9050919050565b600060208201905081810360008301526159ed81615367565b9050919050565b60006020820190508181036000830152615a0d8161539e565b9050919050565b60006040820190508181036000830152615a2e81856153d5565b90508181036020830152615a4281846150b0565b90509392505050565b600061012082019050615a61600083018461544f565b92915050565b600061014082019050615a7d6000830184615506565b92915050565b60006020820190508181036000830152615a9d81846155d2565b905092915050565b6000602082019050615aba6000830184615648565b92915050565b6000604082019050615ad56000830185615648565b615ae260208301846150a1565b9392505050565b6000604082019050615afe6000830185615648565b615b0b6020830184615648565b9392505050565b600061012082019050615b28600083018c615648565b615b35602083018b615648565b615b42604083018a615648565b615b4f6060830189615648565b615b5c6080830188615648565b615b6960a0830187615648565b615b7660c0830186615648565b615b8360e0830185615648565b615b916101008301846151db565b9a9950505050505050505050565b600061014082019050615bb5600083018d615648565b615bc2602083018c615648565b615bcf604083018b615648565b615bdc606083018a615648565b615be96080830189615648565b615bf660a0830188615648565b615c0360c0830187615648565b615c1060e0830186615648565b615c1e610100830185615648565b615c2c6101208301846151db565b9b9a5050505050505050505050565b6000604051905081810181811067ffffffffffffffff82111715615c5e57600080fd5b8060405250919050565b600067ffffffffffffffff821115615c7f57600080fd5b602082029050602081019050919050565b600067ffffffffffffffff821115615ca757600080fd5b602082029050602081019050919050565b600067ffffffffffffffff821115615ccf57600080fd5b602082029050602081019050919050565b600067ffffffffffffffff821115615cf757600080fd5b601f19601f8301169050602081019050919050565b600067ffffffffffffffff821115615d2357600080fd5b601f19601f8301169050602081019050919050565b6000602082019050919050565b600081519050919050565b600081519050919050565b600081519050919050565b600081519050919050565b6000602082019050919050565b600073ffffffffffffffffffffffffffffffffffffffff82169050919050565b60008115159050919050565b6000819050919050565b6000600582101515615dc257fe5b819050919050565b6000600382101515615dd857fe5b819050919050565b6000600382101515615dee57fe5b819050919050565b6000819050919050565b600073ffffffffffffffffffffffffffffffffffffffff82169050919050565b60008115159050919050565b6000819050919050565b6000615e4182615d7e565b9050919050565b6000615e5382615d7e565b9050919050565b6000615e6582615d7e565b9050919050565b6000600482101515615e7d57600080fd5b819050919050565b6000600582101515615e9657600080fd5b819050919050565b6000819050919050565b6000615eb382615d7e565b9050919050565b6000615ec582615d7e565b9050919050565b6000615ed782615d7e565b9050919050565b6000615ee982615d7e565b9050919050565b6000615efb82615d7e565b9050919050565b6000615f0d82615d7e565b9050919050565b6000615f1f82615db4565b9050919050565b6000615f3182615dca565b9050919050565b6000615f4382615de0565b9050919050565b82818337600083830152505050565b60005b83811015615f77578082015181840152602081019050615f5c565b83811115615f86576000848401525b50505050565b6000601f19601f83011690509190505600a265627a7a7230582023d465c5c58398f3756a228a82a32a91993baa1e37289d52620a2516555675cd6c6578706572696d656e74616cf50037",
  "source": "pragma solidity ^0.4.24;\npragma experimental ABIEncoderV2;\n\nimport \"@aragon/os/contracts/apps/AragonApp.sol\";\nimport \"@aragon/os/contracts/lib/math/SafeMath.sol\";\nimport \"@aragon/os/contracts/lib/math/SafeMath64.sol\";\nimport \"@aragon/apps-shared-minime/contracts/MiniMeToken.sol\";\nimport \"@pando/core/contracts/organism/IOrganism.sol\";\nimport \"@pando/core/contracts/scheme/IPandoScheme.sol\";\n\n\ncontract DemocracyScheme is IPandoScheme, AragonApp {\n    using SafeMath for uint256;\n    using SafeMath64 for uint64;\n\n    bytes32 public constant UPDATE_PARAMETERS_ROLE = keccak256(\"UPDATE_PARAMETERS_ROLE\");\n\n    enum VoteState  { Pending, Executed, Cancelled }\n    enum VoterState { Absent, Yea, Nay }\n\n    struct RFLBallot {\n        VoterState state;\n        uint256    value;\n    }\n\n    struct RFIVote {\n        uint256   RFIid;\n        uint256   blockstamp;\n        uint256   supply;\n        uint256   quorum;\n        uint256   required;\n        uint256   yea;\n        uint256   nay;\n        uint256   participation;\n        VoteState state;\n    }\n\n    struct RFLVote {\n        uint256   RFLid;\n        uint256   blockstamp;\n        uint256   supply;\n        uint256   quorum;\n        uint256   required;\n        uint256   yea;\n        uint256   nay;\n        uint256   total;\n        uint256   participation;\n        VoteState state;\n    }\n\n    MiniMeToken public token;\n    uint256     public required;\n    uint256     public quorum;\n\n    mapping(address => mapping(uint256 => RFIVote)) public RFIVotes; // mapping RFIs to related vote\n    mapping(address => mapping(uint256 => RFLVote)) public RFLVotes; // mapping RFLs to related vote\n\n    mapping(address => mapping(uint256 => mapping(address => VoterState))) public RFIVotesBallots;\n    mapping(address => mapping(uint256 => mapping(address => RFLBallot)))  public RFLVotesBallots;\n\n    event NewRFIVote(IOrganism organism, uint256 id);\n    event CastRFIVote(IOrganism organism, uint256 id, address voter, bool supports, uint256 stake);\n    event CancelRFIVote(IOrganism organism, uint256 id);\n    event ExecuteRFIVote(IOrganism organism, uint256 id);\n\n    event NewRFLVote(IOrganism organism, uint256 id);\n    event CastRFLVote(IOrganism organism, uint256 id, address voter, bool supports, uint256 value, uint256 stake);\n    event CancelRFLVote(IOrganism organism, uint256 id);\n    event ExecuteRFLVote(IOrganism organism, uint256 id);\n\n    modifier RFIVoteExists(IOrganism _organism, uint256 _RFIid) {\n        require(RFIVotes[address(_organism)][_RFIid].RFIid > 0, \"RFI does not exist\");\n        _;\n    }\n\n    modifier RFLVoteExists(IOrganism _organism, uint256 _RFLid) {\n        require(RFLVotes[address(_organism)][_RFLid].RFLid > 0, \"RFL does not exist\");\n        _;\n    }\n\n    modifier senderCanVoteOnRFI(IOrganism _organism, uint256 _RFIid) {\n        require(canVoteOnRFI(_organism, _RFIid, msg.sender), \"sender cannot vote on RFI\");\n        _;\n    }\n\n    modifier senderCanVoteOnRFL(IOrganism _organism, uint256 _RFLid) {\n        require(canVoteOnRFL(_organism, _RFLid, msg.sender), \"sender cannot vote on RFL\");\n        _;\n    }\n\n    modifier valueIsSuperiorToRFLMinimum(IOrganism _organism, uint256 _RFLid, uint256 _value) {\n        require(_value >= _organism.getRFL(_RFLid).lineage.minimum, \"value is inferior to RFL minimum\");\n        _;\n    }\n\n    function initialize(MiniMeToken _token, uint256 _quorum, uint256 _required) external onlyInit {\n        require(_quorum <= 100 && _required <= _quorum, \"initialization parameters out of bound\");\n\n        initialized();\n\n        token = _token;\n        quorum = _quorum;\n        required = _required;\n    }\n\n    function createRFI(IOrganism _organism, Pando.IIndividuation _individuation, Pando.ILineage[] _lineages) isInitialized {\n        _createRFI(_organism, _individuation, _lineages);\n    }\n\n    /**\n    * @notice Vote to merge RFI `_RFIid` in organism `_organism`\n    * @param _organism The organism to merge the RFI into\n    * @param _RFIid The RFI identifier\n    */\n    function mergeRFI(IOrganism _organism, uint256 _RFIid) public isInitialized senderCanVoteOnRFI(_organism, _RFIid) {\n        _mergeRFI(_organism, _RFIid);\n    }\n\n    /**\n    * @notice Vote to reject RFI `_RFIid` from organism `_organism`\n    * @param _organism The organism to reject the RFI from\n    * @param _RFIid The RFI identifier\n    */\n    function rejectRFI(IOrganism _organism, uint256 _RFIid) public isInitialized senderCanVoteOnRFI(_organism, _RFIid) {\n        _rejectRFI(_organism, _RFIid);\n    }\n\n    /**\n    * @notice Vote to accept RFL `_RFLid` with a value of `_value` NLT in organism `_organism`\n    * @param _organism The organism to accept the RFL in\n    * @param _RFLid The RFL identifier\n    */\n    function acceptRFL(IOrganism _organism, uint256 _RFLid, uint256 _value)\n        public\n        isInitialized\n        senderCanVoteOnRFL(_organism, _RFLid)\n        valueIsSuperiorToRFLMinimum(_organism, _RFLid, _value)\n    {\n        _acceptRFL(_organism, _RFLid, _value);\n    }\n\n    /**\n    * @notice Vote to reject RFL `_RFLid` from organism `_organism`\n    * @param _organism The organism to reject the RFI from\n    * @param _RFLid The RFL identifier\n    */\n    function rejectRFL(IOrganism _organism, uint256 _RFLid) public isInitialized senderCanVoteOnRFL(_organism, _RFLid) {\n        _rejectRFL(_organism, _RFLid);\n    }\n\n    /*--------------------*/\n\n    function getRFIVote(IOrganism _organism, uint256 _RFIid) public view RFIVoteExists(_organism, _RFIid) returns (RFIVote) {\n        return RFIVotes[address(_organism)][_RFIid];\n    }\n\n    function getRFLVote(IOrganism _organism, uint256 _RFLid) public view RFLVoteExists(_organism, _RFLid) returns (RFLVote) {\n        return RFLVotes[address(_organism)][_RFLid];\n    }\n\n    function getRFIMetadata(IOrganism _organism, uint256 _RFIid) public view RFIVoteExists(_organism, _RFIid) returns (string) {\n        return _organism.getRFI(_RFIid).individuation.metadata;\n    }\n\n    /* function getRFLDestination(IOrganism _organism, uint256 _RFLid) public view RFLVoteExists(_organism, _RFLid) returns (address) {\n        return _organism.getRFL(_RFLid).lineage.destination;\n    }\n\n    function getRFLMinimum(IOrganism _organism, uint256 _RFLid) public view RFLVoteExists(_organism, _RFLid) returns (uint256) {\n        return _organism.getRFL(_RFLid).lineage.minimum;\n    } */\n\n    function getRFL(IOrganism _organism, uint256 _RFLid) public view RFLVoteExists(_organism, _RFLid) returns (Pando.RFL) {\n        return _organism.getRFL(_RFLid);\n    }\n\n    /*--------------------*/\n\n    function _createRFI(IOrganism _organism, Pando.IIndividuation _individuation, Pando.ILineage[] _lineages) internal {\n        uint256 RFIid = _organism.createRFI(_individuation, _lineages);\n\n        Pando.RFI memory RFI = _organism.getRFI(RFIid);\n\n        for (uint256 i = 0; i < RFI.RFLids.length; i++) {\n            _newRFLVote(_organism, RFI.RFLids[i]);\n        }\n\n        _newRFIVote(_organism, RFIid);\n\n        emit CreateRFI(_organism, RFIid, msg.sender);\n    }\n\n    function _mergeRFI(IOrganism _organism, uint256 _RFIid) internal {\n        _voteRFI(_organism, _RFIid, true, msg.sender);\n        emit MergeRFI(_organism, _RFIid, msg.sender);\n    }\n\n    function _rejectRFI(IOrganism _organism, uint256 _RFIid) internal {\n        _voteRFI(_organism, _RFIid, false, msg.sender);\n        emit RejectRFI(_organism, _RFIid, msg.sender);\n    }\n\n    function _newRFIVote(IOrganism _organism, uint256 _RFIid) internal {\n        RFIVote storage vote = RFIVotes[address(_organism)][_RFIid];\n\n        vote.RFIid = _RFIid;\n        vote.blockstamp = block.number - 1; // avoid double voting in this very block\n        vote.supply = token.totalSupplyAt(vote.blockstamp);\n        vote.quorum = quorum.mul(vote.supply).div(100);\n        vote.required = required.mul(vote.supply).div(100);\n        vote.yea = 0;\n        vote.nay = 0;\n        vote.participation = 0;\n        vote.state = VoteState.Pending;\n\n        emit NewRFIVote(_organism, _RFIid);\n\n        if (canVoteOnRFI(_organism, _RFIid, msg.sender)) {\n            _voteRFI(_organism, _RFIid, true, msg.sender);\n        }\n    }\n\n    function _cancelRFIVote(IOrganism _organism, uint256 _RFIid) internal {\n        RFIVote   storage vote = RFIVotes[address(_organism)][_RFIid];\n        Pando.RFI memory  RFI = _organism.getRFI(_RFIid);\n\n        vote.state = VoteState.Cancelled;\n\n        for (uint256 i = 0; i < RFI.RFLids.length; i++) {\n            if (RFLVotes[address(_organism)][RFI.RFLids[i]].state != VoteState.Executed)\n                _cancelRFLVote(_organism, RFI.RFLids[i]);\n        }\n\n        emit CancelRFIVote(_organism, _RFIid);\n    }\n\n    function _voteRFI(IOrganism _organism, uint256 _RFIid, bool _supports, address _voter) internal {\n        RFIVote storage vote = RFIVotes[address(_organism)][_RFIid];\n\n        uint256 stake = token.balanceOfAt(_voter, vote.blockstamp);\n        VoterState state = RFIVotesBallots[address(_organism)][_RFIid][_voter];\n\n        if (state != VoterState.Absent) {\n            vote.participation = vote.participation.sub(stake);\n        }\n\n        if (state == VoterState.Yea) {\n            vote.yea = vote.yea.sub(stake);\n        } else if (state == VoterState.Nay) {\n            vote.nay = vote.nay.sub(stake);\n        }\n\n        if (_supports) {\n            vote.yea = vote.yea.add(stake);\n            RFIVotesBallots[address(_organism)][_RFIid][_voter] = VoterState.Yea;\n            emit MergeRFI(_organism, vote.RFIid, _voter);\n\n        } else {\n            vote.nay = vote.nay.add(stake);\n            RFIVotesBallots[address(_organism)][_RFIid][_voter] = VoterState.Nay;\n            emit RejectRFI(_organism, vote.RFIid, _voter);\n        }\n\n        vote.participation = vote.participation.add(stake);\n\n        emit CastRFIVote(_organism, _RFIid, _voter, _supports, stake);\n\n        if (canExecuteRFIVote(_organism, _RFIid)) {\n            _executeRFIVote(_organism, _RFIid);\n        }\n    }\n\n    function _executeRFIVote(IOrganism _organism, uint256 _RFIid) internal {\n        RFIVote storage vote = RFIVotes[address(_organism)][_RFIid];\n\n        if (vote.yea >= vote.required) {\n            _organism.mergeRFI(_RFIid);\n        } else {\n            Pando.RFI memory RFI = _organism.getRFI(_RFIid);\n\n            for (uint256 i = 0; i < RFI.RFLids.length; i++) {\n                _cancelRFLVote(_organism, RFI.RFLids[i]);\n            }\n\n            _organism.rejectRFI(vote.RFIid);\n        }\n\n        vote.state = VoteState.Executed;\n\n        emit ExecuteRFIVote(_organism, _RFIid);\n    }\n\n    function _acceptRFL(IOrganism _organism, uint256 _RFLid, uint256 _value) internal {\n        _voteRFL(_organism, _RFLid, true, _value, msg.sender);\n        emit AcceptRFL(_organism, _RFLid, _value, msg.sender);\n    }\n\n    function _rejectRFL(IOrganism _organism, uint256 _RFLid) internal {\n        _voteRFL(_organism, _RFLid, false, 0, msg.sender);\n        emit RejectRFL(_organism, _RFLid, msg.sender);\n    }\n\n    function _newRFLVote(IOrganism _organism, uint256 _RFLid) internal {\n        RFLVote storage vote = RFLVotes[address(_organism)][_RFLid];\n\n        vote.RFLid = _RFLid;\n        vote.blockstamp = block.number - 1; // avoid double voting in this very block\n        vote.supply = token.totalSupplyAt(vote.blockstamp);\n        vote.quorum = quorum.mul(vote.supply).div(100);\n        vote.required = required.mul(vote.supply).div(100);\n        vote.yea = 0;\n        vote.nay = 0;\n        vote.total = 0;\n        vote.participation = 0;\n        vote.state = VoteState.Pending;\n\n        emit NewRFLVote(_organism, _RFLid);\n    }\n\n    function _cancelRFLVote(IOrganism _organism, uint256 _RFLid) internal {\n        RFLVote storage vote = RFLVotes[address(_organism)][_RFLid];\n\n        vote.state = VoteState.Cancelled;\n\n        emit CancelRFLVote(_organism, _RFLid);\n    }\n\n    function _voteRFL(IOrganism _organism, uint256 _RFLid, bool _supports, uint256 _value, address _voter) internal {\n        RFLVote storage vote = RFLVotes[address(_organism)][_RFLid];\n\n        uint256 stake = token.balanceOfAt(_voter, vote.blockstamp);\n        RFLBallot storage ballot = RFLVotesBallots[address(_organism)][_RFLid][_voter];\n\n        if (ballot.state != VoterState.Absent) {\n            vote.participation = vote.participation.sub(stake);\n        }\n\n        if (ballot.state == VoterState.Yea) {\n            vote.yea = vote.yea.sub(stake);\n            vote.total = vote.total.sub(stake.mul(ballot.value));\n        } else if (ballot.state == VoterState.Nay) {\n            vote.nay = vote.nay.sub(stake);\n        }\n\n        if (_supports) {\n            vote.yea = vote.yea.add(stake);\n            vote.total = vote.total.add(stake.mul(_value));\n            ballot.state = VoterState.Yea;\n            ballot.value = _value;\n            emit AcceptRFL(_organism, _RFLid, _value, _voter);\n\n        } else {\n            vote.nay = vote.nay.add(stake);\n            ballot.state = VoterState.Nay;\n            ballot.value = 0;\n            emit RejectRFL(_organism, _RFLid, _voter);\n        }\n\n        vote.participation = vote.participation.add(stake);\n\n        emit CastRFLVote(_organism, _RFLid, _voter, _supports, _value, stake);\n\n        if (canExecuteRFLVote(_organism, _RFLid)) {\n            _executeRFLVote(_organism, _RFLid);\n        }\n    }\n\n    function _executeRFLVote(IOrganism _organism, uint256 _RFLid) internal {\n        RFLVote storage vote = RFLVotes[address(_organism)][_RFLid];\n\n        vote.state = VoteState.Executed;\n\n        if (vote.yea >= vote.required) {\n            _organism.acceptRFL(_RFLid, vote.total.div(vote.yea));\n        } else {\n            _cancelRFIVote(_organism, _organism.getRFL(_RFLid).RFIid);\n            _organism.rejectRFL(_RFLid);\n        }\n\n        emit ExecuteRFLVote(_organism, _RFLid);\n    }\n\n    /*--------------------*/\n\n    function canVoteOnRFI(IOrganism _organism, uint256 _RFIid, address _voter) public view RFIVoteExists(_organism, _RFIid) returns (bool) {\n        RFIVote storage vote = RFIVotes[address(_organism)][_RFIid];\n\n        return vote.state == VoteState.Pending && token.balanceOfAt(_voter, vote.blockstamp) > 0;\n    }\n\n    function canVoteOnRFL(IOrganism _organism, uint256 _RFLid, address _voter) public view RFLVoteExists(_organism, _RFLid) returns (bool) {\n        RFLVote storage vote = RFLVotes[address(_organism)][_RFLid];\n\n        return vote.state == VoteState.Pending && token.balanceOfAt(_voter, vote.blockstamp) > 0;\n    }\n\n    function canExecuteRFIVote(IOrganism _organism, uint256 _RFIid) public view RFIVoteExists(_organism, _RFIid) returns (bool) {\n        RFIVote storage vote = RFIVotes[address(_organism)][_RFIid];\n        Pando.RFI memory RFI = _organism.getRFI(vote.RFIid);\n\n        if (vote.state != VoteState.Pending) {\n            return false;\n        }\n\n        if (vote.participation >= vote.quorum) {\n            if (vote.yea >= vote.required) {\n                for (uint256 i = 0; i < RFI.RFLids.length; i++) {\n                    Pando.RFL memory RFL = _organism.getRFL(RFI.RFLids[i]);\n                    if (RFL.state != Pando.RFLState.Accepted) {\n                        return false;\n                    }\n                }\n            }\n            return true;\n        }\n\n        return false;\n    }\n\n    function canExecuteRFLVote(IOrganism _organism, uint256 _RFLid) public view RFLVoteExists(_organism, _RFLid) returns (bool) {\n        RFLVote storage vote = RFLVotes[address(_organism)][_RFLid];\n\n        if (vote.state != VoteState.Pending) {\n            return false;\n        }\n\n        if (vote.participation >= vote.quorum) {\n            return true;\n        }\n\n        return false;\n    }\n}\n",
  "sourcePath": "/Users/osarrouy/Documents/devs/@pando/packages/scheme-democracy/contracts/DemocracyScheme.sol",
  "compiler": {
    "name": "solc",
    "version": "0.4.24+commit.e67f0147.Emscripten.clang"
  },
  "schemaVersion": "3.0.0-beta.2",
  "updatedAt": "2019-01-19T11:38:19.053Z",
  "devdoc": {
    "methods": {
      "acceptRFL(address,uint256,uint256)": {
        "params": {
          "_RFLid": "The RFL identifier",
          "_organism": "The organism to accept the RFL in"
        }
      },
      "allowRecoverability(address)": {
        "details": "By default deriving from AragonApp makes it recoverable",
        "params": {
          "token": "Token address that would be recovered"
        },
        "return": "bool whether the app allows the recovery"
      },
      "canPerform(address,bytes32,uint256[])": {
        "details": "Check whether an action can be performed by a sender for a particular role on this app",
        "params": {
          "_params": "Permission params for the role",
          "_role": "Role on this app",
          "_sender": "Sender of the call"
        },
        "return": "Boolean indicating whether the sender has the permissions to perform the action.        Always returns false if the app hasn't been initialized yet."
      },
      "getInitializationBlock()": {
        "return": "Block number in which the contract was initialized"
      },
      "getRecoveryVault()": {
        "details": "Get the recovery vault for the app",
        "return": "Recovery vault address for the app"
      },
      "hasInitialized()": {
        "return": "Whether the contract has been initialized by the time of the current block"
      },
      "mergeRFI(address,uint256)": {
        "params": {
          "_RFIid": "The RFI identifier",
          "_organism": "The organism to merge the RFI into"
        }
      },
      "rejectRFI(address,uint256)": {
        "params": {
          "_RFIid": "The RFI identifier",
          "_organism": "The organism to reject the RFI from"
        }
      },
      "rejectRFL(address,uint256)": {
        "params": {
          "_RFLid": "The RFL identifier",
          "_organism": "The organism to reject the RFI from"
        }
      },
      "transferToVault(address)": {
        "params": {
          "_token": "Token balance to be sent to recovery vault."
        }
      }
    }
  },
  "userdoc": {
    "methods": {
      "acceptRFL(address,uint256,uint256)": {
        "notice": "Vote to accept RFL `_RFLid` with a value of `_value` NLT in organism `_organism`"
      },
      "mergeRFI(address,uint256)": {
        "notice": "Vote to merge RFI `_RFIid` in organism `_organism`"
      },
      "rejectRFI(address,uint256)": {
        "notice": "Vote to reject RFI `_RFIid` from organism `_organism`"
      },
      "rejectRFL(address,uint256)": {
        "notice": "Vote to reject RFL `_RFLid` from organism `_organism`"
      },
      "transferToVault(address)": {
        "notice": "Send funds to recovery Vault. This contract should never receive funds,        but in case it does, this function allows one to recover them."
      }
    }
  }
}