{
  "contractName": "DemocracyScheme",
  "abi": [
    {
      "constant": true,
      "inputs": [],
      "name": "hasInitialized",
      "outputs": [
        {
          "name": "",
          "type": "bool"
        }
      ],
      "payable": false,
      "stateMutability": "view",
      "type": "function"
    },
    {
      "constant": true,
      "inputs": [
        {
          "name": "",
          "type": "address"
        },
        {
          "name": "",
          "type": "uint256"
        }
      ],
      "name": "RFLVotes",
      "outputs": [
        {
          "name": "RFLid",
          "type": "uint256"
        },
        {
          "name": "blockstamp",
          "type": "uint256"
        },
        {
          "name": "supply",
          "type": "uint256"
        },
        {
          "name": "quorum",
          "type": "uint256"
        },
        {
          "name": "required",
          "type": "uint256"
        },
        {
          "name": "yea",
          "type": "uint256"
        },
        {
          "name": "nay",
          "type": "uint256"
        },
        {
          "name": "total",
          "type": "uint256"
        },
        {
          "name": "participation",
          "type": "uint256"
        },
        {
          "name": "state",
          "type": "uint8"
        }
      ],
      "payable": false,
      "stateMutability": "view",
      "type": "function"
    },
    {
      "constant": true,
      "inputs": [],
      "name": "quorum",
      "outputs": [
        {
          "name": "",
          "type": "uint256"
        }
      ],
      "payable": false,
      "stateMutability": "view",
      "type": "function"
    },
    {
      "constant": true,
      "inputs": [
        {
          "name": "",
          "type": "address"
        },
        {
          "name": "",
          "type": "uint256"
        },
        {
          "name": "",
          "type": "address"
        }
      ],
      "name": "RFLVotesBallots",
      "outputs": [
        {
          "name": "state",
          "type": "uint8"
        },
        {
          "name": "value",
          "type": "uint256"
        }
      ],
      "payable": false,
      "stateMutability": "view",
      "type": "function"
    },
    {
      "constant": true,
      "inputs": [
        {
          "name": "_script",
          "type": "bytes"
        }
      ],
      "name": "getEVMScriptExecutor",
      "outputs": [
        {
          "name": "",
          "type": "address"
        }
      ],
      "payable": false,
      "stateMutability": "view",
      "type": "function"
    },
    {
      "constant": true,
      "inputs": [],
      "name": "getRecoveryVault",
      "outputs": [
        {
          "name": "",
          "type": "address"
        }
      ],
      "payable": false,
      "stateMutability": "view",
      "type": "function"
    },
    {
      "constant": true,
      "inputs": [],
      "name": "UPDATE_PARAMETERS_ROLE",
      "outputs": [
        {
          "name": "",
          "type": "bytes32"
        }
      ],
      "payable": false,
      "stateMutability": "view",
      "type": "function"
    },
    {
      "constant": true,
      "inputs": [
        {
          "name": "",
          "type": "address"
        },
        {
          "name": "",
          "type": "uint256"
        }
      ],
      "name": "RFIVotes",
      "outputs": [
        {
          "name": "RFIid",
          "type": "uint256"
        },
        {
          "name": "blockstamp",
          "type": "uint256"
        },
        {
          "name": "supply",
          "type": "uint256"
        },
        {
          "name": "quorum",
          "type": "uint256"
        },
        {
          "name": "required",
          "type": "uint256"
        },
        {
          "name": "yea",
          "type": "uint256"
        },
        {
          "name": "nay",
          "type": "uint256"
        },
        {
          "name": "participation",
          "type": "uint256"
        },
        {
          "name": "state",
          "type": "uint8"
        }
      ],
      "payable": false,
      "stateMutability": "view",
      "type": "function"
    },
    {
      "constant": true,
      "inputs": [
        {
          "name": "token",
          "type": "address"
        }
      ],
      "name": "allowRecoverability",
      "outputs": [
        {
          "name": "",
          "type": "bool"
        }
      ],
      "payable": false,
      "stateMutability": "view",
      "type": "function"
    },
    {
      "constant": true,
      "inputs": [],
      "name": "appId",
      "outputs": [
        {
          "name": "",
          "type": "bytes32"
        }
      ],
      "payable": false,
      "stateMutability": "view",
      "type": "function"
    },
    {
      "constant": true,
      "inputs": [
        {
          "name": "",
          "type": "address"
        },
        {
          "name": "",
          "type": "uint256"
        },
        {
          "name": "",
          "type": "address"
        }
      ],
      "name": "RFIVotesBallots",
      "outputs": [
        {
          "name": "",
          "type": "uint8"
        }
      ],
      "payable": false,
      "stateMutability": "view",
      "type": "function"
    },
    {
      "constant": true,
      "inputs": [],
      "name": "getInitializationBlock",
      "outputs": [
        {
          "name": "",
          "type": "uint256"
        }
      ],
      "payable": false,
      "stateMutability": "view",
      "type": "function"
    },
    {
      "constant": false,
      "inputs": [
        {
          "name": "_token",
          "type": "address"
        }
      ],
      "name": "transferToVault",
      "outputs": [],
      "payable": false,
      "stateMutability": "nonpayable",
      "type": "function"
    },
    {
      "constant": true,
      "inputs": [
        {
          "name": "_sender",
          "type": "address"
        },
        {
          "name": "_role",
          "type": "bytes32"
        },
        {
          "name": "_params",
          "type": "uint256[]"
        }
      ],
      "name": "canPerform",
      "outputs": [
        {
          "name": "",
          "type": "bool"
        }
      ],
      "payable": false,
      "stateMutability": "view",
      "type": "function"
    },
    {
      "constant": true,
      "inputs": [],
      "name": "getEVMScriptRegistry",
      "outputs": [
        {
          "name": "",
          "type": "address"
        }
      ],
      "payable": false,
      "stateMutability": "view",
      "type": "function"
    },
    {
      "constant": true,
      "inputs": [],
      "name": "kernel",
      "outputs": [
        {
          "name": "",
          "type": "address"
        }
      ],
      "payable": false,
      "stateMutability": "view",
      "type": "function"
    },
    {
      "constant": true,
      "inputs": [],
      "name": "required",
      "outputs": [
        {
          "name": "",
          "type": "uint256"
        }
      ],
      "payable": false,
      "stateMutability": "view",
      "type": "function"
    },
    {
      "constant": true,
      "inputs": [],
      "name": "isPetrified",
      "outputs": [
        {
          "name": "",
          "type": "bool"
        }
      ],
      "payable": false,
      "stateMutability": "view",
      "type": "function"
    },
    {
      "constant": true,
      "inputs": [],
      "name": "token",
      "outputs": [
        {
          "name": "",
          "type": "address"
        }
      ],
      "payable": false,
      "stateMutability": "view",
      "type": "function"
    },
    {
      "anonymous": false,
      "inputs": [
        {
          "indexed": false,
          "name": "organism",
          "type": "address"
        },
        {
          "indexed": false,
          "name": "id",
          "type": "uint256"
        }
      ],
      "name": "NewRFIVote",
      "type": "event"
    },
    {
      "anonymous": false,
      "inputs": [
        {
          "indexed": false,
          "name": "organism",
          "type": "address"
        },
        {
          "indexed": false,
          "name": "id",
          "type": "uint256"
        },
        {
          "indexed": false,
          "name": "voter",
          "type": "address"
        },
        {
          "indexed": false,
          "name": "supports",
          "type": "bool"
        },
        {
          "indexed": false,
          "name": "stake",
          "type": "uint256"
        }
      ],
      "name": "CastRFIVote",
      "type": "event"
    },
    {
      "anonymous": false,
      "inputs": [
        {
          "indexed": false,
          "name": "organism",
          "type": "address"
        },
        {
          "indexed": false,
          "name": "id",
          "type": "uint256"
        }
      ],
      "name": "CancelRFIVote",
      "type": "event"
    },
    {
      "anonymous": false,
      "inputs": [
        {
          "indexed": false,
          "name": "organism",
          "type": "address"
        },
        {
          "indexed": false,
          "name": "id",
          "type": "uint256"
        }
      ],
      "name": "ExecuteRFIVote",
      "type": "event"
    },
    {
      "anonymous": false,
      "inputs": [
        {
          "indexed": false,
          "name": "organism",
          "type": "address"
        },
        {
          "indexed": false,
          "name": "id",
          "type": "uint256"
        }
      ],
      "name": "NewRFLVote",
      "type": "event"
    },
    {
      "anonymous": false,
      "inputs": [
        {
          "indexed": false,
          "name": "organism",
          "type": "address"
        },
        {
          "indexed": false,
          "name": "id",
          "type": "uint256"
        },
        {
          "indexed": false,
          "name": "voter",
          "type": "address"
        },
        {
          "indexed": false,
          "name": "supports",
          "type": "bool"
        },
        {
          "indexed": false,
          "name": "value",
          "type": "uint256"
        },
        {
          "indexed": false,
          "name": "stake",
          "type": "uint256"
        }
      ],
      "name": "CastRFLVote",
      "type": "event"
    },
    {
      "anonymous": false,
      "inputs": [
        {
          "indexed": false,
          "name": "organism",
          "type": "address"
        },
        {
          "indexed": false,
          "name": "id",
          "type": "uint256"
        }
      ],
      "name": "CancelRFLVote",
      "type": "event"
    },
    {
      "anonymous": false,
      "inputs": [
        {
          "indexed": false,
          "name": "organism",
          "type": "address"
        },
        {
          "indexed": false,
          "name": "id",
          "type": "uint256"
        }
      ],
      "name": "ExecuteRFLVote",
      "type": "event"
    },
    {
      "anonymous": false,
      "inputs": [
        {
          "indexed": true,
          "name": "executor",
          "type": "address"
        },
        {
          "indexed": false,
          "name": "script",
          "type": "bytes"
        },
        {
          "indexed": false,
          "name": "input",
          "type": "bytes"
        },
        {
          "indexed": false,
          "name": "returnData",
          "type": "bytes"
        }
      ],
      "name": "ScriptResult",
      "type": "event"
    },
    {
      "anonymous": false,
      "inputs": [
        {
          "indexed": false,
          "name": "organism",
          "type": "address"
        },
        {
          "indexed": true,
          "name": "id",
          "type": "uint256"
        },
        {
          "indexed": false,
          "name": "sender",
          "type": "address"
        }
      ],
      "name": "CreateRFI",
      "type": "event"
    },
    {
      "anonymous": false,
      "inputs": [
        {
          "indexed": false,
          "name": "organism",
          "type": "address"
        },
        {
          "indexed": true,
          "name": "id",
          "type": "uint256"
        },
        {
          "indexed": false,
          "name": "sender",
          "type": "address"
        }
      ],
      "name": "MergeRFI",
      "type": "event"
    },
    {
      "anonymous": false,
      "inputs": [
        {
          "indexed": false,
          "name": "organism",
          "type": "address"
        },
        {
          "indexed": true,
          "name": "id",
          "type": "uint256"
        },
        {
          "indexed": false,
          "name": "sender",
          "type": "address"
        }
      ],
      "name": "RejectRFI",
      "type": "event"
    },
    {
      "anonymous": false,
      "inputs": [
        {
          "indexed": false,
          "name": "organism",
          "type": "address"
        },
        {
          "indexed": true,
          "name": "id",
          "type": "uint256"
        },
        {
          "indexed": false,
          "name": "sender",
          "type": "address"
        }
      ],
      "name": "CreateRFL",
      "type": "event"
    },
    {
      "anonymous": false,
      "inputs": [
        {
          "indexed": false,
          "name": "organism",
          "type": "address"
        },
        {
          "indexed": true,
          "name": "id",
          "type": "uint256"
        },
        {
          "indexed": false,
          "name": "value",
          "type": "uint256"
        },
        {
          "indexed": false,
          "name": "sender",
          "type": "address"
        }
      ],
      "name": "AcceptRFL",
      "type": "event"
    },
    {
      "anonymous": false,
      "inputs": [
        {
          "indexed": false,
          "name": "organism",
          "type": "address"
        },
        {
          "indexed": true,
          "name": "id",
          "type": "uint256"
        },
        {
          "indexed": false,
          "name": "sender",
          "type": "address"
        }
      ],
      "name": "RejectRFL",
      "type": "event"
    },
    {
      "constant": false,
      "inputs": [
        {
          "name": "_token",
          "type": "address"
        },
        {
          "name": "_quorum",
          "type": "uint256"
        },
        {
          "name": "_required",
          "type": "uint256"
        }
      ],
      "name": "initialize",
      "outputs": [],
      "payable": false,
      "stateMutability": "nonpayable",
      "type": "function"
    },
    {
      "constant": false,
      "inputs": [
        {
          "name": "_organism",
          "type": "address"
        },
        {
          "components": [
            {
              "name": "metadata",
              "type": "string"
            }
          ],
          "name": "_individuation",
          "type": "tuple"
        },
        {
          "components": [
            {
              "name": "destination",
              "type": "address"
            },
            {
              "name": "minimum",
              "type": "uint256"
            },
            {
              "name": "metadata",
              "type": "string"
            }
          ],
          "name": "_lineages",
          "type": "tuple[]"
        }
      ],
      "name": "createRFI",
      "outputs": [],
      "payable": false,
      "stateMutability": "nonpayable",
      "type": "function"
    },
    {
      "constant": false,
      "inputs": [
        {
          "name": "_organism",
          "type": "address"
        },
        {
          "name": "_RFIid",
          "type": "uint256"
        }
      ],
      "name": "mergeRFI",
      "outputs": [],
      "payable": false,
      "stateMutability": "nonpayable",
      "type": "function"
    },
    {
      "constant": false,
      "inputs": [
        {
          "name": "_organism",
          "type": "address"
        },
        {
          "name": "_RFIid",
          "type": "uint256"
        }
      ],
      "name": "rejectRFI",
      "outputs": [],
      "payable": false,
      "stateMutability": "nonpayable",
      "type": "function"
    },
    {
      "constant": false,
      "inputs": [
        {
          "name": "_organism",
          "type": "address"
        },
        {
          "name": "_RFLid",
          "type": "uint256"
        },
        {
          "name": "_value",
          "type": "uint256"
        }
      ],
      "name": "acceptRFL",
      "outputs": [],
      "payable": false,
      "stateMutability": "nonpayable",
      "type": "function"
    },
    {
      "constant": false,
      "inputs": [
        {
          "name": "_organism",
          "type": "address"
        },
        {
          "name": "_RFLid",
          "type": "uint256"
        }
      ],
      "name": "rejectRFL",
      "outputs": [],
      "payable": false,
      "stateMutability": "nonpayable",
      "type": "function"
    },
    {
      "constant": true,
      "inputs": [
        {
          "name": "_organism",
          "type": "address"
        },
        {
          "name": "_RFIid",
          "type": "uint256"
        }
      ],
      "name": "getRFIVote",
      "outputs": [
        {
          "components": [
            {
              "name": "RFIid",
              "type": "uint256"
            },
            {
              "name": "blockstamp",
              "type": "uint256"
            },
            {
              "name": "supply",
              "type": "uint256"
            },
            {
              "name": "quorum",
              "type": "uint256"
            },
            {
              "name": "required",
              "type": "uint256"
            },
            {
              "name": "yea",
              "type": "uint256"
            },
            {
              "name": "nay",
              "type": "uint256"
            },
            {
              "name": "participation",
              "type": "uint256"
            },
            {
              "name": "state",
              "type": "uint8"
            }
          ],
          "name": "",
          "type": "tuple"
        }
      ],
      "payable": false,
      "stateMutability": "view",
      "type": "function"
    },
    {
      "constant": true,
      "inputs": [
        {
          "name": "_organism",
          "type": "address"
        },
        {
          "name": "_RFLid",
          "type": "uint256"
        }
      ],
      "name": "getRFLVote",
      "outputs": [
        {
          "components": [
            {
              "name": "RFLid",
              "type": "uint256"
            },
            {
              "name": "blockstamp",
              "type": "uint256"
            },
            {
              "name": "supply",
              "type": "uint256"
            },
            {
              "name": "quorum",
              "type": "uint256"
            },
            {
              "name": "required",
              "type": "uint256"
            },
            {
              "name": "yea",
              "type": "uint256"
            },
            {
              "name": "nay",
              "type": "uint256"
            },
            {
              "name": "total",
              "type": "uint256"
            },
            {
              "name": "participation",
              "type": "uint256"
            },
            {
              "name": "state",
              "type": "uint8"
            }
          ],
          "name": "",
          "type": "tuple"
        }
      ],
      "payable": false,
      "stateMutability": "view",
      "type": "function"
    },
    {
      "constant": true,
      "inputs": [
        {
          "name": "_organism",
          "type": "address"
        },
        {
          "name": "_RFIid",
          "type": "uint256"
        }
      ],
      "name": "getRFIMetadata",
      "outputs": [
        {
          "name": "",
          "type": "string"
        }
      ],
      "payable": false,
      "stateMutability": "view",
      "type": "function"
    },
    {
      "constant": true,
      "inputs": [
        {
          "name": "_organism",
          "type": "address"
        },
        {
          "name": "_RFIid",
          "type": "uint256"
        },
        {
          "name": "_voter",
          "type": "address"
        }
      ],
      "name": "canVoteOnRFI",
      "outputs": [
        {
          "name": "",
          "type": "bool"
        }
      ],
      "payable": false,
      "stateMutability": "view",
      "type": "function"
    },
    {
      "constant": true,
      "inputs": [
        {
          "name": "_organism",
          "type": "address"
        },
        {
          "name": "_RFLid",
          "type": "uint256"
        },
        {
          "name": "_voter",
          "type": "address"
        }
      ],
      "name": "canVoteOnRFL",
      "outputs": [
        {
          "name": "",
          "type": "bool"
        }
      ],
      "payable": false,
      "stateMutability": "view",
      "type": "function"
    },
    {
      "constant": true,
      "inputs": [
        {
          "name": "_organism",
          "type": "address"
        },
        {
          "name": "_RFIid",
          "type": "uint256"
        }
      ],
      "name": "canExecuteRFIVote",
      "outputs": [
        {
          "name": "",
          "type": "bool"
        }
      ],
      "payable": false,
      "stateMutability": "view",
      "type": "function"
    },
    {
      "constant": true,
      "inputs": [
        {
          "name": "_organism",
          "type": "address"
        },
        {
          "name": "_RFLid",
          "type": "uint256"
        }
      ],
      "name": "canExecuteRFLVote",
      "outputs": [
        {
          "name": "",
          "type": "bool"
        }
      ],
      "payable": false,
      "stateMutability": "view",
      "type": "function"
    }
  ],
  "bytecode": "0x60806040526200001d62000023640100000000026401000000009004565b620002ef565b60006200003e620000f8640100000000026401000000009004565b146040805190810160405280601881526020017f494e49545f414c52454144595f494e495449414c495a45440000000000000000815250901515620000bb576040517f08c379a0000000000000000000000000000000000000000000000000000000008152600401620000b2919062000279565b60405180910390fd5b50620000f67fffffffffffffffffffffffffffffffffffffffffffffffffffffffffffffffff62000145640100000000026401000000009004565b565b6000620001407febb05b386a8d34882b8711d156f463690983dc47815980fb82aeeff1aa43579e600102600019166200022b64010000000002620027c0176401000000009004565b905090565b600062000160620000f8640100000000026401000000009004565b146040805190810160405280601881526020017f494e49545f414c52454144595f494e495449414c495a45440000000000000000815250901515620001dd576040517f08c379a0000000000000000000000000000000000000000000000000000000008152600401620001d4919062000279565b60405180910390fd5b5062000228817febb05b386a8d34882b8711d156f463690983dc47815980fb82aeeff1aa43579e60010260001916620002366401000000000262003237179091906401000000009004565b50565b600081549050919050565b8082555050565b60006200024a826200029d565b80845262000260816020860160208601620002a8565b6200026b81620002de565b602085010191505092915050565b600060208201905081810360008301526200029581846200023d565b905092915050565b600081519050919050565b60005b83811015620002c8578082015181840152602081019050620002ab565b83811115620002d8576000848401525b50505050565b6000601f19601f8301169050919050565b615ce280620002ff6000396000f300608060405260043610610196576000357c0100000000000000000000000000000000000000000000000000000000900463ffffffff1680630803fac01461019b5780630e732bf2146101c657806312ddd3c11461020c5780631703a018146102495780631c633087146102745780632914b9bd146102b257806332f0a3b5146102ef5780633b2f7a5c1461031a5780634901f6bc14610357578063555985331461038257806357f887dd146103ab5780636e39432f146103d45780637a1ac61e146104195780637e7db6e11461044257806380afdea81461047f57806382116aff146104aa5780638a989dfa146104e75780638b3dd749146105245780638b68b6a21461054f5780639d4941d81461058c578063a1658fad146105b5578063a479e508146105f2578063ac6752311461061d578063bf32aed31461065a578063cf61ee3d14610697578063d49b10e5146106d4578063d4aae0c4146106fd578063dc8452cd14610728578063de4796ed14610753578063e26700b01461077e578063e70b68a5146107a7578063fc0c546a146107d0575b600080fd5b3480156101a757600080fd5b506101b06107fb565b6040516101bd9190615405565b60405180910390f35b3480156101d257600080fd5b506101ed60048036036101e89190810190614ad3565b610826565b6040516102039a999897969594939291906158d2565b60405180910390f35b34801561021857600080fd5b50610233600480360361022e9190810190614cac565b610894565b6040516102409190615405565b60405180910390f35b34801561025557600080fd5b5061025e610a93565b60405161026b9190615801565b60405180910390f35b34801561028057600080fd5b5061029b60048036036102969190810190614b0f565b610a99565b6040516102a9929190615665565b60405180910390f35b3480156102be57600080fd5b506102d960048036036102d49190810190614b87565b610ae4565b6040516102e69190615486565b60405180910390f35b3480156102fb57600080fd5b50610304610b9b565b6040516103119190615375565b60405180910390f35b34801561032657600080fd5b50610341600480360361033c9190810190614c70565b610c45565b60405161034e91906157c9565b60405180910390f35b34801561036357600080fd5b5061036c610dcb565b6040516103799190615420565b60405180910390f35b34801561038e57600080fd5b506103a960048036036103a49190810190614c70565b610e04565b005b3480156103b757600080fd5b506103d260048036036103cd9190810190614bf1565b610ee4565b005b3480156103e057600080fd5b506103fb60048036036103f69190810190614ad3565b610f76565b60405161041099989796959493929190615845565b60405180910390f35b34801561042557600080fd5b50610440600480360361043b9190810190614d4a565b610fde565b005b34801561044e57600080fd5b5061046960048036036104649190810190614a1a565b611110565b6040516104769190615405565b60405180910390f35b34801561048b57600080fd5b5061049461111b565b6040516104a19190615420565b60405180910390f35b3480156104b657600080fd5b506104d160048036036104cc9190810190614c70565b611152565b6040516104de91906157e5565b60405180910390f35b3480156104f357600080fd5b5061050e60048036036105099190810190614b0f565b6112e2565b60405161051b919061564a565b60405180910390f35b34801561053057600080fd5b5061053961131e565b6040516105469190615801565b60405180910390f35b34801561055b57600080fd5b5061057660048036036105719190810190614cac565b611355565b6040516105839190615405565b60405180910390f35b34801561059857600080fd5b506105b360048036036105ae9190810190614a1a565b611554565b005b3480156105c157600080fd5b506105dc60048036036105d79190810190614a6c565b611858565b6040516105e99190615405565b60405180910390f35b3480156105fe57600080fd5b50610607611985565b60405161061491906154a1565b60405180910390f35b34801561062957600080fd5b50610644600480360361063f9190810190614c70565b611a87565b60405161065191906156b0565b60405180910390f35b34801561066657600080fd5b50610681600480360361067c9190810190614c70565b611be1565b60405161068e9190615405565b60405180910390f35b3480156106a357600080fd5b506106be60048036036106b99190810190614c70565b611d32565b6040516106cb9190615405565b60405180910390f35b3480156106e057600080fd5b506106fb60048036036106f69190810190614c70565b612071565b005b34801561070957600080fd5b50610712612151565b60405161071f91906154bc565b60405180910390f35b34801561073457600080fd5b5061073d612188565b60405161074a9190615801565b60405180910390f35b34801561075f57600080fd5b5061076861218e565b6040516107759190615405565b60405180910390f35b34801561078a57600080fd5b506107a560048036036107a09190810190614c70565b6121bf565b005b3480156107b357600080fd5b506107ce60048036036107c99190810190614cfb565b61229f565b005b3480156107dc57600080fd5b506107e561247f565b6040516107f29190615614565b60405180910390f35b60008061080661131e565b90506000811415801561082057508061081d6124a4565b10155b91505090565b6004602052816000526040600020602052806000526040600020600091509150508060000154908060010154908060020154908060030154908060040154908060050154908060060154908060070154908060080154908060090160009054906101000a900460ff1690508a565b60008084846000600460008473ffffffffffffffffffffffffffffffffffffffff1673ffffffffffffffffffffffffffffffffffffffff168152602001908152602001600020600083815260200190815260200160002060000154111515610931576040517f08c379a000000000000000000000000000000000000000000000000000000000815260040161092890615732565b60405180910390fd5b600460008873ffffffffffffffffffffffffffffffffffffffff1673ffffffffffffffffffffffffffffffffffffffff168152602001908152602001600020600087815260200190815260200160002092506000600281111561099057fe5b8360090160009054906101000a900460ff1660028111156109ad57fe5b148015610a87575060008060009054906101000a900473ffffffffffffffffffffffffffffffffffffffff1673ffffffffffffffffffffffffffffffffffffffff16634ee2cd7e8786600101546040518363ffffffff167c0100000000000000000000000000000000000000000000000000000000028152600401610a339291906153dc565b602060405180830381600087803b158015610a4d57600080fd5b505af1158015610a61573d6000803e3d6000fd5b505050506040513d601f19601f82011682018060405250610a859190810190614e1b565b115b93505050509392505050565b60025481565b600660205282600052604060002060205281600052604060002060205280600052604060002060009250925050508060000160009054906101000a900460ff16908060010154905082565b6000610aee611985565b73ffffffffffffffffffffffffffffffffffffffff166304bf2a7f836040518263ffffffff167c0100000000000000000000000000000000000000000000000000000000028152600401610b429190615464565b602060405180830381600087803b158015610b5c57600080fd5b505af1158015610b70573d6000803e3d6000fd5b505050506040513d601f19601f82011682018060405250610b949190810190614bc8565b9050919050565b6000610ba5612151565b73ffffffffffffffffffffffffffffffffffffffff166332f0a3b56040518163ffffffff167c0100000000000000000000000000000000000000000000000000000000028152600401602060405180830381600087803b158015610c0857600080fd5b505af1158015610c1c573d6000803e3d6000fd5b505050506040513d601f19601f82011682018060405250610c409190810190614a43565b905090565b610c4d61426a565b82826000600360008473ffffffffffffffffffffffffffffffffffffffff1673ffffffffffffffffffffffffffffffffffffffff168152602001908152602001600020600083815260200190815260200160002060000154111515610ce7576040517f08c379a0000000000000000000000000000000000000000000000000000000008152600401610cde90615752565b60405180910390fd5b600360008673ffffffffffffffffffffffffffffffffffffffff1673ffffffffffffffffffffffffffffffffffffffff1681526020019081526020016000206000858152602001908152602001600020610120604051908101604052908160008201548152602001600182015481526020016002820154815260200160038201548152602001600482015481526020016005820154815260200160068201548152602001600782015481526020016008820160009054906101000a900460ff166002811115610db257fe5b6002811115610dbd57fe5b815250509250505092915050565b60405180807f5550444154455f504152414d45544552535f524f4c45000000000000000000008152506016019050604051809103902081565b610e0c6107fb565b6040805190810160405280601481526020017f494e49545f4e4f545f494e495449414c495a4544000000000000000000000000815250901515610e85576040517f08c379a0000000000000000000000000000000000000000000000000000000008152600401610e7c919061568e565b60405180910390fd5b508181610e93828233610894565b1515610ed4576040517f08c379a0000000000000000000000000000000000000000000000000000000008152600401610ecb906156d2565b60405180910390fd5b610ede84846124ac565b50505050565b610eec6107fb565b6040805190810160405280601481526020017f494e49545f4e4f545f494e495449414c495a4544000000000000000000000000815250901515610f65576040517f08c379a0000000000000000000000000000000000000000000000000000000008152600401610f5c919061568e565b60405180910390fd5b50610f718383836124f8565b505050565b6003602052816000526040600020602052806000526040600020600091509150508060000154908060010154908060020154908060030154908060040154908060050154908060060154908060070154908060080160009054906101000a900460ff16905089565b6000610fe861131e565b146040805190810160405280601881526020017f494e49545f414c52454144595f494e495449414c495a45440000000000000000815250901515611062576040517f08c379a0000000000000000000000000000000000000000000000000000000008152600401611059919061568e565b60405180910390fd5b50606482111580156110745750818111155b15156110b5576040517f08c379a00000000000000000000000000000000000000000000000000000000081526004016110ac90615712565b60405180910390fd5b6110bd6126ed565b826000806101000a81548173ffffffffffffffffffffffffffffffffffffffff021916908373ffffffffffffffffffffffffffffffffffffffff1602179055508160028190555080600181905550505050565b600060019050919050565b600061114d7fd625496217aa6a3453eecb9c3489dc5a53e6c67b444329ea2b2cbc9ff547639b600102600019166127b5565b905090565b61115a6142c2565b82826000600460008473ffffffffffffffffffffffffffffffffffffffff1673ffffffffffffffffffffffffffffffffffffffff1681526020019081526020016000206000838152602001908152602001600020600001541115156111f4576040517f08c379a00000000000000000000000000000000000000000000000000000000081526004016111eb90615732565b60405180910390fd5b600460008673ffffffffffffffffffffffffffffffffffffffff1673ffffffffffffffffffffffffffffffffffffffff168152602001908152602001600020600085815260200190815260200160002061014060405190810160405290816000820154815260200160018201548152602001600282015481526020016003820154815260200160048201548152602001600582015481526020016006820154815260200160078201548152602001600882015481526020016009820160009054906101000a900460ff1660028111156112c957fe5b60028111156112d457fe5b815250509250505092915050565b6005602052826000526040600020602052816000526040600020602052806000526040600020600092509250509054906101000a900460ff1681565b60006113507febb05b386a8d34882b8711d156f463690983dc47815980fb82aeeff1aa43579e600102600019166127c0565b905090565b60008084846000600360008473ffffffffffffffffffffffffffffffffffffffff1673ffffffffffffffffffffffffffffffffffffffff1681526020019081526020016000206000838152602001908152602001600020600001541115156113f2576040517f08c379a00000000000000000000000000000000000000000000000000000000081526004016113e990615752565b60405180910390fd5b600360008873ffffffffffffffffffffffffffffffffffffffff1673ffffffffffffffffffffffffffffffffffffffff168152602001908152602001600020600087815260200190815260200160002092506000600281111561145157fe5b8360080160009054906101000a900460ff16600281111561146e57fe5b148015611548575060008060009054906101000a900473ffffffffffffffffffffffffffffffffffffffff1673ffffffffffffffffffffffffffffffffffffffff16634ee2cd7e8786600101546040518363ffffffff167c01000000000000000000000000000000000000000000000000000000000281526004016114f49291906153dc565b602060405180830381600087803b15801561150e57600080fd5b505af1158015611522573d6000803e3d6000fd5b505050506040513d601f19601f820116820180604052506115469190810190614e1b565b115b93505050509392505050565b60008061156083611110565b6040805190810160405280601281526020017f5245434f5645525f444953414c4c4f57454400000000000000000000000000008152509015156115d9576040517f08c379a00000000000000000000000000000000000000000000000000000000081526004016115d0919061568e565b60405180910390fd5b506115e2610b9b565b91506115ed826127cb565b6040805190810160405280601a81526020017f5245434f5645525f5641554c545f4e4f545f434f4e5452414354000000000000815250901515611666576040517f08c379a000000000000000000000000000000000000000000000000000000000815260040161165d919061568e565b60405180910390fd5b50600073ffffffffffffffffffffffffffffffffffffffff168373ffffffffffffffffffffffffffffffffffffffff1614156116ff578173ffffffffffffffffffffffffffffffffffffffff166108fc3073ffffffffffffffffffffffffffffffffffffffff16319081150290604051600060405180830381858888f193505050501580156116f9573d6000803e3d6000fd5b50611853565b8273ffffffffffffffffffffffffffffffffffffffff166370a08231306040518263ffffffff167c0100000000000000000000000000000000000000000000000000000000028152600401611754919061562f565b602060405180830381600087803b15801561176e57600080fd5b505af1158015611782573d6000803e3d6000fd5b505050506040513d601f19601f820116820180604052506117a69190810190614e1b565b90508273ffffffffffffffffffffffffffffffffffffffff1663a9059cbb83836040518363ffffffff167c01000000000000000000000000000000000000000000000000000000000281526004016117ff9291906153dc565b602060405180830381600087803b15801561181957600080fd5b505af115801561182d573d6000803e3d6000fd5b505050506040513d601f19601f820116820180604052506118519190810190614b5e565b505b505050565b600080606060006118676107fb565b1515611876576000935061197b565b61187e612151565b9250600073ffffffffffffffffffffffffffffffffffffffff168373ffffffffffffffffffffffffffffffffffffffff1614156118be576000935061197b565b602085510290508491508082528273ffffffffffffffffffffffffffffffffffffffff1663fdef9106883089866040518563ffffffff167c01000000000000000000000000000000000000000000000000000000000281526004016119269493929190615390565b602060405180830381600087803b15801561194057600080fd5b505af1158015611954573d6000803e3d6000fd5b505050506040513d601f19601f820116820180604052506119789190810190614b5e565b93505b5050509392505050565b600080611990612151565b73ffffffffffffffffffffffffffffffffffffffff1663be00bbd87fd6f028ca0e8edb4a8c9757ca4fdccab25fa1e0317da1188108f7d2dee14902fb6001027fddbcfd564f642ab5627cf68b9b7d374fb4f8a36e941a75d89c87998cef03bd616001026040518363ffffffff167c0100000000000000000000000000000000000000000000000000000000028152600401611a2c92919061543b565b602060405180830381600087803b158015611a4657600080fd5b505af1158015611a5a573d6000803e3d6000fd5b505050506040513d601f19601f82011682018060405250611a7e9190810190614a43565b90508091505090565b606082826000600360008473ffffffffffffffffffffffffffffffffffffffff1673ffffffffffffffffffffffffffffffffffffffff168152602001908152602001600020600083815260200190815260200160002060000154111515611b23576040517f08c379a0000000000000000000000000000000000000000000000000000000008152600401611b1a90615752565b60405180910390fd5b8473ffffffffffffffffffffffffffffffffffffffff1663fec7d70b856040518263ffffffff167c0100000000000000000000000000000000000000000000000000000000028152600401611b789190615801565b600060405180830381600087803b158015611b9257600080fd5b505af1158015611ba6573d6000803e3d6000fd5b505050506040513d6000823e3d601f19601f82011682018060405250611bcf9190810190614d99565b60000151600001519250505092915050565b60008083836000600460008473ffffffffffffffffffffffffffffffffffffffff1673ffffffffffffffffffffffffffffffffffffffff168152602001908152602001600020600083815260200190815260200160002060000154111515611c7e576040517f08c379a0000000000000000000000000000000000000000000000000000000008152600401611c7590615732565b60405180910390fd5b600460008773ffffffffffffffffffffffffffffffffffffffff1673ffffffffffffffffffffffffffffffffffffffff1681526020019081526020016000206000868152602001908152602001600020925060006002811115611cdd57fe5b8360090160009054906101000a900460ff166002811115611cfa57fe5b141515611d0a5760009350611d29565b82600301548360080154101515611d245760019350611d29565b600093505b50505092915050565b600080611d3d614321565b6000611d4761435b565b86866000600360008473ffffffffffffffffffffffffffffffffffffffff1673ffffffffffffffffffffffffffffffffffffffff168152602001908152602001600020600083815260200190815260200160002060000154111515611de1576040517f08c379a0000000000000000000000000000000000000000000000000000000008152600401611dd890615752565b60405180910390fd5b600360008a73ffffffffffffffffffffffffffffffffffffffff1673ffffffffffffffffffffffffffffffffffffffff168152602001908152602001600020600089815260200190815260200160002095508873ffffffffffffffffffffffffffffffffffffffff1663fec7d70b87600001546040518263ffffffff167c0100000000000000000000000000000000000000000000000000000000028152600401611e8c9190615801565b600060405180830381600087803b158015611ea657600080fd5b505af1158015611eba573d6000803e3d6000fd5b505050506040513d6000823e3d601f19601f82011682018060405250611ee39190810190614d99565b945060006002811115611ef257fe5b8660080160009054906101000a900460ff166002811115611f0f57fe5b141515611f1f5760009650612065565b85600301548660070154101515612060578560040154866005015410151561205757600093505b846060015151841015612056578873ffffffffffffffffffffffffffffffffffffffff1663889bd35d866060015186815181101515611f8157fe5b906020019060200201516040518263ffffffff167c0100000000000000000000000000000000000000000000000000000000028152600401611fc39190615801565b600060405180830381600087803b158015611fdd57600080fd5b505af1158015611ff1573d6000803e3d6000fd5b505050506040513d6000823e3d601f19601f8201168201806040525061201a9190810190614dda565b92506001600481111561202957fe5b8360600151600481111561203957fe5b1415156120495760009650612065565b8380600101945050611f46565b5b60019650612065565b600096505b50505050505092915050565b6120796107fb565b6040805190810160405280601481526020017f494e49545f4e4f545f494e495449414c495a45440000000000000000000000008152509015156120f2576040517f08c379a00000000000000000000000000000000000000000000000000000000081526004016120e9919061568e565b60405180910390fd5b508181612100828233611355565b1515612141576040517f08c379a000000000000000000000000000000000000000000000000000000000815260040161213890615772565b60405180910390fd5b61214b848461281d565b50505050565b60006121837f4172f0f7d2289153072b0a6ca36959e0cbe2efc3afe50fc81636caa96338137b60010260001916612868565b905090565b60015481565b60007fffffffffffffffffffffffffffffffffffffffffffffffffffffffffffffffff6121b961131e565b14905090565b6121c76107fb565b6040805190810160405280601481526020017f494e49545f4e4f545f494e495449414c495a4544000000000000000000000000815250901515612240576040517f08c379a0000000000000000000000000000000000000000000000000000000008152600401612237919061568e565b60405180910390fd5b50818161224e828233611355565b151561228f576040517f08c379a000000000000000000000000000000000000000000000000000000000815260040161228690615772565b60405180910390fd5b6122998484612873565b50505050565b6122a76107fb565b6040805190810160405280601481526020017f494e49545f4e4f545f494e495449414c495a4544000000000000000000000000815250901515612320576040517f08c379a0000000000000000000000000000000000000000000000000000000008152600401612317919061568e565b60405180910390fd5b50828261232e828233610894565b151561236f576040517f08c379a0000000000000000000000000000000000000000000000000000000008152600401612366906156d2565b60405180910390fd5b8484848273ffffffffffffffffffffffffffffffffffffffff1663889bd35d836040518263ffffffff167c01000000000000000000000000000000000000000000000000000000000281526004016123c79190615801565b600060405180830381600087803b1580156123e157600080fd5b505af11580156123f5573d6000803e3d6000fd5b505050506040513d6000823e3d601f19601f8201168201806040525061241e9190810190614dda565b6000015160200151811015151561246a576040517f08c379a0000000000000000000000000000000000000000000000000000000008152600401612461906156f2565b60405180910390fd5b6124758888886128be565b5050505050505050565b6000809054906101000a900473ffffffffffffffffffffffffffffffffffffffff1681565b600043905090565b6124ba82826000803361290d565b807f21b055818c289a0776966d1f4b862b9f71d742681cc90611b5b08dd04f931b8783336040516124ec9291906154d7565b60405180910390a25050565b6000612502614321565b60008573ffffffffffffffffffffffffffffffffffffffff166331f7009686866040518363ffffffff167c010000000000000000000000000000000000000000000000000000000002815260040161255b929190615792565b602060405180830381600087803b15801561257557600080fd5b505af1158015612589573d6000803e3d6000fd5b505050506040513d601f19601f820116820180604052506125ad9190810190614e1b565b92508573ffffffffffffffffffffffffffffffffffffffff1663fec7d70b846040518263ffffffff167c01000000000000000000000000000000000000000000000000000000000281526004016126049190615801565b600060405180830381600087803b15801561261e57600080fd5b505af1158015612632573d6000803e3d6000fd5b505050506040513d6000823e3d601f19601f8201168201806040525061265b9190810190614d99565b9150600090505b8160600151518110156126a1576126948683606001518381518110151561268557fe5b90602001906020020151612dc1565b8080600101915050612662565b6126ab8684612ff2565b827f7fa5d1ac92146f74ddbebc254679a8e41cda6b732d19aa71b819018f48f0313d87336040516126dd9291906154d7565b60405180910390a2505050505050565b60006126f761131e565b146040805190810160405280601881526020017f494e49545f414c52454144595f494e495449414c495a45440000000000000000815250901515612771576040517f08c379a0000000000000000000000000000000000000000000000000000000008152600401612768919061568e565b60405180910390fd5b506127b361277d6124a4565b7febb05b386a8d34882b8711d156f463690983dc47815980fb82aeeff1aa43579e6001026000191661323790919063ffffffff16565b565b600081549050919050565b600081549050919050565b600080600073ffffffffffffffffffffffffffffffffffffffff168373ffffffffffffffffffffffffffffffffffffffff16141561280c5760009150612817565b823b90506000811191505b50919050565b61282a828260003361323e565b807f765f3d8e266a9fa3317b8fcdbe47e2ee878db83230fe389d4bc83c72adc3b39f833360405161285c9291906154d7565b60405180910390a25050565b600081549050919050565b612880828260013361323e565b807fad6ee225281f20a74c5e6e7947529076ca2b4639c983cc0539d57bfeda0afcc283336040516128b29291906154d7565b60405180910390a25050565b6128cc83836001843361290d565b817f30c734dd2fc051e35d9c49d0950fe6fd43e42658c2397d489d4629cf029c2fd484833360405161290093929190615529565b60405180910390a2505050565b6000806000600460008973ffffffffffffffffffffffffffffffffffffffff1673ffffffffffffffffffffffffffffffffffffffff168152602001908152602001600020600088815260200190815260200160002092506000809054906101000a900473ffffffffffffffffffffffffffffffffffffffff1673ffffffffffffffffffffffffffffffffffffffff16634ee2cd7e8585600101546040518363ffffffff167c01000000000000000000000000000000000000000000000000000000000281526004016129e09291906153dc565b602060405180830381600087803b1580156129fa57600080fd5b505af1158015612a0e573d6000803e3d6000fd5b505050506040513d601f19601f82011682018060405250612a329190810190614e1b565b9150600660008973ffffffffffffffffffffffffffffffffffffffff1673ffffffffffffffffffffffffffffffffffffffff168152602001908152602001600020600088815260200190815260200160002060008573ffffffffffffffffffffffffffffffffffffffff1673ffffffffffffffffffffffffffffffffffffffff168152602001908152602001600020905060006002811115612ad057fe5b8160000160009054906101000a900460ff166002811115612aed57fe5b141515612b1457612b0b82846008015461376990919063ffffffff16565b83600801819055505b60016002811115612b2157fe5b8160000160009054906101000a900460ff166002811115612b3e57fe5b1415612b9d57612b5b82846005015461376990919063ffffffff16565b8360050181905550612b90612b7d8260010154846137f990919063ffffffff16565b846007015461376990919063ffffffff16565b8360070181905550612bed565b600280811115612ba957fe5b8160000160009054906101000a900460ff166002811115612bc657fe5b1415612bec57612be382846006015461376990919063ffffffff16565b83600601819055505b5b8515612cb357612c0a8284600501546138a690919063ffffffff16565b8360050181905550612c3b612c2886846137f990919063ffffffff16565b84600701546138a690919063ffffffff16565b836007018190555060018160000160006101000a81548160ff02191690836002811115612c6457fe5b0217905550848160010181905550867f30c734dd2fc051e35d9c49d0950fe6fd43e42658c2397d489d4629cf029c2fd4898787604051612ca693929190615529565b60405180910390a2612d3d565b612cca8284600601546138a690919063ffffffff16565b836006018190555060028160000160006101000a81548160ff02191690836002811115612cf357fe5b021790555060008160010181905550867f21b055818c289a0776966d1f4b862b9f71d742681cc90611b5b08dd04f931b878986604051612d349291906154d7565b60405180910390a25b612d548284600801546138a690919063ffffffff16565b83600801819055507f67f31659f141f0c2f72116eb452e307316e88a210cd462934e5215c762d0fa7c888886898987604051612d95969594939291906155b3565b60405180910390a1612da78888611be1565b15612db757612db68888613936565b5b5050505050505050565b6000600460008473ffffffffffffffffffffffffffffffffffffffff1673ffffffffffffffffffffffffffffffffffffffff168152602001908152602001600020600083815260200190815260200160002090508181600001819055506001430381600101819055506000809054906101000a900473ffffffffffffffffffffffffffffffffffffffff1673ffffffffffffffffffffffffffffffffffffffff1663981b24d082600101546040518263ffffffff167c0100000000000000000000000000000000000000000000000000000000028152600401612ea49190615801565b602060405180830381600087803b158015612ebe57600080fd5b505af1158015612ed2573d6000803e3d6000fd5b505050506040513d601f19601f82011682018060405250612ef69190810190614e1b565b8160020181905550612f2a6064612f1c83600201546002546137f990919063ffffffff16565b613be890919063ffffffff16565b8160030181905550612f5e6064612f5083600201546001546137f990919063ffffffff16565b613be890919063ffffffff16565b81600401819055506000816005018190555060008160060181905550600081600701819055506000816008018190555060008160090160006101000a81548160ff02191690836002811115612faf57fe5b02179055507fc80dfb75ae81bddc2353e7829374e3cdd75c0b514ebea75b04ebd43557d938508383604051612fe5929190615500565b60405180910390a1505050565b6000600360008473ffffffffffffffffffffffffffffffffffffffff1673ffffffffffffffffffffffffffffffffffffffff168152602001908152602001600020600083815260200190815260200160002090508181600001819055506001430381600101819055506000809054906101000a900473ffffffffffffffffffffffffffffffffffffffff1673ffffffffffffffffffffffffffffffffffffffff1663981b24d082600101546040518263ffffffff167c01000000000000000000000000000000000000000000000000000000000281526004016130d59190615801565b602060405180830381600087803b1580156130ef57600080fd5b505af1158015613103573d6000803e3d6000fd5b505050506040513d601f19601f820116820180604052506131279190810190614e1b565b816002018190555061315b606461314d83600201546002546137f990919063ffffffff16565b613be890919063ffffffff16565b816003018190555061318f606461318183600201546001546137f990919063ffffffff16565b613be890919063ffffffff16565b816004018190555060008160050181905550600081600601819055506000816007018190555060008160080160006101000a81548160ff021916908360028111156131d657fe5b02179055507f459c0186854b229ea01639896d9758052452d4d6fe7a865172ff28c621b912cb838360405161320c929190615500565b60405180910390a161321f838333611355565b1561323257613231838360013361323e565b5b505050565b8082555050565b6000806000600360008873ffffffffffffffffffffffffffffffffffffffff1673ffffffffffffffffffffffffffffffffffffffff168152602001908152602001600020600087815260200190815260200160002092506000809054906101000a900473ffffffffffffffffffffffffffffffffffffffff1673ffffffffffffffffffffffffffffffffffffffff16634ee2cd7e8585600101546040518363ffffffff167c01000000000000000000000000000000000000000000000000000000000281526004016133119291906153dc565b602060405180830381600087803b15801561332b57600080fd5b505af115801561333f573d6000803e3d6000fd5b505050506040513d601f19601f820116820180604052506133639190810190614e1b565b9150600560008873ffffffffffffffffffffffffffffffffffffffff1673ffffffffffffffffffffffffffffffffffffffff168152602001908152602001600020600087815260200190815260200160002060008573ffffffffffffffffffffffffffffffffffffffff1673ffffffffffffffffffffffffffffffffffffffff16815260200190815260200160002060009054906101000a900460ff1690506000600281111561340f57fe5b81600281111561341b57fe5b1415156134425761343982846007015461376990919063ffffffff16565b83600701819055505b6001600281111561344f57fe5b81600281111561345b57fe5b14156134855761347882846005015461376990919063ffffffff16565b83600501819055506134c4565b60028081111561349157fe5b81600281111561349d57fe5b14156134c3576134ba82846006015461376990919063ffffffff16565b83600601819055505b5b84156135db576134e18284600501546138a690919063ffffffff16565b83600501819055506001600560008973ffffffffffffffffffffffffffffffffffffffff1673ffffffffffffffffffffffffffffffffffffffff168152602001908152602001600020600088815260200190815260200160002060008673ffffffffffffffffffffffffffffffffffffffff1673ffffffffffffffffffffffffffffffffffffffff16815260200190815260200160002060006101000a81548160ff0219169083600281111561359357fe5b021790555082600001547fad6ee225281f20a74c5e6e7947529076ca2b4639c983cc0539d57bfeda0afcc288866040516135ce9291906154d7565b60405180910390a26136e8565b6135f28284600601546138a690919063ffffffff16565b83600601819055506002600560008973ffffffffffffffffffffffffffffffffffffffff1673ffffffffffffffffffffffffffffffffffffffff168152602001908152602001600020600088815260200190815260200160002060008673ffffffffffffffffffffffffffffffffffffffff1673ffffffffffffffffffffffffffffffffffffffff16815260200190815260200160002060006101000a81548160ff021916908360028111156136a457fe5b021790555082600001547f765f3d8e266a9fa3317b8fcdbe47e2ee878db83230fe389d4bc83c72adc3b39f88866040516136df9291906154d7565b60405180910390a25b6136ff8284600701546138a690919063ffffffff16565b83600701819055507ffc7e41801886fcb2f2ed05ea98f973fefd40c265b70ae68ef54e897c07e6a485878786888660405161373e959493929190615560565b60405180910390a16137508787611d32565b156137605761375f8787613c81565b5b50505050505050565b600080838311156040805190810160405280601281526020017f4d4154485f5355425f554e444552464c4f5700000000000000000000000000008152509015156137e9576040517f08c379a00000000000000000000000000000000000000000000000000000000081526004016137e0919061568e565b60405180910390fd5b5082840390508091505092915050565b600080600084141561380e576000915061389f565b828402905082848281151561381f57fe5b04146040805190810160405280601181526020017f4d4154485f4d554c5f4f564552464c4f5700000000000000000000000000000081525090151561389a576040517f08c379a0000000000000000000000000000000000000000000000000000000008152600401613891919061568e565b60405180910390fd5b508091505b5092915050565b6000808284019050838110156040805190810160405280601181526020017f4d4154485f4144445f4f564552464c4f5700000000000000000000000000000081525090151561392b576040517f08c379a0000000000000000000000000000000000000000000000000000000008152600401613922919061568e565b60405180910390fd5b508091505092915050565b6000600460008473ffffffffffffffffffffffffffffffffffffffff1673ffffffffffffffffffffffffffffffffffffffff1681526020019081526020016000206000838152602001908152602001600020905060018160090160006101000a81548160ff021916908360028111156139ab57fe5b021790555080600401548160050154101515613a69578273ffffffffffffffffffffffffffffffffffffffff16636d5f5ca7836139f984600501548560070154613be890919063ffffffff16565b6040518363ffffffff167c0100000000000000000000000000000000000000000000000000000000028152600401613a3292919061581c565b600060405180830381600087803b158015613a4c57600080fd5b505af1158015613a60573d6000803e3d6000fd5b50505050613baa565b613b22838473ffffffffffffffffffffffffffffffffffffffff1663889bd35d856040518263ffffffff167c0100000000000000000000000000000000000000000000000000000000028152600401613ac29190615801565b600060405180830381600087803b158015613adc57600080fd5b505af1158015613af0573d6000803e3d6000fd5b505050506040513d6000823e3d601f19601f82011682018060405250613b199190810190614dda565b60800151613f60565b8273ffffffffffffffffffffffffffffffffffffffff16636e0b314c836040518263ffffffff167c0100000000000000000000000000000000000000000000000000000000028152600401613b779190615801565b600060405180830381600087803b158015613b9157600080fd5b505af1158015613ba5573d6000803e3d6000fd5b505050505b7f7a62334ca907cda9edac6f0e64f13251c06a45b9bca0cb82817346d4dd730f6a8383604051613bdb929190615500565b60405180910390a1505050565b600080600083116040805190810160405280600d81526020017f4d4154485f4449565f5a45524f00000000000000000000000000000000000000815250901515613c68576040517f08c379a0000000000000000000000000000000000000000000000000000000008152600401613c5f919061568e565b60405180910390fd5b508284811515613c7457fe5b0490508091505092915050565b6000613c8b614321565b6000600360008673ffffffffffffffffffffffffffffffffffffffff1673ffffffffffffffffffffffffffffffffffffffff1681526020019081526020016000206000858152602001908152602001600020925082600401548360050154101515613d7c578473ffffffffffffffffffffffffffffffffffffffff1663ddf6fa9c856040518263ffffffff167c0100000000000000000000000000000000000000000000000000000000028152600401613d459190615801565b600060405180830381600087803b158015613d5f57600080fd5b505af1158015613d73573d6000803e3d6000fd5b50505050613efa565b8473ffffffffffffffffffffffffffffffffffffffff1663fec7d70b856040518263ffffffff167c0100000000000000000000000000000000000000000000000000000000028152600401613dd19190615801565b600060405180830381600087803b158015613deb57600080fd5b505af1158015613dff573d6000803e3d6000fd5b505050506040513d6000823e3d601f19601f82011682018060405250613e289190810190614d99565b9150600090505b816060015151811015613e6e57613e6185836060015183815181101515613e5257fe5b906020019060200201516141b2565b8080600101915050613e2f565b8473ffffffffffffffffffffffffffffffffffffffff1663748b052c84600001546040518263ffffffff167c0100000000000000000000000000000000000000000000000000000000028152600401613ec79190615801565b600060405180830381600087803b158015613ee157600080fd5b505af1158015613ef5573d6000803e3d6000fd5b505050505b60018360080160006101000a81548160ff02191690836002811115613f1b57fe5b02179055507ff9e893896160019f494e6a908a16f04628a4a8a152ca59b6abea9ba8b14e4b6c8585604051613f51929190615500565b60405180910390a15050505050565b6000613f6a614321565b6000600360008673ffffffffffffffffffffffffffffffffffffffff1673ffffffffffffffffffffffffffffffffffffffff168152602001908152602001600020600085815260200190815260200160002092508473ffffffffffffffffffffffffffffffffffffffff1663fec7d70b856040518263ffffffff167c01000000000000000000000000000000000000000000000000000000000281526004016140139190615801565b600060405180830381600087803b15801561402d57600080fd5b505af1158015614041573d6000803e3d6000fd5b505050506040513d6000823e3d601f19601f8201168201806040525061406a9190810190614d99565b915060028360080160006101000a81548160ff0219169083600281111561408d57fe5b0217905550600090505b81606001515181101561417257600160028111156140b157fe5b600460008773ffffffffffffffffffffffffffffffffffffffff1673ffffffffffffffffffffffffffffffffffffffff168152602001908152602001600020600084606001518481518110151561410457fe5b90602001906020020151815260200190815260200160002060090160009054906101000a900460ff16600281111561413857fe5b141515614165576141648583606001518381518110151561415557fe5b906020019060200201516141b2565b5b8080600101915050614097565b7f430ff3f9c6554faf1a1b8c7cbf1bf5c479c8eb64538239f8991be60a3bc15e0f85856040516141a3929190615500565b60405180910390a15050505050565b6000600460008473ffffffffffffffffffffffffffffffffffffffff1673ffffffffffffffffffffffffffffffffffffffff1681526020019081526020016000206000838152602001908152602001600020905060028160090160006101000a81548160ff0219169083600281111561422757fe5b02179055507f8c6d65bc51d03af5d344851f84b2f3d571456b100242ab79f91a1dae16964acf838360405161425d929190615500565b60405180910390a1505050565b610120604051908101604052806000815260200160008152602001600081526020016000815260200160008152602001600081526020016000815260200160008152602001600060028111156142bc57fe5b81525090565b610140604051908101604052806000815260200160008152602001600081526020016000815260200160008152602001600081526020016000815260200160008152602001600081526020016000600281111561431b57fe5b81525090565b60806040519081016040528061433561439c565b8152602001600081526020016000600381111561434e57fe5b8152602001606081525090565b60e06040519081016040528061436f6143b0565b815260200160008152602001600081526020016000600481111561438f57fe5b8152602001600081525090565b602060405190810160405280606081525090565b606060405190810160405280600073ffffffffffffffffffffffffffffffffffffffff16815260200160008152602001606081525090565b60006143f48235615b1d565b905092915050565b60006144088251615b1d565b905092915050565b600082601f830112151561442357600080fd5b81356144366144318261599b565b61596e565b9150818183526020840193506020810190508360005b8381101561447c578135860161446288826147be565b84526020840193506020830192505060018101905061444c565b5050505092915050565b600082601f830112151561449957600080fd5b81516144ac6144a7826159c3565b61596e565b915081818352602084019350602081019050838560208402820111156144d157600080fd5b60005b8381101561450157816144e78882614a06565b8452602084019350602083019250506001810190506144d4565b5050505092915050565b600082601f830112151561451e57600080fd5b813561453161452c826159eb565b61596e565b9150818183526020840193506020810190508385602084028201111561455657600080fd5b60005b83811015614586578161456c88826149f2565b845260208401935060208301925050600181019050614559565b5050505092915050565b600061459c8251615b3d565b905092915050565b60006145b08235615b49565b905092915050565b600082601f83011215156145cb57600080fd5b81356145de6145d982615a13565b61596e565b915080825260208301602083018583830111156145fa57600080fd5b614605838284615c55565b50505092915050565b600061461a8251615b53565b905092915050565b600061462e8235615b65565b905092915050565b60006146428235615b77565b905092915050565b60006146568251615b89565b905092915050565b600061466a8251615ba2565b905092915050565b600082601f830112151561468557600080fd5b813561469861469382615a3f565b61596e565b915080825260208301602083018583830111156146b457600080fd5b6146bf838284615c55565b50505092915050565b600082601f83011215156146db57600080fd5b81516146ee6146e982615a3f565b61596e565b9150808252602083016020830185838301111561470a57600080fd5b614715838284615c64565b50505092915050565b60006020828403121561473057600080fd5b61473a602061596e565b9050600082015167ffffffffffffffff81111561475657600080fd5b614762848285016146c8565b60008301525092915050565b60006020828403121561478057600080fd5b61478a602061596e565b9050600082013567ffffffffffffffff8111156147a657600080fd5b6147b284828501614672565b60008301525092915050565b6000606082840312156147d057600080fd5b6147da606061596e565b905060006147ea848285016143e8565b60008301525060206147fe848285016149f2565b602083015250604082013567ffffffffffffffff81111561481e57600080fd5b61482a84828501614672565b60408301525092915050565b60006060828403121561484857600080fd5b614852606061596e565b90506000614862848285016143fc565b600083015250602061487684828501614a06565b602083015250604082015167ffffffffffffffff81111561489657600080fd5b6148a2848285016146c8565b60408301525092915050565b6000608082840312156148c057600080fd5b6148ca608061596e565b9050600082015167ffffffffffffffff8111156148e657600080fd5b6148f28482850161471e565b600083015250602061490684828501614a06565b602083015250604061491a8482850161464a565b604083015250606082015167ffffffffffffffff81111561493a57600080fd5b61494684828501614486565b60608301525092915050565b600060a0828403121561496457600080fd5b61496e60a061596e565b9050600082015167ffffffffffffffff81111561498a57600080fd5b61499684828501614836565b60008301525060206149aa84828501614a06565b60208301525060406149be84828501614a06565b60408301525060606149d28482850161465e565b60608301525060806149e684828501614a06565b60808301525092915050565b60006149fe8235615bbb565b905092915050565b6000614a128251615bbb565b905092915050565b600060208284031215614a2c57600080fd5b6000614a3a848285016143e8565b91505092915050565b600060208284031215614a5557600080fd5b6000614a63848285016143fc565b91505092915050565b600080600060608486031215614a8157600080fd5b6000614a8f868287016143e8565b9350506020614aa0868287016145a4565b925050604084013567ffffffffffffffff811115614abd57600080fd5b614ac98682870161450b565b9150509250925092565b60008060408385031215614ae657600080fd5b6000614af4858286016143e8565b9250506020614b05858286016149f2565b9150509250929050565b600080600060608486031215614b2457600080fd5b6000614b32868287016143e8565b9350506020614b43868287016149f2565b9250506040614b54868287016143e8565b9150509250925092565b600060208284031215614b7057600080fd5b6000614b7e84828501614590565b91505092915050565b600060208284031215614b9957600080fd5b600082013567ffffffffffffffff811115614bb357600080fd5b614bbf848285016145b8565b91505092915050565b600060208284031215614bda57600080fd5b6000614be88482850161460e565b91505092915050565b600080600060608486031215614c0657600080fd5b6000614c1486828701614622565b935050602084013567ffffffffffffffff811115614c3157600080fd5b614c3d8682870161476e565b925050604084013567ffffffffffffffff811115614c5a57600080fd5b614c6686828701614410565b9150509250925092565b60008060408385031215614c8357600080fd5b6000614c9185828601614622565b9250506020614ca2858286016149f2565b9150509250929050565b600080600060608486031215614cc157600080fd5b6000614ccf86828701614622565b9350506020614ce0868287016149f2565b9250506040614cf1868287016143e8565b9150509250925092565b600080600060608486031215614d1057600080fd5b6000614d1e86828701614622565b9350506020614d2f868287016149f2565b9250506040614d40868287016149f2565b9150509250925092565b600080600060608486031215614d5f57600080fd5b6000614d6d86828701614636565b9350506020614d7e868287016149f2565b9250506040614d8f868287016149f2565b9150509250925092565b600060208284031215614dab57600080fd5b600082015167ffffffffffffffff811115614dc557600080fd5b614dd1848285016148ae565b91505092915050565b600060208284031215614dec57600080fd5b600082015167ffffffffffffffff811115614e0657600080fd5b614e1284828501614952565b91505092915050565b600060208284031215614e2d57600080fd5b6000614e3b84828501614a06565b91505092915050565b614e4d81615ab1565b82525050565b6000614e5e82615a78565b80845260208401935083602082028501614e7785615a6b565b60005b84811015614eb0578383038852614e92838351615193565b9250614e9d82615aa4565b9150602088019750600181019050614e7a565b508196508694505050505092915050565b614eca81615ad1565b82525050565b614ed981615add565b82525050565b6000614eea82615a83565b808452614efe816020860160208601615c64565b614f0781615c97565b602085010191505092915050565b614f1e81615bc5565b82525050565b614f2d81615bd7565b82525050565b614f3c81615be9565b82525050565b614f4b81615bfb565b82525050565b614f5a81615c0d565b82525050565b614f6981615c1f565b82525050565b614f7881615c31565b82525050565b614f8781615c43565b82525050565b6000614f9882615a99565b808452614fac816020860160208601615c64565b614fb581615c97565b602085010191505092915050565b6000614fce82615a8e565b808452614fe2816020860160208601615c64565b614feb81615c97565b602085010191505092915050565b6000601982527f73656e6465722063616e6e6f7420766f7465206f6e2052464c000000000000006020830152604082019050919050565b6000602082527f76616c756520697320696e666572696f7220746f2052464c206d696e696d756d6020830152604082019050919050565b6000602682527f696e697469616c697a6174696f6e20706172616d6574657273206f7574206f6660208301527f20626f756e6400000000000000000000000000000000000000000000000000006040830152606082019050919050565b6000601282527f52464c20646f6573206e6f7420657869737400000000000000000000000000006020830152604082019050919050565b6000601282527f52464920646f6573206e6f7420657869737400000000000000000000000000006020830152604082019050919050565b6000601982527f73656e6465722063616e6e6f7420766f7465206f6e20524649000000000000006020830152604082019050919050565b600060208301600083015184820360008601526151868282614fc3565b9150508091505092915050565b60006060830160008301516151ab6000860182614e44565b5060208301516151be6020860182615366565b50604083015184820360408601526151d68282614fc3565b9150508091505092915050565b610120820160008201516151fa6000850182615366565b50602082015161520d6020850182615366565b5060408201516152206040850182615366565b5060608201516152336060850182615366565b5060808201516152466080850182615366565b5060a082015161525960a0850182615366565b5060c082015161526c60c0850182615366565b5060e082015161527f60e0850182615366565b50610100820151615294610100850182614f6f565b50505050565b610140820160008201516152b16000850182615366565b5060208201516152c46020850182615366565b5060408201516152d76040850182615366565b5060608201516152ea6060850182615366565b5060808201516152fd6080850182615366565b5060a082015161531060a0850182615366565b5060c082015161532360c0850182615366565b5060e082015161533660e0850182615366565b5061010082015161534b610100850182615366565b50610120820151615360610120850182614f6f565b50505050565b61536f81615b13565b82525050565b600060208201905061538a6000830184614e44565b92915050565b60006080820190506153a56000830187614e44565b6153b26020830186614e44565b6153bf6040830185614ed0565b81810360608301526153d18184614edf565b905095945050505050565b60006040820190506153f16000830185614e44565b6153fe6020830184615366565b9392505050565b600060208201905061541a6000830184614ec1565b92915050565b60006020820190506154356000830184614ed0565b92915050565b60006040820190506154506000830185614ed0565b61545d6020830184614ed0565b9392505050565b6000602082019050818103600083015261547e8184614edf565b905092915050565b600060208201905061549b6000830184614f15565b92915050565b60006020820190506154b66000830184614f24565b92915050565b60006020820190506154d16000830184614f33565b92915050565b60006040820190506154ec6000830185614f42565b6154f96020830184614e44565b9392505050565b60006040820190506155156000830185614f42565b6155226020830184615366565b9392505050565b600060608201905061553e6000830186614f42565b61554b6020830185615366565b6155586040830184614e44565b949350505050565b600060a0820190506155756000830188614f42565b6155826020830187615366565b61558f6040830186614e44565b61559c6060830185614ec1565b6155a96080830184615366565b9695505050505050565b600060c0820190506155c86000830189614f42565b6155d56020830188615366565b6155e26040830187614e44565b6155ef6060830186614ec1565b6155fc6080830185615366565b61560960a0830184615366565b979650505050505050565b60006020820190506156296000830184614f51565b92915050565b60006020820190506156446000830184614f60565b92915050565b600060208201905061565f6000830184614f7e565b92915050565b600060408201905061567a6000830185614f7e565b6156876020830184615366565b9392505050565b600060208201905081810360008301526156a88184614fc3565b905092915050565b600060208201905081810360008301526156ca8184614f8d565b905092915050565b600060208201905081810360008301526156eb81614ff9565b9050919050565b6000602082019050818103600083015261570b81615030565b9050919050565b6000602082019050818103600083015261572b81615067565b9050919050565b6000602082019050818103600083015261574b816150c4565b9050919050565b6000602082019050818103600083015261576b816150fb565b9050919050565b6000602082019050818103600083015261578b81615132565b9050919050565b600060408201905081810360008301526157ac8185615169565b905081810360208301526157c08184614e53565b90509392505050565b6000610120820190506157df60008301846151e3565b92915050565b6000610140820190506157fb600083018461529a565b92915050565b60006020820190506158166000830184615366565b92915050565b60006040820190506158316000830185615366565b61583e6020830184615366565b9392505050565b60006101208201905061585b600083018c615366565b615868602083018b615366565b615875604083018a615366565b6158826060830189615366565b61588f6080830188615366565b61589c60a0830187615366565b6158a960c0830186615366565b6158b660e0830185615366565b6158c4610100830184614f6f565b9a9950505050505050505050565b6000610140820190506158e8600083018d615366565b6158f5602083018c615366565b615902604083018b615366565b61590f606083018a615366565b61591c6080830189615366565b61592960a0830188615366565b61593660c0830187615366565b61594360e0830186615366565b615951610100830185615366565b61595f610120830184614f6f565b9b9a5050505050505050505050565b6000604051905081810181811067ffffffffffffffff8211171561599157600080fd5b8060405250919050565b600067ffffffffffffffff8211156159b257600080fd5b602082029050602081019050919050565b600067ffffffffffffffff8211156159da57600080fd5b602082029050602081019050919050565b600067ffffffffffffffff821115615a0257600080fd5b602082029050602081019050919050565b600067ffffffffffffffff821115615a2a57600080fd5b601f19601f8301169050602081019050919050565b600067ffffffffffffffff821115615a5657600080fd5b601f19601f8301169050602081019050919050565b6000602082019050919050565b600081519050919050565b600081519050919050565b600081519050919050565b600081519050919050565b6000602082019050919050565b600073ffffffffffffffffffffffffffffffffffffffff82169050919050565b60008115159050919050565b6000819050919050565b6000600382101515615af557fe5b819050919050565b6000600382101515615b0b57fe5b819050919050565b6000819050919050565b600073ffffffffffffffffffffffffffffffffffffffff82169050919050565b60008115159050919050565b6000819050919050565b6000615b5e82615ab1565b9050919050565b6000615b7082615ab1565b9050919050565b6000615b8282615ab1565b9050919050565b6000600482101515615b9a57600080fd5b819050919050565b6000600582101515615bb357600080fd5b819050919050565b6000819050919050565b6000615bd082615ab1565b9050919050565b6000615be282615ab1565b9050919050565b6000615bf482615ab1565b9050919050565b6000615c0682615ab1565b9050919050565b6000615c1882615ab1565b9050919050565b6000615c2a82615ab1565b9050919050565b6000615c3c82615ae7565b9050919050565b6000615c4e82615afd565b9050919050565b82818337600083830152505050565b60005b83811015615c82578082015181840152602081019050615c67565b83811115615c91576000848401525b50505050565b6000601f19601f83011690509190505600a265627a7a72305820295b10398a558c4f57e31ae0a97560162f274338926e70bd224084aaeade59a86c6578706572696d656e74616cf50037",
  "source": "pragma solidity ^0.4.24;\npragma experimental ABIEncoderV2;\n\nimport \"@aragon/os/contracts/apps/AragonApp.sol\";\nimport \"@aragon/os/contracts/lib/math/SafeMath.sol\";\nimport \"@aragon/os/contracts/lib/math/SafeMath64.sol\";\nimport \"@aragon/apps-shared-minime/contracts/MiniMeToken.sol\";\nimport \"@pando/core/contracts/organism/IOrganism.sol\";\nimport \"@pando/core/contracts/scheme/IPandoScheme.sol\";\n\n\ncontract DemocracyScheme is IPandoScheme, AragonApp {\n    using SafeMath for uint256;\n    using SafeMath64 for uint64;\n\n    bytes32 public constant UPDATE_PARAMETERS_ROLE = keccak256(\"UPDATE_PARAMETERS_ROLE\");\n\n    enum VoteState  { Pending, Executed, Cancelled }\n    enum VoterState { Absent, Yea, Nay }\n\n    struct RFLBallot {\n        VoterState state;\n        uint256    value;\n    }\n\n    struct RFIVote {\n        uint256   RFIid;\n        uint256   blockstamp;\n        uint256   supply;\n        uint256   quorum;\n        uint256   required;\n        uint256   yea;\n        uint256   nay;\n        uint256   participation;\n        VoteState state;\n    }\n\n    struct RFLVote {\n        uint256   RFLid;\n        uint256   blockstamp;\n        uint256   supply;\n        uint256   quorum;\n        uint256   required;\n        uint256   yea;\n        uint256   nay;\n        uint256   total;\n        uint256   participation;\n        VoteState state;\n    }\n\n    MiniMeToken public token;\n    uint256     public required;\n    uint256     public quorum;\n\n    mapping(address => mapping(uint256 => RFIVote)) public RFIVotes; // mapping RFIs to related vote\n    mapping(address => mapping(uint256 => RFLVote)) public RFLVotes; // mapping RFLs to related vote\n\n    mapping(address => mapping(uint256 => mapping(address => VoterState))) public RFIVotesBallots;\n    mapping(address => mapping(uint256 => mapping(address => RFLBallot)))  public RFLVotesBallots;\n\n    event NewRFIVote(IOrganism organism, uint256 id);\n    event CastRFIVote(IOrganism organism, uint256 id, address voter, bool supports, uint256 stake);\n    event CancelRFIVote(IOrganism organism, uint256 id);\n    event ExecuteRFIVote(IOrganism organism, uint256 id);\n\n    event NewRFLVote(IOrganism organism, uint256 id);\n    event CastRFLVote(IOrganism organism, uint256 id, address voter, bool supports, uint256 value, uint256 stake);\n    event CancelRFLVote(IOrganism organism, uint256 id);\n    event ExecuteRFLVote(IOrganism organism, uint256 id);\n\n    modifier RFIVoteExists(IOrganism _organism, uint256 _RFIid) {\n        require(RFIVotes[address(_organism)][_RFIid].RFIid > 0, \"RFI does not exist\");\n        _;\n    }\n\n    modifier RFLVoteExists(IOrganism _organism, uint256 _RFLid) {\n        require(RFLVotes[address(_organism)][_RFLid].RFLid > 0, \"RFL does not exist\");\n        _;\n    }\n\n    modifier senderCanVoteOnRFI(IOrganism _organism, uint256 _RFIid) {\n        require(canVoteOnRFI(_organism, _RFIid, msg.sender), \"sender cannot vote on RFI\");\n        _;\n    }\n\n    modifier senderCanVoteOnRFL(IOrganism _organism, uint256 _RFLid) {\n        require(canVoteOnRFL(_organism, _RFLid, msg.sender), \"sender cannot vote on RFL\");\n        _;\n    }\n\n    modifier valueIsSuperiorToRFLMinimum(IOrganism _organism, uint256 _RFLid, uint256 _value) {\n        require(_value >= _organism.getRFL(_RFLid).lineage.minimum, \"value is inferior to RFL minimum\");\n        _;\n    }\n\n    function initialize(MiniMeToken _token, uint256 _quorum, uint256 _required) external onlyInit {\n        require(_quorum <= 100 && _required <= _quorum, \"initialization parameters out of bound\");\n\n        initialized();\n\n        token = _token;\n        quorum = _quorum;\n        required = _required;\n    }\n\n    function createRFI(IOrganism _organism, Pando.IIndividuation _individuation, Pando.ILineage[] _lineages) isInitialized {\n        _createRFI(_organism, _individuation, _lineages);\n    }\n\n    function mergeRFI(IOrganism _organism, uint256 _RFIid) public isInitialized senderCanVoteOnRFI(_organism, _RFIid) {\n        _mergeRFI(_organism, _RFIid);\n    }\n\n    function rejectRFI(IOrganism _organism, uint256 _RFIid) public isInitialized senderCanVoteOnRFI(_organism, _RFIid) {\n        _rejectRFI(_organism, _RFIid);\n    }\n\n    function acceptRFL(IOrganism _organism, uint256 _RFLid, uint256 _value)\n        public\n        isInitialized\n        senderCanVoteOnRFL(_organism, _RFLid)\n        valueIsSuperiorToRFLMinimum(_organism, _RFLid, _value)\n    {\n        _acceptRFL(_organism, _RFLid, _value);\n    }\n\n    function rejectRFL(IOrganism _organism, uint256 _RFLid) public isInitialized senderCanVoteOnRFL(_organism, _RFLid) {\n        _rejectRFL(_organism, _RFLid);\n    }\n\n    /*--------------------*/\n\n    function getRFIVote(IOrganism _organism, uint256 _RFIid) public view RFIVoteExists(_organism, _RFIid) returns (RFIVote) {\n        return RFIVotes[address(_organism)][_RFIid];\n    }\n\n    function getRFLVote(IOrganism _organism, uint256 _RFLid) public view RFLVoteExists(_organism, _RFLid) returns (RFLVote) {\n        return RFLVotes[address(_organism)][_RFLid];\n    }\n\n    function getRFIMetadata(IOrganism _organism, uint256 _RFIid) public view RFIVoteExists(_organism, _RFIid) returns (string) {\n        return _organism.getRFI(_RFIid).individuation.metadata;\n    }\n\n    /*--------------------*/\n\n    function _createRFI(IOrganism _organism, Pando.IIndividuation _individuation, Pando.ILineage[] _lineages) internal {\n        uint256 RFIid = _organism.createRFI(_individuation, _lineages);\n\n        Pando.RFI memory RFI = _organism.getRFI(RFIid);\n\n        for (uint256 i = 0; i < RFI.RFLids.length; i++) {\n            _newRFLVote(_organism, RFI.RFLids[i]);\n        }\n\n        _newRFIVote(_organism, RFIid);\n\n        emit CreateRFI(_organism, RFIid, msg.sender);\n    }\n\n    function _mergeRFI(IOrganism _organism, uint256 _RFIid) internal {\n        _voteRFI(_organism, _RFIid, true, msg.sender);\n        emit MergeRFI(_organism, _RFIid, msg.sender);\n    }\n\n    function _rejectRFI(IOrganism _organism, uint256 _RFIid) internal {\n        _voteRFI(_organism, _RFIid, false, msg.sender);\n        emit RejectRFI(_organism, _RFIid, msg.sender);\n    }\n\n    function _newRFIVote(IOrganism _organism, uint256 _RFIid) internal {\n        RFIVote storage vote = RFIVotes[address(_organism)][_RFIid];\n\n        vote.RFIid = _RFIid;\n        vote.blockstamp = block.number - 1; // avoid double voting in this very block\n        vote.supply = token.totalSupplyAt(vote.blockstamp);\n        vote.quorum = quorum.mul(vote.supply).div(100);\n        vote.required = required.mul(vote.supply).div(100);\n        vote.yea = 0;\n        vote.nay = 0;\n        vote.participation = 0;\n        vote.state = VoteState.Pending;\n\n        emit NewRFIVote(_organism, _RFIid);\n\n        if (canVoteOnRFI(_organism, _RFIid, msg.sender)) {\n            _voteRFI(_organism, _RFIid, true, msg.sender);\n        }\n    }\n\n    function _cancelRFIVote(IOrganism _organism, uint256 _RFIid) internal {\n        RFIVote   storage vote = RFIVotes[address(_organism)][_RFIid];\n        Pando.RFI memory  RFI = _organism.getRFI(_RFIid);\n\n        vote.state = VoteState.Cancelled;\n\n        for (uint256 i = 0; i < RFI.RFLids.length; i++) {\n            if (RFLVotes[address(_organism)][RFI.RFLids[i]].state != VoteState.Executed)\n                _cancelRFLVote(_organism, RFI.RFLids[i]);\n        }\n\n        emit CancelRFIVote(_organism, _RFIid);\n    }\n\n    function _voteRFI(IOrganism _organism, uint256 _RFIid, bool _supports, address _voter) internal {\n        RFIVote storage vote = RFIVotes[address(_organism)][_RFIid];\n\n        uint256 stake = token.balanceOfAt(_voter, vote.blockstamp);\n        VoterState state = RFIVotesBallots[address(_organism)][_RFIid][_voter];\n\n        if (state != VoterState.Absent) {\n            vote.participation = vote.participation.sub(stake);\n        }\n\n        if (state == VoterState.Yea) {\n            vote.yea = vote.yea.sub(stake);\n        } else if (state == VoterState.Nay) {\n            vote.nay = vote.nay.sub(stake);\n        }\n\n        if (_supports) {\n            vote.yea = vote.yea.add(stake);\n            RFIVotesBallots[address(_organism)][_RFIid][_voter] = VoterState.Yea;\n            emit MergeRFI(_organism, vote.RFIid, _voter);\n\n        } else {\n            vote.nay = vote.nay.add(stake);\n            RFIVotesBallots[address(_organism)][_RFIid][_voter] = VoterState.Nay;\n            emit RejectRFI(_organism, vote.RFIid, _voter);\n        }\n\n        vote.participation = vote.participation.add(stake);\n\n        emit CastRFIVote(_organism, _RFIid, _voter, _supports, stake);\n\n        if (canExecuteRFIVote(_organism, _RFIid)) {\n            _executeRFIVote(_organism, _RFIid);\n        }\n    }\n\n    function _executeRFIVote(IOrganism _organism, uint256 _RFIid) internal {\n        RFIVote storage vote = RFIVotes[address(_organism)][_RFIid];\n\n        if (vote.yea >= vote.required) {\n            _organism.mergeRFI(_RFIid);\n        } else {\n            Pando.RFI memory RFI = _organism.getRFI(_RFIid);\n\n            for (uint256 i = 0; i < RFI.RFLids.length; i++) {\n                _cancelRFLVote(_organism, RFI.RFLids[i]);\n            }\n\n            _organism.rejectRFI(vote.RFIid);\n        }\n\n        vote.state = VoteState.Executed;\n\n        emit ExecuteRFIVote(_organism, _RFIid);\n    }\n\n    function _acceptRFL(IOrganism _organism, uint256 _RFLid, uint256 _value) internal {\n        _voteRFL(_organism, _RFLid, true, _value, msg.sender);\n        emit AcceptRFL(_organism, _RFLid, _value, msg.sender);\n    }\n\n    function _rejectRFL(IOrganism _organism, uint256 _RFLid) internal {\n        _voteRFL(_organism, _RFLid, false, 0, msg.sender);\n        emit RejectRFL(_organism, _RFLid, msg.sender);\n    }\n\n    function _newRFLVote(IOrganism _organism, uint256 _RFLid) internal {\n        RFLVote storage vote = RFLVotes[address(_organism)][_RFLid];\n\n        vote.RFLid = _RFLid;\n        vote.blockstamp = block.number - 1; // avoid double voting in this very block\n        vote.supply = token.totalSupplyAt(vote.blockstamp);\n        vote.quorum = quorum.mul(vote.supply).div(100);\n        vote.required = required.mul(vote.supply).div(100);\n        vote.yea = 0;\n        vote.nay = 0;\n        vote.total = 0;\n        vote.participation = 0;\n        vote.state = VoteState.Pending;\n\n        emit NewRFLVote(_organism, _RFLid);\n    }\n\n    function _cancelRFLVote(IOrganism _organism, uint256 _RFLid) internal {\n        RFLVote storage vote = RFLVotes[address(_organism)][_RFLid];\n\n        vote.state = VoteState.Cancelled;\n\n        emit CancelRFLVote(_organism, _RFLid);\n    }\n\n    function _voteRFL(IOrganism _organism, uint256 _RFLid, bool _supports, uint256 _value, address _voter) internal {\n        RFLVote storage vote = RFLVotes[address(_organism)][_RFLid];\n\n        uint256 stake = token.balanceOfAt(_voter, vote.blockstamp);\n        RFLBallot storage ballot = RFLVotesBallots[address(_organism)][_RFLid][_voter];\n\n        if (ballot.state != VoterState.Absent) {\n            vote.participation = vote.participation.sub(stake);\n        }\n\n        if (ballot.state == VoterState.Yea) {\n            vote.yea = vote.yea.sub(stake);\n            vote.total = vote.total.sub(stake.mul(ballot.value));\n        } else if (ballot.state == VoterState.Nay) {\n            vote.nay = vote.nay.sub(stake);\n        }\n\n        if (_supports) {\n            vote.yea = vote.yea.add(stake);\n            vote.total = vote.total.add(stake.mul(_value));\n            ballot.state = VoterState.Yea;\n            ballot.value = _value;\n            emit AcceptRFL(_organism, _RFLid, _value, _voter);\n\n        } else {\n            vote.nay = vote.nay.add(stake);\n            ballot.state = VoterState.Nay;\n            ballot.value = 0;\n            emit RejectRFL(_organism, _RFLid, _voter);\n        }\n\n        vote.participation = vote.participation.add(stake);\n\n        emit CastRFLVote(_organism, _RFLid, _voter, _supports, _value, stake);\n\n        if (canExecuteRFLVote(_organism, _RFLid)) {\n            _executeRFLVote(_organism, _RFLid);\n        }\n    }\n\n    function _executeRFLVote(IOrganism _organism, uint256 _RFLid) internal {\n        RFLVote storage vote = RFLVotes[address(_organism)][_RFLid];\n\n        vote.state = VoteState.Executed;\n\n        if (vote.yea >= vote.required) {\n            _organism.acceptRFL(_RFLid, vote.total.div(vote.yea));\n        } else {\n            _cancelRFIVote(_organism, _organism.getRFL(_RFLid).RFIid);\n            _organism.rejectRFL(_RFLid);\n        }\n\n        emit ExecuteRFLVote(_organism, _RFLid);\n    }\n\n    /*--------------------*/\n\n    function canVoteOnRFI(IOrganism _organism, uint256 _RFIid, address _voter) public view RFIVoteExists(_organism, _RFIid) returns (bool) {\n        RFIVote storage vote = RFIVotes[address(_organism)][_RFIid];\n\n        return vote.state == VoteState.Pending && token.balanceOfAt(_voter, vote.blockstamp) > 0;\n    }\n\n    function canVoteOnRFL(IOrganism _organism, uint256 _RFLid, address _voter) public view RFLVoteExists(_organism, _RFLid) returns (bool) {\n        RFLVote storage vote = RFLVotes[address(_organism)][_RFLid];\n\n        return vote.state == VoteState.Pending && token.balanceOfAt(_voter, vote.blockstamp) > 0;\n    }\n\n    function canExecuteRFIVote(IOrganism _organism, uint256 _RFIid) public view RFIVoteExists(_organism, _RFIid) returns (bool) {\n        RFIVote storage vote = RFIVotes[address(_organism)][_RFIid];\n        Pando.RFI memory RFI = _organism.getRFI(vote.RFIid);\n\n        if (vote.state != VoteState.Pending) {\n            return false;\n        }\n\n        if (vote.participation >= vote.quorum) {\n            if (vote.yea >= vote.required) {\n                for (uint256 i = 0; i < RFI.RFLids.length; i++) {\n                    Pando.RFL memory RFL = _organism.getRFL(RFI.RFLids[i]);\n                    if (RFL.state != Pando.RFLState.Accepted) {\n                        return false;\n                    }\n                }\n            }\n            return true;\n        }\n\n        return false;\n    }\n\n    function canExecuteRFLVote(IOrganism _organism, uint256 _RFLid) public view RFLVoteExists(_organism, _RFLid) returns (bool) {\n        RFLVote storage vote = RFLVotes[address(_organism)][_RFLid];\n\n        if (vote.state != VoteState.Pending) {\n            return false;\n        }\n\n        if (vote.participation >= vote.quorum) {\n            return true;\n        }\n\n        return false;\n    }\n}\n",
  "sourcePath": "/Users/osarrouy/Documents/devs/@pando/packages/scheme-democracy/contracts/DemocracyScheme.sol",
  "compiler": {
    "name": "solc",
    "version": "0.4.24+commit.e67f0147.Emscripten.clang"
  },
  "schemaVersion": "3.0.0-beta.2",
  "updatedAt": "2019-01-11T13:34:21.085Z",
  "devdoc": {
    "methods": {
      "allowRecoverability(address)": {
        "details": "By default deriving from AragonApp makes it recoverable",
        "params": {
          "token": "Token address that would be recovered"
        },
        "return": "bool whether the app allows the recovery"
      },
      "canPerform(address,bytes32,uint256[])": {
        "details": "Check whether an action can be performed by a sender for a particular role on this app",
        "params": {
          "_params": "Permission params for the role",
          "_role": "Role on this app",
          "_sender": "Sender of the call"
        },
        "return": "Boolean indicating whether the sender has the permissions to perform the action.        Always returns false if the app hasn't been initialized yet."
      },
      "getInitializationBlock()": {
        "return": "Block number in which the contract was initialized"
      },
      "getRecoveryVault()": {
        "details": "Get the recovery vault for the app",
        "return": "Recovery vault address for the app"
      },
      "hasInitialized()": {
        "return": "Whether the contract has been initialized by the time of the current block"
      },
      "transferToVault(address)": {
        "params": {
          "_token": "Token balance to be sent to recovery vault."
        }
      }
    }
  },
  "userdoc": {
    "methods": {
      "transferToVault(address)": {
        "notice": "Send funds to recovery Vault. This contract should never receive funds,        but in case it does, this function allows one to recover them."
      }
    }
  }
}