{
  "contractName": "Kernel",
  "abi": [
    {
      "constant": true,
      "inputs": [],
      "name": "hasInitialized",
      "outputs": [
        {
          "name": "",
          "type": "bool"
        }
      ],
      "payable": false,
      "stateMutability": "view",
      "type": "function"
    },
    {
      "constant": true,
      "inputs": [
        {
          "name": "",
          "type": "bytes32"
        },
        {
          "name": "",
          "type": "bytes32"
        }
      ],
      "name": "apps",
      "outputs": [
        {
          "name": "",
          "type": "address"
        }
      ],
      "payable": false,
      "stateMutability": "view",
      "type": "function"
    },
    {
      "constant": true,
      "inputs": [
        {
          "name": "token",
          "type": "address"
        }
      ],
      "name": "allowRecoverability",
      "outputs": [
        {
          "name": "",
          "type": "bool"
        }
      ],
      "payable": false,
      "stateMutability": "view",
      "type": "function"
    },
    {
      "constant": true,
      "inputs": [],
      "name": "recoveryVaultAppId",
      "outputs": [
        {
          "name": "",
          "type": "bytes32"
        }
      ],
      "payable": false,
      "stateMutability": "view",
      "type": "function"
    },
    {
      "constant": true,
      "inputs": [],
      "name": "getInitializationBlock",
      "outputs": [
        {
          "name": "",
          "type": "uint256"
        }
      ],
      "payable": false,
      "stateMutability": "view",
      "type": "function"
    },
    {
      "constant": true,
      "inputs": [],
      "name": "APP_MANAGER_ROLE",
      "outputs": [
        {
          "name": "",
          "type": "bytes32"
        }
      ],
      "payable": false,
      "stateMutability": "view",
      "type": "function"
    },
    {
      "constant": false,
      "inputs": [
        {
          "name": "_token",
          "type": "address"
        }
      ],
      "name": "transferToVault",
      "outputs": [],
      "payable": false,
      "stateMutability": "nonpayable",
      "type": "function"
    },
    {
      "constant": false,
      "inputs": [
        {
          "name": "_kernel",
          "type": "address"
        },
        {
          "name": "_appId",
          "type": "bytes32"
        },
        {
          "name": "_initializePayload",
          "type": "bytes"
        }
      ],
      "name": "newAppProxyPinned",
      "outputs": [
        {
          "name": "",
          "type": "address"
        }
      ],
      "payable": false,
      "stateMutability": "nonpayable",
      "type": "function"
    },
    {
      "constant": true,
      "inputs": [],
      "name": "isPetrified",
      "outputs": [
        {
          "name": "",
          "type": "bool"
        }
      ],
      "payable": false,
      "stateMutability": "view",
      "type": "function"
    },
    {
      "constant": false,
      "inputs": [
        {
          "name": "_kernel",
          "type": "address"
        },
        {
          "name": "_appId",
          "type": "bytes32"
        }
      ],
      "name": "newAppProxy",
      "outputs": [
        {
          "name": "",
          "type": "address"
        }
      ],
      "payable": false,
      "stateMutability": "nonpayable",
      "type": "function"
    },
    {
      "constant": false,
      "inputs": [
        {
          "name": "_kernel",
          "type": "address"
        },
        {
          "name": "_appId",
          "type": "bytes32"
        },
        {
          "name": "_initializePayload",
          "type": "bytes"
        }
      ],
      "name": "newAppProxy",
      "outputs": [
        {
          "name": "",
          "type": "address"
        }
      ],
      "payable": false,
      "stateMutability": "nonpayable",
      "type": "function"
    },
    {
      "constant": false,
      "inputs": [
        {
          "name": "_kernel",
          "type": "address"
        },
        {
          "name": "_appId",
          "type": "bytes32"
        }
      ],
      "name": "newAppProxyPinned",
      "outputs": [
        {
          "name": "",
          "type": "address"
        }
      ],
      "payable": false,
      "stateMutability": "nonpayable",
      "type": "function"
    },
    {
      "inputs": [
        {
          "name": "_shouldPetrify",
          "type": "bool"
        }
      ],
      "payable": false,
      "stateMutability": "nonpayable",
      "type": "constructor"
    },
    {
      "anonymous": false,
      "inputs": [
        {
          "indexed": false,
          "name": "proxy",
          "type": "address"
        },
        {
          "indexed": false,
          "name": "isUpgradeable",
          "type": "bool"
        },
        {
          "indexed": false,
          "name": "appId",
          "type": "bytes32"
        }
      ],
      "name": "NewAppProxy",
      "type": "event"
    },
    {
      "anonymous": false,
      "inputs": [
        {
          "indexed": true,
          "name": "namespace",
          "type": "bytes32"
        },
        {
          "indexed": true,
          "name": "appId",
          "type": "bytes32"
        },
        {
          "indexed": false,
          "name": "app",
          "type": "address"
        }
      ],
      "name": "SetApp",
      "type": "event"
    },
    {
      "constant": false,
      "inputs": [
        {
          "name": "_baseAcl",
          "type": "address"
        },
        {
          "name": "_permissionsCreator",
          "type": "address"
        }
      ],
      "name": "initialize",
      "outputs": [],
      "payable": false,
      "stateMutability": "nonpayable",
      "type": "function"
    },
    {
      "constant": false,
      "inputs": [
        {
          "name": "_appId",
          "type": "bytes32"
        },
        {
          "name": "_appBase",
          "type": "address"
        },
        {
          "name": "_initializePayload",
          "type": "bytes"
        },
        {
          "name": "_setDefault",
          "type": "bool"
        }
      ],
      "name": "newAppInstance",
      "outputs": [
        {
          "name": "appProxy",
          "type": "address"
        }
      ],
      "payable": false,
      "stateMutability": "nonpayable",
      "type": "function"
    },
    {
      "constant": false,
      "inputs": [
        {
          "name": "_appId",
          "type": "bytes32"
        },
        {
          "name": "_appBase",
          "type": "address"
        }
      ],
      "name": "newAppInstance",
      "outputs": [
        {
          "name": "appProxy",
          "type": "address"
        }
      ],
      "payable": false,
      "stateMutability": "nonpayable",
      "type": "function"
    },
    {
      "constant": false,
      "inputs": [
        {
          "name": "_appId",
          "type": "bytes32"
        },
        {
          "name": "_appBase",
          "type": "address"
        }
      ],
      "name": "newPinnedAppInstance",
      "outputs": [
        {
          "name": "appProxy",
          "type": "address"
        }
      ],
      "payable": false,
      "stateMutability": "nonpayable",
      "type": "function"
    },
    {
      "constant": false,
      "inputs": [
        {
          "name": "_appId",
          "type": "bytes32"
        },
        {
          "name": "_appBase",
          "type": "address"
        },
        {
          "name": "_initializePayload",
          "type": "bytes"
        },
        {
          "name": "_setDefault",
          "type": "bool"
        }
      ],
      "name": "newPinnedAppInstance",
      "outputs": [
        {
          "name": "appProxy",
          "type": "address"
        }
      ],
      "payable": false,
      "stateMutability": "nonpayable",
      "type": "function"
    },
    {
      "constant": false,
      "inputs": [
        {
          "name": "_namespace",
          "type": "bytes32"
        },
        {
          "name": "_appId",
          "type": "bytes32"
        },
        {
          "name": "_app",
          "type": "address"
        }
      ],
      "name": "setApp",
      "outputs": [],
      "payable": false,
      "stateMutability": "nonpayable",
      "type": "function"
    },
    {
      "constant": false,
      "inputs": [
        {
          "name": "_recoveryVaultAppId",
          "type": "bytes32"
        }
      ],
      "name": "setRecoveryVaultAppId",
      "outputs": [],
      "payable": false,
      "stateMutability": "nonpayable",
      "type": "function"
    },
    {
      "constant": true,
      "inputs": [],
      "name": "CORE_NAMESPACE",
      "outputs": [
        {
          "name": "",
          "type": "bytes32"
        }
      ],
      "payable": false,
      "stateMutability": "pure",
      "type": "function"
    },
    {
      "constant": true,
      "inputs": [],
      "name": "APP_BASES_NAMESPACE",
      "outputs": [
        {
          "name": "",
          "type": "bytes32"
        }
      ],
      "payable": false,
      "stateMutability": "pure",
      "type": "function"
    },
    {
      "constant": true,
      "inputs": [],
      "name": "APP_ADDR_NAMESPACE",
      "outputs": [
        {
          "name": "",
          "type": "bytes32"
        }
      ],
      "payable": false,
      "stateMutability": "pure",
      "type": "function"
    },
    {
      "constant": true,
      "inputs": [],
      "name": "KERNEL_APP_ID",
      "outputs": [
        {
          "name": "",
          "type": "bytes32"
        }
      ],
      "payable": false,
      "stateMutability": "pure",
      "type": "function"
    },
    {
      "constant": true,
      "inputs": [],
      "name": "DEFAULT_ACL_APP_ID",
      "outputs": [
        {
          "name": "",
          "type": "bytes32"
        }
      ],
      "payable": false,
      "stateMutability": "pure",
      "type": "function"
    },
    {
      "constant": true,
      "inputs": [
        {
          "name": "_namespace",
          "type": "bytes32"
        },
        {
          "name": "_appId",
          "type": "bytes32"
        }
      ],
      "name": "getApp",
      "outputs": [
        {
          "name": "",
          "type": "address"
        }
      ],
      "payable": false,
      "stateMutability": "view",
      "type": "function"
    },
    {
      "constant": true,
      "inputs": [],
      "name": "getRecoveryVault",
      "outputs": [
        {
          "name": "",
          "type": "address"
        }
      ],
      "payable": false,
      "stateMutability": "view",
      "type": "function"
    },
    {
      "constant": true,
      "inputs": [],
      "name": "acl",
      "outputs": [
        {
          "name": "",
          "type": "address"
        }
      ],
      "payable": false,
      "stateMutability": "view",
      "type": "function"
    },
    {
      "constant": true,
      "inputs": [
        {
          "name": "_who",
          "type": "address"
        },
        {
          "name": "_where",
          "type": "address"
        },
        {
          "name": "_what",
          "type": "bytes32"
        },
        {
          "name": "_how",
          "type": "bytes"
        }
      ],
      "name": "hasPermission",
      "outputs": [
        {
          "name": "",
          "type": "bool"
        }
      ],
      "payable": false,
      "stateMutability": "view",
      "type": "function"
    }
  ],
  "bytecode": "0x60806040523480156200001157600080fd5b50604051602080620042268339810180604052810190808051906020019092919050505080156200005657620000556200005d640100000000026401000000009004565b5b5062000343565b60006200007862000198640100000000026401000000009004565b146040805190810160405280601881526020017f494e49545f414c52454144595f494e495449414c495a454400000000000000008152509015156200015b576040517f08c379a00000000000000000000000000000000000000000000000000000000081526004018080602001828103825283818151815260200191508051906020019080838360005b838110156200011f57808201518184015260208101905062000102565b50505050905090810190601f1680156200014d5780820380516001836020036101000a031916815260200191505b509250505060405180910390fd5b50620001967fffffffffffffffffffffffffffffffffffffffffffffffffffffffffffffffff620001e5640100000000026401000000009004565b565b6000620001e07febb05b386a8d34882b8711d156f463690983dc47815980fb82aeeff1aa43579e60010260001916620003316401000000000262002b63176401000000009004565b905090565b60006200020062000198640100000000026401000000009004565b146040805190810160405280601881526020017f494e49545f414c52454144595f494e495449414c495a45440000000000000000815250901515620002e3576040517f08c379a00000000000000000000000000000000000000000000000000000000081526004018080602001828103825283818151815260200191508051906020019080838360005b83811015620002a75780820151818401526020810190506200028a565b50505050905090810190601f168015620002d55780820380516001836020036101000a031916815260200191505b509250505060405180910390fd5b506200032e817febb05b386a8d34882b8711d156f463690983dc47815980fb82aeeff1aa43579e600102600019166200033c6401000000000262002c3c179091906401000000009004565b50565b600081549050919050565b8082555050565b613ed380620003536000396000f30060806040526004361062000187576000357c0100000000000000000000000000000000000000000000000000000000900463ffffffff1680630803fac0146200018c5780631113ed0d14620001be578063178e607914620001f457806332f0a3b5146200022a578063397edd4114620002845780634558850c146200036a578063485cc95514620003ec578063756f604914620004525780637e7db6e1146200048857806380cd5ac314620004e657806386070cfe146200057a5780638b3dd74914620005b05780638c61757d14620005de5780638ea8dc9d1462000612578063958fde8214620006485780639d4941d814620006dc578063ae5b25401462000722578063be00bbd81462000784578063c050a7a61462000806578063d162f8b014620008ec578063db8a61d414620009c6578063de28735914620009fc578063de4796ed1462000a56578063e156a8f31462000a88578063e8187ff01462000b1c578063ede658b01462000b52578063fdef91061462000c2c578063ff289fc51462000cfe575b600080fd5b3480156200019957600080fd5b50620001a462000d92565b604051808215151515815260200191505060405180910390f35b348015620001cb57600080fd5b50620001d662000dc2565b60405180826000191660001916815260200191505060405180910390f35b3480156200020157600080fd5b506200020c62000ded565b60405180826000191660001916815260200191505060405180910390f35b3480156200023757600080fd5b506200024262000e18565b604051808273ffffffffffffffffffffffffffffffffffffffff1673ffffffffffffffffffffffffffffffffffffffff16815260200191505060405180910390f35b3480156200029157600080fd5b50620003286004803603810190808035600019169060200190929190803573ffffffffffffffffffffffffffffffffffffffff169060200190929190803590602001908201803590602001908080601f016020809104026020016040519081016040528093929190818152602001838380828437820191505050505050919291929080351515906020019092919050505062000e98565b604051808273ffffffffffffffffffffffffffffffffffffffff1673ffffffffffffffffffffffffffffffffffffffff16815260200191505060405180910390f35b3480156200037757600080fd5b50620003aa6004803603810190808035600019169060200190929190803560001916906020019092919050505062001072565b604051808273ffffffffffffffffffffffffffffffffffffffff1673ffffffffffffffffffffffffffffffffffffffff16815260200191505060405180910390f35b348015620003f957600080fd5b5062000450600480360381019080803573ffffffffffffffffffffffffffffffffffffffff169060200190929190803573ffffffffffffffffffffffffffffffffffffffff169060200190929190505050620010b4565b005b3480156200045f57600080fd5b506200046a6200136e565b60405180826000191660001916815260200191505060405180910390f35b3480156200049557600080fd5b50620004cc600480360381019080803573ffffffffffffffffffffffffffffffffffffffff16906020019092919050505062001399565b604051808215151515815260200191505060405180910390f35b348015620004f357600080fd5b50620005386004803603810190808035600019169060200190929190803573ffffffffffffffffffffffffffffffffffffffff169060200190929190505050620013a4565b604051808273ffffffffffffffffffffffffffffffffffffffff1673ffffffffffffffffffffffffffffffffffffffff16815260200191505060405180910390f35b3480156200058757600080fd5b50620005926200154b565b60405180826000191660001916815260200191505060405180910390f35b348015620005bd57600080fd5b50620005c862001551565b6040518082815260200191505060405180910390f35b348015620005eb57600080fd5b506200061060048036038101908080356000191690602001909291905050506200158a565b005b3480156200061f57600080fd5b506200062a620016f1565b60405180826000191660001916815260200191505060405180910390f35b3480156200065557600080fd5b506200069a6004803603810190808035600019169060200190929190803573ffffffffffffffffffffffffffffffffffffffff16906020019092919050505062001718565b604051808273ffffffffffffffffffffffffffffffffffffffff1673ffffffffffffffffffffffffffffffffffffffff16815260200191505060405180910390f35b348015620006e957600080fd5b5062000720600480360381019080803573ffffffffffffffffffffffffffffffffffffffff169060200190929190505050620018bf565b005b3480156200072f57600080fd5b506200078260048036038101908080356000191690602001909291908035600019169060200190929190803573ffffffffffffffffffffffffffffffffffffffff16906020019092919050505062001d08565b005b3480156200079157600080fd5b50620007c46004803603810190808035600019169060200190929190803560001916906020019092919050505062001e50565b604051808273ffffffffffffffffffffffffffffffffffffffff1673ffffffffffffffffffffffffffffffffffffffff16815260200191505060405180910390f35b3480156200081357600080fd5b50620008aa6004803603810190808035600019169060200190929190803573ffffffffffffffffffffffffffffffffffffffff169060200190929190803590602001908201803590602001908080601f016020809104026020016040519081016040528093929190818152602001838380828437820191505050505050919291929080351515906020019092919050505062001eae565b604051808273ffffffffffffffffffffffffffffffffffffffff1673ffffffffffffffffffffffffffffffffffffffff16815260200191505060405180910390f35b348015620008f957600080fd5b5062000984600480360381019080803573ffffffffffffffffffffffffffffffffffffffff1690602001909291908035600019169060200190929190803590602001908201803590602001908080601f016020809104026020016040519081016040528093929190818152602001838380828437820191505050505050919291929050505062002088565b604051808273ffffffffffffffffffffffffffffffffffffffff1673ffffffffffffffffffffffffffffffffffffffff16815260200191505060405180910390f35b348015620009d357600080fd5b50620009de620021f7565b60405180826000191660001916815260200191505060405180910390f35b34801562000a0957600080fd5b5062000a1462002222565b604051808273ffffffffffffffffffffffffffffffffffffffff1673ffffffffffffffffffffffffffffffffffffffff16815260200191505060405180910390f35b34801562000a6357600080fd5b5062000a6e6200227b565b604051808215151515815260200191505060405180910390f35b34801562000a9557600080fd5b5062000ada600480360381019080803573ffffffffffffffffffffffffffffffffffffffff1690602001909291908035600019169060200190929190505050620022ae565b604051808273ffffffffffffffffffffffffffffffffffffffff1673ffffffffffffffffffffffffffffffffffffffff16815260200191505060405180910390f35b34801562000b2957600080fd5b5062000b34620022fa565b60405180826000191660001916815260200191505060405180910390f35b34801562000b5f57600080fd5b5062000bea600480360381019080803573ffffffffffffffffffffffffffffffffffffffff1690602001909291908035600019169060200190929190803590602001908201803590602001908080601f016020809104026020016040519081016040528093929190818152602001838380828437820191505050505050919291929050505062002325565b604051808273ffffffffffffffffffffffffffffffffffffffff1673ffffffffffffffffffffffffffffffffffffffff16815260200191505060405180910390f35b34801562000c3957600080fd5b5062000ce4600480360381019080803573ffffffffffffffffffffffffffffffffffffffff169060200190929190803573ffffffffffffffffffffffffffffffffffffffff1690602001909291908035600019169060200190929190803590602001908201803590602001908080601f016020809104026020016040519081016040528093929190818152602001838380828437820191505050505050919291929050505062002494565b604051808215151515815260200191505060405180910390f35b34801562000d0b57600080fd5b5062000d50600480360381019080803573ffffffffffffffffffffffffffffffffffffffff169060200190929190803560001916906020019092919050505062002675565b604051808273ffffffffffffffffffffffffffffffffffffffff1673ffffffffffffffffffffffffffffffffffffffff16815260200191505060405180910390f35b60008062000d9f62001551565b90506000811415801562000dbc57508062000db9620026c1565b10155b91505090565b60007f3b4bf6bf3ad5000ecf0f989d5befde585c6860fea3e574a4fab4c49d1c177d9c600102905090565b60007fd6f028ca0e8edb4a8c9757ca4fdccab25fa1e0317da1188108f7d2dee14902fb600102905090565b60008060007fd6f028ca0e8edb4a8c9757ca4fdccab25fa1e0317da1188108f7d2dee14902fb6001026000191660001916815260200190815260200160002060006001546000191660001916815260200190815260200160002060009054906101000a900473ffffffffffffffffffffffffffffffffffffffff16905090565b60007fb6d92708f3d4817afc106147d969e229ced5c46e65e0a5002a0d391287762bd060010262000eed7ff1f3eb40f5bc1ad1344716ced8b8a0431d840b5783aea1fd01786bc26f35ac0f60010287620026c9565b606060006020835102905082915080825262000f0c3330868562002494565b6040805190810160405280601281526020017f4b45524e454c5f415554485f4641494c4544000000000000000000000000000081525090151562000fee576040517f08c379a00000000000000000000000000000000000000000000000000000000081526004018080602001828103825283818151815260200191508051906020019080838360005b8381101562000fb257808201518184015260208101905062000f95565b50505050905090810190601f16801562000fe05780820380516001836020036101000a031916815260200191505b509250505060405180910390fd5b506200101f7ff1f3eb40f5bc1ad1344716ced8b8a0431d840b5783aea1fd01786bc26f35ac0f6001028a8a620026e7565b6200102c308a8962002325565b945085156200106657620010657fd6f028ca0e8edb4a8c9757ca4fdccab25fa1e0317da1188108f7d2dee14902fb6001028a8762001d08565b5b50505050949350505050565b60006020528160005260406000206020528060005260406000206000915091509054906101000a900473ffffffffffffffffffffffffffffffffffffffff1681565b600080620010c162001551565b146040805190810160405280601881526020017f494e49545f414c52454144595f494e495449414c495a45440000000000000000815250901515620011a4576040517f08c379a00000000000000000000000000000000000000000000000000000000081526004018080602001828103825283818151815260200191508051906020019080838360005b83811015620011685780820151818401526020810190506200114b565b50505050905090810190601f168015620011965780820380516001836020036101000a031916815260200191505b509250505060405180910390fd5b50620011af6200285a565b620012027ff1f3eb40f5bc1ad1344716ced8b8a0431d840b5783aea1fd01786bc26f35ac0f6001027fe3262375f45a6e2026b7e7b18c2b807434f2508fe1a2a3dfb493c7df8f4aad6a6001028562002991565b62001231307fe3262375f45a6e2026b7e7b18c2b807434f2508fe1a2a3dfb493c7df8f4aad6a600102620022ae565b90508073ffffffffffffffffffffffffffffffffffffffff1663c4d66de8836040518263ffffffff167c0100000000000000000000000000000000000000000000000000000000028152600401808273ffffffffffffffffffffffffffffffffffffffff1673ffffffffffffffffffffffffffffffffffffffff168152602001915050600060405180830381600087803b158015620012cf57600080fd5b505af1158015620012e4573d6000803e3d6000fd5b505050506200133b7fd6f028ca0e8edb4a8c9757ca4fdccab25fa1e0317da1188108f7d2dee14902fb6001027fe3262375f45a6e2026b7e7b18c2b807434f2508fe1a2a3dfb493c7df8f4aad6a6001028362002991565b7f7e852e0fcfce6551c13800f1e7476f982525c2b5277ba14b24339c68416336d160010260018160001916905550505050565b60007fc681a85306374a5ab27f0bbc385296a54bcd314a1948b6cf61c4ea1bc44bb9f8600102905090565b600060019050919050565b60007fb6d92708f3d4817afc106147d969e229ced5c46e65e0a5002a0d391287762bd0600102620013f97ff1f3eb40f5bc1ad1344716ced8b8a0431d840b5783aea1fd01786bc26f35ac0f60010285620026c9565b6060600060208351029050829150808252620014183330868562002494565b6040805190810160405280601281526020017f4b45524e454c5f415554485f4641494c45440000000000000000000000000000815250901515620014fa576040517f08c379a00000000000000000000000000000000000000000000000000000000081526004018080602001828103825283818151815260200191508051906020019080838360005b83811015620014be578082015181840152602081019050620014a1565b50505050905090810190601f168015620014ec5780820380516001836020036101000a031916815260200191505b509250505060405180910390fd5b506200153f878760006040519080825280601f01601f191660200182016040528015620015365781602001602082028038833980820191505090505b50600062000e98565b94505050505092915050565b60015481565b6000620015857febb05b386a8d34882b8711d156f463690983dc47815980fb82aeeff1aa43579e6001026000191662002b63565b905090565b7fb6d92708f3d4817afc106147d969e229ced5c46e65e0a5002a0d391287762bd0600102620015dd7fd6f028ca0e8edb4a8c9757ca4fdccab25fa1e0317da1188108f7d2dee14902fb60010283620026c9565b6060600060208351029050829150808252620015fc3330868562002494565b6040805190810160405280601281526020017f4b45524e454c5f415554485f4641494c45440000000000000000000000000000815250901515620016de576040517f08c379a00000000000000000000000000000000000000000000000000000000081526004018080602001828103825283818151815260200191508051906020019080838360005b83811015620016a257808201518184015260208101905062001685565b50505050905090810190601f168015620016d05780820380516001836020036101000a031916815260200191505b509250505060405180910390fd5b5084600181600019169055505050505050565b7fb6d92708f3d4817afc106147d969e229ced5c46e65e0a5002a0d391287762bd060010281565b60007fb6d92708f3d4817afc106147d969e229ced5c46e65e0a5002a0d391287762bd06001026200176d7ff1f3eb40f5bc1ad1344716ced8b8a0431d840b5783aea1fd01786bc26f35ac0f60010285620026c9565b60606000602083510290508291508082526200178c3330868562002494565b6040805190810160405280601281526020017f4b45524e454c5f415554485f4641494c454400000000000000000000000000008152509015156200186e576040517f08c379a00000000000000000000000000000000000000000000000000000000081526004018080602001828103825283818151815260200191508051906020019080838360005b838110156200183257808201518184015260208101905062001815565b50505050905090810190601f168015620018605780820380516001836020036101000a031916815260200191505b509250505060405180910390fd5b50620018b3878760006040519080825280601f01601f191660200182016040528015620018aa5781602001602082028038833980820191505090505b50600062001eae565b94505050505092915050565b600080620018cd8362001399565b6040805190810160405280601281526020017f5245434f5645525f444953414c4c4f5745440000000000000000000000000000815250901515620019af576040517f08c379a00000000000000000000000000000000000000000000000000000000081526004018080602001828103825283818151815260200191508051906020019080838360005b838110156200197357808201518184015260208101905062001956565b50505050905090810190601f168015620019a15780820380516001836020036101000a031916815260200191505b509250505060405180910390fd5b50620019ba62000e18565b9150620019c78262002b6e565b6040805190810160405280601a81526020017f5245434f5645525f5641554c545f4e4f545f434f4e545241435400000000000081525090151562001aa9576040517f08c379a00000000000000000000000000000000000000000000000000000000081526004018080602001828103825283818151815260200191508051906020019080838360005b8381101562001a6d57808201518184015260208101905062001a50565b50505050905090810190601f16801562001a9b5780820380516001836020036101000a031916815260200191505b509250505060405180910390fd5b50600073ffffffffffffffffffffffffffffffffffffffff168373ffffffffffffffffffffffffffffffffffffffff16141562001b45578173ffffffffffffffffffffffffffffffffffffffff166108fc3073ffffffffffffffffffffffffffffffffffffffff16319081150290604051600060405180830381858888f1935050505015801562001b3e573d6000803e3d6000fd5b5062001d03565b8273ffffffffffffffffffffffffffffffffffffffff166370a08231306040518263ffffffff167c0100000000000000000000000000000000000000000000000000000000028152600401808273ffffffffffffffffffffffffffffffffffffffff1673ffffffffffffffffffffffffffffffffffffffff168152602001915050602060405180830381600087803b15801562001be157600080fd5b505af115801562001bf6573d6000803e3d6000fd5b505050506040513d602081101562001c0d57600080fd5b810190808051906020019092919050505090508273ffffffffffffffffffffffffffffffffffffffff1663a9059cbb83836040518363ffffffff167c0100000000000000000000000000000000000000000000000000000000028152600401808373ffffffffffffffffffffffffffffffffffffffff1673ffffffffffffffffffffffffffffffffffffffff16815260200182815260200192505050602060405180830381600087803b15801562001cc457600080fd5b505af115801562001cd9573d6000803e3d6000fd5b505050506040513d602081101562001cf057600080fd5b8101908080519060200190929190505050505b505050565b7fb6d92708f3d4817afc106147d969e229ced5c46e65e0a5002a0d391287762bd060010262001d388484620026c9565b606060006020835102905082915080825262001d573330868562002494565b6040805190810160405280601281526020017f4b45524e454c5f415554485f4641494c4544000000000000000000000000000081525090151562001e39576040517f08c379a00000000000000000000000000000000000000000000000000000000081526004018080602001828103825283818151815260200191508051906020019080838360005b8381101562001dfd57808201518184015260208101905062001de0565b50505050905090810190601f16801562001e2b5780820380516001836020036101000a031916815260200191505b509250505060405180910390fd5b5062001e4787878762002991565b50505050505050565b600080600084600019166000191681526020019081526020016000206000836000191660001916815260200190815260200160002060009054906101000a900473ffffffffffffffffffffffffffffffffffffffff16905092915050565b60007fb6d92708f3d4817afc106147d969e229ced5c46e65e0a5002a0d391287762bd060010262001f037ff1f3eb40f5bc1ad1344716ced8b8a0431d840b5783aea1fd01786bc26f35ac0f60010287620026c9565b606060006020835102905082915080825262001f223330868562002494565b6040805190810160405280601281526020017f4b45524e454c5f415554485f4641494c4544000000000000000000000000000081525090151562002004576040517f08c379a00000000000000000000000000000000000000000000000000000000081526004018080602001828103825283818151815260200191508051906020019080838360005b8381101562001fc857808201518184015260208101905062001fab565b50505050905090810190601f16801562001ff65780820380516001836020036101000a031916815260200191505b509250505060405180910390fd5b50620020357ff1f3eb40f5bc1ad1344716ced8b8a0431d840b5783aea1fd01786bc26f35ac0f6001028a8a620026e7565b62002042308a8962002088565b945085156200207c576200207b7fd6f028ca0e8edb4a8c9757ca4fdccab25fa1e0317da1188108f7d2dee14902fb6001028a8762001d08565b5b50505050949350505050565b6000808484846200209862002c43565b808473ffffffffffffffffffffffffffffffffffffffff1673ffffffffffffffffffffffffffffffffffffffff168152602001836000191660001916815260200180602001828103825283818151815260200191508051906020019080838360005b8381101562002117578082015181840152602081019050620020fa565b50505050905090810190601f168015620021455780820380516001836020036101000a031916815260200191505b50945050505050604051809103906000f08015801562002169573d6000803e3d6000fd5b5090507fd880e726dced8808d727f02dd0e6fdd3a945b24bfee77e13367bcbe61ddbaf4781600086604051808473ffffffffffffffffffffffffffffffffffffffff1673ffffffffffffffffffffffffffffffffffffffff168152602001831515151581526020018260001916600019168152602001935050505060405180910390a1809150509392505050565b60007ff1f3eb40f5bc1ad1344716ced8b8a0431d840b5783aea1fd01786bc26f35ac0f600102905090565b6000620022767fd6f028ca0e8edb4a8c9757ca4fdccab25fa1e0317da1188108f7d2dee14902fb6001027fe3262375f45a6e2026b7e7b18c2b807434f2508fe1a2a3dfb493c7df8f4aad6a60010262001e50565b905090565b60007fffffffffffffffffffffffffffffffffffffffffffffffffffffffffffffffff620022a862001551565b14905090565b6000620022f2838360006040519080825280601f01601f191660200182016040528015620022eb5781602001602082028038833980820191505090505b5062002325565b905092915050565b60007fe3262375f45a6e2026b7e7b18c2b807434f2508fe1a2a3dfb493c7df8f4aad6a600102905090565b6000808484846200233562002c54565b808473ffffffffffffffffffffffffffffffffffffffff1673ffffffffffffffffffffffffffffffffffffffff168152602001836000191660001916815260200180602001828103825283818151815260200191508051906020019080838360005b83811015620023b457808201518184015260208101905062002397565b50505050905090810190601f168015620023e25780820380516001836020036101000a031916815260200191505b50945050505050604051809103906000f08015801562002406573d6000803e3d6000fd5b5090507fd880e726dced8808d727f02dd0e6fdd3a945b24bfee77e13367bcbe61ddbaf4781600186604051808473ffffffffffffffffffffffffffffffffffffffff1673ffffffffffffffffffffffffffffffffffffffff168152602001831515151581526020018260001916600019168152602001935050505060405180910390a1809150509392505050565b600080620024a162002222565b9050600073ffffffffffffffffffffffffffffffffffffffff168173ffffffffffffffffffffffffffffffffffffffff16141580156200266a57508073ffffffffffffffffffffffffffffffffffffffff1663fdef9106878787876040518563ffffffff167c0100000000000000000000000000000000000000000000000000000000028152600401808573ffffffffffffffffffffffffffffffffffffffff1673ffffffffffffffffffffffffffffffffffffffff1681526020018473ffffffffffffffffffffffffffffffffffffffff1673ffffffffffffffffffffffffffffffffffffffff168152602001836000191660001916815260200180602001828103825283818151815260200191508051906020019080838360005b83811015620025db578082015181840152602081019050620025be565b50505050905090810190601f168015620026095780820380516001836020036101000a031916815260200191505b5095505050505050602060405180830381600087803b1580156200262c57600080fd5b505af115801562002641573d6000803e3d6000fd5b505050506040513d60208110156200265857600080fd5b81019080805190602001909291905050505b915050949350505050565b6000620026b9838360006040519080825280601f01601f191660200182016040528015620026b25781602001602082028038833980820191505090505b5062002088565b905092915050565b600043905090565b6060620026df8360019004836001900462002bc2565b905092915050565b6000620026f5848462001e50565b9050600073ffffffffffffffffffffffffffffffffffffffff168173ffffffffffffffffffffffffffffffffffffffff1614151562002846578173ffffffffffffffffffffffffffffffffffffffff168173ffffffffffffffffffffffffffffffffffffffff16146040805190810160405280601981526020017f4b45524e454c5f494e56414c49445f4150505f4348414e4745000000000000008152509015156200283f576040517f08c379a00000000000000000000000000000000000000000000000000000000081526004018080602001828103825283818151815260200191508051906020019080838360005b8381101562002803578082015181840152602081019050620027e6565b50505050905090810190601f168015620028315780820380516001836020036101000a031916815260200191505b509250505060405180910390fd5b5062002854565b6200285384848462002991565b5b50505050565b60006200286662001551565b146040805190810160405280601881526020017f494e49545f414c52454144595f494e495449414c495a4544000000000000000081525090151562002949576040517f08c379a00000000000000000000000000000000000000000000000000000000081526004018080602001828103825283818151815260200191508051906020019080838360005b838110156200290d578082015181840152602081019050620028f0565b50505050905090810190601f1680156200293b5780820380516001836020036101000a031916815260200191505b509250505060405180910390fd5b506200298f62002958620026c1565b7febb05b386a8d34882b8711d156f463690983dc47815980fb82aeeff1aa43579e6001026000191662002c3c90919063ffffffff16565b565b6200299c8162002b6e565b6040805190810160405280601781526020017f4b45524e454c5f4150505f4e4f545f434f4e545241435400000000000000000081525090151562002a7e576040517f08c379a00000000000000000000000000000000000000000000000000000000081526004018080602001828103825283818151815260200191508051906020019080838360005b8381101562002a4257808201518184015260208101905062002a25565b50505050905090810190601f16801562002a705780820380516001836020036101000a031916815260200191505b509250505060405180910390fd5b508060008085600019166000191681526020019081526020016000206000846000191660001916815260200190815260200160002060006101000a81548173ffffffffffffffffffffffffffffffffffffffff021916908373ffffffffffffffffffffffffffffffffffffffff160217905550816000191683600019167f2ec1ae0a449b7ae354b9dacfb3ade6b6332ba26b7fcbb935835fa39dd7263b2383604051808273ffffffffffffffffffffffffffffffffffffffff1673ffffffffffffffffffffffffffffffffffffffff16815260200191505060405180910390a3505050565b600081549050919050565b600080600073ffffffffffffffffffffffffffffffffffffffff168373ffffffffffffffffffffffffffffffffffffffff16141562002bb1576000915062002bbc565b823b90506000811191505b50919050565b6060600260405190808252806020026020018201604052801562002bf55781602001602082028038833980820191505090505b5090508281600081518110151562002c0957fe5b90602001906020020181815250508181600181518110151562002c2857fe5b906020019060200201818152505092915050565b8082555050565b60405161093c8062002c6683390190565b60405161090680620035a2833901905600608060405234801561001057600080fd5b5060405161093c38038061093c8339810180604052810190808051906020019092919080519060200190929190805182019291905050508282826000610064846101c8640100000000026401000000009004565b61007c83610212640100000000026401000000009004565b6100948361025c640100000000026401000000009004565b9050600082511115610154576100b881610360640100000000026401000000009004565b15156100c357600080fd5b8073ffffffffffffffffffffffffffffffffffffffff168260405180828051906020019080838360005b838110156101085780820151818401526020810190506100ed565b50505050905090810190601f1680156101355780820380516001836020036101000a031916815260200191505b50915050600060405180830381855af4915050151561015357600080fd5b5b505050506101876101738361025c640100000000026401000000009004565b6103b2640100000000026401000000009004565b6101b56101a16103fc640100000000026401000000009004565b610360640100000000026401000000009004565b15156101c057600080fd5b5050506104a9565b61020f817f4172f0f7d2289153072b0a6ca36959e0cbe2efc3afe50fc81636caa96338137b600102600019166104466401000000000261044a179091906401000000009004565b50565b610259817fd625496217aa6a3453eecb9c3489dc5a53e6c67b444329ea2b2cbc9ff547639b6001026000191661044d64010000000002610451179091906401000000009004565b50565b6000610275610454640100000000026401000000009004565b73ffffffffffffffffffffffffffffffffffffffff1663be00bbd87ff1f3eb40f5bc1ad1344716ced8b8a0431d840b5783aea1fd01786bc26f35ac0f600102846040518363ffffffff167c0100000000000000000000000000000000000000000000000000000000028152600401808360001916600019168152602001826000191660001916815260200192505050602060405180830381600087803b15801561031e57600080fd5b505af1158015610332573d6000803e3d6000fd5b505050506040513d602081101561034857600080fd5b81019080805190602001909291905050509050919050565b600080600073ffffffffffffffffffffffffffffffffffffffff168373ffffffffffffffffffffffffffffffffffffffff1614156103a157600091506103ac565b823b90506000811191505b50919050565b6103f9817fdee64df20d65e53d7f51cb6ab6d921a0a6a638a91e942e1d8d02df28e31c038e600102600019166104466401000000000261044a179091906401000000009004565b50565b60006104417fdee64df20d65e53d7f51cb6ab6d921a0a6a638a91e942e1d8d02df28e31c038e6001026000191661049e6401000000000261043f176401000000009004565b905090565b8082555050565b8082555050565b60006104997f4172f0f7d2289153072b0a6ca36959e0cbe2efc3afe50fc81636caa96338137b6001026000191661049e6401000000000261043f176401000000009004565b905090565b600081549050919050565b610484806104b86000396000f30060806040526004361061006d576000357c0100000000000000000000000000000000000000000000000000000000900463ffffffff1680634555d5c91461016557806348a0c8dd146101905780635c60da1b146101bf57806380afdea814610216578063d4aae0c414610249575b60006127105a101561011a5760003411801561008c5750600080369050145b151561009757600080fd5b61009f6102a0565b15156100aa57600080fd5b7f15eeaa57c7bd188c1388020bcadc2c436ec60d647d36ef5b9eb3c742217ddee13334604051808373ffffffffffffffffffffffffffffffffffffffff1673ffffffffffffffffffffffffffffffffffffffff1681526020018281526020019250505060405180910390a1610162565b6101226102d7565b9050610161816000368080601f0160208091040260200160405190810160405280939291908181526020018383808284378201915050505050506102e6565b5b50005b34801561017157600080fd5b5061017a610329565b6040518082815260200191505060405180910390f35b34801561019c57600080fd5b506101a56102a0565b604051808215151515815260200191505060405180910390f35b3480156101cb57600080fd5b506101d46102d7565b604051808273ffffffffffffffffffffffffffffffffffffffff1673ffffffffffffffffffffffffffffffffffffffff16815260200191505060405180910390f35b34801561022257600080fd5b5061022b610332565b60405180826000191660001916815260200191505060405180910390f35b34801561025557600080fd5b5061025e610369565b604051808273ffffffffffffffffffffffffffffffffffffffff1673ffffffffffffffffffffffffffffffffffffffff16815260200191505060405180910390f35b60006102d27f665fd576fbbe6f247aff98f5c94a561e3f71ec2d3c988d56f12d342396c50cea600102600019166103a0565b905090565b60006102e16103ab565b905090565b60006102f1836103e2565b15156102fc57600080fd5b612710905060008083516020850186855a03f43d604051816000823e8260008114610325578282f35b8282fd5b60006001905090565b60006103647fd625496217aa6a3453eecb9c3489dc5a53e6c67b444329ea2b2cbc9ff547639b60010260001916610434565b905090565b600061039b7f4172f0f7d2289153072b0a6ca36959e0cbe2efc3afe50fc81636caa96338137b6001026000191661043f565b905090565b600081549050919050565b60006103dd7fdee64df20d65e53d7f51cb6ab6d921a0a6a638a91e942e1d8d02df28e31c038e6001026000191661043f565b905090565b600080600073ffffffffffffffffffffffffffffffffffffffff168373ffffffffffffffffffffffffffffffffffffffff161415610423576000915061042e565b823b90506000811191505b50919050565b600081549050919050565b600081549050919050565b8082555050565b80825550505600a165627a7a7230582010f36a3c5f0fa27d94b088de61050afc2943eceed187bea1b666d82da9504ae30029608060405234801561001057600080fd5b50604051610906380380610906833981018060405281019080805190602001909291908051906020019092919080518201929190505050828282600061006484610160640100000000026401000000009004565b61007c836101aa640100000000026401000000009004565b610094836101f4640100000000026401000000009004565b9050600082511115610154576100b8816102f8640100000000026401000000009004565b15156100c357600080fd5b8073ffffffffffffffffffffffffffffffffffffffff168260405180828051906020019080838360005b838110156101085780820151818401526020810190506100ed565b50505050905090810190601f1680156101355780820380516001836020036101000a031916815260200191505b50915050600060405180830381855af4915050151561015357600080fd5b5b505050505050506103ad565b6101a7817f4172f0f7d2289153072b0a6ca36959e0cbe2efc3afe50fc81636caa96338137b6001026000191661034a64010000000002610510179091906401000000009004565b50565b6101f1817fd625496217aa6a3453eecb9c3489dc5a53e6c67b444329ea2b2cbc9ff547639b6001026000191661035164010000000002610517179091906401000000009004565b50565b600061020d610358640100000000026401000000009004565b73ffffffffffffffffffffffffffffffffffffffff1663be00bbd87ff1f3eb40f5bc1ad1344716ced8b8a0431d840b5783aea1fd01786bc26f35ac0f600102846040518363ffffffff167c0100000000000000000000000000000000000000000000000000000000028152600401808360001916600019168152602001826000191660001916815260200192505050602060405180830381600087803b1580156102b657600080fd5b505af11580156102ca573d6000803e3d6000fd5b505050506040513d60208110156102e057600080fd5b81019080805190602001909291905050509050919050565b600080600073ffffffffffffffffffffffffffffffffffffffff168373ffffffffffffffffffffffffffffffffffffffff1614156103395760009150610344565b823b90506000811191505b50919050565b8082555050565b8082555050565b600061039d7f4172f0f7d2289153072b0a6ca36959e0cbe2efc3afe50fc81636caa96338137b600102600019166103a264010000000002610505176401000000009004565b905090565b600081549050919050565b61054a806103bc6000396000f30060806040526004361061006d576000357c0100000000000000000000000000000000000000000000000000000000900463ffffffff1680634555d5c91461016557806348a0c8dd146101905780635c60da1b146101bf57806380afdea814610216578063d4aae0c414610249575b60006127105a101561011a5760003411801561008c5750600080369050145b151561009757600080fd5b61009f6102a0565b15156100aa57600080fd5b7f15eeaa57c7bd188c1388020bcadc2c436ec60d647d36ef5b9eb3c742217ddee13334604051808373ffffffffffffffffffffffffffffffffffffffff1673ffffffffffffffffffffffffffffffffffffffff1681526020018281526020019250505060405180910390a1610162565b6101226102d7565b9050610161816000368080601f0160208091040260200160405190810160405280939291908181526020018383808284378201915050505050506102ee565b5b50005b34801561017157600080fd5b5061017a610331565b6040518082815260200191505060405180910390f35b34801561019c57600080fd5b506101a56102a0565b604051808215151515815260200191505060405180910390f35b3480156101cb57600080fd5b506101d46102d7565b604051808273ffffffffffffffffffffffffffffffffffffffff1673ffffffffffffffffffffffffffffffffffffffff16815260200191505060405180910390f35b34801561022257600080fd5b5061022b61033a565b60405180826000191660001916815260200191505060405180910390f35b34801561025557600080fd5b5061025e610371565b604051808273ffffffffffffffffffffffffffffffffffffffff1673ffffffffffffffffffffffffffffffffffffffff16815260200191505060405180910390f35b60006102d27f665fd576fbbe6f247aff98f5c94a561e3f71ec2d3c988d56f12d342396c50cea600102600019166103a8565b905090565b60006102e96102e461033a565b6103b3565b905090565b60006102f9836104a8565b151561030457600080fd5b612710905060008083516020850186855a03f43d604051816000823e826000811461032d578282f35b8282fd5b60006002905090565b600061036c7fd625496217aa6a3453eecb9c3489dc5a53e6c67b444329ea2b2cbc9ff547639b600102600019166104fa565b905090565b60006103a37f4172f0f7d2289153072b0a6ca36959e0cbe2efc3afe50fc81636caa96338137b60010260001916610505565b905090565b600081549050919050565b60006103bd610371565b73ffffffffffffffffffffffffffffffffffffffff1663be00bbd87ff1f3eb40f5bc1ad1344716ced8b8a0431d840b5783aea1fd01786bc26f35ac0f600102846040518363ffffffff167c0100000000000000000000000000000000000000000000000000000000028152600401808360001916600019168152602001826000191660001916815260200192505050602060405180830381600087803b15801561046657600080fd5b505af115801561047a573d6000803e3d6000fd5b505050506040513d602081101561049057600080fd5b81019080805190602001909291905050509050919050565b600080600073ffffffffffffffffffffffffffffffffffffffff168373ffffffffffffffffffffffffffffffffffffffff1614156104e957600091506104f4565b823b90506000811191505b50919050565b600081549050919050565b600081549050919050565b8082555050565b80825550505600a165627a7a72305820f1912f3338ba4aa4b1b5044dfef799d354879c210a66c163d99db9ce60be509e0029a165627a7a723058207f7f4b9688d77eb8f3a4905d591fdf4ea783e7d365ee78cafc3df59ce33ea63b0029",
  "source": "pragma solidity 0.4.24;\n\nimport \"./IKernel.sol\";\nimport \"./KernelConstants.sol\";\nimport \"./KernelStorage.sol\";\nimport \"../acl/IACL.sol\";\nimport \"../acl/ACLSyntaxSugar.sol\";\nimport \"../lib/misc/ERCProxy.sol\";\nimport \"../common/IsContract.sol\";\nimport \"../common/Petrifiable.sol\";\nimport \"../common/VaultRecoverable.sol\";\nimport \"../factory/AppProxyFactory.sol\";\n\n\n// solium-disable-next-line max-len\ncontract Kernel is IKernel, KernelStorage, KernelAppIds, KernelNamespaceConstants, Petrifiable, IsContract, VaultRecoverable, AppProxyFactory, ACLSyntaxSugar {\n    /* Hardcoded constants to save gas\n    bytes32 public constant APP_MANAGER_ROLE = keccak256(\"APP_MANAGER_ROLE\");\n    */\n    bytes32 public constant APP_MANAGER_ROLE = 0xb6d92708f3d4817afc106147d969e229ced5c46e65e0a5002a0d391287762bd0;\n\n    string private constant ERROR_APP_NOT_CONTRACT = \"KERNEL_APP_NOT_CONTRACT\";\n    string private constant ERROR_INVALID_APP_CHANGE = \"KERNEL_INVALID_APP_CHANGE\";\n    string private constant ERROR_AUTH_FAILED = \"KERNEL_AUTH_FAILED\";\n\n    /**\n    * @dev Constructor that allows the deployer to choose if the base instance should be petrified immediately.\n    * @param _shouldPetrify Immediately petrify this instance so that it can never be initialized\n    */\n    constructor(bool _shouldPetrify) public {\n        if (_shouldPetrify) {\n            petrify();\n        }\n    }\n\n    /**\n    * @dev Initialize can only be called once. It saves the block number in which it was initialized.\n    * @notice Initializes a kernel instance along with its ACL and sets `_permissionsCreator` as the entity that can create other permissions\n    * @param _baseAcl Address of base ACL app\n    * @param _permissionsCreator Entity that will be given permission over createPermission\n    */\n    function initialize(IACL _baseAcl, address _permissionsCreator) public onlyInit {\n        initialized();\n\n        // Set ACL base\n        _setApp(KERNEL_APP_BASES_NAMESPACE, KERNEL_DEFAULT_ACL_APP_ID, _baseAcl);\n\n        // Create ACL instance and attach it as the default ACL app\n        IACL acl = IACL(newAppProxy(this, KERNEL_DEFAULT_ACL_APP_ID));\n        acl.initialize(_permissionsCreator);\n        _setApp(KERNEL_APP_ADDR_NAMESPACE, KERNEL_DEFAULT_ACL_APP_ID, acl);\n\n        recoveryVaultAppId = KERNEL_DEFAULT_VAULT_APP_ID;\n    }\n\n    /**\n    * @dev Create a new instance of an app linked to this kernel\n    * @notice Create a new upgradeable instance of `_appId` app linked to the Kernel, setting its code to `_appBase`\n    * @param _appId Identifier for app\n    * @param _appBase Address of the app's base implementation\n    * @return AppProxy instance\n    */\n    function newAppInstance(bytes32 _appId, address _appBase)\n        public\n        auth(APP_MANAGER_ROLE, arr(KERNEL_APP_BASES_NAMESPACE, _appId))\n        returns (ERCProxy appProxy)\n    {\n        return newAppInstance(_appId, _appBase, new bytes(0), false);\n    }\n\n    /**\n    * @dev Create a new instance of an app linked to this kernel and set its base\n    *      implementation if it was not already set\n    * @notice Create a new upgradeable instance of `_appId` app linked to the Kernel, setting its code to `_appBase`. `_setDefault ? 'Also sets it as the default app instance.':''`\n    * @param _appId Identifier for app\n    * @param _appBase Address of the app's base implementation\n    * @param _initializePayload Payload for call made by the proxy during its construction to initialize\n    * @param _setDefault Whether the app proxy app is the default one.\n    *        Useful when the Kernel needs to know of an instance of a particular app,\n    *        like Vault for escape hatch mechanism.\n    * @return AppProxy instance\n    */\n    function newAppInstance(bytes32 _appId, address _appBase, bytes _initializePayload, bool _setDefault)\n        public\n        auth(APP_MANAGER_ROLE, arr(KERNEL_APP_BASES_NAMESPACE, _appId))\n        returns (ERCProxy appProxy)\n    {\n        _setAppIfNew(KERNEL_APP_BASES_NAMESPACE, _appId, _appBase);\n        appProxy = newAppProxy(this, _appId, _initializePayload);\n        // By calling setApp directly and not the internal functions, we make sure the params are checked\n        // and it will only succeed if sender has permissions to set something to the namespace.\n        if (_setDefault) {\n            setApp(KERNEL_APP_ADDR_NAMESPACE, _appId, appProxy);\n        }\n    }\n\n    /**\n    * @dev Create a new pinned instance of an app linked to this kernel\n    * @notice Create a new non-upgradeable instance of `_appId` app linked to the Kernel, setting its code to `_appBase`.\n    * @param _appId Identifier for app\n    * @param _appBase Address of the app's base implementation\n    * @return AppProxy instance\n    */\n    function newPinnedAppInstance(bytes32 _appId, address _appBase)\n        public\n        auth(APP_MANAGER_ROLE, arr(KERNEL_APP_BASES_NAMESPACE, _appId))\n        returns (ERCProxy appProxy)\n    {\n        return newPinnedAppInstance(_appId, _appBase, new bytes(0), false);\n    }\n\n    /**\n    * @dev Create a new pinned instance of an app linked to this kernel and set\n    *      its base implementation if it was not already set\n    * @notice Create a new non-upgradeable instance of `_appId` app linked to the Kernel, setting its code to `_appBase`. `_setDefault ? 'Also sets it as the default app instance.':''`\n    * @param _appId Identifier for app\n    * @param _appBase Address of the app's base implementation\n    * @param _initializePayload Payload for call made by the proxy during its construction to initialize\n    * @param _setDefault Whether the app proxy app is the default one.\n    *        Useful when the Kernel needs to know of an instance of a particular app,\n    *        like Vault for escape hatch mechanism.\n    * @return AppProxy instance\n    */\n    function newPinnedAppInstance(bytes32 _appId, address _appBase, bytes _initializePayload, bool _setDefault)\n        public\n        auth(APP_MANAGER_ROLE, arr(KERNEL_APP_BASES_NAMESPACE, _appId))\n        returns (ERCProxy appProxy)\n    {\n        _setAppIfNew(KERNEL_APP_BASES_NAMESPACE, _appId, _appBase);\n        appProxy = newAppProxyPinned(this, _appId, _initializePayload);\n        // By calling setApp directly and not the internal functions, we make sure the params are checked\n        // and it will only succeed if sender has permissions to set something to the namespace.\n        if (_setDefault) {\n            setApp(KERNEL_APP_ADDR_NAMESPACE, _appId, appProxy);\n        }\n    }\n\n    /**\n    * @dev Set the resolving address of an app instance or base implementation\n    * @notice Set the resolving address of `_appId` in namespace `_namespace` to `_app`\n    * @param _namespace App namespace to use\n    * @param _appId Identifier for app\n    * @param _app Address of the app instance or base implementation\n    * @return ID of app\n    */\n    function setApp(bytes32 _namespace, bytes32 _appId, address _app)\n        public\n        auth(APP_MANAGER_ROLE, arr(_namespace, _appId))\n    {\n        _setApp(_namespace, _appId, _app);\n    }\n\n    /**\n    * @dev Set the default vault id for the escape hatch mechanism\n    * @param _recoveryVaultAppId Identifier of the recovery vault app\n    */\n    function setRecoveryVaultAppId(bytes32 _recoveryVaultAppId)\n        public\n        auth(APP_MANAGER_ROLE, arr(KERNEL_APP_ADDR_NAMESPACE, _recoveryVaultAppId))\n    {\n        recoveryVaultAppId = _recoveryVaultAppId;\n    }\n\n    // External access to default app id and namespace constants to mimic default getters for constants\n    /* solium-disable function-order, mixedcase */\n    function CORE_NAMESPACE() external pure returns (bytes32) { return KERNEL_CORE_NAMESPACE; }\n    function APP_BASES_NAMESPACE() external pure returns (bytes32) { return KERNEL_APP_BASES_NAMESPACE; }\n    function APP_ADDR_NAMESPACE() external pure returns (bytes32) { return KERNEL_APP_ADDR_NAMESPACE; }\n    function KERNEL_APP_ID() external pure returns (bytes32) { return KERNEL_CORE_APP_ID; }\n    function DEFAULT_ACL_APP_ID() external pure returns (bytes32) { return KERNEL_DEFAULT_ACL_APP_ID; }\n    /* solium-enable function-order, mixedcase */\n\n    /**\n    * @dev Get the address of an app instance or base implementation\n    * @param _namespace App namespace to use\n    * @param _appId Identifier for app\n    * @return Address of the app\n    */\n    function getApp(bytes32 _namespace, bytes32 _appId) public view returns (address) {\n        return apps[_namespace][_appId];\n    }\n\n    /**\n    * @dev Get the address of the recovery Vault instance (to recover funds)\n    * @return Address of the Vault\n    */\n    function getRecoveryVault() public view returns (address) {\n        return apps[KERNEL_APP_ADDR_NAMESPACE][recoveryVaultAppId];\n    }\n\n    /**\n    * @dev Get the installed ACL app\n    * @return ACL app\n    */\n    function acl() public view returns (IACL) {\n        return IACL(getApp(KERNEL_APP_ADDR_NAMESPACE, KERNEL_DEFAULT_ACL_APP_ID));\n    }\n\n    /**\n    * @dev Function called by apps to check ACL on kernel or to check permission status\n    * @param _who Sender of the original call\n    * @param _where Address of the app\n    * @param _what Identifier for a group of actions in app\n    * @param _how Extra data for ACL auth\n    * @return Boolean indicating whether the ACL allows the role or not.\n    *         Always returns false if the kernel hasn't been initialized yet.\n    */\n    function hasPermission(address _who, address _where, bytes32 _what, bytes _how) public view returns (bool) {\n        IACL defaultAcl = acl();\n        return address(defaultAcl) != address(0) && // Poor man's initialization check (saves gas)\n            defaultAcl.hasPermission(_who, _where, _what, _how);\n    }\n\n    function _setApp(bytes32 _namespace, bytes32 _appId, address _app) internal {\n        require(isContract(_app), ERROR_APP_NOT_CONTRACT);\n        apps[_namespace][_appId] = _app;\n        emit SetApp(_namespace, _appId, _app);\n    }\n\n    function _setAppIfNew(bytes32 _namespace, bytes32 _appId, address _app) internal {\n        address app = getApp(_namespace, _appId);\n        if (app != address(0)) {\n            // The only way to set an app is if it passes the isContract check, so no need to check it again\n            require(app == _app, ERROR_INVALID_APP_CHANGE);\n        } else {\n            _setApp(_namespace, _appId, _app);\n        }\n    }\n\n    modifier auth(bytes32 _role, uint256[] memory params) {\n        // Force cast the uint256[] into a bytes array, by overwriting its length\n        // Note that the bytes array doesn't need to be initialized as we immediately overwrite it\n        // with params and a new length, and params becomes invalid from this point forward\n        bytes memory how;\n        uint256 byteLength = params.length * 32;\n        assembly {\n            how := params\n            mstore(how, byteLength)\n        }\n\n        require(hasPermission(msg.sender, address(this), _role, how), ERROR_AUTH_FAILED);\n        _;\n    }\n}\n",
  "sourcePath": "@aragon/os/contracts/kernel/Kernel.sol",
  "compiler": {
    "name": "solc",
    "version": "0.4.24+commit.e67f0147.Emscripten.clang"
  },
  "schemaVersion": "3.0.0-beta.2",
  "updatedAt": "2018-12-05T14:05:19.555Z",
  "devdoc": {
    "methods": {
      "acl()": {
        "details": "Get the installed ACL app",
        "return": "ACL app"
      },
      "allowRecoverability(address)": {
        "details": "By default deriving from AragonApp makes it recoverable",
        "params": {
          "token": "Token address that would be recovered"
        },
        "return": "bool whether the app allows the recovery"
      },
      "getApp(bytes32,bytes32)": {
        "details": "Get the address of an app instance or base implementation",
        "params": {
          "_appId": "Identifier for app",
          "_namespace": "App namespace to use"
        },
        "return": "Address of the app"
      },
      "getInitializationBlock()": {
        "return": "Block number in which the contract was initialized"
      },
      "getRecoveryVault()": {
        "details": "Get the address of the recovery Vault instance (to recover funds)",
        "return": "Address of the Vault"
      },
      "hasInitialized()": {
        "return": "Whether the contract has been initialized by the time of the current block"
      },
      "hasPermission(address,address,bytes32,bytes)": {
        "details": "Function called by apps to check ACL on kernel or to check permission status",
        "params": {
          "_how": "Extra data for ACL auth",
          "_what": "Identifier for a group of actions in app",
          "_where": "Address of the app",
          "_who": "Sender of the original call"
        },
        "return": "Boolean indicating whether the ACL allows the role or not.        Always returns false if the kernel hasn't been initialized yet."
      },
      "initialize(address,address)": {
        "details": "Initialize can only be called once. It saves the block number in which it was initialized.",
        "params": {
          "_baseAcl": "Address of base ACL app",
          "_permissionsCreator": "Entity that will be given permission over createPermission"
        }
      },
      "newAppInstance(bytes32,address)": {
        "details": "Create a new instance of an app linked to this kernel",
        "params": {
          "_appBase": "Address of the app's base implementation",
          "_appId": "Identifier for app"
        },
        "return": "AppProxy instance"
      },
      "newAppInstance(bytes32,address,bytes,bool)": {
        "details": "Create a new instance of an app linked to this kernel and set its base     implementation if it was not already set",
        "params": {
          "_appBase": "Address of the app's base implementation",
          "_appId": "Identifier for app",
          "_initializePayload": "Payload for call made by the proxy during its construction to initialize",
          "_setDefault": "Whether the app proxy app is the default one.       Useful when the Kernel needs to know of an instance of a particular app,       like Vault for escape hatch mechanism."
        },
        "return": "AppProxy instance"
      },
      "newPinnedAppInstance(bytes32,address)": {
        "details": "Create a new pinned instance of an app linked to this kernel",
        "params": {
          "_appBase": "Address of the app's base implementation",
          "_appId": "Identifier for app"
        },
        "return": "AppProxy instance"
      },
      "newPinnedAppInstance(bytes32,address,bytes,bool)": {
        "details": "Create a new pinned instance of an app linked to this kernel and set     its base implementation if it was not already set",
        "params": {
          "_appBase": "Address of the app's base implementation",
          "_appId": "Identifier for app",
          "_initializePayload": "Payload for call made by the proxy during its construction to initialize",
          "_setDefault": "Whether the app proxy app is the default one.       Useful when the Kernel needs to know of an instance of a particular app,       like Vault for escape hatch mechanism."
        },
        "return": "AppProxy instance"
      },
      "setApp(bytes32,bytes32,address)": {
        "details": "Set the resolving address of an app instance or base implementation",
        "params": {
          "_app": "Address of the app instance or base implementation",
          "_appId": "Identifier for app",
          "_namespace": "App namespace to use"
        },
        "return": "ID of app"
      },
      "setRecoveryVaultAppId(bytes32)": {
        "details": "Set the default vault id for the escape hatch mechanism",
        "params": {
          "_recoveryVaultAppId": "Identifier of the recovery vault app"
        }
      },
      "transferToVault(address)": {
        "params": {
          "_token": "Token balance to be sent to recovery vault."
        }
      }
    }
  },
  "userdoc": {
    "methods": {
      "initialize(address,address)": {
        "notice": "Initializes a kernel instance along with its ACL and sets `_permissionsCreator` as the entity that can create other permissions"
      },
      "newAppInstance(bytes32,address)": {
        "notice": "Create a new upgradeable instance of `_appId` app linked to the Kernel, setting its code to `_appBase`"
      },
      "newAppInstance(bytes32,address,bytes,bool)": {
        "notice": "Create a new upgradeable instance of `_appId` app linked to the Kernel, setting its code to `_appBase`. `_setDefault ? 'Also sets it as the default app instance.':''`"
      },
      "newPinnedAppInstance(bytes32,address)": {
        "notice": "Create a new non-upgradeable instance of `_appId` app linked to the Kernel, setting its code to `_appBase`."
      },
      "newPinnedAppInstance(bytes32,address,bytes,bool)": {
        "notice": "Create a new non-upgradeable instance of `_appId` app linked to the Kernel, setting its code to `_appBase`. `_setDefault ? 'Also sets it as the default app instance.':''`"
      },
      "setApp(bytes32,bytes32,address)": {
        "notice": "Set the resolving address of `_appId` in namespace `_namespace` to `_app`"
      },
      "transferToVault(address)": {
        "notice": "Send funds to recovery Vault. This contract should never receive funds,        but in case it does, this function allows one to recover them."
      }
    }
  }
}