{
  "contractName": "Organism",
  "abi": [
    {
      "constant": true,
      "inputs": [],
      "name": "hasInitialized",
      "outputs": [
        {
          "name": "",
          "type": "bool"
        }
      ],
      "payable": false,
      "stateMutability": "view",
      "type": "function"
    },
    {
      "constant": true,
      "inputs": [],
      "name": "REJECT_RFL_ROLE",
      "outputs": [
        {
          "name": "",
          "type": "bytes32"
        }
      ],
      "payable": false,
      "stateMutability": "view",
      "type": "function"
    },
    {
      "constant": true,
      "inputs": [],
      "name": "RFLsLength",
      "outputs": [
        {
          "name": "",
          "type": "uint256"
        }
      ],
      "payable": false,
      "stateMutability": "view",
      "type": "function"
    },
    {
      "constant": true,
      "inputs": [
        {
          "name": "_script",
          "type": "bytes"
        }
      ],
      "name": "getEVMScriptExecutor",
      "outputs": [
        {
          "name": "",
          "type": "address"
        }
      ],
      "payable": false,
      "stateMutability": "view",
      "type": "function"
    },
    {
      "constant": true,
      "inputs": [],
      "name": "CREATE_RFI_ROLE",
      "outputs": [
        {
          "name": "",
          "type": "bytes32"
        }
      ],
      "payable": false,
      "stateMutability": "view",
      "type": "function"
    },
    {
      "constant": true,
      "inputs": [],
      "name": "MERGE_RFI_ROLE",
      "outputs": [
        {
          "name": "",
          "type": "bytes32"
        }
      ],
      "payable": false,
      "stateMutability": "view",
      "type": "function"
    },
    {
      "constant": true,
      "inputs": [],
      "name": "getRecoveryVault",
      "outputs": [
        {
          "name": "",
          "type": "address"
        }
      ],
      "payable": false,
      "stateMutability": "view",
      "type": "function"
    },
    {
      "constant": true,
      "inputs": [],
      "name": "pando",
      "outputs": [
        {
          "name": "",
          "type": "address"
        }
      ],
      "payable": false,
      "stateMutability": "view",
      "type": "function"
    },
    {
      "constant": true,
      "inputs": [
        {
          "name": "",
          "type": "uint256"
        }
      ],
      "name": "RFIs",
      "outputs": [
        {
          "components": [
            {
              "name": "metadata",
              "type": "string"
            }
          ],
          "name": "individuation",
          "type": "tuple"
        },
        {
          "name": "blockstamp",
          "type": "uint256"
        },
        {
          "name": "state",
          "type": "uint8"
        }
      ],
      "payable": false,
      "stateMutability": "view",
      "type": "function"
    },
    {
      "constant": true,
      "inputs": [
        {
          "name": "token",
          "type": "address"
        }
      ],
      "name": "allowRecoverability",
      "outputs": [
        {
          "name": "",
          "type": "bool"
        }
      ],
      "payable": false,
      "stateMutability": "view",
      "type": "function"
    },
    {
      "constant": true,
      "inputs": [],
      "name": "RFIsLength",
      "outputs": [
        {
          "name": "",
          "type": "uint256"
        }
      ],
      "payable": false,
      "stateMutability": "view",
      "type": "function"
    },
    {
      "constant": true,
      "inputs": [],
      "name": "appId",
      "outputs": [
        {
          "name": "",
          "type": "bytes32"
        }
      ],
      "payable": false,
      "stateMutability": "view",
      "type": "function"
    },
    {
      "constant": true,
      "inputs": [],
      "name": "getInitializationBlock",
      "outputs": [
        {
          "name": "",
          "type": "uint256"
        }
      ],
      "payable": false,
      "stateMutability": "view",
      "type": "function"
    },
    {
      "constant": true,
      "inputs": [],
      "name": "REJECT_RFI_ROLE",
      "outputs": [
        {
          "name": "",
          "type": "bytes32"
        }
      ],
      "payable": false,
      "stateMutability": "view",
      "type": "function"
    },
    {
      "constant": false,
      "inputs": [
        {
          "name": "_token",
          "type": "address"
        }
      ],
      "name": "transferToVault",
      "outputs": [],
      "payable": false,
      "stateMutability": "nonpayable",
      "type": "function"
    },
    {
      "constant": true,
      "inputs": [
        {
          "name": "_sender",
          "type": "address"
        },
        {
          "name": "_role",
          "type": "bytes32"
        },
        {
          "name": "_params",
          "type": "uint256[]"
        }
      ],
      "name": "canPerform",
      "outputs": [
        {
          "name": "",
          "type": "bool"
        }
      ],
      "payable": false,
      "stateMutability": "view",
      "type": "function"
    },
    {
      "constant": true,
      "inputs": [],
      "name": "getEVMScriptRegistry",
      "outputs": [
        {
          "name": "",
          "type": "address"
        }
      ],
      "payable": false,
      "stateMutability": "view",
      "type": "function"
    },
    {
      "constant": true,
      "inputs": [],
      "name": "genesis",
      "outputs": [
        {
          "name": "",
          "type": "address"
        }
      ],
      "payable": false,
      "stateMutability": "view",
      "type": "function"
    },
    {
      "constant": true,
      "inputs": [],
      "name": "ACCEPT_RFL_ROLE",
      "outputs": [
        {
          "name": "",
          "type": "bytes32"
        }
      ],
      "payable": false,
      "stateMutability": "view",
      "type": "function"
    },
    {
      "constant": true,
      "inputs": [
        {
          "name": "",
          "type": "uint256"
        }
      ],
      "name": "RFLs",
      "outputs": [
        {
          "components": [
            {
              "name": "destination",
              "type": "address"
            },
            {
              "name": "minimum",
              "type": "uint256"
            },
            {
              "name": "metadata",
              "type": "string"
            }
          ],
          "name": "lineage",
          "type": "tuple"
        },
        {
          "name": "blockstamp",
          "type": "uint256"
        },
        {
          "name": "value",
          "type": "uint256"
        },
        {
          "name": "state",
          "type": "uint8"
        },
        {
          "name": "RFIid",
          "type": "uint256"
        }
      ],
      "payable": false,
      "stateMutability": "view",
      "type": "function"
    },
    {
      "constant": true,
      "inputs": [],
      "name": "lineage",
      "outputs": [
        {
          "name": "",
          "type": "address"
        }
      ],
      "payable": false,
      "stateMutability": "view",
      "type": "function"
    },
    {
      "constant": true,
      "inputs": [],
      "name": "kernel",
      "outputs": [
        {
          "name": "",
          "type": "address"
        }
      ],
      "payable": false,
      "stateMutability": "view",
      "type": "function"
    },
    {
      "constant": true,
      "inputs": [],
      "name": "isPetrified",
      "outputs": [
        {
          "name": "",
          "type": "bool"
        }
      ],
      "payable": false,
      "stateMutability": "view",
      "type": "function"
    },
    {
      "anonymous": false,
      "inputs": [
        {
          "indexed": true,
          "name": "id",
          "type": "uint256"
        }
      ],
      "name": "CreateRFI",
      "type": "event"
    },
    {
      "anonymous": false,
      "inputs": [
        {
          "indexed": true,
          "name": "id",
          "type": "uint256"
        }
      ],
      "name": "MergeRFI",
      "type": "event"
    },
    {
      "anonymous": false,
      "inputs": [
        {
          "indexed": true,
          "name": "id",
          "type": "uint256"
        }
      ],
      "name": "RejectRFI",
      "type": "event"
    },
    {
      "anonymous": false,
      "inputs": [
        {
          "indexed": true,
          "name": "id",
          "type": "uint256"
        }
      ],
      "name": "CancelRFI",
      "type": "event"
    },
    {
      "anonymous": false,
      "inputs": [
        {
          "indexed": true,
          "name": "id",
          "type": "uint256"
        }
      ],
      "name": "CreateRFL",
      "type": "event"
    },
    {
      "anonymous": false,
      "inputs": [
        {
          "indexed": true,
          "name": "id",
          "type": "uint256"
        },
        {
          "indexed": false,
          "name": "value",
          "type": "uint256"
        }
      ],
      "name": "AcceptRFL",
      "type": "event"
    },
    {
      "anonymous": false,
      "inputs": [
        {
          "indexed": true,
          "name": "id",
          "type": "uint256"
        }
      ],
      "name": "RejectRFL",
      "type": "event"
    },
    {
      "anonymous": false,
      "inputs": [
        {
          "indexed": true,
          "name": "id",
          "type": "uint256"
        }
      ],
      "name": "CancelRFL",
      "type": "event"
    },
    {
      "anonymous": false,
      "inputs": [
        {
          "indexed": true,
          "name": "id",
          "type": "uint256"
        },
        {
          "indexed": false,
          "name": "destination",
          "type": "address"
        },
        {
          "indexed": false,
          "name": "value",
          "type": "uint256"
        }
      ],
      "name": "IssueRFL",
      "type": "event"
    },
    {
      "anonymous": false,
      "inputs": [
        {
          "indexed": true,
          "name": "executor",
          "type": "address"
        },
        {
          "indexed": false,
          "name": "script",
          "type": "bytes"
        },
        {
          "indexed": false,
          "name": "input",
          "type": "bytes"
        },
        {
          "indexed": false,
          "name": "returnData",
          "type": "bytes"
        }
      ],
      "name": "ScriptResult",
      "type": "event"
    },
    {
      "constant": false,
      "inputs": [
        {
          "name": "_pando",
          "type": "address"
        },
        {
          "name": "_genesis",
          "type": "address"
        },
        {
          "name": "_lineage",
          "type": "address"
        }
      ],
      "name": "initialize",
      "outputs": [],
      "payable": false,
      "stateMutability": "nonpayable",
      "type": "function"
    },
    {
      "constant": false,
      "inputs": [
        {
          "components": [
            {
              "name": "metadata",
              "type": "string"
            }
          ],
          "name": "_individuation",
          "type": "tuple"
        },
        {
          "components": [
            {
              "name": "destination",
              "type": "address"
            },
            {
              "name": "minimum",
              "type": "uint256"
            },
            {
              "name": "metadata",
              "type": "string"
            }
          ],
          "name": "_lineages",
          "type": "tuple[]"
        }
      ],
      "name": "createRFI",
      "outputs": [
        {
          "name": "RFIid",
          "type": "uint256"
        }
      ],
      "payable": false,
      "stateMutability": "nonpayable",
      "type": "function"
    },
    {
      "constant": false,
      "inputs": [
        {
          "name": "_RFIid",
          "type": "uint256"
        }
      ],
      "name": "mergeRFI",
      "outputs": [],
      "payable": false,
      "stateMutability": "nonpayable",
      "type": "function"
    },
    {
      "constant": false,
      "inputs": [
        {
          "name": "_RFIid",
          "type": "uint256"
        }
      ],
      "name": "rejectRFI",
      "outputs": [],
      "payable": false,
      "stateMutability": "nonpayable",
      "type": "function"
    },
    {
      "constant": false,
      "inputs": [
        {
          "name": "_RFLid",
          "type": "uint256"
        },
        {
          "name": "_value",
          "type": "uint256"
        }
      ],
      "name": "acceptRFL",
      "outputs": [],
      "payable": false,
      "stateMutability": "nonpayable",
      "type": "function"
    },
    {
      "constant": false,
      "inputs": [
        {
          "name": "_RFLid",
          "type": "uint256"
        }
      ],
      "name": "rejectRFL",
      "outputs": [],
      "payable": false,
      "stateMutability": "nonpayable",
      "type": "function"
    },
    {
      "constant": true,
      "inputs": [
        {
          "name": "_RFIid",
          "type": "uint256"
        }
      ],
      "name": "canMergeRFI",
      "outputs": [
        {
          "name": "",
          "type": "bool"
        }
      ],
      "payable": false,
      "stateMutability": "view",
      "type": "function"
    },
    {
      "constant": true,
      "inputs": [
        {
          "name": "_RFIid",
          "type": "uint256"
        }
      ],
      "name": "canRejectRFI",
      "outputs": [
        {
          "name": "",
          "type": "bool"
        }
      ],
      "payable": false,
      "stateMutability": "view",
      "type": "function"
    },
    {
      "constant": true,
      "inputs": [
        {
          "name": "_RFLid",
          "type": "uint256"
        },
        {
          "name": "_value",
          "type": "uint256"
        }
      ],
      "name": "canAcceptRFL",
      "outputs": [
        {
          "name": "",
          "type": "bool"
        }
      ],
      "payable": false,
      "stateMutability": "view",
      "type": "function"
    },
    {
      "constant": true,
      "inputs": [
        {
          "name": "_RFLid",
          "type": "uint256"
        }
      ],
      "name": "canRejectRFL",
      "outputs": [
        {
          "name": "",
          "type": "bool"
        }
      ],
      "payable": false,
      "stateMutability": "view",
      "type": "function"
    },
    {
      "constant": true,
      "inputs": [
        {
          "name": "_RFIid",
          "type": "uint256"
        }
      ],
      "name": "getRFI",
      "outputs": [
        {
          "components": [
            {
              "components": [
                {
                  "name": "metadata",
                  "type": "string"
                }
              ],
              "name": "individuation",
              "type": "tuple"
            },
            {
              "name": "blockstamp",
              "type": "uint256"
            },
            {
              "name": "state",
              "type": "uint8"
            },
            {
              "name": "RFLids",
              "type": "uint256[]"
            }
          ],
          "name": "",
          "type": "tuple"
        }
      ],
      "payable": false,
      "stateMutability": "view",
      "type": "function"
    },
    {
      "constant": true,
      "inputs": [
        {
          "name": "_RFLid",
          "type": "uint256"
        }
      ],
      "name": "getRFL",
      "outputs": [
        {
          "components": [
            {
              "components": [
                {
                  "name": "destination",
                  "type": "address"
                },
                {
                  "name": "minimum",
                  "type": "uint256"
                },
                {
                  "name": "metadata",
                  "type": "string"
                }
              ],
              "name": "lineage",
              "type": "tuple"
            },
            {
              "name": "blockstamp",
              "type": "uint256"
            },
            {
              "name": "value",
              "type": "uint256"
            },
            {
              "name": "state",
              "type": "uint8"
            },
            {
              "name": "RFIid",
              "type": "uint256"
            }
          ],
          "name": "",
          "type": "tuple"
        }
      ],
      "payable": false,
      "stateMutability": "view",
      "type": "function"
    },
    {
      "constant": true,
      "inputs": [
        {
          "name": "_RFIid",
          "type": "uint256"
        }
      ],
      "name": "getRFIMetadata",
      "outputs": [
        {
          "name": "",
          "type": "string"
        }
      ],
      "payable": false,
      "stateMutability": "view",
      "type": "function"
    },
    {
      "constant": true,
      "inputs": [
        {
          "name": "_RFLid",
          "type": "uint256"
        }
      ],
      "name": "getRFLLineage",
      "outputs": [
        {
          "name": "destination",
          "type": "address"
        },
        {
          "name": "minimum",
          "type": "uint256"
        },
        {
          "name": "metadata",
          "type": "string"
        }
      ],
      "payable": false,
      "stateMutability": "view",
      "type": "function"
    },
    {
      "constant": true,
      "inputs": [
        {
          "components": [
            {
              "name": "blockstamp",
              "type": "uint256"
            },
            {
              "name": "metadata",
              "type": "string"
            }
          ],
          "name": "_individuation",
          "type": "tuple"
        }
      ],
      "name": "getIndividuationHash",
      "outputs": [
        {
          "name": "",
          "type": "bytes32"
        }
      ],
      "payable": false,
      "stateMutability": "view",
      "type": "function"
    },
    {
      "constant": true,
      "inputs": [],
      "name": "head",
      "outputs": [
        {
          "name": "",
          "type": "bytes32"
        }
      ],
      "payable": false,
      "stateMutability": "view",
      "type": "function"
    },
    {
      "constant": true,
      "inputs": [],
      "name": "getHead",
      "outputs": [
        {
          "components": [
            {
              "name": "blockstamp",
              "type": "uint256"
            },
            {
              "name": "metadata",
              "type": "string"
            }
          ],
          "name": "",
          "type": "tuple"
        }
      ],
      "payable": false,
      "stateMutability": "view",
      "type": "function"
    }
  ],
  "bytecode": "0x60806040526000600255600060035560006009556000600a556200003162000037640100000000026401000000009004565b62000303565b6000620000526200010c640100000000026401000000009004565b146040805190810160405280601881526020017f494e49545f414c52454144595f494e495449414c495a45440000000000000000815250901515620000cf576040517f08c379a0000000000000000000000000000000000000000000000000000000008152600401620000c691906200028d565b60405180910390fd5b506200010a7fffffffffffffffffffffffffffffffffffffffffffffffffffffffffffffffff62000159640100000000026401000000009004565b565b6000620001547febb05b386a8d34882b8711d156f463690983dc47815980fb82aeeff1aa43579e600102600019166200023f6401000000000262002b02176401000000009004565b905090565b6000620001746200010c640100000000026401000000009004565b146040805190810160405280601881526020017f494e49545f414c52454144595f494e495449414c495a45440000000000000000815250901515620001f1576040517f08c379a0000000000000000000000000000000000000000000000000000000008152600401620001e891906200028d565b60405180910390fd5b506200023c817febb05b386a8d34882b8711d156f463690983dc47815980fb82aeeff1aa43579e600102600019166200024a6401000000000262003034179091906401000000009004565b50565b600081549050919050565b8082555050565b60006200025e82620002b1565b80845262000274816020860160208601620002bc565b6200027f81620002f2565b602085010191505092915050565b60006020820190508181036000830152620002a9818462000251565b905092915050565b600081519050919050565b60005b83811015620002dc578082015181840152602081019050620002bf565b83811115620002ec576000848401525b50505050565b6000601f19601f8301169050919050565b61482080620003136000396000f3006080604052600436106101ee576000357c0100000000000000000000000000000000000000000000000000000000900463ffffffff1680630803fac0146101f3578063082367801461021e578063103a90c8146102495780632914b9bd146102745780632adab4ea146102b15780632d2e8012146102dc57806331f700961461030757806332f0a3b51461034457806333ff68701461036f5780634752915d146103ac5780634844c28d146103e95780635bddb420146104145780636d5f5ca7146104535780636e0b314c1461047c578063715e0623146104a5578063748b052c146104e457806379293d011461050d5780637e7db6e11461054a57806380201af21461058757806380afdea8146105b2578063889bd35d146105dd5780638b3dd7491461061a5780638f7dcfa31461064557806397569bb1146106705780639bdc706d1461069b5780639d4941d8146106d8578063a1658fad14610701578063a479e5081461073e578063a7f0b3de14610769578063b462e70b14610794578063c0c53b8b146107bf578063c3eefd1e146107e8578063c538f7de14610825578063c74656e714610866578063d4aae0c414610891578063dc281aff146108bc578063ddf6fa9c146108e7578063de4796ed14610910578063e8606afc1461093b578063fec7d70b14610978575b600080fd5b3480156101ff57600080fd5b506102086109b5565b6040516102159190614153565b60405180910390f35b34801561022a57600080fd5b506102336109e0565b604051610240919061416e565b60405180910390f35b34801561025557600080fd5b5061025e610a19565b60405161026b91906144b5565b60405180910390f35b34801561028057600080fd5b5061029b600480360361029691908101906138fe565b610a1f565b6040516102a891906141ef565b60405180910390f35b3480156102bd57600080fd5b506102c6610ad6565b6040516102d3919061416e565b60405180910390f35b3480156102e857600080fd5b506102f1610b0f565b6040516102fe919061416e565b60405180910390f35b34801561031357600080fd5b5061032e600480360361032991908101906139b7565b610b48565b60405161033b91906144b5565b60405180910390f35b34801561035057600080fd5b50610359610c48565b6040516103669190614085565b60405180910390f35b34801561037b57600080fd5b5061039660048036036103919190810190613aa5565b610cf2565b6040516103a39190614153565b60405180910390f35b3480156103b857600080fd5b506103d360048036036103ce9190810190613af7565b610d68565b6040516103e09190614153565b60405180910390f35b3480156103f557600080fd5b506103fe610e09565b60405161040b919061425b565b60405180910390f35b34801561042057600080fd5b5061043b60048036036104369190810190613aa5565b610e2f565b60405161044a93929190614395565b60405180910390f35b34801561045f57600080fd5b5061047a60048036036104759190810190613af7565b610f13565b005b34801561048857600080fd5b506104a3600480360361049e9190810190613aa5565b611058565b005b3480156104b157600080fd5b506104cc60048036036104c79190810190613aa5565b61121c565b6040516104db93929190614115565b60405180910390f35b3480156104f057600080fd5b5061050b60048036036105069190810190613aa5565b61136b565b005b34801561051957600080fd5b50610534600480360361052f9190810190613aa5565b6114ad565b60405161054191906142b3565b60405180910390f35b34801561055657600080fd5b50610571600480360361056c91908101906137f3565b6115bd565b60405161057e9190614153565b60405180910390f35b34801561059357600080fd5b5061059c6115c8565b6040516105a991906144b5565b60405180910390f35b3480156105be57600080fd5b506105c76115ce565b6040516105d4919061416e565b60405180910390f35b3480156105e957600080fd5b5061060460048036036105ff9190810190613aa5565b611605565b6040516106119190614493565b60405180910390f35b34801561062657600080fd5b5061062f6117ea565b60405161063c91906144b5565b60405180910390f35b34801561065157600080fd5b5061065a611821565b604051610667919061416e565b60405180910390f35b34801561067c57600080fd5b506106856118e6565b604051610692919061416e565b60405180910390f35b3480156106a757600080fd5b506106c260048036036106bd9190810190613aa5565b61191f565b6040516106cf9190614153565b60405180910390f35b3480156106e457600080fd5b506106ff60048036036106fa91908101906137f3565b611995565b005b34801561070d57600080fd5b5061072860048036036107239190810190613845565b611c99565b6040516107359190614153565b60405180910390f35b34801561074a57600080fd5b50610753611dc6565b604051610760919061420a565b60405180910390f35b34801561077557600080fd5b5061077e611ec8565b60405161078b91906141d4565b60405180910390f35b3480156107a057600080fd5b506107a9611eee565b6040516107b6919061416e565b60405180910390f35b3480156107cb57600080fd5b506107e660048036036107e19190810190613968565b611f27565b005b3480156107f457600080fd5b5061080f600480360361080a9190810190613aa5565b61207c565b60405161081c9190614153565b60405180910390f35b34801561083157600080fd5b5061084c60048036036108479190810190613aa5565b612187565b60405161085d9594939291906143f5565b60405180910390f35b34801561087257600080fd5b5061087b6122d7565b6040516108889190614240565b60405180910390f35b34801561089d57600080fd5b506108a66122fd565b6040516108b39190614225565b60405180910390f35b3480156108c857600080fd5b506108d1612334565b6040516108de919061444f565b60405180910390f35b3480156108f357600080fd5b5061090e60048036036109099190810190613aa5565b612404565b005b34801561091c57600080fd5b50610925612546565b6040516109329190614153565b60405180910390f35b34801561094757600080fd5b50610962600480360361095d9190810190613a23565b612577565b60405161096f919061416e565b60405180910390f35b34801561098457600080fd5b5061099f600480360361099a9190810190613aa5565b612649565b6040516109ac9190614471565b60405180910390f35b6000806109c06117ea565b9050600081141580156109da5750806109d7612812565b10155b91505090565b60405180807f52454a4543545f52464c5f524f4c450000000000000000000000000000000000815250600f019050604051809103902081565b600a5481565b6000610a29611dc6565b73ffffffffffffffffffffffffffffffffffffffff166304bf2a7f836040518263ffffffff167c0100000000000000000000000000000000000000000000000000000000028152600401610a7d91906141b2565b602060405180830381600087803b158015610a9757600080fd5b505af1158015610aab573d6000803e3d6000fd5b505050506040513d601f19601f82011682018060405250610acf919081019061393f565b9050919050565b60405180807f4352454154455f5246495f524f4c450000000000000000000000000000000000815250600f019050604051809103902081565b60405180807f4d455247455f5246495f524f4c45000000000000000000000000000000000000815250600e019050604051809103902081565b600060405180807f4352454154455f5246495f524f4c450000000000000000000000000000000000815250600f0190506040518091039020610bbb33826000604051908082528060200260200182016040528015610bb55781602001602082028038833980820191505090505b50611c99565b6040805190810160405280600f81526020017f4150505f415554485f4641494c45440000000000000000000000000000000000815250901515610c34576040517f08c379a0000000000000000000000000000000000000000000000000000000008152600401610c2b9190614291565b60405180910390fd5b50610c3f848461281a565b91505092915050565b6000610c526122fd565b73ffffffffffffffffffffffffffffffffffffffff166332f0a3b56040518163ffffffff167c0100000000000000000000000000000000000000000000000000000000028152600401602060405180830381600087803b158015610cb557600080fd5b505af1158015610cc9573d6000803e3d6000fd5b505050506040513d601f19601f82011682018060405250610ced919081019061381c565b905090565b60006001821080610d045750600a5482115b15610d125760009050610d63565b60006004811115610d1f57fe5b6008600084815260200190815260200160002060050160009054906101000a900460ff166004811115610d4e57fe5b141515610d5e5760009050610d63565b600190505b919050565b60006001831080610d7a5750600a5483115b15610d885760009050610e03565b60006004811115610d9557fe5b6008600085815260200190815260200160002060050160009054906101000a900460ff166004811115610dc457fe5b141515610dd45760009050610e03565b6008600084815260200190815260200160002060000160010154821015610dfe5760009050610e03565b600190505b92915050565b600660009054906101000a900473ffffffffffffffffffffffffffffffffffffffff1681565b60076020528060005260406000206000915090508060000160206040519081016040529081600082018054600181600116156101000203166002900480601f016020809104026020016040519081016040528092919081815260200182805460018160011615610100020316600290048015610eec5780601f10610ec157610100808354040283529160200191610eec565b820191906000526020600020905b815481529060010190602001808311610ecf57829003601f168201915b505050505081525050908060010154908060020160009054906101000a900460ff16905083565b60405180807f4143434550545f52464c5f524f4c450000000000000000000000000000000000815250600f0190506040518091039020610f8433826000604051908082528060200260200182016040528015610f7e5781602001602082028038833980820191505090505b50611c99565b6040805190810160405280600f81526020017f4150505f415554485f4641494c45440000000000000000000000000000000000815250901515610ffd576040517f08c379a0000000000000000000000000000000000000000000000000000000008152600401610ff49190614291565b60405180910390fd5b506110088383610d68565b1515611049576040517f08c379a0000000000000000000000000000000000000000000000000000000008152600401611040906142d5565b60405180910390fd5b6110538383612944565b505050565b6110606109b5565b6040805190810160405280601481526020017f494e49545f4e4f545f494e495449414c495a45440000000000000000000000008152509015156110d9576040517f08c379a00000000000000000000000000000000000000000000000000000000081526004016110d09190614291565b60405180910390fd5b5060405180807f52454a4543545f52464c5f524f4c450000000000000000000000000000000000815250600f019050604051809103902061114b338260006040519080825280602002602001820160405280156111455781602001602082028038833980820191505090505b50611c99565b6040805190810160405280600f81526020017f4150505f415554485f4641494c454400000000000000000000000000000000008152509015156111c4576040517f08c379a00000000000000000000000000000000000000000000000000000000081526004016111bb9190614291565b60405180910390fd5b506111ce82610cf2565b151561120f576040517f08c379a0000000000000000000000000000000000000000000000000000000008152600401611206906142f5565b60405180910390fd5b611218826129c7565b5050565b60008060606000846000811180156112365750600a548111155b1515611277576040517f08c379a000000000000000000000000000000000000000000000000000000000815260040161126e90614315565b60405180910390fd5b6008600087815260200190815260200160002091508160000160000160009054906101000a900473ffffffffffffffffffffffffffffffffffffffff16945081600001600101549350816000016002018054600181600116156101000203166002900480601f01602080910402602001604051908101604052809291908181526020018280546001816001161561010002031660029004801561135b5780601f106113305761010080835404028352916020019161135b565b820191906000526020600020905b81548152906001019060200180831161133e57829003601f168201915b5050505050925050509193909250565b60405180807f52454a4543545f5246495f524f4c450000000000000000000000000000000000815250600f01905060405180910390206113dc338260006040519080825280602002602001820160405280156113d65781602001602082028038833980820191505090505b50611c99565b6040805190810160405280600f81526020017f4150505f415554485f4641494c45440000000000000000000000000000000000815250901515611455576040517f08c379a000000000000000000000000000000000000000000000000000000000815260040161144c9190614291565b60405180910390fd5b5061145f8261191f565b15156114a0576040517f08c379a000000000000000000000000000000000000000000000000000000000815260040161149790614355565b60405180910390fd5b6114a982612a42565b5050565b6060816000811180156114c257506009548111155b1515611503576040517f08c379a00000000000000000000000000000000000000000000000000000000081526004016114fa90614375565b60405180910390fd5b600760008481526020019081526020016000206000016000018054600181600116156101000203166002900480601f0160208091040260200160405190810160405280929190818152602001828054600181600116156101000203166002900480156115b05780601f10611585576101008083540402835291602001916115b0565b820191906000526020600020905b81548152906001019060200180831161159357829003601f168201915b5050505050915050919050565b600060019050919050565b60095481565b60006116007fd625496217aa6a3453eecb9c3489dc5a53e6c67b444329ea2b2cbc9ff547639b60010260001916612af7565b905090565b61160d6131d8565b816000811180156116205750600a548111155b1515611661576040517f08c379a000000000000000000000000000000000000000000000000000000000815260040161165890614315565b60405180910390fd5b6008600084815260200190815260200160002060a0604051908101604052908160008201606060405190810160405290816000820160009054906101000a900473ffffffffffffffffffffffffffffffffffffffff1673ffffffffffffffffffffffffffffffffffffffff1673ffffffffffffffffffffffffffffffffffffffff16815260200160018201548152602001600282018054600181600116156101000203166002900480601f01602080910402602001604051908101604052809291908181526020018280546001816001161561010002031660029004801561178a5780601f1061175f5761010080835404028352916020019161178a565b820191906000526020600020905b81548152906001019060200180831161176d57829003601f168201915b505050505081525050815260200160038201548152602001600482015481526020016005820160009054906101000a900460ff1660048111156117c957fe5b60048111156117d457fe5b8152602001600682015481525050915050919050565b600061181c7febb05b386a8d34882b8711d156f463690983dc47815980fb82aeeff1aa43579e60010260001916612b02565b905090565b6000600460009054906101000a900473ffffffffffffffffffffffffffffffffffffffff1673ffffffffffffffffffffffffffffffffffffffff16638f7dcfa36040518163ffffffff167c0100000000000000000000000000000000000000000000000000000000028152600401602060405180830381600087803b1580156118a957600080fd5b505af11580156118bd573d6000803e3d6000fd5b505050506040513d601f19601f820116820180604052506118e191908101906138d5565b905090565b60405180807f52454a4543545f5246495f524f4c450000000000000000000000000000000000815250600f019050604051809103902081565b60006001821080611931575060095482115b1561193f5760009050611990565b6000600381111561194c57fe5b6007600084815260200190815260200160002060020160009054906101000a900460ff16600381111561197b57fe5b14151561198b5760009050611990565b600190505b919050565b6000806119a1836115bd565b6040805190810160405280601281526020017f5245434f5645525f444953414c4c4f5745440000000000000000000000000000815250901515611a1a576040517f08c379a0000000000000000000000000000000000000000000000000000000008152600401611a119190614291565b60405180910390fd5b50611a23610c48565b9150611a2e82612b0d565b6040805190810160405280601a81526020017f5245434f5645525f5641554c545f4e4f545f434f4e5452414354000000000000815250901515611aa7576040517f08c379a0000000000000000000000000000000000000000000000000000000008152600401611a9e9190614291565b60405180910390fd5b50600073ffffffffffffffffffffffffffffffffffffffff168373ffffffffffffffffffffffffffffffffffffffff161415611b40578173ffffffffffffffffffffffffffffffffffffffff166108fc3073ffffffffffffffffffffffffffffffffffffffff16319081150290604051600060405180830381858888f19350505050158015611b3a573d6000803e3d6000fd5b50611c94565b8273ffffffffffffffffffffffffffffffffffffffff166370a08231306040518263ffffffff167c0100000000000000000000000000000000000000000000000000000000028152600401611b959190614276565b602060405180830381600087803b158015611baf57600080fd5b505af1158015611bc3573d6000803e3d6000fd5b505050506040513d601f19601f82011682018060405250611be79190810190613ace565b90508273ffffffffffffffffffffffffffffffffffffffff1663a9059cbb83836040518363ffffffff167c0100000000000000000000000000000000000000000000000000000000028152600401611c409291906140ec565b602060405180830381600087803b158015611c5a57600080fd5b505af1158015611c6e573d6000803e3d6000fd5b505050506040513d601f19601f82011682018060405250611c9291908101906138ac565b505b505050565b60008060606000611ca86109b5565b1515611cb75760009350611dbc565b611cbf6122fd565b9250600073ffffffffffffffffffffffffffffffffffffffff168373ffffffffffffffffffffffffffffffffffffffff161415611cff5760009350611dbc565b602085510290508491508082528273ffffffffffffffffffffffffffffffffffffffff1663fdef9106883089866040518563ffffffff167c0100000000000000000000000000000000000000000000000000000000028152600401611d6794939291906140a0565b602060405180830381600087803b158015611d8157600080fd5b505af1158015611d95573d6000803e3d6000fd5b505050506040513d601f19601f82011682018060405250611db991908101906138ac565b93505b5050509392505050565b600080611dd16122fd565b73ffffffffffffffffffffffffffffffffffffffff1663be00bbd87fd6f028ca0e8edb4a8c9757ca4fdccab25fa1e0317da1188108f7d2dee14902fb6001027fddbcfd564f642ab5627cf68b9b7d374fb4f8a36e941a75d89c87998cef03bd616001026040518363ffffffff167c0100000000000000000000000000000000000000000000000000000000028152600401611e6d929190614189565b602060405180830381600087803b158015611e8757600080fd5b505af1158015611e9b573d6000803e3d6000fd5b505050506040513d601f19601f82011682018060405250611ebf919081019061381c565b90508091505090565b600460009054906101000a900473ffffffffffffffffffffffffffffffffffffffff1681565b60405180807f4143434550545f52464c5f524f4c450000000000000000000000000000000000815250600f019050604051809103902081565b6000611f316117ea565b146040805190810160405280601881526020017f494e49545f414c52454144595f494e495449414c495a45440000000000000000815250901515611fab576040517f08c379a0000000000000000000000000000000000000000000000000000000008152600401611fa29190614291565b60405180910390fd5b50611fb4612b5f565b82600660006101000a81548173ffffffffffffffffffffffffffffffffffffffff021916908373ffffffffffffffffffffffffffffffffffffffff16021790555081600460006101000a81548173ffffffffffffffffffffffffffffffffffffffff021916908373ffffffffffffffffffffffffffffffffffffffff16021790555080600560006101000a81548173ffffffffffffffffffffffffffffffffffffffff021916908373ffffffffffffffffffffffffffffffffffffffff160217905550505050565b6000806000806001851080612092575060095485115b156120a0576000935061217f565b600760008681526020019081526020016000209250600060038111156120c257fe5b8360020160009054906101000a900460ff1660038111156120df57fe5b1415156120ef576000935061217f565b600091505b826003018054905082101561217a5760086000846003018481548110151561211857fe5b9060005260206000200154815260200190815260200160002090506001600481111561214057fe5b8160050160009054906101000a900460ff16600481111561215d57fe5b14151561216d576000935061217f565b81806001019250506120f4565b600193505b505050919050565b600860205280600052604060002060009150905080600001606060405190810160405290816000820160009054906101000a900473ffffffffffffffffffffffffffffffffffffffff1673ffffffffffffffffffffffffffffffffffffffff1673ffffffffffffffffffffffffffffffffffffffff16815260200160018201548152602001600282018054600181600116156101000203166002900480601f0160208091040260200160405190810160405280929190818152602001828054600181600116156101000203166002900480156122a45780601f10612279576101008083540402835291602001916122a4565b820191906000526020600020905b81548152906001019060200180831161228757829003601f168201915b505050505081525050908060030154908060040154908060050160009054906101000a900460ff16908060060154905085565b600560009054906101000a900473ffffffffffffffffffffffffffffffffffffffff1681565b600061232f7f4172f0f7d2289153072b0a6ca36959e0cbe2efc3afe50fc81636caa96338137b60010260001916612c27565b905090565b61233c613219565b600460009054906101000a900473ffffffffffffffffffffffffffffffffffffffff1673ffffffffffffffffffffffffffffffffffffffff1663dc281aff6040518163ffffffff167c0100000000000000000000000000000000000000000000000000000000028152600401600060405180830381600087803b1580156123c257600080fd5b505af11580156123d6573d6000803e3d6000fd5b505050506040513d6000823e3d601f19601f820116820180604052506123ff9190810190613a64565b905090565b60405180807f4d455247455f5246495f524f4c45000000000000000000000000000000000000815250600e01905060405180910390206124753382600060405190808252806020026020018201604052801561246f5781602001602082028038833980820191505090505b50611c99565b6040805190810160405280600f81526020017f4150505f415554485f4641494c454400000000000000000000000000000000008152509015156124ee576040517f08c379a00000000000000000000000000000000000000000000000000000000081526004016124e59190614291565b60405180910390fd5b506124f88261207c565b1515612539576040517f08c379a000000000000000000000000000000000000000000000000000000000815260040161253090614335565b60405180910390fd5b61254282612c32565b5050565b60007fffffffffffffffffffffffffffffffffffffffffffffffffffffffffffffffff6125716117ea565b14905090565b6000600660009054906101000a900473ffffffffffffffffffffffffffffffffffffffff1673ffffffffffffffffffffffffffffffffffffffff166357c337ee836040518263ffffffff167c01000000000000000000000000000000000000000000000000000000000281526004016125f0919061444f565b602060405180830381600087803b15801561260a57600080fd5b505af115801561261e573d6000803e3d6000fd5b505050506040513d601f19601f8201168201806040525061264291908101906138d5565b9050919050565b612651613233565b8160008111801561266457506009548111155b15156126a5576040517f08c379a000000000000000000000000000000000000000000000000000000000815260040161269c90614375565b60405180910390fd5b60076000848152602001908152602001600020608060405190810160405290816000820160206040519081016040529081600082018054600181600116156101000203166002900480601f01602080910402602001604051908101604052809291908181526020018280546001816001161561010002031660029004801561276e5780601f106127435761010080835404028352916020019161276e565b820191906000526020600020905b81548152906001019060200180831161275157829003601f168201915b5050505050815250508152602001600182015481526020016002820160009054906101000a900460ff1660038111156127a357fe5b60038111156127ae57fe5b81526020016003820180548060200260200160405190810160405280929190818152602001828054801561280157602002820191906000526020600020905b8154815260200190600101908083116127ed575b505050505081525050915050919050565b600043905090565b60008060008060006001600954016009819055506009549450600760008681526020019081526020016000209350866000015184600001600001908051906020019061286792919061326d565b5043846001018190555060008460020160006101000a81548160ff0219169083600381111561289257fe5b0217905550600092505b855183101561290d576128c686848151811015156128b657fe5b9060200190602002015186612d93565b91508360030180548091906001016128de91906132ed565b90508184600301828154811015156128f257fe5b9060005260206000200181905550828060010193505061289c565b847f35f2129c6d5c40f8bfc21ff096fc803eed03c578d74fabcf718966bce5e43a2460405160405180910390a25050505092915050565b600060086000848152602001908152602001600020905060018160050160006101000a81548160ff0219169083600481111561297c57fe5b0217905550818160040181905550827fe798dd1723e7dfead0c42290d937f51c95c8f80f616ab3c5d515dd62333d0c69836040516129ba91906144b5565b60405180910390a2505050565b600060086000838152602001908152602001600020905060038160050160006101000a81548160ff021916908360048111156129ff57fe5b0217905550612a118160060154612eac565b817feffb45481cc046f2f78b484c7ef03097fc7cd3f8cf92a6f150a6264c96c3e72c60405160405180910390a25050565b60008060076000848152602001908152602001600020915060028260020160006101000a81548160ff02191690836003811115612a7b57fe5b0217905550600090505b8160030180549050811015612ac557612ab88260030182815481101515612aa857fe5b9060005260206000200154612fc6565b8080600101915050612a85565b827f572671bf73ebac1f3878b683b28d9a3864df03396326fbaa18f19c834a54b13a60405160405180910390a2505050565b600081549050919050565b600081549050919050565b600080600073ffffffffffffffffffffffffffffffffffffffff168373ffffffffffffffffffffffffffffffffffffffff161415612b4e5760009150612b59565b823b90506000811191505b50919050565b6000612b696117ea565b146040805190810160405280601881526020017f494e49545f414c52454144595f494e495449414c495a45440000000000000000815250901515612be3576040517f08c379a0000000000000000000000000000000000000000000000000000000008152600401612bda9190614291565b60405180910390fd5b50612c25612bef612812565b7febb05b386a8d34882b8711d156f463690983dc47815980fb82aeeff1aa43579e6001026000191661303490919063ffffffff16565b565b600081549050919050565b60008060076000848152602001908152602001600020915060018260020160006101000a81548160ff02191690836003811115612c6b57fe5b0217905550600460009054906101000a900473ffffffffffffffffffffffffffffffffffffffff1673ffffffffffffffffffffffffffffffffffffffff1663c9ab7ed9836000016040518263ffffffff167c0100000000000000000000000000000000000000000000000000000000028152600401612cea91906143d3565b600060405180830381600087803b158015612d0457600080fd5b505af1158015612d18573d6000803e3d6000fd5b50505050600090505b8160030180549050811015612d6157612d548260030182815481101515612d4457fe5b906000526020600020015461303b565b8080600101915050612d21565b827f2ade3f30658e8481c8027d9227280e030ebbea37526a8e9e29887165e919e2ed60405160405180910390a2505050565b6000806001600a5401600a81905550600a54915060086000838152602001908152602001600020905083600001518160000160000160006101000a81548173ffffffffffffffffffffffffffffffffffffffff021916908373ffffffffffffffffffffffffffffffffffffffff160217905550836020015181600001600101819055508360400151816000016002019080519060200190612e3592919061326d565b504381600301819055506000816004018190555060008160050160006101000a81548160ff02191690836004811115612e6a57fe5b0217905550828160060181905550817fb696b79e6fa6e3e43f047d6702fce861e48c2267eeb009745f44a84b2c1dac4a60405160405180910390a25092915050565b600080600060076000858152602001908152602001600020925060038360020160006101000a81548160ff02191690836003811115612ee757fe5b0217905550600091505b8260030180549050821015612f9357600860008460030184815481101515612f1557fe5b90600052602060002001548152602001908152602001600020905060036004811115612f3d57fe5b8160050160009054906101000a900460ff166004811115612f5a57fe5b141515612f8657612f858360030183815481101515612f7557fe5b9060005260206000200154612fc6565b5b8180600101925050612ef1565b837f17c608dd7335e9c727c3e10aea0adfba0b0e6cc35c4935c1de31e3b10711da7560405160405180910390a250505050565b600060086000838152602001908152602001600020905060048160050160006101000a81548160ff02191690836004811115612ffe57fe5b0217905550817f7b78710b9fa400a202f9262b7daad859bf5663f0d88d45073184584fe6a166e060405160405180910390a25050565b8082555050565b600060086000838152602001908152602001600020905060028160050160006101000a81548160ff0219169083600481111561307357fe5b0217905550600560009054906101000a900473ffffffffffffffffffffffffffffffffffffffff1673ffffffffffffffffffffffffffffffffffffffff166340c10f198260000160000160009054906101000a900473ffffffffffffffffffffffffffffffffffffffff1683600401546040518363ffffffff167c010000000000000000000000000000000000000000000000000000000002815260040161311c9291906140ec565b602060405180830381600087803b15801561313657600080fd5b505af115801561314a573d6000803e3d6000fd5b505050506040513d601f19601f8201168201806040525061316e91908101906138ac565b50817fb74d3ab32949c67c027c76911841ff5e997d1276e5244bba79e532fa6ce91f838260000160000160009054906101000a900473ffffffffffffffffffffffffffffffffffffffff1683600401546040516131cc9291906140ec565b60405180910390a25050565b60e0604051908101604052806131ec613319565b815260200160008152602001600081526020016000600481111561320c57fe5b8152602001600081525090565b604080519081016040528060008152602001606081525090565b608060405190810160405280613247613351565b8152602001600081526020016000600381111561326057fe5b8152602001606081525090565b828054600181600116156101000203166002900490600052602060002090601f016020900481019282601f106132ae57805160ff19168380011785556132dc565b828001600101855582156132dc579182015b828111156132db5782518255916020019190600101906132c0565b5b5090506132e99190613365565b5090565b815481835581811115613314578183600052602060002091820191016133139190613365565b5b505050565b606060405190810160405280600073ffffffffffffffffffffffffffffffffffffffff16815260200160008152602001606081525090565b602060405190810160405280606081525090565b61338791905b8082111561338357600081600090555060010161336b565b5090565b90565b60006133968235614669565b905092915050565b60006133aa8251614669565b905092915050565b600082601f83011215156133c557600080fd5b81356133d86133d3826144fd565b6144d0565b9150818183526020840193506020810190508360005b8381101561341e5781358601613404888261368b565b8452602084019350602083019250506001810190506133ee565b5050505092915050565b600082601f830112151561343b57600080fd5b813561344e61344982614525565b6144d0565b9150818183526020840193506020810190508385602084028201111561347357600080fd5b60005b838110156134a3578161348988826137cb565b845260208401935060208301925050600181019050613476565b5050505092915050565b60006134b98251614689565b905092915050565b60006134cd8235614695565b905092915050565b60006134e18251614695565b905092915050565b600082601f83011215156134fc57600080fd5b813561350f61350a8261454d565b6144d0565b9150808252602083016020830185838301111561352b57600080fd5b613536838284614793565b50505092915050565b600061354b823561469f565b905092915050565b600061355f82516146b1565b905092915050565b600061357382356146c3565b905092915050565b600061358782356146d5565b905092915050565b600082601f83011215156135a257600080fd5b81356135b56135b082614579565b6144d0565b915080825260208301602083018583830111156135d157600080fd5b6135dc838284614793565b50505092915050565b600082601f83011215156135f857600080fd5b815161360b61360682614579565b6144d0565b9150808252602083016020830185838301111561362757600080fd5b6136328382846147a2565b50505092915050565b60006020828403121561364d57600080fd5b61365760206144d0565b9050600082013567ffffffffffffffff81111561367357600080fd5b61367f8482850161358f565b60008301525092915050565b60006060828403121561369d57600080fd5b6136a760606144d0565b905060006136b78482850161338a565b60008301525060206136cb848285016137cb565b602083015250604082013567ffffffffffffffff8111156136eb57600080fd5b6136f78482850161358f565b60408301525092915050565b60006040828403121561371557600080fd5b61371f60406144d0565b9050600061372f848285016137cb565b600083015250602082013567ffffffffffffffff81111561374f57600080fd5b61375b8482850161358f565b60208301525092915050565b60006040828403121561377957600080fd5b61378360406144d0565b90506000613793848285016137df565b600083015250602082015167ffffffffffffffff8111156137b357600080fd5b6137bf848285016135e5565b60208301525092915050565b60006137d782356146e7565b905092915050565b60006137eb82516146e7565b905092915050565b60006020828403121561380557600080fd5b60006138138482850161338a565b91505092915050565b60006020828403121561382e57600080fd5b600061383c8482850161339e565b91505092915050565b60008060006060848603121561385a57600080fd5b60006138688682870161338a565b9350506020613879868287016134c1565b925050604084013567ffffffffffffffff81111561389657600080fd5b6138a286828701613428565b9150509250925092565b6000602082840312156138be57600080fd5b60006138cc848285016134ad565b91505092915050565b6000602082840312156138e757600080fd5b60006138f5848285016134d5565b91505092915050565b60006020828403121561391057600080fd5b600082013567ffffffffffffffff81111561392a57600080fd5b613936848285016134e9565b91505092915050565b60006020828403121561395157600080fd5b600061395f84828501613553565b91505092915050565b60008060006060848603121561397d57600080fd5b600061398b8682870161357b565b935050602061399c8682870161353f565b92505060406139ad86828701613567565b9150509250925092565b600080604083850312156139ca57600080fd5b600083013567ffffffffffffffff8111156139e457600080fd5b6139f08582860161363b565b925050602083013567ffffffffffffffff811115613a0d57600080fd5b613a19858286016133b2565b9150509250929050565b600060208284031215613a3557600080fd5b600082013567ffffffffffffffff811115613a4f57600080fd5b613a5b84828501613703565b91505092915050565b600060208284031215613a7657600080fd5b600082015167ffffffffffffffff811115613a9057600080fd5b613a9c84828501613767565b91505092915050565b600060208284031215613ab757600080fd5b6000613ac5848285016137cb565b91505092915050565b600060208284031215613ae057600080fd5b6000613aee848285016137df565b91505092915050565b60008060408385031215613b0a57600080fd5b6000613b18858286016137cb565b9250506020613b29858286016137cb565b9150509250929050565b613b3c816145fd565b82525050565b6000613b4d826145c4565b808452602084019350613b5f836145a5565b60005b82811015613b9157613b75868351614076565b613b7e826145f0565b9150602086019550600181019050613b62565b50849250505092915050565b613ba68161461d565b82525050565b613bb581614629565b82525050565b6000613bc6826145cf565b808452613bda8160208601602086016147a2565b613be3816147d5565b602085010191505092915050565b613bfa816146f1565b82525050565b613c0981614703565b82525050565b613c1881614715565b82525050565b613c2781614727565b82525050565b613c3681614739565b82525050565b613c458161474b565b82525050565b613c548161475d565b82525050565b613c638161476f565b82525050565b613c7281614781565b82525050565b6000613c83826145e5565b808452613c978160208601602086016147a2565b613ca0816147d5565b602085010191505092915050565b6000613cb9826145da565b808452613ccd8160208601602086016147a2565b613cd6816147d5565b602085010191505092915050565b600081546001811660008114613d015760018114613d2157613d62565b607f600283041680865260ff198316602087015260408601935050613d62565b60028204808652602086019550613d37856145b2565b60005b82811015613d5957815481890152600182019150602081019050613d3a565b80880195505050505b505092915050565b6000601182527f63616e6e6f74206163636570742052464c0000000000000000000000000000006020830152604082019050919050565b6000601182527f63616e6e6f742072656a6563742052464c0000000000000000000000000000006020830152604082019050919050565b6000601282527f52464c20646f6573206e6f7420657869737400000000000000000000000000006020830152604082019050919050565b6000601082527f63616e6e6f74206d6572676520524649000000000000000000000000000000006020830152604082019050919050565b6000601182527f63616e6e6f742072656a656374205246490000000000000000000000000000006020830152604082019050919050565b6000601282527f52464920646f6573206e6f7420657869737400000000000000000000000000006020830152604082019050919050565b60006020830160008301518482036000860152613ed18282613cae565b9150508091505092915050565b60006020830160008084018583036000870152613efb8382613ce4565b925050819250505092915050565b6000606083016000830151613f216000860182613b33565b506020830151613f346020860182614076565b5060408301518482036040860152613f4c8282613cae565b9150508091505092915050565b6000604083016000830151613f716000860182614076565b5060208301518482036020860152613f898282613cae565b9150508091505092915050565b60006080830160008301518482036000860152613fb38282613eb4565b9150506020830151613fc86020860182614076565b506040830151613fdb6040860182613c5a565b5060608301518482036060860152613ff38282613b42565b9150508091505092915050565b600060a083016000830151848203600086015261401d8282613f09565b91505060208301516140326020860182614076565b5060408301516140456040860182614076565b5060608301516140586060860182613c69565b50608083015161406b6080860182614076565b508091505092915050565b61407f8161465f565b82525050565b600060208201905061409a6000830184613b33565b92915050565b60006080820190506140b56000830187613b33565b6140c26020830186613b33565b6140cf6040830185613bac565b81810360608301526140e18184613bbb565b905095945050505050565b60006040820190506141016000830185613b33565b61410e6020830184614076565b9392505050565b600060608201905061412a6000830186613b33565b6141376020830185614076565b81810360408301526141498184613c78565b9050949350505050565b60006020820190506141686000830184613b9d565b92915050565b60006020820190506141836000830184613bac565b92915050565b600060408201905061419e6000830185613bac565b6141ab6020830184613bac565b9392505050565b600060208201905081810360008301526141cc8184613bbb565b905092915050565b60006020820190506141e96000830184613bf1565b92915050565b60006020820190506142046000830184613c00565b92915050565b600060208201905061421f6000830184613c0f565b92915050565b600060208201905061423a6000830184613c1e565b92915050565b60006020820190506142556000830184613c2d565b92915050565b60006020820190506142706000830184613c3c565b92915050565b600060208201905061428b6000830184613c4b565b92915050565b600060208201905081810360008301526142ab8184613cae565b905092915050565b600060208201905081810360008301526142cd8184613c78565b905092915050565b600060208201905081810360008301526142ee81613d6a565b9050919050565b6000602082019050818103600083015261430e81613da1565b9050919050565b6000602082019050818103600083015261432e81613dd8565b9050919050565b6000602082019050818103600083015261434e81613e0f565b9050919050565b6000602082019050818103600083015261436e81613e46565b9050919050565b6000602082019050818103600083015261438e81613e7d565b9050919050565b600060608201905081810360008301526143af8186613eb4565b90506143be6020830185614076565b6143cb6040830184613c5a565b949350505050565b600060208201905081810360008301526143ed8184613ede565b905092915050565b600060a082019050818103600083015261440f8188613f09565b905061441e6020830187614076565b61442b6040830186614076565b6144386060830185613c69565b6144456080830184614076565b9695505050505050565b600060208201905081810360008301526144698184613f59565b905092915050565b6000602082019050818103600083015261448b8184613f96565b905092915050565b600060208201905081810360008301526144ad8184614000565b905092915050565b60006020820190506144ca6000830184614076565b92915050565b6000604051905081810181811067ffffffffffffffff821117156144f357600080fd5b8060405250919050565b600067ffffffffffffffff82111561451457600080fd5b602082029050602081019050919050565b600067ffffffffffffffff82111561453c57600080fd5b602082029050602081019050919050565b600067ffffffffffffffff82111561456457600080fd5b601f19601f8301169050602081019050919050565b600067ffffffffffffffff82111561459057600080fd5b601f19601f8301169050602081019050919050565b6000602082019050919050565b60008160005260206000209050919050565b600081519050919050565b600081519050919050565b600081519050919050565b600081519050919050565b6000602082019050919050565b600073ffffffffffffffffffffffffffffffffffffffff82169050919050565b60008115159050919050565b6000819050919050565b600060048210151561464157fe5b819050919050565b600060058210151561465757fe5b819050919050565b6000819050919050565b600073ffffffffffffffffffffffffffffffffffffffff82169050919050565b60008115159050919050565b6000819050919050565b60006146aa826145fd565b9050919050565b60006146bc826145fd565b9050919050565b60006146ce826145fd565b9050919050565b60006146e0826145fd565b9050919050565b6000819050919050565b60006146fc826145fd565b9050919050565b600061470e826145fd565b9050919050565b6000614720826145fd565b9050919050565b6000614732826145fd565b9050919050565b6000614744826145fd565b9050919050565b6000614756826145fd565b9050919050565b6000614768826145fd565b9050919050565b600061477a82614633565b9050919050565b600061478c82614649565b9050919050565b82818337600083830152505050565b60005b838110156147c05780820151818401526020810190506147a5565b838111156147cf576000848401525b50505050565b6000601f19601f83011690509190505600a265627a7a723058205f8c54a721aae12283dff95d222bc85bdefad695e3bc2e984690d7ee8dfc97306c6578706572696d656e74616cf50037",
  "source": "pragma solidity ^0.4.24;\npragma experimental ABIEncoderV2;\n\nimport \"@aragon/os/contracts/apps/AragonApp.sol\";\nimport \"@pando/core/contracts/organism/IOrganism.sol\";\nimport \"@pando/core/contracts/lib/Pando.sol\";\nimport \"./Genesis.sol\";\nimport \"./Lineage.sol\";\n\n\ncontract Organism is IOrganism, AragonApp {\n    bytes32 constant public CREATE_RFI_ROLE = keccak256(\"CREATE_RFI_ROLE\");\n    bytes32 constant public MERGE_RFI_ROLE  = keccak256(\"MERGE_RFI_ROLE\");\n    bytes32 constant public REJECT_RFI_ROLE = keccak256(\"REJECT_RFI_ROLE\");\n    bytes32 constant public ACCEPT_RFL_ROLE = keccak256(\"ACCEPT_RFL_ROLE\");\n    bytes32 constant public REJECT_RFL_ROLE = keccak256(\"REJECT_RFL_ROLE\");\n\n    Genesis public genesis;\n    Lineage public lineage;\n    Pando   public pando;\n\n    // Use a mapping instead of an array to ease app upgrade\n    // See https://github.com/aragon/aragon-apps/pull/428\n    // See https://youtu.be/sJ7VECqHFAg?t=9m27s\n    mapping (uint256 => Pando.RFI) public RFIs;\n    mapping (uint256 => Pando.RFL) public RFLs;\n\n    uint256 public RFIsLength = 0;\n    uint256 public RFLsLength = 0;\n\n\n    event CreateRFI(uint256 indexed id);\n    event MergeRFI(uint256 indexed id);\n    event RejectRFI(uint256 indexed id);\n    event CancelRFI(uint256 indexed id);\n    event CreateRFL(uint256 indexed id);\n    event AcceptRFL(uint256 indexed id, uint256 value);\n    event RejectRFL(uint256 indexed id);\n    event CancelRFL(uint256 indexed id);\n    event IssueRFL(uint256 indexed id, address destination, uint256 value);\n\n    modifier RFIExists(uint256 _RFIid) {\n        require(_RFIid > 0 && _RFIid <= RFIsLength, \"RFI does not exist\");\n        _;\n    }\n\n    modifier RFLExists(uint256 _RFLid) {\n        require(_RFLid > 0 && _RFLid <= RFLsLength, \"RFL does not exist\");\n        _;\n    }\n\n    /*--------------------*/\n\n    function initialize(Pando _pando, Genesis _genesis, Lineage _lineage) external onlyInit {\n        initialized();\n        pando = _pando;\n        genesis = _genesis;\n        lineage = _lineage;\n    }\n\n    function createRFI(Pando.IIndividuation _individuation, Pando.ILineage[] _lineages)\n        public\n        auth(CREATE_RFI_ROLE)\n        returns (uint256 RFIid)\n    {\n        RFIid = _createRFI(_individuation, _lineages);\n    }\n\n    function mergeRFI(uint256 _RFIid) public auth(MERGE_RFI_ROLE) {\n        require(canMergeRFI(_RFIid), \"cannot merge RFI\");\n        _mergeRFI(_RFIid);\n    }\n\n    function rejectRFI(uint256 _RFIid) public auth(REJECT_RFI_ROLE) {\n        require(canRejectRFI(_RFIid), \"cannot reject RFI\");\n        _rejectRFI(_RFIid);\n    }\n\n    function acceptRFL(uint256 _RFLid, uint256 _value) public auth(ACCEPT_RFL_ROLE) {\n        require(canAcceptRFL(_RFLid, _value), \"cannot accept RFL\");\n        _acceptRFL(_RFLid, _value);\n    }\n\n    function rejectRFL(uint256 _RFLid) public isInitialized auth(REJECT_RFL_ROLE) {\n        require(canRejectRFL(_RFLid), \"cannot reject RFL\");\n        _rejectRFL(_RFLid);\n    }\n\n    /*--------------------*/\n\n    function canMergeRFI(uint256 _RFIid) public view returns (bool) {\n        if (_RFIid < 1 || _RFIid > RFIsLength)\n            return false;\n        Pando.RFI storage RFI = RFIs[_RFIid];\n        if (RFI.state != Pando.RFIState.Pending)\n            return false;\n        for (uint256 i = 0; i < RFI.RFLids.length; i++) {\n            Pando.RFL storage RFL = RFLs[RFI.RFLids[i]];\n            if (RFL.state != Pando.RFLState.Accepted)\n                return false;\n        }\n        return true;\n    }\n\n    function canRejectRFI(uint _RFIid) public view returns (bool) {\n        if (_RFIid < 1 || _RFIid > RFIsLength)\n            return false;\n        if (RFIs[_RFIid].state != Pando.RFIState.Pending)\n            return false;\n        return true;\n    }\n\n    function canAcceptRFL(uint256 _RFLid, uint256 _value) public view returns (bool) {\n        if (_RFLid < 1 || _RFLid > RFLsLength)\n            return false;\n        if (RFLs[_RFLid].state != Pando.RFLState.Pending)\n            return false;\n        if (_value < RFLs[_RFLid].lineage.minimum)\n            return false;\n        return true;\n    }\n\n    function canRejectRFL(uint _RFLid) public view returns (bool) {\n        if (_RFLid < 1 || _RFLid > RFLsLength)\n            return false;\n        if (RFLs[_RFLid].state != Pando.RFLState.Pending)\n            return false;\n        return true;\n    }\n\n    /*--------------------*/\n\n    function getRFI(uint256 _RFIid) public view RFIExists(_RFIid) returns (Pando.RFI) {\n        return RFIs[_RFIid];\n    }\n\n    function getRFL(uint256 _RFLid) public view RFLExists(_RFLid) returns (Pando.RFL) {\n        return RFLs[_RFLid];\n    }\n\n    function getRFIMetadata(uint256 _RFIid) public view RFIExists(_RFIid) returns (string) {\n        return RFIs[_RFIid].individuation.metadata;\n    }\n\n    function getRFLLineage(uint256 _RFLid) public view RFLExists(_RFLid) returns (address destination, uint256 minimum, string metadata) {\n        Pando.RFL storage RFL = RFLs[_RFLid];\n\n        destination = RFL.lineage.destination;\n        minimum = RFL.lineage.minimum;\n        metadata = RFL.lineage.metadata;\n    }\n\n    function getIndividuationHash(Pando.Individuation _individuation) public view returns (bytes32) {\n        return pando.hash(_individuation);\n    }\n\n    function head() public view returns (bytes32) {\n        return genesis.head();\n    }\n\n    function getHead() public view returns (Pando.Individuation) {\n        return genesis.getHead();\n    }\n\n    /*--------------------*/\n\n    function _createRFI(Pando.IIndividuation _individuation, Pando.ILineage[] _lineages) internal returns (uint256 RFIid) {\n        // msg.sender is gonna be the address of a governance kit built on top of the API\n        // Do you we wanna make sure that the transaction is actually initialized by _individuation.origin ?\n        // If this is the case then we're gonna need to ask for a proof of identity through a ECDSA signature\n        // See https://github.com/OpenZeppelin/openzeppelin-solidity/blob/master/contracts/cryptography/ECDSA.sol\n\n        RFIsLength = RFIsLength + 1;\n        RFIid = RFIsLength;\n\n        Pando.RFI storage RFI = RFIs[RFIid];\n\n        RFI.individuation.metadata = _individuation.metadata;\n        RFI.blockstamp = block.number;\n        RFI.state = Pando.RFIState.Pending;\n\n        for (uint256 j = 0; j < _lineages.length; j++) {\n            uint256 RFLid = _createRFL(_lineages[j], RFIid);\n            uint256 index = RFI.RFLids.length++;\n            RFI.RFLids[index] = RFLid;\n        }\n\n        emit CreateRFI(RFIid);\n    }\n\n    function _mergeRFI(uint256 _RFIid) internal {\n        Pando.RFI storage RFI = RFIs[_RFIid];\n\n        RFI.state = Pando.RFIState.Merged;\n\n        genesis.individuate(RFI.individuation);\n\n        for (uint256 i = 0; i < RFI.RFLids.length; i++) {\n            _issueRFL(RFI.RFLids[i]);\n        }\n\n        emit MergeRFI(_RFIid);\n    }\n\n    function _rejectRFI(uint256 _RFIid) internal {\n        Pando.RFI storage RFI = RFIs[_RFIid];\n\n        RFI.state = Pando.RFIState.Rejected;\n\n        for (uint256 j = 0; j < RFI.RFLids.length; j++) {\n            _cancelRFL(RFI.RFLids[j]);\n        }\n\n        emit RejectRFI(_RFIid);\n    }\n\n    function _cancelRFI(uint256 _RFIid) internal {\n        Pando.RFI storage RFI = RFIs[_RFIid];\n\n        RFI.state = Pando.RFIState.Cancelled;\n\n        for (uint256 i = 0; i < RFI.RFLids.length; i++) {\n            Pando.RFL storage RFL = RFLs[RFI.RFLids[i]];\n\n            if (RFL.state != Pando.RFLState.Rejected)\n                _cancelRFL(RFI.RFLids[i]);\n        }\n\n        emit CancelRFI(_RFIid);\n    }\n\n    function _createRFL(Pando.ILineage _lineage, uint256 _RFIid) internal returns (uint256 RFLid) {\n        RFLsLength = RFLsLength + 1;\n        RFLid = RFLsLength;\n\n        Pando.RFL storage RFL = RFLs[RFLid];\n\n        RFL.lineage.destination = _lineage.destination;\n        RFL.lineage.minimum = _lineage.minimum;\n        RFL.lineage.metadata = _lineage.metadata;\n        RFL.blockstamp = block.number;\n        RFL.value = 0;\n        RFL.state = Pando.RFLState.Pending;\n        RFL.RFIid = _RFIid;\n\n        emit CreateRFL(RFLid);\n    }\n\n    function _acceptRFL(uint256 _RFLid, uint256 _value) internal {\n        Pando.RFL storage rfl = RFLs[_RFLid];\n\n        rfl.state = Pando.RFLState.Accepted;\n        rfl.value = _value;\n\n        emit AcceptRFL(_RFLid, _value);\n    }\n\n    function _rejectRFL(uint256 _RFLid) internal {\n        Pando.RFL storage rfl = RFLs[_RFLid];\n\n        rfl.state = Pando.RFLState.Rejected;\n\n        _cancelRFI(rfl.RFIid);\n\n        emit RejectRFL(_RFLid);\n    }\n\n    function _cancelRFL(uint256 _RFLid) internal {\n        Pando.RFL storage rfl = RFLs[_RFLid];\n\n        rfl.state = Pando.RFLState.Cancelled;\n\n        emit CancelRFL(_RFLid);\n    }\n\n    function _issueRFL(uint256 _RFLid) internal {\n        Pando.RFL storage rfl = RFLs[_RFLid];\n\n        rfl.state = Pando.RFLState.Issued;\n\n        lineage.mint(rfl.lineage.destination, rfl.value);\n\n        emit IssueRFL(_RFLid, rfl.lineage.destination, rfl.value);\n    }\n}\n",
  "sourcePath": "@pando/organism/contracts/Organism.sol",
  "compiler": {
    "name": "solc",
    "version": "0.4.24+commit.e67f0147.Emscripten.clang"
  },
  "schemaVersion": "3.0.0-beta.2",
  "updatedAt": "2019-01-21T14:18:49.277Z",
  "devdoc": {
    "methods": {
      "allowRecoverability(address)": {
        "details": "By default deriving from AragonApp makes it recoverable",
        "params": {
          "token": "Token address that would be recovered"
        },
        "return": "bool whether the app allows the recovery"
      },
      "canPerform(address,bytes32,uint256[])": {
        "details": "Check whether an action can be performed by a sender for a particular role on this app",
        "params": {
          "_params": "Permission params for the role",
          "_role": "Role on this app",
          "_sender": "Sender of the call"
        },
        "return": "Boolean indicating whether the sender has the permissions to perform the action.        Always returns false if the app hasn't been initialized yet."
      },
      "getInitializationBlock()": {
        "return": "Block number in which the contract was initialized"
      },
      "getRecoveryVault()": {
        "details": "Get the recovery vault for the app",
        "return": "Recovery vault address for the app"
      },
      "hasInitialized()": {
        "return": "Whether the contract has been initialized by the time of the current block"
      },
      "transferToVault(address)": {
        "params": {
          "_token": "Token balance to be sent to recovery vault."
        }
      }
    }
  },
  "userdoc": {
    "methods": {
      "transferToVault(address)": {
        "notice": "Send funds to recovery Vault. This contract should never receive funds,        but in case it does, this function allows one to recover them."
      }
    }
  }
}