{
  "contractName": "Colony",
  "abi": [
    {
      "constant": true,
      "inputs": [],
      "name": "hasInitialized",
      "outputs": [
        {
          "name": "",
          "type": "bool"
        }
      ],
      "payable": false,
      "stateMutability": "view",
      "type": "function"
    },
    {
      "constant": true,
      "inputs": [
        {
          "name": "_script",
          "type": "bytes"
        }
      ],
      "name": "getEVMScriptExecutor",
      "outputs": [
        {
          "name": "",
          "type": "address"
        }
      ],
      "payable": false,
      "stateMutability": "view",
      "type": "function"
    },
    {
      "constant": true,
      "inputs": [],
      "name": "tokenManager",
      "outputs": [
        {
          "name": "",
          "type": "address"
        }
      ],
      "payable": false,
      "stateMutability": "view",
      "type": "function"
    },
    {
      "constant": true,
      "inputs": [],
      "name": "getRecoveryVault",
      "outputs": [
        {
          "name": "",
          "type": "address"
        }
      ],
      "payable": false,
      "stateMutability": "view",
      "type": "function"
    },
    {
      "constant": true,
      "inputs": [],
      "name": "ens",
      "outputs": [
        {
          "name": "",
          "type": "address"
        }
      ],
      "payable": false,
      "stateMutability": "view",
      "type": "function"
    },
    {
      "constant": true,
      "inputs": [],
      "name": "organismsLength",
      "outputs": [
        {
          "name": "",
          "type": "uint256"
        }
      ],
      "payable": false,
      "stateMutability": "view",
      "type": "function"
    },
    {
      "constant": true,
      "inputs": [
        {
          "name": "token",
          "type": "address"
        }
      ],
      "name": "allowRecoverability",
      "outputs": [
        {
          "name": "",
          "type": "bool"
        }
      ],
      "payable": false,
      "stateMutability": "view",
      "type": "function"
    },
    {
      "constant": true,
      "inputs": [],
      "name": "appId",
      "outputs": [
        {
          "name": "",
          "type": "bytes32"
        }
      ],
      "payable": false,
      "stateMutability": "view",
      "type": "function"
    },
    {
      "constant": true,
      "inputs": [],
      "name": "scheme",
      "outputs": [
        {
          "name": "",
          "type": "address"
        }
      ],
      "payable": false,
      "stateMutability": "view",
      "type": "function"
    },
    {
      "constant": true,
      "inputs": [],
      "name": "getInitializationBlock",
      "outputs": [
        {
          "name": "",
          "type": "uint256"
        }
      ],
      "payable": false,
      "stateMutability": "view",
      "type": "function"
    },
    {
      "constant": false,
      "inputs": [
        {
          "name": "_token",
          "type": "address"
        }
      ],
      "name": "transferToVault",
      "outputs": [],
      "payable": false,
      "stateMutability": "nonpayable",
      "type": "function"
    },
    {
      "constant": true,
      "inputs": [
        {
          "name": "_sender",
          "type": "address"
        },
        {
          "name": "_role",
          "type": "bytes32"
        },
        {
          "name": "_params",
          "type": "uint256[]"
        }
      ],
      "name": "canPerform",
      "outputs": [
        {
          "name": "",
          "type": "bool"
        }
      ],
      "payable": false,
      "stateMutability": "view",
      "type": "function"
    },
    {
      "constant": true,
      "inputs": [],
      "name": "getEVMScriptRegistry",
      "outputs": [
        {
          "name": "",
          "type": "address"
        }
      ],
      "payable": false,
      "stateMutability": "view",
      "type": "function"
    },
    {
      "constant": true,
      "inputs": [],
      "name": "kernel",
      "outputs": [
        {
          "name": "",
          "type": "address"
        }
      ],
      "payable": false,
      "stateMutability": "view",
      "type": "function"
    },
    {
      "constant": true,
      "inputs": [],
      "name": "isPetrified",
      "outputs": [
        {
          "name": "",
          "type": "bool"
        }
      ],
      "payable": false,
      "stateMutability": "view",
      "type": "function"
    },
    {
      "constant": true,
      "inputs": [
        {
          "name": "",
          "type": "uint256"
        }
      ],
      "name": "organisms",
      "outputs": [
        {
          "name": "",
          "type": "address"
        }
      ],
      "payable": false,
      "stateMutability": "view",
      "type": "function"
    },
    {
      "constant": true,
      "inputs": [],
      "name": "DEPLOY_ORGANISM_ROLE",
      "outputs": [
        {
          "name": "",
          "type": "bytes32"
        }
      ],
      "payable": false,
      "stateMutability": "view",
      "type": "function"
    },
    {
      "anonymous": false,
      "inputs": [
        {
          "indexed": false,
          "name": "organism",
          "type": "address"
        }
      ],
      "name": "DeployOrganism",
      "type": "event"
    },
    {
      "anonymous": false,
      "inputs": [
        {
          "indexed": true,
          "name": "executor",
          "type": "address"
        },
        {
          "indexed": false,
          "name": "script",
          "type": "bytes"
        },
        {
          "indexed": false,
          "name": "input",
          "type": "bytes"
        },
        {
          "indexed": false,
          "name": "returnData",
          "type": "bytes"
        }
      ],
      "name": "ScriptResult",
      "type": "event"
    },
    {
      "constant": false,
      "inputs": [
        {
          "name": "_ens",
          "type": "address"
        },
        {
          "name": "_tokenManager",
          "type": "address"
        },
        {
          "name": "_scheme",
          "type": "address"
        }
      ],
      "name": "initialize",
      "outputs": [],
      "payable": false,
      "stateMutability": "nonpayable",
      "type": "function"
    },
    {
      "constant": false,
      "inputs": [],
      "name": "deploy",
      "outputs": [],
      "payable": false,
      "stateMutability": "nonpayable",
      "type": "function"
    },
    {
      "constant": true,
      "inputs": [
        {
          "name": "appId",
          "type": "bytes32"
        }
      ],
      "name": "latestVersionAppBase",
      "outputs": [
        {
          "name": "base",
          "type": "address"
        }
      ],
      "payable": false,
      "stateMutability": "view",
      "type": "function"
    },
    {
      "constant": true,
      "inputs": [],
      "name": "getOrganisms",
      "outputs": [
        {
          "name": "",
          "type": "address[]"
        }
      ],
      "payable": false,
      "stateMutability": "view",
      "type": "function"
    }
  ],
  "bytecode": "0x608060405260006004556200002262000028640100000000026401000000009004565b6200030e565b60006200004362000163640100000000026401000000009004565b146040805190810160405280601881526020017f494e49545f414c52454144595f494e495449414c495a4544000000000000000081525090151562000126576040517f08c379a00000000000000000000000000000000000000000000000000000000081526004018080602001828103825283818151815260200191508051906020019080838360005b83811015620000ea578082015181840152602081019050620000cd565b50505050905090810190601f168015620001185780820380516001836020036101000a031916815260200191505b509250505060405180910390fd5b50620001617fffffffffffffffffffffffffffffffffffffffffffffffffffffffffffffffff620001b0640100000000026401000000009004565b565b6000620001ab7febb05b386a8d34882b8711d156f463690983dc47815980fb82aeeff1aa43579e60010260001916620002fc640100000000026200323b176401000000009004565b905090565b6000620001cb62000163640100000000026401000000009004565b146040805190810160405280601881526020017f494e49545f414c52454144595f494e495449414c495a45440000000000000000815250901515620002ae576040517f08c379a00000000000000000000000000000000000000000000000000000000081526004018080602001828103825283818151815260200191508051906020019080838360005b838110156200027257808201518184015260208101905062000255565b50505050905090810190601f168015620002a05780820380516001836020036101000a031916815260200191505b509250505060405180910390fd5b50620002f9817febb05b386a8d34882b8711d156f463690983dc47815980fb82aeeff1aa43579e600102600019166200030764010000000002620033d0179091906401000000009004565b50565b600081549050919050565b8082555050565b613426806200031e6000396000f30060806040526004361061011d576000357c0100000000000000000000000000000000000000000000000000000000900463ffffffff1680630803fac0146101225780632914b9bd146101515780632a709b14146101fa57806332f0a3b5146102515780633f15457f146102a8578063775c300c146102ff5780637b9059ea146103165780637e7db6e11461034157806380afdea81461039c5780638518b0ad146103cf57806387ed6ccd146104265780638b3dd749146104925780639d4941d8146104bd578063a1658fad14610500578063a479e508146105ac578063c0c53b8b14610603578063c6d2c71714610686578063d4aae0c4146106f7578063de4796ed1461074e578063e75e6b571461077d578063f8c9ff31146107ea575b600080fd5b34801561012e57600080fd5b5061013761081d565b604051808215151515815260200191505060405180910390f35b34801561015d57600080fd5b506101b8600480360381019080803590602001908201803590602001908080601f0160208091040260200160405190810160405280939291908181526020018383808284378201915050505050509192919290505050610848565b604051808273ffffffffffffffffffffffffffffffffffffffff1673ffffffffffffffffffffffffffffffffffffffff16815260200191505060405180910390f35b34801561020657600080fd5b5061020f610967565b604051808273ffffffffffffffffffffffffffffffffffffffff1673ffffffffffffffffffffffffffffffffffffffff16815260200191505060405180910390f35b34801561025d57600080fd5b5061026661098d565b604051808273ffffffffffffffffffffffffffffffffffffffff1673ffffffffffffffffffffffffffffffffffffffff16815260200191505060405180910390f35b3480156102b457600080fd5b506102bd610a3a565b604051808273ffffffffffffffffffffffffffffffffffffffff1673ffffffffffffffffffffffffffffffffffffffff16815260200191505060405180910390f35b34801561030b57600080fd5b50610314610a5f565b005b34801561032257600080fd5b5061032b6122fc565b6040518082815260200191505060405180910390f35b34801561034d57600080fd5b50610382600480360381019080803573ffffffffffffffffffffffffffffffffffffffff169060200190929190505050612302565b604051808215151515815260200191505060405180910390f35b3480156103a857600080fd5b506103b161230d565b60405180826000191660001916815260200191505060405180910390f35b3480156103db57600080fd5b506103e4612344565b604051808273ffffffffffffffffffffffffffffffffffffffff1673ffffffffffffffffffffffffffffffffffffffff16815260200191505060405180910390f35b34801561043257600080fd5b5061043b61236a565b6040518080602001828103825283818151815260200191508051906020019060200280838360005b8381101561047e578082015181840152602081019050610463565b505050509050019250505060405180910390f35b34801561049e57600080fd5b506104a7612449565b6040518082815260200191505060405180910390f35b3480156104c957600080fd5b506104fe600480360381019080803573ffffffffffffffffffffffffffffffffffffffff169060200190929190505050612480565b005b34801561050c57600080fd5b50610592600480360381019080803573ffffffffffffffffffffffffffffffffffffffff1690602001909291908035600019169060200190929190803590602001908201803590602001908080602002602001604051908101604052809392919081815260200183836020028082843782019150505050505091929192905050506128b2565b604051808215151515815260200191505060405180910390f35b3480156105b857600080fd5b506105c1612ab9565b604051808273ffffffffffffffffffffffffffffffffffffffff1673ffffffffffffffffffffffffffffffffffffffff16815260200191505060405180910390f35b34801561060f57600080fd5b50610684600480360381019080803573ffffffffffffffffffffffffffffffffffffffff169060200190929190803573ffffffffffffffffffffffffffffffffffffffff169060200190929190803573ffffffffffffffffffffffffffffffffffffffff169060200190929190505050612bd4565b005b34801561069257600080fd5b506106b56004803603810190808035600019169060200190929190505050612d8d565b604051808273ffffffffffffffffffffffffffffffffffffffff1673ffffffffffffffffffffffffffffffffffffffff16815260200191505060405180910390f35b34801561070357600080fd5b5061070c61302c565b604051808273ffffffffffffffffffffffffffffffffffffffff1673ffffffffffffffffffffffffffffffffffffffff16815260200191505060405180910390f35b34801561075a57600080fd5b50610763613063565b604051808215151515815260200191505060405180910390f35b34801561078957600080fd5b506107a860048036038101908080359060200190929190505050613094565b604051808273ffffffffffffffffffffffffffffffffffffffff1673ffffffffffffffffffffffffffffffffffffffff16815260200191505060405180910390f35b3480156107f657600080fd5b506107ff6130c7565b60405180826000191660001916815260200191505060405180910390f35b600080610828612449565b90506000811415801561084257508061083f613100565b10155b91505090565b6000610852612ab9565b73ffffffffffffffffffffffffffffffffffffffff166304bf2a7f836040518263ffffffff167c01000000000000000000000000000000000000000000000000000000000281526004018080602001828103825283818151815260200191508051906020019080838360005b838110156108d95780820151818401526020810190506108be565b50505050905090810190601f1680156109065780820380516001836020036101000a031916815260200191505b5092505050602060405180830381600087803b15801561092557600080fd5b505af1158015610939573d6000803e3d6000fd5b505050506040513d602081101561094f57600080fd5b81019080805190602001909291905050509050919050565b600160009054906101000a900473ffffffffffffffffffffffffffffffffffffffff1681565b600061099761302c565b73ffffffffffffffffffffffffffffffffffffffff166332f0a3b56040518163ffffffff167c0100000000000000000000000000000000000000000000000000000000028152600401602060405180830381600087803b1580156109fa57600080fd5b505af1158015610a0e573d6000803e3d6000fd5b505050506040513d6020811015610a2457600080fd5b8101908080519060200190929190505050905090565b6000809054906101000a900473ffffffffffffffffffffffffffffffffffffffff1681565b600080610a6a6133d7565b60008060008060405180807f4445504c4f595f4f5247414e49534d5f524f4c4500000000000000000000000081525060140190506040518091039020610ae133826000604051908082528060200260200182016040528015610adb5781602001602082028038833980820191505090505b506128b2565b6040805190810160405280600f81526020017f4150505f415554485f4641494c45440000000000000000000000000000000000815250901515610bbf576040517f08c379a00000000000000000000000000000000000000000000000000000000081526004018080602001828103825283818151815260200191508051906020019080838360005b83811015610b84578082015181840152602081019050610b69565b50505050905090810190601f168015610bb15780820380516001836020036101000a031916815260200191505b509250505060405180910390fd5b50610bc861302c565b97508773ffffffffffffffffffffffffffffffffffffffff1663de2873596040518163ffffffff167c0100000000000000000000000000000000000000000000000000000000028152600401602060405180830381600087803b158015610c2e57600080fd5b505af1158015610c42573d6000803e3d6000fd5b505050506040513d6020811015610c5857600080fd5b81019080805190602001909291905050509650608060405190810160405280610cb56040805190810160405280600581526020017f70616e646f000000000000000000000000000000000000000000000000000000815250613108565b60001916600019168152602001610d006040805190810160405280600781526020017f6c696e6561676500000000000000000000000000000000000000000000000000815250613108565b60001916600019168152602001610d4b6040805190810160405280600781526020017f67656e6573697300000000000000000000000000000000000000000000000000815250613108565b60001916600019168152602001610d966040805190810160405280600881526020017f6f7267616e69736d000000000000000000000000000000000000000000000000815250613108565b60001916600019168152509550600160045401600481905550610dcb866000600481101515610dc157fe5b6020020151612d8d565b94508773ffffffffffffffffffffffffffffffffffffffff166380cd5ac3876001600481101515610df857fe5b6020020151600454604051602001808360001916600019168152602001828152602001925050506040516020818303038152906040526040518082805190602001908083835b602083101515610e635780518252602082019150602081019050602083039250610e3e565b6001836020036101000a0380198251168184511680821785525050505050509050019150506040518091039020610eac896001600481101515610ea257fe5b6020020151612d8d565b6040518363ffffffff167c01000000000000000000000000000000000000000000000000000000000281526004018083600019166000191681526020018273ffffffffffffffffffffffffffffffffffffffff1673ffffffffffffffffffffffffffffffffffffffff16815260200192505050602060405180830381600087803b158015610f3957600080fd5b505af1158015610f4d573d6000803e3d6000fd5b505050506040513d6020811015610f6357600080fd5b810190808051906020019092919050505093508773ffffffffffffffffffffffffffffffffffffffff166380cd5ac3876002600481101515610fa157fe5b6020020151600454604051602001808360001916600019168152602001828152602001925050506040516020818303038152906040526040518082805190602001908083835b60208310151561100c5780518252602082019150602081019050602083039250610fe7565b6001836020036101000a038019825116818451168082178552505050505050905001915050604051809103902061105589600260048110151561104b57fe5b6020020151612d8d565b6040518363ffffffff167c01000000000000000000000000000000000000000000000000000000000281526004018083600019166000191681526020018273ffffffffffffffffffffffffffffffffffffffff1673ffffffffffffffffffffffffffffffffffffffff16815260200192505050602060405180830381600087803b1580156110e257600080fd5b505af11580156110f6573d6000803e3d6000fd5b505050506040513d602081101561110c57600080fd5b810190808051906020019092919050505092508773ffffffffffffffffffffffffffffffffffffffff166380cd5ac387600360048110151561114a57fe5b6020020151600454604051602001808360001916600019168152602001828152602001925050506040516020818303038152906040526040518082805190602001908083835b6020831015156111b55780518252602082019150602081019050602083039250611190565b6001836020036101000a03801982511681845116808217855250505050505090500191505060405180910390206111fe8960036004811015156111f457fe5b6020020151612d8d565b6040518363ffffffff167c01000000000000000000000000000000000000000000000000000000000281526004018083600019166000191681526020018273ffffffffffffffffffffffffffffffffffffffff1673ffffffffffffffffffffffffffffffffffffffff16815260200192505050602060405180830381600087803b15801561128b57600080fd5b505af115801561129f573d6000803e3d6000fd5b505050506040513d60208110156112b557600080fd5b810190808051906020019092919050505091508160036000600454815260200190815260200160002060006101000a81548173ffffffffffffffffffffffffffffffffffffffff021916908373ffffffffffffffffffffffffffffffffffffffff1602179055508373ffffffffffffffffffffffffffffffffffffffff16638129fc1c6040518163ffffffff167c0100000000000000000000000000000000000000000000000000000000028152600401600060405180830381600087803b15801561138057600080fd5b505af1158015611394573d6000803e3d6000fd5b505050508273ffffffffffffffffffffffffffffffffffffffff1663c4d66de8866040518263ffffffff167c0100000000000000000000000000000000000000000000000000000000028152600401808273ffffffffffffffffffffffffffffffffffffffff1673ffffffffffffffffffffffffffffffffffffffff168152602001915050600060405180830381600087803b15801561143357600080fd5b505af1158015611447573d6000803e3d6000fd5b505050508173ffffffffffffffffffffffffffffffffffffffff1663c0c53b8b8685876040518463ffffffff167c0100000000000000000000000000000000000000000000000000000000028152600401808473ffffffffffffffffffffffffffffffffffffffff1673ffffffffffffffffffffffffffffffffffffffff1681526020018373ffffffffffffffffffffffffffffffffffffffff1673ffffffffffffffffffffffffffffffffffffffff1681526020018273ffffffffffffffffffffffffffffffffffffffff1673ffffffffffffffffffffffffffffffffffffffff1681526020019350505050600060405180830381600087803b15801561154e57600080fd5b505af1158015611562573d6000803e3d6000fd5b505050508673ffffffffffffffffffffffffffffffffffffffff1663be03847883868773ffffffffffffffffffffffffffffffffffffffff1663e9a9c8506040518163ffffffff167c0100000000000000000000000000000000000000000000000000000000028152600401602060405180830381600087803b1580156115e857600080fd5b505af11580156115fc573d6000803e3d6000fd5b505050506040513d602081101561161257600080fd5b8101908080519060200190929190505050336040518563ffffffff167c0100000000000000000000000000000000000000000000000000000000028152600401808573ffffffffffffffffffffffffffffffffffffffff1673ffffffffffffffffffffffffffffffffffffffff1681526020018473ffffffffffffffffffffffffffffffffffffffff1673ffffffffffffffffffffffffffffffffffffffff16815260200183600019166000191681526020018273ffffffffffffffffffffffffffffffffffffffff1673ffffffffffffffffffffffffffffffffffffffff168152602001945050505050600060405180830381600087803b15801561171757600080fd5b505af115801561172b573d6000803e3d6000fd5b505050508673ffffffffffffffffffffffffffffffffffffffff1663be03847883858673ffffffffffffffffffffffffffffffffffffffff1663c34e0ed66040518163ffffffff167c0100000000000000000000000000000000000000000000000000000000028152600401602060405180830381600087803b1580156117b157600080fd5b505af11580156117c5573d6000803e3d6000fd5b505050506040513d60208110156117db57600080fd5b8101908080519060200190929190505050336040518563ffffffff167c0100000000000000000000000000000000000000000000000000000000028152600401808573ffffffffffffffffffffffffffffffffffffffff1673ffffffffffffffffffffffffffffffffffffffff1681526020018473ffffffffffffffffffffffffffffffffffffffff1673ffffffffffffffffffffffffffffffffffffffff16815260200183600019166000191681526020018273ffffffffffffffffffffffffffffffffffffffff1673ffffffffffffffffffffffffffffffffffffffff168152602001945050505050600060405180830381600087803b1580156118e057600080fd5b505af11580156118f4573d6000803e3d6000fd5b505050508673ffffffffffffffffffffffffffffffffffffffff1663be038478600260009054906101000a900473ffffffffffffffffffffffffffffffffffffffff16848573ffffffffffffffffffffffffffffffffffffffff16632adab4ea6040518163ffffffff167c0100000000000000000000000000000000000000000000000000000000028152600401602060405180830381600087803b15801561199c57600080fd5b505af11580156119b0573d6000803e3d6000fd5b505050506040513d60208110156119c657600080fd5b8101908080519060200190929190505050336040518563ffffffff167c0100000000000000000000000000000000000000000000000000000000028152600401808573ffffffffffffffffffffffffffffffffffffffff1673ffffffffffffffffffffffffffffffffffffffff1681526020018473ffffffffffffffffffffffffffffffffffffffff1673ffffffffffffffffffffffffffffffffffffffff16815260200183600019166000191681526020018273ffffffffffffffffffffffffffffffffffffffff1673ffffffffffffffffffffffffffffffffffffffff168152602001945050505050600060405180830381600087803b158015611acb57600080fd5b505af1158015611adf573d6000803e3d6000fd5b505050508673ffffffffffffffffffffffffffffffffffffffff1663be038478600260009054906101000a900473ffffffffffffffffffffffffffffffffffffffff16848573ffffffffffffffffffffffffffffffffffffffff16632d2e80126040518163ffffffff167c0100000000000000000000000000000000000000000000000000000000028152600401602060405180830381600087803b158015611b8757600080fd5b505af1158015611b9b573d6000803e3d6000fd5b505050506040513d6020811015611bb157600080fd5b8101908080519060200190929190505050336040518563ffffffff167c0100000000000000000000000000000000000000000000000000000000028152600401808573ffffffffffffffffffffffffffffffffffffffff1673ffffffffffffffffffffffffffffffffffffffff1681526020018473ffffffffffffffffffffffffffffffffffffffff1673ffffffffffffffffffffffffffffffffffffffff16815260200183600019166000191681526020018273ffffffffffffffffffffffffffffffffffffffff1673ffffffffffffffffffffffffffffffffffffffff168152602001945050505050600060405180830381600087803b158015611cb657600080fd5b505af1158015611cca573d6000803e3d6000fd5b505050508673ffffffffffffffffffffffffffffffffffffffff1663be038478600260009054906101000a900473ffffffffffffffffffffffffffffffffffffffff16848573ffffffffffffffffffffffffffffffffffffffff166397569bb16040518163ffffffff167c0100000000000000000000000000000000000000000000000000000000028152600401602060405180830381600087803b158015611d7257600080fd5b505af1158015611d86573d6000803e3d6000fd5b505050506040513d6020811015611d9c57600080fd5b8101908080519060200190929190505050336040518563ffffffff167c0100000000000000000000000000000000000000000000000000000000028152600401808573ffffffffffffffffffffffffffffffffffffffff1673ffffffffffffffffffffffffffffffffffffffff1681526020018473ffffffffffffffffffffffffffffffffffffffff1673ffffffffffffffffffffffffffffffffffffffff16815260200183600019166000191681526020018273ffffffffffffffffffffffffffffffffffffffff1673ffffffffffffffffffffffffffffffffffffffff168152602001945050505050600060405180830381600087803b158015611ea157600080fd5b505af1158015611eb5573d6000803e3d6000fd5b505050508673ffffffffffffffffffffffffffffffffffffffff1663be038478600260009054906101000a900473ffffffffffffffffffffffffffffffffffffffff16848573ffffffffffffffffffffffffffffffffffffffff1663b462e70b6040518163ffffffff167c0100000000000000000000000000000000000000000000000000000000028152600401602060405180830381600087803b158015611f5d57600080fd5b505af1158015611f71573d6000803e3d6000fd5b505050506040513d6020811015611f8757600080fd5b8101908080519060200190929190505050336040518563ffffffff167c0100000000000000000000000000000000000000000000000000000000028152600401808573ffffffffffffffffffffffffffffffffffffffff1673ffffffffffffffffffffffffffffffffffffffff1681526020018473ffffffffffffffffffffffffffffffffffffffff1673ffffffffffffffffffffffffffffffffffffffff16815260200183600019166000191681526020018273ffffffffffffffffffffffffffffffffffffffff1673ffffffffffffffffffffffffffffffffffffffff168152602001945050505050600060405180830381600087803b15801561208c57600080fd5b505af11580156120a0573d6000803e3d6000fd5b505050508673ffffffffffffffffffffffffffffffffffffffff1663be038478600260009054906101000a900473ffffffffffffffffffffffffffffffffffffffff16848573ffffffffffffffffffffffffffffffffffffffff1663082367806040518163ffffffff167c0100000000000000000000000000000000000000000000000000000000028152600401602060405180830381600087803b15801561214857600080fd5b505af115801561215c573d6000803e3d6000fd5b505050506040513d602081101561217257600080fd5b8101908080519060200190929190505050336040518563ffffffff167c0100000000000000000000000000000000000000000000000000000000028152600401808573ffffffffffffffffffffffffffffffffffffffff1673ffffffffffffffffffffffffffffffffffffffff1681526020018473ffffffffffffffffffffffffffffffffffffffff1673ffffffffffffffffffffffffffffffffffffffff16815260200183600019166000191681526020018273ffffffffffffffffffffffffffffffffffffffff1673ffffffffffffffffffffffffffffffffffffffff168152602001945050505050600060405180830381600087803b15801561227757600080fd5b505af115801561228b573d6000803e3d6000fd5b505050507f18becf3d56222bd3df6103c8334c6ea243d1c382b18940ee7fcdb1ec89117a4f82604051808273ffffffffffffffffffffffffffffffffffffffff1673ffffffffffffffffffffffffffffffffffffffff16815260200191505060405180910390a15050505050505050565b60045481565b600060019050919050565b600061233f7fd625496217aa6a3453eecb9c3489dc5a53e6c67b444329ea2b2cbc9ff547639b60010260001916613230565b905090565b600260009054906101000a900473ffffffffffffffffffffffffffffffffffffffff1681565b60608060006004546040519080825280602002602001820160405280156123a05781602001602082028038833980820191505090505b509150600190505b60045481111515612441576003600082815260200190815260200160002060009054906101000a900473ffffffffffffffffffffffffffffffffffffffff1682600183038151811015156123f857fe5b9060200190602002019073ffffffffffffffffffffffffffffffffffffffff16908173ffffffffffffffffffffffffffffffffffffffff168152505080806001019150506123a8565b819250505090565b600061247b7febb05b386a8d34882b8711d156f463690983dc47815980fb82aeeff1aa43579e6001026000191661323b565b905090565b60008061248c83612302565b6040805190810160405280601281526020017f5245434f5645525f444953414c4c4f574544000000000000000000000000000081525090151561256a576040517f08c379a00000000000000000000000000000000000000000000000000000000081526004018080602001828103825283818151815260200191508051906020019080838360005b8381101561252f578082015181840152602081019050612514565b50505050905090810190601f16801561255c5780820380516001836020036101000a031916815260200191505b509250505060405180910390fd5b5061257361098d565b915061257e82613246565b6040805190810160405280601a81526020017f5245434f5645525f5641554c545f4e4f545f434f4e545241435400000000000081525090151561265c576040517f08c379a00000000000000000000000000000000000000000000000000000000081526004018080602001828103825283818151815260200191508051906020019080838360005b83811015612621578082015181840152602081019050612606565b50505050905090810190601f16801561264e5780820380516001836020036101000a031916815260200191505b509250505060405180910390fd5b50600073ffffffffffffffffffffffffffffffffffffffff168373ffffffffffffffffffffffffffffffffffffffff1614156126f5578173ffffffffffffffffffffffffffffffffffffffff166108fc3073ffffffffffffffffffffffffffffffffffffffff16319081150290604051600060405180830381858888f193505050501580156126ef573d6000803e3d6000fd5b506128ad565b8273ffffffffffffffffffffffffffffffffffffffff166370a08231306040518263ffffffff167c0100000000000000000000000000000000000000000000000000000000028152600401808273ffffffffffffffffffffffffffffffffffffffff1673ffffffffffffffffffffffffffffffffffffffff168152602001915050602060405180830381600087803b15801561279057600080fd5b505af11580156127a4573d6000803e3d6000fd5b505050506040513d60208110156127ba57600080fd5b810190808051906020019092919050505090508273ffffffffffffffffffffffffffffffffffffffff1663a9059cbb83836040518363ffffffff167c0100000000000000000000000000000000000000000000000000000000028152600401808373ffffffffffffffffffffffffffffffffffffffff1673ffffffffffffffffffffffffffffffffffffffff16815260200182815260200192505050602060405180830381600087803b15801561287057600080fd5b505af1158015612884573d6000803e3d6000fd5b505050506040513d602081101561289a57600080fd5b8101908080519060200190929190505050505b505050565b600080606060006128c161081d565b15156128d05760009350612aaf565b6128d861302c565b9250600073ffffffffffffffffffffffffffffffffffffffff168373ffffffffffffffffffffffffffffffffffffffff1614156129185760009350612aaf565b602085510290508491508082528273ffffffffffffffffffffffffffffffffffffffff1663fdef9106883089866040518563ffffffff167c0100000000000000000000000000000000000000000000000000000000028152600401808573ffffffffffffffffffffffffffffffffffffffff1673ffffffffffffffffffffffffffffffffffffffff1681526020018473ffffffffffffffffffffffffffffffffffffffff1673ffffffffffffffffffffffffffffffffffffffff168152602001836000191660001916815260200180602001828103825283818151815260200191508051906020019080838360005b83811015612a22578082015181840152602081019050612a07565b50505050905090810190601f168015612a4f5780820380516001836020036101000a031916815260200191505b5095505050505050602060405180830381600087803b158015612a7157600080fd5b505af1158015612a85573d6000803e3d6000fd5b505050506040513d6020811015612a9b57600080fd5b810190808051906020019092919050505093505b5050509392505050565b600080612ac461302c565b73ffffffffffffffffffffffffffffffffffffffff1663be00bbd87fd6f028ca0e8edb4a8c9757ca4fdccab25fa1e0317da1188108f7d2dee14902fb6001027fddbcfd564f642ab5627cf68b9b7d374fb4f8a36e941a75d89c87998cef03bd616001026040518363ffffffff167c0100000000000000000000000000000000000000000000000000000000028152600401808360001916600019168152602001826000191660001916815260200192505050602060405180830381600087803b158015612b9057600080fd5b505af1158015612ba4573d6000803e3d6000fd5b505050506040513d6020811015612bba57600080fd5b810190808051906020019092919050505090508091505090565b6000612bde612449565b146040805190810160405280601881526020017f494e49545f414c52454144595f494e495449414c495a45440000000000000000815250901515612cbd576040517f08c379a00000000000000000000000000000000000000000000000000000000081526004018080602001828103825283818151815260200191508051906020019080838360005b83811015612c82578082015181840152602081019050612c67565b50505050905090810190601f168015612caf5780820380516001836020036101000a031916815260200191505b509250505060405180910390fd5b50612cc6613298565b826000806101000a81548173ffffffffffffffffffffffffffffffffffffffff021916908373ffffffffffffffffffffffffffffffffffffffff16021790555081600160006101000a81548173ffffffffffffffffffffffffffffffffffffffff021916908373ffffffffffffffffffffffffffffffffffffffff16021790555080600260006101000a81548173ffffffffffffffffffffffffffffffffffffffff021916908373ffffffffffffffffffffffffffffffffffffffff160217905550505050565b6000806000809054906101000a900473ffffffffffffffffffffffffffffffffffffffff1673ffffffffffffffffffffffffffffffffffffffff16630178b8bf846040518263ffffffff167c0100000000000000000000000000000000000000000000000000000000028152600401808260001916600019168152602001915050602060405180830381600087803b158015612e2857600080fd5b505af1158015612e3c573d6000803e3d6000fd5b505050506040513d6020811015612e5257600080fd5b810190808051906020019092919050505073ffffffffffffffffffffffffffffffffffffffff16633b3b57de846040518263ffffffff167c0100000000000000000000000000000000000000000000000000000000028152600401808260001916600019168152602001915050602060405180830381600087803b158015612ed957600080fd5b505af1158015612eed573d6000803e3d6000fd5b505050506040513d6020811015612f0357600080fd5b810190808051906020019092919050505090508073ffffffffffffffffffffffffffffffffffffffff1663c36af4606040518163ffffffff167c0100000000000000000000000000000000000000000000000000000000028152600401600060405180830381600087803b158015612f7a57600080fd5b505af1158015612f8e573d6000803e3d6000fd5b505050506040513d6000823e3d601f19601f8201168201806040525060a0811015612fb857600080fd5b81019080919082606001805190602001909291908051640100000000811115612fe057600080fd5b82810190506020810184811115612ff657600080fd5b815185600182028301116401000000008211171561301357600080fd5b5050929190505050909150508092505081915050919050565b600061305e7f4172f0f7d2289153072b0a6ca36959e0cbe2efc3afe50fc81636caa96338137b600102600019166133c5565b905090565b60007fffffffffffffffffffffffffffffffffffffffffffffffffffffffffffffffff61308e612449565b14905090565b60036020528060005260406000206000915054906101000a900473ffffffffffffffffffffffffffffffffffffffff1681565b60405180807f4445504c4f595f4f5247414e49534d5f524f4c450000000000000000000000008152506014019050604051809103902081565b600043905090565b60007f9065c3e7f7b7ef1ef4e53d2d0b8e0cef02874ab020c1ece79d5f0d3d0111c0ba600102826040518082805190602001908083835b602083101515613164578051825260208201915060208101905060208303925061313f565b6001836020036101000a03801982511681845116808217855250505050505090500191505060405180910390206040516020018083600019166000191681526020018260001916600019168152602001925050506040516020818303038152906040526040518082805190602001908083835b6020831015156131fc57805182526020820191506020810190506020830392506131d7565b6001836020036101000a03801982511681845116808217855250505050505090500191505060405180910390209050919050565b600081549050919050565b600081549050919050565b600080600073ffffffffffffffffffffffffffffffffffffffff168373ffffffffffffffffffffffffffffffffffffffff1614156132875760009150613292565b823b90506000811191505b50919050565b60006132a2612449565b146040805190810160405280601881526020017f494e49545f414c52454144595f494e495449414c495a45440000000000000000815250901515613381576040517f08c379a00000000000000000000000000000000000000000000000000000000081526004018080602001828103825283818151815260200191508051906020019080838360005b8381101561334657808201518184015260208101905061332b565b50505050905090810190601f1680156133735780820380516001836020036101000a031916815260200191505b509250505060405180910390fd5b506133c361338d613100565b7febb05b386a8d34882b8711d156f463690983dc47815980fb82aeeff1aa43579e600102600019166133d090919063ffffffff16565b565b600081549050919050565b8082555050565b6080604051908101604052806004906020820280388339808201915050905050905600a165627a7a72305820eb8d7841b8e613ed3b2d32448200ccb47a36553190111ac4c4a9b046d69007150029",
  "source": "pragma solidity ^0.4.24;\n\nimport \"@aragon/os/contracts/kernel/Kernel.sol\";\nimport \"@aragon/os/contracts/acl/ACL.sol\";\nimport \"@aragon/os/contracts/apps/AragonApp.sol\";\nimport \"@aragon/apps-shared-minime/contracts/MiniMeToken.sol\";\nimport \"@aragon/apps-shared-minime/contracts/ITokenController.sol\";\nimport \"@aragon/os/contracts/lib/ens/ENS.sol\";\nimport \"@aragon/os/contracts/lib/ens/PublicResolver.sol\";\nimport \"@aragon/os/contracts/apm/Repo.sol\";\nimport \"@aragon/os/contracts/apm/APMNamehash.sol\";\nimport \"@pando/core/contracts/lib/Pando.sol\";\nimport \"@pando/organism/contracts/Organism.sol\";\nimport \"@pando/organism/contracts/Lineage.sol\";\nimport \"@pando/organism/contracts/Genesis.sol\";\nimport \"@pando/scheme-democracy/contracts/DemocracyScheme.sol\";\n\n\ncontract Colony is AragonApp, APMNamehash {\n    bytes32 constant public DEPLOY_ORGANISM_ROLE = keccak256(\"DEPLOY_ORGANISM_ROLE\");\n\n    ENS              public ens;\n    ITokenController public tokenManager;\n    DemocracyScheme  public scheme;\n\n    mapping(uint256 => Organism) public organisms;\n    uint256 public organismsLength = 0;\n\n    event DeployOrganism(address organism);\n\n\n    /**\n   * @notice Initialize Colony app with `_ens` as ENS registry, `_tokenManager` as a token manager and `_scheme` as a governance scheme for all upcoming organisms\n   * @param _ens Address of the ENS registry through which to fetch pando apps\n   * @param _tokenManager Token manager through which governance tokens are going to be minted for contributors\n   * @param _scheme Governance scheme for all upcoming organisms\n   */\n    function initialize(ENS _ens, ITokenController _tokenManager, DemocracyScheme _scheme) public onlyInit {\n        initialized();\n\n        ens = _ens;\n        tokenManager = _tokenManager;\n        scheme = _scheme;\n    }\n\n    /**\n   * @notice Deploy a new organism\n   */\n    function deploy() public auth(DEPLOY_ORGANISM_ROLE) {\n        Kernel dao = Kernel(kernel());\n        ACL    acl = ACL(dao.acl());\n\n        bytes32[4] memory apps = [\n            apmNamehash(\"pando\"),   // 0\n            apmNamehash(\"lineage\"), // 1\n            apmNamehash(\"genesis\"), // 2\n            apmNamehash(\"organism\") // 3\n        ];\n\n        organismsLength = organismsLength + 1;\n\n        Pando       pando = Pando(latestVersionAppBase(apps[0]));\n        Lineage   lineage = Lineage(dao.newAppInstance(keccak256(abi.encodePacked(apps[1], organismsLength)), latestVersionAppBase(apps[1])));\n        Genesis   genesis = Genesis(dao.newAppInstance(keccak256(abi.encodePacked(apps[2], organismsLength)), latestVersionAppBase(apps[2])));\n        Organism organism = Organism(dao.newAppInstance(keccak256(abi.encodePacked(apps[3], organismsLength)), latestVersionAppBase(apps[3])));\n\n        organisms[organismsLength] = organism;\n\n        lineage.initialize();\n        genesis.initialize(pando);\n        organism.initialize(pando, genesis, lineage);\n\n        acl.createPermission(organism, lineage, lineage.MINT_ROLE(), msg.sender);\n        acl.createPermission(organism, genesis, genesis.INDIVIDUATE_ROLE(), msg.sender);\n        acl.createPermission(scheme, organism, organism.CREATE_RFI_ROLE(), msg.sender);\n        acl.createPermission(scheme, organism, organism.MERGE_RFI_ROLE(), msg.sender);\n        acl.createPermission(scheme, organism, organism.REJECT_RFI_ROLE(), msg.sender);\n        acl.createPermission(scheme, organism, organism.ACCEPT_RFL_ROLE(), msg.sender);\n        acl.createPermission(scheme, organism, organism.REJECT_RFL_ROLE(), msg.sender);\n\n        emit DeployOrganism(address(organism));\n    }\n\n    function latestVersionAppBase(bytes32 appId) public view returns (address base) {\n        Repo repo = Repo(PublicResolver(ens.resolver(appId)).addr(appId));\n        (, base, ) = repo.getLatest();\n\n        return base;\n    }\n\n    function getOrganisms() public view returns (address[]) {\n        address[] memory all = new address[](organismsLength);\n\n        for (uint i = 1; i <= organismsLength; i++) {\n            all[i - 1] = organisms[i];\n        }\n\n        return all;\n    }\n}\n",
  "sourcePath": "/Users/osarrouy/Documents/devs/@pando/packages/colony/contracts/Colony.sol",
  "compiler": {
    "name": "solc",
    "version": "0.4.24+commit.e67f0147.Emscripten.clang"
  },
  "schemaVersion": "3.0.0-beta.2",
  "updatedAt": "2019-01-12T18:35:21.316Z",
  "devdoc": {
    "methods": {
      "allowRecoverability(address)": {
        "details": "By default deriving from AragonApp makes it recoverable",
        "params": {
          "token": "Token address that would be recovered"
        },
        "return": "bool whether the app allows the recovery"
      },
      "canPerform(address,bytes32,uint256[])": {
        "details": "Check whether an action can be performed by a sender for a particular role on this app",
        "params": {
          "_params": "Permission params for the role",
          "_role": "Role on this app",
          "_sender": "Sender of the call"
        },
        "return": "Boolean indicating whether the sender has the permissions to perform the action.        Always returns false if the app hasn't been initialized yet."
      },
      "getInitializationBlock()": {
        "return": "Block number in which the contract was initialized"
      },
      "getRecoveryVault()": {
        "details": "Get the recovery vault for the app",
        "return": "Recovery vault address for the app"
      },
      "hasInitialized()": {
        "return": "Whether the contract has been initialized by the time of the current block"
      },
      "initialize(address,address,address)": {
        "params": {
          "_ens": "Address of the ENS registry through which to fetch pando apps",
          "_scheme": "Governance scheme for all upcoming organisms",
          "_tokenManager": "Token manager through which governance tokens are going to be minted for contributors"
        }
      },
      "transferToVault(address)": {
        "params": {
          "_token": "Token balance to be sent to recovery vault."
        }
      }
    }
  },
  "userdoc": {
    "methods": {
      "deploy()": {
        "notice": "Deploy a new organism"
      },
      "initialize(address,address,address)": {
        "notice": "Initialize Colony app with `_ens` as ENS registry, `_tokenManager` as a token manager and `_scheme` as a governance scheme for all upcoming organisms"
      },
      "transferToVault(address)": {
        "notice": "Send funds to recovery Vault. This contract should never receive funds,        but in case it does, this function allows one to recover them."
      }
    }
  }
}