{
  "contractName": "Colony",
  "abi": [
    {
      "constant": true,
      "inputs": [],
      "name": "lineageAppId",
      "outputs": [
        {
          "name": "",
          "type": "bytes32"
        }
      ],
      "payable": false,
      "stateMutability": "view",
      "type": "function"
    },
    {
      "constant": true,
      "inputs": [],
      "name": "hasInitialized",
      "outputs": [
        {
          "name": "",
          "type": "bool"
        }
      ],
      "payable": false,
      "stateMutability": "view",
      "type": "function"
    },
    {
      "constant": true,
      "inputs": [],
      "name": "lineageBase",
      "outputs": [
        {
          "name": "",
          "type": "address"
        }
      ],
      "payable": false,
      "stateMutability": "view",
      "type": "function"
    },
    {
      "constant": true,
      "inputs": [],
      "name": "organismBase",
      "outputs": [
        {
          "name": "",
          "type": "address"
        }
      ],
      "payable": false,
      "stateMutability": "view",
      "type": "function"
    },
    {
      "constant": true,
      "inputs": [
        {
          "name": "_script",
          "type": "bytes"
        }
      ],
      "name": "getEVMScriptExecutor",
      "outputs": [
        {
          "name": "",
          "type": "address"
        }
      ],
      "payable": false,
      "stateMutability": "view",
      "type": "function"
    },
    {
      "constant": true,
      "inputs": [],
      "name": "getRecoveryVault",
      "outputs": [
        {
          "name": "",
          "type": "address"
        }
      ],
      "payable": false,
      "stateMutability": "view",
      "type": "function"
    },
    {
      "constant": true,
      "inputs": [],
      "name": "ens",
      "outputs": [
        {
          "name": "",
          "type": "address"
        }
      ],
      "payable": false,
      "stateMutability": "view",
      "type": "function"
    },
    {
      "constant": true,
      "inputs": [],
      "name": "organismAppId",
      "outputs": [
        {
          "name": "",
          "type": "bytes32"
        }
      ],
      "payable": false,
      "stateMutability": "view",
      "type": "function"
    },
    {
      "constant": true,
      "inputs": [],
      "name": "organismsLength",
      "outputs": [
        {
          "name": "",
          "type": "uint256"
        }
      ],
      "payable": false,
      "stateMutability": "view",
      "type": "function"
    },
    {
      "constant": true,
      "inputs": [
        {
          "name": "token",
          "type": "address"
        }
      ],
      "name": "allowRecoverability",
      "outputs": [
        {
          "name": "",
          "type": "bool"
        }
      ],
      "payable": false,
      "stateMutability": "view",
      "type": "function"
    },
    {
      "constant": true,
      "inputs": [],
      "name": "appId",
      "outputs": [
        {
          "name": "",
          "type": "bytes32"
        }
      ],
      "payable": false,
      "stateMutability": "view",
      "type": "function"
    },
    {
      "constant": true,
      "inputs": [],
      "name": "getInitializationBlock",
      "outputs": [
        {
          "name": "",
          "type": "uint256"
        }
      ],
      "payable": false,
      "stateMutability": "view",
      "type": "function"
    },
    {
      "constant": false,
      "inputs": [
        {
          "name": "_token",
          "type": "address"
        }
      ],
      "name": "transferToVault",
      "outputs": [],
      "payable": false,
      "stateMutability": "nonpayable",
      "type": "function"
    },
    {
      "constant": true,
      "inputs": [
        {
          "name": "_sender",
          "type": "address"
        },
        {
          "name": "_role",
          "type": "bytes32"
        },
        {
          "name": "_params",
          "type": "uint256[]"
        }
      ],
      "name": "canPerform",
      "outputs": [
        {
          "name": "",
          "type": "bool"
        }
      ],
      "payable": false,
      "stateMutability": "view",
      "type": "function"
    },
    {
      "constant": true,
      "inputs": [],
      "name": "getEVMScriptRegistry",
      "outputs": [
        {
          "name": "",
          "type": "address"
        }
      ],
      "payable": false,
      "stateMutability": "view",
      "type": "function"
    },
    {
      "constant": true,
      "inputs": [],
      "name": "kernel",
      "outputs": [
        {
          "name": "",
          "type": "address"
        }
      ],
      "payable": false,
      "stateMutability": "view",
      "type": "function"
    },
    {
      "constant": true,
      "inputs": [],
      "name": "genesisBase",
      "outputs": [
        {
          "name": "",
          "type": "address"
        }
      ],
      "payable": false,
      "stateMutability": "view",
      "type": "function"
    },
    {
      "constant": true,
      "inputs": [],
      "name": "isPetrified",
      "outputs": [
        {
          "name": "",
          "type": "bool"
        }
      ],
      "payable": false,
      "stateMutability": "view",
      "type": "function"
    },
    {
      "constant": true,
      "inputs": [
        {
          "name": "",
          "type": "uint256"
        }
      ],
      "name": "organisms",
      "outputs": [
        {
          "name": "",
          "type": "address"
        }
      ],
      "payable": false,
      "stateMutability": "view",
      "type": "function"
    },
    {
      "constant": true,
      "inputs": [],
      "name": "genesisAppId",
      "outputs": [
        {
          "name": "",
          "type": "bytes32"
        }
      ],
      "payable": false,
      "stateMutability": "view",
      "type": "function"
    },
    {
      "constant": true,
      "inputs": [],
      "name": "DEPLOY_ORGANISM_ROLE",
      "outputs": [
        {
          "name": "",
          "type": "bytes32"
        }
      ],
      "payable": false,
      "stateMutability": "view",
      "type": "function"
    },
    {
      "anonymous": false,
      "inputs": [
        {
          "indexed": false,
          "name": "organism",
          "type": "address"
        }
      ],
      "name": "DeployOrganism",
      "type": "event"
    },
    {
      "anonymous": false,
      "inputs": [
        {
          "indexed": true,
          "name": "executor",
          "type": "address"
        },
        {
          "indexed": false,
          "name": "script",
          "type": "bytes"
        },
        {
          "indexed": false,
          "name": "input",
          "type": "bytes"
        },
        {
          "indexed": false,
          "name": "returnData",
          "type": "bytes"
        }
      ],
      "name": "ScriptResult",
      "type": "event"
    },
    {
      "constant": false,
      "inputs": [
        {
          "name": "_ens",
          "type": "address"
        }
      ],
      "name": "initialize",
      "outputs": [],
      "payable": false,
      "stateMutability": "nonpayable",
      "type": "function"
    },
    {
      "constant": false,
      "inputs": [],
      "name": "deploy",
      "outputs": [],
      "payable": false,
      "stateMutability": "nonpayable",
      "type": "function"
    }
  ],
  "bytecode": "0x608060405260006005556200002262000028640100000000026401000000009004565b6200030e565b60006200004362000163640100000000026401000000009004565b146040805190810160405280601881526020017f494e49545f414c52454144595f494e495449414c495a4544000000000000000081525090151562000126576040517f08c379a00000000000000000000000000000000000000000000000000000000081526004018080602001828103825283818151815260200191508051906020019080838360005b83811015620000ea578082015181840152602081019050620000cd565b50505050905090810190601f168015620001185780820380516001836020036101000a031916815260200191505b509250505060405180910390fd5b50620001617fffffffffffffffffffffffffffffffffffffffffffffffffffffffffffffffff620001b0640100000000026401000000009004565b565b6000620001ab7febb05b386a8d34882b8711d156f463690983dc47815980fb82aeeff1aa43579e60010260001916620002fc6401000000000262002145176401000000009004565b905090565b6000620001cb62000163640100000000026401000000009004565b146040805190810160405280601881526020017f494e49545f414c52454144595f494e495449414c495a45440000000000000000815250901515620002ae576040517f08c379a00000000000000000000000000000000000000000000000000000000081526004018080602001828103825283818151815260200191508051906020019080838360005b838110156200027257808201518184015260208101905062000255565b50505050905090810190601f168015620002a05780820380516001836020036101000a031916815260200191505b509250505060405180910390fd5b50620002f9817febb05b386a8d34882b8711d156f463690983dc47815980fb82aeeff1aa43579e600102600019166200030764010000000002620022da179091906401000000009004565b50565b600081549050919050565b8082555050565b61230d806200031e6000396000f300608060405260043610610133576000357c0100000000000000000000000000000000000000000000000000000000900463ffffffff168063030c832a146101385780630803fac01461016b5780632222ae9e1461019a57806322dedf7c146101f15780632914b9bd1461024857806332f0a3b5146102f15780633f15457f1461034857806373bc77c81461039f578063775c300c146103d25780637b9059ea146103e95780637e7db6e11461041457806380afdea81461046f5780638b3dd749146104a25780639d4941d8146104cd578063a1658fad14610510578063a479e508146105bc578063c4d66de814610613578063d4aae0c414610656578063da0424d9146106ad578063de4796ed14610704578063e75e6b5714610733578063f1ff67ed146107a0578063f8c9ff31146107d3575b600080fd5b34801561014457600080fd5b5061014d610806565b60405180826000191660001916815260200191505060405180910390f35b34801561017757600080fd5b50610180610847565b604051808215151515815260200191505060405180910390f35b3480156101a657600080fd5b506101af610872565b604051808273ffffffffffffffffffffffffffffffffffffffff1673ffffffffffffffffffffffffffffffffffffffff16815260200191505060405180910390f35b3480156101fd57600080fd5b50610206610898565b604051808273ffffffffffffffffffffffffffffffffffffffff1673ffffffffffffffffffffffffffffffffffffffff16815260200191505060405180910390f35b34801561025457600080fd5b506102af600480360381019080803590602001908201803590602001908080601f01602080910402602001604051908101604052809392919081815260200183838082843782019150505050505091929192905050506108be565b604051808273ffffffffffffffffffffffffffffffffffffffff1673ffffffffffffffffffffffffffffffffffffffff16815260200191505060405180910390f35b3480156102fd57600080fd5b506103066109dd565b604051808273ffffffffffffffffffffffffffffffffffffffff1673ffffffffffffffffffffffffffffffffffffffff16815260200191505060405180910390f35b34801561035457600080fd5b5061035d610a8a565b604051808273ffffffffffffffffffffffffffffffffffffffff1673ffffffffffffffffffffffffffffffffffffffff16815260200191505060405180910390f35b3480156103ab57600080fd5b506103b4610aaf565b60405180826000191660001916815260200191505060405180910390f35b3480156103de57600080fd5b506103e7610af0565b005b3480156103f557600080fd5b506103fe610bc8565b6040518082815260200191505060405180910390f35b34801561042057600080fd5b50610455600480360381019080803573ffffffffffffffffffffffffffffffffffffffff169060200190929190505050610bce565b604051808215151515815260200191505060405180910390f35b34801561047b57600080fd5b50610484610bd9565b60405180826000191660001916815260200191505060405180910390f35b3480156104ae57600080fd5b506104b7610c10565b6040518082815260200191505060405180910390f35b3480156104d957600080fd5b5061050e600480360381019080803573ffffffffffffffffffffffffffffffffffffffff169060200190929190505050610c47565b005b34801561051c57600080fd5b506105a2600480360381019080803573ffffffffffffffffffffffffffffffffffffffff169060200190929190803560001916906020019092919080359060200190820180359060200190808060200260200160405190810160405280939291908181526020018383602002808284378201915050505050509192919290505050611079565b604051808215151515815260200191505060405180910390f35b3480156105c857600080fd5b506105d1611280565b604051808273ffffffffffffffffffffffffffffffffffffffff1673ffffffffffffffffffffffffffffffffffffffff16815260200191505060405180910390f35b34801561061f57600080fd5b50610654600480360381019080803573ffffffffffffffffffffffffffffffffffffffff16906020019092919050505061139b565b005b34801561066257600080fd5b5061066b611ecf565b604051808273ffffffffffffffffffffffffffffffffffffffff1673ffffffffffffffffffffffffffffffffffffffff16815260200191505060405180910390f35b3480156106b957600080fd5b506106c2611f06565b604051808273ffffffffffffffffffffffffffffffffffffffff1673ffffffffffffffffffffffffffffffffffffffff16815260200191505060405180910390f35b34801561071057600080fd5b50610719611f2c565b604051808215151515815260200191505060405180910390f35b34801561073f57600080fd5b5061075e60048036038101908080359060200190929190505050611f5d565b604051808273ffffffffffffffffffffffffffffffffffffffff1673ffffffffffffffffffffffffffffffffffffffff16815260200191505060405180910390f35b3480156107ac57600080fd5b506107b5611f90565b60405180826000191660001916815260200191505060405180910390f35b3480156107df57600080fd5b506107e8611fd1565b60405180826000191660001916815260200191505060405180910390f35b6108446040805190810160405280600781526020017f6c696e656167650000000000000000000000000000000000000000000000000081525061200a565b81565b600080610852610c10565b90506000811415801561086c575080610869612132565b10155b91505090565b600160009054906101000a900473ffffffffffffffffffffffffffffffffffffffff1681565b600360009054906101000a900473ffffffffffffffffffffffffffffffffffffffff1681565b60006108c8611280565b73ffffffffffffffffffffffffffffffffffffffff166304bf2a7f836040518263ffffffff167c01000000000000000000000000000000000000000000000000000000000281526004018080602001828103825283818151815260200191508051906020019080838360005b8381101561094f578082015181840152602081019050610934565b50505050905090810190601f16801561097c5780820380516001836020036101000a031916815260200191505b5092505050602060405180830381600087803b15801561099b57600080fd5b505af11580156109af573d6000803e3d6000fd5b505050506040513d60208110156109c557600080fd5b81019080805190602001909291905050509050919050565b60006109e7611ecf565b73ffffffffffffffffffffffffffffffffffffffff166332f0a3b56040518163ffffffff167c0100000000000000000000000000000000000000000000000000000000028152600401602060405180830381600087803b158015610a4a57600080fd5b505af1158015610a5e573d6000803e3d6000fd5b505050506040513d6020811015610a7457600080fd5b8101908080519060200190929190505050905090565b6000809054906101000a900473ffffffffffffffffffffffffffffffffffffffff1681565b610aed6040805190810160405280600881526020017f6f7267616e69736d00000000000000000000000000000000000000000000000081525061200a565b81565b6000806000610afd611ecf565b92508273ffffffffffffffffffffffffffffffffffffffff1663de2873596040518163ffffffff167c0100000000000000000000000000000000000000000000000000000000028152600401602060405180830381600087803b158015610b6357600080fd5b505af1158015610b77573d6000803e3d6000fd5b505050506040513d6020811015610b8d57600080fd5b810190808051906020019092919050505091507fffffffffffffffffffffffffffffffffffffffffffffffffffffffffffffffff9050505050565b60055481565b600060019050919050565b6000610c0b7fd625496217aa6a3453eecb9c3489dc5a53e6c67b444329ea2b2cbc9ff547639b6001026000191661213a565b905090565b6000610c427febb05b386a8d34882b8711d156f463690983dc47815980fb82aeeff1aa43579e60010260001916612145565b905090565b600080610c5383610bce565b6040805190810160405280601281526020017f5245434f5645525f444953414c4c4f5745440000000000000000000000000000815250901515610d31576040517f08c379a00000000000000000000000000000000000000000000000000000000081526004018080602001828103825283818151815260200191508051906020019080838360005b83811015610cf6578082015181840152602081019050610cdb565b50505050905090810190601f168015610d235780820380516001836020036101000a031916815260200191505b509250505060405180910390fd5b50610d3a6109dd565b9150610d4582612150565b6040805190810160405280601a81526020017f5245434f5645525f5641554c545f4e4f545f434f4e5452414354000000000000815250901515610e23576040517f08c379a00000000000000000000000000000000000000000000000000000000081526004018080602001828103825283818151815260200191508051906020019080838360005b83811015610de8578082015181840152602081019050610dcd565b50505050905090810190601f168015610e155780820380516001836020036101000a031916815260200191505b509250505060405180910390fd5b50600073ffffffffffffffffffffffffffffffffffffffff168373ffffffffffffffffffffffffffffffffffffffff161415610ebc578173ffffffffffffffffffffffffffffffffffffffff166108fc3073ffffffffffffffffffffffffffffffffffffffff16319081150290604051600060405180830381858888f19350505050158015610eb6573d6000803e3d6000fd5b50611074565b8273ffffffffffffffffffffffffffffffffffffffff166370a08231306040518263ffffffff167c0100000000000000000000000000000000000000000000000000000000028152600401808273ffffffffffffffffffffffffffffffffffffffff1673ffffffffffffffffffffffffffffffffffffffff168152602001915050602060405180830381600087803b158015610f5757600080fd5b505af1158015610f6b573d6000803e3d6000fd5b505050506040513d6020811015610f8157600080fd5b810190808051906020019092919050505090508273ffffffffffffffffffffffffffffffffffffffff1663a9059cbb83836040518363ffffffff167c0100000000000000000000000000000000000000000000000000000000028152600401808373ffffffffffffffffffffffffffffffffffffffff1673ffffffffffffffffffffffffffffffffffffffff16815260200182815260200192505050602060405180830381600087803b15801561103757600080fd5b505af115801561104b573d6000803e3d6000fd5b505050506040513d602081101561106157600080fd5b8101908080519060200190929190505050505b505050565b60008060606000611088610847565b15156110975760009350611276565b61109f611ecf565b9250600073ffffffffffffffffffffffffffffffffffffffff168373ffffffffffffffffffffffffffffffffffffffff1614156110df5760009350611276565b602085510290508491508082528273ffffffffffffffffffffffffffffffffffffffff1663fdef9106883089866040518563ffffffff167c0100000000000000000000000000000000000000000000000000000000028152600401808573ffffffffffffffffffffffffffffffffffffffff1673ffffffffffffffffffffffffffffffffffffffff1681526020018473ffffffffffffffffffffffffffffffffffffffff1673ffffffffffffffffffffffffffffffffffffffff168152602001836000191660001916815260200180602001828103825283818151815260200191508051906020019080838360005b838110156111e95780820151818401526020810190506111ce565b50505050905090810190601f1680156112165780820380516001836020036101000a031916815260200191505b5095505050505050602060405180830381600087803b15801561123857600080fd5b505af115801561124c573d6000803e3d6000fd5b505050506040513d602081101561126257600080fd5b810190808051906020019092919050505093505b5050509392505050565b60008061128b611ecf565b73ffffffffffffffffffffffffffffffffffffffff1663be00bbd87fd6f028ca0e8edb4a8c9757ca4fdccab25fa1e0317da1188108f7d2dee14902fb6001027fddbcfd564f642ab5627cf68b9b7d374fb4f8a36e941a75d89c87998cef03bd616001026040518363ffffffff167c0100000000000000000000000000000000000000000000000000000000028152600401808360001916600019168152602001826000191660001916815260200192505050602060405180830381600087803b15801561135757600080fd5b505af115801561136b573d6000803e3d6000fd5b505050506040513d602081101561138157600080fd5b810190808051906020019092919050505090508091505090565b60008060008060008060006113ae610c10565b146040805190810160405280601881526020017f494e49545f414c52454144595f494e495449414c495a4544000000000000000081525090151561148d576040517f08c379a00000000000000000000000000000000000000000000000000000000081526004018080602001828103825283818151815260200191508051906020019080838360005b83811015611452578082015181840152602081019050611437565b50505050905090810190601f16801561147f5780820380516001836020036101000a031916815260200191505b509250505060405180910390fd5b506114966121a2565b866000806101000a81548173ffffffffffffffffffffffffffffffffffffffff021916908373ffffffffffffffffffffffffffffffffffffffff1602179055506000809054906101000a900473ffffffffffffffffffffffffffffffffffffffff1673ffffffffffffffffffffffffffffffffffffffff16630178b8bf6115516040805190810160405280600781526020017f6c696e656167650000000000000000000000000000000000000000000000000081525061200a565b6040518263ffffffff167c0100000000000000000000000000000000000000000000000000000000028152600401808260001916600019168152602001915050602060405180830381600087803b1580156115ab57600080fd5b505af11580156115bf573d6000803e3d6000fd5b505050506040513d60208110156115d557600080fd5b810190808051906020019092919050505095506000809054906101000a900473ffffffffffffffffffffffffffffffffffffffff1673ffffffffffffffffffffffffffffffffffffffff16630178b8bf6116636040805190810160405280600781526020017f67656e657369730000000000000000000000000000000000000000000000000081525061200a565b6040518263ffffffff167c0100000000000000000000000000000000000000000000000000000000028152600401808260001916600019168152602001915050602060405180830381600087803b1580156116bd57600080fd5b505af11580156116d1573d6000803e3d6000fd5b505050506040513d60208110156116e757600080fd5b810190808051906020019092919050505094506000809054906101000a900473ffffffffffffffffffffffffffffffffffffffff1673ffffffffffffffffffffffffffffffffffffffff16630178b8bf6117756040805190810160405280600881526020017f6f7267616e69736d00000000000000000000000000000000000000000000000081525061200a565b6040518263ffffffff167c0100000000000000000000000000000000000000000000000000000000028152600401808260001916600019168152602001915050602060405180830381600087803b1580156117cf57600080fd5b505af11580156117e3573d6000803e3d6000fd5b505050506040513d60208110156117f957600080fd5b810190808051906020019092919050505093508573ffffffffffffffffffffffffffffffffffffffff16633b3b57de6118666040805190810160405280600781526020017f6c696e656167650000000000000000000000000000000000000000000000000081525061200a565b6040518263ffffffff167c0100000000000000000000000000000000000000000000000000000000028152600401808260001916600019168152602001915050602060405180830381600087803b1580156118c057600080fd5b505af11580156118d4573d6000803e3d6000fd5b505050506040513d60208110156118ea57600080fd5b810190808051906020019092919050505092508473ffffffffffffffffffffffffffffffffffffffff16633b3b57de6119576040805190810160405280600781526020017f67656e657369730000000000000000000000000000000000000000000000000081525061200a565b6040518263ffffffff167c0100000000000000000000000000000000000000000000000000000000028152600401808260001916600019168152602001915050602060405180830381600087803b1580156119b157600080fd5b505af11580156119c5573d6000803e3d6000fd5b505050506040513d60208110156119db57600080fd5b810190808051906020019092919050505091508373ffffffffffffffffffffffffffffffffffffffff16633b3b57de611a486040805190810160405280600881526020017f6f7267616e69736d00000000000000000000000000000000000000000000000081525061200a565b6040518263ffffffff167c0100000000000000000000000000000000000000000000000000000000028152600401808260001916600019168152602001915050602060405180830381600087803b158015611aa257600080fd5b505af1158015611ab6573d6000803e3d6000fd5b505050506040513d6020811015611acc57600080fd5b810190808051906020019092919050505090508273ffffffffffffffffffffffffffffffffffffffff1663c36af4606040518163ffffffff167c0100000000000000000000000000000000000000000000000000000000028152600401600060405180830381600087803b158015611b4357600080fd5b505af1158015611b57573d6000803e3d6000fd5b505050506040513d6000823e3d601f19601f8201168201806040525060a0811015611b8157600080fd5b81019080919082606001805190602001909291908051640100000000811115611ba957600080fd5b82810190506020810184811115611bbf57600080fd5b8151856001820283011164010000000082111715611bdc57600080fd5b505092919050505090915050600160008291906101000a81548173ffffffffffffffffffffffffffffffffffffffff021916908373ffffffffffffffffffffffffffffffffffffffff160217905550508173ffffffffffffffffffffffffffffffffffffffff1663c36af4606040518163ffffffff167c0100000000000000000000000000000000000000000000000000000000028152600401600060405180830381600087803b158015611c9057600080fd5b505af1158015611ca4573d6000803e3d6000fd5b505050506040513d6000823e3d601f19601f8201168201806040525060a0811015611cce57600080fd5b81019080919082606001805190602001909291908051640100000000811115611cf657600080fd5b82810190506020810184811115611d0c57600080fd5b8151856001820283011164010000000082111715611d2957600080fd5b505092919050505090915050600260008291906101000a81548173ffffffffffffffffffffffffffffffffffffffff021916908373ffffffffffffffffffffffffffffffffffffffff160217905550508073ffffffffffffffffffffffffffffffffffffffff1663c36af4606040518163ffffffff167c0100000000000000000000000000000000000000000000000000000000028152600401600060405180830381600087803b158015611ddd57600080fd5b505af1158015611df1573d6000803e3d6000fd5b505050506040513d6000823e3d601f19601f8201168201806040525060a0811015611e1b57600080fd5b81019080919082606001805190602001909291908051640100000000811115611e4357600080fd5b82810190506020810184811115611e5957600080fd5b8151856001820283011164010000000082111715611e7657600080fd5b505092919050505090915050600360008291906101000a81548173ffffffffffffffffffffffffffffffffffffffff021916908373ffffffffffffffffffffffffffffffffffffffff1602179055505050505050505050565b6000611f017f4172f0f7d2289153072b0a6ca36959e0cbe2efc3afe50fc81636caa96338137b600102600019166122cf565b905090565b600260009054906101000a900473ffffffffffffffffffffffffffffffffffffffff1681565b60007fffffffffffffffffffffffffffffffffffffffffffffffffffffffffffffffff611f57610c10565b14905090565b60046020528060005260406000206000915054906101000a900473ffffffffffffffffffffffffffffffffffffffff1681565b611fce6040805190810160405280600781526020017f67656e657369730000000000000000000000000000000000000000000000000081525061200a565b81565b60405180807f4445504c4f595f4f5247414e49534d5f524f4c450000000000000000000000008152506014019050604051809103902081565b60007f9065c3e7f7b7ef1ef4e53d2d0b8e0cef02874ab020c1ece79d5f0d3d0111c0ba600102826040518082805190602001908083835b6020831015156120665780518252602082019150602081019050602083039250612041565b6001836020036101000a03801982511681845116808217855250505050505090500191505060405180910390206040516020018083600019166000191681526020018260001916600019168152602001925050506040516020818303038152906040526040518082805190602001908083835b6020831015156120fe57805182526020820191506020810190506020830392506120d9565b6001836020036101000a03801982511681845116808217855250505050505090500191505060405180910390209050919050565b600043905090565b600081549050919050565b600081549050919050565b600080600073ffffffffffffffffffffffffffffffffffffffff168373ffffffffffffffffffffffffffffffffffffffff161415612191576000915061219c565b823b90506000811191505b50919050565b60006121ac610c10565b146040805190810160405280601881526020017f494e49545f414c52454144595f494e495449414c495a4544000000000000000081525090151561228b576040517f08c379a00000000000000000000000000000000000000000000000000000000081526004018080602001828103825283818151815260200191508051906020019080838360005b83811015612250578082015181840152602081019050612235565b50505050905090810190601f16801561227d5780820380516001836020036101000a031916815260200191505b509250505060405180910390fd5b506122cd612297612132565b7febb05b386a8d34882b8711d156f463690983dc47815980fb82aeeff1aa43579e600102600019166122da90919063ffffffff16565b565b600081549050919050565b80825550505600a165627a7a72305820bcd58e38ea4ce8793c50136733260da21e034ba7e891045dbbe8bd0de3f98c590029",
  "source": "pragma solidity ^0.4.24;\n\nimport \"@aragon/os/contracts/kernel/Kernel.sol\";\nimport \"@aragon/os/contracts/acl/ACL.sol\";\nimport \"@aragon/os/contracts/apps/AragonApp.sol\";\nimport \"@aragon/os/contracts/lib/ens/ENS.sol\";\nimport \"@aragon/os/contracts/lib/ens/PublicResolver.sol\";\nimport \"@aragon/os/contracts/apm/Repo.sol\";\nimport \"@aragon/os/contracts/apm/APMNamehash.sol\";\nimport \"@pando/organism/contracts/Organism.sol\";\n\n\n/* ENS: 0x5f6f7e8cc7346a11ca2def8f827b7a0b612c56a1 */\n\ncontract Colony is AragonApp, APMNamehash {\n\n    bytes32 constant public DEPLOY_ORGANISM_ROLE = keccak256(\"DEPLOY_ORGANISM_ROLE\");\n\n    address constant ANY_ENTITY = address(-1);\n\n    bytes32 constant public lineageAppId  = apmNamehash(\"lineage\");\n    bytes32 constant public genesisAppId  = apmNamehash(\"genesis\");\n    bytes32 constant public organismAppId = apmNamehash(\"organism\");\n\n    ENS public ens;\n\n    address public lineageBase;\n    address public genesisBase;\n    address public organismBase;\n\n    mapping(uint256 => Organism) public organisms;\n    uint256 public organismsLength = 0;\n\n\n    event DeployOrganism(address organism);\n\n    function initialize(ENS _ens) onlyInit public {\n        initialized();\n\n        ens = _ens;\n\n        PublicResolver resolver_1 = PublicResolver(ens.resolver(lineageAppId));\n        PublicResolver resolver_2 = PublicResolver(ens.resolver(genesisAppId));\n        PublicResolver resolver_3 = PublicResolver(ens.resolver(organismAppId));\n\n        Repo repo_1 = Repo(resolver_1.addr(lineageAppId));\n        Repo repo_2 = Repo(resolver_2.addr(genesisAppId));\n        Repo repo_3 = Repo(resolver_3.addr(organismAppId));\n\n        (,lineageBase,)  = repo_1.getLatest();\n        (,genesisBase,)  = repo_2.getLatest();\n        (,organismBase,) = repo_3.getLatest();\n    }\n\n    function deploy() public {\n      Kernel dao = Kernel(kernel());\n      ACL    acl = ACL(dao.acl());\n\n      address ANY_ENTITY = address(-1);\n\n      // MiniMeToken\n      /* const token = await MiniMeToken.new(ADDR_NULL, ADDR_NULL, 0, 'Native Lineage Token', 0, 'NLT', true) */\n      /* // Genesis\n      const receipt_2 = await dao.methods['newAppInstance(bytes32,address)']('0x0001', (await Genesis.new()).address, { from: root })\n      const genesis   = await Genesis.at(receipt_2.logs.filter(l => l.event == 'NewAppProxy')[0].args.proxy)\n      await genesis.initialize()\n      // Lineage\n      const receipt_3 = await dao.methods['newAppInstance(bytes32,address)']('0x0002', (await Lineage.new()).address, { from: root })\n      const lineage   = await Lineage.at(receipt_3.logs.filter(l => l.event == 'NewAppProxy')[0].args.proxy)\n      await token.changeController(lineage.address)\n      await lineage.initialize(token.address)\n      // Organism\n      const receipt_4 = await dao.methods['newAppInstance(bytes32,address)']('0x0003', (await Organism.new()).address, { from: root })\n      const organism       = await Organism.at(receipt_4.logs.filter(l => l.event == 'NewAppProxy')[0].args.proxy)\n      await acl.createPermission(organism.address, genesis.address, await genesis.INDIVIDUATE_ROLE(), root, { from: root })\n      await acl.createPermission(organism.address, lineage.address, await lineage.MINT_ROLE(), root, { from: root })\n      await acl.createPermission(organism.address, lineage.address, await lineage.BURN_ROLE(), root, { from: root })\n      await acl.createPermission(authorized, organism.address, await organism.CREATE_RFI_ROLE(), root, { from: root })\n      await acl.createPermission(authorized, organism.address, await organism.MERGE_RFI_ROLE(), root, { from: root })\n      await acl.createPermission(authorized, organism.address, await organism.REJECT_RFI_ROLE(), root, { from: root })\n      await acl.createPermission(authorized, organism.address, await organism.ACCEPT_RFL_ROLE(), root, { from: root })\n      await acl.createPermission(authorized, organism.address, await organism.REJECT_RFL_ROLE(), root, { from: root })\n      await organism.initialize(genesis.address, lineage.address, { from: root }) */\n\n      /* MiniMeToken token = new MiniMeToken(address(0), address(0), 0, 'Native Lineage Token', 0, 'NLT', true);\n      Lineage lineage   = Lineage(dao.newAppInstance(lineageAppId, lineageBase));\n      Genesis genesis   = Genesis(dao.newAppInstance(genesisAppId, genesisBase));\n      Organism organism = Organism(dao.newAppInstance(organismAppId, organismBase)); */\n\n      /* acl.createPermission(organism, genesis, genesis.INDIVIDUATE_ROLE());\n      acl.createPermission(organism, lineage, lineage.MINT_ROLE());\n      acl.createPermission(organism, lineage, lineage.BURN_ROLE());\n      acl.createPermission(authorized, organism, organism.CREATE_RFI_ROLE());\n      acl.createPermission(authorized, organism, organism.MERGE_RFI_ROLE());\n      acl.createPermission(authorized, organism, organism.REJECT_RFI_ROLE());\n      acl.createPermission(authorized, organism, organism.ACCEPT_RFL_ROLE());\n      acl.createPermission(authorized, organism, organism.REJECT_RFL_ROLE()); */\n\n      /* token.generateTokens(msg.sender, 1);\n      token.changeController(lineage);\n      lineage.initialize(token);\n      genesis.initialize();\n      organism.initialize(genesis, lineage); */\n\n\n      /* organismsLength = organismsLength + 1;\n      organisms[organismsLength] = organism; */\n\n      /* emit DeployOrganism(address(organism)); */\n    }\n}\n",
  "sourcePath": "/Users/osarrouy/Documents/dapp/@pando/packages/colony/contracts/Colony.sol",
  "compiler": {
    "name": "solc",
    "version": "0.4.24+commit.e67f0147.Emscripten.clang"
  },
  "schemaVersion": "3.0.0-beta.2",
  "updatedAt": "2018-12-05T17:00:50.331Z",
  "devdoc": {
    "methods": {
      "allowRecoverability(address)": {
        "details": "By default deriving from AragonApp makes it recoverable",
        "params": {
          "token": "Token address that would be recovered"
        },
        "return": "bool whether the app allows the recovery"
      },
      "canPerform(address,bytes32,uint256[])": {
        "details": "Check whether an action can be performed by a sender for a particular role on this app",
        "params": {
          "_params": "Permission params for the role",
          "_role": "Role on this app",
          "_sender": "Sender of the call"
        },
        "return": "Boolean indicating whether the sender has the permissions to perform the action.        Always returns false if the app hasn't been initialized yet."
      },
      "getInitializationBlock()": {
        "return": "Block number in which the contract was initialized"
      },
      "getRecoveryVault()": {
        "details": "Get the recovery vault for the app",
        "return": "Recovery vault address for the app"
      },
      "hasInitialized()": {
        "return": "Whether the contract has been initialized by the time of the current block"
      },
      "transferToVault(address)": {
        "params": {
          "_token": "Token balance to be sent to recovery vault."
        }
      }
    }
  },
  "userdoc": {
    "methods": {
      "transferToVault(address)": {
        "notice": "Send funds to recovery Vault. This contract should never receive funds,        but in case it does, this function allows one to recover them."
      }
    }
  }
}