{
  "contractName": "Colony",
  "abi": [
    {
      "constant": true,
      "inputs": [],
      "name": "lineageAppId",
      "outputs": [
        {
          "name": "",
          "type": "bytes32"
        }
      ],
      "payable": false,
      "stateMutability": "view",
      "type": "function"
    },
    {
      "constant": true,
      "inputs": [],
      "name": "hasInitialized",
      "outputs": [
        {
          "name": "",
          "type": "bool"
        }
      ],
      "payable": false,
      "stateMutability": "view",
      "type": "function"
    },
    {
      "constant": true,
      "inputs": [],
      "name": "lineageBase",
      "outputs": [
        {
          "name": "",
          "type": "address"
        }
      ],
      "payable": false,
      "stateMutability": "view",
      "type": "function"
    },
    {
      "constant": true,
      "inputs": [],
      "name": "organismBase",
      "outputs": [
        {
          "name": "",
          "type": "address"
        }
      ],
      "payable": false,
      "stateMutability": "view",
      "type": "function"
    },
    {
      "constant": true,
      "inputs": [
        {
          "name": "_script",
          "type": "bytes"
        }
      ],
      "name": "getEVMScriptExecutor",
      "outputs": [
        {
          "name": "",
          "type": "address"
        }
      ],
      "payable": false,
      "stateMutability": "view",
      "type": "function"
    },
    {
      "constant": true,
      "inputs": [],
      "name": "tokenManager",
      "outputs": [
        {
          "name": "",
          "type": "address"
        }
      ],
      "payable": false,
      "stateMutability": "view",
      "type": "function"
    },
    {
      "constant": true,
      "inputs": [],
      "name": "getRecoveryVault",
      "outputs": [
        {
          "name": "",
          "type": "address"
        }
      ],
      "payable": false,
      "stateMutability": "view",
      "type": "function"
    },
    {
      "constant": true,
      "inputs": [],
      "name": "ens",
      "outputs": [
        {
          "name": "",
          "type": "address"
        }
      ],
      "payable": false,
      "stateMutability": "view",
      "type": "function"
    },
    {
      "constant": true,
      "inputs": [],
      "name": "organismAppId",
      "outputs": [
        {
          "name": "",
          "type": "bytes32"
        }
      ],
      "payable": false,
      "stateMutability": "view",
      "type": "function"
    },
    {
      "constant": true,
      "inputs": [],
      "name": "organismsLength",
      "outputs": [
        {
          "name": "",
          "type": "uint256"
        }
      ],
      "payable": false,
      "stateMutability": "view",
      "type": "function"
    },
    {
      "constant": true,
      "inputs": [
        {
          "name": "token",
          "type": "address"
        }
      ],
      "name": "allowRecoverability",
      "outputs": [
        {
          "name": "",
          "type": "bool"
        }
      ],
      "payable": false,
      "stateMutability": "view",
      "type": "function"
    },
    {
      "constant": true,
      "inputs": [],
      "name": "appId",
      "outputs": [
        {
          "name": "",
          "type": "bytes32"
        }
      ],
      "payable": false,
      "stateMutability": "view",
      "type": "function"
    },
    {
      "constant": true,
      "inputs": [],
      "name": "getInitializationBlock",
      "outputs": [
        {
          "name": "",
          "type": "uint256"
        }
      ],
      "payable": false,
      "stateMutability": "view",
      "type": "function"
    },
    {
      "constant": false,
      "inputs": [
        {
          "name": "_token",
          "type": "address"
        }
      ],
      "name": "transferToVault",
      "outputs": [],
      "payable": false,
      "stateMutability": "nonpayable",
      "type": "function"
    },
    {
      "constant": true,
      "inputs": [
        {
          "name": "_sender",
          "type": "address"
        },
        {
          "name": "_role",
          "type": "bytes32"
        },
        {
          "name": "_params",
          "type": "uint256[]"
        }
      ],
      "name": "canPerform",
      "outputs": [
        {
          "name": "",
          "type": "bool"
        }
      ],
      "payable": false,
      "stateMutability": "view",
      "type": "function"
    },
    {
      "constant": true,
      "inputs": [],
      "name": "getEVMScriptRegistry",
      "outputs": [
        {
          "name": "",
          "type": "address"
        }
      ],
      "payable": false,
      "stateMutability": "view",
      "type": "function"
    },
    {
      "constant": true,
      "inputs": [],
      "name": "kernel",
      "outputs": [
        {
          "name": "",
          "type": "address"
        }
      ],
      "payable": false,
      "stateMutability": "view",
      "type": "function"
    },
    {
      "constant": true,
      "inputs": [],
      "name": "genesisBase",
      "outputs": [
        {
          "name": "",
          "type": "address"
        }
      ],
      "payable": false,
      "stateMutability": "view",
      "type": "function"
    },
    {
      "constant": true,
      "inputs": [],
      "name": "isPetrified",
      "outputs": [
        {
          "name": "",
          "type": "bool"
        }
      ],
      "payable": false,
      "stateMutability": "view",
      "type": "function"
    },
    {
      "constant": true,
      "inputs": [
        {
          "name": "",
          "type": "uint256"
        }
      ],
      "name": "organisms",
      "outputs": [
        {
          "name": "",
          "type": "address"
        }
      ],
      "payable": false,
      "stateMutability": "view",
      "type": "function"
    },
    {
      "constant": true,
      "inputs": [],
      "name": "genesisAppId",
      "outputs": [
        {
          "name": "",
          "type": "bytes32"
        }
      ],
      "payable": false,
      "stateMutability": "view",
      "type": "function"
    },
    {
      "constant": true,
      "inputs": [],
      "name": "DEPLOY_ORGANISM_ROLE",
      "outputs": [
        {
          "name": "",
          "type": "bytes32"
        }
      ],
      "payable": false,
      "stateMutability": "view",
      "type": "function"
    },
    {
      "anonymous": false,
      "inputs": [
        {
          "indexed": false,
          "name": "organism",
          "type": "address"
        }
      ],
      "name": "DeployOrganism",
      "type": "event"
    },
    {
      "anonymous": false,
      "inputs": [
        {
          "indexed": true,
          "name": "executor",
          "type": "address"
        },
        {
          "indexed": false,
          "name": "script",
          "type": "bytes"
        },
        {
          "indexed": false,
          "name": "input",
          "type": "bytes"
        },
        {
          "indexed": false,
          "name": "returnData",
          "type": "bytes"
        }
      ],
      "name": "ScriptResult",
      "type": "event"
    },
    {
      "constant": false,
      "inputs": [
        {
          "name": "_ens",
          "type": "address"
        },
        {
          "name": "_tokenManager",
          "type": "address"
        },
        {
          "name": "_scheme",
          "type": "address"
        }
      ],
      "name": "initialize",
      "outputs": [],
      "payable": false,
      "stateMutability": "nonpayable",
      "type": "function"
    },
    {
      "constant": true,
      "inputs": [
        {
          "name": "appId",
          "type": "bytes32"
        }
      ],
      "name": "latestVersionAppBase",
      "outputs": [
        {
          "name": "base",
          "type": "address"
        }
      ],
      "payable": false,
      "stateMutability": "view",
      "type": "function"
    },
    {
      "constant": false,
      "inputs": [],
      "name": "deploy",
      "outputs": [],
      "payable": false,
      "stateMutability": "nonpayable",
      "type": "function"
    }
  ],
  "bytecode": "0x608060405260006007556200002262000028640100000000026401000000009004565b6200030e565b60006200004362000163640100000000026401000000009004565b146040805190810160405280601881526020017f494e49545f414c52454144595f494e495449414c495a4544000000000000000081525090151562000126576040517f08c379a00000000000000000000000000000000000000000000000000000000081526004018080602001828103825283818151815260200191508051906020019080838360005b83811015620000ea578082015181840152602081019050620000cd565b50505050905090810190601f168015620001185780820380516001836020036101000a031916815260200191505b509250505060405180910390fd5b50620001617fffffffffffffffffffffffffffffffffffffffffffffffffffffffffffffffff620001b0640100000000026401000000009004565b565b6000620001ab7febb05b386a8d34882b8711d156f463690983dc47815980fb82aeeff1aa43579e60010260001916620002fc640100000000026200313e176401000000009004565b905090565b6000620001cb62000163640100000000026401000000009004565b146040805190810160405280601881526020017f494e49545f414c52454144595f494e495449414c495a45440000000000000000815250901515620002ae576040517f08c379a00000000000000000000000000000000000000000000000000000000081526004018080602001828103825283818151815260200191508051906020019080838360005b838110156200027257808201518184015260208101905062000255565b50505050905090810190601f168015620002a05780820380516001836020036101000a031916815260200191505b509250505060405180910390fd5b50620002f9817febb05b386a8d34882b8711d156f463690983dc47815980fb82aeeff1aa43579e600102600019166200030764010000000002620032d3179091906401000000009004565b50565b600081549050919050565b8082555050565b613329806200031e6000396000f300608060405260043610610149576000357c0100000000000000000000000000000000000000000000000000000000900463ffffffff168063030c832a1461014e5780630803fac0146101815780632222ae9e146101b057806322dedf7c146102075780632914b9bd1461025e5780632a709b141461030757806332f0a3b51461035e5780633f15457f146103b557806373bc77c81461040c578063775c300c1461043f5780637b9059ea146104565780637e7db6e11461048157806380afdea8146104dc5780638b3dd7491461050f5780639d4941d81461053a578063a1658fad1461057d578063a479e50814610629578063c0c53b8b14610680578063c6d2c71714610703578063d4aae0c414610774578063da0424d9146107cb578063de4796ed14610822578063e75e6b5714610851578063f1ff67ed146108be578063f8c9ff31146108f1575b600080fd5b34801561015a57600080fd5b50610163610924565b60405180826000191660001916815260200191505060405180910390f35b34801561018d57600080fd5b50610196610965565b604051808215151515815260200191505060405180910390f35b3480156101bc57600080fd5b506101c5610990565b604051808273ffffffffffffffffffffffffffffffffffffffff1673ffffffffffffffffffffffffffffffffffffffff16815260200191505060405180910390f35b34801561021357600080fd5b5061021c6109b6565b604051808273ffffffffffffffffffffffffffffffffffffffff1673ffffffffffffffffffffffffffffffffffffffff16815260200191505060405180910390f35b34801561026a57600080fd5b506102c5600480360381019080803590602001908201803590602001908080601f01602080910402602001604051908101604052809392919081815260200183838082843782019150505050505091929192905050506109dc565b604051808273ffffffffffffffffffffffffffffffffffffffff1673ffffffffffffffffffffffffffffffffffffffff16815260200191505060405180910390f35b34801561031357600080fd5b5061031c610afb565b604051808273ffffffffffffffffffffffffffffffffffffffff1673ffffffffffffffffffffffffffffffffffffffff16815260200191505060405180910390f35b34801561036a57600080fd5b50610373610b21565b604051808273ffffffffffffffffffffffffffffffffffffffff1673ffffffffffffffffffffffffffffffffffffffff16815260200191505060405180910390f35b3480156103c157600080fd5b506103ca610bce565b604051808273ffffffffffffffffffffffffffffffffffffffff1673ffffffffffffffffffffffffffffffffffffffff16815260200191505060405180910390f35b34801561041857600080fd5b50610421610bf3565b60405180826000191660001916815260200191505060405180910390f35b34801561044b57600080fd5b50610454610c34565b005b34801561046257600080fd5b5061046b61229d565b6040518082815260200191505060405180910390f35b34801561048d57600080fd5b506104c2600480360381019080803573ffffffffffffffffffffffffffffffffffffffff1690602001909291905050506122a3565b604051808215151515815260200191505060405180910390f35b3480156104e857600080fd5b506104f16122ae565b60405180826000191660001916815260200191505060405180910390f35b34801561051b57600080fd5b506105246122e5565b6040518082815260200191505060405180910390f35b34801561054657600080fd5b5061057b600480360381019080803573ffffffffffffffffffffffffffffffffffffffff16906020019092919050505061231c565b005b34801561058957600080fd5b5061060f600480360381019080803573ffffffffffffffffffffffffffffffffffffffff16906020019092919080356000191690602001909291908035906020019082018035906020019080806020026020016040519081016040528093929190818152602001838360200280828437820191505050505050919291929050505061274e565b604051808215151515815260200191505060405180910390f35b34801561063557600080fd5b5061063e612955565b604051808273ffffffffffffffffffffffffffffffffffffffff1673ffffffffffffffffffffffffffffffffffffffff16815260200191505060405180910390f35b34801561068c57600080fd5b50610701600480360381019080803573ffffffffffffffffffffffffffffffffffffffff169060200190929190803573ffffffffffffffffffffffffffffffffffffffff169060200190929190803573ffffffffffffffffffffffffffffffffffffffff169060200190929190505050612a70565b005b34801561070f57600080fd5b506107326004803603810190808035600019169060200190929190505050612c29565b604051808273ffffffffffffffffffffffffffffffffffffffff1673ffffffffffffffffffffffffffffffffffffffff16815260200191505060405180910390f35b34801561078057600080fd5b50610789612ec8565b604051808273ffffffffffffffffffffffffffffffffffffffff1673ffffffffffffffffffffffffffffffffffffffff16815260200191505060405180910390f35b3480156107d757600080fd5b506107e0612eff565b604051808273ffffffffffffffffffffffffffffffffffffffff1673ffffffffffffffffffffffffffffffffffffffff16815260200191505060405180910390f35b34801561082e57600080fd5b50610837612f25565b604051808215151515815260200191505060405180910390f35b34801561085d57600080fd5b5061087c60048036038101908080359060200190929190505050612f56565b604051808273ffffffffffffffffffffffffffffffffffffffff1673ffffffffffffffffffffffffffffffffffffffff16815260200191505060405180910390f35b3480156108ca57600080fd5b506108d3612f89565b60405180826000191660001916815260200191505060405180910390f35b3480156108fd57600080fd5b50610906612fca565b60405180826000191660001916815260200191505060405180910390f35b6109626040805190810160405280600781526020017f6c696e6561676500000000000000000000000000000000000000000000000000815250613003565b81565b6000806109706122e5565b90506000811415801561098a57508061098761312b565b10155b91505090565b600360009054906101000a900473ffffffffffffffffffffffffffffffffffffffff1681565b600560009054906101000a900473ffffffffffffffffffffffffffffffffffffffff1681565b60006109e6612955565b73ffffffffffffffffffffffffffffffffffffffff166304bf2a7f836040518263ffffffff167c01000000000000000000000000000000000000000000000000000000000281526004018080602001828103825283818151815260200191508051906020019080838360005b83811015610a6d578082015181840152602081019050610a52565b50505050905090810190601f168015610a9a5780820380516001836020036101000a031916815260200191505b5092505050602060405180830381600087803b158015610ab957600080fd5b505af1158015610acd573d6000803e3d6000fd5b505050506040513d6020811015610ae357600080fd5b81019080805190602001909291905050509050919050565b600160009054906101000a900473ffffffffffffffffffffffffffffffffffffffff1681565b6000610b2b612ec8565b73ffffffffffffffffffffffffffffffffffffffff166332f0a3b56040518163ffffffff167c0100000000000000000000000000000000000000000000000000000000028152600401602060405180830381600087803b158015610b8e57600080fd5b505af1158015610ba2573d6000803e3d6000fd5b505050506040513d6020811015610bb857600080fd5b8101908080519060200190929190505050905090565b6000809054906101000a900473ffffffffffffffffffffffffffffffffffffffff1681565b610c316040805190810160405280600881526020017f6f7267616e69736d000000000000000000000000000000000000000000000000815250613003565b81565b600080610c3f6132da565b600080600080610c4d612ec8565b96508673ffffffffffffffffffffffffffffffffffffffff1663de2873596040518163ffffffff167c0100000000000000000000000000000000000000000000000000000000028152600401602060405180830381600087803b158015610cb357600080fd5b505af1158015610cc7573d6000803e3d6000fd5b505050506040513d6020811015610cdd57600080fd5b81019080805190602001909291905050509550608060405190810160405280610d3a6040805190810160405280600581526020017f70616e646f000000000000000000000000000000000000000000000000000000815250613003565b60001916600019168152602001610d856040805190810160405280600781526020017f6c696e6561676500000000000000000000000000000000000000000000000000815250613003565b60001916600019168152602001610dd06040805190810160405280600781526020017f67656e6573697300000000000000000000000000000000000000000000000000815250613003565b60001916600019168152602001610e1b6040805190810160405280600881526020017f6f7267616e69736d000000000000000000000000000000000000000000000000815250613003565b60001916600019168152509450600160075401600781905550610e50856000600481101515610e4657fe5b6020020151612c29565b93508673ffffffffffffffffffffffffffffffffffffffff166380cd5ac3866001600481101515610e7d57fe5b602002015160075460010260405180826000191660001916815260200191505060405180910390206040516020018083600019166000191681526020018260001916600019168152602001925050506040516020818303038152906040526040518082805190602001908083835b602083101515610f105780518252602082019150602081019050602083039250610eeb565b6001836020036101000a0380198251168184511680821785525050505050509050019150506040518091039020610f59886001600481101515610f4f57fe5b6020020151612c29565b6040518363ffffffff167c01000000000000000000000000000000000000000000000000000000000281526004018083600019166000191681526020018273ffffffffffffffffffffffffffffffffffffffff1673ffffffffffffffffffffffffffffffffffffffff16815260200192505050602060405180830381600087803b158015610fe657600080fd5b505af1158015610ffa573d6000803e3d6000fd5b505050506040513d602081101561101057600080fd5b810190808051906020019092919050505092508673ffffffffffffffffffffffffffffffffffffffff166380cd5ac361107d6040805190810160405280600781526020017f67656e6573697300000000000000000000000000000000000000000000000000815250613003565b61109988600260048110151561108f57fe5b6020020151612c29565b6040518363ffffffff167c01000000000000000000000000000000000000000000000000000000000281526004018083600019166000191681526020018273ffffffffffffffffffffffffffffffffffffffff1673ffffffffffffffffffffffffffffffffffffffff16815260200192505050602060405180830381600087803b15801561112657600080fd5b505af115801561113a573d6000803e3d6000fd5b505050506040513d602081101561115057600080fd5b810190808051906020019092919050505091508673ffffffffffffffffffffffffffffffffffffffff166380cd5ac36111bd6040805190810160405280600881526020017f6f7267616e69736d000000000000000000000000000000000000000000000000815250613003565b6111d98860036004811015156111cf57fe5b6020020151612c29565b6040518363ffffffff167c01000000000000000000000000000000000000000000000000000000000281526004018083600019166000191681526020018273ffffffffffffffffffffffffffffffffffffffff1673ffffffffffffffffffffffffffffffffffffffff16815260200192505050602060405180830381600087803b15801561126657600080fd5b505af115801561127a573d6000803e3d6000fd5b505050506040513d602081101561129057600080fd5b810190808051906020019092919050505090507f18becf3d56222bd3df6103c8334c6ea243d1c382b18940ee7fcdb1ec89117a4f6112e08660016004811015156112d657fe5b6020020151612c29565b604051808273ffffffffffffffffffffffffffffffffffffffff1673ffffffffffffffffffffffffffffffffffffffff16815260200191505060405180910390a18273ffffffffffffffffffffffffffffffffffffffff16638129fc1c6040518163ffffffff167c0100000000000000000000000000000000000000000000000000000000028152600401600060405180830381600087803b15801561138557600080fd5b505af1158015611399573d6000803e3d6000fd5b505050508173ffffffffffffffffffffffffffffffffffffffff1663c4d66de8856040518263ffffffff167c0100000000000000000000000000000000000000000000000000000000028152600401808273ffffffffffffffffffffffffffffffffffffffff1673ffffffffffffffffffffffffffffffffffffffff168152602001915050600060405180830381600087803b15801561143857600080fd5b505af115801561144c573d6000803e3d6000fd5b505050508073ffffffffffffffffffffffffffffffffffffffff1663c0c53b8b8584866040518463ffffffff167c0100000000000000000000000000000000000000000000000000000000028152600401808473ffffffffffffffffffffffffffffffffffffffff1673ffffffffffffffffffffffffffffffffffffffff1681526020018373ffffffffffffffffffffffffffffffffffffffff1673ffffffffffffffffffffffffffffffffffffffff1681526020018273ffffffffffffffffffffffffffffffffffffffff1673ffffffffffffffffffffffffffffffffffffffff1681526020019350505050600060405180830381600087803b15801561155357600080fd5b505af1158015611567573d6000803e3d6000fd5b505050508573ffffffffffffffffffffffffffffffffffffffff1663be03847882858673ffffffffffffffffffffffffffffffffffffffff1663e9a9c8506040518163ffffffff167c0100000000000000000000000000000000000000000000000000000000028152600401602060405180830381600087803b1580156115ed57600080fd5b505af1158015611601573d6000803e3d6000fd5b505050506040513d602081101561161757600080fd5b8101908080519060200190929190505050336040518563ffffffff167c0100000000000000000000000000000000000000000000000000000000028152600401808573ffffffffffffffffffffffffffffffffffffffff1673ffffffffffffffffffffffffffffffffffffffff1681526020018473ffffffffffffffffffffffffffffffffffffffff1673ffffffffffffffffffffffffffffffffffffffff16815260200183600019166000191681526020018273ffffffffffffffffffffffffffffffffffffffff1673ffffffffffffffffffffffffffffffffffffffff168152602001945050505050600060405180830381600087803b15801561171c57600080fd5b505af1158015611730573d6000803e3d6000fd5b505050508573ffffffffffffffffffffffffffffffffffffffff1663be03847882848573ffffffffffffffffffffffffffffffffffffffff1663c34e0ed66040518163ffffffff167c0100000000000000000000000000000000000000000000000000000000028152600401602060405180830381600087803b1580156117b657600080fd5b505af11580156117ca573d6000803e3d6000fd5b505050506040513d60208110156117e057600080fd5b8101908080519060200190929190505050336040518563ffffffff167c0100000000000000000000000000000000000000000000000000000000028152600401808573ffffffffffffffffffffffffffffffffffffffff1673ffffffffffffffffffffffffffffffffffffffff1681526020018473ffffffffffffffffffffffffffffffffffffffff1673ffffffffffffffffffffffffffffffffffffffff16815260200183600019166000191681526020018273ffffffffffffffffffffffffffffffffffffffff1673ffffffffffffffffffffffffffffffffffffffff168152602001945050505050600060405180830381600087803b1580156118e557600080fd5b505af11580156118f9573d6000803e3d6000fd5b505050508573ffffffffffffffffffffffffffffffffffffffff1663be038478600260009054906101000a900473ffffffffffffffffffffffffffffffffffffffff16838473ffffffffffffffffffffffffffffffffffffffff16632adab4ea6040518163ffffffff167c0100000000000000000000000000000000000000000000000000000000028152600401602060405180830381600087803b1580156119a157600080fd5b505af11580156119b5573d6000803e3d6000fd5b505050506040513d60208110156119cb57600080fd5b8101908080519060200190929190505050336040518563ffffffff167c0100000000000000000000000000000000000000000000000000000000028152600401808573ffffffffffffffffffffffffffffffffffffffff1673ffffffffffffffffffffffffffffffffffffffff1681526020018473ffffffffffffffffffffffffffffffffffffffff1673ffffffffffffffffffffffffffffffffffffffff16815260200183600019166000191681526020018273ffffffffffffffffffffffffffffffffffffffff1673ffffffffffffffffffffffffffffffffffffffff168152602001945050505050600060405180830381600087803b158015611ad057600080fd5b505af1158015611ae4573d6000803e3d6000fd5b505050508573ffffffffffffffffffffffffffffffffffffffff1663be038478600260009054906101000a900473ffffffffffffffffffffffffffffffffffffffff16838473ffffffffffffffffffffffffffffffffffffffff16632d2e80126040518163ffffffff167c0100000000000000000000000000000000000000000000000000000000028152600401602060405180830381600087803b158015611b8c57600080fd5b505af1158015611ba0573d6000803e3d6000fd5b505050506040513d6020811015611bb657600080fd5b8101908080519060200190929190505050336040518563ffffffff167c0100000000000000000000000000000000000000000000000000000000028152600401808573ffffffffffffffffffffffffffffffffffffffff1673ffffffffffffffffffffffffffffffffffffffff1681526020018473ffffffffffffffffffffffffffffffffffffffff1673ffffffffffffffffffffffffffffffffffffffff16815260200183600019166000191681526020018273ffffffffffffffffffffffffffffffffffffffff1673ffffffffffffffffffffffffffffffffffffffff168152602001945050505050600060405180830381600087803b158015611cbb57600080fd5b505af1158015611ccf573d6000803e3d6000fd5b505050508573ffffffffffffffffffffffffffffffffffffffff1663be038478600260009054906101000a900473ffffffffffffffffffffffffffffffffffffffff16838473ffffffffffffffffffffffffffffffffffffffff166397569bb16040518163ffffffff167c0100000000000000000000000000000000000000000000000000000000028152600401602060405180830381600087803b158015611d7757600080fd5b505af1158015611d8b573d6000803e3d6000fd5b505050506040513d6020811015611da157600080fd5b8101908080519060200190929190505050336040518563ffffffff167c0100000000000000000000000000000000000000000000000000000000028152600401808573ffffffffffffffffffffffffffffffffffffffff1673ffffffffffffffffffffffffffffffffffffffff1681526020018473ffffffffffffffffffffffffffffffffffffffff1673ffffffffffffffffffffffffffffffffffffffff16815260200183600019166000191681526020018273ffffffffffffffffffffffffffffffffffffffff1673ffffffffffffffffffffffffffffffffffffffff168152602001945050505050600060405180830381600087803b158015611ea657600080fd5b505af1158015611eba573d6000803e3d6000fd5b505050508573ffffffffffffffffffffffffffffffffffffffff1663be038478600260009054906101000a900473ffffffffffffffffffffffffffffffffffffffff16838473ffffffffffffffffffffffffffffffffffffffff1663b462e70b6040518163ffffffff167c0100000000000000000000000000000000000000000000000000000000028152600401602060405180830381600087803b158015611f6257600080fd5b505af1158015611f76573d6000803e3d6000fd5b505050506040513d6020811015611f8c57600080fd5b8101908080519060200190929190505050336040518563ffffffff167c0100000000000000000000000000000000000000000000000000000000028152600401808573ffffffffffffffffffffffffffffffffffffffff1673ffffffffffffffffffffffffffffffffffffffff1681526020018473ffffffffffffffffffffffffffffffffffffffff1673ffffffffffffffffffffffffffffffffffffffff16815260200183600019166000191681526020018273ffffffffffffffffffffffffffffffffffffffff1673ffffffffffffffffffffffffffffffffffffffff168152602001945050505050600060405180830381600087803b15801561209157600080fd5b505af11580156120a5573d6000803e3d6000fd5b505050508573ffffffffffffffffffffffffffffffffffffffff1663be038478600260009054906101000a900473ffffffffffffffffffffffffffffffffffffffff16838473ffffffffffffffffffffffffffffffffffffffff1663082367806040518163ffffffff167c0100000000000000000000000000000000000000000000000000000000028152600401602060405180830381600087803b15801561214d57600080fd5b505af1158015612161573d6000803e3d6000fd5b505050506040513d602081101561217757600080fd5b8101908080519060200190929190505050336040518563ffffffff167c0100000000000000000000000000000000000000000000000000000000028152600401808573ffffffffffffffffffffffffffffffffffffffff1673ffffffffffffffffffffffffffffffffffffffff1681526020018473ffffffffffffffffffffffffffffffffffffffff1673ffffffffffffffffffffffffffffffffffffffff16815260200183600019166000191681526020018273ffffffffffffffffffffffffffffffffffffffff1673ffffffffffffffffffffffffffffffffffffffff168152602001945050505050600060405180830381600087803b15801561227c57600080fd5b505af1158015612290573d6000803e3d6000fd5b5050505050505050505050565b60075481565b600060019050919050565b60006122e07fd625496217aa6a3453eecb9c3489dc5a53e6c67b444329ea2b2cbc9ff547639b60010260001916613133565b905090565b60006123177febb05b386a8d34882b8711d156f463690983dc47815980fb82aeeff1aa43579e6001026000191661313e565b905090565b600080612328836122a3565b6040805190810160405280601281526020017f5245434f5645525f444953414c4c4f5745440000000000000000000000000000815250901515612406576040517f08c379a00000000000000000000000000000000000000000000000000000000081526004018080602001828103825283818151815260200191508051906020019080838360005b838110156123cb5780820151818401526020810190506123b0565b50505050905090810190601f1680156123f85780820380516001836020036101000a031916815260200191505b509250505060405180910390fd5b5061240f610b21565b915061241a82613149565b6040805190810160405280601a81526020017f5245434f5645525f5641554c545f4e4f545f434f4e54524143540000000000008152509015156124f8576040517f08c379a00000000000000000000000000000000000000000000000000000000081526004018080602001828103825283818151815260200191508051906020019080838360005b838110156124bd5780820151818401526020810190506124a2565b50505050905090810190601f1680156124ea5780820380516001836020036101000a031916815260200191505b509250505060405180910390fd5b50600073ffffffffffffffffffffffffffffffffffffffff168373ffffffffffffffffffffffffffffffffffffffff161415612591578173ffffffffffffffffffffffffffffffffffffffff166108fc3073ffffffffffffffffffffffffffffffffffffffff16319081150290604051600060405180830381858888f1935050505015801561258b573d6000803e3d6000fd5b50612749565b8273ffffffffffffffffffffffffffffffffffffffff166370a08231306040518263ffffffff167c0100000000000000000000000000000000000000000000000000000000028152600401808273ffffffffffffffffffffffffffffffffffffffff1673ffffffffffffffffffffffffffffffffffffffff168152602001915050602060405180830381600087803b15801561262c57600080fd5b505af1158015612640573d6000803e3d6000fd5b505050506040513d602081101561265657600080fd5b810190808051906020019092919050505090508273ffffffffffffffffffffffffffffffffffffffff1663a9059cbb83836040518363ffffffff167c0100000000000000000000000000000000000000000000000000000000028152600401808373ffffffffffffffffffffffffffffffffffffffff1673ffffffffffffffffffffffffffffffffffffffff16815260200182815260200192505050602060405180830381600087803b15801561270c57600080fd5b505af1158015612720573d6000803e3d6000fd5b505050506040513d602081101561273657600080fd5b8101908080519060200190929190505050505b505050565b6000806060600061275d610965565b151561276c576000935061294b565b612774612ec8565b9250600073ffffffffffffffffffffffffffffffffffffffff168373ffffffffffffffffffffffffffffffffffffffff1614156127b4576000935061294b565b602085510290508491508082528273ffffffffffffffffffffffffffffffffffffffff1663fdef9106883089866040518563ffffffff167c0100000000000000000000000000000000000000000000000000000000028152600401808573ffffffffffffffffffffffffffffffffffffffff1673ffffffffffffffffffffffffffffffffffffffff1681526020018473ffffffffffffffffffffffffffffffffffffffff1673ffffffffffffffffffffffffffffffffffffffff168152602001836000191660001916815260200180602001828103825283818151815260200191508051906020019080838360005b838110156128be5780820151818401526020810190506128a3565b50505050905090810190601f1680156128eb5780820380516001836020036101000a031916815260200191505b5095505050505050602060405180830381600087803b15801561290d57600080fd5b505af1158015612921573d6000803e3d6000fd5b505050506040513d602081101561293757600080fd5b810190808051906020019092919050505093505b5050509392505050565b600080612960612ec8565b73ffffffffffffffffffffffffffffffffffffffff1663be00bbd87fd6f028ca0e8edb4a8c9757ca4fdccab25fa1e0317da1188108f7d2dee14902fb6001027fddbcfd564f642ab5627cf68b9b7d374fb4f8a36e941a75d89c87998cef03bd616001026040518363ffffffff167c0100000000000000000000000000000000000000000000000000000000028152600401808360001916600019168152602001826000191660001916815260200192505050602060405180830381600087803b158015612a2c57600080fd5b505af1158015612a40573d6000803e3d6000fd5b505050506040513d6020811015612a5657600080fd5b810190808051906020019092919050505090508091505090565b6000612a7a6122e5565b146040805190810160405280601881526020017f494e49545f414c52454144595f494e495449414c495a45440000000000000000815250901515612b59576040517f08c379a00000000000000000000000000000000000000000000000000000000081526004018080602001828103825283818151815260200191508051906020019080838360005b83811015612b1e578082015181840152602081019050612b03565b50505050905090810190601f168015612b4b5780820380516001836020036101000a031916815260200191505b509250505060405180910390fd5b50612b6261319b565b826000806101000a81548173ffffffffffffffffffffffffffffffffffffffff021916908373ffffffffffffffffffffffffffffffffffffffff16021790555081600160006101000a81548173ffffffffffffffffffffffffffffffffffffffff021916908373ffffffffffffffffffffffffffffffffffffffff16021790555080600260006101000a81548173ffffffffffffffffffffffffffffffffffffffff021916908373ffffffffffffffffffffffffffffffffffffffff160217905550505050565b6000806000809054906101000a900473ffffffffffffffffffffffffffffffffffffffff1673ffffffffffffffffffffffffffffffffffffffff16630178b8bf846040518263ffffffff167c0100000000000000000000000000000000000000000000000000000000028152600401808260001916600019168152602001915050602060405180830381600087803b158015612cc457600080fd5b505af1158015612cd8573d6000803e3d6000fd5b505050506040513d6020811015612cee57600080fd5b810190808051906020019092919050505073ffffffffffffffffffffffffffffffffffffffff16633b3b57de846040518263ffffffff167c0100000000000000000000000000000000000000000000000000000000028152600401808260001916600019168152602001915050602060405180830381600087803b158015612d7557600080fd5b505af1158015612d89573d6000803e3d6000fd5b505050506040513d6020811015612d9f57600080fd5b810190808051906020019092919050505090508073ffffffffffffffffffffffffffffffffffffffff1663c36af4606040518163ffffffff167c0100000000000000000000000000000000000000000000000000000000028152600401600060405180830381600087803b158015612e1657600080fd5b505af1158015612e2a573d6000803e3d6000fd5b505050506040513d6000823e3d601f19601f8201168201806040525060a0811015612e5457600080fd5b81019080919082606001805190602001909291908051640100000000811115612e7c57600080fd5b82810190506020810184811115612e9257600080fd5b8151856001820283011164010000000082111715612eaf57600080fd5b5050929190505050909150508092505081915050919050565b6000612efa7f4172f0f7d2289153072b0a6ca36959e0cbe2efc3afe50fc81636caa96338137b600102600019166132c8565b905090565b600460009054906101000a900473ffffffffffffffffffffffffffffffffffffffff1681565b60007fffffffffffffffffffffffffffffffffffffffffffffffffffffffffffffffff612f506122e5565b14905090565b60066020528060005260406000206000915054906101000a900473ffffffffffffffffffffffffffffffffffffffff1681565b612fc76040805190810160405280600781526020017f67656e6573697300000000000000000000000000000000000000000000000000815250613003565b81565b60405180807f4445504c4f595f4f5247414e49534d5f524f4c450000000000000000000000008152506014019050604051809103902081565b60007f9065c3e7f7b7ef1ef4e53d2d0b8e0cef02874ab020c1ece79d5f0d3d0111c0ba600102826040518082805190602001908083835b60208310151561305f578051825260208201915060208101905060208303925061303a565b6001836020036101000a03801982511681845116808217855250505050505090500191505060405180910390206040516020018083600019166000191681526020018260001916600019168152602001925050506040516020818303038152906040526040518082805190602001908083835b6020831015156130f757805182526020820191506020810190506020830392506130d2565b6001836020036101000a03801982511681845116808217855250505050505090500191505060405180910390209050919050565b600043905090565b600081549050919050565b600081549050919050565b600080600073ffffffffffffffffffffffffffffffffffffffff168373ffffffffffffffffffffffffffffffffffffffff16141561318a5760009150613195565b823b90506000811191505b50919050565b60006131a56122e5565b146040805190810160405280601881526020017f494e49545f414c52454144595f494e495449414c495a45440000000000000000815250901515613284576040517f08c379a00000000000000000000000000000000000000000000000000000000081526004018080602001828103825283818151815260200191508051906020019080838360005b8381101561324957808201518184015260208101905061322e565b50505050905090810190601f1680156132765780820380516001836020036101000a031916815260200191505b509250505060405180910390fd5b506132c661329061312b565b7febb05b386a8d34882b8711d156f463690983dc47815980fb82aeeff1aa43579e600102600019166132d390919063ffffffff16565b565b600081549050919050565b8082555050565b6080604051908101604052806004906020820280388339808201915050905050905600a165627a7a723058200365135edec23bc575c7ba29f9f7a0ad5cedfd38a8d7b8d0f41b3738575d124c0029",
  "source": "pragma solidity ^0.4.24;\n\nimport \"@aragon/os/contracts/kernel/Kernel.sol\";\nimport \"@aragon/os/contracts/acl/ACL.sol\";\nimport \"@aragon/os/contracts/apps/AragonApp.sol\";\nimport \"@aragon/os/contracts/lib/ens/ENS.sol\";\nimport \"@aragon/os/contracts/lib/ens/PublicResolver.sol\";\nimport \"@aragon/os/contracts/apm/Repo.sol\";\nimport \"@aragon/os/contracts/apm/APMNamehash.sol\";\nimport \"@pando/core/contracts/lib/Pando.sol\";\n\nimport \"@pando/organism/contracts/Organism.sol\";\nimport \"@pando/organism/contracts/Lineage.sol\";\nimport \"@pando/organism/contracts/Genesis.sol\";\n\nimport \"@pando/scheme-democracy/contracts/DemocracyScheme.sol\";\n\n\n/* import \"@pando/core/contracts/organism/IOrganism.sol\";\nimport \"@pando/core/contracts/organism/ILineage.sol\";\nimport \"@pando/core/contracts/organism/IGenesis.sol\"; */\n\n/* import \"@aragon/apps-token-manager/contracts/TokenManager.sol\"; */\nimport \"@aragon/apps-shared-minime/contracts/MiniMeToken.sol\";\n\nimport \"@aragon/apps-shared-minime/contracts/ITokenController.sol\";\n\n\n/* ENS: 0x5f6f7e8cc7346a11ca2def8f827b7a0b612c56a1 */\n\ncontract Colony is AragonApp, APMNamehash {\n\n    bytes32 constant public DEPLOY_ORGANISM_ROLE = keccak256(\"DEPLOY_ORGANISM_ROLE\");\n\n    address constant ANY_ENTITY = address(-1);\n\n    bytes32 constant public lineageAppId  = apmNamehash(\"lineage\");\n    bytes32 constant public genesisAppId  = apmNamehash(\"genesis\");\n    bytes32 constant public organismAppId = apmNamehash(\"organism\");\n\n    ENS public ens;\n    ITokenController public tokenManager;\n    DemocracyScheme scheme;\n    /* MiniMeTokenFactory public tokenFactory; */\n\n    address public lineageBase;\n    address public genesisBase;\n    address public organismBase;\n\n    mapping(uint256 => Organism) public organisms;\n    uint256 public organismsLength = 0;\n\n\n    event DeployOrganism(address organism);\n\n    function initialize(ENS _ens, ITokenController _tokenManager, DemocracyScheme _scheme) onlyInit public {\n        initialized();\n\n        ens = _ens;\n        /* tokenFactory = new MiniMeTokenFactory(); */\n        tokenManager = _tokenManager;\n        scheme = _scheme;\n\n        /* PublicResolver resolver_1 = PublicResolver(ens.resolver(lineageAppId));\n        PublicResolver resolver_2 = PublicResolver(ens.resolver(genesisAppId));\n        PublicResolver resolver_3 = PublicResolver(ens.resolver(organismAppId));\n\n        Repo repo_1 = Repo(resolver_1.addr(lineageAppId));\n        Repo repo_2 = Repo(resolver_2.addr(genesisAppId));\n        Repo repo_3 = Repo(resolver_3.addr(organismAppId));\n\n        (,lineageBase,)  = repo_1.getLatest();\n        (,genesisBase,)  = repo_2.getLatest();\n        (,organismBase,) = repo_3.getLatest(); */\n    }\n\n    function latestVersionAppBase(bytes32 appId) public view returns (address base) {\n        Repo repo = Repo(PublicResolver(ens.resolver(appId)).addr(appId));\n        (, base, ) = repo.getLatest();\n\n        return base;\n    }\n\n\n    function deploy() public {\n      Kernel dao = Kernel(kernel());\n      ACL    acl = ACL(dao.acl());\n\n      bytes32[4] memory apps = [\n          apmNamehash(\"pando\"),   // 0\n          apmNamehash(\"lineage\"), // 1\n          apmNamehash(\"genesis\"), // 2\n          apmNamehash(\"organism\") // 3\n      ];\n\n      organismsLength = organismsLength + 1;\n\n      Pando pando       = Pando(latestVersionAppBase(apps[0]));\n      Lineage lineage   = Lineage(dao.newAppInstance(keccak256(abi.encodePacked(apps[1], keccak256(bytes32(organismsLength)))), latestVersionAppBase(apps[1])));\n      Genesis genesis   = Genesis(dao.newAppInstance(genesisAppId, latestVersionAppBase(apps[2])));\n      Organism organism = Organism(dao.newAppInstance(organismAppId, latestVersionAppBase(apps[3])));\n\n      /* token.changeController(lineage); */\n\n      emit DeployOrganism(address(latestVersionAppBase(apps[1])));\n\n      lineage.initialize();\n      genesis.initialize(pando);\n      organism.initialize(pando, genesis, lineage);\n\n\n      acl.createPermission(organism, lineage, lineage.MINT_ROLE(), msg.sender);\n      acl.createPermission(organism, genesis, genesis.INDIVIDUATE_ROLE(), msg.sender);\n\n      acl.createPermission(scheme, organism, organism.CREATE_RFI_ROLE(), msg.sender);\n      acl.createPermission(scheme, organism, organism.MERGE_RFI_ROLE(), msg.sender);\n      acl.createPermission(scheme, organism, organism.REJECT_RFI_ROLE(), msg.sender);\n      acl.createPermission(scheme, organism, organism.ACCEPT_RFL_ROLE(), msg.sender);\n      acl.createPermission(scheme, organism, organism.REJECT_RFL_ROLE(), msg.sender);\n\n      /* token.generateTokens(msg.sender, 1); */\n\n\n      /* organismsLength = organismsLength + 1;\n      organisms[organismsLength] = organism; */\n\n      /* emit DeployOrganism(address(organism)); */\n    }\n}\n",
  "sourcePath": "/Users/osarrouy/Documents/dapp/@pando/packages/colony/contracts/Colony.sol",
  "compiler": {
    "name": "solc",
    "version": "0.4.24+commit.e67f0147.Emscripten.clang"
  },
  "schemaVersion": "3.0.0-beta.2",
  "updatedAt": "2018-12-06T15:23:12.298Z",
  "devdoc": {
    "methods": {
      "allowRecoverability(address)": {
        "details": "By default deriving from AragonApp makes it recoverable",
        "params": {
          "token": "Token address that would be recovered"
        },
        "return": "bool whether the app allows the recovery"
      },
      "canPerform(address,bytes32,uint256[])": {
        "details": "Check whether an action can be performed by a sender for a particular role on this app",
        "params": {
          "_params": "Permission params for the role",
          "_role": "Role on this app",
          "_sender": "Sender of the call"
        },
        "return": "Boolean indicating whether the sender has the permissions to perform the action.        Always returns false if the app hasn't been initialized yet."
      },
      "getInitializationBlock()": {
        "return": "Block number in which the contract was initialized"
      },
      "getRecoveryVault()": {
        "details": "Get the recovery vault for the app",
        "return": "Recovery vault address for the app"
      },
      "hasInitialized()": {
        "return": "Whether the contract has been initialized by the time of the current block"
      },
      "transferToVault(address)": {
        "params": {
          "_token": "Token balance to be sent to recovery vault."
        }
      }
    }
  },
  "userdoc": {
    "methods": {
      "transferToVault(address)": {
        "notice": "Send funds to recovery Vault. This contract should never receive funds,        but in case it does, this function allows one to recover them."
      }
    }
  }
}