{
  "contractName": "DemocracyScheme",
  "abi": [
    {
      "constant": true,
      "inputs": [],
      "name": "hasInitialized",
      "outputs": [
        {
          "name": "",
          "type": "bool"
        }
      ],
      "payable": false,
      "stateMutability": "view",
      "type": "function"
    },
    {
      "constant": true,
      "inputs": [
        {
          "name": "",
          "type": "address"
        },
        {
          "name": "",
          "type": "uint256"
        }
      ],
      "name": "RFLVotes",
      "outputs": [
        {
          "name": "RFLid",
          "type": "uint256"
        },
        {
          "name": "blockstamp",
          "type": "uint256"
        },
        {
          "name": "supply",
          "type": "uint256"
        },
        {
          "name": "quorum",
          "type": "uint256"
        },
        {
          "name": "required",
          "type": "uint256"
        },
        {
          "name": "yea",
          "type": "uint256"
        },
        {
          "name": "nay",
          "type": "uint256"
        },
        {
          "name": "total",
          "type": "uint256"
        },
        {
          "name": "participation",
          "type": "uint256"
        },
        {
          "name": "state",
          "type": "uint8"
        }
      ],
      "payable": false,
      "stateMutability": "view",
      "type": "function"
    },
    {
      "constant": true,
      "inputs": [],
      "name": "quorum",
      "outputs": [
        {
          "name": "",
          "type": "uint256"
        }
      ],
      "payable": false,
      "stateMutability": "view",
      "type": "function"
    },
    {
      "constant": true,
      "inputs": [
        {
          "name": "",
          "type": "address"
        },
        {
          "name": "",
          "type": "uint256"
        },
        {
          "name": "",
          "type": "address"
        }
      ],
      "name": "RFLVotesBallots",
      "outputs": [
        {
          "name": "state",
          "type": "uint8"
        },
        {
          "name": "value",
          "type": "uint256"
        }
      ],
      "payable": false,
      "stateMutability": "view",
      "type": "function"
    },
    {
      "constant": true,
      "inputs": [
        {
          "name": "_script",
          "type": "bytes"
        }
      ],
      "name": "getEVMScriptExecutor",
      "outputs": [
        {
          "name": "",
          "type": "address"
        }
      ],
      "payable": false,
      "stateMutability": "view",
      "type": "function"
    },
    {
      "constant": true,
      "inputs": [],
      "name": "getRecoveryVault",
      "outputs": [
        {
          "name": "",
          "type": "address"
        }
      ],
      "payable": false,
      "stateMutability": "view",
      "type": "function"
    },
    {
      "constant": true,
      "inputs": [],
      "name": "UPDATE_PARAMETERS_ROLE",
      "outputs": [
        {
          "name": "",
          "type": "bytes32"
        }
      ],
      "payable": false,
      "stateMutability": "view",
      "type": "function"
    },
    {
      "constant": true,
      "inputs": [
        {
          "name": "",
          "type": "address"
        },
        {
          "name": "",
          "type": "uint256"
        }
      ],
      "name": "RFIVotes",
      "outputs": [
        {
          "name": "RFIid",
          "type": "uint256"
        },
        {
          "name": "blockstamp",
          "type": "uint256"
        },
        {
          "name": "supply",
          "type": "uint256"
        },
        {
          "name": "quorum",
          "type": "uint256"
        },
        {
          "name": "required",
          "type": "uint256"
        },
        {
          "name": "yea",
          "type": "uint256"
        },
        {
          "name": "nay",
          "type": "uint256"
        },
        {
          "name": "participation",
          "type": "uint256"
        },
        {
          "name": "state",
          "type": "uint8"
        }
      ],
      "payable": false,
      "stateMutability": "view",
      "type": "function"
    },
    {
      "constant": true,
      "inputs": [
        {
          "name": "token",
          "type": "address"
        }
      ],
      "name": "allowRecoverability",
      "outputs": [
        {
          "name": "",
          "type": "bool"
        }
      ],
      "payable": false,
      "stateMutability": "view",
      "type": "function"
    },
    {
      "constant": true,
      "inputs": [],
      "name": "appId",
      "outputs": [
        {
          "name": "",
          "type": "bytes32"
        }
      ],
      "payable": false,
      "stateMutability": "view",
      "type": "function"
    },
    {
      "constant": true,
      "inputs": [
        {
          "name": "",
          "type": "address"
        },
        {
          "name": "",
          "type": "uint256"
        },
        {
          "name": "",
          "type": "address"
        }
      ],
      "name": "RFIVotesBallots",
      "outputs": [
        {
          "name": "",
          "type": "uint8"
        }
      ],
      "payable": false,
      "stateMutability": "view",
      "type": "function"
    },
    {
      "constant": true,
      "inputs": [],
      "name": "getInitializationBlock",
      "outputs": [
        {
          "name": "",
          "type": "uint256"
        }
      ],
      "payable": false,
      "stateMutability": "view",
      "type": "function"
    },
    {
      "constant": false,
      "inputs": [
        {
          "name": "_token",
          "type": "address"
        }
      ],
      "name": "transferToVault",
      "outputs": [],
      "payable": false,
      "stateMutability": "nonpayable",
      "type": "function"
    },
    {
      "constant": true,
      "inputs": [
        {
          "name": "_sender",
          "type": "address"
        },
        {
          "name": "_role",
          "type": "bytes32"
        },
        {
          "name": "_params",
          "type": "uint256[]"
        }
      ],
      "name": "canPerform",
      "outputs": [
        {
          "name": "",
          "type": "bool"
        }
      ],
      "payable": false,
      "stateMutability": "view",
      "type": "function"
    },
    {
      "constant": true,
      "inputs": [],
      "name": "getEVMScriptRegistry",
      "outputs": [
        {
          "name": "",
          "type": "address"
        }
      ],
      "payable": false,
      "stateMutability": "view",
      "type": "function"
    },
    {
      "constant": true,
      "inputs": [],
      "name": "kernel",
      "outputs": [
        {
          "name": "",
          "type": "address"
        }
      ],
      "payable": false,
      "stateMutability": "view",
      "type": "function"
    },
    {
      "constant": true,
      "inputs": [],
      "name": "required",
      "outputs": [
        {
          "name": "",
          "type": "uint256"
        }
      ],
      "payable": false,
      "stateMutability": "view",
      "type": "function"
    },
    {
      "constant": true,
      "inputs": [],
      "name": "isPetrified",
      "outputs": [
        {
          "name": "",
          "type": "bool"
        }
      ],
      "payable": false,
      "stateMutability": "view",
      "type": "function"
    },
    {
      "constant": true,
      "inputs": [],
      "name": "token",
      "outputs": [
        {
          "name": "",
          "type": "address"
        }
      ],
      "payable": false,
      "stateMutability": "view",
      "type": "function"
    },
    {
      "anonymous": false,
      "inputs": [
        {
          "indexed": false,
          "name": "organism",
          "type": "address"
        },
        {
          "indexed": false,
          "name": "id",
          "type": "uint256"
        }
      ],
      "name": "NewRFIVote",
      "type": "event"
    },
    {
      "anonymous": false,
      "inputs": [
        {
          "indexed": false,
          "name": "organism",
          "type": "address"
        },
        {
          "indexed": false,
          "name": "id",
          "type": "uint256"
        },
        {
          "indexed": false,
          "name": "voter",
          "type": "address"
        },
        {
          "indexed": false,
          "name": "supports",
          "type": "bool"
        },
        {
          "indexed": false,
          "name": "stake",
          "type": "uint256"
        }
      ],
      "name": "CastRFIVote",
      "type": "event"
    },
    {
      "anonymous": false,
      "inputs": [
        {
          "indexed": false,
          "name": "organism",
          "type": "address"
        },
        {
          "indexed": false,
          "name": "id",
          "type": "uint256"
        }
      ],
      "name": "CancelRFIVote",
      "type": "event"
    },
    {
      "anonymous": false,
      "inputs": [
        {
          "indexed": false,
          "name": "organism",
          "type": "address"
        },
        {
          "indexed": false,
          "name": "id",
          "type": "uint256"
        }
      ],
      "name": "ExecuteRFIVote",
      "type": "event"
    },
    {
      "anonymous": false,
      "inputs": [
        {
          "indexed": false,
          "name": "organism",
          "type": "address"
        },
        {
          "indexed": false,
          "name": "id",
          "type": "uint256"
        }
      ],
      "name": "NewRFLVote",
      "type": "event"
    },
    {
      "anonymous": false,
      "inputs": [
        {
          "indexed": false,
          "name": "organism",
          "type": "address"
        },
        {
          "indexed": false,
          "name": "id",
          "type": "uint256"
        },
        {
          "indexed": false,
          "name": "voter",
          "type": "address"
        },
        {
          "indexed": false,
          "name": "supports",
          "type": "bool"
        },
        {
          "indexed": false,
          "name": "value",
          "type": "uint256"
        },
        {
          "indexed": false,
          "name": "stake",
          "type": "uint256"
        }
      ],
      "name": "CastRFLVote",
      "type": "event"
    },
    {
      "anonymous": false,
      "inputs": [
        {
          "indexed": false,
          "name": "organism",
          "type": "address"
        },
        {
          "indexed": false,
          "name": "id",
          "type": "uint256"
        }
      ],
      "name": "CancelRFLVote",
      "type": "event"
    },
    {
      "anonymous": false,
      "inputs": [
        {
          "indexed": false,
          "name": "organism",
          "type": "address"
        },
        {
          "indexed": false,
          "name": "id",
          "type": "uint256"
        }
      ],
      "name": "ExecuteRFLVote",
      "type": "event"
    },
    {
      "anonymous": false,
      "inputs": [
        {
          "indexed": true,
          "name": "executor",
          "type": "address"
        },
        {
          "indexed": false,
          "name": "script",
          "type": "bytes"
        },
        {
          "indexed": false,
          "name": "input",
          "type": "bytes"
        },
        {
          "indexed": false,
          "name": "returnData",
          "type": "bytes"
        }
      ],
      "name": "ScriptResult",
      "type": "event"
    },
    {
      "anonymous": false,
      "inputs": [
        {
          "indexed": false,
          "name": "organism",
          "type": "address"
        },
        {
          "indexed": true,
          "name": "id",
          "type": "uint256"
        },
        {
          "indexed": false,
          "name": "sender",
          "type": "address"
        }
      ],
      "name": "CreateRFI",
      "type": "event"
    },
    {
      "anonymous": false,
      "inputs": [
        {
          "indexed": false,
          "name": "organism",
          "type": "address"
        },
        {
          "indexed": true,
          "name": "id",
          "type": "uint256"
        },
        {
          "indexed": false,
          "name": "sender",
          "type": "address"
        }
      ],
      "name": "MergeRFI",
      "type": "event"
    },
    {
      "anonymous": false,
      "inputs": [
        {
          "indexed": false,
          "name": "organism",
          "type": "address"
        },
        {
          "indexed": true,
          "name": "id",
          "type": "uint256"
        },
        {
          "indexed": false,
          "name": "sender",
          "type": "address"
        }
      ],
      "name": "RejectRFI",
      "type": "event"
    },
    {
      "anonymous": false,
      "inputs": [
        {
          "indexed": false,
          "name": "organism",
          "type": "address"
        },
        {
          "indexed": true,
          "name": "id",
          "type": "uint256"
        },
        {
          "indexed": false,
          "name": "sender",
          "type": "address"
        }
      ],
      "name": "CreateRFL",
      "type": "event"
    },
    {
      "anonymous": false,
      "inputs": [
        {
          "indexed": false,
          "name": "organism",
          "type": "address"
        },
        {
          "indexed": true,
          "name": "id",
          "type": "uint256"
        },
        {
          "indexed": false,
          "name": "value",
          "type": "uint256"
        },
        {
          "indexed": false,
          "name": "sender",
          "type": "address"
        }
      ],
      "name": "AcceptRFL",
      "type": "event"
    },
    {
      "anonymous": false,
      "inputs": [
        {
          "indexed": false,
          "name": "organism",
          "type": "address"
        },
        {
          "indexed": true,
          "name": "id",
          "type": "uint256"
        },
        {
          "indexed": false,
          "name": "sender",
          "type": "address"
        }
      ],
      "name": "RejectRFL",
      "type": "event"
    },
    {
      "constant": false,
      "inputs": [
        {
          "name": "_token",
          "type": "address"
        },
        {
          "name": "_quorum",
          "type": "uint256"
        },
        {
          "name": "_required",
          "type": "uint256"
        }
      ],
      "name": "initialize",
      "outputs": [],
      "payable": false,
      "stateMutability": "nonpayable",
      "type": "function"
    },
    {
      "constant": false,
      "inputs": [
        {
          "name": "_organism",
          "type": "address"
        },
        {
          "components": [
            {
              "name": "metadata",
              "type": "string"
            }
          ],
          "name": "_individuation",
          "type": "tuple"
        },
        {
          "components": [
            {
              "name": "destination",
              "type": "address"
            },
            {
              "name": "minimum",
              "type": "uint256"
            },
            {
              "name": "metadata",
              "type": "string"
            }
          ],
          "name": "_lineages",
          "type": "tuple[]"
        }
      ],
      "name": "createRFI",
      "outputs": [],
      "payable": false,
      "stateMutability": "nonpayable",
      "type": "function"
    },
    {
      "constant": false,
      "inputs": [
        {
          "name": "_organism",
          "type": "address"
        },
        {
          "name": "_RFIid",
          "type": "uint256"
        }
      ],
      "name": "mergeRFI",
      "outputs": [],
      "payable": false,
      "stateMutability": "nonpayable",
      "type": "function"
    },
    {
      "constant": false,
      "inputs": [
        {
          "name": "_organism",
          "type": "address"
        },
        {
          "name": "_RFIid",
          "type": "uint256"
        }
      ],
      "name": "rejectRFI",
      "outputs": [],
      "payable": false,
      "stateMutability": "nonpayable",
      "type": "function"
    },
    {
      "constant": false,
      "inputs": [
        {
          "name": "_organism",
          "type": "address"
        },
        {
          "name": "_RFLid",
          "type": "uint256"
        },
        {
          "name": "_value",
          "type": "uint256"
        }
      ],
      "name": "acceptRFL",
      "outputs": [],
      "payable": false,
      "stateMutability": "nonpayable",
      "type": "function"
    },
    {
      "constant": false,
      "inputs": [
        {
          "name": "_organism",
          "type": "address"
        },
        {
          "name": "_RFLid",
          "type": "uint256"
        }
      ],
      "name": "rejectRFL",
      "outputs": [],
      "payable": false,
      "stateMutability": "nonpayable",
      "type": "function"
    },
    {
      "constant": true,
      "inputs": [
        {
          "name": "_organism",
          "type": "address"
        },
        {
          "name": "_RFIid",
          "type": "uint256"
        }
      ],
      "name": "getRFIVote",
      "outputs": [
        {
          "components": [
            {
              "name": "RFIid",
              "type": "uint256"
            },
            {
              "name": "blockstamp",
              "type": "uint256"
            },
            {
              "name": "supply",
              "type": "uint256"
            },
            {
              "name": "quorum",
              "type": "uint256"
            },
            {
              "name": "required",
              "type": "uint256"
            },
            {
              "name": "yea",
              "type": "uint256"
            },
            {
              "name": "nay",
              "type": "uint256"
            },
            {
              "name": "participation",
              "type": "uint256"
            },
            {
              "name": "state",
              "type": "uint8"
            }
          ],
          "name": "",
          "type": "tuple"
        }
      ],
      "payable": false,
      "stateMutability": "view",
      "type": "function"
    },
    {
      "constant": true,
      "inputs": [
        {
          "name": "_organism",
          "type": "address"
        },
        {
          "name": "_RFLid",
          "type": "uint256"
        }
      ],
      "name": "getRFLVote",
      "outputs": [
        {
          "components": [
            {
              "name": "RFLid",
              "type": "uint256"
            },
            {
              "name": "blockstamp",
              "type": "uint256"
            },
            {
              "name": "supply",
              "type": "uint256"
            },
            {
              "name": "quorum",
              "type": "uint256"
            },
            {
              "name": "required",
              "type": "uint256"
            },
            {
              "name": "yea",
              "type": "uint256"
            },
            {
              "name": "nay",
              "type": "uint256"
            },
            {
              "name": "total",
              "type": "uint256"
            },
            {
              "name": "participation",
              "type": "uint256"
            },
            {
              "name": "state",
              "type": "uint8"
            }
          ],
          "name": "",
          "type": "tuple"
        }
      ],
      "payable": false,
      "stateMutability": "view",
      "type": "function"
    },
    {
      "constant": true,
      "inputs": [
        {
          "name": "_organism",
          "type": "address"
        },
        {
          "name": "_RFIid",
          "type": "uint256"
        },
        {
          "name": "_voter",
          "type": "address"
        }
      ],
      "name": "canVoteOnRFI",
      "outputs": [
        {
          "name": "",
          "type": "bool"
        }
      ],
      "payable": false,
      "stateMutability": "view",
      "type": "function"
    },
    {
      "constant": true,
      "inputs": [
        {
          "name": "_organism",
          "type": "address"
        },
        {
          "name": "_RFLid",
          "type": "uint256"
        },
        {
          "name": "_voter",
          "type": "address"
        }
      ],
      "name": "canVoteOnRFL",
      "outputs": [
        {
          "name": "",
          "type": "bool"
        }
      ],
      "payable": false,
      "stateMutability": "view",
      "type": "function"
    },
    {
      "constant": true,
      "inputs": [
        {
          "name": "_organism",
          "type": "address"
        },
        {
          "name": "_RFIid",
          "type": "uint256"
        }
      ],
      "name": "canExecuteRFIVote",
      "outputs": [
        {
          "name": "",
          "type": "bool"
        }
      ],
      "payable": false,
      "stateMutability": "view",
      "type": "function"
    },
    {
      "constant": true,
      "inputs": [
        {
          "name": "_organism",
          "type": "address"
        },
        {
          "name": "_RFLid",
          "type": "uint256"
        }
      ],
      "name": "canExecuteRFLVote",
      "outputs": [
        {
          "name": "",
          "type": "bool"
        }
      ],
      "payable": false,
      "stateMutability": "view",
      "type": "function"
    }
  ],
  "bytecode": "0x60806040526200001d62000023640100000000026401000000009004565b620002ef565b60006200003e620000f8640100000000026401000000009004565b146040805190810160405280601881526020017f494e49545f414c52454144595f494e495449414c495a45440000000000000000815250901515620000bb576040517f08c379a0000000000000000000000000000000000000000000000000000000008152600401620000b2919062000279565b60405180910390fd5b50620000f67fffffffffffffffffffffffffffffffffffffffffffffffffffffffffffffffff62000145640100000000026401000000009004565b565b6000620001407febb05b386a8d34882b8711d156f463690983dc47815980fb82aeeff1aa43579e600102600019166200022b640100000000026200261e176401000000009004565b905090565b600062000160620000f8640100000000026401000000009004565b146040805190810160405280601881526020017f494e49545f414c52454144595f494e495449414c495a45440000000000000000815250901515620001dd576040517f08c379a0000000000000000000000000000000000000000000000000000000008152600401620001d4919062000279565b60405180910390fd5b5062000228817febb05b386a8d34882b8711d156f463690983dc47815980fb82aeeff1aa43579e60010260001916620002366401000000000262003095179091906401000000009004565b50565b600081549050919050565b8082555050565b60006200024a826200029d565b80845262000260816020860160208601620002a8565b6200026b81620002de565b602085010191505092915050565b600060208201905081810360008301526200029581846200023d565b905092915050565b600081519050919050565b60005b83811015620002c8578082015181840152602081019050620002ab565b83811115620002d8576000848401525b50505050565b6000601f19601f8301169050919050565b615add80620002ff6000396000f30060806040526004361061018b576000357c0100000000000000000000000000000000000000000000000000000000900463ffffffff1680630803fac0146101905780630e732bf2146101bb57806312ddd3c1146102015780631703a0181461023e5780631c633087146102695780632914b9bd146102a757806332f0a3b5146102e45780633b2f7a5c1461030f5780634901f6bc1461034c578063555985331461037757806357f887dd146103a05780636e39432f146103c95780637a1ac61e1461040e5780637e7db6e11461043757806380afdea81461047457806382116aff1461049f5780638a989dfa146104dc5780638b3dd749146105195780638b68b6a2146105445780639d4941d814610581578063a1658fad146105aa578063a479e508146105e7578063bf32aed314610612578063cf61ee3d1461064f578063d49b10e51461068c578063d4aae0c4146106b5578063dc8452cd146106e0578063de4796ed1461070b578063e26700b014610736578063e70b68a51461075f578063fc0c546a14610788575b600080fd5b34801561019c57600080fd5b506101a56107b3565b6040516101b2919061522d565b60405180910390f35b3480156101c757600080fd5b506101e260048036036101dd9190810190614931565b6107de565b6040516101f89a999897969594939291906156d8565b60405180910390f35b34801561020d57600080fd5b5061022860048036036102239190810190614b0a565b61084c565b604051610235919061522d565b60405180910390f35b34801561024a57600080fd5b50610253610a4b565b6040516102609190615607565b60405180910390f35b34801561027557600080fd5b50610290600480360361028b919081019061496d565b610a51565b60405161029e92919061548d565b60405180910390f35b3480156102b357600080fd5b506102ce60048036036102c991908101906149e5565b610a9c565b6040516102db91906152ae565b60405180910390f35b3480156102f057600080fd5b506102f9610b53565b604051610306919061519d565b60405180910390f35b34801561031b57600080fd5b5061033660048036036103319190810190614ace565b610bfd565b60405161034391906155cf565b60405180910390f35b34801561035857600080fd5b50610361610d83565b60405161036e9190615248565b60405180910390f35b34801561038357600080fd5b5061039e60048036036103999190810190614ace565b610dbc565b005b3480156103ac57600080fd5b506103c760048036036103c29190810190614a4f565b610e9c565b005b3480156103d557600080fd5b506103f060048036036103eb9190810190614931565b610f2e565b6040516104059998979695949392919061564b565b60405180910390f35b34801561041a57600080fd5b5061043560048036036104309190810190614ba8565b610f96565b005b34801561044357600080fd5b5061045e60048036036104599190810190614878565b6110c8565b60405161046b919061522d565b60405180910390f35b34801561048057600080fd5b506104896110d3565b6040516104969190615248565b60405180910390f35b3480156104ab57600080fd5b506104c660048036036104c19190810190614ace565b61110a565b6040516104d391906155eb565b60405180910390f35b3480156104e857600080fd5b5061050360048036036104fe919081019061496d565b61129a565b6040516105109190615472565b60405180910390f35b34801561052557600080fd5b5061052e6112d6565b60405161053b9190615607565b60405180910390f35b34801561055057600080fd5b5061056b60048036036105669190810190614b0a565b61130d565b604051610578919061522d565b60405180910390f35b34801561058d57600080fd5b506105a860048036036105a39190810190614878565b61150c565b005b3480156105b657600080fd5b506105d160048036036105cc91908101906148ca565b611810565b6040516105de919061522d565b60405180910390f35b3480156105f357600080fd5b506105fc61193d565b60405161060991906152c9565b60405180910390f35b34801561061e57600080fd5b5061063960048036036106349190810190614ace565b611a3f565b604051610646919061522d565b60405180910390f35b34801561065b57600080fd5b5061067660048036036106719190810190614ace565b611b90565b604051610683919061522d565b60405180910390f35b34801561069857600080fd5b506106b360048036036106ae9190810190614ace565b611ecf565b005b3480156106c157600080fd5b506106ca611faf565b6040516106d791906152e4565b60405180910390f35b3480156106ec57600080fd5b506106f5611fe6565b6040516107029190615607565b60405180910390f35b34801561071757600080fd5b50610720611fec565b60405161072d919061522d565b60405180910390f35b34801561074257600080fd5b5061075d60048036036107589190810190614ace565b61201d565b005b34801561076b57600080fd5b5061078660048036036107819190810190614b59565b6120fd565b005b34801561079457600080fd5b5061079d6122dd565b6040516107aa919061543c565b60405180910390f35b6000806107be6112d6565b9050600081141580156107d85750806107d5612302565b10155b91505090565b6004602052816000526040600020602052806000526040600020600091509150508060000154908060010154908060020154908060030154908060040154908060050154908060060154908060070154908060080154908060090160009054906101000a900460ff1690508a565b60008084846000600460008473ffffffffffffffffffffffffffffffffffffffff1673ffffffffffffffffffffffffffffffffffffffff1681526020019081526020016000206000838152602001908152602001600020600001541115156108e9576040517f08c379a00000000000000000000000000000000000000000000000000000000081526004016108e090615538565b60405180910390fd5b600460008873ffffffffffffffffffffffffffffffffffffffff1673ffffffffffffffffffffffffffffffffffffffff168152602001908152602001600020600087815260200190815260200160002092506000600281111561094857fe5b8360090160009054906101000a900460ff16600281111561096557fe5b148015610a3f575060008060009054906101000a900473ffffffffffffffffffffffffffffffffffffffff1673ffffffffffffffffffffffffffffffffffffffff16634ee2cd7e8786600101546040518363ffffffff167c01000000000000000000000000000000000000000000000000000000000281526004016109eb929190615204565b602060405180830381600087803b158015610a0557600080fd5b505af1158015610a19573d6000803e3d6000fd5b505050506040513d601f19601f82011682018060405250610a3d9190810190614c79565b115b93505050509392505050565b60025481565b600660205282600052604060002060205281600052604060002060205280600052604060002060009250925050508060000160009054906101000a900460ff16908060010154905082565b6000610aa661193d565b73ffffffffffffffffffffffffffffffffffffffff166304bf2a7f836040518263ffffffff167c0100000000000000000000000000000000000000000000000000000000028152600401610afa919061528c565b602060405180830381600087803b158015610b1457600080fd5b505af1158015610b28573d6000803e3d6000fd5b505050506040513d601f19601f82011682018060405250610b4c9190810190614a26565b9050919050565b6000610b5d611faf565b73ffffffffffffffffffffffffffffffffffffffff166332f0a3b56040518163ffffffff167c0100000000000000000000000000000000000000000000000000000000028152600401602060405180830381600087803b158015610bc057600080fd5b505af1158015610bd4573d6000803e3d6000fd5b505050506040513d601f19601f82011682018060405250610bf891908101906148a1565b905090565b610c056140c8565b82826000600360008473ffffffffffffffffffffffffffffffffffffffff1673ffffffffffffffffffffffffffffffffffffffff168152602001908152602001600020600083815260200190815260200160002060000154111515610c9f576040517f08c379a0000000000000000000000000000000000000000000000000000000008152600401610c9690615558565b60405180910390fd5b600360008673ffffffffffffffffffffffffffffffffffffffff1673ffffffffffffffffffffffffffffffffffffffff1681526020019081526020016000206000858152602001908152602001600020610120604051908101604052908160008201548152602001600182015481526020016002820154815260200160038201548152602001600482015481526020016005820154815260200160068201548152602001600782015481526020016008820160009054906101000a900460ff166002811115610d6a57fe5b6002811115610d7557fe5b815250509250505092915050565b60405180807f5550444154455f504152414d45544552535f524f4c45000000000000000000008152506016019050604051809103902081565b610dc46107b3565b6040805190810160405280601481526020017f494e49545f4e4f545f494e495449414c495a4544000000000000000000000000815250901515610e3d576040517f08c379a0000000000000000000000000000000000000000000000000000000008152600401610e3491906154b6565b60405180910390fd5b508181610e4b82823361084c565b1515610e8c576040517f08c379a0000000000000000000000000000000000000000000000000000000008152600401610e83906154d8565b60405180910390fd5b610e96848461230a565b50505050565b610ea46107b3565b6040805190810160405280601481526020017f494e49545f4e4f545f494e495449414c495a4544000000000000000000000000815250901515610f1d576040517f08c379a0000000000000000000000000000000000000000000000000000000008152600401610f1491906154b6565b60405180910390fd5b50610f29838383612356565b505050565b6003602052816000526040600020602052806000526040600020600091509150508060000154908060010154908060020154908060030154908060040154908060050154908060060154908060070154908060080160009054906101000a900460ff16905089565b6000610fa06112d6565b146040805190810160405280601881526020017f494e49545f414c52454144595f494e495449414c495a4544000000000000000081525090151561101a576040517f08c379a000000000000000000000000000000000000000000000000000000000815260040161101191906154b6565b60405180910390fd5b506064821115801561102c5750818111155b151561106d576040517f08c379a000000000000000000000000000000000000000000000000000000000815260040161106490615518565b60405180910390fd5b61107561254b565b826000806101000a81548173ffffffffffffffffffffffffffffffffffffffff021916908373ffffffffffffffffffffffffffffffffffffffff1602179055508160028190555080600181905550505050565b600060019050919050565b60006111057fd625496217aa6a3453eecb9c3489dc5a53e6c67b444329ea2b2cbc9ff547639b60010260001916612613565b905090565b611112614120565b82826000600460008473ffffffffffffffffffffffffffffffffffffffff1673ffffffffffffffffffffffffffffffffffffffff1681526020019081526020016000206000838152602001908152602001600020600001541115156111ac576040517f08c379a00000000000000000000000000000000000000000000000000000000081526004016111a390615538565b60405180910390fd5b600460008673ffffffffffffffffffffffffffffffffffffffff1673ffffffffffffffffffffffffffffffffffffffff168152602001908152602001600020600085815260200190815260200160002061014060405190810160405290816000820154815260200160018201548152602001600282015481526020016003820154815260200160048201548152602001600582015481526020016006820154815260200160078201548152602001600882015481526020016009820160009054906101000a900460ff16600281111561128157fe5b600281111561128c57fe5b815250509250505092915050565b6005602052826000526040600020602052816000526040600020602052806000526040600020600092509250509054906101000a900460ff1681565b60006113087febb05b386a8d34882b8711d156f463690983dc47815980fb82aeeff1aa43579e6001026000191661261e565b905090565b60008084846000600360008473ffffffffffffffffffffffffffffffffffffffff1673ffffffffffffffffffffffffffffffffffffffff1681526020019081526020016000206000838152602001908152602001600020600001541115156113aa576040517f08c379a00000000000000000000000000000000000000000000000000000000081526004016113a190615558565b60405180910390fd5b600360008873ffffffffffffffffffffffffffffffffffffffff1673ffffffffffffffffffffffffffffffffffffffff168152602001908152602001600020600087815260200190815260200160002092506000600281111561140957fe5b8360080160009054906101000a900460ff16600281111561142657fe5b148015611500575060008060009054906101000a900473ffffffffffffffffffffffffffffffffffffffff1673ffffffffffffffffffffffffffffffffffffffff16634ee2cd7e8786600101546040518363ffffffff167c01000000000000000000000000000000000000000000000000000000000281526004016114ac929190615204565b602060405180830381600087803b1580156114c657600080fd5b505af11580156114da573d6000803e3d6000fd5b505050506040513d601f19601f820116820180604052506114fe9190810190614c79565b115b93505050509392505050565b600080611518836110c8565b6040805190810160405280601281526020017f5245434f5645525f444953414c4c4f5745440000000000000000000000000000815250901515611591576040517f08c379a000000000000000000000000000000000000000000000000000000000815260040161158891906154b6565b60405180910390fd5b5061159a610b53565b91506115a582612629565b6040805190810160405280601a81526020017f5245434f5645525f5641554c545f4e4f545f434f4e545241435400000000000081525090151561161e576040517f08c379a000000000000000000000000000000000000000000000000000000000815260040161161591906154b6565b60405180910390fd5b50600073ffffffffffffffffffffffffffffffffffffffff168373ffffffffffffffffffffffffffffffffffffffff1614156116b7578173ffffffffffffffffffffffffffffffffffffffff166108fc3073ffffffffffffffffffffffffffffffffffffffff16319081150290604051600060405180830381858888f193505050501580156116b1573d6000803e3d6000fd5b5061180b565b8273ffffffffffffffffffffffffffffffffffffffff166370a08231306040518263ffffffff167c010000000000000000000000000000000000000000000000000000000002815260040161170c9190615457565b602060405180830381600087803b15801561172657600080fd5b505af115801561173a573d6000803e3d6000fd5b505050506040513d601f19601f8201168201806040525061175e9190810190614c79565b90508273ffffffffffffffffffffffffffffffffffffffff1663a9059cbb83836040518363ffffffff167c01000000000000000000000000000000000000000000000000000000000281526004016117b7929190615204565b602060405180830381600087803b1580156117d157600080fd5b505af11580156117e5573d6000803e3d6000fd5b505050506040513d601f19601f8201168201806040525061180991908101906149bc565b505b505050565b6000806060600061181f6107b3565b151561182e5760009350611933565b611836611faf565b9250600073ffffffffffffffffffffffffffffffffffffffff168373ffffffffffffffffffffffffffffffffffffffff1614156118765760009350611933565b602085510290508491508082528273ffffffffffffffffffffffffffffffffffffffff1663fdef9106883089866040518563ffffffff167c01000000000000000000000000000000000000000000000000000000000281526004016118de94939291906151b8565b602060405180830381600087803b1580156118f857600080fd5b505af115801561190c573d6000803e3d6000fd5b505050506040513d601f19601f8201168201806040525061193091908101906149bc565b93505b5050509392505050565b600080611948611faf565b73ffffffffffffffffffffffffffffffffffffffff1663be00bbd87fd6f028ca0e8edb4a8c9757ca4fdccab25fa1e0317da1188108f7d2dee14902fb6001027fddbcfd564f642ab5627cf68b9b7d374fb4f8a36e941a75d89c87998cef03bd616001026040518363ffffffff167c01000000000000000000000000000000000000000000000000000000000281526004016119e4929190615263565b602060405180830381600087803b1580156119fe57600080fd5b505af1158015611a12573d6000803e3d6000fd5b505050506040513d601f19601f82011682018060405250611a3691908101906148a1565b90508091505090565b60008083836000600460008473ffffffffffffffffffffffffffffffffffffffff1673ffffffffffffffffffffffffffffffffffffffff168152602001908152602001600020600083815260200190815260200160002060000154111515611adc576040517f08c379a0000000000000000000000000000000000000000000000000000000008152600401611ad390615538565b60405180910390fd5b600460008773ffffffffffffffffffffffffffffffffffffffff1673ffffffffffffffffffffffffffffffffffffffff1681526020019081526020016000206000868152602001908152602001600020925060006002811115611b3b57fe5b8360090160009054906101000a900460ff166002811115611b5857fe5b141515611b685760009350611b87565b82600301548360080154101515611b825760019350611b87565b600093505b50505092915050565b600080611b9b61417f565b6000611ba56141b9565b86866000600360008473ffffffffffffffffffffffffffffffffffffffff1673ffffffffffffffffffffffffffffffffffffffff168152602001908152602001600020600083815260200190815260200160002060000154111515611c3f576040517f08c379a0000000000000000000000000000000000000000000000000000000008152600401611c3690615558565b60405180910390fd5b600360008a73ffffffffffffffffffffffffffffffffffffffff1673ffffffffffffffffffffffffffffffffffffffff168152602001908152602001600020600089815260200190815260200160002095508873ffffffffffffffffffffffffffffffffffffffff1663fec7d70b87600001546040518263ffffffff167c0100000000000000000000000000000000000000000000000000000000028152600401611cea9190615607565b600060405180830381600087803b158015611d0457600080fd5b505af1158015611d18573d6000803e3d6000fd5b505050506040513d6000823e3d601f19601f82011682018060405250611d419190810190614bf7565b945060006002811115611d5057fe5b8660080160009054906101000a900460ff166002811115611d6d57fe5b141515611d7d5760009650611ec3565b85600301548660070154101515611ebe5785600401548660050154101515611eb557600093505b846060015151841015611eb4578873ffffffffffffffffffffffffffffffffffffffff1663889bd35d866060015186815181101515611ddf57fe5b906020019060200201516040518263ffffffff167c0100000000000000000000000000000000000000000000000000000000028152600401611e219190615607565b600060405180830381600087803b158015611e3b57600080fd5b505af1158015611e4f573d6000803e3d6000fd5b505050506040513d6000823e3d601f19601f82011682018060405250611e789190810190614c38565b925060016004811115611e8757fe5b83606001516004811115611e9757fe5b141515611ea75760009650611ec3565b8380600101945050611da4565b5b60019650611ec3565b600096505b50505050505092915050565b611ed76107b3565b6040805190810160405280601481526020017f494e49545f4e4f545f494e495449414c495a4544000000000000000000000000815250901515611f50576040517f08c379a0000000000000000000000000000000000000000000000000000000008152600401611f4791906154b6565b60405180910390fd5b508181611f5e82823361130d565b1515611f9f576040517f08c379a0000000000000000000000000000000000000000000000000000000008152600401611f9690615578565b60405180910390fd5b611fa9848461267b565b50505050565b6000611fe17f4172f0f7d2289153072b0a6ca36959e0cbe2efc3afe50fc81636caa96338137b600102600019166126c6565b905090565b60015481565b60007fffffffffffffffffffffffffffffffffffffffffffffffffffffffffffffffff6120176112d6565b14905090565b6120256107b3565b6040805190810160405280601481526020017f494e49545f4e4f545f494e495449414c495a454400000000000000000000000081525090151561209e576040517f08c379a000000000000000000000000000000000000000000000000000000000815260040161209591906154b6565b60405180910390fd5b5081816120ac82823361130d565b15156120ed576040517f08c379a00000000000000000000000000000000000000000000000000000000081526004016120e490615578565b60405180910390fd5b6120f784846126d1565b50505050565b6121056107b3565b6040805190810160405280601481526020017f494e49545f4e4f545f494e495449414c495a454400000000000000000000000081525090151561217e576040517f08c379a000000000000000000000000000000000000000000000000000000000815260040161217591906154b6565b60405180910390fd5b50828261218c82823361084c565b15156121cd576040517f08c379a00000000000000000000000000000000000000000000000000000000081526004016121c4906154d8565b60405180910390fd5b8484848273ffffffffffffffffffffffffffffffffffffffff1663889bd35d836040518263ffffffff167c01000000000000000000000000000000000000000000000000000000000281526004016122259190615607565b600060405180830381600087803b15801561223f57600080fd5b505af1158015612253573d6000803e3d6000fd5b505050506040513d6000823e3d601f19601f8201168201806040525061227c9190810190614c38565b600001516020015181101515156122c8576040517f08c379a00000000000000000000000000000000000000000000000000000000081526004016122bf906154f8565b60405180910390fd5b6122d388888861271c565b5050505050505050565b6000809054906101000a900473ffffffffffffffffffffffffffffffffffffffff1681565b600043905090565b61231882826000803361276b565b807f21b055818c289a0776966d1f4b862b9f71d742681cc90611b5b08dd04f931b87833360405161234a9291906152ff565b60405180910390a25050565b600061236061417f565b60008573ffffffffffffffffffffffffffffffffffffffff166331f7009686866040518363ffffffff167c01000000000000000000000000000000000000000000000000000000000281526004016123b9929190615598565b602060405180830381600087803b1580156123d357600080fd5b505af11580156123e7573d6000803e3d6000fd5b505050506040513d601f19601f8201168201806040525061240b9190810190614c79565b92508573ffffffffffffffffffffffffffffffffffffffff1663fec7d70b846040518263ffffffff167c01000000000000000000000000000000000000000000000000000000000281526004016124629190615607565b600060405180830381600087803b15801561247c57600080fd5b505af1158015612490573d6000803e3d6000fd5b505050506040513d6000823e3d601f19601f820116820180604052506124b99190810190614bf7565b9150600090505b8160600151518110156124ff576124f2868360600151838151811015156124e357fe5b90602001906020020151612c1f565b80806001019150506124c0565b6125098684612e50565b827f7fa5d1ac92146f74ddbebc254679a8e41cda6b732d19aa71b819018f48f0313d873360405161253b9291906152ff565b60405180910390a2505050505050565b60006125556112d6565b146040805190810160405280601881526020017f494e49545f414c52454144595f494e495449414c495a454400000000000000008152509015156125cf576040517f08c379a00000000000000000000000000000000000000000000000000000000081526004016125c691906154b6565b60405180910390fd5b506126116125db612302565b7febb05b386a8d34882b8711d156f463690983dc47815980fb82aeeff1aa43579e6001026000191661309590919063ffffffff16565b565b600081549050919050565b600081549050919050565b600080600073ffffffffffffffffffffffffffffffffffffffff168373ffffffffffffffffffffffffffffffffffffffff16141561266a5760009150612675565b823b90506000811191505b50919050565b612688828260003361309c565b807f765f3d8e266a9fa3317b8fcdbe47e2ee878db83230fe389d4bc83c72adc3b39f83336040516126ba9291906152ff565b60405180910390a25050565b600081549050919050565b6126de828260013361309c565b807fad6ee225281f20a74c5e6e7947529076ca2b4639c983cc0539d57bfeda0afcc283336040516127109291906152ff565b60405180910390a25050565b61272a83836001843361276b565b817f30c734dd2fc051e35d9c49d0950fe6fd43e42658c2397d489d4629cf029c2fd484833360405161275e93929190615351565b60405180910390a2505050565b6000806000600460008973ffffffffffffffffffffffffffffffffffffffff1673ffffffffffffffffffffffffffffffffffffffff168152602001908152602001600020600088815260200190815260200160002092506000809054906101000a900473ffffffffffffffffffffffffffffffffffffffff1673ffffffffffffffffffffffffffffffffffffffff16634ee2cd7e8585600101546040518363ffffffff167c010000000000000000000000000000000000000000000000000000000002815260040161283e929190615204565b602060405180830381600087803b15801561285857600080fd5b505af115801561286c573d6000803e3d6000fd5b505050506040513d601f19601f820116820180604052506128909190810190614c79565b9150600660008973ffffffffffffffffffffffffffffffffffffffff1673ffffffffffffffffffffffffffffffffffffffff168152602001908152602001600020600088815260200190815260200160002060008573ffffffffffffffffffffffffffffffffffffffff1673ffffffffffffffffffffffffffffffffffffffff16815260200190815260200160002090506000600281111561292e57fe5b8160000160009054906101000a900460ff16600281111561294b57fe5b141515612972576129698284600801546135c790919063ffffffff16565b83600801819055505b6001600281111561297f57fe5b8160000160009054906101000a900460ff16600281111561299c57fe5b14156129fb576129b98284600501546135c790919063ffffffff16565b83600501819055506129ee6129db82600101548461365790919063ffffffff16565b84600701546135c790919063ffffffff16565b8360070181905550612a4b565b600280811115612a0757fe5b8160000160009054906101000a900460ff166002811115612a2457fe5b1415612a4a57612a418284600601546135c790919063ffffffff16565b83600601819055505b5b8515612b1157612a6882846005015461370490919063ffffffff16565b8360050181905550612a99612a86868461365790919063ffffffff16565b846007015461370490919063ffffffff16565b836007018190555060018160000160006101000a81548160ff02191690836002811115612ac257fe5b0217905550848160010181905550867f30c734dd2fc051e35d9c49d0950fe6fd43e42658c2397d489d4629cf029c2fd4898787604051612b0493929190615351565b60405180910390a2612b9b565b612b2882846006015461370490919063ffffffff16565b836006018190555060028160000160006101000a81548160ff02191690836002811115612b5157fe5b021790555060008160010181905550867f21b055818c289a0776966d1f4b862b9f71d742681cc90611b5b08dd04f931b878986604051612b929291906152ff565b60405180910390a25b612bb282846008015461370490919063ffffffff16565b83600801819055507f67f31659f141f0c2f72116eb452e307316e88a210cd462934e5215c762d0fa7c888886898987604051612bf3969594939291906153db565b60405180910390a1612c058888611a3f565b15612c1557612c148888613794565b5b5050505050505050565b6000600460008473ffffffffffffffffffffffffffffffffffffffff1673ffffffffffffffffffffffffffffffffffffffff168152602001908152602001600020600083815260200190815260200160002090508181600001819055506001430381600101819055506000809054906101000a900473ffffffffffffffffffffffffffffffffffffffff1673ffffffffffffffffffffffffffffffffffffffff1663981b24d082600101546040518263ffffffff167c0100000000000000000000000000000000000000000000000000000000028152600401612d029190615607565b602060405180830381600087803b158015612d1c57600080fd5b505af1158015612d30573d6000803e3d6000fd5b505050506040513d601f19601f82011682018060405250612d549190810190614c79565b8160020181905550612d886064612d7a836002015460025461365790919063ffffffff16565b613a4690919063ffffffff16565b8160030181905550612dbc6064612dae836002015460015461365790919063ffffffff16565b613a4690919063ffffffff16565b81600401819055506000816005018190555060008160060181905550600081600701819055506000816008018190555060008160090160006101000a81548160ff02191690836002811115612e0d57fe5b02179055507fc80dfb75ae81bddc2353e7829374e3cdd75c0b514ebea75b04ebd43557d938508383604051612e43929190615328565b60405180910390a1505050565b6000600360008473ffffffffffffffffffffffffffffffffffffffff1673ffffffffffffffffffffffffffffffffffffffff168152602001908152602001600020600083815260200190815260200160002090508181600001819055506001430381600101819055506000809054906101000a900473ffffffffffffffffffffffffffffffffffffffff1673ffffffffffffffffffffffffffffffffffffffff1663981b24d082600101546040518263ffffffff167c0100000000000000000000000000000000000000000000000000000000028152600401612f339190615607565b602060405180830381600087803b158015612f4d57600080fd5b505af1158015612f61573d6000803e3d6000fd5b505050506040513d601f19601f82011682018060405250612f859190810190614c79565b8160020181905550612fb96064612fab836002015460025461365790919063ffffffff16565b613a4690919063ffffffff16565b8160030181905550612fed6064612fdf836002015460015461365790919063ffffffff16565b613a4690919063ffffffff16565b816004018190555060008160050181905550600081600601819055506000816007018190555060008160080160006101000a81548160ff0219169083600281111561303457fe5b02179055507f459c0186854b229ea01639896d9758052452d4d6fe7a865172ff28c621b912cb838360405161306a929190615328565b60405180910390a161307d83833361130d565b156130905761308f838360013361309c565b5b505050565b8082555050565b6000806000600360008873ffffffffffffffffffffffffffffffffffffffff1673ffffffffffffffffffffffffffffffffffffffff168152602001908152602001600020600087815260200190815260200160002092506000809054906101000a900473ffffffffffffffffffffffffffffffffffffffff1673ffffffffffffffffffffffffffffffffffffffff16634ee2cd7e8585600101546040518363ffffffff167c010000000000000000000000000000000000000000000000000000000002815260040161316f929190615204565b602060405180830381600087803b15801561318957600080fd5b505af115801561319d573d6000803e3d6000fd5b505050506040513d601f19601f820116820180604052506131c19190810190614c79565b9150600560008873ffffffffffffffffffffffffffffffffffffffff1673ffffffffffffffffffffffffffffffffffffffff168152602001908152602001600020600087815260200190815260200160002060008573ffffffffffffffffffffffffffffffffffffffff1673ffffffffffffffffffffffffffffffffffffffff16815260200190815260200160002060009054906101000a900460ff1690506000600281111561326d57fe5b81600281111561327957fe5b1415156132a0576132978284600701546135c790919063ffffffff16565b83600701819055505b600160028111156132ad57fe5b8160028111156132b957fe5b14156132e3576132d68284600501546135c790919063ffffffff16565b8360050181905550613322565b6002808111156132ef57fe5b8160028111156132fb57fe5b1415613321576133188284600601546135c790919063ffffffff16565b83600601819055505b5b84156134395761333f82846005015461370490919063ffffffff16565b83600501819055506001600560008973ffffffffffffffffffffffffffffffffffffffff1673ffffffffffffffffffffffffffffffffffffffff168152602001908152602001600020600088815260200190815260200160002060008673ffffffffffffffffffffffffffffffffffffffff1673ffffffffffffffffffffffffffffffffffffffff16815260200190815260200160002060006101000a81548160ff021916908360028111156133f157fe5b021790555082600001547fad6ee225281f20a74c5e6e7947529076ca2b4639c983cc0539d57bfeda0afcc2888660405161342c9291906152ff565b60405180910390a2613546565b61345082846006015461370490919063ffffffff16565b83600601819055506002600560008973ffffffffffffffffffffffffffffffffffffffff1673ffffffffffffffffffffffffffffffffffffffff168152602001908152602001600020600088815260200190815260200160002060008673ffffffffffffffffffffffffffffffffffffffff1673ffffffffffffffffffffffffffffffffffffffff16815260200190815260200160002060006101000a81548160ff0219169083600281111561350257fe5b021790555082600001547f765f3d8e266a9fa3317b8fcdbe47e2ee878db83230fe389d4bc83c72adc3b39f888660405161353d9291906152ff565b60405180910390a25b61355d82846007015461370490919063ffffffff16565b83600701819055507ffc7e41801886fcb2f2ed05ea98f973fefd40c265b70ae68ef54e897c07e6a485878786888660405161359c959493929190615388565b60405180910390a16135ae8787611b90565b156135be576135bd8787613adf565b5b50505050505050565b600080838311156040805190810160405280601281526020017f4d4154485f5355425f554e444552464c4f570000000000000000000000000000815250901515613647576040517f08c379a000000000000000000000000000000000000000000000000000000000815260040161363e91906154b6565b60405180910390fd5b5082840390508091505092915050565b600080600084141561366c57600091506136fd565b828402905082848281151561367d57fe5b04146040805190810160405280601181526020017f4d4154485f4d554c5f4f564552464c4f570000000000000000000000000000008152509015156136f8576040517f08c379a00000000000000000000000000000000000000000000000000000000081526004016136ef91906154b6565b60405180910390fd5b508091505b5092915050565b6000808284019050838110156040805190810160405280601181526020017f4d4154485f4144445f4f564552464c4f57000000000000000000000000000000815250901515613789576040517f08c379a000000000000000000000000000000000000000000000000000000000815260040161378091906154b6565b60405180910390fd5b508091505092915050565b6000600460008473ffffffffffffffffffffffffffffffffffffffff1673ffffffffffffffffffffffffffffffffffffffff1681526020019081526020016000206000838152602001908152602001600020905060018160090160006101000a81548160ff0219169083600281111561380957fe5b0217905550806004015481600501541015156138c7578273ffffffffffffffffffffffffffffffffffffffff16636d5f5ca78361385784600501548560070154613a4690919063ffffffff16565b6040518363ffffffff167c0100000000000000000000000000000000000000000000000000000000028152600401613890929190615622565b600060405180830381600087803b1580156138aa57600080fd5b505af11580156138be573d6000803e3d6000fd5b50505050613a08565b613980838473ffffffffffffffffffffffffffffffffffffffff1663889bd35d856040518263ffffffff167c01000000000000000000000000000000000000000000000000000000000281526004016139209190615607565b600060405180830381600087803b15801561393a57600080fd5b505af115801561394e573d6000803e3d6000fd5b505050506040513d6000823e3d601f19601f820116820180604052506139779190810190614c38565b60800151613dbe565b8273ffffffffffffffffffffffffffffffffffffffff16636e0b314c836040518263ffffffff167c01000000000000000000000000000000000000000000000000000000000281526004016139d59190615607565b600060405180830381600087803b1580156139ef57600080fd5b505af1158015613a03573d6000803e3d6000fd5b505050505b7f7a62334ca907cda9edac6f0e64f13251c06a45b9bca0cb82817346d4dd730f6a8383604051613a39929190615328565b60405180910390a1505050565b600080600083116040805190810160405280600d81526020017f4d4154485f4449565f5a45524f00000000000000000000000000000000000000815250901515613ac6576040517f08c379a0000000000000000000000000000000000000000000000000000000008152600401613abd91906154b6565b60405180910390fd5b508284811515613ad257fe5b0490508091505092915050565b6000613ae961417f565b6000600360008673ffffffffffffffffffffffffffffffffffffffff1673ffffffffffffffffffffffffffffffffffffffff1681526020019081526020016000206000858152602001908152602001600020925082600401548360050154101515613bda578473ffffffffffffffffffffffffffffffffffffffff1663ddf6fa9c856040518263ffffffff167c0100000000000000000000000000000000000000000000000000000000028152600401613ba39190615607565b600060405180830381600087803b158015613bbd57600080fd5b505af1158015613bd1573d6000803e3d6000fd5b50505050613d58565b8473ffffffffffffffffffffffffffffffffffffffff1663fec7d70b856040518263ffffffff167c0100000000000000000000000000000000000000000000000000000000028152600401613c2f9190615607565b600060405180830381600087803b158015613c4957600080fd5b505af1158015613c5d573d6000803e3d6000fd5b505050506040513d6000823e3d601f19601f82011682018060405250613c869190810190614bf7565b9150600090505b816060015151811015613ccc57613cbf85836060015183815181101515613cb057fe5b90602001906020020151614010565b8080600101915050613c8d565b8473ffffffffffffffffffffffffffffffffffffffff1663748b052c84600001546040518263ffffffff167c0100000000000000000000000000000000000000000000000000000000028152600401613d259190615607565b600060405180830381600087803b158015613d3f57600080fd5b505af1158015613d53573d6000803e3d6000fd5b505050505b60018360080160006101000a81548160ff02191690836002811115613d7957fe5b02179055507ff9e893896160019f494e6a908a16f04628a4a8a152ca59b6abea9ba8b14e4b6c8585604051613daf929190615328565b60405180910390a15050505050565b6000613dc861417f565b6000600360008673ffffffffffffffffffffffffffffffffffffffff1673ffffffffffffffffffffffffffffffffffffffff168152602001908152602001600020600085815260200190815260200160002092508473ffffffffffffffffffffffffffffffffffffffff1663fec7d70b856040518263ffffffff167c0100000000000000000000000000000000000000000000000000000000028152600401613e719190615607565b600060405180830381600087803b158015613e8b57600080fd5b505af1158015613e9f573d6000803e3d6000fd5b505050506040513d6000823e3d601f19601f82011682018060405250613ec89190810190614bf7565b915060028360080160006101000a81548160ff02191690836002811115613eeb57fe5b0217905550600090505b816060015151811015613fd05760016002811115613f0f57fe5b600460008773ffffffffffffffffffffffffffffffffffffffff1673ffffffffffffffffffffffffffffffffffffffff1681526020019081526020016000206000846060015184815181101515613f6257fe5b90602001906020020151815260200190815260200160002060090160009054906101000a900460ff166002811115613f9657fe5b141515613fc357613fc285836060015183815181101515613fb357fe5b90602001906020020151614010565b5b8080600101915050613ef5565b7f430ff3f9c6554faf1a1b8c7cbf1bf5c479c8eb64538239f8991be60a3bc15e0f8585604051614001929190615328565b60405180910390a15050505050565b6000600460008473ffffffffffffffffffffffffffffffffffffffff1673ffffffffffffffffffffffffffffffffffffffff1681526020019081526020016000206000838152602001908152602001600020905060028160090160006101000a81548160ff0219169083600281111561408557fe5b02179055507f8c6d65bc51d03af5d344851f84b2f3d571456b100242ab79f91a1dae16964acf83836040516140bb929190615328565b60405180910390a1505050565b6101206040519081016040528060008152602001600081526020016000815260200160008152602001600081526020016000815260200160008152602001600081526020016000600281111561411a57fe5b81525090565b610140604051908101604052806000815260200160008152602001600081526020016000815260200160008152602001600081526020016000815260200160008152602001600081526020016000600281111561417957fe5b81525090565b6080604051908101604052806141936141fa565b815260200160008152602001600060038111156141ac57fe5b8152602001606081525090565b60e0604051908101604052806141cd61420e565b81526020016000815260200160008152602001600060048111156141ed57fe5b8152602001600081525090565b602060405190810160405280606081525090565b606060405190810160405280600073ffffffffffffffffffffffffffffffffffffffff16815260200160008152602001606081525090565b60006142528235615918565b905092915050565b60006142668251615918565b905092915050565b600082601f830112151561428157600080fd5b813561429461428f826157a1565b615774565b9150818183526020840193506020810190508360005b838110156142da57813586016142c0888261461c565b8452602084019350602083019250506001810190506142aa565b5050505092915050565b600082601f83011215156142f757600080fd5b815161430a614305826157c9565b615774565b9150818183526020840193506020810190508385602084028201111561432f57600080fd5b60005b8381101561435f57816143458882614864565b845260208401935060208301925050600181019050614332565b5050505092915050565b600082601f830112151561437c57600080fd5b813561438f61438a826157f1565b615774565b915081818352602084019350602081019050838560208402820111156143b457600080fd5b60005b838110156143e457816143ca8882614850565b8452602084019350602083019250506001810190506143b7565b5050505092915050565b60006143fa8251615938565b905092915050565b600061440e8235615944565b905092915050565b600082601f830112151561442957600080fd5b813561443c61443782615819565b615774565b9150808252602083016020830185838301111561445857600080fd5b614463838284615a50565b50505092915050565b6000614478825161594e565b905092915050565b600061448c8235615960565b905092915050565b60006144a08235615972565b905092915050565b60006144b48251615984565b905092915050565b60006144c8825161599d565b905092915050565b600082601f83011215156144e357600080fd5b81356144f66144f182615845565b615774565b9150808252602083016020830185838301111561451257600080fd5b61451d838284615a50565b50505092915050565b600082601f830112151561453957600080fd5b815161454c61454782615845565b615774565b9150808252602083016020830185838301111561456857600080fd5b614573838284615a5f565b50505092915050565b60006020828403121561458e57600080fd5b6145986020615774565b9050600082015167ffffffffffffffff8111156145b457600080fd5b6145c084828501614526565b60008301525092915050565b6000602082840312156145de57600080fd5b6145e86020615774565b9050600082013567ffffffffffffffff81111561460457600080fd5b614610848285016144d0565b60008301525092915050565b60006060828403121561462e57600080fd5b6146386060615774565b9050600061464884828501614246565b600083015250602061465c84828501614850565b602083015250604082013567ffffffffffffffff81111561467c57600080fd5b614688848285016144d0565b60408301525092915050565b6000606082840312156146a657600080fd5b6146b06060615774565b905060006146c08482850161425a565b60008301525060206146d484828501614864565b602083015250604082015167ffffffffffffffff8111156146f457600080fd5b61470084828501614526565b60408301525092915050565b60006080828403121561471e57600080fd5b6147286080615774565b9050600082015167ffffffffffffffff81111561474457600080fd5b6147508482850161457c565b600083015250602061476484828501614864565b6020830152506040614778848285016144a8565b604083015250606082015167ffffffffffffffff81111561479857600080fd5b6147a4848285016142e4565b60608301525092915050565b600060a082840312156147c257600080fd5b6147cc60a0615774565b9050600082015167ffffffffffffffff8111156147e857600080fd5b6147f484828501614694565b600083015250602061480884828501614864565b602083015250604061481c84828501614864565b6040830152506060614830848285016144bc565b606083015250608061484484828501614864565b60808301525092915050565b600061485c82356159b6565b905092915050565b600061487082516159b6565b905092915050565b60006020828403121561488a57600080fd5b600061489884828501614246565b91505092915050565b6000602082840312156148b357600080fd5b60006148c18482850161425a565b91505092915050565b6000806000606084860312156148df57600080fd5b60006148ed86828701614246565b93505060206148fe86828701614402565b925050604084013567ffffffffffffffff81111561491b57600080fd5b61492786828701614369565b9150509250925092565b6000806040838503121561494457600080fd5b600061495285828601614246565b925050602061496385828601614850565b9150509250929050565b60008060006060848603121561498257600080fd5b600061499086828701614246565b93505060206149a186828701614850565b92505060406149b286828701614246565b9150509250925092565b6000602082840312156149ce57600080fd5b60006149dc848285016143ee565b91505092915050565b6000602082840312156149f757600080fd5b600082013567ffffffffffffffff811115614a1157600080fd5b614a1d84828501614416565b91505092915050565b600060208284031215614a3857600080fd5b6000614a468482850161446c565b91505092915050565b600080600060608486031215614a6457600080fd5b6000614a7286828701614480565b935050602084013567ffffffffffffffff811115614a8f57600080fd5b614a9b868287016145cc565b925050604084013567ffffffffffffffff811115614ab857600080fd5b614ac48682870161426e565b9150509250925092565b60008060408385031215614ae157600080fd5b6000614aef85828601614480565b9250506020614b0085828601614850565b9150509250929050565b600080600060608486031215614b1f57600080fd5b6000614b2d86828701614480565b9350506020614b3e86828701614850565b9250506040614b4f86828701614246565b9150509250925092565b600080600060608486031215614b6e57600080fd5b6000614b7c86828701614480565b9350506020614b8d86828701614850565b9250506040614b9e86828701614850565b9150509250925092565b600080600060608486031215614bbd57600080fd5b6000614bcb86828701614494565b9350506020614bdc86828701614850565b9250506040614bed86828701614850565b9150509250925092565b600060208284031215614c0957600080fd5b600082015167ffffffffffffffff811115614c2357600080fd5b614c2f8482850161470c565b91505092915050565b600060208284031215614c4a57600080fd5b600082015167ffffffffffffffff811115614c6457600080fd5b614c70848285016147b0565b91505092915050565b600060208284031215614c8b57600080fd5b6000614c9984828501614864565b91505092915050565b614cab816158ac565b82525050565b6000614cbc8261587e565b80845260208401935083602082028501614cd585615871565b60005b84811015614d0e578383038852614cf0838351614fbb565b9250614cfb8261589f565b9150602088019750600181019050614cd8565b508196508694505050505092915050565b614d28816158cc565b82525050565b614d37816158d8565b82525050565b6000614d4882615889565b808452614d5c816020860160208601615a5f565b614d6581615a92565b602085010191505092915050565b614d7c816159c0565b82525050565b614d8b816159d2565b82525050565b614d9a816159e4565b82525050565b614da9816159f6565b82525050565b614db881615a08565b82525050565b614dc781615a1a565b82525050565b614dd681615a2c565b82525050565b614de581615a3e565b82525050565b6000614df682615894565b808452614e0a816020860160208601615a5f565b614e1381615a92565b602085010191505092915050565b6000601982527f73656e6465722063616e6e6f7420766f7465206f6e2052464c000000000000006020830152604082019050919050565b6000602082527f76616c756520697320696e666572696f7220746f2052464c206d696e696d756d6020830152604082019050919050565b6000602682527f696e697469616c697a6174696f6e20706172616d6574657273206f7574206f6660208301527f20626f756e6400000000000000000000000000000000000000000000000000006040830152606082019050919050565b6000601282527f52464c20646f6573206e6f7420657869737400000000000000000000000000006020830152604082019050919050565b6000601282527f52464920646f6573206e6f7420657869737400000000000000000000000000006020830152604082019050919050565b6000601982527f73656e6465722063616e6e6f7420766f7465206f6e20524649000000000000006020830152604082019050919050565b60006020830160008301518482036000860152614fae8282614deb565b9150508091505092915050565b6000606083016000830151614fd36000860182614ca2565b506020830151614fe6602086018261518e565b5060408301518482036040860152614ffe8282614deb565b9150508091505092915050565b61012082016000820151615022600085018261518e565b506020820151615035602085018261518e565b506040820151615048604085018261518e565b50606082015161505b606085018261518e565b50608082015161506e608085018261518e565b5060a082015161508160a085018261518e565b5060c082015161509460c085018261518e565b5060e08201516150a760e085018261518e565b506101008201516150bc610100850182614dcd565b50505050565b610140820160008201516150d9600085018261518e565b5060208201516150ec602085018261518e565b5060408201516150ff604085018261518e565b506060820151615112606085018261518e565b506080820151615125608085018261518e565b5060a082015161513860a085018261518e565b5060c082015161514b60c085018261518e565b5060e082015161515e60e085018261518e565b5061010082015161517361010085018261518e565b50610120820151615188610120850182614dcd565b50505050565b6151978161590e565b82525050565b60006020820190506151b26000830184614ca2565b92915050565b60006080820190506151cd6000830187614ca2565b6151da6020830186614ca2565b6151e76040830185614d2e565b81810360608301526151f98184614d3d565b905095945050505050565b60006040820190506152196000830185614ca2565b615226602083018461518e565b9392505050565b60006020820190506152426000830184614d1f565b92915050565b600060208201905061525d6000830184614d2e565b92915050565b60006040820190506152786000830185614d2e565b6152856020830184614d2e565b9392505050565b600060208201905081810360008301526152a68184614d3d565b905092915050565b60006020820190506152c36000830184614d73565b92915050565b60006020820190506152de6000830184614d82565b92915050565b60006020820190506152f96000830184614d91565b92915050565b60006040820190506153146000830185614da0565b6153216020830184614ca2565b9392505050565b600060408201905061533d6000830185614da0565b61534a602083018461518e565b9392505050565b60006060820190506153666000830186614da0565b615373602083018561518e565b6153806040830184614ca2565b949350505050565b600060a08201905061539d6000830188614da0565b6153aa602083018761518e565b6153b76040830186614ca2565b6153c46060830185614d1f565b6153d1608083018461518e565b9695505050505050565b600060c0820190506153f06000830189614da0565b6153fd602083018861518e565b61540a6040830187614ca2565b6154176060830186614d1f565b615424608083018561518e565b61543160a083018461518e565b979650505050505050565b60006020820190506154516000830184614daf565b92915050565b600060208201905061546c6000830184614dbe565b92915050565b60006020820190506154876000830184614ddc565b92915050565b60006040820190506154a26000830185614ddc565b6154af602083018461518e565b9392505050565b600060208201905081810360008301526154d08184614deb565b905092915050565b600060208201905081810360008301526154f181614e21565b9050919050565b6000602082019050818103600083015261551181614e58565b9050919050565b6000602082019050818103600083015261553181614e8f565b9050919050565b6000602082019050818103600083015261555181614eec565b9050919050565b6000602082019050818103600083015261557181614f23565b9050919050565b6000602082019050818103600083015261559181614f5a565b9050919050565b600060408201905081810360008301526155b28185614f91565b905081810360208301526155c68184614cb1565b90509392505050565b6000610120820190506155e5600083018461500b565b92915050565b60006101408201905061560160008301846150c2565b92915050565b600060208201905061561c600083018461518e565b92915050565b6000604082019050615637600083018561518e565b615644602083018461518e565b9392505050565b600061012082019050615661600083018c61518e565b61566e602083018b61518e565b61567b604083018a61518e565b615688606083018961518e565b615695608083018861518e565b6156a260a083018761518e565b6156af60c083018661518e565b6156bc60e083018561518e565b6156ca610100830184614dcd565b9a9950505050505050505050565b6000610140820190506156ee600083018d61518e565b6156fb602083018c61518e565b615708604083018b61518e565b615715606083018a61518e565b615722608083018961518e565b61572f60a083018861518e565b61573c60c083018761518e565b61574960e083018661518e565b61575761010083018561518e565b615765610120830184614dcd565b9b9a5050505050505050505050565b6000604051905081810181811067ffffffffffffffff8211171561579757600080fd5b8060405250919050565b600067ffffffffffffffff8211156157b857600080fd5b602082029050602081019050919050565b600067ffffffffffffffff8211156157e057600080fd5b602082029050602081019050919050565b600067ffffffffffffffff82111561580857600080fd5b602082029050602081019050919050565b600067ffffffffffffffff82111561583057600080fd5b601f19601f8301169050602081019050919050565b600067ffffffffffffffff82111561585c57600080fd5b601f19601f8301169050602081019050919050565b6000602082019050919050565b600081519050919050565b600081519050919050565b600081519050919050565b6000602082019050919050565b600073ffffffffffffffffffffffffffffffffffffffff82169050919050565b60008115159050919050565b6000819050919050565b60006003821015156158f057fe5b819050919050565b600060038210151561590657fe5b819050919050565b6000819050919050565b600073ffffffffffffffffffffffffffffffffffffffff82169050919050565b60008115159050919050565b6000819050919050565b6000615959826158ac565b9050919050565b600061596b826158ac565b9050919050565b600061597d826158ac565b9050919050565b600060048210151561599557600080fd5b819050919050565b60006005821015156159ae57600080fd5b819050919050565b6000819050919050565b60006159cb826158ac565b9050919050565b60006159dd826158ac565b9050919050565b60006159ef826158ac565b9050919050565b6000615a01826158ac565b9050919050565b6000615a13826158ac565b9050919050565b6000615a25826158ac565b9050919050565b6000615a37826158e2565b9050919050565b6000615a49826158f8565b9050919050565b82818337600083830152505050565b60005b83811015615a7d578082015181840152602081019050615a62565b83811115615a8c576000848401525b50505050565b6000601f19601f83011690509190505600a265627a7a72305820210c5ab3bf282071539d562231e022433b006c484349a1c9b60505654ce8dc966c6578706572696d656e74616cf50037",
  "source": "pragma solidity ^0.4.24;\npragma experimental ABIEncoderV2;\n\nimport \"@aragon/os/contracts/apps/AragonApp.sol\";\nimport \"@aragon/os/contracts/lib/math/SafeMath.sol\";\nimport \"@aragon/os/contracts/lib/math/SafeMath64.sol\";\nimport \"@aragon/apps-shared-minime/contracts/MiniMeToken.sol\";\nimport \"@pando/core/contracts/organism/IOrganism.sol\";\nimport \"@pando/core/contracts/scheme/IPandoScheme.sol\";\n\n\ncontract DemocracyScheme is IPandoScheme, AragonApp {\n    using SafeMath for uint256;\n    using SafeMath64 for uint64;\n\n    bytes32 public constant UPDATE_PARAMETERS_ROLE = keccak256(\"UPDATE_PARAMETERS_ROLE\");\n\n    enum VoteState  { Pending, Executed, Cancelled }\n    enum VoterState { Absent, Yea, Nay }\n\n    struct RFLBallot {\n        VoterState state;\n        uint256    value;\n    }\n\n    struct RFIVote {\n        uint256   RFIid;\n        uint256   blockstamp;\n        uint256   supply;\n        uint256   quorum;\n        uint256   required;\n        uint256   yea;\n        uint256   nay;\n        uint256   participation;\n        VoteState state;\n    }\n\n    struct RFLVote {\n        uint256   RFLid;\n        uint256   blockstamp;\n        uint256   supply;\n        uint256   quorum;\n        uint256   required;\n        uint256   yea;\n        uint256   nay;\n        uint256   total;\n        uint256   participation;\n        VoteState state;\n    }\n\n    MiniMeToken public token;\n    uint256     public required;\n    uint256     public quorum;\n\n    mapping(address => mapping(uint256 => RFIVote)) public RFIVotes; // mapping RFIs to related vote\n    mapping(address => mapping(uint256 => RFLVote)) public RFLVotes; // mapping RFLs to related vote\n\n    mapping(address => mapping(uint256 => mapping(address => VoterState))) public RFIVotesBallots;\n    mapping(address => mapping(uint256 => mapping(address => RFLBallot)))  public RFLVotesBallots;\n\n    event NewRFIVote(IOrganism organism, uint256 id);\n    event CastRFIVote(IOrganism organism, uint256 id, address voter, bool supports, uint256 stake);\n    event CancelRFIVote(IOrganism organism, uint256 id);\n    event ExecuteRFIVote(IOrganism organism, uint256 id);\n\n    event NewRFLVote(IOrganism organism, uint256 id);\n    event CastRFLVote(IOrganism organism, uint256 id, address voter, bool supports, uint256 value, uint256 stake);\n    event CancelRFLVote(IOrganism organism, uint256 id);\n    event ExecuteRFLVote(IOrganism organism, uint256 id);\n\n    modifier RFIVoteExists(IOrganism _organism, uint256 _RFIid) {\n        require(RFIVotes[address(_organism)][_RFIid].RFIid > 0, \"RFI does not exist\");\n        _;\n    }\n\n    modifier RFLVoteExists(IOrganism _organism, uint256 _RFLid) {\n        require(RFLVotes[address(_organism)][_RFLid].RFLid > 0, \"RFL does not exist\");\n        _;\n    }\n\n    modifier senderCanVoteOnRFI(IOrganism _organism, uint256 _RFIid) {\n        require(canVoteOnRFI(_organism, _RFIid, msg.sender), \"sender cannot vote on RFI\");\n        _;\n    }\n\n    modifier senderCanVoteOnRFL(IOrganism _organism, uint256 _RFLid) {\n        require(canVoteOnRFL(_organism, _RFLid, msg.sender), \"sender cannot vote on RFL\");\n        _;\n    }\n\n    modifier valueIsSuperiorToRFLMinimum(IOrganism _organism, uint256 _RFLid, uint256 _value) {\n        require(_value >= _organism.getRFL(_RFLid).lineage.minimum, \"value is inferior to RFL minimum\");\n        _;\n    }\n\n    function initialize(MiniMeToken _token, uint256 _quorum, uint256 _required) external onlyInit {\n        require(_quorum <= 100 && _required <= _quorum, \"initialization parameters out of bound\");\n\n        initialized();\n\n        token = _token;\n        quorum = _quorum;\n        required = _required;\n    }\n\n    function createRFI(IOrganism _organism, Pando.IIndividuation _individuation, Pando.ILineage[] _lineages) isInitialized {\n        _createRFI(_organism, _individuation, _lineages);\n    }\n\n    function mergeRFI(IOrganism _organism, uint256 _RFIid) public isInitialized senderCanVoteOnRFI(_organism, _RFIid) {\n        _mergeRFI(_organism, _RFIid);\n    }\n\n    function rejectRFI(IOrganism _organism, uint256 _RFIid) public isInitialized senderCanVoteOnRFI(_organism, _RFIid) {\n        _rejectRFI(_organism, _RFIid);\n    }\n\n    function acceptRFL(IOrganism _organism, uint256 _RFLid, uint256 _value)\n        public\n        isInitialized\n        senderCanVoteOnRFL(_organism, _RFLid)\n        valueIsSuperiorToRFLMinimum(_organism, _RFLid, _value)\n    {\n        _acceptRFL(_organism, _RFLid, _value);\n    }\n\n    function rejectRFL(IOrganism _organism, uint256 _RFLid) public isInitialized senderCanVoteOnRFL(_organism, _RFLid) {\n        _rejectRFL(_organism, _RFLid);\n    }\n\n    /*--------------------*/\n\n    function getRFIVote(IOrganism _organism, uint256 _RFIid) public view RFIVoteExists(_organism, _RFIid) returns (RFIVote) {\n        return RFIVotes[address(_organism)][_RFIid];\n    }\n\n    function getRFLVote(IOrganism _organism, uint256 _RFLid) public view RFLVoteExists(_organism, _RFLid) returns (RFLVote) {\n        return RFLVotes[address(_organism)][_RFLid];\n    }\n\n    /*--------------------*/\n\n    function _createRFI(IOrganism _organism, Pando.IIndividuation _individuation, Pando.ILineage[] _lineages) internal {\n        uint256 RFIid = _organism.createRFI(_individuation, _lineages);\n\n        Pando.RFI memory RFI = _organism.getRFI(RFIid);\n\n        for (uint256 i = 0; i < RFI.RFLids.length; i++) {\n            _newRFLVote(_organism, RFI.RFLids[i]);\n        }\n\n        _newRFIVote(_organism, RFIid);\n\n        emit CreateRFI(_organism, RFIid, msg.sender);\n    }\n\n    function _mergeRFI(IOrganism _organism, uint256 _RFIid) internal {\n        _voteRFI(_organism, _RFIid, true, msg.sender);\n        emit MergeRFI(_organism, _RFIid, msg.sender);\n    }\n\n    function _rejectRFI(IOrganism _organism, uint256 _RFIid) internal {\n        _voteRFI(_organism, _RFIid, false, msg.sender);\n        emit RejectRFI(_organism, _RFIid, msg.sender);\n    }\n\n    function _newRFIVote(IOrganism _organism, uint256 _RFIid) internal {\n        RFIVote storage vote = RFIVotes[address(_organism)][_RFIid];\n\n        vote.RFIid = _RFIid;\n        vote.blockstamp = block.number - 1; // avoid double voting in this very block\n        vote.supply = token.totalSupplyAt(vote.blockstamp);\n        vote.quorum = quorum.mul(vote.supply).div(100);\n        vote.required = required.mul(vote.supply).div(100);\n        vote.yea = 0;\n        vote.nay = 0;\n        vote.participation = 0;\n        vote.state = VoteState.Pending;\n\n        emit NewRFIVote(_organism, _RFIid);\n\n        if (canVoteOnRFI(_organism, _RFIid, msg.sender)) {\n            _voteRFI(_organism, _RFIid, true, msg.sender);\n        }\n    }\n\n    function _cancelRFIVote(IOrganism _organism, uint256 _RFIid) internal {\n        RFIVote   storage vote = RFIVotes[address(_organism)][_RFIid];\n        Pando.RFI memory  RFI = _organism.getRFI(_RFIid);\n\n        vote.state = VoteState.Cancelled;\n\n        for (uint256 i = 0; i < RFI.RFLids.length; i++) {\n            if (RFLVotes[address(_organism)][RFI.RFLids[i]].state != VoteState.Executed)\n                _cancelRFLVote(_organism, RFI.RFLids[i]);\n        }\n\n        emit CancelRFIVote(_organism, _RFIid);\n    }\n\n    function _voteRFI(IOrganism _organism, uint256 _RFIid, bool _supports, address _voter) internal {\n        RFIVote storage vote = RFIVotes[address(_organism)][_RFIid];\n\n        uint256 stake = token.balanceOfAt(_voter, vote.blockstamp);\n        VoterState state = RFIVotesBallots[address(_organism)][_RFIid][_voter];\n\n        if (state != VoterState.Absent) {\n            vote.participation = vote.participation.sub(stake);\n        }\n\n        if (state == VoterState.Yea) {\n            vote.yea = vote.yea.sub(stake);\n        } else if (state == VoterState.Nay) {\n            vote.nay = vote.nay.sub(stake);\n        }\n\n        if (_supports) {\n            vote.yea = vote.yea.add(stake);\n            RFIVotesBallots[address(_organism)][_RFIid][_voter] = VoterState.Yea;\n            emit MergeRFI(_organism, vote.RFIid, _voter);\n\n        } else {\n            vote.nay = vote.nay.add(stake);\n            RFIVotesBallots[address(_organism)][_RFIid][_voter] = VoterState.Nay;\n            emit RejectRFI(_organism, vote.RFIid, _voter);\n        }\n\n        vote.participation = vote.participation.add(stake);\n\n        emit CastRFIVote(_organism, _RFIid, _voter, _supports, stake);\n\n        if (canExecuteRFIVote(_organism, _RFIid)) {\n            _executeRFIVote(_organism, _RFIid);\n        }\n    }\n\n    function _executeRFIVote(IOrganism _organism, uint256 _RFIid) internal {\n        RFIVote storage vote = RFIVotes[address(_organism)][_RFIid];\n\n        if (vote.yea >= vote.required) {\n            _organism.mergeRFI(_RFIid);\n        } else {\n            Pando.RFI memory RFI = _organism.getRFI(_RFIid);\n\n            for (uint256 i = 0; i < RFI.RFLids.length; i++) {\n                _cancelRFLVote(_organism, RFI.RFLids[i]);\n            }\n\n            _organism.rejectRFI(vote.RFIid);\n        }\n\n        vote.state = VoteState.Executed;\n\n        emit ExecuteRFIVote(_organism, _RFIid);\n    }\n\n    function _acceptRFL(IOrganism _organism, uint256 _RFLid, uint256 _value) internal {\n        _voteRFL(_organism, _RFLid, true, _value, msg.sender);\n        emit AcceptRFL(_organism, _RFLid, _value, msg.sender);\n    }\n\n    function _rejectRFL(IOrganism _organism, uint256 _RFLid) internal {\n        _voteRFL(_organism, _RFLid, false, 0, msg.sender);\n        emit RejectRFL(_organism, _RFLid, msg.sender);\n    }\n\n    function _newRFLVote(IOrganism _organism, uint256 _RFLid) internal {\n        RFLVote storage vote = RFLVotes[address(_organism)][_RFLid];\n\n        vote.RFLid = _RFLid;\n        vote.blockstamp = block.number - 1; // avoid double voting in this very block\n        vote.supply = token.totalSupplyAt(vote.blockstamp);\n        vote.quorum = quorum.mul(vote.supply).div(100);\n        vote.required = required.mul(vote.supply).div(100);\n        vote.yea = 0;\n        vote.nay = 0;\n        vote.total = 0;\n        vote.participation = 0;\n        vote.state = VoteState.Pending;\n\n        emit NewRFLVote(_organism, _RFLid);\n    }\n\n    function _cancelRFLVote(IOrganism _organism, uint256 _RFLid) internal {\n        RFLVote storage vote = RFLVotes[address(_organism)][_RFLid];\n\n        vote.state = VoteState.Cancelled;\n\n        emit CancelRFLVote(_organism, _RFLid);\n    }\n\n    function _voteRFL(IOrganism _organism, uint256 _RFLid, bool _supports, uint256 _value, address _voter) internal {\n        RFLVote storage vote = RFLVotes[address(_organism)][_RFLid];\n\n        uint256 stake = token.balanceOfAt(_voter, vote.blockstamp);\n        RFLBallot storage ballot = RFLVotesBallots[address(_organism)][_RFLid][_voter];\n\n        if (ballot.state != VoterState.Absent) {\n            vote.participation = vote.participation.sub(stake);\n        }\n\n        if (ballot.state == VoterState.Yea) {\n            vote.yea = vote.yea.sub(stake);\n            vote.total = vote.total.sub(stake.mul(ballot.value));\n        } else if (ballot.state == VoterState.Nay) {\n            vote.nay = vote.nay.sub(stake);\n        }\n\n        if (_supports) {\n            vote.yea = vote.yea.add(stake);\n            vote.total = vote.total.add(stake.mul(_value));\n            ballot.state = VoterState.Yea;\n            ballot.value = _value;\n            emit AcceptRFL(_organism, _RFLid, _value, _voter);\n\n        } else {\n            vote.nay = vote.nay.add(stake);\n            ballot.state = VoterState.Nay;\n            ballot.value = 0;\n            emit RejectRFL(_organism, _RFLid, _voter);\n        }\n\n        vote.participation = vote.participation.add(stake);\n\n        emit CastRFLVote(_organism, _RFLid, _voter, _supports, _value, stake);\n\n        if (canExecuteRFLVote(_organism, _RFLid)) {\n            _executeRFLVote(_organism, _RFLid);\n        }\n    }\n\n    function _executeRFLVote(IOrganism _organism, uint256 _RFLid) internal {\n        RFLVote storage vote = RFLVotes[address(_organism)][_RFLid];\n\n        vote.state = VoteState.Executed;\n\n        if (vote.yea >= vote.required) {\n            _organism.acceptRFL(_RFLid, vote.total.div(vote.yea));\n        } else {\n            _cancelRFIVote(_organism, _organism.getRFL(_RFLid).RFIid);\n            _organism.rejectRFL(_RFLid);\n        }\n\n        emit ExecuteRFLVote(_organism, _RFLid);\n    }\n\n    /*--------------------*/\n\n    function canVoteOnRFI(IOrganism _organism, uint256 _RFIid, address _voter) public view RFIVoteExists(_organism, _RFIid) returns (bool) {\n        RFIVote storage vote = RFIVotes[address(_organism)][_RFIid];\n\n        return vote.state == VoteState.Pending && token.balanceOfAt(_voter, vote.blockstamp) > 0;\n    }\n\n    function canVoteOnRFL(IOrganism _organism, uint256 _RFLid, address _voter) public view RFLVoteExists(_organism, _RFLid) returns (bool) {\n        RFLVote storage vote = RFLVotes[address(_organism)][_RFLid];\n\n        return vote.state == VoteState.Pending && token.balanceOfAt(_voter, vote.blockstamp) > 0;\n    }\n\n    function canExecuteRFIVote(IOrganism _organism, uint256 _RFIid) public view RFIVoteExists(_organism, _RFIid) returns (bool) {\n        RFIVote storage vote = RFIVotes[address(_organism)][_RFIid];\n        Pando.RFI memory RFI = _organism.getRFI(vote.RFIid);\n\n        if (vote.state != VoteState.Pending) {\n            return false;\n        }\n\n        if (vote.participation >= vote.quorum) {\n            if (vote.yea >= vote.required) {\n                for (uint256 i = 0; i < RFI.RFLids.length; i++) {\n                    Pando.RFL memory RFL = _organism.getRFL(RFI.RFLids[i]);\n                    if (RFL.state != Pando.RFLState.Accepted) {\n                        return false;\n                    }\n                }\n            }\n            return true;\n        }\n\n        return false;\n    }\n\n    function canExecuteRFLVote(IOrganism _organism, uint256 _RFLid) public view RFLVoteExists(_organism, _RFLid) returns (bool) {\n        RFLVote storage vote = RFLVotes[address(_organism)][_RFLid];\n\n        if (vote.state != VoteState.Pending) {\n            return false;\n        }\n\n        if (vote.participation >= vote.quorum) {\n            return true;\n        }\n\n        return false;\n    }\n}\n",
  "sourcePath": "@pando/scheme-democracy/contracts/DemocracyScheme.sol",
  "compiler": {
    "name": "solc",
    "version": "0.4.24+commit.e67f0147.Emscripten.clang"
  },
  "schemaVersion": "3.0.0-beta.2",
  "updatedAt": "2018-12-17T18:10:01.620Z",
  "devdoc": {
    "methods": {
      "allowRecoverability(address)": {
        "details": "By default deriving from AragonApp makes it recoverable",
        "params": {
          "token": "Token address that would be recovered"
        },
        "return": "bool whether the app allows the recovery"
      },
      "canPerform(address,bytes32,uint256[])": {
        "details": "Check whether an action can be performed by a sender for a particular role on this app",
        "params": {
          "_params": "Permission params for the role",
          "_role": "Role on this app",
          "_sender": "Sender of the call"
        },
        "return": "Boolean indicating whether the sender has the permissions to perform the action.        Always returns false if the app hasn't been initialized yet."
      },
      "getInitializationBlock()": {
        "return": "Block number in which the contract was initialized"
      },
      "getRecoveryVault()": {
        "details": "Get the recovery vault for the app",
        "return": "Recovery vault address for the app"
      },
      "hasInitialized()": {
        "return": "Whether the contract has been initialized by the time of the current block"
      },
      "transferToVault(address)": {
        "params": {
          "_token": "Token balance to be sent to recovery vault."
        }
      }
    }
  },
  "userdoc": {
    "methods": {
      "transferToVault(address)": {
        "notice": "Send funds to recovery Vault. This contract should never receive funds,        but in case it does, this function allows one to recover them."
      }
    }
  }
}