{
  "contractName": "KernelStorage",
  "abi": [
    {
      "constant": true,
      "inputs": [
        {
          "name": "",
          "type": "bytes32"
        },
        {
          "name": "",
          "type": "bytes32"
        }
      ],
      "name": "apps",
      "outputs": [
        {
          "name": "",
          "type": "address"
        }
      ],
      "payable": false,
      "stateMutability": "view",
      "type": "function"
    },
    {
      "constant": true,
      "inputs": [],
      "name": "recoveryVaultAppId",
      "outputs": [
        {
          "name": "",
          "type": "bytes32"
        }
      ],
      "payable": false,
      "stateMutability": "view",
      "type": "function"
    }
  ],
  "bytecode": "0x608060405234801561001057600080fd5b50610177806100206000396000f30060806040526004361061004c576000357c0100000000000000000000000000000000000000000000000000000000900463ffffffff1680634558850c1461005157806386070cfe146100d0575b600080fd5b34801561005d57600080fd5b5061008e60048036038101908080356000191690602001909291908035600019169060200190929190505050610103565b604051808273ffffffffffffffffffffffffffffffffffffffff1673ffffffffffffffffffffffffffffffffffffffff16815260200191505060405180910390f35b3480156100dc57600080fd5b506100e5610145565b60405180826000191660001916815260200191505060405180910390f35b60006020528160005260406000206020528060005260406000206000915091509054906101000a900473ffffffffffffffffffffffffffffffffffffffff1681565b600154815600a165627a7a7230582046ccfee634569602e05f0a6cdcdb226000e44f71c1db51db85898219b6dad1f70029",
  "source": "pragma solidity 0.4.24;\n\n\ncontract KernelStorage {\n    // namespace => app id => address\n    mapping (bytes32 => mapping (bytes32 => address)) public apps;\n    bytes32 public recoveryVaultAppId;\n}\n",
  "sourcePath": "@aragon/os/contracts/kernel/KernelStorage.sol",
  "compiler": {
    "name": "solc",
    "version": "0.4.24+commit.e67f0147.Emscripten.clang"
  },
  "schemaVersion": "3.0.0-beta.2",
  "updatedAt": "2018-12-17T18:10:01.591Z",
  "devdoc": {
    "methods": {}
  },
  "userdoc": {
    "methods": {}
  }
}