{
  "contractName": "KitBase",
  "abi": [
    {
      "constant": true,
      "inputs": [],
      "name": "ens",
      "outputs": [
        {
          "name": "",
          "type": "address"
        }
      ],
      "payable": false,
      "stateMutability": "view",
      "type": "function"
    },
    {
      "constant": true,
      "inputs": [],
      "name": "fac",
      "outputs": [
        {
          "name": "",
          "type": "address"
        }
      ],
      "payable": false,
      "stateMutability": "view",
      "type": "function"
    },
    {
      "inputs": [
        {
          "name": "_fac",
          "type": "address"
        },
        {
          "name": "_ens",
          "type": "address"
        }
      ],
      "payable": false,
      "stateMutability": "nonpayable",
      "type": "constructor"
    },
    {
      "anonymous": false,
      "inputs": [
        {
          "indexed": false,
          "name": "dao",
          "type": "address"
        }
      ],
      "name": "DeployInstance",
      "type": "event"
    },
    {
      "anonymous": false,
      "inputs": [
        {
          "indexed": false,
          "name": "appProxy",
          "type": "address"
        },
        {
          "indexed": false,
          "name": "appId",
          "type": "bytes32"
        }
      ],
      "name": "InstalledApp",
      "type": "event"
    },
    {
      "constant": true,
      "inputs": [
        {
          "name": "appId",
          "type": "bytes32"
        }
      ],
      "name": "latestVersionAppBase",
      "outputs": [
        {
          "name": "base",
          "type": "address"
        }
      ],
      "payable": false,
      "stateMutability": "view",
      "type": "function"
    }
  ],
  "bytecode": "0x608060405234801561001057600080fd5b50604051604080610aaf83398101806040528101908080519060200190929190805190602001909291905050506000816000806101000a81548173ffffffffffffffffffffffffffffffffffffffff021916908373ffffffffffffffffffffffffffffffffffffffff160217905550600073ffffffffffffffffffffffffffffffffffffffff168373ffffffffffffffffffffffffffffffffffffffff1614156101fe576101016040805190810160405280600881526020017f626172652d6b6974000000000000000000000000000000000000000000000000815250610248640100000000026401000000009004565b905061011b81610370640100000000026401000000009004565b73ffffffffffffffffffffffffffffffffffffffff1663c3b314726040518163ffffffff167c0100000000000000000000000000000000000000000000000000000000028152600401602060405180830381600087803b15801561017e57600080fd5b505af1158015610192573d6000803e3d6000fd5b505050506040513d60208110156101a857600080fd5b8101908080519060200190929190505050600160006101000a81548173ffffffffffffffffffffffffffffffffffffffff021916908373ffffffffffffffffffffffffffffffffffffffff160217905550610240565b82600160006101000a81548173ffffffffffffffffffffffffffffffffffffffff021916908373ffffffffffffffffffffffffffffffffffffffff1602179055505b50505061060f565b60007f9065c3e7f7b7ef1ef4e53d2d0b8e0cef02874ab020c1ece79d5f0d3d0111c0ba600102826040518082805190602001908083835b6020831015156102a4578051825260208201915060208101905060208303925061027f565b6001836020036101000a03801982511681845116808217855250505050505090500191505060405180910390206040516020018083600019166000191681526020018260001916600019168152602001925050506040516020818303038152906040526040518082805190602001908083835b60208310151561033c5780518252602082019150602081019050602083039250610317565b6001836020036101000a03801982511681845116808217855250505050505090500191505060405180910390209050919050565b6000806000809054906101000a900473ffffffffffffffffffffffffffffffffffffffff1673ffffffffffffffffffffffffffffffffffffffff16630178b8bf846040518263ffffffff167c0100000000000000000000000000000000000000000000000000000000028152600401808260001916600019168152602001915050602060405180830381600087803b15801561040b57600080fd5b505af115801561041f573d6000803e3d6000fd5b505050506040513d602081101561043557600080fd5b810190808051906020019092919050505073ffffffffffffffffffffffffffffffffffffffff16633b3b57de846040518263ffffffff167c0100000000000000000000000000000000000000000000000000000000028152600401808260001916600019168152602001915050602060405180830381600087803b1580156104bc57600080fd5b505af11580156104d0573d6000803e3d6000fd5b505050506040513d60208110156104e657600080fd5b810190808051906020019092919050505090508073ffffffffffffffffffffffffffffffffffffffff1663c36af4606040518163ffffffff167c0100000000000000000000000000000000000000000000000000000000028152600401600060405180830381600087803b15801561055d57600080fd5b505af1158015610571573d6000803e3d6000fd5b505050506040513d6000823e3d601f19601f8201168201806040525060a081101561059b57600080fd5b810190809190826060018051906020019092919080516401000000008111156105c357600080fd5b828101905060208101848111156105d957600080fd5b81518560018202830111640100000000821117156105f657600080fd5b5050929190505050909150508092505081915050919050565b6104918061061e6000396000f300608060405260043610610057576000357c0100000000000000000000000000000000000000000000000000000000900463ffffffff1680633f15457f1461005c578063c3b31472146100b3578063c6d2c7171461010a575b600080fd5b34801561006857600080fd5b5061007161017b565b604051808273ffffffffffffffffffffffffffffffffffffffff1673ffffffffffffffffffffffffffffffffffffffff16815260200191505060405180910390f35b3480156100bf57600080fd5b506100c86101a0565b604051808273ffffffffffffffffffffffffffffffffffffffff1673ffffffffffffffffffffffffffffffffffffffff16815260200191505060405180910390f35b34801561011657600080fd5b5061013960048036038101908080356000191690602001909291905050506101c6565b604051808273ffffffffffffffffffffffffffffffffffffffff1673ffffffffffffffffffffffffffffffffffffffff16815260200191505060405180910390f35b6000809054906101000a900473ffffffffffffffffffffffffffffffffffffffff1681565b600160009054906101000a900473ffffffffffffffffffffffffffffffffffffffff1681565b6000806000809054906101000a900473ffffffffffffffffffffffffffffffffffffffff1673ffffffffffffffffffffffffffffffffffffffff16630178b8bf846040518263ffffffff167c0100000000000000000000000000000000000000000000000000000000028152600401808260001916600019168152602001915050602060405180830381600087803b15801561026157600080fd5b505af1158015610275573d6000803e3d6000fd5b505050506040513d602081101561028b57600080fd5b810190808051906020019092919050505073ffffffffffffffffffffffffffffffffffffffff16633b3b57de846040518263ffffffff167c0100000000000000000000000000000000000000000000000000000000028152600401808260001916600019168152602001915050602060405180830381600087803b15801561031257600080fd5b505af1158015610326573d6000803e3d6000fd5b505050506040513d602081101561033c57600080fd5b810190808051906020019092919050505090508073ffffffffffffffffffffffffffffffffffffffff1663c36af4606040518163ffffffff167c0100000000000000000000000000000000000000000000000000000000028152600401600060405180830381600087803b1580156103b357600080fd5b505af11580156103c7573d6000803e3d6000fd5b505050506040513d6000823e3d601f19601f8201168201806040525060a08110156103f157600080fd5b8101908091908260600180519060200190929190805164010000000081111561041957600080fd5b8281019050602081018481111561042f57600080fd5b815185600182028301116401000000008211171561044c57600080fd5b50509291905050509091505080925050819150509190505600a165627a7a723058203116e4c1c18bc1e42e03a51ca2d15e1db9954f712cb1e675badbea3fa1aa9bcf0029",
  "source": "pragma solidity ^0.4.24;\n\nimport \"@aragon/os/contracts/lib/ens/ENS.sol\";\nimport \"@aragon/os/contracts/lib/ens/PublicResolver.sol\";\nimport \"@aragon/os/contracts/apm/Repo.sol\";\nimport \"@aragon/os/contracts/apm/APMNamehash.sol\";\nimport \"@aragon/os/contracts/factory/DAOFactory.sol\";\nimport \"@aragon/apps-shared-minime/contracts/MiniMeToken.sol\";\nimport \"@aragon/apps-vault/contracts/Vault.sol\";\nimport \"@aragon/apps-finance/contracts/Finance.sol\";\nimport \"@aragon/apps-voting/contracts/Voting.sol\";\nimport { TokenManager } from \"@aragon/apps-token-manager/contracts/TokenManager.sol\";\nimport { DemocracyScheme } from \"@pando/scheme-democracy/contracts/DemocracyScheme.sol\";\nimport { IColony } from \"@pando/core/contracts/colony/IColony.sol\";\n\n\ncontract KitBase is APMNamehash {\n    ENS        public ens;\n    DAOFactory public fac;\n\n    event DeployInstance(address dao);\n    event InstalledApp(address appProxy, bytes32 appId);\n\n    constructor(DAOFactory _fac, ENS _ens) public {\n        ens = _ens;\n\n        // If no factory is passed, get it from on-chain bare-kit\n        if (address(_fac) == address(0)) {\n            bytes32 bareKit = apmNamehash(\"bare-kit\");\n            fac = KitBase(latestVersionAppBase(bareKit)).fac();\n        } else {\n            fac = _fac;\n        }\n    }\n\n    function latestVersionAppBase(bytes32 appId) public view returns (address base) {\n        Repo repo = Repo(PublicResolver(ens.resolver(appId)).addr(appId));\n        (,base,) = repo.getLatest();\n\n        return base;\n    }\n}\n\n\ncontract OrganizationFactory is KitBase {\n    MiniMeTokenFactory tokenFactory;\n\n    uint256 constant PCT = 10 ** 16;\n    address constant ANY_ENTITY = address(-1);\n\n    constructor(ENS ens) KitBase(DAOFactory(0), ens) {\n        tokenFactory = new MiniMeTokenFactory();\n    }\n\n    function newInstance() external {\n        bytes32[6] memory appIds = [\n            apmNamehash(\"vault\"),            // 0\n            apmNamehash(\"finance\"),          // 1\n            apmNamehash(\"token-manager\"),    // 2\n            apmNamehash(\"voting\"),           // 3\n            apmNamehash(\"scheme-democracy\"), // 4\n            apmNamehash(\"colony\")            // 5\n        ];\n\n        Kernel dao = fac.newDAO(this);\n        ACL    acl = ACL(dao.acl());\n        acl.createPermission(this, dao, dao.APP_MANAGER_ROLE(), this);\n\n        // Token\n        MiniMeToken token = tokenFactory.createCloneToken(MiniMeToken(address(0)), 0, \"Native Governance Token\", 0, \"NGT\", true);\n        token.generateTokens(msg.sender, 1);\n\n        // Apps\n        Vault vault = Vault(\n            dao.newAppInstance(\n                appIds[0],\n                latestVersionAppBase(appIds[0]),\n                new bytes(0),\n                true\n            )\n        );\n        emit InstalledApp(vault, appIds[0]);\n\n        Finance finance = Finance(\n            dao.newAppInstance(\n                appIds[1],\n                latestVersionAppBase(appIds[1])\n            )\n        );\n        emit InstalledApp(finance, appIds[1]);\n\n        TokenManager tokenManager = TokenManager(\n            dao.newAppInstance(\n                appIds[2],\n                latestVersionAppBase(appIds[2])\n            )\n        );\n        emit InstalledApp(tokenManager, appIds[2]);\n\n        Voting metavoting = Voting(\n            dao.newAppInstance(\n                appIds[3],\n                latestVersionAppBase(appIds[3])\n            )\n        );\n        emit InstalledApp(metavoting, appIds[3]);\n\n        DemocracyScheme scheme = DemocracyScheme(\n            dao.newAppInstance(\n                appIds[4],\n                latestVersionAppBase(appIds[4])\n            )\n        );\n        emit InstalledApp(scheme, appIds[4]);\n\n        IColony colony = IColony(\n            dao.newAppInstance(\n                appIds[5],\n                latestVersionAppBase(appIds[5])\n            )\n        );\n        emit InstalledApp(colony, appIds[5]);\n\n        // Permissions\n        acl.grantPermission(colony, dao, dao.APP_MANAGER_ROLE());\n        acl.grantPermission(colony, acl, acl.CREATE_PERMISSIONS_ROLE());\n        acl.createPermission(finance, vault, vault.TRANSFER_ROLE(), metavoting);\n        acl.createPermission(metavoting, finance, finance.CREATE_PAYMENTS_ROLE(), metavoting);\n        acl.createPermission(metavoting, finance, finance.EXECUTE_PAYMENTS_ROLE(), metavoting);\n        acl.createPermission(metavoting, finance, finance.MANAGE_PAYMENTS_ROLE(), metavoting);\n        acl.createPermission(colony, tokenManager, tokenManager.MINT_ROLE(), metavoting);\n        acl.createPermission(metavoting, tokenManager, tokenManager.ISSUE_ROLE(), metavoting);\n        acl.createPermission(metavoting, tokenManager, tokenManager.ASSIGN_ROLE(), metavoting);\n        acl.createPermission(metavoting, tokenManager, tokenManager.REVOKE_VESTINGS_ROLE(), metavoting);\n        acl.createPermission(metavoting, tokenManager, tokenManager.BURN_ROLE(), metavoting);\n        acl.createPermission(ANY_ENTITY, metavoting, metavoting.CREATE_VOTES_ROLE(), metavoting);\n        acl.createPermission(metavoting, scheme, scheme.UPDATE_PARAMETERS_ROLE(), metavoting);\n        acl.createPermission(ANY_ENTITY, colony, colony.DEPLOY_ORGANISM_ROLE(), metavoting);\n\n        EVMScriptRegistry reg = EVMScriptRegistry(acl.getEVMScriptRegistry());\n        acl.createPermission(metavoting, reg, reg.REGISTRY_ADD_EXECUTOR_ROLE(), metavoting);\n        acl.createPermission(metavoting, reg, reg.REGISTRY_MANAGER_ROLE(), metavoting);\n\n\n        // Initialize apps\n        token.changeController(tokenManager);\n        vault.initialize();\n        finance.initialize(vault, 30 days);\n        tokenManager.initialize(token, true, 0);\n        metavoting.initialize(token, uint64(50 * PCT), uint64(20 * PCT), 1 days);\n        scheme.initialize(token, uint64(50), uint64(20));\n        colony.initialize(ens, tokenManager, scheme);\n\n        // Cleanup permissions\n        acl.grantPermission(metavoting, dao, dao.APP_MANAGER_ROLE());\n        acl.revokePermission(this, dao, dao.APP_MANAGER_ROLE());\n        acl.setPermissionManager(metavoting, dao, dao.APP_MANAGER_ROLE());\n\n        acl.grantPermission(metavoting, acl, acl.CREATE_PERMISSIONS_ROLE());\n        acl.revokePermission(this, acl, acl.CREATE_PERMISSIONS_ROLE());\n        acl.setPermissionManager(metavoting, acl, acl.CREATE_PERMISSIONS_ROLE());\n\n        emit DeployInstance(dao);\n    }\n}\n",
  "sourcePath": "@pando/factory/contracts/OrganizationFactory.sol",
  "compiler": {
    "name": "solc",
    "version": "0.4.24+commit.e67f0147.Emscripten.clang"
  },
  "schemaVersion": "3.0.0-beta.2",
  "updatedAt": "2019-01-12T18:46:11.956Z",
  "devdoc": {
    "methods": {}
  },
  "userdoc": {
    "methods": {}
  }
}