{
  "contractName": "PandoRepository",
  "abi": [
    {
      "constant": true,
      "inputs": [],
      "name": "SORT_PR_ROLE",
      "outputs": [
        {
          "name": "",
          "type": "bytes32"
        }
      ],
      "payable": false,
      "stateMutability": "view",
      "type": "function"
    },
    {
      "constant": true,
      "inputs": [],
      "name": "name",
      "outputs": [
        {
          "name": "",
          "type": "string"
        }
      ],
      "payable": false,
      "stateMutability": "view",
      "type": "function"
    },
    {
      "constant": true,
      "inputs": [],
      "name": "hasInitialized",
      "outputs": [
        {
          "name": "",
          "type": "bool"
        }
      ],
      "payable": false,
      "stateMutability": "view",
      "type": "function"
    },
    {
      "constant": true,
      "inputs": [],
      "name": "PRsLength",
      "outputs": [
        {
          "name": "",
          "type": "uint256"
        }
      ],
      "payable": false,
      "stateMutability": "view",
      "type": "function"
    },
    {
      "constant": true,
      "inputs": [],
      "name": "UPDATE_INFORMATIONS_ROLE",
      "outputs": [
        {
          "name": "",
          "type": "bytes32"
        }
      ],
      "payable": false,
      "stateMutability": "view",
      "type": "function"
    },
    {
      "constant": true,
      "inputs": [
        {
          "name": "_script",
          "type": "bytes"
        }
      ],
      "name": "getEVMScriptExecutor",
      "outputs": [
        {
          "name": "",
          "type": "address"
        }
      ],
      "payable": false,
      "stateMutability": "view",
      "type": "function"
    },
    {
      "constant": true,
      "inputs": [],
      "name": "getRecoveryVault",
      "outputs": [
        {
          "name": "",
          "type": "address"
        }
      ],
      "payable": false,
      "stateMutability": "view",
      "type": "function"
    },
    {
      "constant": true,
      "inputs": [],
      "name": "OPEN_PR_ROLE",
      "outputs": [
        {
          "name": "",
          "type": "bytes32"
        }
      ],
      "payable": false,
      "stateMutability": "view",
      "type": "function"
    },
    {
      "constant": true,
      "inputs": [],
      "name": "description",
      "outputs": [
        {
          "name": "",
          "type": "string"
        }
      ],
      "payable": false,
      "stateMutability": "view",
      "type": "function"
    },
    {
      "constant": true,
      "inputs": [
        {
          "name": "token",
          "type": "address"
        }
      ],
      "name": "allowRecoverability",
      "outputs": [
        {
          "name": "",
          "type": "bool"
        }
      ],
      "payable": false,
      "stateMutability": "view",
      "type": "function"
    },
    {
      "constant": true,
      "inputs": [],
      "name": "appId",
      "outputs": [
        {
          "name": "",
          "type": "bytes32"
        }
      ],
      "payable": false,
      "stateMutability": "view",
      "type": "function"
    },
    {
      "constant": true,
      "inputs": [],
      "name": "getInitializationBlock",
      "outputs": [
        {
          "name": "",
          "type": "uint256"
        }
      ],
      "payable": false,
      "stateMutability": "view",
      "type": "function"
    },
    {
      "constant": false,
      "inputs": [
        {
          "name": "_token",
          "type": "address"
        }
      ],
      "name": "transferToVault",
      "outputs": [],
      "payable": false,
      "stateMutability": "nonpayable",
      "type": "function"
    },
    {
      "constant": true,
      "inputs": [
        {
          "name": "_sender",
          "type": "address"
        },
        {
          "name": "_role",
          "type": "bytes32"
        },
        {
          "name": "_params",
          "type": "uint256[]"
        }
      ],
      "name": "canPerform",
      "outputs": [
        {
          "name": "",
          "type": "bool"
        }
      ],
      "payable": false,
      "stateMutability": "view",
      "type": "function"
    },
    {
      "constant": true,
      "inputs": [],
      "name": "getEVMScriptRegistry",
      "outputs": [
        {
          "name": "",
          "type": "address"
        }
      ],
      "payable": false,
      "stateMutability": "view",
      "type": "function"
    },
    {
      "constant": true,
      "inputs": [],
      "name": "PUSH_ROLE",
      "outputs": [
        {
          "name": "",
          "type": "bytes32"
        }
      ],
      "payable": false,
      "stateMutability": "view",
      "type": "function"
    },
    {
      "constant": true,
      "inputs": [],
      "name": "kernel",
      "outputs": [
        {
          "name": "",
          "type": "address"
        }
      ],
      "payable": false,
      "stateMutability": "view",
      "type": "function"
    },
    {
      "constant": true,
      "inputs": [],
      "name": "isPetrified",
      "outputs": [
        {
          "name": "",
          "type": "bool"
        }
      ],
      "payable": false,
      "stateMutability": "view",
      "type": "function"
    },
    {
      "constant": true,
      "inputs": [
        {
          "name": "",
          "type": "uint256"
        }
      ],
      "name": "PRs",
      "outputs": [
        {
          "name": "state",
          "type": "uint8"
        },
        {
          "name": "author",
          "type": "address"
        },
        {
          "name": "title",
          "type": "string"
        },
        {
          "name": "description",
          "type": "string"
        },
        {
          "name": "ref",
          "type": "string"
        },
        {
          "name": "hash",
          "type": "string"
        }
      ],
      "payable": false,
      "stateMutability": "view",
      "type": "function"
    },
    {
      "anonymous": false,
      "inputs": [
        {
          "indexed": false,
          "name": "ref",
          "type": "string"
        },
        {
          "indexed": false,
          "name": "hash",
          "type": "string"
        }
      ],
      "name": "UpdateRef",
      "type": "event"
    },
    {
      "anonymous": false,
      "inputs": [
        {
          "indexed": true,
          "name": "id",
          "type": "uint256"
        },
        {
          "indexed": false,
          "name": "author",
          "type": "address"
        },
        {
          "indexed": false,
          "name": "title",
          "type": "string"
        },
        {
          "indexed": false,
          "name": "description",
          "type": "string"
        },
        {
          "indexed": false,
          "name": "ref",
          "type": "string"
        },
        {
          "indexed": false,
          "name": "hash",
          "type": "string"
        }
      ],
      "name": "OpenPR",
      "type": "event"
    },
    {
      "anonymous": false,
      "inputs": [
        {
          "indexed": true,
          "name": "id",
          "type": "uint256"
        }
      ],
      "name": "MergePR",
      "type": "event"
    },
    {
      "anonymous": false,
      "inputs": [
        {
          "indexed": true,
          "name": "id",
          "type": "uint256"
        }
      ],
      "name": "RejectPR",
      "type": "event"
    },
    {
      "anonymous": false,
      "inputs": [
        {
          "indexed": false,
          "name": "name",
          "type": "string"
        },
        {
          "indexed": false,
          "name": "description",
          "type": "string"
        }
      ],
      "name": "UpdateInformations",
      "type": "event"
    },
    {
      "anonymous": false,
      "inputs": [
        {
          "indexed": true,
          "name": "executor",
          "type": "address"
        },
        {
          "indexed": false,
          "name": "script",
          "type": "bytes"
        },
        {
          "indexed": false,
          "name": "input",
          "type": "bytes"
        },
        {
          "indexed": false,
          "name": "returnData",
          "type": "bytes"
        }
      ],
      "name": "ScriptResult",
      "type": "event"
    },
    {
      "constant": false,
      "inputs": [
        {
          "name": "_name",
          "type": "string"
        },
        {
          "name": "_description",
          "type": "string"
        }
      ],
      "name": "initialize",
      "outputs": [],
      "payable": false,
      "stateMutability": "nonpayable",
      "type": "function"
    },
    {
      "constant": false,
      "inputs": [
        {
          "name": "_ref",
          "type": "string"
        },
        {
          "name": "_cid",
          "type": "string"
        }
      ],
      "name": "push",
      "outputs": [],
      "payable": false,
      "stateMutability": "nonpayable",
      "type": "function"
    },
    {
      "constant": false,
      "inputs": [
        {
          "name": "_title",
          "type": "string"
        },
        {
          "name": "_description",
          "type": "string"
        },
        {
          "name": "_ref",
          "type": "string"
        },
        {
          "name": "_hash",
          "type": "string"
        }
      ],
      "name": "openPR",
      "outputs": [],
      "payable": false,
      "stateMutability": "nonpayable",
      "type": "function"
    },
    {
      "constant": false,
      "inputs": [
        {
          "name": "_id",
          "type": "uint256"
        }
      ],
      "name": "mergePR",
      "outputs": [],
      "payable": false,
      "stateMutability": "nonpayable",
      "type": "function"
    },
    {
      "constant": false,
      "inputs": [
        {
          "name": "_id",
          "type": "uint256"
        }
      ],
      "name": "rejectPR",
      "outputs": [],
      "payable": false,
      "stateMutability": "nonpayable",
      "type": "function"
    },
    {
      "constant": false,
      "inputs": [
        {
          "name": "_name",
          "type": "string"
        },
        {
          "name": "_description",
          "type": "string"
        }
      ],
      "name": "updateInformations",
      "outputs": [],
      "payable": false,
      "stateMutability": "nonpayable",
      "type": "function"
    },
    {
      "constant": true,
      "inputs": [
        {
          "name": "_ref",
          "type": "string"
        }
      ],
      "name": "ref",
      "outputs": [
        {
          "name": "hash",
          "type": "string"
        }
      ],
      "payable": false,
      "stateMutability": "view",
      "type": "function"
    },
    {
      "constant": true,
      "inputs": [
        {
          "name": "_id",
          "type": "uint256"
        }
      ],
      "name": "canSortPR",
      "outputs": [
        {
          "name": "",
          "type": "bool"
        }
      ],
      "payable": false,
      "stateMutability": "view",
      "type": "function"
    }
  ],
  "bytecode": "0x60806040526200001d62000023640100000000026401000000009004565b620002ef565b60006200003e620000f8640100000000026401000000009004565b146040805190810160405280601881526020017f494e49545f414c52454144595f494e495449414c495a45440000000000000000815250901515620000bb576040517f08c379a0000000000000000000000000000000000000000000000000000000008152600401620000b2919062000279565b60405180910390fd5b50620000f67fffffffffffffffffffffffffffffffffffffffffffffffffffffffffffffffff62000145640100000000026401000000009004565b565b6000620001407febb05b386a8d34882b8711d156f463690983dc47815980fb82aeeff1aa43579e600102600019166200022b6401000000000262001f6e176401000000009004565b905090565b600062000160620000f8640100000000026401000000009004565b146040805190810160405280601881526020017f494e49545f414c52454144595f494e495449414c495a45440000000000000000815250901515620001dd576040517f08c379a0000000000000000000000000000000000000000000000000000000008152600401620001d4919062000279565b60405180910390fd5b5062000228817febb05b386a8d34882b8711d156f463690983dc47815980fb82aeeff1aa43579e600102600019166200023664010000000002620022b1179091906401000000009004565b50565b600081549050919050565b8082555050565b60006200024a826200029d565b80845262000260816020860160208601620002a8565b6200026b81620002de565b602085010191505092915050565b600060208201905081810360008301526200029581846200023d565b905092915050565b600081519050919050565b60005b83811015620002c8578082015181840152602081019050620002ab565b83811115620002d8576000848401525b50505050565b6000601f19601f8301169050919050565b612f1480620002ff6000396000f30060806040526004361061015f576000357c0100000000000000000000000000000000000000000000000000000000900463ffffffff168063040c14111461016457806306fdde031461018f5780630803fac0146101ba57806312880e49146101e5578063278e8afd146102105780632902edef146102395780632914b9bd1461026457806332f0a3b5146102a15780634cd88b76146102cc5780634ef30cbc146102f55780636dc7dec6146103325780637284e4161461035d5780637c51f84e146103885780637e7db6e1146103b157806380afdea8146103ee5780638b3dd749146104195780639c373a77146104445780639d4941d81461046d578063a1658fad14610496578063a1ad644c146104d3578063a479e50814610510578063b2d147f81461053b578063d4aae0c414610566578063d58730ff14610591578063de4796ed146105ba578063f27d23d1146105e5578063f876137614610627575b600080fd5b34801561017057600080fd5b50610179610650565b6040516101869190612ad2565b60405180910390f35b34801561019b57600080fd5b506101a4610689565b6040516101b19190612c21565b60405180910390f35b3480156101c657600080fd5b506101cf610727565b6040516101dc9190612ab7565b60405180910390f35b3480156101f157600080fd5b506101fa610752565b6040516102079190612c9c565b60405180910390f35b34801561021c57600080fd5b50610237600480360361023291908101906126b2565b610758565b005b34801561024557600080fd5b5061024e6108b8565b60405161025b9190612ad2565b60405180910390f35b34801561027057600080fd5b5061028b60048036036102869190810190612648565b6108f1565b6040516102989190612b38565b60405180910390f35b3480156102ad57600080fd5b506102b66109a8565b6040516102c391906129b8565b60405180910390f35b3480156102d857600080fd5b506102f360048036036102ee91908101906126b2565b610a52565b005b34801561030157600080fd5b5061031c6004803603610317919081019061283d565b610b53565b6040516103299190612ab7565b60405180910390f35b34801561033e57600080fd5b50610347610bce565b6040516103549190612ad2565b60405180910390f35b34801561036957600080fd5b50610372610c07565b60405161037f9190612c21565b60405180910390f35b34801561039457600080fd5b506103af60048036036103aa9190810190612727565b610ca5565b005b3480156103bd57600080fd5b506103d860048036036103d39190810190612566565b610e70565b6040516103e59190612ab7565b60405180910390f35b3480156103fa57600080fd5b50610403610e7b565b6040516104109190612ad2565b60405180910390f35b34801561042557600080fd5b5061042e610eb2565b60405161043b9190612c9c565b60405180910390f35b34801561045057600080fd5b5061046b6004803603610466919081019061283d565b610ee9565b005b34801561047957600080fd5b50610494600480360361048f9190810190612566565b611064565b005b3480156104a257600080fd5b506104bd60048036036104b891908101906125b8565b611368565b6040516104ca9190612ab7565b60405180910390f35b3480156104df57600080fd5b506104fa60048036036104f591908101906127fc565b611495565b6040516105079190612c43565b60405180910390f35b34801561051c57600080fd5b506105256115a2565b6040516105329190612b53565b60405180910390f35b34801561054757600080fd5b506105506116a4565b60405161055d9190612ad2565b60405180910390f35b34801561057257600080fd5b5061057b6116dd565b6040516105889190612b6e565b60405180910390f35b34801561059d57600080fd5b506105b860048036036105b3919081019061283d565b611714565b005b3480156105c657600080fd5b506105cf61188f565b6040516105dc9190612ab7565b60405180910390f35b3480156105f157600080fd5b5061060c6004803603610607919081019061283d565b6118c0565b60405161061e96959493929190612ba4565b60405180910390f35b34801561063357600080fd5b5061064e600480360361064991908101906126b2565b611b89565b005b60405180807f534f52545f50525f524f4c450000000000000000000000000000000000000000815250600c019050604051809103902081565b60008054600181600116156101000203166002900480601f01602080910402602001604051908101604052809291908181526020018280546001816001161561010002031660029004801561071f5780601f106106f45761010080835404028352916020019161071f565b820191906000526020600020905b81548152906001019060200180831161070257829003601f168201915b505050505081565b600080610732610eb2565b90506000811415801561074c575080610749611ce9565b10155b91505090565b60045481565b60405180807f5550444154455f494e464f524d4154494f4e535f524f4c450000000000000000815250601801905060405180910390206107c9338260006040519080825280602002602001820160405280156107c35781602001602082028038833980820191505090505b50611368565b6040805190810160405280600f81526020017f4150505f415554485f4641494c45440000000000000000000000000000000000815250901515610842576040517f08c379a00000000000000000000000000000000000000000000000000000000081526004016108399190612c21565b60405180910390fd5b506108b185858080601f01602080910402602001604051908101604052809392919081815260200183838082843782019150505050505084848080601f016020809104026020016040519081016040528093929190818152602001838380828437820191505050505050611cf1565b5050505050565b60405180807f5550444154455f494e464f524d4154494f4e535f524f4c4500000000000000008152506018019050604051809103902081565b60006108fb6115a2565b73ffffffffffffffffffffffffffffffffffffffff166304bf2a7f836040518263ffffffff167c010000000000000000000000000000000000000000000000000000000002815260040161094f9190612b16565b602060405180830381600087803b15801561096957600080fd5b505af115801561097d573d6000803e3d6000fd5b505050506040513d601f19601f820116820180604052506109a19190810190612689565b9050919050565b60006109b26116dd565b73ffffffffffffffffffffffffffffffffffffffff166332f0a3b56040518163ffffffff167c0100000000000000000000000000000000000000000000000000000000028152600401602060405180830381600087803b158015610a1557600080fd5b505af1158015610a29573d6000803e3d6000fd5b505050506040513d601f19601f82011682018060405250610a4d919081019061258f565b905090565b6000610a5c610eb2565b146040805190810160405280601881526020017f494e49545f414c52454144595f494e495449414c495a45440000000000000000815250901515610ad6576040517f08c379a0000000000000000000000000000000000000000000000000000000008152600401610acd9190612c21565b60405180910390fd5b50610adf611d5c565b610b4d84848080601f01602080910402602001604051908101604052809392919081815260200183838082843782019150505050505083838080601f016020809104026020016040519081016040528093929190818152602001838380828437820191505050505050611cf1565b50505050565b6000806001831080610b66575060045483115b15610b745760009150610bc8565b60036000848152602001908152602001600020905060006002811115610b9657fe5b8160000160009054906101000a900460ff166002811115610bb357fe5b141515610bc35760009150610bc8565b600191505b50919050565b60405180807f4f50454e5f50525f524f4c450000000000000000000000000000000000000000815250600c019050604051809103902081565b60018054600181600116156101000203166002900480601f016020809104026020016040519081016040528092919081815260200182805460018160011615610100020316600290048015610c9d5780601f10610c7257610100808354040283529160200191610c9d565b820191906000526020600020905b815481529060010190602001808311610c8057829003601f168201915b505050505081565b60405180807f4f50454e5f50525f524f4c450000000000000000000000000000000000000000815250600c0190506040518091039020610d1633826000604051908082528060200260200182016040528015610d105781602001602082028038833980820191505090505b50611368565b6040805190810160405280600f81526020017f4150505f415554485f4641494c45440000000000000000000000000000000000815250901515610d8f576040517f08c379a0000000000000000000000000000000000000000000000000000000008152600401610d869190612c21565b60405180910390fd5b50610e65338a8a8080601f01602080910402602001604051908101604052809392919081815260200183838082843782019150505050505089898080601f01602080910402602001604051908101604052809392919081815260200183838082843782019150505050505088888080601f01602080910402602001604051908101604052809392919081815260200183838082843782019150505050505087878080601f016020809104026020016040519081016040528093929190818152602001838380828437820191505050505050611e24565b505050505050505050565b600060019050919050565b6000610ead7fd625496217aa6a3453eecb9c3489dc5a53e6c67b444329ea2b2cbc9ff547639b60010260001916611f63565b905090565b6000610ee47febb05b386a8d34882b8711d156f463690983dc47815980fb82aeeff1aa43579e60010260001916611f6e565b905090565b60405180807f534f52545f50525f524f4c450000000000000000000000000000000000000000815250600c0190506040518091039020610f5a33826000604051908082528060200260200182016040528015610f545781602001602082028038833980820191505090505b50611368565b6040805190810160405280600f81526020017f4150505f415554485f4641494c45440000000000000000000000000000000000815250901515610fd3576040517f08c379a0000000000000000000000000000000000000000000000000000000008152600401610fca9190612c21565b60405180910390fd5b50610fdd82610b53565b6040805190810160405280601381526020017f5245504f5f43414e4e4f545f534f52545f505200000000000000000000000000815250901515611056576040517f08c379a000000000000000000000000000000000000000000000000000000000815260040161104d9190612c21565b60405180910390fd5b5061106082611f79565b5050565b60008061107083610e70565b6040805190810160405280601281526020017f5245434f5645525f444953414c4c4f57454400000000000000000000000000008152509015156110e9576040517f08c379a00000000000000000000000000000000000000000000000000000000081526004016110e09190612c21565b60405180910390fd5b506110f26109a8565b91506110fd82612129565b6040805190810160405280601a81526020017f5245434f5645525f5641554c545f4e4f545f434f4e5452414354000000000000815250901515611176576040517f08c379a000000000000000000000000000000000000000000000000000000000815260040161116d9190612c21565b60405180910390fd5b50600073ffffffffffffffffffffffffffffffffffffffff168373ffffffffffffffffffffffffffffffffffffffff16141561120f578173ffffffffffffffffffffffffffffffffffffffff166108fc3073ffffffffffffffffffffffffffffffffffffffff16319081150290604051600060405180830381858888f19350505050158015611209573d6000803e3d6000fd5b50611363565b8273ffffffffffffffffffffffffffffffffffffffff166370a08231306040518263ffffffff167c01000000000000000000000000000000000000000000000000000000000281526004016112649190612b89565b602060405180830381600087803b15801561127e57600080fd5b505af1158015611292573d6000803e3d6000fd5b505050506040513d601f19601f820116820180604052506112b69190810190612866565b90508273ffffffffffffffffffffffffffffffffffffffff1663a9059cbb83836040518363ffffffff167c010000000000000000000000000000000000000000000000000000000002815260040161130f929190612a8e565b602060405180830381600087803b15801561132957600080fd5b505af115801561133d573d6000803e3d6000fd5b505050506040513d601f19601f82011682018060405250611361919081019061261f565b505b505050565b60008060606000611377610727565b1515611386576000935061148b565b61138e6116dd565b9250600073ffffffffffffffffffffffffffffffffffffffff168373ffffffffffffffffffffffffffffffffffffffff1614156113ce576000935061148b565b602085510290508491508082528273ffffffffffffffffffffffffffffffffffffffff1663fdef9106883089866040518563ffffffff167c010000000000000000000000000000000000000000000000000000000002815260040161143694939291906129d3565b602060405180830381600087803b15801561145057600080fd5b505af1158015611464573d6000803e3d6000fd5b505050506040513d601f19601f82011682018060405250611488919081019061261f565b93505b5050509392505050565b60606002826040518082805190602001908083835b6020831015156114cf57805182526020820191506020810190506020830392506114aa565b6001836020036101000a03801982511681845116808217855250505050505090500191505090815260200160405180910390208054600181600116156101000203166002900480601f0160208091040260200160405190810160405280929190818152602001828054600181600116156101000203166002900480156115965780601f1061156b57610100808354040283529160200191611596565b820191906000526020600020905b81548152906001019060200180831161157957829003601f168201915b50505050509050919050565b6000806115ad6116dd565b73ffffffffffffffffffffffffffffffffffffffff1663be00bbd87fd6f028ca0e8edb4a8c9757ca4fdccab25fa1e0317da1188108f7d2dee14902fb6001027fddbcfd564f642ab5627cf68b9b7d374fb4f8a36e941a75d89c87998cef03bd616001026040518363ffffffff167c0100000000000000000000000000000000000000000000000000000000028152600401611649929190612aed565b602060405180830381600087803b15801561166357600080fd5b505af1158015611677573d6000803e3d6000fd5b505050506040513d601f19601f8201168201806040525061169b919081019061258f565b90508091505090565b60405180807f505553485f524f4c4500000000000000000000000000000000000000000000008152506009019050604051809103902081565b600061170f7f4172f0f7d2289153072b0a6ca36959e0cbe2efc3afe50fc81636caa96338137b6001026000191661217b565b905090565b60405180807f534f52545f50525f524f4c450000000000000000000000000000000000000000815250600c01905060405180910390206117853382600060405190808252806020026020018201604052801561177f5781602001602082028038833980820191505090505b50611368565b6040805190810160405280600f81526020017f4150505f415554485f4641494c454400000000000000000000000000000000008152509015156117fe576040517f08c379a00000000000000000000000000000000000000000000000000000000081526004016117f59190612c21565b60405180910390fd5b5061180882610b53565b6040805190810160405280601381526020017f5245504f5f43414e4e4f545f534f52545f505200000000000000000000000000815250901515611881576040517f08c379a00000000000000000000000000000000000000000000000000000000081526004016118789190612c21565b60405180910390fd5b5061188b82612186565b5050565b60007fffffffffffffffffffffffffffffffffffffffffffffffffffffffffffffffff6118ba610eb2565b14905090565b60036020528060005260406000206000915090508060000160009054906101000a900460ff16908060000160019054906101000a900473ffffffffffffffffffffffffffffffffffffffff1690806001018054600181600116156101000203166002900480601f0160208091040260200160405190810160405280929190818152602001828054600181600116156101000203166002900480156119a55780601f1061197a576101008083540402835291602001916119a5565b820191906000526020600020905b81548152906001019060200180831161198857829003601f168201915b505050505090806002018054600181600116156101000203166002900480601f016020809104026020016040519081016040528092919081815260200182805460018160011615610100020316600290048015611a435780601f10611a1857610100808354040283529160200191611a43565b820191906000526020600020905b815481529060010190602001808311611a2657829003601f168201915b505050505090806003018054600181600116156101000203166002900480601f016020809104026020016040519081016040528092919081815260200182805460018160011615610100020316600290048015611ae15780601f10611ab657610100808354040283529160200191611ae1565b820191906000526020600020905b815481529060010190602001808311611ac457829003601f168201915b505050505090806004018054600181600116156101000203166002900480601f016020809104026020016040519081016040528092919081815260200182805460018160011615610100020316600290048015611b7f5780601f10611b5457610100808354040283529160200191611b7f565b820191906000526020600020905b815481529060010190602001808311611b6257829003601f168201915b5050505050905086565b60405180807f505553485f524f4c45000000000000000000000000000000000000000000000081525060090190506040518091039020611bfa33826000604051908082528060200260200182016040528015611bf45781602001602082028038833980820191505090505b50611368565b6040805190810160405280600f81526020017f4150505f415554485f4641494c45440000000000000000000000000000000000815250901515611c73576040517f08c379a0000000000000000000000000000000000000000000000000000000008152600401611c6a9190612c21565b60405180910390fd5b50611ce285858080601f01602080910402602001604051908101604052809392919081815260200183838082843782019150505050505084848080601f0160208091040260200160405190810160405280939291908181526020018383808284378201915050505050506121f4565b5050505050565b600043905090565b8160009080519060200190611d079291906122b8565b508060019080519060200190611d1e9291906122b8565b507f5afc369ecb1aa3c062e62ec2fe583f595d744860a2b2cf4f1afc1c223c0871fe8282604051611d50929190612c65565b60405180910390a15050565b6000611d66610eb2565b146040805190810160405280601881526020017f494e49545f414c52454144595f494e495449414c495a45440000000000000000815250901515611de0576040517f08c379a0000000000000000000000000000000000000000000000000000000008152600401611dd79190612c21565b60405180910390fd5b50611e22611dec611ce9565b7febb05b386a8d34882b8711d156f463690983dc47815980fb82aeeff1aa43579e600102600019166122b190919063ffffffff16565b565b600080600160045401600481905550600454915060036000838152602001908152602001600020905060008160000160006101000a81548160ff02191690836002811115611e6e57fe5b0217905550868160000160016101000a81548173ffffffffffffffffffffffffffffffffffffffff021916908373ffffffffffffffffffffffffffffffffffffffff16021790555085816001019080519060200190611ece9291906122b8565b5084816002019080519060200190611ee79291906122b8565b5083816003019080519060200190611f009291906122b8565b5082816004019080519060200190611f199291906122b8565b50817f4277b8ff3981b7253f0989df2f6b53ec4007191a4d31c247f20b1e36e3465f878888888888604051611f52959493929190612a1f565b60405180910390a250505050505050565b600081549050919050565b600081549050919050565b600060036000838152602001908152602001600020905060018160000160006101000a81548160ff02191690836002811115611fb157fe5b02179055506120f8816003018054600181600116156101000203166002900480601f0160208091040260200160405190810160405280929190818152602001828054600181600116156101000203166002900480156120515780601f1061202657610100808354040283529160200191612051565b820191906000526020600020905b81548152906001019060200180831161203457829003601f168201915b5050505050826004018054600181600116156101000203166002900480601f0160208091040260200160405190810160405280929190818152602001828054600181600116156101000203166002900480156120ee5780601f106120c3576101008083540402835291602001916120ee565b820191906000526020600020905b8154815290600101906020018083116120d157829003601f168201915b50505050506121f4565b817f95bccfc2309f7925fb99e0e146f85e685917706bb163c2d5a217c609c7fda94460405160405180910390a25050565b600080600073ffffffffffffffffffffffffffffffffffffffff168373ffffffffffffffffffffffffffffffffffffffff16141561216a5760009150612175565b823b90506000811191505b50919050565b600081549050919050565b600060036000838152602001908152602001600020905060028160000160006101000a81548160ff021916908360028111156121be57fe5b0217905550817f854070939479d06d7ec6a239e445f35f8e5691c32a10231387786f936405e3c360405160405180910390a25050565b806002836040518082805190602001908083835b60208310151561222d5780518252602082019150602081019050602083039250612208565b6001836020036101000a038019825116818451168082178552505050505050905001915050908152602001604051809103902090805190602001906122739291906122b8565b507fb2eaa3874505c5677f2ece58bc42352903fed51dc88695036bc5534e6d75173182826040516122a5929190612c65565b60405180910390a15050565b8082555050565b828054600181600116156101000203166002900490600052602060002090601f016020900481019282601f106122f957805160ff1916838001178555612327565b82800160010185558215612327579182015b8281111561232657825182559160200191906001019061230b565b5b5090506123349190612338565b5090565b61235a91905b8082111561235657600081600090555060010161233e565b5090565b90565b60006123698235612ddb565b905092915050565b600061237d8251612ddb565b905092915050565b600082601f830112151561239857600080fd5b81356123ab6123a682612ce4565b612cb7565b915081818352602084019350602081019050838560208402820111156123d057600080fd5b60005b8381101561240057816123e6888261253e565b8452602084019350602083019250506001810190506123d3565b5050505092915050565b60006124168251612dfb565b905092915050565b600061242a8235612e07565b905092915050565b600082601f830112151561244557600080fd5b813561245861245382612d0c565b612cb7565b9150808252602083016020830185838301111561247457600080fd5b61247f838284612e87565b50505092915050565b60006124948251612e11565b905092915050565b60008083601f84011215156124b057600080fd5b8235905067ffffffffffffffff8111156124c957600080fd5b6020830191508360018202830111156124e157600080fd5b9250929050565b600082601f83011215156124fb57600080fd5b813561250e61250982612d38565b612cb7565b9150808252602083016020830185838301111561252a57600080fd5b612535838284612e87565b50505092915050565b600061254a8235612e23565b905092915050565b600061255e8251612e23565b905092915050565b60006020828403121561257857600080fd5b60006125868482850161235d565b91505092915050565b6000602082840312156125a157600080fd5b60006125af84828501612371565b91505092915050565b6000806000606084860312156125cd57600080fd5b60006125db8682870161235d565b93505060206125ec8682870161241e565b925050604084013567ffffffffffffffff81111561260957600080fd5b61261586828701612385565b9150509250925092565b60006020828403121561263157600080fd5b600061263f8482850161240a565b91505092915050565b60006020828403121561265a57600080fd5b600082013567ffffffffffffffff81111561267457600080fd5b61268084828501612432565b91505092915050565b60006020828403121561269b57600080fd5b60006126a984828501612488565b91505092915050565b600080600080604085870312156126c857600080fd5b600085013567ffffffffffffffff8111156126e257600080fd5b6126ee8782880161249c565b9450945050602085013567ffffffffffffffff81111561270d57600080fd5b6127198782880161249c565b925092505092959194509250565b6000806000806000806000806080898b03121561274357600080fd5b600089013567ffffffffffffffff81111561275d57600080fd5b6127698b828c0161249c565b9850985050602089013567ffffffffffffffff81111561278857600080fd5b6127948b828c0161249c565b9650965050604089013567ffffffffffffffff8111156127b357600080fd5b6127bf8b828c0161249c565b9450945050606089013567ffffffffffffffff8111156127de57600080fd5b6127ea8b828c0161249c565b92509250509295985092959890939650565b60006020828403121561280e57600080fd5b600082013567ffffffffffffffff81111561282857600080fd5b612834848285016124e8565b91505092915050565b60006020828403121561284f57600080fd5b600061285d8482850161253e565b91505092915050565b60006020828403121561287857600080fd5b600061288684828501612552565b91505092915050565b61289881612d85565b82525050565b6128a781612da5565b82525050565b6128b681612db1565b82525050565b60006128c782612d64565b8084526128db816020860160208601612e96565b6128e481612ec9565b602085010191505092915050565b6128fb81612e2d565b82525050565b61290a81612e3f565b82525050565b61291981612e51565b82525050565b61292881612e63565b82525050565b61293781612e75565b82525050565b600061294882612d7a565b80845261295c816020860160208601612e96565b61296581612ec9565b602085010191505092915050565b600061297e82612d6f565b808452612992816020860160208601612e96565b61299b81612ec9565b602085010191505092915050565b6129b281612dd1565b82525050565b60006020820190506129cd600083018461288f565b92915050565b60006080820190506129e8600083018761288f565b6129f5602083018661288f565b612a0260408301856128ad565b8181036060830152612a1481846128bc565b905095945050505050565b600060a082019050612a34600083018861288f565b8181036020830152612a46818761293d565b90508181036040830152612a5a818661293d565b90508181036060830152612a6e818561293d565b90508181036080830152612a82818461293d565b90509695505050505050565b6000604082019050612aa3600083018561288f565b612ab060208301846129a9565b9392505050565b6000602082019050612acc600083018461289e565b92915050565b6000602082019050612ae760008301846128ad565b92915050565b6000604082019050612b0260008301856128ad565b612b0f60208301846128ad565b9392505050565b60006020820190508181036000830152612b3081846128bc565b905092915050565b6000602082019050612b4d60008301846128f2565b92915050565b6000602082019050612b686000830184612901565b92915050565b6000602082019050612b836000830184612910565b92915050565b6000602082019050612b9e600083018461291f565b92915050565b600060c082019050612bb9600083018961292e565b612bc6602083018861288f565b8181036040830152612bd88187612973565b90508181036060830152612bec8186612973565b90508181036080830152612c008185612973565b905081810360a0830152612c148184612973565b9050979650505050505050565b60006020820190508181036000830152612c3b8184612973565b905092915050565b60006020820190508181036000830152612c5d818461293d565b905092915050565b60006040820190508181036000830152612c7f818561293d565b90508181036020830152612c93818461293d565b90509392505050565b6000602082019050612cb160008301846129a9565b92915050565b6000604051905081810181811067ffffffffffffffff82111715612cda57600080fd5b8060405250919050565b600067ffffffffffffffff821115612cfb57600080fd5b602082029050602081019050919050565b600067ffffffffffffffff821115612d2357600080fd5b601f19601f8301169050602081019050919050565b600067ffffffffffffffff821115612d4f57600080fd5b601f19601f8301169050602081019050919050565b600081519050919050565b600081519050919050565b600081519050919050565b600073ffffffffffffffffffffffffffffffffffffffff82169050919050565b60008115159050919050565b6000819050919050565b6000600382101515612dc957fe5b819050919050565b6000819050919050565b600073ffffffffffffffffffffffffffffffffffffffff82169050919050565b60008115159050919050565b6000819050919050565b6000612e1c82612d85565b9050919050565b6000819050919050565b6000612e3882612d85565b9050919050565b6000612e4a82612d85565b9050919050565b6000612e5c82612d85565b9050919050565b6000612e6e82612d85565b9050919050565b6000612e8082612dbb565b9050919050565b82818337600083830152505050565b60005b83811015612eb4578082015181840152602081019050612e99565b83811115612ec3576000848401525b50505050565b6000601f19601f83011690509190505600a265627a7a723058205007114a5b472a2c699070a895b4e61f514c73f9b92a84c2703c420611ae1cf06c6578706572696d656e74616cf50037",
  "source": "pragma solidity ^0.4.24;\npragma experimental ABIEncoderV2;\n\nimport \"@aragon/os/contracts/apps/AragonApp.sol\";\n\n\ncontract PandoRepository is AragonApp {\n    bytes32 constant public PUSH_ROLE = keccak256(\"PUSH_ROLE\");\n    bytes32 constant public OPEN_PR_ROLE = keccak256(\"OPEN_PR_ROLE\");\n    bytes32 constant public SORT_PR_ROLE = keccak256(\"SORT_PR_ROLE\");\n    bytes32 constant public UPDATE_INFORMATIONS_ROLE = keccak256(\"UPDATE_INFORMATIONS_ROLE\");\n\n    string private constant ERROR_REPO_CANNOT_SORT_PR = \"REPO_CANNOT_SORT_PR\";\n\n    enum PRState { Pending, Merged, Rejected }\n\n    struct PR {\n        PRState state;\n        address author;\n        string  title;\n        string  description;\n        string  ref;\n        string  hash;\n    }\n\n    string public name;\n    string public description;\n    mapping (string => string) refs;\n\n    mapping(uint256 => PR) public PRs;\n    uint256 public PRsLength;\n\n    event UpdateRef(string ref, string hash);\n    event OpenPR(uint256 indexed id, address author, string title, string description, string ref, string hash);\n    event MergePR(uint256 indexed id);\n    event RejectPR(uint256 indexed id);\n    event UpdateInformations(string name, string description);\n\n    /***** external functions *****/\n\n    function initialize(string _name, string _description) external onlyInit {\n        initialized();\n\n        _updateInformations(_name, _description);\n    }\n\n    function push(string _ref, string _cid) external auth(PUSH_ROLE) {\n        _push(_ref, _cid);\n    }\n\n    function openPR(string _title, string _description, string _ref, string _hash) external auth(OPEN_PR_ROLE) {\n        _openPR(msg.sender, _title, _description, _ref, _hash);\n    }\n\n    function mergePR(uint256 _id) external auth(SORT_PR_ROLE) {\n        require(canSortPR(_id), ERROR_REPO_CANNOT_SORT_PR);\n        _mergePR(_id);\n    }\n\n    function rejectPR(uint256 _id) external auth(SORT_PR_ROLE) {\n        require(canSortPR(_id), ERROR_REPO_CANNOT_SORT_PR);\n        _rejectPR(_id);\n    }\n\n    function updateInformations(string _name, string _description) external auth(UPDATE_INFORMATIONS_ROLE) {\n        _updateInformations(_name, _description);\n    }\n\n    /***** public functions *****/\n\n    function ref(string _ref) public view returns (string hash) {\n        hash = refs[_ref];\n    }\n\n    function canSortPR(uint256 _id) public view returns (bool) {\n        if (_id < 1 || _id > PRsLength)\n            return false;\n\n        PR storage pr = PRs[_id];\n        if (pr.state != PRState.Pending)\n            return false;\n\n        return true;\n    }\n\n    /***** private functions *****/\n\n    function _push(string _ref, string _cid) internal {\n        refs[_ref] = _cid;\n\n        emit UpdateRef(_ref, _cid);\n    }\n\n    function _openPR(address _author, string _title, string _description, string _ref, string _hash) internal {\n        PRsLength = PRsLength + 1;\n        uint256 id = PRsLength;\n\n        PR storage pr = PRs[id];\n\n        pr.state = PRState.Pending;\n        pr.author = _author;\n        pr.title = _title;\n        pr.description = _description;\n        pr.ref = _ref;\n        pr.hash = _hash;\n\n        emit OpenPR(id, _author, _title, _description, _ref, _hash);\n    }\n\n    function _mergePR(uint256 _id) internal {\n        PR storage pr = PRs[_id];\n\n        pr.state = PRState.Merged;\n        _push(pr.ref, pr.hash);\n\n        emit MergePR(_id);\n    }\n\n    function _rejectPR(uint256 _id) internal {\n        PR storage pr = PRs[_id];\n\n        pr.state = PRState.Rejected;\n\n        emit RejectPR(_id);\n    }\n\n    function _updateInformations(string _name, string _description) internal {\n        name = _name;\n        description = _description;\n\n        emit UpdateInformations(_name, _description);\n    }\n\n\n}\n",
  "sourcePath": "/Users/osarrouy/Documents/PandoNetwork/pando/packages/pando-repository/contracts/PandoRepository.sol",
  "compiler": {
    "name": "solc",
    "version": "0.4.24+commit.e67f0147.Emscripten.clang"
  },
  "schemaVersion": "3.0.1",
  "updatedAt": "2019-03-27T12:09:43.299Z",
  "devdoc": {
    "methods": {
      "allowRecoverability(address)": {
        "details": "By default deriving from AragonApp makes it recoverable",
        "params": {
          "token": "Token address that would be recovered"
        },
        "return": "bool whether the app allows the recovery"
      },
      "canPerform(address,bytes32,uint256[])": {
        "details": "Check whether an action can be performed by a sender for a particular role on this app",
        "params": {
          "_params": "Permission params for the role",
          "_role": "Role on this app",
          "_sender": "Sender of the call"
        },
        "return": "Boolean indicating whether the sender has the permissions to perform the action.        Always returns false if the app hasn't been initialized yet."
      },
      "getInitializationBlock()": {
        "return": "Block number in which the contract was initialized"
      },
      "getRecoveryVault()": {
        "details": "Get the recovery vault for the app",
        "return": "Recovery vault address for the app"
      },
      "hasInitialized()": {
        "return": "Whether the contract has been initialized by the time of the current block"
      },
      "transferToVault(address)": {
        "params": {
          "_token": "Token balance to be sent to recovery vault."
        }
      }
    }
  },
  "userdoc": {
    "methods": {
      "initialize(string,string)": {
        "notice": "*** external functions ****"
      },
      "ref(string)": {
        "notice": "*** public functions ****"
      },
      "transferToVault(address)": {
        "notice": "Send funds to recovery Vault. This contract should never receive funds,        but in case it does, this function allows one to recover them."
      }
    }
  }
}