{
  "contractName": "ACL",
  "abi": [
    {
      "constant": false,
      "inputs": [
        {
          "name": "_entity",
          "type": "address"
        },
        {
          "name": "_app",
          "type": "address"
        },
        {
          "name": "_role",
          "type": "bytes32"
        }
      ],
      "name": "grantPermission",
      "outputs": [],
      "payable": false,
      "stateMutability": "nonpayable",
      "type": "function"
    },
    {
      "constant": true,
      "inputs": [
        {
          "name": "_entity",
          "type": "address"
        },
        {
          "name": "_app",
          "type": "address"
        },
        {
          "name": "_role",
          "type": "bytes32"
        }
      ],
      "name": "getPermissionParamsLength",
      "outputs": [
        {
          "name": "",
          "type": "uint256"
        }
      ],
      "payable": false,
      "stateMutability": "view",
      "type": "function"
    },
    {
      "constant": true,
      "inputs": [],
      "name": "APP_ADDR_NAMESPACE",
      "outputs": [
        {
          "name": "",
          "type": "bytes32"
        }
      ],
      "payable": false,
      "stateMutability": "view",
      "type": "function"
    },
    {
      "constant": true,
      "inputs": [
        {
          "name": "_paramsHash",
          "type": "bytes32"
        },
        {
          "name": "_who",
          "type": "address"
        },
        {
          "name": "_where",
          "type": "address"
        },
        {
          "name": "_what",
          "type": "bytes32"
        },
        {
          "name": "_how",
          "type": "uint256[]"
        }
      ],
      "name": "evalParams",
      "outputs": [
        {
          "name": "",
          "type": "bool"
        }
      ],
      "payable": false,
      "stateMutability": "view",
      "type": "function"
    },
    {
      "constant": true,
      "inputs": [],
      "name": "getRecoveryVault",
      "outputs": [
        {
          "name": "",
          "type": "address"
        }
      ],
      "payable": false,
      "stateMutability": "view",
      "type": "function"
    },
    {
      "constant": true,
      "inputs": [],
      "name": "CREATE_PERMISSIONS_ROLE",
      "outputs": [
        {
          "name": "",
          "type": "bytes32"
        }
      ],
      "payable": false,
      "stateMutability": "view",
      "type": "function"
    },
    {
      "constant": true,
      "inputs": [],
      "name": "EVMSCRIPT_REGISTRY_APP_ID",
      "outputs": [
        {
          "name": "",
          "type": "bytes32"
        }
      ],
      "payable": false,
      "stateMutability": "view",
      "type": "function"
    },
    {
      "constant": false,
      "inputs": [
        {
          "name": "_entity",
          "type": "address"
        },
        {
          "name": "_app",
          "type": "address"
        },
        {
          "name": "_role",
          "type": "bytes32"
        },
        {
          "name": "_params",
          "type": "uint256[]"
        }
      ],
      "name": "grantPermissionP",
      "outputs": [],
      "payable": false,
      "stateMutability": "nonpayable",
      "type": "function"
    },
    {
      "constant": true,
      "inputs": [
        {
          "name": "_who",
          "type": "address"
        },
        {
          "name": "_where",
          "type": "address"
        },
        {
          "name": "_what",
          "type": "bytes32"
        }
      ],
      "name": "hasPermission",
      "outputs": [
        {
          "name": "",
          "type": "bool"
        }
      ],
      "payable": false,
      "stateMutability": "view",
      "type": "function"
    },
    {
      "constant": true,
      "inputs": [
        {
          "name": "",
          "type": "bytes32"
        },
        {
          "name": "",
          "type": "uint256"
        }
      ],
      "name": "permissionParams",
      "outputs": [
        {
          "name": "id",
          "type": "uint8"
        },
        {
          "name": "op",
          "type": "uint8"
        },
        {
          "name": "value",
          "type": "uint240"
        }
      ],
      "payable": false,
      "stateMutability": "view",
      "type": "function"
    },
    {
      "constant": true,
      "inputs": [
        {
          "name": "token",
          "type": "address"
        }
      ],
      "name": "allowRecoverability",
      "outputs": [
        {
          "name": "",
          "type": "bool"
        }
      ],
      "payable": false,
      "stateMutability": "view",
      "type": "function"
    },
    {
      "constant": true,
      "inputs": [],
      "name": "appId",
      "outputs": [
        {
          "name": "",
          "type": "bytes32"
        }
      ],
      "payable": false,
      "stateMutability": "view",
      "type": "function"
    },
    {
      "constant": true,
      "inputs": [],
      "name": "ETH",
      "outputs": [
        {
          "name": "",
          "type": "address"
        }
      ],
      "payable": false,
      "stateMutability": "view",
      "type": "function"
    },
    {
      "constant": true,
      "inputs": [],
      "name": "getInitializationBlock",
      "outputs": [
        {
          "name": "",
          "type": "uint256"
        }
      ],
      "payable": false,
      "stateMutability": "view",
      "type": "function"
    },
    {
      "constant": true,
      "inputs": [],
      "name": "EVMSCRIPT_REGISTRY_APP",
      "outputs": [
        {
          "name": "",
          "type": "bytes32"
        }
      ],
      "payable": false,
      "stateMutability": "view",
      "type": "function"
    },
    {
      "constant": false,
      "inputs": [
        {
          "name": "_entity",
          "type": "address"
        },
        {
          "name": "_app",
          "type": "address"
        },
        {
          "name": "_role",
          "type": "bytes32"
        }
      ],
      "name": "revokePermission",
      "outputs": [],
      "payable": false,
      "stateMutability": "nonpayable",
      "type": "function"
    },
    {
      "constant": false,
      "inputs": [
        {
          "name": "_token",
          "type": "address"
        }
      ],
      "name": "transferToVault",
      "outputs": [],
      "payable": false,
      "stateMutability": "nonpayable",
      "type": "function"
    },
    {
      "constant": true,
      "inputs": [
        {
          "name": "_entity",
          "type": "address"
        },
        {
          "name": "_app",
          "type": "address"
        },
        {
          "name": "_role",
          "type": "bytes32"
        },
        {
          "name": "_index",
          "type": "uint256"
        }
      ],
      "name": "getPermissionParam",
      "outputs": [
        {
          "name": "id",
          "type": "uint8"
        },
        {
          "name": "op",
          "type": "uint8"
        },
        {
          "name": "value",
          "type": "uint240"
        }
      ],
      "payable": false,
      "stateMutability": "view",
      "type": "function"
    },
    {
      "constant": true,
      "inputs": [
        {
          "name": "_sender",
          "type": "address"
        },
        {
          "name": "_role",
          "type": "bytes32"
        },
        {
          "name": "params",
          "type": "uint256[]"
        }
      ],
      "name": "canPerform",
      "outputs": [
        {
          "name": "",
          "type": "bool"
        }
      ],
      "payable": false,
      "stateMutability": "view",
      "type": "function"
    },
    {
      "constant": false,
      "inputs": [
        {
          "name": "_app",
          "type": "address"
        },
        {
          "name": "_role",
          "type": "bytes32"
        }
      ],
      "name": "removePermissionManager",
      "outputs": [],
      "payable": false,
      "stateMutability": "nonpayable",
      "type": "function"
    },
    {
      "constant": false,
      "inputs": [
        {
          "name": "_newManager",
          "type": "address"
        },
        {
          "name": "_app",
          "type": "address"
        },
        {
          "name": "_role",
          "type": "bytes32"
        }
      ],
      "name": "setPermissionManager",
      "outputs": [],
      "payable": false,
      "stateMutability": "nonpayable",
      "type": "function"
    },
    {
      "constant": true,
      "inputs": [
        {
          "name": "_app",
          "type": "address"
        },
        {
          "name": "_role",
          "type": "bytes32"
        }
      ],
      "name": "getPermissionManager",
      "outputs": [
        {
          "name": "",
          "type": "address"
        }
      ],
      "payable": false,
      "stateMutability": "view",
      "type": "function"
    },
    {
      "constant": false,
      "inputs": [
        {
          "name": "_entity",
          "type": "address"
        },
        {
          "name": "_app",
          "type": "address"
        },
        {
          "name": "_role",
          "type": "bytes32"
        },
        {
          "name": "_manager",
          "type": "address"
        }
      ],
      "name": "createPermission",
      "outputs": [],
      "payable": false,
      "stateMutability": "nonpayable",
      "type": "function"
    },
    {
      "constant": false,
      "inputs": [
        {
          "name": "_permissionsCreator",
          "type": "address"
        }
      ],
      "name": "initialize",
      "outputs": [],
      "payable": false,
      "stateMutability": "nonpayable",
      "type": "function"
    },
    {
      "constant": true,
      "inputs": [],
      "name": "EMPTY_PARAM_HASH",
      "outputs": [
        {
          "name": "",
          "type": "bytes32"
        }
      ],
      "payable": false,
      "stateMutability": "view",
      "type": "function"
    },
    {
      "constant": true,
      "inputs": [],
      "name": "kernel",
      "outputs": [
        {
          "name": "",
          "type": "address"
        }
      ],
      "payable": false,
      "stateMutability": "view",
      "type": "function"
    },
    {
      "constant": true,
      "inputs": [
        {
          "name": "_who",
          "type": "address"
        },
        {
          "name": "_where",
          "type": "address"
        },
        {
          "name": "_what",
          "type": "bytes32"
        },
        {
          "name": "_how",
          "type": "uint256[]"
        }
      ],
      "name": "hasPermission",
      "outputs": [
        {
          "name": "",
          "type": "bool"
        }
      ],
      "payable": false,
      "stateMutability": "view",
      "type": "function"
    },
    {
      "constant": true,
      "inputs": [
        {
          "name": "_script",
          "type": "bytes"
        }
      ],
      "name": "getExecutor",
      "outputs": [
        {
          "name": "",
          "type": "address"
        }
      ],
      "payable": false,
      "stateMutability": "view",
      "type": "function"
    },
    {
      "constant": true,
      "inputs": [
        {
          "name": "_who",
          "type": "address"
        },
        {
          "name": "_where",
          "type": "address"
        },
        {
          "name": "_what",
          "type": "bytes32"
        },
        {
          "name": "_how",
          "type": "bytes"
        }
      ],
      "name": "hasPermission",
      "outputs": [
        {
          "name": "",
          "type": "bool"
        }
      ],
      "payable": false,
      "stateMutability": "view",
      "type": "function"
    },
    {
      "anonymous": false,
      "inputs": [
        {
          "indexed": true,
          "name": "entity",
          "type": "address"
        },
        {
          "indexed": true,
          "name": "app",
          "type": "address"
        },
        {
          "indexed": true,
          "name": "role",
          "type": "bytes32"
        },
        {
          "indexed": false,
          "name": "allowed",
          "type": "bool"
        }
      ],
      "name": "SetPermission",
      "type": "event"
    },
    {
      "anonymous": false,
      "inputs": [
        {
          "indexed": true,
          "name": "app",
          "type": "address"
        },
        {
          "indexed": true,
          "name": "role",
          "type": "bytes32"
        },
        {
          "indexed": true,
          "name": "manager",
          "type": "address"
        }
      ],
      "name": "ChangePermissionManager",
      "type": "event"
    }
  ],
  "bytecode": "0x6060604052341561000f57600080fd5b612bb98061001e6000396000f300606060405260043610610175576000357c0100000000000000000000000000000000000000000000000000000000900463ffffffff1680630a8ed3db1461017a57806315949ed7146101df578063178e6079146102585780631b5e75be1461028957806332f0a3b5146103535780633d6ab68f146103a857806360b1e057146103d95780636815c9921461040a5780636d6712d8146104af578063710a83151461052c5780637e7db6e1146105ca57806380afdea81461061b5780638322fff21461064c5780638b3dd749146106a15780639b3fdf4c146106ca5780639d0effdb146106fb5780639d4941d814610760578063a03c583214610799578063a1658fad14610875578063a885508a14610913578063afd925df14610959578063b1905727146109be578063be03847814610a44578063c4d66de814610ac8578063c513f66e14610b01578063d4aae0c414610b32578063f520b58d14610b87578063f92a79ff14610c44578063fdef910614610ce1575b600080fd5b341561018557600080fd5b6101dd600480803573ffffffffffffffffffffffffffffffffffffffff1690602001909190803573ffffffffffffffffffffffffffffffffffffffff1690602001909190803560001916906020019091905050610da1565b005b34156101ea57600080fd5b610242600480803573ffffffffffffffffffffffffffffffffffffffff1690602001909190803573ffffffffffffffffffffffffffffffffffffffff1690602001909190803560001916906020019091905050610dd1565b6040518082815260200191505060405180910390f35b341561026357600080fd5b61026b610e20565b60405180826000191660001916815260200191505060405180910390f35b341561029457600080fd5b61033960048080356000191690602001909190803573ffffffffffffffffffffffffffffffffffffffff1690602001909190803573ffffffffffffffffffffffffffffffffffffffff169060200190919080356000191690602001909190803590602001908201803590602001908080602002602001604051908101604052809392919081815260200183836020028082843782019150505050505091905050610e47565b604051808215151515815260200191505060405180910390f35b341561035e57600080fd5b610366610ea0565b604051808273ffffffffffffffffffffffffffffffffffffffff1673ffffffffffffffffffffffffffffffffffffffff16815260200191505060405180910390f35b34156103b357600080fd5b6103bb610f95565b60405180826000191660001916815260200191505060405180910390f35b34156103e457600080fd5b6103ec610fbc565b60405180826000191660001916815260200191505060405180910390f35b341561041557600080fd5b6104ad600480803573ffffffffffffffffffffffffffffffffffffffff1690602001909190803573ffffffffffffffffffffffffffffffffffffffff169060200190919080356000191690602001909190803590602001908201803590602001908080602002602001604051908101604052809392919081815260200183836020028082843782019150505050505091905050610fe3565b005b34156104ba57600080fd5b610512600480803573ffffffffffffffffffffffffffffffffffffffff1690602001909190803573ffffffffffffffffffffffffffffffffffffffff169060200190919080356000191690602001909190505061107d565b604051808215151515815260200191505060405180910390f35b341561053757600080fd5b61055a6004808035600019169060200190919080359060200190919050506110bf565b604051808460ff1660ff1681526020018360ff1660ff168152602001827dffffffffffffffffffffffffffffffffffffffffffffffffffffffffffff167dffffffffffffffffffffffffffffffffffffffffffffffffffffffffffff168152602001935050505060405180910390f35b34156105d557600080fd5b610601600480803573ffffffffffffffffffffffffffffffffffffffff16906020019091905050611146565b604051808215151515815260200191505060405180910390f35b341561062657600080fd5b61062e611151565b60405180826000191660001916815260200191505060405180910390f35b341561065757600080fd5b61065f611157565b604051808273ffffffffffffffffffffffffffffffffffffffff1673ffffffffffffffffffffffffffffffffffffffff16815260200191505060405180910390f35b34156106ac57600080fd5b6106b461115c565b6040518082815260200191505060405180910390f35b34156106d557600080fd5b6106dd611166565b60405180826000191660001916815260200191505060405180910390f35b341561070657600080fd5b61075e600480803573ffffffffffffffffffffffffffffffffffffffff1690602001909190803573ffffffffffffffffffffffffffffffffffffffff169060200190919080356000191690602001909190505061118d565b005b341561076b57600080fd5b610797600480803573ffffffffffffffffffffffffffffffffffffffff169060200190919050506111e9565b005b34156107a457600080fd5b610805600480803573ffffffffffffffffffffffffffffffffffffffff1690602001909190803573ffffffffffffffffffffffffffffffffffffffff169060200190919080356000191690602001909190803590602001909190505061143c565b604051808460ff1660ff1681526020018360ff1660ff168152602001827dffffffffffffffffffffffffffffffffffffffffffffffffffffffffffff167dffffffffffffffffffffffffffffffffffffffffffffffffffffffffffff168152602001935050505060405180910390f35b341561088057600080fd5b6108f9600480803573ffffffffffffffffffffffffffffffffffffffff169060200190919080356000191690602001909190803590602001908201803590602001908080602002602001604051908101604052809392919081815260200183836020028082843782019150505050505091905050611500565b604051808215151515815260200191505060405180910390f35b341561091e57600080fd5b610957600480803573ffffffffffffffffffffffffffffffffffffffff1690602001909190803560001916906020019091905050611700565b005b341561096457600080fd5b6109bc600480803573ffffffffffffffffffffffffffffffffffffffff1690602001909190803573ffffffffffffffffffffffffffffffffffffffff1690602001909190803560001916906020019091905050611757565b005b34156109c957600080fd5b610a02600480803573ffffffffffffffffffffffffffffffffffffffff16906020019091908035600019169060200190919050506117ae565b604051808273ffffffffffffffffffffffffffffffffffffffff1673ffffffffffffffffffffffffffffffffffffffff16815260200191505060405180910390f35b3415610a4f57600080fd5b610ac6600480803573ffffffffffffffffffffffffffffffffffffffff1690602001909190803573ffffffffffffffffffffffffffffffffffffffff169060200190919080356000191690602001909190803573ffffffffffffffffffffffffffffffffffffffff169060200190919050506117fd565b005b3415610ad357600080fd5b610aff600480803573ffffffffffffffffffffffffffffffffffffffff16906020019091905050611848565b005b3415610b0c57600080fd5b610b146118ee565b60405180826000191660001916815260200191505060405180910390f35b3415610b3d57600080fd5b610b45611915565b604051808273ffffffffffffffffffffffffffffffffffffffff1673ffffffffffffffffffffffffffffffffffffffff16815260200191505060405180910390f35b3415610b9257600080fd5b610c2a600480803573ffffffffffffffffffffffffffffffffffffffff1690602001909190803573ffffffffffffffffffffffffffffffffffffffff16906020019091908035600019169060200190919080359060200190820180359060200190808060200260200160405190810160405280939291908181526020018383602002808284378201915050505050509190505061193a565b604051808215151515815260200191505060405180910390f35b3415610c4f57600080fd5b610c9f600480803590602001908201803590602001908080601f01602080910402602001604051908101604052809392919081815260200183838082843782019150505050505091905050611a44565b604051808273ffffffffffffffffffffffffffffffffffffffff1673ffffffffffffffffffffffffffffffffffffffff16815260200191505060405180910390f35b3415610cec57600080fd5b610d87600480803573ffffffffffffffffffffffffffffffffffffffff1690602001909190803573ffffffffffffffffffffffffffffffffffffffff169060200190919080356000191690602001909190803590602001908201803590602001908080601f01602080910402602001604051908101604052809392919081815260200183838082843782019150505050505091905050611b4b565b604051808215151515815260200191505060405180910390f35b610dcc8383836000604051805910610db65750595b9080825280602002602001820160405250610fe3565b505050565b60006065600060646000610de6888888611b85565b6000191660001916815260200190815260200160002054600019166000191681526020019081526020016000208054905090509392505050565b7fd6f028ca0e8edb4a8c9757ca4fdccab25fa1e0317da1188108f7d2dee14902fb60010281565b60007f290decd9548b62a8d60345a988386fc84ba6bc95484008f6362f93160ef3e5636001026000191686600019161415610e855760019050610e97565b610e9486600087878787611c3d565b90505b95945050505050565b6000806000809054906101000a900473ffffffffffffffffffffffffffffffffffffffff1673ffffffffffffffffffffffffffffffffffffffff1614151515610ee857600080fd5b6000809054906101000a900473ffffffffffffffffffffffffffffffffffffffff1673ffffffffffffffffffffffffffffffffffffffff166332f0a3b56000604051602001526040518163ffffffff167c0100000000000000000000000000000000000000000000000000000000028152600401602060405180830381600087803b1515610f7557600080fd5b6102c65a03f11515610f8657600080fd5b50505060405180519050905090565b7f0b719b33c83b8e5d300c521cb8b54ae9bd933996a14bef8c2f4e0285d2d2400a60010281565b7fddbcfd564f642ab5627cf68b9b7d374fb4f8a36e941a75d89c87998cef03bd6160010281565b60008383610ff182826117ae565b73ffffffffffffffffffffffffffffffffffffffff163373ffffffffffffffffffffffffffffffffffffffff1614151561102a57600080fd5b600084511161105c577f290decd9548b62a8d60345a988386fc84ba6bc95484008f6362f93160ef3e563600102611066565b61106584611f8b565b5b925061107487878786612167565b50505050505050565b6000611087612a79565b60006040518059106110965750595b908082528060200260200182016040525090506110b58585858461193a565b9150509392505050565b6065602052816000526040600020818154811015156110da57fe5b9060005260206000209001600091509150508060000160009054906101000a900460ff16908060000160019054906101000a900460ff16908060000160029054906101000a90047dffffffffffffffffffffffffffffffffffffffffffffffffffffffffffff16905083565b600060019050919050565b60015481565b600081565b6000600354905090565b7f34f01c17e9be6ddbf2c61f37b5b1fb9f1a090a975006581ad19bda1c4d38287160010281565b818161119982826117ae565b73ffffffffffffffffffffffffffffffffffffffff163373ffffffffffffffffffffffffffffffffffffffff161415156111d257600080fd5b6111e28585856000600102612167565b5050505050565b6000806111f583611146565b151561120057600080fd5b611208610ea0565b915061121382612218565b151561121e57600080fd5b600073ffffffffffffffffffffffffffffffffffffffff168373ffffffffffffffffffffffffffffffffffffffff1614156112af578173ffffffffffffffffffffffffffffffffffffffff166108fc3073ffffffffffffffffffffffffffffffffffffffff16319081150290604051600060405180830381858888f1935050505015156112aa57600080fd5b611437565b8273ffffffffffffffffffffffffffffffffffffffff166370a08231306000604051602001526040518263ffffffff167c0100000000000000000000000000000000000000000000000000000000028152600401808273ffffffffffffffffffffffffffffffffffffffff1673ffffffffffffffffffffffffffffffffffffffff168152602001915050602060405180830381600087803b151561135257600080fd5b6102c65a03f1151561136357600080fd5b5050506040518051905090508273ffffffffffffffffffffffffffffffffffffffff1663a9059cbb83836000604051602001526040518363ffffffff167c0100000000000000000000000000000000000000000000000000000000028152600401808373ffffffffffffffffffffffffffffffffffffffff1673ffffffffffffffffffffffffffffffffffffffff16815260200182815260200192505050602060405180830381600087803b151561141a57600080fd5b6102c65a03f1151561142b57600080fd5b50505060405180519050505b505050565b60008060008060656000606460006114558c8c8c611b85565b6000191660001916815260200190815260200160002054600019166000191681526020019081526020016000208581548110151561148f57fe5b906000526020600020900190508060000160009054906101000a900460ff1693508060000160019054906101000a900460ff1692508060000160029054906101000a90047dffffffffffffffffffffffffffffffffffffffffffffffffffffffffffff169150509450945094915050565b600061150a612a8d565b6000808451111561152357602084510290508391508082525b60008060009054906101000a900473ffffffffffffffffffffffffffffffffffffffff1673ffffffffffffffffffffffffffffffffffffffff1614806116f557506000809054906101000a900473ffffffffffffffffffffffffffffffffffffffff1673ffffffffffffffffffffffffffffffffffffffff1663fdef9106873088866000604051602001526040518563ffffffff167c0100000000000000000000000000000000000000000000000000000000028152600401808573ffffffffffffffffffffffffffffffffffffffff1673ffffffffffffffffffffffffffffffffffffffff1681526020018473ffffffffffffffffffffffffffffffffffffffff1673ffffffffffffffffffffffffffffffffffffffff168152602001836000191660001916815260200180602001828103825283818151815260200191508051906020019080838360005b8381101561168b578082015181840152602081019050611670565b50505050905090810190601f1680156116b85780820380516001836020036101000a031916815260200191505b5095505050505050602060405180830381600087803b15156116d957600080fd5b6102c65a03f115156116ea57600080fd5b505050604051805190505b925050509392505050565b818161170c82826117ae565b73ffffffffffffffffffffffffffffffffffffffff163373ffffffffffffffffffffffffffffffffffffffff1614151561174557600080fd5b6117516000858561226a565b50505050565b818161176382826117ae565b73ffffffffffffffffffffffffffffffffffffffff163373ffffffffffffffffffffffffffffffffffffffff1614151561179c57600080fd5b6117a785858561226a565b5050505050565b6000606660006117be8585612331565b6000191660001916815260200190815260200160002060009054906101000a900473ffffffffffffffffffffffffffffffffffffffff16905092915050565b61182b33307f0b719b33c83b8e5d300c521cb8b54ae9bd933996a14bef8c2f4e0285d2d2400a60010261107d565b151561183657600080fd5b611842848484846123a5565b50505050565b600060035414151561185957600080fd5b611861612429565b6000809054906101000a900473ffffffffffffffffffffffffffffffffffffffff1673ffffffffffffffffffffffffffffffffffffffff163373ffffffffffffffffffffffffffffffffffffffff161415156118bc57600080fd5b6118eb81307f0b719b33c83b8e5d300c521cb8b54ae9bd933996a14bef8c2f4e0285d2d2400a600102846123a5565b50565b7f290decd9548b62a8d60345a988386fc84ba6bc95484008f6362f93160ef3e56360010281565b6000809054906101000a900473ffffffffffffffffffffffffffffffffffffffff1681565b60008060006064600061194e898989611b85565b6000191660001916815260200190815260200160002054915060006001026000191682600019161415801561198c575061198b8288888888610e47565b5b1561199a5760019250611a3a565b606460006119c97fffffffffffffffffffffffffffffffffffffffffffffffffffffffffffffffff8989611b85565b60001916600019168152602001908152602001600020549050600060010260001916816000191614158015611a275750611a26817fffffffffffffffffffffffffffffffffffffffffffffffffffffffffffffffff888888610e47565b5b15611a355760019250611a3a565b600092505b5050949350505050565b6000611a4e61244a565b73ffffffffffffffffffffffffffffffffffffffff166304bf2a7f836000604051602001526040518263ffffffff167c01000000000000000000000000000000000000000000000000000000000281526004018080602001828103825283818151815260200191508051906020019080838360005b83811015611ade578082015181840152602081019050611ac3565b50505050905090810190601f168015611b0b5780820380516001836020036101000a031916815260200191505b5092505050602060405180830381600087803b1515611b2957600080fd5b6102c65a03f11515611b3a57600080fd5b505050604051805190509050919050565b6000611b55612a79565b600060208451811515611b6457fe5b049050839150808252611b798787878561193a565b92505050949350505050565b60006002848484604051808581526020018473ffffffffffffffffffffffffffffffffffffffff1673ffffffffffffffffffffffffffffffffffffffff166c010000000000000000000000000281526014018373ffffffffffffffffffffffffffffffffffffffff1673ffffffffffffffffffffffffffffffffffffffff166c010000000000000000000000000281526014018260001916600019168152602001945050505050604051809103902090509392505050565b6000611c47612aa1565b600080606560008b60001916600019168152602001908152602001600020805490508963ffffffff16101515611c805760009350611f7e565b606560008b600019166000191681526020019081526020016000208963ffffffff16815481101515611cae57fe5b9060005260206000209001606060405190810160405290816000820160009054906101000a900460ff1660ff1660ff1681526020016000820160019054906101000a900460ff1660ff1660ff1681526020016000820160029054906101000a90047dffffffffffffffffffffffffffffffffffffffffffffffffffffffffffff167dffffffffffffffffffffffffffffffffffffffffffffffffffffffffffff167dffffffffffffffffffffffffffffffffffffffffffffffffffffffffffff1681525050925060cc60ff16836000015160ff161415611d9d57611d96838b8a8a8a8a612534565b9350611f7e565b82604001517dffffffffffffffffffffffffffffffffffffffffffffffffffffffffffff16905060cb60ff16836000015160ff161415611e0457611de883604001518989898961273f565b611df3576000611df6565b60015b60ff16915060019050611f22565b60c860ff16836000015160ff161415611e2657611e1f612911565b9150611f21565b60c960ff16836000015160ff161415611e5257611e41612919565b67ffffffffffffffff169150611f20565b60ca60ff16836000015160ff161415611e83573373ffffffffffffffffffffffffffffffffffffffff169150611f1f565b60cd60ff16836000015160ff161415611ec25782604001517dffffffffffffffffffffffffffffffffffffffffffffffffffffffffffff169150611f1e565b8451836000015160ff16101515611edc5760009350611f7e565b84836000015160ff16815181101515611ef157fe5b906020019060200201517dffffffffffffffffffffffffffffffffffffffffffffffffffffffffffff1691505b5b5b5b5b6007600c811115611f2f57fe5b836020015160ff16600c811115611f4257fe5b600c811115611f4d57fe5b1415611f5e57600082119350611f7e565b611f7b82846020015160ff16600c811115611f7557fe5b83612921565b93505b5050509695505050505050565b6000806000806000611f9b612aa1565b8660405180828051906020019060200280838360005b83811015611fcc578082015181840152602081019050611fb1565b5050505090500191505060405180910390209450606560008660001916600019168152602001908152602001600020935060008480549050141561215a57600092505b865183101561215957868381518110151561202657fe5b90602001906020020151915060606040519081016040528061204784612a28565b60ff16815260200161205884612a3a565b60ff168152602001837dffffffffffffffffffffffffffffffffffffffffffffffffffffffffffff1681525090508380548060010182816120999190612ae9565b9160005260206000209001600083909190915060008201518160000160006101000a81548160ff021916908360ff16021790555060208201518160000160016101000a81548160ff021916908360ff16021790555060408201518160000160026101000a8154817dffffffffffffffffffffffffffffffffffffffffffffffffffffffffffff02191690837dffffffffffffffffffffffffffffffffffffffffffffffffffffffffffff160217905550505050828060010193505061200f565b5b8495505050505050919050565b8060646000612177878787611b85565b60001916600019168152602001908152602001600020816000191690555081600019168373ffffffffffffffffffffffffffffffffffffffff168573ffffffffffffffffffffffffffffffffffffffff167f759b9a74d5354b5801710a0c1b283cc9f0d32b607ac8ced10c83ac8e75c77d5260006001026000191685600019161415604051808215151515815260200191505060405180910390a450505050565b600080600073ffffffffffffffffffffffffffffffffffffffff168373ffffffffffffffffffffffffffffffffffffffff1614156122595760009150612264565b823b90506000811191505b50919050565b82606660006122798585612331565b6000191660001916815260200190815260200160002060006101000a81548173ffffffffffffffffffffffffffffffffffffffff021916908373ffffffffffffffffffffffffffffffffffffffff1602179055508273ffffffffffffffffffffffffffffffffffffffff1681600019168373ffffffffffffffffffffffffffffffffffffffff167ff3addc8b8e25ee11528a61b0e65092cae0666ef0ec0c64cb303993c88d689b4d60405160405180910390a4505050565b600060018383604051808481526020018373ffffffffffffffffffffffffffffffffffffffff1673ffffffffffffffffffffffffffffffffffffffff166c01000000000000000000000000028152601401826000191660001916815260200193505050506040518091039020905092915050565b600073ffffffffffffffffffffffffffffffffffffffff166123c784846117ae565b73ffffffffffffffffffffffffffffffffffffffff161415156123e957600080fd5b6124188484847f290decd9548b62a8d60345a988386fc84ba6bc95484008f6362f93160ef3e563600102612167565b61242381848461226a565b50505050565b600060035414151561243a57600080fd5b612442612a4c565b600381905550565b6000806000809054906101000a900473ffffffffffffffffffffffffffffffffffffffff1673ffffffffffffffffffffffffffffffffffffffff166342c71f1d7f34f01c17e9be6ddbf2c61f37b5b1fb9f1a090a975006581ad19bda1c4d3828716001026000604051602001526040518263ffffffff167c0100000000000000000000000000000000000000000000000000000000028152600401808260001916600019168152602001915050602060405180830381600087803b151561251057600080fd5b6102c65a03f1151561252157600080fd5b5050506040518051905090508091505090565b6000806000806000806000806000600c8081111561254e57fe5b8f6020015160ff16600c81111561256157fe5b600c81111561256c57fe5b14156125d65761259f8f604001517dffffffffffffffffffffffffffffffffffffffffffffffffffffffffffff16612a54565b9750975097506125b38e898f8f8f8f611c3d565b94506125cf8e866125c457876125c6565b885b8f8f8f8f611c3d565b985061272d565b6126038f604001517dffffffffffffffffffffffffffffffffffffffffffffffffffffffffffff16612a54565b50935093506126168e858f8f8f8f611c3d565b91506008600c81111561262557fe5b8f6020015160ff16600c81111561263857fe5b600c81111561264357fe5b1415612652578115985061272d565b8180156126875750600a600c81111561266757fe5b8f6020015160ff16600c81111561267a57fe5b600c81111561268557fe5b145b15612695576001985061272d565b811580156126cb57506009600c8111156126ab57fe5b8f6020015160ff16600c8111156126be57fe5b600c8111156126c957fe5b145b156126d9576000985061272d565b6126e78e848f8f8f8f611c3d565b9050600b600c8111156126f657fe5b8f6020015160ff16600c81111561270957fe5b600c81111561271457fe5b1415612729578015158215151415985061272d565b8098505b50505050505050509695505050505050565b60008060008060008973ffffffffffffffffffffffffffffffffffffffff16632a15109090507c01000000000000000000000000000000000000000000000000000000000293508973ffffffffffffffffffffffffffffffffffffffff16847c010000000000000000000000000000000000000000000000000000000090048a8a8a60808b518c6040518763ffffffff167c0100000000000000000000000000000000000000000000000000000000028152600401808773ffffffffffffffffffffffffffffffffffffffff1673ffffffffffffffffffffffffffffffffffffffff1681526020018673ffffffffffffffffffffffffffffffffffffffff1673ffffffffffffffffffffffffffffffffffffffff16815260200185600019166000191681526020018460ff168152602001838152602001828051906020019060200280838360005b838110156128a2578082015181840152602081019050612887565b50505050905001965050505050505060006040518083038160008761646e5a03f19250505092508215156128d95760009450612904565b3d91506020821415156128ef5760009450612904565b604051826000823e8051915060008152508094505b5050505095945050505050565b600043905090565b600042905090565b60006001600c81111561293057fe5b83600c81111561293c57fe5b141561294c578184149050612a21565b6002600c81111561295957fe5b83600c81111561296557fe5b141561297657818414159050612a21565b6003600c81111561298357fe5b83600c81111561298f57fe5b141561299f578184119050612a21565b6004600c8111156129ac57fe5b83600c8111156129b857fe5b14156129c8578184109050612a21565b6005600c8111156129d557fe5b83600c8111156129e157fe5b14156129f257818410159050612a21565b6006600c8111156129ff57fe5b83600c811115612a0b57fe5b1415612a1c57818411159050612a21565b600090505b9392505050565b600060f8829060020a90049050919050565b600060f0829060020a90049050919050565b600043905090565b60008060008392506020849060020a900491506040849060020a900490509193909250565b602060405190810160405280600081525090565b602060405190810160405280600081525090565b606060405190810160405280600060ff168152602001600060ff16815260200160007dffffffffffffffffffffffffffffffffffffffffffffffffffffffffffff1681525090565b815481835581811511612b1057818360005260206000209182019101612b0f9190612b15565b5b505050565b612b8a91905b80821115612b8657600080820160006101000a81549060ff02191690556000820160016101000a81549060ff02191690556000820160026101000a8154907dffffffffffffffffffffffffffffffffffffffffffffffffffffffffffff021916905550600101612b1b565b5090565b905600a165627a7a72305820673db535bf872d8a2c5ead19c88a0b342d8d6ad83d3c9a98366cef87eeefffa30029",
  "source": "pragma solidity 0.4.18;\n\nimport \"../apps/AragonApp.sol\";\nimport \"./ACLSyntaxSugar.sol\";\nimport \"./IACL.sol\";\n\n\ninterface ACLOracle {\n    function canPerform(address who, address where, bytes32 what, uint256[] how) public view returns (bool);\n}\n\n\ncontract ACL is IACL, AragonApp, ACLHelpers {\n    // Hardcoded constant to save gas\n    //bytes32 constant public CREATE_PERMISSIONS_ROLE = keccak256(\"CREATE_PERMISSIONS_ROLE\");\n    bytes32 constant public CREATE_PERMISSIONS_ROLE = 0x0b719b33c83b8e5d300c521cb8b54ae9bd933996a14bef8c2f4e0285d2d2400a;\n\n    // whether a certain entity has a permission\n    mapping (bytes32 => bytes32) permissions; // 0 for no permission, or parameters id\n    mapping (bytes32 => Param[]) public permissionParams;\n\n    // who is the manager of a permission\n    mapping (bytes32 => address) permissionManager;\n\n    enum Op { NONE, EQ, NEQ, GT, LT, GTE, LTE, RET, NOT, AND, OR, XOR, IF_ELSE } // op types\n\n    struct Param {\n        uint8 id;\n        uint8 op;\n        uint240 value; // even though value is an uint240 it can store addresses\n        // in the case of 32 byte hashes losing 2 bytes precision isn't a huge deal\n        // op and id take less than 1 byte each so it can be kept in 1 sstore\n    }\n\n    uint8 constant BLOCK_NUMBER_PARAM_ID = 200;\n    uint8 constant TIMESTAMP_PARAM_ID    = 201;\n    uint8 constant SENDER_PARAM_ID       = 202;\n    uint8 constant ORACLE_PARAM_ID       = 203;\n    uint8 constant LOGIC_OP_PARAM_ID     = 204;\n    uint8 constant PARAM_VALUE_PARAM_ID  = 205;\n    // TODO: Add execution times param type?\n\n    // Hardcoded constant to save gas\n    //bytes32 constant public EMPTY_PARAM_HASH = keccak256(uint256(0));\n    bytes32 constant public EMPTY_PARAM_HASH = 0x290decd9548b62a8d60345a988386fc84ba6bc95484008f6362f93160ef3e563;\n    address constant ANY_ENTITY = address(-1);\n\n    modifier onlyPermissionManager(address _app, bytes32 _role) {\n        require(msg.sender == getPermissionManager(_app, _role));\n        _;\n    }\n\n    event SetPermission(address indexed entity, address indexed app, bytes32 indexed role, bool allowed);\n    event ChangePermissionManager(address indexed app, bytes32 indexed role, address indexed manager);\n\n    /**\n    * @dev Initialize can only be called once. It saves the block number in which it was initialized.\n    * @notice Initializes an ACL instance and sets `_permissionsCreator` as the entity that can create other permissions\n    * @param _permissionsCreator Entity that will be given permission over createPermission\n    */\n    function initialize(address _permissionsCreator) onlyInit public {\n        initialized();\n        require(msg.sender == address(kernel));\n\n        _createPermission(_permissionsCreator, this, CREATE_PERMISSIONS_ROLE, _permissionsCreator);\n    }\n\n    /**\n    * @dev Creates a permission that wasn't previously set and managed. Access is limited by the ACL.\n    *      If a created permission is removed it is possible to reset it with createPermission.\n    * @notice Create a new permission granting `_entity` the ability to perform actions of role `_role` on `_app` (setting `_manager` as the permission manager)\n    * @param _entity Address of the whitelisted entity that will be able to perform the role\n    * @param _app Address of the app in which the role will be allowed (requires app to depend on kernel for ACL)\n    * @param _role Identifier for the group of actions in app given access to perform\n    * @param _manager Address of the entity that will be able to grant and revoke the permission further.\n    */\n    function createPermission(address _entity, address _app, bytes32 _role, address _manager) external {\n        require(hasPermission(msg.sender, address(this), CREATE_PERMISSIONS_ROLE));\n\n        _createPermission(_entity, _app, _role, _manager);\n    }\n\n    /**\n    * @dev Grants permission if allowed. This requires `msg.sender` to be the permission manager\n    * @notice Grants `_entity` the ability to perform actions of role `_role` on `_app`\n    * @param _entity Address of the whitelisted entity that will be able to perform the role\n    * @param _app Address of the app in which the role will be allowed (requires app to depend on kernel for ACL)\n    * @param _role Identifier for the group of actions in app given access to perform\n    */\n    function grantPermission(address _entity, address _app, bytes32 _role)\n        external\n    {\n        grantPermissionP(_entity, _app, _role, new uint256[](0));\n    }\n\n    /**\n    * @dev Grants a permission with parameters if allowed. This requires `msg.sender` to be the permission manager\n    * @notice Grants `_entity` the ability to perform actions of role `_role` on `_app`\n    * @param _entity Address of the whitelisted entity that will be able to perform the role\n    * @param _app Address of the app in which the role will be allowed (requires app to depend on kernel for ACL)\n    * @param _role Identifier for the group of actions in app given access to perform\n    * @param _params Permission parameters\n    */\n    function grantPermissionP(address _entity, address _app, bytes32 _role, uint256[] _params)\n        onlyPermissionManager(_app, _role)\n        public\n    {\n        bytes32 paramsHash = _params.length > 0 ? _saveParams(_params) : EMPTY_PARAM_HASH;\n        _setPermission(_entity, _app, _role, paramsHash);\n    }\n\n    /**\n    * @dev Revokes permission if allowed. This requires `msg.sender` to be the the permission manager\n    * @notice Revokes `_entity` the ability to perform actions of role `_role` on `_app`\n    * @param _entity Address of the whitelisted entity to revoke access from\n    * @param _app Address of the app in which the role will be revoked\n    * @param _role Identifier for the group of actions in app being revoked\n    */\n    function revokePermission(address _entity, address _app, bytes32 _role)\n        onlyPermissionManager(_app, _role)\n        external\n    {\n        _setPermission(_entity, _app, _role, bytes32(0));\n    }\n\n    /**\n    * @notice Sets `_newManager` as the manager of the permission `_role` in `_app`\n    * @param _newManager Address for the new manager\n    * @param _app Address of the app in which the permission management is being transferred\n    * @param _role Identifier for the group of actions being transferred\n    */\n    function setPermissionManager(address _newManager, address _app, bytes32 _role)\n        onlyPermissionManager(_app, _role)\n        external\n    {\n        _setPermissionManager(_newManager, _app, _role);\n    }\n\n    /**\n    * @notice Removes the manager of the permission `_role` in `_app`\n    * @param _app Address of the app in which the permission is being unmanaged\n    * @param _role Identifier for the group of actions being unmanaged\n    */\n    function removePermissionManager(address _app, bytes32 _role)\n        onlyPermissionManager(_app, _role)\n        external\n    {\n        _setPermissionManager(address(0), _app, _role);\n    }\n\n    /**\n     * @notice Get parameters for permission array length\n     * @param _entity Address of the whitelisted entity that will be able to perform the role\n     * @param _app Address of the app\n     * @param _role Identifier for a group of actions in app\n     * @return Length of the array\n     */\n    function getPermissionParamsLength(address _entity, address _app, bytes32 _role) external view returns (uint) {\n        return permissionParams[permissions[permissionHash(_entity, _app, _role)]].length;\n    }\n\n    /**\n    * @notice Get parameter for permission\n    * @param _entity Address of the whitelisted entity that will be able to perform the role\n    * @param _app Address of the app\n    * @param _role Identifier for a group of actions in app\n    * @param _index Index of parameter in the array\n    * @return Parameter (id, op, value)\n    */\n    function getPermissionParam(address _entity, address _app, bytes32 _role, uint _index) external view returns (uint8 id, uint8 op, uint240 value) {\n        Param storage param = permissionParams[permissions[permissionHash(_entity, _app, _role)]][_index];\n        id = param.id;\n        op = param.op;\n        value = param.value;\n    }\n\n    /**\n    * @dev Get manager for permission\n    * @param _app Address of the app\n    * @param _role Identifier for a group of actions in app\n    * @return address of the manager for the permission\n    */\n    function getPermissionManager(address _app, bytes32 _role) public view returns (address) {\n        return permissionManager[roleHash(_app, _role)];\n    }\n\n    /**\n    * @dev Function called by apps to check ACL on kernel or to check permission statu\n    * @param _who Sender of the original call\n    * @param _where Address of the app\n    * @param _where Identifier for a group of actions in app\n    * @param _how Permission parameters\n    * @return boolean indicating whether the ACL allows the role or not\n    */\n    function hasPermission(address _who, address _where, bytes32 _what, bytes memory _how) public view returns (bool) {\n        uint256[] memory how;\n        uint256 intsLength = _how.length / 32;\n        assembly {\n            how := _how // forced casting\n            mstore(how, intsLength)\n        }\n        // _how is invalid from this point fwd\n        return hasPermission(_who, _where, _what, how);\n    }\n\n    function hasPermission(address _who, address _where, bytes32 _what, uint256[] memory _how) public view returns (bool) {\n        bytes32 whoParams = permissions[permissionHash(_who, _where, _what)];\n        if (whoParams != bytes32(0) && evalParams(whoParams, _who, _where, _what, _how)) {\n            return true;\n        }\n\n        bytes32 anyParams = permissions[permissionHash(ANY_ENTITY, _where, _what)];\n        if (anyParams != bytes32(0) && evalParams(anyParams, ANY_ENTITY, _where, _what, _how)) {\n            return true;\n        }\n\n        return false;\n    }\n\n    function hasPermission(address _who, address _where, bytes32 _what) public view returns (bool) {\n        uint256[] memory empty = new uint256[](0);\n        return hasPermission(_who, _where, _what, empty);\n    }\n\n    function evalParams(\n        bytes32 _paramsHash,\n        address _who,\n        address _where,\n        bytes32 _what,\n        uint256[] _how\n    ) public view returns (bool)\n    {\n        if (_paramsHash == EMPTY_PARAM_HASH) {\n            return true;\n        }\n\n        return evalParam(_paramsHash, 0, _who, _where, _what, _how);\n    }\n\n    /**\n    * @dev Internal createPermission for access inside the kernel (on instantiation)\n    */\n    function _createPermission(address _entity, address _app, bytes32 _role, address _manager) internal {\n        // only allow permission creation (or re-creation) when there is no manager\n        require(getPermissionManager(_app, _role) == address(0));\n\n        _setPermission(_entity, _app, _role, EMPTY_PARAM_HASH);\n        _setPermissionManager(_manager, _app, _role);\n    }\n\n    /**\n    * @dev Internal function called to actually save the permission\n    */\n    function _setPermission(address _entity, address _app, bytes32 _role, bytes32 _paramsHash) internal {\n        permissions[permissionHash(_entity, _app, _role)] = _paramsHash;\n\n        SetPermission(_entity, _app, _role, _paramsHash != bytes32(0));\n    }\n\n    function _saveParams(uint256[] _encodedParams) internal returns (bytes32) {\n        bytes32 paramHash = keccak256(_encodedParams);\n        Param[] storage params = permissionParams[paramHash];\n\n        if (params.length == 0) { // params not saved before\n            for (uint256 i = 0; i < _encodedParams.length; i++) {\n                uint256 encodedParam = _encodedParams[i];\n                Param memory param = Param(decodeParamId(encodedParam), decodeParamOp(encodedParam), uint240(encodedParam));\n                params.push(param);\n            }\n        }\n\n        return paramHash;\n    }\n\n    function evalParam(\n        bytes32 _paramsHash,\n        uint32 _paramId,\n        address _who,\n        address _where,\n        bytes32 _what,\n        uint256[] _how\n    ) internal view returns (bool)\n    {\n        if (_paramId >= permissionParams[_paramsHash].length) {\n            return false; // out of bounds\n        }\n\n        Param memory param = permissionParams[_paramsHash][_paramId];\n\n        if (param.id == LOGIC_OP_PARAM_ID) {\n            return evalLogic(param, _paramsHash, _who, _where, _what, _how);\n        }\n\n        uint256 value;\n        uint256 comparedTo = uint256(param.value);\n\n        // get value\n        if (param.id == ORACLE_PARAM_ID) {\n            value = checkOracle(address(param.value), _who, _where, _what, _how) ? 1 : 0;\n            comparedTo = 1;\n        } else if (param.id == BLOCK_NUMBER_PARAM_ID) {\n            value = blockN();\n        } else if (param.id == TIMESTAMP_PARAM_ID) {\n            value = time();\n        } else if (param.id == SENDER_PARAM_ID) {\n            value = uint256(msg.sender);\n        } else if (param.id == PARAM_VALUE_PARAM_ID) {\n            value = uint256(param.value);\n        } else {\n            if (param.id >= _how.length) {\n                return false;\n            }\n            value = uint256(uint240(_how[param.id])); // force lost precision\n        }\n\n        if (Op(param.op) == Op.RET) {\n            return uint256(value) > 0;\n        }\n\n        return compare(value, Op(param.op), comparedTo);\n    }\n\n    function evalLogic(Param _param, bytes32 _paramsHash, address _who, address _where, bytes32 _what, uint256[] _how) internal view returns (bool) {\n        if (Op(_param.op) == Op.IF_ELSE) {\n            var (condition, success, failure) = decodeParamsList(uint256(_param.value));\n            bool result = evalParam(_paramsHash, condition, _who, _where, _what, _how);\n\n            return evalParam(_paramsHash, result ? success : failure, _who, _where, _what, _how);\n        }\n\n        var (v1, v2,) = decodeParamsList(uint256(_param.value));\n        bool r1 = evalParam(_paramsHash, v1, _who, _where, _what, _how);\n\n        if (Op(_param.op) == Op.NOT) {\n            return !r1;\n        }\n\n        if (r1 && Op(_param.op) == Op.OR) {\n            return true;\n        }\n\n        if (!r1 && Op(_param.op) == Op.AND) {\n            return false;\n        }\n\n        bool r2 = evalParam(_paramsHash, v2, _who, _where, _what, _how);\n\n        if (Op(_param.op) == Op.XOR) {\n            return r1 != r2;\n        }\n\n        return r2; // both or and and depend on result of r2 after checks\n    }\n\n    function compare(uint256 _a, Op _op, uint256 _b) internal pure returns (bool) {\n        if (_op == Op.EQ)  return _a == _b;                              // solium-disable-line lbrace\n        if (_op == Op.NEQ) return _a != _b;                              // solium-disable-line lbrace\n        if (_op == Op.GT)  return _a > _b;                               // solium-disable-line lbrace\n        if (_op == Op.LT)  return _a < _b;                               // solium-disable-line lbrace\n        if (_op == Op.GTE) return _a >= _b;                              // solium-disable-line lbrace\n        if (_op == Op.LTE) return _a <= _b;                              // solium-disable-line lbrace\n        return false;\n    }\n\n    function checkOracle(address _oracleAddr, address _who, address _where, bytes32 _what, uint256[] _how) internal view returns (bool) {\n        bytes4 sig = ACLOracle(_oracleAddr).canPerform.selector;\n\n        // a raw call is required so we can return false if the call reverts, rather than reverting\n        bool ok = _oracleAddr.call(sig, _who, _where, _what, 0x80, _how.length, _how);\n        // 0x80 is the position where the array that goes there starts\n\n        if (!ok) {\n            return false;\n        }\n\n        uint256 size;\n        assembly { size := returndatasize }\n        if (size != 32) {\n            return false;\n        }\n\n        bool result;\n        assembly {\n            let ptr := mload(0x40)       // get next free memory ptr\n            returndatacopy(ptr, 0, size) // copy return from above `call`\n            result := mload(ptr)         // read data at ptr and set it to result\n            mstore(ptr, 0)               // set pointer memory to 0 so it still is the next free ptr\n        }\n\n        return result;\n    }\n\n    /**\n    * @dev Internal function that sets management\n    */\n    function _setPermissionManager(address _newManager, address _app, bytes32 _role) internal {\n        permissionManager[roleHash(_app, _role)] = _newManager;\n        ChangePermissionManager(_app, _role, _newManager);\n    }\n\n    function roleHash(address _where, bytes32 _what) pure internal returns (bytes32) {\n        return keccak256(uint256(1), _where, _what);\n    }\n\n    function permissionHash(address _who, address _where, bytes32 _what) pure internal returns (bytes32) {\n        return keccak256(uint256(2), _who, _where, _what);\n    }\n\n    function time() internal view returns (uint64) { return uint64(block.timestamp); } // solium-disable-line security/no-block-members\n\n    function blockN() internal view returns (uint256) { return block.number; }\n}\n",
  "sourcePath": "@aragon/os/contracts/acl/ACL.sol",
  "compiler": {
    "name": "solc",
    "version": "0.4.18+commit.9cf6e910.Emscripten.clang"
  },
  "schemaVersion": "1.0.1",
  "updatedAt": "2018-07-26T09:18:09.311Z"
}