{
  "contractName": "ACL",
  "abi": [
    {
      "constant": true,
      "inputs": [],
      "name": "NO_PERMISSION",
      "outputs": [
        {
          "name": "",
          "type": "bytes32"
        }
      ],
      "payable": false,
      "stateMutability": "view",
      "type": "function"
    },
    {
      "constant": true,
      "inputs": [],
      "name": "getRecoveryVault",
      "outputs": [
        {
          "name": "",
          "type": "address"
        }
      ],
      "payable": false,
      "stateMutability": "view",
      "type": "function"
    },
    {
      "constant": true,
      "inputs": [],
      "name": "CREATE_PERMISSIONS_ROLE",
      "outputs": [
        {
          "name": "",
          "type": "bytes32"
        }
      ],
      "payable": false,
      "stateMutability": "view",
      "type": "function"
    },
    {
      "constant": true,
      "inputs": [],
      "name": "EVMSCRIPT_REGISTRY_APP_ID",
      "outputs": [
        {
          "name": "",
          "type": "bytes32"
        }
      ],
      "payable": false,
      "stateMutability": "view",
      "type": "function"
    },
    {
      "constant": true,
      "inputs": [
        {
          "name": "token",
          "type": "address"
        }
      ],
      "name": "allowRecoverability",
      "outputs": [
        {
          "name": "",
          "type": "bool"
        }
      ],
      "payable": false,
      "stateMutability": "view",
      "type": "function"
    },
    {
      "constant": true,
      "inputs": [],
      "name": "appId",
      "outputs": [
        {
          "name": "",
          "type": "bytes32"
        }
      ],
      "payable": false,
      "stateMutability": "view",
      "type": "function"
    },
    {
      "constant": true,
      "inputs": [],
      "name": "ETH",
      "outputs": [
        {
          "name": "",
          "type": "address"
        }
      ],
      "payable": false,
      "stateMutability": "view",
      "type": "function"
    },
    {
      "constant": true,
      "inputs": [],
      "name": "getInitializationBlock",
      "outputs": [
        {
          "name": "",
          "type": "uint256"
        }
      ],
      "payable": false,
      "stateMutability": "view",
      "type": "function"
    },
    {
      "constant": true,
      "inputs": [],
      "name": "EVMSCRIPT_REGISTRY_APP",
      "outputs": [
        {
          "name": "",
          "type": "bytes32"
        }
      ],
      "payable": false,
      "stateMutability": "view",
      "type": "function"
    },
    {
      "constant": false,
      "inputs": [
        {
          "name": "_token",
          "type": "address"
        }
      ],
      "name": "transferToVault",
      "outputs": [],
      "payable": false,
      "stateMutability": "nonpayable",
      "type": "function"
    },
    {
      "constant": true,
      "inputs": [
        {
          "name": "_sender",
          "type": "address"
        },
        {
          "name": "_role",
          "type": "bytes32"
        },
        {
          "name": "_params",
          "type": "uint256[]"
        }
      ],
      "name": "canPerform",
      "outputs": [
        {
          "name": "",
          "type": "bool"
        }
      ],
      "payable": false,
      "stateMutability": "view",
      "type": "function"
    },
    {
      "constant": true,
      "inputs": [],
      "name": "ANY_ENTITY",
      "outputs": [
        {
          "name": "",
          "type": "address"
        }
      ],
      "payable": false,
      "stateMutability": "view",
      "type": "function"
    },
    {
      "constant": true,
      "inputs": [],
      "name": "EMPTY_PARAM_HASH",
      "outputs": [
        {
          "name": "",
          "type": "bytes32"
        }
      ],
      "payable": false,
      "stateMutability": "view",
      "type": "function"
    },
    {
      "constant": true,
      "inputs": [],
      "name": "kernel",
      "outputs": [
        {
          "name": "",
          "type": "address"
        }
      ],
      "payable": false,
      "stateMutability": "view",
      "type": "function"
    },
    {
      "constant": true,
      "inputs": [
        {
          "name": "_script",
          "type": "bytes"
        }
      ],
      "name": "getExecutor",
      "outputs": [
        {
          "name": "",
          "type": "address"
        }
      ],
      "payable": false,
      "stateMutability": "view",
      "type": "function"
    },
    {
      "anonymous": false,
      "inputs": [
        {
          "indexed": true,
          "name": "entity",
          "type": "address"
        },
        {
          "indexed": true,
          "name": "app",
          "type": "address"
        },
        {
          "indexed": true,
          "name": "role",
          "type": "bytes32"
        },
        {
          "indexed": false,
          "name": "allowed",
          "type": "bool"
        }
      ],
      "name": "SetPermission",
      "type": "event"
    },
    {
      "anonymous": false,
      "inputs": [
        {
          "indexed": true,
          "name": "entity",
          "type": "address"
        },
        {
          "indexed": true,
          "name": "app",
          "type": "address"
        },
        {
          "indexed": true,
          "name": "role",
          "type": "bytes32"
        },
        {
          "indexed": false,
          "name": "paramsHash",
          "type": "bytes32"
        }
      ],
      "name": "SetPermissionParams",
      "type": "event"
    },
    {
      "anonymous": false,
      "inputs": [
        {
          "indexed": true,
          "name": "app",
          "type": "address"
        },
        {
          "indexed": true,
          "name": "role",
          "type": "bytes32"
        },
        {
          "indexed": true,
          "name": "manager",
          "type": "address"
        }
      ],
      "name": "ChangePermissionManager",
      "type": "event"
    },
    {
      "anonymous": false,
      "inputs": [
        {
          "indexed": true,
          "name": "executor",
          "type": "address"
        },
        {
          "indexed": false,
          "name": "script",
          "type": "bytes"
        },
        {
          "indexed": false,
          "name": "input",
          "type": "bytes"
        },
        {
          "indexed": false,
          "name": "returnData",
          "type": "bytes"
        }
      ],
      "name": "ScriptResult",
      "type": "event"
    },
    {
      "constant": false,
      "inputs": [
        {
          "name": "_permissionsCreator",
          "type": "address"
        }
      ],
      "name": "initialize",
      "outputs": [],
      "payable": false,
      "stateMutability": "nonpayable",
      "type": "function"
    },
    {
      "constant": false,
      "inputs": [
        {
          "name": "_entity",
          "type": "address"
        },
        {
          "name": "_app",
          "type": "address"
        },
        {
          "name": "_role",
          "type": "bytes32"
        },
        {
          "name": "_manager",
          "type": "address"
        }
      ],
      "name": "createPermission",
      "outputs": [],
      "payable": false,
      "stateMutability": "nonpayable",
      "type": "function"
    },
    {
      "constant": false,
      "inputs": [
        {
          "name": "_entity",
          "type": "address"
        },
        {
          "name": "_app",
          "type": "address"
        },
        {
          "name": "_role",
          "type": "bytes32"
        }
      ],
      "name": "grantPermission",
      "outputs": [],
      "payable": false,
      "stateMutability": "nonpayable",
      "type": "function"
    },
    {
      "constant": false,
      "inputs": [
        {
          "name": "_entity",
          "type": "address"
        },
        {
          "name": "_app",
          "type": "address"
        },
        {
          "name": "_role",
          "type": "bytes32"
        },
        {
          "name": "_params",
          "type": "uint256[]"
        }
      ],
      "name": "grantPermissionP",
      "outputs": [],
      "payable": false,
      "stateMutability": "nonpayable",
      "type": "function"
    },
    {
      "constant": false,
      "inputs": [
        {
          "name": "_entity",
          "type": "address"
        },
        {
          "name": "_app",
          "type": "address"
        },
        {
          "name": "_role",
          "type": "bytes32"
        }
      ],
      "name": "revokePermission",
      "outputs": [],
      "payable": false,
      "stateMutability": "nonpayable",
      "type": "function"
    },
    {
      "constant": false,
      "inputs": [
        {
          "name": "_newManager",
          "type": "address"
        },
        {
          "name": "_app",
          "type": "address"
        },
        {
          "name": "_role",
          "type": "bytes32"
        }
      ],
      "name": "setPermissionManager",
      "outputs": [],
      "payable": false,
      "stateMutability": "nonpayable",
      "type": "function"
    },
    {
      "constant": false,
      "inputs": [
        {
          "name": "_app",
          "type": "address"
        },
        {
          "name": "_role",
          "type": "bytes32"
        }
      ],
      "name": "removePermissionManager",
      "outputs": [],
      "payable": false,
      "stateMutability": "nonpayable",
      "type": "function"
    },
    {
      "constant": true,
      "inputs": [
        {
          "name": "_entity",
          "type": "address"
        },
        {
          "name": "_app",
          "type": "address"
        },
        {
          "name": "_role",
          "type": "bytes32"
        }
      ],
      "name": "getPermissionParamsLength",
      "outputs": [
        {
          "name": "",
          "type": "uint256"
        }
      ],
      "payable": false,
      "stateMutability": "view",
      "type": "function"
    },
    {
      "constant": true,
      "inputs": [
        {
          "name": "_entity",
          "type": "address"
        },
        {
          "name": "_app",
          "type": "address"
        },
        {
          "name": "_role",
          "type": "bytes32"
        },
        {
          "name": "_index",
          "type": "uint256"
        }
      ],
      "name": "getPermissionParam",
      "outputs": [
        {
          "name": "id",
          "type": "uint8"
        },
        {
          "name": "op",
          "type": "uint8"
        },
        {
          "name": "value",
          "type": "uint240"
        }
      ],
      "payable": false,
      "stateMutability": "view",
      "type": "function"
    },
    {
      "constant": true,
      "inputs": [
        {
          "name": "_app",
          "type": "address"
        },
        {
          "name": "_role",
          "type": "bytes32"
        }
      ],
      "name": "getPermissionManager",
      "outputs": [
        {
          "name": "",
          "type": "address"
        }
      ],
      "payable": false,
      "stateMutability": "view",
      "type": "function"
    },
    {
      "constant": true,
      "inputs": [
        {
          "name": "_who",
          "type": "address"
        },
        {
          "name": "_where",
          "type": "address"
        },
        {
          "name": "_what",
          "type": "bytes32"
        }
      ],
      "name": "hasPermission",
      "outputs": [
        {
          "name": "",
          "type": "bool"
        }
      ],
      "payable": false,
      "stateMutability": "view",
      "type": "function"
    },
    {
      "constant": true,
      "inputs": [
        {
          "name": "_who",
          "type": "address"
        },
        {
          "name": "_where",
          "type": "address"
        },
        {
          "name": "_what",
          "type": "bytes32"
        },
        {
          "name": "_how",
          "type": "uint256[]"
        }
      ],
      "name": "hasPermission",
      "outputs": [
        {
          "name": "",
          "type": "bool"
        }
      ],
      "payable": false,
      "stateMutability": "view",
      "type": "function"
    },
    {
      "constant": true,
      "inputs": [
        {
          "name": "_who",
          "type": "address"
        },
        {
          "name": "_where",
          "type": "address"
        },
        {
          "name": "_what",
          "type": "bytes32"
        },
        {
          "name": "_how",
          "type": "bytes"
        }
      ],
      "name": "hasPermission",
      "outputs": [
        {
          "name": "",
          "type": "bool"
        }
      ],
      "payable": false,
      "stateMutability": "view",
      "type": "function"
    },
    {
      "constant": true,
      "inputs": [
        {
          "name": "_paramsHash",
          "type": "bytes32"
        },
        {
          "name": "_who",
          "type": "address"
        },
        {
          "name": "_where",
          "type": "address"
        },
        {
          "name": "_what",
          "type": "bytes32"
        },
        {
          "name": "_how",
          "type": "uint256[]"
        }
      ],
      "name": "evalParams",
      "outputs": [
        {
          "name": "",
          "type": "bool"
        }
      ],
      "payable": false,
      "stateMutability": "view",
      "type": "function"
    }
  ],
  "bytecode": "0x608060405234801561001057600080fd5b50612c78806100206000396000f300608060405260043610610175576000357c0100000000000000000000000000000000000000000000000000000000900463ffffffff1680630a8ed3db1461017a57806315949ed7146101eb5780631b5e75be146102705780631d63ff2b1461034a57806332f0a3b51461037d5780633d6ab68f146103d457806360b1e057146104075780636815c9921461043a5780636d6712d8146104ee5780637e7db6e11461057757806380afdea8146105d25780638322fff2146106055780638b3dd7491461065c5780639b3fdf4c146106875780639d0effdb146106ba5780639d4941d81461072b578063a03c58321461076e578063a1658fad14610857578063a5ed8bf814610903578063a885508a1461095a578063afd925df146109ab578063b190572714610a1c578063be03847814610aad578063c4d66de814610b3e578063c513f66e14610b81578063d4aae0c414610bb4578063f520b58d14610c0b578063f92a79ff14610cd7578063fdef910614610d80575b600080fd5b34801561018657600080fd5b506101e9600480360381019080803573ffffffffffffffffffffffffffffffffffffffff169060200190929190803573ffffffffffffffffffffffffffffffffffffffff1690602001909291908035600019169060200190929190505050610e4f565b005b3480156101f757600080fd5b5061025a600480360381019080803573ffffffffffffffffffffffffffffffffffffffff169060200190929190803573ffffffffffffffffffffffffffffffffffffffff1690602001909291908035600019169060200190929190505050610e90565b6040518082815260200191505060405180910390f35b34801561027c57600080fd5b506103306004803603810190808035600019169060200190929190803573ffffffffffffffffffffffffffffffffffffffff169060200190929190803573ffffffffffffffffffffffffffffffffffffffff169060200190929190803560001916906020019092919080359060200190820180359060200190808060200260200160405190810160405280939291908181526020018383602002808284378201915050505050509192919290505050610edf565b604051808215151515815260200191505060405180910390f35b34801561035657600080fd5b5061035f610f38565b60405180826000191660001916815260200191505060405180910390f35b34801561038957600080fd5b50610392610f40565b604051808273ffffffffffffffffffffffffffffffffffffffff1673ffffffffffffffffffffffffffffffffffffffff16815260200191505060405180910390f35b3480156103e057600080fd5b506103e961104d565b60405180826000191660001916815260200191505060405180910390f35b34801561041357600080fd5b5061041c611074565b60405180826000191660001916815260200191505060405180910390f35b34801561044657600080fd5b506104ec600480360381019080803573ffffffffffffffffffffffffffffffffffffffff169060200190929190803573ffffffffffffffffffffffffffffffffffffffff16906020019092919080356000191690602001909291908035906020019082018035906020019080806020026020016040519081016040528093929190818152602001838360200280828437820191505050505050919291929050505061109b565b005b3480156104fa57600080fd5b5061055d600480360381019080803573ffffffffffffffffffffffffffffffffffffffff169060200190929190803573ffffffffffffffffffffffffffffffffffffffff1690602001909291908035600019169060200190929190505050611135565b604051808215151515815260200191505060405180910390f35b34801561058357600080fd5b506105b8600480360381019080803573ffffffffffffffffffffffffffffffffffffffff169060200190929190505050611182565b604051808215151515815260200191505060405180910390f35b3480156105de57600080fd5b506105e761118d565b60405180826000191660001916815260200191505060405180910390f35b34801561061157600080fd5b5061061a611193565b604051808273ffffffffffffffffffffffffffffffffffffffff1673ffffffffffffffffffffffffffffffffffffffff16815260200191505060405180910390f35b34801561066857600080fd5b50610671611198565b6040518082815260200191505060405180910390f35b34801561069357600080fd5b5061069c6111a2565b60405180826000191660001916815260200191505060405180910390f35b3480156106c657600080fd5b50610729600480360381019080803573ffffffffffffffffffffffffffffffffffffffff169060200190929190803573ffffffffffffffffffffffffffffffffffffffff16906020019092919080356000191690602001909291905050506111c9565b005b34801561073757600080fd5b5061076c600480360381019080803573ffffffffffffffffffffffffffffffffffffffff169060200190929190505050611225565b005b34801561077a57600080fd5b506107e7600480360381019080803573ffffffffffffffffffffffffffffffffffffffff169060200190929190803573ffffffffffffffffffffffffffffffffffffffff1690602001909291908035600019169060200190929190803590602001909291905050506114af565b604051808460ff1660ff1681526020018360ff1660ff168152602001827dffffffffffffffffffffffffffffffffffffffffffffffffffffffffffff167dffffffffffffffffffffffffffffffffffffffffffffffffffffffffffff168152602001935050505060405180910390f35b34801561086357600080fd5b506108e9600480360381019080803573ffffffffffffffffffffffffffffffffffffffff169060200190929190803560001916906020019092919080359060200190820180359060200190808060200260200160405190810160405280939291908181526020018383602002808284378201915050505050509192919290505050611572565b604051808215151515815260200191505060405180910390f35b34801561090f57600080fd5b50610918611784565b604051808273ffffffffffffffffffffffffffffffffffffffff1673ffffffffffffffffffffffffffffffffffffffff16815260200191505060405180910390f35b34801561096657600080fd5b506109a9600480360381019080803573ffffffffffffffffffffffffffffffffffffffff16906020019092919080356000191690602001909291905050506117a8565b005b3480156109b757600080fd5b50610a1a600480360381019080803573ffffffffffffffffffffffffffffffffffffffff169060200190929190803573ffffffffffffffffffffffffffffffffffffffff16906020019092919080356000191690602001909291905050506117ff565b005b348015610a2857600080fd5b50610a6b600480360381019080803573ffffffffffffffffffffffffffffffffffffffff1690602001909291908035600019169060200190929190505050611856565b604051808273ffffffffffffffffffffffffffffffffffffffff1673ffffffffffffffffffffffffffffffffffffffff16815260200191505060405180910390f35b348015610ab957600080fd5b50610b3c600480360381019080803573ffffffffffffffffffffffffffffffffffffffff169060200190929190803573ffffffffffffffffffffffffffffffffffffffff1690602001909291908035600019169060200190929190803573ffffffffffffffffffffffffffffffffffffffff1690602001909291905050506118a5565b005b348015610b4a57600080fd5b50610b7f600480360381019080803573ffffffffffffffffffffffffffffffffffffffff1690602001909291905050506118f0565b005b348015610b8d57600080fd5b50610b96611996565b60405180826000191660001916815260200191505060405180910390f35b348015610bc057600080fd5b50610bc96119bd565b604051808273ffffffffffffffffffffffffffffffffffffffff1673ffffffffffffffffffffffffffffffffffffffff16815260200191505060405180910390f35b348015610c1757600080fd5b50610cbd600480360381019080803573ffffffffffffffffffffffffffffffffffffffff169060200190929190803573ffffffffffffffffffffffffffffffffffffffff1690602001909291908035600019169060200190929190803590602001908201803590602001908080602002602001604051908101604052809392919081815260200183836020028082843782019150505050505091929192905050506119e2565b604051808215151515815260200191505060405180910390f35b348015610ce357600080fd5b50610d3e600480360381019080803590602001908201803590602001908080601f0160208091040260200160405190810160405280939291908181526020018383808284378201915050505050509192919290505050611aec565b604051808273ffffffffffffffffffffffffffffffffffffffff1673ffffffffffffffffffffffffffffffffffffffff16815260200191505060405180910390f35b348015610d8c57600080fd5b50610e35600480360381019080803573ffffffffffffffffffffffffffffffffffffffff169060200190929190803573ffffffffffffffffffffffffffffffffffffffff1690602001909291908035600019169060200190929190803590602001908201803590602001908080601f0160208091040260200160405190810160405280939291908181526020018383808284378201915050505050509192919290505050611c0b565b604051808215151515815260200191505060405180910390f35b610e8b8383836000604051908082528060200260200182016040528015610e855781602001602082028038833980820191505090505b5061109b565b505050565b60006065600060646000610ea5888888611c3f565b6000191660001916815260200190815260200160002054600019166000191681526020019081526020016000208054905090509392505050565b60007f290decd9548b62a8d60345a988386fc84ba6bc95484008f6362f93160ef3e5636001026000191686600019161415610f1d5760019050610f2f565b610f2c86600087878787611cf7565b90505b95945050505050565b600060010281565b6000806000809054906101000a900473ffffffffffffffffffffffffffffffffffffffff1673ffffffffffffffffffffffffffffffffffffffff1614151515610f8857600080fd5b6000809054906101000a900473ffffffffffffffffffffffffffffffffffffffff1673ffffffffffffffffffffffffffffffffffffffff166332f0a3b56040518163ffffffff167c0100000000000000000000000000000000000000000000000000000000028152600401602060405180830381600087803b15801561100d57600080fd5b505af1158015611021573d6000803e3d6000fd5b505050506040513d602081101561103757600080fd5b8101908080519060200190929190505050905090565b7f0b719b33c83b8e5d300c521cb8b54ae9bd933996a14bef8c2f4e0285d2d2400a60010281565b7fddbcfd564f642ab5627cf68b9b7d374fb4f8a36e941a75d89c87998cef03bd6160010281565b600083836110a98282611856565b73ffffffffffffffffffffffffffffffffffffffff163373ffffffffffffffffffffffffffffffffffffffff161415156110e257600080fd5b6000845111611114577f290decd9548b62a8d60345a988386fc84ba6bc95484008f6362f93160ef3e56360010261111e565b61111d84612044565b5b925061112c87878786612223565b50505050505050565b6000606060006040519080825280602002602001820160405280156111695781602001602082028038833980820191505090505b509050611178858585846119e2565b9150509392505050565b600060019050919050565b60015481565b600081565b6000600354905090565b7f34f01c17e9be6ddbf2c61f37b5b1fb9f1a090a975006581ad19bda1c4d38287160010281565b81816111d58282611856565b73ffffffffffffffffffffffffffffffffffffffff163373ffffffffffffffffffffffffffffffffffffffff1614151561120e57600080fd5b61121e8585856000600102612223565b5050505050565b60008061123183611182565b151561123c57600080fd5b611244610f40565b915061124f8261238f565b151561125a57600080fd5b600073ffffffffffffffffffffffffffffffffffffffff168373ffffffffffffffffffffffffffffffffffffffff1614156112f2578173ffffffffffffffffffffffffffffffffffffffff166108fc3073ffffffffffffffffffffffffffffffffffffffff16319081150290604051600060405180830381858888f193505050501580156112ec573d6000803e3d6000fd5b506114aa565b8273ffffffffffffffffffffffffffffffffffffffff166370a08231306040518263ffffffff167c0100000000000000000000000000000000000000000000000000000000028152600401808273ffffffffffffffffffffffffffffffffffffffff1673ffffffffffffffffffffffffffffffffffffffff168152602001915050602060405180830381600087803b15801561138d57600080fd5b505af11580156113a1573d6000803e3d6000fd5b505050506040513d60208110156113b757600080fd5b810190808051906020019092919050505090508273ffffffffffffffffffffffffffffffffffffffff1663a9059cbb83836040518363ffffffff167c0100000000000000000000000000000000000000000000000000000000028152600401808373ffffffffffffffffffffffffffffffffffffffff1673ffffffffffffffffffffffffffffffffffffffff16815260200182815260200192505050602060405180830381600087803b15801561146d57600080fd5b505af1158015611481573d6000803e3d6000fd5b505050506040513d602081101561149757600080fd5b8101908080519060200190929190505050505b505050565b60008060008060656000606460006114c88c8c8c611c3f565b6000191660001916815260200190815260200160002054600019166000191681526020019081526020016000208581548110151561150257fe5b9060005260206000200190508060000160009054906101000a900460ff1693508060000160019054906101000a900460ff1692508060000160029054906101000a90047dffffffffffffffffffffffffffffffffffffffffffffffffffffffffffff169150509450945094915050565b600060606000808451111561158f57602084510290508391508082525b60008060009054906101000a900473ffffffffffffffffffffffffffffffffffffffff1673ffffffffffffffffffffffffffffffffffffffff16148061177957506000809054906101000a900473ffffffffffffffffffffffffffffffffffffffff1673ffffffffffffffffffffffffffffffffffffffff1663fdef9106873088866040518563ffffffff167c0100000000000000000000000000000000000000000000000000000000028152600401808573ffffffffffffffffffffffffffffffffffffffff1673ffffffffffffffffffffffffffffffffffffffff1681526020018473ffffffffffffffffffffffffffffffffffffffff1673ffffffffffffffffffffffffffffffffffffffff168152602001836000191660001916815260200180602001828103825283818151815260200191508051906020019080838360005b838110156116ee5780820151818401526020810190506116d3565b50505050905090810190601f16801561171b5780820380516001836020036101000a031916815260200191505b5095505050505050602060405180830381600087803b15801561173d57600080fd5b505af1158015611751573d6000803e3d6000fd5b505050506040513d602081101561176757600080fd5b81019080805190602001909291905050505b925050509392505050565b7fffffffffffffffffffffffffffffffffffffffffffffffffffffffffffffffff81565b81816117b48282611856565b73ffffffffffffffffffffffffffffffffffffffff163373ffffffffffffffffffffffffffffffffffffffff161415156117ed57600080fd5b6117f9600085856123e1565b50505050565b818161180b8282611856565b73ffffffffffffffffffffffffffffffffffffffff163373ffffffffffffffffffffffffffffffffffffffff1614151561184457600080fd5b61184f8585856123e1565b5050505050565b60006066600061186685856124a8565b6000191660001916815260200190815260200160002060009054906101000a900473ffffffffffffffffffffffffffffffffffffffff16905092915050565b6118d333307f0b719b33c83b8e5d300c521cb8b54ae9bd933996a14bef8c2f4e0285d2d2400a600102611135565b15156118de57600080fd5b6118ea8484848461251c565b50505050565b600060035414151561190157600080fd5b6119096125a0565b6000809054906101000a900473ffffffffffffffffffffffffffffffffffffffff1673ffffffffffffffffffffffffffffffffffffffff163373ffffffffffffffffffffffffffffffffffffffff1614151561196457600080fd5b61199381307f0b719b33c83b8e5d300c521cb8b54ae9bd933996a14bef8c2f4e0285d2d2400a6001028461251c565b50565b7f290decd9548b62a8d60345a988386fc84ba6bc95484008f6362f93160ef3e56360010281565b6000809054906101000a900473ffffffffffffffffffffffffffffffffffffffff1681565b6000806000606460006119f6898989611c3f565b60001916600019168152602001908152602001600020549150600060010260001916826000191614158015611a345750611a338288888888610edf565b5b15611a425760019250611ae2565b60646000611a717fffffffffffffffffffffffffffffffffffffffffffffffffffffffffffffffff8989611c3f565b60001916600019168152602001908152602001600020549050600060010260001916816000191614158015611acf5750611ace817fffffffffffffffffffffffffffffffffffffffffffffffffffffffffffffffff888888610edf565b5b15611add5760019250611ae2565b600092505b5050949350505050565b6000611af66125c1565b73ffffffffffffffffffffffffffffffffffffffff166304bf2a7f836040518263ffffffff167c01000000000000000000000000000000000000000000000000000000000281526004018080602001828103825283818151815260200191508051906020019080838360005b83811015611b7d578082015181840152602081019050611b62565b50505050905090810190601f168015611baa5780820380516001836020036101000a031916815260200191505b5092505050602060405180830381600087803b158015611bc957600080fd5b505af1158015611bdd573d6000803e3d6000fd5b505050506040513d6020811015611bf357600080fd5b81019080805190602001909291905050509050919050565b60006060600060208451811515611c1e57fe5b049050839150808252611c33878787856119e2565b92505050949350505050565b60006002848484604051808581526020018473ffffffffffffffffffffffffffffffffffffffff1673ffffffffffffffffffffffffffffffffffffffff166c010000000000000000000000000281526014018373ffffffffffffffffffffffffffffffffffffffff1673ffffffffffffffffffffffffffffffffffffffff166c010000000000000000000000000281526014018260001916600019168152602001945050505050604051809103902090509392505050565b6000611d01612c04565b600080606560008b60001916600019168152602001908152602001600020805490508963ffffffff16101515611d3a5760009350612037565b606560008b600019166000191681526020019081526020016000208963ffffffff16815481101515611d6857fe5b90600052602060002001606060405190810160405290816000820160009054906101000a900460ff1660ff1660ff1681526020016000820160019054906101000a900460ff1660ff1660ff1681526020016000820160029054906101000a90047dffffffffffffffffffffffffffffffffffffffffffffffffffffffffffff167dffffffffffffffffffffffffffffffffffffffffffffffffffffffffffff167dffffffffffffffffffffffffffffffffffffffffffffffffffffffffffff1681525050925060cc60ff16836000015160ff161415611e5657611e4f838b8a8a8a8a6126c3565b9350612037565b82604001517dffffffffffffffffffffffffffffffffffffffffffffffffffffffffffff16905060cb60ff16836000015160ff161415611ebd57611ea18360400151898989896128ce565b611eac576000611eaf565b60015b60ff16915060019050611fdb565b60c860ff16836000015160ff161415611edf57611ed8612a9c565b9150611fda565b60c960ff16836000015160ff161415611f0b57611efa612aa4565b67ffffffffffffffff169150611fd9565b60ca60ff16836000015160ff161415611f3c573373ffffffffffffffffffffffffffffffffffffffff169150611fd8565b60cd60ff16836000015160ff161415611f7b5782604001517dffffffffffffffffffffffffffffffffffffffffffffffffffffffffffff169150611fd7565b8451836000015160ff16101515611f955760009350612037565b84836000015160ff16815181101515611faa57fe5b906020019060200201517dffffffffffffffffffffffffffffffffffffffffffffffffffffffffffff1691505b5b5b5b5b6007600c811115611fe857fe5b836020015160ff16600c811115611ffb57fe5b600c81111561200657fe5b141561201757600082119350612037565b61203482846020015160ff16600c81111561202e57fe5b83612aac565b93505b5050509695505050505050565b6000806000806000612054612c04565b8660405180828051906020019060200280838360005b8381101561208557808201518184015260208101905061206a565b5050505090500191505060405180910390209450606560008660001916600019168152602001908152602001600020935060008480549050141561221657600092505b86518310156122155786838151811015156120df57fe5b90602001906020020151915060606040519081016040528061210084612bb3565b60ff16815260200161211184612bc5565b60ff168152602001837dffffffffffffffffffffffffffffffffffffffffffffffffffffffffffff168152509050838190806001815401808255809150509060018203906000526020600020016000909192909190915060008201518160000160006101000a81548160ff021916908360ff16021790555060208201518160000160016101000a81548160ff021916908360ff16021790555060408201518160000160026101000a8154817dffffffffffffffffffffffffffffffffffffffffffffffffffffffffffff02191690837dffffffffffffffffffffffffffffffffffffffffffffffffffffffffffff16021790555050505082806001019350506120c8565b5b8495505050505050919050565b6000808260646000612236898989611c3f565b60001916600019168152602001908152602001600020816000191690555060006001026000191683600019161415915081801561229e57507f290decd9548b62a8d60345a988386fc84ba6bc95484008f6362f93160ef3e56360010260001916836000191614155b905083600019168573ffffffffffffffffffffffffffffffffffffffff168773ffffffffffffffffffffffffffffffffffffffff167f759b9a74d5354b5801710a0c1b283cc9f0d32b607ac8ced10c83ac8e75c77d5285604051808215151515815260200191505060405180910390a480156123875783600019168573ffffffffffffffffffffffffffffffffffffffff168773ffffffffffffffffffffffffffffffffffffffff167f8dfee25d92d73b8c9b868f9fa3e215cc1981033f426e53803e3da4f09a2cfc308660405180826000191660001916815260200191505060405180910390a45b505050505050565b600080600073ffffffffffffffffffffffffffffffffffffffff168373ffffffffffffffffffffffffffffffffffffffff1614156123d057600091506123db565b823b90506000811191505b50919050565b82606660006123f085856124a8565b6000191660001916815260200190815260200160002060006101000a81548173ffffffffffffffffffffffffffffffffffffffff021916908373ffffffffffffffffffffffffffffffffffffffff1602179055508273ffffffffffffffffffffffffffffffffffffffff1681600019168373ffffffffffffffffffffffffffffffffffffffff167ff3addc8b8e25ee11528a61b0e65092cae0666ef0ec0c64cb303993c88d689b4d60405160405180910390a4505050565b600060018383604051808481526020018373ffffffffffffffffffffffffffffffffffffffff1673ffffffffffffffffffffffffffffffffffffffff166c01000000000000000000000000028152601401826000191660001916815260200193505050506040518091039020905092915050565b600073ffffffffffffffffffffffffffffffffffffffff1661253e8484611856565b73ffffffffffffffffffffffffffffffffffffffff1614151561256057600080fd5b61258f8484847f290decd9548b62a8d60345a988386fc84ba6bc95484008f6362f93160ef3e563600102612223565b61259a8184846123e1565b50505050565b60006003541415156125b157600080fd5b6125b9612bd7565b600381905550565b6000806000809054906101000a900473ffffffffffffffffffffffffffffffffffffffff1673ffffffffffffffffffffffffffffffffffffffff166342c71f1d7f34f01c17e9be6ddbf2c61f37b5b1fb9f1a090a975006581ad19bda1c4d3828716001026040518263ffffffff167c0100000000000000000000000000000000000000000000000000000000028152600401808260001916600019168152602001915050602060405180830381600087803b15801561267f57600080fd5b505af1158015612693573d6000803e3d6000fd5b505050506040513d60208110156126a957600080fd5b810190808051906020019092919050505090508091505090565b6000806000806000806000806000600c808111156126dd57fe5b8f6020015160ff16600c8111156126f057fe5b600c8111156126fb57fe5b14156127655761272e8f604001517dffffffffffffffffffffffffffffffffffffffffffffffffffffffffffff16612bdf565b9750975097506127428e898f8f8f8f611cf7565b945061275e8e866127535787612755565b885b8f8f8f8f611cf7565b98506128bc565b6127928f604001517dffffffffffffffffffffffffffffffffffffffffffffffffffffffffffff16612bdf565b50935093506127a58e858f8f8f8f611cf7565b91506008600c8111156127b457fe5b8f6020015160ff16600c8111156127c757fe5b600c8111156127d257fe5b14156127e157811598506128bc565b8180156128165750600a600c8111156127f657fe5b8f6020015160ff16600c81111561280957fe5b600c81111561281457fe5b145b1561282457600198506128bc565b8115801561285a57506009600c81111561283a57fe5b8f6020015160ff16600c81111561284d57fe5b600c81111561285857fe5b145b1561286857600098506128bc565b6128768e848f8f8f8f611cf7565b9050600b600c81111561288557fe5b8f6020015160ff16600c81111561289857fe5b600c8111156128a357fe5b14156128b857801515821515141598506128bc565b8098505b50505050505050509695505050505050565b60008060008060008973ffffffffffffffffffffffffffffffffffffffff16632a15109090507c01000000000000000000000000000000000000000000000000000000000293508973ffffffffffffffffffffffffffffffffffffffff16847c010000000000000000000000000000000000000000000000000000000090048a8a8a60808b518c6040518763ffffffff167c0100000000000000000000000000000000000000000000000000000000028152600401808773ffffffffffffffffffffffffffffffffffffffff1673ffffffffffffffffffffffffffffffffffffffff1681526020018673ffffffffffffffffffffffffffffffffffffffff1673ffffffffffffffffffffffffffffffffffffffff16815260200185600019166000191681526020018460ff168152602001838152602001828051906020019060200280838360005b83811015612a31578082015181840152602081019050612a16565b5050505090500196505050505050506000604051808303816000875af1925050509250821515612a645760009450612a8f565b3d9150602082141515612a7a5760009450612a8f565b604051826000823e8051915060008152508094505b5050505095945050505050565b600043905090565b600042905090565b60006001600c811115612abb57fe5b83600c811115612ac757fe5b1415612ad7578184149050612bac565b6002600c811115612ae457fe5b83600c811115612af057fe5b1415612b0157818414159050612bac565b6003600c811115612b0e57fe5b83600c811115612b1a57fe5b1415612b2a578184119050612bac565b6004600c811115612b3757fe5b83600c811115612b4357fe5b1415612b53578184109050612bac565b6005600c811115612b6057fe5b83600c811115612b6c57fe5b1415612b7d57818410159050612bac565b6006600c811115612b8a57fe5b83600c811115612b9657fe5b1415612ba757818411159050612bac565b600090505b9392505050565b600060f8829060020a90049050919050565b600060f0829060020a90049050919050565b600043905090565b60008060008392506020849060020a900491506040849060020a900490509193909250565b606060405190810160405280600060ff168152602001600060ff16815260200160007dffffffffffffffffffffffffffffffffffffffffffffffffffffffffffff16815250905600a165627a7a723058201678c4ed0a4e055b57a159cd6c94058c55770fec516701664241f552c0c75c360029",
  "source": "pragma solidity ^0.4.18;\n\nimport \"../apps/AragonApp.sol\";\nimport \"./ACLSyntaxSugar.sol\";\nimport \"./IACL.sol\";\nimport \"./IACLOracle.sol\";\n\n\n/* solium-disable function-order */\n// Allow public initialize() to be first\ncontract ACL is IACL, AragonApp, ACLHelpers {\n    // Hardcoded constant to save gas\n    //bytes32 constant public CREATE_PERMISSIONS_ROLE = keccak256(\"CREATE_PERMISSIONS_ROLE\");\n    bytes32 constant public CREATE_PERMISSIONS_ROLE = 0x0b719b33c83b8e5d300c521cb8b54ae9bd933996a14bef8c2f4e0285d2d2400a;\n\n    // Whether someone has a permission\n    mapping (bytes32 => bytes32) internal permissions; // permissions hash => params hash\n    mapping (bytes32 => Param[]) internal permissionParams; // params hash => params\n\n    // Who is the manager of a permission\n    mapping (bytes32 => address) internal permissionManager;\n\n    enum Op { NONE, EQ, NEQ, GT, LT, GTE, LTE, RET, NOT, AND, OR, XOR, IF_ELSE } // op types\n\n    struct Param {\n        uint8 id;\n        uint8 op;\n        uint240 value; // even though value is an uint240 it can store addresses\n        // in the case of 32 byte hashes losing 2 bytes precision isn't a huge deal\n        // op and id take less than 1 byte each so it can be kept in 1 sstore\n    }\n\n    uint8 constant BLOCK_NUMBER_PARAM_ID = 200;\n    uint8 constant TIMESTAMP_PARAM_ID    = 201;\n    uint8 constant SENDER_PARAM_ID       = 202;\n    uint8 constant ORACLE_PARAM_ID       = 203;\n    uint8 constant LOGIC_OP_PARAM_ID     = 204;\n    uint8 constant PARAM_VALUE_PARAM_ID  = 205;\n    // TODO: Add execution times param type?\n\n    // Hardcoded constant to save gas\n    //bytes32 constant public EMPTY_PARAM_HASH = keccak256(uint256(0));\n    bytes32 constant public EMPTY_PARAM_HASH = 0x290decd9548b62a8d60345a988386fc84ba6bc95484008f6362f93160ef3e563;\n    bytes32 constant public NO_PERMISSION = bytes32(0);\n    address constant public ANY_ENTITY = address(-1);\n\n    modifier onlyPermissionManager(address _app, bytes32 _role) {\n        require(msg.sender == getPermissionManager(_app, _role));\n        _;\n    }\n\n    event SetPermission(address indexed entity, address indexed app, bytes32 indexed role, bool allowed);\n    event SetPermissionParams(address indexed entity, address indexed app, bytes32 indexed role, bytes32 paramsHash);\n    event ChangePermissionManager(address indexed app, bytes32 indexed role, address indexed manager);\n\n    /**\n    * @dev Initialize can only be called once. It saves the block number in which it was initialized.\n    * @notice Initializes an ACL instance and sets `_permissionsCreator` as the entity that can create other permissions\n    * @param _permissionsCreator Entity that will be given permission over createPermission\n    */\n    function initialize(address _permissionsCreator) public onlyInit {\n        initialized();\n        require(msg.sender == address(kernel));\n\n        _createPermission(_permissionsCreator, this, CREATE_PERMISSIONS_ROLE, _permissionsCreator);\n    }\n\n    /**\n    * @dev Creates a permission that wasn't previously set and managed. Access is limited by the ACL.\n    *      If a created permission is removed it is possible to reset it with createPermission.\n    * @notice Create a new permission granting `_entity` the ability to perform actions of role `_role` on `_app` (setting `_manager` as the permission manager)\n    * @param _entity Address of the whitelisted entity that will be able to perform the role\n    * @param _app Address of the app in which the role will be allowed (requires app to depend on kernel for ACL)\n    * @param _role Identifier for the group of actions in app given access to perform\n    * @param _manager Address of the entity that will be able to grant and revoke the permission further.\n    */\n    function createPermission(address _entity, address _app, bytes32 _role, address _manager) external {\n        require(hasPermission(msg.sender, address(this), CREATE_PERMISSIONS_ROLE));\n\n        _createPermission(_entity, _app, _role, _manager);\n    }\n\n    /**\n    * @dev Grants permission if allowed. This requires `msg.sender` to be the permission manager\n    * @notice Grants `_entity` the ability to perform actions of role `_role` on `_app`\n    * @param _entity Address of the whitelisted entity that will be able to perform the role\n    * @param _app Address of the app in which the role will be allowed (requires app to depend on kernel for ACL)\n    * @param _role Identifier for the group of actions in app given access to perform\n    */\n    function grantPermission(address _entity, address _app, bytes32 _role)\n        external\n    {\n        grantPermissionP(_entity, _app, _role, new uint256[](0));\n    }\n\n    /**\n    * @dev Grants a permission with parameters if allowed. This requires `msg.sender` to be the permission manager\n    * @notice Grants `_entity` the ability to perform actions of role `_role` on `_app`\n    * @param _entity Address of the whitelisted entity that will be able to perform the role\n    * @param _app Address of the app in which the role will be allowed (requires app to depend on kernel for ACL)\n    * @param _role Identifier for the group of actions in app given access to perform\n    * @param _params Permission parameters\n    */\n    function grantPermissionP(address _entity, address _app, bytes32 _role, uint256[] _params)\n        public\n        onlyPermissionManager(_app, _role)\n    {\n        bytes32 paramsHash = _params.length > 0 ? _saveParams(_params) : EMPTY_PARAM_HASH;\n        _setPermission(_entity, _app, _role, paramsHash);\n    }\n\n    /**\n    * @dev Revokes permission if allowed. This requires `msg.sender` to be the the permission manager\n    * @notice Revokes `_entity` the ability to perform actions of role `_role` on `_app`\n    * @param _entity Address of the whitelisted entity to revoke access from\n    * @param _app Address of the app in which the role will be revoked\n    * @param _role Identifier for the group of actions in app being revoked\n    */\n    function revokePermission(address _entity, address _app, bytes32 _role)\n        external\n        onlyPermissionManager(_app, _role)\n    {\n        _setPermission(_entity, _app, _role, NO_PERMISSION);\n    }\n\n    /**\n    * @notice Sets `_newManager` as the manager of the permission `_role` in `_app`\n    * @param _newManager Address for the new manager\n    * @param _app Address of the app in which the permission management is being transferred\n    * @param _role Identifier for the group of actions being transferred\n    */\n    function setPermissionManager(address _newManager, address _app, bytes32 _role)\n        external\n        onlyPermissionManager(_app, _role)\n    {\n        _setPermissionManager(_newManager, _app, _role);\n    }\n\n    /**\n    * @notice Removes the manager of the permission `_role` in `_app`\n    * @param _app Address of the app in which the permission is being unmanaged\n    * @param _role Identifier for the group of actions being unmanaged\n    */\n    function removePermissionManager(address _app, bytes32 _role)\n        external\n        onlyPermissionManager(_app, _role)\n    {\n        _setPermissionManager(address(0), _app, _role);\n    }\n\n    /**\n     * @notice Get parameters for permission array length\n     * @param _entity Address of the whitelisted entity that will be able to perform the role\n     * @param _app Address of the app\n     * @param _role Identifier for a group of actions in app\n     * @return Length of the array\n     */\n    function getPermissionParamsLength(address _entity, address _app, bytes32 _role) external view returns (uint) {\n        return permissionParams[permissions[permissionHash(_entity, _app, _role)]].length;\n    }\n\n    /**\n    * @notice Get parameter for permission\n    * @param _entity Address of the whitelisted entity that will be able to perform the role\n    * @param _app Address of the app\n    * @param _role Identifier for a group of actions in app\n    * @param _index Index of parameter in the array\n    * @return Parameter (id, op, value)\n    */\n    function getPermissionParam(address _entity, address _app, bytes32 _role, uint _index)\n        external\n        view\n        returns (uint8 id, uint8 op, uint240 value)\n    {\n        Param storage param = permissionParams[permissions[permissionHash(_entity, _app, _role)]][_index];\n        id = param.id;\n        op = param.op;\n        value = param.value;\n    }\n\n    /**\n    * @dev Get manager for permission\n    * @param _app Address of the app\n    * @param _role Identifier for a group of actions in app\n    * @return address of the manager for the permission\n    */\n    function getPermissionManager(address _app, bytes32 _role) public view returns (address) {\n        return permissionManager[roleHash(_app, _role)];\n    }\n\n    /**\n    * @dev Function called by apps to check ACL on kernel or to check permission statu\n    * @param _who Sender of the original call\n    * @param _where Address of the app\n    * @param _where Identifier for a group of actions in app\n    * @param _how Permission parameters\n    * @return boolean indicating whether the ACL allows the role or not\n    */\n    function hasPermission(address _who, address _where, bytes32 _what, bytes memory _how) public view returns (bool) {\n        uint256[] memory how;\n        uint256 intsLength = _how.length / 32;\n        assembly {\n            how := _how // forced casting\n            mstore(how, intsLength)\n        }\n        // _how is invalid from this point fwd\n        return hasPermission(_who, _where, _what, how);\n    }\n\n    function hasPermission(address _who, address _where, bytes32 _what, uint256[] memory _how) public view returns (bool) {\n        bytes32 whoParams = permissions[permissionHash(_who, _where, _what)];\n        if (whoParams != NO_PERMISSION && evalParams(whoParams, _who, _where, _what, _how)) {\n            return true;\n        }\n\n        bytes32 anyParams = permissions[permissionHash(ANY_ENTITY, _where, _what)];\n        if (anyParams != NO_PERMISSION && evalParams(anyParams, ANY_ENTITY, _where, _what, _how)) {\n            return true;\n        }\n\n        return false;\n    }\n\n    function hasPermission(address _who, address _where, bytes32 _what) public view returns (bool) {\n        uint256[] memory empty = new uint256[](0);\n        return hasPermission(_who, _where, _what, empty);\n    }\n\n    function evalParams(\n        bytes32 _paramsHash,\n        address _who,\n        address _where,\n        bytes32 _what,\n        uint256[] _how\n    ) public view returns (bool)\n    {\n        if (_paramsHash == EMPTY_PARAM_HASH) {\n            return true;\n        }\n\n        return evalParam(_paramsHash, 0, _who, _where, _what, _how);\n    }\n\n    /**\n    * @dev Internal createPermission for access inside the kernel (on instantiation)\n    */\n    function _createPermission(address _entity, address _app, bytes32 _role, address _manager) internal {\n        // only allow permission creation (or re-creation) when there is no manager\n        require(getPermissionManager(_app, _role) == address(0));\n\n        _setPermission(_entity, _app, _role, EMPTY_PARAM_HASH);\n        _setPermissionManager(_manager, _app, _role);\n    }\n\n    /**\n    * @dev Internal function called to actually save the permission\n    */\n    function _setPermission(address _entity, address _app, bytes32 _role, bytes32 _paramsHash) internal {\n        permissions[permissionHash(_entity, _app, _role)] = _paramsHash;\n        bool hasPermission = _paramsHash != NO_PERMISSION;\n        bool hasParams = hasPermission && _paramsHash != EMPTY_PARAM_HASH;\n\n        SetPermission(_entity, _app, _role, hasPermission);\n        if (hasParams) {\n            SetPermissionParams(_entity, _app, _role, _paramsHash);\n        }\n    }\n\n    function _saveParams(uint256[] _encodedParams) internal returns (bytes32) {\n        bytes32 paramHash = keccak256(_encodedParams);\n        Param[] storage params = permissionParams[paramHash];\n\n        if (params.length == 0) { // params not saved before\n            for (uint256 i = 0; i < _encodedParams.length; i++) {\n                uint256 encodedParam = _encodedParams[i];\n                Param memory param = Param(decodeParamId(encodedParam), decodeParamOp(encodedParam), uint240(encodedParam));\n                params.push(param);\n            }\n        }\n\n        return paramHash;\n    }\n\n    function evalParam(\n        bytes32 _paramsHash,\n        uint32 _paramId,\n        address _who,\n        address _where,\n        bytes32 _what,\n        uint256[] _how\n    ) internal view returns (bool)\n    {\n        if (_paramId >= permissionParams[_paramsHash].length) {\n            return false; // out of bounds\n        }\n\n        Param memory param = permissionParams[_paramsHash][_paramId];\n\n        if (param.id == LOGIC_OP_PARAM_ID) {\n            return evalLogic(param, _paramsHash, _who, _where, _what, _how);\n        }\n\n        uint256 value;\n        uint256 comparedTo = uint256(param.value);\n\n        // get value\n        if (param.id == ORACLE_PARAM_ID) {\n            value = checkOracle(IACLOracle(param.value), _who, _where, _what, _how) ? 1 : 0;\n            comparedTo = 1;\n        } else if (param.id == BLOCK_NUMBER_PARAM_ID) {\n            value = blockN();\n        } else if (param.id == TIMESTAMP_PARAM_ID) {\n            value = time();\n        } else if (param.id == SENDER_PARAM_ID) {\n            value = uint256(msg.sender);\n        } else if (param.id == PARAM_VALUE_PARAM_ID) {\n            value = uint256(param.value);\n        } else {\n            if (param.id >= _how.length) {\n                return false;\n            }\n            value = uint256(uint240(_how[param.id])); // force lost precision\n        }\n\n        if (Op(param.op) == Op.RET) {\n            return uint256(value) > 0;\n        }\n\n        return compare(value, Op(param.op), comparedTo);\n    }\n\n    function evalLogic(Param _param, bytes32 _paramsHash, address _who, address _where, bytes32 _what, uint256[] _how)\n        internal\n        view\n        returns (bool)\n    {\n        if (Op(_param.op) == Op.IF_ELSE) {\n            var (condition, success, failure) = decodeParamsList(uint256(_param.value));\n            bool result = evalParam(_paramsHash, condition, _who, _where, _what, _how);\n\n            return evalParam(_paramsHash, result ? success : failure, _who, _where, _what, _how);\n        }\n\n        var (v1, v2,) = decodeParamsList(uint256(_param.value));\n        bool r1 = evalParam(_paramsHash, v1, _who, _where, _what, _how);\n\n        if (Op(_param.op) == Op.NOT) {\n            return !r1;\n        }\n\n        if (r1 && Op(_param.op) == Op.OR) {\n            return true;\n        }\n\n        if (!r1 && Op(_param.op) == Op.AND) {\n            return false;\n        }\n\n        bool r2 = evalParam(_paramsHash, v2, _who, _where, _what, _how);\n\n        if (Op(_param.op) == Op.XOR) {\n            return r1 != r2;\n        }\n\n        return r2; // both or and and depend on result of r2 after checks\n    }\n\n    function compare(uint256 _a, Op _op, uint256 _b) internal pure returns (bool) {\n        if (_op == Op.EQ)  return _a == _b;                              // solium-disable-line lbrace\n        if (_op == Op.NEQ) return _a != _b;                              // solium-disable-line lbrace\n        if (_op == Op.GT)  return _a > _b;                               // solium-disable-line lbrace\n        if (_op == Op.LT)  return _a < _b;                               // solium-disable-line lbrace\n        if (_op == Op.GTE) return _a >= _b;                              // solium-disable-line lbrace\n        if (_op == Op.LTE) return _a <= _b;                              // solium-disable-line lbrace\n        return false;\n    }\n\n    function checkOracle(IACLOracle _oracleAddr, address _who, address _where, bytes32 _what, uint256[] _how) internal view returns (bool) {\n        bytes4 sig = _oracleAddr.canPerform.selector;\n\n        // a raw call is required so we can return false if the call reverts, rather than reverting\n        bool ok = address(_oracleAddr).call(sig, _who, _where, _what, 0x80, _how.length, _how);\n        // 0x80 is the position where the array that goes there starts\n\n        if (!ok) {\n            return false;\n        }\n\n        uint256 size;\n        assembly { size := returndatasize }\n        if (size != 32) {\n            return false;\n        }\n\n        bool result;\n        assembly {\n            let ptr := mload(0x40)       // get next free memory ptr\n            returndatacopy(ptr, 0, size) // copy return from above `call`\n            result := mload(ptr)         // read data at ptr and set it to result\n            mstore(ptr, 0)               // set pointer memory to 0 so it still is the next free ptr\n        }\n\n        return result;\n    }\n\n    /**\n    * @dev Internal function that sets management\n    */\n    function _setPermissionManager(address _newManager, address _app, bytes32 _role) internal {\n        permissionManager[roleHash(_app, _role)] = _newManager;\n        ChangePermissionManager(_app, _role, _newManager);\n    }\n\n    function roleHash(address _where, bytes32 _what) internal pure returns (bytes32) {\n        return keccak256(uint256(1), _where, _what);\n    }\n\n    function permissionHash(address _who, address _where, bytes32 _what) internal pure returns (bytes32) {\n        return keccak256(uint256(2), _who, _where, _what);\n    }\n\n    function time() internal view returns (uint64) { return uint64(block.timestamp); } // solium-disable-line security/no-block-members\n\n    function blockN() internal view returns (uint256) { return block.number; }\n}\n",
  "sourcePath": "@aragon/os/contracts/acl/ACL.sol",
  "compiler": {
    "name": "solc",
    "version": "0.4.24+commit.e67f0147.Emscripten.clang"
  },
  "schemaVersion": "2.0.1",
  "updatedAt": "2018-10-05T12:39:51.952Z"
}