{
  "contractName": "AppProxyUpgradeable",
  "abi": [
    {
      "constant": true,
      "inputs": [],
      "name": "APM_NODE",
      "outputs": [
        {
          "name": "",
          "type": "bytes32"
        }
      ],
      "payable": false,
      "stateMutability": "view",
      "type": "function"
    },
    {
      "constant": true,
      "inputs": [],
      "name": "FWD_GAS_LIMIT",
      "outputs": [
        {
          "name": "",
          "type": "uint256"
        }
      ],
      "payable": false,
      "stateMutability": "view",
      "type": "function"
    },
    {
      "constant": true,
      "inputs": [],
      "name": "KERNEL_APP_ID",
      "outputs": [
        {
          "name": "",
          "type": "bytes32"
        }
      ],
      "payable": false,
      "stateMutability": "view",
      "type": "function"
    },
    {
      "constant": true,
      "inputs": [],
      "name": "APP_ADDR_NAMESPACE",
      "outputs": [
        {
          "name": "",
          "type": "bytes32"
        }
      ],
      "payable": false,
      "stateMutability": "view",
      "type": "function"
    },
    {
      "constant": true,
      "inputs": [],
      "name": "KERNEL_APP",
      "outputs": [
        {
          "name": "",
          "type": "bytes32"
        }
      ],
      "payable": false,
      "stateMutability": "view",
      "type": "function"
    },
    {
      "constant": true,
      "inputs": [],
      "name": "FORWARDING",
      "outputs": [
        {
          "name": "",
          "type": "uint256"
        }
      ],
      "payable": false,
      "stateMutability": "view",
      "type": "function"
    },
    {
      "constant": true,
      "inputs": [],
      "name": "proxyType",
      "outputs": [
        {
          "name": "proxyTypeId",
          "type": "uint256"
        }
      ],
      "payable": false,
      "stateMutability": "pure",
      "type": "function"
    },
    {
      "constant": true,
      "inputs": [],
      "name": "implementation",
      "outputs": [
        {
          "name": "",
          "type": "address"
        }
      ],
      "payable": false,
      "stateMutability": "view",
      "type": "function"
    },
    {
      "constant": true,
      "inputs": [],
      "name": "CORE_NAMESPACE",
      "outputs": [
        {
          "name": "",
          "type": "bytes32"
        }
      ],
      "payable": false,
      "stateMutability": "view",
      "type": "function"
    },
    {
      "constant": true,
      "inputs": [],
      "name": "UPGRADEABLE",
      "outputs": [
        {
          "name": "",
          "type": "uint256"
        }
      ],
      "payable": false,
      "stateMutability": "view",
      "type": "function"
    },
    {
      "constant": true,
      "inputs": [],
      "name": "appId",
      "outputs": [
        {
          "name": "",
          "type": "bytes32"
        }
      ],
      "payable": false,
      "stateMutability": "view",
      "type": "function"
    },
    {
      "constant": true,
      "inputs": [],
      "name": "ACL_APP",
      "outputs": [
        {
          "name": "",
          "type": "bytes32"
        }
      ],
      "payable": false,
      "stateMutability": "view",
      "type": "function"
    },
    {
      "constant": true,
      "inputs": [],
      "name": "ACL_APP_ID",
      "outputs": [
        {
          "name": "",
          "type": "bytes32"
        }
      ],
      "payable": false,
      "stateMutability": "view",
      "type": "function"
    },
    {
      "constant": true,
      "inputs": [],
      "name": "ETH_NODE",
      "outputs": [
        {
          "name": "",
          "type": "bytes32"
        }
      ],
      "payable": false,
      "stateMutability": "view",
      "type": "function"
    },
    {
      "constant": true,
      "inputs": [],
      "name": "kernel",
      "outputs": [
        {
          "name": "",
          "type": "address"
        }
      ],
      "payable": false,
      "stateMutability": "view",
      "type": "function"
    },
    {
      "constant": true,
      "inputs": [],
      "name": "APP_BASES_NAMESPACE",
      "outputs": [
        {
          "name": "",
          "type": "bytes32"
        }
      ],
      "payable": false,
      "stateMutability": "view",
      "type": "function"
    },
    {
      "inputs": [
        {
          "name": "_kernel",
          "type": "address"
        },
        {
          "name": "_appId",
          "type": "bytes32"
        },
        {
          "name": "_initializePayload",
          "type": "bytes"
        }
      ],
      "payable": false,
      "stateMutability": "nonpayable",
      "type": "constructor"
    },
    {
      "payable": true,
      "stateMutability": "payable",
      "type": "fallback"
    },
    {
      "anonymous": false,
      "inputs": [
        {
          "indexed": false,
          "name": "sender",
          "type": "address"
        },
        {
          "indexed": false,
          "name": "value",
          "type": "uint256"
        }
      ],
      "name": "ProxyDeposit",
      "type": "event"
    }
  ],
  "bytecode": "0x6060604052341561000f57600080fd5b604051610ba7380380610ba7833981016040528080519060200190919080519060200190919080518201919050508282826000836000806101000a81548173ffffffffffffffffffffffffffffffffffffffff021916908373ffffffffffffffffffffffffffffffffffffffff16021790555082600181600019169055506100ab60015461017f640100000000026106c8176401000000009004565b9050600082511115610173576100d38161029364010000000002610835176401000000009004565b15156100de57600080fd5b8073ffffffffffffffffffffffffffffffffffffffff168260405180828051906020019080838360005b83811015610123578082015181840152602081019050610108565b50505050905090810190601f1680156101505780820380516001836020036101000a031916815260200191505b509150506000604051808303818561646e5a03f4915050151561017257600080fd5b5b505050505050506102e5565b60008060009054906101000a900473ffffffffffffffffffffffffffffffffffffffff1673ffffffffffffffffffffffffffffffffffffffff166342c71f1d7ff1f3eb40f5bc1ad1344716ced8b8a0431d840b5783aea1fd01786bc26f35ac0f6001028460405180836000191660001916815260200182600019166000191681526020019250505060405180910390206000604051602001526040518263ffffffff167c0100000000000000000000000000000000000000000000000000000000028152600401808260001916600019168152602001915050602060405180830381600087803b151561027157600080fd5b6102c65a03f1151561028257600080fd5b505050604051805190509050919050565b600080600073ffffffffffffffffffffffffffffffffffffffff168373ffffffffffffffffffffffffffffffffffffffff1614156102d457600091506102df565b823b90506000811191505b50919050565b6108b3806102f46000396000f3006060604052600436106100e6576000357c0100000000000000000000000000000000000000000000000000000000900463ffffffff16806309720778146101cb5780630ceafa2a146101fc5780631113ed0d14610225578063178e60791461025657806325012699146102875780632b2584f6146102b85780634555d5c9146102e15780635c60da1b1461030a578063756f60491461035f5780637e84a4ff1461039057806380afdea8146103b9578063a3b4b07f146103ea578063cbcc65eb1461041b578063cc473be31461044c578063d4aae0c41461047d578063db8a61d4146104d2575b60006127105a1015610180576000341180156101055750600080369050145b151561011057600080fd5b7f15eeaa57c7bd188c1388020bcadc2c436ec60d647d36ef5b9eb3c742217ddee13334604051808373ffffffffffffffffffffffffffffffffffffffff1673ffffffffffffffffffffffffffffffffffffffff1681526020018281526020019250505060405180910390a16101c8565b610188610503565b90506101c7816000368080601f016020809104026020016040519081016040528093929190818152602001838380828437820191505050505050610515565b5b50005b34156101d657600080fd5b6101de610525565b60405180826000191660001916815260200191505060405180910390f35b341561020757600080fd5b61020f61054c565b6040518082815260200191505060405180910390f35b341561023057600080fd5b610238610552565b60405180826000191660001916815260200191505060405180910390f35b341561026157600080fd5b610269610579565b60405180826000191660001916815260200191505060405180910390f35b341561029257600080fd5b61029a6105a0565b60405180826000191660001916815260200191505060405180910390f35b34156102c357600080fd5b6102cb6105c7565b6040518082815260200191505060405180910390f35b34156102ec57600080fd5b6102f46105cc565b6040518082815260200191505060405180910390f35b341561031557600080fd5b61031d610503565b604051808273ffffffffffffffffffffffffffffffffffffffff1673ffffffffffffffffffffffffffffffffffffffff16815260200191505060405180910390f35b341561036a57600080fd5b6103726105d5565b60405180826000191660001916815260200191505060405180910390f35b341561039b57600080fd5b6103a36105fc565b6040518082815260200191505060405180910390f35b34156103c457600080fd5b6103cc610601565b60405180826000191660001916815260200191505060405180910390f35b34156103f557600080fd5b6103fd610607565b60405180826000191660001916815260200191505060405180910390f35b341561042657600080fd5b61042e61062e565b60405180826000191660001916815260200191505060405180910390f35b341561045757600080fd5b61045f610655565b60405180826000191660001916815260200191505060405180910390f35b341561048857600080fd5b61049061067c565b604051808273ffffffffffffffffffffffffffffffffffffffff1673ffffffffffffffffffffffffffffffffffffffff16815260200191505060405180910390f35b34156104dd57600080fd5b6104e56106a1565b60405180826000191660001916815260200191505060405180910390f35b60006105106001546106c8565b905090565b610521828260006107dc565b5050565b7f9065c3e7f7b7ef1ef4e53d2d0b8e0cef02874ab020c1ece79d5f0d3d0111c0ba60010281565b61271081565b7f3b4bf6bf3ad5000ecf0f989d5befde585c6860fea3e574a4fab4c49d1c177d9c60010281565b7fd6f028ca0e8edb4a8c9757ca4fdccab25fa1e0317da1188108f7d2dee14902fb60010281565b7f2b7d19d0575c228f8d9326801e14149d284dc5bb7b1541c5ad712ae4b2fcaadb60010281565b600181565b60006002905090565b7fc681a85306374a5ab27f0bbc385296a54bcd314a1948b6cf61c4ea1bc44bb9f860010281565b600281565b60015481565b7f4b8e03a458a6ccec5d9077c2490964c1333dd3c72e2db408d7d9a7a36ef5c41a60010281565b7fe3262375f45a6e2026b7e7b18c2b807434f2508fe1a2a3dfb493c7df8f4aad6a60010281565b7f93cdeb708b7545dc668eb9280176169d1c33cfd8ed6f04690a0bcc88a93fc4ae60010281565b6000809054906101000a900473ffffffffffffffffffffffffffffffffffffffff1681565b7ff1f3eb40f5bc1ad1344716ced8b8a0431d840b5783aea1fd01786bc26f35ac0f60010281565b60008060009054906101000a900473ffffffffffffffffffffffffffffffffffffffff1673ffffffffffffffffffffffffffffffffffffffff166342c71f1d7ff1f3eb40f5bc1ad1344716ced8b8a0431d840b5783aea1fd01786bc26f35ac0f6001028460405180836000191660001916815260200182600019166000191681526020019250505060405180910390206000604051602001526040518263ffffffff167c0100000000000000000000000000000000000000000000000000000000028152600401808260001916600019168152602001915050602060405180830381600087803b15156107ba57600080fd5b6102c65a03f115156107cb57600080fd5b505050604051805190509050919050565b60008060006107ea86610835565b15156107f557600080fd5b612710905060008086516020880189855a03f491503d925083831015151561081c57600080fd5b604051836000823e8260008114610831578482f35b8482fd5b600080600073ffffffffffffffffffffffffffffffffffffffff168373ffffffffffffffffffffffffffffffffffffffff1614156108765760009150610881565b823b90506000811191505b509190505600a165627a7a72305820ae3ded05dfe200cdb296b66ffbb771fa6dbfea07170669e6f7d71aedab9bbc420029",
  "source": "pragma solidity 0.4.18;\n\nimport \"./AppProxyBase.sol\";\n\n\ncontract AppProxyUpgradeable is AppProxyBase {\n    /**\n    * @dev Initialize AppProxyUpgradeable (makes it an upgradeable Aragon app)\n    * @param _kernel Reference to organization kernel for the app\n    * @param _appId Identifier for app\n    * @param _initializePayload Payload for call to be made after setup to initialize\n    */\n    function AppProxyUpgradeable(IKernel _kernel, bytes32 _appId, bytes _initializePayload)\n             AppProxyBase(_kernel, _appId, _initializePayload) public\n    {\n\n    }\n\n    /**\n     * @dev ERC897, the address the proxy would delegate calls to\n     */\n    function implementation() public view returns (address) {\n        return getAppBase(appId);\n    }\n\n    /**\n     * @dev ERC897, whether it is a forwarding (1) or an upgradeable (2) proxy\n     */\n    function proxyType() public pure returns (uint256 proxyTypeId) {\n        return UPGRADEABLE;\n    }\n}\n",
  "sourcePath": "@aragon/os/contracts/apps/AppProxyUpgradeable.sol",
  "compiler": {
    "name": "solc",
    "version": "0.4.18+commit.9cf6e910.Emscripten.clang"
  },
  "schemaVersion": "1.0.1",
  "updatedAt": "2018-07-26T09:18:09.320Z"
}