{
  "contractName": "AppProxyFactory",
  "abi": [
    {
      "anonymous": false,
      "inputs": [
        {
          "indexed": false,
          "name": "proxy",
          "type": "address"
        },
        {
          "indexed": false,
          "name": "isUpgradeable",
          "type": "bool"
        },
        {
          "indexed": false,
          "name": "appId",
          "type": "bytes32"
        }
      ],
      "name": "NewAppProxy",
      "type": "event"
    },
    {
      "constant": false,
      "inputs": [
        {
          "name": "_kernel",
          "type": "address"
        },
        {
          "name": "_appId",
          "type": "bytes32"
        }
      ],
      "name": "newAppProxy",
      "outputs": [
        {
          "name": "",
          "type": "address"
        }
      ],
      "payable": false,
      "stateMutability": "nonpayable",
      "type": "function"
    },
    {
      "constant": false,
      "inputs": [
        {
          "name": "_kernel",
          "type": "address"
        },
        {
          "name": "_appId",
          "type": "bytes32"
        },
        {
          "name": "_initializePayload",
          "type": "bytes"
        }
      ],
      "name": "newAppProxy",
      "outputs": [
        {
          "name": "",
          "type": "address"
        }
      ],
      "payable": false,
      "stateMutability": "nonpayable",
      "type": "function"
    },
    {
      "constant": false,
      "inputs": [
        {
          "name": "_kernel",
          "type": "address"
        },
        {
          "name": "_appId",
          "type": "bytes32"
        },
        {
          "name": "_initializePayload",
          "type": "bytes"
        }
      ],
      "name": "newAppProxyPinned",
      "outputs": [
        {
          "name": "",
          "type": "address"
        }
      ],
      "payable": false,
      "stateMutability": "nonpayable",
      "type": "function"
    },
    {
      "constant": false,
      "inputs": [
        {
          "name": "_kernel",
          "type": "address"
        },
        {
          "name": "_appId",
          "type": "bytes32"
        }
      ],
      "name": "newAppProxyPinned",
      "outputs": [
        {
          "name": "",
          "type": "address"
        }
      ],
      "payable": false,
      "stateMutability": "nonpayable",
      "type": "function"
    }
  ],
  "bytecode": "0x608060405234801561001057600080fd5b50611ed4806100206000396000f300608060405260043610610062576000357c0100000000000000000000000000000000000000000000000000000000900463ffffffff168063d162f8b014610067578063e156a8f31461013e578063ede658b0146101cf578063ff289fc5146102a6575b600080fd5b34801561007357600080fd5b506100fc600480360381019080803573ffffffffffffffffffffffffffffffffffffffff1690602001909291908035600019169060200190929190803590602001908201803590602001908080601f0160208091040260200160405190810160405280939291908181526020018383808284378201915050505050509192919290505050610337565b604051808273ffffffffffffffffffffffffffffffffffffffff1673ffffffffffffffffffffffffffffffffffffffff16815260200191505060405180910390f35b34801561014a57600080fd5b5061018d600480360381019080803573ffffffffffffffffffffffffffffffffffffffff16906020019092919080356000191690602001909291905050506104a0565b604051808273ffffffffffffffffffffffffffffffffffffffff1673ffffffffffffffffffffffffffffffffffffffff16815260200191505060405180910390f35b3480156101db57600080fd5b50610264600480360381019080803573ffffffffffffffffffffffffffffffffffffffff1690602001909291908035600019169060200190929190803590602001908201803590602001908080601f01602080910402602001604051908101604052809392919081815260200183838082843782019150505050505091929192905050506104e9565b604051808273ffffffffffffffffffffffffffffffffffffffff1673ffffffffffffffffffffffffffffffffffffffff16815260200191505060405180910390f35b3480156102b257600080fd5b506102f5600480360381019080803573ffffffffffffffffffffffffffffffffffffffff1690602001909291908035600019169060200190929190505050610652565b604051808273ffffffffffffffffffffffffffffffffffffffff1673ffffffffffffffffffffffffffffffffffffffff16815260200191505060405180910390f35b60008084848461034561069b565b808473ffffffffffffffffffffffffffffffffffffffff1673ffffffffffffffffffffffffffffffffffffffff168152602001836000191660001916815260200180602001828103825283818151815260200191508051906020019080838360005b838110156103c25780820151818401526020810190506103a7565b50505050905090810190601f1680156103ef5780820380516001836020036101000a031916815260200191505b50945050505050604051809103906000f080158015610412573d6000803e3d6000fd5b5090507fd880e726dced8808d727f02dd0e6fdd3a945b24bfee77e13367bcbe61ddbaf4781600086604051808473ffffffffffffffffffffffffffffffffffffffff1673ffffffffffffffffffffffffffffffffffffffff168152602001831515151581526020018260001916600019168152602001935050505060405180910390a1809150509392505050565b60006104e1838360006040519080825280601f01601f1916602001820160405280156104db5781602001602082028038833980820191505090505b506104e9565b905092915050565b6000808484846104f76106ab565b808473ffffffffffffffffffffffffffffffffffffffff1673ffffffffffffffffffffffffffffffffffffffff168152602001836000191660001916815260200180602001828103825283818151815260200191508051906020019080838360005b83811015610574578082015181840152602081019050610559565b50505050905090810190601f1680156105a15780820380516001836020036101000a031916815260200191505b50945050505050604051809103906000f0801580156105c4573d6000803e3d6000fd5b5090507fd880e726dced8808d727f02dd0e6fdd3a945b24bfee77e13367bcbe61ddbaf4781600186604051808473ffffffffffffffffffffffffffffffffffffffff1673ffffffffffffffffffffffffffffffffffffffff168152602001831515151581526020018260001916600019168152602001935050505060405180910390a1809150509392505050565b6000610693838360006040519080825280601f01601f19166020018201604052801561068d5781602001602082028038833980820191505090505b50610337565b905092915050565b604051610c19806106bc83390190565b604051610bd4806112d583390190560060806040523480156200001157600080fd5b5060405162000c1938038062000c1983398101806040528101908080519060200190929190805190602001909291908051820192919050505082828260006200006984620001e3640100000000026401000000009004565b620000838362000230640100000000026401000000009004565b6200009d836200027d640100000000026401000000009004565b90506000825111156200016557620000c48162000386640100000000026401000000009004565b1515620000d057600080fd5b8073ffffffffffffffffffffffffffffffffffffffff168260405180828051906020019080838360005b8381101562000117578082015181840152602081019050620000fa565b50505050905090810190601f168015620001455780820380516001836020036101000a031916815260200191505b50915050600060405180830381855af491505015156200016457600080fd5b5b505050506200019c62000187836200027d640100000000026401000000009004565b620003da640100000000026401000000009004565b620001ce620001b962000427640100000000026401000000009004565b62000386640100000000026401000000009004565b1515620001da57600080fd5b505050620004da565b6200022d817f4172f0f7d2289153072b0a6ca36959e0cbe2efc3afe50fc81636caa96338137b600102600019166200047464010000000002620006f5179091906401000000009004565b50565b6200027a817fd625496217aa6a3453eecb9c3489dc5a53e6c67b444329ea2b2cbc9ff547639b600102600019166200047b64010000000002620006fc179091906401000000009004565b50565b60006200029862000482640100000000026401000000009004565b73ffffffffffffffffffffffffffffffffffffffff1663be00bbd87ff1f3eb40f5bc1ad1344716ced8b8a0431d840b5783aea1fd01786bc26f35ac0f600102846040518363ffffffff167c0100000000000000000000000000000000000000000000000000000000028152600401808360001916600019168152602001826000191660001916815260200192505050602060405180830381600087803b1580156200034257600080fd5b505af115801562000357573d6000803e3d6000fd5b505050506040513d60208110156200036e57600080fd5b81019080805190602001909291905050509050919050565b600080600073ffffffffffffffffffffffffffffffffffffffff168373ffffffffffffffffffffffffffffffffffffffff161415620003c95760009150620003d4565b823b90506000811191505b50919050565b62000424817fdee64df20d65e53d7f51cb6ab6d921a0a6a638a91e942e1d8d02df28e31c038e600102600019166200047464010000000002620006f5179091906401000000009004565b50565b60006200046f7fdee64df20d65e53d7f51cb6ab6d921a0a6a638a91e942e1d8d02df28e31c038e60010260001916620004cf64010000000002620006ea176401000000009004565b905090565b8082555050565b8082555050565b6000620004ca7f4172f0f7d2289153072b0a6ca36959e0cbe2efc3afe50fc81636caa96338137b60010260001916620004cf64010000000002620006ea176401000000009004565b905090565b600081549050919050565b61072f80620004ea6000396000f3006080604052600436106100c5576000357c0100000000000000000000000000000000000000000000000000000000900463ffffffff1680630ceafa2a146101bd5780631113ed0d146101e8578063178e60791461021b5780632b2584f61461024e5780634555d5c91461027957806348a0c8dd146102a45780635c60da1b146102d3578063756f60491461032a5780637e84a4ff1461035d57806380afdea814610388578063cbcc65eb146103bb578063d4aae0c4146103ee578063db8a61d414610445575b60006127105a1015610172576000341180156100e45750600080369050145b15156100ef57600080fd5b6100f7610478565b151561010257600080fd5b7f15eeaa57c7bd188c1388020bcadc2c436ec60d647d36ef5b9eb3c742217ddee13334604051808373ffffffffffffffffffffffffffffffffffffffff1673ffffffffffffffffffffffffffffffffffffffff1681526020018281526020019250505060405180910390a16101ba565b61017a6104af565b90506101b9816000368080601f0160208091040260200160405190810160405280939291908181526020018383808284378201915050505050506104be565b5b50005b3480156101c957600080fd5b506101d2610501565b6040518082815260200191505060405180910390f35b3480156101f457600080fd5b506101fd610507565b60405180826000191660001916815260200191505060405180910390f35b34801561022757600080fd5b5061023061052e565b60405180826000191660001916815260200191505060405180910390f35b34801561025a57600080fd5b50610263610555565b6040518082815260200191505060405180910390f35b34801561028557600080fd5b5061028e61055a565b6040518082815260200191505060405180910390f35b3480156102b057600080fd5b506102b9610478565b604051808215151515815260200191505060405180910390f35b3480156102df57600080fd5b506102e86104af565b604051808273ffffffffffffffffffffffffffffffffffffffff1673ffffffffffffffffffffffffffffffffffffffff16815260200191505060405180910390f35b34801561033657600080fd5b5061033f610563565b60405180826000191660001916815260200191505060405180910390f35b34801561036957600080fd5b5061037261058a565b6040518082815260200191505060405180910390f35b34801561039457600080fd5b5061039d61058f565b60405180826000191660001916815260200191505060405180910390f35b3480156103c757600080fd5b506103d06105c6565b60405180826000191660001916815260200191505060405180910390f35b3480156103fa57600080fd5b506104036105ed565b604051808273ffffffffffffffffffffffffffffffffffffffff1673ffffffffffffffffffffffffffffffffffffffff16815260200191505060405180910390f35b34801561045157600080fd5b5061045a610624565b60405180826000191660001916815260200191505060405180910390f35b60006104aa7f665fd576fbbe6f247aff98f5c94a561e3f71ec2d3c988d56f12d342396c50cea6001026000191661064b565b905090565b60006104b9610656565b905090565b60006104c98361068d565b15156104d457600080fd5b612710905060008083516020850186855a03f43d604051816000823e82600081146104fd578282f35b8282fd5b61271081565b7f3b4bf6bf3ad5000ecf0f989d5befde585c6860fea3e574a4fab4c49d1c177d9c60010281565b7fd6f028ca0e8edb4a8c9757ca4fdccab25fa1e0317da1188108f7d2dee14902fb60010281565b600181565b60006001905090565b7fc681a85306374a5ab27f0bbc385296a54bcd314a1948b6cf61c4ea1bc44bb9f860010281565b600281565b60006105c17fd625496217aa6a3453eecb9c3489dc5a53e6c67b444329ea2b2cbc9ff547639b600102600019166106df565b905090565b7fe3262375f45a6e2026b7e7b18c2b807434f2508fe1a2a3dfb493c7df8f4aad6a60010281565b600061061f7f4172f0f7d2289153072b0a6ca36959e0cbe2efc3afe50fc81636caa96338137b600102600019166106ea565b905090565b7ff1f3eb40f5bc1ad1344716ced8b8a0431d840b5783aea1fd01786bc26f35ac0f60010281565b600081549050919050565b60006106887fdee64df20d65e53d7f51cb6ab6d921a0a6a638a91e942e1d8d02df28e31c038e600102600019166106ea565b905090565b600080600073ffffffffffffffffffffffffffffffffffffffff168373ffffffffffffffffffffffffffffffffffffffff1614156106ce57600091506106d9565b823b90506000811191505b50919050565b600081549050919050565b600081549050919050565b8082555050565b80825550505600a165627a7a723058208b29ff4db5c1b98e06bf17ff9b677ba6b41d71eeb4ccb1a48ec89ded69c744d5002960806040523480156200001157600080fd5b5060405162000bd438038062000bd48339810180604052810190808051906020019092919080519060200190929190805182019291905050508282826000620000698462000172640100000000026401000000009004565b6200008383620001bf640100000000026401000000009004565b6200009d836200020c640100000000026401000000009004565b90506000825111156200016557620000c48162000315640100000000026401000000009004565b1515620000d057600080fd5b8073ffffffffffffffffffffffffffffffffffffffff168260405180828051906020019080838360005b8381101562000117578082015181840152602081019050620000fa565b50505050905090810190601f168015620001455780820380516001836020036101000a031916815260200191505b50915050600060405180830381855af491505015156200016457600080fd5b5b50505050505050620003cf565b620001bc817f4172f0f7d2289153072b0a6ca36959e0cbe2efc3afe50fc81636caa96338137b600102600019166200036964010000000002620007bb179091906401000000009004565b50565b62000209817fd625496217aa6a3453eecb9c3489dc5a53e6c67b444329ea2b2cbc9ff547639b600102600019166200037064010000000002620007c2179091906401000000009004565b50565b60006200022762000377640100000000026401000000009004565b73ffffffffffffffffffffffffffffffffffffffff1663be00bbd87ff1f3eb40f5bc1ad1344716ced8b8a0431d840b5783aea1fd01786bc26f35ac0f600102846040518363ffffffff167c0100000000000000000000000000000000000000000000000000000000028152600401808360001916600019168152602001826000191660001916815260200192505050602060405180830381600087803b158015620002d157600080fd5b505af1158015620002e6573d6000803e3d6000fd5b505050506040513d6020811015620002fd57600080fd5b81019080805190602001909291905050509050919050565b600080600073ffffffffffffffffffffffffffffffffffffffff168373ffffffffffffffffffffffffffffffffffffffff16141562000358576000915062000363565b823b90506000811191505b50919050565b8082555050565b8082555050565b6000620003bf7f4172f0f7d2289153072b0a6ca36959e0cbe2efc3afe50fc81636caa96338137b60010260001916620003c464010000000002620007b0176401000000009004565b905090565b600081549050919050565b6107f580620003df6000396000f3006080604052600436106100c5576000357c0100000000000000000000000000000000000000000000000000000000900463ffffffff1680630ceafa2a146101bd5780631113ed0d146101e8578063178e60791461021b5780632b2584f61461024e5780634555d5c91461027957806348a0c8dd146102a45780635c60da1b146102d3578063756f60491461032a5780637e84a4ff1461035d57806380afdea814610388578063cbcc65eb146103bb578063d4aae0c4146103ee578063db8a61d414610445575b60006127105a1015610172576000341180156100e45750600080369050145b15156100ef57600080fd5b6100f7610478565b151561010257600080fd5b7f15eeaa57c7bd188c1388020bcadc2c436ec60d647d36ef5b9eb3c742217ddee13334604051808373ffffffffffffffffffffffffffffffffffffffff1673ffffffffffffffffffffffffffffffffffffffff1681526020018281526020019250505060405180910390a16101ba565b61017a6104af565b90506101b9816000368080601f0160208091040260200160405190810160405280939291908181526020018383808284378201915050505050506104c6565b5b50005b3480156101c957600080fd5b506101d2610509565b6040518082815260200191505060405180910390f35b3480156101f457600080fd5b506101fd61050f565b60405180826000191660001916815260200191505060405180910390f35b34801561022757600080fd5b50610230610536565b60405180826000191660001916815260200191505060405180910390f35b34801561025a57600080fd5b5061026361055d565b6040518082815260200191505060405180910390f35b34801561028557600080fd5b5061028e610562565b6040518082815260200191505060405180910390f35b3480156102b057600080fd5b506102b9610478565b604051808215151515815260200191505060405180910390f35b3480156102df57600080fd5b506102e86104af565b604051808273ffffffffffffffffffffffffffffffffffffffff1673ffffffffffffffffffffffffffffffffffffffff16815260200191505060405180910390f35b34801561033657600080fd5b5061033f61056b565b60405180826000191660001916815260200191505060405180910390f35b34801561036957600080fd5b50610372610592565b6040518082815260200191505060405180910390f35b34801561039457600080fd5b5061039d610597565b60405180826000191660001916815260200191505060405180910390f35b3480156103c757600080fd5b506103d06105ce565b60405180826000191660001916815260200191505060405180910390f35b3480156103fa57600080fd5b506104036105f5565b604051808273ffffffffffffffffffffffffffffffffffffffff1673ffffffffffffffffffffffffffffffffffffffff16815260200191505060405180910390f35b34801561045157600080fd5b5061045a61062c565b60405180826000191660001916815260200191505060405180910390f35b60006104aa7f665fd576fbbe6f247aff98f5c94a561e3f71ec2d3c988d56f12d342396c50cea60010260001916610653565b905090565b60006104c16104bc610597565b61065e565b905090565b60006104d183610753565b15156104dc57600080fd5b612710905060008083516020850186855a03f43d604051816000823e8260008114610505578282f35b8282fd5b61271081565b7f3b4bf6bf3ad5000ecf0f989d5befde585c6860fea3e574a4fab4c49d1c177d9c60010281565b7fd6f028ca0e8edb4a8c9757ca4fdccab25fa1e0317da1188108f7d2dee14902fb60010281565b600181565b60006002905090565b7fc681a85306374a5ab27f0bbc385296a54bcd314a1948b6cf61c4ea1bc44bb9f860010281565b600281565b60006105c97fd625496217aa6a3453eecb9c3489dc5a53e6c67b444329ea2b2cbc9ff547639b600102600019166107a5565b905090565b7fe3262375f45a6e2026b7e7b18c2b807434f2508fe1a2a3dfb493c7df8f4aad6a60010281565b60006106277f4172f0f7d2289153072b0a6ca36959e0cbe2efc3afe50fc81636caa96338137b600102600019166107b0565b905090565b7ff1f3eb40f5bc1ad1344716ced8b8a0431d840b5783aea1fd01786bc26f35ac0f60010281565b600081549050919050565b60006106686105f5565b73ffffffffffffffffffffffffffffffffffffffff1663be00bbd87ff1f3eb40f5bc1ad1344716ced8b8a0431d840b5783aea1fd01786bc26f35ac0f600102846040518363ffffffff167c0100000000000000000000000000000000000000000000000000000000028152600401808360001916600019168152602001826000191660001916815260200192505050602060405180830381600087803b15801561071157600080fd5b505af1158015610725573d6000803e3d6000fd5b505050506040513d602081101561073b57600080fd5b81019080805190602001909291905050509050919050565b600080600073ffffffffffffffffffffffffffffffffffffffff168373ffffffffffffffffffffffffffffffffffffffff161415610794576000915061079f565b823b90506000811191505b50919050565b600081549050919050565b600081549050919050565b8082555050565b80825550505600a165627a7a72305820662579599c58e2bed8fb01cbce199abab3014d681d4de04a7c6b1de390b96ae60029a165627a7a723058203104a5c7feb8d153477e871274c1099125edac3b5bcd9faf01abc5592c55ac0a0029",
  "source": "pragma solidity 0.4.24;\n\nimport \"../apps/AppProxyUpgradeable.sol\";\nimport \"../apps/AppProxyPinned.sol\";\n\n\ncontract AppProxyFactory {\n    event NewAppProxy(address proxy, bool isUpgradeable, bytes32 appId);\n\n    function newAppProxy(IKernel _kernel, bytes32 _appId) public returns (AppProxyUpgradeable) {\n        return newAppProxy(_kernel, _appId, new bytes(0));\n    }\n\n    function newAppProxy(IKernel _kernel, bytes32 _appId, bytes _initializePayload) public returns (AppProxyUpgradeable) {\n        AppProxyUpgradeable proxy = new AppProxyUpgradeable(_kernel, _appId, _initializePayload);\n        emit NewAppProxy(address(proxy), true, _appId);\n        return proxy;\n    }\n\n    function newAppProxyPinned(IKernel _kernel, bytes32 _appId) public returns (AppProxyPinned) {\n        return newAppProxyPinned(_kernel, _appId, new bytes(0));\n    }\n\n    function newAppProxyPinned(IKernel _kernel, bytes32 _appId, bytes _initializePayload) public returns (AppProxyPinned) {\n        AppProxyPinned proxy = new AppProxyPinned(_kernel, _appId, _initializePayload);\n        emit NewAppProxy(address(proxy), false, _appId);\n        return proxy;\n    }\n}\n",
  "sourcePath": "@aragon/os/contracts/factory/AppProxyFactory.sol",
  "compiler": {
    "name": "solc",
    "version": "0.4.24+commit.e67f0147.Emscripten.clang"
  },
  "schemaVersion": "3.0.0-beta.1",
  "updatedAt": "2018-11-23T10:39:45.682Z"
}