{
  "contractName": "AppProxyFactory",
  "abi": [
    {
      "anonymous": false,
      "inputs": [
        {
          "indexed": false,
          "name": "proxy",
          "type": "address"
        },
        {
          "indexed": false,
          "name": "isUpgradeable",
          "type": "bool"
        },
        {
          "indexed": false,
          "name": "appId",
          "type": "bytes32"
        }
      ],
      "name": "NewAppProxy",
      "type": "event"
    },
    {
      "constant": false,
      "inputs": [
        {
          "name": "_kernel",
          "type": "address"
        },
        {
          "name": "_appId",
          "type": "bytes32"
        }
      ],
      "name": "newAppProxy",
      "outputs": [
        {
          "name": "",
          "type": "address"
        }
      ],
      "payable": false,
      "stateMutability": "nonpayable",
      "type": "function"
    },
    {
      "constant": false,
      "inputs": [
        {
          "name": "_kernel",
          "type": "address"
        },
        {
          "name": "_appId",
          "type": "bytes32"
        },
        {
          "name": "_initializePayload",
          "type": "bytes"
        }
      ],
      "name": "newAppProxy",
      "outputs": [
        {
          "name": "",
          "type": "address"
        }
      ],
      "payable": false,
      "stateMutability": "nonpayable",
      "type": "function"
    },
    {
      "constant": false,
      "inputs": [
        {
          "name": "_kernel",
          "type": "address"
        },
        {
          "name": "_appId",
          "type": "bytes32"
        },
        {
          "name": "_initializePayload",
          "type": "bytes"
        }
      ],
      "name": "newAppProxyPinned",
      "outputs": [
        {
          "name": "",
          "type": "address"
        }
      ],
      "payable": false,
      "stateMutability": "nonpayable",
      "type": "function"
    },
    {
      "constant": false,
      "inputs": [
        {
          "name": "_kernel",
          "type": "address"
        },
        {
          "name": "_appId",
          "type": "bytes32"
        }
      ],
      "name": "newAppProxyPinned",
      "outputs": [
        {
          "name": "",
          "type": "address"
        }
      ],
      "payable": false,
      "stateMutability": "nonpayable",
      "type": "function"
    }
  ],
  "bytecode": "0x608060405234801561001057600080fd5b50611c95806100206000396000f300608060405260043610610062576000357c0100000000000000000000000000000000000000000000000000000000900463ffffffff168063d162f8b014610067578063e156a8f31461013e578063ede658b0146101cf578063ff289fc5146102a6575b600080fd5b34801561007357600080fd5b506100fc600480360381019080803573ffffffffffffffffffffffffffffffffffffffff1690602001909291908035600019169060200190929190803590602001908201803590602001908080601f0160208091040260200160405190810160405280939291908181526020018383808284378201915050505050509192919290505050610337565b604051808273ffffffffffffffffffffffffffffffffffffffff1673ffffffffffffffffffffffffffffffffffffffff16815260200191505060405180910390f35b34801561014a57600080fd5b5061018d600480360381019080803573ffffffffffffffffffffffffffffffffffffffff16906020019092919080356000191690602001909291905050506104a0565b604051808273ffffffffffffffffffffffffffffffffffffffff1673ffffffffffffffffffffffffffffffffffffffff16815260200191505060405180910390f35b3480156101db57600080fd5b50610264600480360381019080803573ffffffffffffffffffffffffffffffffffffffff1690602001909291908035600019169060200190929190803590602001908201803590602001908080601f01602080910402602001604051908101604052809392919081815260200183838082843782019150505050505091929192905050506104e9565b604051808273ffffffffffffffffffffffffffffffffffffffff1673ffffffffffffffffffffffffffffffffffffffff16815260200191505060405180910390f35b3480156102b257600080fd5b506102f5600480360381019080803573ffffffffffffffffffffffffffffffffffffffff1690602001909291908035600019169060200190929190505050610652565b604051808273ffffffffffffffffffffffffffffffffffffffff1673ffffffffffffffffffffffffffffffffffffffff16815260200191505060405180910390f35b60008084848461034561069b565b808473ffffffffffffffffffffffffffffffffffffffff1673ffffffffffffffffffffffffffffffffffffffff168152602001836000191660001916815260200180602001828103825283818151815260200191508051906020019080838360005b838110156103c25780820151818401526020810190506103a7565b50505050905090810190601f1680156103ef5780820380516001836020036101000a031916815260200191505b50945050505050604051809103906000f080158015610412573d6000803e3d6000fd5b5090507fd880e726dced8808d727f02dd0e6fdd3a945b24bfee77e13367bcbe61ddbaf4781600086604051808473ffffffffffffffffffffffffffffffffffffffff1673ffffffffffffffffffffffffffffffffffffffff168152602001831515151581526020018260001916600019168152602001935050505060405180910390a1809150509392505050565b60006104e1838360006040519080825280601f01601f1916602001820160405280156104db5781602001602082028038833980820191505090505b506104e9565b905092915050565b6000808484846104f76106ab565b808473ffffffffffffffffffffffffffffffffffffffff1673ffffffffffffffffffffffffffffffffffffffff168152602001836000191660001916815260200180602001828103825283818151815260200191508051906020019080838360005b83811015610574578082015181840152602081019050610559565b50505050905090810190601f1680156105a15780820380516001836020036101000a031916815260200191505b50945050505050604051809103906000f0801580156105c4573d6000803e3d6000fd5b5090507fd880e726dced8808d727f02dd0e6fdd3a945b24bfee77e13367bcbe61ddbaf4781600186604051808473ffffffffffffffffffffffffffffffffffffffff1673ffffffffffffffffffffffffffffffffffffffff168152602001831515151581526020018260001916600019168152602001935050505060405180910390a1809150509392505050565b6000610693838360006040519080825280601f01601f19166020018201604052801561068d5781602001602082028038833980820191505090505b50610337565b905092915050565b604051610aa9806106bc83390190565b604051610b0580611165833901905600608060405234801561001057600080fd5b50604051610aa9380380610aa98339810180604052810190808051906020019092919080519060200190929190805182019291905050508282826000836000806101000a81548173ffffffffffffffffffffffffffffffffffffffff021916908373ffffffffffffffffffffffffffffffffffffffff16021790555082600181600019169055506100b1600154610235640100000000026401000000009004565b9050600082511115610171576100d581610361640100000000026401000000009004565b15156100e057600080fd5b8073ffffffffffffffffffffffffffffffffffffffff168260405180828051906020019080838360005b8381101561012557808201518184015260208101905061010a565b50505050905090810190601f1680156101525780820380516001836020036101000a031916815260200191505b50915050600060405180830381855af4915050151561017057600080fd5b5b5050505061018f600154610235640100000000026401000000009004565b600260006101000a81548173ffffffffffffffffffffffffffffffffffffffff021916908373ffffffffffffffffffffffffffffffffffffffff160217905550600073ffffffffffffffffffffffffffffffffffffffff16600260009054906101000a900473ffffffffffffffffffffffffffffffffffffffff1673ffffffffffffffffffffffffffffffffffffffff161415151561022d57600080fd5b5050506103b3565b60008060009054906101000a900473ffffffffffffffffffffffffffffffffffffffff1673ffffffffffffffffffffffffffffffffffffffff166342c71f1d7ff1f3eb40f5bc1ad1344716ced8b8a0431d840b5783aea1fd01786bc26f35ac0f6001028460405180836000191660001916815260200182600019166000191681526020019250505060405180910390206040518263ffffffff167c0100000000000000000000000000000000000000000000000000000000028152600401808260001916600019168152602001915050602060405180830381600087803b15801561031f57600080fd5b505af1158015610333573d6000803e3d6000fd5b505050506040513d602081101561034957600080fd5b81019080805190602001909291905050509050919050565b600080600073ffffffffffffffffffffffffffffffffffffffff168373ffffffffffffffffffffffffffffffffffffffff1614156103a257600091506103ad565b823b90506000811191505b50919050565b6106e7806103c26000396000f3006080604052600436106100d0576000357c0100000000000000000000000000000000000000000000000000000000900463ffffffff1680630ceafa2a146101b55780631113ed0d146101e0578063178e60791461021357806325012699146102465780632b2584f6146102795780634555d5c9146102a45780635c60da1b146102cf578063756f6049146103265780637e84a4ff1461035957806380afdea814610384578063a3b4b07f146103b7578063cbcc65eb146103ea578063d4aae0c41461041d578063db8a61d414610474575b60006127105a101561016a576000341180156100ef5750600080369050145b15156100fa57600080fd5b7f15eeaa57c7bd188c1388020bcadc2c436ec60d647d36ef5b9eb3c742217ddee13334604051808373ffffffffffffffffffffffffffffffffffffffff1673ffffffffffffffffffffffffffffffffffffffff1681526020018281526020019250505060405180910390a16101b2565b6101726104a7565b90506101b1816000368080601f0160208091040260200160405190810160405280939291908181526020018383808284378201915050505050506104d1565b5b50005b3480156101c157600080fd5b506101ca610514565b6040518082815260200191505060405180910390f35b3480156101ec57600080fd5b506101f561051a565b60405180826000191660001916815260200191505060405180910390f35b34801561021f57600080fd5b50610228610541565b60405180826000191660001916815260200191505060405180910390f35b34801561025257600080fd5b5061025b610568565b60405180826000191660001916815260200191505060405180910390f35b34801561028557600080fd5b5061028e61058f565b6040518082815260200191505060405180910390f35b3480156102b057600080fd5b506102b9610594565b6040518082815260200191505060405180910390f35b3480156102db57600080fd5b506102e46104a7565b604051808273ffffffffffffffffffffffffffffffffffffffff1673ffffffffffffffffffffffffffffffffffffffff16815260200191505060405180910390f35b34801561033257600080fd5b5061033b61059d565b60405180826000191660001916815260200191505060405180910390f35b34801561036557600080fd5b5061036e6105c4565b6040518082815260200191505060405180910390f35b34801561039057600080fd5b506103996105c9565b60405180826000191660001916815260200191505060405180910390f35b3480156103c357600080fd5b506103cc6105cf565b60405180826000191660001916815260200191505060405180910390f35b3480156103f657600080fd5b506103ff6105f6565b60405180826000191660001916815260200191505060405180910390f35b34801561042957600080fd5b5061043261061d565b604051808273ffffffffffffffffffffffffffffffffffffffff1673ffffffffffffffffffffffffffffffffffffffff16815260200191505060405180910390f35b34801561048057600080fd5b50610489610642565b60405180826000191660001916815260200191505060405180910390f35b6000600260009054906101000a900473ffffffffffffffffffffffffffffffffffffffff16905090565b60006104dc83610669565b15156104e757600080fd5b612710905060008083516020850186855a03f43d604051816000823e8260008114610510578282f35b8282fd5b61271081565b7f3b4bf6bf3ad5000ecf0f989d5befde585c6860fea3e574a4fab4c49d1c177d9c60010281565b7fd6f028ca0e8edb4a8c9757ca4fdccab25fa1e0317da1188108f7d2dee14902fb60010281565b7f2b7d19d0575c228f8d9326801e14149d284dc5bb7b1541c5ad712ae4b2fcaadb60010281565b600181565b60006001905090565b7fc681a85306374a5ab27f0bbc385296a54bcd314a1948b6cf61c4ea1bc44bb9f860010281565b600281565b60015481565b7f4b8e03a458a6ccec5d9077c2490964c1333dd3c72e2db408d7d9a7a36ef5c41a60010281565b7fe3262375f45a6e2026b7e7b18c2b807434f2508fe1a2a3dfb493c7df8f4aad6a60010281565b6000809054906101000a900473ffffffffffffffffffffffffffffffffffffffff1681565b7ff1f3eb40f5bc1ad1344716ced8b8a0431d840b5783aea1fd01786bc26f35ac0f60010281565b600080600073ffffffffffffffffffffffffffffffffffffffff168373ffffffffffffffffffffffffffffffffffffffff1614156106aa57600091506106b5565b823b90506000811191505b509190505600a165627a7a72305820e5c3169407cf8b3d34de052349fc02a9eb9fe9ca37ab4e7c78d43bd6d1a84e3e0029608060405234801561001057600080fd5b50604051610b05380380610b058339810180604052810190808051906020019092919080519060200190929190805182019291905050508282826000836000806101000a81548173ffffffffffffffffffffffffffffffffffffffff021916908373ffffffffffffffffffffffffffffffffffffffff16021790555082600181600019169055506100b160015461017d640100000000026401000000009004565b9050600082511115610171576100d5816102a9640100000000026401000000009004565b15156100e057600080fd5b8073ffffffffffffffffffffffffffffffffffffffff168260405180828051906020019080838360005b8381101561012557808201518184015260208101905061010a565b50505050905090810190601f1680156101525780820380516001836020036101000a031916815260200191505b50915050600060405180830381855af4915050151561017057600080fd5b5b505050505050506102fb565b60008060009054906101000a900473ffffffffffffffffffffffffffffffffffffffff1673ffffffffffffffffffffffffffffffffffffffff166342c71f1d7ff1f3eb40f5bc1ad1344716ced8b8a0431d840b5783aea1fd01786bc26f35ac0f6001028460405180836000191660001916815260200182600019166000191681526020019250505060405180910390206040518263ffffffff167c0100000000000000000000000000000000000000000000000000000000028152600401808260001916600019168152602001915050602060405180830381600087803b15801561026757600080fd5b505af115801561027b573d6000803e3d6000fd5b505050506040513d602081101561029157600080fd5b81019080805190602001909291905050509050919050565b600080600073ffffffffffffffffffffffffffffffffffffffff168373ffffffffffffffffffffffffffffffffffffffff1614156102ea57600091506102f5565b823b90506000811191505b50919050565b6107fb8061030a6000396000f3006080604052600436106100d0576000357c0100000000000000000000000000000000000000000000000000000000900463ffffffff1680630ceafa2a146101b55780631113ed0d146101e0578063178e60791461021357806325012699146102465780632b2584f6146102795780634555d5c9146102a45780635c60da1b146102cf578063756f6049146103265780637e84a4ff1461035957806380afdea814610384578063a3b4b07f146103b7578063cbcc65eb146103ea578063d4aae0c41461041d578063db8a61d414610474575b60006127105a101561016a576000341180156100ef5750600080369050145b15156100fa57600080fd5b7f15eeaa57c7bd188c1388020bcadc2c436ec60d647d36ef5b9eb3c742217ddee13334604051808373ffffffffffffffffffffffffffffffffffffffff1673ffffffffffffffffffffffffffffffffffffffff1681526020018281526020019250505060405180910390a16101b2565b6101726104a7565b90506101b1816000368080601f0160208091040260200160405190810160405280939291908181526020018383808284378201915050505050506104b9565b5b50005b3480156101c157600080fd5b506101ca6104fc565b6040518082815260200191505060405180910390f35b3480156101ec57600080fd5b506101f5610502565b60405180826000191660001916815260200191505060405180910390f35b34801561021f57600080fd5b50610228610529565b60405180826000191660001916815260200191505060405180910390f35b34801561025257600080fd5b5061025b610550565b60405180826000191660001916815260200191505060405180910390f35b34801561028557600080fd5b5061028e610577565b6040518082815260200191505060405180910390f35b3480156102b057600080fd5b506102b961057c565b6040518082815260200191505060405180910390f35b3480156102db57600080fd5b506102e46104a7565b604051808273ffffffffffffffffffffffffffffffffffffffff1673ffffffffffffffffffffffffffffffffffffffff16815260200191505060405180910390f35b34801561033257600080fd5b5061033b610585565b60405180826000191660001916815260200191505060405180910390f35b34801561036557600080fd5b5061036e6105ac565b6040518082815260200191505060405180910390f35b34801561039057600080fd5b506103996105b1565b60405180826000191660001916815260200191505060405180910390f35b3480156103c357600080fd5b506103cc6105b7565b60405180826000191660001916815260200191505060405180910390f35b3480156103f657600080fd5b506103ff6105de565b60405180826000191660001916815260200191505060405180910390f35b34801561042957600080fd5b50610432610605565b604051808273ffffffffffffffffffffffffffffffffffffffff1673ffffffffffffffffffffffffffffffffffffffff16815260200191505060405180910390f35b34801561048057600080fd5b5061048961062a565b60405180826000191660001916815260200191505060405180910390f35b60006104b4600154610651565b905090565b60006104c48361077d565b15156104cf57600080fd5b612710905060008083516020850186855a03f43d604051816000823e82600081146104f8578282f35b8282fd5b61271081565b7f3b4bf6bf3ad5000ecf0f989d5befde585c6860fea3e574a4fab4c49d1c177d9c60010281565b7fd6f028ca0e8edb4a8c9757ca4fdccab25fa1e0317da1188108f7d2dee14902fb60010281565b7f2b7d19d0575c228f8d9326801e14149d284dc5bb7b1541c5ad712ae4b2fcaadb60010281565b600181565b60006002905090565b7fc681a85306374a5ab27f0bbc385296a54bcd314a1948b6cf61c4ea1bc44bb9f860010281565b600281565b60015481565b7f4b8e03a458a6ccec5d9077c2490964c1333dd3c72e2db408d7d9a7a36ef5c41a60010281565b7fe3262375f45a6e2026b7e7b18c2b807434f2508fe1a2a3dfb493c7df8f4aad6a60010281565b6000809054906101000a900473ffffffffffffffffffffffffffffffffffffffff1681565b7ff1f3eb40f5bc1ad1344716ced8b8a0431d840b5783aea1fd01786bc26f35ac0f60010281565b60008060009054906101000a900473ffffffffffffffffffffffffffffffffffffffff1673ffffffffffffffffffffffffffffffffffffffff166342c71f1d7ff1f3eb40f5bc1ad1344716ced8b8a0431d840b5783aea1fd01786bc26f35ac0f6001028460405180836000191660001916815260200182600019166000191681526020019250505060405180910390206040518263ffffffff167c0100000000000000000000000000000000000000000000000000000000028152600401808260001916600019168152602001915050602060405180830381600087803b15801561073b57600080fd5b505af115801561074f573d6000803e3d6000fd5b505050506040513d602081101561076557600080fd5b81019080805190602001909291905050509050919050565b600080600073ffffffffffffffffffffffffffffffffffffffff168373ffffffffffffffffffffffffffffffffffffffff1614156107be57600091506107c9565b823b90506000811191505b509190505600a165627a7a72305820fde32a6b44c483826cae412c80edc0e8b2ecd4ce6596ffcbf6325a25b00064680029a165627a7a7230582080f9a754caa31600df3d13fe79864b8f480c0ad89fcaa19d30b9363085539ddd0029",
  "source": "pragma solidity ^0.4.18;\n\nimport \"../apps/AppProxyUpgradeable.sol\";\nimport \"../apps/AppProxyPinned.sol\";\n\n\ncontract AppProxyFactory {\n    event NewAppProxy(address proxy, bool isUpgradeable, bytes32 appId);\n\n    function newAppProxy(IKernel _kernel, bytes32 _appId) public returns (AppProxyUpgradeable) {\n        return newAppProxy(_kernel, _appId, new bytes(0));\n    }\n\n    function newAppProxy(IKernel _kernel, bytes32 _appId, bytes _initializePayload) public returns (AppProxyUpgradeable) {\n        AppProxyUpgradeable proxy = new AppProxyUpgradeable(_kernel, _appId, _initializePayload);\n        NewAppProxy(address(proxy), true, _appId);\n        return proxy;\n    }\n\n    function newAppProxyPinned(IKernel _kernel, bytes32 _appId) public returns (AppProxyPinned) {\n        return newAppProxyPinned(_kernel, _appId, new bytes(0));\n    }\n\n    function newAppProxyPinned(IKernel _kernel, bytes32 _appId, bytes _initializePayload) public returns (AppProxyPinned) {\n        AppProxyPinned proxy = new AppProxyPinned(_kernel, _appId, _initializePayload);\n        NewAppProxy(address(proxy), false, _appId);\n        return proxy;\n    }\n}\n",
  "sourcePath": "@aragon/os/contracts/factory/AppProxyFactory.sol",
  "compiler": {
    "name": "solc",
    "version": "0.4.24+commit.e67f0147.Emscripten.clang"
  },
  "schemaVersion": "2.0.1",
  "updatedAt": "2018-10-05T12:39:51.663Z"
}