{
  "contractName": "AppStorage",
  "abi": [
    {
      "constant": true,
      "inputs": [],
      "name": "appId",
      "outputs": [
        {
          "name": "",
          "type": "bytes32"
        }
      ],
      "payable": false,
      "stateMutability": "view",
      "type": "function"
    },
    {
      "constant": true,
      "inputs": [],
      "name": "kernel",
      "outputs": [
        {
          "name": "",
          "type": "address"
        }
      ],
      "payable": false,
      "stateMutability": "view",
      "type": "function"
    }
  ],
  "bytecode": "0x608060405234801561001057600080fd5b50610129806100206000396000f3006080604052600436106049576000357c0100000000000000000000000000000000000000000000000000000000900463ffffffff16806380afdea814604e578063d4aae0c414607e575b600080fd5b348015605957600080fd5b50606060d2565b60405180826000191660001916815260200191505060405180910390f35b348015608957600080fd5b50609060d8565b604051808273ffffffffffffffffffffffffffffffffffffffff1673ffffffffffffffffffffffffffffffffffffffff16815260200191505060405180910390f35b60015481565b6000809054906101000a900473ffffffffffffffffffffffffffffffffffffffff16815600a165627a7a72305820c487cff6e42ede5cae15471eff86cef954a3afef608518b1c67a692f266f8ca20029",
  "source": "/*\n * SPDX-License-Identitifer:    MIT\n */\n\npragma solidity ^0.4.18;\n\nimport \"../kernel/IKernel.sol\";\n\n\ncontract AppStorage {\n    IKernel public kernel;\n    bytes32 public appId;\n    address internal pinnedCode; // used by Proxy Pinned\n    uint256 internal initializationBlock; // used by Initializable\n    uint256[95] private storageOffset; // forces App storage to start at after 100 slots\n    uint256 private offset;\n}\n",
  "sourcePath": "@aragon/os/contracts/apps/AppStorage.sol",
  "compiler": {
    "name": "solc",
    "version": "0.4.24+commit.e67f0147.Emscripten.clang"
  },
  "schemaVersion": "2.0.1",
  "updatedAt": "2018-10-06T16:57:44.240Z"
}