{
  "contractName": "AppStorage",
  "abi": [
    {
      "constant": true,
      "inputs": [],
      "name": "kernel",
      "outputs": [
        {
          "name": "",
          "type": "address"
        }
      ],
      "payable": false,
      "stateMutability": "view",
      "type": "function"
    },
    {
      "constant": true,
      "inputs": [],
      "name": "appId",
      "outputs": [
        {
          "name": "",
          "type": "bytes32"
        }
      ],
      "payable": false,
      "stateMutability": "view",
      "type": "function"
    }
  ],
  "bytecode": "0x608060405234801561001057600080fd5b5061018b806100206000396000f30060806040526004361061004c576000357c0100000000000000000000000000000000000000000000000000000000900463ffffffff16806380afdea814610051578063d4aae0c414610084575b600080fd5b34801561005d57600080fd5b506100666100db565b60405180826000191660001916815260200191505060405180910390f35b34801561009057600080fd5b50610099610112565b604051808273ffffffffffffffffffffffffffffffffffffffff1673ffffffffffffffffffffffffffffffffffffffff16815260200191505060405180910390f35b600061010d7fd625496217aa6a3453eecb9c3489dc5a53e6c67b444329ea2b2cbc9ff547639b60010260001916610149565b905090565b60006101447f4172f0f7d2289153072b0a6ca36959e0cbe2efc3afe50fc81636caa96338137b60010260001916610154565b905090565b600081549050919050565b6000815490509190505600a165627a7a72305820bc68ddd6edb9be22f005e5b5b02336385891c953a4bd4125d4cdf4ace9cdc2b20029",
  "source": "/*\n * SPDX-License-Identitifer:    MIT\n */\n\npragma solidity ^0.4.24;\n\nimport \"../common/UnstructuredStorage.sol\";\nimport \"../kernel/IKernel.sol\";\n\n\ncontract AppStorage {\n    using UnstructuredStorage for bytes32;\n\n    // keccak256(\"aragonOS.appStorage.kernel\")\n    bytes32 internal constant KERNEL_POSITION = 0x4172f0f7d2289153072b0a6ca36959e0cbe2efc3afe50fc81636caa96338137b;\n    // keccak256(\"aragonOS.appStorage.appId\")\n    bytes32 internal constant APP_ID_POSITION = 0xd625496217aa6a3453eecb9c3489dc5a53e6c67b444329ea2b2cbc9ff547639b;\n    // keccak256(\"aragonOS.appStorage.pinnedCode\"), used by Proxy Pinned\n    bytes32 internal constant PINNED_CODE_POSITION = 0xdee64df20d65e53d7f51cb6ab6d921a0a6a638a91e942e1d8d02df28e31c038e;\n\n    function kernel() public view returns (IKernel) {\n        return IKernel(KERNEL_POSITION.getStorageAddress());\n    }\n\n    function appId() public view returns (bytes32) {\n        return APP_ID_POSITION.getStorageBytes32();\n    }\n\n    function setKernel(IKernel _kernel) internal {\n        KERNEL_POSITION.setStorageAddress(address(_kernel));\n    }\n\n    function setAppId(bytes32 _appId) internal {\n        APP_ID_POSITION.setStorageBytes32(_appId);\n    }\n}\n",
  "sourcePath": "@aragon/os/contracts/apps/AppStorage.sol",
  "compiler": {
    "name": "solc",
    "version": "0.4.24+commit.e67f0147.Emscripten.clang"
  },
  "schemaVersion": "3.0.0-beta.1",
  "updatedAt": "2018-11-23T10:39:45.675Z"
}