{
  "contractName": "AragonApp",
  "abi": [
    {
      "constant": true,
      "inputs": [],
      "name": "APP_ADDR_NAMESPACE",
      "outputs": [
        {
          "name": "",
          "type": "bytes32"
        }
      ],
      "payable": false,
      "stateMutability": "view",
      "type": "function"
    },
    {
      "constant": true,
      "inputs": [],
      "name": "EVMSCRIPT_REGISTRY_APP_ID",
      "outputs": [
        {
          "name": "",
          "type": "bytes32"
        }
      ],
      "payable": false,
      "stateMutability": "view",
      "type": "function"
    },
    {
      "constant": true,
      "inputs": [
        {
          "name": "token",
          "type": "address"
        }
      ],
      "name": "allowRecoverability",
      "outputs": [
        {
          "name": "",
          "type": "bool"
        }
      ],
      "payable": false,
      "stateMutability": "view",
      "type": "function"
    },
    {
      "constant": true,
      "inputs": [],
      "name": "appId",
      "outputs": [
        {
          "name": "",
          "type": "bytes32"
        }
      ],
      "payable": false,
      "stateMutability": "view",
      "type": "function"
    },
    {
      "constant": true,
      "inputs": [],
      "name": "ETH",
      "outputs": [
        {
          "name": "",
          "type": "address"
        }
      ],
      "payable": false,
      "stateMutability": "view",
      "type": "function"
    },
    {
      "constant": true,
      "inputs": [],
      "name": "getInitializationBlock",
      "outputs": [
        {
          "name": "",
          "type": "uint256"
        }
      ],
      "payable": false,
      "stateMutability": "view",
      "type": "function"
    },
    {
      "constant": true,
      "inputs": [],
      "name": "EVMSCRIPT_REGISTRY_APP",
      "outputs": [
        {
          "name": "",
          "type": "bytes32"
        }
      ],
      "payable": false,
      "stateMutability": "view",
      "type": "function"
    },
    {
      "constant": false,
      "inputs": [
        {
          "name": "_token",
          "type": "address"
        }
      ],
      "name": "transferToVault",
      "outputs": [],
      "payable": false,
      "stateMutability": "nonpayable",
      "type": "function"
    },
    {
      "constant": true,
      "inputs": [],
      "name": "kernel",
      "outputs": [
        {
          "name": "",
          "type": "address"
        }
      ],
      "payable": false,
      "stateMutability": "view",
      "type": "function"
    },
    {
      "constant": true,
      "inputs": [
        {
          "name": "_script",
          "type": "bytes"
        }
      ],
      "name": "getExecutor",
      "outputs": [
        {
          "name": "",
          "type": "address"
        }
      ],
      "payable": false,
      "stateMutability": "view",
      "type": "function"
    },
    {
      "constant": true,
      "inputs": [
        {
          "name": "_sender",
          "type": "address"
        },
        {
          "name": "_role",
          "type": "bytes32"
        },
        {
          "name": "params",
          "type": "uint256[]"
        }
      ],
      "name": "canPerform",
      "outputs": [
        {
          "name": "",
          "type": "bool"
        }
      ],
      "payable": false,
      "stateMutability": "view",
      "type": "function"
    },
    {
      "constant": true,
      "inputs": [],
      "name": "getRecoveryVault",
      "outputs": [
        {
          "name": "",
          "type": "address"
        }
      ],
      "payable": false,
      "stateMutability": "view",
      "type": "function"
    }
  ],
  "bytecode": "0x608060405234801561001057600080fd5b50610db0806100206000396000f3006080604052600436106100ba576000357c0100000000000000000000000000000000000000000000000000000000900463ffffffff168063178e6079146100bf57806332f0a3b5146100f257806360b1e057146101495780637e7db6e11461017c57806380afdea8146101d75780638322fff21461020a5780638b3dd749146102615780639b3fdf4c1461028c5780639d4941d8146102bf578063a1658fad14610302578063d4aae0c4146103ae578063f92a79ff14610405575b600080fd5b3480156100cb57600080fd5b506100d46104ae565b60405180826000191660001916815260200191505060405180910390f35b3480156100fe57600080fd5b506101076104d5565b604051808273ffffffffffffffffffffffffffffffffffffffff1673ffffffffffffffffffffffffffffffffffffffff16815260200191505060405180910390f35b34801561015557600080fd5b5061015e6105e2565b60405180826000191660001916815260200191505060405180910390f35b34801561018857600080fd5b506101bd600480360381019080803573ffffffffffffffffffffffffffffffffffffffff169060200190929190505050610609565b604051808215151515815260200191505060405180910390f35b3480156101e357600080fd5b506101ec610614565b60405180826000191660001916815260200191505060405180910390f35b34801561021657600080fd5b5061021f61061a565b604051808273ffffffffffffffffffffffffffffffffffffffff1673ffffffffffffffffffffffffffffffffffffffff16815260200191505060405180910390f35b34801561026d57600080fd5b5061027661061f565b6040518082815260200191505060405180910390f35b34801561029857600080fd5b506102a1610629565b60405180826000191660001916815260200191505060405180910390f35b3480156102cb57600080fd5b50610300600480360381019080803573ffffffffffffffffffffffffffffffffffffffff169060200190929190505050610650565b005b34801561030e57600080fd5b50610394600480360381019080803573ffffffffffffffffffffffffffffffffffffffff1690602001909291908035600019169060200190929190803590602001908201803590602001908080602002602001604051908101604052809392919081815260200183836020028082843782019150505050505091929192905050506108da565b604051808215151515815260200191505060405180910390f35b3480156103ba57600080fd5b506103c3610aec565b604051808273ffffffffffffffffffffffffffffffffffffffff1673ffffffffffffffffffffffffffffffffffffffff16815260200191505060405180910390f35b34801561041157600080fd5b5061046c600480360381019080803590602001908201803590602001908080601f0160208091040260200160405190810160405280939291908181526020018383808284378201915050505050509192919290505050610b11565b604051808273ffffffffffffffffffffffffffffffffffffffff1673ffffffffffffffffffffffffffffffffffffffff16815260200191505060405180910390f35b7fd6f028ca0e8edb4a8c9757ca4fdccab25fa1e0317da1188108f7d2dee14902fb60010281565b6000806000809054906101000a900473ffffffffffffffffffffffffffffffffffffffff1673ffffffffffffffffffffffffffffffffffffffff161415151561051d57600080fd5b6000809054906101000a900473ffffffffffffffffffffffffffffffffffffffff1673ffffffffffffffffffffffffffffffffffffffff166332f0a3b56040518163ffffffff167c0100000000000000000000000000000000000000000000000000000000028152600401602060405180830381600087803b1580156105a257600080fd5b505af11580156105b6573d6000803e3d6000fd5b505050506040513d60208110156105cc57600080fd5b8101908080519060200190929190505050905090565b7fddbcfd564f642ab5627cf68b9b7d374fb4f8a36e941a75d89c87998cef03bd6160010281565b600060019050919050565b60015481565b600081565b6000600354905090565b7f34f01c17e9be6ddbf2c61f37b5b1fb9f1a090a975006581ad19bda1c4d38287160010281565b60008061065c83610609565b151561066757600080fd5b61066f6104d5565b915061067a82610c30565b151561068557600080fd5b600073ffffffffffffffffffffffffffffffffffffffff168373ffffffffffffffffffffffffffffffffffffffff16141561071d578173ffffffffffffffffffffffffffffffffffffffff166108fc3073ffffffffffffffffffffffffffffffffffffffff16319081150290604051600060405180830381858888f19350505050158015610717573d6000803e3d6000fd5b506108d5565b8273ffffffffffffffffffffffffffffffffffffffff166370a08231306040518263ffffffff167c0100000000000000000000000000000000000000000000000000000000028152600401808273ffffffffffffffffffffffffffffffffffffffff1673ffffffffffffffffffffffffffffffffffffffff168152602001915050602060405180830381600087803b1580156107b857600080fd5b505af11580156107cc573d6000803e3d6000fd5b505050506040513d60208110156107e257600080fd5b810190808051906020019092919050505090508273ffffffffffffffffffffffffffffffffffffffff1663a9059cbb83836040518363ffffffff167c0100000000000000000000000000000000000000000000000000000000028152600401808373ffffffffffffffffffffffffffffffffffffffff1673ffffffffffffffffffffffffffffffffffffffff16815260200182815260200192505050602060405180830381600087803b15801561089857600080fd5b505af11580156108ac573d6000803e3d6000fd5b505050506040513d60208110156108c257600080fd5b8101908080519060200190929190505050505b505050565b60006060600080845111156108f757602084510290508391508082525b60008060009054906101000a900473ffffffffffffffffffffffffffffffffffffffff1673ffffffffffffffffffffffffffffffffffffffff161480610ae157506000809054906101000a900473ffffffffffffffffffffffffffffffffffffffff1673ffffffffffffffffffffffffffffffffffffffff1663fdef9106873088866040518563ffffffff167c0100000000000000000000000000000000000000000000000000000000028152600401808573ffffffffffffffffffffffffffffffffffffffff1673ffffffffffffffffffffffffffffffffffffffff1681526020018473ffffffffffffffffffffffffffffffffffffffff1673ffffffffffffffffffffffffffffffffffffffff168152602001836000191660001916815260200180602001828103825283818151815260200191508051906020019080838360005b83811015610a56578082015181840152602081019050610a3b565b50505050905090810190601f168015610a835780820380516001836020036101000a031916815260200191505b5095505050505050602060405180830381600087803b158015610aa557600080fd5b505af1158015610ab9573d6000803e3d6000fd5b505050506040513d6020811015610acf57600080fd5b81019080805190602001909291905050505b925050509392505050565b6000809054906101000a900473ffffffffffffffffffffffffffffffffffffffff1681565b6000610b1b610c82565b73ffffffffffffffffffffffffffffffffffffffff166304bf2a7f836040518263ffffffff167c01000000000000000000000000000000000000000000000000000000000281526004018080602001828103825283818151815260200191508051906020019080838360005b83811015610ba2578082015181840152602081019050610b87565b50505050905090810190601f168015610bcf5780820380516001836020036101000a031916815260200191505b5092505050602060405180830381600087803b158015610bee57600080fd5b505af1158015610c02573d6000803e3d6000fd5b505050506040513d6020811015610c1857600080fd5b81019080805190602001909291905050509050919050565b600080600073ffffffffffffffffffffffffffffffffffffffff168373ffffffffffffffffffffffffffffffffffffffff161415610c715760009150610c7c565b823b90506000811191505b50919050565b6000806000809054906101000a900473ffffffffffffffffffffffffffffffffffffffff1673ffffffffffffffffffffffffffffffffffffffff166342c71f1d7f34f01c17e9be6ddbf2c61f37b5b1fb9f1a090a975006581ad19bda1c4d3828716001026040518263ffffffff167c0100000000000000000000000000000000000000000000000000000000028152600401808260001916600019168152602001915050602060405180830381600087803b158015610d4057600080fd5b505af1158015610d54573d6000803e3d6000fd5b505050506040513d6020811015610d6a57600080fd5b8101908080519060200190929190505050905080915050905600a165627a7a7230582040115eefa20ef6f8c64bfa3bc2d73046a9b8810aabd51dea005951150ea1059f0029",
  "source": "pragma solidity ^0.4.18;\n\nimport \"./AppStorage.sol\";\nimport \"../common/Initializable.sol\";\nimport \"../common/VaultRecoverable.sol\";\nimport \"../evmscript/EVMScriptRunner.sol\";\nimport \"../acl/ACLSyntaxSugar.sol\";\n\n\n// ACLSyntaxSugar and EVMScriptRunner are not directly used by this contract, but are included so\n// that they are automatically usable by subclassing contracts\ncontract AragonApp is AppStorage, Initializable, ACLSyntaxSugar, VaultRecoverable, EVMScriptRunner {\n    modifier auth(bytes32 _role) {\n        require(canPerform(msg.sender, _role, new uint256[](0)));\n        _;\n    }\n\n    modifier authP(bytes32 _role, uint256[] params) {\n        require(canPerform(msg.sender, _role, params));\n        _;\n    }\n\n    function canPerform(address _sender, bytes32 _role, uint256[] params) public view returns (bool) {\n        bytes memory how; // no need to init memory as it is never used\n        if (params.length > 0) {\n            uint256 byteLength = params.length * 32;\n            assembly {\n                how := params // forced casting\n                mstore(how, byteLength)\n            }\n        }\n        return address(kernel) == 0 || kernel.hasPermission(_sender, address(this), _role, how);\n    }\n\n    function getRecoveryVault() public view returns (address) {\n        // Funds recovery via a vault is only available when used with a kernel\n        require(address(kernel) != 0);\n        return kernel.getRecoveryVault();\n    }\n}\n",
  "sourcePath": "@aragon/os/contracts/apps/AragonApp.sol",
  "compiler": {
    "name": "solc",
    "version": "0.4.24+commit.e67f0147.Emscripten.clang"
  },
  "schemaVersion": "2.0.0",
  "updatedAt": "2018-07-04T09:24:30.859Z"
}