{
  "contractName": "Branch",
  "abi": [
    {
      "constant": true,
      "inputs": [],
      "name": "name",
      "outputs": [
        {
          "name": "",
          "type": "string"
        }
      ],
      "payable": false,
      "stateMutability": "view",
      "type": "function"
    },
    {
      "constant": true,
      "inputs": [],
      "name": "SUBMIT_REQUEST_ROLE",
      "outputs": [
        {
          "name": "",
          "type": "bytes32"
        }
      ],
      "payable": false,
      "stateMutability": "view",
      "type": "function"
    },
    {
      "constant": true,
      "inputs": [],
      "name": "getRecoveryVault",
      "outputs": [
        {
          "name": "",
          "type": "address"
        }
      ],
      "payable": false,
      "stateMutability": "view",
      "type": "function"
    },
    {
      "constant": true,
      "inputs": [],
      "name": "EVMSCRIPT_REGISTRY_APP_ID",
      "outputs": [
        {
          "name": "",
          "type": "bytes32"
        }
      ],
      "payable": false,
      "stateMutability": "view",
      "type": "function"
    },
    {
      "constant": true,
      "inputs": [
        {
          "name": "token",
          "type": "address"
        }
      ],
      "name": "allowRecoverability",
      "outputs": [
        {
          "name": "",
          "type": "bool"
        }
      ],
      "payable": false,
      "stateMutability": "view",
      "type": "function"
    },
    {
      "constant": true,
      "inputs": [],
      "name": "appId",
      "outputs": [
        {
          "name": "",
          "type": "bytes32"
        }
      ],
      "payable": false,
      "stateMutability": "view",
      "type": "function"
    },
    {
      "constant": true,
      "inputs": [],
      "name": "ETH",
      "outputs": [
        {
          "name": "",
          "type": "address"
        }
      ],
      "payable": false,
      "stateMutability": "view",
      "type": "function"
    },
    {
      "constant": true,
      "inputs": [],
      "name": "getInitializationBlock",
      "outputs": [
        {
          "name": "",
          "type": "uint256"
        }
      ],
      "payable": false,
      "stateMutability": "view",
      "type": "function"
    },
    {
      "constant": true,
      "inputs": [],
      "name": "head",
      "outputs": [
        {
          "name": "",
          "type": "bytes32"
        }
      ],
      "payable": false,
      "stateMutability": "view",
      "type": "function"
    },
    {
      "constant": true,
      "inputs": [],
      "name": "EVMSCRIPT_REGISTRY_APP",
      "outputs": [
        {
          "name": "",
          "type": "bytes32"
        }
      ],
      "payable": false,
      "stateMutability": "view",
      "type": "function"
    },
    {
      "constant": false,
      "inputs": [
        {
          "name": "_token",
          "type": "address"
        }
      ],
      "name": "transferToVault",
      "outputs": [],
      "payable": false,
      "stateMutability": "nonpayable",
      "type": "function"
    },
    {
      "constant": true,
      "inputs": [
        {
          "name": "_sender",
          "type": "address"
        },
        {
          "name": "_role",
          "type": "bytes32"
        },
        {
          "name": "_params",
          "type": "uint256[]"
        }
      ],
      "name": "canPerform",
      "outputs": [
        {
          "name": "",
          "type": "bool"
        }
      ],
      "payable": false,
      "stateMutability": "view",
      "type": "function"
    },
    {
      "constant": true,
      "inputs": [],
      "name": "UPDATE_REQUEST_ROLE",
      "outputs": [
        {
          "name": "",
          "type": "bytes32"
        }
      ],
      "payable": false,
      "stateMutability": "view",
      "type": "function"
    },
    {
      "constant": true,
      "inputs": [],
      "name": "kernel",
      "outputs": [
        {
          "name": "",
          "type": "address"
        }
      ],
      "payable": false,
      "stateMutability": "view",
      "type": "function"
    },
    {
      "constant": true,
      "inputs": [],
      "name": "specimen",
      "outputs": [
        {
          "name": "",
          "type": "address"
        }
      ],
      "payable": false,
      "stateMutability": "view",
      "type": "function"
    },
    {
      "constant": true,
      "inputs": [],
      "name": "CANCEL_REQUEST_ROLE",
      "outputs": [
        {
          "name": "",
          "type": "bytes32"
        }
      ],
      "payable": false,
      "stateMutability": "view",
      "type": "function"
    },
    {
      "constant": true,
      "inputs": [],
      "name": "VALUATE_REQUEST_ROLE",
      "outputs": [
        {
          "name": "",
          "type": "bytes32"
        }
      ],
      "payable": false,
      "stateMutability": "view",
      "type": "function"
    },
    {
      "constant": true,
      "inputs": [
        {
          "name": "_script",
          "type": "bytes"
        }
      ],
      "name": "getExecutor",
      "outputs": [
        {
          "name": "",
          "type": "address"
        }
      ],
      "payable": false,
      "stateMutability": "view",
      "type": "function"
    },
    {
      "constant": true,
      "inputs": [],
      "name": "HANDLE_REQUEST_ROLE",
      "outputs": [
        {
          "name": "",
          "type": "bytes32"
        }
      ],
      "payable": false,
      "stateMutability": "view",
      "type": "function"
    },
    {
      "anonymous": false,
      "inputs": [
        {
          "indexed": true,
          "name": "requestId",
          "type": "uint256"
        }
      ],
      "name": "SubmitRequest",
      "type": "event"
    },
    {
      "anonymous": false,
      "inputs": [
        {
          "indexed": true,
          "name": "requestId",
          "type": "uint256"
        }
      ],
      "name": "UpdateRequest",
      "type": "event"
    },
    {
      "anonymous": false,
      "inputs": [
        {
          "indexed": true,
          "name": "requestId",
          "type": "uint256"
        }
      ],
      "name": "CancelRequest",
      "type": "event"
    },
    {
      "anonymous": false,
      "inputs": [
        {
          "indexed": true,
          "name": "requestId",
          "type": "uint256"
        },
        {
          "indexed": false,
          "name": "value",
          "type": "uint256"
        }
      ],
      "name": "ValuateRequest",
      "type": "event"
    },
    {
      "anonymous": false,
      "inputs": [
        {
          "indexed": true,
          "name": "requestId",
          "type": "uint256"
        }
      ],
      "name": "MergeRequest",
      "type": "event"
    },
    {
      "anonymous": false,
      "inputs": [
        {
          "indexed": true,
          "name": "requestId",
          "type": "uint256"
        }
      ],
      "name": "RejectRequest",
      "type": "event"
    },
    {
      "anonymous": false,
      "inputs": [
        {
          "indexed": false,
          "name": "tt",
          "type": "bytes32"
        }
      ],
      "name": "NewCommit",
      "type": "event"
    },
    {
      "anonymous": false,
      "inputs": [
        {
          "indexed": true,
          "name": "executor",
          "type": "address"
        },
        {
          "indexed": false,
          "name": "script",
          "type": "bytes"
        },
        {
          "indexed": false,
          "name": "input",
          "type": "bytes"
        },
        {
          "indexed": false,
          "name": "returnData",
          "type": "bytes"
        }
      ],
      "name": "ScriptResult",
      "type": "event"
    },
    {
      "constant": false,
      "inputs": [
        {
          "name": "_specimen",
          "type": "address"
        },
        {
          "name": "_name",
          "type": "string"
        }
      ],
      "name": "initialize",
      "outputs": [],
      "payable": false,
      "stateMutability": "nonpayable",
      "type": "function"
    },
    {
      "constant": false,
      "inputs": [
        {
          "name": "_tree",
          "type": "string"
        },
        {
          "name": "_message",
          "type": "string"
        },
        {
          "name": "_parents",
          "type": "bytes"
        }
      ],
      "name": "submitRequest",
      "outputs": [
        {
          "name": "requestId",
          "type": "uint256"
        }
      ],
      "payable": false,
      "stateMutability": "nonpayable",
      "type": "function"
    },
    {
      "constant": false,
      "inputs": [
        {
          "name": "_requestId",
          "type": "uint256"
        }
      ],
      "name": "cancelRequest",
      "outputs": [],
      "payable": false,
      "stateMutability": "nonpayable",
      "type": "function"
    },
    {
      "constant": false,
      "inputs": [
        {
          "name": "_requestId",
          "type": "uint256"
        },
        {
          "name": "_value",
          "type": "uint256"
        }
      ],
      "name": "valuateRequest",
      "outputs": [],
      "payable": false,
      "stateMutability": "nonpayable",
      "type": "function"
    },
    {
      "constant": false,
      "inputs": [
        {
          "name": "_requestId",
          "type": "uint256"
        },
        {
          "name": "_action",
          "type": "uint8"
        }
      ],
      "name": "handleRequest",
      "outputs": [],
      "payable": false,
      "stateMutability": "nonpayable",
      "type": "function"
    },
    {
      "constant": true,
      "inputs": [
        {
          "name": "_sender",
          "type": "address"
        },
        {
          "name": "_requestId",
          "type": "uint256"
        }
      ],
      "name": "canUpdate",
      "outputs": [
        {
          "name": "",
          "type": "bool"
        }
      ],
      "payable": false,
      "stateMutability": "view",
      "type": "function"
    },
    {
      "constant": true,
      "inputs": [
        {
          "name": "_sender",
          "type": "address"
        },
        {
          "name": "_requestId",
          "type": "uint256"
        }
      ],
      "name": "canCancel",
      "outputs": [
        {
          "name": "",
          "type": "bool"
        }
      ],
      "payable": false,
      "stateMutability": "view",
      "type": "function"
    },
    {
      "constant": true,
      "inputs": [
        {
          "name": "_sender",
          "type": "address"
        },
        {
          "name": "_requestId",
          "type": "uint256"
        },
        {
          "name": "_value",
          "type": "uint256"
        }
      ],
      "name": "canValuate",
      "outputs": [
        {
          "name": "",
          "type": "bool"
        }
      ],
      "payable": false,
      "stateMutability": "view",
      "type": "function"
    },
    {
      "constant": true,
      "inputs": [
        {
          "name": "_sender",
          "type": "address"
        },
        {
          "name": "_requestId",
          "type": "uint256"
        },
        {
          "name": "_action",
          "type": "uint8"
        }
      ],
      "name": "canHandle",
      "outputs": [
        {
          "name": "",
          "type": "bool"
        }
      ],
      "payable": false,
      "stateMutability": "view",
      "type": "function"
    },
    {
      "constant": true,
      "inputs": [
        {
          "name": "_requestId",
          "type": "uint256"
        }
      ],
      "name": "getRequest",
      "outputs": [
        {
          "name": "origin",
          "type": "address"
        },
        {
          "name": "block",
          "type": "uint256"
        },
        {
          "name": "tree",
          "type": "string"
        },
        {
          "name": "message",
          "type": "string"
        },
        {
          "name": "value",
          "type": "uint256"
        },
        {
          "name": "state",
          "type": "uint8"
        },
        {
          "name": "status",
          "type": "uint8"
        }
      ],
      "payable": false,
      "stateMutability": "view",
      "type": "function"
    }
  ],
  "bytecode": "0x608060405234801561001057600080fd5b506131c4806100206000396000f300608060405260043610610175576000357c0100000000000000000000000000000000000000000000000000000000900463ffffffff16806306fdde031461017a57806311dbb319146101a55780631ea0f5ed146101d05780633015394c146101f957806332f0a3b51461022257806332f20a1a1461024d57806352acf69a1461028a57806360b1e057146102c75780636146e931146102f25780637e7db6e11461032f57806380afdea81461036c5780638322fff2146103975780638a20507e146103c25780638b3dd749146103eb5780638f7dcfa3146104165780639b3fdf4c146104415780639d4941d81461046c578063a1658fad14610495578063b4df9392146104d2578063c58343ef146104fd578063c9c0cdd614610540578063d4aae0c41461057d578063d747b678146105a8578063e5477fe9146105e5578063f1109ea514610610578063f2729b4c1461063b578063f399e22e14610666578063f92a79ff1461068f578063ffe8c2ed146106cc575b600080fd5b34801561018657600080fd5b5061018f6106f7565b60405161019c9190612f03565b60405180910390f35b3480156101b157600080fd5b506101ba610795565b6040516101c79190612e5a565b60405180910390f35b3480156101dc57600080fd5b506101f760048036036101f29190810190612b72565b6107ce565b005b34801561020557600080fd5b50610220600480360361021b9190810190612ae4565b6107f2565b005b34801561022e57600080fd5b506102376107f5565b6040516102449190612ce6565b60405180910390f35b34801561025957600080fd5b50610274600480360361026f919081019061287b565b6108ff565b6040516102819190612e3f565b60405180910390f35b34801561029657600080fd5b506102b160048036036102ac919081019061287b565b61098c565b6040516102be9190612e3f565b60405180910390f35b3480156102d357600080fd5b506102dc610a19565b6040516102e99190612e5a565b60405180910390f35b3480156102fe57600080fd5b5061031960048036036103149190810190612a40565b610a40565b6040516103269190612f25565b60405180910390f35b34801561033b57600080fd5b50610356600480360361035191908101906127c2565b610b8d565b6040516103639190612e3f565b60405180910390f35b34801561037857600080fd5b50610381610b98565b60405161038e9190612e5a565b60405180910390f35b3480156103a357600080fd5b506103ac610b9e565b6040516103b99190612ce6565b60405180910390f35b3480156103ce57600080fd5b506103e960048036036103e49190810190612b36565b610ba3565b005b3480156103f757600080fd5b50610400610c44565b60405161040d9190612f25565b60405180910390f35b34801561042257600080fd5b5061042b610c4e565b6040516104389190612e5a565b60405180910390f35b34801561044d57600080fd5b50610456610c54565b6040516104639190612e5a565b60405180910390f35b34801561047857600080fd5b50610493600480360361048e91908101906127c2565b610c7b565b005b3480156104a157600080fd5b506104bc60048036036104b79190810190612814565b610ea1565b6040516104c99190612e3f565b60405180910390f35b3480156104de57600080fd5b506104e7610fd9565b6040516104f49190612e5a565b60405180910390f35b34801561050957600080fd5b50610524600480360361051f9190810190612ae4565b611012565b6040516105379796959493929190612d76565b60405180910390f35b34801561054c57600080fd5b50610567600480360361056291908101906128b7565b6111f3565b6040516105749190612e3f565b60405180910390f35b34801561058957600080fd5b506105926112f6565b60405161059f9190612eb2565b60405180910390f35b3480156105b457600080fd5b506105cf60048036036105ca9190810190612906565b61131b565b6040516105dc9190612e3f565b60405180910390f35b3480156105f157600080fd5b506105fa611389565b6040516106079190612ecd565b60405180910390f35b34801561061c57600080fd5b506106256113af565b6040516106329190612e5a565b60405180910390f35b34801561064757600080fd5b506106506113e8565b60405161065d9190612e5a565b60405180910390f35b34801561067257600080fd5b5061068d600480360361068891908101906129e8565b611421565b005b34801561069b57600080fd5b506106b660048036036106b1919081019061297e565b611492565b6040516106c39190612e97565b60405180910390f35b3480156106d857600080fd5b506106e1611549565b6040516106ee9190612e5a565b60405180910390f35b60658054600181600116156101000203166002900480601f01602080910402602001604051908101604052809291908181526020018280546001816001161561010002031660029004801561078d5780601f106107625761010080835404028352916020019161078d565b820191906000526020600020905b81548152906001019060200180831161077057829003601f168201915b505050505081565b60405180807f5355424d49545f524551554553545f524f4c45000000000000000000000000008152506013019050604051809103902081565b6107d933838361131b565b15156107e457600080fd5b6107ee8282611582565b5050565b50565b6000806000809054906101000a900473ffffffffffffffffffffffffffffffffffffffff1673ffffffffffffffffffffffffffffffffffffffff161415151561083d57600080fd5b6000809054906101000a900473ffffffffffffffffffffffffffffffffffffffff1673ffffffffffffffffffffffffffffffffffffffff166332f0a3b56040518163ffffffff167c0100000000000000000000000000000000000000000000000000000000028152600401602060405180830381600087803b1580156108c257600080fd5b505af11580156108d6573d6000803e3d6000fd5b505050506040513d601f19601f820116820180604052506108fa91908101906127eb565b905090565b600061090a82611639565b801561098457508273ffffffffffffffffffffffffffffffffffffffff1660688381548110151561093757fe5b906000526020600020906007020160000160000160009054906101000a900473ffffffffffffffffffffffffffffffffffffffff1673ffffffffffffffffffffffffffffffffffffffff16145b905092915050565b600061099782611639565b8015610a1157508273ffffffffffffffffffffffffffffffffffffffff166068838154811015156109c457fe5b906000526020600020906007020160000160000160009054906101000a900473ffffffffffffffffffffffffffffffffffffffff1673ffffffffffffffffffffffffffffffffffffffff16145b905092915050565b7fddbcfd564f642ab5627cf68b9b7d374fb4f8a36e941a75d89c87998cef03bd6160010281565b6000606060405180807f5355424d49545f524551554553545f524f4c450000000000000000000000000081525060130190506040518091039020610ab533826000604051908082528060200260200182016040528015610aaf5781602001602082028038833980820191505090505b50610ea1565b1515610ac057600080fd5b6040805190810160405280600073ffffffffffffffffffffffffffffffffffffffff168152602001600060010260001916815250826000815181101515610b0357fe5b90602001906020020181905250610b7f89898080601f01602080910402602001604051908101604052809392919081815260200183838082843782019150505050505088888080601f01602080910402602001604051908101604052809392919081815260200183838082843782019150505050505084611688565b925050509695505050505050565b600060019050919050565b60015481565b600081565b60405180807f48414e444c455f524551554553545f524f4c450000000000000000000000000081525060130190506040518091039020610c1433826000604051908082528060200260200182016040528015610c0e5781602001602082028038833980820191505090505b50610ea1565b1515610c1f57600080fd5b610c2a3384846111f3565b1515610c3557600080fd5b610c3f8383611887565b505050565b6000600354905090565b60665481565b7f34f01c17e9be6ddbf2c61f37b5b1fb9f1a090a975006581ad19bda1c4d38287160010281565b600080610c8783610b8d565b1515610c9257600080fd5b610c9a6107f5565b9150610ca582611e98565b1515610cb057600080fd5b600073ffffffffffffffffffffffffffffffffffffffff168373ffffffffffffffffffffffffffffffffffffffff161415610d48578173ffffffffffffffffffffffffffffffffffffffff166108fc3073ffffffffffffffffffffffffffffffffffffffff16319081150290604051600060405180830381858888f19350505050158015610d42573d6000803e3d6000fd5b50610e9c565b8273ffffffffffffffffffffffffffffffffffffffff166370a08231306040518263ffffffff167c0100000000000000000000000000000000000000000000000000000000028152600401610d9d9190612ee8565b602060405180830381600087803b158015610db757600080fd5b505af1158015610dcb573d6000803e3d6000fd5b505050506040513d601f19601f82011682018060405250610def9190810190612b0d565b90508273ffffffffffffffffffffffffffffffffffffffff1663a9059cbb83836040518363ffffffff167c0100000000000000000000000000000000000000000000000000000000028152600401610e48929190612d4d565b602060405180830381600087803b158015610e6257600080fd5b505af1158015610e76573d6000803e3d6000fd5b505050506040513d601f19601f82011682018060405250610e9a9190810190612955565b505b505050565b6000606060008084511115610ebe57602084510290508391508082525b60008060009054906101000a900473ffffffffffffffffffffffffffffffffffffffff1673ffffffffffffffffffffffffffffffffffffffff161480610fce57506000809054906101000a900473ffffffffffffffffffffffffffffffffffffffff1673ffffffffffffffffffffffffffffffffffffffff1663fdef9106873088866040518563ffffffff167c0100000000000000000000000000000000000000000000000000000000028152600401610f7b9493929190612d01565b602060405180830381600087803b158015610f9557600080fd5b505af1158015610fa9573d6000803e3d6000fd5b505050506040513d601f19601f82011682018060405250610fcd9190810190612955565b5b925050509392505050565b60405180807f5550444154455f524551554553545f524f4c45000000000000000000000000008152506013019050604051809103902081565b60008060608060008060008060688981548110151561102d57fe5b906000526020600020906007020190508060000160000160009054906101000a900473ffffffffffffffffffffffffffffffffffffffff16975080600001600101549650806000016002018054600181600116156101000203166002900480601f01602080910402602001604051908101604052809291908181526020018280546001816001161561010002031660029004801561110c5780601f106110e15761010080835404028352916020019161110c565b820191906000526020600020905b8154815290600101906020018083116110ef57829003601f168201915b50505050509550806000016003018054600181600116156101000203166002900480601f0160208091040260200160405190810160405280929190818152602001828054600181600116156101000203166002900480156111ae5780601f10611183576101008083540402835291602001916111ae565b820191906000526020600020905b81548152906001019060200180831161119157829003601f168201915b50505050509450806000016005015493508060060160009054906101000a900460ff1692508060060160019054906101000a900460ff16915050919395979092949650565b60006111fe83611639565b151561120d57600090506112ef565b61121683611eea565b801561126557506112648460405180807f48414e444c455f524551554553545f524f4c45000000000000000000000000008152506013019050604051809103902061125f611f87565b610ea1565b5b1561127357600190506112ef565b6001600281111561128057fe5b82600281111561128c57fe5b1480156112dc57506112db8460405180807f48414e444c455f524551554553545f524f4c4500000000000000000000000000815250601301905060405180910390206112d6611f87565b610ea1565b5b156112ea57600190506112ef565b600090505b9392505050565b6000809054906101000a900473ffffffffffffffffffffffffffffffffffffffff1681565b600061132683611639565b80156113805750600082148061137f575061137e8460405180807f56414c554154455f524551554553545f524f4c4500000000000000000000000081525060140190506040518091039020611379611f87565b610ea1565b5b5b90509392505050565b606460009054906101000a900473ffffffffffffffffffffffffffffffffffffffff1681565b60405180807f56414c554154455f524551554553545f524f4c450000000000000000000000008152506014019050604051809103902081565b60405180807f56414c554154455f524551554553545f524f4c450000000000000000000000008152506014019050604051809103902081565b600060035414151561143257600080fd5b61143a611f8c565b82606460006101000a81548173ffffffffffffffffffffffffffffffffffffffff021916908373ffffffffffffffffffffffffffffffffffffffff16021790555081816065919061148c92919061214d565b50505050565b600061149c611fad565b73ffffffffffffffffffffffffffffffffffffffff166304bf2a7f836040518263ffffffff167c01000000000000000000000000000000000000000000000000000000000281526004016114f09190612e75565b602060405180830381600087803b15801561150a57600080fd5b505af115801561151e573d6000803e3d6000fd5b505050506040513d601f19601f8201168201806040525061154291908101906129bf565b9050919050565b60405180807f48414e444c455f524551554553545f524f4c45000000000000000000000000008152506013019050604051809103902081565b600060035411151561159357600080fd5b60016068838154811015156115a457fe5b906000526020600020906007020160060160006101000a81548160ff021916908360028111156115d057fe5b0217905550806068838154811015156115e557fe5b906000526020600020906007020160000160050181905550817f476ac2b6722a117a5a785165151cb5d50cf113cc98346879eaaf4816399732148260405161162d9190612f25565b60405180910390a25050565b600080600381111561164757fe5b60688381548110151561165657fe5b906000526020600020906007020160060160019054906101000a900460ff16600381111561168057fe5b149050919050565b6000806060600060035411151561169e57600080fd5b606880548091906001016116b291906121cd565b92506068838154811015156116c357fe5b90600052602060002090600702019150338260000160000160006101000a81548173ffffffffffffffffffffffffffffffffffffffff021916908373ffffffffffffffffffffffffffffffffffffffff16021790555060008260000160010181905550858260000160020190805190602001906117419291906121ff565b508482600001600301908051906020019061175d9291906121ff565b5060008260000160050181905550816000016004018054809190600101611784919061227f565b50604080519081016040528085600081518110151561179f57fe5b906020019060200201516000015173ffffffffffffffffffffffffffffffffffffffff1681526020016000600102600019168152508260000160040160008154811015156117e957fe5b906000526020600020906002020160008201518160000160006101000a81548173ffffffffffffffffffffffffffffffffffffffff021916908373ffffffffffffffffffffffffffffffffffffffff16021790555060208201518160010190600019169055905050827fe68f5f67185794b36973712dee53bd952d1ed8bca059a74c03b96d402c8e7bf760405160405180910390a250509392505050565b60008060035411151561189957600080fd5b60026068848154811015156118aa57fe5b906000526020600020906007020160060160006101000a81548160ff021916908360028111156118d657fe5b0217905550600060028111156118e857fe5b8260028111156118f457fe5b1415611d7057827f688dc41681c64771570612dcb0a0aea5582777be98e7d88bc7022bd6a17ca9ae60405160405180910390a2600160688481548110151561193857fe5b906000526020600020906007020160060160016101000a81548160ff0219169083600381111561196457fe5b0217905550611c1260688481548110151561197b57fe5b906000526020600020906007020160000160c060405190810160405290816000820160009054906101000a900473ffffffffffffffffffffffffffffffffffffffff1673ffffffffffffffffffffffffffffffffffffffff1673ffffffffffffffffffffffffffffffffffffffff16815260200160018201548152602001600282018054600181600116156101000203166002900480601f016020809104026020016040519081016040528092919081815260200182805460018160011615610100020316600290048015611a915780601f10611a6657610100808354040283529160200191611a91565b820191906000526020600020905b815481529060010190602001808311611a7457829003601f168201915b50505050508152602001600382018054600181600116156101000203166002900480601f016020809104026020016040519081016040528092919081815260200182805460018160011615610100020316600290048015611b335780601f10611b0857610100808354040283529160200191611b33565b820191906000526020600020905b815481529060010190602001808311611b1657829003601f168201915b5050505050815260200160048201805480602002602001604051908101604052809291908181526020016000905b82821015611bfb57838290600052602060002090600202016040805190810160405290816000820160009054906101000a900473ffffffffffffffffffffffffffffffffffffffff1673ffffffffffffffffffffffffffffffffffffffff1673ffffffffffffffffffffffffffffffffffffffff168152602001600182015460001916600019168152505081526020019060010190611b61565b5050505081526020016005820154815250506120a4565b9050606883815481101515611c2357fe5b90600052602060002090600702016000016069600083600019166000191681526020019081526020016000206000820160009054906101000a900473ffffffffffffffffffffffffffffffffffffffff168160000160006101000a81548173ffffffffffffffffffffffffffffffffffffffff021916908373ffffffffffffffffffffffffffffffffffffffff1602179055506001820154816001015560028201816002019080546001816001161561010002031660029004611ce79291906122b1565b5060038201816003019080546001816001161561010002031660029004611d0f9291906122b1565b506004820181600401908054611d26929190612338565b50600582015481600501559050507f4c814836544403f119442f14c9c6a5e280086f71b0fbd8e77c39a5e97cfc64b881604051611d639190612e5a565b60405180910390a1611e93565b60016002811115611d7d57fe5b826002811115611d8957fe5b1415611e0357827fcf3726861cf8a7d04264b28cb380446ded62d16d9ba4229dc88c6f96a55b1d7560405160405180910390a26002606884815481101515611dcd57fe5b906000526020600020906007020160060160016101000a81548160ff02191690836003811115611df957fe5b0217905550611e92565b600280811115611e0f57fe5b826002811115611e1b57fe5b1415611e9157827f964b7303b4bad5535d8a5957f8004a3b1660c69e28bcf4acaf8722a98093ab2660405160405180910390a26003606884815481101515611e5f57fe5b906000526020600020906007020160060160016101000a81548160ff02191690836003811115611e8b57fe5b02179055505b5b5b505050565b600080600073ffffffffffffffffffffffffffffffffffffffff168373ffffffffffffffffffffffffffffffffffffffff161415611ed95760009150611ee4565b823b90506000811191505b50919050565b600060016002811115611ef957fe5b606883815481101515611f0857fe5b906000526020600020906007020160060160009054906101000a900460ff166002811115611f3257fe5b1480611f805750600280811115611f4557fe5b606883815481101515611f5457fe5b906000526020600020906007020160060160009054906101000a900460ff166002811115611f7e57fe5b145b9050919050565b606090565b6000600354141515611f9d57600080fd5b611fa5612145565b600381905550565b6000806000809054906101000a900473ffffffffffffffffffffffffffffffffffffffff1673ffffffffffffffffffffffffffffffffffffffff166342c71f1d7f34f01c17e9be6ddbf2c61f37b5b1fb9f1a090a975006581ad19bda1c4d3828716001026040518263ffffffff167c01000000000000000000000000000000000000000000000000000000000281526004016120499190612e5a565b602060405180830381600087803b15801561206357600080fd5b505af1158015612077573d6000803e3d6000fd5b505050506040513d601f19601f8201168201806040525061209b91908101906127eb565b90508091505090565b60008160000151826020015183604001518460a001516040516020016120cd9493929190612df3565b6040516020818303038152906040526040518082805190602001908083835b60208310151561211157805182526020820191506020810190506020830392506120ec565b6001836020036101000a03801982511681845116808217855250505050505090500191505060405180910390209050919050565b600043905090565b828054600181600116156101000203166002900490600052602060002090601f016020900481019282601f1061218e57803560ff19168380011785556121bc565b828001600101855582156121bc579182015b828111156121bb5782358255916020019190600101906121a0565b5b5090506121c99190612407565b5090565b8154818355818111156121fa576007028160070283600052602060002091820191016121f9919061242c565b5b505050565b828054600181600116156101000203166002900490600052602060002090601f016020900481019282601f1061224057805160ff191683800117855561226e565b8280016001018555821561226e579182015b8281111561226d578251825591602001919060010190612252565b5b50905061227b9190612407565b5090565b8154818355818111156122ac576002028160020283600052602060002091820191016122ab91906124e1565b5b505050565b828054600181600116156101000203166002900490600052602060002090601f016020900481019282601f106122ea5780548555612327565b8280016001018555821561232757600052602060002091601f016020900482015b8281111561232657825482559160010191906001019061230b565b5b5090506123349190612407565b5090565b8280548282559060005260206000209060020281019282156123f65760005260206000209160020282015b828111156123f55782826000820160009054906101000a900473ffffffffffffffffffffffffffffffffffffffff168160000160006101000a81548173ffffffffffffffffffffffffffffffffffffffff021916908373ffffffffffffffffffffffffffffffffffffffff16021790555060018201548160010190600019169055505091600201919060020190612363565b5b50905061240391906124e1565b5090565b61242991905b8082111561242557600081600090555060010161240d565b5090565b90565b6124de91905b808211156124da576000808201600080820160006101000a81549073ffffffffffffffffffffffffffffffffffffffff0219169055600182016000905560028201600061247f919061252f565b60038201600061248f919061252f565b60048201600061249f9190612577565b600582016000905550506006820160006101000a81549060ff02191690556006820160016101000a81549060ff021916905550600701612432565b5090565b90565b61252c91905b8082111561252857600080820160006101000a81549073ffffffffffffffffffffffffffffffffffffffff02191690556001820160009055506002016124e7565b5090565b90565b50805460018160011615610100020316600290046000825580601f106125555750612574565b601f0160209004906000526020600020908101906125739190612407565b5b50565b508054600082556002029060005260206000209081019061259891906124e1565b50565b60006125a7823561304e565b905092915050565b60006125bb825161304e565b905092915050565b600082601f83011215156125d657600080fd5b81356125e96125e482612f6d565b612f40565b9150818183526020840193506020810190508385602084028201111561260e57600080fd5b60005b8381101561263e5781612624888261279a565b845260208401935060208301925050600181019050612611565b5050505092915050565b6000612654825161306e565b905092915050565b6000612668823561307a565b905092915050565b60008083601f840112151561268457600080fd5b8235905067ffffffffffffffff81111561269d57600080fd5b6020830191508360018202830111156126b557600080fd5b9250929050565b600082601f83011215156126cf57600080fd5b81356126e26126dd82612f95565b612f40565b915080825260208301602083018583830111156126fe57600080fd5b612709838284613137565b50505092915050565b600061271e8251613084565b905092915050565b60006127328235613096565b905092915050565b600061274682356130a8565b905092915050565b60008083601f840112151561276257600080fd5b8235905067ffffffffffffffff81111561277b57600080fd5b60208301915083600182028301111561279357600080fd5b9250929050565b60006127a682356130c1565b905092915050565b60006127ba82516130c1565b905092915050565b6000602082840312156127d457600080fd5b60006127e28482850161259b565b91505092915050565b6000602082840312156127fd57600080fd5b600061280b848285016125af565b91505092915050565b60008060006060848603121561282957600080fd5b60006128378682870161259b565b93505060206128488682870161265c565b925050604084013567ffffffffffffffff81111561286557600080fd5b612871868287016125c3565b9150509250925092565b6000806040838503121561288e57600080fd5b600061289c8582860161259b565b92505060206128ad8582860161279a565b9150509250929050565b6000806000606084860312156128cc57600080fd5b60006128da8682870161259b565b93505060206128eb8682870161279a565b92505060406128fc8682870161273a565b9150509250925092565b60008060006060848603121561291b57600080fd5b60006129298682870161259b565b935050602061293a8682870161279a565b925050604061294b8682870161279a565b9150509250925092565b60006020828403121561296757600080fd5b600061297584828501612648565b91505092915050565b60006020828403121561299057600080fd5b600082013567ffffffffffffffff8111156129aa57600080fd5b6129b6848285016126bc565b91505092915050565b6000602082840312156129d157600080fd5b60006129df84828501612712565b91505092915050565b6000806000604084860312156129fd57600080fd5b6000612a0b86828701612726565b935050602084013567ffffffffffffffff811115612a2857600080fd5b612a348682870161274e565b92509250509250925092565b60008060008060008060608789031215612a5957600080fd5b600087013567ffffffffffffffff811115612a7357600080fd5b612a7f89828a0161274e565b9650965050602087013567ffffffffffffffff811115612a9e57600080fd5b612aaa89828a0161274e565b9450945050604087013567ffffffffffffffff811115612ac957600080fd5b612ad589828a01612670565b92509250509295509295509295565b600060208284031215612af657600080fd5b6000612b048482850161279a565b91505092915050565b600060208284031215612b1f57600080fd5b6000612b2d848285016127ae565b91505092915050565b60008060408385031215612b4957600080fd5b6000612b578582860161279a565b9250506020612b688582860161273a565b9150509250929050565b60008060408385031215612b8557600080fd5b6000612b938582860161279a565b9250506020612ba48582860161279a565b9150509250929050565b612bb781612fe2565b82525050565b612bc681613002565b82525050565b612bd58161300e565b82525050565b6000612be682612fc1565b808452612bfa816020860160208601613146565b612c0381613179565b602085010191505092915050565b612c1a816130cb565b82525050565b612c29816130dd565b82525050565b612c38816130ef565b82525050565b612c4781613101565b82525050565b612c5681613113565b82525050565b612c6581613125565b82525050565b6000612c7682612fd7565b808452612c8a816020860160208601613146565b612c9381613179565b602085010191505092915050565b6000612cac82612fcc565b808452612cc0816020860160208601613146565b612cc981613179565b602085010191505092915050565b612ce081613044565b82525050565b6000602082019050612cfb6000830184612bae565b92915050565b6000608082019050612d166000830187612bae565b612d236020830186612bae565b612d306040830185612bcc565b8181036060830152612d428184612bdb565b905095945050505050565b6000604082019050612d626000830185612bae565b612d6f6020830184612cd7565b9392505050565b600060e082019050612d8b600083018a612bae565b612d986020830189612cd7565b8181036040830152612daa8188612c6b565b90508181036060830152612dbe8187612c6b565b9050612dcd6080830186612cd7565b612dda60a0830185612c4d565b612de760c0830184612c5c565b98975050505050505050565b6000608082019050612e086000830187612bae565b612e156020830186612cd7565b8181036040830152612e278185612ca1565b9050612e366060830184612cd7565b95945050505050565b6000602082019050612e546000830184612bbd565b92915050565b6000602082019050612e6f6000830184612bcc565b92915050565b60006020820190508181036000830152612e8f8184612bdb565b905092915050565b6000602082019050612eac6000830184612c11565b92915050565b6000602082019050612ec76000830184612c20565b92915050565b6000602082019050612ee26000830184612c2f565b92915050565b6000602082019050612efd6000830184612c3e565b92915050565b60006020820190508181036000830152612f1d8184612ca1565b905092915050565b6000602082019050612f3a6000830184612cd7565b92915050565b6000604051905081810181811067ffffffffffffffff82111715612f6357600080fd5b8060405250919050565b600067ffffffffffffffff821115612f8457600080fd5b602082029050602081019050919050565b600067ffffffffffffffff821115612fac57600080fd5b601f19601f8301169050602081019050919050565b600081519050919050565b600081519050919050565b600081519050919050565b600073ffffffffffffffffffffffffffffffffffffffff82169050919050565b60008115159050919050565b6000819050919050565b600060038210151561302657fe5b819050919050565b600060048210151561303c57fe5b819050919050565b6000819050919050565b600073ffffffffffffffffffffffffffffffffffffffff82169050919050565b60008115159050919050565b6000819050919050565b600061308f82612fe2565b9050919050565b60006130a182612fe2565b9050919050565b60006003821015156130b957600080fd5b819050919050565b6000819050919050565b60006130d682612fe2565b9050919050565b60006130e882612fe2565b9050919050565b60006130fa82612fe2565b9050919050565b600061310c82612fe2565b9050919050565b600061311e82613018565b9050919050565b60006131308261302e565b9050919050565b82818337600083830152505050565b60005b83811015613164578082015181840152602081019050613149565b83811115613173576000848401525b50505050565b6000601f19601f83011690509190505600a265627a7a7230582000c61a853897100479d7d23b3bfe562f174d03b39df38e994c24219f2a3645626c6578706572696d656e74616cf50037",
  "source": "pragma solidity ^0.4.24;\npragma experimental ABIEncoderV2;\n\nimport \"./PandoApp.sol\";\nimport \"./Specimen.sol\";\n\n\ncontract Branch is PandoApp {\n\n    enum RequestState  { Pending, Valuated, Handled }\n    enum RequestStatus { Open, Merged, Rejected, Cancelled }\n    enum RequestAction { Merge, Reject, Cancel }\n\n    struct Request {\n        Commit        commit;\n        RequestState  state;\n        RequestStatus status;\n    }\n\n    Specimen public specimen;\n    string   public name;\n    bytes32  public head;\n\n    Commit[]  internal history;\n    Request[] internal requests;\n\n\n\n    mapping(bytes32 => Commit) internal commits;\n\n\n    bytes32 constant public SUBMIT_REQUEST_ROLE  = keccak256(\"SUBMIT_REQUEST_ROLE\");\n    bytes32 constant public UPDATE_REQUEST_ROLE  = keccak256(\"UPDATE_REQUEST_ROLE\");\n    bytes32 constant public CANCEL_REQUEST_ROLE  = keccak256(\"VALUATE_REQUEST_ROLE\");\n    bytes32 constant public VALUATE_REQUEST_ROLE = keccak256(\"VALUATE_REQUEST_ROLE\");\n    bytes32 constant public HANDLE_REQUEST_ROLE  = keccak256(\"HANDLE_REQUEST_ROLE\");\n\n\n    // Governance hooks\n    /* uint256 RFC_STAKE = 0;\n    bool    ORIGIN_CAN_CANCEL = true; */\n\n\n    event SubmitRequest(uint256 indexed requestId);\n    event UpdateRequest(uint256 indexed requestId);\n    event CancelRequest(uint256 indexed requestId);\n    event ValuateRequest(uint256 indexed requestId, uint256 value);\n\n    event MergeRequest(uint256 indexed requestId);\n    event RejectRequest(uint256 indexed requestId);\n\n    event NewCommit(bytes32 tt);\n\n\n    function initialize(Specimen _specimen, string _name) onlyInit external {\n        initialized();\n        specimen = _specimen;\n        name     = _name;\n    }\n\n    function submitRequest(string _tree, string _message, bytes _parents) auth(SUBMIT_REQUEST_ROLE) external returns (uint256 requestId) {\n        CID[] memory parents;\n        parents[0] = CID(address(0), bytes32(0));\n\n        return _submitRequest(_tree, _message, parents);\n    }\n\n\n    /* function submitRequest(address _author, uint256 _timestamp, bytes[] _parents, string _tree, uint256 _value) auth(SUBMIT_REQUEST_ROLE) external returns (uint256 requestId) {\n        requestId = _submitRequest(_author, _timestamp, _parents, _tree);\n        require(canValuate(msg.sender, requestId, _value));\n        _valuateRequest(requestId, _value);\n    } */\n\n    /* function submitRequest(address _author, uint256 _timestamp, bytes[] _parents, string _tree, uint256 _value, bool _handle) auth(SUBMIT_REQUEST_ROLE) external returns (uint256 requestId) {\n        requestId = _submitRequest(_author, _timestamp, _parents, _tree);\n        require(canValuate(msg.sender, requestId, _value));\n        _valuateRequest(requestId, _value);\n    } */\n\n    /* function updateRequest(uint256 _requestId, uint256 _timestamp, bytes32[] _parents, string _tree) external {\n        require(canUpdate(msg.sender, _requestId));\n    } */\n\n    function cancelRequest(uint256 _requestId) external {\n\n    }\n\n    function valuateRequest(uint256 _requestId, uint256 _value) external {\n        require(canValuate(msg.sender, _requestId, _value));\n        _valuateRequest(_requestId, _value);\n    }\n\n    function handleRequest(uint256 _requestId, RequestAction _action) auth(HANDLE_REQUEST_ROLE) external {\n        require(canHandle(msg.sender, _requestId, _action));\n        _handleRequest(_requestId, _action);\n    }\n\n    /************************************/\n    /*      ACCESS CONTROL METHODS      */\n    /************************************/\n\n\n    function canUpdate(address _sender, uint256 _requestId) public view returns (bool) {\n        return _isRequestOpen(_requestId) && requests[_requestId].commit.origin == _sender;\n    }\n\n    function canCancel(address _sender, uint256 _requestId) public view returns (bool) {\n        return _isRequestOpen(_requestId) && requests[_requestId].commit.origin == _sender;\n    }\n\n    function canValuate(address _sender, uint256 _requestId, uint256 _value) public view returns (bool) {\n        return _isRequestOpen(_requestId) && (_value == 0 || canPerform(_sender, VALUATE_REQUEST_ROLE, arr()));\n    }\n\n    function canHandle(address _sender, uint256 _requestId, RequestAction _action) public view returns (bool) {\n        /* if((!_isDecisionValid(_decision)))\n            return false; */\n        if(!_isRequestOpen(_requestId))\n            return false;\n        if(_isRequestValuated(_requestId) && canPerform(_sender, HANDLE_REQUEST_ROLE, arr()))\n            return true;\n        if(_action == RequestAction.Reject && canPerform(_sender, HANDLE_REQUEST_ROLE, arr()))\n            return true;\n\n        return false;\n    }\n\n    /****************************/\n    /*      GETTER METHODS      */\n    /****************************/\n\n    function getRequest(uint256 _requestId) public view returns (address origin, uint256 block, string tree, string message, /* bytes parents, */uint256 value, RequestState state, RequestStatus status) {\n\n\n        Request storage request = requests[_requestId];\n        origin  = request.commit.origin;\n        block   = request.commit.block;\n        tree    = request.commit.tree;\n        message = request.commit.message;\n        /* parents = request.commit.parents; */\n        value   = request.commit.value;\n        state   = request.state;\n        status  = request.status;\n    }\n\n    /*\n\n    function getCommit(bytes32 _hash) public view returns (address origin, uint256 block, string tree, string message, CID[] parents, uint256 value) {\n        Commit storage commit = commits[_hash];\n\n        origin    = commit.origin;\n        block     = commit.block;\n        tree      = commit.tree;\n        message   = commit.message;\n        parents   = commit.parents;\n        value     = commit.value;\n    } */\n\n    /* function getHead() public view returns (address origin, uint256 block, string tree, string message, CID[] parents, uint256 value) {\n        return getCommit(head);\n    } */\n\n    /* function head() public view returns (address author, uint256 timestamp, uint256 block, bytes32[] parents, string tree) {\n      Snapshot storage head = heads[heads.length - 1];\n\n      author    = head.author;\n      timestamp = head.timestamp;\n      block     = head.block;\n      parents   = head.parents;\n      tree      = head.tree;\n    } */\n\n    /******************************/\n    /*      INTERNAL METHODS      */\n    /******************************/\n\n    /* struct Commit {\n        address  origin;\n        uint256  block;\n        string   tree;\n        string   message;\n        CID[]    parents;\n        uint256  value;\n    } */\n\n    function _submitRequest(string _tree, string _message, CID[] memory _parents) isInitialized internal returns (uint256 requestId)  {\n        requestId               = requests.length++;\n        Request storage request = requests[requestId];\n\n\n        CID[] memory parents;\n        /* CID memory parent_1 = CID(address(0), bytes32(0)); */\n        /* parents.length++;\n        parents[0] = CID(address(0x0), bytes32(0x0)); */\n\n        /* Commit memory commit = Commit(msg.sender, block.number - 1, _tree, _message, parents, 0); */\n        // initialiser le commit avec un parent vide puis mettre  hjour derrire: il faut que les variables storages soient elles-mmes intialies depuis des variables d'tat !\n\n        request.commit.origin  = msg.sender;\n        request.commit.block   = uint256(0);\n        request.commit.tree    = _tree;\n        request.commit.message = _message;\n        request.commit.value   = uint256(0);\n\n        request.commit.parents.length++;\n\n        request.commit.parents[0] = CID(_parents[0].branch, bytes32(0));\n\n        /*\n        /* request.status = RequestStatus.Open;\n        request.state  = RequestState.Pending; */\n        /* request.commit = Commit(msg.sender, block.number - 1, _tree, _message, CID[], 0); */\n\n        emit SubmitRequest(requestId);\n    }\n\n    function _valuateRequest(uint256 _requestId, uint256 _value) isInitialized internal {\n        requests[_requestId].state        = RequestState.Valuated;\n        requests[_requestId].commit.value = _value;\n        emit ValuateRequest(_requestId, _value);\n    }\n\n    function _handleRequest(uint256 _requestId, RequestAction _action) isInitialized internal {\n        requests[_requestId].state = RequestState.Handled;\n\n        if(_action == RequestAction.Merge) {\n            emit MergeRequest(_requestId);\n            requests[_requestId].status = RequestStatus.Merged;\n\n            bytes32 hash  = commitToHash(requests[_requestId].commit);\n            commits[hash] = requests[_requestId].commit;\n/*\n            uint256 commitId  = history.length++;\n            history[commitId] = requests[_requestId].commit; */\n            emit NewCommit(hash);\n        } else if (_action == RequestAction.Reject) {\n            emit RejectRequest(_requestId);\n            requests[_requestId].status = RequestStatus.Rejected;\n        } else if (_action == RequestAction.Cancel) {\n            emit CancelRequest(_requestId);\n            requests[_requestId].status = RequestStatus.Cancelled;\n        }\n    }\n\n    /*****************************/\n    /*      UTILITY METHODS      */\n    /*****************************/\n\n\n    function _isRequestOpen(uint256 _requestId) internal view returns (bool) {\n        return requests[_requestId].status == RequestStatus.Open;\n    }\n\n    function _isRequestValuated(uint256 _requestId) internal view returns (bool) {\n        return requests[_requestId].state == RequestState.Valuated || requests[_requestId].state == RequestState.Handled;\n    }\n\n    /* function _isDecisionValid(RequestState _decision) internal view returns (bool) {\n        return _decision == RequestState.Accepted || _decision == RequestState.Rejected;\n    } */\n\n\n}\n",
  "sourcePath": "/Users/osarrouy/Documents/dapp/@pando/packages/core/contracts/Branch.sol",
  "compiler": {
    "name": "solc",
    "version": "0.4.24+commit.e67f0147.Emscripten.clang"
  },
  "schemaVersion": "2.0.0",
  "updatedAt": "2018-09-22T11:08:45.229Z"
}