{
  "contractName": "Branch",
  "abi": [
    {
      "constant": true,
      "inputs": [],
      "name": "SUBMIT_RFC_ROLE",
      "outputs": [
        {
          "name": "",
          "type": "bytes32"
        }
      ],
      "payable": false,
      "stateMutability": "view",
      "type": "function"
    },
    {
      "constant": true,
      "inputs": [],
      "name": "name",
      "outputs": [
        {
          "name": "",
          "type": "string"
        }
      ],
      "payable": false,
      "stateMutability": "view",
      "type": "function"
    },
    {
      "constant": true,
      "inputs": [],
      "name": "VALUATE_RFC_ROLE",
      "outputs": [
        {
          "name": "",
          "type": "bytes32"
        }
      ],
      "payable": false,
      "stateMutability": "view",
      "type": "function"
    },
    {
      "constant": true,
      "inputs": [],
      "name": "getRecoveryVault",
      "outputs": [
        {
          "name": "",
          "type": "address"
        }
      ],
      "payable": false,
      "stateMutability": "view",
      "type": "function"
    },
    {
      "constant": true,
      "inputs": [],
      "name": "kit",
      "outputs": [
        {
          "name": "",
          "type": "address"
        }
      ],
      "payable": false,
      "stateMutability": "view",
      "type": "function"
    },
    {
      "constant": true,
      "inputs": [],
      "name": "EVMSCRIPT_REGISTRY_APP_ID",
      "outputs": [
        {
          "name": "",
          "type": "bytes32"
        }
      ],
      "payable": false,
      "stateMutability": "view",
      "type": "function"
    },
    {
      "constant": true,
      "inputs": [],
      "name": "CANCEL_RFC_ROLE",
      "outputs": [
        {
          "name": "",
          "type": "bytes32"
        }
      ],
      "payable": false,
      "stateMutability": "view",
      "type": "function"
    },
    {
      "constant": true,
      "inputs": [
        {
          "name": "token",
          "type": "address"
        }
      ],
      "name": "allowRecoverability",
      "outputs": [
        {
          "name": "",
          "type": "bool"
        }
      ],
      "payable": false,
      "stateMutability": "view",
      "type": "function"
    },
    {
      "constant": true,
      "inputs": [],
      "name": "appId",
      "outputs": [
        {
          "name": "",
          "type": "bytes32"
        }
      ],
      "payable": false,
      "stateMutability": "view",
      "type": "function"
    },
    {
      "constant": true,
      "inputs": [],
      "name": "ETH",
      "outputs": [
        {
          "name": "",
          "type": "address"
        }
      ],
      "payable": false,
      "stateMutability": "view",
      "type": "function"
    },
    {
      "constant": true,
      "inputs": [],
      "name": "getInitializationBlock",
      "outputs": [
        {
          "name": "",
          "type": "uint256"
        }
      ],
      "payable": false,
      "stateMutability": "view",
      "type": "function"
    },
    {
      "constant": true,
      "inputs": [],
      "name": "head",
      "outputs": [
        {
          "name": "",
          "type": "bytes32"
        }
      ],
      "payable": false,
      "stateMutability": "view",
      "type": "function"
    },
    {
      "constant": true,
      "inputs": [],
      "name": "EVMSCRIPT_REGISTRY_APP",
      "outputs": [
        {
          "name": "",
          "type": "bytes32"
        }
      ],
      "payable": false,
      "stateMutability": "view",
      "type": "function"
    },
    {
      "constant": false,
      "inputs": [
        {
          "name": "_token",
          "type": "address"
        }
      ],
      "name": "transferToVault",
      "outputs": [],
      "payable": false,
      "stateMutability": "nonpayable",
      "type": "function"
    },
    {
      "constant": true,
      "inputs": [
        {
          "name": "_sender",
          "type": "address"
        },
        {
          "name": "_role",
          "type": "bytes32"
        },
        {
          "name": "_params",
          "type": "uint256[]"
        }
      ],
      "name": "canPerform",
      "outputs": [
        {
          "name": "",
          "type": "bool"
        }
      ],
      "payable": false,
      "stateMutability": "view",
      "type": "function"
    },
    {
      "constant": true,
      "inputs": [],
      "name": "UPDATE_RFC_ROLE",
      "outputs": [
        {
          "name": "",
          "type": "bytes32"
        }
      ],
      "payable": false,
      "stateMutability": "view",
      "type": "function"
    },
    {
      "constant": true,
      "inputs": [],
      "name": "kernel",
      "outputs": [
        {
          "name": "",
          "type": "address"
        }
      ],
      "payable": false,
      "stateMutability": "view",
      "type": "function"
    },
    {
      "constant": true,
      "inputs": [],
      "name": "specimen",
      "outputs": [
        {
          "name": "",
          "type": "address"
        }
      ],
      "payable": false,
      "stateMutability": "view",
      "type": "function"
    },
    {
      "constant": true,
      "inputs": [],
      "name": "SORT_RFC_ROLE",
      "outputs": [
        {
          "name": "",
          "type": "bytes32"
        }
      ],
      "payable": false,
      "stateMutability": "view",
      "type": "function"
    },
    {
      "constant": true,
      "inputs": [
        {
          "name": "_script",
          "type": "bytes"
        }
      ],
      "name": "getExecutor",
      "outputs": [
        {
          "name": "",
          "type": "address"
        }
      ],
      "payable": false,
      "stateMutability": "view",
      "type": "function"
    },
    {
      "anonymous": false,
      "inputs": [
        {
          "indexed": true,
          "name": "rfcId",
          "type": "uint256"
        }
      ],
      "name": "SubmitRFC",
      "type": "event"
    },
    {
      "anonymous": false,
      "inputs": [
        {
          "indexed": true,
          "name": "rfcId",
          "type": "uint256"
        }
      ],
      "name": "UpdateRFC",
      "type": "event"
    },
    {
      "anonymous": false,
      "inputs": [
        {
          "indexed": true,
          "name": "rfcId",
          "type": "uint256"
        },
        {
          "indexed": false,
          "name": "value",
          "type": "uint256"
        }
      ],
      "name": "ValuateRFC",
      "type": "event"
    },
    {
      "anonymous": false,
      "inputs": [
        {
          "indexed": true,
          "name": "rfcId",
          "type": "uint256"
        }
      ],
      "name": "MergeRFC",
      "type": "event"
    },
    {
      "anonymous": false,
      "inputs": [
        {
          "indexed": true,
          "name": "rfcId",
          "type": "uint256"
        }
      ],
      "name": "RejectRFC",
      "type": "event"
    },
    {
      "anonymous": false,
      "inputs": [
        {
          "indexed": true,
          "name": "rfcId",
          "type": "uint256"
        }
      ],
      "name": "CancelRFC",
      "type": "event"
    },
    {
      "anonymous": false,
      "inputs": [
        {
          "indexed": false,
          "name": "hash",
          "type": "bytes32"
        }
      ],
      "name": "MergeCommit",
      "type": "event"
    },
    {
      "anonymous": false,
      "inputs": [
        {
          "indexed": true,
          "name": "executor",
          "type": "address"
        },
        {
          "indexed": false,
          "name": "script",
          "type": "bytes"
        },
        {
          "indexed": false,
          "name": "input",
          "type": "bytes"
        },
        {
          "indexed": false,
          "name": "returnData",
          "type": "bytes"
        }
      ],
      "name": "ScriptResult",
      "type": "event"
    },
    {
      "constant": false,
      "inputs": [
        {
          "name": "_specimen",
          "type": "address"
        },
        {
          "name": "_name",
          "type": "string"
        }
      ],
      "name": "initialize",
      "outputs": [],
      "payable": false,
      "stateMutability": "nonpayable",
      "type": "function"
    },
    {
      "constant": false,
      "inputs": [
        {
          "name": "_tree",
          "type": "string"
        },
        {
          "name": "_message",
          "type": "string"
        },
        {
          "name": "_parents",
          "type": "bytes"
        }
      ],
      "name": "submitRFC",
      "outputs": [
        {
          "name": "rfcId",
          "type": "uint256"
        }
      ],
      "payable": false,
      "stateMutability": "nonpayable",
      "type": "function"
    },
    {
      "constant": false,
      "inputs": [
        {
          "name": "_rfcId",
          "type": "uint256"
        },
        {
          "name": "_value",
          "type": "uint256"
        }
      ],
      "name": "valuateRFC",
      "outputs": [],
      "payable": false,
      "stateMutability": "nonpayable",
      "type": "function"
    },
    {
      "constant": false,
      "inputs": [
        {
          "name": "_rfcId",
          "type": "uint256"
        },
        {
          "name": "_sorting",
          "type": "uint8"
        }
      ],
      "name": "sortRFC",
      "outputs": [],
      "payable": false,
      "stateMutability": "nonpayable",
      "type": "function"
    },
    {
      "constant": true,
      "inputs": [
        {
          "name": "_sender",
          "type": "address"
        },
        {
          "name": "_rfcId",
          "type": "uint256"
        }
      ],
      "name": "canUpdate",
      "outputs": [
        {
          "name": "",
          "type": "bool"
        }
      ],
      "payable": false,
      "stateMutability": "view",
      "type": "function"
    },
    {
      "constant": true,
      "inputs": [
        {
          "name": "_sender",
          "type": "address"
        },
        {
          "name": "_rfcId",
          "type": "uint256"
        },
        {
          "name": "_value",
          "type": "uint256"
        }
      ],
      "name": "canValuate",
      "outputs": [
        {
          "name": "",
          "type": "bool"
        }
      ],
      "payable": false,
      "stateMutability": "view",
      "type": "function"
    },
    {
      "constant": true,
      "inputs": [
        {
          "name": "_sender",
          "type": "address"
        },
        {
          "name": "_rfcId",
          "type": "uint256"
        },
        {
          "name": "_action",
          "type": "uint8"
        }
      ],
      "name": "canSort",
      "outputs": [
        {
          "name": "",
          "type": "bool"
        }
      ],
      "payable": false,
      "stateMutability": "view",
      "type": "function"
    },
    {
      "constant": true,
      "inputs": [
        {
          "name": "_rfcId",
          "type": "uint256"
        }
      ],
      "name": "getRFC",
      "outputs": [
        {
          "name": "origin",
          "type": "address"
        },
        {
          "name": "block",
          "type": "uint256"
        },
        {
          "name": "tree",
          "type": "string"
        },
        {
          "name": "message",
          "type": "string"
        },
        {
          "name": "parents",
          "type": "bytes"
        },
        {
          "name": "value",
          "type": "uint256"
        },
        {
          "name": "state",
          "type": "uint8"
        },
        {
          "name": "status",
          "type": "uint8"
        }
      ],
      "payable": false,
      "stateMutability": "view",
      "type": "function"
    },
    {
      "constant": true,
      "inputs": [
        {
          "name": "_hash",
          "type": "bytes32"
        }
      ],
      "name": "getCommit",
      "outputs": [
        {
          "name": "origin",
          "type": "address"
        },
        {
          "name": "block",
          "type": "uint256"
        },
        {
          "name": "tree",
          "type": "string"
        },
        {
          "name": "message",
          "type": "string"
        },
        {
          "name": "parents",
          "type": "bytes"
        },
        {
          "name": "value",
          "type": "uint256"
        }
      ],
      "payable": false,
      "stateMutability": "view",
      "type": "function"
    },
    {
      "constant": true,
      "inputs": [],
      "name": "getHead",
      "outputs": [
        {
          "name": "origin",
          "type": "address"
        },
        {
          "name": "block",
          "type": "uint256"
        },
        {
          "name": "tree",
          "type": "string"
        },
        {
          "name": "message",
          "type": "string"
        },
        {
          "name": "parents",
          "type": "bytes"
        },
        {
          "name": "value",
          "type": "uint256"
        }
      ],
      "payable": false,
      "stateMutability": "view",
      "type": "function"
    }
  ],
  "bytecode": "0x608060405234801561001057600080fd5b5061360e806100206000396000f300608060405260043610610180576000357c0100000000000000000000000000000000000000000000000000000000900463ffffffff1680630378ffb91461018557806306fdde03146101b0578063164ed7b1146101db5780631f1545b01461020657806332f0a3b51461024357806340a1f55a1461026e57806352acf69a1461029957806360b1e057146102d65780637dc899c5146103015780637e7db6e11461032c578063802f7bf51461036957806380afdea8146103925780638322fff2146103bd5780638784ea96146103e85780638b3dd7491461042a5780638f7dcfa31461045557806395082bf5146104805780639b3fdf4c146104bd5780639d4941d8146104e8578063a1658fad14610511578063ac4c0d711461054e578063c74836fc14610579578063d4aae0c4146105a2578063d747b678146105cd578063d8359bae1461060a578063dc281aff1461064e578063e5477fe91461067e578063ec911bba146106a9578063f399e22e146106d4578063f92a79ff146106fd575b600080fd5b34801561019157600080fd5b5061019a61073a565b6040516101a79190613277565b60405180910390f35b3480156101bc57600080fd5b506101c5610773565b6040516101d2919061333b565b60405180910390f35b3480156101e757600080fd5b506101f0610811565b6040516101fd9190613277565b60405180910390f35b34801561021257600080fd5b5061022d60048036036102289190810190612e0e565b61084a565b60405161023a919061335d565b60405180910390f35b34801561024f57600080fd5b50610258610976565b60405161026591906130c3565b60405180910390f35b34801561027a57600080fd5b50610283610a80565b60405161029091906132b4565b60405180910390f35b3480156102a557600080fd5b506102c060048036036102bb9190810190612c20565b610aa6565b6040516102cd919061325c565b60405180910390f35b3480156102e257600080fd5b506102eb610b33565b6040516102f89190613277565b60405180910390f35b34801561030d57600080fd5b50610316610b5a565b6040516103239190613277565b60405180910390f35b34801561033857600080fd5b50610353600480360361034e9190810190612b67565b610b93565b604051610360919061325c565b60405180910390f35b34801561037557600080fd5b50610390600480360361038b9190810190612f40565b610b9e565b005b34801561039e57600080fd5b506103a7610bc2565b6040516103b49190613277565b60405180910390f35b3480156103c957600080fd5b506103d2610bc8565b6040516103df91906130c3565b60405180910390f35b3480156103f457600080fd5b5061040f600480360361040a9190810190612d23565b610bcd565b60405161042196959493929190613153565b60405180910390f35b34801561043657600080fd5b5061043f610e11565b60405161044c919061335d565b60405180910390f35b34801561046157600080fd5b5061046a610e1b565b6040516104779190613277565b60405180910390f35b34801561048c57600080fd5b506104a760048036036104a29190810190612c5c565b610e21565b6040516104b4919061325c565b60405180910390f35b3480156104c957600080fd5b506104d2610f23565b6040516104df9190613277565b60405180910390f35b3480156104f457600080fd5b5061050f600480360361050a9190810190612b67565b610f4a565b005b34801561051d57600080fd5b5061053860048036036105339190810190612bb9565b611170565b604051610545919061325c565b60405180910390f35b34801561055a57600080fd5b506105636112a8565b6040516105709190613277565b60405180910390f35b34801561058557600080fd5b506105a0600480360361059b9190810190612f04565b6112e1565b005b3480156105ae57600080fd5b506105b7611305565b6040516105c491906132ea565b60405180910390f35b3480156105d957600080fd5b506105f460048036036105ef9190810190612cab565b61132a565b604051610601919061325c565b60405180910390f35b34801561061657600080fd5b50610631600480360361062c9190810190612eb2565b611398565b6040516106459897969594939291906131c9565b60405180910390f35b34801561065a57600080fd5b5061066361161d565b60405161067596959493929190613153565b60405180910390f35b34801561068a57600080fd5b50610693611646565b6040516106a09190613305565b60405180910390f35b3480156106b557600080fd5b506106be61166c565b6040516106cb9190613277565b60405180910390f35b3480156106e057600080fd5b506106fb60048036036106f69190810190612db6565b6116a5565b005b34801561070957600080fd5b50610724600480360361071f9190810190612d4c565b611716565b60405161073191906132cf565b60405180910390f35b60405180807f5355424d49545f5246435f524f4c450000000000000000000000000000000000815250600f019050604051809103902081565b60648054600181600116156101000203166002900480601f0160208091040260200160405190810160405280929190818152602001828054600181600116156101000203166002900480156108095780601f106107de57610100808354040283529160200191610809565b820191906000526020600020905b8154815290600101906020018083116107ec57829003601f168201915b505050505081565b60405180807f56414c554154455f5246435f524f4c45000000000000000000000000000000008152506010019050604051809103902081565b600060405180807f5355424d49545f5246435f524f4c450000000000000000000000000000000000815250600f01905060405180910390206108bd338260006040519080825280602002602001820160405280156108b75781602001602082028038833980820191505090505b50611170565b15156108c857600080fd5b61096988888080601f01602080910402602001604051908101604052809392919081815260200183838082843782019150505050505087878080601f01602080910402602001604051908101604052809392919081815260200183838082843782019150505050505086868080601f0160208091040260200160405190810160405280939291908181526020018383808284378201915050505050506117cd565b9150509695505050505050565b6000806000809054906101000a900473ffffffffffffffffffffffffffffffffffffffff1673ffffffffffffffffffffffffffffffffffffffff16141515156109be57600080fd5b6000809054906101000a900473ffffffffffffffffffffffffffffffffffffffff1673ffffffffffffffffffffffffffffffffffffffff166332f0a3b56040518163ffffffff167c0100000000000000000000000000000000000000000000000000000000028152600401602060405180830381600087803b158015610a4357600080fd5b505af1158015610a57573d6000803e3d6000fd5b505050506040513d601f19601f82011682018060405250610a7b9190810190612b90565b905090565b606660009054906101000a900473ffffffffffffffffffffffffffffffffffffffff1681565b6000610ab182611996565b8015610b2b57508273ffffffffffffffffffffffffffffffffffffffff16606883815481101515610ade57fe5b906000526020600020906007020160000160000160009054906101000a900473ffffffffffffffffffffffffffffffffffffffff1673ffffffffffffffffffffffffffffffffffffffff16145b905092915050565b7fddbcfd564f642ab5627cf68b9b7d374fb4f8a36e941a75d89c87998cef03bd6160010281565b60405180807f56414c554154455f5246435f524f4c45000000000000000000000000000000008152506010019050604051809103902081565b600060019050919050565b610ba933838361132a565b1515610bb457600080fd5b610bbe82826119e5565b5050565b60015481565b600081565b600080606080606060008060696000896000191660001916815260200190815260200160002090508060000160009054906101000a900473ffffffffffffffffffffffffffffffffffffffff16965080600101549550806002018054600181600116156101000203166002900480601f016020809104026020016040519081016040528092919081815260200182805460018160011615610100020316600290048015610cbb5780601f10610c9057610100808354040283529160200191610cbb565b820191906000526020600020905b815481529060010190602001808311610c9e57829003601f168201915b50505050509450806003018054600181600116156101000203166002900480601f016020809104026020016040519081016040528092919081815260200182805460018160011615610100020316600290048015610d5a5780601f10610d2f57610100808354040283529160200191610d5a565b820191906000526020600020905b815481529060010190602001808311610d3d57829003601f168201915b50505050509350806004018054600181600116156101000203166002900480601f016020809104026020016040519081016040528092919081815260200182805460018160011615610100020316600290048015610df95780601f10610dce57610100808354040283529160200191610df9565b820191906000526020600020905b815481529060010190602001808311610ddc57829003601f168201915b50505050509250806005015491505091939550919395565b6000600354905090565b60675481565b6000610e2c83611996565b1515610e3b5760009050610f1c565b610e4483611a9c565b8015610e935750610e928460405180807f48414e444c455f5246435f524f4c450000000000000000000000000000000000815250600f0190506040518091039020610e8d611b39565b611170565b5b15610ea15760019050610f1c565b600180811115610ead57fe5b826001811115610eb957fe5b148015610f095750610f088460405180807f48414e444c455f5246435f524f4c450000000000000000000000000000000000815250600f0190506040518091039020610f03611b39565b611170565b5b15610f175760019050610f1c565b600090505b9392505050565b7f34f01c17e9be6ddbf2c61f37b5b1fb9f1a090a975006581ad19bda1c4d38287160010281565b600080610f5683610b93565b1515610f6157600080fd5b610f69610976565b9150610f7482611b3e565b1515610f7f57600080fd5b600073ffffffffffffffffffffffffffffffffffffffff168373ffffffffffffffffffffffffffffffffffffffff161415611017578173ffffffffffffffffffffffffffffffffffffffff166108fc3073ffffffffffffffffffffffffffffffffffffffff16319081150290604051600060405180830381858888f19350505050158015611011573d6000803e3d6000fd5b5061116b565b8273ffffffffffffffffffffffffffffffffffffffff166370a08231306040518263ffffffff167c010000000000000000000000000000000000000000000000000000000002815260040161106c9190613320565b602060405180830381600087803b15801561108657600080fd5b505af115801561109a573d6000803e3d6000fd5b505050506040513d601f19601f820116820180604052506110be9190810190612edb565b90508273ffffffffffffffffffffffffffffffffffffffff1663a9059cbb83836040518363ffffffff167c010000000000000000000000000000000000000000000000000000000002815260040161111792919061312a565b602060405180830381600087803b15801561113157600080fd5b505af1158015611145573d6000803e3d6000fd5b505050506040513d601f19601f820116820180604052506111699190810190612cfa565b505b505050565b600060606000808451111561118d57602084510290508391508082525b60008060009054906101000a900473ffffffffffffffffffffffffffffffffffffffff1673ffffffffffffffffffffffffffffffffffffffff16148061129d57506000809054906101000a900473ffffffffffffffffffffffffffffffffffffffff1673ffffffffffffffffffffffffffffffffffffffff1663fdef9106873088866040518563ffffffff167c010000000000000000000000000000000000000000000000000000000002815260040161124a94939291906130de565b602060405180830381600087803b15801561126457600080fd5b505af1158015611278573d6000803e3d6000fd5b505050506040513d601f19601f8201168201806040525061129c9190810190612cfa565b5b925050509392505050565b60405180807f5550444154455f5246435f524f4c450000000000000000000000000000000000815250600f019050604051809103902081565b6112ec338383610e21565b15156112f757600080fd5b6113018282611b90565b5050565b6000809054906101000a900473ffffffffffffffffffffffffffffffffffffffff1681565b600061133583611996565b801561138f5750600082148061138e575061138d8460405180807f56414c554154455f5246435f524f4c450000000000000000000000000000000081525060100190506040518091039020611388611b39565b611170565b5b5b90509392505050565b600080606080606060008060008060688a8154811015156113b557fe5b906000526020600020906007020190508060000160000160009054906101000a900473ffffffffffffffffffffffffffffffffffffffff16985080600001600101549750806000016002018054600181600116156101000203166002900480601f0160208091040260200160405190810160405280929190818152602001828054600181600116156101000203166002900480156114945780601f1061146957610100808354040283529160200191611494565b820191906000526020600020905b81548152906001019060200180831161147757829003601f168201915b50505050509650806000016003018054600181600116156101000203166002900480601f0160208091040260200160405190810160405280929190818152602001828054600181600116156101000203166002900480156115365780601f1061150b57610100808354040283529160200191611536565b820191906000526020600020905b81548152906001019060200180831161151957829003601f168201915b50505050509550806000016004018054600181600116156101000203166002900480601f0160208091040260200160405190810160405280929190818152602001828054600181600116156101000203166002900480156115d85780601f106115ad576101008083540402835291602001916115d8565b820191906000526020600020905b8154815290600101906020018083116115bb57829003601f168201915b50505050509450806000016005015493508060060160009054906101000a900460ff1692508060060160019054906101000a900460ff16915050919395975091939597565b60008060608060606000611632606754610bcd565b955095509550955095509550909192939495565b606560009054906101000a900473ffffffffffffffffffffffffffffffffffffffff1681565b60405180807f48414e444c455f5246435f524f4c450000000000000000000000000000000000815250600f019050604051809103902081565b60006003541415156116b657600080fd5b6116be612209565b82606560006101000a81548173ffffffffffffffffffffffffffffffffffffffff021916908373ffffffffffffffffffffffffffffffffffffffff160217905550818160649190611710929190612516565b50505050565b600061172061222a565b73ffffffffffffffffffffffffffffffffffffffff166304bf2a7f836040518263ffffffff167c01000000000000000000000000000000000000000000000000000000000281526004016117749190613292565b602060405180830381600087803b15801561178e57600080fd5b505af11580156117a2573d6000803e3d6000fd5b505050506040513d601f19601f820116820180604052506117c69190810190612d8d565b9050919050565b60008060006003541115156117e157600080fd5b606880548091906001016117f59190612596565b915060688281548110151561180657fe5b9060005260206000209060070201905060008160060160016101000a81548160ff0219169083600381111561183757fe5b021790555060008160060160006101000a81548160ff0219169083600281111561185d57fe5b021790555060c0604051908101604052803373ffffffffffffffffffffffffffffffffffffffff1681526020016000815260200186815260200185815260200184815260200160008152508160000160008201518160000160006101000a81548173ffffffffffffffffffffffffffffffffffffffff021916908373ffffffffffffffffffffffffffffffffffffffff1602179055506020820151816001015560408201518160020190805190602001906119199291906125c8565b5060608201518160030190805190602001906119369291906125c8565b506080820151816004019080519060200190611953929190612648565b5060a08201518160050155905050817f07b73166689bc46a6f4686c0f9289ac152a55c08c8840e9f5886813ece3e1e8d60405160405180910390a2509392505050565b60008060038111156119a457fe5b6068838154811015156119b357fe5b906000526020600020906007020160060160019054906101000a900460ff1660038111156119dd57fe5b149050919050565b60006003541115156119f657600080fd5b6001606883815481101515611a0757fe5b906000526020600020906007020160060160006101000a81548160ff02191690836002811115611a3357fe5b021790555080606883815481101515611a4857fe5b906000526020600020906007020160000160050181905550817f0fd8f2ea1ecf6d50ad333673cb701047eb1917fc56bafa21b999c469bb2291e982604051611a90919061335d565b60405180910390a25050565b600060016002811115611aab57fe5b606883815481101515611aba57fe5b906000526020600020906007020160060160009054906101000a900460ff166002811115611ae457fe5b1480611b325750600280811115611af757fe5b606883815481101515611b0657fe5b906000526020600020906007020160060160009054906101000a900460ff166002811115611b3057fe5b145b9050919050565b606090565b600080600073ffffffffffffffffffffffffffffffffffffffff168373ffffffffffffffffffffffffffffffffffffffff161415611b7f5760009150611b8a565b823b90506000811191505b50919050565b600080600354111515611ba257600080fd5b6002606884815481101515611bb357fe5b906000526020600020906007020160060160006101000a81548160ff02191690836002811115611bdf57fe5b021790555060006001811115611bf157fe5b826001811115611bfd57fe5b1415612175576001606884815481101515611c1457fe5b906000526020600020906007020160060160016101000a81548160ff02191690836003811115611c4057fe5b021790555060014303606884815481101515611c5857fe5b906000526020600020906007020160000160010181905550611ef4606884815481101515611c8257fe5b906000526020600020906007020160000160c060405190810160405290816000820160009054906101000a900473ffffffffffffffffffffffffffffffffffffffff1673ffffffffffffffffffffffffffffffffffffffff1673ffffffffffffffffffffffffffffffffffffffff16815260200160018201548152602001600282018054600181600116156101000203166002900480601f016020809104026020016040519081016040528092919081815260200182805460018160011615610100020316600290048015611d985780601f10611d6d57610100808354040283529160200191611d98565b820191906000526020600020905b815481529060010190602001808311611d7b57829003601f168201915b50505050508152602001600382018054600181600116156101000203166002900480601f016020809104026020016040519081016040528092919081815260200182805460018160011615610100020316600290048015611e3a5780601f10611e0f57610100808354040283529160200191611e3a565b820191906000526020600020905b815481529060010190602001808311611e1d57829003601f168201915b50505050508152602001600482018054600181600116156101000203166002900480601f016020809104026020016040519081016040528092919081815260200182805460018160011615610100020316600290048015611edc5780601f10611eb157610100808354040283529160200191611edc565b820191906000526020600020905b815481529060010190602001808311611ebf57829003601f168201915b50505050508152602001600582015481525050612321565b9050606883815481101515611f0557fe5b90600052602060002090600702016000016069600083600019166000191681526020019081526020016000206000820160009054906101000a900473ffffffffffffffffffffffffffffffffffffffff168160000160006101000a81548173ffffffffffffffffffffffffffffffffffffffff021916908373ffffffffffffffffffffffffffffffffffffffff1602179055506001820154816001015560028201816002019080546001816001161561010002031660029004611fc99291906126c8565b5060038201816003019080546001816001161561010002031660029004611ff19291906126c8565b506004820181600401908054600181600116156101000203166002900461201992919061274f565b50600582015481600501559050508060678160001916905550606560009054906101000a900473ffffffffffffffffffffffffffffffffffffffff1673ffffffffffffffffffffffffffffffffffffffff1663d571409160688581548110151561207f57fe5b906000526020600020906007020160000160000160009054906101000a900473ffffffffffffffffffffffffffffffffffffffff166068868154811015156120c357fe5b9060005260206000209060070201600001600501546040518363ffffffff167c010000000000000000000000000000000000000000000000000000000002815260040161211192919061312a565b600060405180830381600087803b15801561212b57600080fd5b505af115801561213f573d6000803e3d6000fd5b50505050827f3e22f357abbdbaad458753419492818fa43889f9116570c3e4ba0941691a44ec60405160405180910390a2612204565b60018081111561218157fe5b82600181111561218d57fe5b14156122035760026068848154811015156121a457fe5b906000526020600020906007020160060160016101000a81548160ff021916908360038111156121d057fe5b0217905550827fa510007d6cc95bb234b911bd52cefb9f138a7c5998ef87dcee089ad6d7454ffa60405160405180910390a25b5b505050565b600060035414151561221a57600080fd5b61222261250e565b600381905550565b6000806000809054906101000a900473ffffffffffffffffffffffffffffffffffffffff1673ffffffffffffffffffffffffffffffffffffffff166342c71f1d7f34f01c17e9be6ddbf2c61f37b5b1fb9f1a090a975006581ad19bda1c4d3828716001026040518263ffffffff167c01000000000000000000000000000000000000000000000000000000000281526004016122c69190613277565b602060405180830381600087803b1580156122e057600080fd5b505af11580156122f4573d6000803e3d6000fd5b505050506040513d601f19601f820116820180604052506123189190810190612b90565b90508091505090565b6000816000015182602001518360400151846060015185608001518660a00151604051602001808773ffffffffffffffffffffffffffffffffffffffff1673ffffffffffffffffffffffffffffffffffffffff166c0100000000000000000000000002815260140186815260200185805190602001908083835b6020831015156123c0578051825260208201915060208101905060208303925061239b565b6001836020036101000a03801982511681845116808217855250505050505090500184805190602001908083835b60208310151561241357805182526020820191506020810190506020830392506123ee565b6001836020036101000a03801982511681845116808217855250505050505090500183805190602001908083835b6020831015156124665780518252602082019150602081019050602083039250612441565b6001836020036101000a03801982511681845116808217855250505050505090500182815260200196505050505050506040516020818303038152906040526040518082805190602001908083835b6020831015156124da57805182526020820191506020810190506020830392506124b5565b6001836020036101000a03801982511681845116808217855250505050505090500191505060405180910390209050919050565b600043905090565b828054600181600116156101000203166002900490600052602060002090601f016020900481019282601f1061255757803560ff1916838001178555612585565b82800160010185558215612585579182015b82811115612584578235825591602001919060010190612569565b5b50905061259291906127d6565b5090565b8154818355818111156125c3576007028160070283600052602060002091820191016125c291906127fb565b5b505050565b828054600181600116156101000203166002900490600052602060002090601f016020900481019282601f1061260957805160ff1916838001178555612637565b82800160010185558215612637579182015b8281111561263657825182559160200191906001019061261b565b5b50905061264491906127d6565b5090565b828054600181600116156101000203166002900490600052602060002090601f016020900481019282601f1061268957805160ff19168380011785556126b7565b828001600101855582156126b7579182015b828111156126b657825182559160200191906001019061269b565b5b5090506126c491906127d6565b5090565b828054600181600116156101000203166002900490600052602060002090601f016020900481019282601f10612701578054855561273e565b8280016001018555821561273e57600052602060002091601f016020900482015b8281111561273d578254825591600101919060010190612722565b5b50905061274b91906127d6565b5090565b828054600181600116156101000203166002900490600052602060002090601f016020900481019282601f1061278857805485556127c5565b828001600101855582156127c557600052602060002091601f016020900482015b828111156127c45782548255916001019190600101906127a9565b5b5090506127d291906127d6565b5090565b6127f891905b808211156127f45760008160009055506001016127dc565b5090565b90565b6128ad91905b808211156128a9576000808201600080820160006101000a81549073ffffffffffffffffffffffffffffffffffffffff0219169055600182016000905560028201600061284e91906128b0565b60038201600061285e91906128b0565b60048201600061286e91906128f8565b600582016000905550506006820160006101000a81549060ff02191690556006820160016101000a81549060ff021916905550600701612801565b5090565b90565b50805460018160011615610100020316600290046000825580601f106128d657506128f5565b601f0160209004906000526020600020908101906128f491906127d6565b5b50565b50805460018160011615610100020316600290046000825580601f1061291e575061293d565b601f01602090049060005260206000209081019061293c91906127d6565b5b50565b600061294c8235613486565b905092915050565b60006129608251613486565b905092915050565b600082601f830112151561297b57600080fd5b813561298e612989826133a5565b613378565b915081818352602084019350602081019050838560208402820111156129b357600080fd5b60005b838110156129e357816129c98882612b3f565b8452602084019350602083019250506001810190506129b6565b5050505092915050565b60006129f982516134a6565b905092915050565b6000612a0d82356134b2565b905092915050565b60008083601f8401121515612a2957600080fd5b8235905067ffffffffffffffff811115612a4257600080fd5b602083019150836001820283011115612a5a57600080fd5b9250929050565b600082601f8301121515612a7457600080fd5b8135612a87612a82826133cd565b613378565b91508082526020830160208301858383011115612aa357600080fd5b612aae838284613581565b50505092915050565b6000612ac382516134bc565b905092915050565b6000612ad782356134ce565b905092915050565b6000612aeb82356134e0565b905092915050565b60008083601f8401121515612b0757600080fd5b8235905067ffffffffffffffff811115612b2057600080fd5b602083019150836001820283011115612b3857600080fd5b9250929050565b6000612b4b82356134f9565b905092915050565b6000612b5f82516134f9565b905092915050565b600060208284031215612b7957600080fd5b6000612b8784828501612940565b91505092915050565b600060208284031215612ba257600080fd5b6000612bb084828501612954565b91505092915050565b600080600060608486031215612bce57600080fd5b6000612bdc86828701612940565b9350506020612bed86828701612a01565b925050604084013567ffffffffffffffff811115612c0a57600080fd5b612c1686828701612968565b9150509250925092565b60008060408385031215612c3357600080fd5b6000612c4185828601612940565b9250506020612c5285828601612b3f565b9150509250929050565b600080600060608486031215612c7157600080fd5b6000612c7f86828701612940565b9350506020612c9086828701612b3f565b9250506040612ca186828701612adf565b9150509250925092565b600080600060608486031215612cc057600080fd5b6000612cce86828701612940565b9350506020612cdf86828701612b3f565b9250506040612cf086828701612b3f565b9150509250925092565b600060208284031215612d0c57600080fd5b6000612d1a848285016129ed565b91505092915050565b600060208284031215612d3557600080fd5b6000612d4384828501612a01565b91505092915050565b600060208284031215612d5e57600080fd5b600082013567ffffffffffffffff811115612d7857600080fd5b612d8484828501612a61565b91505092915050565b600060208284031215612d9f57600080fd5b6000612dad84828501612ab7565b91505092915050565b600080600060408486031215612dcb57600080fd5b6000612dd986828701612acb565b935050602084013567ffffffffffffffff811115612df657600080fd5b612e0286828701612af3565b92509250509250925092565b60008060008060008060608789031215612e2757600080fd5b600087013567ffffffffffffffff811115612e4157600080fd5b612e4d89828a01612af3565b9650965050602087013567ffffffffffffffff811115612e6c57600080fd5b612e7889828a01612af3565b9450945050604087013567ffffffffffffffff811115612e9757600080fd5b612ea389828a01612a15565b92509250509295509295509295565b600060208284031215612ec457600080fd5b6000612ed284828501612b3f565b91505092915050565b600060208284031215612eed57600080fd5b6000612efb84828501612b53565b91505092915050565b60008060408385031215612f1757600080fd5b6000612f2585828601612b3f565b9250506020612f3685828601612adf565b9150509250929050565b60008060408385031215612f5357600080fd5b6000612f6185828601612b3f565b9250506020612f7285828601612b3f565b9150509250929050565b612f858161341a565b82525050565b612f948161343a565b82525050565b612fa381613446565b82525050565b6000612fb4826133f9565b808452612fc8816020860160208601613590565b612fd1816135c3565b602085010191505092915050565b612fe881613503565b82525050565b612ff781613515565b82525050565b61300681613527565b82525050565b61301581613539565b82525050565b6130248161354b565b82525050565b6130338161355d565b82525050565b6130428161356f565b82525050565b60006130538261340f565b808452613067816020860160208601613590565b613070816135c3565b602085010191505092915050565b600061308982613404565b80845261309d816020860160208601613590565b6130a6816135c3565b602085010191505092915050565b6130bd8161347c565b82525050565b60006020820190506130d86000830184612f7c565b92915050565b60006080820190506130f36000830187612f7c565b6131006020830186612f7c565b61310d6040830185612f9a565b818103606083015261311f8184612fa9565b905095945050505050565b600060408201905061313f6000830185612f7c565b61314c60208301846130b4565b9392505050565b600060c0820190506131686000830189612f7c565b61317560208301886130b4565b81810360408301526131878187613048565b9050818103606083015261319b8186613048565b905081810360808301526131af8185612fa9565b90506131be60a08301846130b4565b979650505050505050565b6000610100820190506131df600083018b612f7c565b6131ec602083018a6130b4565b81810360408301526131fe8189613048565b905081810360608301526132128188613048565b905081810360808301526132268187612fa9565b905061323560a08301866130b4565b61324260c083018561302a565b61324f60e0830184613039565b9998505050505050505050565b60006020820190506132716000830184612f8b565b92915050565b600060208201905061328c6000830184612f9a565b92915050565b600060208201905081810360008301526132ac8184612fa9565b905092915050565b60006020820190506132c96000830184612fdf565b92915050565b60006020820190506132e46000830184612fee565b92915050565b60006020820190506132ff6000830184612ffd565b92915050565b600060208201905061331a600083018461300c565b92915050565b6000602082019050613335600083018461301b565b92915050565b60006020820190508181036000830152613355818461307e565b905092915050565b600060208201905061337260008301846130b4565b92915050565b6000604051905081810181811067ffffffffffffffff8211171561339b57600080fd5b8060405250919050565b600067ffffffffffffffff8211156133bc57600080fd5b602082029050602081019050919050565b600067ffffffffffffffff8211156133e457600080fd5b601f19601f8301169050602081019050919050565b600081519050919050565b600081519050919050565b600081519050919050565b600073ffffffffffffffffffffffffffffffffffffffff82169050919050565b60008115159050919050565b6000819050919050565b600060038210151561345e57fe5b819050919050565b600060048210151561347457fe5b819050919050565b6000819050919050565b600073ffffffffffffffffffffffffffffffffffffffff82169050919050565b60008115159050919050565b6000819050919050565b60006134c78261341a565b9050919050565b60006134d98261341a565b9050919050565b60006002821015156134f157600080fd5b819050919050565b6000819050919050565b600061350e8261341a565b9050919050565b60006135208261341a565b9050919050565b60006135328261341a565b9050919050565b60006135448261341a565b9050919050565b60006135568261341a565b9050919050565b600061356882613450565b9050919050565b600061357a82613466565b9050919050565b82818337600083830152505050565b60005b838110156135ae578082015181840152602081019050613593565b838111156135bd576000848401525b50505050565b6000601f19601f83011690509190505600a265627a7a723058200717f0650297edfc414e7c393242df4796a2c2930d5ca6c1507615a0f607dffb6c6578706572696d656e74616cf50037",
  "source": "pragma solidity ^0.4.24;\npragma experimental ABIEncoderV2;\n\nimport \"./PandoApp.sol\";\nimport \"./Specimen.sol\";\nimport \"./BranchKit/BranchKit.sol\";\n\n\ncontract Branch is PandoApp {\n\n\n    string    public name;\n    Specimen  public specimen;\n    BranchKit public kit;\n    bytes32   public head;\n\n    RFC[] internal rfcs;\n    mapping(bytes32 => Commit) internal commits;\n\n\n    bytes32 constant public SUBMIT_RFC_ROLE  = keccak256(\"SUBMIT_RFC_ROLE\");\n    bytes32 constant public UPDATE_RFC_ROLE  = keccak256(\"UPDATE_RFC_ROLE\");\n    bytes32 constant public CANCEL_RFC_ROLE  = keccak256(\"VALUATE_RFC_ROLE\");\n    bytes32 constant public VALUATE_RFC_ROLE = keccak256(\"VALUATE_RFC_ROLE\");\n    bytes32 constant public SORT_RFC_ROLE    = keccak256(\"HANDLE_RFC_ROLE\");\n\n\n\n    // Governance hooks\n    /* uint256 RFC_STAKE = 0;\n    bool    ORIGIN_CAN_CANCEL = true; */\n\n\n    event SubmitRFC(uint256  indexed rfcId);\n    event UpdateRFC(uint256  indexed rfcId);\n    event ValuateRFC(uint256 indexed rfcId, uint256 value);\n    event MergeRFC(uint256   indexed rfcId);\n    event RejectRFC(uint256  indexed rfcId);\n    event CancelRFC(uint256  indexed rfcId);\n\n    event MergeCommit(bytes32 hash);\n\n    /******************************/\n    /*      EXTERNAL METHODS      */\n    /******************************/\n\n    function initialize(Specimen _specimen, string _name) onlyInit external {\n        initialized();\n        specimen = _specimen;\n        name     = _name;\n    }\n\n    function submitRFC(string _tree, string _message, bytes _parents) auth(SUBMIT_RFC_ROLE) external returns (uint256 rfcId) {\n        return _submitRFC(_tree, _message, _parents);\n    }\n\n    function valuateRFC(uint256 _rfcId, uint256 _value) external {\n        require(canValuate(msg.sender, _rfcId, _value));\n        _valuateRFC(_rfcId, _value);\n    }\n\n    function sortRFC(uint256 _rfcId, RFCSorting _sorting) external {\n        require(canSort(msg.sender, _rfcId, _sorting));\n        _sortRFC(_rfcId, _sorting);\n    }\n\n    /*******************************fc\n    /*      ACCESS CONTROL METHODS      */\n    /************************************/\n\n\n    function canUpdate(address _sender, uint256 _rfcId) public view returns (bool) {\n        return _isRFCOpen(_rfcId) && rfcs[_rfcId].commit.origin == _sender;\n    }\n\n    function canValuate(address _sender, uint256 _rfcId, uint256 _value) public view returns (bool) {\n        return _isRFCOpen(_rfcId) && (_value == 0 || canPerform(_sender, VALUATE_RFC_ROLE, arr()));\n    }\n\n    function canSort(address _sender, uint256 _rfcId, RFCSorting _action) public view returns (bool) {\n        if(!_isRFCOpen(_rfcId))\n            return false;\n        if(_isRFCValuated(_rfcId) && canPerform(_sender, SORT_RFC_ROLE, arr()))\n            return true;\n        if(_action == RFCSorting.Reject && canPerform(_sender, SORT_RFC_ROLE, arr()))\n            return true;\n\n        return false;\n    }\n\n    /****************************/\n    /*      GETTER METHODS      */\n    /****************************/\n\n    function getRFC(uint256 _rfcId) public view returns (address origin, uint256 block, string tree, string message, bytes parents, uint256 value, RFCState state, RFCStatus status) {\n        RFC storage rfc = rfcs[_rfcId];\n\n        origin  = rfc.commit.origin;\n        block   = rfc.commit.block;\n        tree    = rfc.commit.tree;\n        message = rfc.commit.message;\n        parents = rfc.commit.parents;\n        value   = rfc.commit.value;\n        state   = rfc.state;\n        status  = rfc.status;\n    }\n\n    function getCommit(bytes32 _hash) public view returns (address origin, uint256 block, string tree, string message, bytes parents, uint256 value) {\n        Commit storage commit = commits[_hash];\n\n        origin  = commit.origin;\n        block   = commit.block;\n        tree    = commit.tree;\n        message = commit.message;\n        parents = commit.parents;\n        value   = commit.value;\n    }\n\n    function getHead() public view returns (address origin, uint256 block, string tree, string message, bytes parents, uint256 value) {\n        return getCommit(head);\n    }\n\n    /******************************/\n    /*      INTERNAL METHODS      */\n    /******************************/\n\n    function _submitRFC(string _tree, string _message, bytes _parents) isInitialized internal returns (uint256 rfcId)  {\n        rfcId               = rfcs.length++;\n        RFC storage rfc = rfcs[rfcId];\n\n        rfc.status = RFCStatus.Open;\n        rfc.state  = RFCState.Pending;\n        rfc.commit = Commit(msg.sender, 0, _tree, _message, _parents, 0);\n\n        emit SubmitRFC(rfcId);\n    }\n\n    function _valuateRFC(uint256 _rfcId, uint256 _value) isInitialized internal {\n        rfcs[_rfcId].state        = RFCState.Valuated;\n        rfcs[_rfcId].commit.value = _value;\n        emit ValuateRFC(_rfcId, _value);\n    }\n\n    function _sortRFC(uint256 _rfcId, RFCSorting _action) isInitialized internal {\n        rfcs[_rfcId].state = RFCState.Sorted;\n\n        if(_action == RFCSorting.Merge) {\n            rfcs[_rfcId].status       = RFCStatus.Merged;\n            rfcs[_rfcId].commit.block = block.number - 1;\n\n            bytes32 commitHash  = PandoApp.hash(rfcs[_rfcId].commit);\n            commits[commitHash] = rfcs[_rfcId].commit;\n            head                = commitHash;\n\n            specimen.issueReward(rfcs[_rfcId].commit.origin, rfcs[_rfcId].commit.value);\n\n            emit MergeRFC(_rfcId);\n        } else if (_action == RFCSorting.Reject) {\n            rfcs[_rfcId].status = RFCStatus.Rejected;\n            emit RejectRFC(_rfcId);\n        }\n    }\n\n    /*****************************/\n    /*      UTILITY METHODS      */\n    /*****************************/\n\n    function _isRFCOpen(uint256 _rfcId) internal view returns (bool) {\n        return rfcs[_rfcId].status == RFCStatus.Open;\n    }\n\n    function _isRFCValuated(uint256 _rfcId) internal view returns (bool) {\n        return rfcs[_rfcId].state == RFCState.Valuated || rfcs[_rfcId].state == RFCState.Sorted;\n    }\n\n}\n",
  "sourcePath": "/Users/osarrouy/Documents/dapp/@pando/packages/core/contracts/Branch.sol",
  "compiler": {
    "name": "solc",
    "version": "0.4.24+commit.e67f0147.Emscripten.clang"
  },
  "schemaVersion": "2.0.0",
  "updatedAt": "2018-09-26T10:38:28.009Z"
}