{
  "contractName": "CallsScript",
  "abi": [
    {
      "constant": true,
      "inputs": [],
      "name": "hasInitialized",
      "outputs": [
        {
          "name": "",
          "type": "bool"
        }
      ],
      "payable": false,
      "stateMutability": "view",
      "type": "function"
    },
    {
      "constant": true,
      "inputs": [],
      "name": "getInitializationBlock",
      "outputs": [
        {
          "name": "",
          "type": "uint256"
        }
      ],
      "payable": false,
      "stateMutability": "view",
      "type": "function"
    },
    {
      "constant": true,
      "inputs": [],
      "name": "isPetrified",
      "outputs": [
        {
          "name": "",
          "type": "bool"
        }
      ],
      "payable": false,
      "stateMutability": "view",
      "type": "function"
    },
    {
      "anonymous": false,
      "inputs": [
        {
          "indexed": true,
          "name": "sender",
          "type": "address"
        },
        {
          "indexed": true,
          "name": "src",
          "type": "address"
        },
        {
          "indexed": true,
          "name": "dst",
          "type": "address"
        }
      ],
      "name": "LogScriptCall",
      "type": "event"
    },
    {
      "constant": false,
      "inputs": [
        {
          "name": "_script",
          "type": "bytes"
        },
        {
          "name": "",
          "type": "bytes"
        },
        {
          "name": "_blacklist",
          "type": "address[]"
        }
      ],
      "name": "execScript",
      "outputs": [
        {
          "name": "",
          "type": "bytes"
        }
      ],
      "payable": false,
      "stateMutability": "nonpayable",
      "type": "function"
    },
    {
      "constant": true,
      "inputs": [],
      "name": "executorType",
      "outputs": [
        {
          "name": "",
          "type": "bytes32"
        }
      ],
      "payable": false,
      "stateMutability": "pure",
      "type": "function"
    }
  ],
  "bytecode": "0x608060405261001b610020640100000000026401000000009004565b61014a565b600061003961007f640100000000026401000000009004565b14151561004557600080fd5b61007d7fffffffffffffffffffffffffffffffffffffffffffffffffffffffffffffffff6100c9640100000000026401000000009004565b565b60006100c47febb05b386a8d34882b8711d156f463690983dc47815980fb82aeeff1aa43579e60010260001916610138640100000000026105e3176401000000009004565b905090565b60006100e261007f640100000000026401000000009004565b1415156100ee57600080fd5b610135817febb05b386a8d34882b8711d156f463690983dc47815980fb82aeeff1aa43579e60010260001916610143640100000000026105ff179091906401000000009004565b50565b600081549050919050565b8082555050565b610632806101596000396000f30060806040526004361061006d576000357c0100000000000000000000000000000000000000000000000000000000900463ffffffff1680630803fac014610072578063279cea35146100a15780638333d9b2146101855780638b3dd749146101b8578063de4796ed146101e3575b600080fd5b34801561007e57600080fd5b50610087610212565b604051808215151515815260200191505060405180910390f35b3480156100ad57600080fd5b5061010a60048036038101908080359060200190820180359060200191909192939192939080359060200190820180359060200191909192939192939080359060200190820180359060200191909192939192939050505061023d565b6040518080602001828103825283818151815260200191508051906020019080838360005b8381101561014a57808201518184015260208101905061012f565b50505050905090810190601f1680156101775780820380516001836020036101000a031916815260200191505b509250505060405180910390f35b34801561019157600080fd5b5061019a610494565b60405180826000191660001916815260200191505060405180910390f35b3480156101c457600080fd5b506101cd6104bf565b6040518082815260200191505060405180910390f35b3480156101ef57600080fd5b506101f86104f6565b604051808215151515815260200191505060405180910390f35b60008061021d6104bf565b905060008114158015610237575080610234610527565b10155b91505090565b6060600080600080600080610250610212565b151561025b57600080fd5b600495505b8c8c9050861015610484576102b0868e8e8080601f01602080910402602001604051908101604052809392919081815260200183838082843782019150505050505061052f90919063ffffffff16565b9450600093505b888890508410156103345788888581811015156102d057fe5b9050602002013573ffffffffffffffffffffffffffffffffffffffff1673ffffffffffffffffffffffffffffffffffffffff168573ffffffffffffffffffffffffffffffffffffffff161415151561032757600080fd5b83806001019450506102b7565b8473ffffffffffffffffffffffffffffffffffffffff163073ffffffffffffffffffffffffffffffffffffffff163373ffffffffffffffffffffffffffffffffffffffff167f9dcff9d94fbfdb4622d11edb383005f95e78efb446c72d92f8e615c6025c470360405160405180910390a46103ed601487018e8e8080601f01602080910402602001604051908101604052809392919081815260200183838082843782019150505050505061057990919063ffffffff16565b63ffffffff169250600460148701019150610443828e8e8080601f0160208091040260200160405190810160405280939291908181526020018383808284378201915050505050506105d390919063ffffffff16565b905082820195508c8c9050861115151561045c57600080fd5b60008084836000896113885a03f180600081146104785761047d565b600080fd5b5050610260565b5050505050509695505050505050565b60007f2dc858a00f3e417be1394b87c07158e989ec681ce8cc68a9093680ac1a870302600102905090565b60006104f17febb05b386a8d34882b8711d156f463690983dc47815980fb82aeeff1aa43579e600102600019166105e3565b905090565b60007fffffffffffffffffffffffffffffffffffffffffffffffffffffffffffffffff6105216104bf565b14905090565b600043905090565b60008061053c84846105ee565b90506c010000000000000000000000007fffffffffffffffffffffffffffffffffffffffff00000000000000000000000082160491505092915050565b60008061058684846105ee565b90507c01000000000000000000000000000000000000000000000000000000007fffffffff0000000000000000000000000000000000000000000000000000000082160491505092915050565b6000816020018301905092915050565b600081549050919050565b600081602001830151905092915050565b80825550505600a165627a7a7230582075c58a2f20de8bfb736856329a701658cb57a73935cb6794f5875dae12ac12130029",
  "source": "pragma solidity 0.4.24;\n\n// Inspired by https://github.com/reverendus/tx-manager\n\nimport \"../ScriptHelpers.sol\";\nimport \"./BaseEVMScriptExecutor.sol\";\n\n\ncontract CallsScript is BaseEVMScriptExecutor {\n    using ScriptHelpers for bytes;\n\n    // bytes32 internal constant EXECUTOR_TYPE = keccak256(\"CALLS_SCRIPT\");\n    bytes32 internal constant EXECUTOR_TYPE = 0x2dc858a00f3e417be1394b87c07158e989ec681ce8cc68a9093680ac1a870302;\n\n    event LogScriptCall(address indexed sender, address indexed src, address indexed dst);\n\n    /**\n    * @notice Executes a number of call scripts\n    * @param _script [ specId (uint32) ] many calls with this structure ->\n    *    [ to (address: 20 bytes) ] [ calldataLength (uint32: 4 bytes) ] [ calldata (calldataLength bytes) ]\n    * @param _blacklist Addresses the script cannot call to, or will revert.\n    * @return always returns empty byte array\n    */\n    function execScript(bytes _script, bytes, address[] _blacklist) external isInitialized returns (bytes) {\n        uint256 location = SCRIPT_START_LOCATION; // first 32 bits are spec id\n        while (location < _script.length) {\n            address contractAddress = _script.addressAt(location);\n            // Check address being called is not blacklist\n            for (uint i = 0; i < _blacklist.length; i++) {\n                require(contractAddress != _blacklist[i]);\n            }\n\n            // logged before execution to ensure event ordering in receipt\n            // if failed entire execution is reverted regardless\n            emit LogScriptCall(msg.sender, address(this), contractAddress);\n\n            uint256 calldataLength = uint256(_script.uint32At(location + 0x14));\n            uint256 startOffset = location + 0x14 + 0x04;\n            uint256 calldataStart = _script.locationOf(startOffset);\n\n            // compute end of script / next location\n            location = startOffset + calldataLength;\n            require(location <= _script.length);\n\n            assembly {\n                let success := call(sub(gas, 5000), contractAddress, 0, calldataStart, calldataLength, 0, 0)\n                switch success case 0 { revert(0, 0) }\n            }\n        }\n    }\n\n    function executorType() external pure returns (bytes32) {\n        return EXECUTOR_TYPE;\n    }\n}\n",
  "sourcePath": "@aragon/os/contracts/evmscript/executors/CallsScript.sol",
  "compiler": {
    "name": "solc",
    "version": "0.4.24+commit.e67f0147.Emscripten.clang"
  },
  "schemaVersion": "3.0.0-beta.1",
  "updatedAt": "2018-11-23T10:39:45.681Z"
}