{
  "contractName": "CallsScript",
  "abi": [
    {
      "anonymous": false,
      "inputs": [
        {
          "indexed": true,
          "name": "sender",
          "type": "address"
        },
        {
          "indexed": true,
          "name": "src",
          "type": "address"
        },
        {
          "indexed": true,
          "name": "dst",
          "type": "address"
        }
      ],
      "name": "LogScriptCall",
      "type": "event"
    },
    {
      "constant": false,
      "inputs": [
        {
          "name": "_script",
          "type": "bytes"
        },
        {
          "name": "_input",
          "type": "bytes"
        },
        {
          "name": "_blacklist",
          "type": "address[]"
        }
      ],
      "name": "execScript",
      "outputs": [
        {
          "name": "",
          "type": "bytes"
        }
      ],
      "payable": false,
      "stateMutability": "nonpayable",
      "type": "function"
    },
    {
      "constant": true,
      "inputs": [],
      "name": "executorType",
      "outputs": [
        {
          "name": "",
          "type": "bytes32"
        }
      ],
      "payable": false,
      "stateMutability": "pure",
      "type": "function"
    }
  ],
  "bytecode": "0x608060405234801561001057600080fd5b506104c8806100206000396000f30060806040526004361061004c576000357c0100000000000000000000000000000000000000000000000000000000900463ffffffff168063279cea35146100515780638333d9b214610135575b600080fd5b34801561005d57600080fd5b506100ba600480360381019080803590602001908201803590602001919091929391929390803590602001908201803590602001919091929391929390803590602001908201803590602001919091929391929390505050610168565b6040518080602001828103825283818151815260200191508051906020019080838360005b838110156100fa5780820151818401526020810190506100df565b50505050905090810190601f1680156101275780820380516001836020036101000a031916815260200191505b509250505060405180910390f35b34801561014157600080fd5b5061014a6103ac565b60405180826000191660001916815260200191505060405180910390f35b6060600080600080600080600495505b8c8c905086101561039c576101c8868e8e8080601f0160208091040260200160405190810160405280939291908181526020018383808284378201915050505050506103d790919063ffffffff16565b9450600093505b8888905084101561024c5788888581811015156101e857fe5b9050602002013573ffffffffffffffffffffffffffffffffffffffff1673ffffffffffffffffffffffffffffffffffffffff168573ffffffffffffffffffffffffffffffffffffffff161415151561023f57600080fd5b83806001019450506101cf565b8473ffffffffffffffffffffffffffffffffffffffff163073ffffffffffffffffffffffffffffffffffffffff163373ffffffffffffffffffffffffffffffffffffffff167f9dcff9d94fbfdb4622d11edb383005f95e78efb446c72d92f8e615c6025c470360405160405180910390a4610305601487018e8e8080601f01602080910402602001604051908101604052809392919081815260200183838082843782019150505050505061042190919063ffffffff16565b63ffffffff16925060046014870101915061035b828e8e8080601f01602080910402602001604051908101604052809392919081815260200183838082843782019150505050505061047b90919063ffffffff16565b905082820195508c8c9050861115151561037457600080fd5b60008084836000896113885a03f1806000811461039057610395565b600080fd5b5050610178565b5050505050509695505050505050565b60007f2dc858a00f3e417be1394b87c07158e989ec681ce8cc68a9093680ac1a870302600102905090565b6000806103e4848461048b565b90506c010000000000000000000000007fffffffffffffffffffffffffffffffffffffffff00000000000000000000000082160491505092915050565b60008061042e848461048b565b90507c01000000000000000000000000000000000000000000000000000000007fffffffff0000000000000000000000000000000000000000000000000000000082160491505092915050565b6000816020018301905092915050565b6000816020018301519050929150505600a165627a7a7230582020714dc7a241020cd78e1d336500ba1a19946855b2257dcd03ac7fcfc5c8a1fc0029",
  "source": "pragma solidity ^0.4.18;\n\n// Inspired by https://github.com/reverendus/tx-manager\n\nimport \"../ScriptHelpers.sol\";\nimport \"../IEVMScriptExecutor.sol\";\n\n\ncontract CallsScript is IEVMScriptExecutor {\n    using ScriptHelpers for bytes;\n\n    // bytes32 constant internal EXECUTOR_TYPE = keccak256(\"CALLS_SCRIPT\");\n    bytes32 constant internal EXECUTOR_TYPE = 0x2dc858a00f3e417be1394b87c07158e989ec681ce8cc68a9093680ac1a870302;\n\n    uint256 constant internal SCRIPT_START_LOCATION = 4;\n\n    event LogScriptCall(address indexed sender, address indexed src, address indexed dst);\n\n    /**\n    * @notice Executes a number of call scripts\n    * @param _script [ specId (uint32) ] many calls with this structure ->\n    *    [ to (address: 20 bytes) ] [ calldataLength (uint32: 4 bytes) ] [ calldata (calldataLength bytes) ]\n    * @param _input Input is ignored in callscript\n    * @param _blacklist Addresses the script cannot call to, or will revert.\n    * @return always returns empty byte array\n    */\n    function execScript(bytes _script, bytes _input, address[] _blacklist) external returns (bytes) {\n        uint256 location = SCRIPT_START_LOCATION; // first 32 bits are spec id\n        while (location < _script.length) {\n            address contractAddress = _script.addressAt(location);\n            // Check address being called is not blacklist\n            for (uint i = 0; i < _blacklist.length; i++) {\n                require(contractAddress != _blacklist[i]);\n            }\n\n            // logged before execution to ensure event ordering in receipt\n            // if failed entire execution is reverted regardless\n            LogScriptCall(msg.sender, address(this), contractAddress);\n\n            uint256 calldataLength = uint256(_script.uint32At(location + 0x14));\n            uint256 startOffset = location + 0x14 + 0x04;\n            uint256 calldataStart = _script.locationOf(startOffset);\n\n            // compute end of script / next location\n            location = startOffset + calldataLength;\n            require(location <= _script.length);\n\n            assembly {\n                let success := call(sub(gas, 5000), contractAddress, 0, calldataStart, calldataLength, 0, 0)\n                switch success case 0 { revert(0, 0) }\n            }\n        }\n    }\n\n    function executorType() external pure returns (bytes32) {\n        return EXECUTOR_TYPE;\n    }\n}\n",
  "sourcePath": "@aragon/os/contracts/evmscript/executors/CallsScript.sol",
  "compiler": {
    "name": "solc",
    "version": "0.4.24+commit.e67f0147.Emscripten.clang"
  },
  "schemaVersion": "2.0.0",
  "updatedAt": "2018-09-21T18:46:01.930Z"
}