{
  "contractName": "DAOFactory",
  "abi": [
    {
      "constant": true,
      "inputs": [],
      "name": "baseACL",
      "outputs": [
        {
          "name": "",
          "type": "address"
        }
      ],
      "payable": false,
      "stateMutability": "view",
      "type": "function"
    },
    {
      "constant": false,
      "inputs": [
        {
          "name": "_root",
          "type": "address"
        }
      ],
      "name": "newDAO",
      "outputs": [
        {
          "name": "dao",
          "type": "address"
        }
      ],
      "payable": false,
      "stateMutability": "nonpayable",
      "type": "function"
    },
    {
      "constant": true,
      "inputs": [],
      "name": "regFactory",
      "outputs": [
        {
          "name": "",
          "type": "address"
        }
      ],
      "payable": false,
      "stateMutability": "view",
      "type": "function"
    },
    {
      "constant": true,
      "inputs": [],
      "name": "baseKernel",
      "outputs": [
        {
          "name": "",
          "type": "address"
        }
      ],
      "payable": false,
      "stateMutability": "view",
      "type": "function"
    },
    {
      "inputs": [
        {
          "name": "_baseKernel",
          "type": "address"
        },
        {
          "name": "_baseACL",
          "type": "address"
        },
        {
          "name": "_regFactory",
          "type": "address"
        }
      ],
      "payable": false,
      "stateMutability": "nonpayable",
      "type": "constructor"
    },
    {
      "anonymous": false,
      "inputs": [
        {
          "indexed": false,
          "name": "dao",
          "type": "address"
        }
      ],
      "name": "DeployDAO",
      "type": "event"
    },
    {
      "anonymous": false,
      "inputs": [
        {
          "indexed": false,
          "name": "reg",
          "type": "address"
        }
      ],
      "name": "DeployEVMScriptRegistry",
      "type": "event"
    }
  ],
  "bytecode": "0x6060604052341561000f57600080fd5b604051606080611b6a83398101604052808051906020019091908051906020019091908051906020019091905050600073ffffffffffffffffffffffffffffffffffffffff168173ffffffffffffffffffffffffffffffffffffffff161415156100b55780600260006101000a81548173ffffffffffffffffffffffffffffffffffffffff021916908373ffffffffffffffffffffffffffffffffffffffff1602179055505b826000806101000a81548173ffffffffffffffffffffffffffffffffffffffff021916908373ffffffffffffffffffffffffffffffffffffffff16021790555081600160006101000a81548173ffffffffffffffffffffffffffffffffffffffff021916908373ffffffffffffffffffffffffffffffffffffffff160217905550505050611a22806101486000396000f300606060405260043610610062576000357c0100000000000000000000000000000000000000000000000000000000900463ffffffff168063086b339e1461006757806321687444146100bc578063656362b514610135578063b16dd1301461018a575b600080fd5b341561007257600080fd5b61007a6101df565b604051808273ffffffffffffffffffffffffffffffffffffffff1673ffffffffffffffffffffffffffffffffffffffff16815260200191505060405180910390f35b34156100c757600080fd5b6100f3600480803573ffffffffffffffffffffffffffffffffffffffff16906020019091905050610205565b604051808273ffffffffffffffffffffffffffffffffffffffff1673ffffffffffffffffffffffffffffffffffffffff16815260200191505060405180910390f35b341561014057600080fd5b610148611082565b604051808273ffffffffffffffffffffffffffffffffffffffff1673ffffffffffffffffffffffffffffffffffffffff16815260200191505060405180910390f35b341561019557600080fd5b61019d6110a8565b604051808273ffffffffffffffffffffffffffffffffffffffff1673ffffffffffffffffffffffffffffffffffffffff16815260200191505060405180910390f35b600160009054906101000a900473ffffffffffffffffffffffffffffffffffffffff1681565b60008060008060008060009054906101000a900473ffffffffffffffffffffffffffffffffffffffff166102376110cd565b808273ffffffffffffffffffffffffffffffffffffffff1673ffffffffffffffffffffffffffffffffffffffff168152602001915050604051809103906000f080151561028357600080fd5b9450600073ffffffffffffffffffffffffffffffffffffffff16600260009054906101000a900473ffffffffffffffffffffffffffffffffffffffff1673ffffffffffffffffffffffffffffffffffffffff1614156103e5578473ffffffffffffffffffffffffffffffffffffffff1663485cc955600160009054906101000a900473ffffffffffffffffffffffffffffffffffffffff16886040518363ffffffff167c0100000000000000000000000000000000000000000000000000000000028152600401808373ffffffffffffffffffffffffffffffffffffffff1673ffffffffffffffffffffffffffffffffffffffff1681526020018273ffffffffffffffffffffffffffffffffffffffff1673ffffffffffffffffffffffffffffffffffffffff16815260200192505050600060405180830381600087803b15156103cc57600080fd5b6102c65a03f115156103dd57600080fd5b505050611016565b8473ffffffffffffffffffffffffffffffffffffffff1663485cc955600160009054906101000a900473ffffffffffffffffffffffffffffffffffffffff16306040518363ffffffff167c0100000000000000000000000000000000000000000000000000000000028152600401808373ffffffffffffffffffffffffffffffffffffffff1673ffffffffffffffffffffffffffffffffffffffff1681526020018273ffffffffffffffffffffffffffffffffffffffff1673ffffffffffffffffffffffffffffffffffffffff16815260200192505050600060405180830381600087803b15156104d557600080fd5b6102c65a03f115156104e657600080fd5b5050508473ffffffffffffffffffffffffffffffffffffffff1663de2873596000604051602001526040518163ffffffff167c0100000000000000000000000000000000000000000000000000000000028152600401602060405180830381600087803b151561055557600080fd5b6102c65a03f1151561056657600080fd5b5050506040518051905093508373ffffffffffffffffffffffffffffffffffffffff16633d6ab68f6000604051602001526040518163ffffffff167c0100000000000000000000000000000000000000000000000000000000028152600401602060405180830381600087803b15156105de57600080fd5b6102c65a03f115156105ef57600080fd5b5050506040518051905092508473ffffffffffffffffffffffffffffffffffffffff16638ea8dc9d6000604051602001526040518163ffffffff167c0100000000000000000000000000000000000000000000000000000000028152600401602060405180830381600087803b151561066757600080fd5b6102c65a03f1151561067857600080fd5b5050506040518051905091508373ffffffffffffffffffffffffffffffffffffffff16630a8ed3db600260009054906101000a900473ffffffffffffffffffffffffffffffffffffffff1686866040518463ffffffff167c0100000000000000000000000000000000000000000000000000000000028152600401808473ffffffffffffffffffffffffffffffffffffffff1673ffffffffffffffffffffffffffffffffffffffff1681526020018373ffffffffffffffffffffffffffffffffffffffff1673ffffffffffffffffffffffffffffffffffffffff16815260200182600019166000191681526020019350505050600060405180830381600087803b151561078457600080fd5b6102c65a03f1151561079557600080fd5b5050508373ffffffffffffffffffffffffffffffffffffffff1663be038478600260009054906101000a900473ffffffffffffffffffffffffffffffffffffffff168785306040518563ffffffff167c0100000000000000000000000000000000000000000000000000000000028152600401808573ffffffffffffffffffffffffffffffffffffffff1673ffffffffffffffffffffffffffffffffffffffff1681526020018473ffffffffffffffffffffffffffffffffffffffff1673ffffffffffffffffffffffffffffffffffffffff16815260200183600019166000191681526020018273ffffffffffffffffffffffffffffffffffffffff1673ffffffffffffffffffffffffffffffffffffffff168152602001945050505050600060405180830381600087803b15156108cc57600080fd5b6102c65a03f115156108dd57600080fd5b505050600260009054906101000a900473ffffffffffffffffffffffffffffffffffffffff1673ffffffffffffffffffffffffffffffffffffffff1663869abc2486886000604051602001526040518363ffffffff167c0100000000000000000000000000000000000000000000000000000000028152600401808373ffffffffffffffffffffffffffffffffffffffff1673ffffffffffffffffffffffffffffffffffffffff1681526020018273ffffffffffffffffffffffffffffffffffffffff1673ffffffffffffffffffffffffffffffffffffffff16815260200192505050602060405180830381600087803b15156109d957600080fd5b6102c65a03f115156109ea57600080fd5b5050506040518051905090507f1a40224412580c1ae5a2fbe8029a565f49a3a029608a8fd9320b32477f31457981604051808273ffffffffffffffffffffffffffffffffffffffff1673ffffffffffffffffffffffffffffffffffffffff16815260200191505060405180910390a18373ffffffffffffffffffffffffffffffffffffffff16639d0effdb600260009054906101000a900473ffffffffffffffffffffffffffffffffffffffff1687856040518463ffffffff167c0100000000000000000000000000000000000000000000000000000000028152600401808473ffffffffffffffffffffffffffffffffffffffff1673ffffffffffffffffffffffffffffffffffffffff1681526020018373ffffffffffffffffffffffffffffffffffffffff1673ffffffffffffffffffffffffffffffffffffffff16815260200182600019166000191681526020019350505050600060405180830381600087803b1515610b5957600080fd5b6102c65a03f11515610b6a57600080fd5b5050508373ffffffffffffffffffffffffffffffffffffffff16639d0effdb600260009054906101000a900473ffffffffffffffffffffffffffffffffffffffff1686866040518463ffffffff167c0100000000000000000000000000000000000000000000000000000000028152600401808473ffffffffffffffffffffffffffffffffffffffff1673ffffffffffffffffffffffffffffffffffffffff1681526020018373ffffffffffffffffffffffffffffffffffffffff1673ffffffffffffffffffffffffffffffffffffffff16815260200182600019166000191681526020019350505050600060405180830381600087803b1515610c6d57600080fd5b6102c65a03f11515610c7e57600080fd5b5050508373ffffffffffffffffffffffffffffffffffffffff16639d0effdb3086866040518463ffffffff167c0100000000000000000000000000000000000000000000000000000000028152600401808473ffffffffffffffffffffffffffffffffffffffff1673ffffffffffffffffffffffffffffffffffffffff1681526020018373ffffffffffffffffffffffffffffffffffffffff1673ffffffffffffffffffffffffffffffffffffffff16815260200182600019166000191681526020019350505050600060405180830381600087803b1515610d5f57600080fd5b6102c65a03f11515610d7057600080fd5b5050508373ffffffffffffffffffffffffffffffffffffffff16630a8ed3db8786866040518463ffffffff167c0100000000000000000000000000000000000000000000000000000000028152600401808473ffffffffffffffffffffffffffffffffffffffff1673ffffffffffffffffffffffffffffffffffffffff1681526020018373ffffffffffffffffffffffffffffffffffffffff1673ffffffffffffffffffffffffffffffffffffffff16815260200182600019166000191681526020019350505050600060405180830381600087803b1515610e5157600080fd5b6102c65a03f11515610e6257600080fd5b5050508373ffffffffffffffffffffffffffffffffffffffff1663a885508a86846040518363ffffffff167c0100000000000000000000000000000000000000000000000000000000028152600401808373ffffffffffffffffffffffffffffffffffffffff1673ffffffffffffffffffffffffffffffffffffffff168152602001826000191660001916815260200192505050600060405180830381600087803b1515610f0f57600080fd5b6102c65a03f11515610f2057600080fd5b5050508373ffffffffffffffffffffffffffffffffffffffff1663afd925df8786866040518463ffffffff167c0100000000000000000000000000000000000000000000000000000000028152600401808473ffffffffffffffffffffffffffffffffffffffff1673ffffffffffffffffffffffffffffffffffffffff1681526020018373ffffffffffffffffffffffffffffffffffffffff1673ffffffffffffffffffffffffffffffffffffffff16815260200182600019166000191681526020019350505050600060405180830381600087803b151561100157600080fd5b6102c65a03f1151561101257600080fd5b5050505b7f3a7eb042a769adf51e9be78b68ed7af0ad7b379246536efc376ed2ca0123828285604051808273ffffffffffffffffffffffffffffffffffffffff1673ffffffffffffffffffffffffffffffffffffffff16815260200191505060405180910390a150505050919050565b600260009054906101000a900473ffffffffffffffffffffffffffffffffffffffff1681565b6000809054906101000a900473ffffffffffffffffffffffffffffffffffffffff1681565b604051610919806110de8339019056006060604052341561000f57600080fd5b60405160208061091983398101604052808051906020019091905050806000807fc681a85306374a5ab27f0bbc385296a54bcd314a1948b6cf61c4ea1bc44bb9f86001027f3b4bf6bf3ad5000ecf0f989d5befde585c6860fea3e574a4fab4c49d1c177d9c60010260405180836000191660001916815260200182600019166000191681526020019250505060405180910390206000191660001916815260200190815260200160002060006101000a81548173ffffffffffffffffffffffffffffffffffffffff021916908373ffffffffffffffffffffffffffffffffffffffff16021790555050610812806101076000396000f3006060604052600436106100e6576000357c0100000000000000000000000000000000000000000000000000000000900463ffffffff16806309720778146101cb5780630ceafa2a146101fc5780631113ed0d14610225578063178e60791461025657806325012699146102875780632b2584f6146102b857806338bb6def146102e15780634555d5c9146103485780635c60da1b14610371578063756f6049146103c65780637e84a4ff146103f7578063a3b4b07f14610420578063cbcc65eb14610451578063cc473be314610482578063dabca019146104b3578063db8a61d4146104e4575b60006127105a1015610180576000341180156101055750600080369050145b151561011057600080fd5b7f15eeaa57c7bd188c1388020bcadc2c436ec60d647d36ef5b9eb3c742217ddee13334604051808373ffffffffffffffffffffffffffffffffffffffff1673ffffffffffffffffffffffffffffffffffffffff1681526020018281526020019250505060405180910390a16101c8565b610188610515565b90506101c7816000368080601f01602080910402602001604051908101604052809392919081815260200183838082843782019150505050505061057a565b5b50005b34156101d657600080fd5b6101de61058a565b60405180826000191660001916815260200191505060405180910390f35b341561020757600080fd5b61020f6105b1565b6040518082815260200191505060405180910390f35b341561023057600080fd5b6102386105b7565b60405180826000191660001916815260200191505060405180910390f35b341561026157600080fd5b6102696105de565b60405180826000191660001916815260200191505060405180910390f35b341561029257600080fd5b61029a610605565b60405180826000191660001916815260200191505060405180910390f35b34156102c357600080fd5b6102cb61062c565b6040518082815260200191505060405180910390f35b34156102ec57600080fd5b610306600480803560001916906020019091905050610631565b604051808273ffffffffffffffffffffffffffffffffffffffff1673ffffffffffffffffffffffffffffffffffffffff16815260200191505060405180910390f35b341561035357600080fd5b61035b610664565b6040518082815260200191505060405180910390f35b341561037c57600080fd5b610384610515565b604051808273ffffffffffffffffffffffffffffffffffffffff1673ffffffffffffffffffffffffffffffffffffffff16815260200191505060405180910390f35b34156103d157600080fd5b6103d961066d565b60405180826000191660001916815260200191505060405180910390f35b341561040257600080fd5b61040a610694565b6040518082815260200191505060405180910390f35b341561042b57600080fd5b610433610699565b60405180826000191660001916815260200191505060405180910390f35b341561045c57600080fd5b6104646106c0565b60405180826000191660001916815260200191505060405180910390f35b341561048d57600080fd5b6104956106e7565b60405180826000191660001916815260200191505060405180910390f35b34156104be57600080fd5b6104c661070e565b60405180826000191660001916815260200191505060405180910390f35b34156104ef57600080fd5b6104f7610714565b60405180826000191660001916815260200191505060405180910390f35b60008060007f2b7d19d0575c228f8d9326801e14149d284dc5bb7b1541c5ad712ae4b2fcaadb6001026000191660001916815260200190815260200160002060009054906101000a900473ffffffffffffffffffffffffffffffffffffffff16905090565b6105868282600061073b565b5050565b7f9065c3e7f7b7ef1ef4e53d2d0b8e0cef02874ab020c1ece79d5f0d3d0111c0ba60010281565b61271081565b7f3b4bf6bf3ad5000ecf0f989d5befde585c6860fea3e574a4fab4c49d1c177d9c60010281565b7fd6f028ca0e8edb4a8c9757ca4fdccab25fa1e0317da1188108f7d2dee14902fb60010281565b7f2b7d19d0575c228f8d9326801e14149d284dc5bb7b1541c5ad712ae4b2fcaadb60010281565b600181565b60006020528060005260406000206000915054906101000a900473ffffffffffffffffffffffffffffffffffffffff1681565b60006002905090565b7fc681a85306374a5ab27f0bbc385296a54bcd314a1948b6cf61c4ea1bc44bb9f860010281565b600281565b7f4b8e03a458a6ccec5d9077c2490964c1333dd3c72e2db408d7d9a7a36ef5c41a60010281565b7fe3262375f45a6e2026b7e7b18c2b807434f2508fe1a2a3dfb493c7df8f4aad6a60010281565b7f93cdeb708b7545dc668eb9280176169d1c33cfd8ed6f04690a0bcc88a93fc4ae60010281565b60015481565b7ff1f3eb40f5bc1ad1344716ced8b8a0431d840b5783aea1fd01786bc26f35ac0f60010281565b600080600061074986610794565b151561075457600080fd5b612710905060008086516020880189855a03f491503d925083831015151561077b57600080fd5b604051836000823e8260008114610790578482f35b8482fd5b600080600073ffffffffffffffffffffffffffffffffffffffff168373ffffffffffffffffffffffffffffffffffffffff1614156107d557600091506107e0565b823b90506000811191505b509190505600a165627a7a7230582099f917e0f3103807bcd712dff879aac4da575d5f2d2fcaeea2f2c797f36834e20029a165627a7a72305820dc1108dd550c91c021d6bc3962ee2d8bb8efbaa998ad366dd9cf1fe1f36754b10029",
  "source": "pragma solidity 0.4.18;\n\nimport \"../kernel/Kernel.sol\";\nimport \"../kernel/KernelProxy.sol\";\n\nimport \"../acl/ACL.sol\";\n\nimport \"./EVMScriptRegistryFactory.sol\";\n\n\ncontract DAOFactory {\n    address public baseKernel;\n    address public baseACL;\n    EVMScriptRegistryFactory public regFactory;\n\n    event DeployDAO(address dao);\n    event DeployEVMScriptRegistry(address reg);\n\n    function DAOFactory(address _baseKernel, address _baseACL, address _regFactory) public {\n        // No need to init as it cannot be killed by devops199\n        if (_regFactory != address(0)) {\n            regFactory = EVMScriptRegistryFactory(_regFactory);\n        }\n\n        baseKernel = _baseKernel;\n        baseACL = _baseACL;\n    }\n\n    /**\n    * @param _root Address that will be granted control to setup DAO permissions\n    */\n    function newDAO(address _root) public returns (Kernel dao) {\n        dao = Kernel(new KernelProxy(baseKernel));\n\n        if (address(regFactory) == address(0)) {\n            dao.initialize(baseACL, _root);\n        } else {\n            dao.initialize(baseACL, this);\n\n            ACL acl = ACL(dao.acl());\n            bytes32 permRole = acl.CREATE_PERMISSIONS_ROLE();\n            bytes32 appManagerRole = dao.APP_MANAGER_ROLE();\n\n            acl.grantPermission(regFactory, acl, permRole);\n\n            acl.createPermission(regFactory, dao, appManagerRole, this);\n\n            EVMScriptRegistry reg = regFactory.newEVMScriptRegistry(dao, _root);\n            DeployEVMScriptRegistry(address(reg));\n\n            acl.revokePermission(regFactory, dao, appManagerRole);\n            acl.revokePermission(regFactory, acl, permRole);\n            acl.revokePermission(this, acl, permRole);\n            acl.grantPermission(_root, acl, permRole);\n\n            acl.removePermissionManager(dao, appManagerRole);\n            acl.setPermissionManager(_root, acl, permRole);\n        }\n\n        DeployDAO(dao);\n    }\n}\n",
  "sourcePath": "@aragon/os/contracts/factory/DAOFactory.sol",
  "compiler": {
    "name": "solc",
    "version": "0.4.18+commit.9cf6e910.Emscripten.clang"
  },
  "schemaVersion": "1.0.1",
  "updatedAt": "2018-07-26T09:18:09.324Z"
}