{
  "contractName": "Dictatorship",
  "abi": [
    {
      "constant": true,
      "inputs": [
        {
          "name": "",
          "type": "address"
        }
      ],
      "name": "isDictator",
      "outputs": [
        {
          "name": "",
          "type": "bool"
        }
      ],
      "payable": false,
      "stateMutability": "view",
      "type": "function"
    },
    {
      "constant": true,
      "inputs": [],
      "name": "ORIGIN_CAN_CANCEL",
      "outputs": [
        {
          "name": "",
          "type": "bool"
        }
      ],
      "payable": false,
      "stateMutability": "view",
      "type": "function"
    },
    {
      "constant": true,
      "inputs": [],
      "name": "getRecoveryVault",
      "outputs": [
        {
          "name": "",
          "type": "address"
        }
      ],
      "payable": false,
      "stateMutability": "view",
      "type": "function"
    },
    {
      "constant": true,
      "inputs": [],
      "name": "branch",
      "outputs": [
        {
          "name": "",
          "type": "address"
        }
      ],
      "payable": false,
      "stateMutability": "view",
      "type": "function"
    },
    {
      "constant": true,
      "inputs": [],
      "name": "EVMSCRIPT_REGISTRY_APP_ID",
      "outputs": [
        {
          "name": "",
          "type": "bytes32"
        }
      ],
      "payable": false,
      "stateMutability": "view",
      "type": "function"
    },
    {
      "constant": true,
      "inputs": [
        {
          "name": "token",
          "type": "address"
        }
      ],
      "name": "allowRecoverability",
      "outputs": [
        {
          "name": "",
          "type": "bool"
        }
      ],
      "payable": false,
      "stateMutability": "view",
      "type": "function"
    },
    {
      "constant": true,
      "inputs": [],
      "name": "appId",
      "outputs": [
        {
          "name": "",
          "type": "bytes32"
        }
      ],
      "payable": false,
      "stateMutability": "view",
      "type": "function"
    },
    {
      "constant": true,
      "inputs": [
        {
          "name": "",
          "type": "uint256"
        }
      ],
      "name": "dictators",
      "outputs": [
        {
          "name": "",
          "type": "address"
        }
      ],
      "payable": false,
      "stateMutability": "view",
      "type": "function"
    },
    {
      "constant": true,
      "inputs": [],
      "name": "ETH",
      "outputs": [
        {
          "name": "",
          "type": "address"
        }
      ],
      "payable": false,
      "stateMutability": "view",
      "type": "function"
    },
    {
      "constant": true,
      "inputs": [],
      "name": "getInitializationBlock",
      "outputs": [
        {
          "name": "",
          "type": "uint256"
        }
      ],
      "payable": false,
      "stateMutability": "view",
      "type": "function"
    },
    {
      "constant": true,
      "inputs": [],
      "name": "EVMSCRIPT_REGISTRY_APP",
      "outputs": [
        {
          "name": "",
          "type": "bytes32"
        }
      ],
      "payable": false,
      "stateMutability": "view",
      "type": "function"
    },
    {
      "constant": false,
      "inputs": [
        {
          "name": "_token",
          "type": "address"
        }
      ],
      "name": "transferToVault",
      "outputs": [],
      "payable": false,
      "stateMutability": "nonpayable",
      "type": "function"
    },
    {
      "constant": true,
      "inputs": [
        {
          "name": "_sender",
          "type": "address"
        },
        {
          "name": "_role",
          "type": "bytes32"
        },
        {
          "name": "_params",
          "type": "uint256[]"
        }
      ],
      "name": "canPerform",
      "outputs": [
        {
          "name": "",
          "type": "bool"
        }
      ],
      "payable": false,
      "stateMutability": "view",
      "type": "function"
    },
    {
      "constant": true,
      "inputs": [],
      "name": "kernel",
      "outputs": [
        {
          "name": "",
          "type": "address"
        }
      ],
      "payable": false,
      "stateMutability": "view",
      "type": "function"
    },
    {
      "constant": true,
      "inputs": [
        {
          "name": "_script",
          "type": "bytes"
        }
      ],
      "name": "getExecutor",
      "outputs": [
        {
          "name": "",
          "type": "address"
        }
      ],
      "payable": false,
      "stateMutability": "view",
      "type": "function"
    },
    {
      "anonymous": false,
      "inputs": [
        {
          "indexed": false,
          "name": "rfcId",
          "type": "uint256"
        }
      ],
      "name": "SubmitRFC",
      "type": "event"
    },
    {
      "anonymous": false,
      "inputs": [
        {
          "indexed": false,
          "name": "rfcId",
          "type": "uint256"
        },
        {
          "indexed": false,
          "name": "sender",
          "type": "address"
        },
        {
          "indexed": false,
          "name": "value",
          "type": "uint256"
        }
      ],
      "name": "ValuateRFC",
      "type": "event"
    },
    {
      "anonymous": false,
      "inputs": [
        {
          "indexed": false,
          "name": "rfcId",
          "type": "uint256"
        },
        {
          "indexed": false,
          "name": "sender",
          "type": "address"
        },
        {
          "indexed": false,
          "name": "sorting",
          "type": "uint8"
        }
      ],
      "name": "SortRFC",
      "type": "event"
    },
    {
      "anonymous": false,
      "inputs": [
        {
          "indexed": true,
          "name": "executor",
          "type": "address"
        },
        {
          "indexed": false,
          "name": "script",
          "type": "bytes"
        },
        {
          "indexed": false,
          "name": "input",
          "type": "bytes"
        },
        {
          "indexed": false,
          "name": "returnData",
          "type": "bytes"
        }
      ],
      "name": "ScriptResult",
      "type": "event"
    },
    {
      "constant": false,
      "inputs": [
        {
          "name": "_branch",
          "type": "address"
        },
        {
          "name": "_parameters",
          "type": "bytes"
        }
      ],
      "name": "initialize",
      "outputs": [],
      "payable": false,
      "stateMutability": "nonpayable",
      "type": "function"
    },
    {
      "constant": false,
      "inputs": [
        {
          "name": "_tree",
          "type": "string"
        },
        {
          "name": "_message",
          "type": "string"
        },
        {
          "name": "_parents",
          "type": "bytes"
        }
      ],
      "name": "submitRFC",
      "outputs": [],
      "payable": false,
      "stateMutability": "nonpayable",
      "type": "function"
    },
    {
      "constant": false,
      "inputs": [
        {
          "name": "_rfcId",
          "type": "uint256"
        },
        {
          "name": "_value",
          "type": "uint256"
        }
      ],
      "name": "valuateRFC",
      "outputs": [],
      "payable": false,
      "stateMutability": "nonpayable",
      "type": "function"
    },
    {
      "constant": false,
      "inputs": [
        {
          "name": "_rfcId",
          "type": "uint256"
        },
        {
          "name": "_sorting",
          "type": "uint8"
        }
      ],
      "name": "sortRFC",
      "outputs": [],
      "payable": false,
      "stateMutability": "nonpayable",
      "type": "function"
    },
    {
      "constant": true,
      "inputs": [],
      "name": "getParameters",
      "outputs": [
        {
          "name": "",
          "type": "bytes"
        }
      ],
      "payable": false,
      "stateMutability": "view",
      "type": "function"
    }
  ],
  "bytecode": "0x608060405234801561001057600080fd5b50611fde806100206000396000f300608060405260043610610112576000357c0100000000000000000000000000000000000000000000000000000000900463ffffffff1680630576d950146101175780630734cffe146101545780631f1545b01461017f57806332f0a3b5146101a85780634b72d0d4146101d357806360b1e057146101fe5780637e7db6e114610229578063802f7bf51461026657806380afdea81461028f578063811a61aa146102ba5780638322fff2146102f75780638b3dd749146103225780639b3fdf4c1461034d5780639d4941d814610378578063a1658fad146103a1578063a5ea11da146103de578063c74836fc14610409578063d1f5789414610432578063d4aae0c41461045b578063f92a79ff14610486575b600080fd5b34801561012357600080fd5b5061013e60048036036101399190810190611658565b6104c3565b60405161014b9190611bc4565b60405180910390f35b34801561016057600080fd5b506101696104e3565b6040516101769190611bc4565b60405180910390f35b34801561018b57600080fd5b506101a660048036036101a191908101906117fc565b6104f6565b005b3480156101b457600080fd5b506101bd6105b0565b6040516101ca9190611ab8565b60405180910390f35b3480156101df57600080fd5b506101e86106ba565b6040516101f59190611c1c565b60405180910390f35b34801561020a57600080fd5b506102136106e0565b6040516102209190611bdf565b60405180910390f35b34801561023557600080fd5b50610250600480360361024b9190810190611658565b610707565b60405161025d9190611bc4565b60405180910390f35b34801561027257600080fd5b5061028d6004803603610288919081019061192e565b610712565b005b34801561029b57600080fd5b506102a4610789565b6040516102b19190611bdf565b60405180910390f35b3480156102c657600080fd5b506102e160048036036102dc91908101906118a0565b61078f565b6040516102ee9190611ab8565b60405180910390f35b34801561030357600080fd5b5061030c6107cd565b6040516103199190611ab8565b60405180910390f35b34801561032e57600080fd5b506103376107d2565b6040516103449190611c88565b60405180910390f35b34801561035957600080fd5b506103626107dc565b60405161036f9190611bdf565b60405180910390f35b34801561038457600080fd5b5061039f600480360361039a9190810190611658565b610803565b005b3480156103ad57600080fd5b506103c860048036036103c391908101906116aa565b610a29565b6040516103d59190611bc4565b60405180910390f35b3480156103ea57600080fd5b506103f3610b61565b6040516104009190611bfa565b60405180910390f35b34801561041557600080fd5b50610430600480360361042b91908101906118f2565b610b9a565b005b34801561043e57600080fd5b506104596004803603610454919081019061177b565b610c11565b005b34801561046757600080fd5b50610470610d73565b60405161047d9190611c52565b60405180910390f35b34801561049257600080fd5b506104ad60048036036104a8919081019061173a565b610d98565b6040516104ba9190611c37565b60405180910390f35b60676020528060005260406000206000915054906101000a900460ff1681565b606560149054906101000a900460ff1681565b600060035411151561050757600080fd5b6105a886868080601f01602080910402602001604051908101604052809392919081815260200183838082843782019150505050505085858080601f01602080910402602001604051908101604052809392919081815260200183838082843782019150505050505084848080601f016020809104026020016040519081016040528093929190818152602001838380828437820191505050505050610e4f565b505050505050565b6000806000809054906101000a900473ffffffffffffffffffffffffffffffffffffffff1673ffffffffffffffffffffffffffffffffffffffff16141515156105f857600080fd5b6000809054906101000a900473ffffffffffffffffffffffffffffffffffffffff1673ffffffffffffffffffffffffffffffffffffffff166332f0a3b56040518163ffffffff167c0100000000000000000000000000000000000000000000000000000000028152600401602060405180830381600087803b15801561067d57600080fd5b505af1158015610691573d6000803e3d6000fd5b505050506040513d601f19601f820116820180604052506106b59190810190611681565b905090565b606560009054906101000a900473ffffffffffffffffffffffffffffffffffffffff1681565b7fddbcfd564f642ab5627cf68b9b7d374fb4f8a36e941a75d89c87998cef03bd6160010281565b600060019050919050565b600060035411151561072357600080fd5b606760003373ffffffffffffffffffffffffffffffffffffffff1673ffffffffffffffffffffffffffffffffffffffff16815260200190815260200160002060009054906101000a900460ff16151561077b57600080fd5b6107858282610f5f565b5050565b60015481565b60668181548110151561079e57fe5b906000526020600020016000915054906101000a900473ffffffffffffffffffffffffffffffffffffffff1681565b600081565b6000600354905090565b7f34f01c17e9be6ddbf2c61f37b5b1fb9f1a090a975006581ad19bda1c4d38287160010281565b60008061080f83610707565b151561081a57600080fd5b6108226105b0565b915061082d82611049565b151561083857600080fd5b600073ffffffffffffffffffffffffffffffffffffffff168373ffffffffffffffffffffffffffffffffffffffff1614156108d0578173ffffffffffffffffffffffffffffffffffffffff166108fc3073ffffffffffffffffffffffffffffffffffffffff16319081150290604051600060405180830381858888f193505050501580156108ca573d6000803e3d6000fd5b50610a24565b8273ffffffffffffffffffffffffffffffffffffffff166370a08231306040518263ffffffff167c01000000000000000000000000000000000000000000000000000000000281526004016109259190611c6d565b602060405180830381600087803b15801561093f57600080fd5b505af1158015610953573d6000803e3d6000fd5b505050506040513d601f19601f8201168201806040525061097791908101906118c9565b90508273ffffffffffffffffffffffffffffffffffffffff1663a9059cbb83836040518363ffffffff167c01000000000000000000000000000000000000000000000000000000000281526004016109d0929190611b79565b602060405180830381600087803b1580156109ea57600080fd5b505af11580156109fe573d6000803e3d6000fd5b505050506040513d601f19601f82011682018060405250610a229190810190611711565b505b505050565b6000606060008084511115610a4657602084510290508391508082525b60008060009054906101000a900473ffffffffffffffffffffffffffffffffffffffff1673ffffffffffffffffffffffffffffffffffffffff161480610b5657506000809054906101000a900473ffffffffffffffffffffffffffffffffffffffff1673ffffffffffffffffffffffffffffffffffffffff1663fdef9106873088866040518563ffffffff167c0100000000000000000000000000000000000000000000000000000000028152600401610b039493929190611ad3565b602060405180830381600087803b158015610b1d57600080fd5b505af1158015610b31573d6000803e3d6000fd5b505050506040513d601f19601f82011682018060405250610b559190810190611711565b5b925050509392505050565b60606000600354111515610b7457600080fd5b6066604051602001610b869190611ba2565b604051602081830303815290604052905090565b6000600354111515610bab57600080fd5b606760003373ffffffffffffffffffffffffffffffffffffffff1673ffffffffffffffffffffffffffffffffffffffff16815260200190815260200160002060009054906101000a900460ff161515610c0357600080fd5b610c0d828261109b565b5050565b600080600354141515610c2357600080fd5b610c2b611185565b83606560006101000a81548173ffffffffffffffffffffffffffffffffffffffff021916908373ffffffffffffffffffffffffffffffffffffffff160217905550610ca783838080601f0160208091040260200160405190810160405280939291908181526020018383808284378201915050505050506111a6565b60669080519060200190610cbc929190611364565b50600090505b606680549050811015610d6d57600160676000606684815481101515610ce457fe5b9060005260206000200160009054906101000a900473ffffffffffffffffffffffffffffffffffffffff1673ffffffffffffffffffffffffffffffffffffffff1673ffffffffffffffffffffffffffffffffffffffff16815260200190815260200160002060006101000a81548160ff0219169083151502179055508080600101915050610cc2565b50505050565b6000809054906101000a900473ffffffffffffffffffffffffffffffffffffffff1681565b6000610da2611265565b73ffffffffffffffffffffffffffffffffffffffff166304bf2a7f836040518263ffffffff167c0100000000000000000000000000000000000000000000000000000000028152600401610df69190611bfa565b602060405180830381600087803b158015610e1057600080fd5b505af1158015610e24573d6000803e3d6000fd5b505050506040513d601f19601f82011682018060405250610e4891908101906117d3565b9050919050565b6000606560009054906101000a900473ffffffffffffffffffffffffffffffffffffffff1673ffffffffffffffffffffffffffffffffffffffff16634729b1c1338686866040518563ffffffff167c0100000000000000000000000000000000000000000000000000000000028152600401610ece9493929190611b1f565b602060405180830381600087803b158015610ee857600080fd5b505af1158015610efc573d6000803e3d6000fd5b505050506040513d601f19601f82011682018060405250610f2091908101906118c9565b90507f07b73166689bc46a6f4686c0f9289ac152a55c08c8840e9f5886813ece3e1e8d81604051610f519190611c88565b60405180910390a150505050565b606560009054906101000a900473ffffffffffffffffffffffffffffffffffffffff1673ffffffffffffffffffffffffffffffffffffffff1663802f7bf583836040518363ffffffff167c0100000000000000000000000000000000000000000000000000000000028152600401610fd8929190611d3a565b600060405180830381600087803b158015610ff257600080fd5b505af1158015611006573d6000803e3d6000fd5b505050507fc87a1f6d749ec45b929cc844ea5d51448bf495ac30d9cea9d9a6f4f3dbbe643c82338360405161103d93929190611cda565b60405180910390a15050565b600080600073ffffffffffffffffffffffffffffffffffffffff168373ffffffffffffffffffffffffffffffffffffffff16141561108a5760009150611095565b823b90506000811191505b50919050565b606560009054906101000a900473ffffffffffffffffffffffffffffffffffffffff1673ffffffffffffffffffffffffffffffffffffffff1663c74836fc83836040518363ffffffff167c0100000000000000000000000000000000000000000000000000000000028152600401611114929190611d11565b600060405180830381600087803b15801561112e57600080fd5b505af1158015611142573d6000803e3d6000fd5b505050507fbc9c473aa42ff9fa72ea25cc0df23a824c08ac43f4895da24854a85584631c3a82338360405161117993929190611ca3565b60405180910390a15050565b600060035414151561119657600080fd5b61119e61135c565b600381905550565b6060600080600080600060408701945084519250826040519080825280602002602001820160405280156111e95781602001602082028038833980820191505090505b509550600090505b8281101561125b576020850194508451915081868281518110151561121257fe5b9060200190602002019073ffffffffffffffffffffffffffffffffffffffff16908173ffffffffffffffffffffffffffffffffffffffff168152505080806001019150506111f1565b5050505050919050565b6000806000809054906101000a900473ffffffffffffffffffffffffffffffffffffffff1673ffffffffffffffffffffffffffffffffffffffff166342c71f1d7f34f01c17e9be6ddbf2c61f37b5b1fb9f1a090a975006581ad19bda1c4d3828716001026040518263ffffffff167c01000000000000000000000000000000000000000000000000000000000281526004016113019190611bdf565b602060405180830381600087803b15801561131b57600080fd5b505af115801561132f573d6000803e3d6000fd5b505050506040513d601f19601f820116820180604052506113539190810190611681565b90508091505090565b600043905090565b8280548282559060005260206000209081019282156113dd579160200282015b828111156113dc5782518260006101000a81548173ffffffffffffffffffffffffffffffffffffffff021916908373ffffffffffffffffffffffffffffffffffffffff16021790555091602001919060010190611384565b5b5090506113ea91906113ee565b5090565b61142e91905b8082111561142a57600081816101000a81549073ffffffffffffffffffffffffffffffffffffffff0219169055506001016113f4565b5090565b90565b600061143d8235611e7a565b905092915050565b60006114518251611e7a565b905092915050565b600082601f830112151561146c57600080fd5b813561147f61147a82611d90565b611d63565b915081818352602084019350602081019050838560208402820111156114a457600080fd5b60005b838110156114d457816114ba8882611630565b8452602084019350602083019250506001810190506114a7565b5050505092915050565b60006114ea8251611e9a565b905092915050565b60006114fe8235611ea6565b905092915050565b60008083601f840112151561151a57600080fd5b8235905067ffffffffffffffff81111561153357600080fd5b60208301915083600182028301111561154b57600080fd5b9250929050565b600082601f830112151561156557600080fd5b813561157861157382611db8565b611d63565b9150808252602083016020830185838301111561159457600080fd5b61159f838284611f51565b50505092915050565b60006115b48235611eb0565b905092915050565b60006115c88251611ec2565b905092915050565b60006115dc8235611ed4565b905092915050565b60008083601f84011215156115f857600080fd5b8235905067ffffffffffffffff81111561161157600080fd5b60208301915083600182028301111561162957600080fd5b9250929050565b600061163c8235611eed565b905092915050565b60006116508251611eed565b905092915050565b60006020828403121561166a57600080fd5b600061167884828501611431565b91505092915050565b60006020828403121561169357600080fd5b60006116a184828501611445565b91505092915050565b6000806000606084860312156116bf57600080fd5b60006116cd86828701611431565b93505060206116de868287016114f2565b925050604084013567ffffffffffffffff8111156116fb57600080fd5b61170786828701611459565b9150509250925092565b60006020828403121561172357600080fd5b6000611731848285016114de565b91505092915050565b60006020828403121561174c57600080fd5b600082013567ffffffffffffffff81111561176657600080fd5b61177284828501611552565b91505092915050565b60008060006040848603121561179057600080fd5b600061179e868287016115a8565b935050602084013567ffffffffffffffff8111156117bb57600080fd5b6117c786828701611506565b92509250509250925092565b6000602082840312156117e557600080fd5b60006117f3848285016115bc565b91505092915050565b6000806000806000806060878903121561181557600080fd5b600087013567ffffffffffffffff81111561182f57600080fd5b61183b89828a016115e4565b9650965050602087013567ffffffffffffffff81111561185a57600080fd5b61186689828a016115e4565b9450945050604087013567ffffffffffffffff81111561188557600080fd5b61189189828a01611506565b92509250509295509295509295565b6000602082840312156118b257600080fd5b60006118c084828501611630565b91505092915050565b6000602082840312156118db57600080fd5b60006118e984828501611644565b91505092915050565b6000806040838503121561190557600080fd5b600061191385828601611630565b9250506020611924858286016115d0565b9150509250929050565b6000806040838503121561194157600080fd5b600061194f85828601611630565b925050602061196085828601611630565b9150509250929050565b61197381611e24565b82525050565b600061198482611df6565b80845260208401935061199683611de4565b60005b828110156119c8576119ac86835461196a565b6119b582611e17565b9150602086019550600181019050611999565b50849250505092915050565b6119dd81611e44565b82525050565b6119ec81611e50565b82525050565b60006119fd82611e01565b808452611a11816020860160208601611f60565b611a1a81611f93565b602085010191505092915050565b611a3181611ef7565b82525050565b611a4081611f09565b82525050565b611a4f81611f1b565b82525050565b611a5e81611f2d565b82525050565b611a6d81611f3f565b82525050565b6000611a7e82611e0c565b808452611a92816020860160208601611f60565b611a9b81611f93565b602085010191505092915050565b611ab281611e70565b82525050565b6000602082019050611acd600083018461196a565b92915050565b6000608082019050611ae8600083018761196a565b611af5602083018661196a565b611b0260408301856119e3565b8181036060830152611b1481846119f2565b905095945050505050565b6000608082019050611b34600083018761196a565b8181036020830152611b468186611a73565b90508181036040830152611b5a8185611a73565b90508181036060830152611b6e81846119f2565b905095945050505050565b6000604082019050611b8e600083018561196a565b611b9b6020830184611aa9565b9392505050565b60006020820190508181036000830152611bbc8184611979565b905092915050565b6000602082019050611bd960008301846119d4565b92915050565b6000602082019050611bf460008301846119e3565b92915050565b60006020820190508181036000830152611c1481846119f2565b905092915050565b6000602082019050611c316000830184611a28565b92915050565b6000602082019050611c4c6000830184611a37565b92915050565b6000602082019050611c676000830184611a46565b92915050565b6000602082019050611c826000830184611a55565b92915050565b6000602082019050611c9d6000830184611aa9565b92915050565b6000606082019050611cb86000830186611aa9565b611cc5602083018561196a565b611cd26040830184611a64565b949350505050565b6000606082019050611cef6000830186611aa9565b611cfc602083018561196a565b611d096040830184611aa9565b949350505050565b6000604082019050611d266000830185611aa9565b611d336020830184611a64565b9392505050565b6000604082019050611d4f6000830185611aa9565b611d5c6020830184611aa9565b9392505050565b6000604051905081810181811067ffffffffffffffff82111715611d8657600080fd5b8060405250919050565b600067ffffffffffffffff821115611da757600080fd5b602082029050602081019050919050565b600067ffffffffffffffff821115611dcf57600080fd5b601f19601f8301169050602081019050919050565b60008160005260206000209050919050565b600081549050919050565b600081519050919050565b600081519050919050565b6000600182019050919050565b600073ffffffffffffffffffffffffffffffffffffffff82169050919050565b60008115159050919050565b6000819050919050565b6000600382101515611e6857fe5b819050919050565b6000819050919050565b600073ffffffffffffffffffffffffffffffffffffffff82169050919050565b60008115159050919050565b6000819050919050565b6000611ebb82611e24565b9050919050565b6000611ecd82611e24565b9050919050565b6000600382101515611ee557600080fd5b819050919050565b6000819050919050565b6000611f0282611e24565b9050919050565b6000611f1482611e24565b9050919050565b6000611f2682611e24565b9050919050565b6000611f3882611e24565b9050919050565b6000611f4a82611e5a565b9050919050565b82818337600083830152505050565b60005b83811015611f7e578082015181840152602081019050611f63565b83811115611f8d576000848401525b50505050565b6000601f19601f83011690509190505600a265627a7a723058209c536ae6a662148a669dfef90e7369012dd958abf09aa28200deb517d4e2491f6c6578706572696d656e74616cf50037",
  "source": "pragma solidity ^0.4.24;\npragma experimental ABIEncoderV2;\n\nimport \"../Branch.sol\";\nimport \"./BranchKit.sol\";\n\ncontract Dictatorship is BranchKit{\n    Branch    public branch;\n    bool      public ORIGIN_CAN_CANCEL;\n    address[] public dictators;\n\n    mapping(address => bool) public isDictator;\n\n    modifier onlyDictators() {\n        require(isDictator[msg.sender]);\n        _;\n    }\n\n    function bytesToParameters(bytes _parameters) internal pure returns (address[] memory _dictators) {\n        uint256 ptr;\n        uint256 offset;\n        uint256 length;\n        address dictator;\n\n        assembly {\n            ptr := add(_parameters, 64)\n            length := mload(ptr)\n        }\n        _dictators = new address[](length);\n\n        for (uint i = 0; i < length; i++) {\n            assembly {\n                ptr := add(ptr, 32)\n                dictator:= mload(ptr)\n            }\n            _dictators[i] = dictator;\n        }\n    }\n\n    function initialize(Branch _branch, bytes _parameters) onlyInit external {\n        initialized();\n        branch      = _branch;\n        (dictators) = bytesToParameters(_parameters);\n\n        for (uint i = 0 ; i < dictators.length ; i++) {\n            isDictator[dictators[i]] = true;\n        }\n    }\n\n    function submitRFC(string _tree, string _message, bytes _parents) isInitialized external {\n        _submitRFC(_tree, _message, _parents);\n    }\n\n    function valuateRFC(uint256 _rfcId, uint256 _value) isInitialized onlyDictators external {\n        _valuateRFC(_rfcId, _value);\n    }\n\n    function sortRFC(uint256 _rfcId, RFCSorting _sorting) isInitialized onlyDictators external {\n        _sortRFC(_rfcId, _sorting);\n    }\n\n    function getParameters() isInitialized external view returns (bytes) {\n        return abi.encode(dictators);\n    }\n\n    /****** INTERNAL METHODS ******/\n\n    function _submitRFC(string _tree, string _message, bytes _parents) internal {\n        uint256 rfcId = branch.submitRFC(msg.sender, _tree, _message, _parents);\n        emit SubmitRFC(rfcId);\n    }\n\n    function _valuateRFC(uint256 _rfcId, uint256 _value) internal {\n        branch.valuateRFC(_rfcId, _value);\n        emit ValuateRFC(_rfcId, msg.sender, _value);\n    }\n\n    function _sortRFC(uint256 _rfcId, RFCSorting _sorting) internal {\n        branch.sortRFC(_rfcId, _sorting);\n        emit SortRFC(_rfcId, msg.sender, _sorting);\n    }\n\n\n\n}\n",
  "sourcePath": "/Users/osarrouy/Documents/dapp/@pando/packages/core/contracts/branch/kits/Dictatorship.sol",
  "compiler": {
    "name": "solc",
    "version": "0.4.24+commit.e67f0147.Emscripten.clang"
  },
  "schemaVersion": "2.0.1",
  "updatedAt": "2018-10-05T12:39:51.671Z"
}