{
  "contractName": "DummyKit",
  "abi": [
    {
      "constant": true,
      "inputs": [],
      "name": "dummy",
      "outputs": [
        {
          "name": "",
          "type": "address"
        }
      ],
      "payable": false,
      "stateMutability": "view",
      "type": "function"
    },
    {
      "constant": true,
      "inputs": [],
      "name": "getRecoveryVault",
      "outputs": [
        {
          "name": "",
          "type": "address"
        }
      ],
      "payable": false,
      "stateMutability": "view",
      "type": "function"
    },
    {
      "constant": true,
      "inputs": [],
      "name": "branch",
      "outputs": [
        {
          "name": "",
          "type": "address"
        }
      ],
      "payable": false,
      "stateMutability": "view",
      "type": "function"
    },
    {
      "constant": true,
      "inputs": [],
      "name": "EVMSCRIPT_REGISTRY_APP_ID",
      "outputs": [
        {
          "name": "",
          "type": "bytes32"
        }
      ],
      "payable": false,
      "stateMutability": "view",
      "type": "function"
    },
    {
      "constant": true,
      "inputs": [
        {
          "name": "token",
          "type": "address"
        }
      ],
      "name": "allowRecoverability",
      "outputs": [
        {
          "name": "",
          "type": "bool"
        }
      ],
      "payable": false,
      "stateMutability": "view",
      "type": "function"
    },
    {
      "constant": true,
      "inputs": [],
      "name": "appId",
      "outputs": [
        {
          "name": "",
          "type": "bytes32"
        }
      ],
      "payable": false,
      "stateMutability": "view",
      "type": "function"
    },
    {
      "constant": true,
      "inputs": [],
      "name": "ETH",
      "outputs": [
        {
          "name": "",
          "type": "address"
        }
      ],
      "payable": false,
      "stateMutability": "view",
      "type": "function"
    },
    {
      "constant": true,
      "inputs": [],
      "name": "getInitializationBlock",
      "outputs": [
        {
          "name": "",
          "type": "uint256"
        }
      ],
      "payable": false,
      "stateMutability": "view",
      "type": "function"
    },
    {
      "constant": true,
      "inputs": [],
      "name": "EVMSCRIPT_REGISTRY_APP",
      "outputs": [
        {
          "name": "",
          "type": "bytes32"
        }
      ],
      "payable": false,
      "stateMutability": "view",
      "type": "function"
    },
    {
      "constant": false,
      "inputs": [
        {
          "name": "_token",
          "type": "address"
        }
      ],
      "name": "transferToVault",
      "outputs": [],
      "payable": false,
      "stateMutability": "nonpayable",
      "type": "function"
    },
    {
      "constant": true,
      "inputs": [
        {
          "name": "_sender",
          "type": "address"
        },
        {
          "name": "_role",
          "type": "bytes32"
        },
        {
          "name": "_params",
          "type": "uint256[]"
        }
      ],
      "name": "canPerform",
      "outputs": [
        {
          "name": "",
          "type": "bool"
        }
      ],
      "payable": false,
      "stateMutability": "view",
      "type": "function"
    },
    {
      "constant": true,
      "inputs": [],
      "name": "kernel",
      "outputs": [
        {
          "name": "",
          "type": "address"
        }
      ],
      "payable": false,
      "stateMutability": "view",
      "type": "function"
    },
    {
      "constant": true,
      "inputs": [
        {
          "name": "_script",
          "type": "bytes"
        }
      ],
      "name": "getExecutor",
      "outputs": [
        {
          "name": "",
          "type": "address"
        }
      ],
      "payable": false,
      "stateMutability": "view",
      "type": "function"
    },
    {
      "anonymous": false,
      "inputs": [
        {
          "indexed": false,
          "name": "rfcId",
          "type": "uint256"
        }
      ],
      "name": "SubmitRFC",
      "type": "event"
    },
    {
      "anonymous": false,
      "inputs": [
        {
          "indexed": false,
          "name": "rfcId",
          "type": "uint256"
        },
        {
          "indexed": false,
          "name": "sender",
          "type": "address"
        },
        {
          "indexed": false,
          "name": "value",
          "type": "uint256"
        }
      ],
      "name": "ValuateRFC",
      "type": "event"
    },
    {
      "anonymous": false,
      "inputs": [
        {
          "indexed": false,
          "name": "rfcId",
          "type": "uint256"
        },
        {
          "indexed": false,
          "name": "sender",
          "type": "address"
        },
        {
          "indexed": false,
          "name": "sorting",
          "type": "uint8"
        }
      ],
      "name": "SortRFC",
      "type": "event"
    },
    {
      "anonymous": false,
      "inputs": [
        {
          "indexed": true,
          "name": "executor",
          "type": "address"
        },
        {
          "indexed": false,
          "name": "script",
          "type": "bytes"
        },
        {
          "indexed": false,
          "name": "input",
          "type": "bytes"
        },
        {
          "indexed": false,
          "name": "returnData",
          "type": "bytes"
        }
      ],
      "name": "ScriptResult",
      "type": "event"
    },
    {
      "constant": false,
      "inputs": [
        {
          "name": "_branch",
          "type": "address"
        },
        {
          "name": "_parameters",
          "type": "bytes"
        }
      ],
      "name": "initialize",
      "outputs": [],
      "payable": false,
      "stateMutability": "nonpayable",
      "type": "function"
    },
    {
      "constant": false,
      "inputs": [
        {
          "name": "_tree",
          "type": "string"
        },
        {
          "name": "_message",
          "type": "string"
        },
        {
          "name": "_parents",
          "type": "bytes"
        }
      ],
      "name": "submitRFC",
      "outputs": [],
      "payable": false,
      "stateMutability": "nonpayable",
      "type": "function"
    },
    {
      "constant": false,
      "inputs": [
        {
          "name": "_rfcId",
          "type": "uint256"
        },
        {
          "name": "_value",
          "type": "uint256"
        }
      ],
      "name": "valuateRFC",
      "outputs": [],
      "payable": false,
      "stateMutability": "nonpayable",
      "type": "function"
    },
    {
      "constant": false,
      "inputs": [
        {
          "name": "_rfcId",
          "type": "uint256"
        },
        {
          "name": "_sorting",
          "type": "uint8"
        }
      ],
      "name": "sortRFC",
      "outputs": [],
      "payable": false,
      "stateMutability": "nonpayable",
      "type": "function"
    },
    {
      "constant": true,
      "inputs": [],
      "name": "getParameters",
      "outputs": [
        {
          "name": "",
          "type": "bytes"
        }
      ],
      "payable": false,
      "stateMutability": "view",
      "type": "function"
    }
  ],
  "bytecode": "0x608060405234801561001057600080fd5b50611c5b806100206000396000f3006080604052600436106100fc576000357c0100000000000000000000000000000000000000000000000000000000900463ffffffff1680631f1545b01461010157806332e43a111461012a57806332f0a3b5146101555780634b72d0d41461018057806360b1e057146101ab5780637e7db6e1146101d6578063802f7bf51461021357806380afdea81461023c5780638322fff2146102675780638b3dd749146102925780639b3fdf4c146102bd5780639d4941d8146102e8578063a1658fad14610311578063a5ea11da1461034e578063c74836fc14610379578063d1f57894146103a2578063d4aae0c4146103cb578063f92a79ff146103f6575b600080fd5b34801561010d57600080fd5b5061012860048036036101239190810190611549565b610433565b005b34801561013657600080fd5b5061013f6104ed565b60405161014c9190611781565b60405180910390f35b34801561016157600080fd5b5061016a610513565b6040516101779190611781565b60405180910390f35b34801561018c57600080fd5b5061019561061d565b6040516101a291906118c3565b60405180910390f35b3480156101b757600080fd5b506101c0610643565b6040516101cd9190611886565b60405180910390f35b3480156101e257600080fd5b506101fd60048036036101f891908101906113a5565b61066a565b60405161020a919061186b565b60405180910390f35b34801561021f57600080fd5b5061023a60048036036102359190810190611652565b610675565b005b34801561024857600080fd5b506102516106f0565b60405161025e9190611886565b60405180910390f35b34801561027357600080fd5b5061027c6106f6565b6040516102899190611781565b60405180910390f35b34801561029e57600080fd5b506102a76106fb565b6040516102b4919061192f565b60405180910390f35b3480156102c957600080fd5b506102d2610705565b6040516102df9190611886565b60405180910390f35b3480156102f457600080fd5b5061030f600480360361030a91908101906113a5565b61072c565b005b34801561031d57600080fd5b50610338600480360361033391908101906113f7565b610952565b604051610345919061186b565b60405180910390f35b34801561035a57600080fd5b50610363610a8a565b60405161037091906118a1565b60405180910390f35b34801561038557600080fd5b506103a0600480360361039b9190810190611616565b610ae4565b005b3480156103ae57600080fd5b506103c960048036036103c491908101906114c8565b610b5f565b005b3480156103d757600080fd5b506103e0610c39565b6040516103ed91906118f9565b60405180910390f35b34801561040257600080fd5b5061041d60048036036104189190810190611487565b610c5e565b60405161042a91906118de565b60405180910390f35b600060035411151561044457600080fd5b6104e586868080601f01602080910402602001604051908101604052809392919081815260200183838082843782019150505050505085858080601f01602080910402602001604051908101604052809392919081815260200183838082843782019150505050505084848080601f016020809104026020016040519081016040528093929190818152602001838380828437820191505050505050610d15565b505050505050565b606560009054906101000a900473ffffffffffffffffffffffffffffffffffffffff1681565b6000806000809054906101000a900473ffffffffffffffffffffffffffffffffffffffff1673ffffffffffffffffffffffffffffffffffffffff161415151561055b57600080fd5b6000809054906101000a900473ffffffffffffffffffffffffffffffffffffffff1673ffffffffffffffffffffffffffffffffffffffff166332f0a3b56040518163ffffffff167c0100000000000000000000000000000000000000000000000000000000028152600401602060405180830381600087803b1580156105e057600080fd5b505af11580156105f4573d6000803e3d6000fd5b505050506040513d601f19601f8201168201806040525061061891908101906113ce565b905090565b606460009054906101000a900473ffffffffffffffffffffffffffffffffffffffff1681565b7fddbcfd564f642ab5627cf68b9b7d374fb4f8a36e941a75d89c87998cef03bd6160010281565b600060019050919050565b600060035411151561068657600080fd5b606560009054906101000a900473ffffffffffffffffffffffffffffffffffffffff1673ffffffffffffffffffffffffffffffffffffffff163373ffffffffffffffffffffffffffffffffffffffff161415156106e257600080fd5b6106ec8282610e25565b5050565b60015481565b600081565b6000600354905090565b7f34f01c17e9be6ddbf2c61f37b5b1fb9f1a090a975006581ad19bda1c4d38287160010281565b6000806107388361066a565b151561074357600080fd5b61074b610513565b915061075682610f0f565b151561076157600080fd5b600073ffffffffffffffffffffffffffffffffffffffff168373ffffffffffffffffffffffffffffffffffffffff1614156107f9578173ffffffffffffffffffffffffffffffffffffffff166108fc3073ffffffffffffffffffffffffffffffffffffffff16319081150290604051600060405180830381858888f193505050501580156107f3573d6000803e3d6000fd5b5061094d565b8273ffffffffffffffffffffffffffffffffffffffff166370a08231306040518263ffffffff167c010000000000000000000000000000000000000000000000000000000002815260040161084e9190611914565b602060405180830381600087803b15801561086857600080fd5b505af115801561087c573d6000803e3d6000fd5b505050506040513d601f19601f820116820180604052506108a091908101906115ed565b90508273ffffffffffffffffffffffffffffffffffffffff1663a9059cbb83836040518363ffffffff167c01000000000000000000000000000000000000000000000000000000000281526004016108f9929190611842565b602060405180830381600087803b15801561091357600080fd5b505af1158015610927573d6000803e3d6000fd5b505050506040513d601f19601f8201168201806040525061094b919081019061145e565b505b505050565b600060606000808451111561096f57602084510290508391508082525b60008060009054906101000a900473ffffffffffffffffffffffffffffffffffffffff1673ffffffffffffffffffffffffffffffffffffffff161480610a7f57506000809054906101000a900473ffffffffffffffffffffffffffffffffffffffff1673ffffffffffffffffffffffffffffffffffffffff1663fdef9106873088866040518563ffffffff167c0100000000000000000000000000000000000000000000000000000000028152600401610a2c949392919061179c565b602060405180830381600087803b158015610a4657600080fd5b505af1158015610a5a573d6000803e3d6000fd5b505050506040513d601f19601f82011682018060405250610a7e919081019061145e565b5b925050509392505050565b60606000600354111515610a9d57600080fd5b606560009054906101000a900473ffffffffffffffffffffffffffffffffffffffff16604051602001610ad09190611781565b604051602081830303815290604052905090565b6000600354111515610af557600080fd5b606560009054906101000a900473ffffffffffffffffffffffffffffffffffffffff1673ffffffffffffffffffffffffffffffffffffffff163373ffffffffffffffffffffffffffffffffffffffff16141515610b5157600080fd5b610b5b8282610f61565b5050565b6000600354141515610b7057600080fd5b610b7861104b565b82606460006101000a81548173ffffffffffffffffffffffffffffffffffffffff021916908373ffffffffffffffffffffffffffffffffffffffff160217905550610bf482828080601f01602080910402602001604051908101604052809392919081815260200183838082843782019150505050505061106c565b606560006101000a81548173ffffffffffffffffffffffffffffffffffffffff021916908373ffffffffffffffffffffffffffffffffffffffff160217905550505050565b6000809054906101000a900473ffffffffffffffffffffffffffffffffffffffff1681565b6000610c6861107f565b73ffffffffffffffffffffffffffffffffffffffff166304bf2a7f836040518263ffffffff167c0100000000000000000000000000000000000000000000000000000000028152600401610cbc91906118a1565b602060405180830381600087803b158015610cd657600080fd5b505af1158015610cea573d6000803e3d6000fd5b505050506040513d601f19601f82011682018060405250610d0e9190810190611520565b9050919050565b6000606460009054906101000a900473ffffffffffffffffffffffffffffffffffffffff1673ffffffffffffffffffffffffffffffffffffffff16634729b1c1338686866040518563ffffffff167c0100000000000000000000000000000000000000000000000000000000028152600401610d9494939291906117e8565b602060405180830381600087803b158015610dae57600080fd5b505af1158015610dc2573d6000803e3d6000fd5b505050506040513d601f19601f82011682018060405250610de691908101906115ed565b90507f07b73166689bc46a6f4686c0f9289ac152a55c08c8840e9f5886813ece3e1e8d81604051610e17919061192f565b60405180910390a150505050565b7fc87a1f6d749ec45b929cc844ea5d51448bf495ac30d9cea9d9a6f4f3dbbe643c823383604051610e5893929190611981565b60405180910390a1606460009054906101000a900473ffffffffffffffffffffffffffffffffffffffff1673ffffffffffffffffffffffffffffffffffffffff1663802f7bf583836040518363ffffffff167c0100000000000000000000000000000000000000000000000000000000028152600401610ed99291906119e1565b600060405180830381600087803b158015610ef357600080fd5b505af1158015610f07573d6000803e3d6000fd5b505050505050565b600080600073ffffffffffffffffffffffffffffffffffffffff168373ffffffffffffffffffffffffffffffffffffffff161415610f505760009150610f5b565b823b90506000811191505b50919050565b7fbc9c473aa42ff9fa72ea25cc0df23a824c08ac43f4895da24854a85584631c3a823383604051610f949392919061194a565b60405180910390a1606460009054906101000a900473ffffffffffffffffffffffffffffffffffffffff1673ffffffffffffffffffffffffffffffffffffffff1663c74836fc83836040518363ffffffff167c01000000000000000000000000000000000000000000000000000000000281526004016110159291906119b8565b600060405180830381600087803b15801561102f57600080fd5b505af1158015611043573d6000803e3d6000fd5b505050505050565b600060035414151561105c57600080fd5b611064611176565b600381905550565b6000806020830190508051915050919050565b6000806000809054906101000a900473ffffffffffffffffffffffffffffffffffffffff1673ffffffffffffffffffffffffffffffffffffffff166342c71f1d7f34f01c17e9be6ddbf2c61f37b5b1fb9f1a090a975006581ad19bda1c4d3828716001026040518263ffffffff167c010000000000000000000000000000000000000000000000000000000002815260040161111b9190611886565b602060405180830381600087803b15801561113557600080fd5b505af1158015611149573d6000803e3d6000fd5b505050506040513d601f19601f8201168201806040525061116d91908101906113ce565b90508091505090565b600043905090565b600061118a8235611af7565b905092915050565b600061119e8251611af7565b905092915050565b600082601f83011215156111b957600080fd5b81356111cc6111c782611a37565b611a0a565b915081818352602084019350602081019050838560208402820111156111f157600080fd5b60005b838110156112215781611207888261137d565b8452602084019350602083019250506001810190506111f4565b5050505092915050565b60006112378251611b17565b905092915050565b600061124b8235611b23565b905092915050565b60008083601f840112151561126757600080fd5b8235905067ffffffffffffffff81111561128057600080fd5b60208301915083600182028301111561129857600080fd5b9250929050565b600082601f83011215156112b257600080fd5b81356112c56112c082611a5f565b611a0a565b915080825260208301602083018583830111156112e157600080fd5b6112ec838284611bce565b50505092915050565b60006113018235611b2d565b905092915050565b60006113158251611b3f565b905092915050565b60006113298235611b51565b905092915050565b60008083601f840112151561134557600080fd5b8235905067ffffffffffffffff81111561135e57600080fd5b60208301915083600182028301111561137657600080fd5b9250929050565b60006113898235611b6a565b905092915050565b600061139d8251611b6a565b905092915050565b6000602082840312156113b757600080fd5b60006113c58482850161117e565b91505092915050565b6000602082840312156113e057600080fd5b60006113ee84828501611192565b91505092915050565b60008060006060848603121561140c57600080fd5b600061141a8682870161117e565b935050602061142b8682870161123f565b925050604084013567ffffffffffffffff81111561144857600080fd5b611454868287016111a6565b9150509250925092565b60006020828403121561147057600080fd5b600061147e8482850161122b565b91505092915050565b60006020828403121561149957600080fd5b600082013567ffffffffffffffff8111156114b357600080fd5b6114bf8482850161129f565b91505092915050565b6000806000604084860312156114dd57600080fd5b60006114eb868287016112f5565b935050602084013567ffffffffffffffff81111561150857600080fd5b61151486828701611253565b92509250509250925092565b60006020828403121561153257600080fd5b600061154084828501611309565b91505092915050565b6000806000806000806060878903121561156257600080fd5b600087013567ffffffffffffffff81111561157c57600080fd5b61158889828a01611331565b9650965050602087013567ffffffffffffffff8111156115a757600080fd5b6115b389828a01611331565b9450945050604087013567ffffffffffffffff8111156115d257600080fd5b6115de89828a01611253565b92509250509295509295509295565b6000602082840312156115ff57600080fd5b600061160d84828501611391565b91505092915050565b6000806040838503121561162957600080fd5b60006116378582860161137d565b92505060206116488582860161131d565b9150509250929050565b6000806040838503121561166557600080fd5b60006116738582860161137d565b92505060206116848582860161137d565b9150509250929050565b61169781611aa1565b82525050565b6116a681611ac1565b82525050565b6116b581611acd565b82525050565b60006116c682611a8b565b8084526116da816020860160208601611bdd565b6116e381611c10565b602085010191505092915050565b6116fa81611b74565b82525050565b61170981611b86565b82525050565b61171881611b98565b82525050565b61172781611baa565b82525050565b61173681611bbc565b82525050565b600061174782611a96565b80845261175b816020860160208601611bdd565b61176481611c10565b602085010191505092915050565b61177b81611aed565b82525050565b6000602082019050611796600083018461168e565b92915050565b60006080820190506117b1600083018761168e565b6117be602083018661168e565b6117cb60408301856116ac565b81810360608301526117dd81846116bb565b905095945050505050565b60006080820190506117fd600083018761168e565b818103602083015261180f818661173c565b90508181036040830152611823818561173c565b9050818103606083015261183781846116bb565b905095945050505050565b6000604082019050611857600083018561168e565b6118646020830184611772565b9392505050565b6000602082019050611880600083018461169d565b92915050565b600060208201905061189b60008301846116ac565b92915050565b600060208201905081810360008301526118bb81846116bb565b905092915050565b60006020820190506118d860008301846116f1565b92915050565b60006020820190506118f36000830184611700565b92915050565b600060208201905061190e600083018461170f565b92915050565b6000602082019050611929600083018461171e565b92915050565b60006020820190506119446000830184611772565b92915050565b600060608201905061195f6000830186611772565b61196c602083018561168e565b611979604083018461172d565b949350505050565b60006060820190506119966000830186611772565b6119a3602083018561168e565b6119b06040830184611772565b949350505050565b60006040820190506119cd6000830185611772565b6119da602083018461172d565b9392505050565b60006040820190506119f66000830185611772565b611a036020830184611772565b9392505050565b6000604051905081810181811067ffffffffffffffff82111715611a2d57600080fd5b8060405250919050565b600067ffffffffffffffff821115611a4e57600080fd5b602082029050602081019050919050565b600067ffffffffffffffff821115611a7657600080fd5b601f19601f8301169050602081019050919050565b600081519050919050565b600081519050919050565b600073ffffffffffffffffffffffffffffffffffffffff82169050919050565b60008115159050919050565b6000819050919050565b6000600382101515611ae557fe5b819050919050565b6000819050919050565b600073ffffffffffffffffffffffffffffffffffffffff82169050919050565b60008115159050919050565b6000819050919050565b6000611b3882611aa1565b9050919050565b6000611b4a82611aa1565b9050919050565b6000600382101515611b6257600080fd5b819050919050565b6000819050919050565b6000611b7f82611aa1565b9050919050565b6000611b9182611aa1565b9050919050565b6000611ba382611aa1565b9050919050565b6000611bb582611aa1565b9050919050565b6000611bc782611ad7565b9050919050565b82818337600083830152505050565b60005b83811015611bfb578082015181840152602081019050611be0565b83811115611c0a576000848401525b50505050565b6000601f19601f83011690509190505600a265627a7a723058202942552c29557a576d521cc781232bcace172bd375bf1e7c0b362b79112d92c26c6578706572696d656e74616cf50037",
  "source": "pragma solidity ^0.4.24;\npragma experimental ABIEncoderV2;\n\nimport \"../Branch.sol\";\nimport \"./BranchKit.sol\";\n\ncontract DummyKit is BranchKit{\n    address public dummy;\n\n    modifier onlyDummy() {\n        require(msg.sender == dummy);\n        _;\n    }\n\n    function bytesToParameters(bytes _parameters) internal pure returns (address _dummy) {\n        uint256 ptr;\n\n        assembly {\n            ptr := add(_parameters, 32)\n            _dummy := mload(ptr)\n        }\n    }\n\n    function initialize(Branch _branch, bytes _parameters) onlyInit external {\n        initialized();\n        branch  = _branch;\n        (dummy) = bytesToParameters(_parameters);\n    }\n\n    function submitRFC(string _tree, string _message, bytes _parents) isInitialized external {\n        _submitRFC(_tree, _message, _parents);\n    }\n\n    function valuateRFC(uint256 _rfcId, uint256 _value) isInitialized onlyDummy external {\n        _valuateRFC(_rfcId, _value);\n    }\n\n    function sortRFC(uint256 _rfcId, RFCSorting _sorting) isInitialized onlyDummy external {\n        _sortRFC(_rfcId, _sorting);\n    }\n\n    function getParameters() isInitialized external view returns (bytes) {\n        return abi.encode(dummy);\n    }\n\n    /****** INTERNAL METHODS ******/\n\n    function _submitRFC(string _tree, string _message, bytes _parents) internal {\n        uint256 rfcId = branch.submitRFC(msg.sender, _tree, _message, _parents);\n        emit SubmitRFC(rfcId);\n    }\n\n    function _valuateRFC(uint256 _rfcId, uint256 _value) internal {\n        emit ValuateRFC(_rfcId, msg.sender, _value);\n        branch.valuateRFC(_rfcId, _value);\n    }\n\n    function _sortRFC(uint256 _rfcId, RFCSorting _sorting) internal {\n        emit SortRFC(_rfcId, msg.sender, _sorting);\n        branch.sortRFC(_rfcId, _sorting);\n    }\n\n\n\n}\n",
  "sourcePath": "/Users/osarrouy/Documents/dapp/@pando/packages/core/contracts/branch/kits/DummyKit.sol",
  "compiler": {
    "name": "solc",
    "version": "0.4.24+commit.e67f0147.Emscripten.clang"
  },
  "schemaVersion": "2.0.1",
  "updatedAt": "2018-10-05T12:39:51.556Z"
}