{
  "contractName": "EtherTokenConstant",
  "abi": [
    {
      "constant": true,
      "inputs": [],
      "name": "ETH",
      "outputs": [
        {
          "name": "",
          "type": "address"
        }
      ],
      "payable": false,
      "stateMutability": "view",
      "type": "function"
    }
  ],
  "bytecode": "0x6060604052341561000f57600080fd5b60c78061001d6000396000f300606060405260043610603f576000357c0100000000000000000000000000000000000000000000000000000000900463ffffffff1680638322fff2146044575b600080fd5b3415604e57600080fd5b60546096565b604051808273ffffffffffffffffffffffffffffffffffffffff1673ffffffffffffffffffffffffffffffffffffffff16815260200191505060405180910390f35b6000815600a165627a7a72305820acd9446314d26d4ebca08df7cdef820766ee7a942b362f3ab7e03c47a0a62b9d0029",
  "source": "pragma solidity ^0.4.18;\n\n\n// aragonOS and aragon-apps rely on address(0) to denote native ETH, in\n// contracts where both tokens and ETH are accepted\ncontract EtherTokenConstant {\n    address constant public ETH = address(0);\n}\n",
  "sourcePath": "@aragon/os/contracts/common/EtherTokenConstant.sol",
  "compiler": {
    "name": "solc",
    "version": "0.4.18+commit.9cf6e910.Emscripten.clang"
  },
  "schemaVersion": "1.0.1",
  "updatedAt": "2018-07-26T09:18:09.340Z"
}