{
  "contractName": "EtherTokenConstant",
  "abi": [
    {
      "constant": true,
      "inputs": [],
      "name": "ETH",
      "outputs": [
        {
          "name": "",
          "type": "address"
        }
      ],
      "payable": false,
      "stateMutability": "view",
      "type": "function"
    }
  ],
  "bytecode": "0x608060405234801561001057600080fd5b5060c98061001f6000396000f300608060405260043610603f576000357c0100000000000000000000000000000000000000000000000000000000900463ffffffff1680638322fff2146044575b600080fd5b348015604f57600080fd5b5060566098565b604051808273ffffffffffffffffffffffffffffffffffffffff1673ffffffffffffffffffffffffffffffffffffffff16815260200191505060405180910390f35b6000815600a165627a7a72305820f4748372de12ab032b8d9482d27bccd52bc1b75bb81719e8c23559d6055fdcaf0029",
  "source": "/*\n * SPDX-License-Identitifer:    MIT\n */\n\npragma solidity ^0.4.24;\n\n\n// aragonOS and aragon-apps rely on address(0) to denote native ETH, in\n// contracts where both tokens and ETH are accepted\ncontract EtherTokenConstant {\n    address public constant ETH = address(0);\n}\n",
  "sourcePath": "@aragon/os/contracts/common/EtherTokenConstant.sol",
  "compiler": {
    "name": "solc",
    "version": "0.4.24+commit.e67f0147.Emscripten.clang"
  },
  "schemaVersion": "3.0.0-beta.1",
  "updatedAt": "2018-11-23T10:39:45.677Z"
}