{
  "contractName": "EVMScriptRunner",
  "abi": [
    {
      "constant": true,
      "inputs": [],
      "name": "EVMSCRIPT_REGISTRY_APP_ID",
      "outputs": [
        {
          "name": "",
          "type": "bytes32"
        }
      ],
      "payable": false,
      "stateMutability": "view",
      "type": "function"
    },
    {
      "constant": true,
      "inputs": [],
      "name": "appId",
      "outputs": [
        {
          "name": "",
          "type": "bytes32"
        }
      ],
      "payable": false,
      "stateMutability": "view",
      "type": "function"
    },
    {
      "constant": true,
      "inputs": [],
      "name": "EVMSCRIPT_REGISTRY_APP",
      "outputs": [
        {
          "name": "",
          "type": "bytes32"
        }
      ],
      "payable": false,
      "stateMutability": "view",
      "type": "function"
    },
    {
      "constant": true,
      "inputs": [],
      "name": "kernel",
      "outputs": [
        {
          "name": "",
          "type": "address"
        }
      ],
      "payable": false,
      "stateMutability": "view",
      "type": "function"
    },
    {
      "anonymous": false,
      "inputs": [
        {
          "indexed": true,
          "name": "executor",
          "type": "address"
        },
        {
          "indexed": false,
          "name": "script",
          "type": "bytes"
        },
        {
          "indexed": false,
          "name": "input",
          "type": "bytes"
        },
        {
          "indexed": false,
          "name": "returnData",
          "type": "bytes"
        }
      ],
      "name": "ScriptResult",
      "type": "event"
    },
    {
      "constant": true,
      "inputs": [
        {
          "name": "_script",
          "type": "bytes"
        }
      ],
      "name": "getExecutor",
      "outputs": [
        {
          "name": "",
          "type": "address"
        }
      ],
      "payable": false,
      "stateMutability": "view",
      "type": "function"
    }
  ],
  "bytecode": "0x608060405234801561001057600080fd5b506104d1806100206000396000f30060806040526004361061006d576000357c0100000000000000000000000000000000000000000000000000000000900463ffffffff16806360b1e0571461007257806380afdea8146100a55780639b3fdf4c146100d8578063d4aae0c41461010b578063f92a79ff14610162575b600080fd5b34801561007e57600080fd5b5061008761020b565b60405180826000191660001916815260200191505060405180910390f35b3480156100b157600080fd5b506100ba610232565b60405180826000191660001916815260200191505060405180910390f35b3480156100e457600080fd5b506100ed610238565b60405180826000191660001916815260200191505060405180910390f35b34801561011757600080fd5b5061012061025f565b604051808273ffffffffffffffffffffffffffffffffffffffff1673ffffffffffffffffffffffffffffffffffffffff16815260200191505060405180910390f35b34801561016e57600080fd5b506101c9600480360381019080803590602001908201803590602001908080601f0160208091040260200160405190810160405280939291908181526020018383808284378201915050505050509192919290505050610284565b604051808273ffffffffffffffffffffffffffffffffffffffff1673ffffffffffffffffffffffffffffffffffffffff16815260200191505060405180910390f35b7fddbcfd564f642ab5627cf68b9b7d374fb4f8a36e941a75d89c87998cef03bd6160010281565b60015481565b7f34f01c17e9be6ddbf2c61f37b5b1fb9f1a090a975006581ad19bda1c4d38287160010281565b6000809054906101000a900473ffffffffffffffffffffffffffffffffffffffff1681565b600061028e6103a3565b73ffffffffffffffffffffffffffffffffffffffff166304bf2a7f836040518263ffffffff167c01000000000000000000000000000000000000000000000000000000000281526004018080602001828103825283818151815260200191508051906020019080838360005b838110156103155780820151818401526020810190506102fa565b50505050905090810190601f1680156103425780820380516001836020036101000a031916815260200191505b5092505050602060405180830381600087803b15801561036157600080fd5b505af1158015610375573d6000803e3d6000fd5b505050506040513d602081101561038b57600080fd5b81019080805190602001909291905050509050919050565b6000806000809054906101000a900473ffffffffffffffffffffffffffffffffffffffff1673ffffffffffffffffffffffffffffffffffffffff166342c71f1d7f34f01c17e9be6ddbf2c61f37b5b1fb9f1a090a975006581ad19bda1c4d3828716001026040518263ffffffff167c0100000000000000000000000000000000000000000000000000000000028152600401808260001916600019168152602001915050602060405180830381600087803b15801561046157600080fd5b505af1158015610475573d6000803e3d6000fd5b505050506040513d602081101561048b57600080fd5b8101908080519060200190929190505050905080915050905600a165627a7a72305820011b54776d42704c696660c0bbc96f41c516a37b869ca5a119bfef3565d8bf310029",
  "source": "/*\n * SPDX-License-Identitifer:    MIT\n */\n\npragma solidity ^0.4.18;\n\nimport \"./ScriptHelpers.sol\";\nimport \"./IEVMScriptExecutor.sol\";\nimport \"./IEVMScriptRegistry.sol\";\n\nimport \"../apps/AppStorage.sol\";\n\n\ncontract EVMScriptRunner is AppStorage, EVMScriptRegistryConstants {\n    using ScriptHelpers for bytes;\n\n    event ScriptResult(address indexed executor, bytes script, bytes input, bytes returnData);\n\n    function getExecutor(bytes _script) public view returns (IEVMScriptExecutor) {\n        return IEVMScriptExecutor(getExecutorRegistry().getScriptExecutor(_script));\n    }\n\n    function runScript(bytes _script, bytes _input, address[] _blacklist) internal protectState returns (bytes output) {\n        // TODO: Too much data flying around, maybe extracting spec id here is cheaper\n        IEVMScriptExecutor executor = getExecutor(_script);\n        require(address(executor) != address(0));\n\n        bytes memory calldataArgs = _script.encode(_input, _blacklist);\n        bytes4 sig = executor.execScript.selector;\n\n        require(address(executor).delegatecall(sig, calldataArgs));\n\n        output = returnedDataDecoded();\n\n        ScriptResult(address(executor), _script, _input, output);\n    }\n\n    function getExecutorRegistry() internal view returns (IEVMScriptRegistry) {\n        address registryAddr = kernel.getApp(EVMSCRIPT_REGISTRY_APP);\n        return IEVMScriptRegistry(registryAddr);\n    }\n\n    /**\n    * @dev copies and returns last's call data. Needs to ABI decode first\n    */\n    function returnedDataDecoded() internal pure returns (bytes ret) {\n        assembly {\n            let size := returndatasize\n            switch size\n            case 0 {}\n            default {\n                ret := mload(0x40) // free mem ptr get\n                mstore(0x40, add(ret, add(size, 0x20))) // free mem ptr set\n                returndatacopy(ret, 0x20, sub(size, 0x20)) // copy return data\n            }\n        }\n        return ret;\n    }\n\n    modifier protectState {\n        address preKernel = kernel;\n        bytes32 preAppId = appId;\n        _; // exec\n        require(kernel == preKernel);\n        require(appId == preAppId);\n    }\n}\n",
  "sourcePath": "@aragon/os/contracts/evmscript/EVMScriptRunner.sol",
  "compiler": {
    "name": "solc",
    "version": "0.4.24+commit.e67f0147.Emscripten.clang"
  },
  "schemaVersion": "2.0.0",
  "updatedAt": "2018-08-29T17:55:12.591Z"
}