{
  "contractName": "EVMScriptRegistryFactory",
  "abi": [
    {
      "constant": true,
      "inputs": [],
      "name": "baseReg",
      "outputs": [
        {
          "name": "",
          "type": "address"
        }
      ],
      "payable": false,
      "stateMutability": "view",
      "type": "function"
    },
    {
      "constant": true,
      "inputs": [],
      "name": "APP_ADDR_NAMESPACE",
      "outputs": [
        {
          "name": "",
          "type": "bytes32"
        }
      ],
      "payable": false,
      "stateMutability": "view",
      "type": "function"
    },
    {
      "constant": true,
      "inputs": [],
      "name": "baseDeployDel",
      "outputs": [
        {
          "name": "",
          "type": "address"
        }
      ],
      "payable": false,
      "stateMutability": "view",
      "type": "function"
    },
    {
      "constant": true,
      "inputs": [],
      "name": "EVMSCRIPT_REGISTRY_APP_ID",
      "outputs": [
        {
          "name": "",
          "type": "bytes32"
        }
      ],
      "payable": false,
      "stateMutability": "view",
      "type": "function"
    },
    {
      "constant": false,
      "inputs": [
        {
          "name": "_dao",
          "type": "address"
        },
        {
          "name": "_root",
          "type": "address"
        }
      ],
      "name": "newEVMScriptRegistry",
      "outputs": [
        {
          "name": "reg",
          "type": "address"
        }
      ],
      "payable": false,
      "stateMutability": "nonpayable",
      "type": "function"
    },
    {
      "constant": true,
      "inputs": [],
      "name": "EVMSCRIPT_REGISTRY_APP",
      "outputs": [
        {
          "name": "",
          "type": "bytes32"
        }
      ],
      "payable": false,
      "stateMutability": "view",
      "type": "function"
    },
    {
      "constant": true,
      "inputs": [],
      "name": "baseCalls",
      "outputs": [
        {
          "name": "",
          "type": "address"
        }
      ],
      "payable": false,
      "stateMutability": "view",
      "type": "function"
    },
    {
      "constant": false,
      "inputs": [
        {
          "name": "_kernel",
          "type": "address"
        },
        {
          "name": "_appId",
          "type": "bytes32"
        },
        {
          "name": "_initializePayload",
          "type": "bytes"
        }
      ],
      "name": "newAppProxyPinned",
      "outputs": [
        {
          "name": "",
          "type": "address"
        }
      ],
      "payable": false,
      "stateMutability": "nonpayable",
      "type": "function"
    },
    {
      "constant": false,
      "inputs": [
        {
          "name": "_kernel",
          "type": "address"
        },
        {
          "name": "_appId",
          "type": "bytes32"
        }
      ],
      "name": "newAppProxy",
      "outputs": [
        {
          "name": "",
          "type": "address"
        }
      ],
      "payable": false,
      "stateMutability": "nonpayable",
      "type": "function"
    },
    {
      "constant": true,
      "inputs": [],
      "name": "baseDel",
      "outputs": [
        {
          "name": "",
          "type": "address"
        }
      ],
      "payable": false,
      "stateMutability": "view",
      "type": "function"
    },
    {
      "constant": false,
      "inputs": [
        {
          "name": "_kernel",
          "type": "address"
        },
        {
          "name": "_appId",
          "type": "bytes32"
        },
        {
          "name": "_initializePayload",
          "type": "bytes"
        }
      ],
      "name": "newAppProxy",
      "outputs": [
        {
          "name": "",
          "type": "address"
        }
      ],
      "payable": false,
      "stateMutability": "nonpayable",
      "type": "function"
    },
    {
      "constant": false,
      "inputs": [
        {
          "name": "_kernel",
          "type": "address"
        },
        {
          "name": "_appId",
          "type": "bytes32"
        }
      ],
      "name": "newAppProxyPinned",
      "outputs": [
        {
          "name": "",
          "type": "address"
        }
      ],
      "payable": false,
      "stateMutability": "nonpayable",
      "type": "function"
    },
    {
      "inputs": [],
      "payable": false,
      "stateMutability": "nonpayable",
      "type": "constructor"
    },
    {
      "anonymous": false,
      "inputs": [
        {
          "indexed": false,
          "name": "proxy",
          "type": "address"
        },
        {
          "indexed": false,
          "name": "isUpgradeable",
          "type": "bool"
        },
        {
          "indexed": false,
          "name": "appId",
          "type": "bytes32"
        }
      ],
      "name": "NewAppProxy",
      "type": "event"
    }
  ],
  "bytecode": "0x606060405234156200001057600080fd5b6200001a62000199565b604051809103906000f08015156200003157600080fd5b6000806101000a81548173ffffffffffffffffffffffffffffffffffffffff021916908373ffffffffffffffffffffffffffffffffffffffff1602179055506200007a620001aa565b604051809103906000f08015156200009157600080fd5b600160006101000a81548173ffffffffffffffffffffffffffffffffffffffff021916908373ffffffffffffffffffffffffffffffffffffffff160217905550620000db620001bb565b604051809103906000f0801515620000f257600080fd5b600260006101000a81548173ffffffffffffffffffffffffffffffffffffffff021916908373ffffffffffffffffffffffffffffffffffffffff1602179055506200013c620001cc565b604051809103906000f08015156200015357600080fd5b600360006101000a81548173ffffffffffffffffffffffffffffffffffffffff021916908373ffffffffffffffffffffffffffffffffffffffff160217905550620001dd565b6040516113f68062002e4183390190565b604051610517806200423783390190565b6040516104af806200474e83390190565b6040516105928062004bfd83390190565b612c5480620001ed6000396000f300606060405260043610620000c7576000357c0100000000000000000000000000000000000000000000000000000000900463ffffffff168063127d679c14620000cc578063178e607914620001245780631b380940146200015857806360b1e05714620001b0578063869abc2414620001e45780639b3fdf4c146200027f578063af9a21bc14620002b3578063d162f8b0146200030b578063e156a8f314620003d7578063e602e7121462000460578063ede658b014620004b8578063ff289fc51462000584575b600080fd5b3415620000d857600080fd5b620000e26200060d565b604051808273ffffffffffffffffffffffffffffffffffffffff1673ffffffffffffffffffffffffffffffffffffffff16815260200191505060405180910390f35b34156200013057600080fd5b6200013a62000632565b60405180826000191660001916815260200191505060405180910390f35b34156200016457600080fd5b6200016e62000659565b604051808273ffffffffffffffffffffffffffffffffffffffff1673ffffffffffffffffffffffffffffffffffffffff16815260200191505060405180910390f35b3415620001bc57600080fd5b620001c66200067f565b60405180826000191660001916815260200191505060405180910390f35b3415620001f057600080fd5b6200023d600480803573ffffffffffffffffffffffffffffffffffffffff1690602001909190803573ffffffffffffffffffffffffffffffffffffffff16906020019091905050620006a6565b604051808273ffffffffffffffffffffffffffffffffffffffff1673ffffffffffffffffffffffffffffffffffffffff16815260200191505060405180910390f35b34156200028b57600080fd5b620002956200102b565b60405180826000191660001916815260200191505060405180910390f35b3415620002bf57600080fd5b620002c962001052565b604051808273ffffffffffffffffffffffffffffffffffffffff1673ffffffffffffffffffffffffffffffffffffffff16815260200191505060405180910390f35b34156200031757600080fd5b62000395600480803573ffffffffffffffffffffffffffffffffffffffff169060200190919080356000191690602001909190803590602001908201803590602001908080601f0160208091040260200160405190810160405280939291908181526020018383808284378201915050505050509190505062001078565b604051808273ffffffffffffffffffffffffffffffffffffffff1673ffffffffffffffffffffffffffffffffffffffff16815260200191505060405180910390f35b3415620003e357600080fd5b6200041e600480803573ffffffffffffffffffffffffffffffffffffffff1690602001909190803560001916906020019091905050620011e0565b604051808273ffffffffffffffffffffffffffffffffffffffff1673ffffffffffffffffffffffffffffffffffffffff16815260200191505060405180910390f35b34156200046c57600080fd5b620004766200121b565b604051808273ffffffffffffffffffffffffffffffffffffffff1673ffffffffffffffffffffffffffffffffffffffff16815260200191505060405180910390f35b3415620004c457600080fd5b62000542600480803573ffffffffffffffffffffffffffffffffffffffff169060200190919080356000191690602001909190803590602001908201803590602001908080601f0160208091040260200160405190810160405280939291908181526020018383808284378201915050505050509190505062001241565b604051808273ffffffffffffffffffffffffffffffffffffffff1673ffffffffffffffffffffffffffffffffffffffff16815260200191505060405180910390f35b34156200059057600080fd5b620005cb600480803573ffffffffffffffffffffffffffffffffffffffff1690602001909190803560001916906020019091905050620013a9565b604051808273ffffffffffffffffffffffffffffffffffffffff1673ffffffffffffffffffffffffffffffffffffffff16815260200191505060405180910390f35b6000809054906101000a900473ffffffffffffffffffffffffffffffffffffffff1681565b7fd6f028ca0e8edb4a8c9757ca4fdccab25fa1e0317da1188108f7d2dee14902fb60010281565b600360009054906101000a900473ffffffffffffffffffffffffffffffffffffffff1681565b7fddbcfd564f642ab5627cf68b9b7d374fb4f8a36e941a75d89c87998cef03bd6160010281565b6000808373ffffffffffffffffffffffffffffffffffffffff1663f8c7fa1e7fddbcfd564f642ab5627cf68b9b7d374fb4f8a36e941a75d89c87998cef03bd616001026000809054906101000a900473ffffffffffffffffffffffffffffffffffffffff1660016000604051602001526040518463ffffffff167c01000000000000000000000000000000000000000000000000000000000281526004018084600019166000191681526020018373ffffffffffffffffffffffffffffffffffffffff1673ffffffffffffffffffffffffffffffffffffffff168152602001821515151581526020019350505050602060405180830381600087803b1515620007ae57600080fd5b6102c65a03f11515620007c057600080fd5b5050506040518051905091508173ffffffffffffffffffffffffffffffffffffffff16638129fc1c6040518163ffffffff167c0100000000000000000000000000000000000000000000000000000000028152600401600060405180830381600087803b15156200083057600080fd5b6102c65a03f115156200084257600080fd5b5050508373ffffffffffffffffffffffffffffffffffffffff1663de2873596000604051602001526040518163ffffffff167c0100000000000000000000000000000000000000000000000000000000028152600401602060405180830381600087803b1515620008b257600080fd5b6102c65a03f11515620008c457600080fd5b5050506040518051905090508073ffffffffffffffffffffffffffffffffffffffff1663be03847830848573ffffffffffffffffffffffffffffffffffffffff1663bd8fde1c6000604051602001526040518163ffffffff167c0100000000000000000000000000000000000000000000000000000000028152600401602060405180830381600087803b15156200095b57600080fd5b6102c65a03f115156200096d57600080fd5b50505060405180519050306040518563ffffffff167c0100000000000000000000000000000000000000000000000000000000028152600401808573ffffffffffffffffffffffffffffffffffffffff1673ffffffffffffffffffffffffffffffffffffffff1681526020018473ffffffffffffffffffffffffffffffffffffffff1673ffffffffffffffffffffffffffffffffffffffff16815260200183600019166000191681526020018273ffffffffffffffffffffffffffffffffffffffff1673ffffffffffffffffffffffffffffffffffffffff168152602001945050505050600060405180830381600087803b151562000a6b57600080fd5b6102c65a03f1151562000a7d57600080fd5b5050508173ffffffffffffffffffffffffffffffffffffffff166387a16f12600160009054906101000a900473ffffffffffffffffffffffffffffffffffffffff166000604051602001526040518263ffffffff167c0100000000000000000000000000000000000000000000000000000000028152600401808273ffffffffffffffffffffffffffffffffffffffff1673ffffffffffffffffffffffffffffffffffffffff168152602001915050602060405180830381600087803b151562000b4657600080fd5b6102c65a03f1151562000b5857600080fd5b50505060405180519050508173ffffffffffffffffffffffffffffffffffffffff166387a16f12600260009054906101000a900473ffffffffffffffffffffffffffffffffffffffff166000604051602001526040518263ffffffff167c0100000000000000000000000000000000000000000000000000000000028152600401808273ffffffffffffffffffffffffffffffffffffffff1673ffffffffffffffffffffffffffffffffffffffff168152602001915050602060405180830381600087803b151562000c2957600080fd5b6102c65a03f1151562000c3b57600080fd5b50505060405180519050508173ffffffffffffffffffffffffffffffffffffffff166387a16f12600360009054906101000a900473ffffffffffffffffffffffffffffffffffffffff166000604051602001526040518263ffffffff167c0100000000000000000000000000000000000000000000000000000000028152600401808273ffffffffffffffffffffffffffffffffffffffff1673ffffffffffffffffffffffffffffffffffffffff168152602001915050602060405180830381600087803b151562000d0c57600080fd5b6102c65a03f1151562000d1e57600080fd5b50505060405180519050508073ffffffffffffffffffffffffffffffffffffffff16639d0effdb30848573ffffffffffffffffffffffffffffffffffffffff1663bd8fde1c6000604051602001526040518163ffffffff167c0100000000000000000000000000000000000000000000000000000000028152600401602060405180830381600087803b151562000db457600080fd5b6102c65a03f1151562000dc657600080fd5b505050604051805190506040518463ffffffff167c0100000000000000000000000000000000000000000000000000000000028152600401808473ffffffffffffffffffffffffffffffffffffffff1673ffffffffffffffffffffffffffffffffffffffff1681526020018373ffffffffffffffffffffffffffffffffffffffff1673ffffffffffffffffffffffffffffffffffffffff16815260200182600019166000191681526020019350505050600060405180830381600087803b151562000e9057600080fd5b6102c65a03f1151562000ea257600080fd5b5050508073ffffffffffffffffffffffffffffffffffffffff1663afd925df84848573ffffffffffffffffffffffffffffffffffffffff1663bd8fde1c6000604051602001526040518163ffffffff167c0100000000000000000000000000000000000000000000000000000000028152600401602060405180830381600087803b151562000f3057600080fd5b6102c65a03f1151562000f4257600080fd5b505050604051805190506040518463ffffffff167c0100000000000000000000000000000000000000000000000000000000028152600401808473ffffffffffffffffffffffffffffffffffffffff1673ffffffffffffffffffffffffffffffffffffffff1681526020018373ffffffffffffffffffffffffffffffffffffffff1673ffffffffffffffffffffffffffffffffffffffff16815260200182600019166000191681526020019350505050600060405180830381600087803b15156200100c57600080fd5b6102c65a03f115156200101e57600080fd5b5050508191505092915050565b7f34f01c17e9be6ddbf2c61f37b5b1fb9f1a090a975006581ad19bda1c4d38287160010281565b600160009054906101000a900473ffffffffffffffffffffffffffffffffffffffff1681565b60008084848462001088620013e4565b808473ffffffffffffffffffffffffffffffffffffffff1673ffffffffffffffffffffffffffffffffffffffff168152602001836000191660001916815260200180602001828103825283818151815260200191508051906020019080838360005b8381101562001107578082015181840152602081019050620010ea565b50505050905090810190601f168015620011355780820380516001836020036101000a031916815260200191505b50945050505050604051809103906000f08015156200115357600080fd5b90507fd880e726dced8808d727f02dd0e6fdd3a945b24bfee77e13367bcbe61ddbaf4781600086604051808473ffffffffffffffffffffffffffffffffffffffff1673ffffffffffffffffffffffffffffffffffffffff168152602001831515151581526020018260001916600019168152602001935050505060405180910390a1809150509392505050565b60006200121383836000604051805910620011f85750595b9080825280601f01601f191660200182016040525062001241565b905092915050565b600260009054906101000a900473ffffffffffffffffffffffffffffffffffffffff1681565b60008084848462001251620013f5565b808473ffffffffffffffffffffffffffffffffffffffff1673ffffffffffffffffffffffffffffffffffffffff168152602001836000191660001916815260200180602001828103825283818151815260200191508051906020019080838360005b83811015620012d0578082015181840152602081019050620012b3565b50505050905090810190601f168015620012fe5780820380516001836020036101000a031916815260200191505b50945050505050604051809103906000f08015156200131c57600080fd5b90507fd880e726dced8808d727f02dd0e6fdd3a945b24bfee77e13367bcbe61ddbaf4781600186604051808473ffffffffffffffffffffffffffffffffffffffff1673ffffffffffffffffffffffffffffffffffffffff168152602001831515151581526020018260001916600019168152602001935050505060405180910390a1809150509392505050565b6000620013dc83836000604051805910620013c15750595b9080825280601f01601f191660200182016040525062001078565b905092915050565b604051610c7b806200140783390190565b604051610ba780620020828339019056006060604052341561000f57600080fd5b604051610c7b380380610c7b833981016040528080519060200190919080519060200190919080518201919050508282826000836000806101000a81548173ffffffffffffffffffffffffffffffffffffffff021916908373ffffffffffffffffffffffffffffffffffffffff16021790555082600181600019169055506100ab60015461023b6401000000000261078b176401000000009004565b9050600082511115610173576100d38161034f64010000000002610739176401000000009004565b15156100de57600080fd5b8073ffffffffffffffffffffffffffffffffffffffff168260405180828051906020019080838360005b83811015610123578082015181840152602081019050610108565b50505050905090810190601f1680156101505780820380516001836020036101000a031916815260200191505b509150506000604051808303818561646e5a03f4915050151561017257600080fd5b5b5050505061019560015461023b6401000000000261078b176401000000009004565b600260006101000a81548173ffffffffffffffffffffffffffffffffffffffff021916908373ffffffffffffffffffffffffffffffffffffffff160217905550600073ffffffffffffffffffffffffffffffffffffffff16600260009054906101000a900473ffffffffffffffffffffffffffffffffffffffff1673ffffffffffffffffffffffffffffffffffffffff161415151561023357600080fd5b5050506103a1565b60008060009054906101000a900473ffffffffffffffffffffffffffffffffffffffff1673ffffffffffffffffffffffffffffffffffffffff166342c71f1d7ff1f3eb40f5bc1ad1344716ced8b8a0431d840b5783aea1fd01786bc26f35ac0f6001028460405180836000191660001916815260200182600019166000191681526020019250505060405180910390206000604051602001526040518263ffffffff167c0100000000000000000000000000000000000000000000000000000000028152600401808260001916600019168152602001915050602060405180830381600087803b151561032d57600080fd5b6102c65a03f1151561033e57600080fd5b505050604051805190509050919050565b600080600073ffffffffffffffffffffffffffffffffffffffff168373ffffffffffffffffffffffffffffffffffffffff161415610390576000915061039b565b823b90506000811191505b50919050565b6108cb806103b06000396000f3006060604052600436106100e6576000357c0100000000000000000000000000000000000000000000000000000000900463ffffffff16806309720778146101cb5780630ceafa2a146101fc5780631113ed0d14610225578063178e60791461025657806325012699146102875780632b2584f6146102b85780634555d5c9146102e15780635c60da1b1461030a578063756f60491461035f5780637e84a4ff1461039057806380afdea8146103b9578063a3b4b07f146103ea578063cbcc65eb1461041b578063cc473be31461044c578063d4aae0c41461047d578063db8a61d4146104d2575b60006127105a1015610180576000341180156101055750600080369050145b151561011057600080fd5b7f15eeaa57c7bd188c1388020bcadc2c436ec60d647d36ef5b9eb3c742217ddee13334604051808373ffffffffffffffffffffffffffffffffffffffff1673ffffffffffffffffffffffffffffffffffffffff1681526020018281526020019250505060405180910390a16101c8565b610188610503565b90506101c7816000368080601f01602080910402602001604051908101604052809392919081815260200183838082843782019150505050505061052d565b5b50005b34156101d657600080fd5b6101de61053d565b60405180826000191660001916815260200191505060405180910390f35b341561020757600080fd5b61020f610564565b6040518082815260200191505060405180910390f35b341561023057600080fd5b61023861056a565b60405180826000191660001916815260200191505060405180910390f35b341561026157600080fd5b610269610591565b60405180826000191660001916815260200191505060405180910390f35b341561029257600080fd5b61029a6105b8565b60405180826000191660001916815260200191505060405180910390f35b34156102c357600080fd5b6102cb6105df565b6040518082815260200191505060405180910390f35b34156102ec57600080fd5b6102f46105e4565b6040518082815260200191505060405180910390f35b341561031557600080fd5b61031d610503565b604051808273ffffffffffffffffffffffffffffffffffffffff1673ffffffffffffffffffffffffffffffffffffffff16815260200191505060405180910390f35b341561036a57600080fd5b6103726105ed565b60405180826000191660001916815260200191505060405180910390f35b341561039b57600080fd5b6103a3610614565b6040518082815260200191505060405180910390f35b34156103c457600080fd5b6103cc610619565b60405180826000191660001916815260200191505060405180910390f35b34156103f557600080fd5b6103fd61061f565b60405180826000191660001916815260200191505060405180910390f35b341561042657600080fd5b61042e610646565b60405180826000191660001916815260200191505060405180910390f35b341561045757600080fd5b61045f61066d565b60405180826000191660001916815260200191505060405180910390f35b341561048857600080fd5b610490610694565b604051808273ffffffffffffffffffffffffffffffffffffffff1673ffffffffffffffffffffffffffffffffffffffff16815260200191505060405180910390f35b34156104dd57600080fd5b6104e56106b9565b60405180826000191660001916815260200191505060405180910390f35b6000600260009054906101000a900473ffffffffffffffffffffffffffffffffffffffff16905090565b610539828260006106e0565b5050565b7f9065c3e7f7b7ef1ef4e53d2d0b8e0cef02874ab020c1ece79d5f0d3d0111c0ba60010281565b61271081565b7f3b4bf6bf3ad5000ecf0f989d5befde585c6860fea3e574a4fab4c49d1c177d9c60010281565b7fd6f028ca0e8edb4a8c9757ca4fdccab25fa1e0317da1188108f7d2dee14902fb60010281565b7f2b7d19d0575c228f8d9326801e14149d284dc5bb7b1541c5ad712ae4b2fcaadb60010281565b600181565b60006001905090565b7fc681a85306374a5ab27f0bbc385296a54bcd314a1948b6cf61c4ea1bc44bb9f860010281565b600281565b60015481565b7f4b8e03a458a6ccec5d9077c2490964c1333dd3c72e2db408d7d9a7a36ef5c41a60010281565b7fe3262375f45a6e2026b7e7b18c2b807434f2508fe1a2a3dfb493c7df8f4aad6a60010281565b7f93cdeb708b7545dc668eb9280176169d1c33cfd8ed6f04690a0bcc88a93fc4ae60010281565b6000809054906101000a900473ffffffffffffffffffffffffffffffffffffffff1681565b7ff1f3eb40f5bc1ad1344716ced8b8a0431d840b5783aea1fd01786bc26f35ac0f60010281565b60008060006106ee86610739565b15156106f957600080fd5b612710905060008086516020880189855a03f491503d925083831015151561072057600080fd5b604051836000823e8260008114610735578482f35b8482fd5b600080600073ffffffffffffffffffffffffffffffffffffffff168373ffffffffffffffffffffffffffffffffffffffff16141561077a5760009150610785565b823b90506000811191505b50919050565b60008060009054906101000a900473ffffffffffffffffffffffffffffffffffffffff1673ffffffffffffffffffffffffffffffffffffffff166342c71f1d7ff1f3eb40f5bc1ad1344716ced8b8a0431d840b5783aea1fd01786bc26f35ac0f6001028460405180836000191660001916815260200182600019166000191681526020019250505060405180910390206000604051602001526040518263ffffffff167c0100000000000000000000000000000000000000000000000000000000028152600401808260001916600019168152602001915050602060405180830381600087803b151561087d57600080fd5b6102c65a03f1151561088e57600080fd5b5050506040518051905090509190505600a165627a7a72305820f1d8a034ed61d04ecb134eeeab2ec9369a23931c6434c55a4e616b811d789e2000296060604052341561000f57600080fd5b604051610ba7380380610ba7833981016040528080519060200190919080519060200190919080518201919050508282826000836000806101000a81548173ffffffffffffffffffffffffffffffffffffffff021916908373ffffffffffffffffffffffffffffffffffffffff16021790555082600181600019169055506100ab60015461017f640100000000026106c8176401000000009004565b9050600082511115610173576100d38161029364010000000002610835176401000000009004565b15156100de57600080fd5b8073ffffffffffffffffffffffffffffffffffffffff168260405180828051906020019080838360005b83811015610123578082015181840152602081019050610108565b50505050905090810190601f1680156101505780820380516001836020036101000a031916815260200191505b509150506000604051808303818561646e5a03f4915050151561017257600080fd5b5b505050505050506102e5565b60008060009054906101000a900473ffffffffffffffffffffffffffffffffffffffff1673ffffffffffffffffffffffffffffffffffffffff166342c71f1d7ff1f3eb40f5bc1ad1344716ced8b8a0431d840b5783aea1fd01786bc26f35ac0f6001028460405180836000191660001916815260200182600019166000191681526020019250505060405180910390206000604051602001526040518263ffffffff167c0100000000000000000000000000000000000000000000000000000000028152600401808260001916600019168152602001915050602060405180830381600087803b151561027157600080fd5b6102c65a03f1151561028257600080fd5b505050604051805190509050919050565b600080600073ffffffffffffffffffffffffffffffffffffffff168373ffffffffffffffffffffffffffffffffffffffff1614156102d457600091506102df565b823b90506000811191505b50919050565b6108b3806102f46000396000f3006060604052600436106100e6576000357c0100000000000000000000000000000000000000000000000000000000900463ffffffff16806309720778146101cb5780630ceafa2a146101fc5780631113ed0d14610225578063178e60791461025657806325012699146102875780632b2584f6146102b85780634555d5c9146102e15780635c60da1b1461030a578063756f60491461035f5780637e84a4ff1461039057806380afdea8146103b9578063a3b4b07f146103ea578063cbcc65eb1461041b578063cc473be31461044c578063d4aae0c41461047d578063db8a61d4146104d2575b60006127105a1015610180576000341180156101055750600080369050145b151561011057600080fd5b7f15eeaa57c7bd188c1388020bcadc2c436ec60d647d36ef5b9eb3c742217ddee13334604051808373ffffffffffffffffffffffffffffffffffffffff1673ffffffffffffffffffffffffffffffffffffffff1681526020018281526020019250505060405180910390a16101c8565b610188610503565b90506101c7816000368080601f016020809104026020016040519081016040528093929190818152602001838380828437820191505050505050610515565b5b50005b34156101d657600080fd5b6101de610525565b60405180826000191660001916815260200191505060405180910390f35b341561020757600080fd5b61020f61054c565b6040518082815260200191505060405180910390f35b341561023057600080fd5b610238610552565b60405180826000191660001916815260200191505060405180910390f35b341561026157600080fd5b610269610579565b60405180826000191660001916815260200191505060405180910390f35b341561029257600080fd5b61029a6105a0565b60405180826000191660001916815260200191505060405180910390f35b34156102c357600080fd5b6102cb6105c7565b6040518082815260200191505060405180910390f35b34156102ec57600080fd5b6102f46105cc565b6040518082815260200191505060405180910390f35b341561031557600080fd5b61031d610503565b604051808273ffffffffffffffffffffffffffffffffffffffff1673ffffffffffffffffffffffffffffffffffffffff16815260200191505060405180910390f35b341561036a57600080fd5b6103726105d5565b60405180826000191660001916815260200191505060405180910390f35b341561039b57600080fd5b6103a36105fc565b6040518082815260200191505060405180910390f35b34156103c457600080fd5b6103cc610601565b60405180826000191660001916815260200191505060405180910390f35b34156103f557600080fd5b6103fd610607565b60405180826000191660001916815260200191505060405180910390f35b341561042657600080fd5b61042e61062e565b60405180826000191660001916815260200191505060405180910390f35b341561045757600080fd5b61045f610655565b60405180826000191660001916815260200191505060405180910390f35b341561048857600080fd5b61049061067c565b604051808273ffffffffffffffffffffffffffffffffffffffff1673ffffffffffffffffffffffffffffffffffffffff16815260200191505060405180910390f35b34156104dd57600080fd5b6104e56106a1565b60405180826000191660001916815260200191505060405180910390f35b60006105106001546106c8565b905090565b610521828260006107dc565b5050565b7f9065c3e7f7b7ef1ef4e53d2d0b8e0cef02874ab020c1ece79d5f0d3d0111c0ba60010281565b61271081565b7f3b4bf6bf3ad5000ecf0f989d5befde585c6860fea3e574a4fab4c49d1c177d9c60010281565b7fd6f028ca0e8edb4a8c9757ca4fdccab25fa1e0317da1188108f7d2dee14902fb60010281565b7f2b7d19d0575c228f8d9326801e14149d284dc5bb7b1541c5ad712ae4b2fcaadb60010281565b600181565b60006002905090565b7fc681a85306374a5ab27f0bbc385296a54bcd314a1948b6cf61c4ea1bc44bb9f860010281565b600281565b60015481565b7f4b8e03a458a6ccec5d9077c2490964c1333dd3c72e2db408d7d9a7a36ef5c41a60010281565b7fe3262375f45a6e2026b7e7b18c2b807434f2508fe1a2a3dfb493c7df8f4aad6a60010281565b7f93cdeb708b7545dc668eb9280176169d1c33cfd8ed6f04690a0bcc88a93fc4ae60010281565b6000809054906101000a900473ffffffffffffffffffffffffffffffffffffffff1681565b7ff1f3eb40f5bc1ad1344716ced8b8a0431d840b5783aea1fd01786bc26f35ac0f60010281565b60008060009054906101000a900473ffffffffffffffffffffffffffffffffffffffff1673ffffffffffffffffffffffffffffffffffffffff166342c71f1d7ff1f3eb40f5bc1ad1344716ced8b8a0431d840b5783aea1fd01786bc26f35ac0f6001028460405180836000191660001916815260200182600019166000191681526020019250505060405180910390206000604051602001526040518263ffffffff167c0100000000000000000000000000000000000000000000000000000000028152600401808260001916600019168152602001915050602060405180830381600087803b15156107ba57600080fd5b6102c65a03f115156107cb57600080fd5b505050604051805190509050919050565b60008060006107ea86610835565b15156107f557600080fd5b612710905060008086516020880189855a03f491503d925083831015151561081c57600080fd5b604051836000823e8260008114610831578482f35b8482fd5b600080600073ffffffffffffffffffffffffffffffffffffffff168373ffffffffffffffffffffffffffffffffffffffff1614156108765760009150610881565b823b90506000811191505b509190505600a165627a7a72305820ae3ded05dfe200cdb296b66ffbb771fa6dbfea07170669e6f7d71aedab9bbc420029a165627a7a7230582010ee909120b0a0b036499670b23e71bf5d8012e1b59a51a5207b485cc5064edc00296060604052341561000f57600080fd5b6113d88061001e6000396000f3006060604052600436106100fc576000357c0100000000000000000000000000000000000000000000000000000000900463ffffffff16806304bf2a7f14610101578063178e60791461019e57806332f0a3b5146101cf5780635ca4d4bb1461022457806360b1e057146102475780637e7db6e11461027857806380afdea8146102c95780638129fc1c146102fa5780638322fff21461030f57806387a16f12146103645780638b3dd749146103b15780639b3fdf4c146103da5780639d4941d81461040b578063a1658fad14610444578063bd8fde1c146104e2578063d4aae0c414610513578063f92a79ff14610568578063f97a05df14610605575b600080fd5b341561010c57600080fd5b61015c600480803590602001908201803590602001908080601f01602080910402602001604051908101604052809392919081815260200183838082843782019150505050505091905050610673565b604051808273ffffffffffffffffffffffffffffffffffffffff1673ffffffffffffffffffffffffffffffffffffffff16815260200191505060405180910390f35b34156101a957600080fd5b6101b1610714565b60405180826000191660001916815260200191505060405180910390f35b34156101da57600080fd5b6101e261073b565b604051808273ffffffffffffffffffffffffffffffffffffffff1673ffffffffffffffffffffffffffffffffffffffff16815260200191505060405180910390f35b341561022f57600080fd5b6102456004808035906020019091905050610830565b005b341561025257600080fd5b61025a6108c3565b60405180826000191660001916815260200191505060405180910390f35b341561028357600080fd5b6102af600480803573ffffffffffffffffffffffffffffffffffffffff169060200190919050506108ea565b604051808215151515815260200191505060405180910390f35b34156102d457600080fd5b6102dc6108f5565b60405180826000191660001916815260200191505060405180910390f35b341561030557600080fd5b61030d6108fb565b005b341561031a57600080fd5b6103226109d5565b604051808273ffffffffffffffffffffffffffffffffffffffff1673ffffffffffffffffffffffffffffffffffffffff16815260200191505060405180910390f35b341561036f57600080fd5b61039b600480803573ffffffffffffffffffffffffffffffffffffffff169060200190919050506109da565b6040518082815260200191505060405180910390f35b34156103bc57600080fd5b6103c4610afa565b6040518082815260200191505060405180910390f35b34156103e557600080fd5b6103ed610b04565b60405180826000191660001916815260200191505060405180910390f35b341561041657600080fd5b610442600480803573ffffffffffffffffffffffffffffffffffffffff16906020019091905050610b2b565b005b341561044f57600080fd5b6104c8600480803573ffffffffffffffffffffffffffffffffffffffff169060200190919080356000191690602001909190803590602001908201803590602001908080602002602001604051908101604052809392919081815260200183836020028082843782019150505050505091905050610d7e565b604051808215151515815260200191505060405180910390f35b34156104ed57600080fd5b6104f5610f7e565b60405180826000191660001916815260200191505060405180910390f35b341561051e57600080fd5b610526610fa5565b604051808273ffffffffffffffffffffffffffffffffffffffff1673ffffffffffffffffffffffffffffffffffffffff16815260200191505060405180910390f35b341561057357600080fd5b6105c3600480803590602001908201803590602001908080601f01602080910402602001604051908101604052809392919081815260200183838082843782019150505050505091905050610fca565b604051808273ffffffffffffffffffffffffffffffffffffffff1673ffffffffffffffffffffffffffffffffffffffff16815260200191505060405180910390f35b341561061057600080fd5b61062660048080359060200190919050506110d1565b604051808373ffffffffffffffffffffffffffffffffffffffff1673ffffffffffffffffffffffffffffffffffffffff168152602001821515151581526020019250505060405180910390f35b60008060006106818461112e565b63ffffffff169150600082148061069d57506064805490508210155b156106ab576000925061070d565b6064828154811015156106ba57fe5b906000526020600020900190508060000160149054906101000a900460ff166106e457600061070a565b8060000160009054906101000a900473ffffffffffffffffffffffffffffffffffffffff165b92505b5050919050565b7fd6f028ca0e8edb4a8c9757ca4fdccab25fa1e0317da1188108f7d2dee14902fb60010281565b6000806000809054906101000a900473ffffffffffffffffffffffffffffffffffffffff1673ffffffffffffffffffffffffffffffffffffffff161415151561078357600080fd5b6000809054906101000a900473ffffffffffffffffffffffffffffffffffffffff1673ffffffffffffffffffffffffffffffffffffffff166332f0a3b56000604051602001526040518163ffffffff167c0100000000000000000000000000000000000000000000000000000000028152600401602060405180830381600087803b151561081057600080fd5b6102c65a03f1151561082157600080fd5b50505060405180519050905090565b7ff7a450ef335e1892cb42c8ca72e7242359d7711924b75db5717410da3f614aa360010261087e338260006040518059106108685750595b9080825280602002602001820160405250610d7e565b151561088957600080fd5b600060648381548110151561089a57fe5b906000526020600020900160000160146101000a81548160ff0219169083151502179055505050565b7fddbcfd564f642ab5627cf68b9b7d374fb4f8a36e941a75d89c87998cef03bd6160010281565b600060019050919050565b60015481565b600060035414151561090c57600080fd5b610914611142565b606480548060010182816109289190611312565b916000526020600020900160006040805190810160405280600073ffffffffffffffffffffffffffffffffffffffff16815260200160001515815250909190915060008201518160000160006101000a81548173ffffffffffffffffffffffffffffffffffffffff021916908373ffffffffffffffffffffffffffffffffffffffff16021790555060208201518160000160146101000a81548160ff021916908315150217905550505050565b600081565b60007ff7a450ef335e1892cb42c8ca72e7242359d7711924b75db5717410da3f614aa3600102610a2a33826000604051805910610a145750595b9080825280602002602001820160405250610d7e565b1515610a3557600080fd5b60648054806001018281610a499190611312565b9160005260206000209001600060408051908101604052808773ffffffffffffffffffffffffffffffffffffffff16815260200160011515815250909190915060008201518160000160006101000a81548173ffffffffffffffffffffffffffffffffffffffff021916908373ffffffffffffffffffffffffffffffffffffffff16021790555060208201518160000160146101000a81548160ff0219169083151502179055505050915050919050565b6000600354905090565b7f34f01c17e9be6ddbf2c61f37b5b1fb9f1a090a975006581ad19bda1c4d38287160010281565b600080610b37836108ea565b1515610b4257600080fd5b610b4a61073b565b9150610b5582611163565b1515610b6057600080fd5b600073ffffffffffffffffffffffffffffffffffffffff168373ffffffffffffffffffffffffffffffffffffffff161415610bf1578173ffffffffffffffffffffffffffffffffffffffff166108fc3073ffffffffffffffffffffffffffffffffffffffff16319081150290604051600060405180830381858888f193505050501515610bec57600080fd5b610d79565b8273ffffffffffffffffffffffffffffffffffffffff166370a08231306000604051602001526040518263ffffffff167c0100000000000000000000000000000000000000000000000000000000028152600401808273ffffffffffffffffffffffffffffffffffffffff1673ffffffffffffffffffffffffffffffffffffffff168152602001915050602060405180830381600087803b1515610c9457600080fd5b6102c65a03f11515610ca557600080fd5b5050506040518051905090508273ffffffffffffffffffffffffffffffffffffffff1663a9059cbb83836000604051602001526040518363ffffffff167c0100000000000000000000000000000000000000000000000000000000028152600401808373ffffffffffffffffffffffffffffffffffffffff1673ffffffffffffffffffffffffffffffffffffffff16815260200182815260200192505050602060405180830381600087803b1515610d5c57600080fd5b6102c65a03f11515610d6d57600080fd5b50505060405180519050505b505050565b6000610d8861133e565b60008084511115610da157602084510290508391508082525b60008060009054906101000a900473ffffffffffffffffffffffffffffffffffffffff1673ffffffffffffffffffffffffffffffffffffffff161480610f7357506000809054906101000a900473ffffffffffffffffffffffffffffffffffffffff1673ffffffffffffffffffffffffffffffffffffffff1663fdef9106873088866000604051602001526040518563ffffffff167c0100000000000000000000000000000000000000000000000000000000028152600401808573ffffffffffffffffffffffffffffffffffffffff1673ffffffffffffffffffffffffffffffffffffffff1681526020018473ffffffffffffffffffffffffffffffffffffffff1673ffffffffffffffffffffffffffffffffffffffff168152602001836000191660001916815260200180602001828103825283818151815260200191508051906020019080838360005b83811015610f09578082015181840152602081019050610eee565b50505050905090810190601f168015610f365780820380516001836020036101000a031916815260200191505b5095505050505050602060405180830381600087803b1515610f5757600080fd5b6102c65a03f11515610f6857600080fd5b505050604051805190505b925050509392505050565b7ff7a450ef335e1892cb42c8ca72e7242359d7711924b75db5717410da3f614aa360010281565b6000809054906101000a900473ffffffffffffffffffffffffffffffffffffffff1681565b6000610fd46111b5565b73ffffffffffffffffffffffffffffffffffffffff166304bf2a7f836000604051602001526040518263ffffffff167c01000000000000000000000000000000000000000000000000000000000281526004018080602001828103825283818151815260200191508051906020019080838360005b83811015611064578082015181840152602081019050611049565b50505050905090810190601f1680156110915780820380516001836020036101000a031916815260200191505b5092505050602060405180830381600087803b15156110af57600080fd5b6102c65a03f115156110c057600080fd5b505050604051805190509050919050565b6064818154811015156110e057fe5b90600052602060002090016000915090508060000160009054906101000a900473ffffffffffffffffffffffffffffffffffffffff16908060000160149054906101000a900460ff16905082565b600061113b82600061129f565b9050919050565b600060035414151561115357600080fd5b61115b6112f9565b600381905550565b600080600073ffffffffffffffffffffffffffffffffffffffff168373ffffffffffffffffffffffffffffffffffffffff1614156111a457600091506111af565b823b90506000811191505b50919050565b6000806000809054906101000a900473ffffffffffffffffffffffffffffffffffffffff1673ffffffffffffffffffffffffffffffffffffffff166342c71f1d7f34f01c17e9be6ddbf2c61f37b5b1fb9f1a090a975006581ad19bda1c4d3828716001026000604051602001526040518263ffffffff167c0100000000000000000000000000000000000000000000000000000000028152600401808260001916600019168152602001915050602060405180830381600087803b151561127b57600080fd5b6102c65a03f1151561128c57600080fd5b5050506040518051905090508091505090565b6000806112ac8484611301565b90507c01000000000000000000000000000000000000000000000000000000007fffffffff0000000000000000000000000000000000000000000000000000000082160491505092915050565b600043905090565b600081602001830151905092915050565b815481835581811511611339578183600052602060002091820191016113389190611352565b5b505050565b602060405190810160405280600081525090565b6113a991905b808211156113a557600080820160006101000a81549073ffffffffffffffffffffffffffffffffffffffff02191690556000820160146101000a81549060ff021916905550600101611358565b5090565b905600a165627a7a72305820f6e216f3aded14835b5d910b49587609048df95ebafdb1386633d13597fe459200296060604052341561000f57600080fd5b6104f98061001e6000396000f300606060405260043610610041576000357c0100000000000000000000000000000000000000000000000000000000900463ffffffff168063279cea3514610046575b600080fd5b341561005157600080fd5b61009a6004808035906020019082018035906020019190919290803590602001908201803590602001919091929080359060200190820180359060200191909192905050610115565b6040518080602001828103825283818151815260200191508051906020019080838360005b838110156100da5780820151818401526020810190506100bf565b50505050905090810190601f1680156101075780820380516001836020036101000a031916815260200191505b509250505060405180910390f35b61011d6104b9565b60008060008060008061012e6104b9565b600496505b8d8d905087101561035757610183878f8f8080601f0160208091040260200160405190810160405280939291908181526020018383808284378201915050505050506103f490919063ffffffff16565b9550600094505b898990508510156102075789898681811015156101a357fe5b9050602002013573ffffffffffffffffffffffffffffffffffffffff1673ffffffffffffffffffffffffffffffffffffffff168673ffffffffffffffffffffffffffffffffffffffff16141515156101fa57600080fd5b848060010195505061018a565b8573ffffffffffffffffffffffffffffffffffffffff163073ffffffffffffffffffffffffffffffffffffffff163373ffffffffffffffffffffffffffffffffffffffff167f9dcff9d94fbfdb4622d11edb383005f95e78efb446c72d92f8e615c6025c470360405160405180910390a46102c0601488018f8f8080601f01602080910402602001604051908101604052809392919081815260200183838082843782019150505050505061043e90919063ffffffff16565b63ffffffff169350600460148801019250610316838f8f8080601f01602080910402602001604051908101604052809392919081815260200183838082843782019150505050505061049890919063ffffffff16565b915083830196508d8d9050871115151561032f57600080fd5b600080858460008a6113885a03f1806000811461034b57610350565b600080fd5b5050610133565b60016040518059106103665750595b9080825280601f01601f1916602001820160405250905060017f0100000000000000000000000000000000000000000000000000000000000000028160008151811015156103b057fe5b9060200101907effffffffffffffffffffffffffffffffffffffffffffffffffffffffffffff1916908160001a905350809750505050505050509695505050505050565b60008061040184846104a8565b90506c010000000000000000000000007fffffffffffffffffffffffffffffffffffffffff00000000000000000000000082160491505092915050565b60008061044b84846104a8565b90507c01000000000000000000000000000000000000000000000000000000007fffffffff0000000000000000000000000000000000000000000000000000000082160491505092915050565b6000816020018301905092915050565b600081602001830151905092915050565b6020604051908101604052806000815250905600a165627a7a7230582087fe928c2751047bf70a3b09327e34d45784904c88ca28e2a9b9b5582ea50bf600296060604052341561000f57600080fd5b6104918061001e6000396000f300606060405260043610610041576000357c0100000000000000000000000000000000000000000000000000000000900463ffffffff168063279cea3514610046575b600080fd5b341561005157600080fd5b61009a6004808035906020019082018035906020019190919290803590602001908201803590602001919091929080359060200190820180359060200191909192905050610115565b6040518080602001828103825283818151815260200191508051906020019080838360005b838110156100da5780820151818401526020810190506100bf565b50505050905090810190601f1680156101075780820380516001836020036101000a031916815260200191505b509250505060405180910390f35b61011d610451565b60008383905014151561012f57600080fd5b60146004018787905014151561014457600080fd5b6101c561018d600489898080601f0160208091040260200160405190810160405280939291908181526020018383808284378201915050505050506101d190919063ffffffff16565b86868080601f01602080910402602001604051908101604052809392919081815260200183838082843782019150505050505061021b565b90509695505050505050565b6000806101de848461030e565b90506c010000000000000000000000007fffffffffffffffffffffffffffffffffffffffff00000000000000000000000082160491505092915050565b610223610451565b61022b610451565b6102348461031f565b151561023f57600080fd5b8373ffffffffffffffffffffffffffffffffffffffff16600084511161026c57610267610371565b61026e565b835b60405180828051906020019080838360005b8381101561029b578082015181840152602081019050610280565b50505050905090810190601f1680156102c85780820380516001836020036101000a031916815260200191505b509150506000604051808303818561646e5a03f491505015156102ea57600080fd5b6102f26103e3565b90506000815111151561030457600080fd5b8091505092915050565b600081602001830151905092915050565b600080600073ffffffffffffffffffffffffffffffffffffffff168373ffffffffffffffffffffffffffffffffffffffff161415610360576000915061036b565b823b90506000811191505b50919050565b610379610451565b6103de600073ffffffffffffffffffffffffffffffffffffffff1663c1c0e9c490507c0100000000000000000000000000000000000000000000000000000000027bffffffffffffffffffffffffffffffffffffffffffffffffffffffff191661040c565b905090565b6103eb610451565b3d6040519150602081018201604052808252806000602084013e5080905090565b610414610451565b61041c610451565b600460405180591061042b5750595b9080825280601f01601f1916602001820160405250905082602082015280915050919050565b6020604051908101604052806000815250905600a165627a7a7230582078ff955f5f96fdfdd397e662fbf253cd7567cbbbc5890a251694bfbd25b5defe00296060604052341561000f57600080fd5b6105748061001e6000396000f300606060405260043610610041576000357c0100000000000000000000000000000000000000000000000000000000900463ffffffff168063279cea3514610046575b600080fd5b341561005157600080fd5b61009a6004808035906020019082018035906020019190919290803590602001908201803590602001919091929080359060200190820180359060200191909192905050610115565b6040518080602001828103825283818151815260200191508051906020019080838360005b838110156100da5780820151818401526020810190506100bf565b50505050905090810190601f1680156101075780820380516001836020036101000a031916815260200191505b509250505060405180910390f35b61011d610534565b60008060008585905014151561013257600080fd5b888860405180838380828437820191505092505050604051809103902091507f40000000000000000000000000000000000000000000000000000000000000006000836000191660001916815260200190815260200160002060009054906101000a900473ffffffffffffffffffffffffffffffffffffffff169050600073ffffffffffffffffffffffffffffffffffffffff168173ffffffffffffffffffffffffffffffffffffffff16141561029a5761021e89898080601f0160208091040260200160405190810160405280939291908181526020018383808284378201915050505050506102e4565b9050807f40000000000000000000000000000000000000000000000000000000000000006000846000191660001916815260200190815260200160002060006101000a81548173ffffffffffffffffffffffffffffffffffffffff021916908373ffffffffffffffffffffffffffffffffffffffff1602179055505b6102d68188888080601f01602080910402602001604051908101604052809392919081815260200183838082843782019150505050505061030f565b925050509695505050505050565b60006004825103602483016000f09050803b156001811461030457610309565b600080fd5b50919050565b610317610534565b61031f610534565b61032884610402565b151561033357600080fd5b8373ffffffffffffffffffffffffffffffffffffffff1660008451116103605761035b610454565b610362565b835b60405180828051906020019080838360005b8381101561038f578082015181840152602081019050610374565b50505050905090810190601f1680156103bc5780820380516001836020036101000a031916815260200191505b509150506000604051808303818561646e5a03f491505015156103de57600080fd5b6103e66104c6565b9050600081511115156103f857600080fd5b8091505092915050565b600080600073ffffffffffffffffffffffffffffffffffffffff168373ffffffffffffffffffffffffffffffffffffffff161415610443576000915061044e565b823b90506000811191505b50919050565b61045c610534565b6104c1600073ffffffffffffffffffffffffffffffffffffffff1663c1c0e9c490507c0100000000000000000000000000000000000000000000000000000000027bffffffffffffffffffffffffffffffffffffffffffffffffffffffff19166104ef565b905090565b6104ce610534565b3d6040519150602081018201604052808252806000602084013e5080905090565b6104f7610534565b6104ff610534565b600460405180591061050e5750595b9080825280601f01601f1916602001820160405250905082602082015280915050919050565b6020604051908101604052806000815250905600a165627a7a7230582074a00de88d4d5b4ec6d3a0c9fc515e70beaca2c67800132a06fc6a18230ec24b0029",
  "source": "pragma solidity 0.4.18;\n\nimport \"../evmscript/EVMScriptRegistry.sol\";\n\nimport \"../evmscript/executors/CallsScript.sol\";\nimport \"../evmscript/executors/DelegateScript.sol\";\nimport \"../evmscript/executors/DeployDelegateScript.sol\";\n\nimport \"./AppProxyFactory.sol\";\nimport \"../kernel/Kernel.sol\";\nimport \"../acl/ACL.sol\";\n\n\ncontract EVMScriptRegistryFactory is AppProxyFactory, EVMScriptRegistryConstants {\n    address public baseReg;\n    address public baseCalls;\n    address public baseDel;\n    address public baseDeployDel;\n\n    function EVMScriptRegistryFactory() public {\n        baseReg = address(new EVMScriptRegistry());\n        baseCalls = address(new CallsScript());\n        baseDel = address(new DelegateScript());\n        baseDeployDel = address(new DeployDelegateScript());\n    }\n\n    function newEVMScriptRegistry(Kernel _dao, address _root) public returns (EVMScriptRegistry reg) {\n        reg = EVMScriptRegistry(_dao.newPinnedAppInstance(EVMSCRIPT_REGISTRY_APP_ID, baseReg, true));\n        reg.initialize();\n\n        ACL acl = ACL(_dao.acl());\n\n        acl.createPermission(this, reg, reg.REGISTRY_MANAGER_ROLE(), this);\n\n        reg.addScriptExecutor(baseCalls);     // spec 1 = CallsScript\n        reg.addScriptExecutor(baseDel);       // spec 2 = DelegateScript\n        reg.addScriptExecutor(baseDeployDel); // spec 3 = DeployDelegateScript\n\n        acl.revokePermission(this, reg, reg.REGISTRY_MANAGER_ROLE());\n        acl.setPermissionManager(_root, reg, reg.REGISTRY_MANAGER_ROLE());\n\n        return reg;\n    }\n}\n",
  "sourcePath": "@aragon/os/contracts/factory/EVMScriptRegistryFactory.sol",
  "compiler": {
    "name": "solc",
    "version": "0.4.18+commit.9cf6e910.Emscripten.clang"
  },
  "schemaVersion": "1.0.1",
  "updatedAt": "2018-07-26T09:18:09.325Z"
}