{
  "contractName": "EVMScriptRegistryConstants",
  "abi": [
    {
      "constant": true,
      "inputs": [],
      "name": "APP_ADDR_NAMESPACE",
      "outputs": [
        {
          "name": "",
          "type": "bytes32"
        }
      ],
      "payable": false,
      "stateMutability": "view",
      "type": "function"
    },
    {
      "constant": true,
      "inputs": [],
      "name": "EVMSCRIPT_REGISTRY_APP_ID",
      "outputs": [
        {
          "name": "",
          "type": "bytes32"
        }
      ],
      "payable": false,
      "stateMutability": "view",
      "type": "function"
    },
    {
      "constant": true,
      "inputs": [],
      "name": "EVMSCRIPT_REGISTRY_APP",
      "outputs": [
        {
          "name": "",
          "type": "bytes32"
        }
      ],
      "payable": false,
      "stateMutability": "view",
      "type": "function"
    }
  ],
  "bytecode": "0x608060405234801561001057600080fd5b50610196806100206000396000f300608060405260043610610057576000357c0100000000000000000000000000000000000000000000000000000000900463ffffffff168063178e60791461005c57806360b1e0571461008f5780639b3fdf4c146100c2575b600080fd5b34801561006857600080fd5b506100716100f5565b60405180826000191660001916815260200191505060405180910390f35b34801561009b57600080fd5b506100a461011c565b60405180826000191660001916815260200191505060405180910390f35b3480156100ce57600080fd5b506100d7610143565b60405180826000191660001916815260200191505060405180910390f35b7fd6f028ca0e8edb4a8c9757ca4fdccab25fa1e0317da1188108f7d2dee14902fb60010281565b7fddbcfd564f642ab5627cf68b9b7d374fb4f8a36e941a75d89c87998cef03bd6160010281565b7f34f01c17e9be6ddbf2c61f37b5b1fb9f1a090a975006581ad19bda1c4d382871600102815600a165627a7a72305820192df1680ec3f5547b4091ebef210ba47afb9612e9736cb9c12654bfaf6b2c6e0029",
  "source": "pragma solidity ^0.4.18;\n\n\ncontract EVMScriptRegistryConstants {\n    /* Hardcoded constants to save gas\n    // repeated definitions from KernelStorage, to avoid out of gas issues\n    bytes32 constant public APP_ADDR_NAMESPACE = keccak256(\"app\");\n\n    bytes32 constant public EVMSCRIPT_REGISTRY_APP_ID = apmNamehash(\"evmreg\");\n    bytes32 constant public EVMSCRIPT_REGISTRY_APP = keccak256(APP_ADDR_NAMESPACE, EVMSCRIPT_REGISTRY_APP_ID);\n    */\n    bytes32 constant public APP_ADDR_NAMESPACE = 0xd6f028ca0e8edb4a8c9757ca4fdccab25fa1e0317da1188108f7d2dee14902fb;\n    bytes32 constant public EVMSCRIPT_REGISTRY_APP_ID = 0xddbcfd564f642ab5627cf68b9b7d374fb4f8a36e941a75d89c87998cef03bd61;\n    bytes32 constant public EVMSCRIPT_REGISTRY_APP = 0x34f01c17e9be6ddbf2c61f37b5b1fb9f1a090a975006581ad19bda1c4d382871;\n}\n\n\ninterface IEVMScriptRegistry {\n    function addScriptExecutor(address executor) external returns (uint id);\n    function disableScriptExecutor(uint256 executorId) external;\n\n    function getScriptExecutor(bytes script) public view returns (address);\n}\n",
  "sourcePath": "@aragon/os/contracts/evmscript/IEVMScriptRegistry.sol",
  "compiler": {
    "name": "solc",
    "version": "0.4.24+commit.e67f0147.Emscripten.clang"
  },
  "schemaVersion": "2.0.1",
  "updatedAt": "2018-07-04T16:43:12.450Z"
}