{
  "contractName": "EVMScriptRegistryConstants",
  "abi": [
    {
      "constant": true,
      "inputs": [],
      "name": "EVMSCRIPT_REGISTRY_APP_ID",
      "outputs": [
        {
          "name": "",
          "type": "bytes32"
        }
      ],
      "payable": false,
      "stateMutability": "view",
      "type": "function"
    },
    {
      "constant": true,
      "inputs": [],
      "name": "EVMSCRIPT_REGISTRY_APP",
      "outputs": [
        {
          "name": "",
          "type": "bytes32"
        }
      ],
      "payable": false,
      "stateMutability": "view",
      "type": "function"
    }
  ],
  "bytecode": "0x608060405234801561001057600080fd5b50610128806100206000396000f3006080604052600436106049576000357c0100000000000000000000000000000000000000000000000000000000900463ffffffff16806360b1e05714604e5780639b3fdf4c14607e575b600080fd5b348015605957600080fd5b50606060ae565b60405180826000191660001916815260200191505060405180910390f35b348015608957600080fd5b50609060d5565b60405180826000191660001916815260200191505060405180910390f35b7fddbcfd564f642ab5627cf68b9b7d374fb4f8a36e941a75d89c87998cef03bd6160010281565b7f34f01c17e9be6ddbf2c61f37b5b1fb9f1a090a975006581ad19bda1c4d382871600102815600a165627a7a723058204518738ad0f68a27625fae24b7e7b67232fd2e380df133e21aa2f138fdefa3740029",
  "source": "/*\n * SPDX-License-Identitifer:    MIT\n */\n\npragma solidity ^0.4.18;\n\nimport \"./IEVMScriptExecutor.sol\";\n\n\ncontract EVMScriptRegistryConstants {\n    /* Hardcoded constants to save gas\n    bytes32 constant public APP_ADDR_NAMESPACE = keccak256(\"app\");\n\n    bytes32 constant public EVMSCRIPT_REGISTRY_APP_ID = apmNamehash(\"evmreg\");\n    bytes32 constant public EVMSCRIPT_REGISTRY_APP = keccak256(APP_ADDR_NAMESPACE, EVMSCRIPT_REGISTRY_APP_ID);\n    */\n    bytes32 constant public EVMSCRIPT_REGISTRY_APP_ID = 0xddbcfd564f642ab5627cf68b9b7d374fb4f8a36e941a75d89c87998cef03bd61;\n    bytes32 constant public EVMSCRIPT_REGISTRY_APP = 0x34f01c17e9be6ddbf2c61f37b5b1fb9f1a090a975006581ad19bda1c4d382871;\n}\n\n\ninterface IEVMScriptRegistry {\n    function addScriptExecutor(IEVMScriptExecutor executor) external returns (uint id);\n    function disableScriptExecutor(uint256 executorId) external;\n\n    function getScriptExecutor(bytes script) public view returns (IEVMScriptExecutor);\n}\n",
  "sourcePath": "@aragon/os/contracts/evmscript/IEVMScriptRegistry.sol",
  "compiler": {
    "name": "solc",
    "version": "0.4.24+commit.e67f0147.Emscripten.clang"
  },
  "schemaVersion": "2.0.0",
  "updatedAt": "2018-08-29T17:55:12.592Z"
}