{
  "contractName": "EVMScriptRegistry",
  "abi": [
    {
      "constant": true,
      "inputs": [],
      "name": "getRecoveryVault",
      "outputs": [
        {
          "name": "",
          "type": "address"
        }
      ],
      "payable": false,
      "stateMutability": "view",
      "type": "function"
    },
    {
      "constant": true,
      "inputs": [],
      "name": "EVMSCRIPT_REGISTRY_APP_ID",
      "outputs": [
        {
          "name": "",
          "type": "bytes32"
        }
      ],
      "payable": false,
      "stateMutability": "view",
      "type": "function"
    },
    {
      "constant": true,
      "inputs": [
        {
          "name": "token",
          "type": "address"
        }
      ],
      "name": "allowRecoverability",
      "outputs": [
        {
          "name": "",
          "type": "bool"
        }
      ],
      "payable": false,
      "stateMutability": "view",
      "type": "function"
    },
    {
      "constant": true,
      "inputs": [],
      "name": "appId",
      "outputs": [
        {
          "name": "",
          "type": "bytes32"
        }
      ],
      "payable": false,
      "stateMutability": "view",
      "type": "function"
    },
    {
      "constant": true,
      "inputs": [],
      "name": "ETH",
      "outputs": [
        {
          "name": "",
          "type": "address"
        }
      ],
      "payable": false,
      "stateMutability": "view",
      "type": "function"
    },
    {
      "constant": true,
      "inputs": [],
      "name": "getInitializationBlock",
      "outputs": [
        {
          "name": "",
          "type": "uint256"
        }
      ],
      "payable": false,
      "stateMutability": "view",
      "type": "function"
    },
    {
      "constant": true,
      "inputs": [],
      "name": "EVMSCRIPT_REGISTRY_APP",
      "outputs": [
        {
          "name": "",
          "type": "bytes32"
        }
      ],
      "payable": false,
      "stateMutability": "view",
      "type": "function"
    },
    {
      "constant": false,
      "inputs": [
        {
          "name": "_token",
          "type": "address"
        }
      ],
      "name": "transferToVault",
      "outputs": [],
      "payable": false,
      "stateMutability": "nonpayable",
      "type": "function"
    },
    {
      "constant": true,
      "inputs": [
        {
          "name": "_sender",
          "type": "address"
        },
        {
          "name": "_role",
          "type": "bytes32"
        },
        {
          "name": "_params",
          "type": "uint256[]"
        }
      ],
      "name": "canPerform",
      "outputs": [
        {
          "name": "",
          "type": "bool"
        }
      ],
      "payable": false,
      "stateMutability": "view",
      "type": "function"
    },
    {
      "constant": true,
      "inputs": [],
      "name": "REGISTRY_MANAGER_ROLE",
      "outputs": [
        {
          "name": "",
          "type": "bytes32"
        }
      ],
      "payable": false,
      "stateMutability": "view",
      "type": "function"
    },
    {
      "constant": true,
      "inputs": [],
      "name": "kernel",
      "outputs": [
        {
          "name": "",
          "type": "address"
        }
      ],
      "payable": false,
      "stateMutability": "view",
      "type": "function"
    },
    {
      "constant": true,
      "inputs": [
        {
          "name": "_script",
          "type": "bytes"
        }
      ],
      "name": "getExecutor",
      "outputs": [
        {
          "name": "",
          "type": "address"
        }
      ],
      "payable": false,
      "stateMutability": "view",
      "type": "function"
    },
    {
      "constant": true,
      "inputs": [
        {
          "name": "",
          "type": "uint256"
        }
      ],
      "name": "executors",
      "outputs": [
        {
          "name": "executor",
          "type": "address"
        },
        {
          "name": "enabled",
          "type": "bool"
        }
      ],
      "payable": false,
      "stateMutability": "view",
      "type": "function"
    },
    {
      "anonymous": false,
      "inputs": [
        {
          "indexed": true,
          "name": "executorId",
          "type": "uint256"
        },
        {
          "indexed": true,
          "name": "executorAddress",
          "type": "address"
        }
      ],
      "name": "EnableExecutor",
      "type": "event"
    },
    {
      "anonymous": false,
      "inputs": [
        {
          "indexed": true,
          "name": "executorId",
          "type": "uint256"
        },
        {
          "indexed": true,
          "name": "executorAddress",
          "type": "address"
        }
      ],
      "name": "DisableExecutor",
      "type": "event"
    },
    {
      "anonymous": false,
      "inputs": [
        {
          "indexed": true,
          "name": "executor",
          "type": "address"
        },
        {
          "indexed": false,
          "name": "script",
          "type": "bytes"
        },
        {
          "indexed": false,
          "name": "input",
          "type": "bytes"
        },
        {
          "indexed": false,
          "name": "returnData",
          "type": "bytes"
        }
      ],
      "name": "ScriptResult",
      "type": "event"
    },
    {
      "constant": false,
      "inputs": [],
      "name": "initialize",
      "outputs": [],
      "payable": false,
      "stateMutability": "nonpayable",
      "type": "function"
    },
    {
      "constant": false,
      "inputs": [
        {
          "name": "_executor",
          "type": "address"
        }
      ],
      "name": "addScriptExecutor",
      "outputs": [
        {
          "name": "id",
          "type": "uint256"
        }
      ],
      "payable": false,
      "stateMutability": "nonpayable",
      "type": "function"
    },
    {
      "constant": false,
      "inputs": [
        {
          "name": "_executorId",
          "type": "uint256"
        }
      ],
      "name": "disableScriptExecutor",
      "outputs": [],
      "payable": false,
      "stateMutability": "nonpayable",
      "type": "function"
    },
    {
      "constant": true,
      "inputs": [
        {
          "name": "_script",
          "type": "bytes"
        }
      ],
      "name": "getScriptExecutor",
      "outputs": [
        {
          "name": "",
          "type": "address"
        }
      ],
      "payable": false,
      "stateMutability": "view",
      "type": "function"
    }
  ],
  "bytecode": "0x608060405234801561001057600080fd5b506114b2806100206000396000f3006080604052600436106100f1576000357c0100000000000000000000000000000000000000000000000000000000900463ffffffff16806304bf2a7f146100f657806332f0a3b51461019f5780635ca4d4bb146101f657806360b1e057146102235780637e7db6e11461025657806380afdea8146102b15780638129fc1c146102e45780638322fff2146102fb57806387a16f12146103525780638b3dd749146103a95780639b3fdf4c146103d45780639d4941d814610407578063a1658fad1461044a578063bd8fde1c146104f6578063d4aae0c414610529578063f92a79ff14610580578063f97a05df14610629575b600080fd5b34801561010257600080fd5b5061015d600480360381019080803590602001908201803590602001908080601f01602080910402602001604051908101604052809392919081815260200183838082843782019150505050505091929192905050506106a1565b604051808273ffffffffffffffffffffffffffffffffffffffff1673ffffffffffffffffffffffffffffffffffffffff16815260200191505060405180910390f35b3480156101ab57600080fd5b506101b4610741565b604051808273ffffffffffffffffffffffffffffffffffffffff1673ffffffffffffffffffffffffffffffffffffffff16815260200191505060405180910390f35b34801561020257600080fd5b506102216004803603810190808035906020019092919050505061084e565b005b34801561022f57600080fd5b5061023861095f565b60405180826000191660001916815260200191505060405180910390f35b34801561026257600080fd5b50610297600480360381019080803573ffffffffffffffffffffffffffffffffffffffff169060200190929190505050610986565b604051808215151515815260200191505060405180910390f35b3480156102bd57600080fd5b506102c6610991565b60405180826000191660001916815260200191505060405180910390f35b3480156102f057600080fd5b506102f9610997565b005b34801561030757600080fd5b50610310610a74565b604051808273ffffffffffffffffffffffffffffffffffffffff1673ffffffffffffffffffffffffffffffffffffffff16815260200191505060405180910390f35b34801561035e57600080fd5b50610393600480360381019080803573ffffffffffffffffffffffffffffffffffffffff169060200190929190505050610a79565b6040518082815260200191505060405180910390f35b3480156103b557600080fd5b506103be610bf6565b6040518082815260200191505060405180910390f35b3480156103e057600080fd5b506103e9610c00565b60405180826000191660001916815260200191505060405180910390f35b34801561041357600080fd5b50610448600480360381019080803573ffffffffffffffffffffffffffffffffffffffff169060200190929190505050610c27565b005b34801561045657600080fd5b506104dc600480360381019080803573ffffffffffffffffffffffffffffffffffffffff169060200190929190803560001916906020019092919080359060200190820180359060200190808060200260200160405190810160405280939291908181526020018383602002808284378201915050505050509192919290505050610eb1565b604051808215151515815260200191505060405180910390f35b34801561050257600080fd5b5061050b6110c3565b60405180826000191660001916815260200191505060405180910390f35b34801561053557600080fd5b5061053e6110ea565b604051808273ffffffffffffffffffffffffffffffffffffffff1673ffffffffffffffffffffffffffffffffffffffff16815260200191505060405180910390f35b34801561058c57600080fd5b506105e7600480360381019080803590602001908201803590602001908080601f016020809104026020016040519081016040528093929190818152602001838380828437820191505050505050919291929050505061110f565b604051808273ffffffffffffffffffffffffffffffffffffffff1673ffffffffffffffffffffffffffffffffffffffff16815260200191505060405180910390f35b34801561063557600080fd5b506106546004803603810190808035906020019092919050505061122e565b604051808373ffffffffffffffffffffffffffffffffffffffff1673ffffffffffffffffffffffffffffffffffffffff168152602001821515151581526020019250505060405180910390f35b60008060006106af8461128a565b63ffffffff16915060008214806106cb57506064805490508210155b156106d9576000925061073a565b6064828154811015156106e857fe5b9060005260206000200190508060000160149054906101000a900460ff16610711576000610737565b8060000160009054906101000a900473ffffffffffffffffffffffffffffffffffffffff165b92505b5050919050565b6000806000809054906101000a900473ffffffffffffffffffffffffffffffffffffffff1673ffffffffffffffffffffffffffffffffffffffff161415151561078957600080fd5b6000809054906101000a900473ffffffffffffffffffffffffffffffffffffffff1673ffffffffffffffffffffffffffffffffffffffff166332f0a3b56040518163ffffffff167c0100000000000000000000000000000000000000000000000000000000028152600401602060405180830381600087803b15801561080e57600080fd5b505af1158015610822573d6000803e3d6000fd5b505050506040513d602081101561083857600080fd5b8101908080519060200190929190505050905090565b60007ff7a450ef335e1892cb42c8ca72e7242359d7711924b75db5717410da3f614aa36001026108af338260006040519080825280602002602001820160405280156108a95781602001602082028038833980820191505090505b50610eb1565b15156108ba57600080fd5b6064838154811015156108c957fe5b90600052602060002001915060008260000160146101000a81548160ff0219169083151502179055508160000160009054906101000a900473ffffffffffffffffffffffffffffffffffffffff1673ffffffffffffffffffffffffffffffffffffffff16837fc13cd9238f8ab1e5ab1f95cde77e89288fe5c328d04739adffd57b144b408fd160405160405180910390a3505050565b7fddbcfd564f642ab5627cf68b9b7d374fb4f8a36e941a75d89c87998cef03bd6160010281565b600060019050919050565b60015481565b60006003541415156109a857600080fd5b6109b061129e565b60646040805190810160405280600073ffffffffffffffffffffffffffffffffffffffff1681526020016000151581525090806001815401808255809150509060018203906000526020600020016000909192909190915060008201518160000160006101000a81548173ffffffffffffffffffffffffffffffffffffffff021916908373ffffffffffffffffffffffffffffffffffffffff16021790555060208201518160000160146101000a81548160ff021916908315150217905550505050565b600081565b6000807ff7a450ef335e1892cb42c8ca72e7242359d7711924b75db5717410da3f614aa3600102610adb33826000604051908082528060200260200182016040528015610ad55781602001602082028038833980820191505090505b50610eb1565b1515610ae657600080fd5b606460408051908101604052808673ffffffffffffffffffffffffffffffffffffffff1681526020016001151581525090806001815401808255809150509060018203906000526020600020016000909192909190915060008201518160000160006101000a81548173ffffffffffffffffffffffffffffffffffffffff021916908373ffffffffffffffffffffffffffffffffffffffff16021790555060208201518160000160146101000a81548160ff021916908315150217905550505091508373ffffffffffffffffffffffffffffffffffffffff16827f7697fa3288629310075a63816e294207c84f3cfc18ccf8e18eb917ec0bb5669960405160405180910390a38192505050919050565b6000600354905090565b7f34f01c17e9be6ddbf2c61f37b5b1fb9f1a090a975006581ad19bda1c4d38287160010281565b600080610c3383610986565b1515610c3e57600080fd5b610c46610741565b9150610c51826112bf565b1515610c5c57600080fd5b600073ffffffffffffffffffffffffffffffffffffffff168373ffffffffffffffffffffffffffffffffffffffff161415610cf4578173ffffffffffffffffffffffffffffffffffffffff166108fc3073ffffffffffffffffffffffffffffffffffffffff16319081150290604051600060405180830381858888f19350505050158015610cee573d6000803e3d6000fd5b50610eac565b8273ffffffffffffffffffffffffffffffffffffffff166370a08231306040518263ffffffff167c0100000000000000000000000000000000000000000000000000000000028152600401808273ffffffffffffffffffffffffffffffffffffffff1673ffffffffffffffffffffffffffffffffffffffff168152602001915050602060405180830381600087803b158015610d8f57600080fd5b505af1158015610da3573d6000803e3d6000fd5b505050506040513d6020811015610db957600080fd5b810190808051906020019092919050505090508273ffffffffffffffffffffffffffffffffffffffff1663a9059cbb83836040518363ffffffff167c0100000000000000000000000000000000000000000000000000000000028152600401808373ffffffffffffffffffffffffffffffffffffffff1673ffffffffffffffffffffffffffffffffffffffff16815260200182815260200192505050602060405180830381600087803b158015610e6f57600080fd5b505af1158015610e83573d6000803e3d6000fd5b505050506040513d6020811015610e9957600080fd5b8101908080519060200190929190505050505b505050565b6000606060008084511115610ece57602084510290508391508082525b60008060009054906101000a900473ffffffffffffffffffffffffffffffffffffffff1673ffffffffffffffffffffffffffffffffffffffff1614806110b857506000809054906101000a900473ffffffffffffffffffffffffffffffffffffffff1673ffffffffffffffffffffffffffffffffffffffff1663fdef9106873088866040518563ffffffff167c0100000000000000000000000000000000000000000000000000000000028152600401808573ffffffffffffffffffffffffffffffffffffffff1673ffffffffffffffffffffffffffffffffffffffff1681526020018473ffffffffffffffffffffffffffffffffffffffff1673ffffffffffffffffffffffffffffffffffffffff168152602001836000191660001916815260200180602001828103825283818151815260200191508051906020019080838360005b8381101561102d578082015181840152602081019050611012565b50505050905090810190601f16801561105a5780820380516001836020036101000a031916815260200191505b5095505050505050602060405180830381600087803b15801561107c57600080fd5b505af1158015611090573d6000803e3d6000fd5b505050506040513d60208110156110a657600080fd5b81019080805190602001909291905050505b925050509392505050565b7ff7a450ef335e1892cb42c8ca72e7242359d7711924b75db5717410da3f614aa360010281565b6000809054906101000a900473ffffffffffffffffffffffffffffffffffffffff1681565b6000611119611311565b73ffffffffffffffffffffffffffffffffffffffff166304bf2a7f836040518263ffffffff167c01000000000000000000000000000000000000000000000000000000000281526004018080602001828103825283818151815260200191508051906020019080838360005b838110156111a0578082015181840152602081019050611185565b50505050905090810190601f1680156111cd5780820380516001836020036101000a031916815260200191505b5092505050602060405180830381600087803b1580156111ec57600080fd5b505af1158015611200573d6000803e3d6000fd5b505050506040513d602081101561121657600080fd5b81019080805190602001909291905050509050919050565b60648181548110151561123d57fe5b906000526020600020016000915090508060000160009054906101000a900473ffffffffffffffffffffffffffffffffffffffff16908060000160149054906101000a900460ff16905082565b6000611297826000611413565b9050919050565b60006003541415156112af57600080fd5b6112b761146d565b600381905550565b600080600073ffffffffffffffffffffffffffffffffffffffff168373ffffffffffffffffffffffffffffffffffffffff161415611300576000915061130b565b823b90506000811191505b50919050565b6000806000809054906101000a900473ffffffffffffffffffffffffffffffffffffffff1673ffffffffffffffffffffffffffffffffffffffff166342c71f1d7f34f01c17e9be6ddbf2c61f37b5b1fb9f1a090a975006581ad19bda1c4d3828716001026040518263ffffffff167c0100000000000000000000000000000000000000000000000000000000028152600401808260001916600019168152602001915050602060405180830381600087803b1580156113cf57600080fd5b505af11580156113e3573d6000803e3d6000fd5b505050506040513d60208110156113f957600080fd5b810190808051906020019092919050505090508091505090565b6000806114208484611475565b90507c01000000000000000000000000000000000000000000000000000000007fffffffff0000000000000000000000000000000000000000000000000000000082160491505092915050565b600043905090565b6000816020018301519050929150505600a165627a7a7230582077a3445d9ec4d47d1dd866a647dabe0c989513e7a5a30bf114d988038a088e7b0029",
  "source": "pragma solidity ^0.4.18;\n\nimport \"./ScriptHelpers.sol\";\nimport \"./IEVMScriptExecutor.sol\";\nimport \"./IEVMScriptRegistry.sol\";\n\nimport \"../apps/AragonApp.sol\";\n\n\n/* solium-disable function-order */\n// Allow public initialize() to be first\ncontract EVMScriptRegistry is IEVMScriptRegistry, EVMScriptRegistryConstants, AragonApp {\n    using ScriptHelpers for bytes;\n\n    // WARN: Manager can censor all votes and the like happening in an org\n    // bytes32 constant public REGISTRY_MANAGER_ROLE = keccak256(\"REGISTRY_MANAGER_ROLE\");\n    bytes32 constant public REGISTRY_MANAGER_ROLE = 0xf7a450ef335e1892cb42c8ca72e7242359d7711924b75db5717410da3f614aa3;\n\n    struct ExecutorEntry {\n        IEVMScriptExecutor executor;\n        bool enabled;\n    }\n\n    ExecutorEntry[] public executors;\n\n    event EnableExecutor(uint256 indexed executorId, address indexed executorAddress);\n    event DisableExecutor(uint256 indexed executorId, address indexed executorAddress);\n\n    function initialize() public onlyInit {\n        initialized();\n        // Create empty record to begin executor IDs at 1\n        executors.push(ExecutorEntry(IEVMScriptExecutor(0), false));\n    }\n\n    function addScriptExecutor(IEVMScriptExecutor _executor) external auth(REGISTRY_MANAGER_ROLE) returns (uint256 id) {\n        uint256 executorId = executors.push(ExecutorEntry(_executor, true));\n        EnableExecutor(executorId, _executor);\n        return executorId;\n    }\n\n    function disableScriptExecutor(uint256 _executorId) external auth(REGISTRY_MANAGER_ROLE) {\n        ExecutorEntry storage executorEntry = executors[_executorId];\n        executorEntry.enabled = false;\n        DisableExecutor(_executorId, executorEntry.executor);\n    }\n\n    function getScriptExecutor(bytes _script) public view returns (IEVMScriptExecutor) {\n        uint256 id = _script.getSpecId();\n\n        if (id == 0 || id >= executors.length) {\n            return IEVMScriptExecutor(0);\n        }\n\n        ExecutorEntry storage entry = executors[id];\n        return entry.enabled ? entry.executor : IEVMScriptExecutor(0);\n    }\n}\n",
  "sourcePath": "@aragon/os/contracts/evmscript/EVMScriptRegistry.sol",
  "compiler": {
    "name": "solc",
    "version": "0.4.24+commit.e67f0147.Emscripten.clang"
  },
  "schemaVersion": "2.0.0",
  "updatedAt": "2018-09-21T18:46:01.926Z"
}