{
  "contractName": "EVMScriptRegistry",
  "abi": [
    {
      "constant": true,
      "inputs": [],
      "name": "hasInitialized",
      "outputs": [
        {
          "name": "",
          "type": "bool"
        }
      ],
      "payable": false,
      "stateMutability": "view",
      "type": "function"
    },
    {
      "constant": true,
      "inputs": [],
      "name": "KERNEL_APP_ID",
      "outputs": [
        {
          "name": "",
          "type": "bytes32"
        }
      ],
      "payable": false,
      "stateMutability": "view",
      "type": "function"
    },
    {
      "constant": true,
      "inputs": [],
      "name": "APP_ADDR_NAMESPACE",
      "outputs": [
        {
          "name": "",
          "type": "bytes32"
        }
      ],
      "payable": false,
      "stateMutability": "view",
      "type": "function"
    },
    {
      "constant": true,
      "inputs": [],
      "name": "REGISTRY_ADD_EXECUTOR_ROLE",
      "outputs": [
        {
          "name": "",
          "type": "bytes32"
        }
      ],
      "payable": false,
      "stateMutability": "view",
      "type": "function"
    },
    {
      "constant": true,
      "inputs": [],
      "name": "getRecoveryVault",
      "outputs": [
        {
          "name": "",
          "type": "address"
        }
      ],
      "payable": false,
      "stateMutability": "view",
      "type": "function"
    },
    {
      "constant": true,
      "inputs": [],
      "name": "EVMSCRIPT_REGISTRY_APP_ID",
      "outputs": [
        {
          "name": "",
          "type": "bytes32"
        }
      ],
      "payable": false,
      "stateMutability": "view",
      "type": "function"
    },
    {
      "constant": true,
      "inputs": [],
      "name": "CORE_NAMESPACE",
      "outputs": [
        {
          "name": "",
          "type": "bytes32"
        }
      ],
      "payable": false,
      "stateMutability": "view",
      "type": "function"
    },
    {
      "constant": true,
      "inputs": [
        {
          "name": "token",
          "type": "address"
        }
      ],
      "name": "allowRecoverability",
      "outputs": [
        {
          "name": "",
          "type": "bool"
        }
      ],
      "payable": false,
      "stateMutability": "view",
      "type": "function"
    },
    {
      "constant": true,
      "inputs": [],
      "name": "appId",
      "outputs": [
        {
          "name": "",
          "type": "bytes32"
        }
      ],
      "payable": false,
      "stateMutability": "view",
      "type": "function"
    },
    {
      "constant": true,
      "inputs": [],
      "name": "ETH",
      "outputs": [
        {
          "name": "",
          "type": "address"
        }
      ],
      "payable": false,
      "stateMutability": "view",
      "type": "function"
    },
    {
      "constant": true,
      "inputs": [],
      "name": "getInitializationBlock",
      "outputs": [
        {
          "name": "",
          "type": "uint256"
        }
      ],
      "payable": false,
      "stateMutability": "view",
      "type": "function"
    },
    {
      "constant": false,
      "inputs": [
        {
          "name": "_token",
          "type": "address"
        }
      ],
      "name": "transferToVault",
      "outputs": [],
      "payable": false,
      "stateMutability": "nonpayable",
      "type": "function"
    },
    {
      "constant": true,
      "inputs": [
        {
          "name": "_sender",
          "type": "address"
        },
        {
          "name": "_role",
          "type": "bytes32"
        },
        {
          "name": "_params",
          "type": "uint256[]"
        }
      ],
      "name": "canPerform",
      "outputs": [
        {
          "name": "",
          "type": "bool"
        }
      ],
      "payable": false,
      "stateMutability": "view",
      "type": "function"
    },
    {
      "constant": true,
      "inputs": [],
      "name": "REGISTRY_MANAGER_ROLE",
      "outputs": [
        {
          "name": "",
          "type": "bytes32"
        }
      ],
      "payable": false,
      "stateMutability": "view",
      "type": "function"
    },
    {
      "constant": true,
      "inputs": [],
      "name": "ACL_APP_ID",
      "outputs": [
        {
          "name": "",
          "type": "bytes32"
        }
      ],
      "payable": false,
      "stateMutability": "view",
      "type": "function"
    },
    {
      "constant": true,
      "inputs": [],
      "name": "kernel",
      "outputs": [
        {
          "name": "",
          "type": "address"
        }
      ],
      "payable": false,
      "stateMutability": "view",
      "type": "function"
    },
    {
      "constant": true,
      "inputs": [],
      "name": "APP_BASES_NAMESPACE",
      "outputs": [
        {
          "name": "",
          "type": "bytes32"
        }
      ],
      "payable": false,
      "stateMutability": "view",
      "type": "function"
    },
    {
      "constant": true,
      "inputs": [],
      "name": "isPetrified",
      "outputs": [
        {
          "name": "",
          "type": "bool"
        }
      ],
      "payable": false,
      "stateMutability": "view",
      "type": "function"
    },
    {
      "constant": true,
      "inputs": [
        {
          "name": "_script",
          "type": "bytes"
        }
      ],
      "name": "getExecutor",
      "outputs": [
        {
          "name": "",
          "type": "address"
        }
      ],
      "payable": false,
      "stateMutability": "view",
      "type": "function"
    },
    {
      "constant": true,
      "inputs": [
        {
          "name": "",
          "type": "uint256"
        }
      ],
      "name": "executors",
      "outputs": [
        {
          "name": "executor",
          "type": "address"
        },
        {
          "name": "enabled",
          "type": "bool"
        }
      ],
      "payable": false,
      "stateMutability": "view",
      "type": "function"
    },
    {
      "anonymous": false,
      "inputs": [
        {
          "indexed": true,
          "name": "executorId",
          "type": "uint256"
        },
        {
          "indexed": true,
          "name": "executorAddress",
          "type": "address"
        }
      ],
      "name": "EnableExecutor",
      "type": "event"
    },
    {
      "anonymous": false,
      "inputs": [
        {
          "indexed": true,
          "name": "executorId",
          "type": "uint256"
        },
        {
          "indexed": true,
          "name": "executorAddress",
          "type": "address"
        }
      ],
      "name": "DisableExecutor",
      "type": "event"
    },
    {
      "anonymous": false,
      "inputs": [
        {
          "indexed": true,
          "name": "executor",
          "type": "address"
        },
        {
          "indexed": false,
          "name": "script",
          "type": "bytes"
        },
        {
          "indexed": false,
          "name": "input",
          "type": "bytes"
        },
        {
          "indexed": false,
          "name": "returnData",
          "type": "bytes"
        }
      ],
      "name": "ScriptResult",
      "type": "event"
    },
    {
      "constant": false,
      "inputs": [],
      "name": "initialize",
      "outputs": [],
      "payable": false,
      "stateMutability": "nonpayable",
      "type": "function"
    },
    {
      "constant": false,
      "inputs": [
        {
          "name": "_executor",
          "type": "address"
        }
      ],
      "name": "addScriptExecutor",
      "outputs": [
        {
          "name": "id",
          "type": "uint256"
        }
      ],
      "payable": false,
      "stateMutability": "nonpayable",
      "type": "function"
    },
    {
      "constant": false,
      "inputs": [
        {
          "name": "_executorId",
          "type": "uint256"
        }
      ],
      "name": "disableScriptExecutor",
      "outputs": [],
      "payable": false,
      "stateMutability": "nonpayable",
      "type": "function"
    },
    {
      "constant": false,
      "inputs": [
        {
          "name": "_executorId",
          "type": "uint256"
        }
      ],
      "name": "enableScriptExecutor",
      "outputs": [],
      "payable": false,
      "stateMutability": "nonpayable",
      "type": "function"
    },
    {
      "constant": true,
      "inputs": [
        {
          "name": "_script",
          "type": "bytes"
        }
      ],
      "name": "getScriptExecutor",
      "outputs": [
        {
          "name": "",
          "type": "address"
        }
      ],
      "payable": false,
      "stateMutability": "view",
      "type": "function"
    }
  ],
  "bytecode": "0x60806040526200001d62000023640100000000026401000000009004565b6200015b565b60006200003e62000087640100000000026401000000009004565b1415156200004b57600080fd5b620000857fffffffffffffffffffffffffffffffffffffffffffffffffffffffffffffffff620000d4640100000000026401000000009004565b565b6000620000cf7febb05b386a8d34882b8711d156f463690983dc47815980fb82aeeff1aa43579e600102600019166200014964010000000002620017bd176401000000009004565b905090565b6000620000ef62000087640100000000026401000000009004565b141515620000fc57600080fd5b62000146817febb05b386a8d34882b8711d156f463690983dc47815980fb82aeeff1aa43579e6001026000191662000154640100000000026200199a179091906401000000009004565b50565b600081549050919050565b8082555050565b6119de806200016b6000396000f300608060405260043610610149576000357c0100000000000000000000000000000000000000000000000000000000900463ffffffff16806304bf2a7f1461014e5780630803fac0146101f75780631113ed0d14610226578063178e60791461025957806319f3d10f1461028c57806332f0a3b5146102bf5780635ca4d4bb1461031657806360b1e05714610343578063756f6049146103765780637e7db6e1146103a957806380afdea8146104045780638129fc1c146104375780638322fff21461044e57806387a16f12146104a55780638b3dd749146104fc5780639d4941d814610527578063a1658fad1461056a578063bd8fde1c14610616578063cbcc65eb14610649578063cff606a01461067c578063d4aae0c4146106a9578063db8a61d414610700578063de4796ed14610733578063f92a79ff14610762578063f97a05df1461080b575b600080fd5b34801561015a57600080fd5b506101b5600480360381019080803590602001908201803590602001908080601f0160208091040260200160405190810160405280939291908181526020018383808284378201915050505050509192919290505050610883565b604051808273ffffffffffffffffffffffffffffffffffffffff1673ffffffffffffffffffffffffffffffffffffffff16815260200191505060405180910390f35b34801561020357600080fd5b5061020c610923565b604051808215151515815260200191505060405180910390f35b34801561023257600080fd5b5061023b61094e565b60405180826000191660001916815260200191505060405180910390f35b34801561026557600080fd5b5061026e610975565b60405180826000191660001916815260200191505060405180910390f35b34801561029857600080fd5b506102a161099c565b60405180826000191660001916815260200191505060405180910390f35b3480156102cb57600080fd5b506102d46109c3565b604051808273ffffffffffffffffffffffffffffffffffffffff1673ffffffffffffffffffffffffffffffffffffffff16815260200191505060405180910390f35b34801561032257600080fd5b5061034160048036038101908080359060200190929190505050610ab2565b005b34801561034f57600080fd5b50610358610bba565b60405180826000191660001916815260200191505060405180910390f35b34801561038257600080fd5b5061038b610be1565b60405180826000191660001916815260200191505060405180910390f35b3480156103b557600080fd5b506103ea600480360381019080803573ffffffffffffffffffffffffffffffffffffffff169060200190929190505050610c08565b604051808215151515815260200191505060405180910390f35b34801561041057600080fd5b50610419610c13565b60405180826000191660001916815260200191505060405180910390f35b34801561044357600080fd5b5061044c610c4a565b005b34801561045a57600080fd5b50610463610d2c565b604051808273ffffffffffffffffffffffffffffffffffffffff1673ffffffffffffffffffffffffffffffffffffffff16815260200191505060405180910390f35b3480156104b157600080fd5b506104e6600480360381019080803573ffffffffffffffffffffffffffffffffffffffff169060200190929190505050610d31565b6040518082815260200191505060405180910390f35b34801561050857600080fd5b50610511610eb1565b6040518082815260200191505060405180910390f35b34801561053357600080fd5b50610568600480360381019080803573ffffffffffffffffffffffffffffffffffffffff169060200190929190505050610ee8565b005b34801561057657600080fd5b506105fc600480360381019080803573ffffffffffffffffffffffffffffffffffffffff169060200190929190803560001916906020019092919080359060200190820180359060200190808060200260200160405190810160405280939291908181526020018383602002808284378201915050505050509192919290505050611172565b604051808215151515815260200191505060405180910390f35b34801561062257600080fd5b5061062b611384565b60405180826000191660001916815260200191505060405180910390f35b34801561065557600080fd5b5061065e6113ab565b60405180826000191660001916815260200191505060405180910390f35b34801561068857600080fd5b506106a7600480360381019080803590602001909291905050506113d2565b005b3480156106b557600080fd5b506106be6114db565b604051808273ffffffffffffffffffffffffffffffffffffffff1673ffffffffffffffffffffffffffffffffffffffff16815260200191505060405180910390f35b34801561070c57600080fd5b50610715611512565b60405180826000191660001916815260200191505060405180910390f35b34801561073f57600080fd5b50610748611539565b604051808215151515815260200191505060405180910390f35b34801561076e57600080fd5b506107c9600480360381019080803590602001908201803590602001908080601f016020809104026020016040519081016040528093929190818152602001838380828437820191505050505050919291929050505061156a565b604051808273ffffffffffffffffffffffffffffffffffffffff1673ffffffffffffffffffffffffffffffffffffffff16815260200191505060405180910390f35b34801561081757600080fd5b5061083660048036038101908080359060200190929190505050611689565b604051808373ffffffffffffffffffffffffffffffffffffffff1673ffffffffffffffffffffffffffffffffffffffff168152602001821515151581526020019250505060405180910390f35b6000806000610891846116e5565b63ffffffff16915060008214806108ad57506000805490508210155b156108bb576000925061091c565b6000828154811015156108ca57fe5b9060005260206000200190508060000160149054906101000a900460ff166108f3576000610919565b8060000160009054906101000a900473ffffffffffffffffffffffffffffffffffffffff165b92505b5050919050565b60008061092e610eb1565b9050600081141580156109485750806109456116f9565b10155b91505090565b7f3b4bf6bf3ad5000ecf0f989d5befde585c6860fea3e574a4fab4c49d1c177d9c60010281565b7fd6f028ca0e8edb4a8c9757ca4fdccab25fa1e0317da1188108f7d2dee14902fb60010281565b7fc4e90f38eea8c4212a009ca7b8947943ba4d4a58d19b683417f65291d1cd9ed260010281565b60008073ffffffffffffffffffffffffffffffffffffffff166109e46114db565b73ffffffffffffffffffffffffffffffffffffffff1614151515610a0757600080fd5b610a0f6114db565b73ffffffffffffffffffffffffffffffffffffffff166332f0a3b56040518163ffffffff167c0100000000000000000000000000000000000000000000000000000000028152600401602060405180830381600087803b158015610a7257600080fd5b505af1158015610a86573d6000803e3d6000fd5b505050506040513d6020811015610a9c57600080fd5b8101908080519060200190929190505050905090565b60007ff7a450ef335e1892cb42c8ca72e7242359d7711924b75db5717410da3f614aa3600102610ae183611701565b610aec338383611172565b1515610af757600080fd5b600084815481101515610b0657fe5b9060005260206000200192508260000160149054906101000a900460ff161515610b2f57600080fd5b60008360000160146101000a81548160ff0219169083151502179055508260000160009054906101000a900473ffffffffffffffffffffffffffffffffffffffff1673ffffffffffffffffffffffffffffffffffffffff16847fc13cd9238f8ab1e5ab1f95cde77e89288fe5c328d04739adffd57b144b408fd160405160405180910390a350505050565b7fddbcfd564f642ab5627cf68b9b7d374fb4f8a36e941a75d89c87998cef03bd6160010281565b7fc681a85306374a5ab27f0bbc385296a54bcd314a1948b6cf61c4ea1bc44bb9f860010281565b600060019050919050565b6000610c457fd625496217aa6a3453eecb9c3489dc5a53e6c67b444329ea2b2cbc9ff547639b60010260001916611759565b905090565b6000610c54610eb1565b141515610c6057600080fd5b610c68611764565b60006040805190810160405280600073ffffffffffffffffffffffffffffffffffffffff1681526020016000151581525090806001815401808255809150509060018203906000526020600020016000909192909190915060008201518160000160006101000a81548173ffffffffffffffffffffffffffffffffffffffff021916908373ffffffffffffffffffffffffffffffffffffffff16021790555060208201518160000160146101000a81548160ff021916908315150217905550505050565b600081565b6000807fc4e90f38eea8c4212a009ca7b8947943ba4d4a58d19b683417f65291d1cd9ed2600102610d9333826000604051908082528060200260200182016040528015610d8d5781602001602082028038833980820191505090505b50611172565b1515610d9e57600080fd5b6001600060408051908101604052808773ffffffffffffffffffffffffffffffffffffffff1681526020016001151581525090806001815401808255809150509060018203906000526020600020016000909192909190915060008201518160000160006101000a81548173ffffffffffffffffffffffffffffffffffffffff021916908373ffffffffffffffffffffffffffffffffffffffff16021790555060208201518160000160146101000a81548160ff02191690831515021790555050500391508373ffffffffffffffffffffffffffffffffffffffff16827f7697fa3288629310075a63816e294207c84f3cfc18ccf8e18eb917ec0bb5669960405160405180910390a38192505050919050565b6000610ee37febb05b386a8d34882b8711d156f463690983dc47815980fb82aeeff1aa43579e600102600019166117bd565b905090565b600080610ef483610c08565b1515610eff57600080fd5b610f076109c3565b9150610f12826117c8565b1515610f1d57600080fd5b600073ffffffffffffffffffffffffffffffffffffffff168373ffffffffffffffffffffffffffffffffffffffff161415610fb5578173ffffffffffffffffffffffffffffffffffffffff166108fc3073ffffffffffffffffffffffffffffffffffffffff16319081150290604051600060405180830381858888f19350505050158015610faf573d6000803e3d6000fd5b5061116d565b8273ffffffffffffffffffffffffffffffffffffffff166370a08231306040518263ffffffff167c0100000000000000000000000000000000000000000000000000000000028152600401808273ffffffffffffffffffffffffffffffffffffffff1673ffffffffffffffffffffffffffffffffffffffff168152602001915050602060405180830381600087803b15801561105057600080fd5b505af1158015611064573d6000803e3d6000fd5b505050506040513d602081101561107a57600080fd5b810190808051906020019092919050505090508273ffffffffffffffffffffffffffffffffffffffff1663a9059cbb83836040518363ffffffff167c0100000000000000000000000000000000000000000000000000000000028152600401808373ffffffffffffffffffffffffffffffffffffffff1673ffffffffffffffffffffffffffffffffffffffff16815260200182815260200192505050602060405180830381600087803b15801561113057600080fd5b505af1158015611144573d6000803e3d6000fd5b505050506040513d602081101561115a57600080fd5b8101908080519060200190929190505050505b505050565b60008060606000611181610923565b1515611190576000935061137a565b6111986114db565b9250600073ffffffffffffffffffffffffffffffffffffffff168373ffffffffffffffffffffffffffffffffffffffff1614156111d8576000935061137a565b6000855111156111f057602085510290508491508082525b8273ffffffffffffffffffffffffffffffffffffffff1663fdef9106883089866040518563ffffffff167c0100000000000000000000000000000000000000000000000000000000028152600401808573ffffffffffffffffffffffffffffffffffffffff1673ffffffffffffffffffffffffffffffffffffffff1681526020018473ffffffffffffffffffffffffffffffffffffffff1673ffffffffffffffffffffffffffffffffffffffff168152602001836000191660001916815260200180602001828103825283818151815260200191508051906020019080838360005b838110156112ed5780820151818401526020810190506112d2565b50505050905090810190601f16801561131a5780820380516001836020036101000a031916815260200191505b5095505050505050602060405180830381600087803b15801561133c57600080fd5b505af1158015611350573d6000803e3d6000fd5b505050506040513d602081101561136657600080fd5b810190808051906020019092919050505093505b5050509392505050565b7ff7a450ef335e1892cb42c8ca72e7242359d7711924b75db5717410da3f614aa360010281565b7fe3262375f45a6e2026b7e7b18c2b807434f2508fe1a2a3dfb493c7df8f4aad6a60010281565b60007ff7a450ef335e1892cb42c8ca72e7242359d7711924b75db5717410da3f614aa360010261140183611701565b61140c338383611172565b151561141757600080fd5b60008481548110151561142657fe5b9060005260206000200192508260000160149054906101000a900460ff1615151561145057600080fd5b60018360000160146101000a81548160ff0219169083151502179055508260000160009054906101000a900473ffffffffffffffffffffffffffffffffffffffff1673ffffffffffffffffffffffffffffffffffffffff16847f7697fa3288629310075a63816e294207c84f3cfc18ccf8e18eb917ec0bb5669960405160405180910390a350505050565b600061150d7f4172f0f7d2289153072b0a6ca36959e0cbe2efc3afe50fc81636caa96338137b6001026000191661181a565b905090565b7ff1f3eb40f5bc1ad1344716ced8b8a0431d840b5783aea1fd01786bc26f35ac0f60010281565b60007fffffffffffffffffffffffffffffffffffffffffffffffffffffffffffffffff611564610eb1565b14905090565b6000611574611825565b73ffffffffffffffffffffffffffffffffffffffff166304bf2a7f836040518263ffffffff167c01000000000000000000000000000000000000000000000000000000000281526004018080602001828103825283818151815260200191508051906020019080838360005b838110156115fb5780820151818401526020810190506115e0565b50505050905090810190601f1680156116285780820380516001836020036101000a031916815260200191505b5092505050602060405180830381600087803b15801561164757600080fd5b505af115801561165b573d6000803e3d6000fd5b505050506040513d602081101561167157600080fd5b81019080805190602001909291905050509050919050565b60008181548110151561169857fe5b906000526020600020016000915090508060000160009054906101000a900473ffffffffffffffffffffffffffffffffffffffff16908060000160149054906101000a900460ff16905082565b60006116f2826000611940565b9050919050565b600043905090565b606060016040519080825280602002602001820160405280156117335781602001602082028038833980820191505090505b5090508181600081518110151561174657fe5b9060200190602002018181525050919050565b600081549050919050565b600061176e610eb1565b14151561177a57600080fd5b6117bb6117856116f9565b7febb05b386a8d34882b8711d156f463690983dc47815980fb82aeeff1aa43579e6001026000191661199a90919063ffffffff16565b565b600081549050919050565b600080600073ffffffffffffffffffffffffffffffffffffffff168373ffffffffffffffffffffffffffffffffffffffff1614156118095760009150611814565b823b90506000811191505b50919050565b600081549050919050565b6000806118306114db565b73ffffffffffffffffffffffffffffffffffffffff1663be00bbd87fd6f028ca0e8edb4a8c9757ca4fdccab25fa1e0317da1188108f7d2dee14902fb6001027fddbcfd564f642ab5627cf68b9b7d374fb4f8a36e941a75d89c87998cef03bd616001026040518363ffffffff167c0100000000000000000000000000000000000000000000000000000000028152600401808360001916600019168152602001826000191660001916815260200192505050602060405180830381600087803b1580156118fc57600080fd5b505af1158015611910573d6000803e3d6000fd5b505050506040513d602081101561192657600080fd5b810190808051906020019092919050505090508091505090565b60008061194d84846119a1565b90507c01000000000000000000000000000000000000000000000000000000007fffffffff0000000000000000000000000000000000000000000000000000000082160491505092915050565b8082555050565b6000816020018301519050929150505600a165627a7a723058205ac876cc49a7c40f85116653eed478ae70d30e23b8a978cc3bb6cb01be39fae70029",
  "source": "pragma solidity 0.4.24;\n\nimport \"../apps/AragonApp.sol\";\nimport \"./ScriptHelpers.sol\";\nimport \"./IEVMScriptExecutor.sol\";\nimport \"./IEVMScriptRegistry.sol\";\n\n\n/* solium-disable function-order */\n// Allow public initialize() to be first\ncontract EVMScriptRegistry is IEVMScriptRegistry, EVMScriptRegistryConstants, AragonApp {\n    using ScriptHelpers for bytes;\n\n    // bytes32 public constant REGISTRY_ADD_EXECUTOR_ROLE = keccak256(\"REGISTRY_ADD_EXECUTOR_ROLE\");\n    bytes32 public constant REGISTRY_ADD_EXECUTOR_ROLE = 0xc4e90f38eea8c4212a009ca7b8947943ba4d4a58d19b683417f65291d1cd9ed2;\n    // WARN: Manager can censor all votes and the like happening in an org\n    // bytes32 public constant REGISTRY_MANAGER_ROLE = keccak256(\"REGISTRY_MANAGER_ROLE\");\n    bytes32 public constant REGISTRY_MANAGER_ROLE = 0xf7a450ef335e1892cb42c8ca72e7242359d7711924b75db5717410da3f614aa3;\n\n    struct ExecutorEntry {\n        IEVMScriptExecutor executor;\n        bool enabled;\n    }\n\n    ExecutorEntry[] public executors;\n\n    event EnableExecutor(uint256 indexed executorId, address indexed executorAddress);\n    event DisableExecutor(uint256 indexed executorId, address indexed executorAddress);\n\n    /**\n    * @notice Initialize the registry\n    */\n    function initialize() public onlyInit {\n        initialized();\n        // Create empty record to begin executor IDs at 1\n        executors.push(ExecutorEntry(IEVMScriptExecutor(0), false));\n    }\n\n    /**\n    * @notice Add a new script executor with address `_executor` to the registry\n    * @param _executor Address of the IEVMScriptExecutor that will be added to the registry\n    * @return id Identifier of the executor in the registry\n    */\n    function addScriptExecutor(IEVMScriptExecutor _executor) external auth(REGISTRY_ADD_EXECUTOR_ROLE) returns (uint256 id) {\n        uint256 executorId = executors.push(ExecutorEntry(_executor, true)) - 1;\n        emit EnableExecutor(executorId, _executor);\n        return executorId;\n    }\n\n    /**\n    * @notice Disable script executor with ID `_executorId`\n    * @param _executorId Identifier of the executor in the registry\n    */\n    function disableScriptExecutor(uint256 _executorId)\n        external\n        authP(REGISTRY_MANAGER_ROLE, arr(_executorId))\n    {\n        ExecutorEntry storage executorEntry = executors[_executorId];\n        require(executorEntry.enabled);\n        executorEntry.enabled = false;\n        emit DisableExecutor(_executorId, executorEntry.executor);\n    }\n\n    /**\n    * @notice Enable script executor with ID `_executorId`\n    * @param _executorId Identifier of the executor in the registry\n    */\n    function enableScriptExecutor(uint256 _executorId)\n        external\n        authP(REGISTRY_MANAGER_ROLE, arr(_executorId))\n    {\n        ExecutorEntry storage executorEntry = executors[_executorId];\n        require(!executorEntry.enabled);\n        executorEntry.enabled = true;\n        emit EnableExecutor(_executorId, executorEntry.executor);\n    }\n\n    /**\n    * @dev Get the script executor that can execute a particular script based on its first 4 bytes\n    * @param _script EVMScript being inspected\n    */\n    function getScriptExecutor(bytes _script) public view returns (IEVMScriptExecutor) {\n        uint256 id = _script.getSpecId();\n\n        if (id == 0 || id >= executors.length) {\n            return IEVMScriptExecutor(0);\n        }\n\n        ExecutorEntry storage entry = executors[id];\n        return entry.enabled ? entry.executor : IEVMScriptExecutor(0);\n    }\n}\n",
  "sourcePath": "@aragon/os/contracts/evmscript/EVMScriptRegistry.sol",
  "compiler": {
    "name": "solc",
    "version": "0.4.24+commit.e67f0147.Emscripten.clang"
  },
  "schemaVersion": "3.0.0-beta.1",
  "updatedAt": "2018-11-23T10:39:45.679Z"
}