{
  "contractName": "EVMScriptRunner",
  "abi": [
    {
      "constant": true,
      "inputs": [],
      "name": "APP_ADDR_NAMESPACE",
      "outputs": [
        {
          "name": "",
          "type": "bytes32"
        }
      ],
      "payable": false,
      "stateMutability": "view",
      "type": "function"
    },
    {
      "constant": true,
      "inputs": [],
      "name": "EVMSCRIPT_REGISTRY_APP_ID",
      "outputs": [
        {
          "name": "",
          "type": "bytes32"
        }
      ],
      "payable": false,
      "stateMutability": "view",
      "type": "function"
    },
    {
      "constant": true,
      "inputs": [],
      "name": "appId",
      "outputs": [
        {
          "name": "",
          "type": "bytes32"
        }
      ],
      "payable": false,
      "stateMutability": "view",
      "type": "function"
    },
    {
      "constant": true,
      "inputs": [],
      "name": "EVMSCRIPT_REGISTRY_APP",
      "outputs": [
        {
          "name": "",
          "type": "bytes32"
        }
      ],
      "payable": false,
      "stateMutability": "view",
      "type": "function"
    },
    {
      "constant": true,
      "inputs": [],
      "name": "kernel",
      "outputs": [
        {
          "name": "",
          "type": "address"
        }
      ],
      "payable": false,
      "stateMutability": "view",
      "type": "function"
    },
    {
      "constant": true,
      "inputs": [
        {
          "name": "_script",
          "type": "bytes"
        }
      ],
      "name": "getExecutor",
      "outputs": [
        {
          "name": "",
          "type": "address"
        }
      ],
      "payable": false,
      "stateMutability": "view",
      "type": "function"
    }
  ],
  "bytecode": "0x6060604052341561000f57600080fd5b6104f08061001e6000396000f300606060405260043610610078576000357c0100000000000000000000000000000000000000000000000000000000900463ffffffff168063178e60791461007d57806360b1e057146100ae57806380afdea8146100df5780639b3fdf4c14610110578063d4aae0c414610141578063f92a79ff14610196575b600080fd5b341561008857600080fd5b610090610233565b60405180826000191660001916815260200191505060405180910390f35b34156100b957600080fd5b6100c161025a565b60405180826000191660001916815260200191505060405180910390f35b34156100ea57600080fd5b6100f2610281565b60405180826000191660001916815260200191505060405180910390f35b341561011b57600080fd5b610123610287565b60405180826000191660001916815260200191505060405180910390f35b341561014c57600080fd5b6101546102ae565b604051808273ffffffffffffffffffffffffffffffffffffffff1673ffffffffffffffffffffffffffffffffffffffff16815260200191505060405180910390f35b34156101a157600080fd5b6101f1600480803590602001908201803590602001908080601f016020809104026020016040519081016040528093929190818152602001838380828437820191505050505050919050506102d3565b604051808273ffffffffffffffffffffffffffffffffffffffff1673ffffffffffffffffffffffffffffffffffffffff16815260200191505060405180910390f35b7fd6f028ca0e8edb4a8c9757ca4fdccab25fa1e0317da1188108f7d2dee14902fb60010281565b7fddbcfd564f642ab5627cf68b9b7d374fb4f8a36e941a75d89c87998cef03bd6160010281565b60015481565b7f34f01c17e9be6ddbf2c61f37b5b1fb9f1a090a975006581ad19bda1c4d38287160010281565b6000809054906101000a900473ffffffffffffffffffffffffffffffffffffffff1681565b60006102dd6103da565b73ffffffffffffffffffffffffffffffffffffffff166304bf2a7f836000604051602001526040518263ffffffff167c01000000000000000000000000000000000000000000000000000000000281526004018080602001828103825283818151815260200191508051906020019080838360005b8381101561036d578082015181840152602081019050610352565b50505050905090810190601f16801561039a5780820380516001836020036101000a031916815260200191505b5092505050602060405180830381600087803b15156103b857600080fd5b6102c65a03f115156103c957600080fd5b505050604051805190509050919050565b6000806000809054906101000a900473ffffffffffffffffffffffffffffffffffffffff1673ffffffffffffffffffffffffffffffffffffffff166342c71f1d7f34f01c17e9be6ddbf2c61f37b5b1fb9f1a090a975006581ad19bda1c4d3828716001026000604051602001526040518263ffffffff167c0100000000000000000000000000000000000000000000000000000000028152600401808260001916600019168152602001915050602060405180830381600087803b15156104a057600080fd5b6102c65a03f115156104b157600080fd5b50505060405180519050905080915050905600a165627a7a723058206ecb5d44004f7c3691ccda7582cc83a66f330a774aeeb31692d37955c26a17ad0029",
  "source": "pragma solidity ^0.4.18;\n\nimport \"./ScriptHelpers.sol\";\nimport \"./IEVMScriptExecutor.sol\";\nimport \"./IEVMScriptRegistry.sol\";\n\nimport \"../apps/AppStorage.sol\";\n\n\ncontract EVMScriptRunner is AppStorage, EVMScriptRegistryConstants {\n    using ScriptHelpers for bytes;\n\n    function runScript(bytes _script, bytes _input, address[] _blacklist) protectState internal returns (bytes output) {\n        // TODO: Too much data flying around, maybe extracting spec id here is cheaper\n        address executorAddr = getExecutor(_script);\n        require(executorAddr != address(0));\n\n        bytes memory calldataArgs = _script.encode(_input, _blacklist);\n        bytes4 sig = IEVMScriptExecutor(0).execScript.selector;\n\n        require(executorAddr.delegatecall(sig, calldataArgs));\n\n        bytes memory ret = returnedDataDecoded();\n\n        require(ret.length > 0);\n\n        return ret;\n    }\n\n    function getExecutor(bytes _script) public view returns (IEVMScriptExecutor) {\n        return IEVMScriptExecutor(getExecutorRegistry().getScriptExecutor(_script));\n    }\n\n    // TODO: Internal\n    function getExecutorRegistry() internal view returns (IEVMScriptRegistry) {\n        address registryAddr = kernel.getApp(EVMSCRIPT_REGISTRY_APP);\n        return IEVMScriptRegistry(registryAddr);\n    }\n\n    /**\n    * @dev copies and returns last's call data. Needs to ABI decode first\n    */\n    function returnedDataDecoded() internal pure returns (bytes ret) {\n        assembly {\n            let size := returndatasize\n            switch size\n            case 0 {}\n            default {\n                ret := mload(0x40) // free mem ptr get\n                mstore(0x40, add(ret, add(size, 0x20))) // free mem ptr set\n                returndatacopy(ret, 0x20, sub(size, 0x20)) // copy return data\n            }\n        }\n        return ret;\n    }\n\n    modifier protectState {\n        address preKernel = kernel;\n        bytes32 preAppId = appId;\n        _; // exec\n        require(kernel == preKernel);\n        require(appId == preAppId);\n    }\n}\n",
  "sourcePath": "@aragon/os/contracts/evmscript/EVMScriptRunner.sol",
  "compiler": {
    "name": "solc",
    "version": "0.4.18+commit.9cf6e910.Emscripten.clang"
  },
  "schemaVersion": "1.0.1",
  "updatedAt": "2018-08-22T11:18:50.746Z"
}