{
  "contractName": "EVMScriptRegistry",
  "abi": [
    {
      "constant": true,
      "inputs": [
        {
          "name": "_script",
          "type": "bytes"
        }
      ],
      "name": "getScriptExecutor",
      "outputs": [
        {
          "name": "",
          "type": "address"
        }
      ],
      "payable": false,
      "stateMutability": "view",
      "type": "function"
    },
    {
      "constant": true,
      "inputs": [],
      "name": "APP_ADDR_NAMESPACE",
      "outputs": [
        {
          "name": "",
          "type": "bytes32"
        }
      ],
      "payable": false,
      "stateMutability": "view",
      "type": "function"
    },
    {
      "constant": true,
      "inputs": [],
      "name": "getRecoveryVault",
      "outputs": [
        {
          "name": "",
          "type": "address"
        }
      ],
      "payable": false,
      "stateMutability": "view",
      "type": "function"
    },
    {
      "constant": false,
      "inputs": [
        {
          "name": "_executorId",
          "type": "uint256"
        }
      ],
      "name": "disableScriptExecutor",
      "outputs": [],
      "payable": false,
      "stateMutability": "nonpayable",
      "type": "function"
    },
    {
      "constant": true,
      "inputs": [],
      "name": "EVMSCRIPT_REGISTRY_APP_ID",
      "outputs": [
        {
          "name": "",
          "type": "bytes32"
        }
      ],
      "payable": false,
      "stateMutability": "view",
      "type": "function"
    },
    {
      "constant": true,
      "inputs": [
        {
          "name": "token",
          "type": "address"
        }
      ],
      "name": "allowRecoverability",
      "outputs": [
        {
          "name": "",
          "type": "bool"
        }
      ],
      "payable": false,
      "stateMutability": "view",
      "type": "function"
    },
    {
      "constant": true,
      "inputs": [],
      "name": "appId",
      "outputs": [
        {
          "name": "",
          "type": "bytes32"
        }
      ],
      "payable": false,
      "stateMutability": "view",
      "type": "function"
    },
    {
      "constant": false,
      "inputs": [],
      "name": "initialize",
      "outputs": [],
      "payable": false,
      "stateMutability": "nonpayable",
      "type": "function"
    },
    {
      "constant": true,
      "inputs": [],
      "name": "ETH",
      "outputs": [
        {
          "name": "",
          "type": "address"
        }
      ],
      "payable": false,
      "stateMutability": "view",
      "type": "function"
    },
    {
      "constant": false,
      "inputs": [
        {
          "name": "_executor",
          "type": "address"
        }
      ],
      "name": "addScriptExecutor",
      "outputs": [
        {
          "name": "id",
          "type": "uint256"
        }
      ],
      "payable": false,
      "stateMutability": "nonpayable",
      "type": "function"
    },
    {
      "constant": true,
      "inputs": [],
      "name": "getInitializationBlock",
      "outputs": [
        {
          "name": "",
          "type": "uint256"
        }
      ],
      "payable": false,
      "stateMutability": "view",
      "type": "function"
    },
    {
      "constant": true,
      "inputs": [],
      "name": "EVMSCRIPT_REGISTRY_APP",
      "outputs": [
        {
          "name": "",
          "type": "bytes32"
        }
      ],
      "payable": false,
      "stateMutability": "view",
      "type": "function"
    },
    {
      "constant": false,
      "inputs": [
        {
          "name": "_token",
          "type": "address"
        }
      ],
      "name": "transferToVault",
      "outputs": [],
      "payable": false,
      "stateMutability": "nonpayable",
      "type": "function"
    },
    {
      "constant": true,
      "inputs": [
        {
          "name": "_sender",
          "type": "address"
        },
        {
          "name": "_role",
          "type": "bytes32"
        },
        {
          "name": "params",
          "type": "uint256[]"
        }
      ],
      "name": "canPerform",
      "outputs": [
        {
          "name": "",
          "type": "bool"
        }
      ],
      "payable": false,
      "stateMutability": "view",
      "type": "function"
    },
    {
      "constant": true,
      "inputs": [],
      "name": "REGISTRY_MANAGER_ROLE",
      "outputs": [
        {
          "name": "",
          "type": "bytes32"
        }
      ],
      "payable": false,
      "stateMutability": "view",
      "type": "function"
    },
    {
      "constant": true,
      "inputs": [],
      "name": "kernel",
      "outputs": [
        {
          "name": "",
          "type": "address"
        }
      ],
      "payable": false,
      "stateMutability": "view",
      "type": "function"
    },
    {
      "constant": true,
      "inputs": [
        {
          "name": "_script",
          "type": "bytes"
        }
      ],
      "name": "getExecutor",
      "outputs": [
        {
          "name": "",
          "type": "address"
        }
      ],
      "payable": false,
      "stateMutability": "view",
      "type": "function"
    },
    {
      "constant": true,
      "inputs": [
        {
          "name": "",
          "type": "uint256"
        }
      ],
      "name": "executors",
      "outputs": [
        {
          "name": "executor",
          "type": "address"
        },
        {
          "name": "enabled",
          "type": "bool"
        }
      ],
      "payable": false,
      "stateMutability": "view",
      "type": "function"
    }
  ],
  "bytecode": "0x6060604052341561000f57600080fd5b6113d88061001e6000396000f3006060604052600436106100fc576000357c0100000000000000000000000000000000000000000000000000000000900463ffffffff16806304bf2a7f14610101578063178e60791461019e57806332f0a3b5146101cf5780635ca4d4bb1461022457806360b1e057146102475780637e7db6e11461027857806380afdea8146102c95780638129fc1c146102fa5780638322fff21461030f57806387a16f12146103645780638b3dd749146103b15780639b3fdf4c146103da5780639d4941d81461040b578063a1658fad14610444578063bd8fde1c146104e2578063d4aae0c414610513578063f92a79ff14610568578063f97a05df14610605575b600080fd5b341561010c57600080fd5b61015c600480803590602001908201803590602001908080601f01602080910402602001604051908101604052809392919081815260200183838082843782019150505050505091905050610673565b604051808273ffffffffffffffffffffffffffffffffffffffff1673ffffffffffffffffffffffffffffffffffffffff16815260200191505060405180910390f35b34156101a957600080fd5b6101b1610714565b60405180826000191660001916815260200191505060405180910390f35b34156101da57600080fd5b6101e261073b565b604051808273ffffffffffffffffffffffffffffffffffffffff1673ffffffffffffffffffffffffffffffffffffffff16815260200191505060405180910390f35b341561022f57600080fd5b6102456004808035906020019091905050610830565b005b341561025257600080fd5b61025a6108c3565b60405180826000191660001916815260200191505060405180910390f35b341561028357600080fd5b6102af600480803573ffffffffffffffffffffffffffffffffffffffff169060200190919050506108ea565b604051808215151515815260200191505060405180910390f35b34156102d457600080fd5b6102dc6108f5565b60405180826000191660001916815260200191505060405180910390f35b341561030557600080fd5b61030d6108fb565b005b341561031a57600080fd5b6103226109d5565b604051808273ffffffffffffffffffffffffffffffffffffffff1673ffffffffffffffffffffffffffffffffffffffff16815260200191505060405180910390f35b341561036f57600080fd5b61039b600480803573ffffffffffffffffffffffffffffffffffffffff169060200190919050506109da565b6040518082815260200191505060405180910390f35b34156103bc57600080fd5b6103c4610afa565b6040518082815260200191505060405180910390f35b34156103e557600080fd5b6103ed610b04565b60405180826000191660001916815260200191505060405180910390f35b341561041657600080fd5b610442600480803573ffffffffffffffffffffffffffffffffffffffff16906020019091905050610b2b565b005b341561044f57600080fd5b6104c8600480803573ffffffffffffffffffffffffffffffffffffffff169060200190919080356000191690602001909190803590602001908201803590602001908080602002602001604051908101604052809392919081815260200183836020028082843782019150505050505091905050610d7e565b604051808215151515815260200191505060405180910390f35b34156104ed57600080fd5b6104f5610f7e565b60405180826000191660001916815260200191505060405180910390f35b341561051e57600080fd5b610526610fa5565b604051808273ffffffffffffffffffffffffffffffffffffffff1673ffffffffffffffffffffffffffffffffffffffff16815260200191505060405180910390f35b341561057357600080fd5b6105c3600480803590602001908201803590602001908080601f01602080910402602001604051908101604052809392919081815260200183838082843782019150505050505091905050610fca565b604051808273ffffffffffffffffffffffffffffffffffffffff1673ffffffffffffffffffffffffffffffffffffffff16815260200191505060405180910390f35b341561061057600080fd5b61062660048080359060200190919050506110d1565b604051808373ffffffffffffffffffffffffffffffffffffffff1673ffffffffffffffffffffffffffffffffffffffff168152602001821515151581526020019250505060405180910390f35b60008060006106818461112e565b63ffffffff169150600082148061069d57506064805490508210155b156106ab576000925061070d565b6064828154811015156106ba57fe5b906000526020600020900190508060000160149054906101000a900460ff166106e457600061070a565b8060000160009054906101000a900473ffffffffffffffffffffffffffffffffffffffff165b92505b5050919050565b7fd6f028ca0e8edb4a8c9757ca4fdccab25fa1e0317da1188108f7d2dee14902fb60010281565b6000806000809054906101000a900473ffffffffffffffffffffffffffffffffffffffff1673ffffffffffffffffffffffffffffffffffffffff161415151561078357600080fd5b6000809054906101000a900473ffffffffffffffffffffffffffffffffffffffff1673ffffffffffffffffffffffffffffffffffffffff166332f0a3b56000604051602001526040518163ffffffff167c0100000000000000000000000000000000000000000000000000000000028152600401602060405180830381600087803b151561081057600080fd5b6102c65a03f1151561082157600080fd5b50505060405180519050905090565b7ff7a450ef335e1892cb42c8ca72e7242359d7711924b75db5717410da3f614aa360010261087e338260006040518059106108685750595b9080825280602002602001820160405250610d7e565b151561088957600080fd5b600060648381548110151561089a57fe5b906000526020600020900160000160146101000a81548160ff0219169083151502179055505050565b7fddbcfd564f642ab5627cf68b9b7d374fb4f8a36e941a75d89c87998cef03bd6160010281565b600060019050919050565b60015481565b600060035414151561090c57600080fd5b610914611142565b606480548060010182816109289190611312565b916000526020600020900160006040805190810160405280600073ffffffffffffffffffffffffffffffffffffffff16815260200160001515815250909190915060008201518160000160006101000a81548173ffffffffffffffffffffffffffffffffffffffff021916908373ffffffffffffffffffffffffffffffffffffffff16021790555060208201518160000160146101000a81548160ff021916908315150217905550505050565b600081565b60007ff7a450ef335e1892cb42c8ca72e7242359d7711924b75db5717410da3f614aa3600102610a2a33826000604051805910610a145750595b9080825280602002602001820160405250610d7e565b1515610a3557600080fd5b60648054806001018281610a499190611312565b9160005260206000209001600060408051908101604052808773ffffffffffffffffffffffffffffffffffffffff16815260200160011515815250909190915060008201518160000160006101000a81548173ffffffffffffffffffffffffffffffffffffffff021916908373ffffffffffffffffffffffffffffffffffffffff16021790555060208201518160000160146101000a81548160ff0219169083151502179055505050915050919050565b6000600354905090565b7f34f01c17e9be6ddbf2c61f37b5b1fb9f1a090a975006581ad19bda1c4d38287160010281565b600080610b37836108ea565b1515610b4257600080fd5b610b4a61073b565b9150610b5582611163565b1515610b6057600080fd5b600073ffffffffffffffffffffffffffffffffffffffff168373ffffffffffffffffffffffffffffffffffffffff161415610bf1578173ffffffffffffffffffffffffffffffffffffffff166108fc3073ffffffffffffffffffffffffffffffffffffffff16319081150290604051600060405180830381858888f193505050501515610bec57600080fd5b610d79565b8273ffffffffffffffffffffffffffffffffffffffff166370a08231306000604051602001526040518263ffffffff167c0100000000000000000000000000000000000000000000000000000000028152600401808273ffffffffffffffffffffffffffffffffffffffff1673ffffffffffffffffffffffffffffffffffffffff168152602001915050602060405180830381600087803b1515610c9457600080fd5b6102c65a03f11515610ca557600080fd5b5050506040518051905090508273ffffffffffffffffffffffffffffffffffffffff1663a9059cbb83836000604051602001526040518363ffffffff167c0100000000000000000000000000000000000000000000000000000000028152600401808373ffffffffffffffffffffffffffffffffffffffff1673ffffffffffffffffffffffffffffffffffffffff16815260200182815260200192505050602060405180830381600087803b1515610d5c57600080fd5b6102c65a03f11515610d6d57600080fd5b50505060405180519050505b505050565b6000610d8861133e565b60008084511115610da157602084510290508391508082525b60008060009054906101000a900473ffffffffffffffffffffffffffffffffffffffff1673ffffffffffffffffffffffffffffffffffffffff161480610f7357506000809054906101000a900473ffffffffffffffffffffffffffffffffffffffff1673ffffffffffffffffffffffffffffffffffffffff1663fdef9106873088866000604051602001526040518563ffffffff167c0100000000000000000000000000000000000000000000000000000000028152600401808573ffffffffffffffffffffffffffffffffffffffff1673ffffffffffffffffffffffffffffffffffffffff1681526020018473ffffffffffffffffffffffffffffffffffffffff1673ffffffffffffffffffffffffffffffffffffffff168152602001836000191660001916815260200180602001828103825283818151815260200191508051906020019080838360005b83811015610f09578082015181840152602081019050610eee565b50505050905090810190601f168015610f365780820380516001836020036101000a031916815260200191505b5095505050505050602060405180830381600087803b1515610f5757600080fd5b6102c65a03f11515610f6857600080fd5b505050604051805190505b925050509392505050565b7ff7a450ef335e1892cb42c8ca72e7242359d7711924b75db5717410da3f614aa360010281565b6000809054906101000a900473ffffffffffffffffffffffffffffffffffffffff1681565b6000610fd46111b5565b73ffffffffffffffffffffffffffffffffffffffff166304bf2a7f836000604051602001526040518263ffffffff167c01000000000000000000000000000000000000000000000000000000000281526004018080602001828103825283818151815260200191508051906020019080838360005b83811015611064578082015181840152602081019050611049565b50505050905090810190601f1680156110915780820380516001836020036101000a031916815260200191505b5092505050602060405180830381600087803b15156110af57600080fd5b6102c65a03f115156110c057600080fd5b505050604051805190509050919050565b6064818154811015156110e057fe5b90600052602060002090016000915090508060000160009054906101000a900473ffffffffffffffffffffffffffffffffffffffff16908060000160149054906101000a900460ff16905082565b600061113b82600061129f565b9050919050565b600060035414151561115357600080fd5b61115b6112f9565b600381905550565b600080600073ffffffffffffffffffffffffffffffffffffffff168373ffffffffffffffffffffffffffffffffffffffff1614156111a457600091506111af565b823b90506000811191505b50919050565b6000806000809054906101000a900473ffffffffffffffffffffffffffffffffffffffff1673ffffffffffffffffffffffffffffffffffffffff166342c71f1d7f34f01c17e9be6ddbf2c61f37b5b1fb9f1a090a975006581ad19bda1c4d3828716001026000604051602001526040518263ffffffff167c0100000000000000000000000000000000000000000000000000000000028152600401808260001916600019168152602001915050602060405180830381600087803b151561127b57600080fd5b6102c65a03f1151561128c57600080fd5b5050506040518051905090508091505090565b6000806112ac8484611301565b90507c01000000000000000000000000000000000000000000000000000000007fffffffff0000000000000000000000000000000000000000000000000000000082160491505092915050565b600043905090565b600081602001830151905092915050565b815481835581811511611339578183600052602060002091820191016113389190611352565b5b505050565b602060405190810160405280600081525090565b6113a991905b808211156113a557600080820160006101000a81549073ffffffffffffffffffffffffffffffffffffffff02191690556000820160146101000a81549060ff021916905550600101611358565b5090565b905600a165627a7a72305820f6e216f3aded14835b5d910b49587609048df95ebafdb1386633d13597fe45920029",
  "source": "pragma solidity 0.4.18;\n\nimport \"./ScriptHelpers.sol\";\nimport \"./IEVMScriptExecutor.sol\";\nimport \"./IEVMScriptRegistry.sol\";\n\nimport \"../apps/AragonApp.sol\";\n\n\ncontract EVMScriptRegistry is IEVMScriptRegistry, EVMScriptRegistryConstants, AragonApp {\n    using ScriptHelpers for bytes;\n\n    // WARN: Manager can censor all votes and the like happening in an org\n    // bytes32 constant public REGISTRY_MANAGER_ROLE = keccak256(\"REGISTRY_MANAGER_ROLE\");\n    bytes32 constant public REGISTRY_MANAGER_ROLE = 0xf7a450ef335e1892cb42c8ca72e7242359d7711924b75db5717410da3f614aa3;\n\n    struct ExecutorEntry {\n        address executor;\n        bool enabled;\n    }\n\n    ExecutorEntry[] public executors;\n\n    function initialize() onlyInit public {\n        initialized();\n        // Create empty record to begin executor IDs at 1\n        executors.push(ExecutorEntry(address(0), false));\n    }\n\n    function addScriptExecutor(address _executor) external auth(REGISTRY_MANAGER_ROLE) returns (uint id) {\n        return executors.push(ExecutorEntry(_executor, true));\n    }\n\n    function disableScriptExecutor(uint256 _executorId) external auth(REGISTRY_MANAGER_ROLE) {\n        executors[_executorId].enabled = false;\n    }\n\n    function getScriptExecutor(bytes _script) public view returns (address) {\n        uint256 id = _script.getSpecId();\n\n        if (id == 0 || id >= executors.length) {\n            return address(0);\n        }\n\n        ExecutorEntry storage entry = executors[id];\n        return entry.enabled ? entry.executor : address(0);\n    }\n}\n",
  "sourcePath": "@aragon/os/contracts/evmscript/EVMScriptRegistry.sol",
  "compiler": {
    "name": "solc",
    "version": "0.4.18+commit.9cf6e910.Emscripten.clang"
  },
  "schemaVersion": "1.0.1",
  "updatedAt": "2018-07-26T09:18:09.321Z"
}