{
  "contractName": "EVMScriptRegistryFactory",
  "abi": [
    {
      "constant": true,
      "inputs": [],
      "name": "baseReg",
      "outputs": [
        {
          "name": "",
          "type": "address"
        }
      ],
      "payable": false,
      "stateMutability": "view",
      "type": "function"
    },
    {
      "constant": true,
      "inputs": [],
      "name": "baseCallScript",
      "outputs": [
        {
          "name": "",
          "type": "address"
        }
      ],
      "payable": false,
      "stateMutability": "view",
      "type": "function"
    },
    {
      "constant": true,
      "inputs": [],
      "name": "EVMSCRIPT_REGISTRY_APP_ID",
      "outputs": [
        {
          "name": "",
          "type": "bytes32"
        }
      ],
      "payable": false,
      "stateMutability": "view",
      "type": "function"
    },
    {
      "constant": false,
      "inputs": [
        {
          "name": "_kernel",
          "type": "address"
        },
        {
          "name": "_appId",
          "type": "bytes32"
        },
        {
          "name": "_initializePayload",
          "type": "bytes"
        }
      ],
      "name": "newAppProxyPinned",
      "outputs": [
        {
          "name": "",
          "type": "address"
        }
      ],
      "payable": false,
      "stateMutability": "nonpayable",
      "type": "function"
    },
    {
      "constant": false,
      "inputs": [
        {
          "name": "_kernel",
          "type": "address"
        },
        {
          "name": "_appId",
          "type": "bytes32"
        }
      ],
      "name": "newAppProxy",
      "outputs": [
        {
          "name": "",
          "type": "address"
        }
      ],
      "payable": false,
      "stateMutability": "nonpayable",
      "type": "function"
    },
    {
      "constant": false,
      "inputs": [
        {
          "name": "_kernel",
          "type": "address"
        },
        {
          "name": "_appId",
          "type": "bytes32"
        },
        {
          "name": "_initializePayload",
          "type": "bytes"
        }
      ],
      "name": "newAppProxy",
      "outputs": [
        {
          "name": "",
          "type": "address"
        }
      ],
      "payable": false,
      "stateMutability": "nonpayable",
      "type": "function"
    },
    {
      "constant": false,
      "inputs": [
        {
          "name": "_kernel",
          "type": "address"
        },
        {
          "name": "_appId",
          "type": "bytes32"
        }
      ],
      "name": "newAppProxyPinned",
      "outputs": [
        {
          "name": "",
          "type": "address"
        }
      ],
      "payable": false,
      "stateMutability": "nonpayable",
      "type": "function"
    },
    {
      "inputs": [],
      "payable": false,
      "stateMutability": "nonpayable",
      "type": "constructor"
    },
    {
      "anonymous": false,
      "inputs": [
        {
          "indexed": false,
          "name": "proxy",
          "type": "address"
        },
        {
          "indexed": false,
          "name": "isUpgradeable",
          "type": "bool"
        },
        {
          "indexed": false,
          "name": "appId",
          "type": "bytes32"
        }
      ],
      "name": "NewAppProxy",
      "type": "event"
    },
    {
      "constant": false,
      "inputs": [
        {
          "name": "_dao",
          "type": "address"
        }
      ],
      "name": "newEVMScriptRegistry",
      "outputs": [
        {
          "name": "reg",
          "type": "address"
        }
      ],
      "payable": false,
      "stateMutability": "nonpayable",
      "type": "function"
    }
  ],
  "bytecode": "0x608060405234801561001057600080fd5b506100196100df565b604051809103906000f080158015610035573d6000803e3d6000fd5b506000806101000a81548173ffffffffffffffffffffffffffffffffffffffff021916908373ffffffffffffffffffffffffffffffffffffffff16021790555061007d6100f0565b604051809103906000f080158015610099573d6000803e3d6000fd5b50600160006101000a81548173ffffffffffffffffffffffffffffffffffffffff021916908373ffffffffffffffffffffffffffffffffffffffff160217905550610101565b604051611b498062002ae883390190565b60405161078b806200463183390190565b6129d780620001116000396000f30060806040526004361062000097576000357c0100000000000000000000000000000000000000000000000000000000900463ffffffff168063127d679c146200009c5780633340414314620000f65780634de50a3a146200017c57806360b1e05714620001d6578063d162f8b0146200020c578063e156a8f314620002e6578063ede658b0146200037a578063ff289fc51462000454575b600080fd5b348015620000a957600080fd5b50620000b4620004e8565b604051808273ffffffffffffffffffffffffffffffffffffffff1673ffffffffffffffffffffffffffffffffffffffff16815260200191505060405180910390f35b3480156200010357600080fd5b506200013a600480360381019080803573ffffffffffffffffffffffffffffffffffffffff1690602001909291905050506200050d565b604051808273ffffffffffffffffffffffffffffffffffffffff1673ffffffffffffffffffffffffffffffffffffffff16815260200191505060405180910390f35b3480156200018957600080fd5b506200019462000dd9565b604051808273ffffffffffffffffffffffffffffffffffffffff1673ffffffffffffffffffffffffffffffffffffffff16815260200191505060405180910390f35b348015620001e357600080fd5b50620001ee62000dff565b60405180826000191660001916815260200191505060405180910390f35b3480156200021957600080fd5b50620002a4600480360381019080803573ffffffffffffffffffffffffffffffffffffffff1690602001909291908035600019169060200190929190803590602001908201803590602001908080601f016020809104026020016040519081016040528093929190818152602001838380828437820191505050505050919291929050505062000e26565b604051808273ffffffffffffffffffffffffffffffffffffffff1673ffffffffffffffffffffffffffffffffffffffff16815260200191505060405180910390f35b348015620002f357600080fd5b5062000338600480360381019080803573ffffffffffffffffffffffffffffffffffffffff169060200190929190803560001916906020019092919050505062000f95565b604051808273ffffffffffffffffffffffffffffffffffffffff1673ffffffffffffffffffffffffffffffffffffffff16815260200191505060405180910390f35b3480156200038757600080fd5b5062000412600480360381019080803573ffffffffffffffffffffffffffffffffffffffff1690602001909291908035600019169060200190929190803590602001908201803590602001908080601f016020809104026020016040519081016040528093929190818152602001838380828437820191505050505050919291929050505062000fe1565b604051808273ffffffffffffffffffffffffffffffffffffffff1673ffffffffffffffffffffffffffffffffffffffff16815260200191505060405180910390f35b3480156200046157600080fd5b50620004a6600480360381019080803573ffffffffffffffffffffffffffffffffffffffff169060200190929190803560001916906020019092919050505062001150565b604051808273ffffffffffffffffffffffffffffffffffffffff1673ffffffffffffffffffffffffffffffffffffffff16815260200191505060405180910390f35b6000809054906101000a900473ffffffffffffffffffffffffffffffffffffffff1681565b6000606060008273ffffffffffffffffffffffffffffffffffffffff16638129fc1c90507c010000000000000000000000000000000000000000000000000000000002604051602401604051602081830303815290604052907bffffffffffffffffffffffffffffffffffffffffffffffffffffffff19166020820180517bffffffffffffffffffffffffffffffffffffffffffffffffffffffff838183161783525050505091508373ffffffffffffffffffffffffffffffffffffffff1663c050a7a67fddbcfd564f642ab5627cf68b9b7d374fb4f8a36e941a75d89c87998cef03bd616001026000809054906101000a900473ffffffffffffffffffffffffffffffffffffffff168560016040518563ffffffff167c01000000000000000000000000000000000000000000000000000000000281526004018085600019166000191681526020018473ffffffffffffffffffffffffffffffffffffffff1673ffffffffffffffffffffffffffffffffffffffff1681526020018060200183151515158152602001828103825284818151815260200191508051906020019080838360005b83811015620006d1578082015181840152602081019050620006b4565b50505050905090810190601f168015620006ff5780820380516001836020036101000a031916815260200191505b5095505050505050602060405180830381600087803b1580156200072257600080fd5b505af115801562000737573d6000803e3d6000fd5b505050506040513d60208110156200074e57600080fd5b810190808051906020019092919050505092508373ffffffffffffffffffffffffffffffffffffffff1663de2873596040518163ffffffff167c0100000000000000000000000000000000000000000000000000000000028152600401602060405180830381600087803b158015620007c657600080fd5b505af1158015620007db573d6000803e3d6000fd5b505050506040513d6020811015620007f257600080fd5b810190808051906020019092919050505090508073ffffffffffffffffffffffffffffffffffffffff1663be03847830858673ffffffffffffffffffffffffffffffffffffffff166319f3d10f6040518163ffffffff167c0100000000000000000000000000000000000000000000000000000000028152600401602060405180830381600087803b1580156200088857600080fd5b505af11580156200089d573d6000803e3d6000fd5b505050506040513d6020811015620008b457600080fd5b8101908080519060200190929190505050306040518563ffffffff167c0100000000000000000000000000000000000000000000000000000000028152600401808573ffffffffffffffffffffffffffffffffffffffff1673ffffffffffffffffffffffffffffffffffffffff1681526020018473ffffffffffffffffffffffffffffffffffffffff1673ffffffffffffffffffffffffffffffffffffffff16815260200183600019166000191681526020018273ffffffffffffffffffffffffffffffffffffffff1673ffffffffffffffffffffffffffffffffffffffff168152602001945050505050600060405180830381600087803b158015620009ba57600080fd5b505af1158015620009cf573d6000803e3d6000fd5b505050508273ffffffffffffffffffffffffffffffffffffffff166387a16f12600160009054906101000a900473ffffffffffffffffffffffffffffffffffffffff166040518263ffffffff167c0100000000000000000000000000000000000000000000000000000000028152600401808273ffffffffffffffffffffffffffffffffffffffff1673ffffffffffffffffffffffffffffffffffffffff168152602001915050602060405180830381600087803b15801562000a9157600080fd5b505af115801562000aa6573d6000803e3d6000fd5b505050506040513d602081101562000abd57600080fd5b8101908080519060200190929190505050508073ffffffffffffffffffffffffffffffffffffffff16639d0effdb30858673ffffffffffffffffffffffffffffffffffffffff166319f3d10f6040518163ffffffff167c0100000000000000000000000000000000000000000000000000000000028152600401602060405180830381600087803b15801562000b5257600080fd5b505af115801562000b67573d6000803e3d6000fd5b505050506040513d602081101562000b7e57600080fd5b81019080805190602001909291905050506040518463ffffffff167c0100000000000000000000000000000000000000000000000000000000028152600401808473ffffffffffffffffffffffffffffffffffffffff1673ffffffffffffffffffffffffffffffffffffffff1681526020018373ffffffffffffffffffffffffffffffffffffffff1673ffffffffffffffffffffffffffffffffffffffff16815260200182600019166000191681526020019350505050600060405180830381600087803b15801562000c5057600080fd5b505af115801562000c65573d6000803e3d6000fd5b505050508073ffffffffffffffffffffffffffffffffffffffff1663a885508a848573ffffffffffffffffffffffffffffffffffffffff166319f3d10f6040518163ffffffff167c0100000000000000000000000000000000000000000000000000000000028152600401602060405180830381600087803b15801562000ceb57600080fd5b505af115801562000d00573d6000803e3d6000fd5b505050506040513d602081101562000d1757600080fd5b81019080805190602001909291905050506040518363ffffffff167c0100000000000000000000000000000000000000000000000000000000028152600401808373ffffffffffffffffffffffffffffffffffffffff1673ffffffffffffffffffffffffffffffffffffffff168152602001826000191660001916815260200192505050600060405180830381600087803b15801562000db657600080fd5b505af115801562000dcb573d6000803e3d6000fd5b505050508292505050919050565b600160009054906101000a900473ffffffffffffffffffffffffffffffffffffffff1681565b7fddbcfd564f642ab5627cf68b9b7d374fb4f8a36e941a75d89c87998cef03bd6160010281565b60008084848462000e366200119c565b808473ffffffffffffffffffffffffffffffffffffffff1673ffffffffffffffffffffffffffffffffffffffff168152602001836000191660001916815260200180602001828103825283818151815260200191508051906020019080838360005b8381101562000eb557808201518184015260208101905062000e98565b50505050905090810190601f16801562000ee35780820380516001836020036101000a031916815260200191505b50945050505050604051809103906000f08015801562000f07573d6000803e3d6000fd5b5090507fd880e726dced8808d727f02dd0e6fdd3a945b24bfee77e13367bcbe61ddbaf4781600086604051808473ffffffffffffffffffffffffffffffffffffffff1673ffffffffffffffffffffffffffffffffffffffff168152602001831515151581526020018260001916600019168152602001935050505060405180910390a1809150509392505050565b600062000fd9838360006040519080825280601f01601f19166020018201604052801562000fd25781602001602082028038833980820191505090505b5062000fe1565b905092915050565b60008084848462000ff1620011ad565b808473ffffffffffffffffffffffffffffffffffffffff1673ffffffffffffffffffffffffffffffffffffffff168152602001836000191660001916815260200180602001828103825283818151815260200191508051906020019080838360005b838110156200107057808201518184015260208101905062001053565b50505050905090810190601f1680156200109e5780820380516001836020036101000a031916815260200191505b50945050505050604051809103906000f080158015620010c2573d6000803e3d6000fd5b5090507fd880e726dced8808d727f02dd0e6fdd3a945b24bfee77e13367bcbe61ddbaf4781600186604051808473ffffffffffffffffffffffffffffffffffffffff1673ffffffffffffffffffffffffffffffffffffffff168152602001831515151581526020018260001916600019168152602001935050505060405180910390a1809150509392505050565b600062001194838360006040519080825280601f01601f1916602001820160405280156200118d5781602001602082028038833980820191505090505b5062000e26565b905092915050565b604051610c1980620011bf83390190565b604051610bd48062001dd883390190560060806040523480156200001157600080fd5b5060405162000c1938038062000c1983398101806040528101908080519060200190929190805190602001909291908051820192919050505082828260006200006984620001e3640100000000026401000000009004565b620000838362000230640100000000026401000000009004565b6200009d836200027d640100000000026401000000009004565b90506000825111156200016557620000c48162000386640100000000026401000000009004565b1515620000d057600080fd5b8073ffffffffffffffffffffffffffffffffffffffff168260405180828051906020019080838360005b8381101562000117578082015181840152602081019050620000fa565b50505050905090810190601f168015620001455780820380516001836020036101000a031916815260200191505b50915050600060405180830381855af491505015156200016457600080fd5b5b505050506200019c62000187836200027d640100000000026401000000009004565b620003da640100000000026401000000009004565b620001ce620001b962000427640100000000026401000000009004565b62000386640100000000026401000000009004565b1515620001da57600080fd5b505050620004da565b6200022d817f4172f0f7d2289153072b0a6ca36959e0cbe2efc3afe50fc81636caa96338137b600102600019166200047464010000000002620006f5179091906401000000009004565b50565b6200027a817fd625496217aa6a3453eecb9c3489dc5a53e6c67b444329ea2b2cbc9ff547639b600102600019166200047b64010000000002620006fc179091906401000000009004565b50565b60006200029862000482640100000000026401000000009004565b73ffffffffffffffffffffffffffffffffffffffff1663be00bbd87ff1f3eb40f5bc1ad1344716ced8b8a0431d840b5783aea1fd01786bc26f35ac0f600102846040518363ffffffff167c0100000000000000000000000000000000000000000000000000000000028152600401808360001916600019168152602001826000191660001916815260200192505050602060405180830381600087803b1580156200034257600080fd5b505af115801562000357573d6000803e3d6000fd5b505050506040513d60208110156200036e57600080fd5b81019080805190602001909291905050509050919050565b600080600073ffffffffffffffffffffffffffffffffffffffff168373ffffffffffffffffffffffffffffffffffffffff161415620003c95760009150620003d4565b823b90506000811191505b50919050565b62000424817fdee64df20d65e53d7f51cb6ab6d921a0a6a638a91e942e1d8d02df28e31c038e600102600019166200047464010000000002620006f5179091906401000000009004565b50565b60006200046f7fdee64df20d65e53d7f51cb6ab6d921a0a6a638a91e942e1d8d02df28e31c038e60010260001916620004cf64010000000002620006ea176401000000009004565b905090565b8082555050565b8082555050565b6000620004ca7f4172f0f7d2289153072b0a6ca36959e0cbe2efc3afe50fc81636caa96338137b60010260001916620004cf64010000000002620006ea176401000000009004565b905090565b600081549050919050565b61072f80620004ea6000396000f3006080604052600436106100c5576000357c0100000000000000000000000000000000000000000000000000000000900463ffffffff1680630ceafa2a146101bd5780631113ed0d146101e8578063178e60791461021b5780632b2584f61461024e5780634555d5c91461027957806348a0c8dd146102a45780635c60da1b146102d3578063756f60491461032a5780637e84a4ff1461035d57806380afdea814610388578063cbcc65eb146103bb578063d4aae0c4146103ee578063db8a61d414610445575b60006127105a1015610172576000341180156100e45750600080369050145b15156100ef57600080fd5b6100f7610478565b151561010257600080fd5b7f15eeaa57c7bd188c1388020bcadc2c436ec60d647d36ef5b9eb3c742217ddee13334604051808373ffffffffffffffffffffffffffffffffffffffff1673ffffffffffffffffffffffffffffffffffffffff1681526020018281526020019250505060405180910390a16101ba565b61017a6104af565b90506101b9816000368080601f0160208091040260200160405190810160405280939291908181526020018383808284378201915050505050506104be565b5b50005b3480156101c957600080fd5b506101d2610501565b6040518082815260200191505060405180910390f35b3480156101f457600080fd5b506101fd610507565b60405180826000191660001916815260200191505060405180910390f35b34801561022757600080fd5b5061023061052e565b60405180826000191660001916815260200191505060405180910390f35b34801561025a57600080fd5b50610263610555565b6040518082815260200191505060405180910390f35b34801561028557600080fd5b5061028e61055a565b6040518082815260200191505060405180910390f35b3480156102b057600080fd5b506102b9610478565b604051808215151515815260200191505060405180910390f35b3480156102df57600080fd5b506102e86104af565b604051808273ffffffffffffffffffffffffffffffffffffffff1673ffffffffffffffffffffffffffffffffffffffff16815260200191505060405180910390f35b34801561033657600080fd5b5061033f610563565b60405180826000191660001916815260200191505060405180910390f35b34801561036957600080fd5b5061037261058a565b6040518082815260200191505060405180910390f35b34801561039457600080fd5b5061039d61058f565b60405180826000191660001916815260200191505060405180910390f35b3480156103c757600080fd5b506103d06105c6565b60405180826000191660001916815260200191505060405180910390f35b3480156103fa57600080fd5b506104036105ed565b604051808273ffffffffffffffffffffffffffffffffffffffff1673ffffffffffffffffffffffffffffffffffffffff16815260200191505060405180910390f35b34801561045157600080fd5b5061045a610624565b60405180826000191660001916815260200191505060405180910390f35b60006104aa7f665fd576fbbe6f247aff98f5c94a561e3f71ec2d3c988d56f12d342396c50cea6001026000191661064b565b905090565b60006104b9610656565b905090565b60006104c98361068d565b15156104d457600080fd5b612710905060008083516020850186855a03f43d604051816000823e82600081146104fd578282f35b8282fd5b61271081565b7f3b4bf6bf3ad5000ecf0f989d5befde585c6860fea3e574a4fab4c49d1c177d9c60010281565b7fd6f028ca0e8edb4a8c9757ca4fdccab25fa1e0317da1188108f7d2dee14902fb60010281565b600181565b60006001905090565b7fc681a85306374a5ab27f0bbc385296a54bcd314a1948b6cf61c4ea1bc44bb9f860010281565b600281565b60006105c17fd625496217aa6a3453eecb9c3489dc5a53e6c67b444329ea2b2cbc9ff547639b600102600019166106df565b905090565b7fe3262375f45a6e2026b7e7b18c2b807434f2508fe1a2a3dfb493c7df8f4aad6a60010281565b600061061f7f4172f0f7d2289153072b0a6ca36959e0cbe2efc3afe50fc81636caa96338137b600102600019166106ea565b905090565b7ff1f3eb40f5bc1ad1344716ced8b8a0431d840b5783aea1fd01786bc26f35ac0f60010281565b600081549050919050565b60006106887fdee64df20d65e53d7f51cb6ab6d921a0a6a638a91e942e1d8d02df28e31c038e600102600019166106ea565b905090565b600080600073ffffffffffffffffffffffffffffffffffffffff168373ffffffffffffffffffffffffffffffffffffffff1614156106ce57600091506106d9565b823b90506000811191505b50919050565b600081549050919050565b600081549050919050565b8082555050565b80825550505600a165627a7a723058208b29ff4db5c1b98e06bf17ff9b677ba6b41d71eeb4ccb1a48ec89ded69c744d5002960806040523480156200001157600080fd5b5060405162000bd438038062000bd48339810180604052810190808051906020019092919080519060200190929190805182019291905050508282826000620000698462000172640100000000026401000000009004565b6200008383620001bf640100000000026401000000009004565b6200009d836200020c640100000000026401000000009004565b90506000825111156200016557620000c48162000315640100000000026401000000009004565b1515620000d057600080fd5b8073ffffffffffffffffffffffffffffffffffffffff168260405180828051906020019080838360005b8381101562000117578082015181840152602081019050620000fa565b50505050905090810190601f168015620001455780820380516001836020036101000a031916815260200191505b50915050600060405180830381855af491505015156200016457600080fd5b5b50505050505050620003cf565b620001bc817f4172f0f7d2289153072b0a6ca36959e0cbe2efc3afe50fc81636caa96338137b600102600019166200036964010000000002620007bb179091906401000000009004565b50565b62000209817fd625496217aa6a3453eecb9c3489dc5a53e6c67b444329ea2b2cbc9ff547639b600102600019166200037064010000000002620007c2179091906401000000009004565b50565b60006200022762000377640100000000026401000000009004565b73ffffffffffffffffffffffffffffffffffffffff1663be00bbd87ff1f3eb40f5bc1ad1344716ced8b8a0431d840b5783aea1fd01786bc26f35ac0f600102846040518363ffffffff167c0100000000000000000000000000000000000000000000000000000000028152600401808360001916600019168152602001826000191660001916815260200192505050602060405180830381600087803b158015620002d157600080fd5b505af1158015620002e6573d6000803e3d6000fd5b505050506040513d6020811015620002fd57600080fd5b81019080805190602001909291905050509050919050565b600080600073ffffffffffffffffffffffffffffffffffffffff168373ffffffffffffffffffffffffffffffffffffffff16141562000358576000915062000363565b823b90506000811191505b50919050565b8082555050565b8082555050565b6000620003bf7f4172f0f7d2289153072b0a6ca36959e0cbe2efc3afe50fc81636caa96338137b60010260001916620003c464010000000002620007b0176401000000009004565b905090565b600081549050919050565b6107f580620003df6000396000f3006080604052600436106100c5576000357c0100000000000000000000000000000000000000000000000000000000900463ffffffff1680630ceafa2a146101bd5780631113ed0d146101e8578063178e60791461021b5780632b2584f61461024e5780634555d5c91461027957806348a0c8dd146102a45780635c60da1b146102d3578063756f60491461032a5780637e84a4ff1461035d57806380afdea814610388578063cbcc65eb146103bb578063d4aae0c4146103ee578063db8a61d414610445575b60006127105a1015610172576000341180156100e45750600080369050145b15156100ef57600080fd5b6100f7610478565b151561010257600080fd5b7f15eeaa57c7bd188c1388020bcadc2c436ec60d647d36ef5b9eb3c742217ddee13334604051808373ffffffffffffffffffffffffffffffffffffffff1673ffffffffffffffffffffffffffffffffffffffff1681526020018281526020019250505060405180910390a16101ba565b61017a6104af565b90506101b9816000368080601f0160208091040260200160405190810160405280939291908181526020018383808284378201915050505050506104c6565b5b50005b3480156101c957600080fd5b506101d2610509565b6040518082815260200191505060405180910390f35b3480156101f457600080fd5b506101fd61050f565b60405180826000191660001916815260200191505060405180910390f35b34801561022757600080fd5b50610230610536565b60405180826000191660001916815260200191505060405180910390f35b34801561025a57600080fd5b5061026361055d565b6040518082815260200191505060405180910390f35b34801561028557600080fd5b5061028e610562565b6040518082815260200191505060405180910390f35b3480156102b057600080fd5b506102b9610478565b604051808215151515815260200191505060405180910390f35b3480156102df57600080fd5b506102e86104af565b604051808273ffffffffffffffffffffffffffffffffffffffff1673ffffffffffffffffffffffffffffffffffffffff16815260200191505060405180910390f35b34801561033657600080fd5b5061033f61056b565b60405180826000191660001916815260200191505060405180910390f35b34801561036957600080fd5b50610372610592565b6040518082815260200191505060405180910390f35b34801561039457600080fd5b5061039d610597565b60405180826000191660001916815260200191505060405180910390f35b3480156103c757600080fd5b506103d06105ce565b60405180826000191660001916815260200191505060405180910390f35b3480156103fa57600080fd5b506104036105f5565b604051808273ffffffffffffffffffffffffffffffffffffffff1673ffffffffffffffffffffffffffffffffffffffff16815260200191505060405180910390f35b34801561045157600080fd5b5061045a61062c565b60405180826000191660001916815260200191505060405180910390f35b60006104aa7f665fd576fbbe6f247aff98f5c94a561e3f71ec2d3c988d56f12d342396c50cea60010260001916610653565b905090565b60006104c16104bc610597565b61065e565b905090565b60006104d183610753565b15156104dc57600080fd5b612710905060008083516020850186855a03f43d604051816000823e8260008114610505578282f35b8282fd5b61271081565b7f3b4bf6bf3ad5000ecf0f989d5befde585c6860fea3e574a4fab4c49d1c177d9c60010281565b7fd6f028ca0e8edb4a8c9757ca4fdccab25fa1e0317da1188108f7d2dee14902fb60010281565b600181565b60006002905090565b7fc681a85306374a5ab27f0bbc385296a54bcd314a1948b6cf61c4ea1bc44bb9f860010281565b600281565b60006105c97fd625496217aa6a3453eecb9c3489dc5a53e6c67b444329ea2b2cbc9ff547639b600102600019166107a5565b905090565b7fe3262375f45a6e2026b7e7b18c2b807434f2508fe1a2a3dfb493c7df8f4aad6a60010281565b60006106277f4172f0f7d2289153072b0a6ca36959e0cbe2efc3afe50fc81636caa96338137b600102600019166107b0565b905090565b7ff1f3eb40f5bc1ad1344716ced8b8a0431d840b5783aea1fd01786bc26f35ac0f60010281565b600081549050919050565b60006106686105f5565b73ffffffffffffffffffffffffffffffffffffffff1663be00bbd87ff1f3eb40f5bc1ad1344716ced8b8a0431d840b5783aea1fd01786bc26f35ac0f600102846040518363ffffffff167c0100000000000000000000000000000000000000000000000000000000028152600401808360001916600019168152602001826000191660001916815260200192505050602060405180830381600087803b15801561071157600080fd5b505af1158015610725573d6000803e3d6000fd5b505050506040513d602081101561073b57600080fd5b81019080805190602001909291905050509050919050565b600080600073ffffffffffffffffffffffffffffffffffffffff168373ffffffffffffffffffffffffffffffffffffffff161415610794576000915061079f565b823b90506000811191505b50919050565b600081549050919050565b600081549050919050565b8082555050565b80825550505600a165627a7a72305820662579599c58e2bed8fb01cbce199abab3014d681d4de04a7c6b1de390b96ae60029a165627a7a72305820b97e5a6560f1482c86f26835ee55e962e86b8a2038448d862102a3e4984538b1002960806040526200001d62000023640100000000026401000000009004565b6200015b565b60006200003e62000087640100000000026401000000009004565b1415156200004b57600080fd5b620000857fffffffffffffffffffffffffffffffffffffffffffffffffffffffffffffffff620000d4640100000000026401000000009004565b565b6000620000cf7febb05b386a8d34882b8711d156f463690983dc47815980fb82aeeff1aa43579e600102600019166200014964010000000002620017bd176401000000009004565b905090565b6000620000ef62000087640100000000026401000000009004565b141515620000fc57600080fd5b62000146817febb05b386a8d34882b8711d156f463690983dc47815980fb82aeeff1aa43579e6001026000191662000154640100000000026200199a179091906401000000009004565b50565b600081549050919050565b8082555050565b6119de806200016b6000396000f300608060405260043610610149576000357c0100000000000000000000000000000000000000000000000000000000900463ffffffff16806304bf2a7f1461014e5780630803fac0146101f75780631113ed0d14610226578063178e60791461025957806319f3d10f1461028c57806332f0a3b5146102bf5780635ca4d4bb1461031657806360b1e05714610343578063756f6049146103765780637e7db6e1146103a957806380afdea8146104045780638129fc1c146104375780638322fff21461044e57806387a16f12146104a55780638b3dd749146104fc5780639d4941d814610527578063a1658fad1461056a578063bd8fde1c14610616578063cbcc65eb14610649578063cff606a01461067c578063d4aae0c4146106a9578063db8a61d414610700578063de4796ed14610733578063f92a79ff14610762578063f97a05df1461080b575b600080fd5b34801561015a57600080fd5b506101b5600480360381019080803590602001908201803590602001908080601f0160208091040260200160405190810160405280939291908181526020018383808284378201915050505050509192919290505050610883565b604051808273ffffffffffffffffffffffffffffffffffffffff1673ffffffffffffffffffffffffffffffffffffffff16815260200191505060405180910390f35b34801561020357600080fd5b5061020c610923565b604051808215151515815260200191505060405180910390f35b34801561023257600080fd5b5061023b61094e565b60405180826000191660001916815260200191505060405180910390f35b34801561026557600080fd5b5061026e610975565b60405180826000191660001916815260200191505060405180910390f35b34801561029857600080fd5b506102a161099c565b60405180826000191660001916815260200191505060405180910390f35b3480156102cb57600080fd5b506102d46109c3565b604051808273ffffffffffffffffffffffffffffffffffffffff1673ffffffffffffffffffffffffffffffffffffffff16815260200191505060405180910390f35b34801561032257600080fd5b5061034160048036038101908080359060200190929190505050610ab2565b005b34801561034f57600080fd5b50610358610bba565b60405180826000191660001916815260200191505060405180910390f35b34801561038257600080fd5b5061038b610be1565b60405180826000191660001916815260200191505060405180910390f35b3480156103b557600080fd5b506103ea600480360381019080803573ffffffffffffffffffffffffffffffffffffffff169060200190929190505050610c08565b604051808215151515815260200191505060405180910390f35b34801561041057600080fd5b50610419610c13565b60405180826000191660001916815260200191505060405180910390f35b34801561044357600080fd5b5061044c610c4a565b005b34801561045a57600080fd5b50610463610d2c565b604051808273ffffffffffffffffffffffffffffffffffffffff1673ffffffffffffffffffffffffffffffffffffffff16815260200191505060405180910390f35b3480156104b157600080fd5b506104e6600480360381019080803573ffffffffffffffffffffffffffffffffffffffff169060200190929190505050610d31565b6040518082815260200191505060405180910390f35b34801561050857600080fd5b50610511610eb1565b6040518082815260200191505060405180910390f35b34801561053357600080fd5b50610568600480360381019080803573ffffffffffffffffffffffffffffffffffffffff169060200190929190505050610ee8565b005b34801561057657600080fd5b506105fc600480360381019080803573ffffffffffffffffffffffffffffffffffffffff169060200190929190803560001916906020019092919080359060200190820180359060200190808060200260200160405190810160405280939291908181526020018383602002808284378201915050505050509192919290505050611172565b604051808215151515815260200191505060405180910390f35b34801561062257600080fd5b5061062b611384565b60405180826000191660001916815260200191505060405180910390f35b34801561065557600080fd5b5061065e6113ab565b60405180826000191660001916815260200191505060405180910390f35b34801561068857600080fd5b506106a7600480360381019080803590602001909291905050506113d2565b005b3480156106b557600080fd5b506106be6114db565b604051808273ffffffffffffffffffffffffffffffffffffffff1673ffffffffffffffffffffffffffffffffffffffff16815260200191505060405180910390f35b34801561070c57600080fd5b50610715611512565b60405180826000191660001916815260200191505060405180910390f35b34801561073f57600080fd5b50610748611539565b604051808215151515815260200191505060405180910390f35b34801561076e57600080fd5b506107c9600480360381019080803590602001908201803590602001908080601f016020809104026020016040519081016040528093929190818152602001838380828437820191505050505050919291929050505061156a565b604051808273ffffffffffffffffffffffffffffffffffffffff1673ffffffffffffffffffffffffffffffffffffffff16815260200191505060405180910390f35b34801561081757600080fd5b5061083660048036038101908080359060200190929190505050611689565b604051808373ffffffffffffffffffffffffffffffffffffffff1673ffffffffffffffffffffffffffffffffffffffff168152602001821515151581526020019250505060405180910390f35b6000806000610891846116e5565b63ffffffff16915060008214806108ad57506000805490508210155b156108bb576000925061091c565b6000828154811015156108ca57fe5b9060005260206000200190508060000160149054906101000a900460ff166108f3576000610919565b8060000160009054906101000a900473ffffffffffffffffffffffffffffffffffffffff165b92505b5050919050565b60008061092e610eb1565b9050600081141580156109485750806109456116f9565b10155b91505090565b7f3b4bf6bf3ad5000ecf0f989d5befde585c6860fea3e574a4fab4c49d1c177d9c60010281565b7fd6f028ca0e8edb4a8c9757ca4fdccab25fa1e0317da1188108f7d2dee14902fb60010281565b7fc4e90f38eea8c4212a009ca7b8947943ba4d4a58d19b683417f65291d1cd9ed260010281565b60008073ffffffffffffffffffffffffffffffffffffffff166109e46114db565b73ffffffffffffffffffffffffffffffffffffffff1614151515610a0757600080fd5b610a0f6114db565b73ffffffffffffffffffffffffffffffffffffffff166332f0a3b56040518163ffffffff167c0100000000000000000000000000000000000000000000000000000000028152600401602060405180830381600087803b158015610a7257600080fd5b505af1158015610a86573d6000803e3d6000fd5b505050506040513d6020811015610a9c57600080fd5b8101908080519060200190929190505050905090565b60007ff7a450ef335e1892cb42c8ca72e7242359d7711924b75db5717410da3f614aa3600102610ae183611701565b610aec338383611172565b1515610af757600080fd5b600084815481101515610b0657fe5b9060005260206000200192508260000160149054906101000a900460ff161515610b2f57600080fd5b60008360000160146101000a81548160ff0219169083151502179055508260000160009054906101000a900473ffffffffffffffffffffffffffffffffffffffff1673ffffffffffffffffffffffffffffffffffffffff16847fc13cd9238f8ab1e5ab1f95cde77e89288fe5c328d04739adffd57b144b408fd160405160405180910390a350505050565b7fddbcfd564f642ab5627cf68b9b7d374fb4f8a36e941a75d89c87998cef03bd6160010281565b7fc681a85306374a5ab27f0bbc385296a54bcd314a1948b6cf61c4ea1bc44bb9f860010281565b600060019050919050565b6000610c457fd625496217aa6a3453eecb9c3489dc5a53e6c67b444329ea2b2cbc9ff547639b60010260001916611759565b905090565b6000610c54610eb1565b141515610c6057600080fd5b610c68611764565b60006040805190810160405280600073ffffffffffffffffffffffffffffffffffffffff1681526020016000151581525090806001815401808255809150509060018203906000526020600020016000909192909190915060008201518160000160006101000a81548173ffffffffffffffffffffffffffffffffffffffff021916908373ffffffffffffffffffffffffffffffffffffffff16021790555060208201518160000160146101000a81548160ff021916908315150217905550505050565b600081565b6000807fc4e90f38eea8c4212a009ca7b8947943ba4d4a58d19b683417f65291d1cd9ed2600102610d9333826000604051908082528060200260200182016040528015610d8d5781602001602082028038833980820191505090505b50611172565b1515610d9e57600080fd5b6001600060408051908101604052808773ffffffffffffffffffffffffffffffffffffffff1681526020016001151581525090806001815401808255809150509060018203906000526020600020016000909192909190915060008201518160000160006101000a81548173ffffffffffffffffffffffffffffffffffffffff021916908373ffffffffffffffffffffffffffffffffffffffff16021790555060208201518160000160146101000a81548160ff02191690831515021790555050500391508373ffffffffffffffffffffffffffffffffffffffff16827f7697fa3288629310075a63816e294207c84f3cfc18ccf8e18eb917ec0bb5669960405160405180910390a38192505050919050565b6000610ee37febb05b386a8d34882b8711d156f463690983dc47815980fb82aeeff1aa43579e600102600019166117bd565b905090565b600080610ef483610c08565b1515610eff57600080fd5b610f076109c3565b9150610f12826117c8565b1515610f1d57600080fd5b600073ffffffffffffffffffffffffffffffffffffffff168373ffffffffffffffffffffffffffffffffffffffff161415610fb5578173ffffffffffffffffffffffffffffffffffffffff166108fc3073ffffffffffffffffffffffffffffffffffffffff16319081150290604051600060405180830381858888f19350505050158015610faf573d6000803e3d6000fd5b5061116d565b8273ffffffffffffffffffffffffffffffffffffffff166370a08231306040518263ffffffff167c0100000000000000000000000000000000000000000000000000000000028152600401808273ffffffffffffffffffffffffffffffffffffffff1673ffffffffffffffffffffffffffffffffffffffff168152602001915050602060405180830381600087803b15801561105057600080fd5b505af1158015611064573d6000803e3d6000fd5b505050506040513d602081101561107a57600080fd5b810190808051906020019092919050505090508273ffffffffffffffffffffffffffffffffffffffff1663a9059cbb83836040518363ffffffff167c0100000000000000000000000000000000000000000000000000000000028152600401808373ffffffffffffffffffffffffffffffffffffffff1673ffffffffffffffffffffffffffffffffffffffff16815260200182815260200192505050602060405180830381600087803b15801561113057600080fd5b505af1158015611144573d6000803e3d6000fd5b505050506040513d602081101561115a57600080fd5b8101908080519060200190929190505050505b505050565b60008060606000611181610923565b1515611190576000935061137a565b6111986114db565b9250600073ffffffffffffffffffffffffffffffffffffffff168373ffffffffffffffffffffffffffffffffffffffff1614156111d8576000935061137a565b6000855111156111f057602085510290508491508082525b8273ffffffffffffffffffffffffffffffffffffffff1663fdef9106883089866040518563ffffffff167c0100000000000000000000000000000000000000000000000000000000028152600401808573ffffffffffffffffffffffffffffffffffffffff1673ffffffffffffffffffffffffffffffffffffffff1681526020018473ffffffffffffffffffffffffffffffffffffffff1673ffffffffffffffffffffffffffffffffffffffff168152602001836000191660001916815260200180602001828103825283818151815260200191508051906020019080838360005b838110156112ed5780820151818401526020810190506112d2565b50505050905090810190601f16801561131a5780820380516001836020036101000a031916815260200191505b5095505050505050602060405180830381600087803b15801561133c57600080fd5b505af1158015611350573d6000803e3d6000fd5b505050506040513d602081101561136657600080fd5b810190808051906020019092919050505093505b5050509392505050565b7ff7a450ef335e1892cb42c8ca72e7242359d7711924b75db5717410da3f614aa360010281565b7fe3262375f45a6e2026b7e7b18c2b807434f2508fe1a2a3dfb493c7df8f4aad6a60010281565b60007ff7a450ef335e1892cb42c8ca72e7242359d7711924b75db5717410da3f614aa360010261140183611701565b61140c338383611172565b151561141757600080fd5b60008481548110151561142657fe5b9060005260206000200192508260000160149054906101000a900460ff1615151561145057600080fd5b60018360000160146101000a81548160ff0219169083151502179055508260000160009054906101000a900473ffffffffffffffffffffffffffffffffffffffff1673ffffffffffffffffffffffffffffffffffffffff16847f7697fa3288629310075a63816e294207c84f3cfc18ccf8e18eb917ec0bb5669960405160405180910390a350505050565b600061150d7f4172f0f7d2289153072b0a6ca36959e0cbe2efc3afe50fc81636caa96338137b6001026000191661181a565b905090565b7ff1f3eb40f5bc1ad1344716ced8b8a0431d840b5783aea1fd01786bc26f35ac0f60010281565b60007fffffffffffffffffffffffffffffffffffffffffffffffffffffffffffffffff611564610eb1565b14905090565b6000611574611825565b73ffffffffffffffffffffffffffffffffffffffff166304bf2a7f836040518263ffffffff167c01000000000000000000000000000000000000000000000000000000000281526004018080602001828103825283818151815260200191508051906020019080838360005b838110156115fb5780820151818401526020810190506115e0565b50505050905090810190601f1680156116285780820380516001836020036101000a031916815260200191505b5092505050602060405180830381600087803b15801561164757600080fd5b505af115801561165b573d6000803e3d6000fd5b505050506040513d602081101561167157600080fd5b81019080805190602001909291905050509050919050565b60008181548110151561169857fe5b906000526020600020016000915090508060000160009054906101000a900473ffffffffffffffffffffffffffffffffffffffff16908060000160149054906101000a900460ff16905082565b60006116f2826000611940565b9050919050565b600043905090565b606060016040519080825280602002602001820160405280156117335781602001602082028038833980820191505090505b5090508181600081518110151561174657fe5b9060200190602002018181525050919050565b600081549050919050565b600061176e610eb1565b14151561177a57600080fd5b6117bb6117856116f9565b7febb05b386a8d34882b8711d156f463690983dc47815980fb82aeeff1aa43579e6001026000191661199a90919063ffffffff16565b565b600081549050919050565b600080600073ffffffffffffffffffffffffffffffffffffffff168373ffffffffffffffffffffffffffffffffffffffff1614156118095760009150611814565b823b90506000811191505b50919050565b600081549050919050565b6000806118306114db565b73ffffffffffffffffffffffffffffffffffffffff1663be00bbd87fd6f028ca0e8edb4a8c9757ca4fdccab25fa1e0317da1188108f7d2dee14902fb6001027fddbcfd564f642ab5627cf68b9b7d374fb4f8a36e941a75d89c87998cef03bd616001026040518363ffffffff167c0100000000000000000000000000000000000000000000000000000000028152600401808360001916600019168152602001826000191660001916815260200192505050602060405180830381600087803b1580156118fc57600080fd5b505af1158015611910573d6000803e3d6000fd5b505050506040513d602081101561192657600080fd5b810190808051906020019092919050505090508091505090565b60008061194d84846119a1565b90507c01000000000000000000000000000000000000000000000000000000007fffffffff0000000000000000000000000000000000000000000000000000000082160491505092915050565b8082555050565b6000816020018301519050929150505600a165627a7a723058205ac876cc49a7c40f85116653eed478ae70d30e23b8a978cc3bb6cb01be39fae70029608060405261001b610020640100000000026401000000009004565b61014a565b600061003961007f640100000000026401000000009004565b14151561004557600080fd5b61007d7fffffffffffffffffffffffffffffffffffffffffffffffffffffffffffffffff6100c9640100000000026401000000009004565b565b60006100c47febb05b386a8d34882b8711d156f463690983dc47815980fb82aeeff1aa43579e60010260001916610138640100000000026105e3176401000000009004565b905090565b60006100e261007f640100000000026401000000009004565b1415156100ee57600080fd5b610135817febb05b386a8d34882b8711d156f463690983dc47815980fb82aeeff1aa43579e60010260001916610143640100000000026105ff179091906401000000009004565b50565b600081549050919050565b8082555050565b610632806101596000396000f30060806040526004361061006d576000357c0100000000000000000000000000000000000000000000000000000000900463ffffffff1680630803fac014610072578063279cea35146100a15780638333d9b2146101855780638b3dd749146101b8578063de4796ed146101e3575b600080fd5b34801561007e57600080fd5b50610087610212565b604051808215151515815260200191505060405180910390f35b3480156100ad57600080fd5b5061010a60048036038101908080359060200190820180359060200191909192939192939080359060200190820180359060200191909192939192939080359060200190820180359060200191909192939192939050505061023d565b6040518080602001828103825283818151815260200191508051906020019080838360005b8381101561014a57808201518184015260208101905061012f565b50505050905090810190601f1680156101775780820380516001836020036101000a031916815260200191505b509250505060405180910390f35b34801561019157600080fd5b5061019a610494565b60405180826000191660001916815260200191505060405180910390f35b3480156101c457600080fd5b506101cd6104bf565b6040518082815260200191505060405180910390f35b3480156101ef57600080fd5b506101f86104f6565b604051808215151515815260200191505060405180910390f35b60008061021d6104bf565b905060008114158015610237575080610234610527565b10155b91505090565b6060600080600080600080610250610212565b151561025b57600080fd5b600495505b8c8c9050861015610484576102b0868e8e8080601f01602080910402602001604051908101604052809392919081815260200183838082843782019150505050505061052f90919063ffffffff16565b9450600093505b888890508410156103345788888581811015156102d057fe5b9050602002013573ffffffffffffffffffffffffffffffffffffffff1673ffffffffffffffffffffffffffffffffffffffff168573ffffffffffffffffffffffffffffffffffffffff161415151561032757600080fd5b83806001019450506102b7565b8473ffffffffffffffffffffffffffffffffffffffff163073ffffffffffffffffffffffffffffffffffffffff163373ffffffffffffffffffffffffffffffffffffffff167f9dcff9d94fbfdb4622d11edb383005f95e78efb446c72d92f8e615c6025c470360405160405180910390a46103ed601487018e8e8080601f01602080910402602001604051908101604052809392919081815260200183838082843782019150505050505061057990919063ffffffff16565b63ffffffff169250600460148701019150610443828e8e8080601f0160208091040260200160405190810160405280939291908181526020018383808284378201915050505050506105d390919063ffffffff16565b905082820195508c8c9050861115151561045c57600080fd5b60008084836000896113885a03f180600081146104785761047d565b600080fd5b5050610260565b5050505050509695505050505050565b60007f2dc858a00f3e417be1394b87c07158e989ec681ce8cc68a9093680ac1a870302600102905090565b60006104f17febb05b386a8d34882b8711d156f463690983dc47815980fb82aeeff1aa43579e600102600019166105e3565b905090565b60007fffffffffffffffffffffffffffffffffffffffffffffffffffffffffffffffff6105216104bf565b14905090565b600043905090565b60008061053c84846105ee565b90506c010000000000000000000000007fffffffffffffffffffffffffffffffffffffffff00000000000000000000000082160491505092915050565b60008061058684846105ee565b90507c01000000000000000000000000000000000000000000000000000000007fffffffff0000000000000000000000000000000000000000000000000000000082160491505092915050565b6000816020018301905092915050565b600081549050919050565b600081602001830151905092915050565b80825550505600a165627a7a7230582075c58a2f20de8bfb736856329a701658cb57a73935cb6794f5875dae12ac12130029",
  "source": "pragma solidity 0.4.24;\n\nimport \"../evmscript/IEVMScriptExecutor.sol\";\nimport \"../evmscript/EVMScriptRegistry.sol\";\n\nimport \"../evmscript/executors/CallsScript.sol\";\n\nimport \"./AppProxyFactory.sol\";\nimport \"../kernel/Kernel.sol\";\nimport \"../acl/ACL.sol\";\n\n\ncontract EVMScriptRegistryFactory is AppProxyFactory, EVMScriptRegistryConstants {\n    EVMScriptRegistry public baseReg;\n    IEVMScriptExecutor public baseCallScript;\n\n    constructor() public {\n        baseReg = new EVMScriptRegistry();\n        baseCallScript = IEVMScriptExecutor(new CallsScript());\n    }\n\n    function newEVMScriptRegistry(Kernel _dao) public returns (EVMScriptRegistry reg) {\n        bytes memory initPayload = abi.encodeWithSelector(reg.initialize.selector);\n        reg = EVMScriptRegistry(_dao.newPinnedAppInstance(EVMSCRIPT_REGISTRY_APP_ID, baseReg, initPayload, true));\n\n        ACL acl = ACL(_dao.acl());\n\n        acl.createPermission(this, reg, reg.REGISTRY_ADD_EXECUTOR_ROLE(), this);\n\n        reg.addScriptExecutor(baseCallScript);     // spec 1 = CallsScript\n\n        // Clean up the permissions\n        acl.revokePermission(this, reg, reg.REGISTRY_ADD_EXECUTOR_ROLE());\n        acl.removePermissionManager(reg, reg.REGISTRY_ADD_EXECUTOR_ROLE());\n\n        return reg;\n    }\n}\n",
  "sourcePath": "@aragon/os/contracts/factory/EVMScriptRegistryFactory.sol",
  "compiler": {
    "name": "solc",
    "version": "0.4.24+commit.e67f0147.Emscripten.clang"
  },
  "schemaVersion": "3.0.0-beta.1",
  "updatedAt": "2018-11-23T10:39:45.683Z"
}