{
  "contractName": "ExecutionTarget",
  "abi": [
    {
      "constant": true,
      "inputs": [],
      "name": "value",
      "outputs": [
        {
          "name": "",
          "type": "uint256"
        }
      ],
      "payable": false,
      "stateMutability": "view",
      "type": "function"
    },
    {
      "constant": true,
      "inputs": [],
      "name": "counter",
      "outputs": [
        {
          "name": "",
          "type": "uint256"
        }
      ],
      "payable": false,
      "stateMutability": "view",
      "type": "function"
    },
    {
      "anonymous": false,
      "inputs": [
        {
          "indexed": false,
          "name": "x",
          "type": "uint256"
        }
      ],
      "name": "Executed",
      "type": "event"
    },
    {
      "constant": false,
      "inputs": [],
      "name": "execute",
      "outputs": [],
      "payable": false,
      "stateMutability": "nonpayable",
      "type": "function"
    },
    {
      "constant": false,
      "inputs": [
        {
          "name": "_value",
          "type": "uint256"
        }
      ],
      "name": "setValue",
      "outputs": [],
      "payable": false,
      "stateMutability": "nonpayable",
      "type": "function"
    },
    {
      "constant": false,
      "inputs": [
        {
          "name": "_value",
          "type": "uint256"
        }
      ],
      "name": "autoThrow",
      "outputs": [],
      "payable": false,
      "stateMutability": "nonpayable",
      "type": "function"
    },
    {
      "constant": false,
      "inputs": [
        {
          "name": "_origin",
          "type": "address"
        },
        {
          "name": "_tree",
          "type": "string"
        },
        {
          "name": "_message",
          "type": "string"
        },
        {
          "name": "_parents",
          "type": "bytes"
        }
      ],
      "name": "commit",
      "outputs": [],
      "payable": false,
      "stateMutability": "nonpayable",
      "type": "function"
    }
  ],
  "bytecode": "0x608060405234801561001057600080fd5b5061030c806100206000396000f300608060405260043610610078576000357c0100000000000000000000000000000000000000000000000000000000900463ffffffff1680633fa4f2451461007d57806355241077146100a857806361461954146100d557806361bc221a146100ec578063805bf24714610117578063c2f8610f14610144575b600080fd5b34801561008957600080fd5b50610092610259565b6040518082815260200191505060405180910390f35b3480156100b457600080fd5b506100d36004803603810190808035906020019092919050505061025f565b005b3480156100e157600080fd5b506100ea610279565b005b3480156100f857600080fd5b506101016102c4565b6040518082815260200191505060405180910390f35b34801561012357600080fd5b50610142600480360381019080803590602001909291905050506102ca565b005b34801561015057600080fd5b50610257600480360381019080803573ffffffffffffffffffffffffffffffffffffffff169060200190929190803590602001908201803590602001908080601f0160208091040260200160405190810160405280939291908181526020018383808284378201915050505050509192919290803590602001908201803590602001908080601f0160208091040260200160405190810160405280939291908181526020018383808284378201915050505050509192919290803590602001908201803590602001908080601f01602080910402602001604051908101604052809392919081815260200183838082843782019150505050505091929192905050506102da565b005b60005481565b600180600082825401925050819055508060008190555050565b600180600082825401925050819055507fbcf6a68a2f901be4a23a41b53acd7697893a7e34def4e28acba584da75283b676001546040518082815260200191505060405180910390a1565b60015481565b600015156102d757600080fd5b50565b505050505600a165627a7a72305820def2f68b916459d41e772923b74b7d88954acef57651ae93cc37cc599e8ae2620029",
  "source": "pragma solidity ^0.4.18;\n\ncontract ExecutionTarget {\n    uint256 public value;\n    uint256 public counter;\n\n    function execute() {\n        counter += 1;\n        Executed(counter);\n    }\n\n    function setValue(uint256 _value) {\n        counter += 1;\n        value = _value;\n    }\n\n    function autoThrow(uint256 _value) public {\n        require(false);\n    }\n\n    function commit(address _origin, string _tree, string _message, bytes _parents) public {\n        \n    }\n\n    event Executed(uint256 x);\n}\n",
  "sourcePath": "/Users/osarrouy/Documents/dapp/@pando/packages/core/contracts/mocks/ExecutionTarget.sol",
  "compiler": {
    "name": "solc",
    "version": "0.4.24+commit.e67f0147.Emscripten.clang"
  },
  "schemaVersion": "2.0.1",
  "updatedAt": "2018-10-05T12:39:51.584Z"
}