{
  "contractName": "Initializable",
  "abi": [
    {
      "constant": true,
      "inputs": [],
      "name": "appId",
      "outputs": [
        {
          "name": "",
          "type": "bytes32"
        }
      ],
      "payable": false,
      "stateMutability": "view",
      "type": "function"
    },
    {
      "constant": true,
      "inputs": [],
      "name": "kernel",
      "outputs": [
        {
          "name": "",
          "type": "address"
        }
      ],
      "payable": false,
      "stateMutability": "view",
      "type": "function"
    },
    {
      "constant": true,
      "inputs": [],
      "name": "getInitializationBlock",
      "outputs": [
        {
          "name": "",
          "type": "uint256"
        }
      ],
      "payable": false,
      "stateMutability": "view",
      "type": "function"
    }
  ],
  "bytecode": "0x608060405234801561001057600080fd5b50610172806100206000396000f300608060405260043610610057576000357c0100000000000000000000000000000000000000000000000000000000900463ffffffff16806380afdea81461005c5780638b3dd7491461008f578063d4aae0c4146100ba575b600080fd5b34801561006857600080fd5b50610071610111565b60405180826000191660001916815260200191505060405180910390f35b34801561009b57600080fd5b506100a4610117565b6040518082815260200191505060405180910390f35b3480156100c657600080fd5b506100cf610121565b604051808273ffffffffffffffffffffffffffffffffffffffff1673ffffffffffffffffffffffffffffffffffffffff16815260200191505060405180910390f35b60015481565b6000600354905090565b6000809054906101000a900473ffffffffffffffffffffffffffffffffffffffff16815600a165627a7a723058201914d9034f2367918a8c27efe8fd9149af9ff4eb49afda49e282af032b5a22340029",
  "source": "/*\n * SPDX-License-Identitifer:    MIT\n */\n\npragma solidity ^0.4.18;\n\nimport \"../apps/AppStorage.sol\";\nimport \"../common/TimeHelpers.sol\";\n\n\ncontract Initializable is AppStorage, TimeHelpers {\n    modifier onlyInit {\n        require(initializationBlock == 0);\n        _;\n    }\n\n    modifier isInitialized {\n        require(initializationBlock > 0);\n        _;\n    }\n\n    /**\n    * @return Block number in which the contract was initialized\n    */\n    function getInitializationBlock() public view returns (uint256) {\n        return initializationBlock;\n    }\n\n    /**\n    * @dev Function to be called by top level contract after initialization has finished.\n    */\n    function initialized() internal onlyInit {\n        initializationBlock = getBlockNumber();\n    }\n}\n",
  "sourcePath": "@aragon/os/contracts/common/Initializable.sol",
  "compiler": {
    "name": "solc",
    "version": "0.4.24+commit.e67f0147.Emscripten.clang"
  },
  "schemaVersion": "2.0.1",
  "updatedAt": "2018-10-06T16:57:44.246Z"
}