{
  "contractName": "KernelProxy",
  "abi": [
    {
      "constant": true,
      "inputs": [],
      "name": "APM_NODE",
      "outputs": [
        {
          "name": "",
          "type": "bytes32"
        }
      ],
      "payable": false,
      "stateMutability": "view",
      "type": "function"
    },
    {
      "constant": true,
      "inputs": [],
      "name": "FWD_GAS_LIMIT",
      "outputs": [
        {
          "name": "",
          "type": "uint256"
        }
      ],
      "payable": false,
      "stateMutability": "view",
      "type": "function"
    },
    {
      "constant": true,
      "inputs": [],
      "name": "KERNEL_APP_ID",
      "outputs": [
        {
          "name": "",
          "type": "bytes32"
        }
      ],
      "payable": false,
      "stateMutability": "view",
      "type": "function"
    },
    {
      "constant": true,
      "inputs": [],
      "name": "APP_ADDR_NAMESPACE",
      "outputs": [
        {
          "name": "",
          "type": "bytes32"
        }
      ],
      "payable": false,
      "stateMutability": "view",
      "type": "function"
    },
    {
      "constant": true,
      "inputs": [],
      "name": "KERNEL_APP",
      "outputs": [
        {
          "name": "",
          "type": "bytes32"
        }
      ],
      "payable": false,
      "stateMutability": "view",
      "type": "function"
    },
    {
      "constant": true,
      "inputs": [],
      "name": "FORWARDING",
      "outputs": [
        {
          "name": "",
          "type": "uint256"
        }
      ],
      "payable": false,
      "stateMutability": "view",
      "type": "function"
    },
    {
      "constant": true,
      "inputs": [
        {
          "name": "",
          "type": "bytes32"
        }
      ],
      "name": "apps",
      "outputs": [
        {
          "name": "",
          "type": "address"
        }
      ],
      "payable": false,
      "stateMutability": "view",
      "type": "function"
    },
    {
      "constant": true,
      "inputs": [],
      "name": "proxyType",
      "outputs": [
        {
          "name": "proxyTypeId",
          "type": "uint256"
        }
      ],
      "payable": false,
      "stateMutability": "pure",
      "type": "function"
    },
    {
      "constant": true,
      "inputs": [],
      "name": "implementation",
      "outputs": [
        {
          "name": "",
          "type": "address"
        }
      ],
      "payable": false,
      "stateMutability": "view",
      "type": "function"
    },
    {
      "constant": true,
      "inputs": [],
      "name": "CORE_NAMESPACE",
      "outputs": [
        {
          "name": "",
          "type": "bytes32"
        }
      ],
      "payable": false,
      "stateMutability": "view",
      "type": "function"
    },
    {
      "constant": true,
      "inputs": [],
      "name": "UPGRADEABLE",
      "outputs": [
        {
          "name": "",
          "type": "uint256"
        }
      ],
      "payable": false,
      "stateMutability": "view",
      "type": "function"
    },
    {
      "constant": true,
      "inputs": [],
      "name": "ACL_APP",
      "outputs": [
        {
          "name": "",
          "type": "bytes32"
        }
      ],
      "payable": false,
      "stateMutability": "view",
      "type": "function"
    },
    {
      "constant": true,
      "inputs": [],
      "name": "ACL_APP_ID",
      "outputs": [
        {
          "name": "",
          "type": "bytes32"
        }
      ],
      "payable": false,
      "stateMutability": "view",
      "type": "function"
    },
    {
      "constant": true,
      "inputs": [],
      "name": "ETH_NODE",
      "outputs": [
        {
          "name": "",
          "type": "bytes32"
        }
      ],
      "payable": false,
      "stateMutability": "view",
      "type": "function"
    },
    {
      "constant": true,
      "inputs": [],
      "name": "recoveryVaultId",
      "outputs": [
        {
          "name": "",
          "type": "bytes32"
        }
      ],
      "payable": false,
      "stateMutability": "view",
      "type": "function"
    },
    {
      "constant": true,
      "inputs": [],
      "name": "APP_BASES_NAMESPACE",
      "outputs": [
        {
          "name": "",
          "type": "bytes32"
        }
      ],
      "payable": false,
      "stateMutability": "view",
      "type": "function"
    },
    {
      "inputs": [
        {
          "name": "_kernelImpl",
          "type": "address"
        }
      ],
      "payable": false,
      "stateMutability": "nonpayable",
      "type": "constructor"
    },
    {
      "payable": true,
      "stateMutability": "payable",
      "type": "fallback"
    },
    {
      "anonymous": false,
      "inputs": [
        {
          "indexed": false,
          "name": "sender",
          "type": "address"
        },
        {
          "indexed": false,
          "name": "value",
          "type": "uint256"
        }
      ],
      "name": "ProxyDeposit",
      "type": "event"
    }
  ],
  "bytecode": "0x6060604052341561000f57600080fd5b60405160208061091983398101604052808051906020019091905050806000807fc681a85306374a5ab27f0bbc385296a54bcd314a1948b6cf61c4ea1bc44bb9f86001027f3b4bf6bf3ad5000ecf0f989d5befde585c6860fea3e574a4fab4c49d1c177d9c60010260405180836000191660001916815260200182600019166000191681526020019250505060405180910390206000191660001916815260200190815260200160002060006101000a81548173ffffffffffffffffffffffffffffffffffffffff021916908373ffffffffffffffffffffffffffffffffffffffff16021790555050610812806101076000396000f3006060604052600436106100e6576000357c0100000000000000000000000000000000000000000000000000000000900463ffffffff16806309720778146101cb5780630ceafa2a146101fc5780631113ed0d14610225578063178e60791461025657806325012699146102875780632b2584f6146102b857806338bb6def146102e15780634555d5c9146103485780635c60da1b14610371578063756f6049146103c65780637e84a4ff146103f7578063a3b4b07f14610420578063cbcc65eb14610451578063cc473be314610482578063dabca019146104b3578063db8a61d4146104e4575b60006127105a1015610180576000341180156101055750600080369050145b151561011057600080fd5b7f15eeaa57c7bd188c1388020bcadc2c436ec60d647d36ef5b9eb3c742217ddee13334604051808373ffffffffffffffffffffffffffffffffffffffff1673ffffffffffffffffffffffffffffffffffffffff1681526020018281526020019250505060405180910390a16101c8565b610188610515565b90506101c7816000368080601f01602080910402602001604051908101604052809392919081815260200183838082843782019150505050505061057a565b5b50005b34156101d657600080fd5b6101de61058a565b60405180826000191660001916815260200191505060405180910390f35b341561020757600080fd5b61020f6105b1565b6040518082815260200191505060405180910390f35b341561023057600080fd5b6102386105b7565b60405180826000191660001916815260200191505060405180910390f35b341561026157600080fd5b6102696105de565b60405180826000191660001916815260200191505060405180910390f35b341561029257600080fd5b61029a610605565b60405180826000191660001916815260200191505060405180910390f35b34156102c357600080fd5b6102cb61062c565b6040518082815260200191505060405180910390f35b34156102ec57600080fd5b610306600480803560001916906020019091905050610631565b604051808273ffffffffffffffffffffffffffffffffffffffff1673ffffffffffffffffffffffffffffffffffffffff16815260200191505060405180910390f35b341561035357600080fd5b61035b610664565b6040518082815260200191505060405180910390f35b341561037c57600080fd5b610384610515565b604051808273ffffffffffffffffffffffffffffffffffffffff1673ffffffffffffffffffffffffffffffffffffffff16815260200191505060405180910390f35b34156103d157600080fd5b6103d961066d565b60405180826000191660001916815260200191505060405180910390f35b341561040257600080fd5b61040a610694565b6040518082815260200191505060405180910390f35b341561042b57600080fd5b610433610699565b60405180826000191660001916815260200191505060405180910390f35b341561045c57600080fd5b6104646106c0565b60405180826000191660001916815260200191505060405180910390f35b341561048d57600080fd5b6104956106e7565b60405180826000191660001916815260200191505060405180910390f35b34156104be57600080fd5b6104c661070e565b60405180826000191660001916815260200191505060405180910390f35b34156104ef57600080fd5b6104f7610714565b60405180826000191660001916815260200191505060405180910390f35b60008060007f2b7d19d0575c228f8d9326801e14149d284dc5bb7b1541c5ad712ae4b2fcaadb6001026000191660001916815260200190815260200160002060009054906101000a900473ffffffffffffffffffffffffffffffffffffffff16905090565b6105868282600061073b565b5050565b7f9065c3e7f7b7ef1ef4e53d2d0b8e0cef02874ab020c1ece79d5f0d3d0111c0ba60010281565b61271081565b7f3b4bf6bf3ad5000ecf0f989d5befde585c6860fea3e574a4fab4c49d1c177d9c60010281565b7fd6f028ca0e8edb4a8c9757ca4fdccab25fa1e0317da1188108f7d2dee14902fb60010281565b7f2b7d19d0575c228f8d9326801e14149d284dc5bb7b1541c5ad712ae4b2fcaadb60010281565b600181565b60006020528060005260406000206000915054906101000a900473ffffffffffffffffffffffffffffffffffffffff1681565b60006002905090565b7fc681a85306374a5ab27f0bbc385296a54bcd314a1948b6cf61c4ea1bc44bb9f860010281565b600281565b7f4b8e03a458a6ccec5d9077c2490964c1333dd3c72e2db408d7d9a7a36ef5c41a60010281565b7fe3262375f45a6e2026b7e7b18c2b807434f2508fe1a2a3dfb493c7df8f4aad6a60010281565b7f93cdeb708b7545dc668eb9280176169d1c33cfd8ed6f04690a0bcc88a93fc4ae60010281565b60015481565b7ff1f3eb40f5bc1ad1344716ced8b8a0431d840b5783aea1fd01786bc26f35ac0f60010281565b600080600061074986610794565b151561075457600080fd5b612710905060008086516020880189855a03f491503d925083831015151561077b57600080fd5b604051836000823e8260008114610790578482f35b8482fd5b600080600073ffffffffffffffffffffffffffffffffffffffff168373ffffffffffffffffffffffffffffffffffffffff1614156107d557600091506107e0565b823b90506000811191505b509190505600a165627a7a7230582099f917e0f3103807bcd712dff879aac4da575d5f2d2fcaeea2f2c797f36834e20029",
  "source": "pragma solidity 0.4.18;\n\nimport \"./KernelStorage.sol\";\nimport \"../common/DepositableDelegateProxy.sol\";\n\n\ncontract KernelProxy is KernelStorage, DepositableDelegateProxy {\n    /**\n    * @dev KernelProxy is a proxy contract to a kernel implementation. The implementation\n    *      can update the reference, which effectively upgrades the contract\n    * @param _kernelImpl Address of the contract used as implementation for kernel\n    */\n    function KernelProxy(address _kernelImpl) public {\n        apps[keccak256(CORE_NAMESPACE, KERNEL_APP_ID)] = _kernelImpl;\n    }\n\n    /**\n     * @dev ERC897, whether it is a forwarding (1) or an upgradeable (2) proxy\n     */\n    function proxyType() public pure returns (uint256 proxyTypeId) {\n        return UPGRADEABLE;\n    }\n\n    /**\n    * @dev ERC897, the address the proxy would delegate calls to\n    */\n    function implementation() public view returns (address) {\n        return apps[KERNEL_APP];\n    }\n\n}\n",
  "sourcePath": "@aragon/os/contracts/kernel/KernelProxy.sol",
  "compiler": {
    "name": "solc",
    "version": "0.4.18+commit.9cf6e910.Emscripten.clang"
  },
  "schemaVersion": "1.0.1",
  "updatedAt": "2018-07-26T09:18:09.327Z"
}