{
  "contractName": "Kernel",
  "abi": [
    {
      "constant": true,
      "inputs": [],
      "name": "APM_NODE",
      "outputs": [
        {
          "name": "",
          "type": "bytes32"
        }
      ],
      "payable": false,
      "stateMutability": "view",
      "type": "function"
    },
    {
      "constant": true,
      "inputs": [],
      "name": "KERNEL_APP_ID",
      "outputs": [
        {
          "name": "",
          "type": "bytes32"
        }
      ],
      "payable": false,
      "stateMutability": "view",
      "type": "function"
    },
    {
      "constant": true,
      "inputs": [],
      "name": "APP_ADDR_NAMESPACE",
      "outputs": [
        {
          "name": "",
          "type": "bytes32"
        }
      ],
      "payable": false,
      "stateMutability": "view",
      "type": "function"
    },
    {
      "constant": true,
      "inputs": [],
      "name": "KERNEL_APP",
      "outputs": [
        {
          "name": "",
          "type": "bytes32"
        }
      ],
      "payable": false,
      "stateMutability": "view",
      "type": "function"
    },
    {
      "constant": false,
      "inputs": [
        {
          "name": "_name",
          "type": "bytes32"
        }
      ],
      "name": "setRecoveryVaultId",
      "outputs": [],
      "payable": false,
      "stateMutability": "nonpayable",
      "type": "function"
    },
    {
      "constant": true,
      "inputs": [],
      "name": "getRecoveryVault",
      "outputs": [
        {
          "name": "",
          "type": "address"
        }
      ],
      "payable": false,
      "stateMutability": "view",
      "type": "function"
    },
    {
      "constant": true,
      "inputs": [
        {
          "name": "",
          "type": "bytes32"
        }
      ],
      "name": "apps",
      "outputs": [
        {
          "name": "",
          "type": "address"
        }
      ],
      "payable": false,
      "stateMutability": "view",
      "type": "function"
    },
    {
      "constant": true,
      "inputs": [
        {
          "name": "_id",
          "type": "bytes32"
        }
      ],
      "name": "getApp",
      "outputs": [
        {
          "name": "",
          "type": "address"
        }
      ],
      "payable": false,
      "stateMutability": "view",
      "type": "function"
    },
    {
      "constant": false,
      "inputs": [
        {
          "name": "_baseAcl",
          "type": "address"
        },
        {
          "name": "_permissionsCreator",
          "type": "address"
        }
      ],
      "name": "initialize",
      "outputs": [],
      "payable": false,
      "stateMutability": "nonpayable",
      "type": "function"
    },
    {
      "constant": true,
      "inputs": [],
      "name": "CORE_NAMESPACE",
      "outputs": [
        {
          "name": "",
          "type": "bytes32"
        }
      ],
      "payable": false,
      "stateMutability": "view",
      "type": "function"
    },
    {
      "constant": true,
      "inputs": [
        {
          "name": "token",
          "type": "address"
        }
      ],
      "name": "allowRecoverability",
      "outputs": [
        {
          "name": "",
          "type": "bool"
        }
      ],
      "payable": false,
      "stateMutability": "view",
      "type": "function"
    },
    {
      "constant": true,
      "inputs": [],
      "name": "appId",
      "outputs": [
        {
          "name": "",
          "type": "bytes32"
        }
      ],
      "payable": false,
      "stateMutability": "view",
      "type": "function"
    },
    {
      "constant": false,
      "inputs": [
        {
          "name": "_name",
          "type": "bytes32"
        },
        {
          "name": "_appBase",
          "type": "address"
        }
      ],
      "name": "newAppInstance",
      "outputs": [
        {
          "name": "appProxy",
          "type": "address"
        }
      ],
      "payable": false,
      "stateMutability": "nonpayable",
      "type": "function"
    },
    {
      "constant": true,
      "inputs": [],
      "name": "ETH",
      "outputs": [
        {
          "name": "",
          "type": "address"
        }
      ],
      "payable": false,
      "stateMutability": "view",
      "type": "function"
    },
    {
      "constant": true,
      "inputs": [],
      "name": "getInitializationBlock",
      "outputs": [
        {
          "name": "",
          "type": "uint256"
        }
      ],
      "payable": false,
      "stateMutability": "view",
      "type": "function"
    },
    {
      "constant": true,
      "inputs": [],
      "name": "APP_MANAGER_ROLE",
      "outputs": [
        {
          "name": "",
          "type": "bytes32"
        }
      ],
      "payable": false,
      "stateMutability": "view",
      "type": "function"
    },
    {
      "constant": false,
      "inputs": [
        {
          "name": "_name",
          "type": "bytes32"
        },
        {
          "name": "_appBase",
          "type": "address"
        }
      ],
      "name": "newPinnedAppInstance",
      "outputs": [
        {
          "name": "appProxy",
          "type": "address"
        }
      ],
      "payable": false,
      "stateMutability": "nonpayable",
      "type": "function"
    },
    {
      "constant": false,
      "inputs": [
        {
          "name": "_token",
          "type": "address"
        }
      ],
      "name": "transferToVault",
      "outputs": [],
      "payable": false,
      "stateMutability": "nonpayable",
      "type": "function"
    },
    {
      "constant": true,
      "inputs": [],
      "name": "ACL_APP",
      "outputs": [
        {
          "name": "",
          "type": "bytes32"
        }
      ],
      "payable": false,
      "stateMutability": "view",
      "type": "function"
    },
    {
      "constant": false,
      "inputs": [
        {
          "name": "_namespace",
          "type": "bytes32"
        },
        {
          "name": "_name",
          "type": "bytes32"
        },
        {
          "name": "_app",
          "type": "address"
        }
      ],
      "name": "setApp",
      "outputs": [
        {
          "name": "id",
          "type": "bytes32"
        }
      ],
      "payable": false,
      "stateMutability": "nonpayable",
      "type": "function"
    },
    {
      "constant": true,
      "inputs": [],
      "name": "DEFAULT_VAULT_ID",
      "outputs": [
        {
          "name": "",
          "type": "bytes32"
        }
      ],
      "payable": false,
      "stateMutability": "view",
      "type": "function"
    },
    {
      "constant": true,
      "inputs": [],
      "name": "ACL_APP_ID",
      "outputs": [
        {
          "name": "",
          "type": "bytes32"
        }
      ],
      "payable": false,
      "stateMutability": "view",
      "type": "function"
    },
    {
      "constant": true,
      "inputs": [],
      "name": "ETH_NODE",
      "outputs": [
        {
          "name": "",
          "type": "bytes32"
        }
      ],
      "payable": false,
      "stateMutability": "view",
      "type": "function"
    },
    {
      "constant": false,
      "inputs": [
        {
          "name": "_kernel",
          "type": "address"
        },
        {
          "name": "_appId",
          "type": "bytes32"
        },
        {
          "name": "_initializePayload",
          "type": "bytes"
        }
      ],
      "name": "newAppProxyPinned",
      "outputs": [
        {
          "name": "",
          "type": "address"
        }
      ],
      "payable": false,
      "stateMutability": "nonpayable",
      "type": "function"
    },
    {
      "constant": true,
      "inputs": [],
      "name": "kernel",
      "outputs": [
        {
          "name": "",
          "type": "address"
        }
      ],
      "payable": false,
      "stateMutability": "view",
      "type": "function"
    },
    {
      "constant": true,
      "inputs": [],
      "name": "recoveryVaultId",
      "outputs": [
        {
          "name": "",
          "type": "bytes32"
        }
      ],
      "payable": false,
      "stateMutability": "view",
      "type": "function"
    },
    {
      "constant": true,
      "inputs": [],
      "name": "APP_BASES_NAMESPACE",
      "outputs": [
        {
          "name": "",
          "type": "bytes32"
        }
      ],
      "payable": false,
      "stateMutability": "view",
      "type": "function"
    },
    {
      "constant": true,
      "inputs": [],
      "name": "acl",
      "outputs": [
        {
          "name": "",
          "type": "address"
        }
      ],
      "payable": false,
      "stateMutability": "view",
      "type": "function"
    },
    {
      "constant": false,
      "inputs": [
        {
          "name": "_kernel",
          "type": "address"
        },
        {
          "name": "_appId",
          "type": "bytes32"
        }
      ],
      "name": "newAppProxy",
      "outputs": [
        {
          "name": "",
          "type": "address"
        }
      ],
      "payable": false,
      "stateMutability": "nonpayable",
      "type": "function"
    },
    {
      "constant": false,
      "inputs": [
        {
          "name": "_name",
          "type": "bytes32"
        },
        {
          "name": "_appBase",
          "type": "address"
        },
        {
          "name": "_setDefault",
          "type": "bool"
        }
      ],
      "name": "newAppInstance",
      "outputs": [
        {
          "name": "appProxy",
          "type": "address"
        }
      ],
      "payable": false,
      "stateMutability": "nonpayable",
      "type": "function"
    },
    {
      "constant": false,
      "inputs": [
        {
          "name": "_kernel",
          "type": "address"
        },
        {
          "name": "_appId",
          "type": "bytes32"
        },
        {
          "name": "_initializePayload",
          "type": "bytes"
        }
      ],
      "name": "newAppProxy",
      "outputs": [
        {
          "name": "",
          "type": "address"
        }
      ],
      "payable": false,
      "stateMutability": "nonpayable",
      "type": "function"
    },
    {
      "constant": false,
      "inputs": [
        {
          "name": "_name",
          "type": "bytes32"
        },
        {
          "name": "_appBase",
          "type": "address"
        },
        {
          "name": "_setDefault",
          "type": "bool"
        }
      ],
      "name": "newPinnedAppInstance",
      "outputs": [
        {
          "name": "appProxy",
          "type": "address"
        }
      ],
      "payable": false,
      "stateMutability": "nonpayable",
      "type": "function"
    },
    {
      "constant": true,
      "inputs": [
        {
          "name": "_who",
          "type": "address"
        },
        {
          "name": "_where",
          "type": "address"
        },
        {
          "name": "_what",
          "type": "bytes32"
        },
        {
          "name": "_how",
          "type": "bytes"
        }
      ],
      "name": "hasPermission",
      "outputs": [
        {
          "name": "",
          "type": "bool"
        }
      ],
      "payable": false,
      "stateMutability": "view",
      "type": "function"
    },
    {
      "constant": false,
      "inputs": [
        {
          "name": "_kernel",
          "type": "address"
        },
        {
          "name": "_appId",
          "type": "bytes32"
        }
      ],
      "name": "newAppProxyPinned",
      "outputs": [
        {
          "name": "",
          "type": "address"
        }
      ],
      "payable": false,
      "stateMutability": "nonpayable",
      "type": "function"
    },
    {
      "anonymous": false,
      "inputs": [
        {
          "indexed": false,
          "name": "proxy",
          "type": "address"
        },
        {
          "indexed": false,
          "name": "isUpgradeable",
          "type": "bool"
        },
        {
          "indexed": false,
          "name": "appId",
          "type": "bytes32"
        }
      ],
      "name": "NewAppProxy",
      "type": "event"
    },
    {
      "anonymous": false,
      "inputs": [
        {
          "indexed": true,
          "name": "namespace",
          "type": "bytes32"
        },
        {
          "indexed": true,
          "name": "name",
          "type": "bytes32"
        },
        {
          "indexed": true,
          "name": "id",
          "type": "bytes32"
        },
        {
          "indexed": false,
          "name": "app",
          "type": "address"
        }
      ],
      "name": "SetApp",
      "type": "event"
    }
  ],
  "bytecode": "0x6060604052341561000f57600080fd5b613b708061001e6000396000f300606060405260043610620001cf576000357c0100000000000000000000000000000000000000000000000000000000900463ffffffff1680630972077814620001d45780631113ed0d1462000208578063178e6079146200023c5780632501269914620002705780632c2333cd14620002a457806332f0a3b514620002ce57806338bb6def146200032657806342c71f1d1462000390578063485cc95514620003fa578063756f604914620004555780637e7db6e1146200048957806380afdea814620004dd57806380cd5ac314620005115780638322fff2146200059a5780638b3dd74914620005f25780638ea8dc9d146200061e578063958fde8214620006525780639d4941d814620006db578063a3b4b07f1462000717578063ae5b2540146200074b578063b7c529ab14620007bd578063cbcc65eb14620007f1578063cc473be31462000825578063d162f8b01462000859578063d4aae0c41462000925578063dabca019146200097d578063db8a61d414620009b1578063de28735914620009e5578063e156a8f31462000a3d578063e943d1e61462000ac6578063ede658b01462000b5a578063f8c7fa1e1462000c26578063fdef91061462000cba578063ff289fc51462000d7d575b600080fd5b3415620001e057600080fd5b620001ea62000e06565b60405180826000191660001916815260200191505060405180910390f35b34156200021457600080fd5b6200021e62000e2d565b60405180826000191660001916815260200191505060405180910390f35b34156200024857600080fd5b6200025262000e54565b60405180826000191660001916815260200191505060405180910390f35b34156200027c57600080fd5b6200028662000e7b565b60405180826000191660001916815260200191505060405180910390f35b3415620002b057600080fd5b620002cc60048080356000191690602001909190505062000ea2565b005b3415620002da57600080fd5b620002e462000f8a565b604051808273ffffffffffffffffffffffffffffffffffffffff1673ffffffffffffffffffffffffffffffffffffffff16815260200191505060405180910390f35b34156200033257600080fd5b6200034e60048080356000191690602001909190505062000fce565b604051808273ffffffffffffffffffffffffffffffffffffffff1673ffffffffffffffffffffffffffffffffffffffff16815260200191505060405180910390f35b34156200039c57600080fd5b620003b860048080356000191690602001909190505062001001565b604051808273ffffffffffffffffffffffffffffffffffffffff1673ffffffffffffffffffffffffffffffffffffffff16815260200191505060405180910390f35b34156200040657600080fd5b62000453600480803573ffffffffffffffffffffffffffffffffffffffff1690602001909190803573ffffffffffffffffffffffffffffffffffffffff1690602001909190505062001045565b005b34156200046157600080fd5b6200046b6200121e565b60405180826000191660001916815260200191505060405180910390f35b34156200049557600080fd5b620004c3600480803573ffffffffffffffffffffffffffffffffffffffff1690602001909190505062001245565b604051808215151515815260200191505060405180910390f35b3415620004e957600080fd5b620004f362001250565b60405180826000191660001916815260200191505060405180910390f35b34156200051d57600080fd5b6200055860048080356000191690602001909190803573ffffffffffffffffffffffffffffffffffffffff1690602001909190505062001256565b604051808273ffffffffffffffffffffffffffffffffffffffff1673ffffffffffffffffffffffffffffffffffffffff16815260200191505060405180910390f35b3415620005a657600080fd5b620005b0620012f8565b604051808273ffffffffffffffffffffffffffffffffffffffff1673ffffffffffffffffffffffffffffffffffffffff16815260200191505060405180910390f35b3415620005fe57600080fd5b62000608620012fd565b6040518082815260200191505060405180910390f35b34156200062a57600080fd5b6200063462001307565b60405180826000191660001916815260200191505060405180910390f35b34156200065e57600080fd5b6200069960048080356000191690602001909190803573ffffffffffffffffffffffffffffffffffffffff169060200190919050506200132e565b604051808273ffffffffffffffffffffffffffffffffffffffff1673ffffffffffffffffffffffffffffffffffffffff16815260200191505060405180910390f35b3415620006e757600080fd5b62000715600480803573ffffffffffffffffffffffffffffffffffffffff16906020019091905050620013d0565b005b34156200072357600080fd5b6200072d62001632565b60405180826000191660001916815260200191505060405180910390f35b34156200075757600080fd5b6200079f6004808035600019169060200190919080356000191690602001909190803573ffffffffffffffffffffffffffffffffffffffff1690602001909190505062001659565b60405180826000191660001916815260200191505060405180910390f35b3415620007c957600080fd5b620007d362001721565b60405180826000191660001916815260200191505060405180910390f35b3415620007fd57600080fd5b6200080762001748565b60405180826000191660001916815260200191505060405180910390f35b34156200083157600080fd5b6200083b6200176f565b60405180826000191660001916815260200191505060405180910390f35b34156200086557600080fd5b620008e3600480803573ffffffffffffffffffffffffffffffffffffffff169060200190919080356000191690602001909190803590602001908201803590602001908080601f0160208091040260200160405190810160405280939291908181526020018383808284378201915050505050509190505062001796565b604051808273ffffffffffffffffffffffffffffffffffffffff1673ffffffffffffffffffffffffffffffffffffffff16815260200191505060405180910390f35b34156200093157600080fd5b6200093b620018fe565b604051808273ffffffffffffffffffffffffffffffffffffffff1673ffffffffffffffffffffffffffffffffffffffff16815260200191505060405180910390f35b34156200098957600080fd5b6200099362001924565b60405180826000191660001916815260200191505060405180910390f35b3415620009bd57600080fd5b620009c76200192a565b60405180826000191660001916815260200191505060405180910390f35b3415620009f157600080fd5b620009fb62001951565b604051808273ffffffffffffffffffffffffffffffffffffffff1673ffffffffffffffffffffffffffffffffffffffff16815260200191505060405180910390f35b341562000a4957600080fd5b62000a84600480803573ffffffffffffffffffffffffffffffffffffffff169060200190919080356000191690602001909190505062001986565b604051808273ffffffffffffffffffffffffffffffffffffffff1673ffffffffffffffffffffffffffffffffffffffff16815260200191505060405180910390f35b341562000ad257600080fd5b62000b1860048080356000191690602001909190803573ffffffffffffffffffffffffffffffffffffffff169060200190919080351515906020019091905050620019c1565b604051808273ffffffffffffffffffffffffffffffffffffffff1673ffffffffffffffffffffffffffffffffffffffff16815260200191505060405180910390f35b341562000b6657600080fd5b62000be4600480803573ffffffffffffffffffffffffffffffffffffffff169060200190919080356000191690602001909190803590602001908201803590602001908080601f0160208091040260200160405190810160405280939291908181526020018383808284378201915050505050509190505062001acc565b604051808273ffffffffffffffffffffffffffffffffffffffff1673ffffffffffffffffffffffffffffffffffffffff16815260200191505060405180910390f35b341562000c3257600080fd5b62000c7860048080356000191690602001909190803573ffffffffffffffffffffffffffffffffffffffff16906020019091908035151590602001909190505062001c34565b604051808273ffffffffffffffffffffffffffffffffffffffff1673ffffffffffffffffffffffffffffffffffffffff16815260200191505060405180910390f35b341562000cc657600080fd5b62000d63600480803573ffffffffffffffffffffffffffffffffffffffff1690602001909190803573ffffffffffffffffffffffffffffffffffffffff169060200190919080356000191690602001909190803590602001908201803590602001908080601f0160208091040260200160405190810160405280939291908181526020018383808284378201915050505050509190505062001d3f565b604051808215151515815260200191505060405180910390f35b341562000d8957600080fd5b62000dc4600480803573ffffffffffffffffffffffffffffffffffffffff169060200190919080356000191690602001909190505062001ec8565b604051808273ffffffffffffffffffffffffffffffffffffffff1673ffffffffffffffffffffffffffffffffffffffff16815260200191505060405180910390f35b7f9065c3e7f7b7ef1ef4e53d2d0b8e0cef02874ab020c1ece79d5f0d3d0111c0ba60010281565b7f3b4bf6bf3ad5000ecf0f989d5befde585c6860fea3e574a4fab4c49d1c177d9c60010281565b7fd6f028ca0e8edb4a8c9757ca4fdccab25fa1e0317da1188108f7d2dee14902fb60010281565b7f2b7d19d0575c228f8d9326801e14149d284dc5bb7b1541c5ad712ae4b2fcaadb60010281565b7fb6d92708f3d4817afc106147d969e229ced5c46e65e0a5002a0d391287762bd060010262000ef57fd6f028ca0e8edb4a8c9757ca4fdccab25fa1e0317da1188108f7d2dee14902fb6001028362001f03565b62000eff620022d8565b60006020835102905082915080825262000f1c3330868562001d3f565b151562000f2857600080fd5b7fd6f028ca0e8edb4a8c9757ca4fdccab25fa1e0317da1188108f7d2dee14902fb600102856040518083600019166000191681526020018260001916600019168152602001925050506040518091039020600181600019169055505050505050565b60008060006001546000191660001916815260200190815260200160002060009054906101000a900473ffffffffffffffffffffffffffffffffffffffff16905090565b60006020528060005260406000206000915054906101000a900473ffffffffffffffffffffffffffffffffffffffff1681565b6000806000836000191660001916815260200190815260200160002060009054906101000a900473ffffffffffffffffffffffffffffffffffffffff169050919050565b6000806005541415156200105857600080fd5b6200106262001f29565b62001091307fe3262375f45a6e2026b7e7b18c2b807434f2508fe1a2a3dfb493c7df8f4aad6a60010262001986565b9050620010e67ff1f3eb40f5bc1ad1344716ced8b8a0431d840b5783aea1fd01786bc26f35ac0f6001027fe3262375f45a6e2026b7e7b18c2b807434f2508fe1a2a3dfb493c7df8f4aad6a6001028562001f4d565b506200113a7fd6f028ca0e8edb4a8c9757ca4fdccab25fa1e0317da1188108f7d2dee14902fb6001027fe3262375f45a6e2026b7e7b18c2b807434f2508fe1a2a3dfb493c7df8f4aad6a6001028362001f4d565b508073ffffffffffffffffffffffffffffffffffffffff1663c4d66de8836040518263ffffffff167c0100000000000000000000000000000000000000000000000000000000028152600401808273ffffffffffffffffffffffffffffffffffffffff1673ffffffffffffffffffffffffffffffffffffffff168152602001915050600060405180830381600087803b1515620011d657600080fd5b6102c65a03f11515620011e857600080fd5b5050507f4214e5fd6d0170d69ea641b5614f5093ebecc9928af51e95685c87617489800e60010260018160001916905550505050565b7fc681a85306374a5ab27f0bbc385296a54bcd314a1948b6cf61c4ea1bc44bb9f860010281565b600060019050919050565b60035481565b60007fb6d92708f3d4817afc106147d969e229ced5c46e65e0a5002a0d391287762bd0600102620012ab7ff1f3eb40f5bc1ad1344716ced8b8a0431d840b5783aea1fd01786bc26f35ac0f6001028562001f03565b620012b5620022d8565b600060208351029050829150808252620012d23330868562001d3f565b1515620012de57600080fd5b620012ec87876000620019c1565b94505050505092915050565b600081565b6000600554905090565b7fb6d92708f3d4817afc106147d969e229ced5c46e65e0a5002a0d391287762bd060010281565b60007fb6d92708f3d4817afc106147d969e229ced5c46e65e0a5002a0d391287762bd0600102620013837ff1f3eb40f5bc1ad1344716ced8b8a0431d840b5783aea1fd01786bc26f35ac0f6001028562001f03565b6200138d620022d8565b600060208351029050829150808252620013aa3330868562001d3f565b1515620013b657600080fd5b620013c48787600062001c34565b94505050505092915050565b600080620013de8362001245565b1515620013ea57600080fd5b620013f462000f8a565b9150620014018262002068565b15156200140d57600080fd5b600073ffffffffffffffffffffffffffffffffffffffff168373ffffffffffffffffffffffffffffffffffffffff161415620014a1578173ffffffffffffffffffffffffffffffffffffffff166108fc3073ffffffffffffffffffffffffffffffffffffffff16319081150290604051600060405180830381858888f1935050505015156200149b57600080fd5b6200162d565b8273ffffffffffffffffffffffffffffffffffffffff166370a08231306000604051602001526040518263ffffffff167c0100000000000000000000000000000000000000000000000000000000028152600401808273ffffffffffffffffffffffffffffffffffffffff1673ffffffffffffffffffffffffffffffffffffffff168152602001915050602060405180830381600087803b15156200154557600080fd5b6102c65a03f115156200155757600080fd5b5050506040518051905090508273ffffffffffffffffffffffffffffffffffffffff1663a9059cbb83836000604051602001526040518363ffffffff167c0100000000000000000000000000000000000000000000000000000000028152600401808373ffffffffffffffffffffffffffffffffffffffff1673ffffffffffffffffffffffffffffffffffffffff16815260200182815260200192505050602060405180830381600087803b15156200160f57600080fd5b6102c65a03f115156200162157600080fd5b50505060405180519050505b505050565b7f4b8e03a458a6ccec5d9077c2490964c1333dd3c72e2db408d7d9a7a36ef5c41a60010281565b60007fb6d92708f3d4817afc106147d969e229ced5c46e65e0a5002a0d391287762bd06001026200168b858562001f03565b62001695620022d8565b600060208351029050829150808252620016b23330868562001d3f565b1515620016be57600080fd5b600080620016ce8a8a8a62001f4d565b9650620016fe7f2b7d19d0575c228f8d9326801e14149d284dc5bb7b1541c5ad712ae4b2fcaadb60010262001001565b9150813b90506000811115156200171457600080fd5b5050505050509392505050565b7f4214e5fd6d0170d69ea641b5614f5093ebecc9928af51e95685c87617489800e60010281565b7fe3262375f45a6e2026b7e7b18c2b807434f2508fe1a2a3dfb493c7df8f4aad6a60010281565b7f93cdeb708b7545dc668eb9280176169d1c33cfd8ed6f04690a0bcc88a93fc4ae60010281565b600080848484620017a6620022ec565b808473ffffffffffffffffffffffffffffffffffffffff1673ffffffffffffffffffffffffffffffffffffffff168152602001836000191660001916815260200180602001828103825283818151815260200191508051906020019080838360005b838110156200182557808201518184015260208101905062001808565b50505050905090810190601f168015620018535780820380516001836020036101000a031916815260200191505b50945050505050604051809103906000f08015156200187157600080fd5b90507fd880e726dced8808d727f02dd0e6fdd3a945b24bfee77e13367bcbe61ddbaf4781600086604051808473ffffffffffffffffffffffffffffffffffffffff1673ffffffffffffffffffffffffffffffffffffffff168152602001831515151581526020018260001916600019168152602001935050505060405180910390a1809150509392505050565b600260009054906101000a900473ffffffffffffffffffffffffffffffffffffffff1681565b60015481565b7ff1f3eb40f5bc1ad1344716ced8b8a0431d840b5783aea1fd01786bc26f35ac0f60010281565b6000620019817f4b8e03a458a6ccec5d9077c2490964c1333dd3c72e2db408d7d9a7a36ef5c41a60010262001001565b905090565b6000620019b9838360006040518059106200199e5750595b9080825280601f01601f191660200182016040525062001acc565b905092915050565b60007fb6d92708f3d4817afc106147d969e229ced5c46e65e0a5002a0d391287762bd060010262001a167ff1f3eb40f5bc1ad1344716ced8b8a0431d840b5783aea1fd01786bc26f35ac0f6001028662001f03565b62001a20620022d8565b60006020835102905082915080825262001a3d3330868562001d3f565b151562001a4957600080fd5b62001a797ff1f3eb40f5bc1ad1344716ced8b8a0431d840b5783aea1fd01786bc26f35ac0f6001028989620020bc565b5062001a86308962001986565b9450851562001ac15762001abf7fd6f028ca0e8edb4a8c9757ca4fdccab25fa1e0317da1188108f7d2dee14902fb600102898762001659565b505b505050509392505050565b60008084848462001adc620022fd565b808473ffffffffffffffffffffffffffffffffffffffff1673ffffffffffffffffffffffffffffffffffffffff168152602001836000191660001916815260200180602001828103825283818151815260200191508051906020019080838360005b8381101562001b5b57808201518184015260208101905062001b3e565b50505050905090810190601f16801562001b895780820380516001836020036101000a031916815260200191505b50945050505050604051809103906000f080151562001ba757600080fd5b90507fd880e726dced8808d727f02dd0e6fdd3a945b24bfee77e13367bcbe61ddbaf4781600186604051808473ffffffffffffffffffffffffffffffffffffffff1673ffffffffffffffffffffffffffffffffffffffff168152602001831515151581526020018260001916600019168152602001935050505060405180910390a1809150509392505050565b60007fb6d92708f3d4817afc106147d969e229ced5c46e65e0a5002a0d391287762bd060010262001c897ff1f3eb40f5bc1ad1344716ced8b8a0431d840b5783aea1fd01786bc26f35ac0f6001028662001f03565b62001c93620022d8565b60006020835102905082915080825262001cb03330868562001d3f565b151562001cbc57600080fd5b62001cec7ff1f3eb40f5bc1ad1344716ced8b8a0431d840b5783aea1fd01786bc26f35ac0f6001028989620020bc565b5062001cf9308962001ec8565b9450851562001d345762001d327fd6f028ca0e8edb4a8c9757ca4fdccab25fa1e0317da1188108f7d2dee14902fb600102898762001659565b505b505050509392505050565b600062001d4b62001951565b73ffffffffffffffffffffffffffffffffffffffff1663fdef9106868686866000604051602001526040518563ffffffff167c0100000000000000000000000000000000000000000000000000000000028152600401808573ffffffffffffffffffffffffffffffffffffffff1673ffffffffffffffffffffffffffffffffffffffff1681526020018473ffffffffffffffffffffffffffffffffffffffff1673ffffffffffffffffffffffffffffffffffffffff168152602001836000191660001916815260200180602001828103825283818151815260200191508051906020019080838360005b8381101562001e5257808201518184015260208101905062001e35565b50505050905090810190601f16801562001e805780820380516001836020036101000a031916815260200191505b5095505050505050602060405180830381600087803b151562001ea257600080fd5b6102c65a03f1151562001eb457600080fd5b505050604051805190509050949350505050565b600062001efb8383600060405180591062001ee05750595b9080825280601f01601f191660200182016040525062001796565b905092915050565b62001f0d6200230e565b62001f21836001900483600190046200225f565b905092915050565b600060055414151562001f3b57600080fd5b62001f45620022d0565b600581905550565b600062001f5a8262002068565b151562001f6657600080fd5b83836040518083600019166000191681526020018260001916600019168152602001925050506040518091039020905081600080836000191660001916815260200190815260200160002060006101000a81548173ffffffffffffffffffffffffffffffffffffffff021916908373ffffffffffffffffffffffffffffffffffffffff1602179055508060001916836000191685600019167fe944a7cdbc6cbd4bfe4713501567365bd379a9df5fd376422712b066d6e6b52285604051808273ffffffffffffffffffffffffffffffffffffffff1673ffffffffffffffffffffffffffffffffffffffff16815260200191505060405180910390a49392505050565b600080600073ffffffffffffffffffffffffffffffffffffffff168373ffffffffffffffffffffffffffffffffffffffff161415620020ab5760009150620020b6565b823b90506000811191505b50919050565b600080620020ca8362002068565b1515620020d657600080fd5b848460405180836000191660001916815260200182600019166000191681526020019250505060405180910390209150620021118262001001565b9050600073ffffffffffffffffffffffffffffffffffffffff168173ffffffffffffffffffffffffffffffffffffffff161415156200218b578273ffffffffffffffffffffffffffffffffffffffff168173ffffffffffffffffffffffffffffffffffffffff161415156200218557600080fd5b62002257565b82600080846000191660001916815260200190815260200160002060006101000a81548173ffffffffffffffffffffffffffffffffffffffff021916908373ffffffffffffffffffffffffffffffffffffffff1602179055508160001916846000191686600019167fe944a7cdbc6cbd4bfe4713501567365bd379a9df5fd376422712b066d6e6b52286604051808273ffffffffffffffffffffffffffffffffffffffff1673ffffffffffffffffffffffffffffffffffffffff16815260200191505060405180910390a45b509392505050565b620022696200230e565b6002604051805910620022795750595b90808252806020026020018201604052509050828160008151811015156200229d57fe5b906020019060200201818152505081816001815181101515620022bc57fe5b906020019060200201818152505092915050565b600043905090565b602060405190810160405280600081525090565b604051610c7b806200232383390190565b604051610ba78062002f9e83390190565b60206040519081016040528060008152509056006060604052341561000f57600080fd5b604051610c7b380380610c7b833981016040528080519060200190919080519060200190919080518201919050508282826000836000806101000a81548173ffffffffffffffffffffffffffffffffffffffff021916908373ffffffffffffffffffffffffffffffffffffffff16021790555082600181600019169055506100ab60015461023b6401000000000261078b176401000000009004565b9050600082511115610173576100d38161034f64010000000002610739176401000000009004565b15156100de57600080fd5b8073ffffffffffffffffffffffffffffffffffffffff168260405180828051906020019080838360005b83811015610123578082015181840152602081019050610108565b50505050905090810190601f1680156101505780820380516001836020036101000a031916815260200191505b509150506000604051808303818561646e5a03f4915050151561017257600080fd5b5b5050505061019560015461023b6401000000000261078b176401000000009004565b600260006101000a81548173ffffffffffffffffffffffffffffffffffffffff021916908373ffffffffffffffffffffffffffffffffffffffff160217905550600073ffffffffffffffffffffffffffffffffffffffff16600260009054906101000a900473ffffffffffffffffffffffffffffffffffffffff1673ffffffffffffffffffffffffffffffffffffffff161415151561023357600080fd5b5050506103a1565b60008060009054906101000a900473ffffffffffffffffffffffffffffffffffffffff1673ffffffffffffffffffffffffffffffffffffffff166342c71f1d7ff1f3eb40f5bc1ad1344716ced8b8a0431d840b5783aea1fd01786bc26f35ac0f6001028460405180836000191660001916815260200182600019166000191681526020019250505060405180910390206000604051602001526040518263ffffffff167c0100000000000000000000000000000000000000000000000000000000028152600401808260001916600019168152602001915050602060405180830381600087803b151561032d57600080fd5b6102c65a03f1151561033e57600080fd5b505050604051805190509050919050565b600080600073ffffffffffffffffffffffffffffffffffffffff168373ffffffffffffffffffffffffffffffffffffffff161415610390576000915061039b565b823b90506000811191505b50919050565b6108cb806103b06000396000f3006060604052600436106100e6576000357c0100000000000000000000000000000000000000000000000000000000900463ffffffff16806309720778146101cb5780630ceafa2a146101fc5780631113ed0d14610225578063178e60791461025657806325012699146102875780632b2584f6146102b85780634555d5c9146102e15780635c60da1b1461030a578063756f60491461035f5780637e84a4ff1461039057806380afdea8146103b9578063a3b4b07f146103ea578063cbcc65eb1461041b578063cc473be31461044c578063d4aae0c41461047d578063db8a61d4146104d2575b60006127105a1015610180576000341180156101055750600080369050145b151561011057600080fd5b7f15eeaa57c7bd188c1388020bcadc2c436ec60d647d36ef5b9eb3c742217ddee13334604051808373ffffffffffffffffffffffffffffffffffffffff1673ffffffffffffffffffffffffffffffffffffffff1681526020018281526020019250505060405180910390a16101c8565b610188610503565b90506101c7816000368080601f01602080910402602001604051908101604052809392919081815260200183838082843782019150505050505061052d565b5b50005b34156101d657600080fd5b6101de61053d565b60405180826000191660001916815260200191505060405180910390f35b341561020757600080fd5b61020f610564565b6040518082815260200191505060405180910390f35b341561023057600080fd5b61023861056a565b60405180826000191660001916815260200191505060405180910390f35b341561026157600080fd5b610269610591565b60405180826000191660001916815260200191505060405180910390f35b341561029257600080fd5b61029a6105b8565b60405180826000191660001916815260200191505060405180910390f35b34156102c357600080fd5b6102cb6105df565b6040518082815260200191505060405180910390f35b34156102ec57600080fd5b6102f46105e4565b6040518082815260200191505060405180910390f35b341561031557600080fd5b61031d610503565b604051808273ffffffffffffffffffffffffffffffffffffffff1673ffffffffffffffffffffffffffffffffffffffff16815260200191505060405180910390f35b341561036a57600080fd5b6103726105ed565b60405180826000191660001916815260200191505060405180910390f35b341561039b57600080fd5b6103a3610614565b6040518082815260200191505060405180910390f35b34156103c457600080fd5b6103cc610619565b60405180826000191660001916815260200191505060405180910390f35b34156103f557600080fd5b6103fd61061f565b60405180826000191660001916815260200191505060405180910390f35b341561042657600080fd5b61042e610646565b60405180826000191660001916815260200191505060405180910390f35b341561045757600080fd5b61045f61066d565b60405180826000191660001916815260200191505060405180910390f35b341561048857600080fd5b610490610694565b604051808273ffffffffffffffffffffffffffffffffffffffff1673ffffffffffffffffffffffffffffffffffffffff16815260200191505060405180910390f35b34156104dd57600080fd5b6104e56106b9565b60405180826000191660001916815260200191505060405180910390f35b6000600260009054906101000a900473ffffffffffffffffffffffffffffffffffffffff16905090565b610539828260006106e0565b5050565b7f9065c3e7f7b7ef1ef4e53d2d0b8e0cef02874ab020c1ece79d5f0d3d0111c0ba60010281565b61271081565b7f3b4bf6bf3ad5000ecf0f989d5befde585c6860fea3e574a4fab4c49d1c177d9c60010281565b7fd6f028ca0e8edb4a8c9757ca4fdccab25fa1e0317da1188108f7d2dee14902fb60010281565b7f2b7d19d0575c228f8d9326801e14149d284dc5bb7b1541c5ad712ae4b2fcaadb60010281565b600181565b60006001905090565b7fc681a85306374a5ab27f0bbc385296a54bcd314a1948b6cf61c4ea1bc44bb9f860010281565b600281565b60015481565b7f4b8e03a458a6ccec5d9077c2490964c1333dd3c72e2db408d7d9a7a36ef5c41a60010281565b7fe3262375f45a6e2026b7e7b18c2b807434f2508fe1a2a3dfb493c7df8f4aad6a60010281565b7f93cdeb708b7545dc668eb9280176169d1c33cfd8ed6f04690a0bcc88a93fc4ae60010281565b6000809054906101000a900473ffffffffffffffffffffffffffffffffffffffff1681565b7ff1f3eb40f5bc1ad1344716ced8b8a0431d840b5783aea1fd01786bc26f35ac0f60010281565b60008060006106ee86610739565b15156106f957600080fd5b612710905060008086516020880189855a03f491503d925083831015151561072057600080fd5b604051836000823e8260008114610735578482f35b8482fd5b600080600073ffffffffffffffffffffffffffffffffffffffff168373ffffffffffffffffffffffffffffffffffffffff16141561077a5760009150610785565b823b90506000811191505b50919050565b60008060009054906101000a900473ffffffffffffffffffffffffffffffffffffffff1673ffffffffffffffffffffffffffffffffffffffff166342c71f1d7ff1f3eb40f5bc1ad1344716ced8b8a0431d840b5783aea1fd01786bc26f35ac0f6001028460405180836000191660001916815260200182600019166000191681526020019250505060405180910390206000604051602001526040518263ffffffff167c0100000000000000000000000000000000000000000000000000000000028152600401808260001916600019168152602001915050602060405180830381600087803b151561087d57600080fd5b6102c65a03f1151561088e57600080fd5b5050506040518051905090509190505600a165627a7a72305820f1d8a034ed61d04ecb134eeeab2ec9369a23931c6434c55a4e616b811d789e2000296060604052341561000f57600080fd5b604051610ba7380380610ba7833981016040528080519060200190919080519060200190919080518201919050508282826000836000806101000a81548173ffffffffffffffffffffffffffffffffffffffff021916908373ffffffffffffffffffffffffffffffffffffffff16021790555082600181600019169055506100ab60015461017f640100000000026106c8176401000000009004565b9050600082511115610173576100d38161029364010000000002610835176401000000009004565b15156100de57600080fd5b8073ffffffffffffffffffffffffffffffffffffffff168260405180828051906020019080838360005b83811015610123578082015181840152602081019050610108565b50505050905090810190601f1680156101505780820380516001836020036101000a031916815260200191505b509150506000604051808303818561646e5a03f4915050151561017257600080fd5b5b505050505050506102e5565b60008060009054906101000a900473ffffffffffffffffffffffffffffffffffffffff1673ffffffffffffffffffffffffffffffffffffffff166342c71f1d7ff1f3eb40f5bc1ad1344716ced8b8a0431d840b5783aea1fd01786bc26f35ac0f6001028460405180836000191660001916815260200182600019166000191681526020019250505060405180910390206000604051602001526040518263ffffffff167c0100000000000000000000000000000000000000000000000000000000028152600401808260001916600019168152602001915050602060405180830381600087803b151561027157600080fd5b6102c65a03f1151561028257600080fd5b505050604051805190509050919050565b600080600073ffffffffffffffffffffffffffffffffffffffff168373ffffffffffffffffffffffffffffffffffffffff1614156102d457600091506102df565b823b90506000811191505b50919050565b6108b3806102f46000396000f3006060604052600436106100e6576000357c0100000000000000000000000000000000000000000000000000000000900463ffffffff16806309720778146101cb5780630ceafa2a146101fc5780631113ed0d14610225578063178e60791461025657806325012699146102875780632b2584f6146102b85780634555d5c9146102e15780635c60da1b1461030a578063756f60491461035f5780637e84a4ff1461039057806380afdea8146103b9578063a3b4b07f146103ea578063cbcc65eb1461041b578063cc473be31461044c578063d4aae0c41461047d578063db8a61d4146104d2575b60006127105a1015610180576000341180156101055750600080369050145b151561011057600080fd5b7f15eeaa57c7bd188c1388020bcadc2c436ec60d647d36ef5b9eb3c742217ddee13334604051808373ffffffffffffffffffffffffffffffffffffffff1673ffffffffffffffffffffffffffffffffffffffff1681526020018281526020019250505060405180910390a16101c8565b610188610503565b90506101c7816000368080601f016020809104026020016040519081016040528093929190818152602001838380828437820191505050505050610515565b5b50005b34156101d657600080fd5b6101de610525565b60405180826000191660001916815260200191505060405180910390f35b341561020757600080fd5b61020f61054c565b6040518082815260200191505060405180910390f35b341561023057600080fd5b610238610552565b60405180826000191660001916815260200191505060405180910390f35b341561026157600080fd5b610269610579565b60405180826000191660001916815260200191505060405180910390f35b341561029257600080fd5b61029a6105a0565b60405180826000191660001916815260200191505060405180910390f35b34156102c357600080fd5b6102cb6105c7565b6040518082815260200191505060405180910390f35b34156102ec57600080fd5b6102f46105cc565b6040518082815260200191505060405180910390f35b341561031557600080fd5b61031d610503565b604051808273ffffffffffffffffffffffffffffffffffffffff1673ffffffffffffffffffffffffffffffffffffffff16815260200191505060405180910390f35b341561036a57600080fd5b6103726105d5565b60405180826000191660001916815260200191505060405180910390f35b341561039b57600080fd5b6103a36105fc565b6040518082815260200191505060405180910390f35b34156103c457600080fd5b6103cc610601565b60405180826000191660001916815260200191505060405180910390f35b34156103f557600080fd5b6103fd610607565b60405180826000191660001916815260200191505060405180910390f35b341561042657600080fd5b61042e61062e565b60405180826000191660001916815260200191505060405180910390f35b341561045757600080fd5b61045f610655565b60405180826000191660001916815260200191505060405180910390f35b341561048857600080fd5b61049061067c565b604051808273ffffffffffffffffffffffffffffffffffffffff1673ffffffffffffffffffffffffffffffffffffffff16815260200191505060405180910390f35b34156104dd57600080fd5b6104e56106a1565b60405180826000191660001916815260200191505060405180910390f35b60006105106001546106c8565b905090565b610521828260006107dc565b5050565b7f9065c3e7f7b7ef1ef4e53d2d0b8e0cef02874ab020c1ece79d5f0d3d0111c0ba60010281565b61271081565b7f3b4bf6bf3ad5000ecf0f989d5befde585c6860fea3e574a4fab4c49d1c177d9c60010281565b7fd6f028ca0e8edb4a8c9757ca4fdccab25fa1e0317da1188108f7d2dee14902fb60010281565b7f2b7d19d0575c228f8d9326801e14149d284dc5bb7b1541c5ad712ae4b2fcaadb60010281565b600181565b60006002905090565b7fc681a85306374a5ab27f0bbc385296a54bcd314a1948b6cf61c4ea1bc44bb9f860010281565b600281565b60015481565b7f4b8e03a458a6ccec5d9077c2490964c1333dd3c72e2db408d7d9a7a36ef5c41a60010281565b7fe3262375f45a6e2026b7e7b18c2b807434f2508fe1a2a3dfb493c7df8f4aad6a60010281565b7f93cdeb708b7545dc668eb9280176169d1c33cfd8ed6f04690a0bcc88a93fc4ae60010281565b6000809054906101000a900473ffffffffffffffffffffffffffffffffffffffff1681565b7ff1f3eb40f5bc1ad1344716ced8b8a0431d840b5783aea1fd01786bc26f35ac0f60010281565b60008060009054906101000a900473ffffffffffffffffffffffffffffffffffffffff1673ffffffffffffffffffffffffffffffffffffffff166342c71f1d7ff1f3eb40f5bc1ad1344716ced8b8a0431d840b5783aea1fd01786bc26f35ac0f6001028460405180836000191660001916815260200182600019166000191681526020019250505060405180910390206000604051602001526040518263ffffffff167c0100000000000000000000000000000000000000000000000000000000028152600401808260001916600019168152602001915050602060405180830381600087803b15156107ba57600080fd5b6102c65a03f115156107cb57600080fd5b505050604051805190509050919050565b60008060006107ea86610835565b15156107f557600080fd5b612710905060008086516020880189855a03f491503d925083831015151561081c57600080fd5b604051836000823e8260008114610831578482f35b8482fd5b600080600073ffffffffffffffffffffffffffffffffffffffff168373ffffffffffffffffffffffffffffffffffffffff1614156108765760009150610881565b823b90506000811191505b509190505600a165627a7a72305820ae3ded05dfe200cdb296b66ffbb771fa6dbfea07170669e6f7d71aedab9bbc420029a165627a7a7230582042cdecf14324fae5f6a58bd8d36a538d3ab3bb4188511d9bd00f0d0f3fc558b40029",
  "source": "pragma solidity 0.4.18;\n\nimport \"./IKernel.sol\";\nimport \"./KernelStorage.sol\";\nimport \"../acl/ACLSyntaxSugar.sol\";\nimport \"../lib/misc/ERCProxy.sol\";\nimport \"../common/Initializable.sol\";\nimport \"../common/IsContract.sol\";\nimport \"../common/VaultRecoverable.sol\";\nimport \"../factory/AppProxyFactory.sol\";\n\n\ncontract Kernel is IKernel, KernelStorage, Initializable, IsContract, AppProxyFactory, ACLSyntaxSugar, VaultRecoverable {\n    // Hardocde constant to save gas\n    //bytes32 constant public APP_MANAGER_ROLE = keccak256(\"APP_MANAGER_ROLE\");\n    //bytes32 constant public DEFAULT_VAULT_ID = keccak256(APP_ADDR_NAMESPACE, apmNamehash(\"vault\"));\n    bytes32 constant public APP_MANAGER_ROLE = 0xb6d92708f3d4817afc106147d969e229ced5c46e65e0a5002a0d391287762bd0;\n    bytes32 constant public DEFAULT_VAULT_ID = 0x4214e5fd6d0170d69ea641b5614f5093ebecc9928af51e95685c87617489800e;\n\n    /**\n    * @dev Initialize can only be called once. It saves the block number in which it was initialized.\n    * @notice Initializes a kernel instance along with its ACL and sets `_permissionsCreator` as the entity that can create other permissions\n    * @param _baseAcl Address of base ACL app\n    * @param _permissionsCreator Entity that will be given permission over createPermission\n    */\n    function initialize(address _baseAcl, address _permissionsCreator) onlyInit public {\n        initialized();\n\n        IACL acl = IACL(newAppProxy(this, ACL_APP_ID));\n\n        _setApp(APP_BASES_NAMESPACE, ACL_APP_ID, _baseAcl);\n        _setApp(APP_ADDR_NAMESPACE, ACL_APP_ID, acl);\n\n        acl.initialize(_permissionsCreator);\n\n        recoveryVaultId = DEFAULT_VAULT_ID;\n    }\n\n    /**\n    * @dev Create a new instance of an app linked to this kernel\n    * @param _name Name of the app\n    * @param _appBase Address of the app's base implementation\n    * @return AppProxy instance\n    */\n    function newAppInstance(bytes32 _name, address _appBase) auth(APP_MANAGER_ROLE, arr(APP_BASES_NAMESPACE, _name)) public returns (ERCProxy appProxy) {\n        return newAppInstance(_name, _appBase, false);\n    }\n\n    /**\n    * @dev Create a new instance of an app linked to this kernel and set its base\n    *      implementation if it was not already set\n    * @param _name Name of the app\n    * @param _appBase Address of the app's base implementation\n    * @param _setDefault Whether the app proxy app is the default one.\n    *        Useful when the Kernel needs to know of an instance of a particular app,\n    *        like Vault for escape hatch mechanism.\n    * @return AppProxy instance\n    */\n    function newAppInstance(bytes32 _name, address _appBase, bool _setDefault) auth(APP_MANAGER_ROLE, arr(APP_BASES_NAMESPACE, _name)) public returns (ERCProxy appProxy) {\n        _setAppIfNew(APP_BASES_NAMESPACE, _name, _appBase);\n        appProxy = newAppProxy(this, _name);\n        // By calling setApp directly and not the internal functions, we make sure the params are checked\n        // and it will only succeed if sender has permissions to set something to the namespace.\n        if (_setDefault) {\n            setApp(APP_ADDR_NAMESPACE, _name, appProxy);\n        }\n    }\n\n    /**\n    * @dev Create a new pinned instance of an app linked to this kernel\n    * @param _name Name of the app\n    * @param _appBase Address of the app's base implementation\n    * @return AppProxy instance\n    */\n    function newPinnedAppInstance(bytes32 _name, address _appBase) auth(APP_MANAGER_ROLE, arr(APP_BASES_NAMESPACE, _name)) public returns (ERCProxy appProxy) {\n        return newPinnedAppInstance(_name, _appBase, false);\n    }\n\n    /**\n    * @dev Create a new pinned instance of an app linked to this kernel and set\n    *      its base implementation if it was not already set\n    * @param _name Name of the app\n    * @param _appBase Address of the app's base implementation\n    * @param _setDefault Whether the app proxy app is the default one.\n    *        Useful when the Kernel needs to know of an instance of a particular app,\n    *        like Vault for escape hatch mechanism.\n    * @return AppProxy instance\n    */\n    function newPinnedAppInstance(bytes32 _name, address _appBase, bool _setDefault) auth(APP_MANAGER_ROLE, arr(APP_BASES_NAMESPACE, _name)) public returns (ERCProxy appProxy) {\n        _setAppIfNew(APP_BASES_NAMESPACE, _name, _appBase);\n        appProxy = newAppProxyPinned(this, _name);\n        // By calling setApp directly and not the internal functions, we make sure the params are checked\n        // and it will only succeed if sender has permissions to set something to the namespace.\n        if (_setDefault) {\n            setApp(APP_ADDR_NAMESPACE, _name, appProxy);\n        }\n    }\n\n    /**\n    * @dev Set the resolving address of an app instance or base implementation\n    * @param _namespace App namespace to use\n    * @param _name Name of the app\n    * @param _app Address of the app\n    * @return ID of app\n    */\n    function setApp(bytes32 _namespace, bytes32 _name, address _app) auth(APP_MANAGER_ROLE, arr(_namespace, _name)) kernelIntegrity public returns (bytes32 id) {\n        return _setApp(_namespace, _name, _app);\n    }\n\n    /**\n    * @dev Get the address of an app instance or base implementation\n    * @param _id App identifier\n    * @return Address of the app\n    */\n    function getApp(bytes32 _id) public view returns (address) {\n        return apps[_id];\n    }\n\n    /**\n    * @dev Get the address of the recovery Vault instance (to recover funds)\n    * @return Address of the Vault\n    */\n    function getRecoveryVault() public view returns (address) {\n        return apps[recoveryVaultId];\n    }\n\n    /**\n    * @dev Set the default vault id for the escape hatch mechanism\n    * @param _name Name of the app\n    */\n    function setRecoveryVaultId(bytes32 _name) auth(APP_MANAGER_ROLE, arr(APP_ADDR_NAMESPACE, _name)) public {\n        recoveryVaultId = keccak256(APP_ADDR_NAMESPACE, _name);\n    }\n\n    /**\n    * @dev Get the installed ACL app\n    * @return ACL app\n    */\n    function acl() public view returns (IACL) {\n        return IACL(getApp(ACL_APP));\n    }\n\n    /**\n    * @dev Function called by apps to check ACL on kernel or to check permission status\n    * @param _who Sender of the original call\n    * @param _where Address of the app\n    * @param _what Identifier for a group of actions in app\n    * @param _how Extra data for ACL auth\n    * @return boolean indicating whether the ACL allows the role or not\n    */\n    function hasPermission(address _who, address _where, bytes32 _what, bytes _how) public view returns (bool) {\n        return acl().hasPermission(_who, _where, _what, _how);\n    }\n\n    function _setApp(bytes32 _namespace, bytes32 _name, address _app) internal returns (bytes32 id) {\n        require(isContract(_app));\n        id = keccak256(_namespace, _name);\n        apps[id] = _app;\n        SetApp(_namespace, _name, id, _app);\n    }\n\n    function _setAppIfNew(bytes32 _namespace, bytes32 _name, address _app) internal returns (bytes32 id) {\n        require(isContract(_app));\n\n        id = keccak256(_namespace, _name);\n\n        address app = getApp(id);\n        if (app != address(0)) {\n            require(app == _app);\n        } else {\n            apps[id] = _app;\n            SetApp(_namespace, _name, id, _app);\n        }\n    }\n\n    modifier auth(bytes32 _role, uint256[] memory params) {\n        bytes memory how;\n        uint256 byteLength = params.length * 32;\n        assembly {\n            how := params // forced casting\n            mstore(how, byteLength)\n        }\n        // Params is invalid from this point fwd\n        require(hasPermission(msg.sender, address(this), _role, how));\n        _;\n    }\n\n    modifier kernelIntegrity {\n        _; // After execution check integrity\n        address kernel = getApp(KERNEL_APP);\n        uint256 size;\n        assembly { size := extcodesize(kernel) }\n        require(size > 0);\n    }\n}\n",
  "sourcePath": "@aragon/os/contracts/kernel/Kernel.sol",
  "compiler": {
    "name": "solc",
    "version": "0.4.18+commit.9cf6e910.Emscripten.clang"
  },
  "schemaVersion": "1.0.1",
  "updatedAt": "2018-07-26T09:18:09.326Z"
}