{
  "contractName": "Kernel",
  "abi": [
    {
      "constant": true,
      "inputs": [],
      "name": "KERNEL_APP_ID",
      "outputs": [
        {
          "name": "",
          "type": "bytes32"
        }
      ],
      "payable": false,
      "stateMutability": "view",
      "type": "function"
    },
    {
      "constant": true,
      "inputs": [],
      "name": "APP_ADDR_NAMESPACE",
      "outputs": [
        {
          "name": "",
          "type": "bytes32"
        }
      ],
      "payable": false,
      "stateMutability": "view",
      "type": "function"
    },
    {
      "constant": true,
      "inputs": [],
      "name": "KERNEL_APP",
      "outputs": [
        {
          "name": "",
          "type": "bytes32"
        }
      ],
      "payable": false,
      "stateMutability": "view",
      "type": "function"
    },
    {
      "constant": true,
      "inputs": [
        {
          "name": "",
          "type": "bytes32"
        }
      ],
      "name": "apps",
      "outputs": [
        {
          "name": "",
          "type": "address"
        }
      ],
      "payable": false,
      "stateMutability": "view",
      "type": "function"
    },
    {
      "constant": true,
      "inputs": [],
      "name": "CORE_NAMESPACE",
      "outputs": [
        {
          "name": "",
          "type": "bytes32"
        }
      ],
      "payable": false,
      "stateMutability": "view",
      "type": "function"
    },
    {
      "constant": true,
      "inputs": [
        {
          "name": "token",
          "type": "address"
        }
      ],
      "name": "allowRecoverability",
      "outputs": [
        {
          "name": "",
          "type": "bool"
        }
      ],
      "payable": false,
      "stateMutability": "view",
      "type": "function"
    },
    {
      "constant": true,
      "inputs": [],
      "name": "appId",
      "outputs": [
        {
          "name": "",
          "type": "bytes32"
        }
      ],
      "payable": false,
      "stateMutability": "view",
      "type": "function"
    },
    {
      "constant": true,
      "inputs": [],
      "name": "ETH",
      "outputs": [
        {
          "name": "",
          "type": "address"
        }
      ],
      "payable": false,
      "stateMutability": "view",
      "type": "function"
    },
    {
      "constant": true,
      "inputs": [],
      "name": "getInitializationBlock",
      "outputs": [
        {
          "name": "",
          "type": "uint256"
        }
      ],
      "payable": false,
      "stateMutability": "view",
      "type": "function"
    },
    {
      "constant": true,
      "inputs": [],
      "name": "APP_MANAGER_ROLE",
      "outputs": [
        {
          "name": "",
          "type": "bytes32"
        }
      ],
      "payable": false,
      "stateMutability": "view",
      "type": "function"
    },
    {
      "constant": false,
      "inputs": [
        {
          "name": "_token",
          "type": "address"
        }
      ],
      "name": "transferToVault",
      "outputs": [],
      "payable": false,
      "stateMutability": "nonpayable",
      "type": "function"
    },
    {
      "constant": true,
      "inputs": [],
      "name": "ACL_APP",
      "outputs": [
        {
          "name": "",
          "type": "bytes32"
        }
      ],
      "payable": false,
      "stateMutability": "view",
      "type": "function"
    },
    {
      "constant": true,
      "inputs": [],
      "name": "DEFAULT_VAULT_ID",
      "outputs": [
        {
          "name": "",
          "type": "bytes32"
        }
      ],
      "payable": false,
      "stateMutability": "view",
      "type": "function"
    },
    {
      "constant": true,
      "inputs": [],
      "name": "ACL_APP_ID",
      "outputs": [
        {
          "name": "",
          "type": "bytes32"
        }
      ],
      "payable": false,
      "stateMutability": "view",
      "type": "function"
    },
    {
      "constant": false,
      "inputs": [
        {
          "name": "_kernel",
          "type": "address"
        },
        {
          "name": "_appId",
          "type": "bytes32"
        },
        {
          "name": "_initializePayload",
          "type": "bytes"
        }
      ],
      "name": "newAppProxyPinned",
      "outputs": [
        {
          "name": "",
          "type": "address"
        }
      ],
      "payable": false,
      "stateMutability": "nonpayable",
      "type": "function"
    },
    {
      "constant": true,
      "inputs": [],
      "name": "kernel",
      "outputs": [
        {
          "name": "",
          "type": "address"
        }
      ],
      "payable": false,
      "stateMutability": "view",
      "type": "function"
    },
    {
      "constant": true,
      "inputs": [],
      "name": "recoveryVaultId",
      "outputs": [
        {
          "name": "",
          "type": "bytes32"
        }
      ],
      "payable": false,
      "stateMutability": "view",
      "type": "function"
    },
    {
      "constant": true,
      "inputs": [],
      "name": "APP_BASES_NAMESPACE",
      "outputs": [
        {
          "name": "",
          "type": "bytes32"
        }
      ],
      "payable": false,
      "stateMutability": "view",
      "type": "function"
    },
    {
      "constant": false,
      "inputs": [
        {
          "name": "_kernel",
          "type": "address"
        },
        {
          "name": "_appId",
          "type": "bytes32"
        }
      ],
      "name": "newAppProxy",
      "outputs": [
        {
          "name": "",
          "type": "address"
        }
      ],
      "payable": false,
      "stateMutability": "nonpayable",
      "type": "function"
    },
    {
      "constant": false,
      "inputs": [
        {
          "name": "_kernel",
          "type": "address"
        },
        {
          "name": "_appId",
          "type": "bytes32"
        },
        {
          "name": "_initializePayload",
          "type": "bytes"
        }
      ],
      "name": "newAppProxy",
      "outputs": [
        {
          "name": "",
          "type": "address"
        }
      ],
      "payable": false,
      "stateMutability": "nonpayable",
      "type": "function"
    },
    {
      "constant": false,
      "inputs": [
        {
          "name": "_kernel",
          "type": "address"
        },
        {
          "name": "_appId",
          "type": "bytes32"
        }
      ],
      "name": "newAppProxyPinned",
      "outputs": [
        {
          "name": "",
          "type": "address"
        }
      ],
      "payable": false,
      "stateMutability": "nonpayable",
      "type": "function"
    },
    {
      "anonymous": false,
      "inputs": [
        {
          "indexed": false,
          "name": "proxy",
          "type": "address"
        },
        {
          "indexed": false,
          "name": "isUpgradeable",
          "type": "bool"
        },
        {
          "indexed": false,
          "name": "appId",
          "type": "bytes32"
        }
      ],
      "name": "NewAppProxy",
      "type": "event"
    },
    {
      "anonymous": false,
      "inputs": [
        {
          "indexed": true,
          "name": "namespace",
          "type": "bytes32"
        },
        {
          "indexed": true,
          "name": "name",
          "type": "bytes32"
        },
        {
          "indexed": true,
          "name": "id",
          "type": "bytes32"
        },
        {
          "indexed": false,
          "name": "app",
          "type": "address"
        }
      ],
      "name": "SetApp",
      "type": "event"
    },
    {
      "constant": false,
      "inputs": [
        {
          "name": "_baseAcl",
          "type": "address"
        },
        {
          "name": "_permissionsCreator",
          "type": "address"
        }
      ],
      "name": "initialize",
      "outputs": [],
      "payable": false,
      "stateMutability": "nonpayable",
      "type": "function"
    },
    {
      "constant": false,
      "inputs": [
        {
          "name": "_name",
          "type": "bytes32"
        },
        {
          "name": "_appBase",
          "type": "address"
        }
      ],
      "name": "newAppInstance",
      "outputs": [
        {
          "name": "appProxy",
          "type": "address"
        }
      ],
      "payable": false,
      "stateMutability": "nonpayable",
      "type": "function"
    },
    {
      "constant": false,
      "inputs": [
        {
          "name": "_name",
          "type": "bytes32"
        },
        {
          "name": "_appBase",
          "type": "address"
        },
        {
          "name": "_setDefault",
          "type": "bool"
        }
      ],
      "name": "newAppInstance",
      "outputs": [
        {
          "name": "appProxy",
          "type": "address"
        }
      ],
      "payable": false,
      "stateMutability": "nonpayable",
      "type": "function"
    },
    {
      "constant": false,
      "inputs": [
        {
          "name": "_name",
          "type": "bytes32"
        },
        {
          "name": "_appBase",
          "type": "address"
        }
      ],
      "name": "newPinnedAppInstance",
      "outputs": [
        {
          "name": "appProxy",
          "type": "address"
        }
      ],
      "payable": false,
      "stateMutability": "nonpayable",
      "type": "function"
    },
    {
      "constant": false,
      "inputs": [
        {
          "name": "_name",
          "type": "bytes32"
        },
        {
          "name": "_appBase",
          "type": "address"
        },
        {
          "name": "_setDefault",
          "type": "bool"
        }
      ],
      "name": "newPinnedAppInstance",
      "outputs": [
        {
          "name": "appProxy",
          "type": "address"
        }
      ],
      "payable": false,
      "stateMutability": "nonpayable",
      "type": "function"
    },
    {
      "constant": false,
      "inputs": [
        {
          "name": "_namespace",
          "type": "bytes32"
        },
        {
          "name": "_name",
          "type": "bytes32"
        },
        {
          "name": "_app",
          "type": "address"
        }
      ],
      "name": "setApp",
      "outputs": [
        {
          "name": "id",
          "type": "bytes32"
        }
      ],
      "payable": false,
      "stateMutability": "nonpayable",
      "type": "function"
    },
    {
      "constant": false,
      "inputs": [
        {
          "name": "_name",
          "type": "bytes32"
        }
      ],
      "name": "setRecoveryVaultId",
      "outputs": [],
      "payable": false,
      "stateMutability": "nonpayable",
      "type": "function"
    },
    {
      "constant": true,
      "inputs": [
        {
          "name": "_id",
          "type": "bytes32"
        }
      ],
      "name": "getApp",
      "outputs": [
        {
          "name": "",
          "type": "address"
        }
      ],
      "payable": false,
      "stateMutability": "view",
      "type": "function"
    },
    {
      "constant": true,
      "inputs": [],
      "name": "getRecoveryVault",
      "outputs": [
        {
          "name": "",
          "type": "address"
        }
      ],
      "payable": false,
      "stateMutability": "view",
      "type": "function"
    },
    {
      "constant": true,
      "inputs": [],
      "name": "acl",
      "outputs": [
        {
          "name": "",
          "type": "address"
        }
      ],
      "payable": false,
      "stateMutability": "view",
      "type": "function"
    },
    {
      "constant": true,
      "inputs": [
        {
          "name": "_who",
          "type": "address"
        },
        {
          "name": "_where",
          "type": "address"
        },
        {
          "name": "_what",
          "type": "bytes32"
        },
        {
          "name": "_how",
          "type": "bytes"
        }
      ],
      "name": "hasPermission",
      "outputs": [
        {
          "name": "",
          "type": "bool"
        }
      ],
      "payable": false,
      "stateMutability": "view",
      "type": "function"
    }
  ],
  "bytecode": "0x608060405234801561001057600080fd5b506138ed806100206000396000f300608060405260043610620001b7576000357c0100000000000000000000000000000000000000000000000000000000900463ffffffff1680631113ed0d14620001bc578063178e607914620001f25780632501269914620002285780632c2333cd146200025e57806332f0a3b5146200029257806338bb6def14620002ec57806342c71f1d1462000360578063485cc95514620003d4578063756f6049146200043a5780637e7db6e1146200047057806380afdea814620004ce57806380cd5ac314620005045780638322fff214620005985780638b3dd74914620005f25780638ea8dc9d1462000620578063958fde8214620006565780639d4941d814620006ea578063a3b4b07f1462000730578063ae5b25401462000766578063b7c529ab14620007e4578063cbcc65eb146200081a578063d162f8b01462000850578063d4aae0c4146200092a578063dabca0191462000984578063db8a61d414620009ba578063de28735914620009f0578063e156a8f31462000a4a578063e943d1e61462000ade578063ede658b01462000b7e578063f8c7fa1e1462000c58578063fdef91061462000cf8578063ff289fc51462000dca575b600080fd5b348015620001c957600080fd5b50620001d462000e5e565b60405180826000191660001916815260200191505060405180910390f35b348015620001ff57600080fd5b506200020a62000e85565b60405180826000191660001916815260200191505060405180910390f35b3480156200023557600080fd5b506200024062000eac565b60405180826000191660001916815260200191505060405180910390f35b3480156200026b57600080fd5b5062000290600480360381019080803560001916906020019092919050505062000ed3565b005b3480156200029f57600080fd5b50620002aa62000fb3565b604051808273ffffffffffffffffffffffffffffffffffffffff1673ffffffffffffffffffffffffffffffffffffffff16815260200191505060405180910390f35b348015620002f957600080fd5b506200031e600480360381019080803560001916906020019092919050505062000ff7565b604051808273ffffffffffffffffffffffffffffffffffffffff1673ffffffffffffffffffffffffffffffffffffffff16815260200191505060405180910390f35b3480156200036d57600080fd5b506200039260048036038101908080356000191690602001909291905050506200102a565b604051808273ffffffffffffffffffffffffffffffffffffffff1673ffffffffffffffffffffffffffffffffffffffff16815260200191505060405180910390f35b348015620003e157600080fd5b5062000438600480360381019080803573ffffffffffffffffffffffffffffffffffffffff169060200190929190803573ffffffffffffffffffffffffffffffffffffffff1690602001909291905050506200106e565b005b3480156200044757600080fd5b50620004526200124c565b60405180826000191660001916815260200191505060405180910390f35b3480156200047d57600080fd5b50620004b4600480360381019080803573ffffffffffffffffffffffffffffffffffffffff16906020019092919050505062001273565b604051808215151515815260200191505060405180910390f35b348015620004db57600080fd5b50620004e66200127e565b60405180826000191660001916815260200191505060405180910390f35b3480156200051157600080fd5b50620005566004803603810190808035600019169060200190929190803573ffffffffffffffffffffffffffffffffffffffff16906020019092919050505062001284565b604051808273ffffffffffffffffffffffffffffffffffffffff1673ffffffffffffffffffffffffffffffffffffffff16815260200191505060405180910390f35b348015620005a557600080fd5b50620005b06200131e565b604051808273ffffffffffffffffffffffffffffffffffffffff1673ffffffffffffffffffffffffffffffffffffffff16815260200191505060405180910390f35b348015620005ff57600080fd5b506200060a62001323565b6040518082815260200191505060405180910390f35b3480156200062d57600080fd5b50620006386200132d565b60405180826000191660001916815260200191505060405180910390f35b3480156200066357600080fd5b50620006a86004803603810190808035600019169060200190929190803573ffffffffffffffffffffffffffffffffffffffff16906020019092919050505062001354565b604051808273ffffffffffffffffffffffffffffffffffffffff1673ffffffffffffffffffffffffffffffffffffffff16815260200191505060405180910390f35b348015620006f757600080fd5b506200072e600480360381019080803573ffffffffffffffffffffffffffffffffffffffff169060200190929190505050620013ee565b005b3480156200073d57600080fd5b506200074862001689565b60405180826000191660001916815260200191505060405180910390f35b3480156200077357600080fd5b50620007c660048036038101908080356000191690602001909291908035600019169060200190929190803573ffffffffffffffffffffffffffffffffffffffff169060200190929190505050620016b0565b60405180826000191660001916815260200191505060405180910390f35b348015620007f157600080fd5b50620007fc62001727565b60405180826000191660001916815260200191505060405180910390f35b3480156200082757600080fd5b50620008326200174e565b60405180826000191660001916815260200191505060405180910390f35b3480156200085d57600080fd5b50620008e8600480360381019080803573ffffffffffffffffffffffffffffffffffffffff1690602001909291908035600019169060200190929190803590602001908201803590602001908080601f016020809104026020016040519081016040528093929190818152602001838380828437820191505050505050919291929050505062001775565b604051808273ffffffffffffffffffffffffffffffffffffffff1673ffffffffffffffffffffffffffffffffffffffff16815260200191505060405180910390f35b3480156200093757600080fd5b5062000942620018e4565b604051808273ffffffffffffffffffffffffffffffffffffffff1673ffffffffffffffffffffffffffffffffffffffff16815260200191505060405180910390f35b3480156200099157600080fd5b506200099c6200190a565b60405180826000191660001916815260200191505060405180910390f35b348015620009c757600080fd5b50620009d262001910565b60405180826000191660001916815260200191505060405180910390f35b348015620009fd57600080fd5b5062000a0862001937565b604051808273ffffffffffffffffffffffffffffffffffffffff1673ffffffffffffffffffffffffffffffffffffffff16815260200191505060405180910390f35b34801562000a5757600080fd5b5062000a9c600480360381019080803573ffffffffffffffffffffffffffffffffffffffff16906020019092919080356000191690602001909291905050506200196c565b604051808273ffffffffffffffffffffffffffffffffffffffff1673ffffffffffffffffffffffffffffffffffffffff16815260200191505060405180910390f35b34801562000aeb57600080fd5b5062000b3c6004803603810190808035600019169060200190929190803573ffffffffffffffffffffffffffffffffffffffff169060200190929190803515159060200190929190505050620019b8565b604051808273ffffffffffffffffffffffffffffffffffffffff1673ffffffffffffffffffffffffffffffffffffffff16815260200191505060405180910390f35b34801562000b8b57600080fd5b5062000c16600480360381019080803573ffffffffffffffffffffffffffffffffffffffff1690602001909291908035600019169060200190929190803590602001908201803590602001908080601f016020809104026020016040519081016040528093929190818152602001838380828437820191505050505050919291929050505062001abb565b604051808273ffffffffffffffffffffffffffffffffffffffff1673ffffffffffffffffffffffffffffffffffffffff16815260200191505060405180910390f35b34801562000c6557600080fd5b5062000cb66004803603810190808035600019169060200190929190803573ffffffffffffffffffffffffffffffffffffffff16906020019092919080351515906020019092919050505062001c2a565b604051808273ffffffffffffffffffffffffffffffffffffffff1673ffffffffffffffffffffffffffffffffffffffff16815260200191505060405180910390f35b34801562000d0557600080fd5b5062000db0600480360381019080803573ffffffffffffffffffffffffffffffffffffffff169060200190929190803573ffffffffffffffffffffffffffffffffffffffff1690602001909291908035600019169060200190929190803590602001908201803590602001908080601f016020809104026020016040519081016040528093929190818152602001838380828437820191505050505050919291929050505062001d2d565b604051808215151515815260200191505060405180910390f35b34801562000dd757600080fd5b5062000e1c600480360381019080803573ffffffffffffffffffffffffffffffffffffffff169060200190929190803560001916906020019092919050505062001ecf565b604051808273ffffffffffffffffffffffffffffffffffffffff1673ffffffffffffffffffffffffffffffffffffffff16815260200191505060405180910390f35b7f3b4bf6bf3ad5000ecf0f989d5befde585c6860fea3e574a4fab4c49d1c177d9c60010281565b7fd6f028ca0e8edb4a8c9757ca4fdccab25fa1e0317da1188108f7d2dee14902fb60010281565b7f2b7d19d0575c228f8d9326801e14149d284dc5bb7b1541c5ad712ae4b2fcaadb60010281565b7fb6d92708f3d4817afc106147d969e229ced5c46e65e0a5002a0d391287762bd060010262000f267fd6f028ca0e8edb4a8c9757ca4fdccab25fa1e0317da1188108f7d2dee14902fb6001028362001f1b565b606060006020835102905082915080825262000f453330868562001d2d565b151562000f5157600080fd5b7fd6f028ca0e8edb4a8c9757ca4fdccab25fa1e0317da1188108f7d2dee14902fb600102856040518083600019166000191681526020018260001916600019168152602001925050506040518091039020600181600019169055505050505050565b60008060006001546000191660001916815260200190815260200160002060009054906101000a900473ffffffffffffffffffffffffffffffffffffffff16905090565b60006020528060005260406000206000915054906101000a900473ffffffffffffffffffffffffffffffffffffffff1681565b6000806000836000191660001916815260200190815260200160002060009054906101000a900473ffffffffffffffffffffffffffffffffffffffff169050919050565b6000806005541415156200108157600080fd5b6200108b62001f39565b620010ba307fe3262375f45a6e2026b7e7b18c2b807434f2508fe1a2a3dfb493c7df8f4aad6a6001026200196c565b90506200110f7ff1f3eb40f5bc1ad1344716ced8b8a0431d840b5783aea1fd01786bc26f35ac0f6001027fe3262375f45a6e2026b7e7b18c2b807434f2508fe1a2a3dfb493c7df8f4aad6a6001028562001f5d565b50620011637fd6f028ca0e8edb4a8c9757ca4fdccab25fa1e0317da1188108f7d2dee14902fb6001027fe3262375f45a6e2026b7e7b18c2b807434f2508fe1a2a3dfb493c7df8f4aad6a6001028362001f5d565b508073ffffffffffffffffffffffffffffffffffffffff1663c4d66de8836040518263ffffffff167c0100000000000000000000000000000000000000000000000000000000028152600401808273ffffffffffffffffffffffffffffffffffffffff1673ffffffffffffffffffffffffffffffffffffffff168152602001915050600060405180830381600087803b1580156200120057600080fd5b505af115801562001215573d6000803e3d6000fd5b505050507f4214e5fd6d0170d69ea641b5614f5093ebecc9928af51e95685c87617489800e60010260018160001916905550505050565b7fc681a85306374a5ab27f0bbc385296a54bcd314a1948b6cf61c4ea1bc44bb9f860010281565b600060019050919050565b60035481565b60007fb6d92708f3d4817afc106147d969e229ced5c46e65e0a5002a0d391287762bd0600102620012d97ff1f3eb40f5bc1ad1344716ced8b8a0431d840b5783aea1fd01786bc26f35ac0f6001028562001f1b565b6060600060208351029050829150808252620012f83330868562001d2d565b15156200130457600080fd5b6200131287876000620019b8565b94505050505092915050565b600081565b6000600554905090565b7fb6d92708f3d4817afc106147d969e229ced5c46e65e0a5002a0d391287762bd060010281565b60007fb6d92708f3d4817afc106147d969e229ced5c46e65e0a5002a0d391287762bd0600102620013a97ff1f3eb40f5bc1ad1344716ced8b8a0431d840b5783aea1fd01786bc26f35ac0f6001028562001f1b565b6060600060208351029050829150808252620013c83330868562001d2d565b1515620013d457600080fd5b620013e28787600062001c2a565b94505050505092915050565b600080620013fc8362001273565b15156200140857600080fd5b6200141262000fb3565b91506200141f8262002078565b15156200142b57600080fd5b600073ffffffffffffffffffffffffffffffffffffffff168373ffffffffffffffffffffffffffffffffffffffff161415620014c6578173ffffffffffffffffffffffffffffffffffffffff166108fc3073ffffffffffffffffffffffffffffffffffffffff16319081150290604051600060405180830381858888f19350505050158015620014bf573d6000803e3d6000fd5b5062001684565b8273ffffffffffffffffffffffffffffffffffffffff166370a08231306040518263ffffffff167c0100000000000000000000000000000000000000000000000000000000028152600401808273ffffffffffffffffffffffffffffffffffffffff1673ffffffffffffffffffffffffffffffffffffffff168152602001915050602060405180830381600087803b1580156200156257600080fd5b505af115801562001577573d6000803e3d6000fd5b505050506040513d60208110156200158e57600080fd5b810190808051906020019092919050505090508273ffffffffffffffffffffffffffffffffffffffff1663a9059cbb83836040518363ffffffff167c0100000000000000000000000000000000000000000000000000000000028152600401808373ffffffffffffffffffffffffffffffffffffffff1673ffffffffffffffffffffffffffffffffffffffff16815260200182815260200192505050602060405180830381600087803b1580156200164557600080fd5b505af11580156200165a573d6000803e3d6000fd5b505050506040513d60208110156200167157600080fd5b8101908080519060200190929190505050505b505050565b7f4b8e03a458a6ccec5d9077c2490964c1333dd3c72e2db408d7d9a7a36ef5c41a60010281565b60007fb6d92708f3d4817afc106147d969e229ced5c46e65e0a5002a0d391287762bd0600102620016e2858562001f1b565b6060600060208351029050829150808252620017013330868562001d2d565b15156200170d57600080fd5b6200171a88888862001f5d565b9450505050509392505050565b7f4214e5fd6d0170d69ea641b5614f5093ebecc9928af51e95685c87617489800e60010281565b7fe3262375f45a6e2026b7e7b18c2b807434f2508fe1a2a3dfb493c7df8f4aad6a60010281565b60008084848462001785620022f1565b808473ffffffffffffffffffffffffffffffffffffffff1673ffffffffffffffffffffffffffffffffffffffff168152602001836000191660001916815260200180602001828103825283818151815260200191508051906020019080838360005b8381101562001804578082015181840152602081019050620017e7565b50505050905090810190601f168015620018325780820380516001836020036101000a031916815260200191505b50945050505050604051809103906000f08015801562001856573d6000803e3d6000fd5b5090507fd880e726dced8808d727f02dd0e6fdd3a945b24bfee77e13367bcbe61ddbaf4781600086604051808473ffffffffffffffffffffffffffffffffffffffff1673ffffffffffffffffffffffffffffffffffffffff168152602001831515151581526020018260001916600019168152602001935050505060405180910390a1809150509392505050565b600260009054906101000a900473ffffffffffffffffffffffffffffffffffffffff1681565b60015481565b7ff1f3eb40f5bc1ad1344716ced8b8a0431d840b5783aea1fd01786bc26f35ac0f60010281565b6000620019677f4b8e03a458a6ccec5d9077c2490964c1333dd3c72e2db408d7d9a7a36ef5c41a6001026200102a565b905090565b6000620019b0838360006040519080825280601f01601f191660200182016040528015620019a95781602001602082028038833980820191505090505b5062001abb565b905092915050565b60007fb6d92708f3d4817afc106147d969e229ced5c46e65e0a5002a0d391287762bd060010262001a0d7ff1f3eb40f5bc1ad1344716ced8b8a0431d840b5783aea1fd01786bc26f35ac0f6001028662001f1b565b606060006020835102905082915080825262001a2c3330868562001d2d565b151562001a3857600080fd5b62001a687ff1f3eb40f5bc1ad1344716ced8b8a0431d840b5783aea1fd01786bc26f35ac0f6001028989620020cc565b5062001a7530896200196c565b9450851562001ab05762001aae7fd6f028ca0e8edb4a8c9757ca4fdccab25fa1e0317da1188108f7d2dee14902fb6001028987620016b0565b505b505050509392505050565b60008084848462001acb62002302565b808473ffffffffffffffffffffffffffffffffffffffff1673ffffffffffffffffffffffffffffffffffffffff168152602001836000191660001916815260200180602001828103825283818151815260200191508051906020019080838360005b8381101562001b4a57808201518184015260208101905062001b2d565b50505050905090810190601f16801562001b785780820380516001836020036101000a031916815260200191505b50945050505050604051809103906000f08015801562001b9c573d6000803e3d6000fd5b5090507fd880e726dced8808d727f02dd0e6fdd3a945b24bfee77e13367bcbe61ddbaf4781600186604051808473ffffffffffffffffffffffffffffffffffffffff1673ffffffffffffffffffffffffffffffffffffffff168152602001831515151581526020018260001916600019168152602001935050505060405180910390a1809150509392505050565b60007fb6d92708f3d4817afc106147d969e229ced5c46e65e0a5002a0d391287762bd060010262001c7f7ff1f3eb40f5bc1ad1344716ced8b8a0431d840b5783aea1fd01786bc26f35ac0f6001028662001f1b565b606060006020835102905082915080825262001c9e3330868562001d2d565b151562001caa57600080fd5b62001cda7ff1f3eb40f5bc1ad1344716ced8b8a0431d840b5783aea1fd01786bc26f35ac0f6001028989620020cc565b5062001ce7308962001ecf565b9450851562001d225762001d207fd6f028ca0e8edb4a8c9757ca4fdccab25fa1e0317da1188108f7d2dee14902fb6001028987620016b0565b505b505050509392505050565b600062001d3962001937565b73ffffffffffffffffffffffffffffffffffffffff1663fdef9106868686866040518563ffffffff167c0100000000000000000000000000000000000000000000000000000000028152600401808573ffffffffffffffffffffffffffffffffffffffff1673ffffffffffffffffffffffffffffffffffffffff1681526020018473ffffffffffffffffffffffffffffffffffffffff1673ffffffffffffffffffffffffffffffffffffffff168152602001836000191660001916815260200180602001828103825283818151815260200191508051906020019080838360005b8381101562001e3757808201518184015260208101905062001e1a565b50505050905090810190601f16801562001e655780820380516001836020036101000a031916815260200191505b5095505050505050602060405180830381600087803b15801562001e8857600080fd5b505af115801562001e9d573d6000803e3d6000fd5b505050506040513d602081101562001eb457600080fd5b81019080805190602001909291905050509050949350505050565b600062001f13838360006040519080825280601f01601f19166020018201604052801562001f0c5781602001602082028038833980820191505090505b5062001775565b905092915050565b606062001f31836001900483600190046200226f565b905092915050565b600060055414151562001f4b57600080fd5b62001f55620022e9565b600581905550565b600062001f6a8262002078565b151562001f7657600080fd5b83836040518083600019166000191681526020018260001916600019168152602001925050506040518091039020905081600080836000191660001916815260200190815260200160002060006101000a81548173ffffffffffffffffffffffffffffffffffffffff021916908373ffffffffffffffffffffffffffffffffffffffff1602179055508060001916836000191685600019167fe944a7cdbc6cbd4bfe4713501567365bd379a9df5fd376422712b066d6e6b52285604051808273ffffffffffffffffffffffffffffffffffffffff1673ffffffffffffffffffffffffffffffffffffffff16815260200191505060405180910390a49392505050565b600080600073ffffffffffffffffffffffffffffffffffffffff168373ffffffffffffffffffffffffffffffffffffffff161415620020bb5760009150620020c6565b823b90506000811191505b50919050565b600080620020da8362002078565b1515620020e657600080fd5b84846040518083600019166000191681526020018260001916600019168152602001925050506040518091039020915062002121826200102a565b9050600073ffffffffffffffffffffffffffffffffffffffff168173ffffffffffffffffffffffffffffffffffffffff161415156200219b578273ffffffffffffffffffffffffffffffffffffffff168173ffffffffffffffffffffffffffffffffffffffff161415156200219557600080fd5b62002267565b82600080846000191660001916815260200190815260200160002060006101000a81548173ffffffffffffffffffffffffffffffffffffffff021916908373ffffffffffffffffffffffffffffffffffffffff1602179055508160001916846000191686600019167fe944a7cdbc6cbd4bfe4713501567365bd379a9df5fd376422712b066d6e6b52286604051808273ffffffffffffffffffffffffffffffffffffffff1673ffffffffffffffffffffffffffffffffffffffff16815260200191505060405180910390a45b509392505050565b60606002604051908082528060200260200182016040528015620022a25781602001602082028038833980820191505090505b50905082816000815181101515620022b657fe5b906020019060200201818152505081816001815181101515620022d557fe5b906020019060200201818152505092915050565b600043905090565b604051610aa9806200231483390190565b604051610b058062002dbd833901905600608060405234801561001057600080fd5b50604051610aa9380380610aa98339810180604052810190808051906020019092919080519060200190929190805182019291905050508282826000836000806101000a81548173ffffffffffffffffffffffffffffffffffffffff021916908373ffffffffffffffffffffffffffffffffffffffff16021790555082600181600019169055506100b1600154610235640100000000026401000000009004565b9050600082511115610171576100d581610361640100000000026401000000009004565b15156100e057600080fd5b8073ffffffffffffffffffffffffffffffffffffffff168260405180828051906020019080838360005b8381101561012557808201518184015260208101905061010a565b50505050905090810190601f1680156101525780820380516001836020036101000a031916815260200191505b50915050600060405180830381855af4915050151561017057600080fd5b5b5050505061018f600154610235640100000000026401000000009004565b600260006101000a81548173ffffffffffffffffffffffffffffffffffffffff021916908373ffffffffffffffffffffffffffffffffffffffff160217905550600073ffffffffffffffffffffffffffffffffffffffff16600260009054906101000a900473ffffffffffffffffffffffffffffffffffffffff1673ffffffffffffffffffffffffffffffffffffffff161415151561022d57600080fd5b5050506103b3565b60008060009054906101000a900473ffffffffffffffffffffffffffffffffffffffff1673ffffffffffffffffffffffffffffffffffffffff166342c71f1d7ff1f3eb40f5bc1ad1344716ced8b8a0431d840b5783aea1fd01786bc26f35ac0f6001028460405180836000191660001916815260200182600019166000191681526020019250505060405180910390206040518263ffffffff167c0100000000000000000000000000000000000000000000000000000000028152600401808260001916600019168152602001915050602060405180830381600087803b15801561031f57600080fd5b505af1158015610333573d6000803e3d6000fd5b505050506040513d602081101561034957600080fd5b81019080805190602001909291905050509050919050565b600080600073ffffffffffffffffffffffffffffffffffffffff168373ffffffffffffffffffffffffffffffffffffffff1614156103a257600091506103ad565b823b90506000811191505b50919050565b6106e7806103c26000396000f3006080604052600436106100d0576000357c0100000000000000000000000000000000000000000000000000000000900463ffffffff1680630ceafa2a146101b55780631113ed0d146101e0578063178e60791461021357806325012699146102465780632b2584f6146102795780634555d5c9146102a45780635c60da1b146102cf578063756f6049146103265780637e84a4ff1461035957806380afdea814610384578063a3b4b07f146103b7578063cbcc65eb146103ea578063d4aae0c41461041d578063db8a61d414610474575b60006127105a101561016a576000341180156100ef5750600080369050145b15156100fa57600080fd5b7f15eeaa57c7bd188c1388020bcadc2c436ec60d647d36ef5b9eb3c742217ddee13334604051808373ffffffffffffffffffffffffffffffffffffffff1673ffffffffffffffffffffffffffffffffffffffff1681526020018281526020019250505060405180910390a16101b2565b6101726104a7565b90506101b1816000368080601f0160208091040260200160405190810160405280939291908181526020018383808284378201915050505050506104d1565b5b50005b3480156101c157600080fd5b506101ca610514565b6040518082815260200191505060405180910390f35b3480156101ec57600080fd5b506101f561051a565b60405180826000191660001916815260200191505060405180910390f35b34801561021f57600080fd5b50610228610541565b60405180826000191660001916815260200191505060405180910390f35b34801561025257600080fd5b5061025b610568565b60405180826000191660001916815260200191505060405180910390f35b34801561028557600080fd5b5061028e61058f565b6040518082815260200191505060405180910390f35b3480156102b057600080fd5b506102b9610594565b6040518082815260200191505060405180910390f35b3480156102db57600080fd5b506102e46104a7565b604051808273ffffffffffffffffffffffffffffffffffffffff1673ffffffffffffffffffffffffffffffffffffffff16815260200191505060405180910390f35b34801561033257600080fd5b5061033b61059d565b60405180826000191660001916815260200191505060405180910390f35b34801561036557600080fd5b5061036e6105c4565b6040518082815260200191505060405180910390f35b34801561039057600080fd5b506103996105c9565b60405180826000191660001916815260200191505060405180910390f35b3480156103c357600080fd5b506103cc6105cf565b60405180826000191660001916815260200191505060405180910390f35b3480156103f657600080fd5b506103ff6105f6565b60405180826000191660001916815260200191505060405180910390f35b34801561042957600080fd5b5061043261061d565b604051808273ffffffffffffffffffffffffffffffffffffffff1673ffffffffffffffffffffffffffffffffffffffff16815260200191505060405180910390f35b34801561048057600080fd5b50610489610642565b60405180826000191660001916815260200191505060405180910390f35b6000600260009054906101000a900473ffffffffffffffffffffffffffffffffffffffff16905090565b60006104dc83610669565b15156104e757600080fd5b612710905060008083516020850186855a03f43d604051816000823e8260008114610510578282f35b8282fd5b61271081565b7f3b4bf6bf3ad5000ecf0f989d5befde585c6860fea3e574a4fab4c49d1c177d9c60010281565b7fd6f028ca0e8edb4a8c9757ca4fdccab25fa1e0317da1188108f7d2dee14902fb60010281565b7f2b7d19d0575c228f8d9326801e14149d284dc5bb7b1541c5ad712ae4b2fcaadb60010281565b600181565b60006001905090565b7fc681a85306374a5ab27f0bbc385296a54bcd314a1948b6cf61c4ea1bc44bb9f860010281565b600281565b60015481565b7f4b8e03a458a6ccec5d9077c2490964c1333dd3c72e2db408d7d9a7a36ef5c41a60010281565b7fe3262375f45a6e2026b7e7b18c2b807434f2508fe1a2a3dfb493c7df8f4aad6a60010281565b6000809054906101000a900473ffffffffffffffffffffffffffffffffffffffff1681565b7ff1f3eb40f5bc1ad1344716ced8b8a0431d840b5783aea1fd01786bc26f35ac0f60010281565b600080600073ffffffffffffffffffffffffffffffffffffffff168373ffffffffffffffffffffffffffffffffffffffff1614156106aa57600091506106b5565b823b90506000811191505b509190505600a165627a7a72305820e5c3169407cf8b3d34de052349fc02a9eb9fe9ca37ab4e7c78d43bd6d1a84e3e0029608060405234801561001057600080fd5b50604051610b05380380610b058339810180604052810190808051906020019092919080519060200190929190805182019291905050508282826000836000806101000a81548173ffffffffffffffffffffffffffffffffffffffff021916908373ffffffffffffffffffffffffffffffffffffffff16021790555082600181600019169055506100b160015461017d640100000000026401000000009004565b9050600082511115610171576100d5816102a9640100000000026401000000009004565b15156100e057600080fd5b8073ffffffffffffffffffffffffffffffffffffffff168260405180828051906020019080838360005b8381101561012557808201518184015260208101905061010a565b50505050905090810190601f1680156101525780820380516001836020036101000a031916815260200191505b50915050600060405180830381855af4915050151561017057600080fd5b5b505050505050506102fb565b60008060009054906101000a900473ffffffffffffffffffffffffffffffffffffffff1673ffffffffffffffffffffffffffffffffffffffff166342c71f1d7ff1f3eb40f5bc1ad1344716ced8b8a0431d840b5783aea1fd01786bc26f35ac0f6001028460405180836000191660001916815260200182600019166000191681526020019250505060405180910390206040518263ffffffff167c0100000000000000000000000000000000000000000000000000000000028152600401808260001916600019168152602001915050602060405180830381600087803b15801561026757600080fd5b505af115801561027b573d6000803e3d6000fd5b505050506040513d602081101561029157600080fd5b81019080805190602001909291905050509050919050565b600080600073ffffffffffffffffffffffffffffffffffffffff168373ffffffffffffffffffffffffffffffffffffffff1614156102ea57600091506102f5565b823b90506000811191505b50919050565b6107fb8061030a6000396000f3006080604052600436106100d0576000357c0100000000000000000000000000000000000000000000000000000000900463ffffffff1680630ceafa2a146101b55780631113ed0d146101e0578063178e60791461021357806325012699146102465780632b2584f6146102795780634555d5c9146102a45780635c60da1b146102cf578063756f6049146103265780637e84a4ff1461035957806380afdea814610384578063a3b4b07f146103b7578063cbcc65eb146103ea578063d4aae0c41461041d578063db8a61d414610474575b60006127105a101561016a576000341180156100ef5750600080369050145b15156100fa57600080fd5b7f15eeaa57c7bd188c1388020bcadc2c436ec60d647d36ef5b9eb3c742217ddee13334604051808373ffffffffffffffffffffffffffffffffffffffff1673ffffffffffffffffffffffffffffffffffffffff1681526020018281526020019250505060405180910390a16101b2565b6101726104a7565b90506101b1816000368080601f0160208091040260200160405190810160405280939291908181526020018383808284378201915050505050506104b9565b5b50005b3480156101c157600080fd5b506101ca6104fc565b6040518082815260200191505060405180910390f35b3480156101ec57600080fd5b506101f5610502565b60405180826000191660001916815260200191505060405180910390f35b34801561021f57600080fd5b50610228610529565b60405180826000191660001916815260200191505060405180910390f35b34801561025257600080fd5b5061025b610550565b60405180826000191660001916815260200191505060405180910390f35b34801561028557600080fd5b5061028e610577565b6040518082815260200191505060405180910390f35b3480156102b057600080fd5b506102b961057c565b6040518082815260200191505060405180910390f35b3480156102db57600080fd5b506102e46104a7565b604051808273ffffffffffffffffffffffffffffffffffffffff1673ffffffffffffffffffffffffffffffffffffffff16815260200191505060405180910390f35b34801561033257600080fd5b5061033b610585565b60405180826000191660001916815260200191505060405180910390f35b34801561036557600080fd5b5061036e6105ac565b6040518082815260200191505060405180910390f35b34801561039057600080fd5b506103996105b1565b60405180826000191660001916815260200191505060405180910390f35b3480156103c357600080fd5b506103cc6105b7565b60405180826000191660001916815260200191505060405180910390f35b3480156103f657600080fd5b506103ff6105de565b60405180826000191660001916815260200191505060405180910390f35b34801561042957600080fd5b50610432610605565b604051808273ffffffffffffffffffffffffffffffffffffffff1673ffffffffffffffffffffffffffffffffffffffff16815260200191505060405180910390f35b34801561048057600080fd5b5061048961062a565b60405180826000191660001916815260200191505060405180910390f35b60006104b4600154610651565b905090565b60006104c48361077d565b15156104cf57600080fd5b612710905060008083516020850186855a03f43d604051816000823e82600081146104f8578282f35b8282fd5b61271081565b7f3b4bf6bf3ad5000ecf0f989d5befde585c6860fea3e574a4fab4c49d1c177d9c60010281565b7fd6f028ca0e8edb4a8c9757ca4fdccab25fa1e0317da1188108f7d2dee14902fb60010281565b7f2b7d19d0575c228f8d9326801e14149d284dc5bb7b1541c5ad712ae4b2fcaadb60010281565b600181565b60006002905090565b7fc681a85306374a5ab27f0bbc385296a54bcd314a1948b6cf61c4ea1bc44bb9f860010281565b600281565b60015481565b7f4b8e03a458a6ccec5d9077c2490964c1333dd3c72e2db408d7d9a7a36ef5c41a60010281565b7fe3262375f45a6e2026b7e7b18c2b807434f2508fe1a2a3dfb493c7df8f4aad6a60010281565b6000809054906101000a900473ffffffffffffffffffffffffffffffffffffffff1681565b7ff1f3eb40f5bc1ad1344716ced8b8a0431d840b5783aea1fd01786bc26f35ac0f60010281565b60008060009054906101000a900473ffffffffffffffffffffffffffffffffffffffff1673ffffffffffffffffffffffffffffffffffffffff166342c71f1d7ff1f3eb40f5bc1ad1344716ced8b8a0431d840b5783aea1fd01786bc26f35ac0f6001028460405180836000191660001916815260200182600019166000191681526020019250505060405180910390206040518263ffffffff167c0100000000000000000000000000000000000000000000000000000000028152600401808260001916600019168152602001915050602060405180830381600087803b15801561073b57600080fd5b505af115801561074f573d6000803e3d6000fd5b505050506040513d602081101561076557600080fd5b81019080805190602001909291905050509050919050565b600080600073ffffffffffffffffffffffffffffffffffffffff168373ffffffffffffffffffffffffffffffffffffffff1614156107be57600091506107c9565b823b90506000811191505b509190505600a165627a7a72305820fde32a6b44c483826cae412c80edc0e8b2ecd4ce6596ffcbf6325a25b00064680029a165627a7a72305820e022d33f85ceedc5890b945aac32de453b1957340aee5cd09f028cdcd69d31110029",
  "source": "pragma solidity ^0.4.18;\n\nimport \"./IKernel.sol\";\nimport \"./KernelStorage.sol\";\nimport \"../acl/IACL.sol\";\nimport \"../acl/ACLSyntaxSugar.sol\";\nimport \"../lib/misc/ERCProxy.sol\";\nimport \"../common/Initializable.sol\";\nimport \"../common/IsContract.sol\";\nimport \"../common/VaultRecoverable.sol\";\nimport \"../factory/AppProxyFactory.sol\";\n\n\ncontract Kernel is IKernel, KernelStorage, Initializable, IsContract, AppProxyFactory, ACLSyntaxSugar, VaultRecoverable {\n    // Hardcode constant to save gas\n    //bytes32 constant public APP_MANAGER_ROLE = keccak256(\"APP_MANAGER_ROLE\");\n    //bytes32 constant public DEFAULT_VAULT_ID = keccak256(APP_ADDR_NAMESPACE, apmNamehash(\"vault\"));\n    bytes32 constant public APP_MANAGER_ROLE = 0xb6d92708f3d4817afc106147d969e229ced5c46e65e0a5002a0d391287762bd0;\n    bytes32 constant public DEFAULT_VAULT_ID = 0x4214e5fd6d0170d69ea641b5614f5093ebecc9928af51e95685c87617489800e;\n\n    /**\n    * @dev Initialize can only be called once. It saves the block number in which it was initialized.\n    * @notice Initializes a kernel instance along with its ACL and sets `_permissionsCreator` as the entity that can create other permissions\n    * @param _baseAcl Address of base ACL app\n    * @param _permissionsCreator Entity that will be given permission over createPermission\n    */\n    function initialize(IACL _baseAcl, address _permissionsCreator) public onlyInit {\n        initialized();\n\n        IACL acl = IACL(newAppProxy(this, ACL_APP_ID));\n\n        _setApp(APP_BASES_NAMESPACE, ACL_APP_ID, _baseAcl);\n        _setApp(APP_ADDR_NAMESPACE, ACL_APP_ID, acl);\n\n        acl.initialize(_permissionsCreator);\n\n        recoveryVaultId = DEFAULT_VAULT_ID;\n    }\n\n    /**\n    * @dev Create a new instance of an app linked to this kernel\n    * @param _name Name of the app\n    * @param _appBase Address of the app's base implementation\n    * @return AppProxy instance\n    */\n    function newAppInstance(bytes32 _name, address _appBase)\n        public\n        auth(APP_MANAGER_ROLE, arr(APP_BASES_NAMESPACE, _name))\n        returns (ERCProxy appProxy)\n    {\n        return newAppInstance(_name, _appBase, false);\n    }\n\n    /**\n    * @dev Create a new instance of an app linked to this kernel and set its base\n    *      implementation if it was not already set\n    * @param _name Name of the app\n    * @param _appBase Address of the app's base implementation\n    * @param _setDefault Whether the app proxy app is the default one.\n    *        Useful when the Kernel needs to know of an instance of a particular app,\n    *        like Vault for escape hatch mechanism.\n    * @return AppProxy instance\n    */\n    function newAppInstance(bytes32 _name, address _appBase, bool _setDefault)\n        public\n        auth(APP_MANAGER_ROLE, arr(APP_BASES_NAMESPACE, _name))\n        returns (ERCProxy appProxy)\n    {\n        _setAppIfNew(APP_BASES_NAMESPACE, _name, _appBase);\n        appProxy = newAppProxy(this, _name);\n        // By calling setApp directly and not the internal functions, we make sure the params are checked\n        // and it will only succeed if sender has permissions to set something to the namespace.\n        if (_setDefault) {\n            setApp(APP_ADDR_NAMESPACE, _name, appProxy);\n        }\n    }\n\n    /**\n    * @dev Create a new pinned instance of an app linked to this kernel\n    * @param _name Name of the app\n    * @param _appBase Address of the app's base implementation\n    * @return AppProxy instance\n    */\n    function newPinnedAppInstance(bytes32 _name, address _appBase)\n        public\n        auth(APP_MANAGER_ROLE, arr(APP_BASES_NAMESPACE, _name))\n        returns (ERCProxy appProxy)\n    {\n        return newPinnedAppInstance(_name, _appBase, false);\n    }\n\n    /**\n    * @dev Create a new pinned instance of an app linked to this kernel and set\n    *      its base implementation if it was not already set\n    * @param _name Name of the app\n    * @param _appBase Address of the app's base implementation\n    * @param _setDefault Whether the app proxy app is the default one.\n    *        Useful when the Kernel needs to know of an instance of a particular app,\n    *        like Vault for escape hatch mechanism.\n    * @return AppProxy instance\n    */\n    function newPinnedAppInstance(bytes32 _name, address _appBase, bool _setDefault)\n        public\n        auth(APP_MANAGER_ROLE, arr(APP_BASES_NAMESPACE, _name))\n        returns (ERCProxy appProxy)\n    {\n        _setAppIfNew(APP_BASES_NAMESPACE, _name, _appBase);\n        appProxy = newAppProxyPinned(this, _name);\n        // By calling setApp directly and not the internal functions, we make sure the params are checked\n        // and it will only succeed if sender has permissions to set something to the namespace.\n        if (_setDefault) {\n            setApp(APP_ADDR_NAMESPACE, _name, appProxy);\n        }\n    }\n\n    /**\n    * @dev Set the resolving address of an app instance or base implementation\n    * @param _namespace App namespace to use\n    * @param _name Name of the app\n    * @param _app Address of the app\n    * @return ID of app\n    */\n    function setApp(bytes32 _namespace, bytes32 _name, address _app)\n        public\n        auth(APP_MANAGER_ROLE, arr(_namespace, _name))\n        returns (bytes32 id)\n    {\n        return _setApp(_namespace, _name, _app);\n    }\n\n    /**\n    * @dev Set the default vault id for the escape hatch mechanism\n    * @param _name Name of the app\n    */\n    function setRecoveryVaultId(bytes32 _name) public auth(APP_MANAGER_ROLE, arr(APP_ADDR_NAMESPACE, _name)) {\n        recoveryVaultId = keccak256(APP_ADDR_NAMESPACE, _name);\n    }\n\n    /**\n    * @dev Get the address of an app instance or base implementation\n    * @param _id App identifier\n    * @return Address of the app\n    */\n    function getApp(bytes32 _id) public view returns (address) {\n        return apps[_id];\n    }\n\n    /**\n    * @dev Get the address of the recovery Vault instance (to recover funds)\n    * @return Address of the Vault\n    */\n    function getRecoveryVault() public view returns (address) {\n        return apps[recoveryVaultId];\n    }\n\n    /**\n    * @dev Get the installed ACL app\n    * @return ACL app\n    */\n    function acl() public view returns (IACL) {\n        return IACL(getApp(ACL_APP));\n    }\n\n    /**\n    * @dev Function called by apps to check ACL on kernel or to check permission status\n    * @param _who Sender of the original call\n    * @param _where Address of the app\n    * @param _what Identifier for a group of actions in app\n    * @param _how Extra data for ACL auth\n    * @return boolean indicating whether the ACL allows the role or not\n    */\n    function hasPermission(address _who, address _where, bytes32 _what, bytes _how) public view returns (bool) {\n        return acl().hasPermission(_who, _where, _what, _how);\n    }\n\n    function _setApp(bytes32 _namespace, bytes32 _name, address _app) internal returns (bytes32 id) {\n        require(isContract(_app));\n        id = keccak256(_namespace, _name);\n        apps[id] = _app;\n        SetApp(_namespace, _name, id, _app);\n    }\n\n    function _setAppIfNew(bytes32 _namespace, bytes32 _name, address _app) internal returns (bytes32 id) {\n        require(isContract(_app));\n\n        id = keccak256(_namespace, _name);\n\n        address app = getApp(id);\n        if (app != address(0)) {\n            require(app == _app);\n        } else {\n            apps[id] = _app;\n            SetApp(_namespace, _name, id, _app);\n        }\n    }\n\n    modifier auth(bytes32 _role, uint256[] memory params) {\n        bytes memory how;\n        uint256 byteLength = params.length * 32;\n        assembly {\n            how := params // forced casting\n            mstore(how, byteLength)\n        }\n        // Params is invalid from this point fwd\n        require(hasPermission(msg.sender, address(this), _role, how));\n        _;\n    }\n}\n",
  "sourcePath": "@aragon/os/contracts/kernel/Kernel.sol",
  "compiler": {
    "name": "solc",
    "version": "0.4.24+commit.e67f0147.Emscripten.clang"
  },
  "schemaVersion": "2.0.0",
  "updatedAt": "2018-08-29T17:55:12.596Z"
}