{
  "contractName": "KernelConstants",
  "abi": [
    {
      "constant": true,
      "inputs": [],
      "name": "KERNEL_APP_ID",
      "outputs": [
        {
          "name": "",
          "type": "bytes32"
        }
      ],
      "payable": false,
      "stateMutability": "view",
      "type": "function"
    },
    {
      "constant": true,
      "inputs": [],
      "name": "APP_ADDR_NAMESPACE",
      "outputs": [
        {
          "name": "",
          "type": "bytes32"
        }
      ],
      "payable": false,
      "stateMutability": "view",
      "type": "function"
    },
    {
      "constant": true,
      "inputs": [],
      "name": "KERNEL_APP",
      "outputs": [
        {
          "name": "",
          "type": "bytes32"
        }
      ],
      "payable": false,
      "stateMutability": "view",
      "type": "function"
    },
    {
      "constant": true,
      "inputs": [],
      "name": "CORE_NAMESPACE",
      "outputs": [
        {
          "name": "",
          "type": "bytes32"
        }
      ],
      "payable": false,
      "stateMutability": "view",
      "type": "function"
    },
    {
      "constant": true,
      "inputs": [],
      "name": "ACL_APP",
      "outputs": [
        {
          "name": "",
          "type": "bytes32"
        }
      ],
      "payable": false,
      "stateMutability": "view",
      "type": "function"
    },
    {
      "constant": true,
      "inputs": [],
      "name": "ACL_APP_ID",
      "outputs": [
        {
          "name": "",
          "type": "bytes32"
        }
      ],
      "payable": false,
      "stateMutability": "view",
      "type": "function"
    },
    {
      "constant": true,
      "inputs": [],
      "name": "APP_BASES_NAMESPACE",
      "outputs": [
        {
          "name": "",
          "type": "bytes32"
        }
      ],
      "payable": false,
      "stateMutability": "view",
      "type": "function"
    }
  ],
  "bytecode": "0x608060405234801561001057600080fd5b5061032a806100206000396000f300608060405260043610610083576000357c0100000000000000000000000000000000000000000000000000000000900463ffffffff1680631113ed0d14610088578063178e6079146100bb57806325012699146100ee578063756f604914610121578063a3b4b07f14610154578063cbcc65eb14610187578063db8a61d4146101ba575b600080fd5b34801561009457600080fd5b5061009d6101ed565b60405180826000191660001916815260200191505060405180910390f35b3480156100c757600080fd5b506100d0610214565b60405180826000191660001916815260200191505060405180910390f35b3480156100fa57600080fd5b5061010361023b565b60405180826000191660001916815260200191505060405180910390f35b34801561012d57600080fd5b50610136610262565b60405180826000191660001916815260200191505060405180910390f35b34801561016057600080fd5b50610169610289565b60405180826000191660001916815260200191505060405180910390f35b34801561019357600080fd5b5061019c6102b0565b60405180826000191660001916815260200191505060405180910390f35b3480156101c657600080fd5b506101cf6102d7565b60405180826000191660001916815260200191505060405180910390f35b7f3b4bf6bf3ad5000ecf0f989d5befde585c6860fea3e574a4fab4c49d1c177d9c60010281565b7fd6f028ca0e8edb4a8c9757ca4fdccab25fa1e0317da1188108f7d2dee14902fb60010281565b7f2b7d19d0575c228f8d9326801e14149d284dc5bb7b1541c5ad712ae4b2fcaadb60010281565b7fc681a85306374a5ab27f0bbc385296a54bcd314a1948b6cf61c4ea1bc44bb9f860010281565b7f4b8e03a458a6ccec5d9077c2490964c1333dd3c72e2db408d7d9a7a36ef5c41a60010281565b7fe3262375f45a6e2026b7e7b18c2b807434f2508fe1a2a3dfb493c7df8f4aad6a60010281565b7ff1f3eb40f5bc1ad1344716ced8b8a0431d840b5783aea1fd01786bc26f35ac0f600102815600a165627a7a723058208039e651898d31756cf97250e5b8ac2e0cce6a7f417b9340b9672cd6aa18aad70029",
  "source": "pragma solidity ^0.4.18;\n\n\ncontract KernelConstants {\n    /*\n    bytes32 constant public CORE_NAMESPACE = keccak256(\"core\");\n    bytes32 constant public APP_BASES_NAMESPACE = keccak256(\"base\");\n    bytes32 constant public APP_ADDR_NAMESPACE = keccak256(\"app\");\n\n    bytes32 constant public KERNEL_APP_ID = apmNamehash(\"kernel\");\n    bytes32 constant public KERNEL_APP = keccak256(CORE_NAMESPACE, KERNEL_APP_ID);\n\n    bytes32 constant public ACL_APP_ID = apmNamehash(\"acl\");\n    bytes32 constant public ACL_APP = keccak256(APP_ADDR_NAMESPACE, ACL_APP_ID);\n    */\n    bytes32 constant public CORE_NAMESPACE = 0xc681a85306374a5ab27f0bbc385296a54bcd314a1948b6cf61c4ea1bc44bb9f8;\n    bytes32 constant public APP_BASES_NAMESPACE = 0xf1f3eb40f5bc1ad1344716ced8b8a0431d840b5783aea1fd01786bc26f35ac0f;\n    bytes32 constant public APP_ADDR_NAMESPACE = 0xd6f028ca0e8edb4a8c9757ca4fdccab25fa1e0317da1188108f7d2dee14902fb;\n\n    bytes32 constant public KERNEL_APP_ID = 0x3b4bf6bf3ad5000ecf0f989d5befde585c6860fea3e574a4fab4c49d1c177d9c;\n    bytes32 constant public KERNEL_APP = 0x2b7d19d0575c228f8d9326801e14149d284dc5bb7b1541c5ad712ae4b2fcaadb;\n\n    bytes32 constant public ACL_APP_ID = 0xe3262375f45a6e2026b7e7b18c2b807434f2508fe1a2a3dfb493c7df8f4aad6a;\n    bytes32 constant public ACL_APP = 0x4b8e03a458a6ccec5d9077c2490964c1333dd3c72e2db408d7d9a7a36ef5c41a;\n\n}\n\n\ncontract KernelStorage is KernelConstants {\n    mapping (bytes32 => address) public apps;\n    bytes32 public recoveryVaultId;\n}\n",
  "sourcePath": "@aragon/os/contracts/kernel/KernelStorage.sol",
  "compiler": {
    "name": "solc",
    "version": "0.4.24+commit.e67f0147.Emscripten.clang"
  },
  "schemaVersion": "2.0.1",
  "updatedAt": "2018-10-05T12:39:51.636Z"
}