{
  "contractName": "KernelStorage",
  "abi": [
    {
      "constant": true,
      "inputs": [],
      "name": "KERNEL_APP_ID",
      "outputs": [
        {
          "name": "",
          "type": "bytes32"
        }
      ],
      "payable": false,
      "stateMutability": "view",
      "type": "function"
    },
    {
      "constant": true,
      "inputs": [],
      "name": "APP_ADDR_NAMESPACE",
      "outputs": [
        {
          "name": "",
          "type": "bytes32"
        }
      ],
      "payable": false,
      "stateMutability": "view",
      "type": "function"
    },
    {
      "constant": true,
      "inputs": [
        {
          "name": "",
          "type": "bytes32"
        },
        {
          "name": "",
          "type": "bytes32"
        }
      ],
      "name": "apps",
      "outputs": [
        {
          "name": "",
          "type": "address"
        }
      ],
      "payable": false,
      "stateMutability": "view",
      "type": "function"
    },
    {
      "constant": true,
      "inputs": [],
      "name": "CORE_NAMESPACE",
      "outputs": [
        {
          "name": "",
          "type": "bytes32"
        }
      ],
      "payable": false,
      "stateMutability": "view",
      "type": "function"
    },
    {
      "constant": true,
      "inputs": [],
      "name": "recoveryVaultAppId",
      "outputs": [
        {
          "name": "",
          "type": "bytes32"
        }
      ],
      "payable": false,
      "stateMutability": "view",
      "type": "function"
    },
    {
      "constant": true,
      "inputs": [],
      "name": "ACL_APP_ID",
      "outputs": [
        {
          "name": "",
          "type": "bytes32"
        }
      ],
      "payable": false,
      "stateMutability": "view",
      "type": "function"
    },
    {
      "constant": true,
      "inputs": [],
      "name": "APP_BASES_NAMESPACE",
      "outputs": [
        {
          "name": "",
          "type": "bytes32"
        }
      ],
      "payable": false,
      "stateMutability": "view",
      "type": "function"
    }
  ],
  "bytecode": "0x608060405234801561001057600080fd5b50610370806100206000396000f300608060405260043610610083576000357c0100000000000000000000000000000000000000000000000000000000900463ffffffff1680631113ed0d14610088578063178e6079146100bb5780634558850c146100ee578063756f60491461016d57806386070cfe146101a0578063cbcc65eb146101d3578063db8a61d414610206575b600080fd5b34801561009457600080fd5b5061009d610239565b60405180826000191660001916815260200191505060405180910390f35b3480156100c757600080fd5b506100d0610260565b60405180826000191660001916815260200191505060405180910390f35b3480156100fa57600080fd5b5061012b60048036038101908080356000191690602001909291908035600019169060200190929190505050610287565b604051808273ffffffffffffffffffffffffffffffffffffffff1673ffffffffffffffffffffffffffffffffffffffff16815260200191505060405180910390f35b34801561017957600080fd5b506101826102c9565b60405180826000191660001916815260200191505060405180910390f35b3480156101ac57600080fd5b506101b56102f0565b60405180826000191660001916815260200191505060405180910390f35b3480156101df57600080fd5b506101e86102f6565b60405180826000191660001916815260200191505060405180910390f35b34801561021257600080fd5b5061021b61031d565b60405180826000191660001916815260200191505060405180910390f35b7f3b4bf6bf3ad5000ecf0f989d5befde585c6860fea3e574a4fab4c49d1c177d9c60010281565b7fd6f028ca0e8edb4a8c9757ca4fdccab25fa1e0317da1188108f7d2dee14902fb60010281565b60006020528160005260406000206020528060005260406000206000915091509054906101000a900473ffffffffffffffffffffffffffffffffffffffff1681565b7fc681a85306374a5ab27f0bbc385296a54bcd314a1948b6cf61c4ea1bc44bb9f860010281565b60015481565b7fe3262375f45a6e2026b7e7b18c2b807434f2508fe1a2a3dfb493c7df8f4aad6a60010281565b7ff1f3eb40f5bc1ad1344716ced8b8a0431d840b5783aea1fd01786bc26f35ac0f600102815600a165627a7a723058204a9e54a1ce7af05808135d262c1a06943b9d587494167f7650ba62b48bdb8aa70029",
  "source": "pragma solidity 0.4.24;\n\nimport \"./KernelConstants.sol\";\n\n\ncontract KernelStorage is KernelConstants {\n    mapping (bytes32 => mapping (bytes32 => address)) public apps;\n    bytes32 public recoveryVaultAppId;\n}\n",
  "sourcePath": "@aragon/os/contracts/kernel/KernelStorage.sol",
  "compiler": {
    "name": "solc",
    "version": "0.4.24+commit.e67f0147.Emscripten.clang"
  },
  "schemaVersion": "3.0.0-beta.1",
  "updatedAt": "2018-11-23T10:39:45.686Z"
}