{
  "contractName": "KernelStorage",
  "abi": [
    {
      "constant": true,
      "inputs": [],
      "name": "KERNEL_APP_ID",
      "outputs": [
        {
          "name": "",
          "type": "bytes32"
        }
      ],
      "payable": false,
      "stateMutability": "view",
      "type": "function"
    },
    {
      "constant": true,
      "inputs": [],
      "name": "APP_ADDR_NAMESPACE",
      "outputs": [
        {
          "name": "",
          "type": "bytes32"
        }
      ],
      "payable": false,
      "stateMutability": "view",
      "type": "function"
    },
    {
      "constant": true,
      "inputs": [],
      "name": "KERNEL_APP",
      "outputs": [
        {
          "name": "",
          "type": "bytes32"
        }
      ],
      "payable": false,
      "stateMutability": "view",
      "type": "function"
    },
    {
      "constant": true,
      "inputs": [
        {
          "name": "",
          "type": "bytes32"
        }
      ],
      "name": "apps",
      "outputs": [
        {
          "name": "",
          "type": "address"
        }
      ],
      "payable": false,
      "stateMutability": "view",
      "type": "function"
    },
    {
      "constant": true,
      "inputs": [],
      "name": "CORE_NAMESPACE",
      "outputs": [
        {
          "name": "",
          "type": "bytes32"
        }
      ],
      "payable": false,
      "stateMutability": "view",
      "type": "function"
    },
    {
      "constant": true,
      "inputs": [],
      "name": "ACL_APP",
      "outputs": [
        {
          "name": "",
          "type": "bytes32"
        }
      ],
      "payable": false,
      "stateMutability": "view",
      "type": "function"
    },
    {
      "constant": true,
      "inputs": [],
      "name": "ACL_APP_ID",
      "outputs": [
        {
          "name": "",
          "type": "bytes32"
        }
      ],
      "payable": false,
      "stateMutability": "view",
      "type": "function"
    },
    {
      "constant": true,
      "inputs": [],
      "name": "recoveryVaultId",
      "outputs": [
        {
          "name": "",
          "type": "bytes32"
        }
      ],
      "payable": false,
      "stateMutability": "view",
      "type": "function"
    },
    {
      "constant": true,
      "inputs": [],
      "name": "APP_BASES_NAMESPACE",
      "outputs": [
        {
          "name": "",
          "type": "bytes32"
        }
      ],
      "payable": false,
      "stateMutability": "view",
      "type": "function"
    }
  ],
  "bytecode": "0x608060405234801561001057600080fd5b5061041d806100206000396000f300608060405260043610610099576000357c0100000000000000000000000000000000000000000000000000000000900463ffffffff1680631113ed0d1461009e578063178e6079146100d1578063250126991461010457806338bb6def14610137578063756f6049146101a8578063a3b4b07f146101db578063cbcc65eb1461020e578063dabca01914610241578063db8a61d414610274575b600080fd5b3480156100aa57600080fd5b506100b36102a7565b60405180826000191660001916815260200191505060405180910390f35b3480156100dd57600080fd5b506100e66102ce565b60405180826000191660001916815260200191505060405180910390f35b34801561011057600080fd5b506101196102f5565b60405180826000191660001916815260200191505060405180910390f35b34801561014357600080fd5b50610166600480360381019080803560001916906020019092919050505061031c565b604051808273ffffffffffffffffffffffffffffffffffffffff1673ffffffffffffffffffffffffffffffffffffffff16815260200191505060405180910390f35b3480156101b457600080fd5b506101bd61034f565b60405180826000191660001916815260200191505060405180910390f35b3480156101e757600080fd5b506101f0610376565b60405180826000191660001916815260200191505060405180910390f35b34801561021a57600080fd5b5061022361039d565b60405180826000191660001916815260200191505060405180910390f35b34801561024d57600080fd5b506102566103c4565b60405180826000191660001916815260200191505060405180910390f35b34801561028057600080fd5b506102896103ca565b60405180826000191660001916815260200191505060405180910390f35b7f3b4bf6bf3ad5000ecf0f989d5befde585c6860fea3e574a4fab4c49d1c177d9c60010281565b7fd6f028ca0e8edb4a8c9757ca4fdccab25fa1e0317da1188108f7d2dee14902fb60010281565b7f2b7d19d0575c228f8d9326801e14149d284dc5bb7b1541c5ad712ae4b2fcaadb60010281565b60006020528060005260406000206000915054906101000a900473ffffffffffffffffffffffffffffffffffffffff1681565b7fc681a85306374a5ab27f0bbc385296a54bcd314a1948b6cf61c4ea1bc44bb9f860010281565b7f4b8e03a458a6ccec5d9077c2490964c1333dd3c72e2db408d7d9a7a36ef5c41a60010281565b7fe3262375f45a6e2026b7e7b18c2b807434f2508fe1a2a3dfb493c7df8f4aad6a60010281565b60015481565b7ff1f3eb40f5bc1ad1344716ced8b8a0431d840b5783aea1fd01786bc26f35ac0f600102815600a165627a7a72305820f14b5e6e5e4392d1c1a35761027f6535c22295a617534cf0df5197bed4a7eaa30029",
  "source": "pragma solidity ^0.4.18;\n\n\ncontract KernelConstants {\n    /*\n    bytes32 constant public CORE_NAMESPACE = keccak256(\"core\");\n    bytes32 constant public APP_BASES_NAMESPACE = keccak256(\"base\");\n    bytes32 constant public APP_ADDR_NAMESPACE = keccak256(\"app\");\n\n    bytes32 constant public KERNEL_APP_ID = apmNamehash(\"kernel\");\n    bytes32 constant public KERNEL_APP = keccak256(CORE_NAMESPACE, KERNEL_APP_ID);\n\n    bytes32 constant public ACL_APP_ID = apmNamehash(\"acl\");\n    bytes32 constant public ACL_APP = keccak256(APP_ADDR_NAMESPACE, ACL_APP_ID);\n    */\n    bytes32 constant public CORE_NAMESPACE = 0xc681a85306374a5ab27f0bbc385296a54bcd314a1948b6cf61c4ea1bc44bb9f8;\n    bytes32 constant public APP_BASES_NAMESPACE = 0xf1f3eb40f5bc1ad1344716ced8b8a0431d840b5783aea1fd01786bc26f35ac0f;\n    bytes32 constant public APP_ADDR_NAMESPACE = 0xd6f028ca0e8edb4a8c9757ca4fdccab25fa1e0317da1188108f7d2dee14902fb;\n\n    bytes32 constant public KERNEL_APP_ID = 0x3b4bf6bf3ad5000ecf0f989d5befde585c6860fea3e574a4fab4c49d1c177d9c;\n    bytes32 constant public KERNEL_APP = 0x2b7d19d0575c228f8d9326801e14149d284dc5bb7b1541c5ad712ae4b2fcaadb;\n\n    bytes32 constant public ACL_APP_ID = 0xe3262375f45a6e2026b7e7b18c2b807434f2508fe1a2a3dfb493c7df8f4aad6a;\n    bytes32 constant public ACL_APP = 0x4b8e03a458a6ccec5d9077c2490964c1333dd3c72e2db408d7d9a7a36ef5c41a;\n\n}\n\n\ncontract KernelStorage is KernelConstants {\n    mapping (bytes32 => address) public apps;\n    bytes32 public recoveryVaultId;\n}\n",
  "sourcePath": "@aragon/os/contracts/kernel/KernelStorage.sol",
  "compiler": {
    "name": "solc",
    "version": "0.4.24+commit.e67f0147.Emscripten.clang"
  },
  "schemaVersion": "2.0.0",
  "updatedAt": "2018-08-29T17:55:12.599Z"
}