{
  "contractName": "LineageVoting",
  "abi": [
    {
      "constant": true,
      "inputs": [],
      "name": "getRecoveryVault",
      "outputs": [
        {
          "name": "",
          "type": "address"
        }
      ],
      "payable": false,
      "stateMutability": "view",
      "type": "function"
    },
    {
      "constant": true,
      "inputs": [],
      "name": "EVMSCRIPT_REGISTRY_APP_ID",
      "outputs": [
        {
          "name": "",
          "type": "bytes32"
        }
      ],
      "payable": false,
      "stateMutability": "view",
      "type": "function"
    },
    {
      "constant": true,
      "inputs": [
        {
          "name": "token",
          "type": "address"
        }
      ],
      "name": "allowRecoverability",
      "outputs": [
        {
          "name": "",
          "type": "bool"
        }
      ],
      "payable": false,
      "stateMutability": "view",
      "type": "function"
    },
    {
      "constant": true,
      "inputs": [],
      "name": "appId",
      "outputs": [
        {
          "name": "",
          "type": "bytes32"
        }
      ],
      "payable": false,
      "stateMutability": "view",
      "type": "function"
    },
    {
      "constant": true,
      "inputs": [],
      "name": "ETH",
      "outputs": [
        {
          "name": "",
          "type": "address"
        }
      ],
      "payable": false,
      "stateMutability": "view",
      "type": "function"
    },
    {
      "constant": true,
      "inputs": [],
      "name": "getInitializationBlock",
      "outputs": [
        {
          "name": "",
          "type": "uint256"
        }
      ],
      "payable": false,
      "stateMutability": "view",
      "type": "function"
    },
    {
      "constant": true,
      "inputs": [],
      "name": "EVMSCRIPT_REGISTRY_APP",
      "outputs": [
        {
          "name": "",
          "type": "bytes32"
        }
      ],
      "payable": false,
      "stateMutability": "view",
      "type": "function"
    },
    {
      "constant": false,
      "inputs": [
        {
          "name": "_token",
          "type": "address"
        }
      ],
      "name": "transferToVault",
      "outputs": [],
      "payable": false,
      "stateMutability": "nonpayable",
      "type": "function"
    },
    {
      "constant": true,
      "inputs": [
        {
          "name": "_sender",
          "type": "address"
        },
        {
          "name": "_role",
          "type": "bytes32"
        },
        {
          "name": "_params",
          "type": "uint256[]"
        }
      ],
      "name": "canPerform",
      "outputs": [
        {
          "name": "",
          "type": "bool"
        }
      ],
      "payable": false,
      "stateMutability": "view",
      "type": "function"
    },
    {
      "constant": true,
      "inputs": [],
      "name": "kernel",
      "outputs": [
        {
          "name": "",
          "type": "address"
        }
      ],
      "payable": false,
      "stateMutability": "view",
      "type": "function"
    },
    {
      "constant": true,
      "inputs": [
        {
          "name": "_script",
          "type": "bytes"
        }
      ],
      "name": "getExecutor",
      "outputs": [
        {
          "name": "",
          "type": "address"
        }
      ],
      "payable": false,
      "stateMutability": "view",
      "type": "function"
    },
    {
      "anonymous": false,
      "inputs": [
        {
          "indexed": false,
          "name": "value",
          "type": "bytes"
        }
      ],
      "name": "Test",
      "type": "event"
    },
    {
      "anonymous": false,
      "inputs": [
        {
          "indexed": false,
          "name": "sig",
          "type": "bytes4"
        }
      ],
      "name": "Signature",
      "type": "event"
    },
    {
      "anonymous": false,
      "inputs": [
        {
          "indexed": false,
          "name": "addr",
          "type": "address"
        }
      ],
      "name": "ContractAddress",
      "type": "event"
    },
    {
      "anonymous": false,
      "inputs": [
        {
          "indexed": false,
          "name": "length",
          "type": "uint256"
        }
      ],
      "name": "Length",
      "type": "event"
    },
    {
      "anonymous": false,
      "inputs": [
        {
          "indexed": false,
          "name": "amount",
          "type": "uint256"
        }
      ],
      "name": "Lineage",
      "type": "event"
    },
    {
      "anonymous": false,
      "inputs": [
        {
          "indexed": false,
          "name": "calls",
          "type": "bytes"
        }
      ],
      "name": "Calls",
      "type": "event"
    },
    {
      "anonymous": false,
      "inputs": [
        {
          "indexed": false,
          "name": "call",
          "type": "bytes"
        }
      ],
      "name": "Call",
      "type": "event"
    },
    {
      "anonymous": false,
      "inputs": [
        {
          "indexed": false,
          "name": "params",
          "type": "bytes"
        }
      ],
      "name": "Params",
      "type": "event"
    },
    {
      "anonymous": false,
      "inputs": [
        {
          "indexed": false,
          "name": "params",
          "type": "bytes"
        }
      ],
      "name": "Calldata",
      "type": "event"
    },
    {
      "anonymous": false,
      "inputs": [
        {
          "indexed": true,
          "name": "executor",
          "type": "address"
        },
        {
          "indexed": false,
          "name": "script",
          "type": "bytes"
        },
        {
          "indexed": false,
          "name": "input",
          "type": "bytes"
        },
        {
          "indexed": false,
          "name": "returnData",
          "type": "bytes"
        }
      ],
      "name": "ScriptResult",
      "type": "event"
    },
    {
      "constant": false,
      "inputs": [],
      "name": "initialize",
      "outputs": [],
      "payable": false,
      "stateMutability": "nonpayable",
      "type": "function"
    },
    {
      "constant": true,
      "inputs": [],
      "name": "isForwarder",
      "outputs": [
        {
          "name": "",
          "type": "bool"
        }
      ],
      "payable": false,
      "stateMutability": "pure",
      "type": "function"
    },
    {
      "constant": false,
      "inputs": [
        {
          "name": "_script",
          "type": "bytes"
        }
      ],
      "name": "forward",
      "outputs": [],
      "payable": false,
      "stateMutability": "nonpayable",
      "type": "function"
    },
    {
      "constant": true,
      "inputs": [
        {
          "name": "sender",
          "type": "address"
        },
        {
          "name": "evmCallScript",
          "type": "bytes"
        }
      ],
      "name": "canForward",
      "outputs": [
        {
          "name": "",
          "type": "bool"
        }
      ],
      "payable": false,
      "stateMutability": "view",
      "type": "function"
    }
  ],
  "bytecode": "0x608060405234801561001057600080fd5b506116b5806100206000396000f3006080604052600436106100db576000357c0100000000000000000000000000000000000000000000000000000000900463ffffffff16806332f0a3b5146100e057806360b1e057146101375780637e7db6e11461016a57806380afdea8146101c55780638129fc1c146101f85780638322fff21461020f5780638b3dd749146102665780639b3fdf4c146102915780639d4941d8146102c4578063a1658fad14610307578063c0774df3146103b3578063d4aae0c414610454578063d948d468146104ab578063f92a79ff14610514578063fd64eccb146105bd575b600080fd5b3480156100ec57600080fd5b506100f56105ec565b604051808273ffffffffffffffffffffffffffffffffffffffff1673ffffffffffffffffffffffffffffffffffffffff16815260200191505060405180910390f35b34801561014357600080fd5b5061014c6106f9565b60405180826000191660001916815260200191505060405180910390f35b34801561017657600080fd5b506101ab600480360381019080803573ffffffffffffffffffffffffffffffffffffffff169060200190929190505050610720565b604051808215151515815260200191505060405180910390f35b3480156101d157600080fd5b506101da61072b565b60405180826000191660001916815260200191505060405180910390f35b34801561020457600080fd5b5061020d610731565b005b34801561021b57600080fd5b5061022461074c565b604051808273ffffffffffffffffffffffffffffffffffffffff1673ffffffffffffffffffffffffffffffffffffffff16815260200191505060405180910390f35b34801561027257600080fd5b5061027b610751565b6040518082815260200191505060405180910390f35b34801561029d57600080fd5b506102a661075b565b60405180826000191660001916815260200191505060405180910390f35b3480156102d057600080fd5b50610305600480360381019080803573ffffffffffffffffffffffffffffffffffffffff169060200190929190505050610782565b005b34801561031357600080fd5b50610399600480360381019080803573ffffffffffffffffffffffffffffffffffffffff169060200190929190803560001916906020019092919080359060200190820180359060200190808060200260200160405190810160405280939291908181526020018383602002808284378201915050505050509192919290505050610a0c565b604051808215151515815260200191505060405180910390f35b3480156103bf57600080fd5b5061043a600480360381019080803573ffffffffffffffffffffffffffffffffffffffff169060200190929190803590602001908201803590602001908080601f0160208091040260200160405190810160405280939291908181526020018383808284378201915050505050509192919290505050610c1e565b604051808215151515815260200191505060405180910390f35b34801561046057600080fd5b50610469610c2a565b604051808273ffffffffffffffffffffffffffffffffffffffff1673ffffffffffffffffffffffffffffffffffffffff16815260200191505060405180910390f35b3480156104b757600080fd5b50610512600480360381019080803590602001908201803590602001908080601f0160208091040260200160405190810160405280939291908181526020018383808284378201915050505050509192919290505050610c4f565b005b34801561052057600080fd5b5061057b600480360381019080803590602001908201803590602001908080601f0160208091040260200160405190810160405280939291908181526020018383808284378201915050505050509192919290505050611001565b604051808273ffffffffffffffffffffffffffffffffffffffff1673ffffffffffffffffffffffffffffffffffffffff16815260200191505060405180910390f35b3480156105c957600080fd5b506105d2611120565b604051808215151515815260200191505060405180910390f35b6000806000809054906101000a900473ffffffffffffffffffffffffffffffffffffffff1673ffffffffffffffffffffffffffffffffffffffff161415151561063457600080fd5b6000809054906101000a900473ffffffffffffffffffffffffffffffffffffffff1673ffffffffffffffffffffffffffffffffffffffff166332f0a3b56040518163ffffffff167c0100000000000000000000000000000000000000000000000000000000028152600401602060405180830381600087803b1580156106b957600080fd5b505af11580156106cd573d6000803e3d6000fd5b505050506040513d60208110156106e357600080fd5b8101908080519060200190929190505050905090565b7fddbcfd564f642ab5627cf68b9b7d374fb4f8a36e941a75d89c87998cef03bd6160010281565b600060019050919050565b60015481565b600060035414151561074257600080fd5b61074a611129565b565b600081565b6000600354905090565b7f34f01c17e9be6ddbf2c61f37b5b1fb9f1a090a975006581ad19bda1c4d38287160010281565b60008061078e83610720565b151561079957600080fd5b6107a16105ec565b91506107ac8261114a565b15156107b757600080fd5b600073ffffffffffffffffffffffffffffffffffffffff168373ffffffffffffffffffffffffffffffffffffffff16141561084f578173ffffffffffffffffffffffffffffffffffffffff166108fc3073ffffffffffffffffffffffffffffffffffffffff16319081150290604051600060405180830381858888f19350505050158015610849573d6000803e3d6000fd5b50610a07565b8273ffffffffffffffffffffffffffffffffffffffff166370a08231306040518263ffffffff167c0100000000000000000000000000000000000000000000000000000000028152600401808273ffffffffffffffffffffffffffffffffffffffff1673ffffffffffffffffffffffffffffffffffffffff168152602001915050602060405180830381600087803b1580156108ea57600080fd5b505af11580156108fe573d6000803e3d6000fd5b505050506040513d602081101561091457600080fd5b810190808051906020019092919050505090508273ffffffffffffffffffffffffffffffffffffffff1663a9059cbb83836040518363ffffffff167c0100000000000000000000000000000000000000000000000000000000028152600401808373ffffffffffffffffffffffffffffffffffffffff1673ffffffffffffffffffffffffffffffffffffffff16815260200182815260200192505050602060405180830381600087803b1580156109ca57600080fd5b505af11580156109de573d6000803e3d6000fd5b505050506040513d60208110156109f457600080fd5b8101908080519060200190929190505050505b505050565b6000606060008084511115610a2957602084510290508391508082525b60008060009054906101000a900473ffffffffffffffffffffffffffffffffffffffff1673ffffffffffffffffffffffffffffffffffffffff161480610c1357506000809054906101000a900473ffffffffffffffffffffffffffffffffffffffff1673ffffffffffffffffffffffffffffffffffffffff1663fdef9106873088866040518563ffffffff167c0100000000000000000000000000000000000000000000000000000000028152600401808573ffffffffffffffffffffffffffffffffffffffff1673ffffffffffffffffffffffffffffffffffffffff1681526020018473ffffffffffffffffffffffffffffffffffffffff1673ffffffffffffffffffffffffffffffffffffffff168152602001836000191660001916815260200180602001828103825283818151815260200191508051906020019080838360005b83811015610b88578082015181840152602081019050610b6d565b50505050905090810190601f168015610bb55780820380516001836020036101000a031916815260200191505b5095505050505050602060405180830381600087803b158015610bd757600080fd5b505af1158015610beb573d6000803e3d6000fd5b505050506040513d6020811015610c0157600080fd5b81019080805190602001909291905050505b925050509392505050565b60006001905092915050565b6000809054906101000a900473ffffffffffffffffffffffffffffffffffffffff1681565b60008060608060008060606000806000600499505b8a518a1015610ff457610c768b61119c565b9850610c818b6111b0565b9750610c976000896111d290919063ffffffff16565b96507f040c7cd08ab117d52c6158cd627562abe129b6da3139e2d8b6fb263181d6a4c7886040518080602001828103825283818151815260200191508051906020019080838360005b83811015610cfb578082015181840152602081019050610ce0565b50505050905090810190601f168015610d285780820380516001836020036101000a031916815260200191505b509250505060405180910390a17f6d8b6dfef1a9028ef2318cb5b6bcdf885633c356b6e8f3c160e38c055d2b0c5e876040518080602001828103825283818151815260200191508051906020019080838360005b83811015610d97578082015181840152602081019050610d7c565b50505050905090810190601f168015610dc45780820380516001836020036101000a031916815260200191505b509250505060405180910390a1610dda88611246565b95507f1a0f921ce3c6f2f0f6be5b624a487bc1d5143e1fd1833154f39ab63e13d8975586604051808273ffffffffffffffffffffffffffffffffffffffff1673ffffffffffffffffffffffffffffffffffffffff16815260200191505060405180910390a1610e5560148b018c61126390919063ffffffff16565b63ffffffff169450610e6b8b60148c01876112bd565b93507f090488eede6071b3dc8bd6f7821d5d6d147602c20be98ed1250b52537184572e856040518082815260200191505060405180910390a1610eb48b600460148d0101611398565b92507f406960f736714bc4148a525a4d9889556a89da348ad82f4286dbf3b264f4b3848360405180827bffffffffffffffffffffffffffffffffffffffffffffffffffffffff19167bffffffffffffffffffffffffffffffffffffffffffffffffffffffff1916815260200191505060405180910390a163614619547c0100000000000000000000000000000000000000000000000000000000027bffffffffffffffffffffffffffffffffffffffffffffffffffffffff1916837bffffffffffffffffffffffffffffffffffffffffffffffffffffffff19161415610fcc577ffffbd8d2ae08518f705cd095a510140fb4d4786a444e958db82944be9cd75e36856040518082815260200191505060405180910390a15b600460148b01019150610fe8828c6113b990919063ffffffff16565b90508482019950610c64565b5050505050505050505050565b600061100b6113c9565b73ffffffffffffffffffffffffffffffffffffffff166304bf2a7f836040518263ffffffff167c01000000000000000000000000000000000000000000000000000000000281526004018080602001828103825283818151815260200191508051906020019080838360005b83811015611092578082015181840152602081019050611077565b50505050905090810190601f1680156110bf5780820380516001836020036101000a031916815260200191505b5092505050602060405180830381600087803b1580156110de57600080fd5b505af11580156110f2573d6000803e3d6000fd5b505050506040513d602081101561110857600080fd5b81019080805190602001909291905050509050919050565b60006001905090565b600060035414151561113a57600080fd5b6111426114cb565b600381905550565b600080600073ffffffffffffffffffffffffffffffffffffffff168373ffffffffffffffffffffffffffffffffffffffff16141561118b5760009150611196565b823b90506000811191505b50919050565b60006111a98260006114d3565b9050919050565b60606111cb6004808451038461152d9092919063ffffffff16565b9050919050565b6060600080600080600093506000925060009150600090505b85811115156112225782935061120d601485018861126390919063ffffffff16565b63ffffffff16915080806001019150506111eb565b61123a84601484018961152d9092919063ffffffff16565b94505050505092915050565b600061125c60008361157390919063ffffffff16565b9050919050565b60008061127084846115bd565b90507c01000000000000000000000000000000000000000000000000000000007fffffffff0000000000000000000000000000000000000000000000000000000082160491505092915050565b6060816040519080825280601f01601f1916602001820160405280156112f25781602001602082028038833980820191505090505b5090507ff6e77f300e8e53d1afb6e6a703d4e485623f3cd54c6dd4771d2aafaa53ec1b92816040518080602001828103825283818151815260200191508051906020019080838360005b8381101561135757808201518184015260208101905061133c565b50505050905090810190601f1680156113845780820380516001836020036101000a031916815260200191505b509250505060405180910390a19392505050565b60008082600401840151905060e081600019169060020a0291505092915050565b6000816020018301905092915050565b6000806000809054906101000a900473ffffffffffffffffffffffffffffffffffffffff1673ffffffffffffffffffffffffffffffffffffffff166342c71f1d7f34f01c17e9be6ddbf2c61f37b5b1fb9f1a090a975006581ad19bda1c4d3828716001026040518263ffffffff167c0100000000000000000000000000000000000000000000000000000000028152600401808260001916600019168152602001915050602060405180830381600087803b15801561148757600080fd5b505af115801561149b573d6000803e3d6000fd5b505050506040513d60208110156114b157600080fd5b810190808051906020019092919050505090508091505090565b600043905090565b6000806114e084846115ce565b90507c01000000000000000000000000000000000000000000000000000000007fffffffff0000000000000000000000000000000000000000000000000000000082160491505092915050565b6060600084518385011115151561154357600080fd5b60008314156115515761156b565b61155a856115df565b9050611568848201846115ec565b91505b509392505050565b60008061158084846115bd565b90506c010000000000000000000000007fffffffffffffffffffffffffffffffffffffffff00000000000000000000000082160491505092915050565b600081602001830151905092915050565b600081602001830151905092915050565b6000602082019050919050565b60606000826040519080825280601f01601f1916602001820160405280156116235781602001602082028038833980820191505090505b50915060208201905061163784828561163e565b5092915050565b60005b6020821015156116665783518352602083019250602084019350602082039150611641565b6001826020036101000a03905080198451168184511681811785525050505050505600a165627a7a723058205657e937c3033be7a6d9196eea10569fdfac7d63a32e3e7ffb8ef682c8f614c80029",
  "source": "pragma solidity ^0.4.24;\n\nimport \"@aragon/os/contracts/apps/AragonApp.sol\";\nimport \"@aragon/os/contracts/common/IForwarder.sol\";\nimport \"@aragon/os/contracts/evmscript/IEVMScriptExecutor.sol\";\nimport \"@aragon/os/contracts/evmscript/ScriptHelpers.sol\";\nimport \"@aragon/os/contracts/lib/minime/MiniMeToken.sol\";\nimport \"@aragon/os/contracts/lib/zeppelin/math/SafeMath.sol\";\nimport \"@aragon/os/contracts/lib/zeppelin/math/SafeMath64.sol\";\nimport \"@aragon/os/contracts/lib/misc/Migrations.sol\";\n\nlibrary Memory {\n\n    // Size of a word, in bytes.\n    uint internal constant WORD_SIZE = 32;\n    // Size of the header of a 'bytes' array.\n    uint internal constant BYTES_HEADER_SIZE = 32;\n    // Address of the free memory pointer.\n    uint internal constant FREE_MEM_PTR = 0x40;\n\n    // Compares the 'len' bytes starting at address 'addr' in memory with the 'len'\n    // bytes starting at 'addr2'.\n    // Returns 'true' if the bytes are the same, otherwise 'false'.\n    function equals(uint addr, uint addr2, uint len) internal pure returns (bool equal) {\n        assembly {\n            equal := eq(keccak256(addr, len), keccak256(addr2, len))\n        }\n    }\n\n    // Compares the 'len' bytes starting at address 'addr' in memory with the bytes stored in\n    // 'bts'. It is allowed to set 'len' to a lower value then 'bts.length', in which case only\n    // the first 'len' bytes will be compared.\n    // Requires that 'bts.length >= len'\n    function equals(uint addr, uint len, bytes memory bts) internal pure returns (bool equal) {\n        require(bts.length >= len);\n        uint addr2;\n        assembly {\n            addr2 := add(bts, /*BYTES_HEADER_SIZE*/32)\n        }\n        return equals(addr, addr2, len);\n    }\n\n    // Allocates 'numBytes' bytes in memory. This will prevent the Solidity compiler\n    // from using this area of memory. It will also initialize the area by setting\n    // each byte to '0'.\n    function allocate(uint numBytes) internal pure returns (uint addr) {\n        // Take the current value of the free memory pointer, and update.\n        assembly {\n            addr := mload(/*FREE_MEM_PTR*/0x40)\n            mstore(/*FREE_MEM_PTR*/0x40, add(addr, numBytes))\n        }\n        uint words = (numBytes + WORD_SIZE - 1) / WORD_SIZE;\n        for (uint i = 0; i < words; i++) {\n            assembly {\n                mstore(add(addr, mul(i, /*WORD_SIZE*/32)), 0)\n            }\n        }\n    }\n\n    // Copy 'len' bytes from memory address 'src', to address 'dest'.\n    // This function does not check the or destination, it only copies\n    // the bytes.\n    function copy(uint src, uint dest, uint len) internal pure {\n        // Copy word-length chunks while possible\n        for (; len >= WORD_SIZE; len -= WORD_SIZE) {\n            assembly {\n                mstore(dest, mload(src))\n            }\n            dest += WORD_SIZE;\n            src += WORD_SIZE;\n        }\n\n        // Copy remaining bytes\n        uint mask = 256 ** (WORD_SIZE - len) - 1;\n        assembly {\n            let srcpart := and(mload(src), not(mask))\n            let destpart := and(mload(dest), mask)\n            mstore(dest, or(destpart, srcpart))\n        }\n    }\n\n    // Returns a memory pointer to the provided bytes array.\n    function ptr(bytes memory bts) internal pure returns (uint addr) {\n        assembly {\n            addr := bts\n        }\n    }\n\n    // Returns a memory pointer to the data portion of the provided bytes array.\n    function dataPtr(bytes memory bts) internal pure returns (uint addr) {\n        assembly {\n            addr := add(bts, /*BYTES_HEADER_SIZE*/32)\n        }\n    }\n\n    // This function does the same as 'dataPtr(bytes memory)', but will also return the\n    // length of the provided bytes array.\n    function fromBytes(bytes memory bts) internal pure returns (uint addr, uint len) {\n        len = bts.length;\n        assembly {\n            addr := add(bts, /*BYTES_HEADER_SIZE*/32)\n        }\n    }\n\n    // Creates a 'bytes memory' variable from the memory address 'addr', with the\n    // length 'len'. The function will allocate new memory for the bytes array, and\n    // the 'len bytes starting at 'addr' will be copied into that new memory.\n    function toBytes(uint addr, uint len) internal pure returns (bytes memory bts) {\n        bts = new bytes(len);\n        uint btsptr;\n        assembly {\n            btsptr := add(bts, /*BYTES_HEADER_SIZE*/32)\n        }\n        copy(addr, btsptr, len);\n    }\n\n    // Get the word stored at memory address 'addr' as a 'uint'.\n    function toUint(uint addr) internal pure returns (uint n) {\n        assembly {\n            n := mload(addr)\n        }\n    }\n\n    // Get the word stored at memory address 'addr' as a 'bytes32'.\n    function toBytes32(uint addr) internal pure returns (bytes32 bts) {\n        assembly {\n            bts := mload(addr)\n        }\n    }\n\n    /*\n    // Get the byte stored at memory address 'addr' as a 'byte'.\n    function toByte(uint addr, uint8 index) internal pure returns (byte b) {\n        require(index < WORD_SIZE);\n        uint8 n;\n        assembly {\n            n := byte(index, mload(addr))\n        }\n        b = byte(n);\n    }\n    */\n}\n\n\nlibrary Bytes {\n\n    uint internal constant BYTES_HEADER_SIZE = 32;\n\n    // Checks if two `bytes memory` variables are equal. This is done using hashing,\n    // which is much more gas efficient then comparing each byte individually.\n    // Equality means that:\n    //  - 'self.length == other.length'\n    //  - For 'n' in '[0, self.length)', 'self[n] == other[n]'\n    function equals(bytes memory self, bytes memory other) internal pure returns (bool equal) {\n        if (self.length != other.length) {\n            return false;\n        }\n        uint addr;\n        uint addr2;\n        assembly {\n            addr := add(self, /*BYTES_HEADER_SIZE*/32)\n            addr2 := add(other, /*BYTES_HEADER_SIZE*/32)\n        }\n        equal = Memory.equals(addr, addr2, self.length);\n    }\n\n    // Checks if two 'bytes memory' variables points to the same bytes array.\n    // Technically this is done by de-referencing the two arrays in inline assembly,\n    // and checking if the values are the same.\n    function equalsRef(bytes memory self, bytes memory other) internal pure returns (bool equal) {\n        assembly {\n            equal := eq(self, other)\n        }\n    }\n\n    // Copies a byte array.\n    // Returns the copied bytes.\n    // The function works by creating a new bytes array in memory, with the\n    // same length as 'self', then copying all the bytes from 'self' into\n    // the new array.\n    function copy(bytes memory self) internal pure returns (bytes memory) {\n        if (self.length == 0) {\n            return;\n        }\n        var addr = Memory.dataPtr(self);\n        return Memory.toBytes(addr, self.length);\n    }\n\n    // Copies a section of 'self' into a new array, starting at the provided 'startIndex'.\n    // Returns the new copy.\n    // Requires that 'startIndex <= self.length'\n    // The length of the substring is: 'self.length - startIndex'\n    function substr(bytes memory self, uint startIndex) internal pure returns (bytes memory) {\n        require(startIndex <= self.length);\n        var len = self.length - startIndex;\n        var addr = Memory.dataPtr(self);\n        return Memory.toBytes(addr + startIndex, len);\n    }\n\n    // Copies 'len' bytes from 'self' into a new array, starting at the provided 'startIndex'.\n    // Returns the new copy.\n    // Requires that:\n    //  - 'startIndex + len <= self.length'\n    // The length of the substring is: 'len'\n    function substr(bytes memory self, uint startIndex, uint len) internal pure returns (bytes memory) {\n        require(startIndex + len <= self.length);\n        if (len == 0) {\n            return;\n        }\n        var addr = Memory.dataPtr(self);\n        return Memory.toBytes(addr + startIndex, len);\n    }\n\n    // Combines 'self' and 'other' into a single array.\n    // Returns the concatenated arrays:\n    //  [self[0], self[1], ... , self[self.length - 1], other[0], other[1], ... , other[other.length - 1]]\n    // The length of the new array is 'self.length + other.length'\n    function concat(bytes memory self, bytes memory other) internal pure returns (bytes memory) {\n        bytes memory ret = new bytes(self.length + other.length);\n        var (src, srcLen) = Memory.fromBytes(self);\n        var (src2, src2Len) = Memory.fromBytes(other);\n        var (dest,) = Memory.fromBytes(ret);\n        var dest2 = dest + src2Len;\n        Memory.copy(src, dest, srcLen);\n        Memory.copy(src2, dest2, src2Len);\n        return ret;\n    }\n\n    // Copies a section of a 'bytes32' starting at the provided 'startIndex'.\n    // Returns the copied bytes (padded to the right) as a new 'bytes32'.\n    // Requires that 'startIndex < 32'\n    function substr(bytes32 self, uint8 startIndex) internal pure returns (bytes32) {\n        require(startIndex < 32);\n        return bytes32(uint(self) << startIndex*8);\n    }\n\n    // Copies 'len' bytes from 'self' into a new array, starting at the provided 'startIndex'.\n    // Returns the copied bytes (padded to the right) as a new 'bytes32'.\n    // Requires that:\n    //  - 'startIndex < 32'\n    //  - 'startIndex + len <= 32'\n    function substr(bytes32 self, uint8 startIndex, uint8 len) internal pure returns (bytes32) {\n        require(startIndex < 32 && startIndex + len <= 32);\n        return bytes32(uint(self) << startIndex*8 & ~uint(0) << (32 - len)*8);\n    }\n\n    // Copies 'self' into a new 'bytes memory'.\n    // Returns the newly created 'bytes memory'\n    // The returned bytes will be of length '32'.\n    function toBytes(bytes32 self) internal pure returns (bytes memory bts) {\n        bts = new bytes(32);\n        assembly {\n            mstore(add(bts, /*BYTES_HEADER_SIZE*/32), self)\n        }\n    }\n\n    // Copies 'len' bytes from 'self' into a new 'bytes memory', starting at index '0'.\n    // Returns the newly created 'bytes memory'\n    // The returned bytes will be of length 'len'.\n    function toBytes(bytes32 self, uint8 len) internal pure returns (bytes memory bts) {\n        require(len <= 32);\n        bts = new bytes(len);\n        // Even though the bytes will allocate a full word, we don't want\n        // any potential garbage bytes in there.\n        uint data = uint(self) & ~uint(0) << (32 - len)*8;\n        assembly {\n            mstore(add(bts, /*BYTES_HEADER_SIZE*/32), data)\n        }\n    }\n\n    // Copies 'self' into a new 'bytes memory'.\n    // Returns the newly created 'bytes memory'\n    // The returned bytes will be of length '20'.\n    function toBytes(address self) internal pure returns (bytes memory bts) {\n        bts = toBytes(bytes32(uint(self) << 96), 20);\n    }\n\n    // Copies 'self' into a new 'bytes memory'.\n    // Returns the newly created 'bytes memory'\n    // The returned bytes will be of length '32'.\n    function toBytes(uint self) internal pure returns (bytes memory bts) {\n        bts = toBytes(bytes32(self), 32);\n    }\n\n    // Copies 'self' into a new 'bytes memory'.\n    // Returns the newly created 'bytes memory'\n    // Requires that:\n    //  - '8 <= bitsize <= 256'\n    //  - 'bitsize % 8 == 0'\n    // The returned bytes will be of length 'bitsize / 8'.\n    function toBytes(uint self, uint16 bitsize) internal pure returns (bytes memory bts) {\n        require(8 <= bitsize && bitsize <= 256 && bitsize % 8 == 0);\n        self <<= 256 - bitsize;\n        bts = toBytes(bytes32(self), uint8(bitsize / 8));\n    }\n\n    // Copies 'self' into a new 'bytes memory'.\n    // Returns the newly created 'bytes memory'\n    // The returned bytes will be of length '1', and:\n    //  - 'bts[0] == 0 (if self == false)'\n    //  - 'bts[0] == 1 (if self == true)'\n    function toBytes(bool self) internal pure returns (bytes memory bts) {\n        bts = new bytes(1);\n        bts[0] = self ? byte(1) : byte(0);\n    }\n\n    // Computes the index of the highest byte set in 'self'.\n    // Returns the index.\n    // Requires that 'self != 0'\n    // Uses big endian ordering (the most significant byte has index '0').\n    function highestByteSet(bytes32 self) internal pure returns (uint8 highest) {\n        highest = 31 - lowestByteSet(uint(self));\n    }\n\n    // Computes the index of the lowest byte set in 'self'.\n    // Returns the index.\n    // Requires that 'self != 0'\n    // Uses big endian ordering (the most significant byte has index '0').\n    function lowestByteSet(bytes32 self) internal pure returns (uint8 lowest) {\n        lowest = 31 - highestByteSet(uint(self));\n    }\n\n    // Computes the index of the highest byte set in 'self'.\n    // Returns the index.\n    // Requires that 'self != 0'\n    // Uses little endian ordering (the least significant byte has index '0').\n    function highestByteSet(uint self) internal pure returns (uint8 highest) {\n        require(self != 0);\n        uint ret;\n        if (self & 0xffffffffffffffffffffffffffffffff00000000000000000000000000000000 != 0) {\n            ret += 16;\n            self >>= 128;\n        }\n        if (self & 0xffffffffffffffff0000000000000000 != 0) {\n            ret += 8;\n            self >>= 64;\n        }\n        if (self & 0xffffffff00000000 != 0) {\n            ret += 4;\n            self >>= 32;\n        }\n        if (self & 0xffff0000 != 0) {\n            ret += 2;\n            self >>= 16;\n        }\n        if (self & 0xff00 != 0) {\n            ret += 1;\n        }\n        highest = uint8(ret);\n    }\n\n    // Computes the index of the lowest byte set in 'self'.\n    // Returns the index.\n    // Requires that 'self != 0'\n    // Uses little endian ordering (the least significant byte has index '0').\n    function lowestByteSet(uint self) internal pure returns (uint8 lowest) {\n        require(self != 0);\n        uint ret;\n        if (self & 0xffffffffffffffffffffffffffffffff == 0) {\n            ret += 16;\n            self >>= 128;\n        }\n        if (self & 0xffffffffffffffff == 0) {\n            ret += 8;\n            self >>= 64;\n        }\n        if (self & 0xffffffff == 0) {\n            ret += 4;\n            self >>= 32;\n        }\n        if (self & 0xffff == 0) {\n            ret += 2;\n            self >>= 16;\n        }\n        if (self & 0xff == 0) {\n            ret += 1;\n        }\n        lowest = uint8(ret);\n    }\n\n}\n\n\nlibrary PandoScriptHelpers {\n\n    using Bytes for bytes;\n    using ScriptHelpers for bytes;\n\n\n    event CDLength(uint256 length);\n\n    function uint256Att(bytes _data, uint256 _location) internal pure returns (uint256 result) {\n        assembly {\n            result := mload(add(_data, add(0x20, _location)))\n        }\n    }\n\n    function uint32Att(bytes _data, uint256 _location) internal pure returns (uint32 result) {\n       uint256 word = uint256Att(_data, _location);\n\n       assembly {\n           result := div(and(word, 0xffffffff00000000000000000000000000000000000000000000000000000000),\n           0x100000000000000000000000000000000000000000000000000000000)\n       }\n   }\n\n   function getSpecId(bytes _script) internal pure returns (uint32) {\n        return uint32Att(_script, 0);\n    }\n\n\n    function addressAtt(bytes _data, uint256 _location) internal pure returns (address result) {\n        uint256 word = uint256Att(_data, _location);\n\n        assembly {\n            result := div(and(word, 0xffffffffffffffffffffffffffffffffffffffff000000000000000000000000),\n            0x1000000000000000000000000)\n        }\n    }\n\n    function extractSpecId(bytes _script) internal pure returns (uint32 result) {\n         result = uint32Att(_script, 0);\n     }\n\n     /* while (location < _script.length) {\n                address contractAddress = _script.addressAt(location);\n                // Check address being called is not blacklist\n                for (uint i = 0; i < _blacklist.length; i++) {\n                    require(contractAddress != _blacklist[i]);\n                }\n\n                // logged before execution to ensure event ordering in receipt\n                // if failed entire execution is reverted regardless\n                LogScriptCall(msg.sender, address(this), contractAddress);\n\n                uint256 calldataLength = uint256(_script.uint32At(location + 0x14));\n                uint256 startOffset = location + 0x14 + 0x04;\n                uint256 calldataStart = _script.locationOf(startOffset);\n\n                // compute end of script / next location\n                location = startOffset + calldataLength;\n } */\n\n\n    function extractCalls(bytes _script) internal pure returns (bytes result) {\n        result = _script.substr(4, _script.length - 4);\n        /* result.length = _script.length - 4; */\n        /* result = _script; */\n    }\n\n    function extractCall(bytes _script, uint256 _index) internal returns (bytes result) {\n        uint256 start = 0;\n        uint256 end   = 0;\n        uint256 calldataLength = 0;\n\n        for (uint i = 0 ; i <= _index ; i++) {\n            start = end;\n            /* if(start + 0x14 > _script.length) {\n                return;\n            } */\n            calldataLength = uint256(_script.uint32At(start + 0x14));\n            start + 0x14 + calldataLength;\n        }\n\n\n        result = _script.substr(start, calldataLength + 0x14);\n\n    }\n\n    function extractTarget(bytes _data) internal pure returns (address result) {\n        return _data.addressAt(0);\n    }\n\n}\n\n\n\ncontract LineageVoting is IForwarder, AragonApp {\n    using PandoScriptHelpers for bytes;\n    using SafeMath for uint256;\n    using SafeMath64 for uint64;\n\n\n    event Test(bytes value);\n    event Signature(bytes4 sig);\n    event ContractAddress(address addr);\n    event Length(uint256 length);\n    event Lineage(uint256 amount);\n\n    event Calls(bytes calls);\n    event Call(bytes call);\n    event Params(bytes params);\n    event Calldata(bytes params);\n\n\n    /******************************/\n    /*      EXTERNAL METHODS      */\n    /******************************/\n\n\n    function initialize() onlyInit external {\n        initialized();\n    }\n\n    /*******************************/\n    /*      FORWARDER METHODS      */\n    /*******************************/\n\n    function isForwarder() public pure returns (bool) {\n        return true;\n    }\n\n\n    function signatureAt(bytes _data, uint256 _location) internal pure returns (bytes4 signature) {\n        bytes32 word;\n\n        assembly {\n            word := mload(add(_data, add(0x4, _location)))\n            /* word := div(and(word, 0x000000000000000000000000000000000000000000000000000000000000ffffffff), 0x100000000000000000000000000000000000000000000000000000000) */\n        }\n\n        signature = bytes4(word << (32 - 4) * 8);\n    }\n\n    function calldataAt(bytes _data, uint256 _location, uint256 _calldataLength) internal /*pure*/ returns (bytes calldata) {\n        calldata = new bytes(_calldataLength);\n\n\n\n        emit Calldata(calldata);\n    }\n\n    /* function datataAt */\n\n\n\n\n\n    function forward(bytes _script) public {\n\n        uint256 location = 4; // first 32 bits are spec id\n\n        while (location < _script.length) {\n            uint32 specId       = _script.extractSpecId();\n            bytes  memory calls = _script.extractCalls();\n            bytes  memory call  = calls.extractCall(0);\n            /* uint256 length = calls.extractCall(0); */\n\n            emit Calls(calls);\n\n            emit Call(call);\n            /* bytes   memory call  = _calls.extractCall();\n            address target = _script.extractTarget(); */\n\n            address destination = calls.extractTarget();\n            emit ContractAddress(destination);\n\n            uint256 calldataLength = uint256(_script.uint32At(location + 0x14)); // 0x14 = length of an address\n\n\n            bytes memory cdata = calldataAt(_script, location + 0x14, calldataLength);\n\n\n\n\n            emit Length(calldataLength);\n            bytes4 sig = signatureAt(_script, location + 0x14 + 0x4);\n            emit Signature(sig);\n\n            if (sig == bytes4(0x61461954)) {\n                emit Lineage(calldataLength);\n            }\n\n\n\n\n            uint256 startOffset = location + 0x14 + 0x04;\n            uint256 calldataStart = _script.locationOf(startOffset);\n\n            // compute end of script / next location\n            location = startOffset + calldataLength;\n            /* require(location <= _script.length);\n\n            assembly {\n                let success := call(sub(gas, 5000), contractAddress, 0, calldataStart, calldataLength, 0, 0)\n                switch success case 0 { revert(0, 0) }\n            } */\n        }\n        // what is the nature of the forwarding\n        // what is the exact nature of the acction being forwarded\n\n        // either just voting : merge or rejected\n        // either just granting lineage app : for instance an inspiration\n        // both of it:\n\n        /* IEVMScriptExecutor executor = getExecutor(_script); */\n        /* require(address(executor) != address(0)); */\n\n        /* bytes4 sig = executor.execScript.selector; */\n\n        /* emit Test(_script);\n        emit Signature(sig); */\n\n        /* require(canForward(msg.sender, _evmScript)); */\n\n    }\n\n    function canForward(address sender, bytes evmCallScript) public view returns (bool) {\n        return true;\n    }\n\n}\n",
  "sourcePath": "/Users/osarrouy/Documents/dapp/@pando/packages/core/contracts/branch/kits/LineageVoting.sol",
  "compiler": {
    "name": "solc",
    "version": "0.4.24+commit.e67f0147.Emscripten.clang"
  },
  "schemaVersion": "2.0.1",
  "updatedAt": "2018-10-05T12:39:51.562Z"
}