{
  "contractName": "Organism",
  "abi": [
    {
      "constant": true,
      "inputs": [],
      "name": "hasInitialized",
      "outputs": [
        {
          "name": "",
          "type": "bool"
        }
      ],
      "payable": false,
      "stateMutability": "view",
      "type": "function"
    },
    {
      "constant": true,
      "inputs": [],
      "name": "REJECT_RFL_ROLE",
      "outputs": [
        {
          "name": "",
          "type": "bytes32"
        }
      ],
      "payable": false,
      "stateMutability": "view",
      "type": "function"
    },
    {
      "constant": true,
      "inputs": [],
      "name": "RFLsLength",
      "outputs": [
        {
          "name": "",
          "type": "uint256"
        }
      ],
      "payable": false,
      "stateMutability": "view",
      "type": "function"
    },
    {
      "constant": true,
      "inputs": [],
      "name": "KERNEL_APP_ID",
      "outputs": [
        {
          "name": "",
          "type": "bytes32"
        }
      ],
      "payable": false,
      "stateMutability": "view",
      "type": "function"
    },
    {
      "constant": true,
      "inputs": [],
      "name": "APP_ADDR_NAMESPACE",
      "outputs": [
        {
          "name": "",
          "type": "bytes32"
        }
      ],
      "payable": false,
      "stateMutability": "view",
      "type": "function"
    },
    {
      "constant": true,
      "inputs": [],
      "name": "CREATE_RFI_ROLE",
      "outputs": [
        {
          "name": "",
          "type": "bytes32"
        }
      ],
      "payable": false,
      "stateMutability": "view",
      "type": "function"
    },
    {
      "constant": true,
      "inputs": [],
      "name": "MERGE_RFI_ROLE",
      "outputs": [
        {
          "name": "",
          "type": "bytes32"
        }
      ],
      "payable": false,
      "stateMutability": "view",
      "type": "function"
    },
    {
      "constant": true,
      "inputs": [],
      "name": "getRecoveryVault",
      "outputs": [
        {
          "name": "",
          "type": "address"
        }
      ],
      "payable": false,
      "stateMutability": "view",
      "type": "function"
    },
    {
      "constant": true,
      "inputs": [
        {
          "name": "",
          "type": "uint256"
        }
      ],
      "name": "RFIs",
      "outputs": [
        {
          "components": [
            {
              "name": "origin",
              "type": "address"
            },
            {
              "name": "tree",
              "type": "string"
            },
            {
              "name": "message",
              "type": "string"
            },
            {
              "name": "metadata",
              "type": "string"
            },
            {
              "components": [
                {
                  "name": "api",
                  "type": "address"
                },
                {
                  "name": "hash",
                  "type": "bytes32"
                }
              ],
              "name": "parents",
              "type": "tuple[]"
            }
          ],
          "name": "individuation",
          "type": "tuple"
        },
        {
          "name": "blockstamp",
          "type": "uint256"
        },
        {
          "name": "state",
          "type": "uint8"
        }
      ],
      "payable": false,
      "stateMutability": "view",
      "type": "function"
    },
    {
      "constant": true,
      "inputs": [],
      "name": "EVMSCRIPT_REGISTRY_APP_ID",
      "outputs": [
        {
          "name": "",
          "type": "bytes32"
        }
      ],
      "payable": false,
      "stateMutability": "view",
      "type": "function"
    },
    {
      "constant": true,
      "inputs": [],
      "name": "CORE_NAMESPACE",
      "outputs": [
        {
          "name": "",
          "type": "bytes32"
        }
      ],
      "payable": false,
      "stateMutability": "view",
      "type": "function"
    },
    {
      "constant": true,
      "inputs": [
        {
          "name": "token",
          "type": "address"
        }
      ],
      "name": "allowRecoverability",
      "outputs": [
        {
          "name": "",
          "type": "bool"
        }
      ],
      "payable": false,
      "stateMutability": "view",
      "type": "function"
    },
    {
      "constant": true,
      "inputs": [],
      "name": "RFIsLength",
      "outputs": [
        {
          "name": "",
          "type": "uint256"
        }
      ],
      "payable": false,
      "stateMutability": "view",
      "type": "function"
    },
    {
      "constant": true,
      "inputs": [],
      "name": "appId",
      "outputs": [
        {
          "name": "",
          "type": "bytes32"
        }
      ],
      "payable": false,
      "stateMutability": "view",
      "type": "function"
    },
    {
      "constant": true,
      "inputs": [],
      "name": "ETH",
      "outputs": [
        {
          "name": "",
          "type": "address"
        }
      ],
      "payable": false,
      "stateMutability": "view",
      "type": "function"
    },
    {
      "constant": true,
      "inputs": [],
      "name": "getInitializationBlock",
      "outputs": [
        {
          "name": "",
          "type": "uint256"
        }
      ],
      "payable": false,
      "stateMutability": "view",
      "type": "function"
    },
    {
      "constant": true,
      "inputs": [],
      "name": "head",
      "outputs": [
        {
          "name": "",
          "type": "bytes32"
        }
      ],
      "payable": false,
      "stateMutability": "view",
      "type": "function"
    },
    {
      "constant": true,
      "inputs": [],
      "name": "REJECT_RFI_ROLE",
      "outputs": [
        {
          "name": "",
          "type": "bytes32"
        }
      ],
      "payable": false,
      "stateMutability": "view",
      "type": "function"
    },
    {
      "constant": false,
      "inputs": [
        {
          "name": "_token",
          "type": "address"
        }
      ],
      "name": "transferToVault",
      "outputs": [],
      "payable": false,
      "stateMutability": "nonpayable",
      "type": "function"
    },
    {
      "constant": true,
      "inputs": [
        {
          "name": "_sender",
          "type": "address"
        },
        {
          "name": "_role",
          "type": "bytes32"
        },
        {
          "name": "_params",
          "type": "uint256[]"
        }
      ],
      "name": "canPerform",
      "outputs": [
        {
          "name": "",
          "type": "bool"
        }
      ],
      "payable": false,
      "stateMutability": "view",
      "type": "function"
    },
    {
      "constant": true,
      "inputs": [],
      "name": "ACCEPT_RFL_ROLE",
      "outputs": [
        {
          "name": "",
          "type": "bytes32"
        }
      ],
      "payable": false,
      "stateMutability": "view",
      "type": "function"
    },
    {
      "constant": true,
      "inputs": [],
      "name": "BURN_ROLE",
      "outputs": [
        {
          "name": "",
          "type": "bytes32"
        }
      ],
      "payable": false,
      "stateMutability": "view",
      "type": "function"
    },
    {
      "constant": true,
      "inputs": [],
      "name": "INDIVIDUATE_ROLE",
      "outputs": [
        {
          "name": "",
          "type": "bytes32"
        }
      ],
      "payable": false,
      "stateMutability": "view",
      "type": "function"
    },
    {
      "constant": true,
      "inputs": [
        {
          "name": "",
          "type": "uint256"
        }
      ],
      "name": "RFLs",
      "outputs": [
        {
          "components": [
            {
              "name": "destination",
              "type": "address"
            },
            {
              "name": "minimum",
              "type": "uint256"
            },
            {
              "name": "metadata",
              "type": "string"
            }
          ],
          "name": "lineage",
          "type": "tuple"
        },
        {
          "name": "blockstamp",
          "type": "uint256"
        },
        {
          "name": "value",
          "type": "uint256"
        },
        {
          "name": "state",
          "type": "uint8"
        },
        {
          "name": "RFIid",
          "type": "uint256"
        }
      ],
      "payable": false,
      "stateMutability": "view",
      "type": "function"
    },
    {
      "constant": true,
      "inputs": [],
      "name": "ACL_APP_ID",
      "outputs": [
        {
          "name": "",
          "type": "bytes32"
        }
      ],
      "payable": false,
      "stateMutability": "view",
      "type": "function"
    },
    {
      "constant": true,
      "inputs": [],
      "name": "kernel",
      "outputs": [
        {
          "name": "",
          "type": "address"
        }
      ],
      "payable": false,
      "stateMutability": "view",
      "type": "function"
    },
    {
      "constant": true,
      "inputs": [],
      "name": "APP_BASES_NAMESPACE",
      "outputs": [
        {
          "name": "",
          "type": "bytes32"
        }
      ],
      "payable": false,
      "stateMutability": "view",
      "type": "function"
    },
    {
      "constant": true,
      "inputs": [],
      "name": "isPetrified",
      "outputs": [
        {
          "name": "",
          "type": "bool"
        }
      ],
      "payable": false,
      "stateMutability": "view",
      "type": "function"
    },
    {
      "constant": true,
      "inputs": [],
      "name": "MINT_ROLE",
      "outputs": [
        {
          "name": "",
          "type": "bytes32"
        }
      ],
      "payable": false,
      "stateMutability": "view",
      "type": "function"
    },
    {
      "constant": true,
      "inputs": [
        {
          "name": "",
          "type": "bytes32"
        }
      ],
      "name": "individuations",
      "outputs": [
        {
          "name": "origin",
          "type": "address"
        },
        {
          "name": "blockstamp",
          "type": "uint256"
        },
        {
          "name": "tree",
          "type": "string"
        },
        {
          "name": "message",
          "type": "string"
        },
        {
          "name": "metadata",
          "type": "string"
        }
      ],
      "payable": false,
      "stateMutability": "view",
      "type": "function"
    },
    {
      "constant": true,
      "inputs": [
        {
          "name": "_script",
          "type": "bytes"
        }
      ],
      "name": "getExecutor",
      "outputs": [
        {
          "name": "",
          "type": "address"
        }
      ],
      "payable": false,
      "stateMutability": "view",
      "type": "function"
    },
    {
      "constant": true,
      "inputs": [],
      "name": "token",
      "outputs": [
        {
          "name": "",
          "type": "address"
        }
      ],
      "payable": false,
      "stateMutability": "view",
      "type": "function"
    },
    {
      "anonymous": false,
      "inputs": [
        {
          "indexed": true,
          "name": "id",
          "type": "uint256"
        }
      ],
      "name": "CreateRFI",
      "type": "event"
    },
    {
      "anonymous": false,
      "inputs": [
        {
          "indexed": true,
          "name": "id",
          "type": "uint256"
        }
      ],
      "name": "MergeRFI",
      "type": "event"
    },
    {
      "anonymous": false,
      "inputs": [
        {
          "indexed": true,
          "name": "id",
          "type": "uint256"
        }
      ],
      "name": "RejectRFI",
      "type": "event"
    },
    {
      "anonymous": false,
      "inputs": [
        {
          "indexed": true,
          "name": "id",
          "type": "uint256"
        }
      ],
      "name": "CancelRFI",
      "type": "event"
    },
    {
      "anonymous": false,
      "inputs": [
        {
          "indexed": true,
          "name": "id",
          "type": "uint256"
        }
      ],
      "name": "CreateRFL",
      "type": "event"
    },
    {
      "anonymous": false,
      "inputs": [
        {
          "indexed": true,
          "name": "id",
          "type": "uint256"
        },
        {
          "indexed": false,
          "name": "value",
          "type": "uint256"
        }
      ],
      "name": "AcceptRFL",
      "type": "event"
    },
    {
      "anonymous": false,
      "inputs": [
        {
          "indexed": true,
          "name": "id",
          "type": "uint256"
        }
      ],
      "name": "RejectRFL",
      "type": "event"
    },
    {
      "anonymous": false,
      "inputs": [
        {
          "indexed": true,
          "name": "id",
          "type": "uint256"
        }
      ],
      "name": "CancelRFL",
      "type": "event"
    },
    {
      "anonymous": false,
      "inputs": [
        {
          "indexed": true,
          "name": "id",
          "type": "uint256"
        },
        {
          "indexed": false,
          "name": "destination",
          "type": "address"
        },
        {
          "indexed": false,
          "name": "value",
          "type": "uint256"
        }
      ],
      "name": "IssueRFL",
      "type": "event"
    },
    {
      "anonymous": false,
      "inputs": [
        {
          "indexed": false,
          "name": "hash",
          "type": "bytes32"
        }
      ],
      "name": "Individuate",
      "type": "event"
    },
    {
      "anonymous": false,
      "inputs": [
        {
          "indexed": true,
          "name": "executor",
          "type": "address"
        },
        {
          "indexed": false,
          "name": "script",
          "type": "bytes"
        },
        {
          "indexed": false,
          "name": "input",
          "type": "bytes"
        },
        {
          "indexed": false,
          "name": "returnData",
          "type": "bytes"
        }
      ],
      "name": "ScriptResult",
      "type": "event"
    },
    {
      "constant": true,
      "inputs": [
        {
          "components": [
            {
              "components": [
                {
                  "name": "origin",
                  "type": "address"
                },
                {
                  "name": "tree",
                  "type": "string"
                },
                {
                  "name": "message",
                  "type": "string"
                },
                {
                  "name": "metadata",
                  "type": "string"
                },
                {
                  "components": [
                    {
                      "name": "api",
                      "type": "address"
                    },
                    {
                      "name": "hash",
                      "type": "bytes32"
                    }
                  ],
                  "name": "parents",
                  "type": "tuple[]"
                }
              ],
              "name": "individuation",
              "type": "tuple"
            },
            {
              "name": "blockstamp",
              "type": "uint256"
            },
            {
              "name": "state",
              "type": "uint8"
            },
            {
              "name": "RFLids",
              "type": "uint256[]"
            }
          ],
          "name": "_rfi",
          "type": "tuple"
        }
      ],
      "name": "isPending",
      "outputs": [
        {
          "name": "",
          "type": "bool"
        }
      ],
      "payable": false,
      "stateMutability": "pure",
      "type": "function"
    },
    {
      "constant": true,
      "inputs": [
        {
          "components": [
            {
              "components": [
                {
                  "name": "destination",
                  "type": "address"
                },
                {
                  "name": "minimum",
                  "type": "uint256"
                },
                {
                  "name": "metadata",
                  "type": "string"
                }
              ],
              "name": "lineage",
              "type": "tuple"
            },
            {
              "name": "blockstamp",
              "type": "uint256"
            },
            {
              "name": "value",
              "type": "uint256"
            },
            {
              "name": "state",
              "type": "uint8"
            },
            {
              "name": "RFIid",
              "type": "uint256"
            }
          ],
          "name": "_rfl",
          "type": "tuple"
        }
      ],
      "name": "isPending",
      "outputs": [
        {
          "name": "",
          "type": "bool"
        }
      ],
      "payable": false,
      "stateMutability": "pure",
      "type": "function"
    },
    {
      "constant": true,
      "inputs": [
        {
          "components": [
            {
              "components": [
                {
                  "name": "destination",
                  "type": "address"
                },
                {
                  "name": "minimum",
                  "type": "uint256"
                },
                {
                  "name": "metadata",
                  "type": "string"
                }
              ],
              "name": "lineage",
              "type": "tuple"
            },
            {
              "name": "blockstamp",
              "type": "uint256"
            },
            {
              "name": "value",
              "type": "uint256"
            },
            {
              "name": "state",
              "type": "uint8"
            },
            {
              "name": "RFIid",
              "type": "uint256"
            }
          ],
          "name": "_rfl",
          "type": "tuple"
        }
      ],
      "name": "isAccepted",
      "outputs": [
        {
          "name": "",
          "type": "bool"
        }
      ],
      "payable": false,
      "stateMutability": "pure",
      "type": "function"
    },
    {
      "constant": true,
      "inputs": [
        {
          "components": [
            {
              "name": "origin",
              "type": "address"
            },
            {
              "name": "blockstamp",
              "type": "uint256"
            },
            {
              "name": "tree",
              "type": "string"
            },
            {
              "name": "message",
              "type": "string"
            },
            {
              "name": "metadata",
              "type": "string"
            },
            {
              "components": [
                {
                  "name": "api",
                  "type": "address"
                },
                {
                  "name": "hash",
                  "type": "bytes32"
                }
              ],
              "name": "parents",
              "type": "tuple[]"
            }
          ],
          "name": "_individuation",
          "type": "tuple"
        }
      ],
      "name": "hash",
      "outputs": [
        {
          "name": "",
          "type": "bytes32"
        }
      ],
      "payable": false,
      "stateMutability": "pure",
      "type": "function"
    },
    {
      "constant": false,
      "inputs": [
        {
          "name": "_token",
          "type": "address"
        }
      ],
      "name": "initialize",
      "outputs": [],
      "payable": false,
      "stateMutability": "nonpayable",
      "type": "function"
    },
    {
      "constant": false,
      "inputs": [
        {
          "components": [
            {
              "name": "origin",
              "type": "address"
            },
            {
              "name": "tree",
              "type": "string"
            },
            {
              "name": "message",
              "type": "string"
            },
            {
              "name": "metadata",
              "type": "string"
            },
            {
              "components": [
                {
                  "name": "api",
                  "type": "address"
                },
                {
                  "name": "hash",
                  "type": "bytes32"
                }
              ],
              "name": "parents",
              "type": "tuple[]"
            }
          ],
          "name": "_individuation",
          "type": "tuple"
        },
        {
          "components": [
            {
              "name": "destination",
              "type": "address"
            },
            {
              "name": "minimum",
              "type": "uint256"
            },
            {
              "name": "metadata",
              "type": "string"
            }
          ],
          "name": "_lineages",
          "type": "tuple[]"
        }
      ],
      "name": "createRFI",
      "outputs": [
        {
          "name": "RFIid",
          "type": "uint256"
        }
      ],
      "payable": false,
      "stateMutability": "nonpayable",
      "type": "function"
    },
    {
      "constant": false,
      "inputs": [
        {
          "name": "_RFIid",
          "type": "uint256"
        }
      ],
      "name": "mergeRFI",
      "outputs": [],
      "payable": false,
      "stateMutability": "nonpayable",
      "type": "function"
    },
    {
      "constant": false,
      "inputs": [
        {
          "name": "_RFIid",
          "type": "uint256"
        }
      ],
      "name": "rejectRFI",
      "outputs": [],
      "payable": false,
      "stateMutability": "nonpayable",
      "type": "function"
    },
    {
      "constant": false,
      "inputs": [
        {
          "name": "_RFLid",
          "type": "uint256"
        },
        {
          "name": "_value",
          "type": "uint256"
        }
      ],
      "name": "acceptRFL",
      "outputs": [],
      "payable": false,
      "stateMutability": "nonpayable",
      "type": "function"
    },
    {
      "constant": false,
      "inputs": [
        {
          "name": "_RFLid",
          "type": "uint256"
        }
      ],
      "name": "rejectRFL",
      "outputs": [],
      "payable": false,
      "stateMutability": "nonpayable",
      "type": "function"
    },
    {
      "constant": false,
      "inputs": [
        {
          "name": "_receiver",
          "type": "address"
        },
        {
          "name": "_amount",
          "type": "uint256"
        }
      ],
      "name": "mint",
      "outputs": [],
      "payable": false,
      "stateMutability": "nonpayable",
      "type": "function"
    },
    {
      "constant": false,
      "inputs": [
        {
          "name": "_holder",
          "type": "address"
        },
        {
          "name": "_amount",
          "type": "uint256"
        }
      ],
      "name": "burn",
      "outputs": [],
      "payable": false,
      "stateMutability": "nonpayable",
      "type": "function"
    },
    {
      "constant": false,
      "inputs": [
        {
          "name": "",
          "type": "address"
        }
      ],
      "name": "proxyPayment",
      "outputs": [
        {
          "name": "",
          "type": "bool"
        }
      ],
      "payable": true,
      "stateMutability": "payable",
      "type": "function"
    },
    {
      "constant": false,
      "inputs": [
        {
          "name": "_from",
          "type": "address"
        },
        {
          "name": "_to",
          "type": "address"
        },
        {
          "name": "_amount",
          "type": "uint256"
        }
      ],
      "name": "onTransfer",
      "outputs": [
        {
          "name": "",
          "type": "bool"
        }
      ],
      "payable": false,
      "stateMutability": "nonpayable",
      "type": "function"
    },
    {
      "constant": false,
      "inputs": [
        {
          "name": "",
          "type": "address"
        },
        {
          "name": "",
          "type": "address"
        },
        {
          "name": "",
          "type": "uint256"
        }
      ],
      "name": "onApprove",
      "outputs": [
        {
          "name": "",
          "type": "bool"
        }
      ],
      "payable": false,
      "stateMutability": "nonpayable",
      "type": "function"
    },
    {
      "constant": true,
      "inputs": [
        {
          "name": "_RFIid",
          "type": "uint256"
        }
      ],
      "name": "canMergeRFI",
      "outputs": [
        {
          "name": "",
          "type": "bool"
        }
      ],
      "payable": false,
      "stateMutability": "view",
      "type": "function"
    },
    {
      "constant": true,
      "inputs": [
        {
          "name": "_RFIid",
          "type": "uint256"
        }
      ],
      "name": "canRejectRFI",
      "outputs": [
        {
          "name": "",
          "type": "bool"
        }
      ],
      "payable": false,
      "stateMutability": "view",
      "type": "function"
    },
    {
      "constant": true,
      "inputs": [
        {
          "name": "_RFLid",
          "type": "uint256"
        },
        {
          "name": "_value",
          "type": "uint256"
        }
      ],
      "name": "canAcceptRFL",
      "outputs": [
        {
          "name": "",
          "type": "bool"
        }
      ],
      "payable": false,
      "stateMutability": "view",
      "type": "function"
    },
    {
      "constant": true,
      "inputs": [
        {
          "name": "_RFLid",
          "type": "uint256"
        }
      ],
      "name": "canRejectRFL",
      "outputs": [
        {
          "name": "",
          "type": "bool"
        }
      ],
      "payable": false,
      "stateMutability": "view",
      "type": "function"
    },
    {
      "constant": true,
      "inputs": [
        {
          "name": "_RFIid",
          "type": "uint256"
        }
      ],
      "name": "getRFI",
      "outputs": [
        {
          "components": [
            {
              "components": [
                {
                  "name": "origin",
                  "type": "address"
                },
                {
                  "name": "tree",
                  "type": "string"
                },
                {
                  "name": "message",
                  "type": "string"
                },
                {
                  "name": "metadata",
                  "type": "string"
                },
                {
                  "components": [
                    {
                      "name": "api",
                      "type": "address"
                    },
                    {
                      "name": "hash",
                      "type": "bytes32"
                    }
                  ],
                  "name": "parents",
                  "type": "tuple[]"
                }
              ],
              "name": "individuation",
              "type": "tuple"
            },
            {
              "name": "blockstamp",
              "type": "uint256"
            },
            {
              "name": "state",
              "type": "uint8"
            },
            {
              "name": "RFLids",
              "type": "uint256[]"
            }
          ],
          "name": "",
          "type": "tuple"
        }
      ],
      "payable": false,
      "stateMutability": "view",
      "type": "function"
    },
    {
      "constant": true,
      "inputs": [
        {
          "name": "_RFLid",
          "type": "uint256"
        }
      ],
      "name": "getRFL",
      "outputs": [
        {
          "components": [
            {
              "components": [
                {
                  "name": "destination",
                  "type": "address"
                },
                {
                  "name": "minimum",
                  "type": "uint256"
                },
                {
                  "name": "metadata",
                  "type": "string"
                }
              ],
              "name": "lineage",
              "type": "tuple"
            },
            {
              "name": "blockstamp",
              "type": "uint256"
            },
            {
              "name": "value",
              "type": "uint256"
            },
            {
              "name": "state",
              "type": "uint8"
            },
            {
              "name": "RFIid",
              "type": "uint256"
            }
          ],
          "name": "",
          "type": "tuple"
        }
      ],
      "payable": false,
      "stateMutability": "view",
      "type": "function"
    },
    {
      "constant": true,
      "inputs": [
        {
          "components": [
            {
              "name": "origin",
              "type": "address"
            },
            {
              "name": "blockstamp",
              "type": "uint256"
            },
            {
              "name": "tree",
              "type": "string"
            },
            {
              "name": "message",
              "type": "string"
            },
            {
              "name": "metadata",
              "type": "string"
            },
            {
              "components": [
                {
                  "name": "api",
                  "type": "address"
                },
                {
                  "name": "hash",
                  "type": "bytes32"
                }
              ],
              "name": "parents",
              "type": "tuple[]"
            }
          ],
          "name": "_individuation",
          "type": "tuple"
        }
      ],
      "name": "getIndividuationHash",
      "outputs": [
        {
          "name": "",
          "type": "bytes32"
        }
      ],
      "payable": false,
      "stateMutability": "pure",
      "type": "function"
    },
    {
      "constant": false,
      "inputs": [
        {
          "components": [
            {
              "name": "origin",
              "type": "address"
            },
            {
              "name": "tree",
              "type": "string"
            },
            {
              "name": "message",
              "type": "string"
            },
            {
              "name": "metadata",
              "type": "string"
            },
            {
              "components": [
                {
                  "name": "api",
                  "type": "address"
                },
                {
                  "name": "hash",
                  "type": "bytes32"
                }
              ],
              "name": "parents",
              "type": "tuple[]"
            }
          ],
          "name": "_individuation",
          "type": "tuple"
        }
      ],
      "name": "individuate",
      "outputs": [],
      "payable": false,
      "stateMutability": "nonpayable",
      "type": "function"
    },
    {
      "constant": true,
      "inputs": [
        {
          "name": "_hash",
          "type": "bytes32"
        }
      ],
      "name": "getIndividuation",
      "outputs": [
        {
          "components": [
            {
              "name": "origin",
              "type": "address"
            },
            {
              "name": "blockstamp",
              "type": "uint256"
            },
            {
              "name": "tree",
              "type": "string"
            },
            {
              "name": "message",
              "type": "string"
            },
            {
              "name": "metadata",
              "type": "string"
            },
            {
              "components": [
                {
                  "name": "api",
                  "type": "address"
                },
                {
                  "name": "hash",
                  "type": "bytes32"
                }
              ],
              "name": "parents",
              "type": "tuple[]"
            }
          ],
          "name": "",
          "type": "tuple"
        }
      ],
      "payable": false,
      "stateMutability": "view",
      "type": "function"
    },
    {
      "constant": true,
      "inputs": [],
      "name": "getHead",
      "outputs": [
        {
          "components": [
            {
              "name": "origin",
              "type": "address"
            },
            {
              "name": "blockstamp",
              "type": "uint256"
            },
            {
              "name": "tree",
              "type": "string"
            },
            {
              "name": "message",
              "type": "string"
            },
            {
              "name": "metadata",
              "type": "string"
            },
            {
              "components": [
                {
                  "name": "api",
                  "type": "address"
                },
                {
                  "name": "hash",
                  "type": "bytes32"
                }
              ],
              "name": "parents",
              "type": "tuple[]"
            }
          ],
          "name": "",
          "type": "tuple"
        }
      ],
      "payable": false,
      "stateMutability": "view",
      "type": "function"
    }
  ],
  "bytecode": "0x608060405260006003556000600455620000276200002d640100000000026401000000009004565b62000165565b60006200004862000091640100000000026401000000009004565b1415156200005557600080fd5b6200008f7fffffffffffffffffffffffffffffffffffffffffffffffffffffffffffffffff620000de640100000000026401000000009004565b565b6000620000d97febb05b386a8d34882b8711d156f463690983dc47815980fb82aeeff1aa43579e6001026000191662000153640100000000026200407c176401000000009004565b905090565b6000620000f962000091640100000000026401000000009004565b1415156200010657600080fd5b62000150817febb05b386a8d34882b8711d156f463690983dc47815980fb82aeeff1aa43579e600102600019166200015e64010000000002620048b0179091906401000000009004565b50565b600081549050919050565b8082555050565b61666080620001756000396000f3006080604052600436106102a9576000357c0100000000000000000000000000000000000000000000000000000000900463ffffffff1680630803fac0146102ae57806308236780146102d9578063103a90c8146103045780631113ed0d1461032f578063115cb3ad1461035a578063178e6079146103975780632adab4ea146103c25780632d2e8012146103ed5780633181f6b21461041857806332f0a3b51461045557806333ff68701461048057806339a2d338146104bd57806340c10f19146104fa5780634752915d146105235780634a393149146105605780635b15970d1461059d5780635bddb420146105da57806360b1e057146106195780636d5f5ca7146106445780636e0b314c1461066d578063748b052c14610696578063756f6049146106bf5780637e7db6e1146106ea57806380201af21461072757806380afdea8146107525780638322fff21461077d578063889bd35d146107a85780638b3dd749146107e55780638f7dcfa31461081057806397569bb11461083b5780639bdc706d146108665780639d4941d8146108a35780639dc29fac146108cc578063a0a66f7c146108f5578063a1658fad1461091e578063b462e70b1461095b578063b930908f14610986578063c34e0ed6146109b1578063c3eefd1e146109dc578063c4d66de814610a19578063c538f7de14610a42578063cbcc65eb14610a83578063d4aae0c414610aae578063da682aeb14610ad9578063db8a61d414610b16578063dc281aff14610b41578063ddf6fa9c14610b6c578063de4796ed14610b95578063e7fd8d0814610bc0578063e95fe2ff14610bfd578063e9a9c85014610c3a578063f131fb9914610c65578063f48c305414610ca6578063f92a79ff14610cd6578063fc0c546a14610d13578063fd47d20314610d3e578063fec7d70b14610d7b575b600080fd5b3480156102ba57600080fd5b506102c3610db8565b6040516102d09190615fda565b60405180910390f35b3480156102e557600080fd5b506102ee610de3565b6040516102fb9190615ff5565b60405180910390f35b34801561031057600080fd5b50610319610e1c565b60405161032691906162c5565b60405180910390f35b34801561033b57600080fd5b50610344610e22565b6040516103519190615ff5565b60405180910390f35b34801561036657600080fd5b50610381600480360361037c91908101906155e4565b610e49565b60405161038e919061625f565b60405180910390f35b3480156103a357600080fd5b506103ac61119f565b6040516103b99190615ff5565b60405180910390f35b3480156103ce57600080fd5b506103d76111c6565b6040516103e49190615ff5565b60405180910390f35b3480156103f957600080fd5b506104026111ff565b60405161040f9190615ff5565b60405180910390f35b34801561042457600080fd5b5061043f600480360361043a91908101906156e1565b611238565b60405161044c91906162c5565b60405180910390f35b34801561046157600080fd5b5061046a6112dc565b6040516104779190615ee2565b60405180910390f35b34801561048c57600080fd5b506104a760048036036104a29190810190615810565b6113c8565b6040516104b49190615fda565b60405180910390f35b3480156104c957600080fd5b506104e460048036036104df919081019061574d565b611433565b6040516104f19190615ff5565b60405180910390f35b34801561050657600080fd5b50610521600480360361051c919081019061557f565b611648565b005b34801561052f57600080fd5b5061054a60048036036105459190810190615862565b6116d3565b6040516105579190615fda565b60405180910390f35b34801561056c57600080fd5b50610587600480360361058291908101906154c9565b611769565b6040516105949190615fda565b60405180910390f35b3480156105a957600080fd5b506105c460048036036105bf91908101906157cf565b611775565b6040516105d19190615fda565b60405180910390f35b3480156105e657600080fd5b5061060160048036036105fc9190810190615810565b61179c565b604051610610939291906161c7565b60405180910390f35b34801561062557600080fd5b5061062e611ae1565b60405161063b9190615ff5565b60405180910390f35b34801561065057600080fd5b5061066b60048036036106669190810190615862565b611b08565b005b34801561067957600080fd5b50610694600480360361068f9190810190615810565b611bf1565b005b3480156106a257600080fd5b506106bd60048036036106b89190810190615810565b611cd7565b005b3480156106cb57600080fd5b506106d4611dbd565b6040516106e19190615ff5565b60405180910390f35b3480156106f657600080fd5b50610711600480360361070c9190810190615477565b611de4565b60405161071e9190615fda565b60405180910390f35b34801561073357600080fd5b5061073c611def565b60405161074991906162c5565b60405180910390f35b34801561075e57600080fd5b50610767611df5565b6040516107749190615ff5565b60405180910390f35b34801561078957600080fd5b50610792611e2c565b60405161079f9190615ee2565b60405180910390f35b3480156107b457600080fd5b506107cf60048036036107ca9190810190615810565b611e31565b6040516107dc91906162a3565b60405180910390f35b3480156107f157600080fd5b506107fa61200a565b60405161080791906162c5565b60405180910390f35b34801561081c57600080fd5b50610825612041565b6040516108329190615ff5565b60405180910390f35b34801561084757600080fd5b50610850612047565b60405161085d9190615ff5565b60405180910390f35b34801561087257600080fd5b5061088d60048036036108889190810190615810565b612080565b60405161089a9190615fda565b60405180910390f35b3480156108af57600080fd5b506108ca60048036036108c59190810190615477565b6120eb565b005b3480156108d857600080fd5b506108f360048036036108ee919081019061557f565b612311565b005b34801561090157600080fd5b5061091c600480360361091791908101906156a0565b61245d565b005b34801561092a57600080fd5b5061094560048036036109409190810190615518565b6127d0565b6040516109529190615fda565b60405180910390f35b34801561096757600080fd5b50610970612908565b60405161097d9190615ff5565b60405180910390f35b34801561099257600080fd5b5061099b612941565b6040516109a89190615ff5565b60405180910390f35b3480156109bd57600080fd5b506109c661297a565b6040516109d39190615ff5565b60405180910390f35b3480156109e857600080fd5b50610a0360048036036109fe9190810190615810565b6129b3565b604051610a109190615fda565b60405180910390f35b348015610a2557600080fd5b50610a406004803603610a3b9190810190615677565b612ab3565b005b348015610a4e57600080fd5b50610a696004803603610a649190810190615810565b612cc8565b604051610a7a959493929190616205565b60405180910390f35b348015610a8f57600080fd5b50610a98612e18565b604051610aa59190615ff5565b60405180910390f35b348015610aba57600080fd5b50610ac3612e3f565b604051610ad09190616076565b60405180910390f35b348015610ae557600080fd5b50610b006004803603610afb91908101906154c9565b612e76565b604051610b0d9190615fda565b60405180910390f35b348015610b2257600080fd5b50610b2b612e82565b604051610b389190615ff5565b60405180910390f35b348015610b4d57600080fd5b50610b56612ea9565b604051610b63919061625f565b60405180910390f35b348015610b7857600080fd5b50610b936004803603610b8e9190810190615810565b6131ff565b005b348015610ba157600080fd5b50610baa6132e5565b604051610bb79190615fda565b60405180910390f35b348015610bcc57600080fd5b50610be76004803603610be2919081019061578e565b613316565b604051610bf49190615fda565b60405180910390f35b348015610c0957600080fd5b50610c246004803603610c1f91908101906157cf565b61333c565b604051610c319190615fda565b60405180910390f35b348015610c4657600080fd5b50610c4f613362565b604051610c5c9190615ff5565b60405180910390f35b348015610c7157600080fd5b50610c8c6004803603610c8791908101906155e4565b61339b565b604051610c9d959493929190615f72565b60405180910390f35b610cc06004803603610cbb9190810190615477565b6135b9565b604051610ccd9190615fda565b60405180910390f35b348015610ce257600080fd5b50610cfd6004803603610cf8919081019061560d565b613655565b604051610d0a919061605b565b60405180910390f35b348015610d1f57600080fd5b50610d2861370c565b604051610d359190616091565b60405180910390f35b348015610d4a57600080fd5b50610d656004803603610d60919081019061574d565b613731565b604051610d729190615ff5565b60405180910390f35b348015610d8757600080fd5b50610da26004803603610d9d9190810190615810565b613743565b604051610daf9190616281565b60405180910390f35b600080610dc361200a565b905060008114158015610ddd575080610dda613b61565b10155b91505090565b60405180807f52454a4543545f52464c5f524f4c450000000000000000000000000000000000815250600f019050604051809103902081565b60045481565b7f3b4bf6bf3ad5000ecf0f989d5befde585c6860fea3e574a4fab4c49d1c177d9c60010281565b610e51614992565b610e59610db8565b1515610e6457600080fd5b60056000836000191660001916815260200190815260200160002060c060405190810160405290816000820160009054906101000a900473ffffffffffffffffffffffffffffffffffffffff1673ffffffffffffffffffffffffffffffffffffffff1673ffffffffffffffffffffffffffffffffffffffff16815260200160018201548152602001600282018054600181600116156101000203166002900480601f016020809104026020016040519081016040528092919081815260200182805460018160011615610100020316600290048015610f845780601f10610f5957610100808354040283529160200191610f84565b820191906000526020600020905b815481529060010190602001808311610f6757829003601f168201915b50505050508152602001600382018054600181600116156101000203166002900480601f0160208091040260200160405190810160405280929190818152602001828054600181600116156101000203166002900480156110265780601f10610ffb57610100808354040283529160200191611026565b820191906000526020600020905b81548152906001019060200180831161100957829003601f168201915b50505050508152602001600482018054600181600116156101000203166002900480601f0160208091040260200160405190810160405280929190818152602001828054600181600116156101000203166002900480156110c85780601f1061109d576101008083540402835291602001916110c8565b820191906000526020600020905b8154815290600101906020018083116110ab57829003601f168201915b5050505050815260200160058201805480602002602001604051908101604052809291908181526020016000905b8282101561119057838290600052602060002090600202016040805190810160405290816000820160009054906101000a900473ffffffffffffffffffffffffffffffffffffffff1673ffffffffffffffffffffffffffffffffffffffff1673ffffffffffffffffffffffffffffffffffffffff1681526020016001820154600019166000191681525050815260200190600101906110f6565b50505050815250509050919050565b7fd6f028ca0e8edb4a8c9757ca4fdccab25fa1e0317da1188108f7d2dee14902fb60010281565b60405180807f4352454154455f5246495f524f4c450000000000000000000000000000000000815250600f019050604051809103902081565b60405180807f4d455247455f5246495f524f4c45000000000000000000000000000000000000815250600e019050604051809103902081565b6000611242610db8565b151561124d57600080fd5b60405180807f4352454154455f5246495f524f4c450000000000000000000000000000000000815250600f01905060405180910390206112be338260006040519080825280602002602001820160405280156112b85781602001602082028038833980820191505090505b506127d0565b15156112c957600080fd5b6112d38484613b69565b91505092915050565b60008073ffffffffffffffffffffffffffffffffffffffff166112fd612e3f565b73ffffffffffffffffffffffffffffffffffffffff161415151561132057600080fd5b611328612e3f565b73ffffffffffffffffffffffffffffffffffffffff166332f0a3b56040518163ffffffff167c0100000000000000000000000000000000000000000000000000000000028152600401602060405180830381600087803b15801561138b57600080fd5b505af115801561139f573d6000803e3d6000fd5b505050506040513d601f19601f820116820180604052506113c391908101906154a0565b905090565b60006004548211156113dd576000905061142e565b600060048111156113ea57fe5b6002600084815260200190815260200160002060050160009054906101000a900460ff16600481111561141957fe5b141515611429576000905061142e565b600190505b919050565b6000816000015182602001518360400151846060015185608001518660a00151604051602001808773ffffffffffffffffffffffffffffffffffffffff1673ffffffffffffffffffffffffffffffffffffffff166c0100000000000000000000000002815260140186815260200185805190602001908083835b6020831015156114d257805182526020820191506020810190506020830392506114ad565b6001836020036101000a03801982511681845116808217855250505050505090500184805190602001908083835b6020831015156115255780518252602082019150602081019050602083039250611500565b6001836020036101000a03801982511681845116808217855250505050505090500183805190602001908083835b6020831015156115785780518252602082019150602081019050602083039250611553565b6001836020036101000a0380198251168184511680821785525050505050509050018280516000925b818410156115c457828490602001906020020151815260200192600101926115a1565b9250505096505050505050506040516020818303038152906040526040518082805190602001908083835b60208310151561161457805182526020820191506020810190506020830392506115ef565b6001836020036101000a03801982511681845116808217855250505050505090500191505060405180910390209050919050565b60405180807f4d494e545f524f4c450000000000000000000000000000000000000000000000815250600901905060405180910390206116b9338260006040519080825280602002602001820160405280156116b35781602001602082028038833980820191505090505b506127d0565b15156116c457600080fd5b6116ce8383613def565b505050565b60006004548311156116e85760009050611763565b600060048111156116f557fe5b6002600085815260200190815260200160002060050160009054906101000a900460ff16600481111561172457fe5b1415156117345760009050611763565b600260008481526020019081526020016000206000016001015482101561175e5760009050611763565b600190505b92915050565b60008090509392505050565b60006001600481111561178457fe5b8260600151600481111561179457fe5b149050919050565b60016020528060005260406000206000915090508060000160a060405190810160405290816000820160009054906101000a900473ffffffffffffffffffffffffffffffffffffffff1673ffffffffffffffffffffffffffffffffffffffff1673ffffffffffffffffffffffffffffffffffffffff168152602001600182018054600181600116156101000203166002900480601f0160208091040260200160405190810160405280929190818152602001828054600181600116156101000203166002900480156118af5780601f10611884576101008083540402835291602001916118af565b820191906000526020600020905b81548152906001019060200180831161189257829003601f168201915b50505050508152602001600282018054600181600116156101000203166002900480601f0160208091040260200160405190810160405280929190818152602001828054600181600116156101000203166002900480156119515780601f1061192657610100808354040283529160200191611951565b820191906000526020600020905b81548152906001019060200180831161193457829003601f168201915b50505050508152602001600382018054600181600116156101000203166002900480601f0160208091040260200160405190810160405280929190818152602001828054600181600116156101000203166002900480156119f35780601f106119c8576101008083540402835291602001916119f3565b820191906000526020600020905b8154815290600101906020018083116119d657829003601f168201915b5050505050815260200160048201805480602002602001604051908101604052809291908181526020016000905b82821015611abb57838290600052602060002090600202016040805190810160405290816000820160009054906101000a900473ffffffffffffffffffffffffffffffffffffffff1673ffffffffffffffffffffffffffffffffffffffff1673ffffffffffffffffffffffffffffffffffffffff168152602001600182015460001916600019168152505081526020019060010190611a21565b5050505081525050908060050154908060060160009054906101000a900460ff16905083565b7fddbcfd564f642ab5627cf68b9b7d374fb4f8a36e941a75d89c87998cef03bd6160010281565b611b10610db8565b1515611b1b57600080fd5b60405180807f4143434550545f52464c5f524f4c450000000000000000000000000000000000815250600f0190506040518091039020611b8c33826000604051908082528060200260200182016040528015611b865781602001602082028038833980820191505090505b506127d0565b1515611b9757600080fd5b611ba183836116d3565b1515611be2576040517f08c379a0000000000000000000000000000000000000000000000000000000008152600401611bd9906160e7565b60405180910390fd5b611bec8383613ebe565b505050565b611bf9610db8565b1515611c0457600080fd5b60405180807f52454a4543545f52464c5f524f4c450000000000000000000000000000000000815250600f0190506040518091039020611c7533826000604051908082528060200260200182016040528015611c6f5781602001602082028038833980820191505090505b506127d0565b1515611c8057600080fd5b611c89826113c8565b1515611cca576040517f08c379a0000000000000000000000000000000000000000000000000000000008152600401611cc190616107565b60405180910390fd5b611cd382613f41565b5050565b611cdf610db8565b1515611cea57600080fd5b60405180807f52454a4543545f5246495f524f4c450000000000000000000000000000000000815250600f0190506040518091039020611d5b33826000604051908082528060200260200182016040528015611d555781602001602082028038833980820191505090505b506127d0565b1515611d6657600080fd5b611d6f82612080565b1515611db0576040517f08c379a0000000000000000000000000000000000000000000000000000000008152600401611da790616167565b60405180910390fd5b611db982613fbc565b5050565b7fc681a85306374a5ab27f0bbc385296a54bcd314a1948b6cf61c4ea1bc44bb9f860010281565b600060019050919050565b60035481565b6000611e277fd625496217aa6a3453eecb9c3489dc5a53e6c67b444329ea2b2cbc9ff547639b60010260001916614071565b905090565b600081565b611e396149df565b816004548111151515611e81576040517f08c379a0000000000000000000000000000000000000000000000000000000008152600401611e7890616127565b60405180910390fd5b6002600084815260200190815260200160002060a0604051908101604052908160008201606060405190810160405290816000820160009054906101000a900473ffffffffffffffffffffffffffffffffffffffff1673ffffffffffffffffffffffffffffffffffffffff1673ffffffffffffffffffffffffffffffffffffffff16815260200160018201548152602001600282018054600181600116156101000203166002900480601f016020809104026020016040519081016040528092919081815260200182805460018160011615610100020316600290048015611faa5780601f10611f7f57610100808354040283529160200191611faa565b820191906000526020600020905b815481529060010190602001808311611f8d57829003601f168201915b505050505081525050815260200160038201548152602001600482015481526020016005820160009054906101000a900460ff166004811115611fe957fe5b6004811115611ff457fe5b8152602001600682015481525050915050919050565b600061203c7febb05b386a8d34882b8711d156f463690983dc47815980fb82aeeff1aa43579e6001026000191661407c565b905090565b60065481565b60405180807f52454a4543545f5246495f524f4c450000000000000000000000000000000000815250600f019050604051809103902081565b600060035482111561209557600090506120e6565b600060038111156120a257fe5b6001600084815260200190815260200160002060060160009054906101000a900460ff1660038111156120d157fe5b1415156120e157600090506120e6565b600190505b919050565b6000806120f783611de4565b151561210257600080fd5b61210a6112dc565b915061211582614087565b151561212057600080fd5b600073ffffffffffffffffffffffffffffffffffffffff168373ffffffffffffffffffffffffffffffffffffffff1614156121b8578173ffffffffffffffffffffffffffffffffffffffff166108fc3073ffffffffffffffffffffffffffffffffffffffff16319081150290604051600060405180830381858888f193505050501580156121b2573d6000803e3d6000fd5b5061230c565b8273ffffffffffffffffffffffffffffffffffffffff166370a08231306040518263ffffffff167c010000000000000000000000000000000000000000000000000000000002815260040161220d91906160ac565b602060405180830381600087803b15801561222757600080fd5b505af115801561223b573d6000803e3d6000fd5b505050506040513d601f19601f8201168201806040525061225f9190810190615839565b90508273ffffffffffffffffffffffffffffffffffffffff1663a9059cbb83836040518363ffffffff167c01000000000000000000000000000000000000000000000000000000000281526004016122b8929190615f49565b602060405180830381600087803b1580156122d257600080fd5b505af11580156122e6573d6000803e3d6000fd5b505050506040513d601f19601f8201168201806040525061230a91908101906155bb565b505b505050565b60405180807f4255524e5f524f4c450000000000000000000000000000000000000000000000815250600901905060405180910390206123823382600060405190808252806020026020018201604052801561237c5781602001602082028038833980820191505090505b506127d0565b151561238d57600080fd5b6000809054906101000a900473ffffffffffffffffffffffffffffffffffffffff1673ffffffffffffffffffffffffffffffffffffffff1663d3ce77fe84846040518363ffffffff167c0100000000000000000000000000000000000000000000000000000000028152600401612405929190615f49565b602060405180830381600087803b15801561241f57600080fd5b505af1158015612433573d6000803e3d6000fd5b505050506040513d601f19601f8201168201806040525061245791908101906155bb565b50505050565b612465614992565b600080612470610db8565b151561247b57600080fd5b60405180807f494e4449564944554154455f524f4c4500000000000000000000000000000000815250601001905060405180910390206124ec338260006040519080825280602002602001820160405280156124e65781602001602082028038833980820191505090505b506127d0565b15156124f757600080fd5b60c060405190810160405280866000015173ffffffffffffffffffffffffffffffffffffffff1681526020014381526020018660200151815260200186604001518152602001866060015181526020018660800151815250935061255a84611433565b9250836000015160056000856000191660001916815260200190815260200160002060000160006101000a81548173ffffffffffffffffffffffffffffffffffffffff021916908373ffffffffffffffffffffffffffffffffffffffff1602179055508360200151600560008560001916600019168152602001908152602001600020600101819055508360400151600560008560001916600019168152602001908152602001600020600201908051906020019061261a929190614a20565b5083606001516005600085600019166000191681526020019081526020016000206003019080519060200190612651929190614a20565b5083608001516005600085600019166000191681526020019081526020016000206004019080519060200190612688929190614a20565b508360a0015151600560008560001916600019168152602001908152602001600020600501816126b89190614aa0565b50600091505b8360a0015151821015612787578360a00151828151811015156126dd57fe5b906020019060200201516005600085600019166000191681526020019081526020016000206005018381548110151561271257fe5b906000526020600020906002020160008201518160000160006101000a81548173ffffffffffffffffffffffffffffffffffffffff021916908373ffffffffffffffffffffffffffffffffffffffff1602179055506020820151816001019060001916905590505081806001019250506126be565b82600681600019169055507f60abf4225368bd17f1998b81eb52b7eeecfbb02ff266802d2fdd3324ce5eb6ef836040516127c19190615ff5565b60405180910390a15050505050565b600080606060006127df610db8565b15156127ee57600093506128fe565b6127f6612e3f565b9250600073ffffffffffffffffffffffffffffffffffffffff168373ffffffffffffffffffffffffffffffffffffffff16141561283657600093506128fe565b60008551111561284e57602085510290508491508082525b8273ffffffffffffffffffffffffffffffffffffffff1663fdef9106883089866040518563ffffffff167c01000000000000000000000000000000000000000000000000000000000281526004016128a99493929190615efd565b602060405180830381600087803b1580156128c357600080fd5b505af11580156128d7573d6000803e3d6000fd5b505050506040513d601f19601f820116820180604052506128fb91908101906155bb565b93505b5050509392505050565b60405180807f4143434550545f52464c5f524f4c450000000000000000000000000000000000815250600f019050604051809103902081565b60405180807f4255524e5f524f4c4500000000000000000000000000000000000000000000008152506009019050604051809103902081565b60405180807f494e4449564944554154455f524f4c45000000000000000000000000000000008152506010019050604051809103902081565b6000806000806003548511156129cc5760009350612aab565b600160008681526020019081526020016000209250600060038111156129ee57fe5b8360060160009054906101000a900460ff166003811115612a0b57fe5b141515612a1b5760009350612aab565b600091505b8260070180549050821015612aa657600260008460070184815481101515612a4457fe5b90600052602060002001548152602001908152602001600020905060016004811115612a6c57fe5b8160050160009054906101000a900460ff166004811115612a8957fe5b141515612a995760009350612aab565b8180600101925050612a20565b600193505b505050919050565b6000612abd61200a565b141515612ac957600080fd5b3073ffffffffffffffffffffffffffffffffffffffff168173ffffffffffffffffffffffffffffffffffffffff1663f77c47916040518163ffffffff167c0100000000000000000000000000000000000000000000000000000000028152600401602060405180830381600087803b158015612b4457600080fd5b505af1158015612b58573d6000803e3d6000fd5b505050506040513d601f19601f82011682018060405250612b7c91908101906154a0565b73ffffffffffffffffffffffffffffffffffffffff16141515612bd4576040517f08c379a0000000000000000000000000000000000000000000000000000000008152600401612bcb906160c7565b60405180910390fd5b612bdc6140d9565b806000806101000a81548173ffffffffffffffffffffffffffffffffffffffff021916908373ffffffffffffffffffffffffffffffffffffffff1602179055506000809054906101000a900473ffffffffffffffffffffffffffffffffffffffff1673ffffffffffffffffffffffffffffffffffffffff1663f41e60c560006040518263ffffffff167c0100000000000000000000000000000000000000000000000000000000028152600401612c939190615fda565b600060405180830381600087803b158015612cad57600080fd5b505af1158015612cc1573d6000803e3d6000fd5b5050505050565b600260205280600052604060002060009150905080600001606060405190810160405290816000820160009054906101000a900473ffffffffffffffffffffffffffffffffffffffff1673ffffffffffffffffffffffffffffffffffffffff1673ffffffffffffffffffffffffffffffffffffffff16815260200160018201548152602001600282018054600181600116156101000203166002900480601f016020809104026020016040519081016040528092919081815260200182805460018160011615610100020316600290048015612de55780601f10612dba57610100808354040283529160200191612de5565b820191906000526020600020905b815481529060010190602001808311612dc857829003601f168201915b505050505081525050908060030154908060040154908060050160009054906101000a900460ff16908060060154905085565b7fe3262375f45a6e2026b7e7b18c2b807434f2508fe1a2a3dfb493c7df8f4aad6a60010281565b6000612e717f4172f0f7d2289153072b0a6ca36959e0cbe2efc3afe50fc81636caa96338137b60010260001916614132565b905090565b60008090509392505050565b7ff1f3eb40f5bc1ad1344716ced8b8a0431d840b5783aea1fd01786bc26f35ac0f60010281565b612eb1614992565b612eb9610db8565b1515612ec457600080fd5b600560006006546000191660001916815260200190815260200160002060c060405190810160405290816000820160009054906101000a900473ffffffffffffffffffffffffffffffffffffffff1673ffffffffffffffffffffffffffffffffffffffff1673ffffffffffffffffffffffffffffffffffffffff16815260200160018201548152602001600282018054600181600116156101000203166002900480601f016020809104026020016040519081016040528092919081815260200182805460018160011615610100020316600290048015612fe65780601f10612fbb57610100808354040283529160200191612fe6565b820191906000526020600020905b815481529060010190602001808311612fc957829003601f168201915b50505050508152602001600382018054600181600116156101000203166002900480601f0160208091040260200160405190810160405280929190818152602001828054600181600116156101000203166002900480156130885780601f1061305d57610100808354040283529160200191613088565b820191906000526020600020905b81548152906001019060200180831161306b57829003601f168201915b50505050508152602001600482018054600181600116156101000203166002900480601f01602080910402602001604051908101604052809291908181526020018280546001816001161561010002031660029004801561312a5780601f106130ff5761010080835404028352916020019161312a565b820191906000526020600020905b81548152906001019060200180831161310d57829003601f168201915b5050505050815260200160058201805480602002602001604051908101604052809291908181526020016000905b828210156131f257838290600052602060002090600202016040805190810160405290816000820160009054906101000a900473ffffffffffffffffffffffffffffffffffffffff1673ffffffffffffffffffffffffffffffffffffffff1673ffffffffffffffffffffffffffffffffffffffff168152602001600182015460001916600019168152505081526020019060010190613158565b5050505081525050905090565b613207610db8565b151561321257600080fd5b60405180807f4d455247455f5246495f524f4c45000000000000000000000000000000000000815250600e01905060405180910390206132833382600060405190808252806020026020018201604052801561327d5781602001602082028038833980820191505090505b506127d0565b151561328e57600080fd5b613297826129b3565b15156132d8576040517f08c379a00000000000000000000000000000000000000000000000000000000081526004016132cf90616147565b60405180910390fd5b6132e18261413d565b5050565b60007fffffffffffffffffffffffffffffffffffffffffffffffffffffffffffffffff61331061200a565b14905090565b600080600381111561332457fe5b8260400151600381111561333457fe5b149050919050565b600080600481111561334a57fe5b8260600151600481111561335a57fe5b149050919050565b60405180807f4d494e545f524f4c4500000000000000000000000000000000000000000000008152506009019050604051809103902081565b60056020528060005260406000206000915090508060000160009054906101000a900473ffffffffffffffffffffffffffffffffffffffff1690806001015490806002018054600181600116156101000203166002900480601f0160208091040260200160405190810160405280929190818152602001828054600181600116156101000203166002900480156134735780601f1061344857610100808354040283529160200191613473565b820191906000526020600020905b81548152906001019060200180831161345657829003601f168201915b505050505090806003018054600181600116156101000203166002900480601f0160208091040260200160405190810160405280929190818152602001828054600181600116156101000203166002900480156135115780601f106134e657610100808354040283529160200191613511565b820191906000526020600020905b8154815290600101906020018083116134f457829003601f168201915b505050505090806004018054600181600116156101000203166002900480601f0160208091040260200160405190810160405280929190818152602001828054600181600116156101000203166002900480156135af5780601f10613584576101008083540402835291602001916135af565b820191906000526020600020905b81548152906001019060200180831161359257829003601f168201915b5050505050905085565b60008060009054906101000a900473ffffffffffffffffffffffffffffffffffffffff1673ffffffffffffffffffffffffffffffffffffffff163373ffffffffffffffffffffffffffffffffffffffff1614151561364c576040517f08c379a000000000000000000000000000000000000000000000000000000000815260040161364390616187565b60405180910390fd5b60009050919050565b600061365f61450d565b73ffffffffffffffffffffffffffffffffffffffff166304bf2a7f836040518263ffffffff167c01000000000000000000000000000000000000000000000000000000000281526004016136b39190616039565b602060405180830381600087803b1580156136cd57600080fd5b505af11580156136e1573d6000803e3d6000fd5b505050506040513d601f19601f82011682018060405250613705919081019061564e565b9050919050565b6000809054906101000a900473ffffffffffffffffffffffffffffffffffffffff1681565b600061373c82611433565b9050919050565b61374b614ad2565b816003548111151515613793576040517f08c379a000000000000000000000000000000000000000000000000000000000815260040161378a906161a7565b60405180910390fd5b60016000848152602001908152602001600020608060405190810160405290816000820160a060405190810160405290816000820160009054906101000a900473ffffffffffffffffffffffffffffffffffffffff1673ffffffffffffffffffffffffffffffffffffffff1673ffffffffffffffffffffffffffffffffffffffff168152602001600182018054600181600116156101000203166002900480601f0160208091040260200160405190810160405280929190818152602001828054600181600116156101000203166002900480156138b25780601f10613887576101008083540402835291602001916138b2565b820191906000526020600020905b81548152906001019060200180831161389557829003601f168201915b50505050508152602001600282018054600181600116156101000203166002900480601f0160208091040260200160405190810160405280929190818152602001828054600181600116156101000203166002900480156139545780601f1061392957610100808354040283529160200191613954565b820191906000526020600020905b81548152906001019060200180831161393757829003601f168201915b50505050508152602001600382018054600181600116156101000203166002900480601f0160208091040260200160405190810160405280929190818152602001828054600181600116156101000203166002900480156139f65780601f106139cb576101008083540402835291602001916139f6565b820191906000526020600020905b8154815290600101906020018083116139d957829003601f168201915b5050505050815260200160048201805480602002602001604051908101604052809291908181526020016000905b82821015613abe57838290600052602060002090600202016040805190810160405290816000820160009054906101000a900473ffffffffffffffffffffffffffffffffffffffff1673ffffffffffffffffffffffffffffffffffffffff1673ffffffffffffffffffffffffffffffffffffffff168152602001600182015460001916600019168152505081526020019060010190613a24565b50505050815250508152602001600582015481526020016006820160009054906101000a900460ff166003811115613af257fe5b6003811115613afd57fe5b815260200160078201805480602002602001604051908101604052809291908181526020018280548015613b5057602002820191906000526020600020905b815481526020019060010190808311613b3c575b505050505081525050915050919050565b600043905090565b600080600080600080600160035401600381905550600354955060016000878152602001908152602001600020945087600001518560000160000160006101000a81548173ffffffffffffffffffffffffffffffffffffffff021916908373ffffffffffffffffffffffffffffffffffffffff1602179055508760200151856000016001019080519060200190613c01929190614a20565b508760400151856000016002019080519060200190613c21929190614a20565b508760600151856000016003019080519060200190613c41929190614a20565b5043856005018190555060008560060160006101000a81548160ff02191690836003811115613c6c57fe5b02179055508760800151518560000160040181613c899190614aa0565b50600093505b876080015151841015613d4157876080015184815181101515613cae57fe5b906020019060200201518560000160040185815481101515613ccc57fe5b906000526020600020906002020160008201518160000160006101000a81548173ffffffffffffffffffffffffffffffffffffffff021916908373ffffffffffffffffffffffffffffffffffffffff160217905550602082015181600101906000191690559050508380600101945050613c8f565b600092505b8651831015613db757613d708784815181101515613d6057fe5b906020019060200201518761460f565b9150846007018054809190600101613d889190614b0d565b9050818560070182815481101515613d9c57fe5b90600052602060002001819055508280600101935050613d46565b857f35f2129c6d5c40f8bfc21ff096fc803eed03c578d74fabcf718966bce5e43a2460405160405180910390a2505050505092915050565b6000809054906101000a900473ffffffffffffffffffffffffffffffffffffffff1673ffffffffffffffffffffffffffffffffffffffff1663827f32c083836040518363ffffffff167c0100000000000000000000000000000000000000000000000000000000028152600401613e67929190615f49565b602060405180830381600087803b158015613e8157600080fd5b505af1158015613e95573d6000803e3d6000fd5b505050506040513d601f19601f82011682018060405250613eb991908101906155bb565b505050565b600060026000848152602001908152602001600020905060018160050160006101000a81548160ff02191690836004811115613ef657fe5b0217905550818160040181905550827fe798dd1723e7dfead0c42290d937f51c95c8f80f616ab3c5d515dd62333d0c6983604051613f3491906162c5565b60405180910390a2505050565b600060026000838152602001908152602001600020905060038160050160006101000a81548160ff02191690836004811115613f7957fe5b0217905550613f8b8160060154614728565b817feffb45481cc046f2f78b484c7ef03097fc7cd3f8cf92a6f150a6264c96c3e72c60405160405180910390a25050565b60008060016000848152602001908152602001600020915060028260060160006101000a81548160ff02191690836003811115613ff557fe5b0217905550600090505b816007018054905081101561403f57614032826007018281548110151561402257fe5b9060005260206000200154614842565b8080600101915050613fff565b827f572671bf73ebac1f3878b683b28d9a3864df03396326fbaa18f19c834a54b13a60405160405180910390a2505050565b600081549050919050565b600081549050919050565b600080600073ffffffffffffffffffffffffffffffffffffffff168373ffffffffffffffffffffffffffffffffffffffff1614156140c857600091506140d3565b823b90506000811191505b50919050565b60006140e361200a565b1415156140ef57600080fd5b6141306140fa613b61565b7febb05b386a8d34882b8711d156f463690983dc47815980fb82aeeff1aa43579e600102600019166148b090919063ffffffff16565b565b600081549050919050565b60008060016000848152602001908152602001600020915060018260060160006101000a81548160ff0219169083600381111561417657fe5b02179055506144968260000160a060405190810160405290816000820160009054906101000a900473ffffffffffffffffffffffffffffffffffffffff1673ffffffffffffffffffffffffffffffffffffffff1673ffffffffffffffffffffffffffffffffffffffff168152602001600182018054600181600116156101000203166002900480601f01602080910402602001604051908101604052809291908181526020018280546001816001161561010002031660029004801561427d5780601f106142525761010080835404028352916020019161427d565b820191906000526020600020905b81548152906001019060200180831161426057829003601f168201915b50505050508152602001600282018054600181600116156101000203166002900480601f01602080910402602001604051908101604052809291908181526020018280546001816001161561010002031660029004801561431f5780601f106142f45761010080835404028352916020019161431f565b820191906000526020600020905b81548152906001019060200180831161430257829003601f168201915b50505050508152602001600382018054600181600116156101000203166002900480601f0160208091040260200160405190810160405280929190818152602001828054600181600116156101000203166002900480156143c15780601f10614396576101008083540402835291602001916143c1565b820191906000526020600020905b8154815290600101906020018083116143a457829003601f168201915b5050505050815260200160048201805480602002602001604051908101604052809291908181526020016000905b8282101561448957838290600052602060002090600202016040805190810160405290816000820160009054906101000a900473ffffffffffffffffffffffffffffffffffffffff1673ffffffffffffffffffffffffffffffffffffffff1673ffffffffffffffffffffffffffffffffffffffff1681526020016001820154600019166000191681525050815260200190600101906143ef565b505050508152505061245d565b600090505b81600701805490508110156144db576144ce82600701828154811015156144be57fe5b90600052602060002001546148b7565b808060010191505061449b565b827f2ade3f30658e8481c8027d9227280e030ebbea37526a8e9e29887165e919e2ed60405160405180910390a2505050565b600080614518612e3f565b73ffffffffffffffffffffffffffffffffffffffff1663be00bbd87fd6f028ca0e8edb4a8c9757ca4fdccab25fa1e0317da1188108f7d2dee14902fb6001027fddbcfd564f642ab5627cf68b9b7d374fb4f8a36e941a75d89c87998cef03bd616001026040518363ffffffff167c01000000000000000000000000000000000000000000000000000000000281526004016145b4929190616010565b602060405180830381600087803b1580156145ce57600080fd5b505af11580156145e2573d6000803e3d6000fd5b505050506040513d601f19601f8201168201806040525061460691908101906154a0565b90508091505090565b600080600160045401600481905550600454915060026000838152602001908152602001600020905083600001518160000160000160006101000a81548173ffffffffffffffffffffffffffffffffffffffff021916908373ffffffffffffffffffffffffffffffffffffffff1602179055508360200151816000016001018190555083604001518160000160020190805190602001906146b1929190614a20565b504381600301819055506000816004018190555060008160050160006101000a81548160ff021916908360048111156146e657fe5b0217905550828160060181905550817fb696b79e6fa6e3e43f047d6702fce861e48c2267eeb009745f44a84b2c1dac4a60405160405180910390a25092915050565b600080600060016000858152602001908152602001600020925060038360060160006101000a81548160ff0219169083600381111561476357fe5b0217905550600091505b826007018054905082101561480f5760026000846007018481548110151561479157fe5b906000526020600020015481526020019081526020016000209050600360048111156147b957fe5b8160050160009054906101000a900460ff1660048111156147d657fe5b1415156148025761480183600701838154811015156147f157fe5b9060005260206000200154614842565b5b818060010192505061476d565b837f17c608dd7335e9c727c3e10aea0adfba0b0e6cc35c4935c1de31e3b10711da7560405160405180910390a250505050565b600060026000838152602001908152602001600020905060048160050160006101000a81548160ff0219169083600481111561487a57fe5b0217905550817f7b78710b9fa400a202f9262b7daad859bf5663f0d88d45073184584fe6a166e060405160405180910390a25050565b8082555050565b600060026000838152602001908152602001600020905060028160050160006101000a81548160ff021916908360048111156148ef57fe5b02179055506149298160000160000160009054906101000a900473ffffffffffffffffffffffffffffffffffffffff168260040154613def565b817fb74d3ab32949c67c027c76911841ff5e997d1276e5244bba79e532fa6ce91f838260000160000160009054906101000a900473ffffffffffffffffffffffffffffffffffffffff168360040154604051614986929190615f49565b60405180910390a25050565b60c060405190810160405280600073ffffffffffffffffffffffffffffffffffffffff16815260200160008152602001606081526020016060815260200160608152602001606081525090565b60e0604051908101604052806149f3614b39565b8152602001600081526020016000815260200160006004811115614a1357fe5b8152602001600081525090565b828054600181600116156101000203166002900490600052602060002090601f016020900481019282601f10614a6157805160ff1916838001178555614a8f565b82800160010185558215614a8f579182015b82811115614a8e578251825591602001919060010190614a73565b5b509050614a9c9190614b71565b5090565b815481835581811115614acd57600202816002028360005260206000209182019101614acc9190614b96565b5b505050565b61010060405190810160405280614ae7614be4565b81526020016000815260200160006003811115614b0057fe5b8152602001606081525090565b815481835581811115614b3457818360005260206000209182019101614b339190614b71565b5b505050565b606060405190810160405280600073ffffffffffffffffffffffffffffffffffffffff16815260200160008152602001606081525090565b614b9391905b80821115614b8f576000816000905550600101614b77565b5090565b90565b614be191905b80821115614bdd57600080820160006101000a81549073ffffffffffffffffffffffffffffffffffffffff0219169055600182016000905550600201614b9c565b5090565b90565b60a060405190810160405280600073ffffffffffffffffffffffffffffffffffffffff168152602001606081526020016060815260200160608152602001606081525090565b6000614c3682356164d1565b905092915050565b6000614c4a82516164d1565b905092915050565b600082601f8301121515614c6557600080fd5b8135614c78614c738261630d565b6162e0565b91508181835260208401935060208101905083856040840282011115614c9d57600080fd5b60005b83811015614ccd5781614cb38882614f7b565b845260208401935060408301925050600181019050614ca0565b5050505092915050565b600082601f8301121515614cea57600080fd5b8135614cfd614cf882616335565b6162e0565b9150818183526020840193506020810190508360005b83811015614d435781358601614d298882615197565b845260208401935060208301925050600181019050614d13565b5050505092915050565b600082601f8301121515614d6057600080fd5b8135614d73614d6e8261635d565b6162e0565b91508181835260208401935060208101905083856020840282011115614d9857600080fd5b60005b83811015614dc85781614dae888261544f565b845260208401935060208301925050600181019050614d9b565b5050505092915050565b600082601f8301121515614de557600080fd5b8135614df8614df382616385565b6162e0565b91508181835260208401935060208101905083856020840282011115614e1d57600080fd5b60005b83811015614e4d5781614e33888261544f565b845260208401935060208301925050600181019050614e20565b5050505092915050565b6000614e6382516164f1565b905092915050565b6000614e7782356164fd565b905092915050565b600082601f8301121515614e9257600080fd5b8135614ea5614ea0826163ad565b6162e0565b91508082526020830160208301858383011115614ec157600080fd5b614ecc8382846165d3565b50505092915050565b6000614ee18251616507565b905092915050565b6000614ef58235616519565b905092915050565b6000614f09823561652b565b905092915050565b6000614f1d8235616544565b905092915050565b600082601f8301121515614f3857600080fd5b8135614f4b614f46826163d9565b6162e0565b91508082526020830160208301858383011115614f6757600080fd5b614f728382846165d3565b50505092915050565b600060408284031215614f8d57600080fd5b614f9760406162e0565b90506000614fa784828501614c2a565b6000830152506020614fbb84828501614e6b565b60208301525092915050565b600060a08284031215614fd957600080fd5b614fe360a06162e0565b90506000614ff384828501614c2a565b600083015250602082013567ffffffffffffffff81111561501357600080fd5b61501f84828501614f25565b602083015250604082013567ffffffffffffffff81111561503f57600080fd5b61504b84828501614f25565b604083015250606082013567ffffffffffffffff81111561506b57600080fd5b61507784828501614f25565b606083015250608082013567ffffffffffffffff81111561509757600080fd5b6150a384828501614c52565b60808301525092915050565b600060a082840312156150c157600080fd5b6150cb60a06162e0565b905060006150db84828501614c2a565b600083015250602082013567ffffffffffffffff8111156150fb57600080fd5b61510784828501614f25565b602083015250604082013567ffffffffffffffff81111561512757600080fd5b61513384828501614f25565b604083015250606082013567ffffffffffffffff81111561515357600080fd5b61515f84828501614f25565b606083015250608082013567ffffffffffffffff81111561517f57600080fd5b61518b84828501614c52565b60808301525092915050565b6000606082840312156151a957600080fd5b6151b360606162e0565b905060006151c384828501614c2a565b60008301525060206151d78482850161544f565b602083015250604082013567ffffffffffffffff8111156151f757600080fd5b61520384828501614f25565b60408301525092915050565b600060c0828403121561522157600080fd5b61522b60c06162e0565b9050600061523b84828501614c2a565b600083015250602061524f8482850161544f565b602083015250604082013567ffffffffffffffff81111561526f57600080fd5b61527b84828501614f25565b604083015250606082013567ffffffffffffffff81111561529b57600080fd5b6152a784828501614f25565b606083015250608082013567ffffffffffffffff8111156152c757600080fd5b6152d384828501614f25565b60808301525060a082013567ffffffffffffffff8111156152f357600080fd5b6152ff84828501614c52565b60a08301525092915050565b60006080828403121561531d57600080fd5b61532760806162e0565b9050600082013567ffffffffffffffff81111561534357600080fd5b61534f84828501614fc7565b60008301525060206153638482850161544f565b602083015250604061537784828501614efd565b604083015250606082013567ffffffffffffffff81111561539757600080fd5b6153a384828501614d4d565b60608301525092915050565b600060a082840312156153c157600080fd5b6153cb60a06162e0565b9050600082013567ffffffffffffffff8111156153e757600080fd5b6153f384828501615197565b60008301525060206154078482850161544f565b602083015250604061541b8482850161544f565b604083015250606061542f84828501614f11565b60608301525060806154438482850161544f565b60808301525092915050565b600061545b823561655d565b905092915050565b600061546f825161655d565b905092915050565b60006020828403121561548957600080fd5b600061549784828501614c2a565b91505092915050565b6000602082840312156154b257600080fd5b60006154c084828501614c3e565b91505092915050565b6000806000606084860312156154de57600080fd5b60006154ec86828701614c2a565b93505060206154fd86828701614c2a565b925050604061550e8682870161544f565b9150509250925092565b60008060006060848603121561552d57600080fd5b600061553b86828701614c2a565b935050602061554c86828701614e6b565b925050604084013567ffffffffffffffff81111561556957600080fd5b61557586828701614dd2565b9150509250925092565b6000806040838503121561559257600080fd5b60006155a085828601614c2a565b92505060206155b18582860161544f565b9150509250929050565b6000602082840312156155cd57600080fd5b60006155db84828501614e57565b91505092915050565b6000602082840312156155f657600080fd5b600061560484828501614e6b565b91505092915050565b60006020828403121561561f57600080fd5b600082013567ffffffffffffffff81111561563957600080fd5b61564584828501614e7f565b91505092915050565b60006020828403121561566057600080fd5b600061566e84828501614ed5565b91505092915050565b60006020828403121561568957600080fd5b600061569784828501614ee9565b91505092915050565b6000602082840312156156b257600080fd5b600082013567ffffffffffffffff8111156156cc57600080fd5b6156d8848285016150af565b91505092915050565b600080604083850312156156f457600080fd5b600083013567ffffffffffffffff81111561570e57600080fd5b61571a858286016150af565b925050602083013567ffffffffffffffff81111561573757600080fd5b61574385828601614cd7565b9150509250929050565b60006020828403121561575f57600080fd5b600082013567ffffffffffffffff81111561577957600080fd5b6157858482850161520f565b91505092915050565b6000602082840312156157a057600080fd5b600082013567ffffffffffffffff8111156157ba57600080fd5b6157c68482850161530b565b91505092915050565b6000602082840312156157e157600080fd5b600082013567ffffffffffffffff8111156157fb57600080fd5b615807848285016153af565b91505092915050565b60006020828403121561582257600080fd5b60006158308482850161544f565b91505092915050565b60006020828403121561584b57600080fd5b600061585984828501615463565b91505092915050565b6000806040838503121561587557600080fd5b60006158838582860161544f565b92505060206158948582860161544f565b9150509250929050565b6158a781616465565b82525050565b60006158b88261641f565b8084526020840193506158ca83616405565b60005b828110156158fc576158e0868351615c4b565b6158e98261644b565b91506040860195506001810190506158cd565b50849250505092915050565b60006159138261642a565b80845260208401935061592583616412565b60005b828110156159575761593b868351615ed3565b61594482616458565b9150602086019550600181019050615928565b50849250505092915050565b61596c81616485565b82525050565b61597b81616491565b82525050565b600061598c82616435565b8084526159a08160208601602086016165e2565b6159a981616615565b602085010191505092915050565b6159c081616567565b82525050565b6159cf81616579565b82525050565b6159de8161658b565b82525050565b6159ed8161659d565b82525050565b6159fc816165af565b82525050565b615a0b816165c1565b82525050565b6000615a1c82616440565b808452615a308160208601602086016165e2565b615a3981616615565b602085010191505092915050565b6000603682527f7468697320636f6e7472616374206973206e6f7420736574206173206120636f60208301527f6e74726f6c6c6572206f66207468697320746f6b656e000000000000000000006040830152606082019050919050565b6000601182527f63616e6e6f74206163636570742052464c0000000000000000000000000000006020830152604082019050919050565b6000601182527f63616e6e6f742072656a6563742052464c0000000000000000000000000000006020830152604082019050919050565b6000601282527f52464c20646f6573206e6f7420657869737400000000000000000000000000006020830152604082019050919050565b6000601082527f63616e6e6f74206d6572676520524649000000000000000000000000000000006020830152604082019050919050565b6000601182527f63616e6e6f742072656a656374205246490000000000000000000000000000006020830152604082019050919050565b6000603682527f6f6e6c792074686520636f6e74726f6c6c656420746f6b656e2063616e20736560208301527f6e642045544820746f20746869732061646472657373000000000000000000006040830152606082019050919050565b6000601282527f52464920646f6573206e6f7420657869737400000000000000000000000000006020830152604082019050919050565b604082016000820151615c61600085018261589e565b506020820151615c746020850182615972565b50505050565b600060a083016000830151615c92600086018261589e565b5060208301518482036020860152615caa8282615a11565b91505060408301518482036040860152615cc48282615a11565b91505060608301518482036060860152615cde8282615a11565b91505060808301518482036080860152615cf882826158ad565b9150508091505092915050565b6000606083016000830151615d1d600086018261589e565b506020830151615d306020860182615ed3565b5060408301518482036040860152615d488282615a11565b9150508091505092915050565b600060c083016000830151615d6d600086018261589e565b506020830151615d806020860182615ed3565b5060408301518482036040860152615d988282615a11565b91505060608301518482036060860152615db28282615a11565b91505060808301518482036080860152615dcc8282615a11565b91505060a083015184820360a0860152615de682826158ad565b9150508091505092915050565b60006080830160008301518482036000860152615e108282615c7a565b9150506020830151615e256020860182615ed3565b506040830151615e3860408601826159f3565b5060608301518482036060860152615e508282615908565b9150508091505092915050565b600060a0830160008301518482036000860152615e7a8282615d05565b9150506020830151615e8f6020860182615ed3565b506040830151615ea26040860182615ed3565b506060830151615eb56060860182615a02565b506080830151615ec86080860182615ed3565b508091505092915050565b615edc816164c7565b82525050565b6000602082019050615ef7600083018461589e565b92915050565b6000608082019050615f12600083018761589e565b615f1f602083018661589e565b615f2c6040830185615972565b8181036060830152615f3e8184615981565b905095945050505050565b6000604082019050615f5e600083018561589e565b615f6b6020830184615ed3565b9392505050565b600060a082019050615f87600083018861589e565b615f946020830187615ed3565b8181036040830152615fa68186615a11565b90508181036060830152615fba8185615a11565b90508181036080830152615fce8184615a11565b90509695505050505050565b6000602082019050615fef6000830184615963565b92915050565b600060208201905061600a6000830184615972565b92915050565b60006040820190506160256000830185615972565b6160326020830184615972565b9392505050565b600060208201905081810360008301526160538184615981565b905092915050565b600060208201905061607060008301846159b7565b92915050565b600060208201905061608b60008301846159c6565b92915050565b60006020820190506160a660008301846159d5565b92915050565b60006020820190506160c160008301846159e4565b92915050565b600060208201905081810360008301526160e081615a47565b9050919050565b6000602082019050818103600083015261610081615aa4565b9050919050565b6000602082019050818103600083015261612081615adb565b9050919050565b6000602082019050818103600083015261614081615b12565b9050919050565b6000602082019050818103600083015261616081615b49565b9050919050565b6000602082019050818103600083015261618081615b80565b9050919050565b600060208201905081810360008301526161a081615bb7565b9050919050565b600060208201905081810360008301526161c081615c14565b9050919050565b600060608201905081810360008301526161e18186615c7a565b90506161f06020830185615ed3565b6161fd60408301846159f3565b949350505050565b600060a082019050818103600083015261621f8188615d05565b905061622e6020830187615ed3565b61623b6040830186615ed3565b6162486060830185615a02565b6162556080830184615ed3565b9695505050505050565b600060208201905081810360008301526162798184615d55565b905092915050565b6000602082019050818103600083015261629b8184615df3565b905092915050565b600060208201905081810360008301526162bd8184615e5d565b905092915050565b60006020820190506162da6000830184615ed3565b92915050565b6000604051905081810181811067ffffffffffffffff8211171561630357600080fd5b8060405250919050565b600067ffffffffffffffff82111561632457600080fd5b602082029050602081019050919050565b600067ffffffffffffffff82111561634c57600080fd5b602082029050602081019050919050565b600067ffffffffffffffff82111561637457600080fd5b602082029050602081019050919050565b600067ffffffffffffffff82111561639c57600080fd5b602082029050602081019050919050565b600067ffffffffffffffff8211156163c457600080fd5b601f19601f8301169050602081019050919050565b600067ffffffffffffffff8211156163f057600080fd5b601f19601f8301169050602081019050919050565b6000602082019050919050565b6000602082019050919050565b600081519050919050565b600081519050919050565b600081519050919050565b600081519050919050565b6000602082019050919050565b6000602082019050919050565b600073ffffffffffffffffffffffffffffffffffffffff82169050919050565b60008115159050919050565b6000819050919050565b60006004821015156164a957fe5b819050919050565b60006005821015156164bf57fe5b819050919050565b6000819050919050565b600073ffffffffffffffffffffffffffffffffffffffff82169050919050565b60008115159050919050565b6000819050919050565b600061651282616465565b9050919050565b600061652482616465565b9050919050565b600060048210151561653c57600080fd5b819050919050565b600060058210151561655557600080fd5b819050919050565b6000819050919050565b600061657282616465565b9050919050565b600061658482616465565b9050919050565b600061659682616465565b9050919050565b60006165a882616465565b9050919050565b60006165ba8261649b565b9050919050565b60006165cc826164b1565b9050919050565b82818337600083830152505050565b60005b838110156166005780820151818401526020810190506165e5565b8381111561660f576000848401525b50505050565b6000601f19601f83011690509190505600a265627a7a723058202903fb0f2689b9fb186838d999c306e3c4c234d9a5d09cbd994cf92fb69031c06c6578706572696d656e74616cf50037",
  "source": "pragma solidity ^0.4.24;\npragma experimental ABIEncoderV2;\n\nimport \"@aragon/os/contracts/apps/AragonApp.sol\";\nimport \"@aragon/apps-shared-minime/contracts/ITokenController.sol\";\nimport \"@aragon/apps-shared-minime/contracts/MiniMeToken.sol\";\n/* import \"../lib/Pando.sol\"; */\n/* import \"./PandoGenesis.sol\";\nimport \"./PandoLineage.sol\"; */\n\n\ncontract Organism is ITokenController, AragonApp {\n    /* using Pando for Pando.Individuation;\n    using Pando for Pando.RFI;\n    using Pando for Pando.RFL; */\n    enum RFLState   { Pending, Accepted, Issued, Rejected, Cancelled }\n    enum RFIState   { Pending, Merged, Rejected, Cancelled }\n    enum RFISorting { Merge, Reject }\n\n    struct IID {\n        address api;\n        bytes32 hash;\n    }\n\n    struct IIndividuation {\n        address origin;\n        string  tree;\n        string  message;\n        string  metadata;\n        IID[]   parents;\n    }\n\n    struct Individuation {\n        address origin;\n        uint256 blockstamp;\n        string  tree;\n        string  message;\n        string  metadata;\n        IID[]   parents;\n    }\n\n    struct RFI {\n        IIndividuation individuation;\n        uint256        blockstamp;\n        RFIState       state;\n        uint256[]      RFLids;\n    }\n\n    struct ILineage {\n        address  destination;\n        uint256  minimum;\n        string   metadata;\n    }\n\n    struct RFL {\n        ILineage lineage;\n        uint256  blockstamp;\n        uint256  value;\n        RFLState state;\n        uint256  RFIid;\n    }\n\n    function isPending(RFI _rfi) public pure returns (bool) {\n        return _rfi.state == RFIState.Pending;\n    }\n\n    function isPending(RFL _rfl) public pure returns (bool) {\n        return _rfl.state == RFLState.Pending;\n    }\n\n    function isAccepted(RFL _rfl) public pure returns (bool) {\n        return _rfl.state == RFLState.Accepted;\n    }\n\n    function hash(Individuation _individuation) public pure returns (bytes32) {\n        return keccak256(\n            abi.encodePacked(\n                _individuation.origin,\n                _individuation.blockstamp,\n                _individuation.tree,\n                _individuation.message,\n                _individuation.metadata,\n                _individuation.parents)\n            );\n    }\n\n    bytes32 constant public CREATE_RFI_ROLE  = keccak256(\"CREATE_RFI_ROLE\");\n    bytes32 constant public MERGE_RFI_ROLE   = keccak256(\"MERGE_RFI_ROLE\");\n    bytes32 constant public REJECT_RFI_ROLE  = keccak256(\"REJECT_RFI_ROLE\");\n    bytes32 constant public ACCEPT_RFL_ROLE  = keccak256(\"ACCEPT_RFL_ROLE\");\n    bytes32 constant public REJECT_RFL_ROLE  = keccak256(\"REJECT_RFL_ROLE\");\n    bytes32 constant public INDIVIDUATE_ROLE = keccak256(\"INDIVIDUATE_ROLE\");\n    bytes32 public constant MINT_ROLE = keccak256(\"MINT_ROLE\");\n    bytes32 public constant BURN_ROLE = keccak256(\"BURN_ROLE\");\n\n    MiniMeToken public token;\n\n\n    /* PandoGenesis public genesis;\n    PandoLineage public lineage; */\n\n\n\n\n\n\n\n    // Use a mapping instead of an array to ease app upgrade\n    // See https://github.com/aragon/aragon-apps/pull/428\n    // See https://youtu.be/sJ7VECqHFAg?t=9m27s\n    mapping (uint256 => RFI) public RFIs;\n    mapping (uint256 => RFL) public RFLs;\n\n    uint256 public RFIsLength = 0;\n    uint256 public RFLsLength = 0;\n\n    mapping(bytes32 => Individuation) public individuations;\n\n    bytes32 public head;\n\n\n    event CreateRFI(uint256 indexed id);\n    event MergeRFI(uint256 indexed id);\n    event RejectRFI(uint256 indexed id);\n    event CancelRFI(uint256 indexed id);\n\n    event CreateRFL(uint256 indexed id);\n    event AcceptRFL(uint256 indexed id, uint256 value);\n    event RejectRFL(uint256 indexed id);\n    event CancelRFL(uint256 indexed id);\n    event IssueRFL(uint256 indexed id, address destination, uint256 value);\n\n    event Individuate(bytes32 hash);\n\n\n    modifier RFIExists(uint256 _RFIid) {\n        require(_RFIid <= RFIsLength, \"RFI does not exist\");\n        _;\n    }\n\n    modifier RFLExists(uint256 _RFLid) {\n        require(_RFLid <= RFLsLength, \"RFL does not exist\");\n        _;\n    }\n\n    /*--------------------*/\n\n    function initialize(MiniMeToken _token) external onlyInit {\n        require(_token.controller() == address(this), \"this contract is not set as a controller of this token\");\n\n        initialized();\n\n        token = _token;\n        token.enableTransfers(false);\n    }\n\n    function createRFI(IIndividuation _individuation, ILineage[] _lineages)\n        public\n        isInitialized\n        auth(CREATE_RFI_ROLE)\n        returns (uint256 RFIid)\n    {\n        RFIid = _createRFI(_individuation, _lineages);\n    }\n\n    function mergeRFI(uint256 _RFIid) public isInitialized auth(MERGE_RFI_ROLE) {\n        require(canMergeRFI(_RFIid), \"cannot merge RFI\");\n        _mergeRFI(_RFIid);\n    }\n\n    function rejectRFI(uint256 _RFIid) public isInitialized auth(REJECT_RFI_ROLE) {\n        require(canRejectRFI(_RFIid), \"cannot reject RFI\");\n        _rejectRFI(_RFIid);\n    }\n\n    function acceptRFL(uint256 _RFLid, uint256 _value) public isInitialized auth(ACCEPT_RFL_ROLE) {\n        require(canAcceptRFL(_RFLid, _value), \"cannot accept RFL\");\n        _acceptRFL(_RFLid, _value);\n    }\n\n    function rejectRFL(uint256 _RFLid) public isInitialized auth(REJECT_RFL_ROLE) {\n        require(canRejectRFL(_RFLid), \"cannot reject RFL\");\n        _rejectRFL(_RFLid);\n    }\n\n    /*--------------------*/\n\n    function mint(address _receiver, uint256 _amount) external auth(MINT_ROLE) {\n        _mint(_receiver, _amount);\n    }\n\n    function burn(address _holder, uint256 _amount) external auth(BURN_ROLE) {\n        // minime.destroyTokens() never returns false, only reverts on failure\n        token.destroyTokens(_holder, _amount);\n    }\n\n    function proxyPayment(address) public payable returns (bool) {\n        // Sender check is required to avoid anyone sending ETH to the Token Manager through this method\n        // Even though it is tested, solidity-coverage doesnt get it because\n        // MiniMeToken is not instrumented and entire tx is reverted\n        require(msg.sender == address(token), \"only the controlled token can send ETH to this address\");\n        return false;\n    }\n\n    function onTransfer(address _from, address _to, uint _amount) external returns(bool) {\n        return false;\n    }\n\n    function onApprove(address, address, uint) public returns (bool) {\n        return false;\n    }\n\n    function _mint(address _receiver, uint256 _amount) internal {\n        token.generateTokens(_receiver, _amount); // minime.generateTokens() never returns false\n    }\n\n    /*--------------------*/\n\n    function canMergeRFI(uint256 _RFIid) public view returns (bool) {\n        if (_RFIid > RFIsLength)\n            return false;\n        RFI storage RFI_ = RFIs[_RFIid];\n        if (RFI_.state != RFIState.Pending)\n            return false;\n        for (uint256 i = 0; i < RFI_.RFLids.length; i++) {\n            RFL storage rfl = RFLs[RFI_.RFLids[i]];\n            if (rfl.state != RFLState.Accepted)\n                return false;\n        }\n        return true;\n    }\n\n    function canRejectRFI(uint _RFIid) public view returns (bool) {\n        if (_RFIid > RFIsLength)\n            return false;\n        if (RFIs[_RFIid].state != RFIState.Pending)\n            return false;\n        return true;\n    }\n\n    function canAcceptRFL(uint256 _RFLid, uint256 _value) public view returns (bool) {\n        if (_RFLid > RFLsLength)\n            return false;\n        if (RFLs[_RFLid].state != RFLState.Pending)\n            return false;\n        if (_value < RFLs[_RFLid].lineage.minimum)\n            return false;\n        return true;\n    }\n\n    function canRejectRFL(uint _RFLid) public view returns (bool) {\n        if (_RFLid > RFLsLength)\n            return false;\n        if (RFLs[_RFLid].state != RFLState.Pending)\n            return false;\n        return true;\n    }\n\n    /*--------------------*/\n\n    function getRFI(uint256 _RFIid) public view RFIExists(_RFIid) returns (RFI) {\n        return RFIs[_RFIid];\n    }\n\n    function getRFL(uint256 _RFLid) public view RFLExists(_RFLid) returns (RFL) {\n        return RFLs[_RFLid];\n    }\n\n    function getIndividuationHash(Individuation _individuation) public pure returns (bytes32) {\n        return hash(_individuation);\n    }\n\n    function individuate(IIndividuation _individuation) public isInitialized auth(INDIVIDUATE_ROLE) {\n        Individuation memory individuation = Individuation(\n            _individuation.origin,\n            block.number,\n            _individuation.tree,\n            _individuation.message,\n            _individuation.metadata,\n            _individuation.parents\n        );\n\n        bytes32 hash_ = hash(individuation);\n\n        individuations[hash_].origin = individuation.origin;\n        individuations[hash_].blockstamp = individuation.blockstamp;\n        individuations[hash_].tree = individuation.tree;\n        individuations[hash_].message = individuation.message;\n        individuations[hash_].metadata = individuation.metadata;\n\n        // solc 4.0.24 cannot directly convert dynamic struct array from memory to storage\n        individuations[hash_].parents.length = individuation.parents.length;\n        for (uint256 i = 0; i < individuation.parents.length; i++) {\n            individuations[hash_].parents[i] = individuation.parents[i];\n        }\n\n        head = hash_;\n\n        emit Individuate(hash_);\n    }\n\n    function getIndividuation(bytes32 _hash) public view isInitialized returns (Individuation) {\n        return individuations[_hash];\n    }\n\n    function getHead() public view isInitialized returns (Individuation) {\n        return individuations[head];\n    }\n\n    /*--------------------*/\n\n    function _createRFI(IIndividuation _individuation, ILineage[] _lineages) internal returns (uint256 RFIid) {\n        // msg.sender is gonna be the address of a governance kit built on top of the API\n        // Do you we wanna make sure that the transaction is actually initialized by _individuation.origin ?\n        // If this is the case then we're gonna need to ask for a proof of identity through a ECDSA signature\n        // See https://github.com/OpenZeppelin/openzeppelin-solidity/blob/master/contracts/cryptography/ECDSA.sol\n\n        RFIsLength = RFIsLength + 1;\n        RFIid = RFIsLength;\n\n        RFI storage rfi = RFIs[RFIid];\n\n        rfi.individuation.origin = _individuation.origin;\n        rfi.individuation.tree = _individuation.tree;\n        rfi.individuation.message = _individuation.message;\n        rfi.individuation.metadata = _individuation.metadata;\n        rfi.blockstamp = block.number;\n        rfi.state = RFIState.Pending;\n\n        // solc 4.0.24 cannot directly convert dynamic struct array from memory to storage\n        rfi.individuation.parents.length = _individuation.parents.length;\n        for (uint256 i = 0; i < _individuation.parents.length; i++) {\n            rfi.individuation.parents[i] = _individuation.parents[i];\n        }\n\n        for (uint256 j = 0; j < _lineages.length; j++) {\n            uint256 RFLid = _createRFL(_lineages[j], RFIid);\n            uint256 index = rfi.RFLids.length++;\n            rfi.RFLids[index] = RFLid;\n        }\n\n        emit CreateRFI(RFIid);\n    }\n\n    function _mergeRFI(uint256 _RFIid) internal {\n        RFI storage rfi = RFIs[_RFIid];\n\n        rfi.state = RFIState.Merged;\n\n        individuate(rfi.individuation);\n\n        for (uint256 i = 0; i < rfi.RFLids.length; i++) {\n            _issueRFL(rfi.RFLids[i]);\n        }\n\n        emit MergeRFI(_RFIid);\n    }\n\n    function _rejectRFI(uint256 _RFIid) internal {\n        RFI storage rfi = RFIs[_RFIid];\n\n        rfi.state = RFIState.Rejected;\n\n        for (uint256 j = 0; j < rfi.RFLids.length; j++) {\n            _cancelRFL(rfi.RFLids[j]);\n        }\n\n        emit RejectRFI(_RFIid);\n    }\n\n    function _cancelRFI(uint256 _RFIid) internal {\n        RFI storage rfi = RFIs[_RFIid];\n\n        rfi.state = RFIState.Cancelled;\n\n        for (uint256 i = 0; i < rfi.RFLids.length; i++) {\n            RFL storage rfl = RFLs[rfi.RFLids[i]];\n\n            if (rfl.state != RFLState.Rejected)\n                _cancelRFL(rfi.RFLids[i]);\n        }\n\n        emit CancelRFI(_RFIid);\n    }\n\n    function _createRFL(ILineage _lineage, uint256 _RFIid) internal returns (uint256 RFLid) {\n        RFLsLength = RFLsLength + 1;\n        RFLid = RFLsLength;\n\n        RFL storage rfl = RFLs[RFLid];\n\n        rfl.lineage.destination = _lineage.destination;\n        rfl.lineage.minimum = _lineage.minimum;\n        rfl.lineage.metadata = _lineage.metadata;\n        rfl.blockstamp = block.number;\n        rfl.value = 0;\n        rfl.state = RFLState.Pending;\n        rfl.RFIid = _RFIid;\n\n        emit CreateRFL(RFLid);\n    }\n\n    function _acceptRFL(uint256 _RFLid, uint256 _value) internal {\n        RFL storage rfl = RFLs[_RFLid];\n\n        rfl.state = RFLState.Accepted;\n        rfl.value = _value;\n\n        emit AcceptRFL(_RFLid, _value);\n    }\n\n    function _rejectRFL(uint256 _RFLid) internal {\n        RFL storage rfl = RFLs[_RFLid];\n\n        rfl.state = RFLState.Rejected;\n\n        _cancelRFI(rfl.RFIid);\n\n        emit RejectRFL(_RFLid);\n    }\n\n    function _cancelRFL(uint256 _RFLid) internal {\n        RFL storage rfl = RFLs[_RFLid];\n\n        rfl.state = RFLState.Cancelled;\n\n        emit CancelRFL(_RFLid);\n    }\n\n    function _issueRFL(uint256 _RFLid) internal {\n        RFL storage rfl = RFLs[_RFLid];\n\n        rfl.state = RFLState.Issued;\n\n        _mint(rfl.lineage.destination, rfl.value);\n\n        emit IssueRFL(_RFLid, rfl.lineage.destination, rfl.value);\n    }\n}\n",
  "sourcePath": "/Users/osarrouy/Documents/dapp/@pando/packages/core/contracts/core/Organism.sol",
  "compiler": {
    "name": "solc",
    "version": "0.4.24+commit.e67f0147.Emscripten.clang"
  },
  "schemaVersion": "3.0.0-beta.1",
  "updatedAt": "2018-11-24T12:34:21.146Z"
}