{
  "contractName": "PandoBranch",
  "abi": [
    {
      "constant": true,
      "inputs": [],
      "name": "SUBMIT_REQUEST_ROLE",
      "outputs": [
        {
          "name": "",
          "type": "bytes32"
        }
      ],
      "payable": false,
      "stateMutability": "view",
      "type": "function"
    },
    {
      "constant": true,
      "inputs": [],
      "name": "getRecoveryVault",
      "outputs": [
        {
          "name": "",
          "type": "address"
        }
      ],
      "payable": false,
      "stateMutability": "view",
      "type": "function"
    },
    {
      "constant": true,
      "inputs": [],
      "name": "EVMSCRIPT_REGISTRY_APP_ID",
      "outputs": [
        {
          "name": "",
          "type": "bytes32"
        }
      ],
      "payable": false,
      "stateMutability": "view",
      "type": "function"
    },
    {
      "constant": true,
      "inputs": [
        {
          "name": "token",
          "type": "address"
        }
      ],
      "name": "allowRecoverability",
      "outputs": [
        {
          "name": "",
          "type": "bool"
        }
      ],
      "payable": false,
      "stateMutability": "view",
      "type": "function"
    },
    {
      "constant": true,
      "inputs": [],
      "name": "appId",
      "outputs": [
        {
          "name": "",
          "type": "bytes32"
        }
      ],
      "payable": false,
      "stateMutability": "view",
      "type": "function"
    },
    {
      "constant": true,
      "inputs": [],
      "name": "ETH",
      "outputs": [
        {
          "name": "",
          "type": "address"
        }
      ],
      "payable": false,
      "stateMutability": "view",
      "type": "function"
    },
    {
      "constant": true,
      "inputs": [],
      "name": "getInitializationBlock",
      "outputs": [
        {
          "name": "",
          "type": "uint256"
        }
      ],
      "payable": false,
      "stateMutability": "view",
      "type": "function"
    },
    {
      "constant": true,
      "inputs": [],
      "name": "EVMSCRIPT_REGISTRY_APP",
      "outputs": [
        {
          "name": "",
          "type": "bytes32"
        }
      ],
      "payable": false,
      "stateMutability": "view",
      "type": "function"
    },
    {
      "constant": false,
      "inputs": [
        {
          "name": "_token",
          "type": "address"
        }
      ],
      "name": "transferToVault",
      "outputs": [],
      "payable": false,
      "stateMutability": "nonpayable",
      "type": "function"
    },
    {
      "constant": true,
      "inputs": [
        {
          "name": "_sender",
          "type": "address"
        },
        {
          "name": "_role",
          "type": "bytes32"
        },
        {
          "name": "_params",
          "type": "uint256[]"
        }
      ],
      "name": "canPerform",
      "outputs": [
        {
          "name": "",
          "type": "bool"
        }
      ],
      "payable": false,
      "stateMutability": "view",
      "type": "function"
    },
    {
      "constant": true,
      "inputs": [],
      "name": "UPDATE_REQUEST_ROLE",
      "outputs": [
        {
          "name": "",
          "type": "bytes32"
        }
      ],
      "payable": false,
      "stateMutability": "view",
      "type": "function"
    },
    {
      "constant": true,
      "inputs": [],
      "name": "kernel",
      "outputs": [
        {
          "name": "",
          "type": "address"
        }
      ],
      "payable": false,
      "stateMutability": "view",
      "type": "function"
    },
    {
      "constant": true,
      "inputs": [],
      "name": "CANCEL_REQUEST_ROLE",
      "outputs": [
        {
          "name": "",
          "type": "bytes32"
        }
      ],
      "payable": false,
      "stateMutability": "view",
      "type": "function"
    },
    {
      "constant": true,
      "inputs": [],
      "name": "VALUATE_REQUEST_ROLE",
      "outputs": [
        {
          "name": "",
          "type": "bytes32"
        }
      ],
      "payable": false,
      "stateMutability": "view",
      "type": "function"
    },
    {
      "constant": true,
      "inputs": [
        {
          "name": "_script",
          "type": "bytes"
        }
      ],
      "name": "getExecutor",
      "outputs": [
        {
          "name": "",
          "type": "address"
        }
      ],
      "payable": false,
      "stateMutability": "view",
      "type": "function"
    },
    {
      "constant": true,
      "inputs": [],
      "name": "HANDLE_REQUEST_ROLE",
      "outputs": [
        {
          "name": "",
          "type": "bytes32"
        }
      ],
      "payable": false,
      "stateMutability": "view",
      "type": "function"
    },
    {
      "anonymous": false,
      "inputs": [
        {
          "indexed": true,
          "name": "requestId",
          "type": "uint256"
        }
      ],
      "name": "SubmitRequest",
      "type": "event"
    },
    {
      "anonymous": false,
      "inputs": [
        {
          "indexed": true,
          "name": "requestId",
          "type": "uint256"
        }
      ],
      "name": "UpdateRequest",
      "type": "event"
    },
    {
      "anonymous": false,
      "inputs": [
        {
          "indexed": true,
          "name": "requestId",
          "type": "uint256"
        }
      ],
      "name": "CancelRequest",
      "type": "event"
    },
    {
      "anonymous": false,
      "inputs": [
        {
          "indexed": true,
          "name": "requestId",
          "type": "uint256"
        },
        {
          "indexed": false,
          "name": "value",
          "type": "uint256"
        }
      ],
      "name": "ValuateRequest",
      "type": "event"
    },
    {
      "anonymous": false,
      "inputs": [
        {
          "indexed": true,
          "name": "requestId",
          "type": "uint256"
        }
      ],
      "name": "AcceptRequest",
      "type": "event"
    },
    {
      "anonymous": false,
      "inputs": [
        {
          "indexed": true,
          "name": "requestId",
          "type": "uint256"
        }
      ],
      "name": "RejectRequest",
      "type": "event"
    },
    {
      "anonymous": false,
      "inputs": [
        {
          "indexed": true,
          "name": "commitId",
          "type": "uint256"
        }
      ],
      "name": "NewCommit",
      "type": "event"
    },
    {
      "anonymous": false,
      "inputs": [
        {
          "indexed": true,
          "name": "executor",
          "type": "address"
        },
        {
          "indexed": false,
          "name": "script",
          "type": "bytes"
        },
        {
          "indexed": false,
          "name": "input",
          "type": "bytes"
        },
        {
          "indexed": false,
          "name": "returnData",
          "type": "bytes"
        }
      ],
      "name": "ScriptResult",
      "type": "event"
    },
    {
      "constant": false,
      "inputs": [
        {
          "name": "_name",
          "type": "string"
        }
      ],
      "name": "initialize",
      "outputs": [],
      "payable": false,
      "stateMutability": "nonpayable",
      "type": "function"
    },
    {
      "constant": false,
      "inputs": [
        {
          "name": "_author",
          "type": "address"
        },
        {
          "name": "_timestamp",
          "type": "uint256"
        },
        {
          "name": "_parents",
          "type": "bytes32[]"
        },
        {
          "name": "_tree",
          "type": "string"
        }
      ],
      "name": "submitRequest",
      "outputs": [
        {
          "name": "requestId",
          "type": "uint256"
        }
      ],
      "payable": false,
      "stateMutability": "nonpayable",
      "type": "function"
    },
    {
      "constant": false,
      "inputs": [
        {
          "name": "_requestId",
          "type": "uint256"
        },
        {
          "name": "_timestamp",
          "type": "uint256"
        },
        {
          "name": "_parents",
          "type": "bytes32[]"
        },
        {
          "name": "_tree",
          "type": "string"
        }
      ],
      "name": "updateRequest",
      "outputs": [],
      "payable": false,
      "stateMutability": "nonpayable",
      "type": "function"
    },
    {
      "constant": false,
      "inputs": [
        {
          "name": "_requestId",
          "type": "uint256"
        }
      ],
      "name": "cancelRequest",
      "outputs": [],
      "payable": false,
      "stateMutability": "nonpayable",
      "type": "function"
    },
    {
      "constant": false,
      "inputs": [
        {
          "name": "_requestId",
          "type": "uint256"
        },
        {
          "name": "_value",
          "type": "uint256"
        }
      ],
      "name": "valuateRequest",
      "outputs": [],
      "payable": false,
      "stateMutability": "nonpayable",
      "type": "function"
    },
    {
      "constant": false,
      "inputs": [
        {
          "name": "_requestId",
          "type": "uint256"
        },
        {
          "name": "_decision",
          "type": "uint8"
        }
      ],
      "name": "handleRequest",
      "outputs": [],
      "payable": false,
      "stateMutability": "nonpayable",
      "type": "function"
    },
    {
      "constant": true,
      "inputs": [
        {
          "name": "_sender",
          "type": "address"
        },
        {
          "name": "_requestId",
          "type": "uint256"
        }
      ],
      "name": "canUpdate",
      "outputs": [
        {
          "name": "",
          "type": "bool"
        }
      ],
      "payable": false,
      "stateMutability": "view",
      "type": "function"
    },
    {
      "constant": true,
      "inputs": [
        {
          "name": "_sender",
          "type": "address"
        },
        {
          "name": "_requestId",
          "type": "uint256"
        }
      ],
      "name": "canCancel",
      "outputs": [
        {
          "name": "",
          "type": "bool"
        }
      ],
      "payable": false,
      "stateMutability": "view",
      "type": "function"
    },
    {
      "constant": true,
      "inputs": [
        {
          "name": "_sender",
          "type": "address"
        },
        {
          "name": "_requestId",
          "type": "uint256"
        },
        {
          "name": "_value",
          "type": "uint256"
        }
      ],
      "name": "canValuate",
      "outputs": [
        {
          "name": "",
          "type": "bool"
        }
      ],
      "payable": false,
      "stateMutability": "view",
      "type": "function"
    },
    {
      "constant": true,
      "inputs": [
        {
          "name": "_sender",
          "type": "address"
        },
        {
          "name": "_requestId",
          "type": "uint256"
        },
        {
          "name": "_decision",
          "type": "uint8"
        }
      ],
      "name": "canHandle",
      "outputs": [
        {
          "name": "",
          "type": "bool"
        }
      ],
      "payable": false,
      "stateMutability": "view",
      "type": "function"
    },
    {
      "constant": true,
      "inputs": [
        {
          "name": "_requestId",
          "type": "uint256"
        }
      ],
      "name": "getRequest",
      "outputs": [
        {
          "name": "version",
          "type": "uint256[3]"
        },
        {
          "name": "author",
          "type": "address"
        },
        {
          "name": "timestamp",
          "type": "uint256"
        },
        {
          "name": "parents",
          "type": "bytes32[]"
        },
        {
          "name": "tree",
          "type": "string"
        },
        {
          "name": "origin",
          "type": "address"
        },
        {
          "name": "block",
          "type": "uint256"
        },
        {
          "name": "value",
          "type": "uint256"
        },
        {
          "name": "valuated",
          "type": "bool"
        },
        {
          "name": "state",
          "type": "uint8"
        }
      ],
      "payable": false,
      "stateMutability": "view",
      "type": "function"
    },
    {
      "constant": true,
      "inputs": [
        {
          "name": "_commitId",
          "type": "uint256"
        }
      ],
      "name": "getCommit",
      "outputs": [
        {
          "name": "version",
          "type": "uint256[3]"
        },
        {
          "name": "author",
          "type": "address"
        },
        {
          "name": "timestamp",
          "type": "uint256"
        },
        {
          "name": "parents",
          "type": "bytes32[]"
        },
        {
          "name": "tree",
          "type": "string"
        },
        {
          "name": "origin",
          "type": "address"
        },
        {
          "name": "block",
          "type": "uint256"
        },
        {
          "name": "value",
          "type": "uint256"
        }
      ],
      "payable": false,
      "stateMutability": "view",
      "type": "function"
    },
    {
      "constant": true,
      "inputs": [],
      "name": "getHead",
      "outputs": [
        {
          "name": "version",
          "type": "uint256[3]"
        },
        {
          "name": "author",
          "type": "address"
        },
        {
          "name": "timestamp",
          "type": "uint256"
        },
        {
          "name": "parents",
          "type": "bytes32[]"
        },
        {
          "name": "tree",
          "type": "string"
        },
        {
          "name": "origin",
          "type": "address"
        },
        {
          "name": "block",
          "type": "uint256"
        },
        {
          "name": "value",
          "type": "uint256"
        }
      ],
      "payable": false,
      "stateMutability": "view",
      "type": "function"
    }
  ],
  "bytecode": "0x608060405234801561001057600080fd5b5061319e806100206000396000f300608060405260043610610175576000357c0100000000000000000000000000000000000000000000000000000000900463ffffffff16806311dbb3191461017a5780631ea0f5ed146101a55780633015394c146101ce57806332f0a3b5146101f757806332f20a1a1461022257806352acf69a1461025f57806360b1e0571461029c5780636939eb40146102c75780637e7db6e11461030457806380ac9a481461034157806380afdea81461036a5780638322fff2146103955780638a20507e146103c05780638b3dd749146103e95780639b3fdf4c146104145780639d4941d81461043f578063a1658fad14610468578063b4df9392146104a5578063c58343ef146104d0578063c9c0cdd614610516578063d4aae0c414610553578063d747b6781461057e578063dc281aff146105bb578063f1109ea5146105ed578063f2729b4c14610618578063f62d188814610643578063f92a79ff1461066c578063fcdbb8af146106a9578063ffe8c2ed146106ed575b600080fd5b34801561018657600080fd5b5061018f610718565b60405161019c9190612e81565b60405180910390f35b3480156101b157600080fd5b506101cc60048036036101c79190810190612a3b565b610751565b005b3480156101da57600080fd5b506101f560048036036101f091908101906129ad565b610775565b005b34801561020357600080fd5b5061020c610778565b6040516102199190612c9c565b60405180910390f35b34801561022e57600080fd5b5061024960048036036102449190810190612760565b610882565b6040516102569190612e66565b60405180910390f35b34801561026b57600080fd5b5061028660048036036102819190810190612760565b61090f565b6040516102939190612e66565b60405180910390f35b3480156102a857600080fd5b506102b161099c565b6040516102be9190612e81565b60405180910390f35b3480156102d357600080fd5b506102ee60048036036102e9919081019061279c565b6109c3565b6040516102fb9190612f0f565b60405180910390f35b34801561031057600080fd5b5061032b600480360361032691908101906126a7565b610abb565b6040516103389190612e66565b60405180910390f35b34801561034d57600080fd5b5061036860048036036103639190810190612a77565b610ac6565b005b34801561037657600080fd5b5061037f610ae3565b60405161038c9190612e81565b60405180910390f35b3480156103a157600080fd5b506103aa610ae9565b6040516103b79190612c9c565b60405180910390f35b3480156103cc57600080fd5b506103e760048036036103e291908101906129ff565b610aee565b005b3480156103f557600080fd5b506103fe610b8f565b60405161040b9190612f0f565b60405180910390f35b34801561042057600080fd5b50610429610b99565b6040516104369190612e81565b60405180910390f35b34801561044b57600080fd5b50610466600480360361046191908101906126a7565b610bc0565b005b34801561047457600080fd5b5061048f600480360361048a91908101906126f9565b610de6565b60405161049c9190612e66565b60405180910390f35b3480156104b157600080fd5b506104ba610f1e565b6040516104c79190612e81565b60405180910390f35b3480156104dc57600080fd5b506104f760048036036104f291908101906129ad565b610f57565b60405161050d9a99989796959493929190612dba565b60405180910390f35b34801561052257600080fd5b5061053d60048036036105389190810190612837565b611187565b60405161054a9190612e66565b60405180910390f35b34801561055f57600080fd5b506105686112a2565b6040516105759190612ed9565b60405180910390f35b34801561058a57600080fd5b506105a560048036036105a09190810190612886565b6112c7565b6040516105b29190612e66565b60405180910390f35b3480156105c757600080fd5b506105d0611335565b6040516105e4989796959493929190612d2c565b60405180910390f35b3480156105f957600080fd5b50610602611378565b60405161060f9190612e81565b60405180910390f35b34801561062457600080fd5b5061062d6113b1565b60405161063a9190612e81565b60405180910390f35b34801561064f57600080fd5b5061066a60048036036106659190810190612968565b6113ea565b005b34801561067857600080fd5b50610693600480360361068e91908101906128fe565b611419565b6040516106a09190612ebe565b60405180910390f35b3480156106b557600080fd5b506106d060048036036106cb91908101906129ad565b6114d0565b6040516106e4989796959493929190612d2c565b60405180910390f35b3480156106f957600080fd5b506107026116bb565b60405161070f9190612e81565b60405180910390f35b60405180807f5355424d49545f524551554553545f524f4c45000000000000000000000000008152506013019050604051809103902081565b61075c3383836112c7565b151561076757600080fd5b61077182826116f4565b5050565b50565b6000806000809054906101000a900473ffffffffffffffffffffffffffffffffffffffff1673ffffffffffffffffffffffffffffffffffffffff16141515156107c057600080fd5b6000809054906101000a900473ffffffffffffffffffffffffffffffffffffffff1673ffffffffffffffffffffffffffffffffffffffff166332f0a3b56040518163ffffffff167c0100000000000000000000000000000000000000000000000000000000028152600401602060405180830381600087803b15801561084557600080fd5b505af1158015610859573d6000803e3d6000fd5b505050506040513d601f19601f8201168201806040525061087d91908101906126d0565b905090565b600061088d826117a2565b801561090757508273ffffffffffffffffffffffffffffffffffffffff166066838154811015156108ba57fe5b90600052602060002090600b020160000160070160009054906101000a900473ffffffffffffffffffffffffffffffffffffffff1673ffffffffffffffffffffffffffffffffffffffff16145b905092915050565b600061091a826117a2565b801561099457508273ffffffffffffffffffffffffffffffffffffffff1660668381548110151561094757fe5b90600052602060002090600b020160000160070160009054906101000a900473ffffffffffffffffffffffffffffffffffffffff1673ffffffffffffffffffffffffffffffffffffffff16145b905092915050565b7fddbcfd564f642ab5627cf68b9b7d374fb4f8a36e941a75d89c87998cef03bd6160010281565b600060405180807f5355424d49545f524551554553545f524f4c450000000000000000000000000081525060130190506040518091039020610a3633826000604051908082528060200260200182016040528015610a305781602001602082028038833980820191505090505b50610de6565b1515610a4157600080fd5b610aae888888888080602002602001604051908101604052809392919081815260200183836020028082843782019150505050505087878080601f0160208091040260200160405190810160405280939291908181526020018383808284378201915050505050506117f1565b9150509695505050505050565b600060019050919050565b610ad0338761090f565b1515610adb57600080fd5b505050505050565b60015481565b600081565b60405180807f48414e444c455f524551554553545f524f4c450000000000000000000000000081525060130190506040518091039020610b5f33826000604051908082528060200260200182016040528015610b595781602001602082028038833980820191505090505b50610de6565b1515610b6a57600080fd5b610b75338484611187565b1515610b8057600080fd5b610b8a8383611a3d565b505050565b6000600354905090565b7f34f01c17e9be6ddbf2c61f37b5b1fb9f1a090a975006581ad19bda1c4d38287160010281565b600080610bcc83610abb565b1515610bd757600080fd5b610bdf610778565b9150610bea82611d03565b1515610bf557600080fd5b600073ffffffffffffffffffffffffffffffffffffffff168373ffffffffffffffffffffffffffffffffffffffff161415610c8d578173ffffffffffffffffffffffffffffffffffffffff166108fc3073ffffffffffffffffffffffffffffffffffffffff16319081150290604051600060405180830381858888f19350505050158015610c87573d6000803e3d6000fd5b50610de1565b8273ffffffffffffffffffffffffffffffffffffffff166370a08231306040518263ffffffff167c0100000000000000000000000000000000000000000000000000000000028152600401610ce29190612ef4565b602060405180830381600087803b158015610cfc57600080fd5b505af1158015610d10573d6000803e3d6000fd5b505050506040513d601f19601f82011682018060405250610d3491908101906129d6565b90508273ffffffffffffffffffffffffffffffffffffffff1663a9059cbb83836040518363ffffffff167c0100000000000000000000000000000000000000000000000000000000028152600401610d8d929190612d03565b602060405180830381600087803b158015610da757600080fd5b505af1158015610dbb573d6000803e3d6000fd5b505050506040513d601f19601f82011682018060405250610ddf91908101906128d5565b505b505050565b6000606060008084511115610e0357602084510290508391508082525b60008060009054906101000a900473ffffffffffffffffffffffffffffffffffffffff1673ffffffffffffffffffffffffffffffffffffffff161480610f1357506000809054906101000a900473ffffffffffffffffffffffffffffffffffffffff1673ffffffffffffffffffffffffffffffffffffffff1663fdef9106873088866040518563ffffffff167c0100000000000000000000000000000000000000000000000000000000028152600401610ec09493929190612cb7565b602060405180830381600087803b158015610eda57600080fd5b505af1158015610eee573d6000803e3d6000fd5b505050506040513d601f19601f82011682018060405250610f1291908101906128d5565b5b925050509392505050565b60405180807f5550444154455f524551554553545f524f4c45000000000000000000000000008152506013019050604051809103902081565b610f5f611ef5565b60008060608060008060008060008060668c815481101515610f7d57fe5b90600052602060002090600b0201905080600001600001600001600380602002604051908101604052809291908260038015610fce576020028201915b815481526020019060010190808311610fba575b50505050509a508060000160000160030160009054906101000a900473ffffffffffffffffffffffffffffffffffffffff169950806000016000016004015498508060000160000160050180548060200260200160405190810160405280929190818152602001828054801561106757602002820191906000526020600020905b8154600019168152602001906001019080831161104f575b50505050509750806000016000016006018054600181600116156101000203166002900480601f01602080910402602001604051908101604052809291908181526020018280546001816001161561010002031660029004801561110c5780601f106110e15761010080835404028352916020019161110c565b820191906000526020600020905b8154815290600101906020018083116110ef57829003601f168201915b505050505096508060000160070160009054906101000a900473ffffffffffffffffffffffffffffffffffffffff169550806000016008015494508060000160090154935080600a0160009054906101000a900460ff16925080600a0160019054906101000a900460ff169150509193959799509193959799565b600061119282611d55565b15156111a1576000905061129b565b6111aa836117a2565b15156111b9576000905061129b565b6111c283611d99565b801561121157506112108460405180807f48414e444c455f524551554553545f524f4c45000000000000000000000000008152506013019050604051809103902061120b611dd0565b610de6565b5b1561121f576001905061129b565b6002600381111561122c57fe5b82600381111561123857fe5b14801561128857506112878460405180807f48414e444c455f524551554553545f524f4c450000000000000000000000000081525060130190506040518091039020611282611dd0565b610de6565b5b15611296576001905061129b565b600090505b9392505050565b6000809054906101000a900473ffffffffffffffffffffffffffffffffffffffff1681565b60006112d2836117a2565b801561132c5750600082148061132b575061132a8460405180807f56414c554154455f524551554553545f524f4c4500000000000000000000000081525060140190506040518091039020611325611dd0565b610de6565b5b5b90509392505050565b61133d611ef5565b600080606080600080600080600160658054905003905061135d816114d0565b98509850985098509850985098509850509091929394959697565b60405180807f56414c554154455f524551554553545f524f4c450000000000000000000000008152506014019050604051809103902081565b60405180807f56414c554154455f524551554553545f524f4c450000000000000000000000008152506014019050604051809103902081565b60006003541415156113fb57600080fd5b611403611dd5565b818160649190611414929190611f18565b505050565b6000611423611df6565b73ffffffffffffffffffffffffffffffffffffffff166304bf2a7f836040518263ffffffff167c01000000000000000000000000000000000000000000000000000000000281526004016114779190612e9c565b602060405180830381600087803b15801561149157600080fd5b505af11580156114a5573d6000803e3d6000fd5b505050506040513d601f19601f820116820180604052506114c9919081019061293f565b9050919050565b6114d8611ef5565b60008060608060008060008060658a8154811015156114f357fe5b90600052602060002090600a0201905080600001600001600380602002604051908101604052809291908260038015611541576020028201915b81548152602001906001019080831161152d575b505050505098508060000160030160009054906101000a900473ffffffffffffffffffffffffffffffffffffffff16975080600001600401549650806000016005018054806020026020016040519081016040528092919081815260200182805480156115d157602002820191906000526020600020905b815460001916815260200190600101908083116115b9575b50505050509550806000016006018054600181600116156101000203166002900480601f0160208091040260200160405190810160405280929190818152602001828054600181600116156101000203166002900480156116735780601f1061164857610100808354040283529160200191611673565b820191906000526020600020905b81548152906001019060200180831161165657829003601f168201915b505050505094508060070160009054906101000a900473ffffffffffffffffffffffffffffffffffffffff169350806008015492508060090154915050919395975091939597565b60405180807f48414e444c455f524551554553545f524f4c45000000000000000000000000008152506013019050604051809103902081565b600060035411151561170557600080fd5b600160668381548110151561171657fe5b90600052602060002090600b0201600a0160006101000a81548160ff0219169083151502179055508060668381548110151561174e57fe5b90600052602060002090600b020160000160090181905550817f476ac2b6722a117a5a785165151cb5d50cf113cc98346879eaaf481639973214826040516117969190612f0f565b60405180910390a25050565b60008060038111156117b057fe5b6066838154811015156117bf57fe5b90600052602060002090600b0201600a0160019054906101000a900460ff1660038111156117e957fe5b149050919050565b600080600060035411151561180557600080fd5b606680548091906001016118199190611f98565b915060668281548110151561182a57fe5b90600052602060002090600b02019050600081600a0160016101000a81548160ff0219169083600381111561185b57fe5b021790555060806040519081016040528060a0604051908101604052806060604051908101604052806001815260200160008152602001600081525081526020018973ffffffffffffffffffffffffffffffffffffffff1681526020018881526020018781526020018681525081526020013373ffffffffffffffffffffffffffffffffffffffff16815260200160014303815260200160008152508160000160008201518160000160008201518160000190600361191b929190611fca565b5060208201518160030160006101000a81548173ffffffffffffffffffffffffffffffffffffffff021916908373ffffffffffffffffffffffffffffffffffffffff16021790555060408201518160040155606082015181600501908051906020019061198992919061200a565b5060808201518160060190805190602001906119a692919061205d565b50505060208201518160070160006101000a81548173ffffffffffffffffffffffffffffffffffffffff021916908373ffffffffffffffffffffffffffffffffffffffff1602179055506040820151816008015560608201518160090155905050817fe68f5f67185794b36973712dee53bd952d1ed8bca059a74c03b96d402c8e7bf760405160405180910390a250949350505050565b600080600354111515611a4f57600080fd5b81606684815481101515611a5f57fe5b90600052602060002090600b0201600a0160016101000a81548160ff02191690836003811115611a8b57fe5b021790555060016003811115611a9d57fe5b826003811115611aa957fe5b1415611cb057827f2b0ecfaeb40cae4f9eed0e8080364e42a2b0e3c38d7628426c8e2e5aa90cf0ce60405160405180910390a260658054809190600101611af091906120dd565b9050606683815481101515611b0157fe5b90600052602060002090600b0201600001606582815481101515611b2157fe5b90600052602060002090600a020160008201816000016000820181600001906003611b4d92919061210f565b506003820160009054906101000a900473ffffffffffffffffffffffffffffffffffffffff168160030160006101000a81548173ffffffffffffffffffffffffffffffffffffffff021916908373ffffffffffffffffffffffffffffffffffffffff160217905550600482015481600401556005820181600501908054611bd592919061214c565b5060068201816006019080546001816001161561010002031660029004611bfd92919061219e565b5050506007820160009054906101000a900473ffffffffffffffffffffffffffffffffffffffff168160070160006101000a81548173ffffffffffffffffffffffffffffffffffffffff021916908373ffffffffffffffffffffffffffffffffffffffff1602179055506008820154816008015560098201548160090155905050807fa964ad3eec28385389250e962b11f507440001d88056353c9cbe76ed08881b2760405160405180910390a2611cfe565b60026003811115611cbd57fe5b826003811115611cc957fe5b1415611cfd57827fcf3726861cf8a7d04264b28cb380446ded62d16d9ba4229dc88c6f96a55b1d7560405160405180910390a25b5b505050565b600080600073ffffffffffffffffffffffffffffffffffffffff168373ffffffffffffffffffffffffffffffffffffffff161415611d445760009150611d4f565b823b90506000811191505b50919050565b600060016003811115611d6457fe5b826003811115611d7057fe5b1480611d92575060026003811115611d8457fe5b826003811115611d9057fe5b145b9050919050565b6000606682815481101515611daa57fe5b90600052602060002090600b0201600a0160009054906101000a900460ff169050919050565b606090565b6000600354141515611de657600080fd5b611dee611eed565b600381905550565b6000806000809054906101000a900473ffffffffffffffffffffffffffffffffffffffff1673ffffffffffffffffffffffffffffffffffffffff166342c71f1d7f34f01c17e9be6ddbf2c61f37b5b1fb9f1a090a975006581ad19bda1c4d3828716001026040518263ffffffff167c0100000000000000000000000000000000000000000000000000000000028152600401611e929190612e81565b602060405180830381600087803b158015611eac57600080fd5b505af1158015611ec0573d6000803e3d6000fd5b505050506040513d601f19601f82011682018060405250611ee491908101906126d0565b90508091505090565b600043905090565b606060405190810160405280600390602082028038833980820191505090505090565b828054600181600116156101000203166002900490600052602060002090601f016020900481019282601f10611f5957803560ff1916838001178555611f87565b82800160010185558215611f87579182015b82811115611f86578235825591602001919060010190611f6b565b5b509050611f949190612225565b5090565b815481835581811115611fc557600b0281600b028360005260206000209182019101611fc4919061224a565b5b505050565b8260038101928215611ff9579160200282015b82811115611ff8578251825591602001919060010190611fdd565b5b5090506120069190612225565b5090565b82805482825590600052602060002090810192821561204c579160200282015b8281111561204b57825182906000191690559160200191906001019061202a565b5b5090506120599190612335565b5090565b828054600181600116156101000203166002900490600052602060002090601f016020900481019282601f1061209e57805160ff19168380011785556120cc565b828001600101855582156120cc579182015b828111156120cb5782518255916020019190600101906120b0565b5b5090506120d99190612225565b5090565b81548183558181111561210a57600a0281600a028360005260206000209182019101612109919061235a565b5b505050565b826003810192821561213b579182015b8281111561213a57825482559160010191906001019061211f565b5b5090506121489190612225565b5090565b82805482825590600052602060002090810192821561218d5760005260206000209182015b8281111561218c578254825591600101919060010190612171565b5b50905061219a9190612335565b5090565b828054600181600116156101000203166002900490600052602060002090601f016020900481019282601f106121d75780548555612214565b8280016001018555821561221457600052602060002091601f016020900482015b828111156122135782548255916001019190600101906121f8565b5b5090506122219190612225565b5090565b61224791905b8082111561224357600081600090555060010161222b565b5090565b90565b61233291905b8082111561232e5760008082016000808201600080820160006122739190612416565b6003820160006101000a81549073ffffffffffffffffffffffffffffffffffffffff021916905560048201600090556005820160006122b2919061242b565b6006820160006122c2919061244c565b50506007820160006101000a81549073ffffffffffffffffffffffffffffffffffffffff0219169055600882016000905560098201600090555050600a820160006101000a81549060ff0219169055600a820160016101000a81549060ff021916905550600b01612250565b5090565b90565b61235791905b8082111561235357600081600090555060010161233b565b5090565b90565b61241391905b8082111561240f5760008082016000808201600061237e9190612416565b6003820160006101000a81549073ffffffffffffffffffffffffffffffffffffffff021916905560048201600090556005820160006123bd919061242b565b6006820160006123cd919061244c565b50506007820160006101000a81549073ffffffffffffffffffffffffffffffffffffffff02191690556008820160009055600982016000905550600a01612360565b5090565b90565b50600081556001016000815560010160009055565b50805460008255906000526020600020908101906124499190612335565b50565b50805460018160011615610100020316600290046000825580601f106124725750612491565b601f0160209004906000526020600020908101906124909190612225565b5b50565b60006124a0823561305e565b905092915050565b60006124b4825161305e565b905092915050565b60008083601f84011215156124d057600080fd5b8235905067ffffffffffffffff8111156124e957600080fd5b60208301915083602082028301111561250157600080fd5b9250929050565b600082601f830112151561251b57600080fd5b813561252e61252982612f57565b612f2a565b9150818183526020840193506020810190508385602084028201111561255357600080fd5b60005b838110156125835781612569888261267f565b845260208401935060208301925050600181019050612556565b5050505092915050565b6000612599825161307e565b905092915050565b60006125ad823561308a565b905092915050565b600082601f83011215156125c857600080fd5b81356125db6125d682612f7f565b612f2a565b915080825260208301602083018583830111156125f757600080fd5b612602838284613111565b50505092915050565b60006126178251613094565b905092915050565b600061262b82356130a6565b905092915050565b60008083601f840112151561264757600080fd5b8235905067ffffffffffffffff81111561266057600080fd5b60208301915083600182028301111561267857600080fd5b9250929050565b600061268b82356130bf565b905092915050565b600061269f82516130bf565b905092915050565b6000602082840312156126b957600080fd5b60006126c784828501612494565b91505092915050565b6000602082840312156126e257600080fd5b60006126f0848285016124a8565b91505092915050565b60008060006060848603121561270e57600080fd5b600061271c86828701612494565b935050602061272d868287016125a1565b925050604084013567ffffffffffffffff81111561274a57600080fd5b61275686828701612508565b9150509250925092565b6000806040838503121561277357600080fd5b600061278185828601612494565b92505060206127928582860161267f565b9150509250929050565b600080600080600080608087890312156127b557600080fd5b60006127c389828a01612494565b96505060206127d489828a0161267f565b955050604087013567ffffffffffffffff8111156127f157600080fd5b6127fd89828a016124bc565b9450945050606087013567ffffffffffffffff81111561281c57600080fd5b61282889828a01612633565b92509250509295509295509295565b60008060006060848603121561284c57600080fd5b600061285a86828701612494565b935050602061286b8682870161267f565b925050604061287c8682870161261f565b9150509250925092565b60008060006060848603121561289b57600080fd5b60006128a986828701612494565b93505060206128ba8682870161267f565b92505060406128cb8682870161267f565b9150509250925092565b6000602082840312156128e757600080fd5b60006128f58482850161258d565b91505092915050565b60006020828403121561291057600080fd5b600082013567ffffffffffffffff81111561292a57600080fd5b612936848285016125b5565b91505092915050565b60006020828403121561295157600080fd5b600061295f8482850161260b565b91505092915050565b6000806020838503121561297b57600080fd5b600083013567ffffffffffffffff81111561299557600080fd5b6129a185828601612633565b92509250509250929050565b6000602082840312156129bf57600080fd5b60006129cd8482850161267f565b91505092915050565b6000602082840312156129e857600080fd5b60006129f684828501612693565b91505092915050565b60008060408385031215612a1257600080fd5b6000612a208582860161267f565b9250506020612a318582860161261f565b9150509250929050565b60008060408385031215612a4e57600080fd5b6000612a5c8582860161267f565b9250506020612a6d8582860161267f565b9150509250929050565b60008060008060008060808789031215612a9057600080fd5b6000612a9e89828a0161267f565b9650506020612aaf89828a0161267f565b955050604087013567ffffffffffffffff811115612acc57600080fd5b612ad889828a016124bc565b9450945050606087013567ffffffffffffffff811115612af757600080fd5b612b0389828a01612633565b92509250509295509295509295565b612b1b81613008565b82525050565b6000612b2c82612fc2565b808452602084019350612b3e83612fab565b60005b82811015612b7057612b54868351612bd6565b612b5d82612fee565b9150602086019550600181019050612b41565b50849250505092915050565b612b8581612fcd565b612b8e82612fb8565b60005b82811015612bc057612ba4858351612c8d565b612bad82612ffb565b9150602085019450600181019050612b91565b5050505050565b612bd081613028565b82525050565b612bdf81613034565b82525050565b6000612bf082612fd8565b808452612c04816020860160208601613120565b612c0d81613153565b602085010191505092915050565b612c24816130c9565b82525050565b612c33816130db565b82525050565b612c42816130ed565b82525050565b612c51816130ff565b82525050565b6000612c6282612fe3565b808452612c76816020860160208601613120565b612c7f81613153565b602085010191505092915050565b612c9681613054565b82525050565b6000602082019050612cb16000830184612b12565b92915050565b6000608082019050612ccc6000830187612b12565b612cd96020830186612b12565b612ce66040830185612bd6565b8181036060830152612cf88184612be5565b905095945050505050565b6000604082019050612d186000830185612b12565b612d256020830184612c8d565b9392505050565b600061014082019050612d42600083018b612b7c565b612d4f606083018a612b12565b612d5c6080830189612c8d565b81810360a0830152612d6e8188612b21565b905081810360c0830152612d828187612c57565b9050612d9160e0830186612b12565b612d9f610100830185612c8d565b612dad610120830184612c8d565b9998505050505050505050565b600061018082019050612dd0600083018d612b7c565b612ddd606083018c612b12565b612dea608083018b612c8d565b81810360a0830152612dfc818a612b21565b905081810360c0830152612e108189612c57565b9050612e1f60e0830188612b12565b612e2d610100830187612c8d565b612e3b610120830186612c8d565b612e49610140830185612bc7565b612e57610160830184612c48565b9b9a5050505050505050505050565b6000602082019050612e7b6000830184612bc7565b92915050565b6000602082019050612e966000830184612bd6565b92915050565b60006020820190508181036000830152612eb68184612be5565b905092915050565b6000602082019050612ed36000830184612c1b565b92915050565b6000602082019050612eee6000830184612c2a565b92915050565b6000602082019050612f096000830184612c39565b92915050565b6000602082019050612f246000830184612c8d565b92915050565b6000604051905081810181811067ffffffffffffffff82111715612f4d57600080fd5b8060405250919050565b600067ffffffffffffffff821115612f6e57600080fd5b602082029050602081019050919050565b600067ffffffffffffffff821115612f9657600080fd5b601f19601f8301169050602081019050919050565b6000602082019050919050565b6000819050919050565b600081519050919050565b600060039050919050565b600081519050919050565b600081519050919050565b6000602082019050919050565b6000602082019050919050565b600073ffffffffffffffffffffffffffffffffffffffff82169050919050565b60008115159050919050565b6000819050919050565b600060048210151561304c57fe5b819050919050565b6000819050919050565b600073ffffffffffffffffffffffffffffffffffffffff82169050919050565b60008115159050919050565b6000819050919050565b600061309f82613008565b9050919050565b60006004821015156130b757600080fd5b819050919050565b6000819050919050565b60006130d482613008565b9050919050565b60006130e682613008565b9050919050565b60006130f882613008565b9050919050565b600061310a8261303e565b9050919050565b82818337600083830152505050565b60005b8381101561313e578082015181840152602081019050613123565b8381111561314d576000848401525b50505050565b6000601f19601f83011690509190505600a265627a7a7230582087964c574e18aa5533fb55bd472295a753ba7dfdc2489b0af546c513fd5000d46c6578706572696d656e74616cf50037",
  "source": "pragma solidity ^0.4.24;\npragma experimental ABIEncoderV2;\n\nimport \"./PandoApp.sol\";\n\n\ncontract PandoBranch is PandoApp {\n\n    enum RequestState { Open, Accepted, Rejected, Cancelled }\n\n    struct Request {\n        Commit       commit;\n        bool         valuated;\n        RequestState state;\n    }\n\n    string    name;\n    Commit[]  history;\n    Request[] requests;\n\n    bytes32 constant public SUBMIT_REQUEST_ROLE  = keccak256(\"SUBMIT_REQUEST_ROLE\");\n    bytes32 constant public UPDATE_REQUEST_ROLE  = keccak256(\"UPDATE_REQUEST_ROLE\");\n    bytes32 constant public CANCEL_REQUEST_ROLE  = keccak256(\"VALUATE_REQUEST_ROLE\");\n    bytes32 constant public VALUATE_REQUEST_ROLE = keccak256(\"VALUATE_REQUEST_ROLE\");\n    bytes32 constant public HANDLE_REQUEST_ROLE  = keccak256(\"HANDLE_REQUEST_ROLE\");\n\n    event SubmitRequest(uint256 indexed requestId);\n    event UpdateRequest(uint256 indexed requestId);\n    event CancelRequest(uint256 indexed requestId);\n    event ValuateRequest(uint256 indexed requestId, uint256 value);\n    event AcceptRequest(uint256 indexed requestId);\n    event RejectRequest(uint256 indexed requestId);\n\n    event NewCommit(uint256 indexed commitId);\n\n\n    function initialize(string _name) onlyInit external {\n        initialized();\n        name = _name;\n    }\n\n    function submitRequest(address _author, uint256 _timestamp, bytes32[] _parents, string _tree) auth(SUBMIT_REQUEST_ROLE) external returns (uint256 requestId) {\n        return _submitRequest(_author, _timestamp, _parents, _tree);\n    }\n\n\n    /* function submitRequest(address _author, uint256 _timestamp, bytes32[] _parents, string _tree, uint256 _value) auth(SUBMIT_REQUEST_ROLE) external returns (uint256 requestId) {\n        requestId = _submitRequest(_author, _timestamp, _parents, _tree);\n        require(canValuate(msg.sender, requestId, _value));\n        _valuateRequest(requestId, _value);\n    }\n\n    function submitRequest(address _author, uint256 _timestamp, bytes32[] _parents, string _tree, uint256 _value, bool _handle) auth(SUBMIT_REQUEST_ROLE) external returns (uint256 requestId) {\n        requestId = _submitRequest(_author, _timestamp, _parents, _tree);\n        require(canValuate(msg.sender, requestId, _value));\n        _valuateRequest(requestId, _value);\n    } */\n\n    function updateRequest(uint256 _requestId, uint256 _timestamp, bytes32[] _parents, string _tree) external {\n        require(canUpdate(msg.sender, _requestId));\n        /* _updateRequest(_timestamp, _parents, _tree); */\n    }\n\n    function cancelRequest(uint256 _requestId) external {\n\n    }\n\n    function valuateRequest(uint256 _requestId, uint256 _value) external {\n        require(canValuate(msg.sender, _requestId, _value));\n        _valuateRequest(_requestId, _value);\n    }\n\n    function handleRequest(uint256 _requestId, RequestState _decision) auth(HANDLE_REQUEST_ROLE) external {\n        require(canHandle(msg.sender, _requestId, _decision));\n        _handleRequest(_requestId, _decision);\n    }\n\n\n    /************************************/\n    /*      ACCESS CONTROL METHODS      */\n    /************************************/\n\n\n    function canUpdate(address _sender, uint256 _requestId) public view returns (bool) {\n        return _isRequestOpen(_requestId) && requests[_requestId].commit.origin == _sender;\n    }\n\n    function canCancel(address _sender, uint256 _requestId) public view returns (bool) {\n        return _isRequestOpen(_requestId) && requests[_requestId].commit.origin == _sender;\n    }\n\n    function canValuate(address _sender, uint256 _requestId, uint256 _value) public view returns (bool) {\n        return _isRequestOpen(_requestId) && (_value == 0 || canPerform(_sender, VALUATE_REQUEST_ROLE, arr()));\n    }\n\n    function canHandle(address _sender, uint256 _requestId, RequestState _decision) public view returns (bool) {\n        if((!_isDecisionValid(_decision)))\n            return false;\n        if(!_isRequestOpen(_requestId))\n            return false;\n        if(_isRequestValuated(_requestId) && canPerform(_sender, HANDLE_REQUEST_ROLE, arr()))\n            return true;\n        if(_decision == RequestState.Rejected && canPerform(_sender, HANDLE_REQUEST_ROLE, arr()))\n            return true;\n\n        return false;\n    }\n\n    /****************************/\n    /*      GETTER METHODS      */\n    /****************************/\n\n    function getRequest(uint256 _requestId) public view returns (uint256[3] version, address author, uint256 timestamp, bytes32[] parents, string tree, address origin, uint256 block, uint256 value, bool valuated, RequestState state) {\n        Request storage request = requests[_requestId];\n\n        version   = request.commit.snapshot.version;\n        author    = request.commit.snapshot.author;\n        timestamp = request.commit.snapshot.timestamp;\n        parents   = request.commit.snapshot.parents;\n        tree      = request.commit.snapshot.tree;\n        origin    = request.commit.origin;\n        block     = request.commit.block;\n        value     = request.commit.value;\n        valuated  = request.valuated;\n        state     = request.state;\n    }\n\n    function getCommit(uint256 _commitId) public view returns (uint256[3] version, address author, uint256 timestamp, bytes32[] parents, string tree, address origin, uint256 block, uint256 value) {\n        Commit storage commit = history[_commitId];\n\n        version   = commit.snapshot.version;\n        author    = commit.snapshot.author;\n        timestamp = commit.snapshot.timestamp;\n        parents   = commit.snapshot.parents;\n        tree      = commit.snapshot.tree;\n        origin    = commit.origin;\n        block     = commit.block;\n        value     = commit.value;\n    }\n\n    function getHead() public view returns (uint256[3] version, address author, uint256 timestamp, bytes32[] parents, string tree, address origin, uint256 block, uint256 value) {\n        uint256 headId = history.length - 1;\n        return getCommit(headId);\n    }\n\n    /* function head() public view returns (address author, uint256 timestamp, uint256 block, bytes32[] parents, string tree) {\n      Snapshot storage head = heads[heads.length - 1];\n\n      author    = head.author;\n      timestamp = head.timestamp;\n      block     = head.block;\n      parents   = head.parents;\n      tree      = head.tree;\n    } */\n\n    /******************************/\n    /*      INTERNAL METHODS      */\n    /******************************/\n\n    function _submitRequest(address _author, uint256 _timestamp, bytes32[] _parents, string _tree) isInitialized internal returns (uint256 requestId)  {\n        requestId               = requests.length++;\n        Request storage request = requests[requestId];\n\n        request.state  = RequestState.Open;\n        request.commit = Commit(Snapshot([uint256(1), uint256(0), uint256(0)], _author, _timestamp, _parents, _tree), msg.sender, block.number - 1, 0);\n\n        emit SubmitRequest(requestId);\n    }\n\n    function _valuateRequest(uint256 _requestId, uint256 _value) isInitialized internal {\n        requests[_requestId].valuated     = true;\n        requests[_requestId].commit.value = _value;\n        emit ValuateRequest(_requestId, _value);\n    }\n\n    function _handleRequest(uint256 _requestId, RequestState _decision) isInitialized internal {\n        requests[_requestId].state = _decision;\n\n        if(_decision == RequestState.Accepted) {\n            emit AcceptRequest(_requestId);\n            uint256 commitId  = history.length++;\n            history[commitId] = requests[_requestId].commit;\n            emit NewCommit(commitId);\n        } else if (_decision == RequestState.Rejected) {\n            emit RejectRequest(_requestId);\n        }\n    }\n\n    /*****************************/\n    /*      UTILITY METHODS      */\n    /*****************************/\n\n\n    function _isRequestOpen(uint256 _requestId) internal view returns (bool) {\n        return requests[_requestId].state == RequestState.Open;\n    }\n\n    function _isRequestValuated(uint256 _requestId) internal view returns (bool) {\n        return requests[_requestId].valuated;\n    }\n\n    function _isDecisionValid(RequestState _decision) internal view returns (bool) {\n        return _decision == RequestState.Accepted || _decision == RequestState.Rejected;\n    }\n\n\n}\n",
  "sourcePath": "/Users/osarrouy/Documents/dapp/@pando/packages/core/contracts/PandoBranch.sol",
  "compiler": {
    "name": "solc",
    "version": "0.4.24+commit.e67f0147.Emscripten.clang"
  },
  "schemaVersion": "2.0.0",
  "updatedAt": "2018-08-29T17:55:12.556Z"
}