{
  "contractName": "PandoAPI",
  "abi": [
    {
      "constant": true,
      "inputs": [],
      "name": "RFAsLength",
      "outputs": [
        {
          "name": "",
          "type": "uint256"
        }
      ],
      "payable": false,
      "stateMutability": "view",
      "type": "function"
    },
    {
      "constant": true,
      "inputs": [],
      "name": "CREATE_RFI_ROLE",
      "outputs": [
        {
          "name": "",
          "type": "bytes32"
        }
      ],
      "payable": false,
      "stateMutability": "view",
      "type": "function"
    },
    {
      "constant": true,
      "inputs": [],
      "name": "getRecoveryVault",
      "outputs": [
        {
          "name": "",
          "type": "address"
        }
      ],
      "payable": false,
      "stateMutability": "view",
      "type": "function"
    },
    {
      "constant": true,
      "inputs": [],
      "name": "SUBMIT_RFA_ROLE",
      "outputs": [
        {
          "name": "",
          "type": "bytes32"
        }
      ],
      "payable": false,
      "stateMutability": "view",
      "type": "function"
    },
    {
      "constant": true,
      "inputs": [],
      "name": "EVMSCRIPT_REGISTRY_APP_ID",
      "outputs": [
        {
          "name": "",
          "type": "bytes32"
        }
      ],
      "payable": false,
      "stateMutability": "view",
      "type": "function"
    },
    {
      "constant": true,
      "inputs": [
        {
          "name": "token",
          "type": "address"
        }
      ],
      "name": "allowRecoverability",
      "outputs": [
        {
          "name": "",
          "type": "bool"
        }
      ],
      "payable": false,
      "stateMutability": "view",
      "type": "function"
    },
    {
      "constant": true,
      "inputs": [],
      "name": "RFIsLength",
      "outputs": [
        {
          "name": "",
          "type": "uint256"
        }
      ],
      "payable": false,
      "stateMutability": "view",
      "type": "function"
    },
    {
      "constant": true,
      "inputs": [],
      "name": "appId",
      "outputs": [
        {
          "name": "",
          "type": "bytes32"
        }
      ],
      "payable": false,
      "stateMutability": "view",
      "type": "function"
    },
    {
      "constant": true,
      "inputs": [],
      "name": "ETH",
      "outputs": [
        {
          "name": "",
          "type": "address"
        }
      ],
      "payable": false,
      "stateMutability": "view",
      "type": "function"
    },
    {
      "constant": true,
      "inputs": [],
      "name": "SORT_RFI_ROLE",
      "outputs": [
        {
          "name": "",
          "type": "bytes32"
        }
      ],
      "payable": false,
      "stateMutability": "view",
      "type": "function"
    },
    {
      "constant": true,
      "inputs": [],
      "name": "getInitializationBlock",
      "outputs": [
        {
          "name": "",
          "type": "uint256"
        }
      ],
      "payable": false,
      "stateMutability": "view",
      "type": "function"
    },
    {
      "constant": true,
      "inputs": [],
      "name": "EVMSCRIPT_REGISTRY_APP",
      "outputs": [
        {
          "name": "",
          "type": "bytes32"
        }
      ],
      "payable": false,
      "stateMutability": "view",
      "type": "function"
    },
    {
      "constant": false,
      "inputs": [
        {
          "name": "_token",
          "type": "address"
        }
      ],
      "name": "transferToVault",
      "outputs": [],
      "payable": false,
      "stateMutability": "nonpayable",
      "type": "function"
    },
    {
      "constant": true,
      "inputs": [
        {
          "name": "_sender",
          "type": "address"
        },
        {
          "name": "_role",
          "type": "bytes32"
        },
        {
          "name": "_params",
          "type": "uint256[]"
        }
      ],
      "name": "canPerform",
      "outputs": [
        {
          "name": "",
          "type": "bool"
        }
      ],
      "payable": false,
      "stateMutability": "view",
      "type": "function"
    },
    {
      "constant": true,
      "inputs": [],
      "name": "VALUATE_RFA_ROLE",
      "outputs": [
        {
          "name": "",
          "type": "bytes32"
        }
      ],
      "payable": false,
      "stateMutability": "view",
      "type": "function"
    },
    {
      "constant": true,
      "inputs": [],
      "name": "kernel",
      "outputs": [
        {
          "name": "",
          "type": "address"
        }
      ],
      "payable": false,
      "stateMutability": "view",
      "type": "function"
    },
    {
      "constant": true,
      "inputs": [
        {
          "name": "_script",
          "type": "bytes"
        }
      ],
      "name": "getExecutor",
      "outputs": [
        {
          "name": "",
          "type": "address"
        }
      ],
      "payable": false,
      "stateMutability": "view",
      "type": "function"
    },
    {
      "anonymous": false,
      "inputs": [
        {
          "indexed": false,
          "name": "id",
          "type": "uint256"
        }
      ],
      "name": "CreateRFI",
      "type": "event"
    },
    {
      "anonymous": false,
      "inputs": [
        {
          "indexed": false,
          "name": "id",
          "type": "uint256"
        }
      ],
      "name": "UpdateRFI",
      "type": "event"
    },
    {
      "anonymous": false,
      "inputs": [
        {
          "indexed": false,
          "name": "id",
          "type": "uint256"
        }
      ],
      "name": "MergeRFI",
      "type": "event"
    },
    {
      "anonymous": false,
      "inputs": [
        {
          "indexed": false,
          "name": "id",
          "type": "uint256"
        }
      ],
      "name": "RejectRFI",
      "type": "event"
    },
    {
      "anonymous": false,
      "inputs": [
        {
          "indexed": false,
          "name": "id",
          "type": "uint256"
        }
      ],
      "name": "CancelRFI",
      "type": "event"
    },
    {
      "anonymous": false,
      "inputs": [
        {
          "indexed": false,
          "name": "receiver",
          "type": "address"
        },
        {
          "indexed": false,
          "name": "amount",
          "type": "uint256"
        },
        {
          "indexed": false,
          "name": "metadata",
          "type": "string"
        }
      ],
      "name": "Test",
      "type": "event"
    },
    {
      "anonymous": false,
      "inputs": [
        {
          "indexed": false,
          "name": "origin",
          "type": "address"
        }
      ],
      "name": "Test2",
      "type": "event"
    },
    {
      "anonymous": false,
      "inputs": [
        {
          "indexed": true,
          "name": "executor",
          "type": "address"
        },
        {
          "indexed": false,
          "name": "script",
          "type": "bytes"
        },
        {
          "indexed": false,
          "name": "input",
          "type": "bytes"
        },
        {
          "indexed": false,
          "name": "returnData",
          "type": "bytes"
        }
      ],
      "name": "ScriptResult",
      "type": "event"
    },
    {
      "constant": false,
      "inputs": [
        {
          "name": "_history",
          "type": "address"
        }
      ],
      "name": "initialize",
      "outputs": [],
      "payable": false,
      "stateMutability": "nonpayable",
      "type": "function"
    },
    {
      "constant": false,
      "inputs": [
        {
          "components": [
            {
              "name": "origin",
              "type": "address"
            },
            {
              "name": "tree",
              "type": "string"
            },
            {
              "name": "message",
              "type": "string"
            },
            {
              "name": "metadata",
              "type": "string"
            },
            {
              "components": [
                {
                  "name": "api",
                  "type": "address"
                },
                {
                  "name": "hash",
                  "type": "bytes32"
                }
              ],
              "name": "parents",
              "type": "tuple[]"
            }
          ],
          "name": "_individuation",
          "type": "tuple"
        },
        {
          "components": [
            {
              "name": "destination",
              "type": "address"
            },
            {
              "name": "minimum",
              "type": "uint256"
            },
            {
              "name": "metadata",
              "type": "string"
            }
          ],
          "name": "_alliances",
          "type": "tuple[]"
        }
      ],
      "name": "createRFI",
      "outputs": [
        {
          "name": "RFIid",
          "type": "uint256"
        }
      ],
      "payable": false,
      "stateMutability": "nonpayable",
      "type": "function"
    },
    {
      "constant": false,
      "inputs": [
        {
          "name": "_RFAid",
          "type": "uint256"
        },
        {
          "name": "_amount",
          "type": "uint256"
        }
      ],
      "name": "valuateRFA",
      "outputs": [],
      "payable": false,
      "stateMutability": "nonpayable",
      "type": "function"
    },
    {
      "constant": false,
      "inputs": [
        {
          "name": "_id",
          "type": "uint256"
        },
        {
          "name": "_sorting",
          "type": "uint8"
        }
      ],
      "name": "sortRFA",
      "outputs": [],
      "payable": false,
      "stateMutability": "nonpayable",
      "type": "function"
    },
    {
      "constant": true,
      "inputs": [
        {
          "name": "_RFIid",
          "type": "uint256"
        }
      ],
      "name": "getRFI",
      "outputs": [
        {
          "components": [
            {
              "components": [
                {
                  "name": "origin",
                  "type": "address"
                },
                {
                  "name": "tree",
                  "type": "string"
                },
                {
                  "name": "message",
                  "type": "string"
                },
                {
                  "name": "metadata",
                  "type": "string"
                },
                {
                  "components": [
                    {
                      "name": "api",
                      "type": "address"
                    },
                    {
                      "name": "hash",
                      "type": "bytes32"
                    }
                  ],
                  "name": "parents",
                  "type": "tuple[]"
                }
              ],
              "name": "individuation",
              "type": "tuple"
            },
            {
              "name": "blockstamp",
              "type": "uint256"
            },
            {
              "name": "state",
              "type": "uint8"
            },
            {
              "name": "RFAids",
              "type": "uint256[]"
            }
          ],
          "name": "RFI",
          "type": "tuple"
        }
      ],
      "payable": false,
      "stateMutability": "view",
      "type": "function"
    },
    {
      "constant": true,
      "inputs": [
        {
          "name": "_RFAid",
          "type": "uint256"
        }
      ],
      "name": "getRFA",
      "outputs": [
        {
          "components": [
            {
              "components": [
                {
                  "name": "destination",
                  "type": "address"
                },
                {
                  "name": "minimum",
                  "type": "uint256"
                },
                {
                  "name": "metadata",
                  "type": "string"
                }
              ],
              "name": "alliance",
              "type": "tuple"
            },
            {
              "name": "blockstamp",
              "type": "uint256"
            },
            {
              "name": "amount",
              "type": "uint256"
            },
            {
              "name": "state",
              "type": "uint8"
            },
            {
              "name": "RFIid",
              "type": "uint256"
            }
          ],
          "name": "RFA",
          "type": "tuple"
        }
      ],
      "payable": false,
      "stateMutability": "view",
      "type": "function"
    }
  ],
  "bytecode": "0x60806040526000606755600060685534801561001a57600080fd5b506130218061002a6000396000f300608060405260043610610133576000357c0100000000000000000000000000000000000000000000000000000000900463ffffffff16806318b8f9c21461013857806320c44d90146101615780632adab4ea1461018c5780633181f6b2146101b757806332f0a3b5146101f45780634e863fe31461021f57806360b1e0571461024a57806367412bf6146102755780637e7db6e11461029e57806380201af2146102db57806380afdea8146103065780638322fff214610331578063840fd4901461035c5780638b3dd749146103875780639b3fdf4c146103b25780639d4941d8146103dd578063a1658fad14610406578063b6a9c5a314610443578063bbb9f15614610480578063c4d66de8146104ab578063d4aae0c4146104d4578063f92a79ff146104ff578063fec7d70b1461053c575b600080fd5b34801561014457600080fd5b5061015f600480360361015a9190810190612642565b610579565b005b34801561016d57600080fd5b506101766107c8565b6040516101839190612cd9565b60405180910390f35b34801561019857600080fd5b506101a16107ce565b6040516101ae9190612be5565b60405180910390f35b3480156101c357600080fd5b506101de60048036036101d99190810190612548565b610807565b6040516101eb9190612cd9565b60405180910390f35b34801561020057600080fd5b5061020961082b565b6040516102169190612b3a565b60405180910390f35b34801561022b57600080fd5b50610234610935565b6040516102419190612be5565b60405180910390f35b34801561025657600080fd5b5061025f61096e565b60405161026c9190612be5565b60405180910390f35b34801561028157600080fd5b5061029c60048036036102979190810190612606565b610995565b005b3480156102aa57600080fd5b506102c560048036036102c091908101906123d3565b610c9c565b6040516102d29190612bca565b60405180910390f35b3480156102e757600080fd5b506102f0610ca7565b6040516102fd9190612cd9565b60405180910390f35b34801561031257600080fd5b5061031b610cad565b6040516103289190612be5565b60405180910390f35b34801561033d57600080fd5b50610346610cb3565b6040516103539190612b3a565b60405180910390f35b34801561036857600080fd5b50610371610cb8565b60405161037e9190612be5565b60405180910390f35b34801561039357600080fd5b5061039c610cf1565b6040516103a99190612cd9565b60405180910390f35b3480156103be57600080fd5b506103c7610cfb565b6040516103d49190612be5565b60405180910390f35b3480156103e957600080fd5b5061040460048036036103ff91908101906123d3565b610d22565b005b34801561041257600080fd5b5061042d60048036036104289190810190612425565b610f48565b60405161043a9190612bca565b60405180910390f35b34801561044f57600080fd5b5061046a600480360361046591908101906125b4565b611080565b6040516104779190612c73565b60405180910390f35b34801561048c57600080fd5b50610495611210565b6040516104a29190612be5565b60405180910390f35b3480156104b757600080fd5b506104d260048036036104cd919081019061251f565b611249565b005b3480156104e057600080fd5b506104e96112a6565b6040516104f69190612c3d565b60405180910390f35b34801561050b57600080fd5b50610526600480360361052191908101906124b5565b6112cb565b6040516105339190612c22565b60405180910390f35b34801561054857600080fd5b50610563600480360361055e91908101906125b4565b611382565b6040516105709190612cb7565b60405180910390f35b600060035411151561058a57600080fd5b6066600083815260200190815260200160002060a0604051908101604052908160008201606060405190810160405290816000820160009054906101000a900473ffffffffffffffffffffffffffffffffffffffff1673ffffffffffffffffffffffffffffffffffffffff1673ffffffffffffffffffffffffffffffffffffffff16815260200160018201548152602001600282018054600181600116156101000203166002900480601f0160208091040260200160405190810160405280929190818152602001828054600181600116156101000203166002900480156106b35780601f10610688576101008083540402835291602001916106b3565b820191906000526020600020905b81548152906001019060200180831161069657829003601f168201915b505050505081525050815260200160038201548152602001600482015481526020016005820160009054906101000a900460ff1660048111156106f257fe5b60048111156106fd57fe5b815260200160068201548152505073__Pando_________________________________63e7d5bb3590916040518263ffffffff167c010000000000000000000000000000000000000000000000000000000002815260040161075f9190612c95565b60206040518083038186803b15801561077757600080fd5b505af415801561078b573d6000803e3d6000fd5b505050506040513d601f19601f820116820180604052506107af919081019061248c565b15156107ba57600080fd5b6107c48282611757565b5050565b60685481565b60405180807f4352454154455f5246495f524f4c450000000000000000000000000000000000815250600f019050604051809103902081565b60008060035411151561081957600080fd5b61082383836117a2565b905092915050565b6000806000809054906101000a900473ffffffffffffffffffffffffffffffffffffffff1673ffffffffffffffffffffffffffffffffffffffff161415151561087357600080fd5b6000809054906101000a900473ffffffffffffffffffffffffffffffffffffffff1673ffffffffffffffffffffffffffffffffffffffff166332f0a3b56040518163ffffffff167c0100000000000000000000000000000000000000000000000000000000028152600401602060405180830381600087803b1580156108f857600080fd5b505af115801561090c573d6000803e3d6000fd5b505050506040513d601f19601f8201168201806040525061093091908101906123fc565b905090565b60405180807f5355424d49545f5246415f524f4c450000000000000000000000000000000000815250600f019050604051809103902081565b7fddbcfd564f642ab5627cf68b9b7d374fb4f8a36e941a75d89c87998cef03bd6160010281565b6000806066600085815260200190815260200160002091508160a0604051908101604052908160008201606060405190810160405290816000820160009054906101000a900473ffffffffffffffffffffffffffffffffffffffff1673ffffffffffffffffffffffffffffffffffffffff1673ffffffffffffffffffffffffffffffffffffffff16815260200160018201548152602001600282018054600181600116156101000203166002900480601f016020809104026020016040519081016040528092919081815260200182805460018160011615610100020316600290048015610ac45780601f10610a9957610100808354040283529160200191610ac4565b820191906000526020600020905b815481529060010190602001808311610aa757829003601f168201915b505050505081525050815260200160038201548152602001600482015481526020016005820160009054906101000a900460ff166004811115610b0357fe5b6004811115610b0e57fe5b815260200160068201548152505073__Pando_________________________________636ce2b1f690916040518263ffffffff167c0100000000000000000000000000000000000000000000000000000000028152600401610b709190612c95565b60206040518083038186803b158015610b8857600080fd5b505af4158015610b9c573d6000803e3d6000fd5b505050506040513d601f19601f82011682018060405250610bc0919081019061248c565b1515610bcb57600080fd5b60006002811115610bd857fe5b836002811115610be457fe5b1415610c115760028260050160006101000a81548160ff02191690836004811115610c0b57fe5b02179055505b60016002811115610c1e57fe5b836002811115610c2a57fe5b1415610c96576065600083600601548152602001908152602001600020905060038260050160006101000a81548160ff02191690836004811115610c6a57fe5b021790555060038160060160006101000a81548160ff02191690836003811115610c9057fe5b02179055505b50505050565b600060019050919050565b60675481565b60015481565b600081565b60405180807f534f52545f5246495f524f4c4500000000000000000000000000000000000000815250600d019050604051809103902081565b6000600354905090565b7f34f01c17e9be6ddbf2c61f37b5b1fb9f1a090a975006581ad19bda1c4d38287160010281565b600080610d2e83610c9c565b1515610d3957600080fd5b610d4161082b565b9150610d4c82611a29565b1515610d5757600080fd5b600073ffffffffffffffffffffffffffffffffffffffff168373ffffffffffffffffffffffffffffffffffffffff161415610def578173ffffffffffffffffffffffffffffffffffffffff166108fc3073ffffffffffffffffffffffffffffffffffffffff16319081150290604051600060405180830381858888f19350505050158015610de9573d6000803e3d6000fd5b50610f43565b8273ffffffffffffffffffffffffffffffffffffffff166370a08231306040518263ffffffff167c0100000000000000000000000000000000000000000000000000000000028152600401610e449190612c58565b602060405180830381600087803b158015610e5e57600080fd5b505af1158015610e72573d6000803e3d6000fd5b505050506040513d601f19601f82011682018060405250610e9691908101906125dd565b90508273ffffffffffffffffffffffffffffffffffffffff1663a9059cbb83836040518363ffffffff167c0100000000000000000000000000000000000000000000000000000000028152600401610eef929190612ba1565b602060405180830381600087803b158015610f0957600080fd5b505af1158015610f1d573d6000803e3d6000fd5b505050506040513d601f19601f82011682018060405250610f41919081019061248c565b505b505050565b6000606060008084511115610f6557602084510290508391508082525b60008060009054906101000a900473ffffffffffffffffffffffffffffffffffffffff1673ffffffffffffffffffffffffffffffffffffffff16148061107557506000809054906101000a900473ffffffffffffffffffffffffffffffffffffffff1673ffffffffffffffffffffffffffffffffffffffff1663fdef9106873088866040518563ffffffff167c01000000000000000000000000000000000000000000000000000000000281526004016110229493929190612b55565b602060405180830381600087803b15801561103c57600080fd5b505af1158015611050573d6000803e3d6000fd5b505050506040513d601f19601f82011682018060405250611074919081019061248c565b5b925050509392505050565b611088611cfc565b6066600083815260200190815260200160002060a0604051908101604052908160008201606060405190810160405290816000820160009054906101000a900473ffffffffffffffffffffffffffffffffffffffff1673ffffffffffffffffffffffffffffffffffffffff1673ffffffffffffffffffffffffffffffffffffffff16815260200160018201548152602001600282018054600181600116156101000203166002900480601f0160208091040260200160405190810160405280929190818152602001828054600181600116156101000203166002900480156111b15780601f10611186576101008083540402835291602001916111b1565b820191906000526020600020905b81548152906001019060200180831161119457829003601f168201915b505050505081525050815260200160038201548152602001600482015481526020016005820160009054906101000a900460ff1660048111156111f057fe5b60048111156111fb57fe5b81526020016006820154815250509050919050565b60405180807f56414c554154455f5246415f524f4c45000000000000000000000000000000008152506010019050604051809103902081565b600060035414151561125a57600080fd5b611262611a7b565b80606460006101000a81548173ffffffffffffffffffffffffffffffffffffffff021916908373ffffffffffffffffffffffffffffffffffffffff16021790555050565b6000809054906101000a900473ffffffffffffffffffffffffffffffffffffffff1681565b60006112d5611a9c565b73ffffffffffffffffffffffffffffffffffffffff166304bf2a7f836040518263ffffffff167c01000000000000000000000000000000000000000000000000000000000281526004016113299190612c00565b602060405180830381600087803b15801561134357600080fd5b505af1158015611357573d6000803e3d6000fd5b505050506040513d601f19601f8201168201806040525061137b91908101906124f6565b9050919050565b61138a611d3d565b60656000838152602001908152602001600020608060405190810160405290816000820160a060405190810160405290816000820160009054906101000a900473ffffffffffffffffffffffffffffffffffffffff1673ffffffffffffffffffffffffffffffffffffffff1673ffffffffffffffffffffffffffffffffffffffff168152602001600182018054600181600116156101000203166002900480601f0160208091040260200160405190810160405280929190818152602001828054600181600116156101000203166002900480156114a95780601f1061147e576101008083540402835291602001916114a9565b820191906000526020600020905b81548152906001019060200180831161148c57829003601f168201915b50505050508152602001600282018054600181600116156101000203166002900480601f01602080910402602001604051908101604052809291908181526020018280546001816001161561010002031660029004801561154b5780601f106115205761010080835404028352916020019161154b565b820191906000526020600020905b81548152906001019060200180831161152e57829003601f168201915b50505050508152602001600382018054600181600116156101000203166002900480601f0160208091040260200160405190810160405280929190818152602001828054600181600116156101000203166002900480156115ed5780601f106115c2576101008083540402835291602001916115ed565b820191906000526020600020905b8154815290600101906020018083116115d057829003601f168201915b5050505050815260200160048201805480602002602001604051908101604052809291908181526020016000905b828210156116b557838290600052602060002090600202016040805190810160405290816000820160009054906101000a900473ffffffffffffffffffffffffffffffffffffffff1673ffffffffffffffffffffffffffffffffffffffff1673ffffffffffffffffffffffffffffffffffffffff16815260200160018201546000191660001916815250508152602001906001019061161b565b50505050815250508152602001600582015481526020016006820160009054906101000a900460ff1660038111156116e957fe5b60038111156116f457fe5b81526020016007820180548060200260200160405190810160405280929190818152602001828054801561174757602002820191906000526020600020905b815481526020019060010190808311611733575b5050505050815250509050919050565b600060666000848152602001908152602001600020905060018160050160006101000a81548160ff0219169083600481111561178f57fe5b0217905550818160040181905550505050565b600080600080600080600160675401606781905550606754955060656000878152602001908152602001600020945060008560060160006101000a81548160ff021916908360038111156117f257fe5b021790555087600001518560000160000160006101000a81548173ffffffffffffffffffffffffffffffffffffffff021916908373ffffffffffffffffffffffffffffffffffffffff1602179055508760200151856000016001019080519060200190611860929190611d78565b508760400151856000016002019080519060200190611880929190611d78565b5087606001518560000160030190805190602001906118a0929190611d78565b5087608001515185600001600401816118b99190611df8565b50600093505b876080015151841015611971578760800151848151811015156118de57fe5b9060200190602002015185600001600401858154811015156118fc57fe5b906000526020600020906002020160008201518160000160006101000a81548173ffffffffffffffffffffffffffffffffffffffff021916908373ffffffffffffffffffffffffffffffffffffffff1602179055506020820151816001019060001916905590505083806001019450506118bf565b600092505b86518310156119e7576119a0878481518110151561199057fe5b9060200190602002015187611b93565b91508460070180548091906001016119b89190611e2a565b90508185600701828154811015156119cc57fe5b90600052602060002001819055508280600101935050611976565b7f35f2129c6d5c40f8bfc21ff096fc803eed03c578d74fabcf718966bce5e43a2486604051611a169190612cd9565b60405180910390a1505050505092915050565b600080600073ffffffffffffffffffffffffffffffffffffffff168373ffffffffffffffffffffffffffffffffffffffff161415611a6a5760009150611a75565b823b90506000811191505b50919050565b6000600354141515611a8c57600080fd5b611a94611cf4565b600381905550565b6000806000809054906101000a900473ffffffffffffffffffffffffffffffffffffffff1673ffffffffffffffffffffffffffffffffffffffff166342c71f1d7f34f01c17e9be6ddbf2c61f37b5b1fb9f1a090a975006581ad19bda1c4d3828716001026040518263ffffffff167c0100000000000000000000000000000000000000000000000000000000028152600401611b389190612be5565b602060405180830381600087803b158015611b5257600080fd5b505af1158015611b66573d6000803e3d6000fd5b505050506040513d601f19601f82011682018060405250611b8a91908101906123fc565b90508091505090565b600080600073ffffffffffffffffffffffffffffffffffffffff166065600085815260200190815260200160002060000160000160009054906101000a900473ffffffffffffffffffffffffffffffffffffffff1673ffffffffffffffffffffffffffffffffffffffff1614151515611c0b57600080fd5b600160685401606881905550606854915060666000838152602001908152602001600020905083600001518160000160000160006101000a81548173ffffffffffffffffffffffffffffffffffffffff021916908373ffffffffffffffffffffffffffffffffffffffff160217905550836020015181600001600101819055508360400151816000016002019080519060200190611caa929190611d78565b504381600301819055506000816004018190555060008160050160006101000a81548160ff02191690836004811115611cdf57fe5b02179055508281600601819055505092915050565b600043905090565b60e060405190810160405280611d10611e56565b8152602001600081526020016000815260200160006004811115611d3057fe5b8152602001600081525090565b61010060405190810160405280611d52611e8e565b81526020016000815260200160006003811115611d6b57fe5b8152602001606081525090565b828054600181600116156101000203166002900490600052602060002090601f016020900481019282601f10611db957805160ff1916838001178555611de7565b82800160010185558215611de7579182015b82811115611de6578251825591602001919060010190611dcb565b5b509050611df49190611ed4565b5090565b815481835581811115611e2557600202816002028360005260206000209182019101611e249190611ef9565b5b505050565b815481835581811115611e5157818360005260206000209182019101611e509190611ed4565b5b505050565b606060405190810160405280600073ffffffffffffffffffffffffffffffffffffffff16815260200160008152602001606081525090565b60a060405190810160405280600073ffffffffffffffffffffffffffffffffffffffff168152602001606081526020016060815260200160608152602001606081525090565b611ef691905b80821115611ef2576000816000905550600101611eda565b5090565b90565b611f4491905b80821115611f4057600080820160006101000a81549073ffffffffffffffffffffffffffffffffffffffff0219169055600182016000905550600201611eff565b5090565b90565b6000611f538235612ebd565b905092915050565b6000611f678251612ebd565b905092915050565b600082601f8301121515611f8257600080fd5b8135611f95611f9082612d21565b612cf4565b9150818183526020840193506020810190508360005b83811015611fdb5781358601611fc188826121ff565b845260208401935060208301925050600181019050611fab565b5050505092915050565b600082601f8301121515611ff857600080fd5b813561200b61200682612d49565b612cf4565b9150818183526020840193506020810190508385604084028201111561203057600080fd5b60005b8381101561206057816120468882612277565b845260208401935060408301925050600181019050612033565b5050505092915050565b600082601f830112151561207d57600080fd5b813561209061208b82612d71565b612cf4565b915081818352602084019350602081019050838560208402820111156120b557600080fd5b60005b838110156120e557816120cb88826123ab565b8452602084019350602083019250506001810190506120b8565b5050505092915050565b60006120fb8251612edd565b905092915050565b600061210f8235612ee9565b905092915050565b600082601f830112151561212a57600080fd5b813561213d61213882612d99565b612cf4565b9150808252602083016020830185838301111561215957600080fd5b612164838284612f94565b50505092915050565b60006121798251612ef3565b905092915050565b600061218d8235612f05565b905092915050565b60006121a18235612f17565b905092915050565b600082601f83011215156121bc57600080fd5b81356121cf6121ca82612dc5565b612cf4565b915080825260208301602083018583830111156121eb57600080fd5b6121f6838284612f94565b50505092915050565b60006060828403121561221157600080fd5b61221b6060612cf4565b9050600061222b84828501611f47565b600083015250602061223f848285016123ab565b602083015250604082013567ffffffffffffffff81111561225f57600080fd5b61226b848285016121a9565b60408301525092915050565b60006040828403121561228957600080fd5b6122936040612cf4565b905060006122a384828501611f47565b60008301525060206122b784828501612103565b60208301525092915050565b600060a082840312156122d557600080fd5b6122df60a0612cf4565b905060006122ef84828501611f47565b600083015250602082013567ffffffffffffffff81111561230f57600080fd5b61231b848285016121a9565b602083015250604082013567ffffffffffffffff81111561233b57600080fd5b612347848285016121a9565b604083015250606082013567ffffffffffffffff81111561236757600080fd5b612373848285016121a9565b606083015250608082013567ffffffffffffffff81111561239357600080fd5b61239f84828501611fe5565b60808301525092915050565b60006123b78235612f30565b905092915050565b60006123cb8251612f30565b905092915050565b6000602082840312156123e557600080fd5b60006123f384828501611f47565b91505092915050565b60006020828403121561240e57600080fd5b600061241c84828501611f5b565b91505092915050565b60008060006060848603121561243a57600080fd5b600061244886828701611f47565b935050602061245986828701612103565b925050604084013567ffffffffffffffff81111561247657600080fd5b6124828682870161206a565b9150509250925092565b60006020828403121561249e57600080fd5b60006124ac848285016120ef565b91505092915050565b6000602082840312156124c757600080fd5b600082013567ffffffffffffffff8111156124e157600080fd5b6124ed84828501612117565b91505092915050565b60006020828403121561250857600080fd5b60006125168482850161216d565b91505092915050565b60006020828403121561253157600080fd5b600061253f84828501612181565b91505092915050565b6000806040838503121561255b57600080fd5b600083013567ffffffffffffffff81111561257557600080fd5b612581858286016122c3565b925050602083013567ffffffffffffffff81111561259e57600080fd5b6125aa85828601611f6f565b9150509250929050565b6000602082840312156125c657600080fd5b60006125d4848285016123ab565b91505092915050565b6000602082840312156125ef57600080fd5b60006125fd848285016123bf565b91505092915050565b6000806040838503121561261957600080fd5b6000612627858286016123ab565b925050602061263885828601612195565b9150509250929050565b6000806040838503121561265557600080fd5b6000612663858286016123ab565b9250506020612674858286016123ab565b9150509250929050565b61268781612e51565b82525050565b61269681612e51565b82525050565b60006126a782612e0b565b8084526020840193506126b983612df1565b60005b828110156126eb576126cf86835161290c565b6126d882612e37565b91506040860195506001810190506126bc565b50849250505092915050565b600061270282612e16565b80845260208401935061271483612dfe565b60005b828110156127465761272a868351612b1c565b61273382612e44565b9150602086019550600181019050612717565b50849250505092915050565b61275b81612e71565b82525050565b61276a81612e7d565b82525050565b600061277b82612e21565b80845261278f816020860160208601612fa3565b61279881612fd6565b602085010191505092915050565b6127af81612f3a565b82525050565b6127be81612f4c565b82525050565b6127cd81612f5e565b82525050565b6127dc81612f70565b82525050565b6127eb81612f70565b82525050565b6127fa81612f82565b82525050565b600061280b82612e2c565b80845261281f816020860160208601612fa3565b61282881612fd6565b602085010191505092915050565b600061284182612e2c565b808452612855816020860160208601612fa3565b61285e81612fd6565b602085010191505092915050565b6000606083016000830151612884600086018261267e565b5060208301516128976020860182612b1c565b50604083015184820360408601526128af8282612800565b9150508091505092915050565b60006060830160008301516128d4600086018261268d565b5060208301516128e76020860182612b2b565b50604083015184820360408601526128ff8282612836565b9150508091505092915050565b604082016000820151612922600085018261267e565b5060208201516129356020850182612761565b50505050565b600060a083016000830151612953600086018261267e565b506020830151848203602086015261296b8282612800565b915050604083015184820360408601526129858282612800565b9150506060830151848203606086015261299f8282612800565b915050608083015184820360808601526129b9828261269c565b9150508091505092915050565b600060a08301600083015184820360008601526129e3828261286c565b91505060208301516129f86020860182612b1c565b506040830151612a0b6040860182612b1c565b506060830151612a1e60608601826127d3565b506080830151612a316080860182612b1c565b508091505092915050565b600060a0830160008301518482036000860152612a5982826128bc565b9150506020830151612a6e6020860182612b2b565b506040830151612a816040860182612b2b565b506060830151612a9460608601826127e2565b506080830151612aa76080860182612b2b565b508091505092915050565b60006080830160008301518482036000860152612acf828261293b565b9150506020830151612ae46020860182612b1c565b506040830151612af760408601826127f1565b5060608301518482036060860152612b0f82826126f7565b9150508091505092915050565b612b2581612eb3565b82525050565b612b3481612eb3565b82525050565b6000602082019050612b4f600083018461267e565b92915050565b6000608082019050612b6a600083018761267e565b612b77602083018661267e565b612b846040830185612761565b8181036060830152612b968184612770565b905095945050505050565b6000604082019050612bb6600083018561267e565b612bc36020830184612b1c565b9392505050565b6000602082019050612bdf6000830184612752565b92915050565b6000602082019050612bfa6000830184612761565b92915050565b60006020820190508181036000830152612c1a8184612770565b905092915050565b6000602082019050612c3760008301846127a6565b92915050565b6000602082019050612c5260008301846127b5565b92915050565b6000602082019050612c6d60008301846127c4565b92915050565b60006020820190508181036000830152612c8d81846129c6565b905092915050565b60006020820190508181036000830152612caf8184612a3c565b905092915050565b60006020820190508181036000830152612cd18184612ab2565b905092915050565b6000602082019050612cee6000830184612b1c565b92915050565b6000604051905081810181811067ffffffffffffffff82111715612d1757600080fd5b8060405250919050565b600067ffffffffffffffff821115612d3857600080fd5b602082029050602081019050919050565b600067ffffffffffffffff821115612d6057600080fd5b602082029050602081019050919050565b600067ffffffffffffffff821115612d8857600080fd5b602082029050602081019050919050565b600067ffffffffffffffff821115612db057600080fd5b601f19601f8301169050602081019050919050565b600067ffffffffffffffff821115612ddc57600080fd5b601f19601f8301169050602081019050919050565b6000602082019050919050565b6000602082019050919050565b600081519050919050565b600081519050919050565b600081519050919050565b600081519050919050565b6000602082019050919050565b6000602082019050919050565b600073ffffffffffffffffffffffffffffffffffffffff82169050919050565b60008115159050919050565b6000819050919050565b6000600582101515612e9557fe5b819050919050565b6000600482101515612eab57fe5b819050919050565b6000819050919050565b600073ffffffffffffffffffffffffffffffffffffffff82169050919050565b60008115159050919050565b6000819050919050565b6000612efe82612e51565b9050919050565b6000612f1082612e51565b9050919050565b6000600382101515612f2857600080fd5b819050919050565b6000819050919050565b6000612f4582612e51565b9050919050565b6000612f5782612e51565b9050919050565b6000612f6982612e51565b9050919050565b6000612f7b82612e87565b9050919050565b6000612f8d82612e9d565b9050919050565b82818337600083830152505050565b60005b83811015612fc1578082015181840152602081019050612fa6565b83811115612fd0576000848401525b50505050565b6000601f19601f83011690509190505600a265627a7a72305820d73e178ec962977105fd180c5d52b2111a2e2a39ab0731e3347adfb532c307e76c6578706572696d656e74616cf50037",
  "source": "pragma solidity ^0.4.24;\npragma experimental ABIEncoderV2;\n\nimport \"@aragon/os/contracts/apps/AragonApp.sol\";\nimport \"./Pando.sol\";\nimport \"./PandoHistory.sol\";\n\n// Public function are abstract\n// actual implementations refers to internal methods like _sort _ valuate, etc. which actually enforces state machine checks\n// The pando interface version is tied to the library which can be deployed only once;\n// If I send for instance a valuate RFA to a voting app the app must be aware of the internal logic like: to execute it it need to know that RFA are accepted.\n// So the voting app needs to have access to the internal state of the Kit. The best idea is to actually turn kit into decision engine which can be aware of the state of the kit.\n\n// Pando app: three smart contracts on top of which one can build actual apps thorugh the exposed API of the PandoEngine contract. The PandoEngine is the source of thrust storing state and enforcing basic stuff about how that state can be modified\n\n// The PandoLineage and PandoHistory permissions are set one for all and can't be modified. Only the PandoEngine can access it. This is set at DAO deployement and cannot be changed.\n\n// This apps built on top of the pandoengine contract are supposed to propose governance and stuff and map between the state of the engine and the apps (for instance map a RFI id with a vote ID). They fetch data from the Engine and transact to the engine (Necessity to extend the sandboxing policy)\n\n// For instance a dictator kit will have an auth(DICTATOR_ROLE) for function call\n\n// It's this kit which are actually work as app in the AragonFrontEnd\n\n// It's up to the kit to define more fine-grained stuff - such as the requirement for staking and all - on top of PandoEngine API. Thes kits you wanna be used by tge must just enfoce a minimum API to provide CLI interoperability with different KITs\n\n// All the apps need to rely on the same version of the pando library defining shared data structures and helpers function on top of these datastructures;\n\n// The kits have no direct access neither to the lineage token nor to the history graph - thanks to the ACL and role enforcement. The only way for kits to update token and history is to go trhough the PandoEngine API.\n\n\ncontract PandoAPI is AragonApp {\n    using Pando for Pando.RFI;\n    using Pando for Pando.RFA;\n\n    bytes32 constant public SUBMIT_RFA_ROLE  = keccak256(\"SUBMIT_RFA_ROLE\");\n    bytes32 constant public VALUATE_RFA_ROLE = keccak256(\"VALUATE_RFA_ROLE\");\n    bytes32 constant public CREATE_RFI_ROLE  = keccak256(\"CREATE_RFI_ROLE\");\n    bytes32 constant public SORT_RFI_ROLE    = keccak256(\"SORT_RFI_ROLE\");\n\n\n    event CreateRFI (uint256 id);\n    event UpdateRFI (uint256 id);\n    event MergeRFI  (uint256 id);\n    event RejectRFI (uint256 id);\n    event CancelRFI (uint256 id);\n\n    event Test (address receiver, uint256 amount, string metadata);\n    event Test2 (address origin);\n\n\n    PandoHistory history;\n\n    // We are mimicing an array, we use a mapping instead to make app upgrade more graceful\n\n\n    mapping (uint256 => Pando.RFI) internal RFIs;\n    mapping (uint256 => Pando.RFA) internal RFAs;\n\n    uint256 public RFIsLength = 0;\n    uint256 public RFAsLength = 0;\n\n/*\n    Pando.RFI[] public RFIs;\n    Pando.RFA[] public RFAs; */\n\n    /***** transactions :: public *****/\n\n    function initialize(PandoHistory _history) onlyInit external {\n        initialized();\n        history = _history;\n    }\n\n\n    /* function createRFI(Pando.IIIndividuation _individuation) isInitialized auth(CREATE_RFI_ROLE) public returns (uint256 RFIid)  {\n        RFIid = _createRFI(_individuation);\n    } */\n\n\n    function createRFI(Pando.IIndividuation _individuation, Pando.IAlliance[] _alliances) isInitialized /*auth(CREATE_RFI_ROLE)*/ public returns (uint256 RFIid)  {\n        RFIid = _createRFI(_individuation, _alliances);\n    }\n\n\n    function valuateRFA(uint256 _RFAid, uint256 _amount) isInitialized public {\n        require(RFAs[_RFAid].isPending());\n\n        _valuateRFA(_RFAid, _amount);\n    }\n\n    function sortRFA(uint256 _id, Pando.RFASorting _sorting) {\n        Pando.RFA storage RFA = RFAs[_id];\n\n        require(RFA.isValuated());\n\n        if(_sorting == Pando.RFASorting.Accept) {\n            RFA.state = Pando.RFAState.Accepted;\n        }\n\n\n        if(_sorting == Pando.RFASorting.Reject) {\n            Pando.RFI storage RFI = RFIs[RFA.RFIid];\n\n            RFA.state = Pando.RFAState.Rejected;\n            RFI.state = Pando.RFIState.Cancelled;\n        }\n    }\n\n    /***** getters :: public *****/\n\n    function getRFI(uint256 _RFIid) public view returns (Pando.RFI RFI) {\n        RFI = RFIs[_RFIid];\n    }\n\n    function getRFA(uint256 _RFAid) public view returns (Pando.RFA RFA) {\n        RFA = RFAs[_RFAid];\n    }\n\n    /***** transactions :: internal *****/\n\n    function _createRFI(Pando.IIndividuation _individuation, Pando.IAlliance[] _alliances) internal returns (uint256 RFIid)  {\n        // ENFORCE ADDRESS FROM MSG.SENDER, ADD A PROOF A SIGNATURE\n        // https://github.com/OpenZeppelin/openzeppelin-solidity/blob/master/contracts/cryptography/ECDSA.sol because msg.sender is gonna be the kit\n        RFIsLength = RFIsLength + 1;\n        RFIid      = RFIsLength;\n\n        Pando.RFI storage RFI = RFIs[RFIid];\n\n        RFI.state             = Pando.RFIState.Pending;\n\n        RFI.individuation.origin     = _individuation.origin;\n        RFI.individuation.tree       = _individuation.tree;\n        RFI.individuation.message    = _individuation.message;\n        RFI.individuation.metadata   = _individuation.metadata;\n\n\n        RFI.individuation.parents.length = _individuation.parents.length;\n        for (uint256 i = 0; i < _individuation.parents.length; i++) {\n            RFI.individuation.parents[i] = _individuation.parents[i];\n        }\n\n        for(uint256 j = 0; j < _alliances.length; j++) {\n            uint256 RFAid = _createRFA(_alliances[j], RFIid);\n            uint256 index = RFI.RFAids.length++;\n            RFI.RFAids[index] = RFAid;\n        }\n\n        emit CreateRFI(RFIid);\n    }\n\n    /* struct RFA {\n        IAlliance alliance;\n        uint256   blockstamp;\n        RFAState  state;\n        uint256   RFIid;\n    }\n\n    struct IAlliance {\n        address  destination;\n        uint256  minimum;\n        string   metadata;\n    } */\n\n\n    function _createRFA(Pando.IAlliance _alliance, uint256 _RFIid) internal returns (uint256 RFAid) {\n        require(RFIs[_RFIid].individuation.origin != address(0));\n\n        RFAsLength            = RFAsLength + 1;\n        RFAid                 = RFAsLength;\n        Pando.RFA storage RFA = RFAs[RFAid];\n\n\n        RFA.alliance.destination = _alliance.destination;\n        RFA.alliance.minimum     = _alliance.minimum;\n        RFA.alliance.metadata    = _alliance.metadata;\n\n        RFA.blockstamp = block.number;\n        RFA.amount     = 0;\n        RFA.state      = Pando.RFAState.Pending;\n        RFA.RFIid      = _RFIid;\n    }\n\n    function _valuateRFA(uint256 _RFAid, uint256 _amount) internal {\n        Pando.RFA storage RFA = RFAs[_RFAid];\n\n        RFA.state = Pando.RFAState.Valuated;\n        RFA.amount = _amount;\n    }\n\n\n    function _sortRFI(uint256 _RFIid, Pando.RFISorting _sorting) internal {\n        /* require(canSortRFI(RFIs[_id], _sorting)); */\n\n        Pando.RFI storage RFI = RFIs[_RFIid];\n\n        if(_sorting == Pando.RFISorting.Merge) {\n            RFI.state        = Pando.RFIState.Merged;\n            /* RFI.individuation.block = block.number; */\n\n            /* history.individuation(RFIs[_id].individuation.origin, RFIs[_id].individuation.block, RFIs[_id].individuation.tree, RFIs[_id].individuation.message, RFIs[_id].individuation.parents); */\n            history.individuation(RFI.individuation);\n\n\n            /* for (uint i = 0; i < RFIs[_id].RFAs.length) {\n                issueRFA(RFIs[_id].rlfs[i]);\n            } */\n\n            /* specimen.issueReward(RFIs[_RFIId].individuation.origin, RFIs[_RFIId].individuation.value); */\n\n            emit MergeRFI(_RFIid);\n        } else if (_sorting == Pando.RFISorting.Reject) {\n            RFI.state = Pando.RFIState.Rejected;\n            emit RejectRFI(_RFIid);\n        }\n    }\n\n\n}\n",
  "sourcePath": "/Users/osarrouy/Documents/dapp/@pando/packages/core/contracts/PandoKit.sol",
  "compiler": {
    "name": "solc",
    "version": "0.4.24+commit.e67f0147.Emscripten.clang"
  },
  "schemaVersion": "2.0.1",
  "updatedAt": "2018-10-06T16:57:44.234Z"
}