{
  "contractName": "PandoApp",
  "abi": [
    {
      "constant": true,
      "inputs": [],
      "name": "getRecoveryVault",
      "outputs": [
        {
          "name": "",
          "type": "address"
        }
      ],
      "payable": false,
      "stateMutability": "view",
      "type": "function"
    },
    {
      "constant": true,
      "inputs": [],
      "name": "EVMSCRIPT_REGISTRY_APP_ID",
      "outputs": [
        {
          "name": "",
          "type": "bytes32"
        }
      ],
      "payable": false,
      "stateMutability": "view",
      "type": "function"
    },
    {
      "constant": true,
      "inputs": [
        {
          "name": "token",
          "type": "address"
        }
      ],
      "name": "allowRecoverability",
      "outputs": [
        {
          "name": "",
          "type": "bool"
        }
      ],
      "payable": false,
      "stateMutability": "view",
      "type": "function"
    },
    {
      "constant": true,
      "inputs": [],
      "name": "appId",
      "outputs": [
        {
          "name": "",
          "type": "bytes32"
        }
      ],
      "payable": false,
      "stateMutability": "view",
      "type": "function"
    },
    {
      "constant": true,
      "inputs": [],
      "name": "ETH",
      "outputs": [
        {
          "name": "",
          "type": "address"
        }
      ],
      "payable": false,
      "stateMutability": "view",
      "type": "function"
    },
    {
      "constant": true,
      "inputs": [],
      "name": "getInitializationBlock",
      "outputs": [
        {
          "name": "",
          "type": "uint256"
        }
      ],
      "payable": false,
      "stateMutability": "view",
      "type": "function"
    },
    {
      "constant": true,
      "inputs": [],
      "name": "EVMSCRIPT_REGISTRY_APP",
      "outputs": [
        {
          "name": "",
          "type": "bytes32"
        }
      ],
      "payable": false,
      "stateMutability": "view",
      "type": "function"
    },
    {
      "constant": false,
      "inputs": [
        {
          "name": "_token",
          "type": "address"
        }
      ],
      "name": "transferToVault",
      "outputs": [],
      "payable": false,
      "stateMutability": "nonpayable",
      "type": "function"
    },
    {
      "constant": true,
      "inputs": [
        {
          "name": "_sender",
          "type": "address"
        },
        {
          "name": "_role",
          "type": "bytes32"
        },
        {
          "name": "_params",
          "type": "uint256[]"
        }
      ],
      "name": "canPerform",
      "outputs": [
        {
          "name": "",
          "type": "bool"
        }
      ],
      "payable": false,
      "stateMutability": "view",
      "type": "function"
    },
    {
      "constant": true,
      "inputs": [],
      "name": "kernel",
      "outputs": [
        {
          "name": "",
          "type": "address"
        }
      ],
      "payable": false,
      "stateMutability": "view",
      "type": "function"
    },
    {
      "constant": true,
      "inputs": [
        {
          "name": "_script",
          "type": "bytes"
        }
      ],
      "name": "getExecutor",
      "outputs": [
        {
          "name": "",
          "type": "address"
        }
      ],
      "payable": false,
      "stateMutability": "view",
      "type": "function"
    },
    {
      "anonymous": false,
      "inputs": [
        {
          "indexed": true,
          "name": "executor",
          "type": "address"
        },
        {
          "indexed": false,
          "name": "script",
          "type": "bytes"
        },
        {
          "indexed": false,
          "name": "input",
          "type": "bytes"
        },
        {
          "indexed": false,
          "name": "returnData",
          "type": "bytes"
        }
      ],
      "name": "ScriptResult",
      "type": "event"
    }
  ],
  "bytecode": "0x608060405234801561001057600080fd5b5061106c806100206000396000f3006080604052600436106100af576000357c0100000000000000000000000000000000000000000000000000000000900463ffffffff16806332f0a3b5146100b457806360b1e057146100df5780637e7db6e11461010a57806380afdea8146101475780638322fff2146101725780638b3dd7491461019d5780639b3fdf4c146101c85780639d4941d8146101f3578063a1658fad1461021c578063d4aae0c414610259578063f92a79ff14610284575b600080fd5b3480156100c057600080fd5b506100c96102c1565b6040516100d69190610d37565b60405180910390f35b3480156100eb57600080fd5b506100f46103cb565b6040516101019190610de2565b60405180910390f35b34801561011657600080fd5b50610131600480360361012c9190810190610b23565b6103f2565b60405161013e9190610dc7565b60405180910390f35b34801561015357600080fd5b5061015c6103fd565b6040516101699190610de2565b60405180910390f35b34801561017e57600080fd5b50610187610403565b6040516101949190610d37565b60405180910390f35b3480156101a957600080fd5b506101b2610408565b6040516101bf9190610e70565b60405180910390f35b3480156101d457600080fd5b506101dd610412565b6040516101ea9190610de2565b60405180910390f35b3480156101ff57600080fd5b5061021a60048036036102159190810190610b23565b610439565b005b34801561022857600080fd5b50610243600480360361023e9190810190610b75565b61065f565b6040516102509190610dc7565b60405180910390f35b34801561026557600080fd5b5061026e610797565b60405161027b9190610e3a565b60405180910390f35b34801561029057600080fd5b506102ab60048036036102a69190810190610c05565b6107bc565b6040516102b89190610e1f565b60405180910390f35b6000806000809054906101000a900473ffffffffffffffffffffffffffffffffffffffff1673ffffffffffffffffffffffffffffffffffffffff161415151561030957600080fd5b6000809054906101000a900473ffffffffffffffffffffffffffffffffffffffff1673ffffffffffffffffffffffffffffffffffffffff166332f0a3b56040518163ffffffff167c0100000000000000000000000000000000000000000000000000000000028152600401602060405180830381600087803b15801561038e57600080fd5b505af11580156103a2573d6000803e3d6000fd5b505050506040513d601f19601f820116820180604052506103c69190810190610b4c565b905090565b7fddbcfd564f642ab5627cf68b9b7d374fb4f8a36e941a75d89c87998cef03bd6160010281565b600060019050919050565b60015481565b600081565b6000600354905090565b7f34f01c17e9be6ddbf2c61f37b5b1fb9f1a090a975006581ad19bda1c4d38287160010281565b600080610445836103f2565b151561045057600080fd5b6104586102c1565b915061046382610873565b151561046e57600080fd5b600073ffffffffffffffffffffffffffffffffffffffff168373ffffffffffffffffffffffffffffffffffffffff161415610506578173ffffffffffffffffffffffffffffffffffffffff166108fc3073ffffffffffffffffffffffffffffffffffffffff16319081150290604051600060405180830381858888f19350505050158015610500573d6000803e3d6000fd5b5061065a565b8273ffffffffffffffffffffffffffffffffffffffff166370a08231306040518263ffffffff167c010000000000000000000000000000000000000000000000000000000002815260040161055b9190610e55565b602060405180830381600087803b15801561057557600080fd5b505af1158015610589573d6000803e3d6000fd5b505050506040513d601f19601f820116820180604052506105ad9190810190610c6f565b90508273ffffffffffffffffffffffffffffffffffffffff1663a9059cbb83836040518363ffffffff167c0100000000000000000000000000000000000000000000000000000000028152600401610606929190610d9e565b602060405180830381600087803b15801561062057600080fd5b505af1158015610634573d6000803e3d6000fd5b505050506040513d601f19601f820116820180604052506106589190810190610bdc565b505b505050565b600060606000808451111561067c57602084510290508391508082525b60008060009054906101000a900473ffffffffffffffffffffffffffffffffffffffff1673ffffffffffffffffffffffffffffffffffffffff16148061078c57506000809054906101000a900473ffffffffffffffffffffffffffffffffffffffff1673ffffffffffffffffffffffffffffffffffffffff1663fdef9106873088866040518563ffffffff167c01000000000000000000000000000000000000000000000000000000000281526004016107399493929190610d52565b602060405180830381600087803b15801561075357600080fd5b505af1158015610767573d6000803e3d6000fd5b505050506040513d601f19601f8201168201806040525061078b9190810190610bdc565b5b925050509392505050565b6000809054906101000a900473ffffffffffffffffffffffffffffffffffffffff1681565b60006107c66108c5565b73ffffffffffffffffffffffffffffffffffffffff166304bf2a7f836040518263ffffffff167c010000000000000000000000000000000000000000000000000000000002815260040161081a9190610dfd565b602060405180830381600087803b15801561083457600080fd5b505af1158015610848573d6000803e3d6000fd5b505050506040513d601f19601f8201168201806040525061086c9190810190610c46565b9050919050565b600080600073ffffffffffffffffffffffffffffffffffffffff168373ffffffffffffffffffffffffffffffffffffffff1614156108b457600091506108bf565b823b90506000811191505b50919050565b6000806000809054906101000a900473ffffffffffffffffffffffffffffffffffffffff1673ffffffffffffffffffffffffffffffffffffffff166342c71f1d7f34f01c17e9be6ddbf2c61f37b5b1fb9f1a090a975006581ad19bda1c4d3828716001026040518263ffffffff167c01000000000000000000000000000000000000000000000000000000000281526004016109619190610de2565b602060405180830381600087803b15801561097b57600080fd5b505af115801561098f573d6000803e3d6000fd5b505050506040513d601f19601f820116820180604052506109b39190810190610b4c565b90508091505090565b60006109c88235610f57565b905092915050565b60006109dc8251610f57565b905092915050565b600082601f83011215156109f757600080fd5b8135610a0a610a0582610eb8565b610e8b565b91508181835260208401935060208101905083856020840282011115610a2f57600080fd5b60005b83811015610a5f5781610a458882610afb565b845260208401935060208301925050600181019050610a32565b5050505092915050565b6000610a758251610f77565b905092915050565b6000610a898235610f83565b905092915050565b600082601f8301121515610aa457600080fd5b8135610ab7610ab282610ee0565b610e8b565b91508082526020830160208301858383011115610ad357600080fd5b610ade838284610fdf565b50505092915050565b6000610af38251610f8d565b905092915050565b6000610b078235610f9f565b905092915050565b6000610b1b8251610f9f565b905092915050565b600060208284031215610b3557600080fd5b6000610b43848285016109bc565b91505092915050565b600060208284031215610b5e57600080fd5b6000610b6c848285016109d0565b91505092915050565b600080600060608486031215610b8a57600080fd5b6000610b98868287016109bc565b9350506020610ba986828701610a7d565b925050604084013567ffffffffffffffff811115610bc657600080fd5b610bd2868287016109e4565b9150509250925092565b600060208284031215610bee57600080fd5b6000610bfc84828501610a69565b91505092915050565b600060208284031215610c1757600080fd5b600082013567ffffffffffffffff811115610c3157600080fd5b610c3d84828501610a91565b91505092915050565b600060208284031215610c5857600080fd5b6000610c6684828501610ae7565b91505092915050565b600060208284031215610c8157600080fd5b6000610c8f84828501610b0f565b91505092915050565b610ca181610f17565b82525050565b610cb081610f37565b82525050565b610cbf81610f43565b82525050565b6000610cd082610f0c565b808452610ce4816020860160208601610fee565b610ced81611021565b602085010191505092915050565b610d0481610fa9565b82525050565b610d1381610fbb565b82525050565b610d2281610fcd565b82525050565b610d3181610f4d565b82525050565b6000602082019050610d4c6000830184610c98565b92915050565b6000608082019050610d676000830187610c98565b610d746020830186610c98565b610d816040830185610cb6565b8181036060830152610d938184610cc5565b905095945050505050565b6000604082019050610db36000830185610c98565b610dc06020830184610d28565b9392505050565b6000602082019050610ddc6000830184610ca7565b92915050565b6000602082019050610df76000830184610cb6565b92915050565b60006020820190508181036000830152610e178184610cc5565b905092915050565b6000602082019050610e346000830184610cfb565b92915050565b6000602082019050610e4f6000830184610d0a565b92915050565b6000602082019050610e6a6000830184610d19565b92915050565b6000602082019050610e856000830184610d28565b92915050565b6000604051905081810181811067ffffffffffffffff82111715610eae57600080fd5b8060405250919050565b600067ffffffffffffffff821115610ecf57600080fd5b602082029050602081019050919050565b600067ffffffffffffffff821115610ef757600080fd5b601f19601f8301169050602081019050919050565b600081519050919050565b600073ffffffffffffffffffffffffffffffffffffffff82169050919050565b60008115159050919050565b6000819050919050565b6000819050919050565b600073ffffffffffffffffffffffffffffffffffffffff82169050919050565b60008115159050919050565b6000819050919050565b6000610f9882610f17565b9050919050565b6000819050919050565b6000610fb482610f17565b9050919050565b6000610fc682610f17565b9050919050565b6000610fd882610f17565b9050919050565b82818337600083830152505050565b60005b8381101561100c578082015181840152602081019050610ff1565b8381111561101b576000848401525b50505050565b6000601f19601f83011690509190505600a265627a7a723058209c3a1fae3528c799b1c1cb1c400acf050e8b08f1312141d56286504e3f34e09c6c6578706572696d656e74616cf50037",
  "source": "pragma solidity ^0.4.24;\npragma experimental ABIEncoderV2;\n\nimport \"@aragon/os/contracts/apps/AragonApp.sol\";\n\n\ncontract PandoApp is AragonApp {\n\n    /**\n    * @notice Commit.\n    * @param origin Address the commit origins from: can be a wallet address, a branch address, a DAO address, etc.\n    * @param origin Address the commit origins from: can be a wallet address, a branch address, a DAO address, etc.\n    */\n\n    struct Commit {\n        address  origin;\n        uint256  block;\n        string   tree;\n        string   message;\n        CID[]   parents;\n        uint256  value;\n    }\n\n    /**\n    * @notice Structure describing a Commit IDentifier.\n    * @param version Version of the identified commit datastructure.\n    * @param branch\n    */\n    struct CID {\n        address    branch;\n        bytes32    hash;\n    }\n\n    function commitToHash(Commit _commit) pure internal returns (bytes32) {\n        return keccak256(abi.encode(_commit.origin, _commit.block, _commit.tree, _commit.value));\n    }\n\n    /* function bytesToParent(bytes _parents) pure internal returns (CID[]) {\n\n        parents[0] = CID(address(0x0), bytes32(0x0));\n\n    } */\n}\n",
  "sourcePath": "/Users/osarrouy/Documents/dapp/@pando/packages/core/contracts/PandoApp.sol",
  "compiler": {
    "name": "solc",
    "version": "0.4.24+commit.e67f0147.Emscripten.clang"
  },
  "schemaVersion": "2.0.0",
  "updatedAt": "2018-09-21T19:02:35.080Z"
}