{
  "contractName": "Pando",
  "abi": [
    {
      "constant": true,
      "inputs": [
        {
          "components": [
            {
              "components": [
                {
                  "name": "origin",
                  "type": "address"
                },
                {
                  "name": "tree",
                  "type": "string"
                },
                {
                  "name": "message",
                  "type": "string"
                },
                {
                  "name": "metadata",
                  "type": "string"
                },
                {
                  "components": [
                    {
                      "name": "api",
                      "type": "address"
                    },
                    {
                      "name": "hash",
                      "type": "bytes32"
                    }
                  ],
                  "name": "parents",
                  "type": "tuple[]"
                }
              ],
              "name": "individuation",
              "type": "tuple"
            },
            {
              "name": "blockstamp",
              "type": "uint256"
            },
            {
              "name": "state",
              "type": "Pando.RFIState"
            },
            {
              "name": "RFAids",
              "type": "uint256[]"
            }
          ],
          "name": "_RFI",
          "type": "tuple"
        }
      ],
      "name": "isPending",
      "outputs": [
        {
          "name": "",
          "type": "bool"
        }
      ],
      "payable": false,
      "stateMutability": "pure",
      "type": "function"
    },
    {
      "constant": true,
      "inputs": [
        {
          "components": [
            {
              "components": [
                {
                  "name": "destination",
                  "type": "address"
                },
                {
                  "name": "minimum",
                  "type": "uint256"
                },
                {
                  "name": "metadata",
                  "type": "string"
                }
              ],
              "name": "alliance",
              "type": "tuple"
            },
            {
              "name": "blockstamp",
              "type": "uint256"
            },
            {
              "name": "amount",
              "type": "uint256"
            },
            {
              "name": "state",
              "type": "Pando.RFAState"
            },
            {
              "name": "RFIid",
              "type": "uint256"
            }
          ],
          "name": "_RFA",
          "type": "tuple"
        }
      ],
      "name": "isPending",
      "outputs": [
        {
          "name": "",
          "type": "bool"
        }
      ],
      "payable": false,
      "stateMutability": "pure",
      "type": "function"
    },
    {
      "constant": true,
      "inputs": [
        {
          "components": [
            {
              "components": [
                {
                  "name": "destination",
                  "type": "address"
                },
                {
                  "name": "minimum",
                  "type": "uint256"
                },
                {
                  "name": "metadata",
                  "type": "string"
                }
              ],
              "name": "alliance",
              "type": "tuple"
            },
            {
              "name": "blockstamp",
              "type": "uint256"
            },
            {
              "name": "amount",
              "type": "uint256"
            },
            {
              "name": "state",
              "type": "Pando.RFAState"
            },
            {
              "name": "RFIid",
              "type": "uint256"
            }
          ],
          "name": "_RFA",
          "type": "tuple"
        }
      ],
      "name": "isValuated",
      "outputs": [
        {
          "name": "",
          "type": "bool"
        }
      ],
      "payable": false,
      "stateMutability": "pure",
      "type": "function"
    },
    {
      "constant": true,
      "inputs": [
        {
          "components": [
            {
              "name": "origin",
              "type": "address"
            },
            {
              "name": "blockstamp",
              "type": "uint256"
            },
            {
              "name": "tree",
              "type": "string"
            },
            {
              "name": "message",
              "type": "string"
            },
            {
              "name": "metadata",
              "type": "string"
            },
            {
              "components": [
                {
                  "name": "api",
                  "type": "address"
                },
                {
                  "name": "hash",
                  "type": "bytes32"
                }
              ],
              "name": "parents",
              "type": "tuple[]"
            }
          ],
          "name": "_individuation",
          "type": "tuple"
        }
      ],
      "name": "hash",
      "outputs": [
        {
          "name": "",
          "type": "bytes32"
        }
      ],
      "payable": false,
      "stateMutability": "pure",
      "type": "function"
    }
  ],
  "bytecode": "0x610bfb610030600b82828239805160001a6073146000811461002057610022565bfe5b5030600052607381538281f3007300000000000000000000000000000000000000003014608060405260043610610079576000357c0100000000000000000000000000000000000000000000000000000000900463ffffffff1680636ce2b1f61461007e5780638630d62f146100ae578063b1c2d68d146100de578063e7d5bb351461010e575b600080fd5b610098600480360361009391908101906109b7565b61013e565b6040516100a59190610a57565b60405180910390f35b6100c860048036036100c391908101906109f8565b610165565b6040516100d59190610a57565b60405180910390f35b6100f860048036036100f39190810190610976565b61018b565b6040516101059190610a72565b60405180910390f35b610128600480360361012391908101906109b7565b6103a0565b6040516101359190610a57565b60405180910390f35b60006001600481111561014d57fe5b8260600151600481111561015d57fe5b149050919050565b600080600381111561017357fe5b8260400151600381111561018357fe5b149050919050565b6000816000015182602001518360400151846060015185608001518660a00151604051602001808773ffffffffffffffffffffffffffffffffffffffff1673ffffffffffffffffffffffffffffffffffffffff166c0100000000000000000000000002815260140186815260200185805190602001908083835b60208310151561022a5780518252602082019150602081019050602083039250610205565b6001836020036101000a03801982511681845116808217855250505050505090500184805190602001908083835b60208310151561027d5780518252602082019150602081019050602083039250610258565b6001836020036101000a03801982511681845116808217855250505050505090500183805190602001908083835b6020831015156102d057805182526020820191506020810190506020830392506102ab565b6001836020036101000a0380198251168184511680821785525050505050509050018280516000925b8184101561031c57828490602001906020020151815260200192600101926102f9565b9250505096505050505050506040516020818303038152906040526040518082805190602001908083835b60208310151561036c5780518252602082019150602081019050602083039250610347565b6001836020036101000a03801982511681845116808217855250505050505090500191505060405180910390209050919050565b60008060048111156103ae57fe5b826060015160048111156103be57fe5b149050919050565b60006103d28235610b4c565b905092915050565b600082601f83011215156103ed57600080fd5b81356104006103fb82610aba565b610a8d565b9150818183526020840193506020810190508385604084028201111561042557600080fd5b60005b83811015610455578161043b88826105ee565b845260208401935060408301925050600181019050610428565b5050505092915050565b600082601f830112151561047257600080fd5b813561048561048082610ae2565b610a8d565b915081818352602084019350602081019050838560208402820111156104aa57600080fd5b60005b838110156104da57816104c08882610962565b8452602084019350602083019250506001810190506104ad565b5050505092915050565b60006104f08235610b6c565b905092915050565b60006105048235610b76565b905092915050565b60006105188235610b8f565b905092915050565b600082601f830112151561053357600080fd5b813561054661054182610b0a565b610a8d565b9150808252602083016020830185838301111561056257600080fd5b61056d838284610bb2565b50505092915050565b60006060828403121561058857600080fd5b6105926060610a8d565b905060006105a2848285016103c6565b60008301525060206105b684828501610962565b602083015250604082013567ffffffffffffffff8111156105d657600080fd5b6105e284828501610520565b60408301525092915050565b60006040828403121561060057600080fd5b61060a6040610a8d565b9050600061061a848285016103c6565b600083015250602061062e848285016104e4565b60208301525092915050565b600060a0828403121561064c57600080fd5b61065660a0610a8d565b90506000610666848285016103c6565b600083015250602082013567ffffffffffffffff81111561068657600080fd5b61069284828501610520565b602083015250604082013567ffffffffffffffff8111156106b257600080fd5b6106be84828501610520565b604083015250606082013567ffffffffffffffff8111156106de57600080fd5b6106ea84828501610520565b606083015250608082013567ffffffffffffffff81111561070a57600080fd5b610716848285016103da565b60808301525092915050565b600060c0828403121561073457600080fd5b61073e60c0610a8d565b9050600061074e848285016103c6565b600083015250602061076284828501610962565b602083015250604082013567ffffffffffffffff81111561078257600080fd5b61078e84828501610520565b604083015250606082013567ffffffffffffffff8111156107ae57600080fd5b6107ba84828501610520565b606083015250608082013567ffffffffffffffff8111156107da57600080fd5b6107e684828501610520565b60808301525060a082013567ffffffffffffffff81111561080657600080fd5b610812848285016103da565b60a08301525092915050565b600060a0828403121561083057600080fd5b61083a60a0610a8d565b9050600082013567ffffffffffffffff81111561085657600080fd5b61086284828501610576565b600083015250602061087684828501610962565b602083015250604061088a84828501610962565b604083015250606061089e848285016104f8565b60608301525060806108b284828501610962565b60808301525092915050565b6000608082840312156108d057600080fd5b6108da6080610a8d565b9050600082013567ffffffffffffffff8111156108f657600080fd5b6109028482850161063a565b600083015250602061091684828501610962565b602083015250604061092a8482850161050c565b604083015250606082013567ffffffffffffffff81111561094a57600080fd5b6109568482850161045f565b60608301525092915050565b600061096e8235610ba8565b905092915050565b60006020828403121561098857600080fd5b600082013567ffffffffffffffff8111156109a257600080fd5b6109ae84828501610722565b91505092915050565b6000602082840312156109c957600080fd5b600082013567ffffffffffffffff8111156109e357600080fd5b6109ef8482850161081e565b91505092915050565b600060208284031215610a0a57600080fd5b600082013567ffffffffffffffff811115610a2457600080fd5b610a30848285016108be565b91505092915050565b610a4281610b36565b82525050565b610a5181610b42565b82525050565b6000602082019050610a6c6000830184610a39565b92915050565b6000602082019050610a876000830184610a48565b92915050565b6000604051905081810181811067ffffffffffffffff82111715610ab057600080fd5b8060405250919050565b600067ffffffffffffffff821115610ad157600080fd5b602082029050602081019050919050565b600067ffffffffffffffff821115610af957600080fd5b602082029050602081019050919050565b600067ffffffffffffffff821115610b2157600080fd5b601f19601f8301169050602081019050919050565b60008115159050919050565b6000819050919050565b600073ffffffffffffffffffffffffffffffffffffffff82169050919050565b6000819050919050565b6000600582101515610b8757600080fd5b819050919050565b6000600482101515610ba057600080fd5b819050919050565b6000819050919050565b828183376000838301525050505600a265627a7a7230582025dd9ccc2320137274b3f5d7fc07763350ec77024c002f149e9ac7eb29a960e66c6578706572696d656e74616cf50037",
  "source": "pragma solidity ^0.4.24;\npragma experimental ABIEncoderV2;\n\n\n// Une 'origine' produit des individuations en créant des déscendants d'autres individuation. Se sont des individuations - des gestes - qui produisent d'autres gestes par l'entremise de l'origine.\n\nlibrary Pando {\n    enum RFAState   { Pending, Valuated, Accepted, Rejected, Cancelled }\n    enum RFASorting { Accept, Reject, Cancel }\n\n    enum RFIState   { Pending, Merged, Rejected, Cancelled }\n    enum RFISorting { Merge, Reject, Cancel }\n\n    struct IID {\n        address api;\n        bytes32 hash;\n    }\n\n    struct IIndividuation {\n        address origin;\n        string  tree;\n        string  message;\n        string  metadata;\n        IID[]   parents;\n    }\n\n    // Un commit est un est acte d'individuation, (par les parents), pas un état\n    struct Individuation {\n        address origin;\n        uint256 blockstamp;\n        string  tree;\n        string  message;\n        string  metadata;\n        IID[]   parents;\n    }\n\n    struct IAlliance {\n        address  destination;\n        uint256  minimum;\n        string   metadata;\n    }\n\n    // Request for individuation\n    struct RFI {\n        IIndividuation individuation;\n        uint256        blockstamp;\n        RFIState       state;\n        uint256[]      RFAids;\n    }\n\n\n    struct RFA {\n        IAlliance alliance;\n        uint256   blockstamp;\n        uint256   amount;\n        RFAState  state;\n        uint256   RFIid;\n    }\n\n\n    function isPending(RFI _RFI) pure public returns (bool) {\n        return _RFI.state == RFIState.Pending;\n    }\n\n\n    function isPending(RFA _RFA) pure public returns (bool) {\n        return _RFA.state == RFAState.Pending;\n    }\n\n    function isValuated(RFA _RFA) pure public returns (bool) {\n        return _RFA.state == RFAState.Valuated;\n    }\n\n    function hash(Individuation _individuation) pure public returns (bytes32) {\n        return keccak256(abi.encodePacked(_individuation.origin, _individuation.blockstamp, _individuation.tree, _individuation.message, _individuation.metadata, _individuation.parents));\n    }\n}\n",
  "sourcePath": "/Users/osarrouy/Documents/dapp/@pando/packages/core/contracts/Pando.sol",
  "compiler": {
    "name": "solc",
    "version": "0.4.24+commit.e67f0147.Emscripten.clang"
  },
  "schemaVersion": "2.0.1",
  "updatedAt": "2018-10-06T16:57:44.259Z"
}