{
  "contractName": "PandoAPI",
  "abi": [
    {
      "constant": true,
      "inputs": [],
      "name": "hasInitialized",
      "outputs": [
        {
          "name": "",
          "type": "bool"
        }
      ],
      "payable": false,
      "stateMutability": "view",
      "type": "function"
    },
    {
      "constant": true,
      "inputs": [],
      "name": "REJECT_RFL_ROLE",
      "outputs": [
        {
          "name": "",
          "type": "bytes32"
        }
      ],
      "payable": false,
      "stateMutability": "view",
      "type": "function"
    },
    {
      "constant": true,
      "inputs": [],
      "name": "RFLsLength",
      "outputs": [
        {
          "name": "",
          "type": "uint256"
        }
      ],
      "payable": false,
      "stateMutability": "view",
      "type": "function"
    },
    {
      "constant": true,
      "inputs": [],
      "name": "KERNEL_APP_ID",
      "outputs": [
        {
          "name": "",
          "type": "bytes32"
        }
      ],
      "payable": false,
      "stateMutability": "view",
      "type": "function"
    },
    {
      "constant": true,
      "inputs": [],
      "name": "APP_ADDR_NAMESPACE",
      "outputs": [
        {
          "name": "",
          "type": "bytes32"
        }
      ],
      "payable": false,
      "stateMutability": "view",
      "type": "function"
    },
    {
      "constant": true,
      "inputs": [],
      "name": "CREATE_RFI_ROLE",
      "outputs": [
        {
          "name": "",
          "type": "bytes32"
        }
      ],
      "payable": false,
      "stateMutability": "view",
      "type": "function"
    },
    {
      "constant": true,
      "inputs": [],
      "name": "MERGE_RFI_ROLE",
      "outputs": [
        {
          "name": "",
          "type": "bytes32"
        }
      ],
      "payable": false,
      "stateMutability": "view",
      "type": "function"
    },
    {
      "constant": true,
      "inputs": [],
      "name": "getRecoveryVault",
      "outputs": [
        {
          "name": "",
          "type": "address"
        }
      ],
      "payable": false,
      "stateMutability": "view",
      "type": "function"
    },
    {
      "constant": true,
      "inputs": [
        {
          "name": "",
          "type": "uint256"
        }
      ],
      "name": "RFIs",
      "outputs": [
        {
          "components": [
            {
              "name": "origin",
              "type": "address"
            },
            {
              "name": "tree",
              "type": "string"
            },
            {
              "name": "message",
              "type": "string"
            },
            {
              "name": "metadata",
              "type": "string"
            },
            {
              "components": [
                {
                  "name": "api",
                  "type": "address"
                },
                {
                  "name": "hash",
                  "type": "bytes32"
                }
              ],
              "name": "parents",
              "type": "tuple[]"
            }
          ],
          "name": "individuation",
          "type": "tuple"
        },
        {
          "name": "blockstamp",
          "type": "uint256"
        },
        {
          "name": "state",
          "type": "uint8"
        }
      ],
      "payable": false,
      "stateMutability": "view",
      "type": "function"
    },
    {
      "constant": true,
      "inputs": [],
      "name": "EVMSCRIPT_REGISTRY_APP_ID",
      "outputs": [
        {
          "name": "",
          "type": "bytes32"
        }
      ],
      "payable": false,
      "stateMutability": "view",
      "type": "function"
    },
    {
      "constant": true,
      "inputs": [],
      "name": "CORE_NAMESPACE",
      "outputs": [
        {
          "name": "",
          "type": "bytes32"
        }
      ],
      "payable": false,
      "stateMutability": "view",
      "type": "function"
    },
    {
      "constant": true,
      "inputs": [
        {
          "name": "token",
          "type": "address"
        }
      ],
      "name": "allowRecoverability",
      "outputs": [
        {
          "name": "",
          "type": "bool"
        }
      ],
      "payable": false,
      "stateMutability": "view",
      "type": "function"
    },
    {
      "constant": true,
      "inputs": [],
      "name": "RFIsLength",
      "outputs": [
        {
          "name": "",
          "type": "uint256"
        }
      ],
      "payable": false,
      "stateMutability": "view",
      "type": "function"
    },
    {
      "constant": true,
      "inputs": [],
      "name": "appId",
      "outputs": [
        {
          "name": "",
          "type": "bytes32"
        }
      ],
      "payable": false,
      "stateMutability": "view",
      "type": "function"
    },
    {
      "constant": true,
      "inputs": [],
      "name": "ETH",
      "outputs": [
        {
          "name": "",
          "type": "address"
        }
      ],
      "payable": false,
      "stateMutability": "view",
      "type": "function"
    },
    {
      "constant": true,
      "inputs": [],
      "name": "getInitializationBlock",
      "outputs": [
        {
          "name": "",
          "type": "uint256"
        }
      ],
      "payable": false,
      "stateMutability": "view",
      "type": "function"
    },
    {
      "constant": true,
      "inputs": [],
      "name": "REJECT_RFI_ROLE",
      "outputs": [
        {
          "name": "",
          "type": "bytes32"
        }
      ],
      "payable": false,
      "stateMutability": "view",
      "type": "function"
    },
    {
      "constant": false,
      "inputs": [
        {
          "name": "_token",
          "type": "address"
        }
      ],
      "name": "transferToVault",
      "outputs": [],
      "payable": false,
      "stateMutability": "nonpayable",
      "type": "function"
    },
    {
      "constant": true,
      "inputs": [
        {
          "name": "_sender",
          "type": "address"
        },
        {
          "name": "_role",
          "type": "bytes32"
        },
        {
          "name": "_params",
          "type": "uint256[]"
        }
      ],
      "name": "canPerform",
      "outputs": [
        {
          "name": "",
          "type": "bool"
        }
      ],
      "payable": false,
      "stateMutability": "view",
      "type": "function"
    },
    {
      "constant": true,
      "inputs": [],
      "name": "genesis",
      "outputs": [
        {
          "name": "",
          "type": "address"
        }
      ],
      "payable": false,
      "stateMutability": "view",
      "type": "function"
    },
    {
      "constant": true,
      "inputs": [],
      "name": "ACCEPT_RFL_ROLE",
      "outputs": [
        {
          "name": "",
          "type": "bytes32"
        }
      ],
      "payable": false,
      "stateMutability": "view",
      "type": "function"
    },
    {
      "constant": true,
      "inputs": [
        {
          "name": "",
          "type": "uint256"
        }
      ],
      "name": "RFLs",
      "outputs": [
        {
          "components": [
            {
              "name": "destination",
              "type": "address"
            },
            {
              "name": "minimum",
              "type": "uint256"
            },
            {
              "name": "metadata",
              "type": "string"
            }
          ],
          "name": "lineage",
          "type": "tuple"
        },
        {
          "name": "blockstamp",
          "type": "uint256"
        },
        {
          "name": "value",
          "type": "uint256"
        },
        {
          "name": "state",
          "type": "uint8"
        },
        {
          "name": "RFIid",
          "type": "uint256"
        }
      ],
      "payable": false,
      "stateMutability": "view",
      "type": "function"
    },
    {
      "constant": true,
      "inputs": [],
      "name": "lineage",
      "outputs": [
        {
          "name": "",
          "type": "address"
        }
      ],
      "payable": false,
      "stateMutability": "view",
      "type": "function"
    },
    {
      "constant": true,
      "inputs": [],
      "name": "ACL_APP_ID",
      "outputs": [
        {
          "name": "",
          "type": "bytes32"
        }
      ],
      "payable": false,
      "stateMutability": "view",
      "type": "function"
    },
    {
      "constant": true,
      "inputs": [],
      "name": "kernel",
      "outputs": [
        {
          "name": "",
          "type": "address"
        }
      ],
      "payable": false,
      "stateMutability": "view",
      "type": "function"
    },
    {
      "constant": true,
      "inputs": [],
      "name": "APP_BASES_NAMESPACE",
      "outputs": [
        {
          "name": "",
          "type": "bytes32"
        }
      ],
      "payable": false,
      "stateMutability": "view",
      "type": "function"
    },
    {
      "constant": true,
      "inputs": [],
      "name": "isPetrified",
      "outputs": [
        {
          "name": "",
          "type": "bool"
        }
      ],
      "payable": false,
      "stateMutability": "view",
      "type": "function"
    },
    {
      "constant": true,
      "inputs": [
        {
          "name": "_script",
          "type": "bytes"
        }
      ],
      "name": "getExecutor",
      "outputs": [
        {
          "name": "",
          "type": "address"
        }
      ],
      "payable": false,
      "stateMutability": "view",
      "type": "function"
    },
    {
      "anonymous": false,
      "inputs": [
        {
          "indexed": true,
          "name": "id",
          "type": "uint256"
        }
      ],
      "name": "CreateRFI",
      "type": "event"
    },
    {
      "anonymous": false,
      "inputs": [
        {
          "indexed": true,
          "name": "id",
          "type": "uint256"
        }
      ],
      "name": "MergeRFI",
      "type": "event"
    },
    {
      "anonymous": false,
      "inputs": [
        {
          "indexed": true,
          "name": "id",
          "type": "uint256"
        }
      ],
      "name": "RejectRFI",
      "type": "event"
    },
    {
      "anonymous": false,
      "inputs": [
        {
          "indexed": true,
          "name": "id",
          "type": "uint256"
        }
      ],
      "name": "CancelRFI",
      "type": "event"
    },
    {
      "anonymous": false,
      "inputs": [
        {
          "indexed": true,
          "name": "id",
          "type": "uint256"
        }
      ],
      "name": "CreateRFL",
      "type": "event"
    },
    {
      "anonymous": false,
      "inputs": [
        {
          "indexed": true,
          "name": "id",
          "type": "uint256"
        },
        {
          "indexed": false,
          "name": "value",
          "type": "uint256"
        }
      ],
      "name": "AcceptRFL",
      "type": "event"
    },
    {
      "anonymous": false,
      "inputs": [
        {
          "indexed": true,
          "name": "id",
          "type": "uint256"
        }
      ],
      "name": "RejectRFL",
      "type": "event"
    },
    {
      "anonymous": false,
      "inputs": [
        {
          "indexed": true,
          "name": "id",
          "type": "uint256"
        }
      ],
      "name": "CancelRFL",
      "type": "event"
    },
    {
      "anonymous": false,
      "inputs": [
        {
          "indexed": true,
          "name": "id",
          "type": "uint256"
        },
        {
          "indexed": false,
          "name": "destination",
          "type": "address"
        },
        {
          "indexed": false,
          "name": "value",
          "type": "uint256"
        }
      ],
      "name": "IssueRFL",
      "type": "event"
    },
    {
      "anonymous": false,
      "inputs": [
        {
          "indexed": true,
          "name": "executor",
          "type": "address"
        },
        {
          "indexed": false,
          "name": "script",
          "type": "bytes"
        },
        {
          "indexed": false,
          "name": "input",
          "type": "bytes"
        },
        {
          "indexed": false,
          "name": "returnData",
          "type": "bytes"
        }
      ],
      "name": "ScriptResult",
      "type": "event"
    },
    {
      "constant": false,
      "inputs": [
        {
          "name": "_genesis",
          "type": "address"
        },
        {
          "name": "_lineage",
          "type": "address"
        }
      ],
      "name": "initialize",
      "outputs": [],
      "payable": false,
      "stateMutability": "nonpayable",
      "type": "function"
    },
    {
      "constant": false,
      "inputs": [
        {
          "components": [
            {
              "name": "origin",
              "type": "address"
            },
            {
              "name": "tree",
              "type": "string"
            },
            {
              "name": "message",
              "type": "string"
            },
            {
              "name": "metadata",
              "type": "string"
            },
            {
              "components": [
                {
                  "name": "api",
                  "type": "address"
                },
                {
                  "name": "hash",
                  "type": "bytes32"
                }
              ],
              "name": "parents",
              "type": "tuple[]"
            }
          ],
          "name": "_individuation",
          "type": "tuple"
        },
        {
          "components": [
            {
              "name": "destination",
              "type": "address"
            },
            {
              "name": "minimum",
              "type": "uint256"
            },
            {
              "name": "metadata",
              "type": "string"
            }
          ],
          "name": "_lineages",
          "type": "tuple[]"
        }
      ],
      "name": "createRFI",
      "outputs": [
        {
          "name": "RFIid",
          "type": "uint256"
        }
      ],
      "payable": false,
      "stateMutability": "nonpayable",
      "type": "function"
    },
    {
      "constant": false,
      "inputs": [
        {
          "name": "_RFIid",
          "type": "uint256"
        }
      ],
      "name": "mergeRFI",
      "outputs": [],
      "payable": false,
      "stateMutability": "nonpayable",
      "type": "function"
    },
    {
      "constant": false,
      "inputs": [
        {
          "name": "_RFIid",
          "type": "uint256"
        }
      ],
      "name": "rejectRFI",
      "outputs": [],
      "payable": false,
      "stateMutability": "nonpayable",
      "type": "function"
    },
    {
      "constant": false,
      "inputs": [
        {
          "name": "_RFLid",
          "type": "uint256"
        },
        {
          "name": "_value",
          "type": "uint256"
        }
      ],
      "name": "acceptRFL",
      "outputs": [],
      "payable": false,
      "stateMutability": "nonpayable",
      "type": "function"
    },
    {
      "constant": false,
      "inputs": [
        {
          "name": "_RFLid",
          "type": "uint256"
        }
      ],
      "name": "rejectRFL",
      "outputs": [],
      "payable": false,
      "stateMutability": "nonpayable",
      "type": "function"
    },
    {
      "constant": true,
      "inputs": [
        {
          "name": "_RFIid",
          "type": "uint256"
        }
      ],
      "name": "canMergeRFI",
      "outputs": [
        {
          "name": "",
          "type": "bool"
        }
      ],
      "payable": false,
      "stateMutability": "view",
      "type": "function"
    },
    {
      "constant": true,
      "inputs": [
        {
          "name": "_RFIid",
          "type": "uint256"
        }
      ],
      "name": "canRejectRFI",
      "outputs": [
        {
          "name": "",
          "type": "bool"
        }
      ],
      "payable": false,
      "stateMutability": "view",
      "type": "function"
    },
    {
      "constant": true,
      "inputs": [
        {
          "name": "_RFLid",
          "type": "uint256"
        },
        {
          "name": "_value",
          "type": "uint256"
        }
      ],
      "name": "canAcceptRFL",
      "outputs": [
        {
          "name": "",
          "type": "bool"
        }
      ],
      "payable": false,
      "stateMutability": "view",
      "type": "function"
    },
    {
      "constant": true,
      "inputs": [
        {
          "name": "_RFLid",
          "type": "uint256"
        }
      ],
      "name": "canRejectRFL",
      "outputs": [
        {
          "name": "",
          "type": "bool"
        }
      ],
      "payable": false,
      "stateMutability": "view",
      "type": "function"
    },
    {
      "constant": true,
      "inputs": [],
      "name": "getLineageToken",
      "outputs": [
        {
          "name": "",
          "type": "address"
        }
      ],
      "payable": false,
      "stateMutability": "view",
      "type": "function"
    },
    {
      "constant": true,
      "inputs": [
        {
          "name": "_RFIid",
          "type": "uint256"
        }
      ],
      "name": "getRFI",
      "outputs": [
        {
          "components": [
            {
              "components": [
                {
                  "name": "origin",
                  "type": "address"
                },
                {
                  "name": "tree",
                  "type": "string"
                },
                {
                  "name": "message",
                  "type": "string"
                },
                {
                  "name": "metadata",
                  "type": "string"
                },
                {
                  "components": [
                    {
                      "name": "api",
                      "type": "address"
                    },
                    {
                      "name": "hash",
                      "type": "bytes32"
                    }
                  ],
                  "name": "parents",
                  "type": "tuple[]"
                }
              ],
              "name": "individuation",
              "type": "tuple"
            },
            {
              "name": "blockstamp",
              "type": "uint256"
            },
            {
              "name": "state",
              "type": "uint8"
            },
            {
              "name": "RFLids",
              "type": "uint256[]"
            }
          ],
          "name": "",
          "type": "tuple"
        }
      ],
      "payable": false,
      "stateMutability": "view",
      "type": "function"
    },
    {
      "constant": true,
      "inputs": [
        {
          "name": "_RFLid",
          "type": "uint256"
        }
      ],
      "name": "getRFL",
      "outputs": [
        {
          "components": [
            {
              "components": [
                {
                  "name": "destination",
                  "type": "address"
                },
                {
                  "name": "minimum",
                  "type": "uint256"
                },
                {
                  "name": "metadata",
                  "type": "string"
                }
              ],
              "name": "lineage",
              "type": "tuple"
            },
            {
              "name": "blockstamp",
              "type": "uint256"
            },
            {
              "name": "value",
              "type": "uint256"
            },
            {
              "name": "state",
              "type": "uint8"
            },
            {
              "name": "RFIid",
              "type": "uint256"
            }
          ],
          "name": "",
          "type": "tuple"
        }
      ],
      "payable": false,
      "stateMutability": "view",
      "type": "function"
    },
    {
      "constant": true,
      "inputs": [],
      "name": "head",
      "outputs": [
        {
          "name": "",
          "type": "bytes32"
        }
      ],
      "payable": false,
      "stateMutability": "view",
      "type": "function"
    },
    {
      "constant": true,
      "inputs": [],
      "name": "getHead",
      "outputs": [
        {
          "components": [
            {
              "name": "origin",
              "type": "address"
            },
            {
              "name": "blockstamp",
              "type": "uint256"
            },
            {
              "name": "tree",
              "type": "string"
            },
            {
              "name": "message",
              "type": "string"
            },
            {
              "name": "metadata",
              "type": "string"
            },
            {
              "components": [
                {
                  "name": "api",
                  "type": "address"
                },
                {
                  "name": "hash",
                  "type": "bytes32"
                }
              ],
              "name": "parents",
              "type": "tuple[]"
            }
          ],
          "name": "",
          "type": "tuple"
        }
      ],
      "payable": false,
      "stateMutability": "view",
      "type": "function"
    },
    {
      "constant": true,
      "inputs": [
        {
          "components": [
            {
              "name": "origin",
              "type": "address"
            },
            {
              "name": "blockstamp",
              "type": "uint256"
            },
            {
              "name": "tree",
              "type": "string"
            },
            {
              "name": "message",
              "type": "string"
            },
            {
              "name": "metadata",
              "type": "string"
            },
            {
              "components": [
                {
                  "name": "api",
                  "type": "address"
                },
                {
                  "name": "hash",
                  "type": "bytes32"
                }
              ],
              "name": "parents",
              "type": "tuple[]"
            }
          ],
          "name": "_individuation",
          "type": "tuple"
        }
      ],
      "name": "getIndividuationHash",
      "outputs": [
        {
          "name": "",
          "type": "bytes32"
        }
      ],
      "payable": false,
      "stateMutability": "pure",
      "type": "function"
    }
  ],
  "bytecode": "0x608060405260006004556000600555620000276200002d640100000000026401000000009004565b62000165565b60006200004862000091640100000000026401000000009004565b1415156200005557600080fd5b6200008f7fffffffffffffffffffffffffffffffffffffffffffffffffffffffffffffffff620000de640100000000026401000000009004565b565b6000620000d97febb05b386a8d34882b8711d156f463690983dc47815980fb82aeeff1aa43579e60010260001916620001536401000000000262003459176401000000009004565b905090565b6000620000f962000091640100000000026401000000009004565b1415156200010657600080fd5b62000150817febb05b386a8d34882b8711d156f463690983dc47815980fb82aeeff1aa43579e600102600019166200015e640100000000026200383c179091906401000000009004565b50565b600081549050919050565b8082555050565b615bb980620001756000396000f30060806040526004361061021a576000357c0100000000000000000000000000000000000000000000000000000000900463ffffffff1680630803fac01461021f578063082367801461024a578063103a90c8146102755780631113ed0d146102a0578063143700be146102cb578063178e6079146102f65780632adab4ea146103215780632d2e80121461034c5780633181f6b21461037757806332f0a3b5146103b457806333ff6870146103df5780634752915d1461041c578063485cc955146104595780635bddb4201461048257806360b1e057146104c15780636d5f5ca7146104ec5780636e0b314c14610515578063748b052c1461053e578063756f6049146105675780637e7db6e11461059257806380201af2146105cf57806380afdea8146105fa5780638322fff214610625578063889bd35d146106505780638b3dd7491461068d5780638f7dcfa3146106b857806397569bb1146106e35780639bdc706d1461070e5780639d4941d81461074b578063a1658fad14610774578063a7f0b3de146107b1578063b462e70b146107dc578063c3eefd1e14610807578063c538f7de14610844578063c74656e714610885578063cbcc65eb146108b0578063d4aae0c4146108db578063db8a61d414610906578063dc281aff14610931578063ddf6fa9c1461095c578063de4796ed14610985578063f92a79ff146109b0578063fd47d203146109ed578063fec7d70b14610a2a575b600080fd5b34801561022b57600080fd5b50610234610a67565b60405161024191906154ab565b60405180910390f35b34801561025657600080fd5b5061025f610a92565b60405161026c91906154c6565b60405180910390f35b34801561028157600080fd5b5061028a610acb565b60405161029791906157f9565b60405180910390f35b3480156102ac57600080fd5b506102b5610ad1565b6040516102c291906154c6565b60405180910390f35b3480156102d757600080fd5b506102e0610af8565b6040516102ed919061541b565b60405180910390f35b34801561030257600080fd5b5061030b610bbd565b60405161031891906154c6565b60405180910390f35b34801561032d57600080fd5b50610336610be4565b60405161034391906154c6565b60405180910390f35b34801561035857600080fd5b50610361610c1d565b60405161036e91906154c6565b60405180910390f35b34801561038357600080fd5b5061039e6004803603610399919081019061478c565b610c56565b6040516103ab91906157f9565b60405180910390f35b3480156103c057600080fd5b506103c9610cfa565b6040516103d6919061541b565b60405180910390f35b3480156103eb57600080fd5b506104066004803603610401919081019061487a565b610de6565b60405161041391906154ab565b60405180910390f35b34801561042857600080fd5b50610443600480360361043e91908101906148cc565b611039565b60405161045091906154ab565b60405180910390f35b34801561046557600080fd5b50610480600480360361047b9190810190614750565b6112b7565b005b34801561048e57600080fd5b506104a960048036036104a4919081019061487a565b61135a565b6040516104b893929190615673565b60405180910390f35b3480156104cd57600080fd5b506104d661169f565b6040516104e391906154c6565b60405180910390f35b3480156104f857600080fd5b50610513600480360361050e91908101906148cc565b6116c6565b005b34801561052157600080fd5b5061053c6004803603610537919081019061487a565b6117af565b005b34801561054a57600080fd5b506105656004803603610560919081019061487a565b611895565b005b34801561057357600080fd5b5061057c61197b565b60405161058991906154c6565b60405180910390f35b34801561059e57600080fd5b506105b960048036036105b491908101906145b2565b6119a2565b6040516105c691906154ab565b60405180910390f35b3480156105db57600080fd5b506105e46119ad565b6040516105f191906157f9565b60405180910390f35b34801561060657600080fd5b5061060f6119b3565b60405161061c91906154c6565b60405180910390f35b34801561063157600080fd5b5061063a6119ea565b604051610647919061541b565b60405180910390f35b34801561065c57600080fd5b506106776004803603610672919081019061487a565b6119ef565b60405161068491906157b5565b60405180910390f35b34801561069957600080fd5b506106a2611bc8565b6040516106af91906157f9565b60405180910390f35b3480156106c457600080fd5b506106cd611bff565b6040516106da91906154c6565b60405180910390f35b3480156106ef57600080fd5b506106f8611cc3565b60405161070591906154c6565b60405180910390f35b34801561071a57600080fd5b506107356004803603610730919081019061487a565b611cfc565b60405161074291906154ab565b60405180910390f35b34801561075757600080fd5b50610772600480360361076d91908101906145b2565b612194565b005b34801561078057600080fd5b5061079b60048036036107969190810190614604565b6123ba565b6040516107a891906154ab565b60405180910390f35b3480156107bd57600080fd5b506107c66124f2565b6040516107d39190615562565b60405180910390f35b3480156107e857600080fd5b506107f1612517565b6040516107fe91906154c6565b60405180910390f35b34801561081357600080fd5b5061082e6004803603610829919081019061487a565b612550565b60405161083b91906154ab565b60405180910390f35b34801561085057600080fd5b5061086b6004803603610866919081019061487a565b612650565b60405161087c9594939291906156d3565b60405180910390f35b34801561089157600080fd5b5061089a6127a0565b6040516108a7919061557d565b60405180910390f35b3480156108bc57600080fd5b506108c56127c6565b6040516108d291906154c6565b60405180910390f35b3480156108e757600080fd5b506108f06127ed565b6040516108fd9190615547565b60405180910390f35b34801561091257600080fd5b5061091b612824565b60405161092891906154c6565b60405180910390f35b34801561093d57600080fd5b5061094661284b565b604051610953919061572d565b60405180910390f35b34801561096857600080fd5b50610983600480360361097e919081019061487a565b61291a565b005b34801561099157600080fd5b5061099a612a00565b6040516109a791906154ab565b60405180910390f35b3480156109bc57600080fd5b506109d760048036036109d291908101906146bd565b612a31565b6040516109e4919061552c565b60405180910390f35b3480156109f957600080fd5b50610a146004803603610a0f91908101906147f8565b612ae8565b604051610a2191906154c6565b60405180910390f35b348015610a3657600080fd5b50610a516004803603610a4c919081019061487a565b612b96565b604051610a5e9190615771565b60405180910390f35b600080610a72611bc8565b905060008114158015610a8c575080610a89612fb4565b10155b91505090565b60405180807f52454a4543545f52464c5f524f4c450000000000000000000000000000000000815250600f019050604051809103902081565b60055481565b7f3b4bf6bf3ad5000ecf0f989d5befde585c6860fea3e574a4fab4c49d1c177d9c60010281565b6000600160009054906101000a900473ffffffffffffffffffffffffffffffffffffffff1673ffffffffffffffffffffffffffffffffffffffff1663fc0c546a6040518163ffffffff167c0100000000000000000000000000000000000000000000000000000000028152600401602060405180830381600087803b158015610b8057600080fd5b505af1158015610b94573d6000803e3d6000fd5b505050506040513d601f19601f82011682018060405250610bb89190810190614727565b905090565b7fd6f028ca0e8edb4a8c9757ca4fdccab25fa1e0317da1188108f7d2dee14902fb60010281565b60405180807f4352454154455f5246495f524f4c450000000000000000000000000000000000815250600f019050604051809103902081565b60405180807f4d455247455f5246495f524f4c45000000000000000000000000000000000000815250600e019050604051809103902081565b6000610c60610a67565b1515610c6b57600080fd5b60405180807f4352454154455f5246495f524f4c450000000000000000000000000000000000815250600f0190506040518091039020610cdc33826000604051908082528060200260200182016040528015610cd65781602001602082028038833980820191505090505b506123ba565b1515610ce757600080fd5b610cf18484612fbc565b91505092915050565b60008073ffffffffffffffffffffffffffffffffffffffff16610d1b6127ed565b73ffffffffffffffffffffffffffffffffffffffff1614151515610d3e57600080fd5b610d466127ed565b73ffffffffffffffffffffffffffffffffffffffff166332f0a3b56040518163ffffffff167c0100000000000000000000000000000000000000000000000000000000028152600401602060405180830381600087803b158015610da957600080fd5b505af1158015610dbd573d6000803e3d6000fd5b505050506040513d601f19601f82011682018060405250610de191908101906145db565b905090565b6000600554821115610dfb5760009050611034565b6003600083815260200190815260200160002060a0604051908101604052908160008201606060405190810160405290816000820160009054906101000a900473ffffffffffffffffffffffffffffffffffffffff1673ffffffffffffffffffffffffffffffffffffffff1673ffffffffffffffffffffffffffffffffffffffff16815260200160018201548152602001600282018054600181600116156101000203166002900480601f016020809104026020016040519081016040528092919081815260200182805460018160011615610100020316600290048015610f245780601f10610ef957610100808354040283529160200191610f24565b820191906000526020600020905b815481529060010190602001808311610f0757829003601f168201915b505050505081525050815260200160038201548152602001600482015481526020016005820160009054906101000a900460ff166004811115610f6357fe5b6004811115610f6e57fe5b815260200160068201548152505073__Pando_________________________________63c4dafbbf90916040518263ffffffff167c0100000000000000000000000000000000000000000000000000000000028152600401610fd091906157d7565b60206040518083038186803b158015610fe857600080fd5b505af4158015610ffc573d6000803e3d6000fd5b505050506040513d601f19601f82011682018060405250611020919081019061466b565b151561102f5760009050611034565b600190505b919050565b600060055483111561104e57600090506112b1565b6003600084815260200190815260200160002060a0604051908101604052908160008201606060405190810160405290816000820160009054906101000a900473ffffffffffffffffffffffffffffffffffffffff1673ffffffffffffffffffffffffffffffffffffffff1673ffffffffffffffffffffffffffffffffffffffff16815260200160018201548152602001600282018054600181600116156101000203166002900480601f0160208091040260200160405190810160405280929190818152602001828054600181600116156101000203166002900480156111775780601f1061114c57610100808354040283529160200191611177565b820191906000526020600020905b81548152906001019060200180831161115a57829003601f168201915b505050505081525050815260200160038201548152602001600482015481526020016005820160009054906101000a900460ff1660048111156111b657fe5b60048111156111c157fe5b815260200160068201548152505073__Pando_________________________________63c4dafbbf90916040518263ffffffff167c010000000000000000000000000000000000000000000000000000000002815260040161122391906157d7565b60206040518083038186803b15801561123b57600080fd5b505af415801561124f573d6000803e3d6000fd5b505050506040513d601f19601f82011682018060405250611273919081019061466b565b151561128257600090506112b1565b60036000848152602001908152602001600020600001600101548210156112ac57600090506112b1565b600190505b92915050565b60006112c1611bc8565b1415156112cd57600080fd5b6112d5613242565b816000806101000a81548173ffffffffffffffffffffffffffffffffffffffff021916908373ffffffffffffffffffffffffffffffffffffffff16021790555080600160006101000a81548173ffffffffffffffffffffffffffffffffffffffff021916908373ffffffffffffffffffffffffffffffffffffffff1602179055505050565b60026020528060005260406000206000915090508060000160a060405190810160405290816000820160009054906101000a900473ffffffffffffffffffffffffffffffffffffffff1673ffffffffffffffffffffffffffffffffffffffff1673ffffffffffffffffffffffffffffffffffffffff168152602001600182018054600181600116156101000203166002900480601f01602080910402602001604051908101604052809291908181526020018280546001816001161561010002031660029004801561146d5780601f106114425761010080835404028352916020019161146d565b820191906000526020600020905b81548152906001019060200180831161145057829003601f168201915b50505050508152602001600282018054600181600116156101000203166002900480601f01602080910402602001604051908101604052809291908181526020018280546001816001161561010002031660029004801561150f5780601f106114e45761010080835404028352916020019161150f565b820191906000526020600020905b8154815290600101906020018083116114f257829003601f168201915b50505050508152602001600382018054600181600116156101000203166002900480601f0160208091040260200160405190810160405280929190818152602001828054600181600116156101000203166002900480156115b15780601f10611586576101008083540402835291602001916115b1565b820191906000526020600020905b81548152906001019060200180831161159457829003601f168201915b5050505050815260200160048201805480602002602001604051908101604052809291908181526020016000905b8282101561167957838290600052602060002090600202016040805190810160405290816000820160009054906101000a900473ffffffffffffffffffffffffffffffffffffffff1673ffffffffffffffffffffffffffffffffffffffff1673ffffffffffffffffffffffffffffffffffffffff1681526020016001820154600019166000191681525050815260200190600101906115df565b5050505081525050908060050154908060060160009054906101000a900460ff16905083565b7fddbcfd564f642ab5627cf68b9b7d374fb4f8a36e941a75d89c87998cef03bd6160010281565b6116ce610a67565b15156116d957600080fd5b60405180807f4143434550545f52464c5f524f4c450000000000000000000000000000000000815250600f019050604051809103902061174a338260006040519080825280602002602001820160405280156117445781602001602082028038833980820191505090505b506123ba565b151561175557600080fd5b61175f8383611039565b15156117a0576040517f08c379a0000000000000000000000000000000000000000000000000000000008152600401611797906155b3565b60405180910390fd5b6117aa838361329b565b505050565b6117b7610a67565b15156117c257600080fd5b60405180807f52454a4543545f52464c5f524f4c450000000000000000000000000000000000815250600f01905060405180910390206118333382600060405190808252806020026020018201604052801561182d5781602001602082028038833980820191505090505b506123ba565b151561183e57600080fd5b61184782610de6565b1515611888576040517f08c379a000000000000000000000000000000000000000000000000000000000815260040161187f906155d3565b60405180910390fd5b6118918261331e565b5050565b61189d610a67565b15156118a857600080fd5b60405180807f52454a4543545f5246495f524f4c450000000000000000000000000000000000815250600f0190506040518091039020611919338260006040519080825280602002602001820160405280156119135781602001602082028038833980820191505090505b506123ba565b151561192457600080fd5b61192d82611cfc565b151561196e576040517f08c379a000000000000000000000000000000000000000000000000000000000815260040161196590615633565b60405180910390fd5b61197782613399565b5050565b7fc681a85306374a5ab27f0bbc385296a54bcd314a1948b6cf61c4ea1bc44bb9f860010281565b600060019050919050565b60045481565b60006119e57fd625496217aa6a3453eecb9c3489dc5a53e6c67b444329ea2b2cbc9ff547639b6001026000191661344e565b905090565b600081565b6119f7613b47565b816005548111151515611a3f576040517f08c379a0000000000000000000000000000000000000000000000000000000008152600401611a36906155f3565b60405180910390fd5b6003600084815260200190815260200160002060a0604051908101604052908160008201606060405190810160405290816000820160009054906101000a900473ffffffffffffffffffffffffffffffffffffffff1673ffffffffffffffffffffffffffffffffffffffff1673ffffffffffffffffffffffffffffffffffffffff16815260200160018201548152602001600282018054600181600116156101000203166002900480601f016020809104026020016040519081016040528092919081815260200182805460018160011615610100020316600290048015611b685780601f10611b3d57610100808354040283529160200191611b68565b820191906000526020600020905b815481529060010190602001808311611b4b57829003601f168201915b505050505081525050815260200160038201548152602001600482015481526020016005820160009054906101000a900460ff166004811115611ba757fe5b6004811115611bb257fe5b8152602001600682015481525050915050919050565b6000611bfa7febb05b386a8d34882b8711d156f463690983dc47815980fb82aeeff1aa43579e60010260001916613459565b905090565b60008060009054906101000a900473ffffffffffffffffffffffffffffffffffffffff1673ffffffffffffffffffffffffffffffffffffffff16638f7dcfa36040518163ffffffff167c0100000000000000000000000000000000000000000000000000000000028152600401602060405180830381600087803b158015611c8657600080fd5b505af1158015611c9a573d6000803e3d6000fd5b505050506040513d601f19601f82011682018060405250611cbe9190810190614694565b905090565b60405180807f52454a4543545f5246495f524f4c450000000000000000000000000000000000815250600f019050604051809103902081565b6000600454821115611d11576000905061218f565b60026000838152602001908152602001600020608060405190810160405290816000820160a060405190810160405290816000820160009054906101000a900473ffffffffffffffffffffffffffffffffffffffff1673ffffffffffffffffffffffffffffffffffffffff1673ffffffffffffffffffffffffffffffffffffffff168152602001600182018054600181600116156101000203166002900480601f016020809104026020016040519081016040528092919081815260200182805460018160011615610100020316600290048015611e305780601f10611e0557610100808354040283529160200191611e30565b820191906000526020600020905b815481529060010190602001808311611e1357829003601f168201915b50505050508152602001600282018054600181600116156101000203166002900480601f016020809104026020016040519081016040528092919081815260200182805460018160011615610100020316600290048015611ed25780601f10611ea757610100808354040283529160200191611ed2565b820191906000526020600020905b815481529060010190602001808311611eb557829003601f168201915b50505050508152602001600382018054600181600116156101000203166002900480601f016020809104026020016040519081016040528092919081815260200182805460018160011615610100020316600290048015611f745780601f10611f4957610100808354040283529160200191611f74565b820191906000526020600020905b815481529060010190602001808311611f5757829003601f168201915b5050505050815260200160048201805480602002602001604051908101604052809291908181526020016000905b8282101561203c57838290600052602060002090600202016040805190810160405290816000820160009054906101000a900473ffffffffffffffffffffffffffffffffffffffff1673ffffffffffffffffffffffffffffffffffffffff1673ffffffffffffffffffffffffffffffffffffffff168152602001600182015460001916600019168152505081526020019060010190611fa2565b50505050815250508152602001600582015481526020016006820160009054906101000a900460ff16600381111561207057fe5b600381111561207b57fe5b8152602001600782018054806020026020016040519081016040528092919081815260200182805480156120ce57602002820191906000526020600020905b8154815260200190600101908083116120ba575b50505050508152505073__Pando_________________________________638630d62f90916040518263ffffffff167c010000000000000000000000000000000000000000000000000000000002815260040161212b9190615793565b60206040518083038186803b15801561214357600080fd5b505af4158015612157573d6000803e3d6000fd5b505050506040513d601f19601f8201168201806040525061217b919081019061466b565b151561218a576000905061218f565b600190505b919050565b6000806121a0836119a2565b15156121ab57600080fd5b6121b3610cfa565b91506121be82613464565b15156121c957600080fd5b600073ffffffffffffffffffffffffffffffffffffffff168373ffffffffffffffffffffffffffffffffffffffff161415612261578173ffffffffffffffffffffffffffffffffffffffff166108fc3073ffffffffffffffffffffffffffffffffffffffff16319081150290604051600060405180830381858888f1935050505015801561225b573d6000803e3d6000fd5b506123b5565b8273ffffffffffffffffffffffffffffffffffffffff166370a08231306040518263ffffffff167c01000000000000000000000000000000000000000000000000000000000281526004016122b69190615598565b602060405180830381600087803b1580156122d057600080fd5b505af11580156122e4573d6000803e3d6000fd5b505050506040513d601f19601f8201168201806040525061230891908101906148a3565b90508273ffffffffffffffffffffffffffffffffffffffff1663a9059cbb83836040518363ffffffff167c0100000000000000000000000000000000000000000000000000000000028152600401612361929190615482565b602060405180830381600087803b15801561237b57600080fd5b505af115801561238f573d6000803e3d6000fd5b505050506040513d601f19601f820116820180604052506123b3919081019061466b565b505b505050565b600080606060006123c9610a67565b15156123d857600093506124e8565b6123e06127ed565b9250600073ffffffffffffffffffffffffffffffffffffffff168373ffffffffffffffffffffffffffffffffffffffff16141561242057600093506124e8565b60008551111561243857602085510290508491508082525b8273ffffffffffffffffffffffffffffffffffffffff1663fdef9106883089866040518563ffffffff167c01000000000000000000000000000000000000000000000000000000000281526004016124939493929190615436565b602060405180830381600087803b1580156124ad57600080fd5b505af11580156124c1573d6000803e3d6000fd5b505050506040513d601f19601f820116820180604052506124e5919081019061466b565b93505b5050509392505050565b6000809054906101000a900473ffffffffffffffffffffffffffffffffffffffff1681565b60405180807f4143434550545f52464c5f524f4c450000000000000000000000000000000000815250600f019050604051809103902081565b6000806000806004548511156125695760009350612648565b6002600086815260200190815260200160002092506000600381111561258b57fe5b8360060160009054906101000a900460ff1660038111156125a857fe5b1415156125b85760009350612648565b600091505b8260070180549050821015612643576003600084600701848154811015156125e157fe5b9060005260206000200154815260200190815260200160002090506001600481111561260957fe5b8160050160009054906101000a900460ff16600481111561262657fe5b1415156126365760009350612648565b81806001019250506125bd565b600193505b505050919050565b600360205280600052604060002060009150905080600001606060405190810160405290816000820160009054906101000a900473ffffffffffffffffffffffffffffffffffffffff1673ffffffffffffffffffffffffffffffffffffffff1673ffffffffffffffffffffffffffffffffffffffff16815260200160018201548152602001600282018054600181600116156101000203166002900480601f01602080910402602001604051908101604052809291908181526020018280546001816001161561010002031660029004801561276d5780601f106127425761010080835404028352916020019161276d565b820191906000526020600020905b81548152906001019060200180831161275057829003601f168201915b505050505081525050908060030154908060040154908060050160009054906101000a900460ff16908060060154905085565b600160009054906101000a900473ffffffffffffffffffffffffffffffffffffffff1681565b7fe3262375f45a6e2026b7e7b18c2b807434f2508fe1a2a3dfb493c7df8f4aad6a60010281565b600061281f7f4172f0f7d2289153072b0a6ca36959e0cbe2efc3afe50fc81636caa96338137b600102600019166134b6565b905090565b7ff1f3eb40f5bc1ad1344716ced8b8a0431d840b5783aea1fd01786bc26f35ac0f60010281565b612853613b88565b6000809054906101000a900473ffffffffffffffffffffffffffffffffffffffff1673ffffffffffffffffffffffffffffffffffffffff1663dc281aff6040518163ffffffff167c0100000000000000000000000000000000000000000000000000000000028152600401600060405180830381600087803b1580156128d857600080fd5b505af11580156128ec573d6000803e3d6000fd5b505050506040513d6000823e3d601f19601f820116820180604052506129159190810190614839565b905090565b612922610a67565b151561292d57600080fd5b60405180807f4d455247455f5246495f524f4c45000000000000000000000000000000000000815250600e019050604051809103902061299e338260006040519080825280602002602001820160405280156129985781602001602082028038833980820191505090505b506123ba565b15156129a957600080fd5b6129b282612550565b15156129f3576040517f08c379a00000000000000000000000000000000000000000000000000000000081526004016129ea90615613565b60405180910390fd5b6129fc826134c1565b5050565b60007fffffffffffffffffffffffffffffffffffffffffffffffffffffffffffffffff612a2b611bc8565b14905090565b6000612a3b613621565b73ffffffffffffffffffffffffffffffffffffffff166304bf2a7f836040518263ffffffff167c0100000000000000000000000000000000000000000000000000000000028152600401612a8f919061550a565b602060405180830381600087803b158015612aa957600080fd5b505af1158015612abd573d6000803e3d6000fd5b505050506040513d601f19601f82011682018060405250612ae191908101906146fe565b9050919050565b60008173__Pando_________________________________63b1c2d68d90916040518263ffffffff167c0100000000000000000000000000000000000000000000000000000000028152600401612b3f919061574f565b60206040518083038186803b158015612b5757600080fd5b505af4158015612b6b573d6000803e3d6000fd5b505050506040513d601f19601f82011682018060405250612b8f9190810190614694565b9050919050565b612b9e613bd5565b816004548111151515612be6576040517f08c379a0000000000000000000000000000000000000000000000000000000008152600401612bdd90615653565b60405180910390fd5b60026000848152602001908152602001600020608060405190810160405290816000820160a060405190810160405290816000820160009054906101000a900473ffffffffffffffffffffffffffffffffffffffff1673ffffffffffffffffffffffffffffffffffffffff1673ffffffffffffffffffffffffffffffffffffffff168152602001600182018054600181600116156101000203166002900480601f016020809104026020016040519081016040528092919081815260200182805460018160011615610100020316600290048015612d055780601f10612cda57610100808354040283529160200191612d05565b820191906000526020600020905b815481529060010190602001808311612ce857829003601f168201915b50505050508152602001600282018054600181600116156101000203166002900480601f016020809104026020016040519081016040528092919081815260200182805460018160011615610100020316600290048015612da75780601f10612d7c57610100808354040283529160200191612da7565b820191906000526020600020905b815481529060010190602001808311612d8a57829003601f168201915b50505050508152602001600382018054600181600116156101000203166002900480601f016020809104026020016040519081016040528092919081815260200182805460018160011615610100020316600290048015612e495780601f10612e1e57610100808354040283529160200191612e49565b820191906000526020600020905b815481529060010190602001808311612e2c57829003601f168201915b5050505050815260200160048201805480602002602001604051908101604052809291908181526020016000905b82821015612f1157838290600052602060002090600202016040805190810160405290816000820160009054906101000a900473ffffffffffffffffffffffffffffffffffffffff1673ffffffffffffffffffffffffffffffffffffffff1673ffffffffffffffffffffffffffffffffffffffff168152602001600182015460001916600019168152505081526020019060010190612e77565b50505050815250508152602001600582015481526020016006820160009054906101000a900460ff166003811115612f4557fe5b6003811115612f5057fe5b815260200160078201805480602002602001604051908101604052809291908181526020018280548015612fa357602002820191906000526020600020905b815481526020019060010190808311612f8f575b505050505081525050915050919050565b600043905090565b600080600080600080600160045401600481905550600454955060026000878152602001908152602001600020945087600001518560000160000160006101000a81548173ffffffffffffffffffffffffffffffffffffffff021916908373ffffffffffffffffffffffffffffffffffffffff1602179055508760200151856000016001019080519060200190613054929190613c10565b508760400151856000016002019080519060200190613074929190613c10565b508760600151856000016003019080519060200190613094929190613c10565b5043856005018190555060008560060160006101000a81548160ff021916908360038111156130bf57fe5b021790555087608001515185600001600401816130dc9190613c90565b50600093505b8760800151518410156131945787608001518481518110151561310157fe5b90602001906020020151856000016004018581548110151561311f57fe5b906000526020600020906002020160008201518160000160006101000a81548173ffffffffffffffffffffffffffffffffffffffff021916908373ffffffffffffffffffffffffffffffffffffffff1602179055506020820151816001019060001916905590505083806001019450506130e2565b600092505b865183101561320a576131c387848151811015156131b357fe5b9060200190602002015187613723565b91508460070180548091906001016131db9190613cc2565b90508185600701828154811015156131ef57fe5b90600052602060002001819055508280600101935050613199565b857f35f2129c6d5c40f8bfc21ff096fc803eed03c578d74fabcf718966bce5e43a2460405160405180910390a2505050505092915050565b600061324c611bc8565b14151561325857600080fd5b613299613263612fb4565b7febb05b386a8d34882b8711d156f463690983dc47815980fb82aeeff1aa43579e6001026000191661383c90919063ffffffff16565b565b600060036000848152602001908152602001600020905060018160050160006101000a81548160ff021916908360048111156132d357fe5b0217905550818160040181905550827fe798dd1723e7dfead0c42290d937f51c95c8f80f616ab3c5d515dd62333d0c698360405161331191906157f9565b60405180910390a2505050565b600060036000838152602001908152602001600020905060038160050160006101000a81548160ff0219169083600481111561335657fe5b02179055506133688160060154613843565b817feffb45481cc046f2f78b484c7ef03097fc7cd3f8cf92a6f150a6264c96c3e72c60405160405180910390a25050565b60008060026000848152602001908152602001600020915060028260060160006101000a81548160ff021916908360038111156133d257fe5b0217905550600090505b816007018054905081101561341c5761340f82600701828154811015156133ff57fe5b906000526020600020015461395d565b80806001019150506133dc565b827f572671bf73ebac1f3878b683b28d9a3864df03396326fbaa18f19c834a54b13a60405160405180910390a2505050565b600081549050919050565b600081549050919050565b600080600073ffffffffffffffffffffffffffffffffffffffff168373ffffffffffffffffffffffffffffffffffffffff1614156134a557600091506134b0565b823b90506000811191505b50919050565b600081549050919050565b60008060026000848152602001908152602001600020915060018260060160006101000a81548160ff021916908360038111156134fa57fe5b02179055506000809054906101000a900473ffffffffffffffffffffffffffffffffffffffff1673ffffffffffffffffffffffffffffffffffffffff1663a0a66f7c836000016040518263ffffffff167c010000000000000000000000000000000000000000000000000000000002815260040161357891906156b1565b600060405180830381600087803b15801561359257600080fd5b505af11580156135a6573d6000803e3d6000fd5b50505050600090505b81600701805490508110156135ef576135e282600701828154811015156135d257fe5b90600052602060002001546139cb565b80806001019150506135af565b827f2ade3f30658e8481c8027d9227280e030ebbea37526a8e9e29887165e919e2ed60405160405180910390a2505050565b60008061362c6127ed565b73ffffffffffffffffffffffffffffffffffffffff1663be00bbd87fd6f028ca0e8edb4a8c9757ca4fdccab25fa1e0317da1188108f7d2dee14902fb6001027fddbcfd564f642ab5627cf68b9b7d374fb4f8a36e941a75d89c87998cef03bd616001026040518363ffffffff167c01000000000000000000000000000000000000000000000000000000000281526004016136c89291906154e1565b602060405180830381600087803b1580156136e257600080fd5b505af11580156136f6573d6000803e3d6000fd5b505050506040513d601f19601f8201168201806040525061371a91908101906145db565b90508091505090565b600080600160055401600581905550600554915060036000838152602001908152602001600020905083600001518160000160000160006101000a81548173ffffffffffffffffffffffffffffffffffffffff021916908373ffffffffffffffffffffffffffffffffffffffff1602179055508360200151816000016001018190555083604001518160000160020190805190602001906137c5929190613c10565b504381600301819055506000816004018190555060008160050160006101000a81548160ff021916908360048111156137fa57fe5b0217905550828160060181905550817fb696b79e6fa6e3e43f047d6702fce861e48c2267eeb009745f44a84b2c1dac4a60405160405180910390a25092915050565b8082555050565b600080600060026000858152602001908152602001600020925060038360060160006101000a81548160ff0219169083600381111561387e57fe5b0217905550600091505b826007018054905082101561392a576003600084600701848154811015156138ac57fe5b906000526020600020015481526020019081526020016000209050600360048111156138d457fe5b8160050160009054906101000a900460ff1660048111156138f157fe5b14151561391d5761391c836007018381548110151561390c57fe5b906000526020600020015461395d565b5b8180600101925050613888565b837f17c608dd7335e9c727c3e10aea0adfba0b0e6cc35c4935c1de31e3b10711da7560405160405180910390a250505050565b600060036000838152602001908152602001600020905060048160050160006101000a81548160ff0219169083600481111561399557fe5b0217905550817f7b78710b9fa400a202f9262b7daad859bf5663f0d88d45073184584fe6a166e060405160405180910390a25050565b600060036000838152602001908152602001600020905060028160050160006101000a81548160ff02191690836004811115613a0357fe5b0217905550600160009054906101000a900473ffffffffffffffffffffffffffffffffffffffff1673ffffffffffffffffffffffffffffffffffffffff166340c10f198260000160000160009054906101000a900473ffffffffffffffffffffffffffffffffffffffff1683600401546040518363ffffffff167c0100000000000000000000000000000000000000000000000000000000028152600401613aac929190615482565b600060405180830381600087803b158015613ac657600080fd5b505af1158015613ada573d6000803e3d6000fd5b50505050817fb74d3ab32949c67c027c76911841ff5e997d1276e5244bba79e532fa6ce91f838260000160000160009054906101000a900473ffffffffffffffffffffffffffffffffffffffff168360040154604051613b3b929190615482565b60405180910390a25050565b60e060405190810160405280613b5b613cee565b8152602001600081526020016000815260200160006004811115613b7b57fe5b8152602001600081525090565b60c060405190810160405280600073ffffffffffffffffffffffffffffffffffffffff16815260200160008152602001606081526020016060815260200160608152602001606081525090565b61010060405190810160405280613bea613d26565b81526020016000815260200160006003811115613c0357fe5b8152602001606081525090565b828054600181600116156101000203166002900490600052602060002090601f016020900481019282601f10613c5157805160ff1916838001178555613c7f565b82800160010185558215613c7f579182015b82811115613c7e578251825591602001919060010190613c63565b5b509050613c8c9190613d6c565b5090565b815481835581811115613cbd57600202816002028360005260206000209182019101613cbc9190613d91565b5b505050565b815481835581811115613ce957818360005260206000209182019101613ce89190613d6c565b5b505050565b606060405190810160405280600073ffffffffffffffffffffffffffffffffffffffff16815260200160008152602001606081525090565b60a060405190810160405280600073ffffffffffffffffffffffffffffffffffffffff168152602001606081526020016060815260200160608152602001606081525090565b613d8e91905b80821115613d8a576000816000905550600101613d72565b5090565b90565b613ddc91905b80821115613dd857600080820160006101000a81549073ffffffffffffffffffffffffffffffffffffffff0219169055600182016000905550600201613d97565b5090565b90565b6000613deb8235615a19565b905092915050565b6000613dff8251615a19565b905092915050565b600082601f8301121515613e1a57600080fd5b8135613e2d613e2882615841565b615814565b91508181835260208401935060208101905083856040840282011115613e5257600080fd5b60005b83811015613e825781613e68888261419a565b845260208401935060408301925050600181019050613e55565b5050505092915050565b600082601f8301121515613e9f57600080fd5b8151613eb2613ead82615841565b615814565b91508181835260208401935060208101905083856040840282011115613ed757600080fd5b60005b83811015613f075781613eed88826141e6565b845260208401935060408301925050600181019050613eda565b5050505092915050565b600082601f8301121515613f2457600080fd5b8135613f37613f3282615869565b615814565b9150818183526020840193506020810190508360005b83811015613f7d5781358601613f63888261431a565b845260208401935060208301925050600181019050613f4d565b5050505092915050565b600082601f8301121515613f9a57600080fd5b8135613fad613fa882615891565b615814565b91508181835260208401935060208101905083856020840282011115613fd257600080fd5b60005b838110156140025781613fe8888261458a565b845260208401935060208301925050600181019050613fd5565b5050505092915050565b60006140188251615a39565b905092915050565b600061402c8235615a45565b905092915050565b60006140408251615a45565b905092915050565b600082601f830112151561405b57600080fd5b813561406e614069826158b9565b615814565b9150808252602083016020830185838301111561408a57600080fd5b614095838284615b1f565b50505092915050565b60006140aa8251615a4f565b905092915050565b60006140be8251615a61565b905092915050565b60006140d28235615a73565b905092915050565b60006140e68235615a85565b905092915050565b600082601f830112151561410157600080fd5b813561411461410f826158e5565b615814565b9150808252602083016020830185838301111561413057600080fd5b61413b838284615b1f565b50505092915050565b600082601f830112151561415757600080fd5b815161416a614165826158e5565b615814565b9150808252602083016020830185838301111561418657600080fd5b614191838284615b2e565b50505092915050565b6000604082840312156141ac57600080fd5b6141b66040615814565b905060006141c684828501613ddf565b60008301525060206141da84828501614020565b60208301525092915050565b6000604082840312156141f857600080fd5b6142026040615814565b9050600061421284828501613df3565b600083015250602061422684828501614034565b60208301525092915050565b600060a0828403121561424457600080fd5b61424e60a0615814565b9050600061425e84828501613ddf565b600083015250602082013567ffffffffffffffff81111561427e57600080fd5b61428a848285016140ee565b602083015250604082013567ffffffffffffffff8111156142aa57600080fd5b6142b6848285016140ee565b604083015250606082013567ffffffffffffffff8111156142d657600080fd5b6142e2848285016140ee565b606083015250608082013567ffffffffffffffff81111561430257600080fd5b61430e84828501613e07565b60808301525092915050565b60006060828403121561432c57600080fd5b6143366060615814565b9050600061434684828501613ddf565b600083015250602061435a8482850161458a565b602083015250604082013567ffffffffffffffff81111561437a57600080fd5b614386848285016140ee565b60408301525092915050565b600060c082840312156143a457600080fd5b6143ae60c0615814565b905060006143be84828501613ddf565b60008301525060206143d28482850161458a565b602083015250604082013567ffffffffffffffff8111156143f257600080fd5b6143fe848285016140ee565b604083015250606082013567ffffffffffffffff81111561441e57600080fd5b61442a848285016140ee565b606083015250608082013567ffffffffffffffff81111561444a57600080fd5b614456848285016140ee565b60808301525060a082013567ffffffffffffffff81111561447657600080fd5b61448284828501613e07565b60a08301525092915050565b600060c082840312156144a057600080fd5b6144aa60c0615814565b905060006144ba84828501613df3565b60008301525060206144ce8482850161459e565b602083015250604082015167ffffffffffffffff8111156144ee57600080fd5b6144fa84828501614144565b604083015250606082015167ffffffffffffffff81111561451a57600080fd5b61452684828501614144565b606083015250608082015167ffffffffffffffff81111561454657600080fd5b61455284828501614144565b60808301525060a082015167ffffffffffffffff81111561457257600080fd5b61457e84828501613e8c565b60a08301525092915050565b60006145968235615a97565b905092915050565b60006145aa8251615a97565b905092915050565b6000602082840312156145c457600080fd5b60006145d284828501613ddf565b91505092915050565b6000602082840312156145ed57600080fd5b60006145fb84828501613df3565b91505092915050565b60008060006060848603121561461957600080fd5b600061462786828701613ddf565b935050602061463886828701614020565b925050604084013567ffffffffffffffff81111561465557600080fd5b61466186828701613f87565b9150509250925092565b60006020828403121561467d57600080fd5b600061468b8482850161400c565b91505092915050565b6000602082840312156146a657600080fd5b60006146b484828501614034565b91505092915050565b6000602082840312156146cf57600080fd5b600082013567ffffffffffffffff8111156146e957600080fd5b6146f584828501614048565b91505092915050565b60006020828403121561471057600080fd5b600061471e8482850161409e565b91505092915050565b60006020828403121561473957600080fd5b6000614747848285016140b2565b91505092915050565b6000806040838503121561476357600080fd5b6000614771858286016140c6565b9250506020614782858286016140da565b9150509250929050565b6000806040838503121561479f57600080fd5b600083013567ffffffffffffffff8111156147b957600080fd5b6147c585828601614232565b925050602083013567ffffffffffffffff8111156147e257600080fd5b6147ee85828601613f11565b9150509250929050565b60006020828403121561480a57600080fd5b600082013567ffffffffffffffff81111561482457600080fd5b61483084828501614392565b91505092915050565b60006020828403121561484b57600080fd5b600082015167ffffffffffffffff81111561486557600080fd5b6148718482850161448e565b91505092915050565b60006020828403121561488c57600080fd5b600061489a8482850161458a565b91505092915050565b6000602082840312156148b557600080fd5b60006148c38482850161459e565b91505092915050565b600080604083850312156148df57600080fd5b60006148ed8582860161458a565b92505060206148fe8582860161458a565b9150509250929050565b614911816159ad565b82525050565b614920816159ad565b82525050565b60006149318261594f565b80845260208401935061494383615911565b60005b8281101561497557614959868351614e12565b61496282615986565b9150604086019550600181019050614946565b50849250505092915050565b600061498c8261594f565b80845260208401935061499e83615911565b60005b828110156149d0576149b4868351614e41565b6149bd82615986565b91506040860195506001810190506149a1565b50849250505092915050565b60006149e78261595a565b8084526020840193506149f98361591e565b60005b82811015614a2a57614a0e8683614e70565b614a1782615993565b91506040860195506001810190506149fc565b50849250505092915050565b6000614a4182615965565b808452602084019350614a5383615930565b60005b82811015614a8557614a698683516153fd565b614a72826159a0565b9150602086019550600181019050614a56565b50849250505092915050565b6000614a9c82615965565b808452602084019350614aae83615930565b60005b82811015614ae057614ac486835161540c565b614acd826159a0565b9150602086019550600181019050614ab1565b50849250505092915050565b614af5816159cd565b82525050565b614b04816159d9565b82525050565b614b13816159d9565b82525050565b6000614b2482615970565b808452614b38816020860160208601615b2e565b614b4181615b61565b602085010191505092915050565b614b5881615aa1565b82525050565b614b6781615ab3565b82525050565b614b7681615ac5565b82525050565b614b8581615ad7565b82525050565b614b9481615ae9565b82525050565b614ba381615afb565b82525050565b614bb281615afb565b82525050565b614bc181615b0d565b82525050565b614bd081615b0d565b82525050565b6000614be18261597b565b808452614bf5816020860160208601615b2e565b614bfe81615b61565b602085010191505092915050565b6000614c178261597b565b808452614c2b816020860160208601615b2e565b614c3481615b61565b602085010191505092915050565b600081546001811660008114614c5f5760018114614c7f57614cc0565b607f600283041680865260ff198316602087015260408601935050614cc0565b60028204808652602086019550614c958561593d565b60005b82811015614cb757815481890152600182019150602081019050614c98565b80880195505050505b505092915050565b6000601182527f63616e6e6f74206163636570742052464c0000000000000000000000000000006020830152604082019050919050565b6000601182527f63616e6e6f742072656a6563742052464c0000000000000000000000000000006020830152604082019050919050565b6000601282527f52464c20646f6573206e6f7420657869737400000000000000000000000000006020830152604082019050919050565b6000601082527f63616e6e6f74206d6572676520524649000000000000000000000000000000006020830152604082019050919050565b6000601182527f63616e6e6f742072656a656374205246490000000000000000000000000000006020830152604082019050919050565b6000601282527f52464920646f6573206e6f7420657869737400000000000000000000000000006020830152604082019050919050565b604082016000820151614e286000850182614908565b506020820151614e3b6020850182614afb565b50505050565b604082016000820151614e576000850182614917565b506020820151614e6a6020850182614b0a565b50505050565b604082016000808301549050614e8581615b72565b614e926000860182614908565b5060018301549050614ea381615b72565b614eb06020860182614afb565b5050505050565b600060a083016000830151614ecf6000860182614908565b5060208301518482036020860152614ee78282614bd6565b91505060408301518482036040860152614f018282614bd6565b91505060608301518482036060860152614f1b8282614bd6565b91505060808301518482036080860152614f358282614926565b9150508091505092915050565b600060a083016000830151614f5a6000860182614917565b5060208301518482036020860152614f728282614c0c565b91505060408301518482036040860152614f8c8282614c0c565b91505060608301518482036060860152614fa68282614c0c565b91505060808301518482036080860152614fc08282614981565b9150508091505092915050565b600060a083016000808401549050614fe481615b72565b614ff16000870182614908565b506001840185830360208701526150088382614c42565b9250506002840185830360408701526150218382614c42565b92505060038401858303606087015261503a8382614c42565b92505060048401858303608087015261505383826149dc565b925050819250505092915050565b60006060830160008301516150796000860182614908565b50602083015161508c60208601826153fd565b50604083015184820360408601526150a48282614bd6565b9150508091505092915050565b60006060830160008301516150c96000860182614917565b5060208301516150dc602086018261540c565b50604083015184820360408601526150f48282614c0c565b9150508091505092915050565b600060c0830160008301516151196000860182614908565b50602083015161512c60208601826153fd565b50604083015184820360408601526151448282614bd6565b9150506060830151848203606086015261515e8282614bd6565b915050608083015184820360808601526151788282614bd6565b91505060a083015184820360a08601526151928282614926565b9150508091505092915050565b600060c0830160008301516151b76000860182614917565b5060208301516151ca602086018261540c565b50604083015184820360408601526151e28282614c0c565b915050606083015184820360608601526151fc8282614c0c565b915050608083015184820360808601526152168282614c0c565b91505060a083015184820360a08601526152308282614981565b9150508091505092915050565b6000608083016000830151848203600086015261525a8282614eb7565b915050602083015161526f60208601826153fd565b5060408301516152826040860182614b9a565b506060830151848203606086015261529a8282614a36565b9150508091505092915050565b600060808301600083015184820360008601526152c48282614f42565b91505060208301516152d9602086018261540c565b5060408301516152ec6040860182614ba9565b50606083015184820360608601526153048282614a91565b9150508091505092915050565b600060a083016000830151848203600086015261532e8282615061565b915050602083015161534360208601826153fd565b50604083015161535660408601826153fd565b5060608301516153696060860182614bb8565b50608083015161537c60808601826153fd565b508091505092915050565b600060a08301600083015184820360008601526153a482826150b1565b91505060208301516153b9602086018261540c565b5060408301516153cc604086018261540c565b5060608301516153df6060860182614bc7565b5060808301516153f2608086018261540c565b508091505092915050565b61540681615a0f565b82525050565b61541581615a0f565b82525050565b60006020820190506154306000830184614908565b92915050565b600060808201905061544b6000830187614908565b6154586020830186614908565b6154656040830185614afb565b81810360608301526154778184614b19565b905095945050505050565b60006040820190506154976000830185614908565b6154a460208301846153fd565b9392505050565b60006020820190506154c06000830184614aec565b92915050565b60006020820190506154db6000830184614afb565b92915050565b60006040820190506154f66000830185614afb565b6155036020830184614afb565b9392505050565b600060208201905081810360008301526155248184614b19565b905092915050565b60006020820190506155416000830184614b4f565b92915050565b600060208201905061555c6000830184614b5e565b92915050565b60006020820190506155776000830184614b6d565b92915050565b60006020820190506155926000830184614b7c565b92915050565b60006020820190506155ad6000830184614b8b565b92915050565b600060208201905081810360008301526155cc81614cc8565b9050919050565b600060208201905081810360008301526155ec81614cff565b9050919050565b6000602082019050818103600083015261560c81614d36565b9050919050565b6000602082019050818103600083015261562c81614d6d565b9050919050565b6000602082019050818103600083015261564c81614da4565b9050919050565b6000602082019050818103600083015261566c81614ddb565b9050919050565b6000606082019050818103600083015261568d8186614eb7565b905061569c60208301856153fd565b6156a96040830184614b9a565b949350505050565b600060208201905081810360008301526156cb8184614fcd565b905092915050565b600060a08201905081810360008301526156ed8188615061565b90506156fc60208301876153fd565b61570960408301866153fd565b6157166060830185614bb8565b61572360808301846153fd565b9695505050505050565b600060208201905081810360008301526157478184615101565b905092915050565b60006020820190508181036000830152615769818461519f565b905092915050565b6000602082019050818103600083015261578b818461523d565b905092915050565b600060208201905081810360008301526157ad81846152a7565b905092915050565b600060208201905081810360008301526157cf8184615311565b905092915050565b600060208201905081810360008301526157f18184615387565b905092915050565b600060208201905061580e60008301846153fd565b92915050565b6000604051905081810181811067ffffffffffffffff8211171561583757600080fd5b8060405250919050565b600067ffffffffffffffff82111561585857600080fd5b602082029050602081019050919050565b600067ffffffffffffffff82111561588057600080fd5b602082029050602081019050919050565b600067ffffffffffffffff8211156158a857600080fd5b602082029050602081019050919050565b600067ffffffffffffffff8211156158d057600080fd5b601f19601f8301169050602081019050919050565b600067ffffffffffffffff8211156158fc57600080fd5b601f19601f8301169050602081019050919050565b6000602082019050919050565b60008160005260206000209050919050565b6000602082019050919050565b60008160005260206000209050919050565b600081519050919050565b600081549050919050565b600081519050919050565b600081519050919050565b600081519050919050565b6000602082019050919050565b6000600182019050919050565b6000602082019050919050565b600073ffffffffffffffffffffffffffffffffffffffff82169050919050565b60008115159050919050565b6000819050919050565b60006004821015156159f157fe5b819050919050565b6000600582101515615a0757fe5b819050919050565b6000819050919050565b600073ffffffffffffffffffffffffffffffffffffffff82169050919050565b60008115159050919050565b6000819050919050565b6000615a5a826159ad565b9050919050565b6000615a6c826159ad565b9050919050565b6000615a7e826159ad565b9050919050565b6000615a90826159ad565b9050919050565b6000819050919050565b6000615aac826159ad565b9050919050565b6000615abe826159ad565b9050919050565b6000615ad0826159ad565b9050919050565b6000615ae2826159ad565b9050919050565b6000615af4826159ad565b9050919050565b6000615b06826159e3565b9050919050565b6000615b18826159f9565b9050919050565b82818337600083830152505050565b60005b83811015615b4c578082015181840152602081019050615b31565b83811115615b5b576000848401525b50505050565b6000601f19601f8301169050919050565b60006001820490509190505600a265627a7a7230582047d8eb95ce7ced892e3c5c7071f3a39f1c1bbc778f63dfa2a7fc42a6c35f54016c6578706572696d656e74616cf50037",
  "source": "pragma solidity ^0.4.24;\npragma experimental ABIEncoderV2;\n\nimport \"@aragon/os/contracts/apps/AragonApp.sol\";\nimport \"../lib/Pando.sol\";\nimport \"./PandoGenesis.sol\";\nimport \"./PandoLineage.sol\";\n\n\ncontract PandoAPI is AragonApp {\n    using Pando for Pando.Individuation;\n    using Pando for Pando.RFI;\n    using Pando for Pando.RFL;\n\n    bytes32 constant public CREATE_RFI_ROLE = keccak256(\"CREATE_RFI_ROLE\");\n    bytes32 constant public MERGE_RFI_ROLE  = keccak256(\"MERGE_RFI_ROLE\");\n    bytes32 constant public REJECT_RFI_ROLE = keccak256(\"REJECT_RFI_ROLE\");\n    bytes32 constant public ACCEPT_RFL_ROLE = keccak256(\"ACCEPT_RFL_ROLE\");\n    bytes32 constant public REJECT_RFL_ROLE = keccak256(\"REJECT_RFL_ROLE\");\n\n    PandoGenesis public genesis;\n    PandoLineage public lineage;\n\n    // Use a mapping instead of an array to ease app upgrade\n    // See https://github.com/aragon/aragon-apps/pull/428\n    // See https://youtu.be/sJ7VECqHFAg?t=9m27s\n    mapping (uint256 => Pando.RFI) public RFIs;\n    mapping (uint256 => Pando.RFL) public RFLs;\n\n    uint256 public RFIsLength = 0;\n    uint256 public RFLsLength = 0;\n\n    event CreateRFI(uint256 indexed id);\n    event MergeRFI(uint256 indexed id);\n    event RejectRFI(uint256 indexed id);\n    event CancelRFI(uint256 indexed id);\n\n    event CreateRFL(uint256 indexed id);\n    event AcceptRFL(uint256 indexed id, uint256 value);\n    event RejectRFL(uint256 indexed id);\n    event CancelRFL(uint256 indexed id);\n    event IssueRFL(uint256 indexed id, address destination, uint256 value);\n\n    modifier RFIExists(uint256 _RFIid) {\n        require(_RFIid <= RFIsLength, \"RFI does not exist\");\n        _;\n    }\n\n    modifier RFLExists(uint256 _RFLid) {\n        require(_RFLid <= RFLsLength, \"RFL does not exist\");\n        _;\n    }\n\n    /*--------------------*/\n\n    function initialize(PandoGenesis _genesis, PandoLineage _lineage) external onlyInit {\n        initialized();\n        genesis = _genesis;\n        lineage = _lineage;\n    }\n\n    function createRFI(Pando.IIndividuation _individuation, Pando.ILineage[] _lineages)\n        public\n        isInitialized\n        auth(CREATE_RFI_ROLE)\n        returns (uint256 RFIid)\n    {\n        RFIid = _createRFI(_individuation, _lineages);\n    }\n\n    function mergeRFI(uint256 _RFIid) public isInitialized auth(MERGE_RFI_ROLE) {\n        require(canMergeRFI(_RFIid), \"cannot merge RFI\");\n        _mergeRFI(_RFIid);\n    }\n\n    function rejectRFI(uint256 _RFIid) public isInitialized auth(REJECT_RFI_ROLE) {\n        require(canRejectRFI(_RFIid), \"cannot reject RFI\");\n        _rejectRFI(_RFIid);\n    }\n\n    function acceptRFL(uint256 _RFLid, uint256 _value) public isInitialized auth(ACCEPT_RFL_ROLE) {\n        require(canAcceptRFL(_RFLid, _value), \"cannot accept RFL\");\n        _acceptRFL(_RFLid, _value);\n    }\n\n    function rejectRFL(uint256 _RFLid) public isInitialized auth(REJECT_RFL_ROLE) {\n        require(canRejectRFL(_RFLid), \"cannot reject RFL\");\n        _rejectRFL(_RFLid);\n    }\n\n    /*--------------------*/\n\n    function canMergeRFI(uint256 _RFIid) public view returns (bool) {\n        if (_RFIid > RFIsLength)\n            return false;\n        Pando.RFI storage RFI = RFIs[_RFIid];\n        if (RFI.state != Pando.RFIState.Pending)\n            return false;\n        for (uint256 i = 0; i < RFI.RFLids.length; i++) {\n            Pando.RFL storage RFL = RFLs[RFI.RFLids[i]];\n            if (RFL.state != Pando.RFLState.Accepted)\n                return false;\n        }\n        return true;\n    }\n\n    function canRejectRFI(uint _RFIid) public view returns (bool) {\n        if (_RFIid > RFIsLength)\n            return false;\n        if (!RFIs[_RFIid].isPending())\n            return false;\n        return true;\n    }\n\n    function canAcceptRFL(uint256 _RFLid, uint256 _value) public view returns (bool) {\n        if (_RFLid > RFLsLength)\n            return false;\n        if (!RFLs[_RFLid].isPending())\n            return false;\n        if (_value < RFLs[_RFLid].lineage.minimum)\n            return false;\n        return true;\n    }\n\n    function canRejectRFL(uint _RFLid) public view returns (bool) {\n        if (_RFLid > RFLsLength)\n            return false;\n        if (!RFLs[_RFLid].isPending())\n            return false;\n        return true;\n    }\n\n    /*--------------------*/\n\n    function getLineageToken() public view returns (address) {\n        return address(lineage.token());\n    }\n\n    function getRFI(uint256 _RFIid) public view RFIExists(_RFIid) returns (Pando.RFI) {\n        return RFIs[_RFIid];\n    }\n\n    function getRFL(uint256 _RFLid) public view RFLExists(_RFLid) returns (Pando.RFL) {\n        return RFLs[_RFLid];\n    }\n\n    function head() public view returns (bytes32) {\n        return genesis.head();\n    }\n\n    function getHead() public view returns (Pando.Individuation) {\n        return genesis.getHead();\n    }\n\n    function getIndividuationHash(Pando.Individuation _individuation) public pure returns (bytes32) {\n        return _individuation.hash();\n    }\n\n    /*--------------------*/\n\n    function _createRFI(Pando.IIndividuation _individuation, Pando.ILineage[] _lineages) internal returns (uint256 RFIid) {\n        // msg.sender is gonna be the address of a governance kit built on top of the API\n        // Do you we wanna make sure that the transaction is actually initialized by _individuation.origin ?\n        // If this is the case then we're gonna need to ask for a proof of identity through a ECDSA signature\n        // See https://github.com/OpenZeppelin/openzeppelin-solidity/blob/master/contracts/cryptography/ECDSA.sol\n\n        RFIsLength = RFIsLength + 1;\n        RFIid = RFIsLength;\n\n        Pando.RFI storage RFI = RFIs[RFIid];\n\n        RFI.individuation.origin = _individuation.origin;\n        RFI.individuation.tree = _individuation.tree;\n        RFI.individuation.message = _individuation.message;\n        RFI.individuation.metadata = _individuation.metadata;\n        RFI.blockstamp = block.number;\n        RFI.state = Pando.RFIState.Pending;\n\n        // solc 4.0.24 cannot directly convert dynamic struct array from memory to storage\n        RFI.individuation.parents.length = _individuation.parents.length;\n        for (uint256 i = 0; i < _individuation.parents.length; i++) {\n            RFI.individuation.parents[i] = _individuation.parents[i];\n        }\n\n        for (uint256 j = 0; j < _lineages.length; j++) {\n            uint256 RFLid = _createRFL(_lineages[j], RFIid);\n            uint256 index = RFI.RFLids.length++;\n            RFI.RFLids[index] = RFLid;\n        }\n\n        emit CreateRFI(RFIid);\n    }\n\n    function _mergeRFI(uint256 _RFIid) internal {\n        Pando.RFI storage RFI = RFIs[_RFIid];\n\n        RFI.state = Pando.RFIState.Merged;\n\n        genesis.individuate(RFI.individuation);\n\n        for (uint256 i = 0; i < RFI.RFLids.length; i++) {\n            _issueRFL(RFI.RFLids[i]);\n        }\n\n        emit MergeRFI(_RFIid);\n    }\n\n    function _rejectRFI(uint256 _RFIid) internal {\n        Pando.RFI storage RFI = RFIs[_RFIid];\n\n        RFI.state = Pando.RFIState.Rejected;\n\n        for (uint256 j = 0; j < RFI.RFLids.length; j++) {\n            _cancelRFL(RFI.RFLids[j]);\n        }\n\n        emit RejectRFI(_RFIid);\n    }\n\n    function _cancelRFI(uint256 _RFIid) internal {\n        Pando.RFI storage RFI = RFIs[_RFIid];\n\n        RFI.state = Pando.RFIState.Cancelled;\n\n        for (uint256 i = 0; i < RFI.RFLids.length; i++) {\n            Pando.RFL storage RFL = RFLs[RFI.RFLids[i]];\n\n            if (RFL.state != Pando.RFLState.Rejected)\n                _cancelRFL(RFI.RFLids[i]);\n        }\n\n        emit CancelRFI(_RFIid);\n    }\n\n    function _createRFL(Pando.ILineage _lineage, uint256 _RFIid) internal returns (uint256 RFLid) {\n        RFLsLength = RFLsLength + 1;\n        RFLid = RFLsLength;\n\n        Pando.RFL storage RFL = RFLs[RFLid];\n\n        RFL.lineage.destination = _lineage.destination;\n        RFL.lineage.minimum = _lineage.minimum;\n        RFL.lineage.metadata = _lineage.metadata;\n        RFL.blockstamp = block.number;\n        RFL.value = 0;\n        RFL.state = Pando.RFLState.Pending;\n        RFL.RFIid = _RFIid;\n\n        emit CreateRFL(RFLid);\n    }\n\n    function _acceptRFL(uint256 _RFLid, uint256 _value) internal {\n        Pando.RFL storage RFL = RFLs[_RFLid];\n\n        RFL.state = Pando.RFLState.Accepted;\n        RFL.value = _value;\n\n        emit AcceptRFL(_RFLid, _value);\n    }\n\n    function _rejectRFL(uint256 _RFLid) internal {\n        Pando.RFL storage RFL = RFLs[_RFLid];\n\n        RFL.state = Pando.RFLState.Rejected;\n\n        _cancelRFI(RFL.RFIid);\n\n        emit RejectRFL(_RFLid);\n    }\n\n    function _cancelRFL(uint256 _RFLid) internal {\n        Pando.RFL storage RFL = RFLs[_RFLid];\n\n        RFL.state = Pando.RFLState.Cancelled;\n\n        emit CancelRFL(_RFLid);\n    }\n\n    function _issueRFL(uint256 _RFLid) internal {\n        Pando.RFL storage RFL = RFLs[_RFLid];\n\n        RFL.state = Pando.RFLState.Issued;\n\n        lineage.mint(RFL.lineage.destination, RFL.value);\n\n        emit IssueRFL(_RFLid, RFL.lineage.destination, RFL.value);\n    }\n}\n",
  "sourcePath": "/Users/osarrouy/Documents/dapp/@pando/packages/core/contracts/core/PandoAPI.sol",
  "compiler": {
    "name": "solc",
    "version": "0.4.24+commit.e67f0147.Emscripten.clang"
  },
  "schemaVersion": "3.0.0-beta.1",
  "updatedAt": "2018-11-24T11:23:13.918Z"
}