{
  "contractName": "PandoHistory",
  "abi": [
    {
      "constant": true,
      "inputs": [],
      "name": "getRecoveryVault",
      "outputs": [
        {
          "name": "",
          "type": "address"
        }
      ],
      "payable": false,
      "stateMutability": "view",
      "type": "function"
    },
    {
      "constant": true,
      "inputs": [],
      "name": "COMMIT_ROLE",
      "outputs": [
        {
          "name": "",
          "type": "bytes32"
        }
      ],
      "payable": false,
      "stateMutability": "view",
      "type": "function"
    },
    {
      "constant": true,
      "inputs": [],
      "name": "EVMSCRIPT_REGISTRY_APP_ID",
      "outputs": [
        {
          "name": "",
          "type": "bytes32"
        }
      ],
      "payable": false,
      "stateMutability": "view",
      "type": "function"
    },
    {
      "constant": true,
      "inputs": [
        {
          "name": "token",
          "type": "address"
        }
      ],
      "name": "allowRecoverability",
      "outputs": [
        {
          "name": "",
          "type": "bool"
        }
      ],
      "payable": false,
      "stateMutability": "view",
      "type": "function"
    },
    {
      "constant": true,
      "inputs": [],
      "name": "appId",
      "outputs": [
        {
          "name": "",
          "type": "bytes32"
        }
      ],
      "payable": false,
      "stateMutability": "view",
      "type": "function"
    },
    {
      "constant": true,
      "inputs": [],
      "name": "ETH",
      "outputs": [
        {
          "name": "",
          "type": "address"
        }
      ],
      "payable": false,
      "stateMutability": "view",
      "type": "function"
    },
    {
      "constant": true,
      "inputs": [],
      "name": "getInitializationBlock",
      "outputs": [
        {
          "name": "",
          "type": "uint256"
        }
      ],
      "payable": false,
      "stateMutability": "view",
      "type": "function"
    },
    {
      "constant": true,
      "inputs": [],
      "name": "head",
      "outputs": [
        {
          "name": "",
          "type": "bytes32"
        }
      ],
      "payable": false,
      "stateMutability": "view",
      "type": "function"
    },
    {
      "constant": true,
      "inputs": [],
      "name": "EVMSCRIPT_REGISTRY_APP",
      "outputs": [
        {
          "name": "",
          "type": "bytes32"
        }
      ],
      "payable": false,
      "stateMutability": "view",
      "type": "function"
    },
    {
      "constant": false,
      "inputs": [
        {
          "name": "_token",
          "type": "address"
        }
      ],
      "name": "transferToVault",
      "outputs": [],
      "payable": false,
      "stateMutability": "nonpayable",
      "type": "function"
    },
    {
      "constant": true,
      "inputs": [
        {
          "name": "_sender",
          "type": "address"
        },
        {
          "name": "_role",
          "type": "bytes32"
        },
        {
          "name": "_params",
          "type": "uint256[]"
        }
      ],
      "name": "canPerform",
      "outputs": [
        {
          "name": "",
          "type": "bool"
        }
      ],
      "payable": false,
      "stateMutability": "view",
      "type": "function"
    },
    {
      "constant": true,
      "inputs": [],
      "name": "kernel",
      "outputs": [
        {
          "name": "",
          "type": "address"
        }
      ],
      "payable": false,
      "stateMutability": "view",
      "type": "function"
    },
    {
      "constant": true,
      "inputs": [
        {
          "name": "",
          "type": "bytes32"
        }
      ],
      "name": "individuations",
      "outputs": [
        {
          "name": "origin",
          "type": "address"
        },
        {
          "name": "blockstamp",
          "type": "uint256"
        },
        {
          "name": "tree",
          "type": "string"
        },
        {
          "name": "message",
          "type": "string"
        },
        {
          "name": "metadata",
          "type": "string"
        }
      ],
      "payable": false,
      "stateMutability": "view",
      "type": "function"
    },
    {
      "constant": true,
      "inputs": [
        {
          "name": "_script",
          "type": "bytes"
        }
      ],
      "name": "getExecutor",
      "outputs": [
        {
          "name": "",
          "type": "address"
        }
      ],
      "payable": false,
      "stateMutability": "view",
      "type": "function"
    },
    {
      "anonymous": false,
      "inputs": [
        {
          "indexed": false,
          "name": "hash",
          "type": "bytes32"
        }
      ],
      "name": "Commit",
      "type": "event"
    },
    {
      "anonymous": false,
      "inputs": [
        {
          "indexed": true,
          "name": "executor",
          "type": "address"
        },
        {
          "indexed": false,
          "name": "script",
          "type": "bytes"
        },
        {
          "indexed": false,
          "name": "input",
          "type": "bytes"
        },
        {
          "indexed": false,
          "name": "returnData",
          "type": "bytes"
        }
      ],
      "name": "ScriptResult",
      "type": "event"
    },
    {
      "constant": false,
      "inputs": [],
      "name": "initialize",
      "outputs": [],
      "payable": false,
      "stateMutability": "nonpayable",
      "type": "function"
    },
    {
      "constant": false,
      "inputs": [
        {
          "components": [
            {
              "name": "origin",
              "type": "address"
            },
            {
              "name": "tree",
              "type": "string"
            },
            {
              "name": "message",
              "type": "string"
            },
            {
              "name": "metadata",
              "type": "string"
            },
            {
              "components": [
                {
                  "name": "api",
                  "type": "address"
                },
                {
                  "name": "hash",
                  "type": "bytes32"
                }
              ],
              "name": "parents",
              "type": "tuple[]"
            }
          ],
          "name": "_individuation",
          "type": "tuple"
        }
      ],
      "name": "individuation",
      "outputs": [],
      "payable": false,
      "stateMutability": "nonpayable",
      "type": "function"
    }
  ],
  "bytecode": "0x608060405234801561001057600080fd5b50611f1f806100206000396000f3006080604052600436106100e6576000357c0100000000000000000000000000000000000000000000000000000000900463ffffffff16806332f0a3b5146100eb5780633d2e732814610116578063441e7d581461013f57806360b1e0571461016a5780637e7db6e11461019557806380afdea8146101d25780638129fc1c146101fd5780638322fff2146102145780638b3dd7491461023f5780638f7dcfa31461026a5780639b3fdf4c146102955780639d4941d8146102c0578063a1658fad146102e9578063d4aae0c414610326578063f131fb9914610351578063f92a79ff14610392575b600080fd5b3480156100f757600080fd5b506101006103cf565b60405161010d9190611adc565b60405180910390f35b34801561012257600080fd5b5061013d60048036036101389190810190611812565b6104d9565b005b34801561014b57600080fd5b506101546108e6565b6040516101619190611bef565b60405180910390f35b34801561017657600080fd5b5061017f61091f565b60405161018c9190611bef565b60405180910390f35b3480156101a157600080fd5b506101bc60048036036101b79190810190611674565b610946565b6040516101c99190611bd4565b60405180910390f35b3480156101de57600080fd5b506101e7610951565b6040516101f49190611bef565b60405180910390f35b34801561020957600080fd5b50610212610957565b005b34801561022057600080fd5b50610229610972565b6040516102369190611adc565b60405180910390f35b34801561024b57600080fd5b50610254610977565b6040516102619190611c9f565b60405180910390f35b34801561027657600080fd5b5061027f610981565b60405161028c9190611bef565b60405180910390f35b3480156102a157600080fd5b506102aa610987565b6040516102b79190611bef565b60405180910390f35b3480156102cc57600080fd5b506102e760048036036102e29190810190611674565b6109ae565b005b3480156102f557600080fd5b50610310600480360361030b91908101906116c6565b610bd4565b60405161031d9190611bd4565b60405180910390f35b34801561033257600080fd5b5061033b610d0c565b6040516103489190611c47565b60405180910390f35b34801561035d57600080fd5b5061037860048036036103739190810190611756565b610d31565b604051610389959493929190611b6c565b60405180910390f35b34801561039e57600080fd5b506103b960048036036103b491908101906117a8565b610f4f565b6040516103c69190611c2c565b60405180910390f35b6000806000809054906101000a900473ffffffffffffffffffffffffffffffffffffffff1673ffffffffffffffffffffffffffffffffffffffff161415151561041757600080fd5b6000809054906101000a900473ffffffffffffffffffffffffffffffffffffffff1673ffffffffffffffffffffffffffffffffffffffff166332f0a3b56040518163ffffffff167c0100000000000000000000000000000000000000000000000000000000028152600401602060405180830381600087803b15801561049c57600080fd5b505af11580156104b0573d6000803e3d6000fd5b505050506040513d601f19601f820116820180604052506104d4919081019061169d565b905090565b6104e1611178565b60008060006003541115156104f557600080fd5b60405180807f434f4d4d49545f524f4c45000000000000000000000000000000000000000000815250600b0190506040518091039020610566338260006040519080825280602002602001820160405280156105605781602001602082028038833980820191505090505b50610bd4565b151561057157600080fd5b60c060405190810160405280866000015173ffffffffffffffffffffffffffffffffffffffff168152602001438152602001866020015181526020018660400151815260200186606001518152602001866080015181525093508373__Pando_________________________________63b1c2d68d90916040518263ffffffff167c01000000000000000000000000000000000000000000000000000000000281526004016106209190611c7d565b60206040518083038186803b15801561063857600080fd5b505af415801561064c573d6000803e3d6000fd5b505050506040513d601f19601f82011682018060405250610670919081019061177f565b9250836000015160656000856000191660001916815260200190815260200160002060000160006101000a81548173ffffffffffffffffffffffffffffffffffffffff021916908373ffffffffffffffffffffffffffffffffffffffff160217905550836020015160656000856000191660001916815260200190815260200160002060010181905550836040015160656000856000191660001916815260200190815260200160002060020190805190602001906107309291906111c5565b50836060015160656000856000191660001916815260200190815260200160002060030190805190602001906107679291906111c5565b508360800151606560008560001916600019168152602001908152602001600020600401908051906020019061079e9291906111c5565b508360a0015151606560008560001916600019168152602001908152602001600020600501816107ce9190611245565b50600091505b8360a001515182101561089d578360a00151828151811015156107f357fe5b906020019060200201516065600085600019166000191681526020019081526020016000206005018381548110151561082857fe5b906000526020600020906002020160008201518160000160006101000a81548173ffffffffffffffffffffffffffffffffffffffff021916908373ffffffffffffffffffffffffffffffffffffffff1602179055506020820151816001019060001916905590505081806001019250506107d4565b82606481600019169055507f9e8a51bb6b34b9d5d18c14fd753ee3bf44e2256512665a4577281ffcc91943ff836040516108d79190611bef565b60405180910390a15050505050565b60405180807f434f4d4d49545f524f4c45000000000000000000000000000000000000000000815250600b019050604051809103902081565b7fddbcfd564f642ab5627cf68b9b7d374fb4f8a36e941a75d89c87998cef03bd6160010281565b600060019050919050565b60015481565b600060035414151561096857600080fd5b610970611006565b565b600081565b6000600354905090565b60645481565b7f34f01c17e9be6ddbf2c61f37b5b1fb9f1a090a975006581ad19bda1c4d38287160010281565b6000806109ba83610946565b15156109c557600080fd5b6109cd6103cf565b91506109d882611027565b15156109e357600080fd5b600073ffffffffffffffffffffffffffffffffffffffff168373ffffffffffffffffffffffffffffffffffffffff161415610a7b578173ffffffffffffffffffffffffffffffffffffffff166108fc3073ffffffffffffffffffffffffffffffffffffffff16319081150290604051600060405180830381858888f19350505050158015610a75573d6000803e3d6000fd5b50610bcf565b8273ffffffffffffffffffffffffffffffffffffffff166370a08231306040518263ffffffff167c0100000000000000000000000000000000000000000000000000000000028152600401610ad09190611c62565b602060405180830381600087803b158015610aea57600080fd5b505af1158015610afe573d6000803e3d6000fd5b505050506040513d601f19601f82011682018060405250610b229190810190611853565b90508273ffffffffffffffffffffffffffffffffffffffff1663a9059cbb83836040518363ffffffff167c0100000000000000000000000000000000000000000000000000000000028152600401610b7b929190611b43565b602060405180830381600087803b158015610b9557600080fd5b505af1158015610ba9573d6000803e3d6000fd5b505050506040513d601f19601f82011682018060405250610bcd919081019061172d565b505b505050565b6000606060008084511115610bf157602084510290508391508082525b60008060009054906101000a900473ffffffffffffffffffffffffffffffffffffffff1673ffffffffffffffffffffffffffffffffffffffff161480610d0157506000809054906101000a900473ffffffffffffffffffffffffffffffffffffffff1673ffffffffffffffffffffffffffffffffffffffff1663fdef9106873088866040518563ffffffff167c0100000000000000000000000000000000000000000000000000000000028152600401610cae9493929190611af7565b602060405180830381600087803b158015610cc857600080fd5b505af1158015610cdc573d6000803e3d6000fd5b505050506040513d601f19601f82011682018060405250610d00919081019061172d565b5b925050509392505050565b6000809054906101000a900473ffffffffffffffffffffffffffffffffffffffff1681565b60656020528060005260406000206000915090508060000160009054906101000a900473ffffffffffffffffffffffffffffffffffffffff1690806001015490806002018054600181600116156101000203166002900480601f016020809104026020016040519081016040528092919081815260200182805460018160011615610100020316600290048015610e095780601f10610dde57610100808354040283529160200191610e09565b820191906000526020600020905b815481529060010190602001808311610dec57829003601f168201915b505050505090806003018054600181600116156101000203166002900480601f016020809104026020016040519081016040528092919081815260200182805460018160011615610100020316600290048015610ea75780601f10610e7c57610100808354040283529160200191610ea7565b820191906000526020600020905b815481529060010190602001808311610e8a57829003601f168201915b505050505090806004018054600181600116156101000203166002900480601f016020809104026020016040519081016040528092919081815260200182805460018160011615610100020316600290048015610f455780601f10610f1a57610100808354040283529160200191610f45565b820191906000526020600020905b815481529060010190602001808311610f2857829003601f168201915b5050505050905085565b6000610f59611079565b73ffffffffffffffffffffffffffffffffffffffff166304bf2a7f836040518263ffffffff167c0100000000000000000000000000000000000000000000000000000000028152600401610fad9190611c0a565b602060405180830381600087803b158015610fc757600080fd5b505af1158015610fdb573d6000803e3d6000fd5b505050506040513d601f19601f82011682018060405250610fff91908101906117e9565b9050919050565b600060035414151561101757600080fd5b61101f611170565b600381905550565b600080600073ffffffffffffffffffffffffffffffffffffffff168373ffffffffffffffffffffffffffffffffffffffff1614156110685760009150611073565b823b90506000811191505b50919050565b6000806000809054906101000a900473ffffffffffffffffffffffffffffffffffffffff1673ffffffffffffffffffffffffffffffffffffffff166342c71f1d7f34f01c17e9be6ddbf2c61f37b5b1fb9f1a090a975006581ad19bda1c4d3828716001026040518263ffffffff167c01000000000000000000000000000000000000000000000000000000000281526004016111159190611bef565b602060405180830381600087803b15801561112f57600080fd5b505af1158015611143573d6000803e3d6000fd5b505050506040513d601f19601f82011682018060405250611167919081019061169d565b90508091505090565b600043905090565b60c060405190810160405280600073ffffffffffffffffffffffffffffffffffffffff16815260200160008152602001606081526020016060815260200160608152602001606081525090565b828054600181600116156101000203166002900490600052602060002090601f016020900481019282601f1061120657805160ff1916838001178555611234565b82800160010185558215611234579182015b82811115611233578251825591602001919060010190611218565b5b5090506112419190611277565b5090565b81548183558181111561127257600202816002028360005260206000209182019101611271919061129c565b5b505050565b61129991905b8082111561129557600081600090555060010161127d565b5090565b90565b6112e791905b808211156112e357600080820160006101000a81549073ffffffffffffffffffffffffffffffffffffffff02191690556001820160009055506002016112a2565b5090565b90565b60006112f68235611e0a565b905092915050565b600061130a8251611e0a565b905092915050565b600082601f830112151561132557600080fd5b813561133861133382611ce7565b611cba565b9150818183526020840193506020810190508385604084028201111561135d57600080fd5b60005b8381101561138d57816113738882611518565b845260208401935060408301925050600181019050611360565b5050505092915050565b600082601f83011215156113aa57600080fd5b81356113bd6113b882611d0f565b611cba565b915081818352602084019350602081019050838560208402820111156113e257600080fd5b60005b8381101561141257816113f8888261164c565b8452602084019350602083019250506001810190506113e5565b5050505092915050565b60006114288251611e2a565b905092915050565b600061143c8235611e36565b905092915050565b60006114508251611e36565b905092915050565b600082601f830112151561146b57600080fd5b813561147e61147982611d37565b611cba565b9150808252602083016020830185838301111561149a57600080fd5b6114a5838284611e92565b50505092915050565b60006114ba8251611e40565b905092915050565b600082601f83011215156114d557600080fd5b81356114e86114e382611d63565b611cba565b9150808252602083016020830185838301111561150457600080fd5b61150f838284611e92565b50505092915050565b60006040828403121561152a57600080fd5b6115346040611cba565b90506000611544848285016112ea565b600083015250602061155884828501611430565b60208301525092915050565b600060a0828403121561157657600080fd5b61158060a0611cba565b90506000611590848285016112ea565b600083015250602082013567ffffffffffffffff8111156115b057600080fd5b6115bc848285016114c2565b602083015250604082013567ffffffffffffffff8111156115dc57600080fd5b6115e8848285016114c2565b604083015250606082013567ffffffffffffffff81111561160857600080fd5b611614848285016114c2565b606083015250608082013567ffffffffffffffff81111561163457600080fd5b61164084828501611312565b60808301525092915050565b60006116588235611e52565b905092915050565b600061166c8251611e52565b905092915050565b60006020828403121561168657600080fd5b6000611694848285016112ea565b91505092915050565b6000602082840312156116af57600080fd5b60006116bd848285016112fe565b91505092915050565b6000806000606084860312156116db57600080fd5b60006116e9868287016112ea565b93505060206116fa86828701611430565b925050604084013567ffffffffffffffff81111561171757600080fd5b61172386828701611397565b9150509250925092565b60006020828403121561173f57600080fd5b600061174d8482850161141c565b91505092915050565b60006020828403121561176857600080fd5b600061177684828501611430565b91505092915050565b60006020828403121561179157600080fd5b600061179f84828501611444565b91505092915050565b6000602082840312156117ba57600080fd5b600082013567ffffffffffffffff8111156117d457600080fd5b6117e084828501611458565b91505092915050565b6000602082840312156117fb57600080fd5b6000611809848285016114ae565b91505092915050565b60006020828403121561182457600080fd5b600082013567ffffffffffffffff81111561183e57600080fd5b61184a84828501611564565b91505092915050565b60006020828403121561186557600080fd5b600061187384828501611660565b91505092915050565b61188581611dca565b82525050565b61189481611dca565b82525050565b60006118a582611d9c565b8084526020840193506118b783611d8f565b60005b828110156118e9576118cd8683516119f1565b6118d682611dbd565b91506040860195506001810190506118ba565b50849250505092915050565b6118fe81611dea565b82525050565b61190d81611df6565b82525050565b61191c81611df6565b82525050565b600061192d82611da7565b808452611941816020860160208601611ea1565b61194a81611ed4565b602085010191505092915050565b61196181611e5c565b82525050565b61197081611e6e565b82525050565b61197f81611e80565b82525050565b600061199082611db2565b8084526119a4816020860160208601611ea1565b6119ad81611ed4565b602085010191505092915050565b60006119c682611db2565b8084526119da816020860160208601611ea1565b6119e381611ed4565b602085010191505092915050565b604082016000820151611a07600085018261188b565b506020820151611a1a6020850182611913565b50505050565b600060c083016000830151611a38600086018261188b565b506020830151611a4b6020860182611acd565b5060408301518482036040860152611a6382826119bb565b91505060608301518482036060860152611a7d82826119bb565b91505060808301518482036080860152611a9782826119bb565b91505060a083015184820360a0860152611ab1828261189a565b9150508091505092915050565b611ac781611e00565b82525050565b611ad681611e00565b82525050565b6000602082019050611af1600083018461187c565b92915050565b6000608082019050611b0c600083018761187c565b611b19602083018661187c565b611b266040830185611904565b8181036060830152611b388184611922565b905095945050505050565b6000604082019050611b58600083018561187c565b611b656020830184611abe565b9392505050565b600060a082019050611b81600083018861187c565b611b8e6020830187611abe565b8181036040830152611ba08186611985565b90508181036060830152611bb48185611985565b90508181036080830152611bc88184611985565b90509695505050505050565b6000602082019050611be960008301846118f5565b92915050565b6000602082019050611c046000830184611904565b92915050565b60006020820190508181036000830152611c248184611922565b905092915050565b6000602082019050611c416000830184611958565b92915050565b6000602082019050611c5c6000830184611967565b92915050565b6000602082019050611c776000830184611976565b92915050565b60006020820190508181036000830152611c978184611a20565b905092915050565b6000602082019050611cb46000830184611abe565b92915050565b6000604051905081810181811067ffffffffffffffff82111715611cdd57600080fd5b8060405250919050565b600067ffffffffffffffff821115611cfe57600080fd5b602082029050602081019050919050565b600067ffffffffffffffff821115611d2657600080fd5b602082029050602081019050919050565b600067ffffffffffffffff821115611d4e57600080fd5b601f19601f8301169050602081019050919050565b600067ffffffffffffffff821115611d7a57600080fd5b601f19601f8301169050602081019050919050565b6000602082019050919050565b600081519050919050565b600081519050919050565b600081519050919050565b6000602082019050919050565b600073ffffffffffffffffffffffffffffffffffffffff82169050919050565b60008115159050919050565b6000819050919050565b6000819050919050565b600073ffffffffffffffffffffffffffffffffffffffff82169050919050565b60008115159050919050565b6000819050919050565b6000611e4b82611dca565b9050919050565b6000819050919050565b6000611e6782611dca565b9050919050565b6000611e7982611dca565b9050919050565b6000611e8b82611dca565b9050919050565b82818337600083830152505050565b60005b83811015611ebf578082015181840152602081019050611ea4565b83811115611ece576000848401525b50505050565b6000601f19601f83011690509190505600a265627a7a72305820e91c6166a1dc8d256f87219c7d10ce7b79b1cb4da8e1764b8980dc30e0b5c2d56c6578706572696d656e74616cf50037",
  "source": "pragma solidity ^0.4.24;\npragma experimental ABIEncoderV2;\n\nimport \"@aragon/os/contracts/apps/AragonApp.sol\";\nimport \"./Pando.sol\";\n\n// contract PandoGenesis\n// Et le token manager du lineage il s'appelle contract Alliance et la fonction pour issuer c'est ally(uint _destination, uint256 amount)\n\ncontract PandoHistory is AragonApp {\n    using Pando for Pando.Individuation;\n\n\n    bytes32 constant public COMMIT_ROLE = keccak256(\"COMMIT_ROLE\");\n\n    bytes32 public head;\n    mapping(bytes32 => Pando.Individuation) public individuations;\n\n    event Commit(bytes32 hash);\n\n    function initialize() onlyInit external {\n        initialized();\n    }\n\n    /* struct Commit {\n        address origin;\n        uint256 block;\n        string  tree;\n        string  message;\n        CID[]   parents;\n    } */\n\n\n    /* struct IIndividuation {\n        address origin;\n        string  tree;\n        string  message;\n        string  metadata;\n        IID[]   parents;\n    }\n\n    // Un commit est un est acte d'individuation, (par les parents), pas un tat\n    struct Individuation {\n        address origin;\n        uint256 blockstamp;\n        string  tree;\n        string  message;\n        string  metadata;\n        IID[]   parents;\n    } */\n\n    function individuation(Pando.IIndividuation _individuation) isInitialized auth(COMMIT_ROLE) public {\n        Pando.Individuation memory individuation = Pando.Individuation(_individuation.origin, block.number, _individuation.tree, _individuation.message, _individuation.metadata, _individuation.parents);\n\n        bytes32 hash  = individuation.hash();\n\n        individuations[hash].origin     = individuation.origin;\n        individuations[hash].blockstamp = individuation.blockstamp;\n        individuations[hash].tree       = individuation.tree;\n        individuations[hash].message    = individuation.message;\n        individuations[hash].metadata   = individuation.metadata;\n\n\n\n        individuations[hash].parents.length = individuation.parents.length;\n        for (uint256 i = 0; i < individuation.parents.length; i++) {\n            individuations[hash].parents[i] = individuation.parents[i];\n        }\n\n        head = hash;\n\n        emit Commit(hash);\n    }\n\n}\n",
  "sourcePath": "/Users/osarrouy/Documents/dapp/@pando/packages/core/contracts/PandoHistory.sol",
  "compiler": {
    "name": "solc",
    "version": "0.4.24+commit.e67f0147.Emscripten.clang"
  },
  "schemaVersion": "2.0.1",
  "updatedAt": "2018-10-06T16:57:44.251Z"
}