{
  "contractName": "PandoKit",
  "abi": [
    {
      "constant": true,
      "inputs": [],
      "name": "SUBMIT_RFC_ROLE",
      "outputs": [
        {
          "name": "",
          "type": "bytes32"
        }
      ],
      "payable": false,
      "stateMutability": "view",
      "type": "function"
    },
    {
      "constant": true,
      "inputs": [],
      "name": "getRecoveryVault",
      "outputs": [
        {
          "name": "",
          "type": "address"
        }
      ],
      "payable": false,
      "stateMutability": "view",
      "type": "function"
    },
    {
      "constant": true,
      "inputs": [],
      "name": "SUBMIT_RFL_ROLE",
      "outputs": [
        {
          "name": "",
          "type": "bytes32"
        }
      ],
      "payable": false,
      "stateMutability": "view",
      "type": "function"
    },
    {
      "constant": true,
      "inputs": [],
      "name": "EVMSCRIPT_REGISTRY_APP_ID",
      "outputs": [
        {
          "name": "",
          "type": "bytes32"
        }
      ],
      "payable": false,
      "stateMutability": "view",
      "type": "function"
    },
    {
      "constant": true,
      "inputs": [
        {
          "name": "token",
          "type": "address"
        }
      ],
      "name": "allowRecoverability",
      "outputs": [
        {
          "name": "",
          "type": "bool"
        }
      ],
      "payable": false,
      "stateMutability": "view",
      "type": "function"
    },
    {
      "constant": true,
      "inputs": [],
      "name": "appId",
      "outputs": [
        {
          "name": "",
          "type": "bytes32"
        }
      ],
      "payable": false,
      "stateMutability": "view",
      "type": "function"
    },
    {
      "constant": true,
      "inputs": [],
      "name": "ETH",
      "outputs": [
        {
          "name": "",
          "type": "address"
        }
      ],
      "payable": false,
      "stateMutability": "view",
      "type": "function"
    },
    {
      "constant": true,
      "inputs": [],
      "name": "getInitializationBlock",
      "outputs": [
        {
          "name": "",
          "type": "uint256"
        }
      ],
      "payable": false,
      "stateMutability": "view",
      "type": "function"
    },
    {
      "constant": true,
      "inputs": [],
      "name": "EVMSCRIPT_REGISTRY_APP",
      "outputs": [
        {
          "name": "",
          "type": "bytes32"
        }
      ],
      "payable": false,
      "stateMutability": "view",
      "type": "function"
    },
    {
      "constant": false,
      "inputs": [
        {
          "name": "_token",
          "type": "address"
        }
      ],
      "name": "transferToVault",
      "outputs": [],
      "payable": false,
      "stateMutability": "nonpayable",
      "type": "function"
    },
    {
      "constant": true,
      "inputs": [
        {
          "name": "_sender",
          "type": "address"
        },
        {
          "name": "_role",
          "type": "bytes32"
        },
        {
          "name": "_params",
          "type": "uint256[]"
        }
      ],
      "name": "canPerform",
      "outputs": [
        {
          "name": "",
          "type": "bool"
        }
      ],
      "payable": false,
      "stateMutability": "view",
      "type": "function"
    },
    {
      "constant": true,
      "inputs": [],
      "name": "VALUATE_RFL_ROLE",
      "outputs": [
        {
          "name": "",
          "type": "bytes32"
        }
      ],
      "payable": false,
      "stateMutability": "view",
      "type": "function"
    },
    {
      "constant": true,
      "inputs": [],
      "name": "kernel",
      "outputs": [
        {
          "name": "",
          "type": "address"
        }
      ],
      "payable": false,
      "stateMutability": "view",
      "type": "function"
    },
    {
      "constant": true,
      "inputs": [],
      "name": "SORT_RFC_ROLE",
      "outputs": [
        {
          "name": "",
          "type": "bytes32"
        }
      ],
      "payable": false,
      "stateMutability": "view",
      "type": "function"
    },
    {
      "constant": true,
      "inputs": [
        {
          "name": "",
          "type": "uint256"
        }
      ],
      "name": "rfcs",
      "outputs": [
        {
          "components": [
            {
              "name": "origin",
              "type": "address"
            },
            {
              "name": "block",
              "type": "uint256"
            },
            {
              "name": "tree",
              "type": "string"
            },
            {
              "name": "message",
              "type": "string"
            },
            {
              "components": [
                {
                  "name": "history",
                  "type": "address"
                },
                {
                  "name": "hash",
                  "type": "bytes32"
                }
              ],
              "name": "parents",
              "type": "tuple[]"
            }
          ],
          "name": "commit",
          "type": "tuple"
        },
        {
          "name": "state",
          "type": "uint8"
        }
      ],
      "payable": false,
      "stateMutability": "view",
      "type": "function"
    },
    {
      "constant": true,
      "inputs": [
        {
          "name": "_script",
          "type": "bytes"
        }
      ],
      "name": "getExecutor",
      "outputs": [
        {
          "name": "",
          "type": "address"
        }
      ],
      "payable": false,
      "stateMutability": "view",
      "type": "function"
    },
    {
      "anonymous": false,
      "inputs": [
        {
          "indexed": true,
          "name": "id",
          "type": "uint256"
        }
      ],
      "name": "SubmitRFC",
      "type": "event"
    },
    {
      "anonymous": false,
      "inputs": [
        {
          "indexed": true,
          "name": "id",
          "type": "uint256"
        }
      ],
      "name": "UpdateRFC",
      "type": "event"
    },
    {
      "anonymous": false,
      "inputs": [
        {
          "indexed": true,
          "name": "id",
          "type": "uint256"
        }
      ],
      "name": "MergeRFC",
      "type": "event"
    },
    {
      "anonymous": false,
      "inputs": [
        {
          "indexed": true,
          "name": "id",
          "type": "uint256"
        }
      ],
      "name": "RejectRFC",
      "type": "event"
    },
    {
      "anonymous": false,
      "inputs": [
        {
          "indexed": true,
          "name": "id",
          "type": "uint256"
        }
      ],
      "name": "CancelRFC",
      "type": "event"
    },
    {
      "anonymous": false,
      "inputs": [
        {
          "indexed": false,
          "name": "receiver",
          "type": "address"
        },
        {
          "indexed": false,
          "name": "amount",
          "type": "uint256"
        },
        {
          "indexed": false,
          "name": "metadata",
          "type": "string"
        }
      ],
      "name": "Test",
      "type": "event"
    },
    {
      "anonymous": false,
      "inputs": [
        {
          "indexed": false,
          "name": "origin",
          "type": "address"
        }
      ],
      "name": "Test2",
      "type": "event"
    },
    {
      "anonymous": false,
      "inputs": [
        {
          "indexed": true,
          "name": "executor",
          "type": "address"
        },
        {
          "indexed": false,
          "name": "script",
          "type": "bytes"
        },
        {
          "indexed": false,
          "name": "input",
          "type": "bytes"
        },
        {
          "indexed": false,
          "name": "returnData",
          "type": "bytes"
        }
      ],
      "name": "ScriptResult",
      "type": "event"
    },
    {
      "constant": false,
      "inputs": [
        {
          "name": "_history",
          "type": "address"
        }
      ],
      "name": "initialize",
      "outputs": [],
      "payable": false,
      "stateMutability": "nonpayable",
      "type": "function"
    },
    {
      "constant": false,
      "inputs": [
        {
          "components": [
            {
              "name": "receiver",
              "type": "address"
            },
            {
              "name": "amount",
              "type": "uint256"
            },
            {
              "name": "metadata",
              "type": "string"
            },
            {
              "name": "state",
              "type": "uint8"
            }
          ],
          "name": "rfl",
          "type": "tuple[]"
        }
      ],
      "name": "testRFL",
      "outputs": [],
      "payable": false,
      "stateMutability": "nonpayable",
      "type": "function"
    },
    {
      "constant": false,
      "inputs": [
        {
          "components": [
            {
              "name": "origin",
              "type": "address"
            },
            {
              "name": "block",
              "type": "uint256"
            },
            {
              "name": "tree",
              "type": "string"
            },
            {
              "name": "message",
              "type": "string"
            },
            {
              "components": [
                {
                  "name": "history",
                  "type": "address"
                },
                {
                  "name": "hash",
                  "type": "bytes32"
                }
              ],
              "name": "parents",
              "type": "tuple[]"
            }
          ],
          "name": "commit",
          "type": "tuple"
        }
      ],
      "name": "testCommit",
      "outputs": [],
      "payable": false,
      "stateMutability": "nonpayable",
      "type": "function"
    }
  ],
  "bytecode": "0x608060405234801561001057600080fd5b50611dce806100206000396000f300608060405260043610610107576000357c0100000000000000000000000000000000000000000000000000000000900463ffffffff16806301d7304c1461010c5780630378ffb91461013557806332f0a3b5146101605780633555ffdd1461018b57806360b1e057146101b65780637e7db6e1146101e157806380afdea81461021e5780638322fff2146102495780638b3dd749146102745780639b3fdf4c1461029f5780639d4941d8146102ca578063a1658fad146102f3578063c4d66de814610330578063ca15db9e14610359578063d4aae0c414610384578063d7d0762b146103af578063ec911bba146103d8578063ef022bf714610403578063f92a79ff14610441575b600080fd5b34801561011857600080fd5b50610133600480360361012e91908101906115aa565b61047e565b005b34801561014157600080fd5b5061014a610510565b6040516101579190611a15565b60405180910390f35b34801561016c57600080fd5b50610175610549565b604051610182919061192c565b60405180910390f35b34801561019757600080fd5b506101a0610653565b6040516101ad9190611a15565b60405180910390f35b3480156101c257600080fd5b506101cb61068c565b6040516101d89190611a15565b60405180910390f35b3480156101ed57600080fd5b50610208600480360361020391908101906114f1565b6106b3565b60405161021591906119fa565b60405180910390f35b34801561022a57600080fd5b506102336106be565b6040516102409190611a15565b60405180910390f35b34801561025557600080fd5b5061025e6106c4565b60405161026b919061192c565b60405180910390f35b34801561028057600080fd5b506102896106c9565b6040516102969190611ad3565b60405180910390f35b3480156102ab57600080fd5b506102b46106d3565b6040516102c19190611a15565b60405180910390f35b3480156102d657600080fd5b506102f160048036036102ec91908101906114f1565b6106fa565b005b3480156102ff57600080fd5b5061031a60048036036103159190810190611543565b610920565b60405161032791906119fa565b60405180910390f35b34801561033c57600080fd5b506103576004803603610352919081019061167e565b610a58565b005b34801561036557600080fd5b5061036e610ab5565b60405161037b9190611a15565b60405180910390f35b34801561039057600080fd5b50610399610aee565b6040516103a69190611a6d565b60405180910390f35b3480156103bb57600080fd5b506103d660048036036103d191908101906116a7565b610b13565b005b3480156103e457600080fd5b506103ed610b51565b6040516103fa9190611a15565b60405180910390f35b34801561040f57600080fd5b5061042a600480360361042591908101906116e8565b610b8a565b604051610438929190611aa3565b60405180910390f35b34801561044d57600080fd5b5061046860048036036104639190810190611614565b610e40565b6040516104759190611a52565b60405180910390f35b7f4e68f3398f1a324d0e77fd2ef95defc4e2a535d5d2db19afccc2d97a6d1c39218160008151811015156104ae57fe5b90602001906020020151600001518260008151811015156104cb57fe5b90602001906020020151602001518360008151811015156104e857fe5b9060200190602002015160400151604051610505939291906119bc565b60405180910390a150565b60405180807f5355424d49545f5246435f524f4c450000000000000000000000000000000000815250600f019050604051809103902081565b6000806000809054906101000a900473ffffffffffffffffffffffffffffffffffffffff1673ffffffffffffffffffffffffffffffffffffffff161415151561059157600080fd5b6000809054906101000a900473ffffffffffffffffffffffffffffffffffffffff1673ffffffffffffffffffffffffffffffffffffffff166332f0a3b56040518163ffffffff167c0100000000000000000000000000000000000000000000000000000000028152600401602060405180830381600087803b15801561061657600080fd5b505af115801561062a573d6000803e3d6000fd5b505050506040513d601f19601f8201168201806040525061064e919081019061151a565b905090565b60405180807f5355424d49545f52464c5f524f4c450000000000000000000000000000000000815250600f019050604051809103902081565b7fddbcfd564f642ab5627cf68b9b7d374fb4f8a36e941a75d89c87998cef03bd6160010281565b600060019050919050565b60015481565b600081565b6000600354905090565b7f34f01c17e9be6ddbf2c61f37b5b1fb9f1a090a975006581ad19bda1c4d38287160010281565b600080610706836106b3565b151561071157600080fd5b610719610549565b915061072482610ef7565b151561072f57600080fd5b600073ffffffffffffffffffffffffffffffffffffffff168373ffffffffffffffffffffffffffffffffffffffff1614156107c7578173ffffffffffffffffffffffffffffffffffffffff166108fc3073ffffffffffffffffffffffffffffffffffffffff16319081150290604051600060405180830381858888f193505050501580156107c1573d6000803e3d6000fd5b5061091b565b8273ffffffffffffffffffffffffffffffffffffffff166370a08231306040518263ffffffff167c010000000000000000000000000000000000000000000000000000000002815260040161081c9190611a88565b602060405180830381600087803b15801561083657600080fd5b505af115801561084a573d6000803e3d6000fd5b505050506040513d601f19601f8201168201806040525061086e9190810190611711565b90508273ffffffffffffffffffffffffffffffffffffffff1663a9059cbb83836040518363ffffffff167c01000000000000000000000000000000000000000000000000000000000281526004016108c7929190611993565b602060405180830381600087803b1580156108e157600080fd5b505af11580156108f5573d6000803e3d6000fd5b505050506040513d601f19601f8201168201806040525061091991908101906115eb565b505b505050565b600060606000808451111561093d57602084510290508391508082525b60008060009054906101000a900473ffffffffffffffffffffffffffffffffffffffff1673ffffffffffffffffffffffffffffffffffffffff161480610a4d57506000809054906101000a900473ffffffffffffffffffffffffffffffffffffffff1673ffffffffffffffffffffffffffffffffffffffff1663fdef9106873088866040518563ffffffff167c01000000000000000000000000000000000000000000000000000000000281526004016109fa9493929190611947565b602060405180830381600087803b158015610a1457600080fd5b505af1158015610a28573d6000803e3d6000fd5b505050506040513d601f19601f82011682018060405250610a4c91908101906115eb565b5b925050509392505050565b6000600354141515610a6957600080fd5b610a71610f49565b80606460006101000a81548173ffffffffffffffffffffffffffffffffffffffff021916908373ffffffffffffffffffffffffffffffffffffffff16021790555050565b60405180807f56414c554154455f52464c5f524f4c45000000000000000000000000000000008152506010019050604051809103902081565b6000809054906101000a900473ffffffffffffffffffffffffffffffffffffffff1681565b7f0cf838e14110ecb575e67c248ee95586cf25914ae1ea517878ddb0764a1423b08160000151604051610b46919061192c565b60405180910390a150565b60405180807f534f52545f5246435f524f4c4500000000000000000000000000000000000000815250600d019050604051809103902081565b606581815481101515610b9957fe5b90600052602060002090600702016000915090508060000160a060405190810160405290816000820160009054906101000a900473ffffffffffffffffffffffffffffffffffffffff1673ffffffffffffffffffffffffffffffffffffffff1673ffffffffffffffffffffffffffffffffffffffff16815260200160018201548152602001600282018054600181600116156101000203166002900480601f016020809104026020016040519081016040528092919081815260200182805460018160011615610100020316600290048015610cb65780601f10610c8b57610100808354040283529160200191610cb6565b820191906000526020600020905b815481529060010190602001808311610c9957829003601f168201915b50505050508152602001600382018054600181600116156101000203166002900480601f016020809104026020016040519081016040528092919081815260200182805460018160011615610100020316600290048015610d585780601f10610d2d57610100808354040283529160200191610d58565b820191906000526020600020905b815481529060010190602001808311610d3b57829003601f168201915b5050505050815260200160048201805480602002602001604051908101604052809291908181526020016000905b82821015610e2057838290600052602060002090600202016040805190810160405290816000820160009054906101000a900473ffffffffffffffffffffffffffffffffffffffff1673ffffffffffffffffffffffffffffffffffffffff1673ffffffffffffffffffffffffffffffffffffffff168152602001600182015460001916600019168152505081526020019060010190610d86565b5050505081525050908060050160009054906101000a900460ff16905082565b6000610e4a610f6a565b73ffffffffffffffffffffffffffffffffffffffff166304bf2a7f836040518263ffffffff167c0100000000000000000000000000000000000000000000000000000000028152600401610e9e9190611a30565b602060405180830381600087803b158015610eb857600080fd5b505af1158015610ecc573d6000803e3d6000fd5b505050506040513d601f19601f82011682018060405250610ef09190810190611655565b9050919050565b600080600073ffffffffffffffffffffffffffffffffffffffff168373ffffffffffffffffffffffffffffffffffffffff161415610f385760009150610f43565b823b90506000811191505b50919050565b6000600354141515610f5a57600080fd5b610f62611061565b600381905550565b6000806000809054906101000a900473ffffffffffffffffffffffffffffffffffffffff1673ffffffffffffffffffffffffffffffffffffffff166342c71f1d7f34f01c17e9be6ddbf2c61f37b5b1fb9f1a090a975006581ad19bda1c4d3828716001026040518263ffffffff167c01000000000000000000000000000000000000000000000000000000000281526004016110069190611a15565b602060405180830381600087803b15801561102057600080fd5b505af1158015611034573d6000803e3d6000fd5b505050506040513d601f19601f82011682018060405250611058919081019061151a565b90508091505090565b600043905090565b60006110758235611c7c565b905092915050565b60006110898251611c7c565b905092915050565b600082601f83011215156110a457600080fd5b81356110b76110b282611b1b565b611aee565b915081818352602084019350602081019050838560408402820111156110dc57600080fd5b60005b8381101561110c57816110f28882611321565b8452602084019350604083019250506001810190506110df565b5050505092915050565b600082601f830112151561112957600080fd5b813561113c61113782611b43565b611aee565b9150818183526020840193506020810190508360005b838110156111825781358601611168888261143d565b845260208401935060208301925050600181019050611152565b5050505092915050565b600082601f830112151561119f57600080fd5b81356111b26111ad82611b6b565b611aee565b915081818352602084019350602081019050838560208402820111156111d757600080fd5b60005b8381101561120757816111ed88826114c9565b8452602084019350602083019250506001810190506111da565b5050505092915050565b600061121d8251611c9c565b905092915050565b60006112318235611ca8565b905092915050565b600082601f830112151561124c57600080fd5b813561125f61125a82611b93565b611aee565b9150808252602083016020830185838301111561127b57600080fd5b611286838284611d41565b50505092915050565b600061129b8251611cb2565b905092915050565b60006112af8235611cc4565b905092915050565b60006112c38235611cd6565b905092915050565b600082601f83011215156112de57600080fd5b81356112f16112ec82611bbf565b611aee565b9150808252602083016020830185838301111561130d57600080fd5b611318838284611d41565b50505092915050565b60006040828403121561133357600080fd5b61133d6040611aee565b9050600061134d84828501611069565b600083015250602061136184828501611225565b60208301525092915050565b600060a0828403121561137f57600080fd5b61138960a0611aee565b9050600061139984828501611069565b60008301525060206113ad848285016114c9565b602083015250604082013567ffffffffffffffff8111156113cd57600080fd5b6113d9848285016112cb565b604083015250606082013567ffffffffffffffff8111156113f957600080fd5b611405848285016112cb565b606083015250608082013567ffffffffffffffff81111561142557600080fd5b61143184828501611091565b60808301525092915050565b60006080828403121561144f57600080fd5b6114596080611aee565b9050600061146984828501611069565b600083015250602061147d848285016114c9565b602083015250604082013567ffffffffffffffff81111561149d57600080fd5b6114a9848285016112cb565b60408301525060606114bd848285016112b7565b60608301525092915050565b60006114d58235611cef565b905092915050565b60006114e98251611cef565b905092915050565b60006020828403121561150357600080fd5b600061151184828501611069565b91505092915050565b60006020828403121561152c57600080fd5b600061153a8482850161107d565b91505092915050565b60008060006060848603121561155857600080fd5b600061156686828701611069565b935050602061157786828701611225565b925050604084013567ffffffffffffffff81111561159457600080fd5b6115a08682870161118c565b9150509250925092565b6000602082840312156115bc57600080fd5b600082013567ffffffffffffffff8111156115d657600080fd5b6115e284828501611116565b91505092915050565b6000602082840312156115fd57600080fd5b600061160b84828501611211565b91505092915050565b60006020828403121561162657600080fd5b600082013567ffffffffffffffff81111561164057600080fd5b61164c84828501611239565b91505092915050565b60006020828403121561166757600080fd5b60006116758482850161128f565b91505092915050565b60006020828403121561169057600080fd5b600061169e848285016112a3565b91505092915050565b6000602082840312156116b957600080fd5b600082013567ffffffffffffffff8111156116d357600080fd5b6116df8482850161136d565b91505092915050565b6000602082840312156116fa57600080fd5b6000611708848285016114c9565b91505092915050565b60006020828403121561172357600080fd5b6000611731848285016114dd565b91505092915050565b61174381611c26565b82525050565b600061175482611bf8565b80845260208401935061176683611beb565b60005b828110156117985761177c86835161186a565b61178582611c19565b9150604086019550600181019050611769565b50849250505092915050565b6117ad81611c46565b82525050565b6117bc81611c52565b82525050565b60006117cd82611c03565b8084526117e1816020860160208601611d50565b6117ea81611d83565b602085010191505092915050565b61180181611cf9565b82525050565b61181081611d0b565b82525050565b61181f81611d1d565b82525050565b61182e81611d2f565b82525050565b600061183f82611c0e565b808452611853816020860160208601611d50565b61185c81611d83565b602085010191505092915050565b604082016000820151611880600085018261173a565b50602082015161189360208501826117b3565b50505050565b600060a0830160008301516118b1600086018261173a565b5060208301516118c4602086018261191d565b50604083015184820360408601526118dc8282611834565b915050606083015184820360608601526118f68282611834565b915050608083015184820360808601526119108282611749565b9150508091505092915050565b61192681611c72565b82525050565b6000602082019050611941600083018461173a565b92915050565b600060808201905061195c600083018761173a565b611969602083018661173a565b61197660408301856117b3565b818103606083015261198881846117c2565b905095945050505050565b60006040820190506119a8600083018561173a565b6119b5602083018461191d565b9392505050565b60006060820190506119d1600083018661173a565b6119de602083018561191d565b81810360408301526119f08184611834565b9050949350505050565b6000602082019050611a0f60008301846117a4565b92915050565b6000602082019050611a2a60008301846117b3565b92915050565b60006020820190508181036000830152611a4a81846117c2565b905092915050565b6000602082019050611a6760008301846117f8565b92915050565b6000602082019050611a826000830184611807565b92915050565b6000602082019050611a9d6000830184611816565b92915050565b60006040820190508181036000830152611abd8185611899565b9050611acc6020830184611825565b9392505050565b6000602082019050611ae8600083018461191d565b92915050565b6000604051905081810181811067ffffffffffffffff82111715611b1157600080fd5b8060405250919050565b600067ffffffffffffffff821115611b3257600080fd5b602082029050602081019050919050565b600067ffffffffffffffff821115611b5a57600080fd5b602082029050602081019050919050565b600067ffffffffffffffff821115611b8257600080fd5b602082029050602081019050919050565b600067ffffffffffffffff821115611baa57600080fd5b601f19601f8301169050602081019050919050565b600067ffffffffffffffff821115611bd657600080fd5b601f19601f8301169050602081019050919050565b6000602082019050919050565b600081519050919050565b600081519050919050565b600081519050919050565b6000602082019050919050565b600073ffffffffffffffffffffffffffffffffffffffff82169050919050565b60008115159050919050565b6000819050919050565b6000600482101515611c6a57fe5b819050919050565b6000819050919050565b600073ffffffffffffffffffffffffffffffffffffffff82169050919050565b60008115159050919050565b6000819050919050565b6000611cbd82611c26565b9050919050565b6000611ccf82611c26565b9050919050565b6000600682101515611ce757600080fd5b819050919050565b6000819050919050565b6000611d0482611c26565b9050919050565b6000611d1682611c26565b9050919050565b6000611d2882611c26565b9050919050565b6000611d3a82611c5c565b9050919050565b82818337600083830152505050565b60005b83811015611d6e578082015181840152602081019050611d53565b83811115611d7d576000848401525b50505050565b6000601f19601f83011690509190505600a265627a7a7230582028742f2c2cdc51b3d00644ecaa117a080d1affe458aa37718c164e6e88defb306c6578706572696d656e74616cf50037",
  "source": "pragma solidity ^0.4.24;\npragma experimental ABIEncoderV2;\n\nimport \"@aragon/os/contracts/apps/AragonApp.sol\";\nimport \"./Pando.sol\";\nimport \"./PandoHistory.sol\";\n\n// Public function are abstract\n// actual implementations refers to internal methods like _sort _ valuate, etc. which actually enforces state machine checks\n// The pando interface version is tied to the library which can be deployed only once;\n// If I send for instance a valuate RFL to a voting app the app must be aware of the internal logic like: to execute it it need to know that RFL are accepted.\n// So the voting app needs to have access to the internal state of the Kit. The best idea is to actually turn kit into decision engine which can be aware of the state of the kit.\n\n// Pando app: three smart contracts on top of which one can build actual apps thorugh the exposed API of the PandoEngine contract. The PandoEngine is the source of thrust storing state and enforcing basic stuff about how that state can be modified\n\n// The PandoLineage and PandoHistory permissions are set one for all and can't be modified. Only the PandoEngine can access it. This is set at DAO deployement and cannot be changed.\n\n// This apps built on top of the pandoengine contract are supposed to propose governance and stuff and map between the state of the engine and the apps (for instance map a RFC id with a vote ID). They fetch data from the Engine and transact to the engine (Necessity to extend the sandboxing policy)\n\n// For instance a dictator kit will have an auth(DICTATOR_ROLE) for function call\n\n// It's this kit which are actually work as app in the AragonFrontEnd\n\n// It's up to the kit to define more fine-grained stuff - such as the requirement for staking and all - on top of PandoEngine API. Thes kits you wanna be used by tge must just enfoce a minimum API to provide CLI interoperability with different KITs\n\n// All the apps need to rely on the same version of the pando library defining shared data structures and helpers function on top of these datastructures;\n\n//\n\n\ncontract PandoKit is AragonApp {\n    using Pando for Pando.Commit;\n    using Pando for Pando.RFC;\n    using Pando for Pando.RFL;\n    using Pando for Pando.RFL[];\n\n\n\n    bytes32 constant public SUBMIT_RFL_ROLE  = keccak256(\"SUBMIT_RFL_ROLE\");\n    bytes32 constant public VALUATE_RFL_ROLE = keccak256(\"VALUATE_RFL_ROLE\");\n    bytes32 constant public SUBMIT_RFC_ROLE  = keccak256(\"SUBMIT_RFC_ROLE\");\n    bytes32 constant public SORT_RFC_ROLE    = keccak256(\"SORT_RFC_ROLE\");\n\n\n    event SubmitRFC (uint256 indexed id);\n    event UpdateRFC (uint256 indexed id);\n    event MergeRFC  (uint256 indexed id);\n    event RejectRFC (uint256 indexed id);\n    event CancelRFC (uint256 indexed id);\n\n    event Test (address receiver, uint256 amount, string metadata);\n    event Test2 (address origin);\n\n\n    PandoHistory history;\n\n    Pando.RFC[] public rfcs;\n\n    function initialize(PandoHistory _history) onlyInit external {\n        initialized();\n        history = _history;\n    }\n\n    /* function submitRFC(address _origin, string _tree, string _message, bytes _parents, Pando.RFL[] _rfls) isInitialized external returns (uint256);\n    function sortRFC(uint256 _id, Pando.RFCSorting _sorting) isInitialized external; */\n\n\n    function testRFL(Pando.RFL[] rfl) public {\n        emit Test(rfl[0].receiver, rfl[0].amount, rfl[0].metadata);\n    }\n\n    function testCommit(Pando.Commit commit) public {\n        emit Test2(commit.origin);\n    }\n\n\n    function _submitRFC(Pando.Commit _commit, Pando.RFL[] _rfls) isInitialized internal returns (uint256 id)  {\n        id                    = rfcs.length++;\n        Pando.RFC storage rfc = rfcs[id];\n\n        rfc.state  = Pando.RFCState.Pending;\n        rfc.commit = _commit;\n\n        emit SubmitRFC(id);\n    }\n\n    function _sortRFC(uint256 _id, Pando.RFCSorting _sorting) internal {\n        /* require(canSortRFC(rfcs[_id], _sorting)); */\n\n        if(_sorting == Pando.RFCSorting.Merge) {\n            rfcs[_id].state        = Pando.RFCState.Merged;\n            rfcs[_id].commit.block = block.number;\n\n            history.commit(rfcs[_id].commit.origin, rfcs[_id].commit.block, rfcs[_id].commit.tree, rfcs[_id].commit.message, rfcs[_id].commit.parents);\n\n            /* for (uint i = 0; i < rfcs[_id].rfls.length) {\n                issueRFL(rfcs[_id].rlfs[i]);\n            } */\n\n            /* specimen.issueReward(rfcs[_rfcId].commit.origin, rfcs[_rfcId].commit.value); */\n\n            emit MergeRFC(_id);\n        } else if (_sorting == Pando.RFCSorting.Reject) {\n            rfcs[_id].state = Pando.RFCState.Rejected;\n            emit RejectRFC(_id);\n        }\n    }\n\n    /* function canSortRFC(uint256 _id, Pando.RFCSorting _sorting) public view returns (bool) {\n        if(!isRFCOpen(_id))\n            return false;\n    } */\n\n\n\n/*\n    enum RFLState { Pending, Valuated, Issued, Rejected, Cancelled }\n    enum RFCState { Pending, Merged, Reject, Cancelled }\n\n\n    you always call the same function like valuateRFL and automatically delegate it to\n\n\n\n    modifier initializeDecision(address engine, bytes _script) {\n        _;\n        engine.initializeDecision(_id);\n    }\n\n    engine.forward(script, id)\n\n    function submitRFL() {\n\n    }\n\n    the script calculate the id based on the function signature and the first parameter which is supposed to be a bytes32 or uint256 identifier of the proposal in the local contract\n\n    dans le vote on a un truc du jour\n\n    mapping(uint256 => uint256) actionVoteId;\n\n    engine.getVoteId(script)\n\n\n    forward {\n        extract signature, and then first param is supposed to be a bytes32 identifier of the proposal)\n\n        et l'identifiant c'est selector | bytes32 identifier (bitwise OR)\n    }\n\n\n    // ca on peut le faire client-side -> si tu n'as pas les droits pour sortRequest -> et que il y a un forwarder qui a les droits -> initiate request;\n\n    function submitRFC() initDecision(engine, abi.encodeWithSignature(\"issueRFL(uint256,uint256)\", requestId, 0)) { //id that allows us to find the relation between )) {\n\n        quel est le script qui va tre excut ?\n\n        engineId = sortRFC.selector + concatenate(request)\n\n        requestId = blabla;\n        when you submit RFC it automaticaaly start a vote in the decision engine\n    }\n\n    function valuateRFL(uint256 _id, uint256 _value) external {\n\n    }\n\n    function issueRFL(uint _id, uint)\n\n    function sortRFC(uint256 _id, RFCSorting _sorting) auth(SORT_RFC_ROLE) external {\n        for all RFL dependency if merge => issue if reject cancel\n    }\n\n\n\n    pando.voting.valuateRFC(Id).getdecision;\n\n    forward to */\n\n}\n",
  "sourcePath": "/Users/osarrouy/Documents/dapp/@pando/packages/core/contracts/PandoKit.sol",
  "compiler": {
    "name": "solc",
    "version": "0.4.24+commit.e67f0147.Emscripten.clang"
  },
  "schemaVersion": "2.0.1",
  "updatedAt": "2018-10-05T15:54:56.880Z"
}