{
  "contractName": "PandoRepository",
  "abi": [
    {
      "constant": true,
      "inputs": [],
      "name": "getRecoveryVault",
      "outputs": [
        {
          "name": "",
          "type": "address"
        }
      ],
      "payable": false,
      "stateMutability": "view",
      "type": "function"
    },
    {
      "constant": true,
      "inputs": [],
      "name": "EVMSCRIPT_REGISTRY_APP_ID",
      "outputs": [
        {
          "name": "",
          "type": "bytes32"
        }
      ],
      "payable": false,
      "stateMutability": "view",
      "type": "function"
    },
    {
      "constant": true,
      "inputs": [
        {
          "name": "token",
          "type": "address"
        }
      ],
      "name": "allowRecoverability",
      "outputs": [
        {
          "name": "",
          "type": "bool"
        }
      ],
      "payable": false,
      "stateMutability": "view",
      "type": "function"
    },
    {
      "constant": true,
      "inputs": [],
      "name": "appId",
      "outputs": [
        {
          "name": "",
          "type": "bytes32"
        }
      ],
      "payable": false,
      "stateMutability": "view",
      "type": "function"
    },
    {
      "constant": true,
      "inputs": [],
      "name": "ETH",
      "outputs": [
        {
          "name": "",
          "type": "address"
        }
      ],
      "payable": false,
      "stateMutability": "view",
      "type": "function"
    },
    {
      "constant": true,
      "inputs": [],
      "name": "getInitializationBlock",
      "outputs": [
        {
          "name": "",
          "type": "uint256"
        }
      ],
      "payable": false,
      "stateMutability": "view",
      "type": "function"
    },
    {
      "constant": true,
      "inputs": [],
      "name": "EVMSCRIPT_REGISTRY_APP",
      "outputs": [
        {
          "name": "",
          "type": "bytes32"
        }
      ],
      "payable": false,
      "stateMutability": "view",
      "type": "function"
    },
    {
      "constant": false,
      "inputs": [
        {
          "name": "_token",
          "type": "address"
        }
      ],
      "name": "transferToVault",
      "outputs": [],
      "payable": false,
      "stateMutability": "nonpayable",
      "type": "function"
    },
    {
      "constant": true,
      "inputs": [],
      "name": "FREEZE_BRANCH_ROLE",
      "outputs": [
        {
          "name": "",
          "type": "bytes32"
        }
      ],
      "payable": false,
      "stateMutability": "view",
      "type": "function"
    },
    {
      "constant": true,
      "inputs": [
        {
          "name": "_sender",
          "type": "address"
        },
        {
          "name": "_role",
          "type": "bytes32"
        },
        {
          "name": "_params",
          "type": "uint256[]"
        }
      ],
      "name": "canPerform",
      "outputs": [
        {
          "name": "",
          "type": "bool"
        }
      ],
      "payable": false,
      "stateMutability": "view",
      "type": "function"
    },
    {
      "constant": true,
      "inputs": [],
      "name": "ISSUE_REWARD_ROLE",
      "outputs": [
        {
          "name": "",
          "type": "bytes32"
        }
      ],
      "payable": false,
      "stateMutability": "view",
      "type": "function"
    },
    {
      "constant": true,
      "inputs": [],
      "name": "kernel",
      "outputs": [
        {
          "name": "",
          "type": "address"
        }
      ],
      "payable": false,
      "stateMutability": "view",
      "type": "function"
    },
    {
      "constant": true,
      "inputs": [],
      "name": "CREATE_BRANCH_ROLE",
      "outputs": [
        {
          "name": "",
          "type": "bytes32"
        }
      ],
      "payable": false,
      "stateMutability": "view",
      "type": "function"
    },
    {
      "constant": true,
      "inputs": [
        {
          "name": "_script",
          "type": "bytes"
        }
      ],
      "name": "getExecutor",
      "outputs": [
        {
          "name": "",
          "type": "address"
        }
      ],
      "payable": false,
      "stateMutability": "view",
      "type": "function"
    },
    {
      "anonymous": false,
      "inputs": [
        {
          "indexed": true,
          "name": "branchId",
          "type": "uint256"
        },
        {
          "indexed": false,
          "name": "proxy",
          "type": "address"
        },
        {
          "indexed": false,
          "name": "name",
          "type": "string"
        }
      ],
      "name": "CreateBranch",
      "type": "event"
    },
    {
      "anonymous": false,
      "inputs": [
        {
          "indexed": true,
          "name": "branchId",
          "type": "uint256"
        }
      ],
      "name": "FreezeBranch",
      "type": "event"
    },
    {
      "anonymous": false,
      "inputs": [
        {
          "indexed": true,
          "name": "executor",
          "type": "address"
        },
        {
          "indexed": false,
          "name": "script",
          "type": "bytes"
        },
        {
          "indexed": false,
          "name": "input",
          "type": "bytes"
        },
        {
          "indexed": false,
          "name": "returnData",
          "type": "bytes"
        }
      ],
      "name": "ScriptResult",
      "type": "event"
    },
    {
      "constant": false,
      "inputs": [
        {
          "name": "_tokenManager",
          "type": "address"
        }
      ],
      "name": "initialize",
      "outputs": [],
      "payable": false,
      "stateMutability": "nonpayable",
      "type": "function"
    },
    {
      "constant": false,
      "inputs": [
        {
          "name": "_name",
          "type": "string"
        }
      ],
      "name": "createBranch",
      "outputs": [
        {
          "name": "branchid",
          "type": "uint256"
        }
      ],
      "payable": false,
      "stateMutability": "nonpayable",
      "type": "function"
    },
    {
      "constant": false,
      "inputs": [
        {
          "name": "_receiver",
          "type": "address"
        },
        {
          "name": "_amount",
          "type": "uint256"
        }
      ],
      "name": "reward",
      "outputs": [],
      "payable": false,
      "stateMutability": "nonpayable",
      "type": "function"
    }
  ],
  "bytecode": "0x608060405234801561001057600080fd5b5061143b806100206000396000f3006080604052600436106100f1576000357c0100000000000000000000000000000000000000000000000000000000900463ffffffff16806321670f22146100f657806332f0a3b514610143578063383dce1d1461019a57806360b1e057146101e95780637e7db6e11461021c57806380afdea8146102775780638322fff2146102aa5780638b3dd749146103015780639b3fdf4c1461032c5780639d4941d81461035f578063a1416e8d146103a2578063a1658fad146103d5578063afc290c314610481578063c4d66de8146104b4578063d4aae0c4146104f7578063db4aaeba1461054e578063f92a79ff14610581575b600080fd5b34801561010257600080fd5b50610141600480360381019080803573ffffffffffffffffffffffffffffffffffffffff1690602001909291908035906020019092919050505061062a565b005b34801561014f57600080fd5b5061015861070b565b604051808273ffffffffffffffffffffffffffffffffffffffff1673ffffffffffffffffffffffffffffffffffffffff16815260200191505060405180910390f35b3480156101a657600080fd5b506101d3600480360381019080803590602001908201803590602001919091929391929390505050610818565b6040518082815260200191505060405180910390f35b3480156101f557600080fd5b506101fe6108da565b60405180826000191660001916815260200191505060405180910390f35b34801561022857600080fd5b5061025d600480360381019080803573ffffffffffffffffffffffffffffffffffffffff169060200190929190505050610901565b604051808215151515815260200191505060405180910390f35b34801561028357600080fd5b5061028c61090c565b60405180826000191660001916815260200191505060405180910390f35b3480156102b657600080fd5b506102bf610912565b604051808273ffffffffffffffffffffffffffffffffffffffff1673ffffffffffffffffffffffffffffffffffffffff16815260200191505060405180910390f35b34801561030d57600080fd5b50610316610917565b6040518082815260200191505060405180910390f35b34801561033857600080fd5b50610341610921565b60405180826000191660001916815260200191505060405180910390f35b34801561036b57600080fd5b506103a0600480360381019080803573ffffffffffffffffffffffffffffffffffffffff169060200190929190505050610948565b005b3480156103ae57600080fd5b506103b7610bd2565b60405180826000191660001916815260200191505060405180910390f35b3480156103e157600080fd5b50610467600480360381019080803573ffffffffffffffffffffffffffffffffffffffff169060200190929190803560001916906020019092919080359060200190820180359060200190808060200260200160405190810160405280939291908181526020018383602002808284378201915050505050509192919290505050610c0b565b604051808215151515815260200191505060405180910390f35b34801561048d57600080fd5b50610496610e1d565b60405180826000191660001916815260200191505060405180910390f35b3480156104c057600080fd5b506104f5600480360381019080803573ffffffffffffffffffffffffffffffffffffffff169060200190929190505050610e56565b005b34801561050357600080fd5b5061050c610eb3565b604051808273ffffffffffffffffffffffffffffffffffffffff1673ffffffffffffffffffffffffffffffffffffffff16815260200191505060405180910390f35b34801561055a57600080fd5b50610563610ed8565b60405180826000191660001916815260200191505060405180910390f35b34801561058d57600080fd5b506105e8600480360381019080803590602001908201803590602001908080601f0160208091040260200160405190810160405280939291908181526020018383808284378201915050505050509192919290505050610f11565b604051808273ffffffffffffffffffffffffffffffffffffffff1673ffffffffffffffffffffffffffffffffffffffff16815260200191505060405180910390f35b606460009054906101000a900473ffffffffffffffffffffffffffffffffffffffff1673ffffffffffffffffffffffffffffffffffffffff166340c10f1983836040518363ffffffff167c0100000000000000000000000000000000000000000000000000000000028152600401808373ffffffffffffffffffffffffffffffffffffffff1673ffffffffffffffffffffffffffffffffffffffff16815260200182815260200192505050600060405180830381600087803b1580156106ef57600080fd5b505af1158015610703573d6000803e3d6000fd5b505050505050565b6000806000809054906101000a900473ffffffffffffffffffffffffffffffffffffffff1673ffffffffffffffffffffffffffffffffffffffff161415151561075357600080fd5b6000809054906101000a900473ffffffffffffffffffffffffffffffffffffffff1673ffffffffffffffffffffffffffffffffffffffff166332f0a3b56040518163ffffffff167c0100000000000000000000000000000000000000000000000000000000028152600401602060405180830381600087803b1580156107d857600080fd5b505af11580156107ec573d6000803e3d6000fd5b505050506040513d602081101561080257600080fd5b8101908080519060200190929190505050905090565b600060405180807f4352454154455f4252414e43485f524f4c4500000000000000000000000000008152506012019050604051809103902061088b338260006040519080825280602002602001820160405280156108855781602001602082028038833980820191505090505b50610c0b565b151561089657600080fd5b6108d184848080601f016020809104026020016040519081016040528093929190818152602001838380828437820191505050505050611030565b91505092915050565b7fddbcfd564f642ab5627cf68b9b7d374fb4f8a36e941a75d89c87998cef03bd6160010281565b600060019050919050565b60015481565b600081565b6000600354905090565b7f34f01c17e9be6ddbf2c61f37b5b1fb9f1a090a975006581ad19bda1c4d38287160010281565b60008061095483610901565b151561095f57600080fd5b61096761070b565b915061097282611241565b151561097d57600080fd5b600073ffffffffffffffffffffffffffffffffffffffff168373ffffffffffffffffffffffffffffffffffffffff161415610a15578173ffffffffffffffffffffffffffffffffffffffff166108fc3073ffffffffffffffffffffffffffffffffffffffff16319081150290604051600060405180830381858888f19350505050158015610a0f573d6000803e3d6000fd5b50610bcd565b8273ffffffffffffffffffffffffffffffffffffffff166370a08231306040518263ffffffff167c0100000000000000000000000000000000000000000000000000000000028152600401808273ffffffffffffffffffffffffffffffffffffffff1673ffffffffffffffffffffffffffffffffffffffff168152602001915050602060405180830381600087803b158015610ab057600080fd5b505af1158015610ac4573d6000803e3d6000fd5b505050506040513d6020811015610ada57600080fd5b810190808051906020019092919050505090508273ffffffffffffffffffffffffffffffffffffffff1663a9059cbb83836040518363ffffffff167c0100000000000000000000000000000000000000000000000000000000028152600401808373ffffffffffffffffffffffffffffffffffffffff1673ffffffffffffffffffffffffffffffffffffffff16815260200182815260200192505050602060405180830381600087803b158015610b9057600080fd5b505af1158015610ba4573d6000803e3d6000fd5b505050506040513d6020811015610bba57600080fd5b8101908080519060200190929190505050505b505050565b60405180807f465245455a455f4252414e43485f524f4c4500000000000000000000000000008152506012019050604051809103902081565b6000606060008084511115610c2857602084510290508391508082525b60008060009054906101000a900473ffffffffffffffffffffffffffffffffffffffff1673ffffffffffffffffffffffffffffffffffffffff161480610e1257506000809054906101000a900473ffffffffffffffffffffffffffffffffffffffff1673ffffffffffffffffffffffffffffffffffffffff1663fdef9106873088866040518563ffffffff167c0100000000000000000000000000000000000000000000000000000000028152600401808573ffffffffffffffffffffffffffffffffffffffff1673ffffffffffffffffffffffffffffffffffffffff1681526020018473ffffffffffffffffffffffffffffffffffffffff1673ffffffffffffffffffffffffffffffffffffffff168152602001836000191660001916815260200180602001828103825283818151815260200191508051906020019080838360005b83811015610d87578082015181840152602081019050610d6c565b50505050905090810190601f168015610db45780820380516001836020036101000a031916815260200191505b5095505050505050602060405180830381600087803b158015610dd657600080fd5b505af1158015610dea573d6000803e3d6000fd5b505050506040513d6020811015610e0057600080fd5b81019080805190602001909291905050505b925050509392505050565b60405180807f49535355455f5245574152445f524f4c450000000000000000000000000000008152506011019050604051809103902081565b6000600354141515610e6757600080fd5b610e6f611293565b80606460006101000a81548173ffffffffffffffffffffffffffffffffffffffff021916908373ffffffffffffffffffffffffffffffffffffffff16021790555050565b6000809054906101000a900473ffffffffffffffffffffffffffffffffffffffff1681565b60405180807f4352454154455f4252414e43485f524f4c4500000000000000000000000000008152506012019050604051809103902081565b6000610f1b6112b4565b73ffffffffffffffffffffffffffffffffffffffff166304bf2a7f836040518263ffffffff167c01000000000000000000000000000000000000000000000000000000000281526004018080602001828103825283818151815260200191508051906020019080838360005b83811015610fa2578082015181840152602081019050610f87565b50505050905090810190601f168015610fcf5780820380516001836020036101000a031916815260200191505b5092505050602060405180830381600087803b158015610fee57600080fd5b505af1158015611002573d6000803e3d6000fd5b505050506040513d602081101561101857600080fd5b81019080805190602001909291905050509050919050565b6000606060008060035411151561104657600080fd5b6065805480919060010161105a91906113be565b9250836040516020018082805190602001908083835b6020831015156110955780518252602082019150602081019050602083039250611070565b6001836020036101000a0380198251168184511680821785525050505050509050019150506040516020818303038152906040529150816040518082805190602001908083835b60208310151561110157805182526020820191506020810190506020830392506110dc565b6001836020036101000a03801982511681845116808217855250505050505090500191505060405180910390209050827f292eebf539cb9da267c99b99967d26a2e414648694a68cb8d52b77cf02f38c4660658581548110151561116157fe5b9060005260206000200160009054906101000a900473ffffffffffffffffffffffffffffffffffffffff1686604051808373ffffffffffffffffffffffffffffffffffffffff1673ffffffffffffffffffffffffffffffffffffffff16815260200180602001828103825283818151815260200191508051906020019080838360005b838110156111ff5780820151818401526020810190506111e4565b50505050905090810190601f16801561122c5780820380516001836020036101000a031916815260200191505b50935050505060405180910390a25050919050565b600080600073ffffffffffffffffffffffffffffffffffffffff168373ffffffffffffffffffffffffffffffffffffffff161415611282576000915061128d565b823b90506000811191505b50919050565b60006003541415156112a457600080fd5b6112ac6113b6565b600381905550565b6000806000809054906101000a900473ffffffffffffffffffffffffffffffffffffffff1673ffffffffffffffffffffffffffffffffffffffff166342c71f1d7f34f01c17e9be6ddbf2c61f37b5b1fb9f1a090a975006581ad19bda1c4d3828716001026040518263ffffffff167c0100000000000000000000000000000000000000000000000000000000028152600401808260001916600019168152602001915050602060405180830381600087803b15801561137257600080fd5b505af1158015611386573d6000803e3d6000fd5b505050506040513d602081101561139c57600080fd5b810190808051906020019092919050505090508091505090565b600043905090565b8154818355818111156113e5578183600052602060002091820191016113e491906113ea565b5b505050565b61140c91905b808211156114085760008160009055506001016113f0565b5090565b905600a165627a7a72305820d1e464f43fcb294677fa12a7e1d4e98fcab077dbe1c1b9f4e22bd9b99a44afc90029",
  "source": "pragma solidity ^0.4.18;\n\nimport \"@aragon/os/contracts/kernel/Kernel.sol\";\nimport \"@aragon/apps-token-manager/contracts/TokenManager.sol\";\nimport \"./PandoApp.sol\";\nimport \"./PandoBranch.sol\";\n\n\ncontract PandoRepository is PandoApp {\n    bytes32 constant public CREATE_BRANCH_ROLE = keccak256(\"CREATE_BRANCH_ROLE\");\n    bytes32 constant public FREEZE_BRANCH_ROLE = keccak256(\"FREEZE_BRANCH_ROLE\");\n    bytes32 constant public ISSUE_REWARD_ROLE  = keccak256(\"ISSUE_REWARD_ROLE\");\n\n    TokenManager  internal tokenManager;\n    PandoBranch[] internal branches;\n\n    event CreateBranch(uint256 indexed branchId, address proxy, string name);\n    event FreezeBranch(uint256 indexed branchId);\n\n    function initialize(TokenManager _tokenManager) onlyInit external {\n        initialized();\n        tokenManager = _tokenManager;\n    }\n\n    function createBranch(string _name) auth(CREATE_BRANCH_ROLE) external returns (uint256 branchid) {\n        return _createBranch(_name);\n    }\n\n    function reward(address _receiver, uint256 _amount) /*auth(ISSUE_REWARD_ROLE)*/ external {\n        tokenManager.mint(_receiver, _amount);\n    }\n\n    function _createBranch(string _name) isInitialized internal returns (uint256 branchId) {\n        branchId           = branches.length++;\n        bytes memory test = abi.encodePacked(_name);\n        bytes32 tt = keccak256(test);\n        /* branches[branchId] = PandoBranch(Kernel(kernel).newAppInstance(keccak256(abi.encodePacked(_name)), new PandoBranch())); */\n        /* branches[branchId].initialize(_name); */\n\n        emit CreateBranch(branchId, branches[branchId], _name);\n    }\n}\n",
  "sourcePath": "/Users/osarrouy/Documents/dapp/@pando/packages/core/contracts/PandoRepository.sol",
  "compiler": {
    "name": "solc",
    "version": "0.4.24+commit.e67f0147.Emscripten.clang"
  },
  "schemaVersion": "2.0.0",
  "updatedAt": "2018-08-30T14:12:29.984Z"
}