{
  "contractName": "ScriptHelpers",
  "abi": [
    {
      "constant": true,
      "inputs": [
        {
          "name": "_a",
          "type": "bytes"
        },
        {
          "name": "_b",
          "type": "bytes"
        },
        {
          "name": "_c",
          "type": "address[]"
        }
      ],
      "name": "abiEncode",
      "outputs": [
        {
          "name": "d",
          "type": "bytes"
        }
      ],
      "payable": false,
      "stateMutability": "pure",
      "type": "function"
    }
  ],
  "bytecode": "0x6103a6610030600b82828239805160001a6073146000811461002057610022565bfe5b5030600052607381538281f3007300000000000000000000000000000000000000003014608060405260043610610058576000357c0100000000000000000000000000000000000000000000000000000000900463ffffffff168063137d70261461005d575b600080fd5b610140600480360381019080803590602001908201803590602001908080601f0160208091040260200160405190810160405280939291908181526020018383808284378201915050505050509192919290803590602001908201803590602001908080601f0160208091040260200160405190810160405280939291908181526020018383808284378201915050505050509192919290803590602001908201803590602001908080602002602001604051908101604052809392919081815260200183836020028082843782019150505050505091929192905050506101bb565b6040518080602001828103825283818151815260200191508051906020019080838360005b83811015610180578082015181840152602081019050610165565b50505050905090810190601f1680156101ad5780820380516001836020036101000a031916815260200191505b509250505060405180910390f35b60606101c88484846101d1565b90509392505050565b6060600080600080606093506101e6886102a2565b602002840192506101f6876102a2565b60200283019150610206866102de565b60200282019050806040519080825280601f01601f1916602001820160405280156102405781602001602082028038833980820191505090505b50945083602086015282604086015281606086015261026a856102628a6102ec565b868b516102f6565b61027f85610277896102ec565b858a516102f6565b6102978561028c88610315565b8460208a51026102f6565b505050509392505050565b600080602083518115156102b257fe5b06116102bf5760006102c2565b60015b60ff16602083518115156102d257fe5b04600101019050919050565b600081516001019050919050565b6000819050919050565b6000826020860101905061030e81856020850161031f565b5050505050565b6000819050919050565b6000806000808593508692508491505b602082101515610354578351835260208301925060208401935060208203915061032f565b6001826020036101000a03905080198451168184511681811785525050505050505050505600a165627a7a723058201d38c3b6c606cb3ddc42d8bb0cf9376f7e0e82580f2206ef3d74260d3ce660fd0029",
  "source": "/*\n * SPDX-License-Identitifer:    MIT\n */\n\npragma solidity ^0.4.18;\n\n\nlibrary ScriptHelpers {\n    // To test with JS and compare with actual encoder. Maintaining for reference.\n    // t = function() { return IEVMScriptExecutor.at('0x4bcdd59d6c77774ee7317fc1095f69ec84421e49').contract.execScript.getData(...[].slice.call(arguments)).slice(10).match(/.{1,64}/g) }\n    // run = function() { return ScriptHelpers.new().then(sh => { sh.abiEncode.call(...[].slice.call(arguments)).then(a => console.log(a.slice(2).match(/.{1,64}/g)) ) }) }\n    // This is truly not beautiful but lets no daydream to the day solidity gets reflection features\n\n    function abiEncode(bytes _a, bytes _b, address[] _c) public pure returns (bytes d) {\n        return encode(_a, _b, _c);\n    }\n\n    function encode(bytes memory _a, bytes memory _b, address[] memory _c) internal pure returns (bytes memory d) {\n        // A is positioned after the 3 position words\n        uint256 aPosition = 0x60;\n        uint256 bPosition = aPosition + 32 * abiLength(_a);\n        uint256 cPosition = bPosition + 32 * abiLength(_b);\n        uint256 length = cPosition + 32 * abiLength(_c);\n\n        d = new bytes(length);\n        assembly {\n            // Store positions\n            mstore(add(d, 0x20), aPosition)\n            mstore(add(d, 0x40), bPosition)\n            mstore(add(d, 0x60), cPosition)\n        }\n\n        // Copy memory to correct position\n        copy(d, getPtr(_a), aPosition, _a.length);\n        copy(d, getPtr(_b), bPosition, _b.length);\n        copy(d, getPtr(_c), cPosition, _c.length * 32); // 1 word per address\n    }\n\n    function abiLength(bytes memory _a) internal pure returns (uint256) {\n        // 1 for length +\n        // memory words + 1 if not divisible for 32 to offset word\n        return 1 + (_a.length / 32) + (_a.length % 32 > 0 ? 1 : 0);\n    }\n\n    function abiLength(address[] _a) internal pure returns (uint256) {\n        // 1 for length + 1 per item\n        return 1 + _a.length;\n    }\n\n    function copy(bytes _d, uint256 _src, uint256 _pos, uint256 _length) internal pure {\n        uint dest;\n        assembly {\n            dest := add(add(_d, 0x20), _pos)\n        }\n        memcpy(dest, _src, _length + 32);\n    }\n\n    function getPtr(bytes memory _x) internal pure returns (uint256 ptr) {\n        assembly {\n            ptr := _x\n        }\n    }\n\n    function getPtr(address[] memory _x) internal pure returns (uint256 ptr) {\n        assembly {\n            ptr := _x\n        }\n    }\n\n    function getSpecId(bytes _script) internal pure returns (uint32) {\n        return uint32At(_script, 0);\n    }\n\n    function uint256At(bytes _data, uint256 _location) internal pure returns (uint256 result) {\n        assembly {\n            result := mload(add(_data, add(0x20, _location)))\n        }\n    }\n\n    function addressAt(bytes _data, uint256 _location) internal pure returns (address result) {\n        uint256 word = uint256At(_data, _location);\n\n        assembly {\n            result := div(and(word, 0xffffffffffffffffffffffffffffffffffffffff000000000000000000000000),\n            0x1000000000000000000000000)\n        }\n    }\n\n    function uint32At(bytes _data, uint256 _location) internal pure returns (uint32 result) {\n        uint256 word = uint256At(_data, _location);\n\n        assembly {\n            result := div(and(word, 0xffffffff00000000000000000000000000000000000000000000000000000000),\n            0x100000000000000000000000000000000000000000000000000000000)\n        }\n    }\n\n    function locationOf(bytes _data, uint256 _location) internal pure returns (uint256 result) {\n        assembly {\n            result := add(_data, add(0x20, _location))\n        }\n    }\n\n    function toBytes(bytes4 _sig) internal pure returns (bytes) {\n        bytes memory payload = new bytes(4);\n        assembly { mstore(add(payload, 0x20), _sig) }\n        return payload;\n    }\n\n    function memcpy(uint _dest, uint _src, uint _len) internal pure {\n        uint256 src = _src;\n        uint256 dest = _dest;\n        uint256 len = _len;\n\n        // Copy word-length chunks while possible\n        for (; len >= 32; len -= 32) {\n            assembly {\n                mstore(dest, mload(src))\n            }\n            dest += 32;\n            src += 32;\n        }\n\n        // Copy remaining bytes\n        uint mask = 256 ** (32 - len) - 1;\n        assembly {\n            let srcpart := and(mload(src), not(mask))\n            let destpart := and(mload(dest), mask)\n            mstore(dest, or(destpart, srcpart))\n        }\n    }\n}\n",
  "sourcePath": "@aragon/os/contracts/evmscript/ScriptHelpers.sol",
  "compiler": {
    "name": "solc",
    "version": "0.4.24+commit.e67f0147.Emscripten.clang"
  },
  "schemaVersion": "2.0.0",
  "updatedAt": "2018-09-21T18:46:01.928Z"
}