{
  "contractName": "ScriptHelpers",
  "abi": [
    {
      "constant": true,
      "inputs": [
        {
          "name": "_a",
          "type": "bytes"
        },
        {
          "name": "_b",
          "type": "bytes"
        },
        {
          "name": "_c",
          "type": "address[]"
        }
      ],
      "name": "abiEncode",
      "outputs": [
        {
          "name": "d",
          "type": "bytes"
        }
      ],
      "payable": false,
      "stateMutability": "pure",
      "type": "function"
    }
  ],
  "bytecode": "0x6060604052341561000f57600080fd5b61038e8061001e6000396000f300606060405260043610610041576000357c0100000000000000000000000000000000000000000000000000000000900463ffffffff168063137d702614610046575b600080fd5b610119600480803590602001908201803590602001908080601f0160208091040260200160405190810160405280939291908181526020018383808284378201915050505050509190803590602001908201803590602001908080601f0160208091040260200160405190810160405280939291908181526020018383808284378201915050505050509190803590602001908201803590602001908080602002602001604051908101604052809392919081815260200183836020028082843782019150505050505091905050610194565b6040518080602001828103825283818151815260200191508051906020019080838360005b8381101561015957808201518184015260208101905061013e565b50505050905090810190601f1680156101865780820380516001836020036101000a031916815260200191505b509250505060405180910390f35b61019c61034e565b6101a78484846101b0565b90509392505050565b6101b861034e565b600080600080606093506101cb88610276565b602002840192506101db87610276565b602002830191506101eb866102b2565b60200282019050806040518059106102005750595b9080825280601f01601f1916602001820160405250945083602086015282604086015281606086015261023e856102368a6102c0565b868b516102ca565b6102538561024b896102c0565b858a516102ca565b61026b85610260886102e9565b8460208a51026102ca565b505050509392505050565b6000806020835181151561028657fe5b0611610293576000610296565b60015b60ff16602083518115156102a657fe5b04600101019050919050565b600081516001019050919050565b6000819050919050565b600082602086010190506102e28185602085016102f3565b5050505050565b6000819050919050565b6000806000808593508692508491505b6020821015156103285783518352602083019250602084019350602082039150610303565b6001826020036101000a0390508019845116818451168181178552505050505050505050565b6020604051908101604052806000815250905600a165627a7a7230582020e8adc9b72d61f2fb876a9d85684e21974ea4de5709952fe583f297a52154730029",
  "source": "pragma solidity ^0.4.18;\n\n\nlibrary ScriptHelpers {\n    // To test with JS and compare with actual encoder. Maintaining for reference.\n    // t = function() { return IEVMScriptExecutor.at('0x4bcdd59d6c77774ee7317fc1095f69ec84421e49').contract.execScript.getData(...[].slice.call(arguments)).slice(10).match(/.{1,64}/g) }\n    // run = function() { return ScriptHelpers.new().then(sh => { sh.abiEncode.call(...[].slice.call(arguments)).then(a => console.log(a.slice(2).match(/.{1,64}/g)) ) }) }\n    // This is truly not beautiful but lets no daydream to the day solidity gets reflection features\n\n    function abiEncode(bytes _a, bytes _b, address[] _c) public pure returns (bytes d) {\n        return encode(_a, _b, _c);\n    }\n\n    function encode(bytes memory _a, bytes memory _b, address[] memory _c) internal pure returns (bytes memory d) {\n        // A is positioned after the 3 position words\n        uint256 aPosition = 0x60;\n        uint256 bPosition = aPosition + 32 * abiLength(_a);\n        uint256 cPosition = bPosition + 32 * abiLength(_b);\n        uint256 length = cPosition + 32 * abiLength(_c);\n\n        d = new bytes(length);\n        assembly {\n            // Store positions\n            mstore(add(d, 0x20), aPosition)\n            mstore(add(d, 0x40), bPosition)\n            mstore(add(d, 0x60), cPosition)\n        }\n\n        // Copy memory to correct position\n        copy(d, getPtr(_a), aPosition, _a.length);\n        copy(d, getPtr(_b), bPosition, _b.length);\n        copy(d, getPtr(_c), cPosition, _c.length * 32); // 1 word per address\n    }\n\n    function abiLength(bytes memory _a) internal pure returns (uint256) {\n        // 1 for length +\n        // memory words + 1 if not divisible for 32 to offset word\n        return 1 + (_a.length / 32) + (_a.length % 32 > 0 ? 1 : 0);\n    }\n\n    function abiLength(address[] _a) internal pure returns (uint256) {\n        // 1 for length + 1 per item\n        return 1 + _a.length;\n    }\n\n    function copy(bytes _d, uint256 _src, uint256 _pos, uint256 _length) internal pure {\n        uint dest;\n        assembly {\n            dest := add(add(_d, 0x20), _pos)\n        }\n        memcpy(dest, _src, _length + 32);\n    }\n\n    function getPtr(bytes memory _x) internal pure returns (uint256 ptr) {\n        assembly {\n            ptr := _x\n        }\n    }\n\n    function getPtr(address[] memory _x) internal pure returns (uint256 ptr) {\n        assembly {\n            ptr := _x\n        }\n    }\n\n    function getSpecId(bytes _script) internal pure returns (uint32) {\n        return uint32At(_script, 0);\n    }\n\n    function uint256At(bytes _data, uint256 _location) internal pure returns (uint256 result) {\n        assembly {\n            result := mload(add(_data, add(0x20, _location)))\n        }\n    }\n\n    function addressAt(bytes _data, uint256 _location) internal pure returns (address result) {\n        uint256 word = uint256At(_data, _location);\n\n        assembly {\n            result := div(and(word, 0xffffffffffffffffffffffffffffffffffffffff000000000000000000000000),\n            0x1000000000000000000000000)\n        }\n    }\n\n    function uint32At(bytes _data, uint256 _location) internal pure returns (uint32 result) {\n        uint256 word = uint256At(_data, _location);\n\n        assembly {\n            result := div(and(word, 0xffffffff00000000000000000000000000000000000000000000000000000000),\n            0x100000000000000000000000000000000000000000000000000000000)\n        }\n    }\n\n    function locationOf(bytes _data, uint256 _location) internal pure returns (uint256 result) {\n        assembly {\n            result := add(_data, add(0x20, _location))\n        }\n    }\n\n    function toBytes(bytes4 _sig) internal pure returns (bytes) {\n        bytes memory payload = new bytes(4);\n        assembly { mstore(add(payload, 0x20), _sig) }\n        return payload;\n    }\n\n    function memcpy(uint _dest, uint _src, uint _len) internal pure {\n        uint256 src = _src;\n        uint256 dest = _dest;\n        uint256 len = _len;\n\n        // Copy word-length chunks while possible\n        for (; len >= 32; len -= 32) {\n            assembly {\n                mstore(dest, mload(src))\n            }\n            dest += 32;\n            src += 32;\n        }\n\n        // Copy remaining bytes\n        uint mask = 256 ** (32 - len) - 1;\n        assembly {\n            let srcpart := and(mload(src), not(mask))\n            let destpart := and(mload(dest), mask)\n            mstore(dest, or(destpart, srcpart))\n        }\n    }\n}\n",
  "sourcePath": "@aragon/os/contracts/evmscript/ScriptHelpers.sol",
  "compiler": {
    "name": "solc",
    "version": "0.4.18+commit.9cf6e910.Emscripten.clang"
  },
  "schemaVersion": "1.0.1",
  "updatedAt": "2018-07-26T09:18:09.362Z"
}