{
  "contractName": "ShareVoting",
  "abi": [
    {
      "constant": true,
      "inputs": [],
      "name": "minParticipationPct",
      "outputs": [
        {
          "name": "",
          "type": "uint256"
        }
      ],
      "payable": false,
      "stateMutability": "view",
      "type": "function"
    },
    {
      "constant": true,
      "inputs": [],
      "name": "getRecoveryVault",
      "outputs": [
        {
          "name": "",
          "type": "address"
        }
      ],
      "payable": false,
      "stateMutability": "view",
      "type": "function"
    },
    {
      "constant": true,
      "inputs": [],
      "name": "MODIFY_PARTICIPATION_ROLE",
      "outputs": [
        {
          "name": "",
          "type": "bytes32"
        }
      ],
      "payable": false,
      "stateMutability": "view",
      "type": "function"
    },
    {
      "constant": true,
      "inputs": [],
      "name": "EVMSCRIPT_REGISTRY_APP_ID",
      "outputs": [
        {
          "name": "",
          "type": "bytes32"
        }
      ],
      "payable": false,
      "stateMutability": "view",
      "type": "function"
    },
    {
      "constant": true,
      "inputs": [
        {
          "name": "token",
          "type": "address"
        }
      ],
      "name": "allowRecoverability",
      "outputs": [
        {
          "name": "",
          "type": "bool"
        }
      ],
      "payable": false,
      "stateMutability": "view",
      "type": "function"
    },
    {
      "constant": true,
      "inputs": [],
      "name": "appId",
      "outputs": [
        {
          "name": "",
          "type": "bytes32"
        }
      ],
      "payable": false,
      "stateMutability": "view",
      "type": "function"
    },
    {
      "constant": true,
      "inputs": [],
      "name": "ETH",
      "outputs": [
        {
          "name": "",
          "type": "address"
        }
      ],
      "payable": false,
      "stateMutability": "view",
      "type": "function"
    },
    {
      "constant": true,
      "inputs": [],
      "name": "getInitializationBlock",
      "outputs": [
        {
          "name": "",
          "type": "uint256"
        }
      ],
      "payable": false,
      "stateMutability": "view",
      "type": "function"
    },
    {
      "constant": true,
      "inputs": [],
      "name": "EVMSCRIPT_REGISTRY_APP",
      "outputs": [
        {
          "name": "",
          "type": "bytes32"
        }
      ],
      "payable": false,
      "stateMutability": "view",
      "type": "function"
    },
    {
      "constant": false,
      "inputs": [
        {
          "name": "_token",
          "type": "address"
        }
      ],
      "name": "transferToVault",
      "outputs": [],
      "payable": false,
      "stateMutability": "nonpayable",
      "type": "function"
    },
    {
      "constant": true,
      "inputs": [
        {
          "name": "_sender",
          "type": "address"
        },
        {
          "name": "_role",
          "type": "bytes32"
        },
        {
          "name": "_params",
          "type": "uint256[]"
        }
      ],
      "name": "canPerform",
      "outputs": [
        {
          "name": "",
          "type": "bool"
        }
      ],
      "payable": false,
      "stateMutability": "view",
      "type": "function"
    },
    {
      "constant": true,
      "inputs": [],
      "name": "voteTime",
      "outputs": [
        {
          "name": "",
          "type": "uint64"
        }
      ],
      "payable": false,
      "stateMutability": "view",
      "type": "function"
    },
    {
      "constant": true,
      "inputs": [],
      "name": "CREATE_VOTES_ROLE",
      "outputs": [
        {
          "name": "",
          "type": "bytes32"
        }
      ],
      "payable": false,
      "stateMutability": "view",
      "type": "function"
    },
    {
      "constant": true,
      "inputs": [],
      "name": "kernel",
      "outputs": [
        {
          "name": "",
          "type": "address"
        }
      ],
      "payable": false,
      "stateMutability": "view",
      "type": "function"
    },
    {
      "constant": true,
      "inputs": [
        {
          "name": "_script",
          "type": "bytes"
        }
      ],
      "name": "getExecutor",
      "outputs": [
        {
          "name": "",
          "type": "address"
        }
      ],
      "payable": false,
      "stateMutability": "view",
      "type": "function"
    },
    {
      "constant": true,
      "inputs": [],
      "name": "token",
      "outputs": [
        {
          "name": "",
          "type": "address"
        }
      ],
      "payable": false,
      "stateMutability": "view",
      "type": "function"
    },
    {
      "constant": true,
      "inputs": [],
      "name": "PCT_BASE",
      "outputs": [
        {
          "name": "",
          "type": "uint256"
        }
      ],
      "payable": false,
      "stateMutability": "view",
      "type": "function"
    },
    {
      "anonymous": false,
      "inputs": [
        {
          "indexed": false,
          "name": "value",
          "type": "bytes"
        }
      ],
      "name": "Test",
      "type": "event"
    },
    {
      "anonymous": false,
      "inputs": [
        {
          "indexed": true,
          "name": "voteId",
          "type": "uint256"
        }
      ],
      "name": "StartVote",
      "type": "event"
    },
    {
      "anonymous": false,
      "inputs": [
        {
          "indexed": true,
          "name": "voteId",
          "type": "uint256"
        },
        {
          "indexed": true,
          "name": "voter",
          "type": "address"
        },
        {
          "indexed": false,
          "name": "value",
          "type": "uint256"
        },
        {
          "indexed": false,
          "name": "weight",
          "type": "uint256"
        }
      ],
      "name": "CastVote",
      "type": "event"
    },
    {
      "anonymous": false,
      "inputs": [
        {
          "indexed": true,
          "name": "voteId",
          "type": "uint256"
        }
      ],
      "name": "ExecuteVote",
      "type": "event"
    },
    {
      "anonymous": false,
      "inputs": [
        {
          "indexed": false,
          "name": "minParticipationPct",
          "type": "uint256"
        }
      ],
      "name": "ChangeMinParticipation",
      "type": "event"
    },
    {
      "anonymous": false,
      "inputs": [
        {
          "indexed": true,
          "name": "executor",
          "type": "address"
        },
        {
          "indexed": false,
          "name": "script",
          "type": "bytes"
        },
        {
          "indexed": false,
          "name": "input",
          "type": "bytes"
        },
        {
          "indexed": false,
          "name": "returnData",
          "type": "bytes"
        }
      ],
      "name": "ScriptResult",
      "type": "event"
    },
    {
      "constant": false,
      "inputs": [
        {
          "name": "_token",
          "type": "address"
        },
        {
          "name": "_minParticipationPct",
          "type": "uint256"
        },
        {
          "name": "_voteTime",
          "type": "uint64"
        }
      ],
      "name": "initialize",
      "outputs": [],
      "payable": false,
      "stateMutability": "nonpayable",
      "type": "function"
    },
    {
      "constant": false,
      "inputs": [
        {
          "name": "_minParticipationPct",
          "type": "uint256"
        }
      ],
      "name": "changeMinParticipationPct",
      "outputs": [],
      "payable": false,
      "stateMutability": "nonpayable",
      "type": "function"
    },
    {
      "constant": false,
      "inputs": [
        {
          "name": "_executionScript",
          "type": "bytes"
        },
        {
          "name": "_metadata",
          "type": "string"
        }
      ],
      "name": "newVote",
      "outputs": [
        {
          "name": "voteId",
          "type": "uint256"
        }
      ],
      "payable": false,
      "stateMutability": "nonpayable",
      "type": "function"
    },
    {
      "constant": false,
      "inputs": [
        {
          "name": "_voteId",
          "type": "uint256"
        },
        {
          "name": "_value",
          "type": "uint256"
        },
        {
          "name": "_executesIfDecided",
          "type": "bool"
        }
      ],
      "name": "vote",
      "outputs": [],
      "payable": false,
      "stateMutability": "nonpayable",
      "type": "function"
    },
    {
      "constant": false,
      "inputs": [
        {
          "name": "_voteId",
          "type": "uint256"
        }
      ],
      "name": "executeVote",
      "outputs": [],
      "payable": false,
      "stateMutability": "nonpayable",
      "type": "function"
    },
    {
      "constant": true,
      "inputs": [],
      "name": "isForwarder",
      "outputs": [
        {
          "name": "",
          "type": "bool"
        }
      ],
      "payable": false,
      "stateMutability": "pure",
      "type": "function"
    },
    {
      "constant": false,
      "inputs": [
        {
          "name": "_evmScript",
          "type": "bytes"
        }
      ],
      "name": "forward",
      "outputs": [],
      "payable": false,
      "stateMutability": "nonpayable",
      "type": "function"
    },
    {
      "constant": true,
      "inputs": [
        {
          "name": "_sender",
          "type": "address"
        },
        {
          "name": "_evmCallScript",
          "type": "bytes"
        }
      ],
      "name": "canForward",
      "outputs": [
        {
          "name": "",
          "type": "bool"
        }
      ],
      "payable": false,
      "stateMutability": "view",
      "type": "function"
    },
    {
      "constant": true,
      "inputs": [
        {
          "name": "_voteId",
          "type": "uint256"
        },
        {
          "name": "_voter",
          "type": "address"
        }
      ],
      "name": "canVote",
      "outputs": [
        {
          "name": "",
          "type": "bool"
        }
      ],
      "payable": false,
      "stateMutability": "view",
      "type": "function"
    },
    {
      "constant": true,
      "inputs": [
        {
          "name": "_voteId",
          "type": "uint256"
        }
      ],
      "name": "canExecute",
      "outputs": [
        {
          "name": "",
          "type": "bool"
        }
      ],
      "payable": false,
      "stateMutability": "view",
      "type": "function"
    },
    {
      "constant": true,
      "inputs": [
        {
          "name": "_voteId",
          "type": "uint256"
        }
      ],
      "name": "getVote",
      "outputs": [
        {
          "name": "open",
          "type": "bool"
        },
        {
          "name": "executed",
          "type": "bool"
        },
        {
          "name": "creator",
          "type": "address"
        },
        {
          "name": "startDate",
          "type": "uint64"
        },
        {
          "name": "snapshotBlock",
          "type": "uint256"
        },
        {
          "name": "minParticipation",
          "type": "uint256"
        },
        {
          "name": "totalValue",
          "type": "uint256"
        },
        {
          "name": "totalWeight",
          "type": "uint256"
        },
        {
          "name": "totalVoters",
          "type": "uint256"
        },
        {
          "name": "script",
          "type": "bytes"
        }
      ],
      "payable": false,
      "stateMutability": "view",
      "type": "function"
    },
    {
      "constant": true,
      "inputs": [
        {
          "name": "_voteId",
          "type": "uint256"
        }
      ],
      "name": "getVoteMetadata",
      "outputs": [
        {
          "name": "",
          "type": "string"
        }
      ],
      "payable": false,
      "stateMutability": "view",
      "type": "function"
    },
    {
      "constant": true,
      "inputs": [
        {
          "name": "_voteId",
          "type": "uint256"
        },
        {
          "name": "_voter",
          "type": "address"
        }
      ],
      "name": "getVoterState",
      "outputs": [
        {
          "name": "",
          "type": "uint256"
        }
      ],
      "payable": false,
      "stateMutability": "view",
      "type": "function"
    }
  ],
  "bytecode": "0x608060405234801561001057600080fd5b50612ef6806100206000396000f300608060405260043610610180576000357c0100000000000000000000000000000000000000000000000000000000900463ffffffff1680631128915c1461018557806332f0a3b5146101b05780634b12311c146102075780634c54b8c1146102685780635a55c1f01461029b57806360b1e057146103c85780636a18ff7a146103fb5780637e7db6e11461043e57806380afdea8146104995780638322fff2146104cc57806385d4a788146105235780638b3dd749146105505780639b3fdf4c1461057b5780639d4941d8146105ae578063a1658fad146105f1578063bcf93dd61461069d578063be2c64d4146106dc578063c05218c61461070f578063c0774df3146107b5578063cc63604a14610856578063cdb2867b1461089b578063d32ce5ae14610900578063d4aae0c414610961578063d5db2c80146109b8578063d948d46814610a1f578063f92a79ff14610a88578063f98a4eca14610b31578063fc0c546a14610b5e578063fc157cb414610bb5578063fd64eccb14610be0575b600080fd5b34801561019157600080fd5b5061019a610c0f565b6040518082815260200191505060405180910390f35b3480156101bc57600080fd5b506101c5610c15565b604051808273ffffffffffffffffffffffffffffffffffffffff1673ffffffffffffffffffffffffffffffffffffffff16815260200191505060405180910390f35b34801561021357600080fd5b5061025260048036038101908080359060200190929190803573ffffffffffffffffffffffffffffffffffffffff169060200190929190505050610d22565b6040518082815260200191505060405180910390f35b34801561027457600080fd5b5061027d610d8a565b60405180826000191660001916815260200191505060405180910390f35b3480156102a757600080fd5b506102c660048036038101908080359060200190929190505050610dc3565b604051808b1515151581526020018a1515151581526020018973ffffffffffffffffffffffffffffffffffffffff1673ffffffffffffffffffffffffffffffffffffffff1681526020018867ffffffffffffffff1667ffffffffffffffff16815260200187815260200186815260200185815260200184815260200183815260200180602001828103825283818151815260200191508051906020019080838360005b83811015610384578082015181840152602081019050610369565b50505050905090810190601f1680156103b15780820380516001836020036101000a031916815260200191505b509b50505050505050505050505060405180910390f35b3480156103d457600080fd5b506103dd610f25565b60405180826000191660001916815260200191505060405180910390f35b34801561040757600080fd5b5061043c6004803603810190808035906020019092919080359060200190929190803515159060200190929190505050610f4c565b005b34801561044a57600080fd5b5061047f600480360381019080803573ffffffffffffffffffffffffffffffffffffffff169060200190929190505050610f83565b604051808215151515815260200191505060405180910390f35b3480156104a557600080fd5b506104ae610f8e565b60405180826000191660001916815260200191505060405180910390f35b3480156104d857600080fd5b506104e1610f94565b604051808273ffffffffffffffffffffffffffffffffffffffff1673ffffffffffffffffffffffffffffffffffffffff16815260200191505060405180910390f35b34801561052f57600080fd5b5061054e60048036038101908080359060200190929190505050610f99565b005b34801561055c57600080fd5b50610565611054565b6040518082815260200191505060405180910390f35b34801561058757600080fd5b5061059061105e565b60405180826000191660001916815260200191505060405180910390f35b3480156105ba57600080fd5b506105ef600480360381019080803573ffffffffffffffffffffffffffffffffffffffff169060200190929190505050611085565b005b3480156105fd57600080fd5b50610683600480360381019080803573ffffffffffffffffffffffffffffffffffffffff16906020019092919080356000191690602001909291908035906020019082018035906020019080806020026020016040519081016040528093929190818152602001838360200280828437820191505050505050919291929050505061130f565b604051808215151515815260200191505060405180910390f35b3480156106a957600080fd5b506106b2611521565b604051808267ffffffffffffffff1667ffffffffffffffff16815260200191505060405180910390f35b3480156106e857600080fd5b506106f161153b565b60405180826000191660001916815260200191505060405180910390f35b34801561071b57600080fd5b5061073a60048036038101908080359060200190929190505050611574565b6040518080602001828103825283818151815260200191508051906020019080838360005b8381101561077a57808201518184015260208101905061075f565b50505050905090810190601f1680156107a75780820380516001836020036101000a031916815260200191505b509250505060405180910390f35b3480156107c157600080fd5b5061083c600480360381019080803573ffffffffffffffffffffffffffffffffffffffff169060200190929190803590602001908201803590602001908080601f0160208091040260200160405190810160405280939291908181526020018383808284378201915050505050509192919290505050611636565b604051808215151515815260200191505060405180910390f35b34801561086257600080fd5b5061088160048036038101908080359060200190929190505050611687565b604051808215151515815260200191505060405180910390f35b3480156108a757600080fd5b506108e660048036038101908080359060200190929190803573ffffffffffffffffffffffffffffffffffffffff169060200190929190505050611736565b604051808215151515815260200191505060405180910390f35b34801561090c57600080fd5b5061095f600480360381019080803573ffffffffffffffffffffffffffffffffffffffff16906020019092919080359060200190929190803567ffffffffffffffff169060200190929190505050611879565b005b34801561096d57600080fd5b50610976611930565b604051808273ffffffffffffffffffffffffffffffffffffffff1673ffffffffffffffffffffffffffffffffffffffff16815260200191505060405180910390f35b3480156109c457600080fd5b50610a09600480360381019080803590602001908201803590602001919091929391929390803590602001908201803590602001919091929391929390505050611955565b6040518082815260200191505060405180910390f35b348015610a2b57600080fd5b50610a86600480360381019080803590602001908201803590602001908080601f0160208091040260200160405190810160405280939291908181526020018383808284378201915050505050509192919290505050611a4c565b005b348015610a9457600080fd5b50610aef600480360381019080803590602001908201803590602001908080601f0160208091040260200160405190810160405280939291908181526020018383808284378201915050505050509192919290505050611a7f565b604051808273ffffffffffffffffffffffffffffffffffffffff1673ffffffffffffffffffffffffffffffffffffffff16815260200191505060405180910390f35b348015610b3d57600080fd5b50610b5c60048036038101908080359060200190929190505050611b9e565b005b348015610b6a57600080fd5b50610b73611bcf565b604051808273ffffffffffffffffffffffffffffffffffffffff1673ffffffffffffffffffffffffffffffffffffffff16815260200191505060405180910390f35b348015610bc157600080fd5b50610bca611bf5565b6040518082815260200191505060405180910390f35b348015610bec57600080fd5b50610bf5611c01565b604051808215151515815260200191505060405180910390f35b60655481565b6000806000809054906101000a900473ffffffffffffffffffffffffffffffffffffffff1673ffffffffffffffffffffffffffffffffffffffff1614151515610c5d57600080fd5b6000809054906101000a900473ffffffffffffffffffffffffffffffffffffffff1673ffffffffffffffffffffffffffffffffffffffff166332f0a3b56040518163ffffffff167c0100000000000000000000000000000000000000000000000000000000028152600401602060405180830381600087803b158015610ce257600080fd5b505af1158015610cf6573d6000803e3d6000fd5b505050506040513d6020811015610d0c57600080fd5b8101908080519060200190929190505050905090565b6000606783815481101515610d3357fe5b90600052602060002090600a020160090160008373ffffffffffffffffffffffffffffffffffffffff1673ffffffffffffffffffffffffffffffffffffffff16815260200190815260200160002054905092915050565b60405180807f4d4f444946595f43414e4449444154455f535550504f52545f524f4c45000000815250601d019050604051809103902081565b60008060008060008060008060006060600060678c815481101515610de457fe5b90600052602060002090600a02019050610dfd81611c0a565b9a508060080160009054906101000a900460ff1699508060000160009054906101000a900473ffffffffffffffffffffffffffffffffffffffff1698508060000160149054906101000a900467ffffffffffffffff1697508060010154965080600201549550806003015494508060040154935080600501549250806007018054600181600116156101000203166002900480601f016020809104026020016040519081016040528092919081815260200182805460018160011615610100020316600290048015610f105780601f10610ee557610100808354040283529160200191610f10565b820191906000526020600020905b815481529060010190602001808311610ef357829003601f168201915b50505050509150509193959799509193959799565b7fddbcfd564f642ab5627cf68b9b7d374fb4f8a36e941a75d89c87998cef03bd6160010281565b6000600354111515610f5d57600080fd5b610f678333611736565b1515610f7257600080fd5b610f7e83833384611c8f565b505050565b600060019050919050565b60015481565b600081565b60405180807f4d4f444946595f43414e4449444154455f535550504f52545f524f4c45000000815250601d0190506040518091039020610fdb82606554611f6f565b610fe633838361130f565b1515610ff157600080fd5b600060035411151561100257600080fd5b60008311151561101157600080fd5b826065819055507f4b360e0e94ca8ee7faf91194866a6d49a3a261e1241aca10c82a28c9269d81bd836040518082815260200191505060405180910390a1505050565b6000600354905090565b7f34f01c17e9be6ddbf2c61f37b5b1fb9f1a090a975006581ad19bda1c4d38287160010281565b60008061109183610f83565b151561109c57600080fd5b6110a4610c15565b91506110af82611fe6565b15156110ba57600080fd5b600073ffffffffffffffffffffffffffffffffffffffff168373ffffffffffffffffffffffffffffffffffffffff161415611152578173ffffffffffffffffffffffffffffffffffffffff166108fc3073ffffffffffffffffffffffffffffffffffffffff16319081150290604051600060405180830381858888f1935050505015801561114c573d6000803e3d6000fd5b5061130a565b8273ffffffffffffffffffffffffffffffffffffffff166370a08231306040518263ffffffff167c0100000000000000000000000000000000000000000000000000000000028152600401808273ffffffffffffffffffffffffffffffffffffffff1673ffffffffffffffffffffffffffffffffffffffff168152602001915050602060405180830381600087803b1580156111ed57600080fd5b505af1158015611201573d6000803e3d6000fd5b505050506040513d602081101561121757600080fd5b810190808051906020019092919050505090508273ffffffffffffffffffffffffffffffffffffffff1663a9059cbb83836040518363ffffffff167c0100000000000000000000000000000000000000000000000000000000028152600401808373ffffffffffffffffffffffffffffffffffffffff1673ffffffffffffffffffffffffffffffffffffffff16815260200182815260200192505050602060405180830381600087803b1580156112cd57600080fd5b505af11580156112e1573d6000803e3d6000fd5b505050506040513d60208110156112f757600080fd5b8101908080519060200190929190505050505b505050565b600060606000808451111561132c57602084510290508391508082525b60008060009054906101000a900473ffffffffffffffffffffffffffffffffffffffff1673ffffffffffffffffffffffffffffffffffffffff16148061151657506000809054906101000a900473ffffffffffffffffffffffffffffffffffffffff1673ffffffffffffffffffffffffffffffffffffffff1663fdef9106873088866040518563ffffffff167c0100000000000000000000000000000000000000000000000000000000028152600401808573ffffffffffffffffffffffffffffffffffffffff1673ffffffffffffffffffffffffffffffffffffffff1681526020018473ffffffffffffffffffffffffffffffffffffffff1673ffffffffffffffffffffffffffffffffffffffff168152602001836000191660001916815260200180602001828103825283818151815260200191508051906020019080838360005b8381101561148b578082015181840152602081019050611470565b50505050905090810190601f1680156114b85780820380516001836020036101000a031916815260200191505b5095505050505050602060405180830381600087803b1580156114da57600080fd5b505af11580156114ee573d6000803e3d6000fd5b505050506040513d602081101561150457600080fd5b81019080805190602001909291905050505b925050509392505050565b606660009054906101000a900467ffffffffffffffff1681565b60405180807f4352454154455f564f5445535f524f4c450000000000000000000000000000008152506011019050604051809103902081565b606060678281548110151561158557fe5b90600052602060002090600a02016006018054600181600116156101000203166002900480601f01602080910402602001604051908101604052809291908181526020018280546001816001161561010002031660029004801561162a5780601f106115ff5761010080835404028352916020019161162a565b820191906000526020600020905b81548152906001019060200180831161160d57829003601f168201915b50505050509050919050565b600061167f8360405180807f4352454154455f564f5445535f524f4c450000000000000000000000000000008152506011019050604051809103902061167a612038565b61130f565b905092915050565b60008060678381548110151561169957fe5b90600052602060002090600a020190508060080160009054906101000a900460ff16156116c95760009150611730565b6116e081600401548260050154836002015461203d565b156116ee5760019150611730565b6116f781611c0a565b156117055760009150611730565b61171c81600401548260050154836002015461203d565b151561172b5760009150611730565b600191505b50919050565b60008060678481548110151561174857fe5b90600052602060002090600a0201905061176181611c0a565b801561187057506000606460009054906101000a900473ffffffffffffffffffffffffffffffffffffffff1673ffffffffffffffffffffffffffffffffffffffff16634ee2cd7e8584600101546040518363ffffffff167c0100000000000000000000000000000000000000000000000000000000028152600401808373ffffffffffffffffffffffffffffffffffffffff1673ffffffffffffffffffffffffffffffffffffffff16815260200182815260200192505050602060405180830381600087803b15801561183357600080fd5b505af1158015611847573d6000803e3d6000fd5b505050506040513d602081101561185d57600080fd5b8101908080519060200190929190505050115b91505092915050565b600060035414151561188a57600080fd5b611892612089565b6000821115156118a157600080fd5b82606460006101000a81548173ffffffffffffffffffffffffffffffffffffffff021916908373ffffffffffffffffffffffffffffffffffffffff1602179055508160658190555080606660006101000a81548167ffffffffffffffff021916908367ffffffffffffffff160217905550600160678181805490500191508161192a9190612c26565b50505050565b6000809054906101000a900473ffffffffffffffffffffffffffffffffffffffff1681565b600060405180807f4352454154455f564f5445535f524f4c45000000000000000000000000000000815250601101905060405180910390206119c8338260006040519080825280602002602001820160405280156119c25781602001602082028038833980820191505090505b5061130f565b15156119d357600080fd5b611a4186868080601f01602080910402602001604051908101604052809392919081815260200183838082843782019150505050505085858080601f0160208091040260200160405190810160405280939291908181526020018383808284378201915050505050506120aa565b915050949350505050565b611a563382611636565b1515611a6157600080fd5b611a7b8160206040519081016040528060008152506120aa565b5050565b6000611a896122bd565b73ffffffffffffffffffffffffffffffffffffffff166304bf2a7f836040518263ffffffff167c01000000000000000000000000000000000000000000000000000000000281526004018080602001828103825283818151815260200191508051906020019080838360005b83811015611b10578082015181840152602081019050611af5565b50505050905090810190601f168015611b3d5780820380516001836020036101000a031916815260200191505b5092505050602060405180830381600087803b158015611b5c57600080fd5b505af1158015611b70573d6000803e3d6000fd5b505050506040513d6020811015611b8657600080fd5b81019080805190602001909291905050509050919050565b6000600354111515611baf57600080fd5b611bb881611687565b1515611bc357600080fd5b611bcc816123bf565b50565b606460009054906101000a900473ffffffffffffffffffffffffffffffffffffffff1681565b670de0b6b3a764000081565b60006001905090565b6000611c57606660009054906101000a900467ffffffffffffffff168360000160149054906101000a900467ffffffffffffffff1667ffffffffffffffff166125a290919063ffffffff16565b67ffffffffffffffff164267ffffffffffffffff16108015611c8857508160080160009054906101000a900460ff16155b9050919050565b6000806000606787815481101515611ca357fe5b90600052602060002090600a02019250606460009054906101000a900473ffffffffffffffffffffffffffffffffffffffff1673ffffffffffffffffffffffffffffffffffffffff16634ee2cd7e8685600101546040518363ffffffff167c0100000000000000000000000000000000000000000000000000000000028152600401808373ffffffffffffffffffffffffffffffffffffffff1673ffffffffffffffffffffffffffffffffffffffff16815260200182815260200192505050602060405180830381600087803b158015611d7c57600080fd5b505af1158015611d90573d6000803e3d6000fd5b505050506040513d6020811015611da657600080fd5b810190808051906020019092919050505091508260090160008673ffffffffffffffffffffffffffffffffffffffff1673ffffffffffffffffffffffffffffffffffffffff168152602001908152602001600020549050600081141515611e5857611e30611e1d83836125d790919063ffffffff16565b846003015461261590919063ffffffff16565b8360030181905550611e4f82846004015461261590919063ffffffff16565b83600401819055505b611e81611e6e83886125d790919063ffffffff16565b846003015461263690919063ffffffff16565b8360030181905550611ea082846004015461263690919063ffffffff16565b8360040181905550858360090160008773ffffffffffffffffffffffffffffffffffffffff1673ffffffffffffffffffffffffffffffffffffffff168152602001908152602001600020819055508473ffffffffffffffffffffffffffffffffffffffff16877f312f8291cc8bf2396d10f4c9ddfcb3215ab094585a104b5aa58a143900abbe198885604051808381526020018281526020019250505060405180910390a3838015611f575750611f5687611687565b5b15611f6657611f65876123bf565b5b50505050505050565b60606002604051908082528060200260200182016040528015611fa15781602001602082028038833980820191505090505b50905082816000815181101515611fb457fe5b906020019060200201818152505081816001815181101515611fd257fe5b906020019060200201818152505092915050565b600080600073ffffffffffffffffffffffffffffffffffffffff168373ffffffffffffffffffffffffffffffffffffffff1614156120275760009150612032565b823b90506000811191505b50919050565b606090565b60008060008414156120525760009150612081565b8361206e670de0b6b3a7640000876125d790919063ffffffff16565b81151561207757fe5b0490508281101591505b509392505050565b600060035414151561209a57600080fd5b6120a2612657565b600381905550565b60008060006003541115156120be57600080fd5b606780548091906001016120d29190612c26565b91506067828154811015156120e357fe5b90600052602060002090600a020190508381600701908051906020019061210b929190612c58565b50338160000160006101000a81548173ffffffffffffffffffffffffffffffffffffffff021916908373ffffffffffffffffffffffffffffffffffffffff160217905550428160000160146101000a81548167ffffffffffffffff021916908367ffffffffffffffff16021790555082816006019080519060200190612192929190612cd8565b50600161219d612657565b038160010181905550606460009054906101000a900473ffffffffffffffffffffffffffffffffffffffff1673ffffffffffffffffffffffffffffffffffffffff1663981b24d082600101546040518263ffffffff167c010000000000000000000000000000000000000000000000000000000002815260040180828152602001915050602060405180830381600087803b15801561223b57600080fd5b505af115801561224f573d6000803e3d6000fd5b505050506040513d602081101561226557600080fd5b810190808051906020019092919050505081600501819055506065548160020181905550817f33c2d6285ba1442f7dd954820743aacec7468bc52e1671024b948f48f132264060405160405180910390a25092915050565b6000806000809054906101000a900473ffffffffffffffffffffffffffffffffffffffff1673ffffffffffffffffffffffffffffffffffffffff166342c71f1d7f34f01c17e9be6ddbf2c61f37b5b1fb9f1a090a975006581ad19bda1c4d3828716001026040518263ffffffff167c0100000000000000000000000000000000000000000000000000000000028152600401808260001916600019168152602001915050602060405180830381600087803b15801561237b57600080fd5b505af115801561238f573d6000803e3d6000fd5b505050506040513d60208110156123a557600080fd5b810190808051906020019092919050505090508091505090565b600080600060606067858154811015156123d557fe5b90600052602060002090600a02019350604092506124048460040154856003015461265f90919063ffffffff16565b9150826040519080825280601f01601f1916602001820160405280156124395781602001602082028038833980820191505090505b50905060018460080160006101000a81548160ff021916908315150217905550836007018054600181600116156101000203166002900480601f0160208091040260200160405190810160405280929190818152602001828054600181600116156101000203166002900480156124f15780601f106124c6576101008083540402835291602001916124f1565b820191906000526020600020905b8154815290600101906020018083116124d457829003601f168201915b5050505050905081604082015261256d8160006040519080825280601f01601f1916602001820160405280156125365781602001602082028038833980820191505090505b5060006040519080825280602002602001820160405280156125675781602001602082028038833980820191505090505b50612689565b50847fbf8e2b108bb7c980e08903a8a46527699d5e84905a082d56dacb4150725c8cab60405160405180910390a25050505050565b60008082840190508367ffffffffffffffff168167ffffffffffffffff16101515156125cd57600080fd5b8091505092915050565b60008060008414156125ec576000915061260e565b82840290508284828115156125fd57fe5b0414151561260a57600080fd5b8091505b5092915050565b60008083831115151561262757600080fd5b82840390508091505092915050565b600080828401905083811015151561264d57600080fd5b8091505092915050565b600043905090565b60008060008311151561267157600080fd5b828481151561267c57fe5b0490508091505092915050565b60606000606060008060008060009054906101000a900473ffffffffffffffffffffffffffffffffffffffff16915060015490506126c689611a7f565b9450600073ffffffffffffffffffffffffffffffffffffffff168573ffffffffffffffffffffffffffffffffffffffff161415151561270457600080fd5b61271988888b612a4d9092919063ffffffff16565b93508473ffffffffffffffffffffffffffffffffffffffff1663279cea3590507c01000000000000000000000000000000000000000000000000000000000292508473ffffffffffffffffffffffffffffffffffffffff16837c01000000000000000000000000000000000000000000000000000000009004856040518263ffffffff167c010000000000000000000000000000000000000000000000000000000002815260040180828051906020019080838360005b838110156127eb5780820151818401526020810190506127d0565b50505050905090810190601f1680156128185780820380516001836020036101000a031916815260200191505b50915050600060405180830381865af492505050151561283757600080fd5b61283f612b1e565b95508473ffffffffffffffffffffffffffffffffffffffff167f5229a5dba83a54ae8cb5b51bdd6de9474cacbe9dd332f5185f3a4f4f2e3f4ad98a8a8960405180806020018060200180602001848103845287818151815260200191508051906020019080838360005b838110156128c45780820151818401526020810190506128a9565b50505050905090810190601f1680156128f15780820380516001836020036101000a031916815260200191505b50848103835286818151815260200191508051906020019080838360005b8381101561292a57808201518184015260208101905061290f565b50505050905090810190601f1680156129575780820380516001836020036101000a031916815260200191505b50848103825285818151815260200191508051906020019080838360005b83811015612990578082015181840152602081019050612975565b50505050905090810190601f1680156129bd5780820380516001836020036101000a031916815260200191505b50965050505050505060405180910390a28173ffffffffffffffffffffffffffffffffffffffff166000809054906101000a900473ffffffffffffffffffffffffffffffffffffffff1673ffffffffffffffffffffffffffffffffffffffff16141515612a2957600080fd5b806000191660015460001916141515612a4157600080fd5b50505050509392505050565b606060008060008060609350612a6288612b4e565b60200284019250612a7287612b4e565b60200283019150612a8286612b8a565b60200282019050806040519080825280601f01601f191660200182016040528015612abc5781602001602082028038833980820191505090505b509450836020860152826040860152816060860152612ae685612ade8a612b98565b868b51612ba2565b612afb85612af389612b98565b858a51612ba2565b612b1385612b0888612bc1565b8460208a5102612ba2565b505050509392505050565b60603d8060008114612b45576040519250602082018301604052602082036020843e612b46565b5b505080905090565b60008060208351811515612b5e57fe5b0611612b6b576000612b6e565b60015b60ff1660208351811515612b7e57fe5b04600101019050919050565b600081516001019050919050565b6000819050919050565b60008260208601019050612bba818560208501612bcb565b5050505050565b6000819050919050565b6000806000808593508692508491505b602082101515612c005783518352602083019250602084019350602082039150612bdb565b6001826020036101000a0390508019845116818451168181178552505050505050505050565b815481835581811115612c5357600a0281600a028360005260206000209182019101612c529190612d58565b5b505050565b828054600181600116156101000203166002900490600052602060002090601f016020900481019282601f10612c9957805160ff1916838001178555612cc7565b82800160010185558215612cc7579182015b82811115612cc6578251825591602001919060010190612cab565b5b509050612cd49190612e15565b5090565b828054600181600116156101000203166002900490600052602060002090601f016020900481019282601f10612d1957805160ff1916838001178555612d47565b82800160010185558215612d47579182015b82811115612d46578251825591602001919060010190612d2b565b5b509050612d549190612e15565b5090565b612e1291905b80821115612e0e57600080820160006101000a81549073ffffffffffffffffffffffffffffffffffffffff02191690556000820160146101000a81549067ffffffffffffffff021916905560018201600090556002820160009055600382016000905560048201600090556005820160009055600682016000612de19190612e3a565b600782016000612df19190612e82565b6008820160006101000a81549060ff021916905550600a01612d5e565b5090565b90565b612e3791905b80821115612e33576000816000905550600101612e1b565b5090565b90565b50805460018160011615610100020316600290046000825580601f10612e605750612e7f565b601f016020900490600052602060002090810190612e7e9190612e15565b5b50565b50805460018160011615610100020316600290046000825580601f10612ea85750612ec7565b601f016020900490600052602060002090810190612ec69190612e15565b5b505600a165627a7a72305820c1015102ca3f3c97e82fdca53c8a869bd650afaeae86edc739eb39e81251d95b0029",
  "source": "pragma solidity ^0.4.24;\n\nimport \"@aragon/os/contracts/apps/AragonApp.sol\";\nimport \"@aragon/os/contracts/common/IForwarder.sol\";\nimport \"@aragon/os/contracts/lib/minime/MiniMeToken.sol\";\nimport \"@aragon/os/contracts/lib/zeppelin/math/SafeMath.sol\";\nimport \"@aragon/os/contracts/lib/zeppelin/math/SafeMath64.sol\";\nimport \"@aragon/os/contracts/lib/misc/Migrations.sol\";\n\n\ncontract ShareVoting is IForwarder, AragonApp {\n    using SafeMath for uint256;\n    using SafeMath64 for uint64;\n\n    MiniMeToken public token;\n    uint256 public minParticipationPct;\n    uint64 public voteTime;\n\n    uint256 constant public PCT_BASE = 10 ** 18; // 0% = 0; 1% = 10^16; 100% = 10^18\n\n    bytes32 constant public CREATE_VOTES_ROLE = keccak256(\"CREATE_VOTES_ROLE\");\n    bytes32 constant public MODIFY_PARTICIPATION_ROLE = keccak256(\"MODIFY_CANDIDATE_SUPPORT_ROLE\");\n\n\n    struct Vote {\n        address creator;\n        uint64 startDate;\n        uint256 snapshotBlock;\n        uint256 minParticipationPct;\n        uint256 totalValue;\n        uint256 totalWeight;\n        uint256 totalVoters;\n        string metadata;\n        bytes executionScript;\n        bool executed;\n        mapping (address => uint256) voters;\n    }\n\n    Vote[] internal votes; // first index is 1\n\n    event Test(bytes value);\n    event StartVote(uint256 indexed voteId);\n    event CastVote(uint256 indexed voteId, address indexed voter, uint256 value, uint256 weight);\n    event ExecuteVote(uint256 indexed voteId);\n    event ChangeMinParticipation(uint256 minParticipationPct);\n\n    /**\n    * @notice Initializes ShareVoting app with `_token.symbol(): string` for governance, minimum participation of `(_minParticipationPct - _minParticipationPct % 10^14) / 10^16` and vote durations of `(_voteTime - _voteTime % 86400) / 86400` day `_voteTime >= 172800 ? 's' : ''`\n    * @param _token MiniMeToken Address that will be used as governance token\n    * @param _minParticipationPct Percentage of voters that must participate in a vote for it to succeed (expressed as a 10^18 percentage, eg 10^16 = 1%, 10^18 = 100%)\n    * @param _voteTime Seconds that a vote will be open for token holders to vote (unless enough yeas or nays have been cast to make an early decision)\n    */\n    function initialize(\n        MiniMeToken _token,\n        uint256 _minParticipationPct,\n        uint64 _voteTime\n    ) onlyInit external\n    {\n        initialized();\n\n        require(_minParticipationPct > 0);\n\n        token = _token;\n        minParticipationPct = _minParticipationPct;\n        voteTime = _voteTime;\n\n        votes.length += 1;\n    }\n\n    /**\n    * @notice Change minimum participation percentage to `(_minParticipationPct - _minParticipationPct % 10^16) / 10^14`%\n    * @param _minParticipationPct New minimum participation percentage\n    */\n    function changeMinParticipationPct(uint256 _minParticipationPct) authP(MODIFY_PARTICIPATION_ROLE, arr(_minParticipationPct, minParticipationPct)) isInitialized external {\n        require(_minParticipationPct > 0);\n        minParticipationPct = _minParticipationPct;\n\n        ChangeMinParticipation(_minParticipationPct);\n    }\n\n    /**\n    * @notice Create a new vote about \"`_metadata`\"\n    * @param _executionScript EVM script to be executed on approval\n    * @param _metadata Vote metadata\n    * @return voteId Id for newly created vote\n    */\n    function newVote(bytes _executionScript, string _metadata) auth(CREATE_VOTES_ROLE) external returns (uint256 voteId) {\n        return _newVote(_executionScript, _metadata);\n    }\n\n    /**\n     * @notice Create a new vote about \"`_metadata`\"\n     * @param _executionScript EVM script to be executed on approval\n     * @param _metadata Vote metadata\n     * @param _castVote Whether to also cast newly created vote\n     * @return voteId id for newly created vote\n     */\n    /* function newVote(bytes _executionScript, string _metadata, bool _castVote) auth(CREATE_VOTES_ROLE) external returns (uint256 voteId) {\n        return _newVote(_executionScript, _metadata, _castVote);\n    } */\n\n    /**\n    * @notice Grant a value of `value` in vote #`_voteId`\n    * @param _voteId Id for vote\n    * @param _value Value granted to the proposal\n    * @param _executesIfDecided Whether the vote should execute its action if it becomes decided\n    */\n    function vote(uint256 _voteId, uint256 _value, bool _executesIfDecided) isInitialized external {\n        require(canVote(_voteId, msg.sender));\n\n        _vote(\n            _voteId,\n            _value,\n            msg.sender,\n            _executesIfDecided\n        );\n    }\n\n    /**\n    * @notice Execute the result of vote #`_voteId`\n    * @param _voteId Id for vote\n    */\n    function executeVote(uint256 _voteId) isInitialized external {\n        require(canExecute(_voteId));\n        _executeVote(_voteId);\n    }\n\n    function isForwarder() public pure returns (bool) {\n        return true;\n    }\n\n    /**\n    * @notice Creates a vote to execute the desired action, and casts a support vote\n    * @dev IForwarder interface conformance\n    * @param _evmScript Start vote with script\n    */\n    function forward(bytes _evmScript) public {\n        require(canForward(msg.sender, _evmScript));\n        _newVote(_evmScript, \"\");\n    }\n\n    function canForward(address _sender, bytes _evmCallScript) public view returns (bool) {\n        return canPerform(_sender, CREATE_VOTES_ROLE, arr());\n    }\n\n    function canVote(uint256 _voteId, address _voter) public view returns (bool) {\n        Vote storage vote = votes[_voteId];\n\n        return _isVoteOpen(vote) && token.balanceOfAt(_voter, vote.snapshotBlock) > 0;\n    }\n\n    function canExecute(uint256 _voteId) public view returns (bool) {\n        Vote storage vote = votes[_voteId];\n        if (vote.executed)\n            return false;\n\n        // vote is already decided\n        if (_isValuePct(vote.totalWeight, vote.totalVoters, vote.minParticipationPct))\n            return true;\n\n        // vote ended?\n        if (_isVoteOpen(vote))\n            return false;\n\n        // has minimun participation percentage?\n        if (!_isValuePct(vote.totalWeight, vote.totalVoters, vote.minParticipationPct))\n            return false;\n\n        return true;\n    }\n\n    function getVote(uint256 _voteId) public view returns (bool open, bool executed, address creator, uint64 startDate, uint256 snapshotBlock, uint256 minParticipation, uint256 totalValue, uint256 totalWeight, uint256 totalVoters, bytes script) {\n        Vote storage vote = votes[_voteId];\n\n        open = _isVoteOpen(vote);\n        executed = vote.executed;\n        creator = vote.creator;\n        startDate = vote.startDate;\n        snapshotBlock = vote.snapshotBlock;\n        minParticipation = vote.minParticipationPct;\n        totalValue = vote.totalValue;\n        totalWeight = vote.totalWeight;\n        totalVoters = vote.totalVoters;\n        script = vote.executionScript;\n    }\n\n    /**\n    * @notice `getVoteMetadata` simply pulls the vote metadata out of a vote\n    *         struct and returns the individual value.\n    * @param _voteId The ID of the Vote struct in the `votes` array\n    */\n    function getVoteMetadata(uint256 _voteId) public view returns (string) {\n        return votes[_voteId].metadata;\n    }\n\n\n    /**\n    * @notice `getVoterState` allows a user to get the vote weights for a given\n    *         voter.\n    * @param _voteId The ID of the Vote struct in the `votes` array.\n    * @param _voter The voter whose weights will be returned\n    */\n    function getVoterState(uint256 _voteId, address _voter) public view returns (uint256) {\n        return votes[_voteId].voters[_voter];\n    }\n\n\n    function _newVote(bytes _executionScript, string _metadata) isInitialized internal returns (uint256 voteId) {\n        voteId = votes.length++;\n        Vote storage vote = votes[voteId];\n        vote.executionScript = _executionScript;\n        vote.creator = msg.sender;\n        vote.startDate = uint64(now);\n        vote.metadata = _metadata;\n        vote.snapshotBlock = getBlockNumber() - 1; // avoid double voting in this very block\n        vote.totalVoters = token.totalSupplyAt(vote.snapshotBlock);\n        vote.minParticipationPct = minParticipationPct;\n\n        StartVote(voteId);\n    }\n\n    function _vote(\n        uint256 _voteId,\n        uint256 _value,\n        address _voter,\n        bool _executesIfDecided\n    ) internal\n    {\n        Vote storage vote = votes[_voteId];\n\n        // this could re-enter, though we can assume the governance token is not malicious\n        uint256 voterWeight = token.balanceOfAt(_voter, vote.snapshotBlock);\n        uint256 voterValue = vote.voters[_voter];\n\n        // if voter had previously voted, decrease count\n        if (voterValue != 0) {\n          vote.totalValue = vote.totalValue.sub(voterValue.mul(voterWeight));\n          vote.totalWeight = vote.totalWeight.sub(voterWeight);\n        }\n\n        vote.totalValue = vote.totalValue.add(_value.mul(voterWeight));\n        vote.totalWeight = vote.totalWeight.add(voterWeight);\n        vote.voters[_voter] = _value;\n\n        CastVote(\n            _voteId,\n            _voter,\n            _value,\n            voterWeight\n        );\n\n        if (_executesIfDecided && canExecute(_voteId))\n            _executeVote(_voteId);\n    }\n\n    function _executeVote(uint256 _voteId) internal {\n        Vote storage vote = votes[_voteId];\n        uint256 scriptLength = 64; // 4 (spec) + 20 (address) + 4 (calldataLength) +  32 (input) + 4 (padding from 60 to 64)\n        uint256 value = vote.totalValue.div(vote.totalWeight);\n        bytes memory executionScript = new bytes(scriptLength);\n\n        vote.executed = true;\n        executionScript = vote.executionScript;\n\n        assembly {\n            mstore(add(executionScript, 0x40), value)\n        }\n\n        runScript(executionScript, new bytes(0), new address[](0));\n\n        ExecuteVote(_voteId);\n    }\n\n    function _isVoteOpen(Vote storage vote) internal view returns (bool) {\n        return uint64(now) < vote.startDate.add(voteTime) && !vote.executed;\n    }\n\n    /**\n    * @dev Calculates whether `_value` is at least a percentage `_pct` of `_total`\n    */\n    function _isValuePct(uint256 _value, uint256 _total, uint256 _pct) internal pure returns (bool) {\n        if (_total == 0) {\n            return false;\n        }\n        uint256 computedPct = _value.mul(PCT_BASE) / _total;\n\n        return computedPct >= _pct;\n    }\n\n    // Remettre pure sur isValuePct\n}\n",
  "sourcePath": "/Users/osarrouy/Documents/dapp/@pando/packages/core/contracts/ShareVoting.sol",
  "compiler": {
    "name": "solc",
    "version": "0.4.24+commit.e67f0147.Emscripten.clang"
  },
  "schemaVersion": "2.0.0",
  "updatedAt": "2018-09-21T18:46:01.902Z"
}