{
  "contractName": "ShareVoting",
  "abi": [
    {
      "constant": true,
      "inputs": [],
      "name": "minParticipationPct",
      "outputs": [
        {
          "name": "",
          "type": "uint256"
        }
      ],
      "payable": false,
      "stateMutability": "view",
      "type": "function"
    },
    {
      "constant": true,
      "inputs": [],
      "name": "APP_ADDR_NAMESPACE",
      "outputs": [
        {
          "name": "",
          "type": "bytes32"
        }
      ],
      "payable": false,
      "stateMutability": "view",
      "type": "function"
    },
    {
      "constant": true,
      "inputs": [],
      "name": "getRecoveryVault",
      "outputs": [
        {
          "name": "",
          "type": "address"
        }
      ],
      "payable": false,
      "stateMutability": "view",
      "type": "function"
    },
    {
      "constant": true,
      "inputs": [],
      "name": "MODIFY_PARTICIPATION_ROLE",
      "outputs": [
        {
          "name": "",
          "type": "bytes32"
        }
      ],
      "payable": false,
      "stateMutability": "view",
      "type": "function"
    },
    {
      "constant": true,
      "inputs": [
        {
          "name": "_voteId",
          "type": "uint256"
        }
      ],
      "name": "getVote",
      "outputs": [
        {
          "name": "open",
          "type": "bool"
        },
        {
          "name": "executed",
          "type": "bool"
        },
        {
          "name": "creator",
          "type": "address"
        },
        {
          "name": "startDate",
          "type": "uint64"
        },
        {
          "name": "snapshotBlock",
          "type": "uint256"
        },
        {
          "name": "minParticipation",
          "type": "uint256"
        },
        {
          "name": "totalValue",
          "type": "uint256"
        },
        {
          "name": "totalWeight",
          "type": "uint256"
        },
        {
          "name": "totalVoters",
          "type": "uint256"
        },
        {
          "name": "script",
          "type": "bytes"
        }
      ],
      "payable": false,
      "stateMutability": "view",
      "type": "function"
    },
    {
      "constant": true,
      "inputs": [],
      "name": "EVMSCRIPT_REGISTRY_APP_ID",
      "outputs": [
        {
          "name": "",
          "type": "bytes32"
        }
      ],
      "payable": false,
      "stateMutability": "view",
      "type": "function"
    },
    {
      "constant": false,
      "inputs": [
        {
          "name": "_voteId",
          "type": "uint256"
        },
        {
          "name": "_value",
          "type": "uint256"
        },
        {
          "name": "_executesIfDecided",
          "type": "bool"
        }
      ],
      "name": "vote",
      "outputs": [],
      "payable": false,
      "stateMutability": "nonpayable",
      "type": "function"
    },
    {
      "constant": true,
      "inputs": [
        {
          "name": "token",
          "type": "address"
        }
      ],
      "name": "allowRecoverability",
      "outputs": [
        {
          "name": "",
          "type": "bool"
        }
      ],
      "payable": false,
      "stateMutability": "view",
      "type": "function"
    },
    {
      "constant": true,
      "inputs": [],
      "name": "appId",
      "outputs": [
        {
          "name": "",
          "type": "bytes32"
        }
      ],
      "payable": false,
      "stateMutability": "view",
      "type": "function"
    },
    {
      "constant": true,
      "inputs": [],
      "name": "ETH",
      "outputs": [
        {
          "name": "",
          "type": "address"
        }
      ],
      "payable": false,
      "stateMutability": "view",
      "type": "function"
    },
    {
      "constant": false,
      "inputs": [
        {
          "name": "_minParticipationPct",
          "type": "uint256"
        }
      ],
      "name": "changeMinParticipationPct",
      "outputs": [],
      "payable": false,
      "stateMutability": "nonpayable",
      "type": "function"
    },
    {
      "constant": true,
      "inputs": [],
      "name": "getInitializationBlock",
      "outputs": [
        {
          "name": "",
          "type": "uint256"
        }
      ],
      "payable": false,
      "stateMutability": "view",
      "type": "function"
    },
    {
      "constant": true,
      "inputs": [],
      "name": "EVMSCRIPT_REGISTRY_APP",
      "outputs": [
        {
          "name": "",
          "type": "bytes32"
        }
      ],
      "payable": false,
      "stateMutability": "view",
      "type": "function"
    },
    {
      "constant": false,
      "inputs": [
        {
          "name": "_token",
          "type": "address"
        }
      ],
      "name": "transferToVault",
      "outputs": [],
      "payable": false,
      "stateMutability": "nonpayable",
      "type": "function"
    },
    {
      "constant": true,
      "inputs": [
        {
          "name": "_sender",
          "type": "address"
        },
        {
          "name": "_role",
          "type": "bytes32"
        },
        {
          "name": "params",
          "type": "uint256[]"
        }
      ],
      "name": "canPerform",
      "outputs": [
        {
          "name": "",
          "type": "bool"
        }
      ],
      "payable": false,
      "stateMutability": "view",
      "type": "function"
    },
    {
      "constant": true,
      "inputs": [],
      "name": "voteTime",
      "outputs": [
        {
          "name": "",
          "type": "uint64"
        }
      ],
      "payable": false,
      "stateMutability": "view",
      "type": "function"
    },
    {
      "constant": true,
      "inputs": [],
      "name": "CREATE_VOTES_ROLE",
      "outputs": [
        {
          "name": "",
          "type": "bytes32"
        }
      ],
      "payable": false,
      "stateMutability": "view",
      "type": "function"
    },
    {
      "constant": true,
      "inputs": [
        {
          "name": "_voteId",
          "type": "uint256"
        }
      ],
      "name": "getVoteMetadata",
      "outputs": [
        {
          "name": "",
          "type": "string"
        }
      ],
      "payable": false,
      "stateMutability": "view",
      "type": "function"
    },
    {
      "constant": true,
      "inputs": [
        {
          "name": "_sender",
          "type": "address"
        },
        {
          "name": "_evmCallScript",
          "type": "bytes"
        }
      ],
      "name": "canForward",
      "outputs": [
        {
          "name": "",
          "type": "bool"
        }
      ],
      "payable": false,
      "stateMutability": "view",
      "type": "function"
    },
    {
      "constant": true,
      "inputs": [
        {
          "name": "_voteId",
          "type": "uint256"
        }
      ],
      "name": "canExecute",
      "outputs": [
        {
          "name": "",
          "type": "bool"
        }
      ],
      "payable": false,
      "stateMutability": "view",
      "type": "function"
    },
    {
      "constant": true,
      "inputs": [
        {
          "name": "_voteId",
          "type": "uint256"
        },
        {
          "name": "_voter",
          "type": "address"
        }
      ],
      "name": "canVote",
      "outputs": [
        {
          "name": "",
          "type": "bool"
        }
      ],
      "payable": false,
      "stateMutability": "view",
      "type": "function"
    },
    {
      "constant": false,
      "inputs": [
        {
          "name": "_token",
          "type": "address"
        },
        {
          "name": "_minParticipationPct",
          "type": "uint256"
        },
        {
          "name": "_voteTime",
          "type": "uint64"
        }
      ],
      "name": "initialize",
      "outputs": [],
      "payable": false,
      "stateMutability": "nonpayable",
      "type": "function"
    },
    {
      "constant": true,
      "inputs": [],
      "name": "kernel",
      "outputs": [
        {
          "name": "",
          "type": "address"
        }
      ],
      "payable": false,
      "stateMutability": "view",
      "type": "function"
    },
    {
      "constant": false,
      "inputs": [
        {
          "name": "_executionScript",
          "type": "bytes"
        },
        {
          "name": "_metadata",
          "type": "string"
        }
      ],
      "name": "newVote",
      "outputs": [
        {
          "name": "voteId",
          "type": "uint256"
        }
      ],
      "payable": false,
      "stateMutability": "nonpayable",
      "type": "function"
    },
    {
      "constant": false,
      "inputs": [
        {
          "name": "_evmScript",
          "type": "bytes"
        }
      ],
      "name": "forward",
      "outputs": [],
      "payable": false,
      "stateMutability": "nonpayable",
      "type": "function"
    },
    {
      "constant": true,
      "inputs": [
        {
          "name": "_script",
          "type": "bytes"
        }
      ],
      "name": "getExecutor",
      "outputs": [
        {
          "name": "",
          "type": "address"
        }
      ],
      "payable": false,
      "stateMutability": "view",
      "type": "function"
    },
    {
      "constant": false,
      "inputs": [
        {
          "name": "_voteId",
          "type": "uint256"
        }
      ],
      "name": "executeVote",
      "outputs": [],
      "payable": false,
      "stateMutability": "nonpayable",
      "type": "function"
    },
    {
      "constant": true,
      "inputs": [],
      "name": "token",
      "outputs": [
        {
          "name": "",
          "type": "address"
        }
      ],
      "payable": false,
      "stateMutability": "view",
      "type": "function"
    },
    {
      "constant": true,
      "inputs": [],
      "name": "PCT_BASE",
      "outputs": [
        {
          "name": "",
          "type": "uint256"
        }
      ],
      "payable": false,
      "stateMutability": "view",
      "type": "function"
    },
    {
      "constant": true,
      "inputs": [],
      "name": "isForwarder",
      "outputs": [
        {
          "name": "",
          "type": "bool"
        }
      ],
      "payable": false,
      "stateMutability": "pure",
      "type": "function"
    },
    {
      "anonymous": false,
      "inputs": [
        {
          "indexed": false,
          "name": "value",
          "type": "uint256"
        },
        {
          "indexed": false,
          "name": "total",
          "type": "uint256"
        },
        {
          "indexed": false,
          "name": "pct",
          "type": "uint256"
        }
      ],
      "name": "Test",
      "type": "event"
    },
    {
      "anonymous": false,
      "inputs": [
        {
          "indexed": true,
          "name": "voteId",
          "type": "uint256"
        }
      ],
      "name": "StartVote",
      "type": "event"
    },
    {
      "anonymous": false,
      "inputs": [
        {
          "indexed": true,
          "name": "voteId",
          "type": "uint256"
        },
        {
          "indexed": true,
          "name": "voter",
          "type": "address"
        },
        {
          "indexed": false,
          "name": "value",
          "type": "uint256"
        },
        {
          "indexed": false,
          "name": "weight",
          "type": "uint256"
        }
      ],
      "name": "CastVote",
      "type": "event"
    },
    {
      "anonymous": false,
      "inputs": [
        {
          "indexed": true,
          "name": "voteId",
          "type": "uint256"
        }
      ],
      "name": "ExecuteVote",
      "type": "event"
    },
    {
      "anonymous": false,
      "inputs": [
        {
          "indexed": false,
          "name": "minParticipationPct",
          "type": "uint256"
        }
      ],
      "name": "ChangeMinParticipation",
      "type": "event"
    }
  ],
  "bytecode": "0x6060604052341561000f57600080fd5b612b0d8061001e6000396000f300606060405260043610610180576000357c0100000000000000000000000000000000000000000000000000000000900463ffffffff1680631128915c14610185578063178e6079146101ae57806332f0a3b5146101df5780634c54b8c1146102345780635a55c1f01461026557806360b1e057146103885780636a18ff7a146103b95780637e7db6e1146103f057806380afdea8146104415780638322fff21461047257806385d4a788146104c75780638b3dd749146104ea5780639b3fdf4c146105135780639d4941d814610544578063a1658fad1461057d578063bcf93dd61461061b578063be2c64d414610658578063c05218c614610689578063c0774df314610725578063cc63604a146107b9578063cdb2867b146107f4578063d32ce5ae1461084e578063d4aae0c4146108a3578063d5db2c80146108f8578063d948d4681461094e578063f92a79ff146109ab578063f98a4eca14610a48578063fc0c546a14610a6b578063fc157cb414610ac0578063fd64eccb14610ae9575b600080fd5b341561019057600080fd5b610198610b16565b6040518082815260200191505060405180910390f35b34156101b957600080fd5b6101c1610b1c565b60405180826000191660001916815260200191505060405180910390f35b34156101ea57600080fd5b6101f2610b43565b604051808273ffffffffffffffffffffffffffffffffffffffff1673ffffffffffffffffffffffffffffffffffffffff16815260200191505060405180910390f35b341561023f57600080fd5b610247610c38565b60405180826000191660001916815260200191505060405180910390f35b341561027057600080fd5b6102866004808035906020019091905050610c71565b604051808b1515151581526020018a1515151581526020018973ffffffffffffffffffffffffffffffffffffffff1673ffffffffffffffffffffffffffffffffffffffff1681526020018867ffffffffffffffff1667ffffffffffffffff16815260200187815260200186815260200185815260200184815260200183815260200180602001828103825283818151815260200191508051906020019080838360005b83811015610344578082015181840152602081019050610329565b50505050905090810190601f1680156103715780820380516001836020036101000a031916815260200191505b509b50505050505050505050505060405180910390f35b341561039357600080fd5b61039b610dd9565b60405180826000191660001916815260200191505060405180910390f35b34156103c457600080fd5b6103ee60048080359060200190919080359060200190919080351515906020019091905050610e00565b005b34156103fb57600080fd5b610427600480803573ffffffffffffffffffffffffffffffffffffffff16906020019091905050610e37565b604051808215151515815260200191505060405180910390f35b341561044c57600080fd5b610454610e42565b60405180826000191660001916815260200191505060405180910390f35b341561047d57600080fd5b610485610e48565b604051808273ffffffffffffffffffffffffffffffffffffffff1673ffffffffffffffffffffffffffffffffffffffff16815260200191505060405180910390f35b34156104d257600080fd5b6104e86004808035906020019091905050610e4d565b005b34156104f557600080fd5b6104fd610f08565b6040518082815260200191505060405180910390f35b341561051e57600080fd5b610526610f12565b60405180826000191660001916815260200191505060405180910390f35b341561054f57600080fd5b61057b600480803573ffffffffffffffffffffffffffffffffffffffff16906020019091905050610f39565b005b341561058857600080fd5b610601600480803573ffffffffffffffffffffffffffffffffffffffff16906020019091908035600019169060200190919080359060200190820180359060200190808060200260200160405190810160405280939291908181526020018383602002808284378201915050505050509190505061118c565b604051808215151515815260200191505060405180910390f35b341561062657600080fd5b61062e61138c565b604051808267ffffffffffffffff1667ffffffffffffffff16815260200191505060405180910390f35b341561066357600080fd5b61066b6113a6565b60405180826000191660001916815260200191505060405180910390f35b341561069457600080fd5b6106aa60048080359060200190919050506113df565b6040518080602001828103825283818151815260200191508051906020019080838360005b838110156106ea5780820151818401526020810190506106cf565b50505050905090810190601f1680156107175780820380516001836020036101000a031916815260200191505b509250505060405180910390f35b341561073057600080fd5b61079f600480803573ffffffffffffffffffffffffffffffffffffffff1690602001909190803590602001908201803590602001908080601f016020809104026020016040519081016040528093929190818152602001838380828437820191505050505050919050506114a7565b604051808215151515815260200191505060405180910390f35b34156107c457600080fd5b6107da60048080359060200190919050506114f8565b604051808215151515815260200191505060405180910390f35b34156107ff57600080fd5b610834600480803590602001909190803573ffffffffffffffffffffffffffffffffffffffff169060200190919050506115a7565b604051808215151515815260200191505060405180910390f35b341561085957600080fd5b6108a1600480803573ffffffffffffffffffffffffffffffffffffffff1690602001909190803590602001909190803567ffffffffffffffff169060200190919050506116d2565b005b34156108ae57600080fd5b6108b6611789565b604051808273ffffffffffffffffffffffffffffffffffffffff1673ffffffffffffffffffffffffffffffffffffffff16815260200191505060405180910390f35b341561090357600080fd5b6109386004808035906020019082018035906020019190919290803590602001908201803590602001919091929050506117ae565b6040518082815260200191505060405180910390f35b341561095957600080fd5b6109a9600480803590602001908201803590602001908080601f01602080910402602001604051908101604052809392919081815260200183838082843782019150505050505091905050611894565b005b34156109b657600080fd5b610a06600480803590602001908201803590602001908080601f016020809104026020016040519081016040528093929190818152602001838380828437820191505050505050919050506118c7565b604051808273ffffffffffffffffffffffffffffffffffffffff1673ffffffffffffffffffffffffffffffffffffffff16815260200191505060405180910390f35b3415610a5357600080fd5b610a6960048080359060200190919050506119ce565b005b3415610a7657600080fd5b610a7e6119ff565b604051808273ffffffffffffffffffffffffffffffffffffffff1673ffffffffffffffffffffffffffffffffffffffff16815260200191505060405180910390f35b3415610acb57600080fd5b610ad3611a25565b6040518082815260200191505060405180910390f35b3415610af457600080fd5b610afc611a31565b604051808215151515815260200191505060405180910390f35b60655481565b7fd6f028ca0e8edb4a8c9757ca4fdccab25fa1e0317da1188108f7d2dee14902fb60010281565b6000806000809054906101000a900473ffffffffffffffffffffffffffffffffffffffff1673ffffffffffffffffffffffffffffffffffffffff1614151515610b8b57600080fd5b6000809054906101000a900473ffffffffffffffffffffffffffffffffffffffff1673ffffffffffffffffffffffffffffffffffffffff166332f0a3b56000604051602001526040518163ffffffff167c0100000000000000000000000000000000000000000000000000000000028152600401602060405180830381600087803b1515610c1857600080fd5b6102c65a03f11515610c2957600080fd5b50505060405180519050905090565b60405180807f4d4f444946595f43414e4449444154455f535550504f52545f524f4c45000000815250601d019050604051809103902081565b6000806000806000806000806000610c87612801565b600060678c815481101515610c9857fe5b90600052602060002090600a02019050610cb181611a3a565b9a508060080160009054906101000a900460ff1699508060000160009054906101000a900473ffffffffffffffffffffffffffffffffffffffff1698508060000160149054906101000a900467ffffffffffffffff1697508060010154965080600201549550806003015494508060040154935080600501549250806007018054600181600116156101000203166002900480601f016020809104026020016040519081016040528092919081815260200182805460018160011615610100020316600290048015610dc45780601f10610d9957610100808354040283529160200191610dc4565b820191906000526020600020905b815481529060010190602001808311610da757829003601f168201915b50505050509150509193959799509193959799565b7fddbcfd564f642ab5627cf68b9b7d374fb4f8a36e941a75d89c87998cef03bd6160010281565b6000600354111515610e1157600080fd5b610e1b83336115a7565b1515610e2657600080fd5b610e3283833384611abf565b505050565b600060019050919050565b60015481565b600081565b60405180807f4d4f444946595f43414e4449444154455f535550504f52545f524f4c45000000815250601d0190506040518091039020610e8f82606554611d99565b610e9a33838361118c565b1515610ea557600080fd5b6000600354111515610eb657600080fd5b600083111515610ec557600080fd5b826065819055507f4b360e0e94ca8ee7faf91194866a6d49a3a261e1241aca10c82a28c9269d81bd836040518082815260200191505060405180910390a1505050565b6000600354905090565b7f34f01c17e9be6ddbf2c61f37b5b1fb9f1a090a975006581ad19bda1c4d38287160010281565b600080610f4583610e37565b1515610f5057600080fd5b610f58610b43565b9150610f6382611e05565b1515610f6e57600080fd5b600073ffffffffffffffffffffffffffffffffffffffff168373ffffffffffffffffffffffffffffffffffffffff161415610fff578173ffffffffffffffffffffffffffffffffffffffff166108fc3073ffffffffffffffffffffffffffffffffffffffff16319081150290604051600060405180830381858888f193505050501515610ffa57600080fd5b611187565b8273ffffffffffffffffffffffffffffffffffffffff166370a08231306000604051602001526040518263ffffffff167c0100000000000000000000000000000000000000000000000000000000028152600401808273ffffffffffffffffffffffffffffffffffffffff1673ffffffffffffffffffffffffffffffffffffffff168152602001915050602060405180830381600087803b15156110a257600080fd5b6102c65a03f115156110b357600080fd5b5050506040518051905090508273ffffffffffffffffffffffffffffffffffffffff1663a9059cbb83836000604051602001526040518363ffffffff167c0100000000000000000000000000000000000000000000000000000000028152600401808373ffffffffffffffffffffffffffffffffffffffff1673ffffffffffffffffffffffffffffffffffffffff16815260200182815260200192505050602060405180830381600087803b151561116a57600080fd5b6102c65a03f1151561117b57600080fd5b50505060405180519050505b505050565b6000611196612801565b600080845111156111af57602084510290508391508082525b60008060009054906101000a900473ffffffffffffffffffffffffffffffffffffffff1673ffffffffffffffffffffffffffffffffffffffff16148061138157506000809054906101000a900473ffffffffffffffffffffffffffffffffffffffff1673ffffffffffffffffffffffffffffffffffffffff1663fdef9106873088866000604051602001526040518563ffffffff167c0100000000000000000000000000000000000000000000000000000000028152600401808573ffffffffffffffffffffffffffffffffffffffff1673ffffffffffffffffffffffffffffffffffffffff1681526020018473ffffffffffffffffffffffffffffffffffffffff1673ffffffffffffffffffffffffffffffffffffffff168152602001836000191660001916815260200180602001828103825283818151815260200191508051906020019080838360005b838110156113175780820151818401526020810190506112fc565b50505050905090810190601f1680156113445780820380516001836020036101000a031916815260200191505b5095505050505050602060405180830381600087803b151561136557600080fd5b6102c65a03f1151561137657600080fd5b505050604051805190505b925050509392505050565b606660009054906101000a900467ffffffffffffffff1681565b60405180807f4352454154455f564f5445535f524f4c450000000000000000000000000000008152506011019050604051809103902081565b6113e7612815565b6067828154811015156113f657fe5b90600052602060002090600a02016006018054600181600116156101000203166002900480601f01602080910402602001604051908101604052809291908181526020018280546001816001161561010002031660029004801561149b5780601f106114705761010080835404028352916020019161149b565b820191906000526020600020905b81548152906001019060200180831161147e57829003601f168201915b50505050509050919050565b60006114f08360405180807f4352454154455f564f5445535f524f4c45000000000000000000000000000000815250601101905060405180910390206114eb611e57565b61118c565b905092915050565b60008060678381548110151561150a57fe5b90600052602060002090600a020190508060080160009054906101000a900460ff161561153a57600091506115a1565b611551816004015482600501548360020154611e62565b1561155f57600191506115a1565b61156881611a3a565b1561157657600091506115a1565b61158d816004015482600501548360020154611e62565b151561159c57600091506115a1565b600191505b50919050565b6000806067848154811015156115b957fe5b90600052602060002090600a020190506115d281611a3a565b80156116c957506000606460009054906101000a900473ffffffffffffffffffffffffffffffffffffffff1673ffffffffffffffffffffffffffffffffffffffff16634ee2cd7e8584600101546000604051602001526040518363ffffffff167c0100000000000000000000000000000000000000000000000000000000028152600401808373ffffffffffffffffffffffffffffffffffffffff1673ffffffffffffffffffffffffffffffffffffffff16815260200182815260200192505050602060405180830381600087803b15156116ac57600080fd5b6102c65a03f115156116bd57600080fd5b50505060405180519050115b91505092915050565b60006003541415156116e357600080fd5b6116eb611eae565b6000821115156116fa57600080fd5b82606460006101000a81548173ffffffffffffffffffffffffffffffffffffffff021916908373ffffffffffffffffffffffffffffffffffffffff1602179055508160658190555080606660006101000a81548167ffffffffffffffff021916908367ffffffffffffffff16021790555060016067818180549050019150816117839190612829565b50505050565b6000809054906101000a900473ffffffffffffffffffffffffffffffffffffffff1681565b600060405180807f4352454154455f564f5445535f524f4c4500000000000000000000000000000081525060110190506040518091039020611810338260006040518059106117fa5750595b908082528060200260200182016040525061118c565b151561181b57600080fd5b61188986868080601f01602080910402602001604051908101604052809392919081815260200183838082843782019150505050505085858080601f016020809104026020016040519081016040528093929190818152602001838380828437820191505050505050611ecf565b915050949350505050565b61189e33826114a7565b15156118a957600080fd5b6118c3816020604051908101604052806000815250611ecf565b5050565b60006118d16120ca565b73ffffffffffffffffffffffffffffffffffffffff166304bf2a7f836000604051602001526040518263ffffffff167c01000000000000000000000000000000000000000000000000000000000281526004018080602001828103825283818151815260200191508051906020019080838360005b83811015611961578082015181840152602081019050611946565b50505050905090810190601f16801561198e5780820380516001836020036101000a031916815260200191505b5092505050602060405180830381600087803b15156119ac57600080fd5b6102c65a03f115156119bd57600080fd5b505050604051805190509050919050565b60006003541115156119df57600080fd5b6119e8816114f8565b15156119f357600080fd5b6119fc816121b4565b50565b606460009054906101000a900473ffffffffffffffffffffffffffffffffffffffff1681565b670de0b6b3a764000081565b60006001905090565b6000611a87606660009054906101000a900467ffffffffffffffff168360000160149054906101000a900467ffffffffffffffff1667ffffffffffffffff1661231990919063ffffffff16565b67ffffffffffffffff164267ffffffffffffffff16108015611ab857508160080160009054906101000a900460ff16155b9050919050565b6000806000606787815481101515611ad357fe5b90600052602060002090600a02019250606460009054906101000a900473ffffffffffffffffffffffffffffffffffffffff1673ffffffffffffffffffffffffffffffffffffffff16634ee2cd7e8685600101546000604051602001526040518363ffffffff167c0100000000000000000000000000000000000000000000000000000000028152600401808373ffffffffffffffffffffffffffffffffffffffff1673ffffffffffffffffffffffffffffffffffffffff16815260200182815260200192505050602060405180830381600087803b1515611bb457600080fd5b6102c65a03f11515611bc557600080fd5b5050506040518051905091508260090160008673ffffffffffffffffffffffffffffffffffffffff1673ffffffffffffffffffffffffffffffffffffffff168152602001908152602001600020549050600081141515611c7057611c48611c35838361234e90919063ffffffff16565b846003015461238490919063ffffffff16565b8360030181905550611c6782846004015461238490919063ffffffff16565b83600401819055505b611c99611c86838861234e90919063ffffffff16565b84600301546123a090919063ffffffff16565b8360030181905550611cb88284600401546123a090919063ffffffff16565b8360040181905550611cd3828761234e90919063ffffffff16565b8360090160008773ffffffffffffffffffffffffffffffffffffffff1673ffffffffffffffffffffffffffffffffffffffff168152602001908152602001600020819055508473ffffffffffffffffffffffffffffffffffffffff16877f312f8291cc8bf2396d10f4c9ddfcb3215ab094585a104b5aa58a143900abbe198885604051808381526020018281526020019250505060405180910390a3838015611d815750611d80876114f8565b5b15611d9057611d8f876121b4565b5b50505050505050565b611da161285b565b6002604051805910611db05750595b9080825280602002602001820160405250905082816000815181101515611dd357fe5b906020019060200201818152505081816001815181101515611df157fe5b906020019060200201818152505092915050565b600080600073ffffffffffffffffffffffffffffffffffffffff168373ffffffffffffffffffffffffffffffffffffffff161415611e465760009150611e51565b823b90506000811191505b50919050565b611e5f61285b565b90565b6000806000841415611e775760009150611ea6565b83611e93670de0b6b3a76400008761234e90919063ffffffff16565b811515611e9c57fe5b0490508281101591505b509392505050565b6000600354141515611ebf57600080fd5b611ec76123c1565b600381905550565b6000806000600354111515611ee357600080fd5b60678054809190600101611ef79190612829565b9150606782815481101515611f0857fe5b90600052602060002090600a0201905083816007019080519060200190611f3092919061286f565b50338160000160006101000a81548173ffffffffffffffffffffffffffffffffffffffff021916908373ffffffffffffffffffffffffffffffffffffffff160217905550428160000160146101000a81548167ffffffffffffffff021916908367ffffffffffffffff16021790555082816006019080519060200190611fb79291906128ef565b506001611fc26123c1565b038160010181905550606460009054906101000a900473ffffffffffffffffffffffffffffffffffffffff1673ffffffffffffffffffffffffffffffffffffffff1663981b24d082600101546000604051602001526040518263ffffffff167c010000000000000000000000000000000000000000000000000000000002815260040180828152602001915050602060405180830381600087803b151561206857600080fd5b6102c65a03f1151561207957600080fd5b5050506040518051905081600501819055506065548160020181905550817f33c2d6285ba1442f7dd954820743aacec7468bc52e1671024b948f48f132264060405160405180910390a25092915050565b6000806000809054906101000a900473ffffffffffffffffffffffffffffffffffffffff1673ffffffffffffffffffffffffffffffffffffffff166342c71f1d7f34f01c17e9be6ddbf2c61f37b5b1fb9f1a090a975006581ad19bda1c4d3828716001026000604051602001526040518263ffffffff167c0100000000000000000000000000000000000000000000000000000000028152600401808260001916600019168152602001915050602060405180830381600087803b151561219057600080fd5b6102c65a03f115156121a157600080fd5b5050506040518051905090508091505090565b60006121be612801565b6067838154811015156121cd57fe5b90600052602060002090600a0201915060018260080160006101000a81548160ff02191690831515021790555060006040518059106122095750595b9080825280601f01601f191660200182016040525090506122e6826007018054600181600116156101000203166002900480601f0160208091040260200160405190810160405280929190818152602001828054600181600116156101000203166002900480156122bb5780601f10612290576101008083540402835291602001916122bb565b820191906000526020600020905b81548152906001019060200180831161229e57829003601f168201915b50505050508260006040518059106122d05750595b90808252806020026020018201604052506123c9565b50827fbf8e2b108bb7c980e08903a8a46527699d5e84905a082d56dacb4150725c8cab60405160405180910390a2505050565b60008082840190508367ffffffffffffffff168167ffffffffffffffff161015151561234457600080fd5b8091505092915050565b6000808284029050600084148061236f575082848281151561236c57fe5b04145b151561237a57600080fd5b8091505092915050565b600082821115151561239557600080fd5b818303905092915050565b60008082840190508381101515156123b757600080fd5b8091505092915050565b600043905090565b6123d1612801565b60006123db612801565b60006123e5612801565b6000806000809054906101000a900473ffffffffffffffffffffffffffffffffffffffff169150600154905061241a8a6118c7565b9550600073ffffffffffffffffffffffffffffffffffffffff168673ffffffffffffffffffffffffffffffffffffffff161415151561245857600080fd5b61246d89898c61262d9092919063ffffffff16565b9450600073ffffffffffffffffffffffffffffffffffffffff1663279cea3590507c01000000000000000000000000000000000000000000000000000000000293508573ffffffffffffffffffffffffffffffffffffffff16847c01000000000000000000000000000000000000000000000000000000009004866040518263ffffffff167c010000000000000000000000000000000000000000000000000000000002815260040180828051906020019080838360005b83811015612540578082015181840152602081019050612525565b50505050905090810190601f16801561256d5780820380516001836020036101000a031916815260200191505b509150506000604051808303818661646e5a03f492505050151561259057600080fd5b6125986126f3565b9250600083511115156125aa57600080fd5b8296508173ffffffffffffffffffffffffffffffffffffffff166000809054906101000a900473ffffffffffffffffffffffffffffffffffffffff1673ffffffffffffffffffffffffffffffffffffffff1614151561260857600080fd5b80600019166001546000191614151561262057600080fd5b5050505050509392505050565b612635612801565b6000806000806060935061264888612729565b6020028401925061265887612729565b6020028301915061266886612765565b602002820190508060405180591061267d5750595b9080825280601f01601f191660200182016040525094508360208601528260408601528160608601526126bb856126b38a612773565b868b5161277d565b6126d0856126c889612773565b858a5161277d565b6126e8856126dd8861279c565b8460208a510261277d565b505050509392505050565b6126fb612801565b3d8060008114612720576040519250602082018301604052602082036020843e612721565b5b505080905090565b6000806020835181151561273957fe5b0611612746576000612749565b60015b60ff166020835181151561275957fe5b04600101019050919050565b600081516001019050919050565b6000819050919050565b600082602086010190506127958185602085016127a6565b5050505050565b6000819050919050565b6000806000808593508692508491505b6020821015156127db57835183526020830192506020840193506020820391506127b6565b6001826020036101000a0390508019845116818451168181178552505050505050505050565b602060405190810160405280600081525090565b602060405190810160405280600081525090565b81548183558181151161285657600a0281600a028360005260206000209182019101612855919061296f565b5b505050565b602060405190810160405280600081525090565b828054600181600116156101000203166002900490600052602060002090601f016020900481019282601f106128b057805160ff19168380011785556128de565b828001600101855582156128de579182015b828111156128dd5782518255916020019190600101906128c2565b5b5090506128eb9190612a2c565b5090565b828054600181600116156101000203166002900490600052602060002090601f016020900481019282601f1061293057805160ff191683800117855561295e565b8280016001018555821561295e579182015b8281111561295d578251825591602001919060010190612942565b5b50905061296b9190612a2c565b5090565b612a2991905b80821115612a2557600080820160006101000a81549073ffffffffffffffffffffffffffffffffffffffff02191690556000820160146101000a81549067ffffffffffffffff0219169055600182016000905560028201600090556003820160009055600482016000905560058201600090556006820160006129f89190612a51565b600782016000612a089190612a99565b6008820160006101000a81549060ff021916905550600a01612975565b5090565b90565b612a4e91905b80821115612a4a576000816000905550600101612a32565b5090565b90565b50805460018160011615610100020316600290046000825580601f10612a775750612a96565b601f016020900490600052602060002090810190612a959190612a2c565b5b50565b50805460018160011615610100020316600290046000825580601f10612abf5750612ade565b601f016020900490600052602060002090810190612add9190612a2c565b5b505600a165627a7a723058208c1852b542e677652ad22e753808d9783cea9af0e9eeb32885e36d33ca3a393c0029",
  "source": "pragma solidity 0.4.18;\n\nimport \"@aragon/os/contracts/apps/AragonApp.sol\";\nimport \"@aragon/os/contracts/common/IForwarder.sol\";\nimport \"@aragon/os/contracts/lib/minime/MiniMeToken.sol\";\nimport \"@aragon/os/contracts/lib/zeppelin/math/SafeMath.sol\";\nimport \"@aragon/os/contracts/lib/zeppelin/math/SafeMath64.sol\";\nimport \"@aragon/os/contracts/lib/misc/Migrations.sol\";\n\n\ncontract ShareVoting is IForwarder, AragonApp {\n    using SafeMath for uint256;\n    using SafeMath64 for uint64;\n\n    MiniMeToken public token;\n    uint256 public minParticipationPct;\n    uint64 public voteTime;\n\n    uint256 constant public PCT_BASE = 10 ** 18; // 0% = 0; 1% = 10^16; 100% = 10^18\n\n    bytes32 constant public CREATE_VOTES_ROLE = keccak256(\"CREATE_VOTES_ROLE\");\n    bytes32 constant public MODIFY_PARTICIPATION_ROLE = keccak256(\"MODIFY_CANDIDATE_SUPPORT_ROLE\");\n\n\n    struct Vote {\n        address creator;\n        uint64 startDate;\n        uint256 snapshotBlock;\n        uint256 minParticipationPct;\n        uint256 totalValue;\n        uint256 totalWeight;\n        uint256 totalVoters;\n        string metadata;\n        bytes executionScript;\n        bool executed;\n        mapping (address => uint256) voters;\n    }\n\n    Vote[] internal votes; // first index is 1\n\n    event Test(uint256 value,uint256 total, uint256 pct);\n    event StartVote(uint256 indexed voteId);\n    event CastVote(uint256 indexed voteId, address indexed voter, uint256 value, uint256 weight);\n    event ExecuteVote(uint256 indexed voteId);\n    event ChangeMinParticipation(uint256 minParticipationPct);\n\n    /**\n    * @notice Initializes ShareVoting app with `_token.symbol(): string` for governance, minimum participation of `(_minParticipationPct - _minParticipationPct % 10^14) / 10^16` and vote durations of `(_voteTime - _voteTime % 86400) / 86400` day `_voteTime >= 172800 ? 's' : ''`\n    * @param _token MiniMeToken Address that will be used as governance token\n    * @param _minParticipationPct Percentage of voters that must participate in a vote for it to succeed (expressed as a 10^18 percentage, eg 10^16 = 1%, 10^18 = 100%)\n    * @param _voteTime Seconds that a vote will be open for token holders to vote (unless enough yeas or nays have been cast to make an early decision)\n    */\n    function initialize(\n        MiniMeToken _token,\n        uint256 _minParticipationPct,\n        uint64 _voteTime\n    ) onlyInit external\n    {\n        initialized();\n\n        require(_minParticipationPct > 0);\n\n        token = _token;\n        minParticipationPct = _minParticipationPct;\n        voteTime = _voteTime;\n\n        votes.length += 1;\n    }\n\n    /**\n    * @notice Change minimum participation percentage to `(_minParticipationPct - _minParticipationPct % 10^16) / 10^14`%\n    * @param _minParticipationPct New minimum participation percentage\n    */\n    function changeMinParticipationPct(uint256 _minParticipationPct) authP(MODIFY_PARTICIPATION_ROLE, arr(_minParticipationPct, minParticipationPct)) isInitialized external {\n        require(_minParticipationPct > 0);\n        minParticipationPct = _minParticipationPct;\n\n        ChangeMinParticipation(_minParticipationPct);\n    }\n\n    /**\n    * @notice Create a new vote about \"`_metadata`\"\n    * @param _executionScript EVM script to be executed on approval\n    * @param _metadata Vote metadata\n    * @return voteId Id for newly created vote\n    */\n    function newVote(bytes _executionScript, string _metadata) auth(CREATE_VOTES_ROLE) external returns (uint256 voteId) {\n        return _newVote(_executionScript, _metadata);\n    }\n\n    /**\n     * @notice Create a new vote about \"`_metadata`\"\n     * @param _executionScript EVM script to be executed on approval\n     * @param _metadata Vote metadata\n     * @param _castVote Whether to also cast newly created vote\n     * @return voteId id for newly created vote\n     */\n    /* function newVote(bytes _executionScript, string _metadata, bool _castVote) auth(CREATE_VOTES_ROLE) external returns (uint256 voteId) {\n        return _newVote(_executionScript, _metadata, _castVote);\n    } */\n\n    /**\n    * @notice Grant a value of `value` in vote #`_voteId`\n    * @param _voteId Id for vote\n    * @param _value Value granted to the proposal\n    * @param _executesIfDecided Whether the vote should execute its action if it becomes decided\n    */\n    function vote(uint256 _voteId, uint256 _value, bool _executesIfDecided) isInitialized external {\n        require(canVote(_voteId, msg.sender));\n\n        _vote(\n            _voteId,\n            _value,\n            msg.sender,\n            _executesIfDecided\n        );\n    }\n\n    /**\n    * @notice Execute the result of vote #`_voteId`\n    * @param _voteId Id for vote\n    */\n    function executeVote(uint256 _voteId) isInitialized external {\n        require(canExecute(_voteId));\n        _executeVote(_voteId);\n    }\n\n    function isForwarder() public pure returns (bool) {\n        return true;\n    }\n\n    /**\n    * @notice Creates a vote to execute the desired action, and casts a support vote\n    * @dev IForwarder interface conformance\n    * @param _evmScript Start vote with script\n    */\n    function forward(bytes _evmScript) public {\n        require(canForward(msg.sender, _evmScript));\n        _newVote(_evmScript, \"\");\n    }\n\n    function canForward(address _sender, bytes _evmCallScript) public view returns (bool) {\n        return canPerform(_sender, CREATE_VOTES_ROLE, arr());\n    }\n\n    function canVote(uint256 _voteId, address _voter) public view returns (bool) {\n        Vote storage vote = votes[_voteId];\n\n        return _isVoteOpen(vote) && token.balanceOfAt(_voter, vote.snapshotBlock) > 0;\n    }\n\n    function canExecute(uint256 _voteId) public view returns (bool) {\n        Vote storage vote = votes[_voteId];\n        if (vote.executed)\n            return false;\n\n        // vote is already decided\n        if (_isValuePct(vote.totalWeight, vote.totalVoters, vote.minParticipationPct))\n            return true;\n\n        // vote ended?\n        if (_isVoteOpen(vote))\n            return false;\n\n        // has minimun participation percentage?\n        if (!_isValuePct(vote.totalWeight, vote.totalVoters, vote.minParticipationPct))\n            return false;\n\n        return true;\n    }\n\n    function getVote(uint256 _voteId) public view returns (bool open, bool executed, address creator, uint64 startDate, uint256 snapshotBlock, uint256 minParticipation, uint256 totalValue, uint256 totalWeight, uint256 totalVoters, bytes script) {\n        Vote storage vote = votes[_voteId];\n\n        open = _isVoteOpen(vote);\n        executed = vote.executed;\n        creator = vote.creator;\n        startDate = vote.startDate;\n        snapshotBlock = vote.snapshotBlock;\n        minParticipation = vote.minParticipationPct;\n        totalValue = vote.totalValue;\n        totalWeight = vote.totalWeight;\n        totalVoters = vote.totalVoters;\n        script = vote.executionScript;\n    }\n\n    function getVoteMetadata(uint256 _voteId) public view returns (string) {\n        return votes[_voteId].metadata;\n    }\n\n\n    function _newVote(bytes _executionScript, string _metadata) isInitialized internal returns (uint256 voteId) {\n        voteId = votes.length++;\n        Vote storage vote = votes[voteId];\n        vote.executionScript = _executionScript;\n        vote.creator = msg.sender;\n        vote.startDate = uint64(now);\n        vote.metadata = _metadata;\n        vote.snapshotBlock = getBlockNumber() - 1; // avoid double voting in this very block\n        vote.totalVoters = token.totalSupplyAt(vote.snapshotBlock);\n        vote.minParticipationPct = minParticipationPct;\n\n        StartVote(voteId);\n    }\n\n    function _vote(\n        uint256 _voteId,\n        uint256 _value,\n        address _voter,\n        bool _executesIfDecided\n    ) internal\n    {\n        Vote storage vote = votes[_voteId];\n\n        // this could re-enter, though we can assume the governance token is not malicious\n        uint256 voterWeight = token.balanceOfAt(_voter, vote.snapshotBlock);\n        uint256 voterValue = vote.voters[_voter];\n\n        // if voter had previously voted, decrease count\n        if (voterValue != 0) {\n          vote.totalValue = vote.totalValue.sub(voterValue.mul(voterWeight));\n          vote.totalWeight = vote.totalWeight.sub(voterWeight);\n        }\n\n        vote.totalValue = vote.totalValue.add(_value.mul(voterWeight));\n        vote.totalWeight = vote.totalWeight.add(voterWeight);\n        vote.voters[_voter] = _value.mul(voterWeight);\n\n        CastVote(\n            _voteId,\n            _voter,\n            _value,\n            voterWeight\n        );\n\n        if (_executesIfDecided && canExecute(_voteId))\n            _executeVote(_voteId);\n    }\n\n    function _executeVote(uint256 _voteId) internal {\n        Vote storage vote = votes[_voteId];\n\n        vote.executed = true;\n        // https://github.com/aragon/aragonOS/blob/dev/contracts/evmscript/executors/CallsScript.sol#L18\n        bytes memory input = new bytes(0); // TODO: Consider input for voting scripts\n        runScript(vote.executionScript, input, new address[](0));\n\n        ExecuteVote(_voteId);\n    }\n\n    function _isVoteOpen(Vote storage vote) internal view returns (bool) {\n        return uint64(now) < vote.startDate.add(voteTime) && !vote.executed;\n    }\n\n    /**\n    * @dev Calculates whether `_value` is at least a percentage `_pct` of `_total`\n    */\n    function _isValuePct(uint256 _value, uint256 _total, uint256 _pct) internal pure returns (bool) {\n        if (_total == 0) {\n            return false;\n        }\n        uint256 computedPct = _value.mul(PCT_BASE) / _total;\n\n        return computedPct >= _pct;\n    }\n\n    // Remettre pure sur isValuePct\n}\n",
  "sourcePath": "/Users/osarrouy/Documents/dapp/@pando/packages/core/contracts/ShareVoting.sol",
  "compiler": {
    "name": "solc",
    "version": "0.4.18+commit.9cf6e910.Emscripten.clang"
  },
  "schemaVersion": "1.0.1",
  "updatedAt": "2018-08-22T11:18:50.780Z"
}