{
  "contractName": "Specimen",
  "abi": [
    {
      "constant": true,
      "inputs": [],
      "name": "tokenManager",
      "outputs": [
        {
          "name": "",
          "type": "address"
        }
      ],
      "payable": false,
      "stateMutability": "view",
      "type": "function"
    },
    {
      "constant": true,
      "inputs": [],
      "name": "getRecoveryVault",
      "outputs": [
        {
          "name": "",
          "type": "address"
        }
      ],
      "payable": false,
      "stateMutability": "view",
      "type": "function"
    },
    {
      "constant": true,
      "inputs": [],
      "name": "EVMSCRIPT_REGISTRY_APP_ID",
      "outputs": [
        {
          "name": "",
          "type": "bytes32"
        }
      ],
      "payable": false,
      "stateMutability": "view",
      "type": "function"
    },
    {
      "constant": true,
      "inputs": [
        {
          "name": "token",
          "type": "address"
        }
      ],
      "name": "allowRecoverability",
      "outputs": [
        {
          "name": "",
          "type": "bool"
        }
      ],
      "payable": false,
      "stateMutability": "view",
      "type": "function"
    },
    {
      "constant": true,
      "inputs": [],
      "name": "appId",
      "outputs": [
        {
          "name": "",
          "type": "bytes32"
        }
      ],
      "payable": false,
      "stateMutability": "view",
      "type": "function"
    },
    {
      "constant": true,
      "inputs": [],
      "name": "ETH",
      "outputs": [
        {
          "name": "",
          "type": "address"
        }
      ],
      "payable": false,
      "stateMutability": "view",
      "type": "function"
    },
    {
      "constant": true,
      "inputs": [],
      "name": "getInitializationBlock",
      "outputs": [
        {
          "name": "",
          "type": "uint256"
        }
      ],
      "payable": false,
      "stateMutability": "view",
      "type": "function"
    },
    {
      "constant": true,
      "inputs": [],
      "name": "EVMSCRIPT_REGISTRY_APP",
      "outputs": [
        {
          "name": "",
          "type": "bytes32"
        }
      ],
      "payable": false,
      "stateMutability": "view",
      "type": "function"
    },
    {
      "constant": false,
      "inputs": [
        {
          "name": "_token",
          "type": "address"
        }
      ],
      "name": "transferToVault",
      "outputs": [],
      "payable": false,
      "stateMutability": "nonpayable",
      "type": "function"
    },
    {
      "constant": true,
      "inputs": [],
      "name": "FREEZE_BRANCH_ROLE",
      "outputs": [
        {
          "name": "",
          "type": "bytes32"
        }
      ],
      "payable": false,
      "stateMutability": "view",
      "type": "function"
    },
    {
      "constant": true,
      "inputs": [
        {
          "name": "_sender",
          "type": "address"
        },
        {
          "name": "_role",
          "type": "bytes32"
        },
        {
          "name": "_params",
          "type": "uint256[]"
        }
      ],
      "name": "canPerform",
      "outputs": [
        {
          "name": "",
          "type": "bool"
        }
      ],
      "payable": false,
      "stateMutability": "view",
      "type": "function"
    },
    {
      "constant": true,
      "inputs": [],
      "name": "ISSUE_REWARD_ROLE",
      "outputs": [
        {
          "name": "",
          "type": "bytes32"
        }
      ],
      "payable": false,
      "stateMutability": "view",
      "type": "function"
    },
    {
      "constant": true,
      "inputs": [],
      "name": "kernel",
      "outputs": [
        {
          "name": "",
          "type": "address"
        }
      ],
      "payable": false,
      "stateMutability": "view",
      "type": "function"
    },
    {
      "constant": true,
      "inputs": [],
      "name": "CREATE_BRANCH_ROLE",
      "outputs": [
        {
          "name": "",
          "type": "bytes32"
        }
      ],
      "payable": false,
      "stateMutability": "view",
      "type": "function"
    },
    {
      "constant": true,
      "inputs": [
        {
          "name": "_script",
          "type": "bytes"
        }
      ],
      "name": "getExecutor",
      "outputs": [
        {
          "name": "",
          "type": "address"
        }
      ],
      "payable": false,
      "stateMutability": "view",
      "type": "function"
    },
    {
      "anonymous": false,
      "inputs": [
        {
          "indexed": true,
          "name": "branchId",
          "type": "uint256"
        },
        {
          "indexed": false,
          "name": "proxy",
          "type": "address"
        },
        {
          "indexed": false,
          "name": "name",
          "type": "string"
        }
      ],
      "name": "CreateBranch",
      "type": "event"
    },
    {
      "anonymous": false,
      "inputs": [
        {
          "indexed": true,
          "name": "branchId",
          "type": "uint256"
        }
      ],
      "name": "FreezeBranch",
      "type": "event"
    },
    {
      "anonymous": false,
      "inputs": [
        {
          "indexed": true,
          "name": "receiver",
          "type": "address"
        },
        {
          "indexed": false,
          "name": "amount",
          "type": "uint256"
        }
      ],
      "name": "IssueReward",
      "type": "event"
    },
    {
      "anonymous": false,
      "inputs": [
        {
          "indexed": true,
          "name": "executor",
          "type": "address"
        },
        {
          "indexed": false,
          "name": "script",
          "type": "bytes"
        },
        {
          "indexed": false,
          "name": "input",
          "type": "bytes"
        },
        {
          "indexed": false,
          "name": "returnData",
          "type": "bytes"
        }
      ],
      "name": "ScriptResult",
      "type": "event"
    },
    {
      "constant": false,
      "inputs": [
        {
          "name": "_tokenManager",
          "type": "address"
        }
      ],
      "name": "initialize",
      "outputs": [],
      "payable": false,
      "stateMutability": "nonpayable",
      "type": "function"
    },
    {
      "constant": false,
      "inputs": [
        {
          "name": "_name",
          "type": "string"
        },
        {
          "name": "_kit",
          "type": "address"
        },
        {
          "name": "_parameters",
          "type": "bytes"
        }
      ],
      "name": "createBranch",
      "outputs": [
        {
          "name": "branchId",
          "type": "uint256"
        }
      ],
      "payable": false,
      "stateMutability": "nonpayable",
      "type": "function"
    },
    {
      "constant": false,
      "inputs": [
        {
          "name": "_receiver",
          "type": "address"
        },
        {
          "name": "_amount",
          "type": "uint256"
        }
      ],
      "name": "issueReward",
      "outputs": [],
      "payable": false,
      "stateMutability": "nonpayable",
      "type": "function"
    },
    {
      "constant": true,
      "inputs": [
        {
          "name": "_sender",
          "type": "address"
        },
        {
          "name": "_name",
          "type": "string"
        }
      ],
      "name": "canCreateBranch",
      "outputs": [
        {
          "name": "",
          "type": "bool"
        }
      ],
      "payable": false,
      "stateMutability": "view",
      "type": "function"
    },
    {
      "constant": true,
      "inputs": [
        {
          "name": "_sender",
          "type": "address"
        }
      ],
      "name": "canIssueReward",
      "outputs": [
        {
          "name": "",
          "type": "bool"
        }
      ],
      "payable": false,
      "stateMutability": "view",
      "type": "function"
    },
    {
      "constant": true,
      "inputs": [
        {
          "name": "_branchId",
          "type": "uint256"
        }
      ],
      "name": "getBranch",
      "outputs": [
        {
          "name": "proxy",
          "type": "address"
        }
      ],
      "payable": false,
      "stateMutability": "view",
      "type": "function"
    },
    {
      "constant": true,
      "inputs": [],
      "name": "getBranches",
      "outputs": [
        {
          "name": "proxies",
          "type": "address[]"
        }
      ],
      "payable": false,
      "stateMutability": "view",
      "type": "function"
    }
  ],
  "bytecode": "0x608060405234801561001057600080fd5b50615537806100206000396000f300608060405260043610610128576000357c0100000000000000000000000000000000000000000000000000000000900463ffffffff1680632a709b141461012d57806332f0a3b51461018457806339473619146101db5780634c7b5cc31461027c57806360b1e057146103035780637e7db6e11461033657806380afdea8146103915780638322fff2146103c45780638b3dd7491461041b578063927a11b6146104465780639b3fdf4c146104b35780639d4941d8146104e6578063a1416e8d14610529578063a1658fad1461055c578063afc290c314610608578063c33878581461063b578063c4d66de8146106a7578063d04b6f2c146106ea578063d4aae0c414610745578063d57140911461079c578063db4aaeba146107e9578063f92a79ff1461081c575b600080fd5b34801561013957600080fd5b506101426108c5565b604051808273ffffffffffffffffffffffffffffffffffffffff1673ffffffffffffffffffffffffffffffffffffffff16815260200191505060405180910390f35b34801561019057600080fd5b506101996108eb565b604051808273ffffffffffffffffffffffffffffffffffffffff1673ffffffffffffffffffffffffffffffffffffffff16815260200191505060405180910390f35b3480156101e757600080fd5b50610262600480360381019080803573ffffffffffffffffffffffffffffffffffffffff169060200190929190803590602001908201803590602001908080601f01602080910402602001604051908101604052809392919081815260200183838082843782019150505050505091929192905050506109f8565b604051808215151515815260200191505060405180910390f35b34801561028857600080fd5b506102ed600480360381019080803590602001908201803590602001919091929391929390803573ffffffffffffffffffffffffffffffffffffffff169060200190929190803590602001908201803590602001919091929391929390505050610a49565b6040518082815260200191505060405180910390f35b34801561030f57600080fd5b50610318610b0c565b60405180826000191660001916815260200191505060405180910390f35b34801561034257600080fd5b50610377600480360381019080803573ffffffffffffffffffffffffffffffffffffffff169060200190929190505050610b33565b604051808215151515815260200191505060405180910390f35b34801561039d57600080fd5b506103a6610b3e565b60405180826000191660001916815260200191505060405180910390f35b3480156103d057600080fd5b506103d9610b44565b604051808273ffffffffffffffffffffffffffffffffffffffff1673ffffffffffffffffffffffffffffffffffffffff16815260200191505060405180910390f35b34801561042757600080fd5b50610430610b49565b6040518082815260200191505060405180910390f35b34801561045257600080fd5b5061047160048036038101908080359060200190929190505050610b53565b604051808273ffffffffffffffffffffffffffffffffffffffff1673ffffffffffffffffffffffffffffffffffffffff16815260200191505060405180910390f35b3480156104bf57600080fd5b506104c8610b96565b60405180826000191660001916815260200191505060405180910390f35b3480156104f257600080fd5b50610527600480360381019080803573ffffffffffffffffffffffffffffffffffffffff169060200190929190505050610bbd565b005b34801561053557600080fd5b5061053e610e47565b60405180826000191660001916815260200191505060405180910390f35b34801561056857600080fd5b506105ee600480360381019080803573ffffffffffffffffffffffffffffffffffffffff169060200190929190803560001916906020019092919080359060200190820180359060200190808060200260200160405190810160405280939291908181526020018383602002808284378201915050505050509192919290505050610e80565b604051808215151515815260200191505060405180910390f35b34801561061457600080fd5b5061061d611092565b60405180826000191660001916815260200191505060405180910390f35b34801561064757600080fd5b506106506110cb565b6040518080602001828103825283818151815260200191508051906020019060200280838360005b83811015610693578082015181840152602081019050610678565b505050509050019250505060405180910390f35b3480156106b357600080fd5b506106e8600480360381019080803573ffffffffffffffffffffffffffffffffffffffff16906020019092919050505061117c565b005b3480156106f657600080fd5b5061072b600480360381019080803573ffffffffffffffffffffffffffffffffffffffff1690602001909291905050506111d9565b604051808215151515815260200191505060405180910390f35b34801561075157600080fd5b5061075a611229565b604051808273ffffffffffffffffffffffffffffffffffffffff1673ffffffffffffffffffffffffffffffffffffffff16815260200191505060405180910390f35b3480156107a857600080fd5b506107e7600480360381019080803573ffffffffffffffffffffffffffffffffffffffff1690602001909291908035906020019092919050505061124e565b005b3480156107f557600080fd5b506107fe611270565b60405180826000191660001916815260200191505060405180910390f35b34801561082857600080fd5b50610883600480360381019080803590602001908201803590602001908080601f01602080910402602001604051908101604052809392919081815260200183838082843782019150505050505091929192905050506112a9565b604051808273ffffffffffffffffffffffffffffffffffffffff1673ffffffffffffffffffffffffffffffffffffffff16815260200191505060405180910390f35b606460009054906101000a900473ffffffffffffffffffffffffffffffffffffffff1681565b6000806000809054906101000a900473ffffffffffffffffffffffffffffffffffffffff1673ffffffffffffffffffffffffffffffffffffffff161415151561093357600080fd5b6000809054906101000a900473ffffffffffffffffffffffffffffffffffffffff1673ffffffffffffffffffffffffffffffffffffffff166332f0a3b56040518163ffffffff167c0100000000000000000000000000000000000000000000000000000000028152600401602060405180830381600087803b1580156109b857600080fd5b505af11580156109cc573d6000803e3d6000fd5b505050506040513d60208110156109e257600080fd5b8101908080519060200190929190505050905090565b6000610a418360405180807f4352454154455f4252414e43485f524f4c45000000000000000000000000000081525060120190506040518091039020610a3c6113c8565b610e80565b905092915050565b6000610a873387878080601f0160208091040260200160405190810160405280939291908181526020018383808284378201915050505050506109f8565b1515610a9257600080fd5b610b0186868080601f0160208091040260200160405190810160405280939291908181526020018383808284378201915050505050508585858080601f0160208091040260200160405190810160405280939291908181526020018383808284378201915050505050506113cd565b905095945050505050565b7fddbcfd564f642ab5627cf68b9b7d374fb4f8a36e941a75d89c87998cef03bd6160010281565b600060019050919050565b60015481565b600081565b6000600354905090565b6000606582815481101515610b6457fe5b9060005260206000200160009054906101000a900473ffffffffffffffffffffffffffffffffffffffff169050919050565b7f34f01c17e9be6ddbf2c61f37b5b1fb9f1a090a975006581ad19bda1c4d38287160010281565b600080610bc983610b33565b1515610bd457600080fd5b610bdc6108eb565b9150610be782611c3b565b1515610bf257600080fd5b600073ffffffffffffffffffffffffffffffffffffffff168373ffffffffffffffffffffffffffffffffffffffff161415610c8a578173ffffffffffffffffffffffffffffffffffffffff166108fc3073ffffffffffffffffffffffffffffffffffffffff16319081150290604051600060405180830381858888f19350505050158015610c84573d6000803e3d6000fd5b50610e42565b8273ffffffffffffffffffffffffffffffffffffffff166370a08231306040518263ffffffff167c0100000000000000000000000000000000000000000000000000000000028152600401808273ffffffffffffffffffffffffffffffffffffffff1673ffffffffffffffffffffffffffffffffffffffff168152602001915050602060405180830381600087803b158015610d2557600080fd5b505af1158015610d39573d6000803e3d6000fd5b505050506040513d6020811015610d4f57600080fd5b810190808051906020019092919050505090508273ffffffffffffffffffffffffffffffffffffffff1663a9059cbb83836040518363ffffffff167c0100000000000000000000000000000000000000000000000000000000028152600401808373ffffffffffffffffffffffffffffffffffffffff1673ffffffffffffffffffffffffffffffffffffffff16815260200182815260200192505050602060405180830381600087803b158015610e0557600080fd5b505af1158015610e19573d6000803e3d6000fd5b505050506040513d6020811015610e2f57600080fd5b8101908080519060200190929190505050505b505050565b60405180807f465245455a455f4252414e43485f524f4c4500000000000000000000000000008152506012019050604051809103902081565b6000606060008084511115610e9d57602084510290508391508082525b60008060009054906101000a900473ffffffffffffffffffffffffffffffffffffffff1673ffffffffffffffffffffffffffffffffffffffff16148061108757506000809054906101000a900473ffffffffffffffffffffffffffffffffffffffff1673ffffffffffffffffffffffffffffffffffffffff1663fdef9106873088866040518563ffffffff167c0100000000000000000000000000000000000000000000000000000000028152600401808573ffffffffffffffffffffffffffffffffffffffff1673ffffffffffffffffffffffffffffffffffffffff1681526020018473ffffffffffffffffffffffffffffffffffffffff1673ffffffffffffffffffffffffffffffffffffffff168152602001836000191660001916815260200180602001828103825283818151815260200191508051906020019080838360005b83811015610ffc578082015181840152602081019050610fe1565b50505050905090810190601f1680156110295780820380516001836020036101000a031916815260200191505b5095505050505050602060405180830381600087803b15801561104b57600080fd5b505af115801561105f573d6000803e3d6000fd5b505050506040513d602081101561107557600080fd5b81019080805190602001909291905050505b925050509392505050565b60405180807f49535355455f5245574152445f524f4c450000000000000000000000000000008152506011019050604051809103902081565b60606000806065805490509150816040519080825280602002602001820160405280156111075781602001602082028038833980820191505090505b509250600090505b818110156111775761112081610b53565b838281518110151561112e57fe5b9060200190602002019073ffffffffffffffffffffffffffffffffffffffff16908173ffffffffffffffffffffffffffffffffffffffff1681525050808060010191505061110f565b505090565b600060035414151561118d57600080fd5b611195611c8d565b80606460006101000a81548173ffffffffffffffffffffffffffffffffffffffff021916908373ffffffffffffffffffffffffffffffffffffffff16021790555050565b60006112228260405180807f49535355455f5245574152445f524f4c450000000000000000000000000000008152506011019050604051809103902061121d6113c8565b610e80565b9050919050565b6000809054906101000a900473ffffffffffffffffffffffffffffffffffffffff1681565b611257336111d9565b151561126257600080fd5b61126c8282611cae565b5050565b60405180807f4352454154455f4252414e43485f524f4c4500000000000000000000000000008152506012019050604051809103902081565b60006112b3611dee565b73ffffffffffffffffffffffffffffffffffffffff166304bf2a7f836040518263ffffffff167c01000000000000000000000000000000000000000000000000000000000281526004018080602001828103825283818151815260200191508051906020019080838360005b8381101561133a57808201518184015260208101905061131f565b50505050905090810190601f1680156113675780820380516001836020036101000a031916815260200191505b5092505050602060405180830381600087803b15801561138657600080fd5b505af115801561139a573d6000803e3d6000fd5b505050506040513d60208110156113b057600080fd5b81019080805190602001909291905050509050919050565b606090565b6000806003541115156113df57600080fd5b606580548091906001016113f39190611ef8565b90506000809054906101000a900473ffffffffffffffffffffffffffffffffffffffff1673ffffffffffffffffffffffffffffffffffffffff166380cd5ac38260405160200180807f6272616e636800000000000000000000000000000000000000000000000000008152506006018281526020019150506040516020818303038152906040526040518082805190602001908083835b6020831015156114af578051825260208201915060208101905060208303925061148a565b6001836020036101000a03801982511681845116808217855250505050505090500191505060405180910390206114e4611f24565b604051809103906000f080158015611500573d6000803e3d6000fd5b506040518363ffffffff167c01000000000000000000000000000000000000000000000000000000000281526004018083600019166000191681526020018273ffffffffffffffffffffffffffffffffffffffff1673ffffffffffffffffffffffffffffffffffffffff16815260200192505050602060405180830381600087803b15801561158e57600080fd5b505af11580156115a2573d6000803e3d6000fd5b505050506040513d60208110156115b857600080fd5b81019080805190602001909291905050506065828154811015156115d857fe5b9060005260206000200160006101000a81548173ffffffffffffffffffffffffffffffffffffffff021916908373ffffffffffffffffffffffffffffffffffffffff1602179055508273ffffffffffffffffffffffffffffffffffffffff1663d1f5789460658381548110151561164b57fe5b9060005260206000200160009054906101000a900473ffffffffffffffffffffffffffffffffffffffff16846040518363ffffffff167c0100000000000000000000000000000000000000000000000000000000028152600401808373ffffffffffffffffffffffffffffffffffffffff1673ffffffffffffffffffffffffffffffffffffffff16815260200180602001828103825283818151815260200191508051906020019080838360005b838110156117145780820151818401526020810190506116f9565b50505050905090810190601f1680156117415780820380516001836020036101000a031916815260200191505b509350505050600060405180830381600087803b15801561176157600080fd5b505af1158015611775573d6000803e3d6000fd5b5050505060658181548110151561178857fe5b9060005260206000200160009054906101000a900473ffffffffffffffffffffffffffffffffffffffff1673ffffffffffffffffffffffffffffffffffffffff16634571e3a63085876040518463ffffffff167c0100000000000000000000000000000000000000000000000000000000028152600401808473ffffffffffffffffffffffffffffffffffffffff1673ffffffffffffffffffffffffffffffffffffffff1681526020018373ffffffffffffffffffffffffffffffffffffffff1673ffffffffffffffffffffffffffffffffffffffff16815260200180602001828103825283818151815260200191508051906020019080838360005b838110156118a0578082015181840152602081019050611885565b50505050905090810190601f1680156118cd5780820380516001836020036101000a031916815260200191505b50945050505050600060405180830381600087803b1580156118ee57600080fd5b505af1158015611902573d6000803e3d6000fd5b505050506000809054906101000a900473ffffffffffffffffffffffffffffffffffffffff1673ffffffffffffffffffffffffffffffffffffffff1663de2873596040518163ffffffff167c0100000000000000000000000000000000000000000000000000000000028152600401602060405180830381600087803b15801561198b57600080fd5b505af115801561199f573d6000803e3d6000fd5b505050506040513d60208110156119b557600080fd5b810190808051906020019092919050505073ffffffffffffffffffffffffffffffffffffffff16630a8ed3db6065838154811015156119f057fe5b9060005260206000200160009054906101000a900473ffffffffffffffffffffffffffffffffffffffff163060405180807f49535355455f5245574152445f524f4c45000000000000000000000000000000815250601101905060405180910390206040518463ffffffff167c0100000000000000000000000000000000000000000000000000000000028152600401808473ffffffffffffffffffffffffffffffffffffffff1673ffffffffffffffffffffffffffffffffffffffff1681526020018373ffffffffffffffffffffffffffffffffffffffff1673ffffffffffffffffffffffffffffffffffffffff16815260200182600019166000191681526020019350505050600060405180830381600087803b158015611b1257600080fd5b505af1158015611b26573d6000803e3d6000fd5b50505050807f292eebf539cb9da267c99b99967d26a2e414648694a68cb8d52b77cf02f38c46606583815481101515611b5b57fe5b9060005260206000200160009054906101000a900473ffffffffffffffffffffffffffffffffffffffff1686604051808373ffffffffffffffffffffffffffffffffffffffff1673ffffffffffffffffffffffffffffffffffffffff16815260200180602001828103825283818151815260200191508051906020019080838360005b83811015611bf9578082015181840152602081019050611bde565b50505050905090810190601f168015611c265780820380516001836020036101000a031916815260200191505b50935050505060405180910390a29392505050565b600080600073ffffffffffffffffffffffffffffffffffffffff168373ffffffffffffffffffffffffffffffffffffffff161415611c7c5760009150611c87565b823b90506000811191505b50919050565b6000600354141515611c9e57600080fd5b611ca6611ef0565b600381905550565b6000600354111515611cbf57600080fd5b606460009054906101000a900473ffffffffffffffffffffffffffffffffffffffff1673ffffffffffffffffffffffffffffffffffffffff166340c10f1983836040518363ffffffff167c0100000000000000000000000000000000000000000000000000000000028152600401808373ffffffffffffffffffffffffffffffffffffffff1673ffffffffffffffffffffffffffffffffffffffff16815260200182815260200192505050600060405180830381600087803b158015611d8457600080fd5b505af1158015611d98573d6000803e3d6000fd5b505050508173ffffffffffffffffffffffffffffffffffffffff167f31b1ad6442e9abbb82ddf333c4f032e144d86548ac02493b9058dd2b0b83fbc5826040518082815260200191505060405180910390a25050565b6000806000809054906101000a900473ffffffffffffffffffffffffffffffffffffffff1673ffffffffffffffffffffffffffffffffffffffff166342c71f1d7f34f01c17e9be6ddbf2c61f37b5b1fb9f1a090a975006581ad19bda1c4d3828716001026040518263ffffffff167c0100000000000000000000000000000000000000000000000000000000028152600401808260001916600019168152602001915050602060405180830381600087803b158015611eac57600080fd5b505af1158015611ec0573d6000803e3d6000fd5b505050506040513d6020811015611ed657600080fd5b810190808051906020019092919050505090508091505090565b600043905090565b815481835581811115611f1f57818360005260206000209182019101611f1e9190611f34565b5b505050565b6040516135b280611f5a83390190565b611f5691905b80821115611f52576000816000905550600101611f3a565b5090565b905600608060405234801561001057600080fd5b50613592806100206000396000f30060806040526004361061013e576000357c0100000000000000000000000000000000000000000000000000000000900463ffffffff16806306fdde0314610143578063269a68201461016e57806332f0a3b51461019757806340a1f55a146101c25780634571e3a6146101ed5780634729b1c114610216578063478857811461025357806360b1e057146102955780637e7db6e1146102c0578063802f7bf5146102fd57806380afdea8146103265780638322fff2146103515780638784ea961461037c5780638b3dd749146103be5780638f7dcfa3146103e95780639b3fdf4c146104145780639d4941d81461043f578063a1658fad14610468578063c74836fc146104a5578063d4aae0c4146104ce578063d8359bae146104f9578063dc281aff1461053d578063e5477fe91461056d578063f92a79ff14610598575b600080fd5b34801561014f57600080fd5b506101586105d5565b60405161016591906132a2565b60405180910390f35b34801561017a57600080fd5b5061019560048036036101909190810190612cc9565b610673565b005b3480156101a357600080fd5b506101ac6106e8565b6040516101b99190612fb4565b60405180910390f35b3480156101ce57600080fd5b506101d76107f2565b6040516101e4919061321b565b60405180910390f35b3480156101f957600080fd5b50610214600480360361020f9190810190612c5d565b610818565b005b34801561022257600080fd5b5061023d60048036036102389190810190612ae8565b6108cb565b60405161024a91906132c4565b60405180910390f35b34801561025f57600080fd5b5061027a60048036036102759190810190612bca565b6109e8565b60405161028c9695949392919061314d565b60405180910390f35b3480156102a157600080fd5b506102aa610c0c565b6040516102b791906131de565b60405180910390f35b3480156102cc57600080fd5b506102e760048036036102e29190810190612a2f565b610c33565b6040516102f491906131c3565b60405180910390f35b34801561030957600080fd5b50610324600480360361031f9190810190612dfb565b610c3e565b005b34801561033257600080fd5b5061033b610d0d565b60405161034891906131de565b60405180910390f35b34801561035d57600080fd5b50610366610d13565b6040516103739190612fb4565b60405180910390f35b34801561038857600080fd5b506103a3600480360361039e9190810190612bca565b610d18565b6040516103b596959493929190613044565b60405180910390f35b3480156103ca57600080fd5b506103d3610f5c565b6040516103e091906132c4565b60405180910390f35b3480156103f557600080fd5b506103fe610f66565b60405161040b91906131de565b60405180910390f35b34801561042057600080fd5b50610429610f6c565b60405161043691906131de565b60405180910390f35b34801561044b57600080fd5b5061046660048036036104619190810190612a2f565b610f93565b005b34801561047457600080fd5b5061048f600480360361048a9190810190612a81565b6111b9565b60405161049c91906131c3565b60405180910390f35b3480156104b157600080fd5b506104cc60048036036104c79190810190612dbf565b6112f1565b005b3480156104da57600080fd5b506104e36113c0565b6040516104f09190613251565b60405180910390f35b34801561050557600080fd5b50610520600480360361051b9190810190612d6d565b6113e5565b6040516105349897969594939291906130ba565b60405180910390f35b34801561054957600080fd5b5061055261166a565b60405161056496959493929190613044565b60405180910390f35b34801561057957600080fd5b50610582611693565b60405161058f919061326c565b60405180910390f35b3480156105a457600080fd5b506105bf60048036036105ba9190810190612bf3565b6116b9565b6040516105cc9190613236565b60405180910390f35b60668054600181600116156101000203166002900480601f01602080910402602001604051908101604052809291908181526020018280546001816001161561010002031660029004801561066b5780601f106106405761010080835404028352916020019161066b565b820191906000526020600020905b81548152906001019060200180831161064e57829003601f168201915b505050505081565b600060035411151561068457600080fd5b606560009054906101000a900473ffffffffffffffffffffffffffffffffffffffff1673ffffffffffffffffffffffffffffffffffffffff163373ffffffffffffffffffffffffffffffffffffffff161415156106e057600080fd5b505050505050565b6000806000809054906101000a900473ffffffffffffffffffffffffffffffffffffffff1673ffffffffffffffffffffffffffffffffffffffff161415151561073057600080fd5b6000809054906101000a900473ffffffffffffffffffffffffffffffffffffffff1673ffffffffffffffffffffffffffffffffffffffff166332f0a3b56040518163ffffffff167c0100000000000000000000000000000000000000000000000000000000028152600401602060405180830381600087803b1580156107b557600080fd5b505af11580156107c9573d6000803e3d6000fd5b505050506040513d601f19601f820116820180604052506107ed9190810190612a58565b905090565b606560009054906101000a900473ffffffffffffffffffffffffffffffffffffffff1681565b600060035414151561082957600080fd5b610831611770565b83606460006101000a81548173ffffffffffffffffffffffffffffffffffffffff021916908373ffffffffffffffffffffffffffffffffffffffff16021790555082606560006101000a81548173ffffffffffffffffffffffffffffffffffffffff021916908373ffffffffffffffffffffffffffffffffffffffff1602179055508181606691906108c49291906123ca565b5050505050565b6000806003541115156108dd57600080fd5b606560009054906101000a900473ffffffffffffffffffffffffffffffffffffffff1673ffffffffffffffffffffffffffffffffffffffff163373ffffffffffffffffffffffffffffffffffffffff1614151561093957600080fd5b6109db8888888080601f01602080910402602001604051908101604052809392919081815260200183838082843782019150505050505087878080601f01602080910402602001604051908101604052809392919081815260200183838082843782019150505050505086868080601f016020809104026020016040519081016040528093929190818152602001838380828437820191505050505050611791565b9050979650505050505050565b60696020528060005260406000206000915090508060000160009054906101000a900473ffffffffffffffffffffffffffffffffffffffff1690806001015490806002018054600181600116156101000203166002900480601f016020809104026020016040519081016040528092919081815260200182805460018160011615610100020316600290048015610ac05780601f10610a9557610100808354040283529160200191610ac0565b820191906000526020600020905b815481529060010190602001808311610aa357829003601f168201915b505050505090806003018054600181600116156101000203166002900480601f016020809104026020016040519081016040528092919081815260200182805460018160011615610100020316600290048015610b5e5780601f10610b3357610100808354040283529160200191610b5e565b820191906000526020600020905b815481529060010190602001808311610b4157829003601f168201915b505050505090806004018054600181600116156101000203166002900480601f016020809104026020016040519081016040528092919081815260200182805460018160011615610100020316600290048015610bfc5780601f10610bd157610100808354040283529160200191610bfc565b820191906000526020600020905b815481529060010190602001808311610bdf57829003601f168201915b5050505050908060050154905086565b7fddbcfd564f642ab5627cf68b9b7d374fb4f8a36e941a75d89c87998cef03bd6160010281565b600060019050919050565b6000600354111515610c4f57600080fd5b606560009054906101000a900473ffffffffffffffffffffffffffffffffffffffff1673ffffffffffffffffffffffffffffffffffffffff163373ffffffffffffffffffffffffffffffffffffffff16141515610cab57600080fd5b8160006003811115610cb957fe5b606882815481101515610cc857fe5b906000526020600020906007020160060160019054906101000a900460ff166003811115610cf257fe5b141515610cfe57600080fd5b610d08838361195b565b505050565b60015481565b600081565b600080606080606060008060696000896000191660001916815260200190815260200160002090508060000160009054906101000a900473ffffffffffffffffffffffffffffffffffffffff16965080600101549550806002018054600181600116156101000203166002900480601f016020809104026020016040519081016040528092919081815260200182805460018160011615610100020316600290048015610e065780601f10610ddb57610100808354040283529160200191610e06565b820191906000526020600020905b815481529060010190602001808311610de957829003601f168201915b50505050509450806003018054600181600116156101000203166002900480601f016020809104026020016040519081016040528092919081815260200182805460018160011615610100020316600290048015610ea55780601f10610e7a57610100808354040283529160200191610ea5565b820191906000526020600020905b815481529060010190602001808311610e8857829003601f168201915b50505050509350806004018054600181600116156101000203166002900480601f016020809104026020016040519081016040528092919081815260200182805460018160011615610100020316600290048015610f445780601f10610f1957610100808354040283529160200191610f44565b820191906000526020600020905b815481529060010190602001808311610f2757829003601f168201915b50505050509250806005015491505091939550919395565b6000600354905090565b60675481565b7f34f01c17e9be6ddbf2c61f37b5b1fb9f1a090a975006581ad19bda1c4d38287160010281565b600080610f9f83610c33565b1515610faa57600080fd5b610fb26106e8565b9150610fbd82611a12565b1515610fc857600080fd5b600073ffffffffffffffffffffffffffffffffffffffff168373ffffffffffffffffffffffffffffffffffffffff161415611060578173ffffffffffffffffffffffffffffffffffffffff166108fc3073ffffffffffffffffffffffffffffffffffffffff16319081150290604051600060405180830381858888f1935050505015801561105a573d6000803e3d6000fd5b506111b4565b8273ffffffffffffffffffffffffffffffffffffffff166370a08231306040518263ffffffff167c01000000000000000000000000000000000000000000000000000000000281526004016110b59190613287565b602060405180830381600087803b1580156110cf57600080fd5b505af11580156110e3573d6000803e3d6000fd5b505050506040513d601f19601f820116820180604052506111079190810190612d96565b90508273ffffffffffffffffffffffffffffffffffffffff1663a9059cbb83836040518363ffffffff167c010000000000000000000000000000000000000000000000000000000002815260040161116092919061301b565b602060405180830381600087803b15801561117a57600080fd5b505af115801561118e573d6000803e3d6000fd5b505050506040513d601f19601f820116820180604052506111b29190810190612ba1565b505b505050565b60006060600080845111156111d657602084510290508391508082525b60008060009054906101000a900473ffffffffffffffffffffffffffffffffffffffff1673ffffffffffffffffffffffffffffffffffffffff1614806112e657506000809054906101000a900473ffffffffffffffffffffffffffffffffffffffff1673ffffffffffffffffffffffffffffffffffffffff1663fdef9106873088866040518563ffffffff167c01000000000000000000000000000000000000000000000000000000000281526004016112939493929190612fcf565b602060405180830381600087803b1580156112ad57600080fd5b505af11580156112c1573d6000803e3d6000fd5b505050506040513d601f19601f820116820180604052506112e59190810190612ba1565b5b925050509392505050565b600060035411151561130257600080fd5b606560009054906101000a900473ffffffffffffffffffffffffffffffffffffffff1673ffffffffffffffffffffffffffffffffffffffff163373ffffffffffffffffffffffffffffffffffffffff1614151561135e57600080fd5b816000600381111561136c57fe5b60688281548110151561137b57fe5b906000526020600020906007020160060160019054906101000a900460ff1660038111156113a557fe5b1415156113b157600080fd5b6113bb8383611a64565b505050565b6000809054906101000a900473ffffffffffffffffffffffffffffffffffffffff1681565b600080606080606060008060008060688a81548110151561140257fe5b906000526020600020906007020190508060000160000160009054906101000a900473ffffffffffffffffffffffffffffffffffffffff16985080600001600101549750806000016002018054600181600116156101000203166002900480601f0160208091040260200160405190810160405280929190818152602001828054600181600116156101000203166002900480156114e15780601f106114b6576101008083540402835291602001916114e1565b820191906000526020600020905b8154815290600101906020018083116114c457829003601f168201915b50505050509650806000016003018054600181600116156101000203166002900480601f0160208091040260200160405190810160405280929190818152602001828054600181600116156101000203166002900480156115835780601f1061155857610100808354040283529160200191611583565b820191906000526020600020905b81548152906001019060200180831161156657829003601f168201915b50505050509550806000016004018054600181600116156101000203166002900480601f0160208091040260200160405190810160405280929190818152602001828054600181600116156101000203166002900480156116255780601f106115fa57610100808354040283529160200191611625565b820191906000526020600020905b81548152906001019060200180831161160857829003601f168201915b50505050509450806000016005015493508060060160009054906101000a900460ff1692508060060160019054906101000a900460ff16915050919395975091939597565b6000806060806060600061167f606754610d18565b955095509550955095509550909192939495565b606460009054906101000a900473ffffffffffffffffffffffffffffffffffffffff1681565b60006116c36120de565b73ffffffffffffffffffffffffffffffffffffffff166304bf2a7f836040518263ffffffff167c010000000000000000000000000000000000000000000000000000000002815260040161171791906131f9565b602060405180830381600087803b15801561173157600080fd5b505af1158015611745573d6000803e3d6000fd5b505050506040513d601f19601f820116820180604052506117699190810190612c34565b9050919050565b600060035414151561178157600080fd5b6117896121d5565b600381905550565b60008060006003541115156117a557600080fd5b606880548091906001016117b9919061244a565b91506068828154811015156117ca57fe5b9060005260206000209060070201905060008160060160016101000a81548160ff021916908360038111156117fb57fe5b021790555060008160060160006101000a81548160ff0219169083600281111561182157fe5b021790555060c0604051908101604052808773ffffffffffffffffffffffffffffffffffffffff1681526020016000815260200186815260200185815260200184815260200160008152508160000160008201518160000160006101000a81548173ffffffffffffffffffffffffffffffffffffffff021916908373ffffffffffffffffffffffffffffffffffffffff1602179055506020820151816001015560408201518160020190805190602001906118dd92919061247c565b5060608201518160030190805190602001906118fa92919061247c565b5060808201518160040190805190602001906119179291906124fc565b5060a08201518160050155905050817f07b73166689bc46a6f4686c0f9289ac152a55c08c8840e9f5886813ece3e1e8d60405160405180910390a250949350505050565b600060035411151561196c57600080fd5b600160688381548110151561197d57fe5b906000526020600020906007020160060160006101000a81548160ff021916908360028111156119a957fe5b0217905550806068838154811015156119be57fe5b906000526020600020906007020160000160050181905550817f0fd8f2ea1ecf6d50ad333673cb701047eb1917fc56bafa21b999c469bb2291e982604051611a0691906132c4565b60405180910390a25050565b600080600073ffffffffffffffffffffffffffffffffffffffff168373ffffffffffffffffffffffffffffffffffffffff161415611a535760009150611a5e565b823b90506000811191505b50919050565b600080600354111515611a7657600080fd5b6002606884815481101515611a8757fe5b906000526020600020906007020160060160006101000a81548160ff02191690836002811115611ab357fe5b021790555060006002811115611ac557fe5b826002811115611ad157fe5b1415612049576001606884815481101515611ae857fe5b906000526020600020906007020160060160016101000a81548160ff02191690836003811115611b1457fe5b021790555060014303606884815481101515611b2c57fe5b906000526020600020906007020160000160010181905550611dc8606884815481101515611b5657fe5b906000526020600020906007020160000160c060405190810160405290816000820160009054906101000a900473ffffffffffffffffffffffffffffffffffffffff1673ffffffffffffffffffffffffffffffffffffffff1673ffffffffffffffffffffffffffffffffffffffff16815260200160018201548152602001600282018054600181600116156101000203166002900480601f016020809104026020016040519081016040528092919081815260200182805460018160011615610100020316600290048015611c6c5780601f10611c4157610100808354040283529160200191611c6c565b820191906000526020600020905b815481529060010190602001808311611c4f57829003601f168201915b50505050508152602001600382018054600181600116156101000203166002900480601f016020809104026020016040519081016040528092919081815260200182805460018160011615610100020316600290048015611d0e5780601f10611ce357610100808354040283529160200191611d0e565b820191906000526020600020905b815481529060010190602001808311611cf157829003601f168201915b50505050508152602001600482018054600181600116156101000203166002900480601f016020809104026020016040519081016040528092919081815260200182805460018160011615610100020316600290048015611db05780601f10611d8557610100808354040283529160200191611db0565b820191906000526020600020905b815481529060010190602001808311611d9357829003601f168201915b505050505081526020016005820154815250506121dd565b9050606883815481101515611dd957fe5b90600052602060002090600702016000016069600083600019166000191681526020019081526020016000206000820160009054906101000a900473ffffffffffffffffffffffffffffffffffffffff168160000160006101000a81548173ffffffffffffffffffffffffffffffffffffffff021916908373ffffffffffffffffffffffffffffffffffffffff1602179055506001820154816001015560028201816002019080546001816001161561010002031660029004611e9d92919061257c565b5060038201816003019080546001816001161561010002031660029004611ec592919061257c565b5060048201816004019080546001816001161561010002031660029004611eed929190612603565b50600582015481600501559050508060678160001916905550606460009054906101000a900473ffffffffffffffffffffffffffffffffffffffff1673ffffffffffffffffffffffffffffffffffffffff1663d5714091606885815481101515611f5357fe5b906000526020600020906007020160000160000160009054906101000a900473ffffffffffffffffffffffffffffffffffffffff16606886815481101515611f9757fe5b9060005260206000209060070201600001600501546040518363ffffffff167c0100000000000000000000000000000000000000000000000000000000028152600401611fe592919061301b565b600060405180830381600087803b158015611fff57600080fd5b505af1158015612013573d6000803e3d6000fd5b50505050827f3e22f357abbdbaad458753419492818fa43889f9116570c3e4ba0941691a44ec60405160405180910390a26120d9565b6001600281111561205657fe5b82600281111561206257fe5b14156120d857600260688481548110151561207957fe5b906000526020600020906007020160060160016101000a81548160ff021916908360038111156120a557fe5b0217905550827fa510007d6cc95bb234b911bd52cefb9f138a7c5998ef87dcee089ad6d7454ffa60405160405180910390a25b5b505050565b6000806000809054906101000a900473ffffffffffffffffffffffffffffffffffffffff1673ffffffffffffffffffffffffffffffffffffffff166342c71f1d7f34f01c17e9be6ddbf2c61f37b5b1fb9f1a090a975006581ad19bda1c4d3828716001026040518263ffffffff167c010000000000000000000000000000000000000000000000000000000002815260040161217a91906131de565b602060405180830381600087803b15801561219457600080fd5b505af11580156121a8573d6000803e3d6000fd5b505050506040513d601f19601f820116820180604052506121cc9190810190612a58565b90508091505090565b600043905090565b6000816000015182602001518360400151846060015185608001518660a00151604051602001808773ffffffffffffffffffffffffffffffffffffffff1673ffffffffffffffffffffffffffffffffffffffff166c0100000000000000000000000002815260140186815260200185805190602001908083835b60208310151561227c5780518252602082019150602081019050602083039250612257565b6001836020036101000a03801982511681845116808217855250505050505090500184805190602001908083835b6020831015156122cf57805182526020820191506020810190506020830392506122aa565b6001836020036101000a03801982511681845116808217855250505050505090500183805190602001908083835b60208310151561232257805182526020820191506020810190506020830392506122fd565b6001836020036101000a03801982511681845116808217855250505050505090500182815260200196505050505050506040516020818303038152906040526040518082805190602001908083835b6020831015156123965780518252602082019150602081019050602083039250612371565b6001836020036101000a03801982511681845116808217855250505050505090500191505060405180910390209050919050565b828054600181600116156101000203166002900490600052602060002090601f016020900481019282601f1061240b57803560ff1916838001178555612439565b82800160010185558215612439579182015b8281111561243857823582559160200191906001019061241d565b5b509050612446919061268a565b5090565b8154818355818111156124775760070281600702836000526020600020918201910161247691906126af565b5b505050565b828054600181600116156101000203166002900490600052602060002090601f016020900481019282601f106124bd57805160ff19168380011785556124eb565b828001600101855582156124eb579182015b828111156124ea5782518255916020019190600101906124cf565b5b5090506124f8919061268a565b5090565b828054600181600116156101000203166002900490600052602060002090601f016020900481019282601f1061253d57805160ff191683800117855561256b565b8280016001018555821561256b579182015b8281111561256a57825182559160200191906001019061254f565b5b509050612578919061268a565b5090565b828054600181600116156101000203166002900490600052602060002090601f016020900481019282601f106125b557805485556125f2565b828001600101855582156125f257600052602060002091601f016020900482015b828111156125f15782548255916001019190600101906125d6565b5b5090506125ff919061268a565b5090565b828054600181600116156101000203166002900490600052602060002090601f016020900481019282601f1061263c5780548555612679565b8280016001018555821561267957600052602060002091601f016020900482015b8281111561267857825482559160010191906001019061265d565b5b509050612686919061268a565b5090565b6126ac91905b808211156126a8576000816000905550600101612690565b5090565b90565b61276191905b8082111561275d576000808201600080820160006101000a81549073ffffffffffffffffffffffffffffffffffffffff021916905560018201600090556002820160006127029190612764565b6003820160006127129190612764565b60048201600061272291906127ac565b600582016000905550506006820160006101000a81549060ff02191690556006820160016101000a81549060ff0219169055506007016126b5565b5090565b90565b50805460018160011615610100020316600290046000825580601f1061278a57506127a9565b601f0160209004906000526020600020908101906127a8919061268a565b5b50565b50805460018160011615610100020316600290046000825580601f106127d257506127f1565b601f0160209004906000526020600020908101906127f0919061268a565b5b50565b600061280082356133f8565b905092915050565b600061281482516133f8565b905092915050565b600082601f830112151561282f57600080fd5b813561284261283d8261330c565b6132df565b9150818183526020840193506020810190508385602084028201111561286757600080fd5b60005b83811015612897578161287d8882612a07565b84526020840193506020830192505060018101905061286a565b5050505092915050565b60006128ad8251613418565b905092915050565b60006128c18235613424565b905092915050565b60008083601f84011215156128dd57600080fd5b8235905067ffffffffffffffff8111156128f657600080fd5b60208301915083600182028301111561290e57600080fd5b9250929050565b600082601f830112151561292857600080fd5b813561293b61293682613334565b6132df565b9150808252602083016020830185838301111561295757600080fd5b612962838284613505565b50505092915050565b6000612977823561342e565b905092915050565b600061298b8251613440565b905092915050565b600061299f8235613452565b905092915050565b60006129b38235613464565b905092915050565b60008083601f84011215156129cf57600080fd5b8235905067ffffffffffffffff8111156129e857600080fd5b602083019150836001820283011115612a0057600080fd5b9250929050565b6000612a13823561347d565b905092915050565b6000612a27825161347d565b905092915050565b600060208284031215612a4157600080fd5b6000612a4f848285016127f4565b91505092915050565b600060208284031215612a6a57600080fd5b6000612a7884828501612808565b91505092915050565b600080600060608486031215612a9657600080fd5b6000612aa4868287016127f4565b9350506020612ab5868287016128b5565b925050604084013567ffffffffffffffff811115612ad257600080fd5b612ade8682870161281c565b9150509250925092565b60008060008060008060006080888a031215612b0357600080fd5b6000612b118a828b016127f4565b975050602088013567ffffffffffffffff811115612b2e57600080fd5b612b3a8a828b016129bb565b9650965050604088013567ffffffffffffffff811115612b5957600080fd5b612b658a828b016129bb565b9450945050606088013567ffffffffffffffff811115612b8457600080fd5b612b908a828b016128c9565b925092505092959891949750929550565b600060208284031215612bb357600080fd5b6000612bc1848285016128a1565b91505092915050565b600060208284031215612bdc57600080fd5b6000612bea848285016128b5565b91505092915050565b600060208284031215612c0557600080fd5b600082013567ffffffffffffffff811115612c1f57600080fd5b612c2b84828501612915565b91505092915050565b600060208284031215612c4657600080fd5b6000612c548482850161297f565b91505092915050565b60008060008060608587031215612c7357600080fd5b6000612c8187828801612993565b9450506020612c928782880161296b565b935050604085013567ffffffffffffffff811115612caf57600080fd5b612cbb878288016129bb565b925092505092959194509250565b60008060008060008060608789031215612ce257600080fd5b600087013567ffffffffffffffff811115612cfc57600080fd5b612d0889828a016129bb565b9650965050602087013567ffffffffffffffff811115612d2757600080fd5b612d3389828a016129bb565b9450945050604087013567ffffffffffffffff811115612d5257600080fd5b612d5e89828a016128c9565b92509250509295509295509295565b600060208284031215612d7f57600080fd5b6000612d8d84828501612a07565b91505092915050565b600060208284031215612da857600080fd5b6000612db684828501612a1b565b91505092915050565b60008060408385031215612dd257600080fd5b6000612de085828601612a07565b9250506020612df1858286016129a7565b9150509250929050565b60008060408385031215612e0e57600080fd5b6000612e1c85828601612a07565b9250506020612e2d85828601612a07565b9150509250929050565b612e408161338c565b82525050565b612e4f816133ac565b82525050565b612e5e816133b8565b82525050565b6000612e6f8261336b565b808452612e83816020860160208601613514565b612e8c81613547565b602085010191505092915050565b6000612ea582613360565b808452612eb9816020860160208601613514565b612ec281613547565b602085010191505092915050565b612ed981613487565b82525050565b612ee881613499565b82525050565b612ef7816134ab565b82525050565b612f06816134bd565b82525050565b612f15816134cf565b82525050565b612f24816134e1565b82525050565b612f33816134f3565b82525050565b6000612f4482613381565b808452612f58816020860160208601613514565b612f6181613547565b602085010191505092915050565b6000612f7a82613376565b808452612f8e816020860160208601613514565b612f9781613547565b602085010191505092915050565b612fae816133ee565b82525050565b6000602082019050612fc96000830184612e37565b92915050565b6000608082019050612fe46000830187612e37565b612ff16020830186612e37565b612ffe6040830185612e55565b81810360608301526130108184612e64565b905095945050505050565b60006040820190506130306000830185612e37565b61303d6020830184612fa5565b9392505050565b600060c0820190506130596000830189612e37565b6130666020830188612fa5565b81810360408301526130788187612f39565b9050818103606083015261308c8186612f39565b905081810360808301526130a08185612e64565b90506130af60a0830184612fa5565b979650505050505050565b6000610100820190506130d0600083018b612e37565b6130dd602083018a612fa5565b81810360408301526130ef8189612f39565b905081810360608301526131038188612f39565b905081810360808301526131178187612e64565b905061312660a0830186612fa5565b61313360c0830185612f1b565b61314060e0830184612f2a565b9998505050505050505050565b600060c0820190506131626000830189612e37565b61316f6020830188612fa5565b81810360408301526131818187612f6f565b905081810360608301526131958186612f6f565b905081810360808301526131a98185612e9a565b90506131b860a0830184612fa5565b979650505050505050565b60006020820190506131d86000830184612e46565b92915050565b60006020820190506131f36000830184612e55565b92915050565b600060208201905081810360008301526132138184612e64565b905092915050565b60006020820190506132306000830184612ed0565b92915050565b600060208201905061324b6000830184612edf565b92915050565b60006020820190506132666000830184612eee565b92915050565b60006020820190506132816000830184612efd565b92915050565b600060208201905061329c6000830184612f0c565b92915050565b600060208201905081810360008301526132bc8184612f6f565b905092915050565b60006020820190506132d96000830184612fa5565b92915050565b6000604051905081810181811067ffffffffffffffff8211171561330257600080fd5b8060405250919050565b600067ffffffffffffffff82111561332357600080fd5b602082029050602081019050919050565b600067ffffffffffffffff82111561334b57600080fd5b601f19601f8301169050602081019050919050565b600081519050919050565b600081519050919050565b600081519050919050565b600081519050919050565b600073ffffffffffffffffffffffffffffffffffffffff82169050919050565b60008115159050919050565b6000819050919050565b60006003821015156133d057fe5b819050919050565b60006004821015156133e657fe5b819050919050565b6000819050919050565b600073ffffffffffffffffffffffffffffffffffffffff82169050919050565b60008115159050919050565b6000819050919050565b60006134398261338c565b9050919050565b600061344b8261338c565b9050919050565b600061345d8261338c565b9050919050565b600060038210151561347557600080fd5b819050919050565b6000819050919050565b60006134928261338c565b9050919050565b60006134a48261338c565b9050919050565b60006134b68261338c565b9050919050565b60006134c88261338c565b9050919050565b60006134da8261338c565b9050919050565b60006134ec826133c2565b9050919050565b60006134fe826133d8565b9050919050565b82818337600083830152505050565b60005b83811015613532578082015181840152602081019050613517565b83811115613541576000848401525b50505050565b6000601f19601f83011690509190505600a265627a7a72305820f69c224368693f0e1d11b95893770b24ef0daea1f07536d96839ca909353c6bc6c6578706572696d656e74616cf50037a165627a7a723058201bc327abd260ecf58d6f795f9ffee2f5fac0c21a6b5951874e731435444d3b1f0029",
  "source": "pragma solidity ^0.4.18;\n\nimport \"@aragon/os/contracts/kernel/Kernel.sol\";\nimport \"@aragon/os/contracts/acl/ACL.sol\";\nimport \"@aragon/apps-token-manager/contracts/TokenManager.sol\";\n\nimport \"../apps/PandoApp.sol\";\nimport \"../branch/Branch.sol\";\nimport \"../branch/kits/BranchKit.sol\";\n\n\ncontract Specimen is PandoApp {\n    bytes32 constant public CREATE_BRANCH_ROLE = keccak256(\"CREATE_BRANCH_ROLE\");\n    bytes32 constant public FREEZE_BRANCH_ROLE = keccak256(\"FREEZE_BRANCH_ROLE\");\n    bytes32 constant public ISSUE_REWARD_ROLE  = keccak256(\"ISSUE_REWARD_ROLE\");\n\n    TokenManager public tokenManager;\n    Branch[]     internal branches;\n\n    event CreateBranch(uint256 indexed branchId, address proxy, string name);\n    event FreezeBranch(uint256 indexed branchId);\n    event IssueReward(address indexed receiver, uint256 amount);\n\n    /******************************/\n    /*      EXTERNAL METHODS      */\n    /******************************/\n\n    function initialize(TokenManager _tokenManager) onlyInit external {\n        initialized();\n        tokenManager = _tokenManager;\n    }\n\n    function createBranch(string _name, BranchKit _kit, bytes _parameters) external returns (uint256 branchId) {\n        require(canCreateBranch(msg.sender, _name));\n        return _createBranch(_name, _kit, _parameters);\n    }\n\n    function issueReward(address _receiver, uint256 _amount) external {\n        require(canIssueReward(msg.sender));\n        _issueReward(_receiver, _amount);\n    }\n\n    /************************************/\n    /*      ACCESS CONTROL METHODS      */\n    /************************************/\n\n    function canCreateBranch(address _sender, string _name) public view returns (bool) {\n        return canPerform(_sender, CREATE_BRANCH_ROLE, arr());\n    }\n\n    function canIssueReward(address _sender) public view returns (bool) {\n        return canPerform(_sender, ISSUE_REWARD_ROLE, arr());\n    }\n\n    /****************************/\n    /*      GETTER METHODS      */\n    /****************************/\n\n    function getBranch(uint256 _branchId) public view returns (address proxy) {\n        proxy = address(branches[_branchId]);\n    }\n\n    function getBranches() public view returns (address[] proxies) {\n        uint256 length = branches.length;\n        proxies        = new address[](length);\n\n        for (uint256 branchId = 0; branchId < length; branchId++) {\n            proxies[branchId] = getBranch(branchId);\n        }\n    }\n\n    /******************************/\n    /*      INTERNAL METHODS      */\n    /******************************/\n\n    function _createBranch(string _name, BranchKit _kit, bytes _parameters) isInitialized internal returns (uint256 branchId) {\n        branchId           = branches.length++;\n        branches[branchId] = Branch(Kernel(kernel).newAppInstance(keccak256(abi.encodePacked('branch', branchId)), new Branch()));\n\n\n        _kit.initialize(branches[branchId], _parameters);\n\n        branches[branchId].initialize(this, _kit, _name);\n        ACL(Kernel(kernel).acl()).grantPermission(branches[branchId], this, ISSUE_REWARD_ROLE);\n\n        emit CreateBranch(branchId, branches[branchId], _name);\n    }\n\n    function _issueReward(address _receiver, uint256 _amount) isInitialized internal {\n        tokenManager.mint(_receiver, _amount);\n        emit IssueReward(_receiver, _amount);\n    }\n}\n",
  "sourcePath": "/Users/osarrouy/Documents/dapp/@pando/packages/core/contracts/specimen/Specimen.sol",
  "compiler": {
    "name": "solc",
    "version": "0.4.24+commit.e67f0147.Emscripten.clang"
  },
  "schemaVersion": "2.0.1",
  "updatedAt": "2018-10-05T12:39:51.701Z"
}