{
  "contractName": "SpecimenKit",
  "abi": [
    {
      "constant": true,
      "inputs": [],
      "name": "factory",
      "outputs": [
        {
          "name": "",
          "type": "address"
        }
      ],
      "payable": false,
      "stateMutability": "view",
      "type": "function"
    },
    {
      "inputs": [],
      "payable": false,
      "stateMutability": "nonpayable",
      "type": "constructor"
    },
    {
      "anonymous": false,
      "inputs": [
        {
          "indexed": false,
          "name": "token",
          "type": "address"
        },
        {
          "indexed": true,
          "name": "cacheOwner",
          "type": "address"
        }
      ],
      "name": "DeployToken",
      "type": "event"
    },
    {
      "anonymous": false,
      "inputs": [
        {
          "indexed": false,
          "name": "dao",
          "type": "address"
        },
        {
          "indexed": true,
          "name": "token",
          "type": "address"
        }
      ],
      "name": "DeployInstance",
      "type": "event"
    },
    {
      "anonymous": false,
      "inputs": [
        {
          "indexed": false,
          "name": "appProxy",
          "type": "address"
        },
        {
          "indexed": false,
          "name": "appId",
          "type": "bytes32"
        }
      ],
      "name": "InstalledApp",
      "type": "event"
    },
    {
      "anonymous": false,
      "inputs": [
        {
          "indexed": false,
          "name": "dao",
          "type": "address"
        },
        {
          "indexed": false,
          "name": "token",
          "type": "address"
        }
      ],
      "name": "NewSpecimen",
      "type": "event"
    },
    {
      "constant": false,
      "inputs": [],
      "name": "newSpecimen",
      "outputs": [],
      "payable": false,
      "stateMutability": "nonpayable",
      "type": "function"
    }
  ],
  "bytecode": "0x608060405234801561001057600080fd5b50610019610185565b604051809103906000f080158015610035573d6000803e3d6000fd5b5061003e610196565b604051809103906000f08015801561005a573d6000803e3d6000fd5b506100636101a7565b604051809103906000f08015801561007f573d6000803e3d6000fd5b506100886101b8565b808473ffffffffffffffffffffffffffffffffffffffff1673ffffffffffffffffffffffffffffffffffffffff1681526020018373ffffffffffffffffffffffffffffffffffffffff1673ffffffffffffffffffffffffffffffffffffffff1681526020018273ffffffffffffffffffffffffffffffffffffffff1673ffffffffffffffffffffffffffffffffffffffff1681526020019350505050604051809103906000f080158015610140573d6000803e3d6000fd5b506000806101000a81548173ffffffffffffffffffffffffffffffffffffffff021916908373ffffffffffffffffffffffffffffffffffffffff1602179055506101c9565b60405161390d80620065b083390190565b604051612c988062009ebd83390190565b604051614289806200cb5583390190565b604051611b0d8062010dde83390190565b6163d780620001d96000396000f30060806040526004361061004c576000357c0100000000000000000000000000000000000000000000000000000000900463ffffffff16806342423ef014610051578063c45a015514610068575b600080fd5b34801561005d57600080fd5b506100666100bf565b005b34801561007457600080fd5b5061007d610216565b604051808273ffffffffffffffffffffffffffffffffffffffff1673ffffffffffffffffffffffffffffffffffffffff16815260200191505060405180910390f35b6000806100ca61023b565b604051809103906000f0801580156100e6573d6000803e3d6000fd5b50915081600080600060016100f961024b565b808673ffffffffffffffffffffffffffffffffffffffff1673ffffffffffffffffffffffffffffffffffffffff1681526020018573ffffffffffffffffffffffffffffffffffffffff1673ffffffffffffffffffffffffffffffffffffffff168152602001848152602001806020018460ff1660ff1681526020018060200184151515158152602001838103835260178152602001807f4e617469766520476f7665726e616e636520546f6b656e000000000000000000815250602001838103825260038152602001807f4e47540000000000000000000000000000000000000000000000000000000000815250602001975050505050505050604051809103906000f08015801561020f573d6000803e3d6000fd5b5090505050565b6000809054906101000a900473ffffffffffffffffffffffffffffffffffffffff1681565b6040516132bb8061025c83390190565b604051612e9580613517833901905600608060405234801561001057600080fd5b5061329b806100206000396000f300608060405260043610610041576000357c0100000000000000000000000000000000000000000000000000000000900463ffffffff1680635b7b72c114610046575b600080fd5b34801561005257600080fd5b50610136600480360381019080803573ffffffffffffffffffffffffffffffffffffffff16906020019092919080359060200190929190803590602001908201803590602001908080601f0160208091040260200160405190810160405280939291908181526020018383808284378201915050505050509192919290803560ff169060200190929190803590602001908201803590602001908080601f0160208091040260200160405190810160405280939291908181526020018383808284378201915050505050509192919290803515159060200190929190505050610178565b604051808273ffffffffffffffffffffffffffffffffffffffff1673ffffffffffffffffffffffffffffffffffffffff16815260200191505060405180910390f35b6000803088888888888861018a6103ca565b808873ffffffffffffffffffffffffffffffffffffffff1673ffffffffffffffffffffffffffffffffffffffff1681526020018773ffffffffffffffffffffffffffffffffffffffff1673ffffffffffffffffffffffffffffffffffffffff168152602001868152602001806020018560ff1660ff1681526020018060200184151515158152602001838103835287818151815260200191508051906020019080838360005b8381101561024b578082015181840152602081019050610230565b50505050905090810190601f1680156102785780820380516001836020036101000a031916815260200191505b50838103825285818151815260200191508051906020019080838360005b838110156102b1578082015181840152602081019050610296565b50505050905090810190601f1680156102de5780820380516001836020036101000a031916815260200191505b509950505050505050505050604051809103906000f080158015610306573d6000803e3d6000fd5b5090508073ffffffffffffffffffffffffffffffffffffffff16633cebb823336040518263ffffffff167c0100000000000000000000000000000000000000000000000000000000028152600401808273ffffffffffffffffffffffffffffffffffffffff1673ffffffffffffffffffffffffffffffffffffffff168152602001915050600060405180830381600087803b1580156103a457600080fd5b505af11580156103b8573d6000803e3d6000fd5b50505050809150509695505050505050565b604051612e95806103db83390190560060806040526040805190810160405280600781526020017f4d4d545f302e3100000000000000000000000000000000000000000000000000815250600490805190602001906200005192919062000207565b503480156200005f57600080fd5b5060405162002e9538038062002e9583398101806040528101908080519060200190929190805190602001909291908051906020019092919080518201929190602001805190602001909291908051820192919060200180519060200190929190505050336000806101000a81548173ffffffffffffffffffffffffffffffffffffffff021916908373ffffffffffffffffffffffffffffffffffffffff16021790555086600b60016101000a81548173ffffffffffffffffffffffffffffffffffffffff021916908373ffffffffffffffffffffffffffffffffffffffff16021790555083600190805190602001906200015c92919062000207565b5082600260006101000a81548160ff021916908360ff16021790555081600390805190602001906200019092919062000207565b5085600560006101000a81548173ffffffffffffffffffffffffffffffffffffffff021916908373ffffffffffffffffffffffffffffffffffffffff1602179055508460068190555080600b60006101000a81548160ff0219169083151502179055504360078190555050505050505050620002b6565b828054600181600116156101000203166002900490600052602060002090601f016020900481019282601f106200024a57805160ff19168380011785556200027b565b828001600101855582156200027b579182015b828111156200027a5782518255916020019190600101906200025d565b5b5090506200028a91906200028e565b5090565b620002b391905b80821115620002af57600081600090555060010162000295565b5090565b90565b612bcf80620002c66000396000f300608060405260043610610149576000357c0100000000000000000000000000000000000000000000000000000000900463ffffffff16806306fdde031461028a578063095ea7b31461031a578063176345141461037f57806318160ddd146103aa57806323b872dd146103d5578063313ce5671461045a5780633cebb8231461048b5780634ee2cd7e146104ce57806354fd4d501461052f5780636638c087146105bf57806370a08231146106d157806380a5400114610728578063827f32c01461077f57806395d89b41146107e4578063981b24d014610874578063a9059cbb146108b5578063bef97c871461091a578063c5bcc4f114610949578063cae9ca5114610974578063d3ce77fe14610a1f578063dd62ed3e14610a84578063df8de3e714610afb578063e77772fe14610b3e578063f41e60c514610b95578063f77c479114610bc4575b6101736000809054906101000a900473ffffffffffffffffffffffffffffffffffffffff16610c1b565b151561017e57600080fd5b600115156000809054906101000a900473ffffffffffffffffffffffffffffffffffffffff1673ffffffffffffffffffffffffffffffffffffffff1663f48c305434336040518363ffffffff167c0100000000000000000000000000000000000000000000000000000000028152600401808273ffffffffffffffffffffffffffffffffffffffff1673ffffffffffffffffffffffffffffffffffffffff1681526020019150506020604051808303818588803b15801561023e57600080fd5b505af1158015610252573d6000803e3d6000fd5b50505050506040513d602081101561026957600080fd5b8101908080519060200190929190505050151514151561028857600080fd5b005b34801561029657600080fd5b5061029f610c57565b6040518080602001828103825283818151815260200191508051906020019080838360005b838110156102df5780820151818401526020810190506102c4565b50505050905090810190601f16801561030c5780820380516001836020036101000a031916815260200191505b509250505060405180910390f35b34801561032657600080fd5b50610365600480360381019080803573ffffffffffffffffffffffffffffffffffffffff16906020019092919080359060200190929190505050610cf5565b604051808215151515815260200191505060405180910390f35b34801561038b57600080fd5b5061039461100d565b6040518082815260200191505060405180910390f35b3480156103b657600080fd5b506103bf611013565b6040518082815260200191505060405180910390f35b3480156103e157600080fd5b50610440600480360381019080803573ffffffffffffffffffffffffffffffffffffffff169060200190929190803573ffffffffffffffffffffffffffffffffffffffff16906020019092919080359060200190929190505050611023565b604051808215151515815260200191505060405180910390f35b34801561046657600080fd5b5061046f6111c3565b604051808260ff1660ff16815260200191505060405180910390f35b34801561049757600080fd5b506104cc600480360381019080803573ffffffffffffffffffffffffffffffffffffffff1690602001909291905050506111d6565b005b3480156104da57600080fd5b50610519600480360381019080803573ffffffffffffffffffffffffffffffffffffffff16906020019092919080359060200190929190505050611274565b6040518082815260200191505060405180910390f35b34801561053b57600080fd5b50610544611500565b6040518080602001828103825283818151815260200191508051906020019080838360005b83811015610584578082015181840152602081019050610569565b50505050905090810190601f1680156105b15780820380516001836020036101000a031916815260200191505b509250505060405180910390f35b3480156105cb57600080fd5b5061068f600480360381019080803590602001908201803590602001908080601f0160208091040260200160405190810160405280939291908181526020018383808284378201915050505050509192919290803560ff169060200190929190803590602001908201803590602001908080601f01602080910402602001604051908101604052809392919081815260200183838082843782019150505050505091929192908035906020019092919080351515906020019092919050505061159e565b604051808273ffffffffffffffffffffffffffffffffffffffff1673ffffffffffffffffffffffffffffffffffffffff16815260200191505060405180910390f35b3480156106dd57600080fd5b50610712600480360381019080803573ffffffffffffffffffffffffffffffffffffffff1690602001909291905050506118bc565b6040518082815260200191505060405180910390f35b34801561073457600080fd5b5061073d6118cf565b604051808273ffffffffffffffffffffffffffffffffffffffff1673ffffffffffffffffffffffffffffffffffffffff16815260200191505060405180910390f35b34801561078b57600080fd5b506107ca600480360381019080803573ffffffffffffffffffffffffffffffffffffffff169060200190929190803590602001909291905050506118f5565b604051808215151515815260200191505060405180910390f35b3480156107f057600080fd5b506107f9611a3f565b6040518080602001828103825283818151815260200191508051906020019080838360005b8381101561083957808201518184015260208101905061081e565b50505050905090810190601f1680156108665780820380516001836020036101000a031916815260200191505b509250505060405180910390f35b34801561088057600080fd5b5061089f60048036038101908080359060200190929190505050611add565b6040518082815260200191505060405180910390f35b3480156108c157600080fd5b50610900600480360381019080803573ffffffffffffffffffffffffffffffffffffffff16906020019092919080359060200190929190505050611c7d565b604051808215151515815260200191505060405180910390f35b34801561092657600080fd5b5061092f611cad565b604051808215151515815260200191505060405180910390f35b34801561095557600080fd5b5061095e611cc0565b6040518082815260200191505060405180910390f35b34801561098057600080fd5b50610a05600480360381019080803573ffffffffffffffffffffffffffffffffffffffff16906020019092919080359060200190929190803590602001908201803590602001908080601f0160208091040260200160405190810160405280939291908181526020018383808284378201915050505050509192919290505050611cc6565b604051808215151515815260200191505060405180910390f35b348015610a2b57600080fd5b50610a6a600480360381019080803573ffffffffffffffffffffffffffffffffffffffff16906020019092919080359060200190929190505050611e44565b604051808215151515815260200191505060405180910390f35b348015610a9057600080fd5b50610ae5600480360381019080803573ffffffffffffffffffffffffffffffffffffffff169060200190929190803573ffffffffffffffffffffffffffffffffffffffff169060200190929190505050611f8a565b6040518082815260200191505060405180910390f35b348015610b0757600080fd5b50610b3c600480360381019080803573ffffffffffffffffffffffffffffffffffffffff169060200190929190505050612011565b005b348015610b4a57600080fd5b50610b53612379565b604051808273ffffffffffffffffffffffffffffffffffffffff1673ffffffffffffffffffffffffffffffffffffffff16815260200191505060405180910390f35b348015610ba157600080fd5b50610bc260048036038101908080351515906020019092919050505061239f565b005b348015610bd057600080fd5b50610bd9612417565b604051808273ffffffffffffffffffffffffffffffffffffffff1673ffffffffffffffffffffffffffffffffffffffff16815260200191505060405180910390f35b60008060008373ffffffffffffffffffffffffffffffffffffffff161415610c465760009150610c51565b823b90506000811191505b50919050565b60018054600181600116156101000203166002900480601f016020809104026020016040519081016040528092919081815260200182805460018160011615610100020316600290048015610ced5780601f10610cc257610100808354040283529160200191610ced565b820191906000526020600020905b815481529060010190602001808311610cd057829003601f168201915b505050505081565b6000600b60009054906101000a900460ff161515610d1257600080fd5b6000821480610d9d57506000600960003373ffffffffffffffffffffffffffffffffffffffff1673ffffffffffffffffffffffffffffffffffffffff16815260200190815260200160002060008573ffffffffffffffffffffffffffffffffffffffff1673ffffffffffffffffffffffffffffffffffffffff16815260200190815260200160002054145b1515610da857600080fd5b610dd26000809054906101000a900473ffffffffffffffffffffffffffffffffffffffff16610c1b565b15610f1d57600115156000809054906101000a900473ffffffffffffffffffffffffffffffffffffffff1673ffffffffffffffffffffffffffffffffffffffff1663da682aeb3386866040518463ffffffff167c0100000000000000000000000000000000000000000000000000000000028152600401808473ffffffffffffffffffffffffffffffffffffffff1673ffffffffffffffffffffffffffffffffffffffff1681526020018373ffffffffffffffffffffffffffffffffffffffff1673ffffffffffffffffffffffffffffffffffffffff1681526020018281526020019350505050602060405180830381600087803b158015610ed357600080fd5b505af1158015610ee7573d6000803e3d6000fd5b505050506040513d6020811015610efd57600080fd5b81019080805190602001909291905050501515141515610f1c57600080fd5b5b81600960003373ffffffffffffffffffffffffffffffffffffffff1673ffffffffffffffffffffffffffffffffffffffff16815260200190815260200160002060008573ffffffffffffffffffffffffffffffffffffffff1673ffffffffffffffffffffffffffffffffffffffff168152602001908152602001600020819055508273ffffffffffffffffffffffffffffffffffffffff163373ffffffffffffffffffffffffffffffffffffffff167f8c5be1e5ebec7d5bd14f71427d1e84f3dd0314c0f7b2291e5b200ac8c7c3b925846040518082815260200191505060405180910390a36001905092915050565b60075481565b600061101e43611add565b905090565b60008060009054906101000a900473ffffffffffffffffffffffffffffffffffffffff1673ffffffffffffffffffffffffffffffffffffffff163373ffffffffffffffffffffffffffffffffffffffff161415156111ae57600b60009054906101000a900460ff16151561109657600080fd5b81600960008673ffffffffffffffffffffffffffffffffffffffff1673ffffffffffffffffffffffffffffffffffffffff16815260200190815260200160002060003373ffffffffffffffffffffffffffffffffffffffff1673ffffffffffffffffffffffffffffffffffffffff16815260200190815260200160002054101561112357600090506111bc565b81600960008673ffffffffffffffffffffffffffffffffffffffff1673ffffffffffffffffffffffffffffffffffffffff16815260200190815260200160002060003373ffffffffffffffffffffffffffffffffffffffff1673ffffffffffffffffffffffffffffffffffffffff168152602001908152602001600020600082825403925050819055505b6111b984848461243c565b90505b9392505050565b600260009054906101000a900460ff1681565b6000809054906101000a900473ffffffffffffffffffffffffffffffffffffffff1673ffffffffffffffffffffffffffffffffffffffff163373ffffffffffffffffffffffffffffffffffffffff1614151561123157600080fd5b806000806101000a81548173ffffffffffffffffffffffffffffffffffffffff021916908373ffffffffffffffffffffffffffffffffffffffff16021790555050565b600080600860008573ffffffffffffffffffffffffffffffffffffffff1673ffffffffffffffffffffffffffffffffffffffff16815260200190815260200160002080549050148061134d575081600860008573ffffffffffffffffffffffffffffffffffffffff1673ffffffffffffffffffffffffffffffffffffffff168152602001908152602001600020600081548110151561130f57fe5b9060005260206000200160000160009054906101000a90046fffffffffffffffffffffffffffffffff166fffffffffffffffffffffffffffffffff16115b156114af576000600560009054906101000a900473ffffffffffffffffffffffffffffffffffffffff1673ffffffffffffffffffffffffffffffffffffffff161415156114a657600560009054906101000a900473ffffffffffffffffffffffffffffffffffffffff1673ffffffffffffffffffffffffffffffffffffffff16634ee2cd7e846113df85600654612776565b6040518363ffffffff167c0100000000000000000000000000000000000000000000000000000000028152600401808373ffffffffffffffffffffffffffffffffffffffff1673ffffffffffffffffffffffffffffffffffffffff16815260200182815260200192505050602060405180830381600087803b15801561146457600080fd5b505af1158015611478573d6000803e3d6000fd5b505050506040513d602081101561148e57600080fd5b810190808051906020019092919050505090506114fa565b600090506114fa565b6114f7600860008573ffffffffffffffffffffffffffffffffffffffff1673ffffffffffffffffffffffffffffffffffffffff1681526020019081526020016000208361278f565b90505b92915050565b60048054600181600116156101000203166002900480601f0160208091040260200160405190810160405280929190818152602001828054600181600116156101000203166002900480156115965780601f1061156b57610100808354040283529160200191611596565b820191906000526020600020905b81548152906001019060200180831161157957829003601f168201915b505050505081565b60008060008085146115b057846115b5565b600143035b9150600b60019054906101000a900473ffffffffffffffffffffffffffffffffffffffff1673ffffffffffffffffffffffffffffffffffffffff16635b7b72c130848b8b8b8a6040518763ffffffff167c0100000000000000000000000000000000000000000000000000000000028152600401808773ffffffffffffffffffffffffffffffffffffffff1673ffffffffffffffffffffffffffffffffffffffff168152602001868152602001806020018560ff1660ff1681526020018060200184151515158152602001838103835287818151815260200191508051906020019080838360005b838110156116b857808201518184015260208101905061169d565b50505050905090810190601f1680156116e55780820380516001836020036101000a031916815260200191505b50838103825285818151815260200191508051906020019080838360005b8381101561171e578082015181840152602081019050611703565b50505050905090810190601f16801561174b5780820380516001836020036101000a031916815260200191505b5098505050505050505050602060405180830381600087803b15801561177057600080fd5b505af1158015611784573d6000803e3d6000fd5b505050506040513d602081101561179a57600080fd5b810190808051906020019092919050505090508073ffffffffffffffffffffffffffffffffffffffff16633cebb823336040518263ffffffff167c0100000000000000000000000000000000000000000000000000000000028152600401808273ffffffffffffffffffffffffffffffffffffffff1673ffffffffffffffffffffffffffffffffffffffff168152602001915050600060405180830381600087803b15801561184857600080fd5b505af115801561185c573d6000803e3d6000fd5b505050508073ffffffffffffffffffffffffffffffffffffffff167f086c875b377f900b07ce03575813022f05dd10ed7640b5282cf6d3c3fc352ade836040518082815260200191505060405180910390a2809250505095945050505050565b60006118c88243611274565b9050919050565b600560009054906101000a900473ffffffffffffffffffffffffffffffffffffffff1681565b60008060008060009054906101000a900473ffffffffffffffffffffffffffffffffffffffff1673ffffffffffffffffffffffffffffffffffffffff163373ffffffffffffffffffffffffffffffffffffffff1614151561195557600080fd5b61195d611013565b9150818483011015151561197057600080fd5b611979856118bc565b9050808482011015151561198c57600080fd5b611999600a85840161299e565b6119e3600860008773ffffffffffffffffffffffffffffffffffffffff1673ffffffffffffffffffffffffffffffffffffffff16815260200190815260200160002085830161299e565b8473ffffffffffffffffffffffffffffffffffffffff1660007fddf252ad1be2c89b69c2b068fc378daa952ba7f163c4a11628f55a4df523b3ef866040518082815260200191505060405180910390a360019250505092915050565b60038054600181600116156101000203166002900480601f016020809104026020016040519081016040528092919081815260200182805460018160011615610100020316600290048015611ad55780601f10611aaa57610100808354040283529160200191611ad5565b820191906000526020600020905b815481529060010190602001808311611ab857829003601f168201915b505050505081565b600080600a805490501480611b3c575081600a6000815481101515611afe57fe5b9060005260206000200160000160009054906101000a90046fffffffffffffffffffffffffffffffff166fffffffffffffffffffffffffffffffff16115b15611c6a576000600560009054906101000a900473ffffffffffffffffffffffffffffffffffffffff1673ffffffffffffffffffffffffffffffffffffffff16141515611c6157600560009054906101000a900473ffffffffffffffffffffffffffffffffffffffff1673ffffffffffffffffffffffffffffffffffffffff1663981b24d0611bcd84600654612776565b6040518263ffffffff167c010000000000000000000000000000000000000000000000000000000002815260040180828152602001915050602060405180830381600087803b158015611c1f57600080fd5b505af1158015611c33573d6000803e3d6000fd5b505050506040513d6020811015611c4957600080fd5b81019080805190602001909291905050509050611c78565b60009050611c78565b611c75600a8361278f565b90505b919050565b6000600b60009054906101000a900460ff161515611c9a57600080fd5b611ca533848461243c565b905092915050565b600b60009054906101000a900460ff1681565b60065481565b6000611cd28484610cf5565b1515611cdd57600080fd5b8373ffffffffffffffffffffffffffffffffffffffff16638f4ffcb1338530866040518563ffffffff167c0100000000000000000000000000000000000000000000000000000000028152600401808573ffffffffffffffffffffffffffffffffffffffff1673ffffffffffffffffffffffffffffffffffffffff1681526020018481526020018373ffffffffffffffffffffffffffffffffffffffff1673ffffffffffffffffffffffffffffffffffffffff16815260200180602001828103825283818151815260200191508051906020019080838360005b83811015611dd2578082015181840152602081019050611db7565b50505050905090810190601f168015611dff5780820380516001836020036101000a031916815260200191505b5095505050505050600060405180830381600087803b158015611e2157600080fd5b505af1158015611e35573d6000803e3d6000fd5b50505050600190509392505050565b60008060008060009054906101000a900473ffffffffffffffffffffffffffffffffffffffff1673ffffffffffffffffffffffffffffffffffffffff163373ffffffffffffffffffffffffffffffffffffffff16141515611ea457600080fd5b611eac611013565b9150838210151515611ebd57600080fd5b611ec6856118bc565b9050838110151515611ed757600080fd5b611ee4600a85840361299e565b611f2e600860008773ffffffffffffffffffffffffffffffffffffffff1673ffffffffffffffffffffffffffffffffffffffff16815260200190815260200160002085830361299e565b60008573ffffffffffffffffffffffffffffffffffffffff167fddf252ad1be2c89b69c2b068fc378daa952ba7f163c4a11628f55a4df523b3ef866040518082815260200191505060405180910390a360019250505092915050565b6000600960008473ffffffffffffffffffffffffffffffffffffffff1673ffffffffffffffffffffffffffffffffffffffff16815260200190815260200160002060008373ffffffffffffffffffffffffffffffffffffffff1673ffffffffffffffffffffffffffffffffffffffff16815260200190815260200160002054905092915050565b6000806000809054906101000a900473ffffffffffffffffffffffffffffffffffffffff1673ffffffffffffffffffffffffffffffffffffffff163373ffffffffffffffffffffffffffffffffffffffff1614151561206f57600080fd5b60008373ffffffffffffffffffffffffffffffffffffffff161415612112576000809054906101000a900473ffffffffffffffffffffffffffffffffffffffff1673ffffffffffffffffffffffffffffffffffffffff166108fc3073ffffffffffffffffffffffffffffffffffffffff16319081150290604051600060405180830381858888f1935050505015801561210c573d6000803e3d6000fd5b50612374565b8291508173ffffffffffffffffffffffffffffffffffffffff166370a08231306040518263ffffffff167c0100000000000000000000000000000000000000000000000000000000028152600401808273ffffffffffffffffffffffffffffffffffffffff1673ffffffffffffffffffffffffffffffffffffffff168152602001915050602060405180830381600087803b1580156121b057600080fd5b505af11580156121c4573d6000803e3d6000fd5b505050506040513d60208110156121da57600080fd5b810190808051906020019092919050505090508173ffffffffffffffffffffffffffffffffffffffff1663a9059cbb6000809054906101000a900473ffffffffffffffffffffffffffffffffffffffff16836040518363ffffffff167c0100000000000000000000000000000000000000000000000000000000028152600401808373ffffffffffffffffffffffffffffffffffffffff1673ffffffffffffffffffffffffffffffffffffffff16815260200182815260200192505050602060405180830381600087803b1580156122b157600080fd5b505af11580156122c5573d6000803e3d6000fd5b505050506040513d60208110156122db57600080fd5b8101908080519060200190929190505050506000809054906101000a900473ffffffffffffffffffffffffffffffffffffffff1673ffffffffffffffffffffffffffffffffffffffff168373ffffffffffffffffffffffffffffffffffffffff167ff931edb47c50b4b4104c187b5814a9aef5f709e17e2ecf9617e860cacade929c836040518082815260200191505060405180910390a35b505050565b600b60019054906101000a900473ffffffffffffffffffffffffffffffffffffffff1681565b6000809054906101000a900473ffffffffffffffffffffffffffffffffffffffff1673ffffffffffffffffffffffffffffffffffffffff163373ffffffffffffffffffffffffffffffffffffffff161415156123fa57600080fd5b80600b60006101000a81548160ff02191690831515021790555050565b6000809054906101000a900473ffffffffffffffffffffffffffffffffffffffff1681565b600080600080841415612452576001925061276d565b4360065410151561246257600080fd5b60008573ffffffffffffffffffffffffffffffffffffffff16141580156124b557503073ffffffffffffffffffffffffffffffffffffffff168573ffffffffffffffffffffffffffffffffffffffff1614155b15156124c057600080fd5b6124ca8643611274565b9150838210156124dd576000925061276d565b6125076000809054906101000a900473ffffffffffffffffffffffffffffffffffffffff16610c1b565b1561265257600115156000809054906101000a900473ffffffffffffffffffffffffffffffffffffffff1673ffffffffffffffffffffffffffffffffffffffff16634a3931498888886040518463ffffffff167c0100000000000000000000000000000000000000000000000000000000028152600401808473ffffffffffffffffffffffffffffffffffffffff1673ffffffffffffffffffffffffffffffffffffffff1681526020018373ffffffffffffffffffffffffffffffffffffffff1673ffffffffffffffffffffffffffffffffffffffff1681526020018281526020019350505050602060405180830381600087803b15801561260857600080fd5b505af115801561261c573d6000803e3d6000fd5b505050506040513d602081101561263257600080fd5b8101908080519060200190929190505050151514151561265157600080fd5b5b61269c600860008873ffffffffffffffffffffffffffffffffffffffff1673ffffffffffffffffffffffffffffffffffffffff16815260200190815260200160002085840361299e565b6126a68543611274565b905080848201101515156126b957600080fd5b612703600860008773ffffffffffffffffffffffffffffffffffffffff1673ffffffffffffffffffffffffffffffffffffffff16815260200190815260200160002085830161299e565b8473ffffffffffffffffffffffffffffffffffffffff168673ffffffffffffffffffffffffffffffffffffffff167fddf252ad1be2c89b69c2b068fc378daa952ba7f163c4a11628f55a4df523b3ef866040518082815260200191505060405180910390a3600192505b50509392505050565b60008183106127855781612787565b825b905092915050565b6000806000806000868054905014156127ab5760009350612995565b8560018780549050038154811015156127c057fe5b9060005260206000200160000160009054906101000a90046fffffffffffffffffffffffffffffffff166fffffffffffffffffffffffffffffffff168510151561285c5785600187805490500381548110151561281957fe5b9060005260206000200160000160109054906101000a90046fffffffffffffffffffffffffffffffff166fffffffffffffffffffffffffffffffff169350612995565b85600081548110151561286b57fe5b9060005260206000200160000160009054906101000a90046fffffffffffffffffffffffffffffffff166fffffffffffffffffffffffffffffffff168510156128b75760009350612995565b60009250600186805490500391505b828211156129485760026001848401018115156128df57fe5b0490508486828154811015156128f157fe5b9060005260206000200160000160009054906101000a90046fffffffffffffffffffffffffffffffff166fffffffffffffffffffffffffffffffff1611151561293c57809250612943565b6001810391505b6128c6565b858381548110151561295657fe5b9060005260206000200160000160109054906101000a90046fffffffffffffffffffffffffffffffff166fffffffffffffffffffffffffffffffff1693505b50505092915050565b600080600084805490501480612a035750438460018680549050038154811015156129c557fe5b9060005260206000200160000160009054906101000a90046fffffffffffffffffffffffffffffffff166fffffffffffffffffffffffffffffffff16105b15612aaf5783848054809190600101612a1c9190612b12565b815481101515612a2857fe5b906000526020600020019150438260000160006101000a8154816fffffffffffffffffffffffffffffffff02191690836fffffffffffffffffffffffffffffffff160217905550828260000160106101000a8154816fffffffffffffffffffffffffffffffff02191690836fffffffffffffffffffffffffffffffff160217905550612b0c565b836001858054905003815481101515612ac457fe5b906000526020600020019050828160000160106101000a8154816fffffffffffffffffffffffffffffffff02191690836fffffffffffffffffffffffffffffffff1602179055505b50505050565b815481835581811115612b3957818360005260206000209182019101612b389190612b3e565b5b505050565b612ba091905b80821115612b9c57600080820160006101000a8154906fffffffffffffffffffffffffffffffff02191690556000820160106101000a8154906fffffffffffffffffffffffffffffffff021916905550600101612b44565b5090565b905600a165627a7a723058204b43c5e9aea01211ef92411865199ea2148fe566a3f38f59207178e1a6b196e20029a165627a7a72305820affa10d8b7bd3f069f63cad5ad23db122e27a0b4be1c0a181d29c01008e7e7cc002960806040526040805190810160405280600781526020017f4d4d545f302e3100000000000000000000000000000000000000000000000000815250600490805190602001906200005192919062000207565b503480156200005f57600080fd5b5060405162002e9538038062002e9583398101806040528101908080519060200190929190805190602001909291908051906020019092919080518201929190602001805190602001909291908051820192919060200180519060200190929190505050336000806101000a81548173ffffffffffffffffffffffffffffffffffffffff021916908373ffffffffffffffffffffffffffffffffffffffff16021790555086600b60016101000a81548173ffffffffffffffffffffffffffffffffffffffff021916908373ffffffffffffffffffffffffffffffffffffffff16021790555083600190805190602001906200015c92919062000207565b5082600260006101000a81548160ff021916908360ff16021790555081600390805190602001906200019092919062000207565b5085600560006101000a81548173ffffffffffffffffffffffffffffffffffffffff021916908373ffffffffffffffffffffffffffffffffffffffff1602179055508460068190555080600b60006101000a81548160ff0219169083151502179055504360078190555050505050505050620002b6565b828054600181600116156101000203166002900490600052602060002090601f016020900481019282601f106200024a57805160ff19168380011785556200027b565b828001600101855582156200027b579182015b828111156200027a5782518255916020019190600101906200025d565b5b5090506200028a91906200028e565b5090565b620002b391905b80821115620002af57600081600090555060010162000295565b5090565b90565b612bcf80620002c66000396000f300608060405260043610610149576000357c0100000000000000000000000000000000000000000000000000000000900463ffffffff16806306fdde031461028a578063095ea7b31461031a578063176345141461037f57806318160ddd146103aa57806323b872dd146103d5578063313ce5671461045a5780633cebb8231461048b5780634ee2cd7e146104ce57806354fd4d501461052f5780636638c087146105bf57806370a08231146106d157806380a5400114610728578063827f32c01461077f57806395d89b41146107e4578063981b24d014610874578063a9059cbb146108b5578063bef97c871461091a578063c5bcc4f114610949578063cae9ca5114610974578063d3ce77fe14610a1f578063dd62ed3e14610a84578063df8de3e714610afb578063e77772fe14610b3e578063f41e60c514610b95578063f77c479114610bc4575b6101736000809054906101000a900473ffffffffffffffffffffffffffffffffffffffff16610c1b565b151561017e57600080fd5b600115156000809054906101000a900473ffffffffffffffffffffffffffffffffffffffff1673ffffffffffffffffffffffffffffffffffffffff1663f48c305434336040518363ffffffff167c0100000000000000000000000000000000000000000000000000000000028152600401808273ffffffffffffffffffffffffffffffffffffffff1673ffffffffffffffffffffffffffffffffffffffff1681526020019150506020604051808303818588803b15801561023e57600080fd5b505af1158015610252573d6000803e3d6000fd5b50505050506040513d602081101561026957600080fd5b8101908080519060200190929190505050151514151561028857600080fd5b005b34801561029657600080fd5b5061029f610c57565b6040518080602001828103825283818151815260200191508051906020019080838360005b838110156102df5780820151818401526020810190506102c4565b50505050905090810190601f16801561030c5780820380516001836020036101000a031916815260200191505b509250505060405180910390f35b34801561032657600080fd5b50610365600480360381019080803573ffffffffffffffffffffffffffffffffffffffff16906020019092919080359060200190929190505050610cf5565b604051808215151515815260200191505060405180910390f35b34801561038b57600080fd5b5061039461100d565b6040518082815260200191505060405180910390f35b3480156103b657600080fd5b506103bf611013565b6040518082815260200191505060405180910390f35b3480156103e157600080fd5b50610440600480360381019080803573ffffffffffffffffffffffffffffffffffffffff169060200190929190803573ffffffffffffffffffffffffffffffffffffffff16906020019092919080359060200190929190505050611023565b604051808215151515815260200191505060405180910390f35b34801561046657600080fd5b5061046f6111c3565b604051808260ff1660ff16815260200191505060405180910390f35b34801561049757600080fd5b506104cc600480360381019080803573ffffffffffffffffffffffffffffffffffffffff1690602001909291905050506111d6565b005b3480156104da57600080fd5b50610519600480360381019080803573ffffffffffffffffffffffffffffffffffffffff16906020019092919080359060200190929190505050611274565b6040518082815260200191505060405180910390f35b34801561053b57600080fd5b50610544611500565b6040518080602001828103825283818151815260200191508051906020019080838360005b83811015610584578082015181840152602081019050610569565b50505050905090810190601f1680156105b15780820380516001836020036101000a031916815260200191505b509250505060405180910390f35b3480156105cb57600080fd5b5061068f600480360381019080803590602001908201803590602001908080601f0160208091040260200160405190810160405280939291908181526020018383808284378201915050505050509192919290803560ff169060200190929190803590602001908201803590602001908080601f01602080910402602001604051908101604052809392919081815260200183838082843782019150505050505091929192908035906020019092919080351515906020019092919050505061159e565b604051808273ffffffffffffffffffffffffffffffffffffffff1673ffffffffffffffffffffffffffffffffffffffff16815260200191505060405180910390f35b3480156106dd57600080fd5b50610712600480360381019080803573ffffffffffffffffffffffffffffffffffffffff1690602001909291905050506118bc565b6040518082815260200191505060405180910390f35b34801561073457600080fd5b5061073d6118cf565b604051808273ffffffffffffffffffffffffffffffffffffffff1673ffffffffffffffffffffffffffffffffffffffff16815260200191505060405180910390f35b34801561078b57600080fd5b506107ca600480360381019080803573ffffffffffffffffffffffffffffffffffffffff169060200190929190803590602001909291905050506118f5565b604051808215151515815260200191505060405180910390f35b3480156107f057600080fd5b506107f9611a3f565b6040518080602001828103825283818151815260200191508051906020019080838360005b8381101561083957808201518184015260208101905061081e565b50505050905090810190601f1680156108665780820380516001836020036101000a031916815260200191505b509250505060405180910390f35b34801561088057600080fd5b5061089f60048036038101908080359060200190929190505050611add565b6040518082815260200191505060405180910390f35b3480156108c157600080fd5b50610900600480360381019080803573ffffffffffffffffffffffffffffffffffffffff16906020019092919080359060200190929190505050611c7d565b604051808215151515815260200191505060405180910390f35b34801561092657600080fd5b5061092f611cad565b604051808215151515815260200191505060405180910390f35b34801561095557600080fd5b5061095e611cc0565b6040518082815260200191505060405180910390f35b34801561098057600080fd5b50610a05600480360381019080803573ffffffffffffffffffffffffffffffffffffffff16906020019092919080359060200190929190803590602001908201803590602001908080601f0160208091040260200160405190810160405280939291908181526020018383808284378201915050505050509192919290505050611cc6565b604051808215151515815260200191505060405180910390f35b348015610a2b57600080fd5b50610a6a600480360381019080803573ffffffffffffffffffffffffffffffffffffffff16906020019092919080359060200190929190505050611e44565b604051808215151515815260200191505060405180910390f35b348015610a9057600080fd5b50610ae5600480360381019080803573ffffffffffffffffffffffffffffffffffffffff169060200190929190803573ffffffffffffffffffffffffffffffffffffffff169060200190929190505050611f8a565b6040518082815260200191505060405180910390f35b348015610b0757600080fd5b50610b3c600480360381019080803573ffffffffffffffffffffffffffffffffffffffff169060200190929190505050612011565b005b348015610b4a57600080fd5b50610b53612379565b604051808273ffffffffffffffffffffffffffffffffffffffff1673ffffffffffffffffffffffffffffffffffffffff16815260200191505060405180910390f35b348015610ba157600080fd5b50610bc260048036038101908080351515906020019092919050505061239f565b005b348015610bd057600080fd5b50610bd9612417565b604051808273ffffffffffffffffffffffffffffffffffffffff1673ffffffffffffffffffffffffffffffffffffffff16815260200191505060405180910390f35b60008060008373ffffffffffffffffffffffffffffffffffffffff161415610c465760009150610c51565b823b90506000811191505b50919050565b60018054600181600116156101000203166002900480601f016020809104026020016040519081016040528092919081815260200182805460018160011615610100020316600290048015610ced5780601f10610cc257610100808354040283529160200191610ced565b820191906000526020600020905b815481529060010190602001808311610cd057829003601f168201915b505050505081565b6000600b60009054906101000a900460ff161515610d1257600080fd5b6000821480610d9d57506000600960003373ffffffffffffffffffffffffffffffffffffffff1673ffffffffffffffffffffffffffffffffffffffff16815260200190815260200160002060008573ffffffffffffffffffffffffffffffffffffffff1673ffffffffffffffffffffffffffffffffffffffff16815260200190815260200160002054145b1515610da857600080fd5b610dd26000809054906101000a900473ffffffffffffffffffffffffffffffffffffffff16610c1b565b15610f1d57600115156000809054906101000a900473ffffffffffffffffffffffffffffffffffffffff1673ffffffffffffffffffffffffffffffffffffffff1663da682aeb3386866040518463ffffffff167c0100000000000000000000000000000000000000000000000000000000028152600401808473ffffffffffffffffffffffffffffffffffffffff1673ffffffffffffffffffffffffffffffffffffffff1681526020018373ffffffffffffffffffffffffffffffffffffffff1673ffffffffffffffffffffffffffffffffffffffff1681526020018281526020019350505050602060405180830381600087803b158015610ed357600080fd5b505af1158015610ee7573d6000803e3d6000fd5b505050506040513d6020811015610efd57600080fd5b81019080805190602001909291905050501515141515610f1c57600080fd5b5b81600960003373ffffffffffffffffffffffffffffffffffffffff1673ffffffffffffffffffffffffffffffffffffffff16815260200190815260200160002060008573ffffffffffffffffffffffffffffffffffffffff1673ffffffffffffffffffffffffffffffffffffffff168152602001908152602001600020819055508273ffffffffffffffffffffffffffffffffffffffff163373ffffffffffffffffffffffffffffffffffffffff167f8c5be1e5ebec7d5bd14f71427d1e84f3dd0314c0f7b2291e5b200ac8c7c3b925846040518082815260200191505060405180910390a36001905092915050565b60075481565b600061101e43611add565b905090565b60008060009054906101000a900473ffffffffffffffffffffffffffffffffffffffff1673ffffffffffffffffffffffffffffffffffffffff163373ffffffffffffffffffffffffffffffffffffffff161415156111ae57600b60009054906101000a900460ff16151561109657600080fd5b81600960008673ffffffffffffffffffffffffffffffffffffffff1673ffffffffffffffffffffffffffffffffffffffff16815260200190815260200160002060003373ffffffffffffffffffffffffffffffffffffffff1673ffffffffffffffffffffffffffffffffffffffff16815260200190815260200160002054101561112357600090506111bc565b81600960008673ffffffffffffffffffffffffffffffffffffffff1673ffffffffffffffffffffffffffffffffffffffff16815260200190815260200160002060003373ffffffffffffffffffffffffffffffffffffffff1673ffffffffffffffffffffffffffffffffffffffff168152602001908152602001600020600082825403925050819055505b6111b984848461243c565b90505b9392505050565b600260009054906101000a900460ff1681565b6000809054906101000a900473ffffffffffffffffffffffffffffffffffffffff1673ffffffffffffffffffffffffffffffffffffffff163373ffffffffffffffffffffffffffffffffffffffff1614151561123157600080fd5b806000806101000a81548173ffffffffffffffffffffffffffffffffffffffff021916908373ffffffffffffffffffffffffffffffffffffffff16021790555050565b600080600860008573ffffffffffffffffffffffffffffffffffffffff1673ffffffffffffffffffffffffffffffffffffffff16815260200190815260200160002080549050148061134d575081600860008573ffffffffffffffffffffffffffffffffffffffff1673ffffffffffffffffffffffffffffffffffffffff168152602001908152602001600020600081548110151561130f57fe5b9060005260206000200160000160009054906101000a90046fffffffffffffffffffffffffffffffff166fffffffffffffffffffffffffffffffff16115b156114af576000600560009054906101000a900473ffffffffffffffffffffffffffffffffffffffff1673ffffffffffffffffffffffffffffffffffffffff161415156114a657600560009054906101000a900473ffffffffffffffffffffffffffffffffffffffff1673ffffffffffffffffffffffffffffffffffffffff16634ee2cd7e846113df85600654612776565b6040518363ffffffff167c0100000000000000000000000000000000000000000000000000000000028152600401808373ffffffffffffffffffffffffffffffffffffffff1673ffffffffffffffffffffffffffffffffffffffff16815260200182815260200192505050602060405180830381600087803b15801561146457600080fd5b505af1158015611478573d6000803e3d6000fd5b505050506040513d602081101561148e57600080fd5b810190808051906020019092919050505090506114fa565b600090506114fa565b6114f7600860008573ffffffffffffffffffffffffffffffffffffffff1673ffffffffffffffffffffffffffffffffffffffff1681526020019081526020016000208361278f565b90505b92915050565b60048054600181600116156101000203166002900480601f0160208091040260200160405190810160405280929190818152602001828054600181600116156101000203166002900480156115965780601f1061156b57610100808354040283529160200191611596565b820191906000526020600020905b81548152906001019060200180831161157957829003601f168201915b505050505081565b60008060008085146115b057846115b5565b600143035b9150600b60019054906101000a900473ffffffffffffffffffffffffffffffffffffffff1673ffffffffffffffffffffffffffffffffffffffff16635b7b72c130848b8b8b8a6040518763ffffffff167c0100000000000000000000000000000000000000000000000000000000028152600401808773ffffffffffffffffffffffffffffffffffffffff1673ffffffffffffffffffffffffffffffffffffffff168152602001868152602001806020018560ff1660ff1681526020018060200184151515158152602001838103835287818151815260200191508051906020019080838360005b838110156116b857808201518184015260208101905061169d565b50505050905090810190601f1680156116e55780820380516001836020036101000a031916815260200191505b50838103825285818151815260200191508051906020019080838360005b8381101561171e578082015181840152602081019050611703565b50505050905090810190601f16801561174b5780820380516001836020036101000a031916815260200191505b5098505050505050505050602060405180830381600087803b15801561177057600080fd5b505af1158015611784573d6000803e3d6000fd5b505050506040513d602081101561179a57600080fd5b810190808051906020019092919050505090508073ffffffffffffffffffffffffffffffffffffffff16633cebb823336040518263ffffffff167c0100000000000000000000000000000000000000000000000000000000028152600401808273ffffffffffffffffffffffffffffffffffffffff1673ffffffffffffffffffffffffffffffffffffffff168152602001915050600060405180830381600087803b15801561184857600080fd5b505af115801561185c573d6000803e3d6000fd5b505050508073ffffffffffffffffffffffffffffffffffffffff167f086c875b377f900b07ce03575813022f05dd10ed7640b5282cf6d3c3fc352ade836040518082815260200191505060405180910390a2809250505095945050505050565b60006118c88243611274565b9050919050565b600560009054906101000a900473ffffffffffffffffffffffffffffffffffffffff1681565b60008060008060009054906101000a900473ffffffffffffffffffffffffffffffffffffffff1673ffffffffffffffffffffffffffffffffffffffff163373ffffffffffffffffffffffffffffffffffffffff1614151561195557600080fd5b61195d611013565b9150818483011015151561197057600080fd5b611979856118bc565b9050808482011015151561198c57600080fd5b611999600a85840161299e565b6119e3600860008773ffffffffffffffffffffffffffffffffffffffff1673ffffffffffffffffffffffffffffffffffffffff16815260200190815260200160002085830161299e565b8473ffffffffffffffffffffffffffffffffffffffff1660007fddf252ad1be2c89b69c2b068fc378daa952ba7f163c4a11628f55a4df523b3ef866040518082815260200191505060405180910390a360019250505092915050565b60038054600181600116156101000203166002900480601f016020809104026020016040519081016040528092919081815260200182805460018160011615610100020316600290048015611ad55780601f10611aaa57610100808354040283529160200191611ad5565b820191906000526020600020905b815481529060010190602001808311611ab857829003601f168201915b505050505081565b600080600a805490501480611b3c575081600a6000815481101515611afe57fe5b9060005260206000200160000160009054906101000a90046fffffffffffffffffffffffffffffffff166fffffffffffffffffffffffffffffffff16115b15611c6a576000600560009054906101000a900473ffffffffffffffffffffffffffffffffffffffff1673ffffffffffffffffffffffffffffffffffffffff16141515611c6157600560009054906101000a900473ffffffffffffffffffffffffffffffffffffffff1673ffffffffffffffffffffffffffffffffffffffff1663981b24d0611bcd84600654612776565b6040518263ffffffff167c010000000000000000000000000000000000000000000000000000000002815260040180828152602001915050602060405180830381600087803b158015611c1f57600080fd5b505af1158015611c33573d6000803e3d6000fd5b505050506040513d6020811015611c4957600080fd5b81019080805190602001909291905050509050611c78565b60009050611c78565b611c75600a8361278f565b90505b919050565b6000600b60009054906101000a900460ff161515611c9a57600080fd5b611ca533848461243c565b905092915050565b600b60009054906101000a900460ff1681565b60065481565b6000611cd28484610cf5565b1515611cdd57600080fd5b8373ffffffffffffffffffffffffffffffffffffffff16638f4ffcb1338530866040518563ffffffff167c0100000000000000000000000000000000000000000000000000000000028152600401808573ffffffffffffffffffffffffffffffffffffffff1673ffffffffffffffffffffffffffffffffffffffff1681526020018481526020018373ffffffffffffffffffffffffffffffffffffffff1673ffffffffffffffffffffffffffffffffffffffff16815260200180602001828103825283818151815260200191508051906020019080838360005b83811015611dd2578082015181840152602081019050611db7565b50505050905090810190601f168015611dff5780820380516001836020036101000a031916815260200191505b5095505050505050600060405180830381600087803b158015611e2157600080fd5b505af1158015611e35573d6000803e3d6000fd5b50505050600190509392505050565b60008060008060009054906101000a900473ffffffffffffffffffffffffffffffffffffffff1673ffffffffffffffffffffffffffffffffffffffff163373ffffffffffffffffffffffffffffffffffffffff16141515611ea457600080fd5b611eac611013565b9150838210151515611ebd57600080fd5b611ec6856118bc565b9050838110151515611ed757600080fd5b611ee4600a85840361299e565b611f2e600860008773ffffffffffffffffffffffffffffffffffffffff1673ffffffffffffffffffffffffffffffffffffffff16815260200190815260200160002085830361299e565b60008573ffffffffffffffffffffffffffffffffffffffff167fddf252ad1be2c89b69c2b068fc378daa952ba7f163c4a11628f55a4df523b3ef866040518082815260200191505060405180910390a360019250505092915050565b6000600960008473ffffffffffffffffffffffffffffffffffffffff1673ffffffffffffffffffffffffffffffffffffffff16815260200190815260200160002060008373ffffffffffffffffffffffffffffffffffffffff1673ffffffffffffffffffffffffffffffffffffffff16815260200190815260200160002054905092915050565b6000806000809054906101000a900473ffffffffffffffffffffffffffffffffffffffff1673ffffffffffffffffffffffffffffffffffffffff163373ffffffffffffffffffffffffffffffffffffffff1614151561206f57600080fd5b60008373ffffffffffffffffffffffffffffffffffffffff161415612112576000809054906101000a900473ffffffffffffffffffffffffffffffffffffffff1673ffffffffffffffffffffffffffffffffffffffff166108fc3073ffffffffffffffffffffffffffffffffffffffff16319081150290604051600060405180830381858888f1935050505015801561210c573d6000803e3d6000fd5b50612374565b8291508173ffffffffffffffffffffffffffffffffffffffff166370a08231306040518263ffffffff167c0100000000000000000000000000000000000000000000000000000000028152600401808273ffffffffffffffffffffffffffffffffffffffff1673ffffffffffffffffffffffffffffffffffffffff168152602001915050602060405180830381600087803b1580156121b057600080fd5b505af11580156121c4573d6000803e3d6000fd5b505050506040513d60208110156121da57600080fd5b810190808051906020019092919050505090508173ffffffffffffffffffffffffffffffffffffffff1663a9059cbb6000809054906101000a900473ffffffffffffffffffffffffffffffffffffffff16836040518363ffffffff167c0100000000000000000000000000000000000000000000000000000000028152600401808373ffffffffffffffffffffffffffffffffffffffff1673ffffffffffffffffffffffffffffffffffffffff16815260200182815260200192505050602060405180830381600087803b1580156122b157600080fd5b505af11580156122c5573d6000803e3d6000fd5b505050506040513d60208110156122db57600080fd5b8101908080519060200190929190505050506000809054906101000a900473ffffffffffffffffffffffffffffffffffffffff1673ffffffffffffffffffffffffffffffffffffffff168373ffffffffffffffffffffffffffffffffffffffff167ff931edb47c50b4b4104c187b5814a9aef5f709e17e2ecf9617e860cacade929c836040518082815260200191505060405180910390a35b505050565b600b60019054906101000a900473ffffffffffffffffffffffffffffffffffffffff1681565b6000809054906101000a900473ffffffffffffffffffffffffffffffffffffffff1673ffffffffffffffffffffffffffffffffffffffff163373ffffffffffffffffffffffffffffffffffffffff161415156123fa57600080fd5b80600b60006101000a81548160ff02191690831515021790555050565b6000809054906101000a900473ffffffffffffffffffffffffffffffffffffffff1681565b600080600080841415612452576001925061276d565b4360065410151561246257600080fd5b60008573ffffffffffffffffffffffffffffffffffffffff16141580156124b557503073ffffffffffffffffffffffffffffffffffffffff168573ffffffffffffffffffffffffffffffffffffffff1614155b15156124c057600080fd5b6124ca8643611274565b9150838210156124dd576000925061276d565b6125076000809054906101000a900473ffffffffffffffffffffffffffffffffffffffff16610c1b565b1561265257600115156000809054906101000a900473ffffffffffffffffffffffffffffffffffffffff1673ffffffffffffffffffffffffffffffffffffffff16634a3931498888886040518463ffffffff167c0100000000000000000000000000000000000000000000000000000000028152600401808473ffffffffffffffffffffffffffffffffffffffff1673ffffffffffffffffffffffffffffffffffffffff1681526020018373ffffffffffffffffffffffffffffffffffffffff1673ffffffffffffffffffffffffffffffffffffffff1681526020018281526020019350505050602060405180830381600087803b15801561260857600080fd5b505af115801561261c573d6000803e3d6000fd5b505050506040513d602081101561263257600080fd5b8101908080519060200190929190505050151514151561265157600080fd5b5b61269c600860008873ffffffffffffffffffffffffffffffffffffffff1673ffffffffffffffffffffffffffffffffffffffff16815260200190815260200160002085840361299e565b6126a68543611274565b905080848201101515156126b957600080fd5b612703600860008773ffffffffffffffffffffffffffffffffffffffff1673ffffffffffffffffffffffffffffffffffffffff16815260200190815260200160002085830161299e565b8473ffffffffffffffffffffffffffffffffffffffff168673ffffffffffffffffffffffffffffffffffffffff167fddf252ad1be2c89b69c2b068fc378daa952ba7f163c4a11628f55a4df523b3ef866040518082815260200191505060405180910390a3600192505b50509392505050565b60008183106127855781612787565b825b905092915050565b6000806000806000868054905014156127ab5760009350612995565b8560018780549050038154811015156127c057fe5b9060005260206000200160000160009054906101000a90046fffffffffffffffffffffffffffffffff166fffffffffffffffffffffffffffffffff168510151561285c5785600187805490500381548110151561281957fe5b9060005260206000200160000160109054906101000a90046fffffffffffffffffffffffffffffffff166fffffffffffffffffffffffffffffffff169350612995565b85600081548110151561286b57fe5b9060005260206000200160000160009054906101000a90046fffffffffffffffffffffffffffffffff166fffffffffffffffffffffffffffffffff168510156128b75760009350612995565b60009250600186805490500391505b828211156129485760026001848401018115156128df57fe5b0490508486828154811015156128f157fe5b9060005260206000200160000160009054906101000a90046fffffffffffffffffffffffffffffffff166fffffffffffffffffffffffffffffffff1611151561293c57809250612943565b6001810391505b6128c6565b858381548110151561295657fe5b9060005260206000200160000160109054906101000a90046fffffffffffffffffffffffffffffffff166fffffffffffffffffffffffffffffffff1693505b50505092915050565b600080600084805490501480612a035750438460018680549050038154811015156129c557fe5b9060005260206000200160000160009054906101000a90046fffffffffffffffffffffffffffffffff166fffffffffffffffffffffffffffffffff16105b15612aaf5783848054809190600101612a1c9190612b12565b815481101515612a2857fe5b906000526020600020019150438260000160006101000a8154816fffffffffffffffffffffffffffffffff02191690836fffffffffffffffffffffffffffffffff160217905550828260000160106101000a8154816fffffffffffffffffffffffffffffffff02191690836fffffffffffffffffffffffffffffffff160217905550612b0c565b836001858054905003815481101515612ac457fe5b906000526020600020019050828160000160106101000a8154816fffffffffffffffffffffffffffffffff02191690836fffffffffffffffffffffffffffffffff1602179055505b50505050565b815481835581811115612b3957818360005260206000209182019101612b389190612b3e565b5b505050565b612ba091905b80821115612b9c57600080820160006101000a8154906fffffffffffffffffffffffffffffffff02191690556000820160106101000a8154906fffffffffffffffffffffffffffffffff021916905550600101612b44565b5090565b905600a165627a7a723058204b43c5e9aea01211ef92411865199ea2148fe566a3f38f59207178e1a6b196e20029a165627a7a72305820c02503278ba7a6cd2eb1f4193ac3e6dcd7d965ac5a2df90ab1d41eaf91365f7d0029608060405234801561001057600080fd5b506138ed806100206000396000f300608060405260043610620001b7576000357c0100000000000000000000000000000000000000000000000000000000900463ffffffff1680631113ed0d14620001bc578063178e607914620001f25780632501269914620002285780632c2333cd146200025e57806332f0a3b5146200029257806338bb6def14620002ec57806342c71f1d1462000360578063485cc95514620003d4578063756f6049146200043a5780637e7db6e1146200047057806380afdea814620004ce57806380cd5ac314620005045780638322fff214620005985780638b3dd74914620005f25780638ea8dc9d1462000620578063958fde8214620006565780639d4941d814620006ea578063a3b4b07f1462000730578063ae5b25401462000766578063b7c529ab14620007e4578063cbcc65eb146200081a578063d162f8b01462000850578063d4aae0c4146200092a578063dabca0191462000984578063db8a61d414620009ba578063de28735914620009f0578063e156a8f31462000a4a578063e943d1e61462000ade578063ede658b01462000b7e578063f8c7fa1e1462000c58578063fdef91061462000cf8578063ff289fc51462000dca575b600080fd5b348015620001c957600080fd5b50620001d462000e5e565b60405180826000191660001916815260200191505060405180910390f35b348015620001ff57600080fd5b506200020a62000e85565b60405180826000191660001916815260200191505060405180910390f35b3480156200023557600080fd5b506200024062000eac565b60405180826000191660001916815260200191505060405180910390f35b3480156200026b57600080fd5b5062000290600480360381019080803560001916906020019092919050505062000ed3565b005b3480156200029f57600080fd5b50620002aa62000fb3565b604051808273ffffffffffffffffffffffffffffffffffffffff1673ffffffffffffffffffffffffffffffffffffffff16815260200191505060405180910390f35b348015620002f957600080fd5b506200031e600480360381019080803560001916906020019092919050505062000ff7565b604051808273ffffffffffffffffffffffffffffffffffffffff1673ffffffffffffffffffffffffffffffffffffffff16815260200191505060405180910390f35b3480156200036d57600080fd5b506200039260048036038101908080356000191690602001909291905050506200102a565b604051808273ffffffffffffffffffffffffffffffffffffffff1673ffffffffffffffffffffffffffffffffffffffff16815260200191505060405180910390f35b348015620003e157600080fd5b5062000438600480360381019080803573ffffffffffffffffffffffffffffffffffffffff169060200190929190803573ffffffffffffffffffffffffffffffffffffffff1690602001909291905050506200106e565b005b3480156200044757600080fd5b50620004526200124c565b60405180826000191660001916815260200191505060405180910390f35b3480156200047d57600080fd5b50620004b4600480360381019080803573ffffffffffffffffffffffffffffffffffffffff16906020019092919050505062001273565b604051808215151515815260200191505060405180910390f35b348015620004db57600080fd5b50620004e66200127e565b60405180826000191660001916815260200191505060405180910390f35b3480156200051157600080fd5b50620005566004803603810190808035600019169060200190929190803573ffffffffffffffffffffffffffffffffffffffff16906020019092919050505062001284565b604051808273ffffffffffffffffffffffffffffffffffffffff1673ffffffffffffffffffffffffffffffffffffffff16815260200191505060405180910390f35b348015620005a557600080fd5b50620005b06200131e565b604051808273ffffffffffffffffffffffffffffffffffffffff1673ffffffffffffffffffffffffffffffffffffffff16815260200191505060405180910390f35b348015620005ff57600080fd5b506200060a62001323565b6040518082815260200191505060405180910390f35b3480156200062d57600080fd5b50620006386200132d565b60405180826000191660001916815260200191505060405180910390f35b3480156200066357600080fd5b50620006a86004803603810190808035600019169060200190929190803573ffffffffffffffffffffffffffffffffffffffff16906020019092919050505062001354565b604051808273ffffffffffffffffffffffffffffffffffffffff1673ffffffffffffffffffffffffffffffffffffffff16815260200191505060405180910390f35b348015620006f757600080fd5b506200072e600480360381019080803573ffffffffffffffffffffffffffffffffffffffff169060200190929190505050620013ee565b005b3480156200073d57600080fd5b506200074862001689565b60405180826000191660001916815260200191505060405180910390f35b3480156200077357600080fd5b50620007c660048036038101908080356000191690602001909291908035600019169060200190929190803573ffffffffffffffffffffffffffffffffffffffff169060200190929190505050620016b0565b60405180826000191660001916815260200191505060405180910390f35b348015620007f157600080fd5b50620007fc62001727565b60405180826000191660001916815260200191505060405180910390f35b3480156200082757600080fd5b50620008326200174e565b60405180826000191660001916815260200191505060405180910390f35b3480156200085d57600080fd5b50620008e8600480360381019080803573ffffffffffffffffffffffffffffffffffffffff1690602001909291908035600019169060200190929190803590602001908201803590602001908080601f016020809104026020016040519081016040528093929190818152602001838380828437820191505050505050919291929050505062001775565b604051808273ffffffffffffffffffffffffffffffffffffffff1673ffffffffffffffffffffffffffffffffffffffff16815260200191505060405180910390f35b3480156200093757600080fd5b5062000942620018e4565b604051808273ffffffffffffffffffffffffffffffffffffffff1673ffffffffffffffffffffffffffffffffffffffff16815260200191505060405180910390f35b3480156200099157600080fd5b506200099c6200190a565b60405180826000191660001916815260200191505060405180910390f35b348015620009c757600080fd5b50620009d262001910565b60405180826000191660001916815260200191505060405180910390f35b348015620009fd57600080fd5b5062000a0862001937565b604051808273ffffffffffffffffffffffffffffffffffffffff1673ffffffffffffffffffffffffffffffffffffffff16815260200191505060405180910390f35b34801562000a5757600080fd5b5062000a9c600480360381019080803573ffffffffffffffffffffffffffffffffffffffff16906020019092919080356000191690602001909291905050506200196c565b604051808273ffffffffffffffffffffffffffffffffffffffff1673ffffffffffffffffffffffffffffffffffffffff16815260200191505060405180910390f35b34801562000aeb57600080fd5b5062000b3c6004803603810190808035600019169060200190929190803573ffffffffffffffffffffffffffffffffffffffff169060200190929190803515159060200190929190505050620019b8565b604051808273ffffffffffffffffffffffffffffffffffffffff1673ffffffffffffffffffffffffffffffffffffffff16815260200191505060405180910390f35b34801562000b8b57600080fd5b5062000c16600480360381019080803573ffffffffffffffffffffffffffffffffffffffff1690602001909291908035600019169060200190929190803590602001908201803590602001908080601f016020809104026020016040519081016040528093929190818152602001838380828437820191505050505050919291929050505062001abb565b604051808273ffffffffffffffffffffffffffffffffffffffff1673ffffffffffffffffffffffffffffffffffffffff16815260200191505060405180910390f35b34801562000c6557600080fd5b5062000cb66004803603810190808035600019169060200190929190803573ffffffffffffffffffffffffffffffffffffffff16906020019092919080351515906020019092919050505062001c2a565b604051808273ffffffffffffffffffffffffffffffffffffffff1673ffffffffffffffffffffffffffffffffffffffff16815260200191505060405180910390f35b34801562000d0557600080fd5b5062000db0600480360381019080803573ffffffffffffffffffffffffffffffffffffffff169060200190929190803573ffffffffffffffffffffffffffffffffffffffff1690602001909291908035600019169060200190929190803590602001908201803590602001908080601f016020809104026020016040519081016040528093929190818152602001838380828437820191505050505050919291929050505062001d2d565b604051808215151515815260200191505060405180910390f35b34801562000dd757600080fd5b5062000e1c600480360381019080803573ffffffffffffffffffffffffffffffffffffffff169060200190929190803560001916906020019092919050505062001ecf565b604051808273ffffffffffffffffffffffffffffffffffffffff1673ffffffffffffffffffffffffffffffffffffffff16815260200191505060405180910390f35b7f3b4bf6bf3ad5000ecf0f989d5befde585c6860fea3e574a4fab4c49d1c177d9c60010281565b7fd6f028ca0e8edb4a8c9757ca4fdccab25fa1e0317da1188108f7d2dee14902fb60010281565b7f2b7d19d0575c228f8d9326801e14149d284dc5bb7b1541c5ad712ae4b2fcaadb60010281565b7fb6d92708f3d4817afc106147d969e229ced5c46e65e0a5002a0d391287762bd060010262000f267fd6f028ca0e8edb4a8c9757ca4fdccab25fa1e0317da1188108f7d2dee14902fb6001028362001f1b565b606060006020835102905082915080825262000f453330868562001d2d565b151562000f5157600080fd5b7fd6f028ca0e8edb4a8c9757ca4fdccab25fa1e0317da1188108f7d2dee14902fb600102856040518083600019166000191681526020018260001916600019168152602001925050506040518091039020600181600019169055505050505050565b60008060006001546000191660001916815260200190815260200160002060009054906101000a900473ffffffffffffffffffffffffffffffffffffffff16905090565b60006020528060005260406000206000915054906101000a900473ffffffffffffffffffffffffffffffffffffffff1681565b6000806000836000191660001916815260200190815260200160002060009054906101000a900473ffffffffffffffffffffffffffffffffffffffff169050919050565b6000806005541415156200108157600080fd5b6200108b62001f39565b620010ba307fe3262375f45a6e2026b7e7b18c2b807434f2508fe1a2a3dfb493c7df8f4aad6a6001026200196c565b90506200110f7ff1f3eb40f5bc1ad1344716ced8b8a0431d840b5783aea1fd01786bc26f35ac0f6001027fe3262375f45a6e2026b7e7b18c2b807434f2508fe1a2a3dfb493c7df8f4aad6a6001028562001f5d565b50620011637fd6f028ca0e8edb4a8c9757ca4fdccab25fa1e0317da1188108f7d2dee14902fb6001027fe3262375f45a6e2026b7e7b18c2b807434f2508fe1a2a3dfb493c7df8f4aad6a6001028362001f5d565b508073ffffffffffffffffffffffffffffffffffffffff1663c4d66de8836040518263ffffffff167c0100000000000000000000000000000000000000000000000000000000028152600401808273ffffffffffffffffffffffffffffffffffffffff1673ffffffffffffffffffffffffffffffffffffffff168152602001915050600060405180830381600087803b1580156200120057600080fd5b505af115801562001215573d6000803e3d6000fd5b505050507f4214e5fd6d0170d69ea641b5614f5093ebecc9928af51e95685c87617489800e60010260018160001916905550505050565b7fc681a85306374a5ab27f0bbc385296a54bcd314a1948b6cf61c4ea1bc44bb9f860010281565b600060019050919050565b60035481565b60007fb6d92708f3d4817afc106147d969e229ced5c46e65e0a5002a0d391287762bd0600102620012d97ff1f3eb40f5bc1ad1344716ced8b8a0431d840b5783aea1fd01786bc26f35ac0f6001028562001f1b565b6060600060208351029050829150808252620012f83330868562001d2d565b15156200130457600080fd5b6200131287876000620019b8565b94505050505092915050565b600081565b6000600554905090565b7fb6d92708f3d4817afc106147d969e229ced5c46e65e0a5002a0d391287762bd060010281565b60007fb6d92708f3d4817afc106147d969e229ced5c46e65e0a5002a0d391287762bd0600102620013a97ff1f3eb40f5bc1ad1344716ced8b8a0431d840b5783aea1fd01786bc26f35ac0f6001028562001f1b565b6060600060208351029050829150808252620013c83330868562001d2d565b1515620013d457600080fd5b620013e28787600062001c2a565b94505050505092915050565b600080620013fc8362001273565b15156200140857600080fd5b6200141262000fb3565b91506200141f8262002078565b15156200142b57600080fd5b600073ffffffffffffffffffffffffffffffffffffffff168373ffffffffffffffffffffffffffffffffffffffff161415620014c6578173ffffffffffffffffffffffffffffffffffffffff166108fc3073ffffffffffffffffffffffffffffffffffffffff16319081150290604051600060405180830381858888f19350505050158015620014bf573d6000803e3d6000fd5b5062001684565b8273ffffffffffffffffffffffffffffffffffffffff166370a08231306040518263ffffffff167c0100000000000000000000000000000000000000000000000000000000028152600401808273ffffffffffffffffffffffffffffffffffffffff1673ffffffffffffffffffffffffffffffffffffffff168152602001915050602060405180830381600087803b1580156200156257600080fd5b505af115801562001577573d6000803e3d6000fd5b505050506040513d60208110156200158e57600080fd5b810190808051906020019092919050505090508273ffffffffffffffffffffffffffffffffffffffff1663a9059cbb83836040518363ffffffff167c0100000000000000000000000000000000000000000000000000000000028152600401808373ffffffffffffffffffffffffffffffffffffffff1673ffffffffffffffffffffffffffffffffffffffff16815260200182815260200192505050602060405180830381600087803b1580156200164557600080fd5b505af11580156200165a573d6000803e3d6000fd5b505050506040513d60208110156200167157600080fd5b8101908080519060200190929190505050505b505050565b7f4b8e03a458a6ccec5d9077c2490964c1333dd3c72e2db408d7d9a7a36ef5c41a60010281565b60007fb6d92708f3d4817afc106147d969e229ced5c46e65e0a5002a0d391287762bd0600102620016e2858562001f1b565b6060600060208351029050829150808252620017013330868562001d2d565b15156200170d57600080fd5b6200171a88888862001f5d565b9450505050509392505050565b7f4214e5fd6d0170d69ea641b5614f5093ebecc9928af51e95685c87617489800e60010281565b7fe3262375f45a6e2026b7e7b18c2b807434f2508fe1a2a3dfb493c7df8f4aad6a60010281565b60008084848462001785620022f1565b808473ffffffffffffffffffffffffffffffffffffffff1673ffffffffffffffffffffffffffffffffffffffff168152602001836000191660001916815260200180602001828103825283818151815260200191508051906020019080838360005b8381101562001804578082015181840152602081019050620017e7565b50505050905090810190601f168015620018325780820380516001836020036101000a031916815260200191505b50945050505050604051809103906000f08015801562001856573d6000803e3d6000fd5b5090507fd880e726dced8808d727f02dd0e6fdd3a945b24bfee77e13367bcbe61ddbaf4781600086604051808473ffffffffffffffffffffffffffffffffffffffff1673ffffffffffffffffffffffffffffffffffffffff168152602001831515151581526020018260001916600019168152602001935050505060405180910390a1809150509392505050565b600260009054906101000a900473ffffffffffffffffffffffffffffffffffffffff1681565b60015481565b7ff1f3eb40f5bc1ad1344716ced8b8a0431d840b5783aea1fd01786bc26f35ac0f60010281565b6000620019677f4b8e03a458a6ccec5d9077c2490964c1333dd3c72e2db408d7d9a7a36ef5c41a6001026200102a565b905090565b6000620019b0838360006040519080825280601f01601f191660200182016040528015620019a95781602001602082028038833980820191505090505b5062001abb565b905092915050565b60007fb6d92708f3d4817afc106147d969e229ced5c46e65e0a5002a0d391287762bd060010262001a0d7ff1f3eb40f5bc1ad1344716ced8b8a0431d840b5783aea1fd01786bc26f35ac0f6001028662001f1b565b606060006020835102905082915080825262001a2c3330868562001d2d565b151562001a3857600080fd5b62001a687ff1f3eb40f5bc1ad1344716ced8b8a0431d840b5783aea1fd01786bc26f35ac0f6001028989620020cc565b5062001a7530896200196c565b9450851562001ab05762001aae7fd6f028ca0e8edb4a8c9757ca4fdccab25fa1e0317da1188108f7d2dee14902fb6001028987620016b0565b505b505050509392505050565b60008084848462001acb62002302565b808473ffffffffffffffffffffffffffffffffffffffff1673ffffffffffffffffffffffffffffffffffffffff168152602001836000191660001916815260200180602001828103825283818151815260200191508051906020019080838360005b8381101562001b4a57808201518184015260208101905062001b2d565b50505050905090810190601f16801562001b785780820380516001836020036101000a031916815260200191505b50945050505050604051809103906000f08015801562001b9c573d6000803e3d6000fd5b5090507fd880e726dced8808d727f02dd0e6fdd3a945b24bfee77e13367bcbe61ddbaf4781600186604051808473ffffffffffffffffffffffffffffffffffffffff1673ffffffffffffffffffffffffffffffffffffffff168152602001831515151581526020018260001916600019168152602001935050505060405180910390a1809150509392505050565b60007fb6d92708f3d4817afc106147d969e229ced5c46e65e0a5002a0d391287762bd060010262001c7f7ff1f3eb40f5bc1ad1344716ced8b8a0431d840b5783aea1fd01786bc26f35ac0f6001028662001f1b565b606060006020835102905082915080825262001c9e3330868562001d2d565b151562001caa57600080fd5b62001cda7ff1f3eb40f5bc1ad1344716ced8b8a0431d840b5783aea1fd01786bc26f35ac0f6001028989620020cc565b5062001ce7308962001ecf565b9450851562001d225762001d207fd6f028ca0e8edb4a8c9757ca4fdccab25fa1e0317da1188108f7d2dee14902fb6001028987620016b0565b505b505050509392505050565b600062001d3962001937565b73ffffffffffffffffffffffffffffffffffffffff1663fdef9106868686866040518563ffffffff167c0100000000000000000000000000000000000000000000000000000000028152600401808573ffffffffffffffffffffffffffffffffffffffff1673ffffffffffffffffffffffffffffffffffffffff1681526020018473ffffffffffffffffffffffffffffffffffffffff1673ffffffffffffffffffffffffffffffffffffffff168152602001836000191660001916815260200180602001828103825283818151815260200191508051906020019080838360005b8381101562001e3757808201518184015260208101905062001e1a565b50505050905090810190601f16801562001e655780820380516001836020036101000a031916815260200191505b5095505050505050602060405180830381600087803b15801562001e8857600080fd5b505af115801562001e9d573d6000803e3d6000fd5b505050506040513d602081101562001eb457600080fd5b81019080805190602001909291905050509050949350505050565b600062001f13838360006040519080825280601f01601f19166020018201604052801562001f0c5781602001602082028038833980820191505090505b5062001775565b905092915050565b606062001f31836001900483600190046200226f565b905092915050565b600060055414151562001f4b57600080fd5b62001f55620022e9565b600581905550565b600062001f6a8262002078565b151562001f7657600080fd5b83836040518083600019166000191681526020018260001916600019168152602001925050506040518091039020905081600080836000191660001916815260200190815260200160002060006101000a81548173ffffffffffffffffffffffffffffffffffffffff021916908373ffffffffffffffffffffffffffffffffffffffff1602179055508060001916836000191685600019167fe944a7cdbc6cbd4bfe4713501567365bd379a9df5fd376422712b066d6e6b52285604051808273ffffffffffffffffffffffffffffffffffffffff1673ffffffffffffffffffffffffffffffffffffffff16815260200191505060405180910390a49392505050565b600080600073ffffffffffffffffffffffffffffffffffffffff168373ffffffffffffffffffffffffffffffffffffffff161415620020bb5760009150620020c6565b823b90506000811191505b50919050565b600080620020da8362002078565b1515620020e657600080fd5b84846040518083600019166000191681526020018260001916600019168152602001925050506040518091039020915062002121826200102a565b9050600073ffffffffffffffffffffffffffffffffffffffff168173ffffffffffffffffffffffffffffffffffffffff161415156200219b578273ffffffffffffffffffffffffffffffffffffffff168173ffffffffffffffffffffffffffffffffffffffff161415156200219557600080fd5b62002267565b82600080846000191660001916815260200190815260200160002060006101000a81548173ffffffffffffffffffffffffffffffffffffffff021916908373ffffffffffffffffffffffffffffffffffffffff1602179055508160001916846000191686600019167fe944a7cdbc6cbd4bfe4713501567365bd379a9df5fd376422712b066d6e6b52286604051808273ffffffffffffffffffffffffffffffffffffffff1673ffffffffffffffffffffffffffffffffffffffff16815260200191505060405180910390a45b509392505050565b60606002604051908082528060200260200182016040528015620022a25781602001602082028038833980820191505090505b50905082816000815181101515620022b657fe5b906020019060200201818152505081816001815181101515620022d557fe5b906020019060200201818152505092915050565b600043905090565b604051610aa9806200231483390190565b604051610b058062002dbd833901905600608060405234801561001057600080fd5b50604051610aa9380380610aa98339810180604052810190808051906020019092919080519060200190929190805182019291905050508282826000836000806101000a81548173ffffffffffffffffffffffffffffffffffffffff021916908373ffffffffffffffffffffffffffffffffffffffff16021790555082600181600019169055506100b1600154610235640100000000026401000000009004565b9050600082511115610171576100d581610361640100000000026401000000009004565b15156100e057600080fd5b8073ffffffffffffffffffffffffffffffffffffffff168260405180828051906020019080838360005b8381101561012557808201518184015260208101905061010a565b50505050905090810190601f1680156101525780820380516001836020036101000a031916815260200191505b50915050600060405180830381855af4915050151561017057600080fd5b5b5050505061018f600154610235640100000000026401000000009004565b600260006101000a81548173ffffffffffffffffffffffffffffffffffffffff021916908373ffffffffffffffffffffffffffffffffffffffff160217905550600073ffffffffffffffffffffffffffffffffffffffff16600260009054906101000a900473ffffffffffffffffffffffffffffffffffffffff1673ffffffffffffffffffffffffffffffffffffffff161415151561022d57600080fd5b5050506103b3565b60008060009054906101000a900473ffffffffffffffffffffffffffffffffffffffff1673ffffffffffffffffffffffffffffffffffffffff166342c71f1d7ff1f3eb40f5bc1ad1344716ced8b8a0431d840b5783aea1fd01786bc26f35ac0f6001028460405180836000191660001916815260200182600019166000191681526020019250505060405180910390206040518263ffffffff167c0100000000000000000000000000000000000000000000000000000000028152600401808260001916600019168152602001915050602060405180830381600087803b15801561031f57600080fd5b505af1158015610333573d6000803e3d6000fd5b505050506040513d602081101561034957600080fd5b81019080805190602001909291905050509050919050565b600080600073ffffffffffffffffffffffffffffffffffffffff168373ffffffffffffffffffffffffffffffffffffffff1614156103a257600091506103ad565b823b90506000811191505b50919050565b6106e7806103c26000396000f3006080604052600436106100d0576000357c0100000000000000000000000000000000000000000000000000000000900463ffffffff1680630ceafa2a146101b55780631113ed0d146101e0578063178e60791461021357806325012699146102465780632b2584f6146102795780634555d5c9146102a45780635c60da1b146102cf578063756f6049146103265780637e84a4ff1461035957806380afdea814610384578063a3b4b07f146103b7578063cbcc65eb146103ea578063d4aae0c41461041d578063db8a61d414610474575b60006127105a101561016a576000341180156100ef5750600080369050145b15156100fa57600080fd5b7f15eeaa57c7bd188c1388020bcadc2c436ec60d647d36ef5b9eb3c742217ddee13334604051808373ffffffffffffffffffffffffffffffffffffffff1673ffffffffffffffffffffffffffffffffffffffff1681526020018281526020019250505060405180910390a16101b2565b6101726104a7565b90506101b1816000368080601f0160208091040260200160405190810160405280939291908181526020018383808284378201915050505050506104d1565b5b50005b3480156101c157600080fd5b506101ca610514565b6040518082815260200191505060405180910390f35b3480156101ec57600080fd5b506101f561051a565b60405180826000191660001916815260200191505060405180910390f35b34801561021f57600080fd5b50610228610541565b60405180826000191660001916815260200191505060405180910390f35b34801561025257600080fd5b5061025b610568565b60405180826000191660001916815260200191505060405180910390f35b34801561028557600080fd5b5061028e61058f565b6040518082815260200191505060405180910390f35b3480156102b057600080fd5b506102b9610594565b6040518082815260200191505060405180910390f35b3480156102db57600080fd5b506102e46104a7565b604051808273ffffffffffffffffffffffffffffffffffffffff1673ffffffffffffffffffffffffffffffffffffffff16815260200191505060405180910390f35b34801561033257600080fd5b5061033b61059d565b60405180826000191660001916815260200191505060405180910390f35b34801561036557600080fd5b5061036e6105c4565b6040518082815260200191505060405180910390f35b34801561039057600080fd5b506103996105c9565b60405180826000191660001916815260200191505060405180910390f35b3480156103c357600080fd5b506103cc6105cf565b60405180826000191660001916815260200191505060405180910390f35b3480156103f657600080fd5b506103ff6105f6565b60405180826000191660001916815260200191505060405180910390f35b34801561042957600080fd5b5061043261061d565b604051808273ffffffffffffffffffffffffffffffffffffffff1673ffffffffffffffffffffffffffffffffffffffff16815260200191505060405180910390f35b34801561048057600080fd5b50610489610642565b60405180826000191660001916815260200191505060405180910390f35b6000600260009054906101000a900473ffffffffffffffffffffffffffffffffffffffff16905090565b60006104dc83610669565b15156104e757600080fd5b612710905060008083516020850186855a03f43d604051816000823e8260008114610510578282f35b8282fd5b61271081565b7f3b4bf6bf3ad5000ecf0f989d5befde585c6860fea3e574a4fab4c49d1c177d9c60010281565b7fd6f028ca0e8edb4a8c9757ca4fdccab25fa1e0317da1188108f7d2dee14902fb60010281565b7f2b7d19d0575c228f8d9326801e14149d284dc5bb7b1541c5ad712ae4b2fcaadb60010281565b600181565b60006001905090565b7fc681a85306374a5ab27f0bbc385296a54bcd314a1948b6cf61c4ea1bc44bb9f860010281565b600281565b60015481565b7f4b8e03a458a6ccec5d9077c2490964c1333dd3c72e2db408d7d9a7a36ef5c41a60010281565b7fe3262375f45a6e2026b7e7b18c2b807434f2508fe1a2a3dfb493c7df8f4aad6a60010281565b6000809054906101000a900473ffffffffffffffffffffffffffffffffffffffff1681565b7ff1f3eb40f5bc1ad1344716ced8b8a0431d840b5783aea1fd01786bc26f35ac0f60010281565b600080600073ffffffffffffffffffffffffffffffffffffffff168373ffffffffffffffffffffffffffffffffffffffff1614156106aa57600091506106b5565b823b90506000811191505b509190505600a165627a7a72305820e5c3169407cf8b3d34de052349fc02a9eb9fe9ca37ab4e7c78d43bd6d1a84e3e0029608060405234801561001057600080fd5b50604051610b05380380610b058339810180604052810190808051906020019092919080519060200190929190805182019291905050508282826000836000806101000a81548173ffffffffffffffffffffffffffffffffffffffff021916908373ffffffffffffffffffffffffffffffffffffffff16021790555082600181600019169055506100b160015461017d640100000000026401000000009004565b9050600082511115610171576100d5816102a9640100000000026401000000009004565b15156100e057600080fd5b8073ffffffffffffffffffffffffffffffffffffffff168260405180828051906020019080838360005b8381101561012557808201518184015260208101905061010a565b50505050905090810190601f1680156101525780820380516001836020036101000a031916815260200191505b50915050600060405180830381855af4915050151561017057600080fd5b5b505050505050506102fb565b60008060009054906101000a900473ffffffffffffffffffffffffffffffffffffffff1673ffffffffffffffffffffffffffffffffffffffff166342c71f1d7ff1f3eb40f5bc1ad1344716ced8b8a0431d840b5783aea1fd01786bc26f35ac0f6001028460405180836000191660001916815260200182600019166000191681526020019250505060405180910390206040518263ffffffff167c0100000000000000000000000000000000000000000000000000000000028152600401808260001916600019168152602001915050602060405180830381600087803b15801561026757600080fd5b505af115801561027b573d6000803e3d6000fd5b505050506040513d602081101561029157600080fd5b81019080805190602001909291905050509050919050565b600080600073ffffffffffffffffffffffffffffffffffffffff168373ffffffffffffffffffffffffffffffffffffffff1614156102ea57600091506102f5565b823b90506000811191505b50919050565b6107fb8061030a6000396000f3006080604052600436106100d0576000357c0100000000000000000000000000000000000000000000000000000000900463ffffffff1680630ceafa2a146101b55780631113ed0d146101e0578063178e60791461021357806325012699146102465780632b2584f6146102795780634555d5c9146102a45780635c60da1b146102cf578063756f6049146103265780637e84a4ff1461035957806380afdea814610384578063a3b4b07f146103b7578063cbcc65eb146103ea578063d4aae0c41461041d578063db8a61d414610474575b60006127105a101561016a576000341180156100ef5750600080369050145b15156100fa57600080fd5b7f15eeaa57c7bd188c1388020bcadc2c436ec60d647d36ef5b9eb3c742217ddee13334604051808373ffffffffffffffffffffffffffffffffffffffff1673ffffffffffffffffffffffffffffffffffffffff1681526020018281526020019250505060405180910390a16101b2565b6101726104a7565b90506101b1816000368080601f0160208091040260200160405190810160405280939291908181526020018383808284378201915050505050506104b9565b5b50005b3480156101c157600080fd5b506101ca6104fc565b6040518082815260200191505060405180910390f35b3480156101ec57600080fd5b506101f5610502565b60405180826000191660001916815260200191505060405180910390f35b34801561021f57600080fd5b50610228610529565b60405180826000191660001916815260200191505060405180910390f35b34801561025257600080fd5b5061025b610550565b60405180826000191660001916815260200191505060405180910390f35b34801561028557600080fd5b5061028e610577565b6040518082815260200191505060405180910390f35b3480156102b057600080fd5b506102b961057c565b6040518082815260200191505060405180910390f35b3480156102db57600080fd5b506102e46104a7565b604051808273ffffffffffffffffffffffffffffffffffffffff1673ffffffffffffffffffffffffffffffffffffffff16815260200191505060405180910390f35b34801561033257600080fd5b5061033b610585565b60405180826000191660001916815260200191505060405180910390f35b34801561036557600080fd5b5061036e6105ac565b6040518082815260200191505060405180910390f35b34801561039057600080fd5b506103996105b1565b60405180826000191660001916815260200191505060405180910390f35b3480156103c357600080fd5b506103cc6105b7565b60405180826000191660001916815260200191505060405180910390f35b3480156103f657600080fd5b506103ff6105de565b60405180826000191660001916815260200191505060405180910390f35b34801561042957600080fd5b50610432610605565b604051808273ffffffffffffffffffffffffffffffffffffffff1673ffffffffffffffffffffffffffffffffffffffff16815260200191505060405180910390f35b34801561048057600080fd5b5061048961062a565b60405180826000191660001916815260200191505060405180910390f35b60006104b4600154610651565b905090565b60006104c48361077d565b15156104cf57600080fd5b612710905060008083516020850186855a03f43d604051816000823e82600081146104f8578282f35b8282fd5b61271081565b7f3b4bf6bf3ad5000ecf0f989d5befde585c6860fea3e574a4fab4c49d1c177d9c60010281565b7fd6f028ca0e8edb4a8c9757ca4fdccab25fa1e0317da1188108f7d2dee14902fb60010281565b7f2b7d19d0575c228f8d9326801e14149d284dc5bb7b1541c5ad712ae4b2fcaadb60010281565b600181565b60006002905090565b7fc681a85306374a5ab27f0bbc385296a54bcd314a1948b6cf61c4ea1bc44bb9f860010281565b600281565b60015481565b7f4b8e03a458a6ccec5d9077c2490964c1333dd3c72e2db408d7d9a7a36ef5c41a60010281565b7fe3262375f45a6e2026b7e7b18c2b807434f2508fe1a2a3dfb493c7df8f4aad6a60010281565b6000809054906101000a900473ffffffffffffffffffffffffffffffffffffffff1681565b7ff1f3eb40f5bc1ad1344716ced8b8a0431d840b5783aea1fd01786bc26f35ac0f60010281565b60008060009054906101000a900473ffffffffffffffffffffffffffffffffffffffff1673ffffffffffffffffffffffffffffffffffffffff166342c71f1d7ff1f3eb40f5bc1ad1344716ced8b8a0431d840b5783aea1fd01786bc26f35ac0f6001028460405180836000191660001916815260200182600019166000191681526020019250505060405180910390206040518263ffffffff167c0100000000000000000000000000000000000000000000000000000000028152600401808260001916600019168152602001915050602060405180830381600087803b15801561073b57600080fd5b505af115801561074f573d6000803e3d6000fd5b505050506040513d602081101561076557600080fd5b81019080805190602001909291905050509050919050565b600080600073ffffffffffffffffffffffffffffffffffffffff168373ffffffffffffffffffffffffffffffffffffffff1614156107be57600091506107c9565b823b90506000811191505b509190505600a165627a7a72305820fde32a6b44c483826cae412c80edc0e8b2ecd4ce6596ffcbf6325a25b00064680029a165627a7a72305820e022d33f85ceedc5890b945aac32de453b1957340aee5cd09f028cdcd69d31110029608060405234801561001057600080fd5b50612c78806100206000396000f300608060405260043610610175576000357c0100000000000000000000000000000000000000000000000000000000900463ffffffff1680630a8ed3db1461017a57806315949ed7146101eb5780631b5e75be146102705780631d63ff2b1461034a57806332f0a3b51461037d5780633d6ab68f146103d457806360b1e057146104075780636815c9921461043a5780636d6712d8146104ee5780637e7db6e11461057757806380afdea8146105d25780638322fff2146106055780638b3dd7491461065c5780639b3fdf4c146106875780639d0effdb146106ba5780639d4941d81461072b578063a03c58321461076e578063a1658fad14610857578063a5ed8bf814610903578063a885508a1461095a578063afd925df146109ab578063b190572714610a1c578063be03847814610aad578063c4d66de814610b3e578063c513f66e14610b81578063d4aae0c414610bb4578063f520b58d14610c0b578063f92a79ff14610cd7578063fdef910614610d80575b600080fd5b34801561018657600080fd5b506101e9600480360381019080803573ffffffffffffffffffffffffffffffffffffffff169060200190929190803573ffffffffffffffffffffffffffffffffffffffff1690602001909291908035600019169060200190929190505050610e4f565b005b3480156101f757600080fd5b5061025a600480360381019080803573ffffffffffffffffffffffffffffffffffffffff169060200190929190803573ffffffffffffffffffffffffffffffffffffffff1690602001909291908035600019169060200190929190505050610e90565b6040518082815260200191505060405180910390f35b34801561027c57600080fd5b506103306004803603810190808035600019169060200190929190803573ffffffffffffffffffffffffffffffffffffffff169060200190929190803573ffffffffffffffffffffffffffffffffffffffff169060200190929190803560001916906020019092919080359060200190820180359060200190808060200260200160405190810160405280939291908181526020018383602002808284378201915050505050509192919290505050610edf565b604051808215151515815260200191505060405180910390f35b34801561035657600080fd5b5061035f610f38565b60405180826000191660001916815260200191505060405180910390f35b34801561038957600080fd5b50610392610f40565b604051808273ffffffffffffffffffffffffffffffffffffffff1673ffffffffffffffffffffffffffffffffffffffff16815260200191505060405180910390f35b3480156103e057600080fd5b506103e961104d565b60405180826000191660001916815260200191505060405180910390f35b34801561041357600080fd5b5061041c611074565b60405180826000191660001916815260200191505060405180910390f35b34801561044657600080fd5b506104ec600480360381019080803573ffffffffffffffffffffffffffffffffffffffff169060200190929190803573ffffffffffffffffffffffffffffffffffffffff16906020019092919080356000191690602001909291908035906020019082018035906020019080806020026020016040519081016040528093929190818152602001838360200280828437820191505050505050919291929050505061109b565b005b3480156104fa57600080fd5b5061055d600480360381019080803573ffffffffffffffffffffffffffffffffffffffff169060200190929190803573ffffffffffffffffffffffffffffffffffffffff1690602001909291908035600019169060200190929190505050611135565b604051808215151515815260200191505060405180910390f35b34801561058357600080fd5b506105b8600480360381019080803573ffffffffffffffffffffffffffffffffffffffff169060200190929190505050611182565b604051808215151515815260200191505060405180910390f35b3480156105de57600080fd5b506105e761118d565b60405180826000191660001916815260200191505060405180910390f35b34801561061157600080fd5b5061061a611193565b604051808273ffffffffffffffffffffffffffffffffffffffff1673ffffffffffffffffffffffffffffffffffffffff16815260200191505060405180910390f35b34801561066857600080fd5b50610671611198565b6040518082815260200191505060405180910390f35b34801561069357600080fd5b5061069c6111a2565b60405180826000191660001916815260200191505060405180910390f35b3480156106c657600080fd5b50610729600480360381019080803573ffffffffffffffffffffffffffffffffffffffff169060200190929190803573ffffffffffffffffffffffffffffffffffffffff16906020019092919080356000191690602001909291905050506111c9565b005b34801561073757600080fd5b5061076c600480360381019080803573ffffffffffffffffffffffffffffffffffffffff169060200190929190505050611225565b005b34801561077a57600080fd5b506107e7600480360381019080803573ffffffffffffffffffffffffffffffffffffffff169060200190929190803573ffffffffffffffffffffffffffffffffffffffff1690602001909291908035600019169060200190929190803590602001909291905050506114af565b604051808460ff1660ff1681526020018360ff1660ff168152602001827dffffffffffffffffffffffffffffffffffffffffffffffffffffffffffff167dffffffffffffffffffffffffffffffffffffffffffffffffffffffffffff168152602001935050505060405180910390f35b34801561086357600080fd5b506108e9600480360381019080803573ffffffffffffffffffffffffffffffffffffffff169060200190929190803560001916906020019092919080359060200190820180359060200190808060200260200160405190810160405280939291908181526020018383602002808284378201915050505050509192919290505050611572565b604051808215151515815260200191505060405180910390f35b34801561090f57600080fd5b50610918611784565b604051808273ffffffffffffffffffffffffffffffffffffffff1673ffffffffffffffffffffffffffffffffffffffff16815260200191505060405180910390f35b34801561096657600080fd5b506109a9600480360381019080803573ffffffffffffffffffffffffffffffffffffffff16906020019092919080356000191690602001909291905050506117a8565b005b3480156109b757600080fd5b50610a1a600480360381019080803573ffffffffffffffffffffffffffffffffffffffff169060200190929190803573ffffffffffffffffffffffffffffffffffffffff16906020019092919080356000191690602001909291905050506117ff565b005b348015610a2857600080fd5b50610a6b600480360381019080803573ffffffffffffffffffffffffffffffffffffffff1690602001909291908035600019169060200190929190505050611856565b604051808273ffffffffffffffffffffffffffffffffffffffff1673ffffffffffffffffffffffffffffffffffffffff16815260200191505060405180910390f35b348015610ab957600080fd5b50610b3c600480360381019080803573ffffffffffffffffffffffffffffffffffffffff169060200190929190803573ffffffffffffffffffffffffffffffffffffffff1690602001909291908035600019169060200190929190803573ffffffffffffffffffffffffffffffffffffffff1690602001909291905050506118a5565b005b348015610b4a57600080fd5b50610b7f600480360381019080803573ffffffffffffffffffffffffffffffffffffffff1690602001909291905050506118f0565b005b348015610b8d57600080fd5b50610b96611996565b60405180826000191660001916815260200191505060405180910390f35b348015610bc057600080fd5b50610bc96119bd565b604051808273ffffffffffffffffffffffffffffffffffffffff1673ffffffffffffffffffffffffffffffffffffffff16815260200191505060405180910390f35b348015610c1757600080fd5b50610cbd600480360381019080803573ffffffffffffffffffffffffffffffffffffffff169060200190929190803573ffffffffffffffffffffffffffffffffffffffff1690602001909291908035600019169060200190929190803590602001908201803590602001908080602002602001604051908101604052809392919081815260200183836020028082843782019150505050505091929192905050506119e2565b604051808215151515815260200191505060405180910390f35b348015610ce357600080fd5b50610d3e600480360381019080803590602001908201803590602001908080601f0160208091040260200160405190810160405280939291908181526020018383808284378201915050505050509192919290505050611aec565b604051808273ffffffffffffffffffffffffffffffffffffffff1673ffffffffffffffffffffffffffffffffffffffff16815260200191505060405180910390f35b348015610d8c57600080fd5b50610e35600480360381019080803573ffffffffffffffffffffffffffffffffffffffff169060200190929190803573ffffffffffffffffffffffffffffffffffffffff1690602001909291908035600019169060200190929190803590602001908201803590602001908080601f0160208091040260200160405190810160405280939291908181526020018383808284378201915050505050509192919290505050611c0b565b604051808215151515815260200191505060405180910390f35b610e8b8383836000604051908082528060200260200182016040528015610e855781602001602082028038833980820191505090505b5061109b565b505050565b60006065600060646000610ea5888888611c3f565b6000191660001916815260200190815260200160002054600019166000191681526020019081526020016000208054905090509392505050565b60007f290decd9548b62a8d60345a988386fc84ba6bc95484008f6362f93160ef3e5636001026000191686600019161415610f1d5760019050610f2f565b610f2c86600087878787611cf7565b90505b95945050505050565b600060010281565b6000806000809054906101000a900473ffffffffffffffffffffffffffffffffffffffff1673ffffffffffffffffffffffffffffffffffffffff1614151515610f8857600080fd5b6000809054906101000a900473ffffffffffffffffffffffffffffffffffffffff1673ffffffffffffffffffffffffffffffffffffffff166332f0a3b56040518163ffffffff167c0100000000000000000000000000000000000000000000000000000000028152600401602060405180830381600087803b15801561100d57600080fd5b505af1158015611021573d6000803e3d6000fd5b505050506040513d602081101561103757600080fd5b8101908080519060200190929190505050905090565b7f0b719b33c83b8e5d300c521cb8b54ae9bd933996a14bef8c2f4e0285d2d2400a60010281565b7fddbcfd564f642ab5627cf68b9b7d374fb4f8a36e941a75d89c87998cef03bd6160010281565b600083836110a98282611856565b73ffffffffffffffffffffffffffffffffffffffff163373ffffffffffffffffffffffffffffffffffffffff161415156110e257600080fd5b6000845111611114577f290decd9548b62a8d60345a988386fc84ba6bc95484008f6362f93160ef3e56360010261111e565b61111d84612044565b5b925061112c87878786612223565b50505050505050565b6000606060006040519080825280602002602001820160405280156111695781602001602082028038833980820191505090505b509050611178858585846119e2565b9150509392505050565b600060019050919050565b60015481565b600081565b6000600354905090565b7f34f01c17e9be6ddbf2c61f37b5b1fb9f1a090a975006581ad19bda1c4d38287160010281565b81816111d58282611856565b73ffffffffffffffffffffffffffffffffffffffff163373ffffffffffffffffffffffffffffffffffffffff1614151561120e57600080fd5b61121e8585856000600102612223565b5050505050565b60008061123183611182565b151561123c57600080fd5b611244610f40565b915061124f8261238f565b151561125a57600080fd5b600073ffffffffffffffffffffffffffffffffffffffff168373ffffffffffffffffffffffffffffffffffffffff1614156112f2578173ffffffffffffffffffffffffffffffffffffffff166108fc3073ffffffffffffffffffffffffffffffffffffffff16319081150290604051600060405180830381858888f193505050501580156112ec573d6000803e3d6000fd5b506114aa565b8273ffffffffffffffffffffffffffffffffffffffff166370a08231306040518263ffffffff167c0100000000000000000000000000000000000000000000000000000000028152600401808273ffffffffffffffffffffffffffffffffffffffff1673ffffffffffffffffffffffffffffffffffffffff168152602001915050602060405180830381600087803b15801561138d57600080fd5b505af11580156113a1573d6000803e3d6000fd5b505050506040513d60208110156113b757600080fd5b810190808051906020019092919050505090508273ffffffffffffffffffffffffffffffffffffffff1663a9059cbb83836040518363ffffffff167c0100000000000000000000000000000000000000000000000000000000028152600401808373ffffffffffffffffffffffffffffffffffffffff1673ffffffffffffffffffffffffffffffffffffffff16815260200182815260200192505050602060405180830381600087803b15801561146d57600080fd5b505af1158015611481573d6000803e3d6000fd5b505050506040513d602081101561149757600080fd5b8101908080519060200190929190505050505b505050565b60008060008060656000606460006114c88c8c8c611c3f565b6000191660001916815260200190815260200160002054600019166000191681526020019081526020016000208581548110151561150257fe5b9060005260206000200190508060000160009054906101000a900460ff1693508060000160019054906101000a900460ff1692508060000160029054906101000a90047dffffffffffffffffffffffffffffffffffffffffffffffffffffffffffff169150509450945094915050565b600060606000808451111561158f57602084510290508391508082525b60008060009054906101000a900473ffffffffffffffffffffffffffffffffffffffff1673ffffffffffffffffffffffffffffffffffffffff16148061177957506000809054906101000a900473ffffffffffffffffffffffffffffffffffffffff1673ffffffffffffffffffffffffffffffffffffffff1663fdef9106873088866040518563ffffffff167c0100000000000000000000000000000000000000000000000000000000028152600401808573ffffffffffffffffffffffffffffffffffffffff1673ffffffffffffffffffffffffffffffffffffffff1681526020018473ffffffffffffffffffffffffffffffffffffffff1673ffffffffffffffffffffffffffffffffffffffff168152602001836000191660001916815260200180602001828103825283818151815260200191508051906020019080838360005b838110156116ee5780820151818401526020810190506116d3565b50505050905090810190601f16801561171b5780820380516001836020036101000a031916815260200191505b5095505050505050602060405180830381600087803b15801561173d57600080fd5b505af1158015611751573d6000803e3d6000fd5b505050506040513d602081101561176757600080fd5b81019080805190602001909291905050505b925050509392505050565b7fffffffffffffffffffffffffffffffffffffffffffffffffffffffffffffffff81565b81816117b48282611856565b73ffffffffffffffffffffffffffffffffffffffff163373ffffffffffffffffffffffffffffffffffffffff161415156117ed57600080fd5b6117f9600085856123e1565b50505050565b818161180b8282611856565b73ffffffffffffffffffffffffffffffffffffffff163373ffffffffffffffffffffffffffffffffffffffff1614151561184457600080fd5b61184f8585856123e1565b5050505050565b60006066600061186685856124a8565b6000191660001916815260200190815260200160002060009054906101000a900473ffffffffffffffffffffffffffffffffffffffff16905092915050565b6118d333307f0b719b33c83b8e5d300c521cb8b54ae9bd933996a14bef8c2f4e0285d2d2400a600102611135565b15156118de57600080fd5b6118ea8484848461251c565b50505050565b600060035414151561190157600080fd5b6119096125a0565b6000809054906101000a900473ffffffffffffffffffffffffffffffffffffffff1673ffffffffffffffffffffffffffffffffffffffff163373ffffffffffffffffffffffffffffffffffffffff1614151561196457600080fd5b61199381307f0b719b33c83b8e5d300c521cb8b54ae9bd933996a14bef8c2f4e0285d2d2400a6001028461251c565b50565b7f290decd9548b62a8d60345a988386fc84ba6bc95484008f6362f93160ef3e56360010281565b6000809054906101000a900473ffffffffffffffffffffffffffffffffffffffff1681565b6000806000606460006119f6898989611c3f565b60001916600019168152602001908152602001600020549150600060010260001916826000191614158015611a345750611a338288888888610edf565b5b15611a425760019250611ae2565b60646000611a717fffffffffffffffffffffffffffffffffffffffffffffffffffffffffffffffff8989611c3f565b60001916600019168152602001908152602001600020549050600060010260001916816000191614158015611acf5750611ace817fffffffffffffffffffffffffffffffffffffffffffffffffffffffffffffffff888888610edf565b5b15611add5760019250611ae2565b600092505b5050949350505050565b6000611af66125c1565b73ffffffffffffffffffffffffffffffffffffffff166304bf2a7f836040518263ffffffff167c01000000000000000000000000000000000000000000000000000000000281526004018080602001828103825283818151815260200191508051906020019080838360005b83811015611b7d578082015181840152602081019050611b62565b50505050905090810190601f168015611baa5780820380516001836020036101000a031916815260200191505b5092505050602060405180830381600087803b158015611bc957600080fd5b505af1158015611bdd573d6000803e3d6000fd5b505050506040513d6020811015611bf357600080fd5b81019080805190602001909291905050509050919050565b60006060600060208451811515611c1e57fe5b049050839150808252611c33878787856119e2565b92505050949350505050565b60006002848484604051808581526020018473ffffffffffffffffffffffffffffffffffffffff1673ffffffffffffffffffffffffffffffffffffffff166c010000000000000000000000000281526014018373ffffffffffffffffffffffffffffffffffffffff1673ffffffffffffffffffffffffffffffffffffffff166c010000000000000000000000000281526014018260001916600019168152602001945050505050604051809103902090509392505050565b6000611d01612c04565b600080606560008b60001916600019168152602001908152602001600020805490508963ffffffff16101515611d3a5760009350612037565b606560008b600019166000191681526020019081526020016000208963ffffffff16815481101515611d6857fe5b90600052602060002001606060405190810160405290816000820160009054906101000a900460ff1660ff1660ff1681526020016000820160019054906101000a900460ff1660ff1660ff1681526020016000820160029054906101000a90047dffffffffffffffffffffffffffffffffffffffffffffffffffffffffffff167dffffffffffffffffffffffffffffffffffffffffffffffffffffffffffff167dffffffffffffffffffffffffffffffffffffffffffffffffffffffffffff1681525050925060cc60ff16836000015160ff161415611e5657611e4f838b8a8a8a8a6126c3565b9350612037565b82604001517dffffffffffffffffffffffffffffffffffffffffffffffffffffffffffff16905060cb60ff16836000015160ff161415611ebd57611ea18360400151898989896128ce565b611eac576000611eaf565b60015b60ff16915060019050611fdb565b60c860ff16836000015160ff161415611edf57611ed8612a9c565b9150611fda565b60c960ff16836000015160ff161415611f0b57611efa612aa4565b67ffffffffffffffff169150611fd9565b60ca60ff16836000015160ff161415611f3c573373ffffffffffffffffffffffffffffffffffffffff169150611fd8565b60cd60ff16836000015160ff161415611f7b5782604001517dffffffffffffffffffffffffffffffffffffffffffffffffffffffffffff169150611fd7565b8451836000015160ff16101515611f955760009350612037565b84836000015160ff16815181101515611faa57fe5b906020019060200201517dffffffffffffffffffffffffffffffffffffffffffffffffffffffffffff1691505b5b5b5b5b6007600c811115611fe857fe5b836020015160ff16600c811115611ffb57fe5b600c81111561200657fe5b141561201757600082119350612037565b61203482846020015160ff16600c81111561202e57fe5b83612aac565b93505b5050509695505050505050565b6000806000806000612054612c04565b8660405180828051906020019060200280838360005b8381101561208557808201518184015260208101905061206a565b5050505090500191505060405180910390209450606560008660001916600019168152602001908152602001600020935060008480549050141561221657600092505b86518310156122155786838151811015156120df57fe5b90602001906020020151915060606040519081016040528061210084612bb3565b60ff16815260200161211184612bc5565b60ff168152602001837dffffffffffffffffffffffffffffffffffffffffffffffffffffffffffff168152509050838190806001815401808255809150509060018203906000526020600020016000909192909190915060008201518160000160006101000a81548160ff021916908360ff16021790555060208201518160000160016101000a81548160ff021916908360ff16021790555060408201518160000160026101000a8154817dffffffffffffffffffffffffffffffffffffffffffffffffffffffffffff02191690837dffffffffffffffffffffffffffffffffffffffffffffffffffffffffffff16021790555050505082806001019350506120c8565b5b8495505050505050919050565b6000808260646000612236898989611c3f565b60001916600019168152602001908152602001600020816000191690555060006001026000191683600019161415915081801561229e57507f290decd9548b62a8d60345a988386fc84ba6bc95484008f6362f93160ef3e56360010260001916836000191614155b905083600019168573ffffffffffffffffffffffffffffffffffffffff168773ffffffffffffffffffffffffffffffffffffffff167f759b9a74d5354b5801710a0c1b283cc9f0d32b607ac8ced10c83ac8e75c77d5285604051808215151515815260200191505060405180910390a480156123875783600019168573ffffffffffffffffffffffffffffffffffffffff168773ffffffffffffffffffffffffffffffffffffffff167f8dfee25d92d73b8c9b868f9fa3e215cc1981033f426e53803e3da4f09a2cfc308660405180826000191660001916815260200191505060405180910390a45b505050505050565b600080600073ffffffffffffffffffffffffffffffffffffffff168373ffffffffffffffffffffffffffffffffffffffff1614156123d057600091506123db565b823b90506000811191505b50919050565b82606660006123f085856124a8565b6000191660001916815260200190815260200160002060006101000a81548173ffffffffffffffffffffffffffffffffffffffff021916908373ffffffffffffffffffffffffffffffffffffffff1602179055508273ffffffffffffffffffffffffffffffffffffffff1681600019168373ffffffffffffffffffffffffffffffffffffffff167ff3addc8b8e25ee11528a61b0e65092cae0666ef0ec0c64cb303993c88d689b4d60405160405180910390a4505050565b600060018383604051808481526020018373ffffffffffffffffffffffffffffffffffffffff1673ffffffffffffffffffffffffffffffffffffffff166c01000000000000000000000000028152601401826000191660001916815260200193505050506040518091039020905092915050565b600073ffffffffffffffffffffffffffffffffffffffff1661253e8484611856565b73ffffffffffffffffffffffffffffffffffffffff1614151561256057600080fd5b61258f8484847f290decd9548b62a8d60345a988386fc84ba6bc95484008f6362f93160ef3e563600102612223565b61259a8184846123e1565b50505050565b60006003541415156125b157600080fd5b6125b9612bd7565b600381905550565b6000806000809054906101000a900473ffffffffffffffffffffffffffffffffffffffff1673ffffffffffffffffffffffffffffffffffffffff166342c71f1d7f34f01c17e9be6ddbf2c61f37b5b1fb9f1a090a975006581ad19bda1c4d3828716001026040518263ffffffff167c0100000000000000000000000000000000000000000000000000000000028152600401808260001916600019168152602001915050602060405180830381600087803b15801561267f57600080fd5b505af1158015612693573d6000803e3d6000fd5b505050506040513d60208110156126a957600080fd5b810190808051906020019092919050505090508091505090565b6000806000806000806000806000600c808111156126dd57fe5b8f6020015160ff16600c8111156126f057fe5b600c8111156126fb57fe5b14156127655761272e8f604001517dffffffffffffffffffffffffffffffffffffffffffffffffffffffffffff16612bdf565b9750975097506127428e898f8f8f8f611cf7565b945061275e8e866127535787612755565b885b8f8f8f8f611cf7565b98506128bc565b6127928f604001517dffffffffffffffffffffffffffffffffffffffffffffffffffffffffffff16612bdf565b50935093506127a58e858f8f8f8f611cf7565b91506008600c8111156127b457fe5b8f6020015160ff16600c8111156127c757fe5b600c8111156127d257fe5b14156127e157811598506128bc565b8180156128165750600a600c8111156127f657fe5b8f6020015160ff16600c81111561280957fe5b600c81111561281457fe5b145b1561282457600198506128bc565b8115801561285a57506009600c81111561283a57fe5b8f6020015160ff16600c81111561284d57fe5b600c81111561285857fe5b145b1561286857600098506128bc565b6128768e848f8f8f8f611cf7565b9050600b600c81111561288557fe5b8f6020015160ff16600c81111561289857fe5b600c8111156128a357fe5b14156128b857801515821515141598506128bc565b8098505b50505050505050509695505050505050565b60008060008060008973ffffffffffffffffffffffffffffffffffffffff16632a15109090507c01000000000000000000000000000000000000000000000000000000000293508973ffffffffffffffffffffffffffffffffffffffff16847c010000000000000000000000000000000000000000000000000000000090048a8a8a60808b518c6040518763ffffffff167c0100000000000000000000000000000000000000000000000000000000028152600401808773ffffffffffffffffffffffffffffffffffffffff1673ffffffffffffffffffffffffffffffffffffffff1681526020018673ffffffffffffffffffffffffffffffffffffffff1673ffffffffffffffffffffffffffffffffffffffff16815260200185600019166000191681526020018460ff168152602001838152602001828051906020019060200280838360005b83811015612a31578082015181840152602081019050612a16565b5050505090500196505050505050506000604051808303816000875af1925050509250821515612a645760009450612a8f565b3d9150602082141515612a7a5760009450612a8f565b604051826000823e8051915060008152508094505b5050505095945050505050565b600043905090565b600042905090565b60006001600c811115612abb57fe5b83600c811115612ac757fe5b1415612ad7578184149050612bac565b6002600c811115612ae457fe5b83600c811115612af057fe5b1415612b0157818414159050612bac565b6003600c811115612b0e57fe5b83600c811115612b1a57fe5b1415612b2a578184119050612bac565b6004600c811115612b3757fe5b83600c811115612b4357fe5b1415612b53578184109050612bac565b6005600c811115612b6057fe5b83600c811115612b6c57fe5b1415612b7d57818410159050612bac565b6006600c811115612b8a57fe5b83600c811115612b9657fe5b1415612ba757818411159050612bac565b600090505b9392505050565b600060f8829060020a90049050919050565b600060f0829060020a90049050919050565b600043905090565b60008060008392506020849060020a900491506040849060020a900490509193909250565b606060405190810160405280600060ff168152602001600060ff16815260200160007dffffffffffffffffffffffffffffffffffffffffffffffffffffffffffff16815250905600a165627a7a723058201678c4ed0a4e055b57a159cd6c94058c55770fec516701664241f552c0c75c360029608060405234801561001057600080fd5b506100196100df565b604051809103906000f080158015610035573d6000803e3d6000fd5b506000806101000a81548173ffffffffffffffffffffffffffffffffffffffff021916908373ffffffffffffffffffffffffffffffffffffffff16021790555061007d6100f0565b604051809103906000f080158015610099573d6000803e3d6000fd5b50600160006101000a81548173ffffffffffffffffffffffffffffffffffffffff021916908373ffffffffffffffffffffffffffffffffffffffff160217905550610101565b6040516114d280620028cf83390190565b6040516104e88062003da183390190565b6127be80620001116000396000f300608060405260043610620000a3576000357c0100000000000000000000000000000000000000000000000000000000900463ffffffff168063127d679c14620000a85780634de50a3a146200010257806360b1e057146200015c578063869abc2414620001925780639b3fdf4c1462000238578063d162f8b0146200026e578063e156a8f31462000348578063ede658b014620003dc578063ff289fc514620004b6575b600080fd5b348015620000b557600080fd5b50620000c06200054a565b604051808273ffffffffffffffffffffffffffffffffffffffff1673ffffffffffffffffffffffffffffffffffffffff16815260200191505060405180910390f35b3480156200010f57600080fd5b506200011a6200056f565b604051808273ffffffffffffffffffffffffffffffffffffffff1673ffffffffffffffffffffffffffffffffffffffff16815260200191505060405180910390f35b3480156200016957600080fd5b506200017462000595565b60405180826000191660001916815260200191505060405180910390f35b3480156200019f57600080fd5b50620001f6600480360381019080803573ffffffffffffffffffffffffffffffffffffffff169060200190929190803573ffffffffffffffffffffffffffffffffffffffff169060200190929190505050620005bc565b604051808273ffffffffffffffffffffffffffffffffffffffff1673ffffffffffffffffffffffffffffffffffffffff16815260200191505060405180910390f35b3480156200024557600080fd5b506200025062000e25565b60405180826000191660001916815260200191505060405180910390f35b3480156200027b57600080fd5b5062000306600480360381019080803573ffffffffffffffffffffffffffffffffffffffff1690602001909291908035600019169060200190929190803590602001908201803590602001908080601f016020809104026020016040519081016040528093929190818152602001838380828437820191505050505050919291929050505062000e4c565b604051808273ffffffffffffffffffffffffffffffffffffffff1673ffffffffffffffffffffffffffffffffffffffff16815260200191505060405180910390f35b3480156200035557600080fd5b506200039a600480360381019080803573ffffffffffffffffffffffffffffffffffffffff169060200190929190803560001916906020019092919050505062000fbb565b604051808273ffffffffffffffffffffffffffffffffffffffff1673ffffffffffffffffffffffffffffffffffffffff16815260200191505060405180910390f35b348015620003e957600080fd5b5062000474600480360381019080803573ffffffffffffffffffffffffffffffffffffffff1690602001909291908035600019169060200190929190803590602001908201803590602001908080601f016020809104026020016040519081016040528093929190818152602001838380828437820191505050505050919291929050505062001007565b604051808273ffffffffffffffffffffffffffffffffffffffff1673ffffffffffffffffffffffffffffffffffffffff16815260200191505060405180910390f35b348015620004c357600080fd5b5062000508600480360381019080803573ffffffffffffffffffffffffffffffffffffffff169060200190929190803560001916906020019092919050505062001176565b604051808273ffffffffffffffffffffffffffffffffffffffff1673ffffffffffffffffffffffffffffffffffffffff16815260200191505060405180910390f35b6000809054906101000a900473ffffffffffffffffffffffffffffffffffffffff1681565b600160009054906101000a900473ffffffffffffffffffffffffffffffffffffffff1681565b7fddbcfd564f642ab5627cf68b9b7d374fb4f8a36e941a75d89c87998cef03bd6160010281565b6000808373ffffffffffffffffffffffffffffffffffffffff1663f8c7fa1e7fddbcfd564f642ab5627cf68b9b7d374fb4f8a36e941a75d89c87998cef03bd616001026000809054906101000a900473ffffffffffffffffffffffffffffffffffffffff1660016040518463ffffffff167c01000000000000000000000000000000000000000000000000000000000281526004018084600019166000191681526020018373ffffffffffffffffffffffffffffffffffffffff1673ffffffffffffffffffffffffffffffffffffffff168152602001821515151581526020019350505050602060405180830381600087803b158015620006bc57600080fd5b505af1158015620006d1573d6000803e3d6000fd5b505050506040513d6020811015620006e857600080fd5b810190808051906020019092919050505091508173ffffffffffffffffffffffffffffffffffffffff16638129fc1c6040518163ffffffff167c0100000000000000000000000000000000000000000000000000000000028152600401600060405180830381600087803b1580156200076057600080fd5b505af115801562000775573d6000803e3d6000fd5b505050508373ffffffffffffffffffffffffffffffffffffffff1663de2873596040518163ffffffff167c0100000000000000000000000000000000000000000000000000000000028152600401602060405180830381600087803b158015620007de57600080fd5b505af1158015620007f3573d6000803e3d6000fd5b505050506040513d60208110156200080a57600080fd5b810190808051906020019092919050505090508073ffffffffffffffffffffffffffffffffffffffff1663be03847830848573ffffffffffffffffffffffffffffffffffffffff1663bd8fde1c6040518163ffffffff167c0100000000000000000000000000000000000000000000000000000000028152600401602060405180830381600087803b158015620008a057600080fd5b505af1158015620008b5573d6000803e3d6000fd5b505050506040513d6020811015620008cc57600080fd5b8101908080519060200190929190505050306040518563ffffffff167c0100000000000000000000000000000000000000000000000000000000028152600401808573ffffffffffffffffffffffffffffffffffffffff1673ffffffffffffffffffffffffffffffffffffffff1681526020018473ffffffffffffffffffffffffffffffffffffffff1673ffffffffffffffffffffffffffffffffffffffff16815260200183600019166000191681526020018273ffffffffffffffffffffffffffffffffffffffff1673ffffffffffffffffffffffffffffffffffffffff168152602001945050505050600060405180830381600087803b158015620009d257600080fd5b505af1158015620009e7573d6000803e3d6000fd5b505050508173ffffffffffffffffffffffffffffffffffffffff166387a16f12600160009054906101000a900473ffffffffffffffffffffffffffffffffffffffff166040518263ffffffff167c0100000000000000000000000000000000000000000000000000000000028152600401808273ffffffffffffffffffffffffffffffffffffffff1673ffffffffffffffffffffffffffffffffffffffff168152602001915050602060405180830381600087803b15801562000aa957600080fd5b505af115801562000abe573d6000803e3d6000fd5b505050506040513d602081101562000ad557600080fd5b8101908080519060200190929190505050508073ffffffffffffffffffffffffffffffffffffffff16639d0effdb30848573ffffffffffffffffffffffffffffffffffffffff1663bd8fde1c6040518163ffffffff167c0100000000000000000000000000000000000000000000000000000000028152600401602060405180830381600087803b15801562000b6a57600080fd5b505af115801562000b7f573d6000803e3d6000fd5b505050506040513d602081101562000b9657600080fd5b81019080805190602001909291905050506040518463ffffffff167c0100000000000000000000000000000000000000000000000000000000028152600401808473ffffffffffffffffffffffffffffffffffffffff1673ffffffffffffffffffffffffffffffffffffffff1681526020018373ffffffffffffffffffffffffffffffffffffffff1673ffffffffffffffffffffffffffffffffffffffff16815260200182600019166000191681526020019350505050600060405180830381600087803b15801562000c6857600080fd5b505af115801562000c7d573d6000803e3d6000fd5b505050508073ffffffffffffffffffffffffffffffffffffffff1663afd925df84848573ffffffffffffffffffffffffffffffffffffffff1663bd8fde1c6040518163ffffffff167c0100000000000000000000000000000000000000000000000000000000028152600401602060405180830381600087803b15801562000d0457600080fd5b505af115801562000d19573d6000803e3d6000fd5b505050506040513d602081101562000d3057600080fd5b81019080805190602001909291905050506040518463ffffffff167c0100000000000000000000000000000000000000000000000000000000028152600401808473ffffffffffffffffffffffffffffffffffffffff1673ffffffffffffffffffffffffffffffffffffffff1681526020018373ffffffffffffffffffffffffffffffffffffffff1673ffffffffffffffffffffffffffffffffffffffff16815260200182600019166000191681526020019350505050600060405180830381600087803b15801562000e0257600080fd5b505af115801562000e17573d6000803e3d6000fd5b505050508191505092915050565b7f34f01c17e9be6ddbf2c61f37b5b1fb9f1a090a975006581ad19bda1c4d38287160010281565b60008084848462000e5c620011c2565b808473ffffffffffffffffffffffffffffffffffffffff1673ffffffffffffffffffffffffffffffffffffffff168152602001836000191660001916815260200180602001828103825283818151815260200191508051906020019080838360005b8381101562000edb57808201518184015260208101905062000ebe565b50505050905090810190601f16801562000f095780820380516001836020036101000a031916815260200191505b50945050505050604051809103906000f08015801562000f2d573d6000803e3d6000fd5b5090507fd880e726dced8808d727f02dd0e6fdd3a945b24bfee77e13367bcbe61ddbaf4781600086604051808473ffffffffffffffffffffffffffffffffffffffff1673ffffffffffffffffffffffffffffffffffffffff168152602001831515151581526020018260001916600019168152602001935050505060405180910390a1809150509392505050565b600062000fff838360006040519080825280601f01601f19166020018201604052801562000ff85781602001602082028038833980820191505090505b5062001007565b905092915050565b60008084848462001017620011d3565b808473ffffffffffffffffffffffffffffffffffffffff1673ffffffffffffffffffffffffffffffffffffffff168152602001836000191660001916815260200180602001828103825283818151815260200191508051906020019080838360005b838110156200109657808201518184015260208101905062001079565b50505050905090810190601f168015620010c45780820380516001836020036101000a031916815260200191505b50945050505050604051809103906000f080158015620010e8573d6000803e3d6000fd5b5090507fd880e726dced8808d727f02dd0e6fdd3a945b24bfee77e13367bcbe61ddbaf4781600186604051808473ffffffffffffffffffffffffffffffffffffffff1673ffffffffffffffffffffffffffffffffffffffff168152602001831515151581526020018260001916600019168152602001935050505060405180910390a1809150509392505050565b6000620011ba838360006040519080825280601f01601f191660200182016040528015620011b35781602001602082028038833980820191505090505b5062000e4c565b905092915050565b604051610aa980620011e583390190565b604051610b058062001c8e833901905600608060405234801561001057600080fd5b50604051610aa9380380610aa98339810180604052810190808051906020019092919080519060200190929190805182019291905050508282826000836000806101000a81548173ffffffffffffffffffffffffffffffffffffffff021916908373ffffffffffffffffffffffffffffffffffffffff16021790555082600181600019169055506100b1600154610235640100000000026401000000009004565b9050600082511115610171576100d581610361640100000000026401000000009004565b15156100e057600080fd5b8073ffffffffffffffffffffffffffffffffffffffff168260405180828051906020019080838360005b8381101561012557808201518184015260208101905061010a565b50505050905090810190601f1680156101525780820380516001836020036101000a031916815260200191505b50915050600060405180830381855af4915050151561017057600080fd5b5b5050505061018f600154610235640100000000026401000000009004565b600260006101000a81548173ffffffffffffffffffffffffffffffffffffffff021916908373ffffffffffffffffffffffffffffffffffffffff160217905550600073ffffffffffffffffffffffffffffffffffffffff16600260009054906101000a900473ffffffffffffffffffffffffffffffffffffffff1673ffffffffffffffffffffffffffffffffffffffff161415151561022d57600080fd5b5050506103b3565b60008060009054906101000a900473ffffffffffffffffffffffffffffffffffffffff1673ffffffffffffffffffffffffffffffffffffffff166342c71f1d7ff1f3eb40f5bc1ad1344716ced8b8a0431d840b5783aea1fd01786bc26f35ac0f6001028460405180836000191660001916815260200182600019166000191681526020019250505060405180910390206040518263ffffffff167c0100000000000000000000000000000000000000000000000000000000028152600401808260001916600019168152602001915050602060405180830381600087803b15801561031f57600080fd5b505af1158015610333573d6000803e3d6000fd5b505050506040513d602081101561034957600080fd5b81019080805190602001909291905050509050919050565b600080600073ffffffffffffffffffffffffffffffffffffffff168373ffffffffffffffffffffffffffffffffffffffff1614156103a257600091506103ad565b823b90506000811191505b50919050565b6106e7806103c26000396000f3006080604052600436106100d0576000357c0100000000000000000000000000000000000000000000000000000000900463ffffffff1680630ceafa2a146101b55780631113ed0d146101e0578063178e60791461021357806325012699146102465780632b2584f6146102795780634555d5c9146102a45780635c60da1b146102cf578063756f6049146103265780637e84a4ff1461035957806380afdea814610384578063a3b4b07f146103b7578063cbcc65eb146103ea578063d4aae0c41461041d578063db8a61d414610474575b60006127105a101561016a576000341180156100ef5750600080369050145b15156100fa57600080fd5b7f15eeaa57c7bd188c1388020bcadc2c436ec60d647d36ef5b9eb3c742217ddee13334604051808373ffffffffffffffffffffffffffffffffffffffff1673ffffffffffffffffffffffffffffffffffffffff1681526020018281526020019250505060405180910390a16101b2565b6101726104a7565b90506101b1816000368080601f0160208091040260200160405190810160405280939291908181526020018383808284378201915050505050506104d1565b5b50005b3480156101c157600080fd5b506101ca610514565b6040518082815260200191505060405180910390f35b3480156101ec57600080fd5b506101f561051a565b60405180826000191660001916815260200191505060405180910390f35b34801561021f57600080fd5b50610228610541565b60405180826000191660001916815260200191505060405180910390f35b34801561025257600080fd5b5061025b610568565b60405180826000191660001916815260200191505060405180910390f35b34801561028557600080fd5b5061028e61058f565b6040518082815260200191505060405180910390f35b3480156102b057600080fd5b506102b9610594565b6040518082815260200191505060405180910390f35b3480156102db57600080fd5b506102e46104a7565b604051808273ffffffffffffffffffffffffffffffffffffffff1673ffffffffffffffffffffffffffffffffffffffff16815260200191505060405180910390f35b34801561033257600080fd5b5061033b61059d565b60405180826000191660001916815260200191505060405180910390f35b34801561036557600080fd5b5061036e6105c4565b6040518082815260200191505060405180910390f35b34801561039057600080fd5b506103996105c9565b60405180826000191660001916815260200191505060405180910390f35b3480156103c357600080fd5b506103cc6105cf565b60405180826000191660001916815260200191505060405180910390f35b3480156103f657600080fd5b506103ff6105f6565b60405180826000191660001916815260200191505060405180910390f35b34801561042957600080fd5b5061043261061d565b604051808273ffffffffffffffffffffffffffffffffffffffff1673ffffffffffffffffffffffffffffffffffffffff16815260200191505060405180910390f35b34801561048057600080fd5b50610489610642565b60405180826000191660001916815260200191505060405180910390f35b6000600260009054906101000a900473ffffffffffffffffffffffffffffffffffffffff16905090565b60006104dc83610669565b15156104e757600080fd5b612710905060008083516020850186855a03f43d604051816000823e8260008114610510578282f35b8282fd5b61271081565b7f3b4bf6bf3ad5000ecf0f989d5befde585c6860fea3e574a4fab4c49d1c177d9c60010281565b7fd6f028ca0e8edb4a8c9757ca4fdccab25fa1e0317da1188108f7d2dee14902fb60010281565b7f2b7d19d0575c228f8d9326801e14149d284dc5bb7b1541c5ad712ae4b2fcaadb60010281565b600181565b60006001905090565b7fc681a85306374a5ab27f0bbc385296a54bcd314a1948b6cf61c4ea1bc44bb9f860010281565b600281565b60015481565b7f4b8e03a458a6ccec5d9077c2490964c1333dd3c72e2db408d7d9a7a36ef5c41a60010281565b7fe3262375f45a6e2026b7e7b18c2b807434f2508fe1a2a3dfb493c7df8f4aad6a60010281565b6000809054906101000a900473ffffffffffffffffffffffffffffffffffffffff1681565b7ff1f3eb40f5bc1ad1344716ced8b8a0431d840b5783aea1fd01786bc26f35ac0f60010281565b600080600073ffffffffffffffffffffffffffffffffffffffff168373ffffffffffffffffffffffffffffffffffffffff1614156106aa57600091506106b5565b823b90506000811191505b509190505600a165627a7a72305820e5c3169407cf8b3d34de052349fc02a9eb9fe9ca37ab4e7c78d43bd6d1a84e3e0029608060405234801561001057600080fd5b50604051610b05380380610b058339810180604052810190808051906020019092919080519060200190929190805182019291905050508282826000836000806101000a81548173ffffffffffffffffffffffffffffffffffffffff021916908373ffffffffffffffffffffffffffffffffffffffff16021790555082600181600019169055506100b160015461017d640100000000026401000000009004565b9050600082511115610171576100d5816102a9640100000000026401000000009004565b15156100e057600080fd5b8073ffffffffffffffffffffffffffffffffffffffff168260405180828051906020019080838360005b8381101561012557808201518184015260208101905061010a565b50505050905090810190601f1680156101525780820380516001836020036101000a031916815260200191505b50915050600060405180830381855af4915050151561017057600080fd5b5b505050505050506102fb565b60008060009054906101000a900473ffffffffffffffffffffffffffffffffffffffff1673ffffffffffffffffffffffffffffffffffffffff166342c71f1d7ff1f3eb40f5bc1ad1344716ced8b8a0431d840b5783aea1fd01786bc26f35ac0f6001028460405180836000191660001916815260200182600019166000191681526020019250505060405180910390206040518263ffffffff167c0100000000000000000000000000000000000000000000000000000000028152600401808260001916600019168152602001915050602060405180830381600087803b15801561026757600080fd5b505af115801561027b573d6000803e3d6000fd5b505050506040513d602081101561029157600080fd5b81019080805190602001909291905050509050919050565b600080600073ffffffffffffffffffffffffffffffffffffffff168373ffffffffffffffffffffffffffffffffffffffff1614156102ea57600091506102f5565b823b90506000811191505b50919050565b6107fb8061030a6000396000f3006080604052600436106100d0576000357c0100000000000000000000000000000000000000000000000000000000900463ffffffff1680630ceafa2a146101b55780631113ed0d146101e0578063178e60791461021357806325012699146102465780632b2584f6146102795780634555d5c9146102a45780635c60da1b146102cf578063756f6049146103265780637e84a4ff1461035957806380afdea814610384578063a3b4b07f146103b7578063cbcc65eb146103ea578063d4aae0c41461041d578063db8a61d414610474575b60006127105a101561016a576000341180156100ef5750600080369050145b15156100fa57600080fd5b7f15eeaa57c7bd188c1388020bcadc2c436ec60d647d36ef5b9eb3c742217ddee13334604051808373ffffffffffffffffffffffffffffffffffffffff1673ffffffffffffffffffffffffffffffffffffffff1681526020018281526020019250505060405180910390a16101b2565b6101726104a7565b90506101b1816000368080601f0160208091040260200160405190810160405280939291908181526020018383808284378201915050505050506104b9565b5b50005b3480156101c157600080fd5b506101ca6104fc565b6040518082815260200191505060405180910390f35b3480156101ec57600080fd5b506101f5610502565b60405180826000191660001916815260200191505060405180910390f35b34801561021f57600080fd5b50610228610529565b60405180826000191660001916815260200191505060405180910390f35b34801561025257600080fd5b5061025b610550565b60405180826000191660001916815260200191505060405180910390f35b34801561028557600080fd5b5061028e610577565b6040518082815260200191505060405180910390f35b3480156102b057600080fd5b506102b961057c565b6040518082815260200191505060405180910390f35b3480156102db57600080fd5b506102e46104a7565b604051808273ffffffffffffffffffffffffffffffffffffffff1673ffffffffffffffffffffffffffffffffffffffff16815260200191505060405180910390f35b34801561033257600080fd5b5061033b610585565b60405180826000191660001916815260200191505060405180910390f35b34801561036557600080fd5b5061036e6105ac565b6040518082815260200191505060405180910390f35b34801561039057600080fd5b506103996105b1565b60405180826000191660001916815260200191505060405180910390f35b3480156103c357600080fd5b506103cc6105b7565b60405180826000191660001916815260200191505060405180910390f35b3480156103f657600080fd5b506103ff6105de565b60405180826000191660001916815260200191505060405180910390f35b34801561042957600080fd5b50610432610605565b604051808273ffffffffffffffffffffffffffffffffffffffff1673ffffffffffffffffffffffffffffffffffffffff16815260200191505060405180910390f35b34801561048057600080fd5b5061048961062a565b60405180826000191660001916815260200191505060405180910390f35b60006104b4600154610651565b905090565b60006104c48361077d565b15156104cf57600080fd5b612710905060008083516020850186855a03f43d604051816000823e82600081146104f8578282f35b8282fd5b61271081565b7f3b4bf6bf3ad5000ecf0f989d5befde585c6860fea3e574a4fab4c49d1c177d9c60010281565b7fd6f028ca0e8edb4a8c9757ca4fdccab25fa1e0317da1188108f7d2dee14902fb60010281565b7f2b7d19d0575c228f8d9326801e14149d284dc5bb7b1541c5ad712ae4b2fcaadb60010281565b600181565b60006002905090565b7fc681a85306374a5ab27f0bbc385296a54bcd314a1948b6cf61c4ea1bc44bb9f860010281565b600281565b60015481565b7f4b8e03a458a6ccec5d9077c2490964c1333dd3c72e2db408d7d9a7a36ef5c41a60010281565b7fe3262375f45a6e2026b7e7b18c2b807434f2508fe1a2a3dfb493c7df8f4aad6a60010281565b6000809054906101000a900473ffffffffffffffffffffffffffffffffffffffff1681565b7ff1f3eb40f5bc1ad1344716ced8b8a0431d840b5783aea1fd01786bc26f35ac0f60010281565b60008060009054906101000a900473ffffffffffffffffffffffffffffffffffffffff1673ffffffffffffffffffffffffffffffffffffffff166342c71f1d7ff1f3eb40f5bc1ad1344716ced8b8a0431d840b5783aea1fd01786bc26f35ac0f6001028460405180836000191660001916815260200182600019166000191681526020019250505060405180910390206040518263ffffffff167c0100000000000000000000000000000000000000000000000000000000028152600401808260001916600019168152602001915050602060405180830381600087803b15801561073b57600080fd5b505af115801561074f573d6000803e3d6000fd5b505050506040513d602081101561076557600080fd5b81019080805190602001909291905050509050919050565b600080600073ffffffffffffffffffffffffffffffffffffffff168373ffffffffffffffffffffffffffffffffffffffff1614156107be57600091506107c9565b823b90506000811191505b509190505600a165627a7a72305820fde32a6b44c483826cae412c80edc0e8b2ecd4ce6596ffcbf6325a25b00064680029a165627a7a72305820613bda9d4ddbad46d12f08b11e8ababa2906164ee6ee02ffd6fa2af40ac0ecd80029608060405234801561001057600080fd5b506114b2806100206000396000f3006080604052600436106100f1576000357c0100000000000000000000000000000000000000000000000000000000900463ffffffff16806304bf2a7f146100f657806332f0a3b51461019f5780635ca4d4bb146101f657806360b1e057146102235780637e7db6e11461025657806380afdea8146102b15780638129fc1c146102e45780638322fff2146102fb57806387a16f12146103525780638b3dd749146103a95780639b3fdf4c146103d45780639d4941d814610407578063a1658fad1461044a578063bd8fde1c146104f6578063d4aae0c414610529578063f92a79ff14610580578063f97a05df14610629575b600080fd5b34801561010257600080fd5b5061015d600480360381019080803590602001908201803590602001908080601f01602080910402602001604051908101604052809392919081815260200183838082843782019150505050505091929192905050506106a1565b604051808273ffffffffffffffffffffffffffffffffffffffff1673ffffffffffffffffffffffffffffffffffffffff16815260200191505060405180910390f35b3480156101ab57600080fd5b506101b4610741565b604051808273ffffffffffffffffffffffffffffffffffffffff1673ffffffffffffffffffffffffffffffffffffffff16815260200191505060405180910390f35b34801561020257600080fd5b506102216004803603810190808035906020019092919050505061084e565b005b34801561022f57600080fd5b5061023861095f565b60405180826000191660001916815260200191505060405180910390f35b34801561026257600080fd5b50610297600480360381019080803573ffffffffffffffffffffffffffffffffffffffff169060200190929190505050610986565b604051808215151515815260200191505060405180910390f35b3480156102bd57600080fd5b506102c6610991565b60405180826000191660001916815260200191505060405180910390f35b3480156102f057600080fd5b506102f9610997565b005b34801561030757600080fd5b50610310610a74565b604051808273ffffffffffffffffffffffffffffffffffffffff1673ffffffffffffffffffffffffffffffffffffffff16815260200191505060405180910390f35b34801561035e57600080fd5b50610393600480360381019080803573ffffffffffffffffffffffffffffffffffffffff169060200190929190505050610a79565b6040518082815260200191505060405180910390f35b3480156103b557600080fd5b506103be610bf6565b6040518082815260200191505060405180910390f35b3480156103e057600080fd5b506103e9610c00565b60405180826000191660001916815260200191505060405180910390f35b34801561041357600080fd5b50610448600480360381019080803573ffffffffffffffffffffffffffffffffffffffff169060200190929190505050610c27565b005b34801561045657600080fd5b506104dc600480360381019080803573ffffffffffffffffffffffffffffffffffffffff169060200190929190803560001916906020019092919080359060200190820180359060200190808060200260200160405190810160405280939291908181526020018383602002808284378201915050505050509192919290505050610eb1565b604051808215151515815260200191505060405180910390f35b34801561050257600080fd5b5061050b6110c3565b60405180826000191660001916815260200191505060405180910390f35b34801561053557600080fd5b5061053e6110ea565b604051808273ffffffffffffffffffffffffffffffffffffffff1673ffffffffffffffffffffffffffffffffffffffff16815260200191505060405180910390f35b34801561058c57600080fd5b506105e7600480360381019080803590602001908201803590602001908080601f016020809104026020016040519081016040528093929190818152602001838380828437820191505050505050919291929050505061110f565b604051808273ffffffffffffffffffffffffffffffffffffffff1673ffffffffffffffffffffffffffffffffffffffff16815260200191505060405180910390f35b34801561063557600080fd5b506106546004803603810190808035906020019092919050505061122e565b604051808373ffffffffffffffffffffffffffffffffffffffff1673ffffffffffffffffffffffffffffffffffffffff168152602001821515151581526020019250505060405180910390f35b60008060006106af8461128a565b63ffffffff16915060008214806106cb57506064805490508210155b156106d9576000925061073a565b6064828154811015156106e857fe5b9060005260206000200190508060000160149054906101000a900460ff16610711576000610737565b8060000160009054906101000a900473ffffffffffffffffffffffffffffffffffffffff165b92505b5050919050565b6000806000809054906101000a900473ffffffffffffffffffffffffffffffffffffffff1673ffffffffffffffffffffffffffffffffffffffff161415151561078957600080fd5b6000809054906101000a900473ffffffffffffffffffffffffffffffffffffffff1673ffffffffffffffffffffffffffffffffffffffff166332f0a3b56040518163ffffffff167c0100000000000000000000000000000000000000000000000000000000028152600401602060405180830381600087803b15801561080e57600080fd5b505af1158015610822573d6000803e3d6000fd5b505050506040513d602081101561083857600080fd5b8101908080519060200190929190505050905090565b60007ff7a450ef335e1892cb42c8ca72e7242359d7711924b75db5717410da3f614aa36001026108af338260006040519080825280602002602001820160405280156108a95781602001602082028038833980820191505090505b50610eb1565b15156108ba57600080fd5b6064838154811015156108c957fe5b90600052602060002001915060008260000160146101000a81548160ff0219169083151502179055508160000160009054906101000a900473ffffffffffffffffffffffffffffffffffffffff1673ffffffffffffffffffffffffffffffffffffffff16837fc13cd9238f8ab1e5ab1f95cde77e89288fe5c328d04739adffd57b144b408fd160405160405180910390a3505050565b7fddbcfd564f642ab5627cf68b9b7d374fb4f8a36e941a75d89c87998cef03bd6160010281565b600060019050919050565b60015481565b60006003541415156109a857600080fd5b6109b061129e565b60646040805190810160405280600073ffffffffffffffffffffffffffffffffffffffff1681526020016000151581525090806001815401808255809150509060018203906000526020600020016000909192909190915060008201518160000160006101000a81548173ffffffffffffffffffffffffffffffffffffffff021916908373ffffffffffffffffffffffffffffffffffffffff16021790555060208201518160000160146101000a81548160ff021916908315150217905550505050565b600081565b6000807ff7a450ef335e1892cb42c8ca72e7242359d7711924b75db5717410da3f614aa3600102610adb33826000604051908082528060200260200182016040528015610ad55781602001602082028038833980820191505090505b50610eb1565b1515610ae657600080fd5b606460408051908101604052808673ffffffffffffffffffffffffffffffffffffffff1681526020016001151581525090806001815401808255809150509060018203906000526020600020016000909192909190915060008201518160000160006101000a81548173ffffffffffffffffffffffffffffffffffffffff021916908373ffffffffffffffffffffffffffffffffffffffff16021790555060208201518160000160146101000a81548160ff021916908315150217905550505091508373ffffffffffffffffffffffffffffffffffffffff16827f7697fa3288629310075a63816e294207c84f3cfc18ccf8e18eb917ec0bb5669960405160405180910390a38192505050919050565b6000600354905090565b7f34f01c17e9be6ddbf2c61f37b5b1fb9f1a090a975006581ad19bda1c4d38287160010281565b600080610c3383610986565b1515610c3e57600080fd5b610c46610741565b9150610c51826112bf565b1515610c5c57600080fd5b600073ffffffffffffffffffffffffffffffffffffffff168373ffffffffffffffffffffffffffffffffffffffff161415610cf4578173ffffffffffffffffffffffffffffffffffffffff166108fc3073ffffffffffffffffffffffffffffffffffffffff16319081150290604051600060405180830381858888f19350505050158015610cee573d6000803e3d6000fd5b50610eac565b8273ffffffffffffffffffffffffffffffffffffffff166370a08231306040518263ffffffff167c0100000000000000000000000000000000000000000000000000000000028152600401808273ffffffffffffffffffffffffffffffffffffffff1673ffffffffffffffffffffffffffffffffffffffff168152602001915050602060405180830381600087803b158015610d8f57600080fd5b505af1158015610da3573d6000803e3d6000fd5b505050506040513d6020811015610db957600080fd5b810190808051906020019092919050505090508273ffffffffffffffffffffffffffffffffffffffff1663a9059cbb83836040518363ffffffff167c0100000000000000000000000000000000000000000000000000000000028152600401808373ffffffffffffffffffffffffffffffffffffffff1673ffffffffffffffffffffffffffffffffffffffff16815260200182815260200192505050602060405180830381600087803b158015610e6f57600080fd5b505af1158015610e83573d6000803e3d6000fd5b505050506040513d6020811015610e9957600080fd5b8101908080519060200190929190505050505b505050565b6000606060008084511115610ece57602084510290508391508082525b60008060009054906101000a900473ffffffffffffffffffffffffffffffffffffffff1673ffffffffffffffffffffffffffffffffffffffff1614806110b857506000809054906101000a900473ffffffffffffffffffffffffffffffffffffffff1673ffffffffffffffffffffffffffffffffffffffff1663fdef9106873088866040518563ffffffff167c0100000000000000000000000000000000000000000000000000000000028152600401808573ffffffffffffffffffffffffffffffffffffffff1673ffffffffffffffffffffffffffffffffffffffff1681526020018473ffffffffffffffffffffffffffffffffffffffff1673ffffffffffffffffffffffffffffffffffffffff168152602001836000191660001916815260200180602001828103825283818151815260200191508051906020019080838360005b8381101561102d578082015181840152602081019050611012565b50505050905090810190601f16801561105a5780820380516001836020036101000a031916815260200191505b5095505050505050602060405180830381600087803b15801561107c57600080fd5b505af1158015611090573d6000803e3d6000fd5b505050506040513d60208110156110a657600080fd5b81019080805190602001909291905050505b925050509392505050565b7ff7a450ef335e1892cb42c8ca72e7242359d7711924b75db5717410da3f614aa360010281565b6000809054906101000a900473ffffffffffffffffffffffffffffffffffffffff1681565b6000611119611311565b73ffffffffffffffffffffffffffffffffffffffff166304bf2a7f836040518263ffffffff167c01000000000000000000000000000000000000000000000000000000000281526004018080602001828103825283818151815260200191508051906020019080838360005b838110156111a0578082015181840152602081019050611185565b50505050905090810190601f1680156111cd5780820380516001836020036101000a031916815260200191505b5092505050602060405180830381600087803b1580156111ec57600080fd5b505af1158015611200573d6000803e3d6000fd5b505050506040513d602081101561121657600080fd5b81019080805190602001909291905050509050919050565b60648181548110151561123d57fe5b906000526020600020016000915090508060000160009054906101000a900473ffffffffffffffffffffffffffffffffffffffff16908060000160149054906101000a900460ff16905082565b6000611297826000611413565b9050919050565b60006003541415156112af57600080fd5b6112b761146d565b600381905550565b600080600073ffffffffffffffffffffffffffffffffffffffff168373ffffffffffffffffffffffffffffffffffffffff161415611300576000915061130b565b823b90506000811191505b50919050565b6000806000809054906101000a900473ffffffffffffffffffffffffffffffffffffffff1673ffffffffffffffffffffffffffffffffffffffff166342c71f1d7f34f01c17e9be6ddbf2c61f37b5b1fb9f1a090a975006581ad19bda1c4d3828716001026040518263ffffffff167c0100000000000000000000000000000000000000000000000000000000028152600401808260001916600019168152602001915050602060405180830381600087803b1580156113cf57600080fd5b505af11580156113e3573d6000803e3d6000fd5b505050506040513d60208110156113f957600080fd5b810190808051906020019092919050505090508091505090565b6000806114208484611475565b90507c01000000000000000000000000000000000000000000000000000000007fffffffff0000000000000000000000000000000000000000000000000000000082160491505092915050565b600043905090565b6000816020018301519050929150505600a165627a7a7230582077a3445d9ec4d47d1dd866a647dabe0c989513e7a5a30bf114d988038a088e7b0029608060405234801561001057600080fd5b506104c8806100206000396000f30060806040526004361061004c576000357c0100000000000000000000000000000000000000000000000000000000900463ffffffff168063279cea35146100515780638333d9b214610135575b600080fd5b34801561005d57600080fd5b506100ba600480360381019080803590602001908201803590602001919091929391929390803590602001908201803590602001919091929391929390803590602001908201803590602001919091929391929390505050610168565b6040518080602001828103825283818151815260200191508051906020019080838360005b838110156100fa5780820151818401526020810190506100df565b50505050905090810190601f1680156101275780820380516001836020036101000a031916815260200191505b509250505060405180910390f35b34801561014157600080fd5b5061014a6103ac565b60405180826000191660001916815260200191505060405180910390f35b6060600080600080600080600495505b8c8c905086101561039c576101c8868e8e8080601f0160208091040260200160405190810160405280939291908181526020018383808284378201915050505050506103d790919063ffffffff16565b9450600093505b8888905084101561024c5788888581811015156101e857fe5b9050602002013573ffffffffffffffffffffffffffffffffffffffff1673ffffffffffffffffffffffffffffffffffffffff168573ffffffffffffffffffffffffffffffffffffffff161415151561023f57600080fd5b83806001019450506101cf565b8473ffffffffffffffffffffffffffffffffffffffff163073ffffffffffffffffffffffffffffffffffffffff163373ffffffffffffffffffffffffffffffffffffffff167f9dcff9d94fbfdb4622d11edb383005f95e78efb446c72d92f8e615c6025c470360405160405180910390a4610305601487018e8e8080601f01602080910402602001604051908101604052809392919081815260200183838082843782019150505050505061042190919063ffffffff16565b63ffffffff16925060046014870101915061035b828e8e8080601f01602080910402602001604051908101604052809392919081815260200183838082843782019150505050505061047b90919063ffffffff16565b905082820195508c8c9050861115151561037457600080fd5b60008084836000896113885a03f1806000811461039057610395565b600080fd5b5050610178565b5050505050509695505050505050565b60007f2dc858a00f3e417be1394b87c07158e989ec681ce8cc68a9093680ac1a870302600102905090565b6000806103e4848461048b565b90506c010000000000000000000000007fffffffffffffffffffffffffffffffffffffffff00000000000000000000000082160491505092915050565b60008061042e848461048b565b90507c01000000000000000000000000000000000000000000000000000000007fffffffff0000000000000000000000000000000000000000000000000000000082160491505092915050565b6000816020018301905092915050565b6000816020018301519050929150505600a165627a7a7230582020714dc7a241020cd78e1d336500ba1a19946855b2257dcd03ac7fcfc5c8a1fc0029608060405234801561001057600080fd5b50604051606080611b0d833981018060405281019080805190602001909291908051906020019092919080519060200190929190505050600073ffffffffffffffffffffffffffffffffffffffff168173ffffffffffffffffffffffffffffffffffffffff161415156100bf5780600260006101000a81548173ffffffffffffffffffffffffffffffffffffffff021916908373ffffffffffffffffffffffffffffffffffffffff1602179055505b826000806101000a81548173ffffffffffffffffffffffffffffffffffffffff021916908373ffffffffffffffffffffffffffffffffffffffff16021790555081600160006101000a81548173ffffffffffffffffffffffffffffffffffffffff021916908373ffffffffffffffffffffffffffffffffffffffff1602179055505050506119bb806101526000396000f300608060405260043610610062576000357c0100000000000000000000000000000000000000000000000000000000900463ffffffff168063086b339e1461006757806321687444146100be578063656362b514610141578063b16dd13014610198575b600080fd5b34801561007357600080fd5b5061007c6101ef565b604051808273ffffffffffffffffffffffffffffffffffffffff1673ffffffffffffffffffffffffffffffffffffffff16815260200191505060405180910390f35b3480156100ca57600080fd5b506100ff600480360381019080803573ffffffffffffffffffffffffffffffffffffffff169060200190929190505050610215565b604051808273ffffffffffffffffffffffffffffffffffffffff1673ffffffffffffffffffffffffffffffffffffffff16815260200191505060405180910390f35b34801561014d57600080fd5b5061015661112b565b604051808273ffffffffffffffffffffffffffffffffffffffff1673ffffffffffffffffffffffffffffffffffffffff16815260200191505060405180910390f35b3480156101a457600080fd5b506101ad611151565b604051808273ffffffffffffffffffffffffffffffffffffffff1673ffffffffffffffffffffffffffffffffffffffff16815260200191505060405180910390f35b600160009054906101000a900473ffffffffffffffffffffffffffffffffffffffff1681565b60008060008060008060009054906101000a900473ffffffffffffffffffffffffffffffffffffffff16610247611176565b808273ffffffffffffffffffffffffffffffffffffffff1673ffffffffffffffffffffffffffffffffffffffff168152602001915050604051809103906000f080158015610299573d6000803e3d6000fd5b509450600073ffffffffffffffffffffffffffffffffffffffff16600260009054906101000a900473ffffffffffffffffffffffffffffffffffffffff1673ffffffffffffffffffffffffffffffffffffffff161415610401578473ffffffffffffffffffffffffffffffffffffffff1663485cc955600160009054906101000a900473ffffffffffffffffffffffffffffffffffffffff16886040518363ffffffff167c0100000000000000000000000000000000000000000000000000000000028152600401808373ffffffffffffffffffffffffffffffffffffffff1673ffffffffffffffffffffffffffffffffffffffff1681526020018273ffffffffffffffffffffffffffffffffffffffff1673ffffffffffffffffffffffffffffffffffffffff16815260200192505050600060405180830381600087803b1580156103e457600080fd5b505af11580156103f8573d6000803e3d6000fd5b505050506110bf565b8473ffffffffffffffffffffffffffffffffffffffff1663485cc955600160009054906101000a900473ffffffffffffffffffffffffffffffffffffffff16306040518363ffffffff167c0100000000000000000000000000000000000000000000000000000000028152600401808373ffffffffffffffffffffffffffffffffffffffff1673ffffffffffffffffffffffffffffffffffffffff1681526020018273ffffffffffffffffffffffffffffffffffffffff1673ffffffffffffffffffffffffffffffffffffffff16815260200192505050600060405180830381600087803b1580156104f257600080fd5b505af1158015610506573d6000803e3d6000fd5b505050508473ffffffffffffffffffffffffffffffffffffffff1663de2873596040518163ffffffff167c0100000000000000000000000000000000000000000000000000000000028152600401602060405180830381600087803b15801561056e57600080fd5b505af1158015610582573d6000803e3d6000fd5b505050506040513d602081101561059857600080fd5b810190808051906020019092919050505093508373ffffffffffffffffffffffffffffffffffffffff16633d6ab68f6040518163ffffffff167c0100000000000000000000000000000000000000000000000000000000028152600401602060405180830381600087803b15801561060f57600080fd5b505af1158015610623573d6000803e3d6000fd5b505050506040513d602081101561063957600080fd5b810190808051906020019092919050505092508473ffffffffffffffffffffffffffffffffffffffff16638ea8dc9d6040518163ffffffff167c0100000000000000000000000000000000000000000000000000000000028152600401602060405180830381600087803b1580156106b057600080fd5b505af11580156106c4573d6000803e3d6000fd5b505050506040513d60208110156106da57600080fd5b810190808051906020019092919050505091508373ffffffffffffffffffffffffffffffffffffffff16630a8ed3db600260009054906101000a900473ffffffffffffffffffffffffffffffffffffffff1686866040518463ffffffff167c0100000000000000000000000000000000000000000000000000000000028152600401808473ffffffffffffffffffffffffffffffffffffffff1673ffffffffffffffffffffffffffffffffffffffff1681526020018373ffffffffffffffffffffffffffffffffffffffff1673ffffffffffffffffffffffffffffffffffffffff16815260200182600019166000191681526020019350505050600060405180830381600087803b1580156107ee57600080fd5b505af1158015610802573d6000803e3d6000fd5b505050508373ffffffffffffffffffffffffffffffffffffffff1663be038478600260009054906101000a900473ffffffffffffffffffffffffffffffffffffffff168785306040518563ffffffff167c0100000000000000000000000000000000000000000000000000000000028152600401808573ffffffffffffffffffffffffffffffffffffffff1673ffffffffffffffffffffffffffffffffffffffff1681526020018473ffffffffffffffffffffffffffffffffffffffff1673ffffffffffffffffffffffffffffffffffffffff16815260200183600019166000191681526020018273ffffffffffffffffffffffffffffffffffffffff1673ffffffffffffffffffffffffffffffffffffffff168152602001945050505050600060405180830381600087803b15801561093b57600080fd5b505af115801561094f573d6000803e3d6000fd5b50505050600260009054906101000a900473ffffffffffffffffffffffffffffffffffffffff1673ffffffffffffffffffffffffffffffffffffffff1663869abc2486886040518363ffffffff167c0100000000000000000000000000000000000000000000000000000000028152600401808373ffffffffffffffffffffffffffffffffffffffff1673ffffffffffffffffffffffffffffffffffffffff1681526020018273ffffffffffffffffffffffffffffffffffffffff1673ffffffffffffffffffffffffffffffffffffffff16815260200192505050602060405180830381600087803b158015610a4457600080fd5b505af1158015610a58573d6000803e3d6000fd5b505050506040513d6020811015610a6e57600080fd5b810190808051906020019092919050505090507f1a40224412580c1ae5a2fbe8029a565f49a3a029608a8fd9320b32477f31457981604051808273ffffffffffffffffffffffffffffffffffffffff1673ffffffffffffffffffffffffffffffffffffffff16815260200191505060405180910390a18373ffffffffffffffffffffffffffffffffffffffff16639d0effdb600260009054906101000a900473ffffffffffffffffffffffffffffffffffffffff1687856040518463ffffffff167c0100000000000000000000000000000000000000000000000000000000028152600401808473ffffffffffffffffffffffffffffffffffffffff1673ffffffffffffffffffffffffffffffffffffffff1681526020018373ffffffffffffffffffffffffffffffffffffffff1673ffffffffffffffffffffffffffffffffffffffff16815260200182600019166000191681526020019350505050600060405180830381600087803b158015610be557600080fd5b505af1158015610bf9573d6000803e3d6000fd5b505050508373ffffffffffffffffffffffffffffffffffffffff16639d0effdb600260009054906101000a900473ffffffffffffffffffffffffffffffffffffffff1686866040518463ffffffff167c0100000000000000000000000000000000000000000000000000000000028152600401808473ffffffffffffffffffffffffffffffffffffffff1673ffffffffffffffffffffffffffffffffffffffff1681526020018373ffffffffffffffffffffffffffffffffffffffff1673ffffffffffffffffffffffffffffffffffffffff16815260200182600019166000191681526020019350505050600060405180830381600087803b158015610cfe57600080fd5b505af1158015610d12573d6000803e3d6000fd5b505050508373ffffffffffffffffffffffffffffffffffffffff16639d0effdb3086866040518463ffffffff167c0100000000000000000000000000000000000000000000000000000000028152600401808473ffffffffffffffffffffffffffffffffffffffff1673ffffffffffffffffffffffffffffffffffffffff1681526020018373ffffffffffffffffffffffffffffffffffffffff1673ffffffffffffffffffffffffffffffffffffffff16815260200182600019166000191681526020019350505050600060405180830381600087803b158015610df557600080fd5b505af1158015610e09573d6000803e3d6000fd5b505050508373ffffffffffffffffffffffffffffffffffffffff16630a8ed3db8786866040518463ffffffff167c0100000000000000000000000000000000000000000000000000000000028152600401808473ffffffffffffffffffffffffffffffffffffffff1673ffffffffffffffffffffffffffffffffffffffff1681526020018373ffffffffffffffffffffffffffffffffffffffff1673ffffffffffffffffffffffffffffffffffffffff16815260200182600019166000191681526020019350505050600060405180830381600087803b158015610eec57600080fd5b505af1158015610f00573d6000803e3d6000fd5b505050508373ffffffffffffffffffffffffffffffffffffffff1663a885508a86846040518363ffffffff167c0100000000000000000000000000000000000000000000000000000000028152600401808373ffffffffffffffffffffffffffffffffffffffff1673ffffffffffffffffffffffffffffffffffffffff168152602001826000191660001916815260200192505050600060405180830381600087803b158015610faf57600080fd5b505af1158015610fc3573d6000803e3d6000fd5b505050508373ffffffffffffffffffffffffffffffffffffffff1663afd925df8786866040518463ffffffff167c0100000000000000000000000000000000000000000000000000000000028152600401808473ffffffffffffffffffffffffffffffffffffffff1673ffffffffffffffffffffffffffffffffffffffff1681526020018373ffffffffffffffffffffffffffffffffffffffff1673ffffffffffffffffffffffffffffffffffffffff16815260200182600019166000191681526020019350505050600060405180830381600087803b1580156110a657600080fd5b505af11580156110ba573d6000803e3d6000fd5b505050505b7f3a7eb042a769adf51e9be78b68ed7af0ad7b379246536efc376ed2ca0123828285604051808273ffffffffffffffffffffffffffffffffffffffff1673ffffffffffffffffffffffffffffffffffffffff16815260200191505060405180910390a150505050919050565b600260009054906101000a900473ffffffffffffffffffffffffffffffffffffffff1681565b6000809054906101000a900473ffffffffffffffffffffffffffffffffffffffff1681565b60405161080980611187833901905600608060405234801561001057600080fd5b5060405160208061080983398101806040528101908080519060200190929190505050806000807f2b7d19d0575c228f8d9326801e14149d284dc5bb7b1541c5ad712ae4b2fcaadb6001026000191660001916815260200190815260200160002060006101000a81548173ffffffffffffffffffffffffffffffffffffffff021916908373ffffffffffffffffffffffffffffffffffffffff1602179055505061074a806100bf6000396000f3006080604052600436106100d0576000357c0100000000000000000000000000000000000000000000000000000000900463ffffffff1680630ceafa2a146101b55780631113ed0d146101e0578063178e60791461021357806325012699146102465780632b2584f61461027957806338bb6def146102a45780634555d5c9146103155780635c60da1b14610340578063756f6049146103975780637e84a4ff146103ca578063a3b4b07f146103f5578063cbcc65eb14610428578063dabca0191461045b578063db8a61d41461048e575b60006127105a101561016a576000341180156100ef5750600080369050145b15156100fa57600080fd5b7f15eeaa57c7bd188c1388020bcadc2c436ec60d647d36ef5b9eb3c742217ddee13334604051808373ffffffffffffffffffffffffffffffffffffffff1673ffffffffffffffffffffffffffffffffffffffff1681526020018281526020019250505060405180910390a16101b2565b6101726104c1565b90506101b1816000368080601f016020809104026020016040519081016040528093929190818152602001838380828437820191505050505050610526565b5b50005b3480156101c157600080fd5b506101ca610569565b6040518082815260200191505060405180910390f35b3480156101ec57600080fd5b506101f561056f565b60405180826000191660001916815260200191505060405180910390f35b34801561021f57600080fd5b50610228610596565b60405180826000191660001916815260200191505060405180910390f35b34801561025257600080fd5b5061025b6105bd565b60405180826000191660001916815260200191505060405180910390f35b34801561028557600080fd5b5061028e6105e4565b6040518082815260200191505060405180910390f35b3480156102b057600080fd5b506102d360048036038101908080356000191690602001909291905050506105e9565b604051808273ffffffffffffffffffffffffffffffffffffffff1673ffffffffffffffffffffffffffffffffffffffff16815260200191505060405180910390f35b34801561032157600080fd5b5061032a61061c565b6040518082815260200191505060405180910390f35b34801561034c57600080fd5b506103556104c1565b604051808273ffffffffffffffffffffffffffffffffffffffff1673ffffffffffffffffffffffffffffffffffffffff16815260200191505060405180910390f35b3480156103a357600080fd5b506103ac610625565b60405180826000191660001916815260200191505060405180910390f35b3480156103d657600080fd5b506103df61064c565b6040518082815260200191505060405180910390f35b34801561040157600080fd5b5061040a610651565b60405180826000191660001916815260200191505060405180910390f35b34801561043457600080fd5b5061043d610678565b60405180826000191660001916815260200191505060405180910390f35b34801561046757600080fd5b5061047061069f565b60405180826000191660001916815260200191505060405180910390f35b34801561049a57600080fd5b506104a36106a5565b60405180826000191660001916815260200191505060405180910390f35b60008060007f2b7d19d0575c228f8d9326801e14149d284dc5bb7b1541c5ad712ae4b2fcaadb6001026000191660001916815260200190815260200160002060009054906101000a900473ffffffffffffffffffffffffffffffffffffffff16905090565b6000610531836106cc565b151561053c57600080fd5b612710905060008083516020850186855a03f43d604051816000823e8260008114610565578282f35b8282fd5b61271081565b7f3b4bf6bf3ad5000ecf0f989d5befde585c6860fea3e574a4fab4c49d1c177d9c60010281565b7fd6f028ca0e8edb4a8c9757ca4fdccab25fa1e0317da1188108f7d2dee14902fb60010281565b7f2b7d19d0575c228f8d9326801e14149d284dc5bb7b1541c5ad712ae4b2fcaadb60010281565b600181565b60006020528060005260406000206000915054906101000a900473ffffffffffffffffffffffffffffffffffffffff1681565b60006002905090565b7fc681a85306374a5ab27f0bbc385296a54bcd314a1948b6cf61c4ea1bc44bb9f860010281565b600281565b7f4b8e03a458a6ccec5d9077c2490964c1333dd3c72e2db408d7d9a7a36ef5c41a60010281565b7fe3262375f45a6e2026b7e7b18c2b807434f2508fe1a2a3dfb493c7df8f4aad6a60010281565b60015481565b7ff1f3eb40f5bc1ad1344716ced8b8a0431d840b5783aea1fd01786bc26f35ac0f60010281565b600080600073ffffffffffffffffffffffffffffffffffffffff168373ffffffffffffffffffffffffffffffffffffffff16141561070d5760009150610718565b823b90506000811191505b509190505600a165627a7a7230582022b53f4912396b812a510e43e97dea96e30850166a3930658bbc310919dd30c00029a165627a7a72305820cec14bc319235dbf8d2c29db14d658195ad27e99f02977fd1805d33fe1bb4cf60029",
  "source": "pragma solidity ^0.4.24;\n\nimport \"@aragon/os/contracts/evmscript/EVMScriptRegistry.sol\";\nimport \"@aragon/os/contracts/factory/DAOFactory.sol\";\nimport \"@aragon/os/contracts/kernel/Kernel.sol\";\nimport \"@aragon/os/contracts/acl/ACL.sol\";\nimport \"@aragon/os/contracts/lib/minime/MiniMeToken.sol\";\n\n/* import \"@aragon/id/contracts/IFIFSResolvingRegistrar.sol\"; */\n\n/* import \"@aragon/apps-voting/contracts/Voting.sol\"; */\n/* import \"@aragon/apps-vault/contracts/Vault.sol\"; */\n//import \"@aragon/apps-vault/contracts/connectors/ETHConnector.sol\";\n//import \"@aragon/apps-vault/contracts/connectors/ERC20Connector.sol\";\nimport \"@aragon/apps-token-manager/contracts/TokenManager.sol\";\n/* import \"@aragon/apps-finance/contracts/Finance.sol\"; */\n\n\ncontract SpecimenKit {\n    DAOFactory public factory;\n\n    // ensure alphabetic order\n    enum Apps { Finance, TokenManager, Vault, Voting }\n\n    event DeployToken(address token, address indexed cacheOwner);\n    event DeployInstance(address dao, address indexed token);\n    event InstalledApp(address appProxy, bytes32 appId);\n    event NewSpecimen(address dao, address token);\n\n    address constant ANY_ENTITY = address(-1);\n\n\n\n    constructor() {\n        factory = new DAOFactory(new Kernel(), new ACL(), new EVMScriptRegistryFactory());\n    }\n\n    function newSpecimen() external {\n        /* Kernel dao        = factory.newDAO(this);\n        ACL acl           = ACL(dao.acl());\n        acl.createPermission(this, address(dao), dao.APP_MANAGER_ROLE(), this);\n\n        TokenManager tokenManager = TokenManager(dao.newAppInstance('0x1234', new TokenManager())); */\n\n\n        MiniMeTokenFactory tokenFactory = new MiniMeTokenFactory();\n/*\n           \t\tMiniMeToken newToken = new MiniMeToken(\n                    factory,\n                    0,\n                    0,\n                    _trelloCardId,\n                    0,\n                    'TTOK',\n                    true\n                    ); */\n\n        MiniMeToken token         = new MiniMeToken(tokenFactory, MiniMeToken(0), uint(0), 'Native Governance Token', uint8(0), 'NGT', true);\n\n        /*token.changeController(tokenManager);\n        tokenManager.initialize(token, false, uint256(0), false); */\n\n\n        /* acl.createPermission(voting, tokenManager, tokenManager.ASSIGN_ROLE(), voting);\n        acl.createPermission(voting, tokenManager, tokenManager.REVOKE_VESTINGS_ROLE(), voting); */\n        /* acl.createPermission(this, tokenManager, tokenManager.MINT_ROLE(), this); */\n\n\n\n        /* Vault vaultBase = Vault(latestVersionAppBase(appIds[uint8(Apps.Vault)]));\n        // inits\n        vault.initialize(vaultBase.erc20ConnectorBase(), vaultBase.ethConnectorBase()); // init with trusted connectors\n        finance.initialize(IVaultConnector(vault), uint64(-1) - uint64(now)); // yuge period */\n\n        // clean-up\n        /* acl.grantPermission(voting, dao, dao.APP_MANAGER_ROLE());\n        acl.setPermissionManager(voting, dao, dao.APP_MANAGER_ROLE());\n        acl.grantPermission(voting, acl, acl.CREATE_PERMISSIONS_ROLE());\n        acl.setPermissionManager(voting, acl, acl.CREATE_PERMISSIONS_ROLE());\n        acl.grantPermission(voting, tokenManager, tokenManager.MINT_ROLE());\n        acl.setPermissionManager(voting, tokenManager, tokenManager.MINT_ROLE()); */\n        // no revokes to save gas as factory can't do anything to orgs (clutters acl representation)\n\n        /* emit NewSpecimen(dao, token); */\n    }\n\n}\n",
  "sourcePath": "/Users/osarrouy/Documents/dapp/@pando/packages/core/contracts/SpecimenKit.sol",
  "compiler": {
    "name": "solc",
    "version": "0.4.24+commit.e67f0147.Emscripten.clang"
  },
  "schemaVersion": "2.0.0",
  "updatedAt": "2018-08-29T17:55:12.562Z"
}