{
  "contractName": "TokenManager",
  "abi": [
    {
      "constant": true,
      "inputs": [
        {
          "name": "",
          "type": "uint256"
        }
      ],
      "name": "holders",
      "outputs": [
        {
          "name": "",
          "type": "address"
        }
      ],
      "payable": false,
      "stateMutability": "view",
      "type": "function"
    },
    {
      "constant": true,
      "inputs": [],
      "name": "getRecoveryVault",
      "outputs": [
        {
          "name": "",
          "type": "address"
        }
      ],
      "payable": false,
      "stateMutability": "view",
      "type": "function"
    },
    {
      "constant": true,
      "inputs": [],
      "name": "EVMSCRIPT_REGISTRY_APP_ID",
      "outputs": [
        {
          "name": "",
          "type": "bytes32"
        }
      ],
      "payable": false,
      "stateMutability": "view",
      "type": "function"
    },
    {
      "constant": true,
      "inputs": [
        {
          "name": "token",
          "type": "address"
        }
      ],
      "name": "allowRecoverability",
      "outputs": [
        {
          "name": "",
          "type": "bool"
        }
      ],
      "payable": false,
      "stateMutability": "view",
      "type": "function"
    },
    {
      "constant": true,
      "inputs": [],
      "name": "appId",
      "outputs": [
        {
          "name": "",
          "type": "bytes32"
        }
      ],
      "payable": false,
      "stateMutability": "view",
      "type": "function"
    },
    {
      "constant": true,
      "inputs": [],
      "name": "ETH",
      "outputs": [
        {
          "name": "",
          "type": "address"
        }
      ],
      "payable": false,
      "stateMutability": "view",
      "type": "function"
    },
    {
      "constant": true,
      "inputs": [],
      "name": "ISSUE_ROLE",
      "outputs": [
        {
          "name": "",
          "type": "bytes32"
        }
      ],
      "payable": false,
      "stateMutability": "view",
      "type": "function"
    },
    {
      "constant": true,
      "inputs": [],
      "name": "getInitializationBlock",
      "outputs": [
        {
          "name": "",
          "type": "uint256"
        }
      ],
      "payable": false,
      "stateMutability": "view",
      "type": "function"
    },
    {
      "constant": true,
      "inputs": [],
      "name": "transferable",
      "outputs": [
        {
          "name": "",
          "type": "bool"
        }
      ],
      "payable": false,
      "stateMutability": "view",
      "type": "function"
    },
    {
      "constant": true,
      "inputs": [],
      "name": "EVMSCRIPT_REGISTRY_APP",
      "outputs": [
        {
          "name": "",
          "type": "bytes32"
        }
      ],
      "payable": false,
      "stateMutability": "view",
      "type": "function"
    },
    {
      "constant": false,
      "inputs": [
        {
          "name": "_token",
          "type": "address"
        }
      ],
      "name": "transferToVault",
      "outputs": [],
      "payable": false,
      "stateMutability": "nonpayable",
      "type": "function"
    },
    {
      "constant": true,
      "inputs": [
        {
          "name": "_sender",
          "type": "address"
        },
        {
          "name": "_role",
          "type": "bytes32"
        },
        {
          "name": "_params",
          "type": "uint256[]"
        }
      ],
      "name": "canPerform",
      "outputs": [
        {
          "name": "",
          "type": "bool"
        }
      ],
      "payable": false,
      "stateMutability": "view",
      "type": "function"
    },
    {
      "constant": true,
      "inputs": [],
      "name": "ASSIGN_ROLE",
      "outputs": [
        {
          "name": "",
          "type": "bytes32"
        }
      ],
      "payable": false,
      "stateMutability": "view",
      "type": "function"
    },
    {
      "constant": true,
      "inputs": [],
      "name": "BURN_ROLE",
      "outputs": [
        {
          "name": "",
          "type": "bytes32"
        }
      ],
      "payable": false,
      "stateMutability": "view",
      "type": "function"
    },
    {
      "constant": true,
      "inputs": [],
      "name": "kernel",
      "outputs": [
        {
          "name": "",
          "type": "address"
        }
      ],
      "payable": false,
      "stateMutability": "view",
      "type": "function"
    },
    {
      "constant": true,
      "inputs": [],
      "name": "MINT_ROLE",
      "outputs": [
        {
          "name": "",
          "type": "bytes32"
        }
      ],
      "payable": false,
      "stateMutability": "view",
      "type": "function"
    },
    {
      "constant": true,
      "inputs": [],
      "name": "maxAccountTokens",
      "outputs": [
        {
          "name": "",
          "type": "uint256"
        }
      ],
      "payable": false,
      "stateMutability": "view",
      "type": "function"
    },
    {
      "constant": true,
      "inputs": [],
      "name": "REVOKE_VESTINGS_ROLE",
      "outputs": [
        {
          "name": "",
          "type": "bytes32"
        }
      ],
      "payable": false,
      "stateMutability": "view",
      "type": "function"
    },
    {
      "constant": true,
      "inputs": [
        {
          "name": "_script",
          "type": "bytes"
        }
      ],
      "name": "getExecutor",
      "outputs": [
        {
          "name": "",
          "type": "address"
        }
      ],
      "payable": false,
      "stateMutability": "view",
      "type": "function"
    },
    {
      "constant": true,
      "inputs": [],
      "name": "token",
      "outputs": [
        {
          "name": "",
          "type": "address"
        }
      ],
      "payable": false,
      "stateMutability": "view",
      "type": "function"
    },
    {
      "constant": true,
      "inputs": [],
      "name": "logHolders",
      "outputs": [
        {
          "name": "",
          "type": "bool"
        }
      ],
      "payable": false,
      "stateMutability": "view",
      "type": "function"
    },
    {
      "anonymous": false,
      "inputs": [
        {
          "indexed": true,
          "name": "receiver",
          "type": "address"
        },
        {
          "indexed": false,
          "name": "vestingId",
          "type": "uint256"
        },
        {
          "indexed": false,
          "name": "amount",
          "type": "uint256"
        }
      ],
      "name": "NewVesting",
      "type": "event"
    },
    {
      "anonymous": false,
      "inputs": [
        {
          "indexed": true,
          "name": "receiver",
          "type": "address"
        },
        {
          "indexed": false,
          "name": "vestingId",
          "type": "uint256"
        }
      ],
      "name": "RevokeVesting",
      "type": "event"
    },
    {
      "anonymous": false,
      "inputs": [
        {
          "indexed": true,
          "name": "executor",
          "type": "address"
        },
        {
          "indexed": false,
          "name": "script",
          "type": "bytes"
        },
        {
          "indexed": false,
          "name": "input",
          "type": "bytes"
        },
        {
          "indexed": false,
          "name": "returnData",
          "type": "bytes"
        }
      ],
      "name": "ScriptResult",
      "type": "event"
    },
    {
      "constant": false,
      "inputs": [
        {
          "name": "_token",
          "type": "address"
        },
        {
          "name": "_transferable",
          "type": "bool"
        },
        {
          "name": "_maxAccountTokens",
          "type": "uint256"
        },
        {
          "name": "_logHolders",
          "type": "bool"
        }
      ],
      "name": "initialize",
      "outputs": [],
      "payable": false,
      "stateMutability": "nonpayable",
      "type": "function"
    },
    {
      "constant": false,
      "inputs": [
        {
          "name": "_receiver",
          "type": "address"
        },
        {
          "name": "_amount",
          "type": "uint256"
        }
      ],
      "name": "mint",
      "outputs": [],
      "payable": false,
      "stateMutability": "nonpayable",
      "type": "function"
    },
    {
      "constant": false,
      "inputs": [
        {
          "name": "_amount",
          "type": "uint256"
        }
      ],
      "name": "issue",
      "outputs": [],
      "payable": false,
      "stateMutability": "nonpayable",
      "type": "function"
    },
    {
      "constant": false,
      "inputs": [
        {
          "name": "_receiver",
          "type": "address"
        },
        {
          "name": "_amount",
          "type": "uint256"
        }
      ],
      "name": "assign",
      "outputs": [],
      "payable": false,
      "stateMutability": "nonpayable",
      "type": "function"
    },
    {
      "constant": false,
      "inputs": [
        {
          "name": "_holder",
          "type": "address"
        },
        {
          "name": "_amount",
          "type": "uint256"
        }
      ],
      "name": "burn",
      "outputs": [],
      "payable": false,
      "stateMutability": "nonpayable",
      "type": "function"
    },
    {
      "constant": false,
      "inputs": [
        {
          "name": "_receiver",
          "type": "address"
        },
        {
          "name": "_amount",
          "type": "uint256"
        },
        {
          "name": "_start",
          "type": "uint64"
        },
        {
          "name": "_cliff",
          "type": "uint64"
        },
        {
          "name": "_vesting",
          "type": "uint64"
        },
        {
          "name": "_revokable",
          "type": "bool"
        }
      ],
      "name": "assignVested",
      "outputs": [
        {
          "name": "",
          "type": "uint256"
        }
      ],
      "payable": false,
      "stateMutability": "nonpayable",
      "type": "function"
    },
    {
      "constant": false,
      "inputs": [
        {
          "name": "_holder",
          "type": "address"
        },
        {
          "name": "_vestingId",
          "type": "uint256"
        }
      ],
      "name": "revokeVesting",
      "outputs": [],
      "payable": false,
      "stateMutability": "nonpayable",
      "type": "function"
    },
    {
      "constant": false,
      "inputs": [
        {
          "name": "_evmScript",
          "type": "bytes"
        }
      ],
      "name": "forward",
      "outputs": [],
      "payable": false,
      "stateMutability": "nonpayable",
      "type": "function"
    },
    {
      "constant": true,
      "inputs": [],
      "name": "isForwarder",
      "outputs": [
        {
          "name": "",
          "type": "bool"
        }
      ],
      "payable": false,
      "stateMutability": "pure",
      "type": "function"
    },
    {
      "constant": true,
      "inputs": [
        {
          "name": "_sender",
          "type": "address"
        },
        {
          "name": "",
          "type": "bytes"
        }
      ],
      "name": "canForward",
      "outputs": [
        {
          "name": "",
          "type": "bool"
        }
      ],
      "payable": false,
      "stateMutability": "view",
      "type": "function"
    },
    {
      "constant": true,
      "inputs": [],
      "name": "allHolders",
      "outputs": [
        {
          "name": "",
          "type": "address[]"
        }
      ],
      "payable": false,
      "stateMutability": "view",
      "type": "function"
    },
    {
      "constant": false,
      "inputs": [
        {
          "name": "_from",
          "type": "address"
        },
        {
          "name": "_to",
          "type": "address"
        },
        {
          "name": "_amount",
          "type": "uint256"
        }
      ],
      "name": "onTransfer",
      "outputs": [
        {
          "name": "",
          "type": "bool"
        }
      ],
      "payable": false,
      "stateMutability": "nonpayable",
      "type": "function"
    },
    {
      "constant": true,
      "inputs": [
        {
          "name": "_holder",
          "type": "address"
        }
      ],
      "name": "tokenGrantsCount",
      "outputs": [
        {
          "name": "",
          "type": "uint256"
        }
      ],
      "payable": false,
      "stateMutability": "view",
      "type": "function"
    },
    {
      "constant": true,
      "inputs": [
        {
          "name": "_holder",
          "type": "address"
        }
      ],
      "name": "spendableBalanceOf",
      "outputs": [
        {
          "name": "",
          "type": "uint256"
        }
      ],
      "payable": false,
      "stateMutability": "view",
      "type": "function"
    },
    {
      "constant": true,
      "inputs": [
        {
          "name": "_holder",
          "type": "address"
        },
        {
          "name": "_time",
          "type": "uint256"
        }
      ],
      "name": "transferableBalance",
      "outputs": [
        {
          "name": "",
          "type": "uint256"
        }
      ],
      "payable": false,
      "stateMutability": "view",
      "type": "function"
    },
    {
      "constant": false,
      "inputs": [
        {
          "name": "_owner",
          "type": "address"
        }
      ],
      "name": "proxyPayment",
      "outputs": [
        {
          "name": "",
          "type": "bool"
        }
      ],
      "payable": true,
      "stateMutability": "payable",
      "type": "function"
    },
    {
      "constant": false,
      "inputs": [
        {
          "name": "_owner",
          "type": "address"
        },
        {
          "name": "_spender",
          "type": "address"
        },
        {
          "name": "_amount",
          "type": "uint256"
        }
      ],
      "name": "onApprove",
      "outputs": [
        {
          "name": "",
          "type": "bool"
        }
      ],
      "payable": false,
      "stateMutability": "nonpayable",
      "type": "function"
    }
  ],
  "bytecode": "0x608060405234801561001057600080fd5b506136b6806100206000396000f3006080604052600436106101d8576000357c0100000000000000000000000000000000000000000000000000000000900463ffffffff16806302a72a4c146101dd5780630f8f8b831461023457806321cb18cd1461028b5780632a11ced01461033457806332f0a3b5146103a157806340c10f19146103f85780634a3931491461044557806360b1e057146104ca57806372f8393c146104fd5780637e7db6e11461055e57806380afdea8146105b95780638322fff2146105ec578063856222f1146106435780638b3dd7491461067657806392ff0d31146106a15780639b3fdf4c146106d05780639d4941d8146107035780639dc29fac14610746578063a1658fad14610793578063a51d9a8e1461083f578063b930908f14610872578063be760488146108a5578063c0774df3146108f2578063c80a3aa614610993578063cc872b66146109ff578063d4aae0c414610a2c578063d948d46814610a83578063da682aeb14610aec578063e918c62f14610b71578063e9a9c85014610bd6578063ecfda43214610c09578063edc168f114610c34578063f48c305414610c67578063f92a79ff14610cb5578063fa6799f214610d5e578063fc0c546a14610dab578063fd2c0d6814610e02578063fd64eccb14610e31575b600080fd5b3480156101e957600080fd5b5061021e600480360381019080803573ffffffffffffffffffffffffffffffffffffffff169060200190929190505050610e60565b6040518082815260200191505060405180910390f35b34801561024057600080fd5b50610275600480360381019080803573ffffffffffffffffffffffffffffffffffffffff169060200190929190505050610eac565b6040518082815260200191505060405180910390f35b34801561029757600080fd5b5061031e600480360381019080803573ffffffffffffffffffffffffffffffffffffffff16906020019092919080359060200190929190803567ffffffffffffffff169060200190929190803567ffffffffffffffff169060200190929190803567ffffffffffffffff169060200190929190803515159060200190929190505050610ebf565b6040518082815260200191505060405180910390f35b34801561034057600080fd5b5061035f6004803603810190808035906020019092919050505061115f565b604051808273ffffffffffffffffffffffffffffffffffffffff1673ffffffffffffffffffffffffffffffffffffffff16815260200191505060405180910390f35b3480156103ad57600080fd5b506103b661119d565b604051808273ffffffffffffffffffffffffffffffffffffffff1673ffffffffffffffffffffffffffffffffffffffff16815260200191505060405180910390f35b34801561040457600080fd5b50610443600480360381019080803573ffffffffffffffffffffffffffffffffffffffff169060200190929190803590602001909291905050506112aa565b005b34801561045157600080fd5b506104b0600480360381019080803573ffffffffffffffffffffffffffffffffffffffff169060200190929190803573ffffffffffffffffffffffffffffffffffffffff16906020019092919080359060200190929190505050611325565b604051808215151515815260200191505060405180910390f35b3480156104d657600080fd5b506104df6113f9565b60405180826000191660001916815260200191505060405180910390f35b34801561050957600080fd5b50610548600480360381019080803573ffffffffffffffffffffffffffffffffffffffff16906020019092919080359060200190929190505050611420565b6040518082815260200191505060405180910390f35b34801561056a57600080fd5b5061059f600480360381019080803573ffffffffffffffffffffffffffffffffffffffff16906020019092919050505061166b565b604051808215151515815260200191505060405180910390f35b3480156105c557600080fd5b506105ce611676565b60405180826000191660001916815260200191505060405180910390f35b3480156105f857600080fd5b5061060161167c565b604051808273ffffffffffffffffffffffffffffffffffffffff1673ffffffffffffffffffffffffffffffffffffffff16815260200191505060405180910390f35b34801561064f57600080fd5b50610658611681565b60405180826000191660001916815260200191505060405180910390f35b34801561068257600080fd5b5061068b6116ba565b6040518082815260200191505060405180910390f35b3480156106ad57600080fd5b506106b66116c4565b604051808215151515815260200191505060405180910390f35b3480156106dc57600080fd5b506106e56116d7565b60405180826000191660001916815260200191505060405180910390f35b34801561070f57600080fd5b50610744600480360381019080803573ffffffffffffffffffffffffffffffffffffffff1690602001909291905050506116fe565b005b34801561075257600080fd5b50610791600480360381019080803573ffffffffffffffffffffffffffffffffffffffff16906020019092919080359060200190929190505050611988565b005b34801561079f57600080fd5b50610825600480360381019080803573ffffffffffffffffffffffffffffffffffffffff169060200190929190803560001916906020019092919080359060200190820180359060200190808060200260200160405190810160405280939291908181526020018383602002808284378201915050505050509192919290505050611ae5565b604051808215151515815260200191505060405180910390f35b34801561084b57600080fd5b50610854611cf7565b60405180826000191660001916815260200191505060405180910390f35b34801561087e57600080fd5b50610887611d30565b60405180826000191660001916815260200191505060405180910390f35b3480156108b157600080fd5b506108f0600480360381019080803573ffffffffffffffffffffffffffffffffffffffff16906020019092919080359060200190929190505050611d69565b005b3480156108fe57600080fd5b50610979600480360381019080803573ffffffffffffffffffffffffffffffffffffffff169060200190929190803590602001908201803590602001908080601f0160208091040260200160405190810160405280939291908181526020018383808284378201915050505050509192919290505050611dcf565b604051808215151515815260200191505060405180910390f35b34801561099f57600080fd5b506109a8611ed3565b6040518080602001828103825283818151815260200191508051906020019060200280838360005b838110156109eb5780820151818401526020810190506109d0565b505050509050019250505060405180910390f35b348015610a0b57600080fd5b50610a2a60048036038101908080359060200190929190505050611f61565b005b348015610a3857600080fd5b50610a41611fc5565b604051808273ffffffffffffffffffffffffffffffffffffffff1673ffffffffffffffffffffffffffffffffffffffff16815260200191505060405180910390f35b348015610a8f57600080fd5b50610aea600480360381019080803590602001908201803590602001908080601f0160208091040260200160405190810160405280939291908181526020018383808284378201915050505050509192919290505050611fea565b005b348015610af857600080fd5b50610b57600480360381019080803573ffffffffffffffffffffffffffffffffffffffff169060200190929190803573ffffffffffffffffffffffffffffffffffffffff169060200190929190803590602001909291905050506120eb565b604051808215151515815260200191505060405180910390f35b348015610b7d57600080fd5b50610bd4600480360381019080803573ffffffffffffffffffffffffffffffffffffffff169060200190929190803515159060200190929190803590602001909291908035151590602001909291905050506120f8565b005b348015610be257600080fd5b50610beb61229a565b60405180826000191660001916815260200191505060405180910390f35b348015610c1557600080fd5b50610c1e6122d3565b6040518082815260200191505060405180910390f35b348015610c4057600080fd5b50610c496122d9565b60405180826000191660001916815260200191505060405180910390f35b610c9b600480360381019080803573ffffffffffffffffffffffffffffffffffffffff169060200190929190505050612312565b604051808215151515815260200191505060405180910390f35b348015610cc157600080fd5b50610d1c600480360381019080803590602001908201803590602001908080601f0160208091040260200160405190810160405280939291908181526020018383808284378201915050505050509192919290505050612379565b604051808273ffffffffffffffffffffffffffffffffffffffff1673ffffffffffffffffffffffffffffffffffffffff16815260200191505060405180910390f35b348015610d6a57600080fd5b50610da9600480360381019080803573ffffffffffffffffffffffffffffffffffffffff16906020019092919080359060200190929190505050612498565b005b348015610db757600080fd5b50610dc061284b565b604051808273ffffffffffffffffffffffffffffffffffffffff1673ffffffffffffffffffffffffffffffffffffffff16815260200191505060405180910390f35b348015610e0e57600080fd5b50610e17612871565b604051808215151515815260200191505060405180910390f35b348015610e3d57600080fd5b50610e46612884565b604051808215151515815260200191505060405180910390f35b6000606760008373ffffffffffffffffffffffffffffffffffffffff1673ffffffffffffffffffffffffffffffffffffffff168152602001908152602001600020805490509050919050565b6000610eb88242611420565b9050919050565b6000610ec961363a565b600060405180807f41535349474e5f524f4c45000000000000000000000000000000000000000000815250600b0190506040518091039020610f0b8a8a61288d565b610f16338383611ae5565b1515610f2157600080fd5b6032610f2c8c610e60565b101515610f3857600080fd5b8767ffffffffffffffff168967ffffffffffffffff1611158015610f7057508667ffffffffffffffff168867ffffffffffffffff1611155b1515610f7b57600080fd5b60a0604051908101604052808b81526020018a67ffffffffffffffff1681526020018967ffffffffffffffff1681526020018867ffffffffffffffff16815260200187151581525093506001606760008d73ffffffffffffffffffffffffffffffffffffffff1673ffffffffffffffffffffffffffffffffffffffff16815260200190815260200160002085908060018154018082558091505090600182039060005260206000209060020201600090919290919091506000820151816000015560208201518160010160006101000a81548167ffffffffffffffff021916908367ffffffffffffffff16021790555060408201518160010160086101000a81548167ffffffffffffffff021916908367ffffffffffffffff16021790555060608201518160010160106101000a81548167ffffffffffffffff021916908367ffffffffffffffff16021790555060808201518160010160186101000a81548160ff02191690831515021790555050500392506110f88b8b6128b7565b8a73ffffffffffffffffffffffffffffffffffffffff167f627ad26dcfe82ec79b33fda0ddd062f6fab9f4914acac8345f79090dfd86fb54848c604051808381526020018281526020019250505060405180910390a2829450505050509695505050505050565b60698181548110151561116e57fe5b906000526020600020016000915054906101000a900473ffffffffffffffffffffffffffffffffffffffff1681565b6000806000809054906101000a900473ffffffffffffffffffffffffffffffffffffffff1673ffffffffffffffffffffffffffffffffffffffff16141515156111e557600080fd5b6000809054906101000a900473ffffffffffffffffffffffffffffffffffffffff1673ffffffffffffffffffffffffffffffffffffffff166332f0a3b56040518163ffffffff167c0100000000000000000000000000000000000000000000000000000000028152600401602060405180830381600087803b15801561126a57600080fd5b505af115801561127e573d6000803e3d6000fd5b505050506040513d602081101561129457600080fd5b8101908080519060200190929190505050905090565b60405180807f4d494e545f524f4c450000000000000000000000000000000000000000000000815250600901905060405180910390206112ea838361288d565b6112f5338383611ae5565b151561130057600080fd5b61130a84846129db565b151561131557600080fd5b61131f8484612ae4565b50505050565b60008060003073ffffffffffffffffffffffffffffffffffffffff168673ffffffffffffffffffffffffffffffffffffffff16148061138f57503073ffffffffffffffffffffffffffffffffffffffff168573ffffffffffffffffffffffffffffffffffffffff16145b91508115156113e2576113a285856129db565b9050606460149054906101000a900460ff1680156113bd5750805b80156113d25750836113cf8742611420565b10155b15156113e157600092506113f0565b5b6113eb85612bf2565b600192505b50509392505050565b7fddbcfd564f642ab5627cf68b9b7d374fb4f8a36e941a75d89c87998cef03bd6160010281565b60008060008060008061143288610e60565b945060009350600092505b8483101561155457606760008973ffffffffffffffffffffffffffffffffffffffff1673ffffffffffffffffffffffffffffffffffffffff1681526020019081526020016000208381548110151561149157fe5b9060005260206000209060020201915061152282600001548867ffffffffffffffff168460010160009054906101000a900467ffffffffffffffff1667ffffffffffffffff168560010160089054906101000a900467ffffffffffffffff1667ffffffffffffffff168660010160109054906101000a900467ffffffffffffffff1667ffffffffffffffff16612d23565b90506115378185612d7f90919063ffffffff16565b935061154d600184612d7f90919063ffffffff16565b925061143d565b61165e84606460009054906101000a900473ffffffffffffffffffffffffffffffffffffffff1673ffffffffffffffffffffffffffffffffffffffff166370a082318b6040518263ffffffff167c0100000000000000000000000000000000000000000000000000000000028152600401808273ffffffffffffffffffffffffffffffffffffffff1673ffffffffffffffffffffffffffffffffffffffff168152602001915050602060405180830381600087803b15801561161557600080fd5b505af1158015611629573d6000803e3d6000fd5b505050506040513d602081101561163f57600080fd5b8101908080519060200190929190505050612da090919063ffffffff16565b9550505050505092915050565b600060019050919050565b60015481565b600081565b60405180807f49535355455f524f4c4500000000000000000000000000000000000000000000815250600a019050604051809103902081565b6000600354905090565b606460149054906101000a900460ff1681565b7f34f01c17e9be6ddbf2c61f37b5b1fb9f1a090a975006581ad19bda1c4d38287160010281565b60008061170a8361166b565b151561171557600080fd5b61171d61119d565b915061172882612dc1565b151561173357600080fd5b600073ffffffffffffffffffffffffffffffffffffffff168373ffffffffffffffffffffffffffffffffffffffff1614156117cb578173ffffffffffffffffffffffffffffffffffffffff166108fc3073ffffffffffffffffffffffffffffffffffffffff16319081150290604051600060405180830381858888f193505050501580156117c5573d6000803e3d6000fd5b50611983565b8273ffffffffffffffffffffffffffffffffffffffff166370a08231306040518263ffffffff167c0100000000000000000000000000000000000000000000000000000000028152600401808273ffffffffffffffffffffffffffffffffffffffff1673ffffffffffffffffffffffffffffffffffffffff168152602001915050602060405180830381600087803b15801561186657600080fd5b505af115801561187a573d6000803e3d6000fd5b505050506040513d602081101561189057600080fd5b810190808051906020019092919050505090508273ffffffffffffffffffffffffffffffffffffffff1663a9059cbb83836040518363ffffffff167c0100000000000000000000000000000000000000000000000000000000028152600401808373ffffffffffffffffffffffffffffffffffffffff1673ffffffffffffffffffffffffffffffffffffffff16815260200182815260200192505050602060405180830381600087803b15801561194657600080fd5b505af115801561195a573d6000803e3d6000fd5b505050506040513d602081101561197057600080fd5b8101908080519060200190929190505050505b505050565b60405180807f4255524e5f524f4c450000000000000000000000000000000000000000000000815250600901905060405180910390206119c8838361288d565b6119d3338383611ae5565b15156119de57600080fd5b606460009054906101000a900473ffffffffffffffffffffffffffffffffffffffff1673ffffffffffffffffffffffffffffffffffffffff1663d3ce77fe85856040518363ffffffff167c0100000000000000000000000000000000000000000000000000000000028152600401808373ffffffffffffffffffffffffffffffffffffffff1673ffffffffffffffffffffffffffffffffffffffff16815260200182815260200192505050602060405180830381600087803b158015611aa357600080fd5b505af1158015611ab7573d6000803e3d6000fd5b505050506040513d6020811015611acd57600080fd5b81019080805190602001909291905050505050505050565b6000606060008084511115611b0257602084510290508391508082525b60008060009054906101000a900473ffffffffffffffffffffffffffffffffffffffff1673ffffffffffffffffffffffffffffffffffffffff161480611cec57506000809054906101000a900473ffffffffffffffffffffffffffffffffffffffff1673ffffffffffffffffffffffffffffffffffffffff1663fdef9106873088866040518563ffffffff167c0100000000000000000000000000000000000000000000000000000000028152600401808573ffffffffffffffffffffffffffffffffffffffff1673ffffffffffffffffffffffffffffffffffffffff1681526020018473ffffffffffffffffffffffffffffffffffffffff1673ffffffffffffffffffffffffffffffffffffffff168152602001836000191660001916815260200180602001828103825283818151815260200191508051906020019080838360005b83811015611c61578082015181840152602081019050611c46565b50505050905090810190601f168015611c8e5780820380516001836020036101000a031916815260200191505b5095505050505050602060405180830381600087803b158015611cb057600080fd5b505af1158015611cc4573d6000803e3d6000fd5b505050506040513d6020811015611cda57600080fd5b81019080805190602001909291905050505b925050509392505050565b60405180807f41535349474e5f524f4c45000000000000000000000000000000000000000000815250600b019050604051809103902081565b60405180807f4255524e5f524f4c4500000000000000000000000000000000000000000000008152506009019050604051809103902081565b60405180807f41535349474e5f524f4c45000000000000000000000000000000000000000000815250600b0190506040518091039020611da9838361288d565b611db4338383611ae5565b1515611dbf57600080fd5b611dc984846128b7565b50505050565b600080606460009054906101000a900473ffffffffffffffffffffffffffffffffffffffff1673ffffffffffffffffffffffffffffffffffffffff166370a08231856040518263ffffffff167c0100000000000000000000000000000000000000000000000000000000028152600401808273ffffffffffffffffffffffffffffffffffffffff1673ffffffffffffffffffffffffffffffffffffffff168152602001915050602060405180830381600087803b158015611e8f57600080fd5b505af1158015611ea3573d6000803e3d6000fd5b505050506040513d6020811015611eb957600080fd5b810190808051906020019092919050505011905092915050565b60606069805480602002602001604051908101604052809291908181526020018280548015611f5757602002820191906000526020600020905b8160009054906101000a900473ffffffffffffffffffffffffffffffffffffffff1673ffffffffffffffffffffffffffffffffffffffff1681526020019060010190808311611f0d575b5050505050905090565b60405180807f49535355455f524f4c4500000000000000000000000000000000000000000000815250600a0190506040518091039020611fa082612e13565b611fab338383611ae5565b1515611fb657600080fd5b611fc03084612ae4565b505050565b6000809054906101000a900473ffffffffffffffffffffffffffffffffffffffff1681565b606080611ff73384611dcf565b151561200257600080fd5b60006040519080825280601f01601f1916602001820160405280156120365781602001602082028038833980820191505090505b50915060016040519080825280602002602001820160405280156120695781602001602082028038833980820191505090505b509050606460009054906101000a900473ffffffffffffffffffffffffffffffffffffffff1681600081518110151561209e57fe5b9060200190602002019073ffffffffffffffffffffffffffffffffffffffff16908173ffffffffffffffffffffffffffffffffffffffff16815250506120e5838383612e6b565b50505050565b6000600190509392505050565b600060035414151561210957600080fd5b61211161322f565b3073ffffffffffffffffffffffffffffffffffffffff168473ffffffffffffffffffffffffffffffffffffffff1663f77c47916040518163ffffffff167c0100000000000000000000000000000000000000000000000000000000028152600401602060405180830381600087803b15801561218c57600080fd5b505af11580156121a0573d6000803e3d6000fd5b505050506040513d60208110156121b657600080fd5b810190808051906020019092919050505073ffffffffffffffffffffffffffffffffffffffff161415156121e957600080fd5b83606460006101000a81548173ffffffffffffffffffffffffffffffffffffffff021916908373ffffffffffffffffffffffffffffffffffffffff16021790555082606460146101000a81548160ff021916908315150217905550600082146122525781612274565b7fffffffffffffffffffffffffffffffffffffffffffffffffffffffffffffffff5b60658190555080606660006101000a81548160ff02191690831515021790555050505050565b60405180807f4d494e545f524f4c4500000000000000000000000000000000000000000000008152506009019050604051809103902081565b60655481565b60405180807f5245564f4b455f56455354494e47535f524f4c450000000000000000000000008152506014019050604051809103902081565b6000606460009054906101000a900473ffffffffffffffffffffffffffffffffffffffff1673ffffffffffffffffffffffffffffffffffffffff163373ffffffffffffffffffffffffffffffffffffffff1614151561237057600080fd5b60009050919050565b6000612383613250565b73ffffffffffffffffffffffffffffffffffffffff166304bf2a7f836040518263ffffffff167c01000000000000000000000000000000000000000000000000000000000281526004018080602001828103825283818151815260200191508051906020019080838360005b8381101561240a5780820151818401526020810190506123ef565b50505050905090810190601f1680156124375780820380516001836020036101000a031916815260200191505b5092505050602060405180830381600087803b15801561245657600080fd5b505af115801561246a573d6000803e3d6000fd5b505050506040513d602081101561248057600080fd5b81019080805190602001909291905050509050919050565b60008060405180807f5245564f4b455f56455354494e47535f524f4c45000000000000000000000000815250601401905060405180910390206124da85613352565b6124e5338383611ae5565b15156124f057600080fd5b606760008773ffffffffffffffffffffffffffffffffffffffff1673ffffffffffffffffffffffffffffffffffffffff1681526020019081526020016000208581548110151561253c57fe5b906000526020600020906002020193508360010160189054906101000a900460ff16151561256957600080fd5b6125ea84600001544267ffffffffffffffff168660010160009054906101000a900467ffffffffffffffff1667ffffffffffffffff168760010160089054906101000a900467ffffffffffffffff1667ffffffffffffffff168860010160109054906101000a900467ffffffffffffffff1667ffffffffffffffff16612d23565b9250606760008773ffffffffffffffffffffffffffffffffffffffff1673ffffffffffffffffffffffffffffffffffffffff1681526020019081526020016000208581548110151561263857fe5b90600052602060002090600202016000808201600090556001820160006101000a81549067ffffffffffffffff02191690556001820160086101000a81549067ffffffffffffffff02191690556001820160106101000a81549067ffffffffffffffff02191690556001820160186101000a81549060ff02191690555050606460009054906101000a900473ffffffffffffffffffffffffffffffffffffffff1673ffffffffffffffffffffffffffffffffffffffff166323b872dd8730866040518463ffffffff167c0100000000000000000000000000000000000000000000000000000000028152600401808473ffffffffffffffffffffffffffffffffffffffff1673ffffffffffffffffffffffffffffffffffffffff1681526020018373ffffffffffffffffffffffffffffffffffffffff1673ffffffffffffffffffffffffffffffffffffffff1681526020018281526020019350505050602060405180830381600087803b1580156127af57600080fd5b505af11580156127c3573d6000803e3d6000fd5b505050506040513d60208110156127d957600080fd5b810190808051906020019092919050505015156127f557600080fd5b8573ffffffffffffffffffffffffffffffffffffffff167fd84a4ab319cd8ac27a1baf06f5020baf3eb7692cca480d7a7fb68596befe5ca9866040518082815260200191505060405180910390a2505050505050565b606460009054906101000a900473ffffffffffffffffffffffffffffffffffffffff1681565b606660009054906101000a900460ff1681565b60006001905090565b60606128af8373ffffffffffffffffffffffffffffffffffffffff168361337a565b905092915050565b6128c182826129db565b15156128cc57600080fd5b606460009054906101000a900473ffffffffffffffffffffffffffffffffffffffff1673ffffffffffffffffffffffffffffffffffffffff1663a9059cbb83836040518363ffffffff167c0100000000000000000000000000000000000000000000000000000000028152600401808373ffffffffffffffffffffffffffffffffffffffff1673ffffffffffffffffffffffffffffffffffffffff16815260200182815260200192505050602060405180830381600087803b15801561299157600080fd5b505af11580156129a5573d6000803e3d6000fd5b505050506040513d60208110156129bb57600080fd5b810190808051906020019092919050505015156129d757600080fd5b5050565b600060655482606460009054906101000a900473ffffffffffffffffffffffffffffffffffffffff1673ffffffffffffffffffffffffffffffffffffffff166370a08231866040518263ffffffff167c0100000000000000000000000000000000000000000000000000000000028152600401808273ffffffffffffffffffffffffffffffffffffffff1673ffffffffffffffffffffffffffffffffffffffff168152602001915050602060405180830381600087803b158015612a9e57600080fd5b505af1158015612ab2573d6000803e3d6000fd5b505050506040513d6020811015612ac857600080fd5b8101908080519060200190929190505050011115905092915050565b606460009054906101000a900473ffffffffffffffffffffffffffffffffffffffff1673ffffffffffffffffffffffffffffffffffffffff1663827f32c083836040518363ffffffff167c0100000000000000000000000000000000000000000000000000000000028152600401808373ffffffffffffffffffffffffffffffffffffffff1673ffffffffffffffffffffffffffffffffffffffff16815260200182815260200192505050602060405180830381600087803b158015612ba957600080fd5b505af1158015612bbd573d6000803e3d6000fd5b505050506040513d6020811015612bd357600080fd5b810190808051906020019092919050505050612bee82612bf2565b5050565b606660009054906101000a900460ff161580612c575750606860008273ffffffffffffffffffffffffffffffffffffffff1673ffffffffffffffffffffffffffffffffffffffff16815260200190815260200160002060009054906101000a900460ff165b15612c6157612d20565b6001606860008373ffffffffffffffffffffffffffffffffffffffff1673ffffffffffffffffffffffffffffffffffffffff16815260200190815260200160002060006101000a81548160ff02191690831515021790555060698190806001815401808255809150509060018203906000526020600020016000909192909190916101000a81548173ffffffffffffffffffffffffffffffffffffffff021916908373ffffffffffffffffffffffffffffffffffffffff160217905550505b50565b6000808286101515612d385760009150612d75565b83861015612d4857869150612d75565b612d6d612d5e88612d598989612da0565b6133f1565b612d688588612da0565b61342f565b905080870391505b5095945050505050565b6000808284019050838110151515612d9657600080fd5b8091505092915050565b600080838311151515612db257600080fd5b82840390508091505092915050565b600080600073ffffffffffffffffffffffffffffffffffffffff168373ffffffffffffffffffffffffffffffffffffffff161415612e025760009150612e0d565b823b90506000811191505b50919050565b60606001604051908082528060200260200182016040528015612e455781602001602082028038833980820191505090505b50905081816000815181101515612e5857fe5b9060200190602002018181525050919050565b60606000606060008060008060009054906101000a900473ffffffffffffffffffffffffffffffffffffffff1691506001549050612ea889612379565b9450600073ffffffffffffffffffffffffffffffffffffffff168573ffffffffffffffffffffffffffffffffffffffff1614151515612ee657600080fd5b612efb88888b6134599092919063ffffffff16565b93508473ffffffffffffffffffffffffffffffffffffffff1663279cea3590507c01000000000000000000000000000000000000000000000000000000000292508473ffffffffffffffffffffffffffffffffffffffff16837c01000000000000000000000000000000000000000000000000000000009004856040518263ffffffff167c010000000000000000000000000000000000000000000000000000000002815260040180828051906020019080838360005b83811015612fcd578082015181840152602081019050612fb2565b50505050905090810190601f168015612ffa5780820380516001836020036101000a031916815260200191505b50915050600060405180830381865af492505050151561301957600080fd5b61302161352a565b95508473ffffffffffffffffffffffffffffffffffffffff167f5229a5dba83a54ae8cb5b51bdd6de9474cacbe9dd332f5185f3a4f4f2e3f4ad98a8a8960405180806020018060200180602001848103845287818151815260200191508051906020019080838360005b838110156130a657808201518184015260208101905061308b565b50505050905090810190601f1680156130d35780820380516001836020036101000a031916815260200191505b50848103835286818151815260200191508051906020019080838360005b8381101561310c5780820151818401526020810190506130f1565b50505050905090810190601f1680156131395780820380516001836020036101000a031916815260200191505b50848103825285818151815260200191508051906020019080838360005b83811015613172578082015181840152602081019050613157565b50505050905090810190601f16801561319f5780820380516001836020036101000a031916815260200191505b50965050505050505060405180910390a28173ffffffffffffffffffffffffffffffffffffffff166000809054906101000a900473ffffffffffffffffffffffffffffffffffffffff1673ffffffffffffffffffffffffffffffffffffffff1614151561320b57600080fd5b80600019166001546000191614151561322357600080fd5b50505050509392505050565b600060035414151561324057600080fd5b61324861355a565b600381905550565b6000806000809054906101000a900473ffffffffffffffffffffffffffffffffffffffff1673ffffffffffffffffffffffffffffffffffffffff166342c71f1d7f34f01c17e9be6ddbf2c61f37b5b1fb9f1a090a975006581ad19bda1c4d3828716001026040518263ffffffff167c0100000000000000000000000000000000000000000000000000000000028152600401808260001916600019168152602001915050602060405180830381600087803b15801561330e57600080fd5b505af1158015613322573d6000803e3d6000fd5b505050506040513d602081101561333857600080fd5b810190808051906020019092919050505090508091505090565b60606133738273ffffffffffffffffffffffffffffffffffffffff16612e13565b9050919050565b606060026040519080825280602002602001820160405280156133ac5781602001602082028038833980820191505090505b509050828160008151811015156133bf57fe5b9060200190602002018181525050818160018151811015156133dd57fe5b906020019060200201818152505092915050565b60008060008414156134065760009150613428565b828402905082848281151561341757fe5b0414151561342457600080fd5b8091505b5092915050565b60008060008311151561344157600080fd5b828481151561344c57fe5b0490508091505092915050565b60606000806000806060935061346e88613562565b6020028401925061347e87613562565b6020028301915061348e8661359e565b60200282019050806040519080825280601f01601f1916602001820160405280156134c85781602001602082028038833980820191505090505b5094508360208601528260408601528160608601526134f2856134ea8a6135ac565b868b516135b6565b613507856134ff896135ac565b858a516135b6565b61351f85613514886135d5565b8460208a51026135b6565b505050509392505050565b60603d8060008114613551576040519250602082018301604052602082036020843e613552565b5b505080905090565b600043905090565b6000806020835181151561357257fe5b061161357f576000613582565b60015b60ff166020835181151561359257fe5b04600101019050919050565b600081516001019050919050565b6000819050919050565b600082602086010190506135ce8185602085016135df565b5050505050565b6000819050919050565b6000806000808593508692508491505b60208210151561361457835183526020830192506020840193506020820391506135ef565b6001826020036101000a0390508019845116818451168181178552505050505050505050565b60a06040519081016040528060008152602001600067ffffffffffffffff168152602001600067ffffffffffffffff168152602001600067ffffffffffffffff16815260200160001515815250905600a165627a7a72305820155873951922290f74e84da32fbf83c80e0a7ff1b4056750ce43dda56bb715c80029",
  "source": "pragma solidity ^0.4.18;\n\nimport \"@aragon/os/contracts/apps/AragonApp.sol\";\n\nimport \"@aragon/os/contracts/lib/minime/ITokenController.sol\";\nimport \"@aragon/os/contracts/lib/minime/MiniMeToken.sol\";\nimport \"@aragon/os/contracts/common/IForwarder.sol\";\n\nimport \"@aragon/os/contracts/lib/zeppelin/token/ERC20.sol\";\nimport \"@aragon/os/contracts/lib/zeppelin/math/SafeMath.sol\";\n\nimport \"@aragon/os/contracts/lib/misc/Migrations.sol\";\n\n\ncontract TokenManager is ITokenController, AragonApp { // ,IForwarder makes coverage crash (removes pure and interface doesnt match)\n    using SafeMath for uint256;\n\n    MiniMeToken public token;\n    bool public transferable;\n    uint256 public maxAccountTokens;\n    bool public logHolders;\n\n    bytes32 constant public MINT_ROLE = keccak256(\"MINT_ROLE\");\n    bytes32 constant public ISSUE_ROLE = keccak256(\"ISSUE_ROLE\");\n    bytes32 constant public ASSIGN_ROLE = keccak256(\"ASSIGN_ROLE\");\n    bytes32 constant public REVOKE_VESTINGS_ROLE = keccak256(\"REVOKE_VESTINGS_ROLE\");\n    bytes32 constant public BURN_ROLE = keccak256(\"BURN_ROLE\");\n\n    uint256 constant MAX_VESTINGS_PER_ADDRESS = 50;\n    struct TokenVesting {\n        uint256 amount;\n        uint64 start;\n        uint64 cliff;\n        uint64 vesting;\n        bool revokable;\n    }\n\n    mapping (address => TokenVesting[]) vestings;\n    mapping (address => bool) everHeld;\n\n    // Returns all holders the token had (since managing it).\n    // Some of them can have a balance of 0.\n    address[] public holders;\n\n\n    // Other token specific events can be watched on the token address directly (avoid duplication)\n    event NewVesting(address indexed receiver, uint256 vestingId, uint256 amount);\n    event RevokeVesting(address indexed receiver, uint256 vestingId);\n\n    /**\n    * @notice Initializes TokenManager\n    * @param _token MiniMeToken address for the managed token (token manager must be the token controller)\n    * @param _transferable whether the token can be transferred by holders\n    * @param _maxAccountTokens maximum amount of tokens an account can have (0 for infinite tokens)\n    * @param _logHolders Whether the token manager will store all token holders (makes token transfers more expensive!)\n    */\n    function initialize(\n        MiniMeToken _token,\n        bool _transferable,\n        uint256 _maxAccountTokens,\n        bool _logHolders\n        )\n        onlyInit external\n    {\n\n        initialized();\n\n        require(_token.controller() == address(this));\n\n        token = _token;\n        transferable = _transferable;\n        maxAccountTokens = _maxAccountTokens == 0 ? uint256(-1) : _maxAccountTokens;\n        logHolders = _logHolders;\n    }\n\n    /**\n    * @notice Mint `_amount` of tokens for `_receiver`\n    * @param _receiver The address receiving the tokens\n    * @param _amount Number of tokens minted\n    */\n    function mint(address _receiver, uint256 _amount) authP(MINT_ROLE, arr(_receiver, _amount)) external {\n        require(isBalanceIncreaseAllowed(_receiver, _amount));\n        _mint(_receiver, _amount);\n    }\n\n    /**\n    * @notice Mint `_amount` of tokens for the token manager\n    * @param _amount Number of tokens minted\n    */\n    function issue(uint256 _amount) authP(ISSUE_ROLE, arr(_amount)) external {\n        _mint(address(this), _amount);\n    }\n\n    /**\n    * @notice Assign `_amount` of tokens for `_receiver` from Token Manager's holdings\n    * @param _receiver The address receiving the tokens\n    * @param _amount Number of tokens transfered\n    */\n    function assign(address _receiver, uint256 _amount) authP(ASSIGN_ROLE, arr(_receiver, _amount)) external {\n        _assign(_receiver, _amount);\n    }\n\n    /**\n    * @notice Burn `_amount` tokens from `_holder`\n    * @param _holder Holder being removed tokens\n    * @param _amount Number of tokens being burned\n    */\n    function burn(address _holder, uint256 _amount) authP(BURN_ROLE, arr(_holder, _amount)) external {\n        // minime.destroyTokens() never returns false, only reverts on failure\n        token.destroyTokens(_holder, _amount);\n    }\n\n    /**\n    * @notice Assign `_amount` of tokens for `_receiver` from Token Manager's holdings with a `_revokable` revokable vesting starting `_start`, cliff on `_cliff` (first portion of tokens transferable) and vesting on `_vesting` (all tokens transferable)\n    * @param _receiver The address receiving the tokens\n    * @param _amount Number of tokens transfered\n    * @param _start Date the vesting calculations start\n    * @param _cliff Date when the initial proportional amount of tokens are transferable\n    * @param _vesting Date when all tokens are transferable\n    * @param _revokable Whether the vesting can be revoked by the token manager\n    */\n    function assignVested(\n        address _receiver,\n        uint256 _amount,\n        uint64 _start,\n        uint64 _cliff,\n        uint64 _vesting,\n        bool _revokable\n    ) authP(ASSIGN_ROLE, arr(_receiver, _amount)) external returns (uint256)\n    {\n        require(tokenGrantsCount(_receiver) < MAX_VESTINGS_PER_ADDRESS);\n\n        require(_start <= _cliff && _cliff <= _vesting);\n\n        TokenVesting memory tokenVesting = TokenVesting(\n            _amount,\n            _start,\n            _cliff,\n            _vesting,\n            _revokable\n        );\n        uint256 vestingId = vestings[_receiver].push(tokenVesting) - 1;\n\n        _assign(_receiver, _amount);\n\n        NewVesting(_receiver, vestingId, _amount);\n\n        return vestingId;\n    }\n\n    /**\n    * @notice Revoke vesting `_vestingId` from `_holder` returning unvested tokens to Token Manager\n    * @param _holder Address getting vesting revoked\n    * @param _vestingId Numeric id of the vesting\n    */\n    function revokeVesting(address _holder, uint256 _vestingId) authP(REVOKE_VESTINGS_ROLE, arr(_holder)) external {\n        TokenVesting storage v = vestings[_holder][_vestingId];\n        require(v.revokable);\n\n        uint nonVested = calculateNonVestedTokens(\n            v.amount,\n            uint64(now),\n            v.start,\n            v.cliff,\n            v.vesting\n        );\n\n        // To make vestingIds immutable over time, we just zero out the revoked vesting\n        delete vestings[_holder][_vestingId];\n\n        // transferFrom always works as controller\n        // onTransfer hook always allows if transfering to token controller\n        require(token.transferFrom(_holder, address(this), nonVested));\n\n        RevokeVesting(_holder, _vestingId);\n    }\n\n    /**\n    * @dev IForwarder interface conformance. Forwards any token holder action.\n    * @param _evmScript script being executed\n    */\n    function forward(bytes _evmScript) public {\n        require(canForward(msg.sender, _evmScript));\n        bytes memory input = new bytes(0); // TODO: Consider input for this\n        address[] memory blacklist = new address[](1);\n        blacklist[0] = address(token);\n        runScript(_evmScript, input, blacklist);\n    }\n\n    function isForwarder() public pure returns (bool) {\n        return true;\n    }\n\n    function canForward(address _sender, bytes) public view returns (bool) {\n        return token.balanceOf(_sender) > 0;\n    }\n\n    function allHolders() public view returns (address[]) { return holders; }\n\n    /*\n    * @dev Notifies the controller about a token transfer allowing the\n    *      controller to decide whether to allow it or react if desired\n    * @param _from The origin of the transfer\n    * @param _to The destination of the transfer\n    * @param _amount The amount of the transfer\n    * @return False if the controller does not authorize the transfer\n    */\n    function onTransfer(address _from, address _to, uint _amount) public returns (bool) {\n        bool includesTokenManager = _from == address(this) || _to == address(this);\n\n        if (!includesTokenManager) {\n            bool toCanReceive = isBalanceIncreaseAllowed(_to, _amount);\n            if (!(transferable && toCanReceive && (transferableBalance(_from, now) >= _amount))) {\n                return false;\n            }\n        }\n\n        _logHolderIfNeeded(_to);\n\n        return true;\n    }\n\n    function isBalanceIncreaseAllowed(address _receiver, uint _inc) internal view returns (bool) {\n        return token.balanceOf(_receiver) + _inc <= maxAccountTokens;\n    }\n\n    function tokenGrantsCount(address _holder) public view returns (uint256) {\n        return vestings[_holder].length;\n    }\n\n    function spendableBalanceOf(address _holder) public view returns (uint256) {\n        return transferableBalance(_holder, now);\n    }\n\n    function transferableBalance(address _holder, uint256 _time) public view returns (uint256) {\n        uint256 vs = tokenGrantsCount(_holder);\n        uint256 totalNonTransferable = 0;\n\n        for (uint256 i = 0; i < vs; i = i.add(1)) {\n            TokenVesting storage v = vestings[_holder][i];\n            uint nonTransferable = calculateNonVestedTokens(\n                v.amount,\n                uint64(_time),\n                v.start,\n                v.cliff,\n                v.vesting\n            );\n            totalNonTransferable = totalNonTransferable.add(nonTransferable);\n        }\n\n        return token.balanceOf(_holder).sub(totalNonTransferable);\n    }\n\n    /**\n    * @dev Calculate amount of non-vested tokens at a specifc time.\n    * @param tokens uint256 The amount of tokens grantted.\n    * @param time uint64 The time to be checked\n    * @param start uint64 A time representing the begining of the grant\n    * @param cliff uint64 The cliff period.\n    * @param vesting uint64 The vesting period.\n    * @return An uint256 representing the amount of non-vested tokensof a specif grant.\n    *  transferableTokens\n    *   |                         _/--------   vestedTokens rect\n    *   |                       _/\n    *   |                     _/\n    *   |                   _/\n    *   |                 _/\n    *   |                /\n    *   |              .|\n    *   |            .  |\n    *   |          .    |\n    *   |        .      |\n    *   |      .        |\n    *   |    .          |\n    *   +===+===========+---------+----------> time\n    *      Start       Clift    Vesting\n    */\n    function calculateNonVestedTokens(\n        uint256 tokens,\n        uint256 time,\n        uint256 start,\n        uint256 cliff,\n        uint256 vesting) private pure returns (uint256)\n    {\n        // Shortcuts for before cliff and after vesting cases.\n        if (time >= vesting) {\n            return 0;\n        }\n        if (time < cliff) {\n            return tokens;\n        }\n\n        // Interpolate all vested tokens.\n        // As before cliff the shortcut returns 0, we can use just calculate a value\n        // in the vesting rect (as shown in above's figure)\n\n        // vestedTokens = tokens * (time - start) / (vesting - start)\n        uint256 vestedTokens = SafeMath.div(\n            SafeMath.mul(\n                tokens,\n                SafeMath.sub(\n                    time,\n                    start\n                )\n            ),\n            SafeMath.sub(\n                vesting,\n                start\n            )\n        );\n\n        return tokens - vestedTokens;\n    }\n\n    function _assign(address _receiver, uint256 _amount) internal {\n        require(isBalanceIncreaseAllowed(_receiver, _amount));\n        require(token.transfer(_receiver, _amount));\n    }\n\n    function _mint(address _receiver, uint256 _amount) internal {\n        token.generateTokens(_receiver, _amount); // minime.generateTokens() never returns false\n        _logHolderIfNeeded(_receiver);\n    }\n\n    function _logHolderIfNeeded(address _newHolder) internal {\n        // costs 3 sstores (2 full (20k gas) and 1 increase (5k gas)), but makes frontend easier\n        if (!logHolders || everHeld[_newHolder]) {\n            return;\n        }\n\n        everHeld[_newHolder] = true;\n        holders.push(_newHolder);\n    }\n\n    /**\n    * @notice Called when `_owner` sends ether to the MiniMe Token contract\n    * @param _owner The address that sent the ether to create tokens\n    * @return True if the ether is accepted, false for it to throw\n    */\n    function proxyPayment(address _owner) payable public returns (bool) {\n        // Even though it is tested, solidity-coverage doesnt get it because\n        // MiniMeToken is not instrumented and entire tx is reverted\n        require(msg.sender == address(token));\n        _owner;\n        return false;\n    }\n\n    /**\n    * @dev Notifies the controller about an approval allowing the\n    * controller to react if desired\n    * @param _owner The address that calls `approve()`\n    * @param _spender The spender in the `approve()` call\n    * @param _amount The amount in the `approve()` call\n    * @return False if the controller does not authorize the approval\n    */\n    function onApprove(address _owner, address _spender, uint _amount) public returns (bool) {\n        _owner;\n        _spender;\n        _amount;\n        return true;\n    }\n}\n",
  "sourcePath": "@aragon/apps-token-manager/contracts/TokenManager.sol",
  "compiler": {
    "name": "solc",
    "version": "0.4.24+commit.e67f0147.Emscripten.clang"
  },
  "schemaVersion": "2.0.1",
  "updatedAt": "2018-10-05T12:39:51.773Z"
}