{
  "contractName": "Tree",
  "abi": [
    {
      "constant": true,
      "inputs": [],
      "name": "getRecoveryVault",
      "outputs": [
        {
          "name": "",
          "type": "address"
        }
      ],
      "payable": false,
      "stateMutability": "view",
      "type": "function"
    },
    {
      "constant": true,
      "inputs": [],
      "name": "SEPARATOR",
      "outputs": [
        {
          "name": "",
          "type": "string"
        }
      ],
      "payable": false,
      "stateMutability": "view",
      "type": "function"
    },
    {
      "constant": true,
      "inputs": [],
      "name": "EVMSCRIPT_REGISTRY_APP_ID",
      "outputs": [
        {
          "name": "",
          "type": "bytes32"
        }
      ],
      "payable": false,
      "stateMutability": "view",
      "type": "function"
    },
    {
      "constant": true,
      "inputs": [
        {
          "name": "token",
          "type": "address"
        }
      ],
      "name": "allowRecoverability",
      "outputs": [
        {
          "name": "",
          "type": "bool"
        }
      ],
      "payable": false,
      "stateMutability": "view",
      "type": "function"
    },
    {
      "constant": true,
      "inputs": [],
      "name": "appId",
      "outputs": [
        {
          "name": "",
          "type": "bytes32"
        }
      ],
      "payable": false,
      "stateMutability": "view",
      "type": "function"
    },
    {
      "constant": true,
      "inputs": [],
      "name": "ETH",
      "outputs": [
        {
          "name": "",
          "type": "address"
        }
      ],
      "payable": false,
      "stateMutability": "view",
      "type": "function"
    },
    {
      "constant": true,
      "inputs": [
        {
          "name": "",
          "type": "uint256"
        }
      ],
      "name": "branches",
      "outputs": [
        {
          "name": "name",
          "type": "string"
        }
      ],
      "payable": false,
      "stateMutability": "view",
      "type": "function"
    },
    {
      "constant": true,
      "inputs": [],
      "name": "getInitializationBlock",
      "outputs": [
        {
          "name": "",
          "type": "uint256"
        }
      ],
      "payable": false,
      "stateMutability": "view",
      "type": "function"
    },
    {
      "constant": true,
      "inputs": [],
      "name": "EVMSCRIPT_REGISTRY_APP",
      "outputs": [
        {
          "name": "",
          "type": "bytes32"
        }
      ],
      "payable": false,
      "stateMutability": "view",
      "type": "function"
    },
    {
      "constant": false,
      "inputs": [
        {
          "name": "_token",
          "type": "address"
        }
      ],
      "name": "transferToVault",
      "outputs": [],
      "payable": false,
      "stateMutability": "nonpayable",
      "type": "function"
    },
    {
      "constant": true,
      "inputs": [
        {
          "name": "_sender",
          "type": "address"
        },
        {
          "name": "_role",
          "type": "bytes32"
        },
        {
          "name": "_params",
          "type": "uint256[]"
        }
      ],
      "name": "canPerform",
      "outputs": [
        {
          "name": "",
          "type": "bool"
        }
      ],
      "payable": false,
      "stateMutability": "view",
      "type": "function"
    },
    {
      "constant": true,
      "inputs": [],
      "name": "PUSH",
      "outputs": [
        {
          "name": "",
          "type": "bytes32"
        }
      ],
      "payable": false,
      "stateMutability": "view",
      "type": "function"
    },
    {
      "constant": true,
      "inputs": [],
      "name": "kernel",
      "outputs": [
        {
          "name": "",
          "type": "address"
        }
      ],
      "payable": false,
      "stateMutability": "view",
      "type": "function"
    },
    {
      "constant": true,
      "inputs": [
        {
          "name": "_script",
          "type": "bytes"
        }
      ],
      "name": "getExecutor",
      "outputs": [
        {
          "name": "",
          "type": "address"
        }
      ],
      "payable": false,
      "stateMutability": "view",
      "type": "function"
    },
    {
      "anonymous": false,
      "inputs": [
        {
          "indexed": false,
          "name": "name",
          "type": "string"
        },
        {
          "indexed": false,
          "name": "branchID",
          "type": "uint256"
        }
      ],
      "name": "NewBranch",
      "type": "event"
    },
    {
      "anonymous": false,
      "inputs": [
        {
          "indexed": false,
          "name": "branch",
          "type": "string"
        },
        {
          "indexed": false,
          "name": "author",
          "type": "address"
        },
        {
          "indexed": false,
          "name": "cid",
          "type": "string"
        }
      ],
      "name": "NewSnapshot",
      "type": "event"
    },
    {
      "anonymous": false,
      "inputs": [
        {
          "indexed": true,
          "name": "executor",
          "type": "address"
        },
        {
          "indexed": false,
          "name": "script",
          "type": "bytes"
        },
        {
          "indexed": false,
          "name": "input",
          "type": "bytes"
        },
        {
          "indexed": false,
          "name": "returnData",
          "type": "bytes"
        }
      ],
      "name": "ScriptResult",
      "type": "event"
    },
    {
      "constant": false,
      "inputs": [],
      "name": "initialize",
      "outputs": [],
      "payable": false,
      "stateMutability": "nonpayable",
      "type": "function"
    },
    {
      "constant": true,
      "inputs": [
        {
          "name": "_branchNameHash",
          "type": "bytes32"
        }
      ],
      "name": "isBranch",
      "outputs": [
        {
          "name": "",
          "type": "bool"
        }
      ],
      "payable": false,
      "stateMutability": "view",
      "type": "function"
    },
    {
      "constant": false,
      "inputs": [
        {
          "name": "_branchName",
          "type": "string"
        },
        {
          "name": "_head",
          "type": "string"
        }
      ],
      "name": "setHead",
      "outputs": [],
      "payable": false,
      "stateMutability": "nonpayable",
      "type": "function"
    },
    {
      "constant": true,
      "inputs": [
        {
          "name": "_branchName",
          "type": "string"
        }
      ],
      "name": "getHead",
      "outputs": [
        {
          "name": "cid_",
          "type": "string"
        }
      ],
      "payable": false,
      "stateMutability": "view",
      "type": "function"
    },
    {
      "constant": false,
      "inputs": [
        {
          "name": "_branchName",
          "type": "string"
        }
      ],
      "name": "newBranch",
      "outputs": [
        {
          "name": "",
          "type": "uint256"
        }
      ],
      "payable": false,
      "stateMutability": "nonpayable",
      "type": "function"
    },
    {
      "constant": true,
      "inputs": [],
      "name": "getBranchesName",
      "outputs": [
        {
          "name": "",
          "type": "string"
        }
      ],
      "payable": false,
      "stateMutability": "view",
      "type": "function"
    }
  ],
  "bytecode": "0x608060405234801561001057600080fd5b50611fbd806100206000396000f300608060405260043610610112576000357c0100000000000000000000000000000000000000000000000000000000900463ffffffff16806332f0a3b5146101175780635d27e9a61461016e57806360b1e057146101fe5780637e7db6e11461023157806380afdea81461028c5780638129fc1c146102bf5780638322fff2146102d657806383cc76601461032d578063874bbca1146103d35780638a307583146104505780638b3dd749146104e057806392654c8d1461050b5780639b3fdf4c146105ba5780639d4941d8146105ed578063a1658fad14610630578063afb00805146106dc578063cc6804c814610725578063cf6c2d5214610758578063d4aae0c41461083a578063f92a79ff14610891575b600080fd5b34801561012357600080fd5b5061012c61093a565b604051808273ffffffffffffffffffffffffffffffffffffffff1673ffffffffffffffffffffffffffffffffffffffff16815260200191505060405180910390f35b34801561017a57600080fd5b50610183610a47565b6040518080602001828103825283818151815260200191508051906020019080838360005b838110156101c35780820151818401526020810190506101a8565b50505050905090810190601f1680156101f05780820380516001836020036101000a031916815260200191505b509250505060405180910390f35b34801561020a57600080fd5b50610213610a80565b60405180826000191660001916815260200191505060405180910390f35b34801561023d57600080fd5b50610272600480360381019080803573ffffffffffffffffffffffffffffffffffffffff169060200190929190505050610aa7565b604051808215151515815260200191505060405180910390f35b34801561029857600080fd5b506102a1610ab2565b60405180826000191660001916815260200191505060405180910390f35b3480156102cb57600080fd5b506102d4610ab8565b005b3480156102e257600080fd5b506102eb610ad3565b604051808273ffffffffffffffffffffffffffffffffffffffff1673ffffffffffffffffffffffffffffffffffffffff16815260200191505060405180910390f35b34801561033957600080fd5b5061035860048036038101908080359060200190929190505050610ad8565b6040518080602001828103825283818151815260200191508051906020019080838360005b8381101561039857808201518184015260208101905061037d565b50505050905090810190601f1680156103c55780820380516001836020036101000a031916815260200191505b509250505060405180910390f35b3480156103df57600080fd5b5061043a600480360381019080803590602001908201803590602001908080601f0160208091040260200160405190810160405280939291908181526020018383808284378201915050505050509192919290505050610b9d565b6040518082815260200191505060405180910390f35b34801561045c57600080fd5b50610465610dbf565b6040518080602001828103825283818151815260200191508051906020019080838360005b838110156104a557808201518184015260208101905061048a565b50505050905090810190601f1680156104d25780820380516001836020036101000a031916815260200191505b509250505060405180910390f35b3480156104ec57600080fd5b506104f5610f29565b6040518082815260200191505060405180910390f35b34801561051757600080fd5b506105b8600480360381019080803590602001908201803590602001908080601f0160208091040260200160405190810160405280939291908181526020018383808284378201915050505050509192919290803590602001908201803590602001908080601f0160208091040260200160405190810160405280939291908181526020018383808284378201915050505050509192919290505050610f33565b005b3480156105c657600080fd5b506105cf61124c565b60405180826000191660001916815260200191505060405180910390f35b3480156105f957600080fd5b5061062e600480360381019080803573ffffffffffffffffffffffffffffffffffffffff169060200190929190505050611273565b005b34801561063c57600080fd5b506106c2600480360381019080803573ffffffffffffffffffffffffffffffffffffffff1690602001909291908035600019169060200190929190803590602001908201803590602001908080602002602001604051908101604052809392919081815260200183836020028082843782019150505050505091929192905050506114fd565b604051808215151515815260200191505060405180910390f35b3480156106e857600080fd5b5061070b600480360381019080803560001916906020019092919050505061170f565b604051808215151515815260200191505060405180910390f35b34801561073157600080fd5b5061073a611744565b60405180826000191660001916815260200191505060405180910390f35b34801561076457600080fd5b506107bf600480360381019080803590602001908201803590602001908080601f016020809104026020016040519081016040528093929190818152602001838380828437820191505050505050919291929050505061174b565b6040518080602001828103825283818151815260200191508051906020019080838360005b838110156107ff5780820151818401526020810190506107e4565b50505050905090810190601f16801561082c5780820380516001836020036101000a031916815260200191505b509250505060405180910390f35b34801561084657600080fd5b5061084f61195b565b604051808273ffffffffffffffffffffffffffffffffffffffff1673ffffffffffffffffffffffffffffffffffffffff16815260200191505060405180910390f35b34801561089d57600080fd5b506108f8600480360381019080803590602001908201803590602001908080601f0160208091040260200160405190810160405280939291908181526020018383808284378201915050505050509192919290505050611980565b604051808273ffffffffffffffffffffffffffffffffffffffff1673ffffffffffffffffffffffffffffffffffffffff16815260200191505060405180910390f35b6000806000809054906101000a900473ffffffffffffffffffffffffffffffffffffffff1673ffffffffffffffffffffffffffffffffffffffff161415151561098257600080fd5b6000809054906101000a900473ffffffffffffffffffffffffffffffffffffffff1673ffffffffffffffffffffffffffffffffffffffff166332f0a3b56040518163ffffffff167c0100000000000000000000000000000000000000000000000000000000028152600401602060405180830381600087803b158015610a0757600080fd5b505af1158015610a1b573d6000803e3d6000fd5b505050506040513d6020811015610a3157600080fd5b8101908080519060200190929190505050905090565b6040805190810160405280600581526020017f30787c783000000000000000000000000000000000000000000000000000000081525081565b7fddbcfd564f642ab5627cf68b9b7d374fb4f8a36e941a75d89c87998cef03bd6160010281565b600060019050919050565b60015481565b6000600354141515610ac957600080fd5b610ad1611a9f565b565b600081565b606481815481101515610ae757fe5b9060005260206000209060020201600091509050806000018054600181600116156101000203166002900480601f016020809104026020016040519081016040528092919081815260200182805460018160011615610100020316600290048015610b935780601f10610b6857610100808354040283529160200191610b93565b820191906000526020600020905b815481529060010190602001808311610b7657829003601f168201915b5050505050905081565b600080600060018002610be133826000604051908082528060200260200182016040528015610bdb5781602001602082028038833980820191505090505b506114fd565b1515610bec57600080fd5b846040518082805190602001908083835b602083101515610c225780518252602082019150602081019050602083039250610bfd565b6001836020036101000a03801982511681845116808217855250505050505090500191505060405180910390209250610c5a8361170f565b151515610c6657600080fd5b60648054809190600101610c7a9190611d17565b915084606483815481101515610c8c57fe5b90600052602060002090600202016000019080519060200190610cb0929190611d49565b5060408051908101604052806001151581526020018381525060656000856000191660001916815260200190815260200160002060008201518160000160006101000a81548160ff021916908315150217905550602082015181600101559050507e6eeee449a4a26aca42cb5305fb23c03ce35da3989e0282d09d9030d241a1ef85836040518080602001838152602001828103825284818151815260200191508051906020019080838360005b83811015610d79578082015181840152602081019050610d5e565b50505050905090810190601f168015610da65780820380516001836020036101000a031916815260200191505b50935050505060405180910390a1819350505050919050565b60606000606060006064805490509250600090505b82811015610f2057610eb7610ea0606483815481101515610df157fe5b90600052602060002090600202016000018054600181600116156101000203166002900480601f016020809104026020016040519081016040528092919081815260200182805460018160011615610100020316600290048015610e965780601f10610e6b57610100808354040283529160200191610e96565b820191906000526020600020905b815481529060010190602001808311610e7957829003601f168201915b5050505050611ac0565b610ea984611ac0565b611aee90919063ffffffff16565b9150610f11610efa6040805190810160405280600581526020017f30787c7830000000000000000000000000000000000000000000000000000000815250611ac0565b610f0384611ac0565b611aee90919063ffffffff16565b91508080600101915050610dd4565b81935050505090565b6000600354905090565b60008060018002610f7533826000604051908082528060200260200182016040528015610f6f5781602001602082028038833980820191505090505b506114fd565b1515610f8057600080fd5b846040518082805190602001908083835b602083101515610fb65780518252602082019150602081019050602083039250610f91565b6001836020036101000a03801982511681845116808217855250505050505090500191505060405180910390209250610fee8361170f565b1515610ff957600080fd5b60656000846000191660001916815260200190815260200160002060010154915060648281548110151561102957fe5b90600052602060002090600202016001016060604051908101604052803373ffffffffffffffffffffffffffffffffffffffff168152602001438152602001868152509080600181540180825580915050906001820390600052602060002090600302016000909192909190915060008201518160000160006101000a81548173ffffffffffffffffffffffffffffffffffffffff021916908373ffffffffffffffffffffffffffffffffffffffff160217905550602082015181600101556040820151816002019080519060200190611104929190611dc9565b505050507f8f5cde820cfe31eac4a807e146d250146e8f24b9a867cafc068335973b931a0a85338660405180806020018473ffffffffffffffffffffffffffffffffffffffff1673ffffffffffffffffffffffffffffffffffffffff16815260200180602001838103835286818151815260200191508051906020019080838360005b838110156111a2578082015181840152602081019050611187565b50505050905090810190601f1680156111cf5780820380516001836020036101000a031916815260200191505b50838103825284818151815260200191508051906020019080838360005b838110156112085780820151818401526020810190506111ed565b50505050905090810190601f1680156112355780820380516001836020036101000a031916815260200191505b509550505050505060405180910390a15050505050565b7f34f01c17e9be6ddbf2c61f37b5b1fb9f1a090a975006581ad19bda1c4d38287160010281565b60008061127f83610aa7565b151561128a57600080fd5b61129261093a565b915061129d82611b70565b15156112a857600080fd5b600073ffffffffffffffffffffffffffffffffffffffff168373ffffffffffffffffffffffffffffffffffffffff161415611340578173ffffffffffffffffffffffffffffffffffffffff166108fc3073ffffffffffffffffffffffffffffffffffffffff16319081150290604051600060405180830381858888f1935050505015801561133a573d6000803e3d6000fd5b506114f8565b8273ffffffffffffffffffffffffffffffffffffffff166370a08231306040518263ffffffff167c0100000000000000000000000000000000000000000000000000000000028152600401808273ffffffffffffffffffffffffffffffffffffffff1673ffffffffffffffffffffffffffffffffffffffff168152602001915050602060405180830381600087803b1580156113db57600080fd5b505af11580156113ef573d6000803e3d6000fd5b505050506040513d602081101561140557600080fd5b810190808051906020019092919050505090508273ffffffffffffffffffffffffffffffffffffffff1663a9059cbb83836040518363ffffffff167c0100000000000000000000000000000000000000000000000000000000028152600401808373ffffffffffffffffffffffffffffffffffffffff1673ffffffffffffffffffffffffffffffffffffffff16815260200182815260200192505050602060405180830381600087803b1580156114bb57600080fd5b505af11580156114cf573d6000803e3d6000fd5b505050506040513d60208110156114e557600080fd5b8101908080519060200190929190505050505b505050565b600060606000808451111561151a57602084510290508391508082525b60008060009054906101000a900473ffffffffffffffffffffffffffffffffffffffff1673ffffffffffffffffffffffffffffffffffffffff16148061170457506000809054906101000a900473ffffffffffffffffffffffffffffffffffffffff1673ffffffffffffffffffffffffffffffffffffffff1663fdef9106873088866040518563ffffffff167c0100000000000000000000000000000000000000000000000000000000028152600401808573ffffffffffffffffffffffffffffffffffffffff1673ffffffffffffffffffffffffffffffffffffffff1681526020018473ffffffffffffffffffffffffffffffffffffffff1673ffffffffffffffffffffffffffffffffffffffff168152602001836000191660001916815260200180602001828103825283818151815260200191508051906020019080838360005b8381101561167957808201518184015260208101905061165e565b50505050905090810190601f1680156116a65780820380516001836020036101000a031916815260200191505b5095505050505050602060405180830381600087803b1580156116c857600080fd5b505af11580156116dc573d6000803e3d6000fd5b505050506040513d60208110156116f257600080fd5b81019080805190602001909291905050505b925050509392505050565b600060656000836000191660001916815260200190815260200160002060000160009054906101000a900460ff169050919050565b6001800281565b6060600080836040518082805190602001908083835b6020831015156117865780518252602082019150602081019050602083039250611761565b6001836020036101000a038019825116818451168082178552505050505050905001915050604051809103902091506117be8261170f565b15156117c957600080fd5b60656000836000191660001916815260200190815260200160002060010154905060006064828154811015156117fb57fe5b90600052602060002090600202016001018054905014151561191b5760648181548110151561182657fe5b9060005260206000209060020201600101600160648381548110151561184857fe5b9060005260206000209060020201600101805490500381548110151561186a57fe5b90600052602060002090600302016002018054600181600116156101000203166002900480601f01602080910402602001604051908101604052809291908181526020018280546001816001161561010002031660029004801561190f5780601f106118e45761010080835404028352916020019161190f565b820191906000526020600020905b8154815290600101906020018083116118f257829003601f168201915b50505050509250611954565b6040805190810160405280600981526020017f756e646566696e6564000000000000000000000000000000000000000000000081525092505b5050919050565b6000809054906101000a900473ffffffffffffffffffffffffffffffffffffffff1681565b600061198a611bc2565b73ffffffffffffffffffffffffffffffffffffffff166304bf2a7f836040518263ffffffff167c01000000000000000000000000000000000000000000000000000000000281526004018080602001828103825283818151815260200191508051906020019080838360005b83811015611a115780820151818401526020810190506119f6565b50505050905090810190601f168015611a3e5780820380516001836020036101000a031916815260200191505b5092505050602060405180830381600087803b158015611a5d57600080fd5b505af1158015611a71573d6000803e3d6000fd5b505050506040513d6020811015611a8757600080fd5b81019080805190602001909291905050509050919050565b6000600354141515611ab057600080fd5b611ab8611cc4565b600381905550565b611ac8611e49565b600060208301905060408051908101604052808451815260200182815250915050919050565b606080600083600001518560000151016040519080825280601f01601f191660200182016040528015611b305781602001602082028038833980820191505090505b509150602082019050611b4c8186602001518760000151611ccc565b611b658560000151820185602001518660000151611ccc565b819250505092915050565b600080600073ffffffffffffffffffffffffffffffffffffffff168373ffffffffffffffffffffffffffffffffffffffff161415611bb15760009150611bbc565b823b90506000811191505b50919050565b6000806000809054906101000a900473ffffffffffffffffffffffffffffffffffffffff1673ffffffffffffffffffffffffffffffffffffffff166342c71f1d7f34f01c17e9be6ddbf2c61f37b5b1fb9f1a090a975006581ad19bda1c4d3828716001026040518263ffffffff167c0100000000000000000000000000000000000000000000000000000000028152600401808260001916600019168152602001915050602060405180830381600087803b158015611c8057600080fd5b505af1158015611c94573d6000803e3d6000fd5b505050506040513d6020811015611caa57600080fd5b810190808051906020019092919050505090508091505090565b600043905090565b60005b602082101515611cf45782518452602084019350602083019250602082039150611ccf565b6001826020036101000a0390508019835116818551168181178652505050505050565b815481835581811115611d4457600202816002028360005260206000209182019101611d439190611e63565b5b505050565b828054600181600116156101000203166002900490600052602060002090601f016020900481019282601f10611d8a57805160ff1916838001178555611db8565b82800160010185558215611db8579182015b82811115611db7578251825591602001919060010190611d9c565b5b509050611dc59190611ea2565b5090565b828054600181600116156101000203166002900490600052602060002090601f016020900481019282601f10611e0a57805160ff1916838001178555611e38565b82800160010185558215611e38579182015b82811115611e37578251825591602001919060010190611e1c565b5b509050611e459190611ea2565b5090565b604080519081016040528060008152602001600081525090565b611e9f91905b80821115611e9b5760008082016000611e829190611ec7565b600182016000611e929190611f0f565b50600201611e69565b5090565b90565b611ec491905b80821115611ec0576000816000905550600101611ea8565b5090565b90565b50805460018160011615610100020316600290046000825580601f10611eed5750611f0c565b601f016020900490600052602060002090810190611f0b9190611ea2565b5b50565b5080546000825560030290600052602060002090810190611f309190611f33565b50565b611f8e91905b80821115611f8a57600080820160006101000a81549073ffffffffffffffffffffffffffffffffffffffff02191690556001820160009055600282016000611f819190611ec7565b50600301611f39565b5090565b905600a165627a7a72305820de9aeab14b3c1c12f4314484f0f8eda889975060d10122014876f31d77bea4870029",
  "source": "pragma solidity ^0.4.18;\n\nimport \"@aragon/os/contracts/apps/AragonApp.sol\";\nimport \"./utils/Strings.sol\";\n\n\ncontract Tree is AragonApp {\n    using strings for *;\n\n    struct Snapshot {\n        address author;\n        uint256 block;\n        string  cid;\n    }\n\n    struct Branch {\n        string name;\n        Snapshot[] snapshots;\n    }\n\n    struct BranchID {\n        bool exists;\n        uint id;\n    }\n\n    bytes32 constant public PUSH = bytes32(1);\n    string constant public SEPARATOR = \"0x|x0\";\n\n    Branch[] public branches;\n    mapping(bytes32 => BranchID) knownBranches;\n\n    event NewBranch(string name, uint branchID);\n    event NewSnapshot(string branch, address author, string cid);\n\n    function initialize() public onlyInit {\n        initialized();\n    }\n\n    function isBranch(bytes32 _branchNameHash) public view returns (bool) {\n        return knownBranches[_branchNameHash].exists;\n    }\n\n    function setHead(string _branchName, string _head) public auth(PUSH) {\n        bytes32 hash = keccak256(_branchName);\n        require(isBranch(hash));\n\n        uint branchID = knownBranches[hash].id;\n        branches[branchID].snapshots.push(Snapshot(msg.sender, block.number, _head));\n\n        NewSnapshot(_branchName, msg.sender, _head);\n    }\n\n    function getHead(string _branchName) public view returns (string cid_) {\n        bytes32 hash = keccak256(_branchName);\n        require(isBranch(hash));\n\n        uint branchID = knownBranches[hash].id;\n        if (branches[branchID].snapshots.length != 0) {\n            return branches[branchID].snapshots[branches[branchID].snapshots.length - 1].cid;\n        } else {\n            return \"undefined\";\n        }\n    }\n\n    function newBranch(string _branchName) public auth(PUSH) returns (uint) {\n        bytes32 hash = keccak256(_branchName);\n        require(!isBranch(hash));\n\n        uint branchID = branches.length++;\n        branches[branchID].name = _branchName;\n        knownBranches[hash] = BranchID(true, branchID);\n\n        NewBranch(_branchName, branchID);\n\n        return branchID;\n    }\n\n    function getBranchesName() public view returns (string) {\n        uint length = branches.length;\n        string memory _branches;\n\n        for (uint i = 0 ; i < length ; i++) {\n            _branches = _branches.toSlice().concat(branches[i].name.toSlice());\n            _branches = _branches.toSlice().concat(SEPARATOR.toSlice());\n        }\n\n        return _branches;\n    }\n}\n",
  "sourcePath": "/Users/osarrouy/Documents/dapp/@pando/packages/core/contracts/Tree.sol",
  "compiler": {
    "name": "solc",
    "version": "0.4.24+commit.e67f0147.Emscripten.clang"
  },
  "schemaVersion": "2.0.0",
  "updatedAt": "2018-08-29T17:55:12.563Z"
}