{
  "contractName": "Tree",
  "abi": [
    {
      "constant": true,
      "inputs": [],
      "name": "APP_ADDR_NAMESPACE",
      "outputs": [
        {
          "name": "",
          "type": "bytes32"
        }
      ],
      "payable": false,
      "stateMutability": "view",
      "type": "function"
    },
    {
      "constant": true,
      "inputs": [],
      "name": "getRecoveryVault",
      "outputs": [
        {
          "name": "",
          "type": "address"
        }
      ],
      "payable": false,
      "stateMutability": "view",
      "type": "function"
    },
    {
      "constant": true,
      "inputs": [],
      "name": "SEPARATOR",
      "outputs": [
        {
          "name": "",
          "type": "string"
        }
      ],
      "payable": false,
      "stateMutability": "view",
      "type": "function"
    },
    {
      "constant": true,
      "inputs": [],
      "name": "EVMSCRIPT_REGISTRY_APP_ID",
      "outputs": [
        {
          "name": "",
          "type": "bytes32"
        }
      ],
      "payable": false,
      "stateMutability": "view",
      "type": "function"
    },
    {
      "constant": true,
      "inputs": [
        {
          "name": "token",
          "type": "address"
        }
      ],
      "name": "allowRecoverability",
      "outputs": [
        {
          "name": "",
          "type": "bool"
        }
      ],
      "payable": false,
      "stateMutability": "view",
      "type": "function"
    },
    {
      "constant": true,
      "inputs": [],
      "name": "appId",
      "outputs": [
        {
          "name": "",
          "type": "bytes32"
        }
      ],
      "payable": false,
      "stateMutability": "view",
      "type": "function"
    },
    {
      "constant": false,
      "inputs": [],
      "name": "initialize",
      "outputs": [],
      "payable": false,
      "stateMutability": "nonpayable",
      "type": "function"
    },
    {
      "constant": true,
      "inputs": [],
      "name": "ETH",
      "outputs": [
        {
          "name": "",
          "type": "address"
        }
      ],
      "payable": false,
      "stateMutability": "view",
      "type": "function"
    },
    {
      "constant": true,
      "inputs": [
        {
          "name": "",
          "type": "uint256"
        }
      ],
      "name": "branches",
      "outputs": [
        {
          "name": "name",
          "type": "string"
        }
      ],
      "payable": false,
      "stateMutability": "view",
      "type": "function"
    },
    {
      "constant": false,
      "inputs": [
        {
          "name": "_branchName",
          "type": "string"
        }
      ],
      "name": "newBranch",
      "outputs": [
        {
          "name": "",
          "type": "uint256"
        }
      ],
      "payable": false,
      "stateMutability": "nonpayable",
      "type": "function"
    },
    {
      "constant": true,
      "inputs": [],
      "name": "getBranchesName",
      "outputs": [
        {
          "name": "",
          "type": "string"
        }
      ],
      "payable": false,
      "stateMutability": "view",
      "type": "function"
    },
    {
      "constant": true,
      "inputs": [],
      "name": "getInitializationBlock",
      "outputs": [
        {
          "name": "",
          "type": "uint256"
        }
      ],
      "payable": false,
      "stateMutability": "view",
      "type": "function"
    },
    {
      "constant": false,
      "inputs": [
        {
          "name": "_branchName",
          "type": "string"
        },
        {
          "name": "_head",
          "type": "string"
        }
      ],
      "name": "setHead",
      "outputs": [],
      "payable": false,
      "stateMutability": "nonpayable",
      "type": "function"
    },
    {
      "constant": true,
      "inputs": [],
      "name": "EVMSCRIPT_REGISTRY_APP",
      "outputs": [
        {
          "name": "",
          "type": "bytes32"
        }
      ],
      "payable": false,
      "stateMutability": "view",
      "type": "function"
    },
    {
      "constant": false,
      "inputs": [
        {
          "name": "_token",
          "type": "address"
        }
      ],
      "name": "transferToVault",
      "outputs": [],
      "payable": false,
      "stateMutability": "nonpayable",
      "type": "function"
    },
    {
      "constant": true,
      "inputs": [
        {
          "name": "_sender",
          "type": "address"
        },
        {
          "name": "_role",
          "type": "bytes32"
        },
        {
          "name": "params",
          "type": "uint256[]"
        }
      ],
      "name": "canPerform",
      "outputs": [
        {
          "name": "",
          "type": "bool"
        }
      ],
      "payable": false,
      "stateMutability": "view",
      "type": "function"
    },
    {
      "constant": true,
      "inputs": [
        {
          "name": "_branchNameHash",
          "type": "bytes32"
        }
      ],
      "name": "isBranch",
      "outputs": [
        {
          "name": "",
          "type": "bool"
        }
      ],
      "payable": false,
      "stateMutability": "view",
      "type": "function"
    },
    {
      "constant": true,
      "inputs": [],
      "name": "PUSH",
      "outputs": [
        {
          "name": "",
          "type": "bytes32"
        }
      ],
      "payable": false,
      "stateMutability": "view",
      "type": "function"
    },
    {
      "constant": true,
      "inputs": [
        {
          "name": "_branchName",
          "type": "string"
        }
      ],
      "name": "getHead",
      "outputs": [
        {
          "name": "cid_",
          "type": "string"
        }
      ],
      "payable": false,
      "stateMutability": "view",
      "type": "function"
    },
    {
      "constant": true,
      "inputs": [],
      "name": "kernel",
      "outputs": [
        {
          "name": "",
          "type": "address"
        }
      ],
      "payable": false,
      "stateMutability": "view",
      "type": "function"
    },
    {
      "constant": true,
      "inputs": [
        {
          "name": "_script",
          "type": "bytes"
        }
      ],
      "name": "getExecutor",
      "outputs": [
        {
          "name": "",
          "type": "address"
        }
      ],
      "payable": false,
      "stateMutability": "view",
      "type": "function"
    },
    {
      "anonymous": false,
      "inputs": [
        {
          "indexed": false,
          "name": "name",
          "type": "string"
        },
        {
          "indexed": false,
          "name": "branchID",
          "type": "uint256"
        }
      ],
      "name": "NewBranch",
      "type": "event"
    },
    {
      "anonymous": false,
      "inputs": [
        {
          "indexed": false,
          "name": "branch",
          "type": "string"
        },
        {
          "indexed": false,
          "name": "author",
          "type": "address"
        },
        {
          "indexed": false,
          "name": "cid",
          "type": "string"
        }
      ],
      "name": "NewSnapshot",
      "type": "event"
    }
  ],
  "bytecode": "0x6060604052341561000f57600080fd5b611ed68061001e6000396000f30060606040526004361061011d576000357c0100000000000000000000000000000000000000000000000000000000900463ffffffff168063178e60791461012257806332f0a3b5146101535780635d27e9a6146101a857806360b1e057146102365780637e7db6e11461026757806380afdea8146102b85780638129fc1c146102e95780638322fff2146102fe57806383cc766014610353578063874bbca11461040c5780638a3075831461047d5780638b3dd7491461050b57806392654c8d146105345780639b3fdf4c146105d45780639d4941d814610605578063a1658fad1461063e578063afb00805146106dc578063cc6804c81461071b578063cf6c2d521461074c578063d4aae0c414610822578063f92a79ff14610877575b600080fd5b341561012d57600080fd5b610135610914565b60405180826000191660001916815260200191505060405180910390f35b341561015e57600080fd5b61016661093b565b604051808273ffffffffffffffffffffffffffffffffffffffff1673ffffffffffffffffffffffffffffffffffffffff16815260200191505060405180910390f35b34156101b357600080fd5b6101bb610a30565b6040518080602001828103825283818151815260200191508051906020019080838360005b838110156101fb5780820151818401526020810190506101e0565b50505050905090810190601f1680156102285780820380516001836020036101000a031916815260200191505b509250505060405180910390f35b341561024157600080fd5b610249610a69565b60405180826000191660001916815260200191505060405180910390f35b341561027257600080fd5b61029e600480803573ffffffffffffffffffffffffffffffffffffffff16906020019091905050610a90565b604051808215151515815260200191505060405180910390f35b34156102c357600080fd5b6102cb610a9b565b60405180826000191660001916815260200191505060405180910390f35b34156102f457600080fd5b6102fc610aa1565b005b341561030957600080fd5b610311610abc565b604051808273ffffffffffffffffffffffffffffffffffffffff1673ffffffffffffffffffffffffffffffffffffffff16815260200191505060405180910390f35b341561035e57600080fd5b6103746004808035906020019091905050610ac1565b60405180806020018281038252838181546001816001161561010002031660029004815260200191508054600181600116156101000203166002900480156103fd5780601f106103d2576101008083540402835291602001916103fd565b820191906000526020600020905b8154815290600101906020018083116103e057829003601f168201915b50509250505060405180910390f35b341561041757600080fd5b610467600480803590602001908201803590602001908080601f01602080910402602001604051908101604052809392919081815260200183838082843782019150505050505091905050610aed565b6040518082815260200191505060405180910390f35b341561048857600080fd5b610490610cfe565b6040518080602001828103825283818151815260200191508051906020019080838360005b838110156104d05780820151818401526020810190506104b5565b50505050905090810190601f1680156104fd5780820380516001836020036101000a031916815260200191505b509250505060405180910390f35b341561051657600080fd5b61051e610e74565b6040518082815260200191505060405180910390f35b341561053f57600080fd5b6105d2600480803590602001908201803590602001908080601f0160208091040260200160405190810160405280939291908181526020018383808284378201915050505050509190803590602001908201803590602001908080601f01602080910402602001604051908101604052809392919081815260200183838082843782019150505050505091905050610e7e565b005b34156105df57600080fd5b6105e7611182565b60405180826000191660001916815260200191505060405180910390f35b341561061057600080fd5b61063c600480803573ffffffffffffffffffffffffffffffffffffffff169060200190919050506111a9565b005b341561064957600080fd5b6106c2600480803573ffffffffffffffffffffffffffffffffffffffff1690602001909190803560001916906020019091908035906020019082018035906020019080806020026020016040519081016040528093929190818152602001838360200280828437820191505050505050919050506113fc565b604051808215151515815260200191505060405180910390f35b34156106e757600080fd5b6107016004808035600019169060200190919050506115fc565b604051808215151515815260200191505060405180910390f35b341561072657600080fd5b61072e611631565b60405180826000191660001916815260200191505060405180910390f35b341561075757600080fd5b6107a7600480803590602001908201803590602001908080601f01602080910402602001604051908101604052809392919081815260200183838082843782019150505050505091905050611638565b6040518080602001828103825283818151815260200191508051906020019080838360005b838110156107e75780820151818401526020810190506107cc565b50505050905090810190601f1680156108145780820380516001836020036101000a031916815260200191505b509250505060405180910390f35b341561082d57600080fd5b61083561184e565b604051808273ffffffffffffffffffffffffffffffffffffffff1673ffffffffffffffffffffffffffffffffffffffff16815260200191505060405180910390f35b341561088257600080fd5b6108d2600480803590602001908201803590602001908080601f01602080910402602001604051908101604052809392919081815260200183838082843782019150505050505091905050611873565b604051808273ffffffffffffffffffffffffffffffffffffffff1673ffffffffffffffffffffffffffffffffffffffff16815260200191505060405180910390f35b7fd6f028ca0e8edb4a8c9757ca4fdccab25fa1e0317da1188108f7d2dee14902fb60010281565b6000806000809054906101000a900473ffffffffffffffffffffffffffffffffffffffff1673ffffffffffffffffffffffffffffffffffffffff161415151561098357600080fd5b6000809054906101000a900473ffffffffffffffffffffffffffffffffffffffff1673ffffffffffffffffffffffffffffffffffffffff166332f0a3b56000604051602001526040518163ffffffff167c0100000000000000000000000000000000000000000000000000000000028152600401602060405180830381600087803b1515610a1057600080fd5b6102c65a03f11515610a2157600080fd5b50505060405180519050905090565b6040805190810160405280600581526020017f30787c783000000000000000000000000000000000000000000000000000000081525081565b7fddbcfd564f642ab5627cf68b9b7d374fb4f8a36e941a75d89c87998cef03bd6160010281565b600060019050919050565b60015481565b6000600354141515610ab257600080fd5b610aba61197a565b565b600081565b606481815481101515610ad057fe5b906000526020600020906002020160009150905080600001905081565b600080600060018002610b2033826000604051805910610b0a5750595b90808252806020026020018201604052506113fc565b1515610b2b57600080fd5b846040518082805190602001908083835b602083101515610b615780518252602082019150602081019050602083039250610b3c565b6001836020036101000a03801982511681845116808217855250505050505090500191505060405180910390209250610b99836115fc565b151515610ba557600080fd5b60648054809190600101610bb99190611bd6565b915084606483815481101515610bcb57fe5b90600052602060002090600202016000019080519060200190610bef929190611c08565b5060408051908101604052806001151581526020018381525060656000856000191660001916815260200190815260200160002060008201518160000160006101000a81548160ff021916908315150217905550602082015181600101559050507e6eeee449a4a26aca42cb5305fb23c03ce35da3989e0282d09d9030d241a1ef85836040518080602001838152602001828103825284818151815260200191508051906020019080838360005b83811015610cb8578082015181840152602081019050610c9d565b50505050905090810190601f168015610ce55780820380516001836020036101000a031916815260200191505b50935050505060405180910390a1819350505050919050565b610d06611c88565b6000610d10611c88565b60006064805490509250600090505b82811015610e6b57610e02610deb606483815481101515610d3c57fe5b90600052602060002090600202016000018054600181600116156101000203166002900480601f016020809104026020016040519081016040528092919081815260200182805460018160011615610100020316600290048015610de15780601f10610db657610100808354040283529160200191610de1565b820191906000526020600020905b815481529060010190602001808311610dc457829003601f168201915b505050505061199b565b610df48461199b565b6119c990919063ffffffff16565b9150610e5c610e456040805190810160405280600581526020017f30787c783000000000000000000000000000000000000000000000000000000081525061199b565b610e4e8461199b565b6119c990919063ffffffff16565b91508080600101915050610d1f565b81935050505090565b6000600354905090565b60008060018002610eaf33826000604051805910610e995750595b90808252806020026020018201604052506113fc565b1515610eba57600080fd5b846040518082805190602001908083835b602083101515610ef05780518252602082019150602081019050602083039250610ecb565b6001836020036101000a03801982511681845116808217855250505050505090500191505060405180910390209250610f28836115fc565b1515610f3357600080fd5b606560008460001916600019168152602001908152602001600020600101549150606482815481101515610f6357fe5b90600052602060002090600202016001018054806001018281610f869190611c9c565b916000526020600020906003020160006060604051908101604052803373ffffffffffffffffffffffffffffffffffffffff16815260200143815260200188815250909190915060008201518160000160006101000a81548173ffffffffffffffffffffffffffffffffffffffff021916908373ffffffffffffffffffffffffffffffffffffffff16021790555060208201518160010155604082015181600201908051906020019061103a929190611cce565b505050507f8f5cde820cfe31eac4a807e146d250146e8f24b9a867cafc068335973b931a0a85338660405180806020018473ffffffffffffffffffffffffffffffffffffffff1673ffffffffffffffffffffffffffffffffffffffff16815260200180602001838103835286818151815260200191508051906020019080838360005b838110156110d85780820151818401526020810190506110bd565b50505050905090810190601f1680156111055780820380516001836020036101000a031916815260200191505b50838103825284818151815260200191508051906020019080838360005b8381101561113e578082015181840152602081019050611123565b50505050905090810190601f16801561116b5780820380516001836020036101000a031916815260200191505b509550505050505060405180910390a15050505050565b7f34f01c17e9be6ddbf2c61f37b5b1fb9f1a090a975006581ad19bda1c4d38287160010281565b6000806111b583610a90565b15156111c057600080fd5b6111c861093b565b91506111d382611a47565b15156111de57600080fd5b600073ffffffffffffffffffffffffffffffffffffffff168373ffffffffffffffffffffffffffffffffffffffff16141561126f578173ffffffffffffffffffffffffffffffffffffffff166108fc3073ffffffffffffffffffffffffffffffffffffffff16319081150290604051600060405180830381858888f19350505050151561126a57600080fd5b6113f7565b8273ffffffffffffffffffffffffffffffffffffffff166370a08231306000604051602001526040518263ffffffff167c0100000000000000000000000000000000000000000000000000000000028152600401808273ffffffffffffffffffffffffffffffffffffffff1673ffffffffffffffffffffffffffffffffffffffff168152602001915050602060405180830381600087803b151561131257600080fd5b6102c65a03f1151561132357600080fd5b5050506040518051905090508273ffffffffffffffffffffffffffffffffffffffff1663a9059cbb83836000604051602001526040518363ffffffff167c0100000000000000000000000000000000000000000000000000000000028152600401808373ffffffffffffffffffffffffffffffffffffffff1673ffffffffffffffffffffffffffffffffffffffff16815260200182815260200192505050602060405180830381600087803b15156113da57600080fd5b6102c65a03f115156113eb57600080fd5b50505060405180519050505b505050565b6000611406611d4e565b6000808451111561141f57602084510290508391508082525b60008060009054906101000a900473ffffffffffffffffffffffffffffffffffffffff1673ffffffffffffffffffffffffffffffffffffffff1614806115f157506000809054906101000a900473ffffffffffffffffffffffffffffffffffffffff1673ffffffffffffffffffffffffffffffffffffffff1663fdef9106873088866000604051602001526040518563ffffffff167c0100000000000000000000000000000000000000000000000000000000028152600401808573ffffffffffffffffffffffffffffffffffffffff1673ffffffffffffffffffffffffffffffffffffffff1681526020018473ffffffffffffffffffffffffffffffffffffffff1673ffffffffffffffffffffffffffffffffffffffff168152602001836000191660001916815260200180602001828103825283818151815260200191508051906020019080838360005b8381101561158757808201518184015260208101905061156c565b50505050905090810190601f1680156115b45780820380516001836020036101000a031916815260200191505b5095505050505050602060405180830381600087803b15156115d557600080fd5b6102c65a03f115156115e657600080fd5b505050604051805190505b925050509392505050565b600060656000836000191660001916815260200190815260200160002060000160009054906101000a900460ff169050919050565b6001800281565b611640611c88565b600080836040518082805190602001908083835b6020831015156116795780518252602082019150602081019050602083039250611654565b6001836020036101000a038019825116818451168082178552505050505050905001915050604051809103902091506116b1826115fc565b15156116bc57600080fd5b60656000836000191660001916815260200190815260200160002060010154905060006064828154811015156116ee57fe5b90600052602060002090600202016001018054905014151561180e5760648181548110151561171957fe5b9060005260206000209060020201600101600160648381548110151561173b57fe5b9060005260206000209060020201600101805490500381548110151561175d57fe5b90600052602060002090600302016002018054600181600116156101000203166002900480601f0160208091040260200160405190810160405280929190818152602001828054600181600116156101000203166002900480156118025780601f106117d757610100808354040283529160200191611802565b820191906000526020600020905b8154815290600101906020018083116117e557829003601f168201915b50505050509250611847565b6040805190810160405280600981526020017f756e646566696e6564000000000000000000000000000000000000000000000081525092505b5050919050565b6000809054906101000a900473ffffffffffffffffffffffffffffffffffffffff1681565b600061187d611a99565b73ffffffffffffffffffffffffffffffffffffffff166304bf2a7f836000604051602001526040518263ffffffff167c01000000000000000000000000000000000000000000000000000000000281526004018080602001828103825283818151815260200191508051906020019080838360005b8381101561190d5780820151818401526020810190506118f2565b50505050905090810190601f16801561193a5780820380516001836020036101000a031916815260200191505b5092505050602060405180830381600087803b151561195857600080fd5b6102c65a03f1151561196957600080fd5b505050604051805190509050919050565b600060035414151561198b57600080fd5b611993611b83565b600381905550565b6119a3611d62565b600060208301905060408051908101604052808451815260200182815250915050919050565b6119d1611c88565b6119d9611c88565b600083600001518560000151016040518059106119f35750595b9080825280601f01601f19166020018201604052509150602082019050611a238186602001518760000151611b8b565b611a3c8560000151820185602001518660000151611b8b565b819250505092915050565b600080600073ffffffffffffffffffffffffffffffffffffffff168373ffffffffffffffffffffffffffffffffffffffff161415611a885760009150611a93565b823b90506000811191505b50919050565b6000806000809054906101000a900473ffffffffffffffffffffffffffffffffffffffff1673ffffffffffffffffffffffffffffffffffffffff166342c71f1d7f34f01c17e9be6ddbf2c61f37b5b1fb9f1a090a975006581ad19bda1c4d3828716001026000604051602001526040518263ffffffff167c0100000000000000000000000000000000000000000000000000000000028152600401808260001916600019168152602001915050602060405180830381600087803b1515611b5f57600080fd5b6102c65a03f11515611b7057600080fd5b5050506040518051905090508091505090565b600043905090565b60005b602082101515611bb35782518452602084019350602083019250602082039150611b8e565b6001826020036101000a0390508019835116818551168181178652505050505050565b815481835581811511611c0357600202816002028360005260206000209182019101611c029190611d7c565b5b505050565b828054600181600116156101000203166002900490600052602060002090601f016020900481019282601f10611c4957805160ff1916838001178555611c77565b82800160010185558215611c77579182015b82811115611c76578251825591602001919060010190611c5b565b5b509050611c849190611dbb565b5090565b602060405190810160405280600081525090565b815481835581811511611cc957600302816003028360005260206000209182019101611cc89190611de0565b5b505050565b828054600181600116156101000203166002900490600052602060002090601f016020900481019282601f10611d0f57805160ff1916838001178555611d3d565b82800160010185558215611d3d579182015b82811115611d3c578251825591602001919060010190611d21565b5b509050611d4a9190611dbb565b5090565b602060405190810160405280600081525090565b604080519081016040528060008152602001600081525090565b611db891905b80821115611db45760008082016000611d9b9190611e3e565b600182016000611dab9190611e86565b50600201611d82565b5090565b90565b611ddd91905b80821115611dd9576000816000905550600101611dc1565b5090565b90565b611e3b91905b80821115611e3757600080820160006101000a81549073ffffffffffffffffffffffffffffffffffffffff02191690556001820160009055600282016000611e2e9190611e3e565b50600301611de6565b5090565b90565b50805460018160011615610100020316600290046000825580601f10611e645750611e83565b601f016020900490600052602060002090810190611e829190611dbb565b5b50565b5080546000825560030290600052602060002090810190611ea79190611de0565b505600a165627a7a7230582033e5d0be3137e1ace22cecb29d8451d3bf74816a79a1e5daed0559b8f54736aa0029",
  "source": "pragma solidity ^0.4.18;\n\nimport \"@aragon/os/contracts/apps/AragonApp.sol\";\nimport \"./utils/Strings.sol\";\n\n\ncontract Tree is AragonApp {\n    using strings for *;\n\n    struct Snapshot {\n        address author;\n        uint256 block;\n        string  cid;\n    }\n\n    struct Branch {\n        string name;\n        Snapshot[] snapshots;\n    }\n\n    struct BranchID {\n        bool exists;\n        uint id;\n    }\n\n    bytes32 constant public PUSH = bytes32(1);\n    string constant public SEPARATOR = \"0x|x0\";\n\n    Branch[] public branches;\n    mapping(bytes32 => BranchID) knownBranches;\n\n    event NewBranch(string name, uint branchID);\n    event NewSnapshot(string branch, address author, string cid);\n\n    function initialize() public onlyInit {\n        initialized();\n    }\n\n    function isBranch(bytes32 _branchNameHash) public view returns (bool) {\n        return knownBranches[_branchNameHash].exists;\n    }\n\n    function setHead(string _branchName, string _head) public auth(PUSH) {\n        bytes32 hash = keccak256(_branchName);\n        require(isBranch(hash));\n\n        uint branchID = knownBranches[hash].id;\n        branches[branchID].snapshots.push(Snapshot(msg.sender, block.number, _head));\n\n        NewSnapshot(_branchName, msg.sender, _head);\n    }\n\n    function getHead(string _branchName) public view returns (string cid_) {\n        bytes32 hash = keccak256(_branchName);\n        require(isBranch(hash));\n\n        uint branchID = knownBranches[hash].id;\n        if (branches[branchID].snapshots.length != 0) {\n            return branches[branchID].snapshots[branches[branchID].snapshots.length - 1].cid;\n        } else {\n            return \"undefined\";\n        }\n    }\n\n    function newBranch(string _branchName) public auth(PUSH) returns (uint) {\n        bytes32 hash = keccak256(_branchName);\n        require(!isBranch(hash));\n\n        uint branchID = branches.length++;\n        branches[branchID].name = _branchName;\n        knownBranches[hash] = BranchID(true, branchID);\n\n        NewBranch(_branchName, branchID);\n\n        return branchID;\n    }\n\n    function getBranchesName() public view returns (string) {\n        uint length = branches.length;\n        string memory _branches;\n\n        for (uint i = 0 ; i < length ; i++) {\n            _branches = _branches.toSlice().concat(branches[i].name.toSlice());\n            _branches = _branches.toSlice().concat(SEPARATOR.toSlice());\n        }\n\n        return _branches;\n    }\n}\n",
  "sourcePath": "/Users/osarrouy/Documents/dapp/@pando/packages/core/contracts/Tree.sol",
  "compiler": {
    "name": "solc",
    "version": "0.4.18+commit.9cf6e910.Emscripten.clang"
  },
  "schemaVersion": "1.0.1",
  "updatedAt": "2018-07-26T08:56:35.125Z"
}