{
  "contractName": "Tree",
  "abi": [
    {
      "constant": true,
      "inputs": [],
      "name": "APP_ADDR_NAMESPACE",
      "outputs": [
        {
          "name": "",
          "type": "bytes32"
        }
      ],
      "payable": false,
      "stateMutability": "view",
      "type": "function"
    },
    {
      "constant": true,
      "inputs": [],
      "name": "getRecoveryVault",
      "outputs": [
        {
          "name": "",
          "type": "address"
        }
      ],
      "payable": false,
      "stateMutability": "view",
      "type": "function"
    },
    {
      "constant": true,
      "inputs": [],
      "name": "SEPARATOR",
      "outputs": [
        {
          "name": "",
          "type": "string"
        }
      ],
      "payable": false,
      "stateMutability": "view",
      "type": "function"
    },
    {
      "constant": true,
      "inputs": [],
      "name": "EVMSCRIPT_REGISTRY_APP_ID",
      "outputs": [
        {
          "name": "",
          "type": "bytes32"
        }
      ],
      "payable": false,
      "stateMutability": "view",
      "type": "function"
    },
    {
      "constant": true,
      "inputs": [
        {
          "name": "token",
          "type": "address"
        }
      ],
      "name": "allowRecoverability",
      "outputs": [
        {
          "name": "",
          "type": "bool"
        }
      ],
      "payable": false,
      "stateMutability": "view",
      "type": "function"
    },
    {
      "constant": true,
      "inputs": [],
      "name": "appId",
      "outputs": [
        {
          "name": "",
          "type": "bytes32"
        }
      ],
      "payable": false,
      "stateMutability": "view",
      "type": "function"
    },
    {
      "constant": true,
      "inputs": [],
      "name": "ETH",
      "outputs": [
        {
          "name": "",
          "type": "address"
        }
      ],
      "payable": false,
      "stateMutability": "view",
      "type": "function"
    },
    {
      "constant": true,
      "inputs": [
        {
          "name": "",
          "type": "uint256"
        }
      ],
      "name": "branches",
      "outputs": [
        {
          "name": "name",
          "type": "string"
        }
      ],
      "payable": false,
      "stateMutability": "view",
      "type": "function"
    },
    {
      "constant": true,
      "inputs": [],
      "name": "getInitializationBlock",
      "outputs": [
        {
          "name": "",
          "type": "uint256"
        }
      ],
      "payable": false,
      "stateMutability": "view",
      "type": "function"
    },
    {
      "constant": true,
      "inputs": [],
      "name": "EVMSCRIPT_REGISTRY_APP",
      "outputs": [
        {
          "name": "",
          "type": "bytes32"
        }
      ],
      "payable": false,
      "stateMutability": "view",
      "type": "function"
    },
    {
      "constant": false,
      "inputs": [
        {
          "name": "_token",
          "type": "address"
        }
      ],
      "name": "transferToVault",
      "outputs": [],
      "payable": false,
      "stateMutability": "nonpayable",
      "type": "function"
    },
    {
      "constant": true,
      "inputs": [
        {
          "name": "_sender",
          "type": "address"
        },
        {
          "name": "_role",
          "type": "bytes32"
        },
        {
          "name": "params",
          "type": "uint256[]"
        }
      ],
      "name": "canPerform",
      "outputs": [
        {
          "name": "",
          "type": "bool"
        }
      ],
      "payable": false,
      "stateMutability": "view",
      "type": "function"
    },
    {
      "constant": true,
      "inputs": [],
      "name": "PUSH",
      "outputs": [
        {
          "name": "",
          "type": "bytes32"
        }
      ],
      "payable": false,
      "stateMutability": "view",
      "type": "function"
    },
    {
      "constant": true,
      "inputs": [],
      "name": "kernel",
      "outputs": [
        {
          "name": "",
          "type": "address"
        }
      ],
      "payable": false,
      "stateMutability": "view",
      "type": "function"
    },
    {
      "constant": true,
      "inputs": [
        {
          "name": "_script",
          "type": "bytes"
        }
      ],
      "name": "getExecutor",
      "outputs": [
        {
          "name": "",
          "type": "address"
        }
      ],
      "payable": false,
      "stateMutability": "view",
      "type": "function"
    },
    {
      "anonymous": false,
      "inputs": [
        {
          "indexed": false,
          "name": "name",
          "type": "string"
        },
        {
          "indexed": false,
          "name": "branchID",
          "type": "uint256"
        }
      ],
      "name": "NewBranch",
      "type": "event"
    },
    {
      "anonymous": false,
      "inputs": [
        {
          "indexed": false,
          "name": "branch",
          "type": "string"
        },
        {
          "indexed": false,
          "name": "author",
          "type": "address"
        },
        {
          "indexed": false,
          "name": "cid",
          "type": "string"
        }
      ],
      "name": "NewSnapshot",
      "type": "event"
    },
    {
      "constant": false,
      "inputs": [],
      "name": "initialize",
      "outputs": [],
      "payable": false,
      "stateMutability": "nonpayable",
      "type": "function"
    },
    {
      "constant": true,
      "inputs": [
        {
          "name": "_hash",
          "type": "bytes32"
        }
      ],
      "name": "isBranch",
      "outputs": [
        {
          "name": "isIndeed",
          "type": "bool"
        }
      ],
      "payable": false,
      "stateMutability": "view",
      "type": "function"
    },
    {
      "constant": false,
      "inputs": [
        {
          "name": "_branch",
          "type": "string"
        },
        {
          "name": "_head",
          "type": "string"
        }
      ],
      "name": "setHead",
      "outputs": [],
      "payable": false,
      "stateMutability": "nonpayable",
      "type": "function"
    },
    {
      "constant": true,
      "inputs": [
        {
          "name": "_branchName",
          "type": "string"
        }
      ],
      "name": "getHead",
      "outputs": [
        {
          "name": "cid_",
          "type": "string"
        }
      ],
      "payable": false,
      "stateMutability": "view",
      "type": "function"
    },
    {
      "constant": false,
      "inputs": [
        {
          "name": "_name",
          "type": "string"
        }
      ],
      "name": "newBranch",
      "outputs": [
        {
          "name": "branchID_",
          "type": "uint256"
        }
      ],
      "payable": false,
      "stateMutability": "nonpayable",
      "type": "function"
    },
    {
      "constant": true,
      "inputs": [],
      "name": "getBranchesName",
      "outputs": [
        {
          "name": "branches_",
          "type": "string"
        }
      ],
      "payable": false,
      "stateMutability": "view",
      "type": "function"
    }
  ],
  "bytecode": "0x608060405234801561001057600080fd5b50612166806100206000396000f30060806040526004361061011d576000357c0100000000000000000000000000000000000000000000000000000000900463ffffffff168063178e60791461012257806332f0a3b5146101555780635d27e9a6146101ac57806360b1e0571461023c5780637e7db6e11461026f57806380afdea8146102ca5780638129fc1c146102fd5780638322fff21461031457806383cc76601461036b578063874bbca1146104115780638a3075831461048e5780638b3dd7491461051e57806392654c8d146105495780639b3fdf4c146105f85780639d4941d81461062b578063a1658fad1461066e578063afb008051461071a578063cc6804c814610763578063cf6c2d5214610796578063d4aae0c414610878578063f92a79ff146108cf575b600080fd5b34801561012e57600080fd5b50610137610978565b60405180826000191660001916815260200191505060405180910390f35b34801561016157600080fd5b5061016a61099f565b604051808273ffffffffffffffffffffffffffffffffffffffff1673ffffffffffffffffffffffffffffffffffffffff16815260200191505060405180910390f35b3480156101b857600080fd5b506101c1610aac565b6040518080602001828103825283818151815260200191508051906020019080838360005b838110156102015780820151818401526020810190506101e6565b50505050905090810190601f16801561022e5780820380516001836020036101000a031916815260200191505b509250505060405180910390f35b34801561024857600080fd5b50610251610ae5565b60405180826000191660001916815260200191505060405180910390f35b34801561027b57600080fd5b506102b0600480360381019080803573ffffffffffffffffffffffffffffffffffffffff169060200190929190505050610b0c565b604051808215151515815260200191505060405180910390f35b3480156102d657600080fd5b506102df610b17565b60405180826000191660001916815260200191505060405180910390f35b34801561030957600080fd5b50610312610b1d565b005b34801561032057600080fd5b50610329610b38565b604051808273ffffffffffffffffffffffffffffffffffffffff1673ffffffffffffffffffffffffffffffffffffffff16815260200191505060405180910390f35b34801561037757600080fd5b5061039660048036038101908080359060200190929190505050610b3d565b6040518080602001828103825283818151815260200191508051906020019080838360005b838110156103d65780820151818401526020810190506103bb565b50505050905090810190601f1680156104035780820380516001836020036101000a031916815260200191505b509250505060405180910390f35b34801561041d57600080fd5b50610478600480360381019080803590602001908201803590602001908080601f0160208091040260200160405190810160405280939291908181526020018383808284378201915050505050509192919290505050610c02565b6040518082815260200191505060405180910390f35b34801561049a57600080fd5b506104a3610e90565b6040518080602001828103825283818151815260200191508051906020019080838360005b838110156104e35780820151818401526020810190506104c8565b50505050905090810190601f1680156105105780820380516001836020036101000a031916815260200191505b509250505060405180910390f35b34801561052a57600080fd5b50610533610ffa565b6040518082815260200191505060405180910390f35b34801561055557600080fd5b506105f6600480360381019080803590602001908201803590602001908080601f0160208091040260200160405190810160405280939291908181526020018383808284378201915050505050509192919290803590602001908201803590602001908080601f0160208091040260200160405190810160405280939291908181526020018383808284378201915050505050509192919290505050611004565b005b34801561060457600080fd5b5061060d611389565b60405180826000191660001916815260200191505060405180910390f35b34801561063757600080fd5b5061066c600480360381019080803573ffffffffffffffffffffffffffffffffffffffff1690602001909291905050506113b0565b005b34801561067a57600080fd5b50610700600480360381019080803573ffffffffffffffffffffffffffffffffffffffff16906020019092919080356000191690602001909291908035906020019082018035906020019080806020026020016040519081016040528093929190818152602001838360200280828437820191505050505050919291929050505061163a565b604051808215151515815260200191505060405180910390f35b34801561072657600080fd5b50610749600480360381019080803560001916906020019092919050505061184c565b604051808215151515815260200191505060405180910390f35b34801561076f57600080fd5b50610778611881565b60405180826000191660001916815260200191505060405180910390f35b3480156107a257600080fd5b506107fd600480360381019080803590602001908201803590602001908080601f0160208091040260200160405190810160405280939291908181526020018383808284378201915050505050509192919290505050611888565b6040518080602001828103825283818151815260200191508051906020019080838360005b8381101561083d578082015181840152602081019050610822565b50505050905090810190601f16801561086a5780820380516001836020036101000a031916815260200191505b509250505060405180910390f35b34801561088457600080fd5b5061088d611b04565b604051808273ffffffffffffffffffffffffffffffffffffffff1673ffffffffffffffffffffffffffffffffffffffff16815260200191505060405180910390f35b3480156108db57600080fd5b50610936600480360381019080803590602001908201803590602001908080601f0160208091040260200160405190810160405280939291908181526020018383808284378201915050505050509192919290505050611b29565b604051808273ffffffffffffffffffffffffffffffffffffffff1673ffffffffffffffffffffffffffffffffffffffff16815260200191505060405180910390f35b7fd6f028ca0e8edb4a8c9757ca4fdccab25fa1e0317da1188108f7d2dee14902fb60010281565b6000806000809054906101000a900473ffffffffffffffffffffffffffffffffffffffff1673ffffffffffffffffffffffffffffffffffffffff16141515156109e757600080fd5b6000809054906101000a900473ffffffffffffffffffffffffffffffffffffffff1673ffffffffffffffffffffffffffffffffffffffff166332f0a3b56040518163ffffffff167c0100000000000000000000000000000000000000000000000000000000028152600401602060405180830381600087803b158015610a6c57600080fd5b505af1158015610a80573d6000803e3d6000fd5b505050506040513d6020811015610a9657600080fd5b8101908080519060200190929190505050905090565b6040805190810160405280600581526020017f30787c783000000000000000000000000000000000000000000000000000000081525081565b7fddbcfd564f642ab5627cf68b9b7d374fb4f8a36e941a75d89c87998cef03bd6160010281565b600060019050919050565b60015481565b6000600354141515610b2e57600080fd5b610b36611c48565b565b600081565b606481815481101515610b4c57fe5b9060005260206000209060020201600091509050806000018054600181600116156101000203166002900480601f016020809104026020016040519081016040528092919081815260200182805460018160011615610100020316600290048015610bf85780601f10610bcd57610100808354040283529160200191610bf8565b820191906000526020600020905b815481529060010190602001808311610bdb57829003601f168201915b5050505050905081565b600080600060018002610c4633826000604051908082528060200260200182016040528015610c405781602001602082028038833980820191505090505b5061163a565b1515610c5157600080fd5b846040516020018082805190602001908083835b602083101515610c8a5780518252602082019150602081019050602083039250610c65565b6001836020036101000a0380198251168184511680821785525050505050509050019150506040516020818303038152906040526040518082805190602001908083835b602083101515610cf35780518252602082019150602081019050602083039250610cce565b6001836020036101000a03801982511681845116808217855250505050505090500191505060405180910390209250610d2b8361184c565b151515610d3757600080fd5b60648054809190600101610d4b9190611ec0565b915084606483815481101515610d5d57fe5b90600052602060002090600202016000019080519060200190610d81929190611ef2565b5060408051908101604052806001151581526020018381525060656000856000191660001916815260200190815260200160002060008201518160000160006101000a81548160ff021916908315150217905550602082015181600101559050507e6eeee449a4a26aca42cb5305fb23c03ce35da3989e0282d09d9030d241a1ef85836040518080602001838152602001828103825284818151815260200191508051906020019080838360005b83811015610e4a578082015181840152602081019050610e2f565b50505050905090810190601f168015610e775780820380516001836020036101000a031916815260200191505b50935050505060405180910390a1819350505050919050565b60606000606060006064805490509250600090505b82811015610ff157610f88610f71606483815481101515610ec257fe5b90600052602060002090600202016000018054600181600116156101000203166002900480601f016020809104026020016040519081016040528092919081815260200182805460018160011615610100020316600290048015610f675780601f10610f3c57610100808354040283529160200191610f67565b820191906000526020600020905b815481529060010190602001808311610f4a57829003601f168201915b5050505050611c69565b610f7a84611c69565b611c9790919063ffffffff16565b9150610fe2610fcb6040805190810160405280600581526020017f30787c7830000000000000000000000000000000000000000000000000000000815250611c69565b610fd484611c69565b611c9790919063ffffffff16565b91508080600101915050610ea5565b81935050505090565b6000600354905090565b60008060018002611046338260006040519080825280602002602001820160405280156110405781602001602082028038833980820191505090505b5061163a565b151561105157600080fd5b846040516020018082805190602001908083835b60208310151561108a5780518252602082019150602081019050602083039250611065565b6001836020036101000a0380198251168184511680821785525050505050509050019150506040516020818303038152906040526040518082805190602001908083835b6020831015156110f357805182526020820191506020810190506020830392506110ce565b6001836020036101000a0380198251168184511680821785525050505050509050019150506040518091039020925061112b8361184c565b151561113657600080fd5b60656000846000191660001916815260200190815260200160002060010154915060648281548110151561116657fe5b90600052602060002090600202016001016060604051908101604052803373ffffffffffffffffffffffffffffffffffffffff168152602001438152602001868152509080600181540180825580915050906001820390600052602060002090600302016000909192909190915060008201518160000160006101000a81548173ffffffffffffffffffffffffffffffffffffffff021916908373ffffffffffffffffffffffffffffffffffffffff160217905550602082015181600101556040820151816002019080519060200190611241929190611f72565b505050507f8f5cde820cfe31eac4a807e146d250146e8f24b9a867cafc068335973b931a0a85338660405180806020018473ffffffffffffffffffffffffffffffffffffffff1673ffffffffffffffffffffffffffffffffffffffff16815260200180602001838103835286818151815260200191508051906020019080838360005b838110156112df5780820151818401526020810190506112c4565b50505050905090810190601f16801561130c5780820380516001836020036101000a031916815260200191505b50838103825284818151815260200191508051906020019080838360005b8381101561134557808201518184015260208101905061132a565b50505050905090810190601f1680156113725780820380516001836020036101000a031916815260200191505b509550505050505060405180910390a15050505050565b7f34f01c17e9be6ddbf2c61f37b5b1fb9f1a090a975006581ad19bda1c4d38287160010281565b6000806113bc83610b0c565b15156113c757600080fd5b6113cf61099f565b91506113da82611d19565b15156113e557600080fd5b600073ffffffffffffffffffffffffffffffffffffffff168373ffffffffffffffffffffffffffffffffffffffff16141561147d578173ffffffffffffffffffffffffffffffffffffffff166108fc3073ffffffffffffffffffffffffffffffffffffffff16319081150290604051600060405180830381858888f19350505050158015611477573d6000803e3d6000fd5b50611635565b8273ffffffffffffffffffffffffffffffffffffffff166370a08231306040518263ffffffff167c0100000000000000000000000000000000000000000000000000000000028152600401808273ffffffffffffffffffffffffffffffffffffffff1673ffffffffffffffffffffffffffffffffffffffff168152602001915050602060405180830381600087803b15801561151857600080fd5b505af115801561152c573d6000803e3d6000fd5b505050506040513d602081101561154257600080fd5b810190808051906020019092919050505090508273ffffffffffffffffffffffffffffffffffffffff1663a9059cbb83836040518363ffffffff167c0100000000000000000000000000000000000000000000000000000000028152600401808373ffffffffffffffffffffffffffffffffffffffff1673ffffffffffffffffffffffffffffffffffffffff16815260200182815260200192505050602060405180830381600087803b1580156115f857600080fd5b505af115801561160c573d6000803e3d6000fd5b505050506040513d602081101561162257600080fd5b8101908080519060200190929190505050505b505050565b600060606000808451111561165757602084510290508391508082525b60008060009054906101000a900473ffffffffffffffffffffffffffffffffffffffff1673ffffffffffffffffffffffffffffffffffffffff16148061184157506000809054906101000a900473ffffffffffffffffffffffffffffffffffffffff1673ffffffffffffffffffffffffffffffffffffffff1663fdef9106873088866040518563ffffffff167c0100000000000000000000000000000000000000000000000000000000028152600401808573ffffffffffffffffffffffffffffffffffffffff1673ffffffffffffffffffffffffffffffffffffffff1681526020018473ffffffffffffffffffffffffffffffffffffffff1673ffffffffffffffffffffffffffffffffffffffff168152602001836000191660001916815260200180602001828103825283818151815260200191508051906020019080838360005b838110156117b657808201518184015260208101905061179b565b50505050905090810190601f1680156117e35780820380516001836020036101000a031916815260200191505b5095505050505050602060405180830381600087803b15801561180557600080fd5b505af1158015611819573d6000803e3d6000fd5b505050506040513d602081101561182f57600080fd5b81019080805190602001909291905050505b925050509392505050565b600060656000836000191660001916815260200190815260200160002060000160009054906101000a900460ff169050919050565b6001800281565b6060600080836040516020018082805190602001908083835b6020831015156118c657805182526020820191506020810190506020830392506118a1565b6001836020036101000a0380198251168184511680821785525050505050509050019150506040516020818303038152906040526040518082805190602001908083835b60208310151561192f578051825260208201915060208101905060208303925061190a565b6001836020036101000a038019825116818451168082178552505050505050905001915050604051809103902091506119678261184c565b151561197257600080fd5b60656000836000191660001916815260200190815260200160002060010154905060006064828154811015156119a457fe5b906000526020600020906002020160010180549050141515611ac4576064818154811015156119cf57fe5b906000526020600020906002020160010160016064838154811015156119f157fe5b90600052602060002090600202016001018054905003815481101515611a1357fe5b90600052602060002090600302016002018054600181600116156101000203166002900480601f016020809104026020016040519081016040528092919081815260200182805460018160011615610100020316600290048015611ab85780601f10611a8d57610100808354040283529160200191611ab8565b820191906000526020600020905b815481529060010190602001808311611a9b57829003601f168201915b50505050509250611afd565b6040805190810160405280600981526020017f756e646566696e6564000000000000000000000000000000000000000000000081525092505b5050919050565b6000809054906101000a900473ffffffffffffffffffffffffffffffffffffffff1681565b6000611b33611d6b565b73ffffffffffffffffffffffffffffffffffffffff166304bf2a7f836040518263ffffffff167c01000000000000000000000000000000000000000000000000000000000281526004018080602001828103825283818151815260200191508051906020019080838360005b83811015611bba578082015181840152602081019050611b9f565b50505050905090810190601f168015611be75780820380516001836020036101000a031916815260200191505b5092505050602060405180830381600087803b158015611c0657600080fd5b505af1158015611c1a573d6000803e3d6000fd5b505050506040513d6020811015611c3057600080fd5b81019080805190602001909291905050509050919050565b6000600354141515611c5957600080fd5b611c61611e6d565b600381905550565b611c71611ff2565b600060208301905060408051908101604052808451815260200182815250915050919050565b606080600083600001518560000151016040519080825280601f01601f191660200182016040528015611cd95781602001602082028038833980820191505090505b509150602082019050611cf58186602001518760000151611e75565b611d0e8560000151820185602001518660000151611e75565b819250505092915050565b600080600073ffffffffffffffffffffffffffffffffffffffff168373ffffffffffffffffffffffffffffffffffffffff161415611d5a5760009150611d65565b823b90506000811191505b50919050565b6000806000809054906101000a900473ffffffffffffffffffffffffffffffffffffffff1673ffffffffffffffffffffffffffffffffffffffff166342c71f1d7f34f01c17e9be6ddbf2c61f37b5b1fb9f1a090a975006581ad19bda1c4d3828716001026040518263ffffffff167c0100000000000000000000000000000000000000000000000000000000028152600401808260001916600019168152602001915050602060405180830381600087803b158015611e2957600080fd5b505af1158015611e3d573d6000803e3d6000fd5b505050506040513d6020811015611e5357600080fd5b810190808051906020019092919050505090508091505090565b600043905090565b60005b602082101515611e9d5782518452602084019350602083019250602082039150611e78565b6001826020036101000a0390508019835116818551168181178652505050505050565b815481835581811115611eed57600202816002028360005260206000209182019101611eec919061200c565b5b505050565b828054600181600116156101000203166002900490600052602060002090601f016020900481019282601f10611f3357805160ff1916838001178555611f61565b82800160010185558215611f61579182015b82811115611f60578251825591602001919060010190611f45565b5b509050611f6e919061204b565b5090565b828054600181600116156101000203166002900490600052602060002090601f016020900481019282601f10611fb357805160ff1916838001178555611fe1565b82800160010185558215611fe1579182015b82811115611fe0578251825591602001919060010190611fc5565b5b509050611fee919061204b565b5090565b604080519081016040528060008152602001600081525090565b61204891905b80821115612044576000808201600061202b9190612070565b60018201600061203b91906120b8565b50600201612012565b5090565b90565b61206d91905b80821115612069576000816000905550600101612051565b5090565b90565b50805460018160011615610100020316600290046000825580601f1061209657506120b5565b601f0160209004906000526020600020908101906120b4919061204b565b5b50565b50805460008255600302906000526020600020908101906120d991906120dc565b50565b61213791905b8082111561213357600080820160006101000a81549073ffffffffffffffffffffffffffffffffffffffff0219169055600182016000905560028201600061212a9190612070565b506003016120e2565b5090565b905600a165627a7a72305820174be4638df5fea930d87d36e0f8645f8c5a49c44bc0111885a02b0996d90d4e0029",
  "source": "pragma solidity ^0.4.18;\n/* pragma experimental ABIEncoderV2; */\n\nimport \"@aragon/os/contracts/apps/AragonApp.sol\";\nimport \"./utils/Strings.sol\";\n\ncontract Tree is AragonApp {\n  using strings for *;\n  \n  struct Snapshot {\n    address author;\n    uint256 block;\n    string  cid;\n  }\n  \n  struct Branch {\n    string name;\n    Snapshot[] snapshots;\n  }\n  \n  struct BranchID {\n    bool exists;\n    uint id;\n  }\n    \n  bytes32 constant public PUSH = bytes32(1);\n  string constant public SEPARATOR = \"0x|x0\";\n   \n  \n  Branch[] public branches;\n  mapping(bytes32 => BranchID) knownBranches;\n  \n  event NewBranch(string name, uint branchID);\n  event NewSnapshot(string branch, address author, string cid);\n\n  function initialize() onlyInit {\n      initialized();\n  }\n\n  function isBranch(bytes32 _hash) public view returns (bool isIndeed) {\n    return knownBranches[_hash].exists;\n  }\n\n  function setHead(string _branch, string _head) public auth(PUSH) {\n    bytes32 hash = keccak256(abi.encodePacked(_branch));\n    require(isBranch(hash));\n    \n    uint branchID = knownBranches[hash].id;\n    branches[branchID].snapshots.push(Snapshot(msg.sender, block.number, _head));\n    \n    NewSnapshot(_branch, msg.sender, _head);\n  }\n  \n  /* function getHead(string _branch) public view returns (string _cid){\n    bytes32 hash = keccak256(abi.encodePacked(_branch));\n    require(isBranch(hash));\n    \n    uint branchID = knownBranches[hash].id;\n    return branches[branchID].snapshots[branches[branchID].snapshots.length - 1].cid;\n    \n  } */\n  \n  function getHead(string _branchName) public view returns (string cid_){\n    bytes32 hash = keccak256(abi.encodePacked(_branchName));\n    require(isBranch(hash));\n    \n    uint branchID = knownBranches[hash].id;\n    if(branches[branchID].snapshots.length != 0) {\n      return branches[branchID].snapshots[branches[branchID].snapshots.length - 1].cid;   \n    } else {\n      return \"undefined\";\n    }\n     \n  }\n\n  function newBranch(string _name) public auth(PUSH) returns (uint branchID_){\n    bytes32 hash = keccak256(abi.encodePacked(_name));\n    require(!isBranch(hash));\n  \n    uint branchID = branches.length++;\n    branches[branchID].name = _name;\n    knownBranches[hash] = BranchID(true, branchID);\n    \n    NewBranch(_name, branchID);\n    \n    return branchID;\n  }\n  \n  function getBranchesName() public view returns (string branches_) {\n    /* string memory separator = \"0x|x0\"; */\n    uint length = branches.length;\n    \n    string memory _branches;\n    \n    for (uint i = 0 ; i < length ; i++) {\n      _branches = _branches.toSlice().concat(branches[i].name.toSlice()); // \"abcdef\"\n      _branches = _branches.toSlice().concat(SEPARATOR.toSlice()); // \"abcdef\"\n    }\n    \n    /* _branches = _branches.toSlice().concat(\"master\".toSlice()); // \"abcdef\"\n    _branches = _branches.toSlice().concat(SEPARATOR.toSlice()); // \"abcdef\"\n    _branches = _branches.toSlice().concat(\"dev\".toSlice()); // \"abcdef\" */\n    \n    \n    /* string[] memory _branches = new string[](length); */\n    \n    /* string[length] branches_; */\n    \n    /* branches_[0] = 'master'; */\n    \n    return _branches;\n  }\n  \n}",
  "sourcePath": "/Users/osarrouy/Documents/devs/dapps/@pando/packages/core/contracts/Tree.sol",
  "compiler": {
    "name": "solc",
    "version": "0.4.24+commit.e67f0147.Emscripten.clang"
  },
  "schemaVersion": "2.0.1",
  "updatedAt": "2018-07-04T16:43:12.432Z"
}