{
  "contractName": "Uint256Helpers",
  "abi": [
    {
      "constant": true,
      "inputs": [],
      "name": "MAX_UINT64",
      "outputs": [
        {
          "name": "",
          "type": "uint256"
        }
      ],
      "payable": false,
      "stateMutability": "view",
      "type": "function"
    }
  ],
  "bytecode": "0x60d161002f600b82828239805160001a6073146000811461001f57610021565bfe5b5030600052607381538281f30073000000000000000000000000000000000000000030146080604052600436106056576000357c0100000000000000000000000000000000000000000000000000000000900463ffffffff168063c9f661be14605b575b600080fd5b60616077565b6040518082815260200191505060405180910390f35b7fffffffffffffffffffffffffffffffffffffffffffffffffffffffffffffffff67ffffffffffffffff16815600a165627a7a723058204901765e3a0750aca16637a23c0f9863e5673a1b16b584d7b2e1c6d8dc410da00029",
  "source": "pragma solidity ^0.4.18;\n\n\nlibrary Uint256Helpers {\n    uint256 public constant MAX_UINT64 = uint64(-1);\n\n    function toUint64(uint256 a) internal pure returns (uint64) {\n        require(a <= MAX_UINT64);\n        return uint64(a);\n    }\n}\n",
  "sourcePath": "@aragon/os/contracts/common/Uint256Helpers.sol",
  "compiler": {
    "name": "solc",
    "version": "0.4.24+commit.e67f0147.Emscripten.clang"
  },
  "schemaVersion": "2.0.1",
  "updatedAt": "2018-10-06T16:57:44.241Z"
}