{
  "contractName": "Voting",
  "abi": [
    {
      "constant": false,
      "inputs": [
        {
          "name": "_minAcceptQuorumPct",
          "type": "uint256"
        }
      ],
      "name": "changeMinAcceptQuorumPct",
      "outputs": [],
      "payable": false,
      "stateMutability": "nonpayable",
      "type": "function"
    },
    {
      "constant": true,
      "inputs": [],
      "name": "APP_ADDR_NAMESPACE",
      "outputs": [
        {
          "name": "",
          "type": "bytes32"
        }
      ],
      "payable": false,
      "stateMutability": "view",
      "type": "function"
    },
    {
      "constant": false,
      "inputs": [
        {
          "name": "_executionScript",
          "type": "bytes"
        },
        {
          "name": "_metadata",
          "type": "string"
        },
        {
          "name": "_castVote",
          "type": "bool"
        }
      ],
      "name": "newVote",
      "outputs": [
        {
          "name": "voteId",
          "type": "uint256"
        }
      ],
      "payable": false,
      "stateMutability": "nonpayable",
      "type": "function"
    },
    {
      "constant": true,
      "inputs": [],
      "name": "getRecoveryVault",
      "outputs": [
        {
          "name": "",
          "type": "address"
        }
      ],
      "payable": false,
      "stateMutability": "view",
      "type": "function"
    },
    {
      "constant": true,
      "inputs": [],
      "name": "MODIFY_QUORUM_ROLE",
      "outputs": [
        {
          "name": "",
          "type": "bytes32"
        }
      ],
      "payable": false,
      "stateMutability": "view",
      "type": "function"
    },
    {
      "constant": false,
      "inputs": [
        {
          "name": "_token",
          "type": "address"
        },
        {
          "name": "_supportRequiredPct",
          "type": "uint256"
        },
        {
          "name": "_minAcceptQuorumPct",
          "type": "uint256"
        },
        {
          "name": "_voteTime",
          "type": "uint64"
        }
      ],
      "name": "initialize",
      "outputs": [],
      "payable": false,
      "stateMutability": "nonpayable",
      "type": "function"
    },
    {
      "constant": true,
      "inputs": [
        {
          "name": "_voteId",
          "type": "uint256"
        },
        {
          "name": "_voter",
          "type": "address"
        }
      ],
      "name": "getVoterState",
      "outputs": [
        {
          "name": "",
          "type": "uint8"
        }
      ],
      "payable": false,
      "stateMutability": "view",
      "type": "function"
    },
    {
      "constant": true,
      "inputs": [
        {
          "name": "_voteId",
          "type": "uint256"
        }
      ],
      "name": "getVote",
      "outputs": [
        {
          "name": "open",
          "type": "bool"
        },
        {
          "name": "executed",
          "type": "bool"
        },
        {
          "name": "creator",
          "type": "address"
        },
        {
          "name": "startDate",
          "type": "uint64"
        },
        {
          "name": "snapshotBlock",
          "type": "uint256"
        },
        {
          "name": "minAcceptQuorum",
          "type": "uint256"
        },
        {
          "name": "yea",
          "type": "uint256"
        },
        {
          "name": "nay",
          "type": "uint256"
        },
        {
          "name": "totalVoters",
          "type": "uint256"
        },
        {
          "name": "script",
          "type": "bytes"
        }
      ],
      "payable": false,
      "stateMutability": "view",
      "type": "function"
    },
    {
      "constant": true,
      "inputs": [],
      "name": "EVMSCRIPT_REGISTRY_APP_ID",
      "outputs": [
        {
          "name": "",
          "type": "bytes32"
        }
      ],
      "payable": false,
      "stateMutability": "view",
      "type": "function"
    },
    {
      "constant": true,
      "inputs": [
        {
          "name": "token",
          "type": "address"
        }
      ],
      "name": "allowRecoverability",
      "outputs": [
        {
          "name": "",
          "type": "bool"
        }
      ],
      "payable": false,
      "stateMutability": "view",
      "type": "function"
    },
    {
      "constant": true,
      "inputs": [],
      "name": "appId",
      "outputs": [
        {
          "name": "",
          "type": "bytes32"
        }
      ],
      "payable": false,
      "stateMutability": "view",
      "type": "function"
    },
    {
      "constant": true,
      "inputs": [],
      "name": "ETH",
      "outputs": [
        {
          "name": "",
          "type": "address"
        }
      ],
      "payable": false,
      "stateMutability": "view",
      "type": "function"
    },
    {
      "constant": true,
      "inputs": [],
      "name": "getInitializationBlock",
      "outputs": [
        {
          "name": "",
          "type": "uint256"
        }
      ],
      "payable": false,
      "stateMutability": "view",
      "type": "function"
    },
    {
      "constant": true,
      "inputs": [],
      "name": "EVMSCRIPT_REGISTRY_APP",
      "outputs": [
        {
          "name": "",
          "type": "bytes32"
        }
      ],
      "payable": false,
      "stateMutability": "view",
      "type": "function"
    },
    {
      "constant": false,
      "inputs": [
        {
          "name": "_token",
          "type": "address"
        }
      ],
      "name": "transferToVault",
      "outputs": [],
      "payable": false,
      "stateMutability": "nonpayable",
      "type": "function"
    },
    {
      "constant": true,
      "inputs": [
        {
          "name": "_sender",
          "type": "address"
        },
        {
          "name": "_role",
          "type": "bytes32"
        },
        {
          "name": "params",
          "type": "uint256[]"
        }
      ],
      "name": "canPerform",
      "outputs": [
        {
          "name": "",
          "type": "bool"
        }
      ],
      "payable": false,
      "stateMutability": "view",
      "type": "function"
    },
    {
      "constant": true,
      "inputs": [],
      "name": "voteTime",
      "outputs": [
        {
          "name": "",
          "type": "uint64"
        }
      ],
      "payable": false,
      "stateMutability": "view",
      "type": "function"
    },
    {
      "constant": true,
      "inputs": [],
      "name": "CREATE_VOTES_ROLE",
      "outputs": [
        {
          "name": "",
          "type": "bytes32"
        }
      ],
      "payable": false,
      "stateMutability": "view",
      "type": "function"
    },
    {
      "constant": true,
      "inputs": [
        {
          "name": "_voteId",
          "type": "uint256"
        }
      ],
      "name": "getVoteMetadata",
      "outputs": [
        {
          "name": "",
          "type": "string"
        }
      ],
      "payable": false,
      "stateMutability": "view",
      "type": "function"
    },
    {
      "constant": true,
      "inputs": [
        {
          "name": "_sender",
          "type": "address"
        },
        {
          "name": "_evmCallScript",
          "type": "bytes"
        }
      ],
      "name": "canForward",
      "outputs": [
        {
          "name": "",
          "type": "bool"
        }
      ],
      "payable": false,
      "stateMutability": "view",
      "type": "function"
    },
    {
      "constant": true,
      "inputs": [
        {
          "name": "_voteId",
          "type": "uint256"
        }
      ],
      "name": "canExecute",
      "outputs": [
        {
          "name": "",
          "type": "bool"
        }
      ],
      "payable": false,
      "stateMutability": "view",
      "type": "function"
    },
    {
      "constant": true,
      "inputs": [
        {
          "name": "_voteId",
          "type": "uint256"
        },
        {
          "name": "_voter",
          "type": "address"
        }
      ],
      "name": "canVote",
      "outputs": [
        {
          "name": "",
          "type": "bool"
        }
      ],
      "payable": false,
      "stateMutability": "view",
      "type": "function"
    },
    {
      "constant": true,
      "inputs": [],
      "name": "kernel",
      "outputs": [
        {
          "name": "",
          "type": "address"
        }
      ],
      "payable": false,
      "stateMutability": "view",
      "type": "function"
    },
    {
      "constant": false,
      "inputs": [
        {
          "name": "_executionScript",
          "type": "bytes"
        },
        {
          "name": "_metadata",
          "type": "string"
        }
      ],
      "name": "newVote",
      "outputs": [
        {
          "name": "voteId",
          "type": "uint256"
        }
      ],
      "payable": false,
      "stateMutability": "nonpayable",
      "type": "function"
    },
    {
      "constant": false,
      "inputs": [
        {
          "name": "_evmScript",
          "type": "bytes"
        }
      ],
      "name": "forward",
      "outputs": [],
      "payable": false,
      "stateMutability": "nonpayable",
      "type": "function"
    },
    {
      "constant": true,
      "inputs": [],
      "name": "minAcceptQuorumPct",
      "outputs": [
        {
          "name": "",
          "type": "uint256"
        }
      ],
      "payable": false,
      "stateMutability": "view",
      "type": "function"
    },
    {
      "constant": false,
      "inputs": [
        {
          "name": "_voteId",
          "type": "uint256"
        },
        {
          "name": "_supports",
          "type": "bool"
        },
        {
          "name": "_executesIfDecided",
          "type": "bool"
        }
      ],
      "name": "vote",
      "outputs": [],
      "payable": false,
      "stateMutability": "nonpayable",
      "type": "function"
    },
    {
      "constant": true,
      "inputs": [
        {
          "name": "_script",
          "type": "bytes"
        }
      ],
      "name": "getExecutor",
      "outputs": [
        {
          "name": "",
          "type": "address"
        }
      ],
      "payable": false,
      "stateMutability": "view",
      "type": "function"
    },
    {
      "constant": false,
      "inputs": [
        {
          "name": "_voteId",
          "type": "uint256"
        }
      ],
      "name": "executeVote",
      "outputs": [],
      "payable": false,
      "stateMutability": "nonpayable",
      "type": "function"
    },
    {
      "constant": true,
      "inputs": [],
      "name": "supportRequiredPct",
      "outputs": [
        {
          "name": "",
          "type": "uint256"
        }
      ],
      "payable": false,
      "stateMutability": "view",
      "type": "function"
    },
    {
      "constant": true,
      "inputs": [],
      "name": "token",
      "outputs": [
        {
          "name": "",
          "type": "address"
        }
      ],
      "payable": false,
      "stateMutability": "view",
      "type": "function"
    },
    {
      "constant": true,
      "inputs": [],
      "name": "PCT_BASE",
      "outputs": [
        {
          "name": "",
          "type": "uint256"
        }
      ],
      "payable": false,
      "stateMutability": "view",
      "type": "function"
    },
    {
      "constant": true,
      "inputs": [],
      "name": "isForwarder",
      "outputs": [
        {
          "name": "",
          "type": "bool"
        }
      ],
      "payable": false,
      "stateMutability": "pure",
      "type": "function"
    },
    {
      "anonymous": false,
      "inputs": [
        {
          "indexed": true,
          "name": "voteId",
          "type": "uint256"
        }
      ],
      "name": "StartVote",
      "type": "event"
    },
    {
      "anonymous": false,
      "inputs": [
        {
          "indexed": true,
          "name": "voteId",
          "type": "uint256"
        },
        {
          "indexed": true,
          "name": "voter",
          "type": "address"
        },
        {
          "indexed": false,
          "name": "supports",
          "type": "bool"
        },
        {
          "indexed": false,
          "name": "stake",
          "type": "uint256"
        }
      ],
      "name": "CastVote",
      "type": "event"
    },
    {
      "anonymous": false,
      "inputs": [
        {
          "indexed": true,
          "name": "voteId",
          "type": "uint256"
        }
      ],
      "name": "ExecuteVote",
      "type": "event"
    },
    {
      "anonymous": false,
      "inputs": [
        {
          "indexed": false,
          "name": "minAcceptQuorumPct",
          "type": "uint256"
        }
      ],
      "name": "ChangeMinQuorum",
      "type": "event"
    }
  ],
  "bytecode": "0x6060604052341561000f57600080fd5b612e788061001e6000396000f3006060604052600436106101a1576000357c0100000000000000000000000000000000000000000000000000000000900463ffffffff168063036e4220146101a6578063178e6079146101c957806324160baa146101fa57806332f0a3b51461025b5780633c624c75146102b05780633ee31e70146102e15780634b12311c1461033f5780635a55c1f0146103a357806360b1e057146104c65780637e7db6e1146104f757806380afdea8146105485780638322fff2146105795780638b3dd749146105ce5780639b3fdf4c146105f75780639d4941d814610628578063a1658fad14610661578063bcf93dd6146106ff578063be2c64d41461073c578063c05218c61461076d578063c0774df314610809578063cc63604a1461089d578063cdb2867b146108d8578063d4aae0c414610932578063d5db2c8014610987578063d948d468146109dd578063dc474b1a14610a3a578063df133bca14610a63578063f92a79ff14610a9c578063f98a4eca14610b39578063fad167ab14610b5c578063fc0c546a14610b85578063fc157cb414610bda578063fd64eccb14610c03575b600080fd5b34156101b157600080fd5b6101c76004808035906020019091905050610c30565b005b34156101d457600080fd5b6101dc610cfc565b60405180826000191660001916815260200191505060405180910390f35b341561020557600080fd5b6102456004808035906020019082018035906020019190919290803590602001908201803590602001919091929080351515906020019091905050610d23565b6040518082815260200191505060405180910390f35b341561026657600080fd5b61026e610e0b565b604051808273ffffffffffffffffffffffffffffffffffffffff1673ffffffffffffffffffffffffffffffffffffffff16815260200191505060405180910390f35b34156102bb57600080fd5b6102c3610f00565b60405180826000191660001916815260200191505060405180910390f35b34156102ec57600080fd5b61033d600480803573ffffffffffffffffffffffffffffffffffffffff1690602001909190803590602001909190803590602001909190803567ffffffffffffffff16906020019091905050610f39565b005b341561034a57600080fd5b61037f600480803590602001909190803573ffffffffffffffffffffffffffffffffffffffff1690602001909190505061101e565b6040518082600281111561038f57fe5b60ff16815260200191505060405180910390f35b34156103ae57600080fd5b6103c46004808035906020019091905050611093565b604051808b1515151581526020018a1515151581526020018973ffffffffffffffffffffffffffffffffffffffff1673ffffffffffffffffffffffffffffffffffffffff1681526020018867ffffffffffffffff1667ffffffffffffffff16815260200187815260200186815260200185815260200184815260200183815260200180602001828103825283818151815260200191508051906020019080838360005b83811015610482578082015181840152602081019050610467565b50505050905090810190601f1680156104af5780820380516001836020036101000a031916815260200191505b509b50505050505050505050505060405180910390f35b34156104d157600080fd5b6104d96111fb565b60405180826000191660001916815260200191505060405180910390f35b341561050257600080fd5b61052e600480803573ffffffffffffffffffffffffffffffffffffffff16906020019091905050611222565b604051808215151515815260200191505060405180910390f35b341561055357600080fd5b61055b61122d565b60405180826000191660001916815260200191505060405180910390f35b341561058457600080fd5b61058c611233565b604051808273ffffffffffffffffffffffffffffffffffffffff1673ffffffffffffffffffffffffffffffffffffffff16815260200191505060405180910390f35b34156105d957600080fd5b6105e1611238565b6040518082815260200191505060405180910390f35b341561060257600080fd5b61060a611242565b60405180826000191660001916815260200191505060405180910390f35b341561063357600080fd5b61065f600480803573ffffffffffffffffffffffffffffffffffffffff16906020019091905050611269565b005b341561066c57600080fd5b6106e5600480803573ffffffffffffffffffffffffffffffffffffffff1690602001909190803560001916906020019091908035906020019082018035906020019080806020026020016040519081016040528093929190818152602001838360200280828437820191505050505050919050506114bc565b604051808215151515815260200191505060405180910390f35b341561070a57600080fd5b6107126116bc565b604051808267ffffffffffffffff1667ffffffffffffffff16815260200191505060405180910390f35b341561074757600080fd5b61074f6116d6565b60405180826000191660001916815260200191505060405180910390f35b341561077857600080fd5b61078e600480803590602001909190505061170f565b6040518080602001828103825283818151815260200191508051906020019080838360005b838110156107ce5780820151818401526020810190506107b3565b50505050905090810190601f1680156107fb5780820380516001836020036101000a031916815260200191505b509250505060405180910390f35b341561081457600080fd5b610883600480803573ffffffffffffffffffffffffffffffffffffffff1690602001909190803590602001908201803590602001908080601f016020809104026020016040519081016040528093929190818152602001838380828437820191505050505050919050506117d7565b604051808215151515815260200191505060405180910390f35b34156108a857600080fd5b6108be6004808035906020019091905050611828565b604051808215151515815260200191505060405180910390f35b34156108e357600080fd5b610918600480803590602001909190803573ffffffffffffffffffffffffffffffffffffffff16906020019091905050611915565b604051808215151515815260200191505060405180910390f35b341561093d57600080fd5b610945611a40565b604051808273ffffffffffffffffffffffffffffffffffffffff1673ffffffffffffffffffffffffffffffffffffffff16815260200191505060405180910390f35b341561099257600080fd5b6109c7600480803590602001908201803590602001919091929080359060200190820180359060200191909192905050611a65565b6040518082815260200191505060405180910390f35b34156109e857600080fd5b610a38600480803590602001908201803590602001908080601f01602080910402602001604051908101604052809392919081815260200183838082843782019150505050505091905050611b4d565b005b3415610a4557600080fd5b610a4d611b82565b6040518082815260200191505060405180910390f35b3415610a6e57600080fd5b610a9a600480803590602001909190803515159060200190919080351515906020019091905050611b88565b005b3415610aa757600080fd5b610af7600480803590602001908201803590602001908080601f01602080910402602001604051908101604052809392919081815260200183838082843782019150505050505091905050611bbf565b604051808273ffffffffffffffffffffffffffffffffffffffff1673ffffffffffffffffffffffffffffffffffffffff16815260200191505060405180910390f35b3415610b4457600080fd5b610b5a6004808035906020019091905050611cc6565b005b3415610b6757600080fd5b610b6f611cf7565b6040518082815260200191505060405180910390f35b3415610b9057600080fd5b610b98611cfd565b604051808273ffffffffffffffffffffffffffffffffffffffff1673ffffffffffffffffffffffffffffffffffffffff16815260200191505060405180910390f35b3415610be557600080fd5b610bed611d23565b6040518082815260200191505060405180910390f35b3415610c0e57600080fd5b610c16611d2f565b604051808215151515815260200191505060405180910390f35b60405180807f4d4f444946595f51554f52554d5f524f4c45000000000000000000000000000081525060120190506040518091039020610c7282606654611d38565b610c7d3383836114bc565b1515610c8857600080fd5b6000600354111515610c9957600080fd5b600083111515610ca857600080fd5b8260655410151515610cb957600080fd5b826066819055507f28bb663e324957c72fa46db87d8afa7591b1c293b2c7ad06e3574eace993ff6d836040518082815260200191505060405180910390a1505050565b7fd6f028ca0e8edb4a8c9757ca4fdccab25fa1e0317da1188108f7d2dee14902fb60010281565b600060405180807f4352454154455f564f5445535f524f4c4500000000000000000000000000000081525060110190506040518091039020610d8533826000604051805910610d6f5750595b90808252806020026020018201604052506114bc565b1515610d9057600080fd5b610dff87878080601f01602080910402602001604051908101604052809392919081815260200183838082843782019150505050505086868080601f01602080910402602001604051908101604052809392919081815260200183838082843782019150505050505085611da4565b91505095945050505050565b6000806000809054906101000a900473ffffffffffffffffffffffffffffffffffffffff1673ffffffffffffffffffffffffffffffffffffffff1614151515610e5357600080fd5b6000809054906101000a900473ffffffffffffffffffffffffffffffffffffffff1673ffffffffffffffffffffffffffffffffffffffff166332f0a3b56000604051602001526040518163ffffffff167c0100000000000000000000000000000000000000000000000000000000028152600401602060405180830381600087803b1515610ee057600080fd5b6102c65a03f11515610ef157600080fd5b50505060405180519050905090565b60405180807f4d4f444946595f51554f52554d5f524f4c4500000000000000000000000000008152506012019050604051809103902081565b6000600354141515610f4a57600080fd5b610f52611fc7565b600082111515610f6157600080fd5b670de0b6b3a76400008311151515610f7857600080fd5b818310151515610f8757600080fd5b83606460006101000a81548173ffffffffffffffffffffffffffffffffffffffff021916908373ffffffffffffffffffffffffffffffffffffffff160217905550826065819055508160668190555080606760006101000a81548167ffffffffffffffff021916908367ffffffffffffffff16021790555060016068818180549050019150816110179190612b6c565b5050505050565b600060688381548110151561102f57fe5b90600052602060002090600a020160090160008373ffffffffffffffffffffffffffffffffffffffff1673ffffffffffffffffffffffffffffffffffffffff16815260200190815260200160002060009054906101000a900460ff16905092915050565b60008060008060008060008060006110a9612b9e565b600060688c8154811015156110ba57fe5b90600052602060002090600a020190506110d381611fe8565b9a508060080160009054906101000a900460ff1699508060000160009054906101000a900473ffffffffffffffffffffffffffffffffffffffff1698508060000160149054906101000a900467ffffffffffffffff1697508060010154965080600201549550806003015494508060040154935080600501549250806007018054600181600116156101000203166002900480601f0160208091040260200160405190810160405280929190818152602001828054600181600116156101000203166002900480156111e65780601f106111bb576101008083540402835291602001916111e6565b820191906000526020600020905b8154815290600101906020018083116111c957829003601f168201915b50505050509150509193959799509193959799565b7fddbcfd564f642ab5627cf68b9b7d374fb4f8a36e941a75d89c87998cef03bd6160010281565b600060019050919050565b60015481565b600081565b6000600354905090565b7f34f01c17e9be6ddbf2c61f37b5b1fb9f1a090a975006581ad19bda1c4d38287160010281565b60008061127583611222565b151561128057600080fd5b611288610e0b565b91506112938261206d565b151561129e57600080fd5b600073ffffffffffffffffffffffffffffffffffffffff168373ffffffffffffffffffffffffffffffffffffffff16141561132f578173ffffffffffffffffffffffffffffffffffffffff166108fc3073ffffffffffffffffffffffffffffffffffffffff16319081150290604051600060405180830381858888f19350505050151561132a57600080fd5b6114b7565b8273ffffffffffffffffffffffffffffffffffffffff166370a08231306000604051602001526040518263ffffffff167c0100000000000000000000000000000000000000000000000000000000028152600401808273ffffffffffffffffffffffffffffffffffffffff1673ffffffffffffffffffffffffffffffffffffffff168152602001915050602060405180830381600087803b15156113d257600080fd5b6102c65a03f115156113e357600080fd5b5050506040518051905090508273ffffffffffffffffffffffffffffffffffffffff1663a9059cbb83836000604051602001526040518363ffffffff167c0100000000000000000000000000000000000000000000000000000000028152600401808373ffffffffffffffffffffffffffffffffffffffff1673ffffffffffffffffffffffffffffffffffffffff16815260200182815260200192505050602060405180830381600087803b151561149a57600080fd5b6102c65a03f115156114ab57600080fd5b50505060405180519050505b505050565b60006114c6612b9e565b600080845111156114df57602084510290508391508082525b60008060009054906101000a900473ffffffffffffffffffffffffffffffffffffffff1673ffffffffffffffffffffffffffffffffffffffff1614806116b157506000809054906101000a900473ffffffffffffffffffffffffffffffffffffffff1673ffffffffffffffffffffffffffffffffffffffff1663fdef9106873088866000604051602001526040518563ffffffff167c0100000000000000000000000000000000000000000000000000000000028152600401808573ffffffffffffffffffffffffffffffffffffffff1673ffffffffffffffffffffffffffffffffffffffff1681526020018473ffffffffffffffffffffffffffffffffffffffff1673ffffffffffffffffffffffffffffffffffffffff168152602001836000191660001916815260200180602001828103825283818151815260200191508051906020019080838360005b8381101561164757808201518184015260208101905061162c565b50505050905090810190601f1680156116745780820380516001836020036101000a031916815260200191505b5095505050505050602060405180830381600087803b151561169557600080fd5b6102c65a03f115156116a657600080fd5b505050604051805190505b925050509392505050565b606760009054906101000a900467ffffffffffffffff1681565b60405180807f4352454154455f564f5445535f524f4c450000000000000000000000000000008152506011019050604051809103902081565b611717612bb2565b60688281548110151561172657fe5b90600052602060002090600a02016006018054600181600116156101000203166002900480601f0160208091040260200160405190810160405280929190818152602001828054600181600116156101000203166002900480156117cb5780601f106117a0576101008083540402835291602001916117cb565b820191906000526020600020905b8154815290600101906020018083116117ae57829003601f168201915b50505050509050919050565b60006118208360405180807f4352454154455f564f5445535f524f4c450000000000000000000000000000008152506011019050604051809103902061181b6120bf565b6114bc565b905092915050565b600080600060688481548110151561183c57fe5b90600052602060002090600a020191508160080160009054906101000a900460ff161561186c576000925061190e565b611881826003015483600501546065546120ca565b1561188f576001925061190e565b6118aa8260040154836003015461211690919063ffffffff16565b90506118b582611fe8565b156118c3576000925061190e565b6118d48260030154826065546120ca565b15156118e3576000925061190e565b6118fa8260030154836005015484600201546120ca565b1515611909576000925061190e565b600192505b5050919050565b60008060688481548110151561192757fe5b90600052602060002090600a0201905061194081611fe8565b8015611a3757506000606460009054906101000a900473ffffffffffffffffffffffffffffffffffffffff1673ffffffffffffffffffffffffffffffffffffffff16634ee2cd7e8584600101546000604051602001526040518363ffffffff167c0100000000000000000000000000000000000000000000000000000000028152600401808373ffffffffffffffffffffffffffffffffffffffff1673ffffffffffffffffffffffffffffffffffffffff16815260200182815260200192505050602060405180830381600087803b1515611a1a57600080fd5b6102c65a03f11515611a2b57600080fd5b50505060405180519050115b91505092915050565b6000809054906101000a900473ffffffffffffffffffffffffffffffffffffffff1681565b600060405180807f4352454154455f564f5445535f524f4c4500000000000000000000000000000081525060110190506040518091039020611ac733826000604051805910611ab15750595b90808252806020026020018201604052506114bc565b1515611ad257600080fd5b611b4286868080601f01602080910402602001604051908101604052809392919081815260200183838082843782019150505050505085858080601f0160208091040260200160405190810160405280939291908181526020018383808284378201915050505050506001611da4565b915050949350505050565b611b5733826117d7565b1515611b6257600080fd5b611b7e8160206040519081016040528060008152506001611da4565b5050565b60665481565b6000600354111515611b9957600080fd5b611ba38333611915565b1515611bae57600080fd5b611bba83833384612137565b505050565b6000611bc9612456565b73ffffffffffffffffffffffffffffffffffffffff166304bf2a7f836000604051602001526040518263ffffffff167c01000000000000000000000000000000000000000000000000000000000281526004018080602001828103825283818151815260200191508051906020019080838360005b83811015611c59578082015181840152602081019050611c3e565b50505050905090810190601f168015611c865780820380516001836020036101000a031916815260200191505b5092505050602060405180830381600087803b1515611ca457600080fd5b6102c65a03f11515611cb557600080fd5b505050604051805190509050919050565b6000600354111515611cd757600080fd5b611ce081611828565b1515611ceb57600080fd5b611cf481612540565b50565b60655481565b606460009054906101000a900473ffffffffffffffffffffffffffffffffffffffff1681565b670de0b6b3a764000081565b60006001905090565b611d40612bc6565b6002604051805910611d4f5750595b9080825280602002602001820160405250905082816000815181101515611d7257fe5b906020019060200201818152505081816001815181101515611d9057fe5b906020019060200201818152505092915050565b6000806000600354111515611db857600080fd5b60688054809190600101611dcc9190612b6c565b9150606882815481101515611ddd57fe5b90600052602060002090600a0201905084816007019080519060200190611e05929190612bda565b50338160000160006101000a81548173ffffffffffffffffffffffffffffffffffffffff021916908373ffffffffffffffffffffffffffffffffffffffff160217905550428160000160146101000a81548167ffffffffffffffff021916908367ffffffffffffffff16021790555083816006019080519060200190611e8c929190612c5a565b506001611e976126a5565b038160010181905550606460009054906101000a900473ffffffffffffffffffffffffffffffffffffffff1673ffffffffffffffffffffffffffffffffffffffff1663981b24d082600101546000604051602001526040518263ffffffff167c010000000000000000000000000000000000000000000000000000000002815260040180828152602001915050602060405180830381600087803b1515611f3d57600080fd5b6102c65a03f11515611f4e57600080fd5b5050506040518051905081600501819055506066548160020181905550817f33c2d6285ba1442f7dd954820743aacec7468bc52e1671024b948f48f132264060405160405180910390a2828015611fab5750611faa8233611915565b5b15611fbf57611fbe826001336001612137565b5b509392505050565b6000600354141515611fd857600080fd5b611fe06126a5565b600381905550565b6000612035606760009054906101000a900467ffffffffffffffff168360000160149054906101000a900467ffffffffffffffff1667ffffffffffffffff166126ad90919063ffffffff16565b67ffffffffffffffff164267ffffffffffffffff1610801561206657508160080160009054906101000a900460ff16155b9050919050565b600080600073ffffffffffffffffffffffffffffffffffffffff168373ffffffffffffffffffffffffffffffffffffffff1614156120ae57600091506120b9565b823b90506000811191505b50919050565b6120c7612bc6565b90565b60008060008414156120df576000915061210e565b836120fb670de0b6b3a7640000876126e290919063ffffffff16565b81151561210457fe5b0490508281101591505b509392505050565b600080828401905083811015151561212d57600080fd5b8091505092915050565b600080600060688781548110151561214b57fe5b90600052602060002090600a02019250606460009054906101000a900473ffffffffffffffffffffffffffffffffffffffff1673ffffffffffffffffffffffffffffffffffffffff16634ee2cd7e8685600101546000604051602001526040518363ffffffff167c0100000000000000000000000000000000000000000000000000000000028152600401808373ffffffffffffffffffffffffffffffffffffffff1673ffffffffffffffffffffffffffffffffffffffff16815260200182815260200192505050602060405180830381600087803b151561222c57600080fd5b6102c65a03f1151561223d57600080fd5b5050506040518051905091508260090160008673ffffffffffffffffffffffffffffffffffffffff1673ffffffffffffffffffffffffffffffffffffffff16815260200190815260200160002060009054906101000a900460ff169050600160028111156122a757fe5b8160028111156122b357fe5b14156122d9576122d082846003015461271890919063ffffffff16565b83600301819055505b6002808111156122e557fe5b8160028111156122f157fe5b14156123175761230e82846004015461271890919063ffffffff16565b83600401819055505b85156123415761233482846003015461211690919063ffffffff16565b8360030181905550612361565b61235882846004015461211690919063ffffffff16565b83600401819055505b8561236d576002612370565b60015b8360090160008773ffffffffffffffffffffffffffffffffffffffff1673ffffffffffffffffffffffffffffffffffffffff16815260200190815260200160002060006101000a81548160ff021916908360028111156123cc57fe5b02179055508473ffffffffffffffffffffffffffffffffffffffff16877fb34ee265e3d4f5ec4e8b52d59b2a9be8fceca2f274ebc080d8fba797fea9391f888560405180831515151581526020018281526020019250505060405180910390a383801561243e575061243d87611828565b5b1561244d5761244c87612540565b5b50505050505050565b6000806000809054906101000a900473ffffffffffffffffffffffffffffffffffffffff1673ffffffffffffffffffffffffffffffffffffffff166342c71f1d7f34f01c17e9be6ddbf2c61f37b5b1fb9f1a090a975006581ad19bda1c4d3828716001026000604051602001526040518263ffffffff167c0100000000000000000000000000000000000000000000000000000000028152600401808260001916600019168152602001915050602060405180830381600087803b151561251c57600080fd5b6102c65a03f1151561252d57600080fd5b5050506040518051905090508091505090565b600061254a612b9e565b60688381548110151561255957fe5b90600052602060002090600a0201915060018260080160006101000a81548160ff02191690831515021790555060006040518059106125955750595b9080825280601f01601f19166020018201604052509050612672826007018054600181600116156101000203166002900480601f0160208091040260200160405190810160405280929190818152602001828054600181600116156101000203166002900480156126475780601f1061261c57610100808354040283529160200191612647565b820191906000526020600020905b81548152906001019060200180831161262a57829003601f168201915b505050505082600060405180591061265c5750595b9080825280602002602001820160405250612734565b50827fbf8e2b108bb7c980e08903a8a46527699d5e84905a082d56dacb4150725c8cab60405160405180910390a2505050565b600043905090565b60008082840190508367ffffffffffffffff168167ffffffffffffffff16101515156126d857600080fd5b8091505092915050565b60008082840290506000841480612703575082848281151561270057fe5b04145b151561270e57600080fd5b8091505092915050565b600082821115151561272957600080fd5b818303905092915050565b61273c612b9e565b6000612746612b9e565b6000612750612b9e565b6000806000809054906101000a900473ffffffffffffffffffffffffffffffffffffffff16915060015490506127858a611bbf565b9550600073ffffffffffffffffffffffffffffffffffffffff168673ffffffffffffffffffffffffffffffffffffffff16141515156127c357600080fd5b6127d889898c6129989092919063ffffffff16565b9450600073ffffffffffffffffffffffffffffffffffffffff1663279cea3590507c01000000000000000000000000000000000000000000000000000000000293508573ffffffffffffffffffffffffffffffffffffffff16847c01000000000000000000000000000000000000000000000000000000009004866040518263ffffffff167c010000000000000000000000000000000000000000000000000000000002815260040180828051906020019080838360005b838110156128ab578082015181840152602081019050612890565b50505050905090810190601f1680156128d85780820380516001836020036101000a031916815260200191505b509150506000604051808303818661646e5a03f49250505015156128fb57600080fd5b612903612a5e565b92506000835111151561291557600080fd5b8296508173ffffffffffffffffffffffffffffffffffffffff166000809054906101000a900473ffffffffffffffffffffffffffffffffffffffff1673ffffffffffffffffffffffffffffffffffffffff1614151561297357600080fd5b80600019166001546000191614151561298b57600080fd5b5050505050509392505050565b6129a0612b9e565b600080600080606093506129b388612a94565b602002840192506129c387612a94565b602002830191506129d386612ad0565b60200282019050806040518059106129e85750595b9080825280601f01601f19166020018201604052509450836020860152826040860152816060860152612a2685612a1e8a612ade565b868b51612ae8565b612a3b85612a3389612ade565b858a51612ae8565b612a5385612a4888612b07565b8460208a5102612ae8565b505050509392505050565b612a66612b9e565b3d8060008114612a8b576040519250602082018301604052602082036020843e612a8c565b5b505080905090565b60008060208351811515612aa457fe5b0611612ab1576000612ab4565b60015b60ff1660208351811515612ac457fe5b04600101019050919050565b600081516001019050919050565b6000819050919050565b60008260208601019050612b00818560208501612b11565b5050505050565b6000819050919050565b6000806000808593508692508491505b602082101515612b465783518352602083019250602084019350602082039150612b21565b6001826020036101000a0390508019845116818451168181178552505050505050505050565b815481835581811511612b9957600a0281600a028360005260206000209182019101612b989190612cda565b5b505050565b602060405190810160405280600081525090565b602060405190810160405280600081525090565b602060405190810160405280600081525090565b828054600181600116156101000203166002900490600052602060002090601f016020900481019282601f10612c1b57805160ff1916838001178555612c49565b82800160010185558215612c49579182015b82811115612c48578251825591602001919060010190612c2d565b5b509050612c569190612d97565b5090565b828054600181600116156101000203166002900490600052602060002090601f016020900481019282601f10612c9b57805160ff1916838001178555612cc9565b82800160010185558215612cc9579182015b82811115612cc8578251825591602001919060010190612cad565b5b509050612cd69190612d97565b5090565b612d9491905b80821115612d9057600080820160006101000a81549073ffffffffffffffffffffffffffffffffffffffff02191690556000820160146101000a81549067ffffffffffffffff021916905560018201600090556002820160009055600382016000905560048201600090556005820160009055600682016000612d639190612dbc565b600782016000612d739190612e04565b6008820160006101000a81549060ff021916905550600a01612ce0565b5090565b90565b612db991905b80821115612db5576000816000905550600101612d9d565b5090565b90565b50805460018160011615610100020316600290046000825580601f10612de25750612e01565b601f016020900490600052602060002090810190612e009190612d97565b5b50565b50805460018160011615610100020316600290046000825580601f10612e2a5750612e49565b601f016020900490600052602060002090810190612e489190612d97565b5b505600a165627a7a7230582094512808c03ed79b36830d7b2c4ee10a46afee9bf65f0acbdb8f17daa6ff72e70029",
  "source": "pragma solidity 0.4.18;\n\nimport \"@aragon/os/contracts/apps/AragonApp.sol\";\nimport \"@aragon/os/contracts/common/IForwarder.sol\";\nimport \"@aragon/os/contracts/lib/minime/MiniMeToken.sol\";\nimport \"@aragon/os/contracts/lib/zeppelin/math/SafeMath.sol\";\nimport \"@aragon/os/contracts/lib/zeppelin/math/SafeMath64.sol\";\nimport \"@aragon/os/contracts/lib/misc/Migrations.sol\";\n\n\ncontract Voting is IForwarder, AragonApp {\n    using SafeMath for uint256;\n    using SafeMath64 for uint64;\n\n    MiniMeToken public token;\n    uint256 public supportRequiredPct;\n    uint256 public minAcceptQuorumPct;\n    uint64 public voteTime;\n\n    uint256 constant public PCT_BASE = 10 ** 18; // 0% = 0; 1% = 10^16; 100% = 10^18\n\n    bytes32 constant public CREATE_VOTES_ROLE = keccak256(\"CREATE_VOTES_ROLE\");\n    bytes32 constant public MODIFY_QUORUM_ROLE = keccak256(\"MODIFY_QUORUM_ROLE\");\n\n    enum VoterState { Absent, Yea, Nay }\n\n    struct Vote {\n        address creator;\n        uint64 startDate;\n        uint256 snapshotBlock;\n        uint256 minAcceptQuorumPct;\n        uint256 yea;\n        uint256 nay;\n        uint256 totalVoters;\n        string metadata;\n        bytes executionScript;\n        bool executed;\n        mapping (address => VoterState) voters;\n    }\n\n    Vote[] internal votes; // first index is 1\n\n    event StartVote(uint256 indexed voteId);\n    event CastVote(uint256 indexed voteId, address indexed voter, bool supports, uint256 stake);\n    event ExecuteVote(uint256 indexed voteId);\n    event ChangeMinQuorum(uint256 minAcceptQuorumPct);\n\n    /**\n    * @notice Initializes Voting app with `_token.symbol(): string` for governance, minimum support of `(_supportRequiredPct - _supportRequiredPct % 10^16) / 10^14`, minimum acceptance quorum of `(_minAcceptQuorumPct - _minAcceptQuorumPct % 10^16) / 10^14` and vote duations of `(_voteTime - _voteTime % 86400) / 86400` day `_voteTime >= 172800 ? 's' : ''`\n    * @param _token MiniMeToken Address that will be used as governance token\n    * @param _supportRequiredPct Percentage of yeas in casted votes for a vote to succeed (expressed as a percentage of 10^18; eg. 10^16 = 1%, 10^18 = 100%)\n    * @param _minAcceptQuorumPct Percentage of yeas in total possible votes for a vote to succeed (expressed as a percentage of 10^18; eg. 10^16 = 1%, 10^18 = 100%)\n    * @param _voteTime Seconds that a vote will be open for token holders to vote (unless enough yeas or nays have been cast to make an early decision)\n    */\n    function initialize(\n        MiniMeToken _token,\n        uint256 _supportRequiredPct,\n        uint256 _minAcceptQuorumPct,\n        uint64 _voteTime\n    ) onlyInit external\n    {\n        initialized();\n\n        require(_minAcceptQuorumPct > 0);\n        require(_supportRequiredPct <= PCT_BASE);\n        require(_supportRequiredPct >= _minAcceptQuorumPct);\n\n        token = _token;\n        supportRequiredPct = _supportRequiredPct;\n        minAcceptQuorumPct = _minAcceptQuorumPct;\n        voteTime = _voteTime;\n\n        votes.length += 1;\n    }\n\n    /**\n    * @notice Change minimum acceptance quorum to `(_minAcceptQuorumPct - _minAcceptQuorumPct % 10^16) / 10^14`%\n    * @param _minAcceptQuorumPct New acceptance quorum\n    */\n    function changeMinAcceptQuorumPct(uint256 _minAcceptQuorumPct) authP(MODIFY_QUORUM_ROLE, arr(_minAcceptQuorumPct, minAcceptQuorumPct)) isInitialized external {\n        require(_minAcceptQuorumPct > 0);\n        require(supportRequiredPct >= _minAcceptQuorumPct);\n        minAcceptQuorumPct = _minAcceptQuorumPct;\n\n        ChangeMinQuorum(_minAcceptQuorumPct);\n    }\n\n    /**\n    * @notice Create a new vote about \"`_metadata`\"\n    * @param _executionScript EVM script to be executed on approval\n    * @param _metadata Vote metadata\n    * @return voteId Id for newly created vote\n    */\n    function newVote(bytes _executionScript, string _metadata) auth(CREATE_VOTES_ROLE) external returns (uint256 voteId) {\n        return _newVote(_executionScript, _metadata, true);\n    }\n\n    /**\n     * @notice Create a new vote about \"`_metadata`\"\n     * @param _executionScript EVM script to be executed on approval\n     * @param _metadata Vote metadata\n     * @param _castVote Whether to also cast newly created vote\n     * @return voteId id for newly created vote\n     */\n    function newVote(bytes _executionScript, string _metadata, bool _castVote) auth(CREATE_VOTES_ROLE) external returns (uint256 voteId) {\n        return _newVote(_executionScript, _metadata, _castVote);\n    }\n\n    /**\n    * @notice Vote `_supports ? 'yea' : 'nay'` in vote #`_voteId`\n    * @param _voteId Id for vote\n    * @param _supports Whether voter supports the vote\n    * @param _executesIfDecided Whether the vote should execute its action if it becomes decided\n    */\n    function vote(uint256 _voteId, bool _supports, bool _executesIfDecided) isInitialized external {\n        require(canVote(_voteId, msg.sender));\n        _vote(\n            _voteId,\n            _supports,\n            msg.sender,\n            _executesIfDecided\n        );\n    }\n\n    /**\n    * @notice Execute the result of vote #`_voteId`\n    * @param _voteId Id for vote\n    */\n    function executeVote(uint256 _voteId) isInitialized external {\n        require(canExecute(_voteId));\n        _executeVote(_voteId);\n    }\n\n    function isForwarder() public pure returns (bool) {\n        return true;\n    }\n\n    /**\n    * @notice Creates a vote to execute the desired action, and casts a support vote\n    * @dev IForwarder interface conformance\n    * @param _evmScript Start vote with script\n    */\n    function forward(bytes _evmScript) public {\n        require(canForward(msg.sender, _evmScript));\n        _newVote(_evmScript, \"\", true);\n    }\n\n    function canForward(address _sender, bytes _evmCallScript) public view returns (bool) {\n        return canPerform(_sender, CREATE_VOTES_ROLE, arr());\n    }\n\n    function canVote(uint256 _voteId, address _voter) public view returns (bool) {\n        Vote storage vote = votes[_voteId];\n\n        return _isVoteOpen(vote) && token.balanceOfAt(_voter, vote.snapshotBlock) > 0;\n    }\n\n    function canExecute(uint256 _voteId) public view returns (bool) {\n        Vote storage vote = votes[_voteId];\n\n        if (vote.executed)\n            return false;\n\n        // Voting is already decided\n        if (_isValuePct(vote.yea, vote.totalVoters, supportRequiredPct))\n            return true;\n\n        uint256 totalVotes = vote.yea.add(vote.nay);\n\n        // vote ended?\n        if (_isVoteOpen(vote))\n            return false;\n        // has Support?\n        if (!_isValuePct(vote.yea, totalVotes, supportRequiredPct))\n            return false;\n        // has Min Quorum?\n        if (!_isValuePct(vote.yea, vote.totalVoters, vote.minAcceptQuorumPct))\n            return false;\n\n        return true;\n    }\n\n    function getVote(uint256 _voteId) public view returns (bool open, bool executed, address creator, uint64 startDate, uint256 snapshotBlock, uint256 minAcceptQuorum, uint256 yea, uint256 nay, uint256 totalVoters, bytes script) {\n        Vote storage vote = votes[_voteId];\n\n        open = _isVoteOpen(vote);\n        executed = vote.executed;\n        creator = vote.creator;\n        startDate = vote.startDate;\n        snapshotBlock = vote.snapshotBlock;\n        minAcceptQuorum = vote.minAcceptQuorumPct;\n        yea = vote.yea;\n        nay = vote.nay;\n        totalVoters = vote.totalVoters;\n        script = vote.executionScript;\n    }\n\n    function getVoteMetadata(uint256 _voteId) public view returns (string) {\n        return votes[_voteId].metadata;\n    }\n\n    function getVoterState(uint256 _voteId, address _voter) public view returns (VoterState) {\n        return votes[_voteId].voters[_voter];\n    }\n\n    function _newVote(bytes _executionScript, string _metadata, bool _castVote) isInitialized internal returns (uint256 voteId) {\n        voteId = votes.length++;\n        Vote storage vote = votes[voteId];\n        vote.executionScript = _executionScript;\n        vote.creator = msg.sender;\n        vote.startDate = uint64(now);\n        vote.metadata = _metadata;\n        vote.snapshotBlock = getBlockNumber() - 1; // avoid double voting in this very block\n        vote.totalVoters = token.totalSupplyAt(vote.snapshotBlock);\n        vote.minAcceptQuorumPct = minAcceptQuorumPct;\n\n        StartVote(voteId);\n\n        if (_castVote && canVote(voteId, msg.sender)) {\n            _vote(\n                voteId,\n                true,\n                msg.sender,\n                true\n            );\n        }\n    }\n\n    function _vote(\n        uint256 _voteId,\n        bool _supports,\n        address _voter,\n        bool _executesIfDecided\n    ) internal\n    {\n        Vote storage vote = votes[_voteId];\n\n        // this could re-enter, though we can assume the governance token is not malicious\n        uint256 voterStake = token.balanceOfAt(_voter, vote.snapshotBlock);\n        VoterState state = vote.voters[_voter];\n\n        // if voter had previously voted, decrease count\n        if (state == VoterState.Yea)\n            vote.yea = vote.yea.sub(voterStake);\n        if (state == VoterState.Nay)\n            vote.nay = vote.nay.sub(voterStake);\n\n        if (_supports)\n            vote.yea = vote.yea.add(voterStake);\n        else\n            vote.nay = vote.nay.add(voterStake);\n\n        vote.voters[_voter] = _supports ? VoterState.Yea : VoterState.Nay;\n\n        CastVote(\n            _voteId,\n            _voter,\n            _supports,\n            voterStake\n        );\n\n        if (_executesIfDecided && canExecute(_voteId))\n            _executeVote(_voteId);\n    }\n\n    function _executeVote(uint256 _voteId) internal {\n        Vote storage vote = votes[_voteId];\n\n        vote.executed = true;\n\n        bytes memory input = new bytes(0); // TODO: Consider input for voting scripts\n        runScript(vote.executionScript, input, new address[](0));\n\n        ExecuteVote(_voteId);\n    }\n\n    function _isVoteOpen(Vote storage vote) internal view returns (bool) {\n        return uint64(now) < vote.startDate.add(voteTime) && !vote.executed;\n    }\n\n    /**\n    * @dev Calculates whether `_value` is at least a percentage `_pct` of `_total`\n    */\n    function _isValuePct(uint256 _value, uint256 _total, uint256 _pct) internal pure returns (bool) {\n        if (_total == 0) {\n            return false;\n        }\n\n        uint256 computedPct = _value.mul(PCT_BASE) / _total;\n\n        return computedPct >= _pct;\n    }\n}\n",
  "sourcePath": "/Users/osarrouy/Documents/dapp/@pando/packages/core/contracts/Voting.sol",
  "compiler": {
    "name": "solc",
    "version": "0.4.18+commit.9cf6e910.Emscripten.clang"
  },
  "schemaVersion": "1.0.1",
  "updatedAt": "2018-07-26T08:56:35.060Z"
}