{
  "contractName": "VotingKit",
  "abi": [
    {
      "constant": true,
      "inputs": [],
      "name": "hasInitialized",
      "outputs": [
        {
          "name": "",
          "type": "bool"
        }
      ],
      "payable": false,
      "stateMutability": "view",
      "type": "function"
    },
    {
      "constant": true,
      "inputs": [],
      "name": "KERNEL_APP_ID",
      "outputs": [
        {
          "name": "",
          "type": "bytes32"
        }
      ],
      "payable": false,
      "stateMutability": "view",
      "type": "function"
    },
    {
      "constant": true,
      "inputs": [],
      "name": "quorum",
      "outputs": [
        {
          "name": "",
          "type": "uint256"
        }
      ],
      "payable": false,
      "stateMutability": "view",
      "type": "function"
    },
    {
      "constant": true,
      "inputs": [],
      "name": "APP_ADDR_NAMESPACE",
      "outputs": [
        {
          "name": "",
          "type": "bytes32"
        }
      ],
      "payable": false,
      "stateMutability": "view",
      "type": "function"
    },
    {
      "constant": true,
      "inputs": [],
      "name": "getRecoveryVault",
      "outputs": [
        {
          "name": "",
          "type": "address"
        }
      ],
      "payable": false,
      "stateMutability": "view",
      "type": "function"
    },
    {
      "constant": true,
      "inputs": [
        {
          "name": "",
          "type": "uint256"
        }
      ],
      "name": "RFLVotes",
      "outputs": [
        {
          "name": "RFLid",
          "type": "uint256"
        },
        {
          "name": "blockstamp",
          "type": "uint256"
        },
        {
          "name": "supply",
          "type": "uint256"
        },
        {
          "name": "quorum",
          "type": "uint256"
        },
        {
          "name": "required",
          "type": "uint256"
        },
        {
          "name": "yea",
          "type": "uint256"
        },
        {
          "name": "nay",
          "type": "uint256"
        },
        {
          "name": "total",
          "type": "uint256"
        },
        {
          "name": "participation",
          "type": "uint256"
        },
        {
          "name": "state",
          "type": "uint8"
        }
      ],
      "payable": false,
      "stateMutability": "view",
      "type": "function"
    },
    {
      "constant": true,
      "inputs": [],
      "name": "UPDATE_KIT_PARAMETERS_ROLE",
      "outputs": [
        {
          "name": "",
          "type": "bytes32"
        }
      ],
      "payable": false,
      "stateMutability": "view",
      "type": "function"
    },
    {
      "constant": true,
      "inputs": [
        {
          "name": "",
          "type": "uint256"
        },
        {
          "name": "",
          "type": "address"
        }
      ],
      "name": "RFLVotesBallots",
      "outputs": [
        {
          "name": "state",
          "type": "uint8"
        },
        {
          "name": "value",
          "type": "uint256"
        }
      ],
      "payable": false,
      "stateMutability": "view",
      "type": "function"
    },
    {
      "constant": true,
      "inputs": [
        {
          "name": "",
          "type": "uint256"
        }
      ],
      "name": "RFIVotes",
      "outputs": [
        {
          "name": "RFIid",
          "type": "uint256"
        },
        {
          "name": "blockstamp",
          "type": "uint256"
        },
        {
          "name": "supply",
          "type": "uint256"
        },
        {
          "name": "quorum",
          "type": "uint256"
        },
        {
          "name": "required",
          "type": "uint256"
        },
        {
          "name": "yea",
          "type": "uint256"
        },
        {
          "name": "nay",
          "type": "uint256"
        },
        {
          "name": "participation",
          "type": "uint256"
        },
        {
          "name": "state",
          "type": "uint8"
        }
      ],
      "payable": false,
      "stateMutability": "view",
      "type": "function"
    },
    {
      "constant": true,
      "inputs": [],
      "name": "EVMSCRIPT_REGISTRY_APP_ID",
      "outputs": [
        {
          "name": "",
          "type": "bytes32"
        }
      ],
      "payable": false,
      "stateMutability": "view",
      "type": "function"
    },
    {
      "constant": true,
      "inputs": [],
      "name": "CORE_NAMESPACE",
      "outputs": [
        {
          "name": "",
          "type": "bytes32"
        }
      ],
      "payable": false,
      "stateMutability": "view",
      "type": "function"
    },
    {
      "constant": true,
      "inputs": [
        {
          "name": "token",
          "type": "address"
        }
      ],
      "name": "allowRecoverability",
      "outputs": [
        {
          "name": "",
          "type": "bool"
        }
      ],
      "payable": false,
      "stateMutability": "view",
      "type": "function"
    },
    {
      "constant": true,
      "inputs": [],
      "name": "appId",
      "outputs": [
        {
          "name": "",
          "type": "bytes32"
        }
      ],
      "payable": false,
      "stateMutability": "view",
      "type": "function"
    },
    {
      "constant": true,
      "inputs": [],
      "name": "ETH",
      "outputs": [
        {
          "name": "",
          "type": "address"
        }
      ],
      "payable": false,
      "stateMutability": "view",
      "type": "function"
    },
    {
      "constant": true,
      "inputs": [],
      "name": "getInitializationBlock",
      "outputs": [
        {
          "name": "",
          "type": "uint256"
        }
      ],
      "payable": false,
      "stateMutability": "view",
      "type": "function"
    },
    {
      "constant": false,
      "inputs": [
        {
          "name": "_token",
          "type": "address"
        }
      ],
      "name": "transferToVault",
      "outputs": [],
      "payable": false,
      "stateMutability": "nonpayable",
      "type": "function"
    },
    {
      "constant": true,
      "inputs": [
        {
          "name": "_sender",
          "type": "address"
        },
        {
          "name": "_role",
          "type": "bytes32"
        },
        {
          "name": "_params",
          "type": "uint256[]"
        }
      ],
      "name": "canPerform",
      "outputs": [
        {
          "name": "",
          "type": "bool"
        }
      ],
      "payable": false,
      "stateMutability": "view",
      "type": "function"
    },
    {
      "constant": true,
      "inputs": [
        {
          "name": "",
          "type": "uint256"
        },
        {
          "name": "",
          "type": "address"
        }
      ],
      "name": "RFIVotesBallots",
      "outputs": [
        {
          "name": "",
          "type": "uint8"
        }
      ],
      "payable": false,
      "stateMutability": "view",
      "type": "function"
    },
    {
      "constant": true,
      "inputs": [],
      "name": "ACL_APP_ID",
      "outputs": [
        {
          "name": "",
          "type": "bytes32"
        }
      ],
      "payable": false,
      "stateMutability": "view",
      "type": "function"
    },
    {
      "constant": true,
      "inputs": [],
      "name": "api",
      "outputs": [
        {
          "name": "",
          "type": "address"
        }
      ],
      "payable": false,
      "stateMutability": "view",
      "type": "function"
    },
    {
      "constant": true,
      "inputs": [],
      "name": "kernel",
      "outputs": [
        {
          "name": "",
          "type": "address"
        }
      ],
      "payable": false,
      "stateMutability": "view",
      "type": "function"
    },
    {
      "constant": true,
      "inputs": [],
      "name": "APP_BASES_NAMESPACE",
      "outputs": [
        {
          "name": "",
          "type": "bytes32"
        }
      ],
      "payable": false,
      "stateMutability": "view",
      "type": "function"
    },
    {
      "constant": true,
      "inputs": [],
      "name": "required",
      "outputs": [
        {
          "name": "",
          "type": "uint256"
        }
      ],
      "payable": false,
      "stateMutability": "view",
      "type": "function"
    },
    {
      "constant": true,
      "inputs": [],
      "name": "isPetrified",
      "outputs": [
        {
          "name": "",
          "type": "bool"
        }
      ],
      "payable": false,
      "stateMutability": "view",
      "type": "function"
    },
    {
      "constant": true,
      "inputs": [
        {
          "name": "_script",
          "type": "bytes"
        }
      ],
      "name": "getExecutor",
      "outputs": [
        {
          "name": "",
          "type": "address"
        }
      ],
      "payable": false,
      "stateMutability": "view",
      "type": "function"
    },
    {
      "constant": true,
      "inputs": [],
      "name": "token",
      "outputs": [
        {
          "name": "",
          "type": "address"
        }
      ],
      "payable": false,
      "stateMutability": "view",
      "type": "function"
    },
    {
      "anonymous": false,
      "inputs": [
        {
          "indexed": false,
          "name": "id",
          "type": "uint256"
        }
      ],
      "name": "NewRFIVote",
      "type": "event"
    },
    {
      "anonymous": false,
      "inputs": [
        {
          "indexed": false,
          "name": "id",
          "type": "uint256"
        },
        {
          "indexed": false,
          "name": "voter",
          "type": "address"
        },
        {
          "indexed": false,
          "name": "supports",
          "type": "bool"
        },
        {
          "indexed": false,
          "name": "stake",
          "type": "uint256"
        }
      ],
      "name": "CastRFIVote",
      "type": "event"
    },
    {
      "anonymous": false,
      "inputs": [
        {
          "indexed": false,
          "name": "id",
          "type": "uint256"
        }
      ],
      "name": "CancelRFIVote",
      "type": "event"
    },
    {
      "anonymous": false,
      "inputs": [
        {
          "indexed": false,
          "name": "id",
          "type": "uint256"
        }
      ],
      "name": "ExecuteRFIVote",
      "type": "event"
    },
    {
      "anonymous": false,
      "inputs": [
        {
          "indexed": false,
          "name": "id",
          "type": "uint256"
        }
      ],
      "name": "NewRFLVote",
      "type": "event"
    },
    {
      "anonymous": false,
      "inputs": [
        {
          "indexed": false,
          "name": "id",
          "type": "uint256"
        },
        {
          "indexed": false,
          "name": "voter",
          "type": "address"
        },
        {
          "indexed": false,
          "name": "supports",
          "type": "bool"
        },
        {
          "indexed": false,
          "name": "value",
          "type": "uint256"
        },
        {
          "indexed": false,
          "name": "stake",
          "type": "uint256"
        }
      ],
      "name": "CastRFLVote",
      "type": "event"
    },
    {
      "anonymous": false,
      "inputs": [
        {
          "indexed": false,
          "name": "id",
          "type": "uint256"
        }
      ],
      "name": "CancelRFLVote",
      "type": "event"
    },
    {
      "anonymous": false,
      "inputs": [
        {
          "indexed": false,
          "name": "id",
          "type": "uint256"
        }
      ],
      "name": "ExecuteRFLVote",
      "type": "event"
    },
    {
      "anonymous": false,
      "inputs": [
        {
          "indexed": true,
          "name": "id",
          "type": "uint256"
        },
        {
          "indexed": false,
          "name": "sender",
          "type": "address"
        }
      ],
      "name": "CreateRFI",
      "type": "event"
    },
    {
      "anonymous": false,
      "inputs": [
        {
          "indexed": true,
          "name": "id",
          "type": "uint256"
        },
        {
          "indexed": false,
          "name": "sender",
          "type": "address"
        }
      ],
      "name": "MergeRFI",
      "type": "event"
    },
    {
      "anonymous": false,
      "inputs": [
        {
          "indexed": true,
          "name": "id",
          "type": "uint256"
        },
        {
          "indexed": false,
          "name": "sender",
          "type": "address"
        }
      ],
      "name": "RejectRFI",
      "type": "event"
    },
    {
      "anonymous": false,
      "inputs": [
        {
          "indexed": true,
          "name": "id",
          "type": "uint256"
        },
        {
          "indexed": false,
          "name": "sender",
          "type": "address"
        }
      ],
      "name": "CreateRFL",
      "type": "event"
    },
    {
      "anonymous": false,
      "inputs": [
        {
          "indexed": true,
          "name": "id",
          "type": "uint256"
        },
        {
          "indexed": false,
          "name": "value",
          "type": "uint256"
        },
        {
          "indexed": false,
          "name": "sender",
          "type": "address"
        }
      ],
      "name": "AcceptRFL",
      "type": "event"
    },
    {
      "anonymous": false,
      "inputs": [
        {
          "indexed": true,
          "name": "id",
          "type": "uint256"
        },
        {
          "indexed": false,
          "name": "sender",
          "type": "address"
        }
      ],
      "name": "RejectRFL",
      "type": "event"
    },
    {
      "anonymous": false,
      "inputs": [
        {
          "indexed": true,
          "name": "executor",
          "type": "address"
        },
        {
          "indexed": false,
          "name": "script",
          "type": "bytes"
        },
        {
          "indexed": false,
          "name": "input",
          "type": "bytes"
        },
        {
          "indexed": false,
          "name": "returnData",
          "type": "bytes"
        }
      ],
      "name": "ScriptResult",
      "type": "event"
    },
    {
      "constant": false,
      "inputs": [
        {
          "name": "_api",
          "type": "address"
        },
        {
          "name": "_quorum",
          "type": "uint256"
        },
        {
          "name": "_required",
          "type": "uint256"
        }
      ],
      "name": "initialize",
      "outputs": [],
      "payable": false,
      "stateMutability": "nonpayable",
      "type": "function"
    },
    {
      "constant": false,
      "inputs": [
        {
          "components": [
            {
              "name": "origin",
              "type": "address"
            },
            {
              "name": "tree",
              "type": "string"
            },
            {
              "name": "message",
              "type": "string"
            },
            {
              "name": "metadata",
              "type": "string"
            },
            {
              "components": [
                {
                  "name": "api",
                  "type": "address"
                },
                {
                  "name": "hash",
                  "type": "bytes32"
                }
              ],
              "name": "parents",
              "type": "tuple[]"
            }
          ],
          "name": "_individuation",
          "type": "tuple"
        },
        {
          "components": [
            {
              "name": "destination",
              "type": "address"
            },
            {
              "name": "minimum",
              "type": "uint256"
            },
            {
              "name": "metadata",
              "type": "string"
            }
          ],
          "name": "_lineages",
          "type": "tuple[]"
        }
      ],
      "name": "createRFI",
      "outputs": [],
      "payable": false,
      "stateMutability": "nonpayable",
      "type": "function"
    },
    {
      "constant": false,
      "inputs": [
        {
          "name": "_RFIid",
          "type": "uint256"
        }
      ],
      "name": "mergeRFI",
      "outputs": [],
      "payable": false,
      "stateMutability": "nonpayable",
      "type": "function"
    },
    {
      "constant": false,
      "inputs": [
        {
          "name": "_RFIid",
          "type": "uint256"
        }
      ],
      "name": "rejectRFI",
      "outputs": [],
      "payable": false,
      "stateMutability": "nonpayable",
      "type": "function"
    },
    {
      "constant": false,
      "inputs": [
        {
          "name": "_RFLid",
          "type": "uint256"
        },
        {
          "name": "_value",
          "type": "uint256"
        }
      ],
      "name": "acceptRFL",
      "outputs": [],
      "payable": false,
      "stateMutability": "nonpayable",
      "type": "function"
    },
    {
      "constant": false,
      "inputs": [
        {
          "name": "_RFLid",
          "type": "uint256"
        }
      ],
      "name": "rejectRFL",
      "outputs": [],
      "payable": false,
      "stateMutability": "nonpayable",
      "type": "function"
    },
    {
      "constant": true,
      "inputs": [
        {
          "name": "_RFIid",
          "type": "uint256"
        }
      ],
      "name": "getRFIVote",
      "outputs": [
        {
          "components": [
            {
              "name": "RFIid",
              "type": "uint256"
            },
            {
              "name": "blockstamp",
              "type": "uint256"
            },
            {
              "name": "supply",
              "type": "uint256"
            },
            {
              "name": "quorum",
              "type": "uint256"
            },
            {
              "name": "required",
              "type": "uint256"
            },
            {
              "name": "yea",
              "type": "uint256"
            },
            {
              "name": "nay",
              "type": "uint256"
            },
            {
              "name": "participation",
              "type": "uint256"
            },
            {
              "name": "state",
              "type": "uint8"
            }
          ],
          "name": "",
          "type": "tuple"
        }
      ],
      "payable": false,
      "stateMutability": "view",
      "type": "function"
    },
    {
      "constant": true,
      "inputs": [
        {
          "name": "_RFLid",
          "type": "uint256"
        }
      ],
      "name": "getRFLVote",
      "outputs": [
        {
          "components": [
            {
              "name": "RFLid",
              "type": "uint256"
            },
            {
              "name": "blockstamp",
              "type": "uint256"
            },
            {
              "name": "supply",
              "type": "uint256"
            },
            {
              "name": "quorum",
              "type": "uint256"
            },
            {
              "name": "required",
              "type": "uint256"
            },
            {
              "name": "yea",
              "type": "uint256"
            },
            {
              "name": "nay",
              "type": "uint256"
            },
            {
              "name": "total",
              "type": "uint256"
            },
            {
              "name": "participation",
              "type": "uint256"
            },
            {
              "name": "state",
              "type": "uint8"
            }
          ],
          "name": "",
          "type": "tuple"
        }
      ],
      "payable": false,
      "stateMutability": "view",
      "type": "function"
    },
    {
      "constant": true,
      "inputs": [
        {
          "name": "_RFIid",
          "type": "uint256"
        },
        {
          "name": "_voter",
          "type": "address"
        }
      ],
      "name": "canVoteOnRFI",
      "outputs": [
        {
          "name": "",
          "type": "bool"
        }
      ],
      "payable": false,
      "stateMutability": "view",
      "type": "function"
    },
    {
      "constant": true,
      "inputs": [
        {
          "name": "_RFLid",
          "type": "uint256"
        },
        {
          "name": "_voter",
          "type": "address"
        }
      ],
      "name": "canVoteOnRFL",
      "outputs": [
        {
          "name": "",
          "type": "bool"
        }
      ],
      "payable": false,
      "stateMutability": "view",
      "type": "function"
    },
    {
      "constant": true,
      "inputs": [
        {
          "name": "_RFIid",
          "type": "uint256"
        }
      ],
      "name": "canExecuteRFIVote",
      "outputs": [
        {
          "name": "",
          "type": "bool"
        }
      ],
      "payable": false,
      "stateMutability": "view",
      "type": "function"
    },
    {
      "constant": true,
      "inputs": [
        {
          "name": "_RFLid",
          "type": "uint256"
        }
      ],
      "name": "canExecuteRFLVote",
      "outputs": [
        {
          "name": "",
          "type": "bool"
        }
      ],
      "payable": false,
      "stateMutability": "view",
      "type": "function"
    }
  ],
  "bytecode": "0x60806040526200001d62000023640100000000026401000000009004565b6200015b565b60006200003e62000087640100000000026401000000009004565b1415156200004b57600080fd5b620000857fffffffffffffffffffffffffffffffffffffffffffffffffffffffffffffffff620000d4640100000000026401000000009004565b565b6000620000cf7febb05b386a8d34882b8711d156f463690983dc47815980fb82aeeff1aa43579e6001026000191662000149640100000000026200238b176401000000009004565b905090565b6000620000ef62000087640100000000026401000000009004565b141515620000fc57600080fd5b62000146817febb05b386a8d34882b8711d156f463690983dc47815980fb82aeeff1aa43579e60010260001916620001546401000000000262003193179091906401000000009004565b50565b600081549050919050565b8082555050565b6158a3806200016b6000396000f3006080604052600436106101d8576000357c0100000000000000000000000000000000000000000000000000000000900463ffffffff1680630803fac0146101dd5780631113ed0d146102085780631703a01814610233578063178e60791461025e578063268a97f0146102895780632a4a03d2146102c65780633181f6b2146103035780633220fae51461032c57806332f0a3b514610369578063388b8479146103945780633b3e54f7146103da578063421daabe146104175780634cb574f114610442578063523c3250146104805780635c3e4c2e146104bd57806360b1e057146105025780636d5f5ca71461052d5780636e0b314c14610556578063748b052c1461057f578063756f6049146105a857806378f831d0146105d35780637a1ac61e146106105780637e7db6e11461063957806380afdea8146106765780638322fff2146106a15780638b3dd749146106cc5780639d4941d8146106f7578063a1658fad14610720578063b211043d1461075d578063cbcc65eb1461079a578063d2c18e0b146107c5578063d4aae0c4146107f0578063db8a61d41461081b578063dc8452cd14610846578063ddf6fa9c14610871578063de4796ed1461089a578063f92a79ff146108c5578063fc0c546a14610902575b600080fd5b3480156101e957600080fd5b506101f261092d565b6040516101ff919061501e565b60405180910390f35b34801561021457600080fd5b5061021d610958565b60405161022a9190615039565b60405180910390f35b34801561023f57600080fd5b5061024861097f565b60405161025591906152bb565b60405180910390f35b34801561026a57600080fd5b50610273610985565b6040516102809190615039565b60405180910390f35b34801561029557600080fd5b506102b060048036036102ab91908101906147c4565b6109ac565b6040516102bd919061527d565b60405180910390f35b3480156102d257600080fd5b506102ed60048036036102e891908101906147c4565b610abf565b6040516102fa9190615261565b60405180910390f35b34801561030f57600080fd5b5061032a600480360361032591908101906146d6565b610bc8565b005b34801561033857600080fd5b50610353600480360361034e9190810190614816565b610be9565b604051610360919061501e565b60405180910390f35b34801561037557600080fd5b5061037e610d6c565b60405161038b9190614f8e565b60405180910390f35b3480156103a057600080fd5b506103bb60048036036103b691908101906147c4565b610e58565b6040516103d19a9998979695949392919061544d565b60405180910390f35b3480156103e657600080fd5b5061040160048036036103fc91908101906147c4565b610eb9565b60405161040e919061501e565b60405180910390f35b34801561042357600080fd5b5061042c611244565b6040516104399190615039565b60405180910390f35b34801561044e57600080fd5b5061046960048036036104649190810190614816565b61127d565b604051610477929190615141565b60405180910390f35b34801561048c57600080fd5b506104a760048036036104a291908101906147c4565b6112bb565b6040516104b4919061501e565b60405180910390f35b3480156104c957600080fd5b506104e460048036036104df91908101906147c4565b61138f565b6040516104f9999897969594939291906153c0565b60405180910390f35b34801561050e57600080fd5b506105176113ea565b6040516105249190615039565b60405180910390f35b34801561053957600080fd5b50610554600480360361054f9190810190614852565b611411565b005b34801561056257600080fd5b5061057d600480360361057891908101906147c4565b61159c565b005b34801561058b57600080fd5b506105a660048036036105a191908101906147c4565b611608565b005b3480156105b457600080fd5b506105bd611674565b6040516105ca9190615039565b60405180910390f35b3480156105df57600080fd5b506105fa60048036036105f59190810190614816565b61169b565b604051610607919061501e565b60405180910390f35b34801561061c57600080fd5b5061063760048036036106329190810190614687565b61181e565b005b34801561064557600080fd5b50610660600480360361065b919081019061453b565b6119de565b60405161066d919061501e565b60405180910390f35b34801561068257600080fd5b5061068b6119e9565b6040516106989190615039565b60405180910390f35b3480156106ad57600080fd5b506106b6611a20565b6040516106c39190614f8e565b60405180910390f35b3480156106d857600080fd5b506106e1611a25565b6040516106ee91906152bb565b60405180910390f35b34801561070357600080fd5b5061071e6004803603610719919081019061453b565b611a5c565b005b34801561072c57600080fd5b506107476004803603610742919081019061458d565b611c82565b604051610754919061501e565b60405180910390f35b34801561076957600080fd5b50610784600480360361077f9190810190614816565b611dba565b6040516107919190615126565b60405180910390f35b3480156107a657600080fd5b506107af611de9565b6040516107bc9190615039565b60405180910390f35b3480156107d157600080fd5b506107da611e10565b6040516107e791906150f0565b60405180910390f35b3480156107fc57600080fd5b50610805611e35565b60405161081291906150ba565b60405180910390f35b34801561082757600080fd5b50610830611e6c565b60405161083d9190615039565b60405180910390f35b34801561085257600080fd5b5061085b611e93565b60405161086891906152bb565b60405180910390f35b34801561087d57600080fd5b50610898600480360361089391908101906147c4565b611e99565b005b3480156108a657600080fd5b506108af611f05565b6040516108bc919061501e565b60405180910390f35b3480156108d157600080fd5b506108ec60048036036108e7919081019061461d565b611f36565b6040516108f9919061509f565b60405180910390f35b34801561090e57600080fd5b50610917611fed565b60405161092491906150d5565b60405180910390f35b600080610938611a25565b90506000811415801561095257508061094f612013565b10155b91505090565b7f3b4bf6bf3ad5000ecf0f989d5befde585c6860fea3e574a4fab4c49d1c177d9c60010281565b60035481565b7fd6f028ca0e8edb4a8c9757ca4fdccab25fa1e0317da1188108f7d2dee14902fb60010281565b6109b4613a86565b8160006005600083815260200190815260200160002060000154111515610a10576040517f08c379a0000000000000000000000000000000000000000000000000000000008152600401610a07906151ca565b60405180910390fd5b6005600084815260200190815260200160002061014060405190810160405290816000820154815260200160018201548152602001600282015481526020016003820154815260200160048201548152602001600582015481526020016006820154815260200160078201548152602001600882015481526020016009820160009054906101000a900460ff166002811115610aa857fe5b6002811115610ab357fe5b81525050915050919050565b610ac7613ae5565b8160006004600083815260200190815260200160002060000154111515610b23576040517f08c379a0000000000000000000000000000000000000000000000000000000008152600401610b1a906151ea565b60405180910390fd5b60046000848152602001908152602001600020610120604051908101604052908160008201548152602001600182015481526020016002820154815260200160038201548152602001600482015481526020016005820154815260200160068201548152602001600782015481526020016008820160009054906101000a900460ff166002811115610bb157fe5b6002811115610bbc57fe5b81525050915050919050565b610bd061092d565b1515610bdb57600080fd5b610be5828261201b565b5050565b6000808360006005600083815260200190815260200160002060000154111515610c48576040517f08c379a0000000000000000000000000000000000000000000000000000000008152600401610c3f906151ca565b60405180910390fd5b60056000868152602001908152602001600020915060006002811115610c6a57fe5b8260090160009054906101000a900460ff166002811115610c8757fe5b148015610d6257506000600160009054906101000a900473ffffffffffffffffffffffffffffffffffffffff1673ffffffffffffffffffffffffffffffffffffffff16634ee2cd7e8685600101546040518363ffffffff167c0100000000000000000000000000000000000000000000000000000000028152600401610d0e929190614ff5565b602060405180830381600087803b158015610d2857600080fd5b505af1158015610d3c573d6000803e3d6000fd5b505050506040513d601f19601f82011682018060405250610d6091908101906147ed565b115b9250505092915050565b60008073ffffffffffffffffffffffffffffffffffffffff16610d8d611e35565b73ffffffffffffffffffffffffffffffffffffffff1614151515610db057600080fd5b610db8611e35565b73ffffffffffffffffffffffffffffffffffffffff166332f0a3b56040518163ffffffff167c0100000000000000000000000000000000000000000000000000000000028152600401602060405180830381600087803b158015610e1b57600080fd5b505af1158015610e2f573d6000803e3d6000fd5b505050506040513d601f19601f82011682018060405250610e539190810190614564565b905090565b60056020528060005260406000206000915090508060000154908060010154908060020154908060030154908060040154908060050154908060060154908060070154908060080154908060090160009054906101000a900460ff1690508a565b600080610ec4613b3d565b6000610ece613b78565b8560006004600083815260200190815260200160002060000154111515610f2a576040517f08c379a0000000000000000000000000000000000000000000000000000000008152600401610f21906151ea565b60405180910390fd5b6004600088815260200190815260200160002094506000809054906101000a900473ffffffffffffffffffffffffffffffffffffffff1673ffffffffffffffffffffffffffffffffffffffff1663fec7d70b86600001546040518263ffffffff167c0100000000000000000000000000000000000000000000000000000000028152600401610fb991906152bb565b600060405180830381600087803b158015610fd357600080fd5b505af1158015610fe7573d6000803e3d6000fd5b505050506040513d6000823e3d601f19601f820116820180604052506110109190810190614742565b93506000600281111561101f57fe5b8560080160009054906101000a900460ff16600281111561103c57fe5b14151561104c576000955061123a565b84600301548560070154101515611235578460040154856005015410151561122c57600092505b83606001515183101561122b576000809054906101000a900473ffffffffffffffffffffffffffffffffffffffff1673ffffffffffffffffffffffffffffffffffffffff1663889bd35d8560600151858151811015156110cf57fe5b906020019060200201516040518263ffffffff167c010000000000000000000000000000000000000000000000000000000002815260040161111191906152bb565b600060405180830381600087803b15801561112b57600080fd5b505af115801561113f573d6000803e3d6000fd5b505050506040513d6000823e3d601f19601f820116820180604052506111689190810190614783565b91508173__Pando_________________________________635d187b4890916040518263ffffffff167c01000000000000000000000000000000000000000000000000000000000281526004016111bf9190615299565b60206040518083038186803b1580156111d757600080fd5b505af41580156111eb573d6000803e3d6000fd5b505050506040513d601f19601f8201168201806040525061120f91908101906145f4565b151561121e576000955061123a565b8280600101935050611073565b5b6001955061123a565b600095505b5050505050919050565b60405180807f5550444154455f4b49545f504152414d45544552535f524f4c45000000000000815250601a019050604051809103902081565b6007602052816000526040600020602052806000526040600020600091509150508060000160009054906101000a900460ff16908060010154905082565b600080826000600560008381526020019081526020016000206000015411151561131a576040517f08c379a0000000000000000000000000000000000000000000000000000000008152600401611311906151ca565b60405180910390fd5b6005600085815260200190815260200160002091506000600281111561133c57fe5b8260090160009054906101000a900460ff16600281111561135957fe5b1415156113695760009250611388565b816003015482600801541015156113835760019250611388565b600092505b5050919050565b60046020528060005260406000206000915090508060000154908060010154908060020154908060030154908060040154908060050154908060060154908060070154908060080160009054906101000a900460ff16905089565b7fddbcfd564f642ab5627cf68b9b7d374fb4f8a36e941a75d89c87998cef03bd6160010281565b61141961092d565b151561142457600080fd5b8161142f8133610be9565b1515611470576040517f08c379a00000000000000000000000000000000000000000000000000000000081526004016114679061516a565b60405180910390fd5b82826000809054906101000a900473ffffffffffffffffffffffffffffffffffffffff1673ffffffffffffffffffffffffffffffffffffffff1663889bd35d836040518263ffffffff167c01000000000000000000000000000000000000000000000000000000000281526004016114e891906152bb565b600060405180830381600087803b15801561150257600080fd5b505af1158015611516573d6000803e3d6000fd5b505050506040513d6000823e3d601f19601f8201168201806040525061153f9190810190614783565b6000015160200151811015151561158b576040517f08c379a00000000000000000000000000000000000000000000000000000000081526004016115829061518a565b60405180910390fd5b611595858561224d565b5050505050565b6115a461092d565b15156115af57600080fd5b806115ba8133610be9565b15156115fb576040517f08c379a00000000000000000000000000000000000000000000000000000000081526004016115f29061516a565b60405180910390fd5b61160482612298565b5050565b61161061092d565b151561161b57600080fd5b80611626813361169b565b1515611667576040517f08c379a000000000000000000000000000000000000000000000000000000000815260040161165e9061520a565b60405180910390fd5b611670826122e0565b5050565b7fc681a85306374a5ab27f0bbc385296a54bcd314a1948b6cf61c4ea1bc44bb9f860010281565b60008083600060046000838152602001908152602001600020600001541115156116fa576040517f08c379a00000000000000000000000000000000000000000000000000000000081526004016116f1906151ea565b60405180910390fd5b6004600086815260200190815260200160002091506000600281111561171c57fe5b8260080160009054906101000a900460ff16600281111561173957fe5b14801561181457506000600160009054906101000a900473ffffffffffffffffffffffffffffffffffffffff1673ffffffffffffffffffffffffffffffffffffffff16634ee2cd7e8685600101546040518363ffffffff167c01000000000000000000000000000000000000000000000000000000000281526004016117c0929190614ff5565b602060405180830381600087803b1580156117da57600080fd5b505af11580156117ee573d6000803e3d6000fd5b505050506040513d601f19601f8201168201806040525061181291908101906147ed565b115b9250505092915050565b6000611828611a25565b14151561183457600080fd5b606482111580156118455750818111155b1515611886576040517f08c379a000000000000000000000000000000000000000000000000000000000815260040161187d906151aa565b60405180910390fd5b61188e612327565b826000806101000a81548173ffffffffffffffffffffffffffffffffffffffff021916908373ffffffffffffffffffffffffffffffffffffffff1602179055506000809054906101000a900473ffffffffffffffffffffffffffffffffffffffff1673ffffffffffffffffffffffffffffffffffffffff1663143700be6040518163ffffffff167c0100000000000000000000000000000000000000000000000000000000028152600401602060405180830381600087803b15801561195357600080fd5b505af1158015611967573d6000803e3d6000fd5b505050506040513d601f19601f8201168201806040525061198b9190810190614564565b600160006101000a81548173ffffffffffffffffffffffffffffffffffffffff021916908373ffffffffffffffffffffffffffffffffffffffff1602179055508160038190555080600281905550505050565b600060019050919050565b6000611a1b7fd625496217aa6a3453eecb9c3489dc5a53e6c67b444329ea2b2cbc9ff547639b60010260001916612380565b905090565b600081565b6000611a577febb05b386a8d34882b8711d156f463690983dc47815980fb82aeeff1aa43579e6001026000191661238b565b905090565b600080611a68836119de565b1515611a7357600080fd5b611a7b610d6c565b9150611a8682612396565b1515611a9157600080fd5b600073ffffffffffffffffffffffffffffffffffffffff168373ffffffffffffffffffffffffffffffffffffffff161415611b29578173ffffffffffffffffffffffffffffffffffffffff166108fc3073ffffffffffffffffffffffffffffffffffffffff16319081150290604051600060405180830381858888f19350505050158015611b23573d6000803e3d6000fd5b50611c7d565b8273ffffffffffffffffffffffffffffffffffffffff166370a08231306040518263ffffffff167c0100000000000000000000000000000000000000000000000000000000028152600401611b7e919061510b565b602060405180830381600087803b158015611b9857600080fd5b505af1158015611bac573d6000803e3d6000fd5b505050506040513d601f19601f82011682018060405250611bd091908101906147ed565b90508273ffffffffffffffffffffffffffffffffffffffff1663a9059cbb83836040518363ffffffff167c0100000000000000000000000000000000000000000000000000000000028152600401611c29929190614ff5565b602060405180830381600087803b158015611c4357600080fd5b505af1158015611c57573d6000803e3d6000fd5b505050506040513d601f19601f82011682018060405250611c7b91908101906145f4565b505b505050565b60008060606000611c9161092d565b1515611ca05760009350611db0565b611ca8611e35565b9250600073ffffffffffffffffffffffffffffffffffffffff168373ffffffffffffffffffffffffffffffffffffffff161415611ce85760009350611db0565b600085511115611d0057602085510290508491508082525b8273ffffffffffffffffffffffffffffffffffffffff1663fdef9106883089866040518563ffffffff167c0100000000000000000000000000000000000000000000000000000000028152600401611d5b9493929190614fa9565b602060405180830381600087803b158015611d7557600080fd5b505af1158015611d89573d6000803e3d6000fd5b505050506040513d601f19601f82011682018060405250611dad91908101906145f4565b93505b5050509392505050565b60066020528160005260406000206020528060005260406000206000915091509054906101000a900460ff1681565b7fe3262375f45a6e2026b7e7b18c2b807434f2508fe1a2a3dfb493c7df8f4aad6a60010281565b6000809054906101000a900473ffffffffffffffffffffffffffffffffffffffff1681565b6000611e677f4172f0f7d2289153072b0a6ca36959e0cbe2efc3afe50fc81636caa96338137b600102600019166123e8565b905090565b7ff1f3eb40f5bc1ad1344716ced8b8a0431d840b5783aea1fd01786bc26f35ac0f60010281565b60025481565b611ea161092d565b1515611eac57600080fd5b80611eb7813361169b565b1515611ef8576040517f08c379a0000000000000000000000000000000000000000000000000000000008152600401611eef9061520a565b60405180910390fd5b611f01826123f3565b5050565b60007fffffffffffffffffffffffffffffffffffffffffffffffffffffffffffffffff611f30611a25565b14905090565b6000611f4061243a565b73ffffffffffffffffffffffffffffffffffffffff166304bf2a7f836040518263ffffffff167c0100000000000000000000000000000000000000000000000000000000028152600401611f94919061507d565b602060405180830381600087803b158015611fae57600080fd5b505af1158015611fc2573d6000803e3d6000fd5b505050506040513d601f19601f82011682018060405250611fe6919081019061465e565b9050919050565b600160009054906101000a900473ffffffffffffffffffffffffffffffffffffffff1681565b600043905090565b6000612025613b3d565b60008060009054906101000a900473ffffffffffffffffffffffffffffffffffffffff1673ffffffffffffffffffffffffffffffffffffffff16633181f6b286866040518363ffffffff167c010000000000000000000000000000000000000000000000000000000002815260040161209f92919061522a565b602060405180830381600087803b1580156120b957600080fd5b505af11580156120cd573d6000803e3d6000fd5b505050506040513d601f19601f820116820180604052506120f191908101906147ed565b92506000809054906101000a900473ffffffffffffffffffffffffffffffffffffffff1673ffffffffffffffffffffffffffffffffffffffff1663fec7d70b846040518263ffffffff167c010000000000000000000000000000000000000000000000000000000002815260040161216991906152bb565b600060405180830381600087803b15801561218357600080fd5b505af1158015612197573d6000803e3d6000fd5b505050506040513d6000823e3d601f19601f820116820180604052506121c09190810190614742565b9150600090505b816060015151811015612205576121f88260600151828151811015156121e957fe5b9060200190602002015161253c565b80806001019150506121c7565b61220e8361272e565b827f0c56f8c36b7554d544257f27835cbcc73c240d580ec0900f8bd4ff2175caa49f3360405161223e9190614f8e565b60405180910390a25050505050565b61225a8260018333612932565b817f79ae0586cdce2f9ac51be4e90e29b1dcd8dfb152737ab9382dbde5f986e99f28823360405161228c9291906152d6565b60405180910390a25050565b6122a58160008033612932565b807fdb553e9dd87d69c52eb43bc85959506b4590e502486d433c5efd069fce1b559b336040516122d59190614f8e565b60405180910390a250565b6122ec81600033612d64565b807f040130ae6b301b112be85e5808e8daf12ea354c87fa26fe1a44ae469648a6ae23360405161231c9190614f8e565b60405180910390a250565b6000612331611a25565b14151561233d57600080fd5b61237e612348612013565b7febb05b386a8d34882b8711d156f463690983dc47815980fb82aeeff1aa43579e6001026000191661319390919063ffffffff16565b565b600081549050919050565b600081549050919050565b600080600073ffffffffffffffffffffffffffffffffffffffff168373ffffffffffffffffffffffffffffffffffffffff1614156123d757600091506123e2565b823b90506000811191505b50919050565b600081549050919050565b6123ff81600133612d64565b807fb437070207d8119ff67a8ed011f535501d30493d59d9c54bd783643b058b144f3360405161242f9190614f8e565b60405180910390a250565b600080612445611e35565b73ffffffffffffffffffffffffffffffffffffffff1663be00bbd87fd6f028ca0e8edb4a8c9757ca4fdccab25fa1e0317da1188108f7d2dee14902fb6001027fddbcfd564f642ab5627cf68b9b7d374fb4f8a36e941a75d89c87998cef03bd616001026040518363ffffffff167c01000000000000000000000000000000000000000000000000000000000281526004016124e1929190615054565b602060405180830381600087803b1580156124fb57600080fd5b505af115801561250f573d6000803e3d6000fd5b505050506040513d601f19601f820116820180604052506125339190810190614564565b90508091505090565b6000600560008381526020019081526020016000209050818160000181905550600143038160010181905550600160009054906101000a900473ffffffffffffffffffffffffffffffffffffffff1673ffffffffffffffffffffffffffffffffffffffff1663981b24d082600101546040518263ffffffff167c01000000000000000000000000000000000000000000000000000000000281526004016125e391906152bb565b602060405180830381600087803b1580156125fd57600080fd5b505af1158015612611573d6000803e3d6000fd5b505050506040513d601f19601f8201168201806040525061263591908101906147ed565b8160020181905550612669606461265b836002015460035461319a90919063ffffffff16565b6131d890919063ffffffff16565b816003018190555061269d606461268f836002015460025461319a90919063ffffffff16565b6131d890919063ffffffff16565b81600401819055506000816005018190555060008160060181905550600081600701819055506000816008018190555060008160090160006101000a81548160ff021916908360028111156126ee57fe5b02179055507f52128f2ad9d7329810b60478b51f74095fe02818a1e55059b863354653aeee3e8260405161272291906152bb565b60405180910390a15050565b6000600460008381526020019081526020016000209050818160000181905550600143038160010181905550600160009054906101000a900473ffffffffffffffffffffffffffffffffffffffff1673ffffffffffffffffffffffffffffffffffffffff1663981b24d082600101546040518263ffffffff167c01000000000000000000000000000000000000000000000000000000000281526004016127d591906152bb565b602060405180830381600087803b1580156127ef57600080fd5b505af1158015612803573d6000803e3d6000fd5b505050506040513d601f19601f8201168201806040525061282791908101906147ed565b816002018190555061285b606461284d836002015460035461319a90919063ffffffff16565b6131d890919063ffffffff16565b816003018190555061288f6064612881836002015460025461319a90919063ffffffff16565b6131d890919063ffffffff16565b816004018190555060008160050181905550600081600601819055506000816007018190555060008160080160006101000a81548160ff021916908360028111156128d657fe5b02179055507f46c91b38ac09c0e2f87bce732dac1886637877a63455cd51ecee5b2ac8206a3b8260405161290a91906152bb565b60405180910390a161291c823361169b565b1561292e5761292d82600133612d64565b5b5050565b6000806000600560008881526020019081526020016000209250600160009054906101000a900473ffffffffffffffffffffffffffffffffffffffff1673ffffffffffffffffffffffffffffffffffffffff16634ee2cd7e8585600101546040518363ffffffff167c01000000000000000000000000000000000000000000000000000000000281526004016129c9929190614ff5565b602060405180830381600087803b1580156129e357600080fd5b505af11580156129f7573d6000803e3d6000fd5b505050506040513d601f19601f82011682018060405250612a1b91908101906147ed565b91506007600088815260200190815260200160002060008573ffffffffffffffffffffffffffffffffffffffff1673ffffffffffffffffffffffffffffffffffffffff168152602001908152602001600020905060006002811115612a7c57fe5b8160000160009054906101000a900460ff166002811115612a9957fe5b141515612ac057612ab782846008015461320290919063ffffffff16565b83600801819055505b60016002811115612acd57fe5b8160000160009054906101000a900460ff166002811115612aea57fe5b1415612b4957612b0782846005015461320290919063ffffffff16565b8360050181905550612b3c612b2982600101548461319a90919063ffffffff16565b846007015461320290919063ffffffff16565b8360070181905550612b99565b600280811115612b5557fe5b8160000160009054906101000a900460ff166002811115612b7257fe5b1415612b9857612b8f82846006015461320290919063ffffffff16565b83600601819055505b5b8515612c5d57612bb682846005015461322390919063ffffffff16565b8360050181905550612be7612bd4868461319a90919063ffffffff16565b846007015461322390919063ffffffff16565b836007018190555060018160000160006101000a81548160ff02191690836002811115612c1057fe5b0217905550848160010181905550867f79ae0586cdce2f9ac51be4e90e29b1dcd8dfb152737ab9382dbde5f986e99f288686604051612c509291906152d6565b60405180910390a2612ce5565b612c7482846006015461322390919063ffffffff16565b836006018190555060028160000160006101000a81548160ff02191690836002811115612c9d57fe5b021790555060008160010181905550867fdb553e9dd87d69c52eb43bc85959506b4590e502486d433c5efd069fce1b559b85604051612cdc9190614f8e565b60405180910390a25b612cfc82846008015461322390919063ffffffff16565b83600801819055507fc9aaef36de9dbf7f92c6a8b6e9a44d6008ada79212709a79f63680b6fd7b35018785888886604051612d3b959493929190615344565b60405180910390a1612d4c876112bb565b15612d5b57612d5a87613244565b5b50505050505050565b6000806000600460008781526020019081526020016000209250600160009054906101000a900473ffffffffffffffffffffffffffffffffffffffff1673ffffffffffffffffffffffffffffffffffffffff16634ee2cd7e8585600101546040518363ffffffff167c0100000000000000000000000000000000000000000000000000000000028152600401612dfb929190614ff5565b602060405180830381600087803b158015612e1557600080fd5b505af1158015612e29573d6000803e3d6000fd5b505050506040513d601f19601f82011682018060405250612e4d91908101906147ed565b91506006600087815260200190815260200160002060008573ffffffffffffffffffffffffffffffffffffffff1673ffffffffffffffffffffffffffffffffffffffff16815260200190815260200160002060009054906101000a900460ff16905060006002811115612ebc57fe5b816002811115612ec857fe5b141515612eef57612ee682846007015461320290919063ffffffff16565b83600701819055505b60016002811115612efc57fe5b816002811115612f0857fe5b1415612f3257612f2582846005015461320290919063ffffffff16565b8360050181905550612f71565b600280811115612f3e57fe5b816002811115612f4a57fe5b1415612f7057612f6782846006015461320290919063ffffffff16565b83600601819055505b5b841561304957612f8e82846005015461322390919063ffffffff16565b836005018190555060016006600088815260200190815260200160002060008673ffffffffffffffffffffffffffffffffffffffff1673ffffffffffffffffffffffffffffffffffffffff16815260200190815260200160002060006101000a81548160ff0219169083600281111561300357fe5b021790555082600001547fb437070207d8119ff67a8ed011f535501d30493d59d9c54bd783643b058b144f8560405161303c9190614f8e565b60405180910390a2613117565b61306082846006015461322390919063ffffffff16565b836006018190555060026006600088815260200190815260200160002060008673ffffffffffffffffffffffffffffffffffffffff1673ffffffffffffffffffffffffffffffffffffffff16815260200190815260200160002060006101000a81548160ff021916908360028111156130d557fe5b021790555082600001547f040130ae6b301b112be85e5808e8daf12ea354c87fa26fe1a44ae469648a6ae28560405161310e9190614f8e565b60405180910390a25b61312e82846007015461322390919063ffffffff16565b83600701819055507f60d19bcec6117f056e4c3a84cc5d46924fbb9e5aa0514dbfaa16a4be1f9d16cf8685878560405161316b94939291906152ff565b60405180910390a161317c86610eb9565b1561318b5761318a86613518565b5b505050505050565b8082555050565b60008060008414156131af57600091506131d1565b82840290508284828115156131c057fe5b041415156131cd57600080fd5b8091505b5092915050565b6000806000831115156131ea57600080fd5b82848115156131f557fe5b0490508091505092915050565b60008083831115151561321457600080fd5b82840390508091505092915050565b600080828401905083811015151561323a57600080fd5b8091505092915050565b600060056000838152602001908152602001600020905060018160090160006101000a81548160ff0219169083600281111561327c57fe5b02179055508060040154816005015410151561335b576000809054906101000a900473ffffffffffffffffffffffffffffffffffffffff1673ffffffffffffffffffffffffffffffffffffffff16636d5f5ca7836132eb846005015485600701546131d890919063ffffffff16565b6040518363ffffffff167c0100000000000000000000000000000000000000000000000000000000028152600401613324929190615397565b600060405180830381600087803b15801561333e57600080fd5b505af1158015613352573d6000803e3d6000fd5b505050506134dd565b6134346000809054906101000a900473ffffffffffffffffffffffffffffffffffffffff1673ffffffffffffffffffffffffffffffffffffffff1663889bd35d846040518263ffffffff167c01000000000000000000000000000000000000000000000000000000000281526004016133d491906152bb565b600060405180830381600087803b1580156133ee57600080fd5b505af1158015613402573d6000803e3d6000fd5b505050506040513d6000823e3d601f19601f8201168201806040525061342b9190810190614783565b60800151613819565b6000809054906101000a900473ffffffffffffffffffffffffffffffffffffffff1673ffffffffffffffffffffffffffffffffffffffff16636e0b314c836040518263ffffffff167c01000000000000000000000000000000000000000000000000000000000281526004016134aa91906152bb565b600060405180830381600087803b1580156134c457600080fd5b505af11580156134d8573d6000803e3d6000fd5b505050505b7f01d8a5c9d11222dcd4a578ca5beb07854362796a6df3b7efd38acbf4f78693308260405161350c91906152bb565b60405180910390a15050565b6000613522613b3d565b6000600460008581526020019081526020016000209250826004015483600501541015156135f7576000809054906101000a900473ffffffffffffffffffffffffffffffffffffffff1673ffffffffffffffffffffffffffffffffffffffff1663ddf6fa9c856040518263ffffffff167c01000000000000000000000000000000000000000000000000000000000281526004016135c091906152bb565b600060405180830381600087803b1580156135da57600080fd5b505af11580156135ee573d6000803e3d6000fd5b505050506137b6565b6000809054906101000a900473ffffffffffffffffffffffffffffffffffffffff1673ffffffffffffffffffffffffffffffffffffffff1663fec7d70b856040518263ffffffff167c010000000000000000000000000000000000000000000000000000000002815260040161366d91906152bb565b600060405180830381600087803b15801561368757600080fd5b505af115801561369b573d6000803e3d6000fd5b505050506040513d6000823e3d601f19601f820116820180604052506136c49190810190614742565b9150600090505b816060015151811015613709576136fc8260600151828151811015156136ed57fe5b90602001906020020151613a0e565b80806001019150506136cb565b6000809054906101000a900473ffffffffffffffffffffffffffffffffffffffff1673ffffffffffffffffffffffffffffffffffffffff1663748b052c84600001546040518263ffffffff167c010000000000000000000000000000000000000000000000000000000002815260040161378391906152bb565b600060405180830381600087803b15801561379d57600080fd5b505af11580156137b1573d6000803e3d6000fd5b505050505b60018360080160006101000a81548160ff021916908360028111156137d757fe5b02179055507ff688ebbfa9b4f296ca64c3ab2afe62e49b4cfa96261f47c535f2b51129f964f68460405161380b91906152bb565b60405180910390a150505050565b6000613823613b3d565b60006004600085815260200190815260200160002092506000809054906101000a900473ffffffffffffffffffffffffffffffffffffffff1673ffffffffffffffffffffffffffffffffffffffff1663fec7d70b856040518263ffffffff167c01000000000000000000000000000000000000000000000000000000000281526004016138b091906152bb565b600060405180830381600087803b1580156138ca57600080fd5b505af11580156138de573d6000803e3d6000fd5b505050506040513d6000823e3d601f19601f820116820180604052506139079190810190614742565b915060028360080160006101000a81548160ff0219169083600281111561392a57fe5b0217905550600090505b8160600151518110156139d1576001600281111561394e57fe5b6005600084606001518481518110151561396457fe5b90602001906020020151815260200190815260200160002060090160009054906101000a900460ff16600281111561399857fe5b1415156139c4576139c38260600151828151811015156139b457fe5b90602001906020020151613a0e565b5b8080600101915050613934565b7f7ce35efaa42da3d97a2f3a845308471a50b41fc1f8e4e18f1e5cfc41cdc4d49c84604051613a0091906152bb565b60405180910390a150505050565b600060056000838152602001908152602001600020905060028160090160006101000a81548160ff02191690836002811115613a4657fe5b02179055507f6f8ebf4d51270d7cedf38b614bcf51e78b82d70c60b19a8d7a18503447b6f3b582604051613a7a91906152bb565b60405180910390a15050565b6101406040519081016040528060008152602001600081526020016000815260200160008152602001600081526020016000815260200160008152602001600081526020016000815260200160006002811115613adf57fe5b81525090565b61012060405190810160405280600081526020016000815260200160008152602001600081526020016000815260200160008152602001600081526020016000815260200160006002811115613b3757fe5b81525090565b61010060405190810160405280613b52613bb9565b81526020016000815260200160006003811115613b6b57fe5b8152602001606081525090565b60e060405190810160405280613b8c613bff565b8152602001600081526020016000815260200160006004811115613bac57fe5b8152602001600081525090565b60a060405190810160405280600073ffffffffffffffffffffffffffffffffffffffff168152602001606081526020016060815260200160608152602001606081525090565b606060405190810160405280600073ffffffffffffffffffffffffffffffffffffffff16815260200160008152602001606081525090565b6000613c4382356156f0565b905092915050565b6000613c5782516156f0565b905092915050565b600082601f8301121515613c7257600080fd5b8135613c85613c8082615516565b6154e9565b91508181835260208401935060208101905083856040840282011115613caa57600080fd5b60005b83811015613cda5781613cc08882614077565b845260208401935060408301925050600181019050613cad565b5050505092915050565b600082601f8301121515613cf757600080fd5b8151613d0a613d0582615516565b6154e9565b91508181835260208401935060208101905083856040840282011115613d2f57600080fd5b60005b83811015613d5f5781613d4588826140c3565b845260208401935060408301925050600181019050613d32565b5050505092915050565b600082601f8301121515613d7c57600080fd5b8135613d8f613d8a8261553e565b6154e9565b9150818183526020840193506020810190508360005b83811015613dd55781358601613dbb88826142df565b845260208401935060208301925050600181019050613da5565b5050505092915050565b600082601f8301121515613df257600080fd5b8151613e05613e0082615566565b6154e9565b91508181835260208401935060208101905083856020840282011115613e2a57600080fd5b60005b83811015613e5a5781613e408882614527565b845260208401935060208301925050600181019050613e2d565b5050505092915050565b600082601f8301121515613e7757600080fd5b8135613e8a613e858261558e565b6154e9565b91508181835260208401935060208101905083856020840282011115613eaf57600080fd5b60005b83811015613edf5781613ec58882614513565b845260208401935060208301925050600181019050613eb2565b5050505092915050565b6000613ef58251615710565b905092915050565b6000613f09823561571c565b905092915050565b6000613f1d825161571c565b905092915050565b600082601f8301121515613f3857600080fd5b8135613f4b613f46826155b6565b6154e9565b91508082526020830160208301858383011115613f6757600080fd5b613f72838284615816565b50505092915050565b6000613f878251615726565b905092915050565b6000613f9b8235615738565b905092915050565b6000613faf825161574a565b905092915050565b6000613fc38251615763565b905092915050565b600082601f8301121515613fde57600080fd5b8135613ff1613fec826155e2565b6154e9565b9150808252602083016020830185838301111561400d57600080fd5b614018838284615816565b50505092915050565b600082601f830112151561403457600080fd5b8151614047614042826155e2565b6154e9565b9150808252602083016020830185838301111561406357600080fd5b61406e838284615825565b50505092915050565b60006040828403121561408957600080fd5b61409360406154e9565b905060006140a384828501613c37565b60008301525060206140b784828501613efd565b60208301525092915050565b6000604082840312156140d557600080fd5b6140df60406154e9565b905060006140ef84828501613c4b565b600083015250602061410384828501613f11565b60208301525092915050565b600060a0828403121561412157600080fd5b61412b60a06154e9565b9050600061413b84828501613c4b565b600083015250602082015167ffffffffffffffff81111561415b57600080fd5b61416784828501614021565b602083015250604082015167ffffffffffffffff81111561418757600080fd5b61419384828501614021565b604083015250606082015167ffffffffffffffff8111156141b357600080fd5b6141bf84828501614021565b606083015250608082015167ffffffffffffffff8111156141df57600080fd5b6141eb84828501613ce4565b60808301525092915050565b600060a0828403121561420957600080fd5b61421360a06154e9565b9050600061422384828501613c37565b600083015250602082013567ffffffffffffffff81111561424357600080fd5b61424f84828501613fcb565b602083015250604082013567ffffffffffffffff81111561426f57600080fd5b61427b84828501613fcb565b604083015250606082013567ffffffffffffffff81111561429b57600080fd5b6142a784828501613fcb565b606083015250608082013567ffffffffffffffff8111156142c757600080fd5b6142d384828501613c5f565b60808301525092915050565b6000606082840312156142f157600080fd5b6142fb60606154e9565b9050600061430b84828501613c37565b600083015250602061431f84828501614513565b602083015250604082013567ffffffffffffffff81111561433f57600080fd5b61434b84828501613fcb565b60408301525092915050565b60006060828403121561436957600080fd5b61437360606154e9565b9050600061438384828501613c4b565b600083015250602061439784828501614527565b602083015250604082015167ffffffffffffffff8111156143b757600080fd5b6143c384828501614021565b60408301525092915050565b6000608082840312156143e157600080fd5b6143eb60806154e9565b9050600082015167ffffffffffffffff81111561440757600080fd5b6144138482850161410f565b600083015250602061442784828501614527565b602083015250604061443b84828501613fa3565b604083015250606082015167ffffffffffffffff81111561445b57600080fd5b61446784828501613ddf565b60608301525092915050565b600060a0828403121561448557600080fd5b61448f60a06154e9565b9050600082015167ffffffffffffffff8111156144ab57600080fd5b6144b784828501614357565b60008301525060206144cb84828501614527565b60208301525060406144df84828501614527565b60408301525060606144f384828501613fb7565b606083015250608061450784828501614527565b60808301525092915050565b600061451f823561577c565b905092915050565b6000614533825161577c565b905092915050565b60006020828403121561454d57600080fd5b600061455b84828501613c37565b91505092915050565b60006020828403121561457657600080fd5b600061458484828501613c4b565b91505092915050565b6000806000606084860312156145a257600080fd5b60006145b086828701613c37565b93505060206145c186828701613efd565b925050604084013567ffffffffffffffff8111156145de57600080fd5b6145ea86828701613e64565b9150509250925092565b60006020828403121561460657600080fd5b600061461484828501613ee9565b91505092915050565b60006020828403121561462f57600080fd5b600082013567ffffffffffffffff81111561464957600080fd5b61465584828501613f25565b91505092915050565b60006020828403121561467057600080fd5b600061467e84828501613f7b565b91505092915050565b60008060006060848603121561469c57600080fd5b60006146aa86828701613f8f565b93505060206146bb86828701614513565b92505060406146cc86828701614513565b9150509250925092565b600080604083850312156146e957600080fd5b600083013567ffffffffffffffff81111561470357600080fd5b61470f858286016141f7565b925050602083013567ffffffffffffffff81111561472c57600080fd5b61473885828601613d69565b9150509250929050565b60006020828403121561475457600080fd5b600082015167ffffffffffffffff81111561476e57600080fd5b61477a848285016143cf565b91505092915050565b60006020828403121561479557600080fd5b600082015167ffffffffffffffff8111156147af57600080fd5b6147bb84828501614473565b91505092915050565b6000602082840312156147d657600080fd5b60006147e484828501614513565b91505092915050565b6000602082840312156147ff57600080fd5b600061480d84828501614527565b91505092915050565b6000806040838503121561482957600080fd5b600061483785828601614513565b925050602061484885828601613c37565b9150509250929050565b6000806040838503121561486557600080fd5b600061487385828601614513565b925050602061488485828601614513565b9150509250929050565b6148978161566e565b82525050565b6148a68161566e565b82525050565b60006148b782615628565b8084526020840193506148c98361560e565b60005b828110156148fb576148df868351614c1d565b6148e882615654565b91506040860195506001810190506148cc565b50849250505092915050565b600061491282615633565b8084526020840193508360208202850161492b8561561b565b60005b84811015614964578383038852614946838351614cd7565b925061495182615661565b915060208801975060018101905061492e565b508196508694505050505092915050565b61497e8161568e565b82525050565b61498d8161569a565b82525050565b600061499e8261563e565b8084526149b2816020860160208601615825565b6149bb81615858565b602085010191505092915050565b6149d281615786565b82525050565b6149e181615798565b82525050565b6149f0816157aa565b82525050565b6149ff816157bc565b82525050565b614a0e816157ce565b82525050565b614a1d816157e0565b82525050565b614a2c816157f2565b82525050565b614a3b81615804565b82525050565b6000614a4c82615649565b808452614a60816020860160208601615825565b614a6981615858565b602085010191505092915050565b6000614a8282615649565b808452614a96816020860160208601615825565b614a9f81615858565b602085010191505092915050565b6000601982527f73656e6465722063616e6e6f7420766f7465206f6e2052464c000000000000006020830152604082019050919050565b6000602082527f76616c756520697320696e666572696f7220746f2052464c206d696e696d756d6020830152604082019050919050565b6000602682527f696e697469616c697a6174696f6e20706172616d6574657273206f7574206f6660208301527f20626f756e6400000000000000000000000000000000000000000000000000006040830152606082019050919050565b6000601282527f52464c20646f6573206e6f7420657869737400000000000000000000000000006020830152604082019050919050565b6000601282527f52464920646f6573206e6f7420657869737400000000000000000000000000006020830152604082019050919050565b6000601982527f73656e6465722063616e6e6f7420766f7465206f6e20524649000000000000006020830152604082019050919050565b604082016000820151614c33600085018261488e565b506020820151614c466020850182614984565b50505050565b600060a083016000830151614c64600086018261488e565b5060208301518482036020860152614c7c8282614a41565b91505060408301518482036040860152614c968282614a41565b91505060608301518482036060860152614cb08282614a41565b91505060808301518482036080860152614cca82826148ac565b9150508091505092915050565b6000606083016000830151614cef600086018261488e565b506020830151614d026020860182614f70565b5060408301518482036040860152614d1a8282614a41565b9150508091505092915050565b6000606083016000830151614d3f600086018261489d565b506020830151614d526020860182614f7f565b5060408301518482036040860152614d6a8282614a77565b9150508091505092915050565b61012082016000820151614d8e6000850182614f70565b506020820151614da16020850182614f70565b506040820151614db46040850182614f70565b506060820151614dc76060850182614f70565b506080820151614dda6080850182614f70565b5060a0820151614ded60a0850182614f70565b5060c0820151614e0060c0850182614f70565b5060e0820151614e1360e0850182614f70565b50610100820151614e28610100850182614a23565b50505050565b61014082016000820151614e456000850182614f70565b506020820151614e586020850182614f70565b506040820151614e6b6040850182614f70565b506060820151614e7e6060850182614f70565b506080820151614e916080850182614f70565b5060a0820151614ea460a0850182614f70565b5060c0820151614eb760c0850182614f70565b5060e0820151614eca60e0850182614f70565b50610100820151614edf610100850182614f70565b50610120820151614ef4610120850182614a23565b50505050565b600060a0830160008301518482036000860152614f178282614d27565b9150506020830151614f2c6020860182614f7f565b506040830151614f3f6040860182614f7f565b506060830151614f526060860182614a14565b506080830151614f656080860182614f7f565b508091505092915050565b614f79816156e6565b82525050565b614f88816156e6565b82525050565b6000602082019050614fa3600083018461488e565b92915050565b6000608082019050614fbe600083018761488e565b614fcb602083018661488e565b614fd86040830185614984565b8181036060830152614fea8184614993565b905095945050505050565b600060408201905061500a600083018561488e565b6150176020830184614f70565b9392505050565b60006020820190506150336000830184614975565b92915050565b600060208201905061504e6000830184614984565b92915050565b60006040820190506150696000830185614984565b6150766020830184614984565b9392505050565b600060208201905081810360008301526150978184614993565b905092915050565b60006020820190506150b460008301846149c9565b92915050565b60006020820190506150cf60008301846149d8565b92915050565b60006020820190506150ea60008301846149e7565b92915050565b600060208201905061510560008301846149f6565b92915050565b60006020820190506151206000830184614a05565b92915050565b600060208201905061513b6000830184614a32565b92915050565b60006040820190506151566000830185614a32565b6151636020830184614f70565b9392505050565b6000602082019050818103600083015261518381614aad565b9050919050565b600060208201905081810360008301526151a381614ae4565b9050919050565b600060208201905081810360008301526151c381614b1b565b9050919050565b600060208201905081810360008301526151e381614b78565b9050919050565b6000602082019050818103600083015261520381614baf565b9050919050565b6000602082019050818103600083015261522381614be6565b9050919050565b600060408201905081810360008301526152448185614c4c565b905081810360208301526152588184614907565b90509392505050565b6000610120820190506152776000830184614d77565b92915050565b6000610140820190506152936000830184614e2e565b92915050565b600060208201905081810360008301526152b38184614efa565b905092915050565b60006020820190506152d06000830184614f70565b92915050565b60006040820190506152eb6000830185614f70565b6152f8602083018461488e565b9392505050565b60006080820190506153146000830187614f70565b615321602083018661488e565b61532e6040830185614975565b61533b6060830184614f70565b95945050505050565b600060a0820190506153596000830188614f70565b615366602083018761488e565b6153736040830186614975565b6153806060830185614f70565b61538d6080830184614f70565b9695505050505050565b60006040820190506153ac6000830185614f70565b6153b96020830184614f70565b9392505050565b6000610120820190506153d6600083018c614f70565b6153e3602083018b614f70565b6153f0604083018a614f70565b6153fd6060830189614f70565b61540a6080830188614f70565b61541760a0830187614f70565b61542460c0830186614f70565b61543160e0830185614f70565b61543f610100830184614a23565b9a9950505050505050505050565b600061014082019050615463600083018d614f70565b615470602083018c614f70565b61547d604083018b614f70565b61548a606083018a614f70565b6154976080830189614f70565b6154a460a0830188614f70565b6154b160c0830187614f70565b6154be60e0830186614f70565b6154cc610100830185614f70565b6154da610120830184614a23565b9b9a5050505050505050505050565b6000604051905081810181811067ffffffffffffffff8211171561550c57600080fd5b8060405250919050565b600067ffffffffffffffff82111561552d57600080fd5b602082029050602081019050919050565b600067ffffffffffffffff82111561555557600080fd5b602082029050602081019050919050565b600067ffffffffffffffff82111561557d57600080fd5b602082029050602081019050919050565b600067ffffffffffffffff8211156155a557600080fd5b602082029050602081019050919050565b600067ffffffffffffffff8211156155cd57600080fd5b601f19601f8301169050602081019050919050565b600067ffffffffffffffff8211156155f957600080fd5b601f19601f8301169050602081019050919050565b6000602082019050919050565b6000602082019050919050565b600081519050919050565b600081519050919050565b600081519050919050565b600081519050919050565b6000602082019050919050565b6000602082019050919050565b600073ffffffffffffffffffffffffffffffffffffffff82169050919050565b60008115159050919050565b6000819050919050565b60006005821015156156b257fe5b819050919050565b60006003821015156156c857fe5b819050919050565b60006003821015156156de57fe5b819050919050565b6000819050919050565b600073ffffffffffffffffffffffffffffffffffffffff82169050919050565b60008115159050919050565b6000819050919050565b60006157318261566e565b9050919050565b60006157438261566e565b9050919050565b600060048210151561575b57600080fd5b819050919050565b600060058210151561577457600080fd5b819050919050565b6000819050919050565b60006157918261566e565b9050919050565b60006157a38261566e565b9050919050565b60006157b58261566e565b9050919050565b60006157c78261566e565b9050919050565b60006157d98261566e565b9050919050565b60006157eb826156a4565b9050919050565b60006157fd826156ba565b9050919050565b600061580f826156d0565b9050919050565b82818337600083830152505050565b60005b83811015615843578082015181840152602081019050615828565b83811115615852576000848401525b50505050565b6000601f19601f83011690509190505600a265627a7a7230582071c7802b0fe866b84633d803954db0a7b9f433af4d2eb4a3a413450fa46d7c516c6578706572696d656e74616cf50037",
  "source": "pragma solidity ^0.4.24;\npragma experimental ABIEncoderV2;\n\nimport \"@aragon/os/contracts/lib/math/SafeMath.sol\";\nimport \"@aragon/os/contracts/lib/math/SafeMath64.sol\";\nimport \"@aragon/apps-shared-minime/contracts/MiniMeToken.sol\";\nimport \"./PandoKit.sol\";\n\n\ncontract VotingKit is PandoKit {\n    using SafeMath for uint256;\n    using SafeMath64 for uint64;\n    using Pando for Pando.RFI;\n    using Pando for Pando.RFL;\n\n    bytes32 public constant UPDATE_KIT_PARAMETERS_ROLE = keccak256(\"UPDATE_KIT_PARAMETERS_ROLE\");\n\n    enum VoteState  { Pending, Executed, Cancelled }\n    enum VoterState { Absent, Yea, Nay }\n\n    struct RFLBallot {\n        VoterState state;\n        uint256    value;\n    }\n\n    struct RFIVote {\n        uint256   RFIid;\n        uint256   blockstamp;\n        uint256   supply;\n        uint256   quorum;\n        uint256   required;\n        uint256   yea;\n        uint256   nay;\n        uint256   participation;\n        VoteState state;\n    }\n\n    struct RFLVote {\n        uint256   RFLid;\n        uint256   blockstamp;\n        uint256   supply;\n        uint256   quorum;\n        uint256   required;\n        uint256   yea;\n        uint256   nay;\n        uint256   total;\n        uint256   participation;\n        VoteState state;\n    }\n\n    MiniMeToken public token;\n    uint256     public required;\n    uint256     public quorum;\n\n    mapping(uint256 => RFIVote) public RFIVotes; // mapping RFIs to related vote\n    mapping(uint256 => RFLVote) public RFLVotes; // mapping RFLs to related vote\n\n    mapping(uint256 => mapping(address => VoterState)) public RFIVotesBallots;\n    mapping(uint256 => mapping(address => RFLBallot))  public RFLVotesBallots;\n\n    event NewRFIVote(uint256 id);\n    event CastRFIVote(uint256 id, address voter, bool supports, uint256 stake);\n    event CancelRFIVote(uint256 id);\n    event ExecuteRFIVote(uint256 id);\n\n    event NewRFLVote(uint256 id);\n    event CastRFLVote(uint256 id, address voter, bool supports, uint256 value, uint256 stake);\n    event CancelRFLVote(uint256 id);\n    event ExecuteRFLVote(uint256 id);\n\n    modifier RFIVoteExists(uint256 _RFIid) {\n        require(RFIVotes[_RFIid].RFIid > 0, \"RFI does not exist\");\n        _;\n    }\n\n    modifier RFLVoteExists(uint256 _RFLid) {\n        require(RFLVotes[_RFLid].RFLid > 0, \"RFL does not exist\");\n        _;\n    }\n\n    modifier senderCanVoteOnRFI(uint256 _RFIid) {\n        require(canVoteOnRFI(_RFIid, msg.sender), \"sender cannot vote on RFI\");\n        _;\n    }\n\n    modifier senderCanVoteOnRFL(uint256 _RFLid) {\n        require(canVoteOnRFL(_RFLid, msg.sender), \"sender cannot vote on RFL\");\n        _;\n    }\n\n    modifier valueIsSuperiorToRFLMinimum(uint256 _RFLid, uint256 _value) {\n        require(_value >= api.getRFL(_RFLid).lineage.minimum, \"value is inferior to RFL minimum\");\n        _;\n    }\n\n    function initialize(PandoAPI _api, uint256 _quorum, uint256 _required) external onlyInit {\n        require(_quorum <= 100 && _required <= _quorum, \"initialization parameters out of bound\");\n\n        initialized();\n\n        api = _api;\n        token = MiniMeToken(api.getLineageToken());\n        quorum = _quorum;\n        required = _required;\n    }\n\n    function createRFI(Pando.IIndividuation _individuation, Pando.ILineage[] _lineages) public isInitialized {\n        _createRFI(_individuation, _lineages);\n    }\n\n    function mergeRFI(uint256 _RFIid) public isInitialized senderCanVoteOnRFI(_RFIid) {\n        _mergeRFI(_RFIid);\n    }\n\n    function rejectRFI(uint256 _RFIid) public isInitialized senderCanVoteOnRFI(_RFIid) {\n        _rejectRFI(_RFIid);\n    }\n\n    function acceptRFL(uint256 _RFLid, uint256 _value)\n        public\n        isInitialized\n        senderCanVoteOnRFL(_RFLid)\n        valueIsSuperiorToRFLMinimum(_RFLid, _value)\n    {\n        _acceptRFL(_RFLid, _value);\n    }\n\n    function rejectRFL(uint256 _RFLid) public isInitialized senderCanVoteOnRFL(_RFLid) {\n        _rejectRFL(_RFLid);\n    }\n\n    /*--------------------*/\n\n    function getRFIVote(uint256 _RFIid) public view RFIVoteExists(_RFIid) returns (RFIVote) {\n        return RFIVotes[_RFIid];\n    }\n\n    function getRFLVote(uint256 _RFLid) public view RFLVoteExists(_RFLid) returns (RFLVote) {\n        return RFLVotes[_RFLid];\n    }\n\n    /*--------------------*/\n\n    function _createRFI(Pando.IIndividuation _individuation, Pando.ILineage[] _lineages) internal {\n        uint256 RFIid = api.createRFI(_individuation, _lineages);\n\n        Pando.RFI memory RFI = api.getRFI(RFIid);\n\n        for (uint256 i = 0; i < RFI.RFLids.length; i++) {\n            _newRFLVote(RFI.RFLids[i]);\n        }\n\n        _newRFIVote(RFIid);\n\n        emit CreateRFI(RFIid, msg.sender);\n    }\n\n    function _mergeRFI(uint256 _RFIid) internal {\n        _voteRFI(_RFIid, true, msg.sender);\n        emit MergeRFI(_RFIid, msg.sender);\n    }\n\n    function _rejectRFI(uint256 _RFIid) internal {\n        _voteRFI(_RFIid, false, msg.sender);\n        emit RejectRFI(_RFIid, msg.sender);\n    }\n\n    function _newRFIVote(uint256 _RFIid) internal {\n        RFIVote storage vote = RFIVotes[_RFIid];\n\n        vote.RFIid = _RFIid;\n        vote.blockstamp = block.number - 1; // avoid double voting in this very block\n        vote.supply = token.totalSupplyAt(vote.blockstamp);\n        vote.quorum = quorum.mul(vote.supply).div(100);\n        vote.required = required.mul(vote.supply).div(100);\n        vote.yea = 0;\n        vote.nay = 0;\n        vote.participation = 0;\n        vote.state = VoteState.Pending;\n\n        emit NewRFIVote(_RFIid);\n\n        if (canVoteOnRFI(_RFIid, msg.sender)) {\n            _voteRFI(_RFIid, true, msg.sender);\n        }\n    }\n\n    function _cancelRFIVote(uint256 _RFIid) internal {\n        RFIVote   storage vote = RFIVotes[_RFIid];\n        Pando.RFI memory  RFI = api.getRFI(_RFIid);\n\n        vote.state = VoteState.Cancelled;\n\n        for (uint256 i = 0; i < RFI.RFLids.length; i++) {\n            if (RFLVotes[RFI.RFLids[i]].state != VoteState.Executed)\n                _cancelRFLVote(RFI.RFLids[i]);\n        }\n\n        emit CancelRFIVote(_RFIid);\n    }\n\n    function _voteRFI(uint256 _RFIid, bool _supports, address _voter) internal {\n        RFIVote storage vote = RFIVotes[_RFIid];\n\n        uint256 stake = token.balanceOfAt(_voter, vote.blockstamp);\n        VoterState state = RFIVotesBallots[_RFIid][_voter];\n\n        if (state != VoterState.Absent) {\n            vote.participation = vote.participation.sub(stake);\n        }\n\n        if (state == VoterState.Yea) {\n            vote.yea = vote.yea.sub(stake);\n        } else if (state == VoterState.Nay) {\n            vote.nay = vote.nay.sub(stake);\n        }\n\n        if (_supports) {\n            vote.yea = vote.yea.add(stake);\n            RFIVotesBallots[_RFIid][_voter] = VoterState.Yea;\n            emit MergeRFI(vote.RFIid, _voter);\n\n        } else {\n            vote.nay = vote.nay.add(stake);\n            RFIVotesBallots[_RFIid][_voter] = VoterState.Nay;\n            emit RejectRFI(vote.RFIid, _voter);\n        }\n\n        vote.participation = vote.participation.add(stake);\n\n        emit CastRFIVote(_RFIid, _voter, _supports, stake);\n\n        if (canExecuteRFIVote(_RFIid)) {\n            _executeRFIVote(_RFIid);\n        }\n    }\n\n    function _executeRFIVote(uint256 _RFIid) internal {\n        RFIVote storage vote = RFIVotes[_RFIid];\n\n        if (vote.yea >= vote.required) {\n            api.mergeRFI(_RFIid);\n        } else {\n            Pando.RFI memory RFI = api.getRFI(_RFIid);\n\n            for (uint256 i = 0; i < RFI.RFLids.length; i++) {\n                _cancelRFLVote(RFI.RFLids[i]);\n            }\n\n            api.rejectRFI(vote.RFIid);\n        }\n\n        vote.state = VoteState.Executed;\n\n        emit ExecuteRFIVote(_RFIid);\n    }\n\n    function _acceptRFL(uint256 _RFLid, uint256 _value) internal {\n        _voteRFL(_RFLid, true, _value, msg.sender);\n        emit AcceptRFL(_RFLid, _value, msg.sender);\n    }\n\n    function _rejectRFL(uint256 _RFLid) internal {\n        _voteRFL(_RFLid, false, 0, msg.sender);\n        emit RejectRFL(_RFLid, msg.sender);\n    }\n\n    function _newRFLVote(uint256 _RFLid) internal {\n        RFLVote storage vote = RFLVotes[_RFLid];\n\n        vote.RFLid = _RFLid;\n        vote.blockstamp = block.number - 1; // avoid double voting in this very block\n        vote.supply = token.totalSupplyAt(vote.blockstamp);\n        vote.quorum = quorum.mul(vote.supply).div(100);\n        vote.required = required.mul(vote.supply).div(100);\n        vote.yea = 0;\n        vote.nay = 0;\n        vote.total = 0;\n        vote.participation = 0;\n        vote.state = VoteState.Pending;\n\n        emit NewRFLVote(_RFLid);\n    }\n\n    function _cancelRFLVote(uint256 _RFLid) internal {\n        RFLVote storage vote = RFLVotes[_RFLid];\n\n        vote.state = VoteState.Cancelled;\n\n        emit CancelRFLVote(_RFLid);\n    }\n\n    function _voteRFL(uint256 _RFLid, bool _supports, uint256 _value, address _voter) internal {\n        RFLVote storage vote = RFLVotes[_RFLid];\n\n        uint256 stake = token.balanceOfAt(_voter, vote.blockstamp);\n        RFLBallot storage ballot = RFLVotesBallots[_RFLid][_voter];\n\n        if (ballot.state != VoterState.Absent) {\n            vote.participation = vote.participation.sub(stake);\n        }\n\n        if (ballot.state == VoterState.Yea) {\n            vote.yea = vote.yea.sub(stake);\n            vote.total = vote.total.sub(stake.mul(ballot.value));\n        } else if (ballot.state == VoterState.Nay) {\n            vote.nay = vote.nay.sub(stake);\n        }\n\n        if (_supports) {\n            vote.yea = vote.yea.add(stake);\n            vote.total = vote.total.add(stake.mul(_value));\n            ballot.state = VoterState.Yea;\n            ballot.value = _value;\n            emit AcceptRFL(_RFLid, _value, _voter);\n\n        } else {\n            vote.nay = vote.nay.add(stake);\n            ballot.state = VoterState.Nay;\n            ballot.value = 0;\n            emit RejectRFL(_RFLid, _voter);\n        }\n\n        vote.participation = vote.participation.add(stake);\n\n        emit CastRFLVote(_RFLid, _voter, _supports, _value, stake);\n\n        if (canExecuteRFLVote(_RFLid)) {\n            _executeRFLVote(_RFLid);\n        }\n    }\n\n    function _executeRFLVote(uint256 _RFLid) internal {\n        RFLVote storage vote = RFLVotes[_RFLid];\n\n        vote.state = VoteState.Executed;\n\n        if (vote.yea >= vote.required) {\n            api.acceptRFL(_RFLid, vote.total.div(vote.yea));\n        } else {\n            _cancelRFIVote(api.getRFL(_RFLid).RFIid);\n            api.rejectRFL(_RFLid);\n        }\n\n        emit ExecuteRFLVote(_RFLid);\n    }\n\n    /*--------------------*/\n\n    function canVoteOnRFI(uint256 _RFIid, address _voter) public view RFIVoteExists(_RFIid) returns (bool) {\n        RFIVote storage vote = RFIVotes[_RFIid];\n\n        return vote.state == VoteState.Pending && token.balanceOfAt(_voter, vote.blockstamp) > 0;\n    }\n\n    function canVoteOnRFL(uint256 _RFLid, address _voter) public view RFLVoteExists(_RFLid) returns (bool) {\n        RFLVote storage vote = RFLVotes[_RFLid];\n\n        return vote.state == VoteState.Pending && token.balanceOfAt(_voter, vote.blockstamp) > 0;\n    }\n\n    function canExecuteRFIVote(uint256 _RFIid) public view RFIVoteExists(_RFIid) returns (bool) {\n        RFIVote storage vote = RFIVotes[_RFIid];\n        Pando.RFI memory RFI = api.getRFI(vote.RFIid);\n\n        if (vote.state != VoteState.Pending) {\n            return false;\n        }\n\n        if (vote.participation >= vote.quorum) {\n            if (vote.yea >= vote.required) {\n                for (uint256 i = 0; i < RFI.RFLids.length; i++) {\n                    Pando.RFL memory RFL = api.getRFL(RFI.RFLids[i]);\n                    if (!RFL.isAccepted()) {\n                        return false;\n                    }\n                }\n            }\n            return true;\n        }\n\n        return false;\n    }\n\n    function canExecuteRFLVote(uint256 _RFLid) public view RFLVoteExists(_RFLid) returns (bool) {\n        RFLVote storage vote = RFLVotes[_RFLid];\n\n        if (vote.state != VoteState.Pending) {\n            return false;\n        }\n\n        if (vote.participation >= vote.quorum) {\n            return true;\n        }\n\n        return false;\n    }\n}\n",
  "sourcePath": "/Users/osarrouy/Documents/dapp/@pando/packages/core/contracts/kits/VotingKit.sol",
  "compiler": {
    "name": "solc",
    "version": "0.4.24+commit.e67f0147.Emscripten.clang"
  },
  "schemaVersion": "3.0.0-beta.1",
  "updatedAt": "2018-11-24T11:23:13.942Z"
}