{
  "contractName": "DAOFactory",
  "abi": [
    {
      "constant": true,
      "inputs": [],
      "name": "baseACL",
      "outputs": [
        {
          "name": "",
          "type": "address"
        }
      ],
      "payable": false,
      "stateMutability": "view",
      "type": "function"
    },
    {
      "constant": true,
      "inputs": [],
      "name": "regFactory",
      "outputs": [
        {
          "name": "",
          "type": "address"
        }
      ],
      "payable": false,
      "stateMutability": "view",
      "type": "function"
    },
    {
      "constant": true,
      "inputs": [],
      "name": "baseKernel",
      "outputs": [
        {
          "name": "",
          "type": "address"
        }
      ],
      "payable": false,
      "stateMutability": "view",
      "type": "function"
    },
    {
      "inputs": [
        {
          "name": "_baseKernel",
          "type": "address"
        },
        {
          "name": "_baseACL",
          "type": "address"
        },
        {
          "name": "_regFactory",
          "type": "address"
        }
      ],
      "payable": false,
      "stateMutability": "nonpayable",
      "type": "constructor"
    },
    {
      "anonymous": false,
      "inputs": [
        {
          "indexed": false,
          "name": "dao",
          "type": "address"
        }
      ],
      "name": "DeployDAO",
      "type": "event"
    },
    {
      "anonymous": false,
      "inputs": [
        {
          "indexed": false,
          "name": "reg",
          "type": "address"
        }
      ],
      "name": "DeployEVMScriptRegistry",
      "type": "event"
    },
    {
      "constant": false,
      "inputs": [
        {
          "name": "_root",
          "type": "address"
        }
      ],
      "name": "newDAO",
      "outputs": [
        {
          "name": "dao",
          "type": "address"
        }
      ],
      "payable": false,
      "stateMutability": "nonpayable",
      "type": "function"
    }
  ],
  "bytecode": "0x6060604052341561000f57600080fd5b60405160608061176583398101604052808051906020019091908051906020019091908051906020019091905050600073ffffffffffffffffffffffffffffffffffffffff168173ffffffffffffffffffffffffffffffffffffffff161415156100b55780600260006101000a81548173ffffffffffffffffffffffffffffffffffffffff021916908373ffffffffffffffffffffffffffffffffffffffff1602179055505b826000806101000a81548173ffffffffffffffffffffffffffffffffffffffff021916908373ffffffffffffffffffffffffffffffffffffffff16021790555081600160006101000a81548173ffffffffffffffffffffffffffffffffffffffff021916908373ffffffffffffffffffffffffffffffffffffffff16021790555050505061161d806101486000396000f300606060405260043610610062576000357c0100000000000000000000000000000000000000000000000000000000900463ffffffff168063086b339e1461006757806321687444146100bc578063656362b514610135578063b16dd1301461018a575b600080fd5b341561007257600080fd5b61007a6101df565b604051808273ffffffffffffffffffffffffffffffffffffffff1673ffffffffffffffffffffffffffffffffffffffff16815260200191505060405180910390f35b34156100c757600080fd5b6100f3600480803573ffffffffffffffffffffffffffffffffffffffff16906020019091905050610205565b604051808273ffffffffffffffffffffffffffffffffffffffff1673ffffffffffffffffffffffffffffffffffffffff16815260200191505060405180910390f35b341561014057600080fd5b610148610e0c565b604051808273ffffffffffffffffffffffffffffffffffffffff1673ffffffffffffffffffffffffffffffffffffffff16815260200191505060405180910390f35b341561019557600080fd5b61019d610e32565b604051808273ffffffffffffffffffffffffffffffffffffffff1673ffffffffffffffffffffffffffffffffffffffff16815260200191505060405180910390f35b600160009054906101000a900473ffffffffffffffffffffffffffffffffffffffff1681565b6000806000806000806000809054906101000a900473ffffffffffffffffffffffffffffffffffffffff16610238610e57565b808273ffffffffffffffffffffffffffffffffffffffff1673ffffffffffffffffffffffffffffffffffffffff168152602001915050604051809103906000f080151561028457600080fd5b9550600073ffffffffffffffffffffffffffffffffffffffff16600260009054906101000a900473ffffffffffffffffffffffffffffffffffffffff1673ffffffffffffffffffffffffffffffffffffffff1614156102e357866102e5565b305b94508573ffffffffffffffffffffffffffffffffffffffff1663485cc955600160009054906101000a900473ffffffffffffffffffffffffffffffffffffffff16876040518363ffffffff167c0100000000000000000000000000000000000000000000000000000000028152600401808373ffffffffffffffffffffffffffffffffffffffff1673ffffffffffffffffffffffffffffffffffffffff1681526020018273ffffffffffffffffffffffffffffffffffffffff1673ffffffffffffffffffffffffffffffffffffffff16815260200192505050600060405180830381600087803b15156103d757600080fd5b6102c65a03f115156103e857600080fd5b5050508573ffffffffffffffffffffffffffffffffffffffff1663de2873596000604051602001526040518163ffffffff167c0100000000000000000000000000000000000000000000000000000000028152600401602060405180830381600087803b151561045757600080fd5b6102c65a03f1151561046857600080fd5b505050604051805190509350600073ffffffffffffffffffffffffffffffffffffffff16600260009054906101000a900473ffffffffffffffffffffffffffffffffffffffff1673ffffffffffffffffffffffffffffffffffffffff16141515610d9f578373ffffffffffffffffffffffffffffffffffffffff16633d6ab68f6000604051602001526040518163ffffffff167c0100000000000000000000000000000000000000000000000000000000028152600401602060405180830381600087803b151561053857600080fd5b6102c65a03f1151561054957600080fd5b5050506040518051905092508573ffffffffffffffffffffffffffffffffffffffff16638ea8dc9d6000604051602001526040518163ffffffff167c0100000000000000000000000000000000000000000000000000000000028152600401602060405180830381600087803b15156105c157600080fd5b6102c65a03f115156105d257600080fd5b5050506040518051905091508373ffffffffffffffffffffffffffffffffffffffff16630a8ed3db600260009054906101000a900473ffffffffffffffffffffffffffffffffffffffff1686866040518463ffffffff167c0100000000000000000000000000000000000000000000000000000000028152600401808473ffffffffffffffffffffffffffffffffffffffff1673ffffffffffffffffffffffffffffffffffffffff1681526020018373ffffffffffffffffffffffffffffffffffffffff1673ffffffffffffffffffffffffffffffffffffffff16815260200182600019166000191681526020019350505050600060405180830381600087803b15156106de57600080fd5b6102c65a03f115156106ef57600080fd5b5050508373ffffffffffffffffffffffffffffffffffffffff1663be038478600260009054906101000a900473ffffffffffffffffffffffffffffffffffffffff168885306040518563ffffffff167c0100000000000000000000000000000000000000000000000000000000028152600401808573ffffffffffffffffffffffffffffffffffffffff1673ffffffffffffffffffffffffffffffffffffffff1681526020018473ffffffffffffffffffffffffffffffffffffffff1673ffffffffffffffffffffffffffffffffffffffff16815260200183600019166000191681526020018273ffffffffffffffffffffffffffffffffffffffff1673ffffffffffffffffffffffffffffffffffffffff168152602001945050505050600060405180830381600087803b151561082657600080fd5b6102c65a03f1151561083757600080fd5b505050600260009054906101000a900473ffffffffffffffffffffffffffffffffffffffff1673ffffffffffffffffffffffffffffffffffffffff1663869abc2487896000604051602001526040518363ffffffff167c0100000000000000000000000000000000000000000000000000000000028152600401808373ffffffffffffffffffffffffffffffffffffffff1673ffffffffffffffffffffffffffffffffffffffff1681526020018273ffffffffffffffffffffffffffffffffffffffff1673ffffffffffffffffffffffffffffffffffffffff16815260200192505050602060405180830381600087803b151561093357600080fd5b6102c65a03f1151561094457600080fd5b5050506040518051905090507f1a40224412580c1ae5a2fbe8029a565f49a3a029608a8fd9320b32477f31457981604051808273ffffffffffffffffffffffffffffffffffffffff1673ffffffffffffffffffffffffffffffffffffffff16815260200191505060405180910390a18373ffffffffffffffffffffffffffffffffffffffff16639d0effdb600260009054906101000a900473ffffffffffffffffffffffffffffffffffffffff1688856040518463ffffffff167c0100000000000000000000000000000000000000000000000000000000028152600401808473ffffffffffffffffffffffffffffffffffffffff1673ffffffffffffffffffffffffffffffffffffffff1681526020018373ffffffffffffffffffffffffffffffffffffffff1673ffffffffffffffffffffffffffffffffffffffff16815260200182600019166000191681526020019350505050600060405180830381600087803b1515610ab357600080fd5b6102c65a03f11515610ac457600080fd5b5050508373ffffffffffffffffffffffffffffffffffffffff16630a8ed3db8886866040518463ffffffff167c0100000000000000000000000000000000000000000000000000000000028152600401808473ffffffffffffffffffffffffffffffffffffffff1673ffffffffffffffffffffffffffffffffffffffff1681526020018373ffffffffffffffffffffffffffffffffffffffff1673ffffffffffffffffffffffffffffffffffffffff16815260200182600019166000191681526020019350505050600060405180830381600087803b1515610ba557600080fd5b6102c65a03f11515610bb657600080fd5b5050508373ffffffffffffffffffffffffffffffffffffffff1663afd925df600088856040518463ffffffff167c0100000000000000000000000000000000000000000000000000000000028152600401808473ffffffffffffffffffffffffffffffffffffffff1673ffffffffffffffffffffffffffffffffffffffff1681526020018373ffffffffffffffffffffffffffffffffffffffff1673ffffffffffffffffffffffffffffffffffffffff16815260200182600019166000191681526020019350505050600060405180830381600087803b1515610c9857600080fd5b6102c65a03f11515610ca957600080fd5b5050508373ffffffffffffffffffffffffffffffffffffffff1663afd925df8886866040518463ffffffff167c0100000000000000000000000000000000000000000000000000000000028152600401808473ffffffffffffffffffffffffffffffffffffffff1673ffffffffffffffffffffffffffffffffffffffff1681526020018373ffffffffffffffffffffffffffffffffffffffff1673ffffffffffffffffffffffffffffffffffffffff16815260200182600019166000191681526020019350505050600060405180830381600087803b1515610d8a57600080fd5b6102c65a03f11515610d9b57600080fd5b5050505b7f3a7eb042a769adf51e9be78b68ed7af0ad7b379246536efc376ed2ca0123828286604051808273ffffffffffffffffffffffffffffffffffffffff1673ffffffffffffffffffffffffffffffffffffffff16815260200191505060405180910390a15050505050919050565b600260009054906101000a900473ffffffffffffffffffffffffffffffffffffffff1681565b6000809054906101000a900473ffffffffffffffffffffffffffffffffffffffff1681565b60405161078a80610e688339019056006060604052341561000f57600080fd5b60405160208061078a833981016040528080519060200190919050508060008060405180807f636f7265000000000000000000000000000000000000000000000000000000008152506004019050604051809103902060405180807f6b65726e656c2e617261676f6e706d2e657468000000000000000000000000008152506013019050604051809103902060405180836000191660001916815260200182600019166000191681526020019250505060405180910390206000191660001916815260200190815260200160002060006101000a81548173ffffffffffffffffffffffffffffffffffffffff021916908373ffffffffffffffffffffffffffffffffffffffff1602179055505061065f8061012b6000396000f30060606040526004361061008e576000357c0100000000000000000000000000000000000000000000000000000000900463ffffffff1680631113ed0d1461019e578063178e6079146101cf578063250126991461020057806338bb6def14610231578063756f604914610298578063a3b4b07f146102c9578063cbcc65eb146102fa578063db8a61d41461032b575b61019c60008060405180807f636f7265000000000000000000000000000000000000000000000000000000008152506004019050604051809103902060405180807f6b65726e656c2e617261676f6e706d2e657468000000000000000000000000008152506013019050604051809103902060405180836000191660001916815260200182600019166000191681526020019250505060405180910390206000191660001916815260200190815260200160002060009054906101000a900473ffffffffffffffffffffffffffffffffffffffff166000368080601f01602080910402602001604051908101604052809392919081815260200183838082843782019150505050505061035c565b005b34156101a957600080fd5b6101b161039a565b60405180826000191660001916815260200191505060405180910390f35b34156101da57600080fd5b6101e26103d3565b60405180826000191660001916815260200191505060405180910390f35b341561020b57600080fd5b61021361040c565b60405180826000191660001916815260200191505060405180910390f35b341561023c57600080fd5b6102566004808035600019169060200190919050506104a7565b604051808273ffffffffffffffffffffffffffffffffffffffff1673ffffffffffffffffffffffffffffffffffffffff16815260200191505060405180910390f35b34156102a357600080fd5b6102ab6104da565b60405180826000191660001916815260200191505060405180910390f35b34156102d457600080fd5b6102dc610513565b60405180826000191660001916815260200191505060405180910390f35b341561030557600080fd5b61030d6105ae565b60405180826000191660001916815260200191505060405180910390f35b341561033657600080fd5b61033e6105e7565b60405180826000191660001916815260200191505060405180910390f35b61036582610620565b151561037057600080fd5b600080825160208401856127105a03f43d604051816000823e8260008114610396578282f35b8282fd5b60405180807f6b65726e656c2e617261676f6e706d2e657468000000000000000000000000008152506013019050604051809103902081565b60405180807f61707000000000000000000000000000000000000000000000000000000000008152506003019050604051809103902081565b60405180807f636f7265000000000000000000000000000000000000000000000000000000008152506004019050604051809103902060405180807f6b65726e656c2e617261676f6e706d2e6574680000000000000000000000000081525060130190506040518091039020604051808360001916600019168152602001826000191660001916815260200192505050604051809103902081565b60006020528060005260406000206000915054906101000a900473ffffffffffffffffffffffffffffffffffffffff1681565b60405180807f636f7265000000000000000000000000000000000000000000000000000000008152506004019050604051809103902081565b60405180807f61707000000000000000000000000000000000000000000000000000000000008152506003019050604051809103902060405180807f61636c2e617261676f6e706d2e6574680000000000000000000000000000000081525060100190506040518091039020604051808360001916600019168152602001826000191660001916815260200192505050604051809103902081565b60405180807f61636c2e617261676f6e706d2e657468000000000000000000000000000000008152506010019050604051809103902081565b60405180807f62617365000000000000000000000000000000000000000000000000000000008152506004019050604051809103902081565b600080823b9050600081119150509190505600a165627a7a72305820af008560e449647bfd42b51cf2b36d1f34f79c3954dde25d5e6eeb8adfb58fcb0029a165627a7a7230582092e488df6d4d311dd73d041a0f05603860a868b3070be449e9130b0959cd2b3a0029",
  "source": "pragma solidity ^0.4.18;\n\nimport \"../kernel/Kernel.sol\";\nimport \"../kernel/KernelProxy.sol\";\n\nimport \"../acl/ACL.sol\";\n\nimport \"./EVMScriptRegistryFactory.sol\";\n\n\ncontract DAOFactory {\n    address public baseKernel;\n    address public baseACL;\n    EVMScriptRegistryFactory public regFactory;\n\n    event DeployDAO(address dao);\n    event DeployEVMScriptRegistry(address reg);\n\n    function DAOFactory(address _baseKernel, address _baseACL, address _regFactory) public {\n        // No need to init as it cannot be killed by devops199\n        if (_regFactory != address(0)) {\n            regFactory = EVMScriptRegistryFactory(_regFactory);\n        }\n\n        baseKernel = _baseKernel;\n        baseACL = _baseACL;\n    }\n\n    /**\n    * @param _root Address that will be granted control to setup DAO permissions\n    */\n    function newDAO(address _root) public returns (Kernel dao) {\n        dao = Kernel(new KernelProxy(baseKernel));\n\n        address initialRoot = address(regFactory) != address(0) ? this : _root;\n        dao.initialize(baseACL, initialRoot);\n\n        ACL acl = ACL(dao.acl());\n\n        if (address(regFactory) != address(0)) {\n            bytes32 permRole = acl.CREATE_PERMISSIONS_ROLE();\n            bytes32 appManagerRole = dao.APP_MANAGER_ROLE();\n\n            acl.grantPermission(regFactory, acl, permRole);\n\n            acl.createPermission(regFactory, dao, appManagerRole, this);\n\n            EVMScriptRegistry reg = regFactory.newEVMScriptRegistry(dao, _root);\n            DeployEVMScriptRegistry(address(reg));\n\n            acl.revokePermission(regFactory, dao, appManagerRole);\n            acl.grantPermission(_root, acl, permRole);\n\n            acl.setPermissionManager(address(0), dao, appManagerRole);\n            acl.setPermissionManager(_root, acl, permRole);\n        }\n\n        DeployDAO(dao);\n    }\n}\n",
  "sourcePath": "/Users/osarrouy/Documents/Devs/dapps/@wespr/swarm/contracts/factory/DAOFactory.sol",
  "compiler": {
    "name": "solc",
    "version": "0.4.19+commit.c4cbbb05.Emscripten.clang"
  },
  "schemaVersion": "1.0.1",
  "updatedAt": "2018-02-24T12:52:45.159Z"
}