{
  "contractName": "ENSFactory",
  "abi": [
    {
      "constant": true,
      "inputs": [],
      "name": "PUBLIC_RESOLVER_NODE",
      "outputs": [
        {
          "name": "",
          "type": "bytes32"
        }
      ],
      "payable": false,
      "stateMutability": "view",
      "type": "function"
    },
    {
      "constant": true,
      "inputs": [],
      "name": "ETH_TLD_LABEL",
      "outputs": [
        {
          "name": "",
          "type": "bytes32"
        }
      ],
      "payable": false,
      "stateMutability": "view",
      "type": "function"
    },
    {
      "constant": true,
      "inputs": [],
      "name": "ENS_ROOT",
      "outputs": [
        {
          "name": "",
          "type": "bytes32"
        }
      ],
      "payable": false,
      "stateMutability": "view",
      "type": "function"
    },
    {
      "constant": true,
      "inputs": [],
      "name": "PUBLIC_RESOLVER_LABEL",
      "outputs": [
        {
          "name": "",
          "type": "bytes32"
        }
      ],
      "payable": false,
      "stateMutability": "view",
      "type": "function"
    },
    {
      "constant": true,
      "inputs": [],
      "name": "ETH_TLD_NODE",
      "outputs": [
        {
          "name": "",
          "type": "bytes32"
        }
      ],
      "payable": false,
      "stateMutability": "view",
      "type": "function"
    },
    {
      "anonymous": false,
      "inputs": [
        {
          "indexed": false,
          "name": "ens",
          "type": "address"
        }
      ],
      "name": "DeployENS",
      "type": "event"
    },
    {
      "constant": false,
      "inputs": [
        {
          "name": "_owner",
          "type": "address"
        }
      ],
      "name": "newENS",
      "outputs": [
        {
          "name": "ens",
          "type": "address"
        }
      ],
      "payable": false,
      "stateMutability": "nonpayable",
      "type": "function"
    }
  ],
  "bytecode": "0x6060604052341561000f57600080fd5b612f9e8061001e6000396000f300606060405260043610610078576000357c0100000000000000000000000000000000000000000000000000000000900463ffffffff1680633f82e2c61461007d5780639b227a97146100ae578063a9bf1c9f146100df578063c84b1ce714610110578063e9358b0114610141578063fdee38a9146101ba575b600080fd5b341561008857600080fd5b6100906101eb565b60405180826000191660001916815260200191505060405180910390f35b34156100b957600080fd5b6100c16102b7565b60405180826000191660001916815260200191505060405180910390f35b34156100ea57600080fd5b6100f26102f0565b60405180826000191660001916815260200191505060405180910390f35b341561011b57600080fd5b6101236102f8565b60405180826000191660001916815260200191505060405180910390f35b341561014c57600080fd5b610178600480803573ffffffffffffffffffffffffffffffffffffffff16906020019091905050610331565b604051808273ffffffffffffffffffffffffffffffffffffffff1673ffffffffffffffffffffffffffffffffffffffff16815260200191505060405180910390f35b34156101c557600080fd5b6101cd610b76565b60405180826000191660001916815260200191505060405180910390f35b600060010260405180807f657468000000000000000000000000000000000000000000000000000000000081525060030190506040518091039020604051808360001916600019168152602001826000191660001916815260200192505050604051809103902060405180807f7265736f6c76657200000000000000000000000000000000000000000000000081525060080190506040518091039020604051808360001916600019168152602001826000191660001916815260200192505050604051809103902081565b60405180807f65746800000000000000000000000000000000000000000000000000000000008152506003019050604051809103902081565b600060010281565b60405180807f7265736f6c7665720000000000000000000000000000000000000000000000008152506008019050604051809103902081565b60008061033c610be0565b604051809103906000f080151561035257600080fd5b91508173ffffffffffffffffffffffffffffffffffffffff166306ab5923600060010260405180807f657468000000000000000000000000000000000000000000000000000000000081525060030190506040518091039020306040518463ffffffff167c010000000000000000000000000000000000000000000000000000000002815260040180846000191660001916815260200183600019166000191681526020018273ffffffffffffffffffffffffffffffffffffffff1673ffffffffffffffffffffffffffffffffffffffff1681526020019350505050600060405180830381600087803b151561044757600080fd5b6102c65a03f1151561045857600080fd5b50505081610464610bf0565b808273ffffffffffffffffffffffffffffffffffffffff1673ffffffffffffffffffffffffffffffffffffffff168152602001915050604051809103906000f08015156104b057600080fd5b90508173ffffffffffffffffffffffffffffffffffffffff166306ab5923600060010260405180807f657468000000000000000000000000000000000000000000000000000000000081525060030190506040518091039020604051808360001916600019168152602001826000191660001916815260200192505050604051809103902060405180807f7265736f6c76657200000000000000000000000000000000000000000000000081525060080190506040518091039020306040518463ffffffff167c010000000000000000000000000000000000000000000000000000000002815260040180846000191660001916815260200183600019166000191681526020018273ffffffffffffffffffffffffffffffffffffffff1673ffffffffffffffffffffffffffffffffffffffff1681526020019350505050600060405180830381600087803b151561060757600080fd5b6102c65a03f1151561061857600080fd5b5050508173ffffffffffffffffffffffffffffffffffffffff16631896f70a600060010260405180807f657468000000000000000000000000000000000000000000000000000000000081525060030190506040518091039020604051808360001916600019168152602001826000191660001916815260200192505050604051809103902060405180807f7265736f6c766572000000000000000000000000000000000000000000000000815250600801905060405180910390206040518083600019166000191681526020018260001916600019168152602001925050506040518091039020836040518363ffffffff167c01000000000000000000000000000000000000000000000000000000000281526004018083600019166000191681526020018273ffffffffffffffffffffffffffffffffffffffff1673ffffffffffffffffffffffffffffffffffffffff16815260200192505050600060405180830381600087803b151561078d57600080fd5b6102c65a03f1151561079e57600080fd5b5050508073ffffffffffffffffffffffffffffffffffffffff1663d5fa2b00600060010260405180807f657468000000000000000000000000000000000000000000000000000000000081525060030190506040518091039020604051808360001916600019168152602001826000191660001916815260200192505050604051809103902060405180807f7265736f6c766572000000000000000000000000000000000000000000000000815250600801905060405180910390206040518083600019166000191681526020018260001916600019168152602001925050506040518091039020836040518363ffffffff167c01000000000000000000000000000000000000000000000000000000000281526004018083600019166000191681526020018273ffffffffffffffffffffffffffffffffffffffff1673ffffffffffffffffffffffffffffffffffffffff16815260200192505050600060405180830381600087803b151561091357600080fd5b6102c65a03f1151561092457600080fd5b5050508173ffffffffffffffffffffffffffffffffffffffff16635b0fc9c3600060010260405180807f6574680000000000000000000000000000000000000000000000000000000000815250600301905060405180910390206040518083600019166000191681526020018260001916600019168152602001925050506040518091039020856040518363ffffffff167c01000000000000000000000000000000000000000000000000000000000281526004018083600019166000191681526020018273ffffffffffffffffffffffffffffffffffffffff1673ffffffffffffffffffffffffffffffffffffffff16815260200192505050600060405180830381600087803b1515610a3757600080fd5b6102c65a03f11515610a4857600080fd5b5050508173ffffffffffffffffffffffffffffffffffffffff16635b0fc9c36000600102856040518363ffffffff167c01000000000000000000000000000000000000000000000000000000000281526004018083600019166000191681526020018273ffffffffffffffffffffffffffffffffffffffff1673ffffffffffffffffffffffffffffffffffffffff16815260200192505050600060405180830381600087803b1515610af957600080fd5b6102c65a03f11515610b0a57600080fd5b5050507fdbfb5ababf63f86424e8df6053dfb90f8b63ea26d7e1e8f68407af4fb2d2c4f282604051808273ffffffffffffffffffffffffffffffffffffffff1673ffffffffffffffffffffffffffffffffffffffff16815260200191505060405180910390a150919050565b600060010260405180807f657468000000000000000000000000000000000000000000000000000000000081525060030190506040518091039020604051808360001916600019168152602001826000191660001916815260200192505050604051809103902081565b60405161093980610c0183390190565b604051611a398061153a8339019056006060604052341561000f57600080fd5b336000808060010260001916815260200190815260200160002060000160006101000a81548173ffffffffffffffffffffffffffffffffffffffff021916908373ffffffffffffffffffffffffffffffffffffffff1602179055506108c0806100796000396000f300606060405260043610610083576000357c0100000000000000000000000000000000000000000000000000000000900463ffffffff1680630178b8bf1461008857806302571be3146100ef57806306ab59231461015657806314ab9038146101a957806316a25cbd146101e35780631896f70a146102325780635b0fc9c314610278575b600080fd5b341561009357600080fd5b6100ad6004808035600019169060200190919050506102be565b604051808273ffffffffffffffffffffffffffffffffffffffff1673ffffffffffffffffffffffffffffffffffffffff16815260200191505060405180910390f35b34156100fa57600080fd5b610114600480803560001916906020019091905050610305565b604051808273ffffffffffffffffffffffffffffffffffffffff1673ffffffffffffffffffffffffffffffffffffffff16815260200191505060405180910390f35b341561016157600080fd5b6101a76004808035600019169060200190919080356000191690602001909190803573ffffffffffffffffffffffffffffffffffffffff1690602001909190505061034c565b005b34156101b457600080fd5b6101e160048080356000191690602001909190803567ffffffffffffffff169060200190919050506104c6565b005b34156101ee57600080fd5b6102086004808035600019169060200190919050506105d7565b604051808267ffffffffffffffff1667ffffffffffffffff16815260200191505060405180910390f35b341561023d57600080fd5b61027660048080356000191690602001909190803573ffffffffffffffffffffffffffffffffffffffff16906020019091905050610612565b005b341561028357600080fd5b6102bc60048080356000191690602001909190803573ffffffffffffffffffffffffffffffffffffffff16906020019091905050610753565b005b6000806000836000191660001916815260200190815260200160002060010160009054906101000a900473ffffffffffffffffffffffffffffffffffffffff169050919050565b6000806000836000191660001916815260200190815260200160002060000160009054906101000a900473ffffffffffffffffffffffffffffffffffffffff169050919050565b6000833373ffffffffffffffffffffffffffffffffffffffff16600080836000191660001916815260200190815260200160002060000160009054906101000a900473ffffffffffffffffffffffffffffffffffffffff1673ffffffffffffffffffffffffffffffffffffffff161415156103c657600080fd5b848460405180836000191660001916815260200182600019166000191681526020019250505060405180910390209150836000191685600019167fce0457fe73731f824cc272376169235128c118b49d344817417c6d108d155e8285604051808273ffffffffffffffffffffffffffffffffffffffff1673ffffffffffffffffffffffffffffffffffffffff16815260200191505060405180910390a382600080846000191660001916815260200190815260200160002060000160006101000a81548173ffffffffffffffffffffffffffffffffffffffff021916908373ffffffffffffffffffffffffffffffffffffffff1602179055505050505050565b813373ffffffffffffffffffffffffffffffffffffffff16600080836000191660001916815260200190815260200160002060000160009054906101000a900473ffffffffffffffffffffffffffffffffffffffff1673ffffffffffffffffffffffffffffffffffffffff1614151561053e57600080fd5b82600019167f1d4f9bbfc9cab89d66e1a1562f2233ccbf1308cb4f63de2ead5787adddb8fa6883604051808267ffffffffffffffff1667ffffffffffffffff16815260200191505060405180910390a281600080856000191660001916815260200190815260200160002060010160146101000a81548167ffffffffffffffff021916908367ffffffffffffffff160217905550505050565b6000806000836000191660001916815260200190815260200160002060010160149054906101000a900467ffffffffffffffff169050919050565b813373ffffffffffffffffffffffffffffffffffffffff16600080836000191660001916815260200190815260200160002060000160009054906101000a900473ffffffffffffffffffffffffffffffffffffffff1673ffffffffffffffffffffffffffffffffffffffff1614151561068a57600080fd5b82600019167f335721b01866dc23fbee8b6b2c7b1e14d6f05c28cd35a2c934239f94095602a083604051808273ffffffffffffffffffffffffffffffffffffffff1673ffffffffffffffffffffffffffffffffffffffff16815260200191505060405180910390a281600080856000191660001916815260200190815260200160002060010160006101000a81548173ffffffffffffffffffffffffffffffffffffffff021916908373ffffffffffffffffffffffffffffffffffffffff160217905550505050565b813373ffffffffffffffffffffffffffffffffffffffff16600080836000191660001916815260200190815260200160002060000160009054906101000a900473ffffffffffffffffffffffffffffffffffffffff1673ffffffffffffffffffffffffffffffffffffffff161415156107cb57600080fd5b82600019167fd4735d920b0f87494915f556dd9b54c8f309026070caea5c737245152564d26683604051808273ffffffffffffffffffffffffffffffffffffffff1673ffffffffffffffffffffffffffffffffffffffff16815260200191505060405180910390a281600080856000191660001916815260200190815260200160002060000160006101000a81548173ffffffffffffffffffffffffffffffffffffffff021916908373ffffffffffffffffffffffffffffffffffffffff1602179055505050505600a165627a7a72305820f433bd063db3507b133c61b84725882a2b7539b9bc684be956db56daa29f731b00296060604052341561000f57600080fd5b604051602080611a3983398101604052808051906020019091905050806000806101000a81548173ffffffffffffffffffffffffffffffffffffffff021916908373ffffffffffffffffffffffffffffffffffffffff160217905550506119be8061007b6000396000f3006060604052600436106100c5576000357c0100000000000000000000000000000000000000000000000000000000900463ffffffff16806301ffc9a7146100ca57806310f13a8c146101245780632203ab56146101d157806329cd62ea146102815780632dff6941146102c25780633b3b57de1461030557806359d1d43c1461036c578063623195b01461044f578063691f3431146104c25780637737221314610562578063c3d014d6146105cc578063c869023314610600578063d5fa2b0014610652575b600080fd5b34156100d557600080fd5b61010a60048080357bffffffffffffffffffffffffffffffffffffffffffffffffffffffff1916906020019091905050610698565b604051808215151515815260200191505060405180910390f35b341561012f57600080fd5b6101cf60048080356000191690602001909190803590602001908201803590602001908080601f0160208091040260200160405190810160405280939291908181526020018383808284378201915050505050509190803590602001908201803590602001908080601f01602080910402602001604051908101604052809392919081815260200183838082843782019150505050505091905050610987565b005b34156101dc57600080fd5b6101ff600480803560001916906020019091908035906020019091905050610c22565b6040518083815260200180602001828103825283818151815260200191508051906020019080838360005b8381101561024557808201518184015260208101905061022a565b50505050905090810190601f1680156102725780820380516001836020036101000a031916815260200191505b50935050505060405180910390f35b341561028c57600080fd5b6102c06004808035600019169060200190919080356000191690602001909190803560001916906020019091905050610d6b565b005b34156102cd57600080fd5b6102e7600480803560001916906020019091905050610f18565b60405180826000191660001916815260200191505060405180910390f35b341561031057600080fd5b61032a600480803560001916906020019091905050610f40565b604051808273ffffffffffffffffffffffffffffffffffffffff1673ffffffffffffffffffffffffffffffffffffffff16815260200191505060405180910390f35b341561037757600080fd5b6103d460048080356000191690602001909190803590602001908201803590602001908080601f01602080910402602001604051908101604052809392919081815260200183838082843782019150505050505091905050610f88565b6040518080602001828103825283818151815260200191508051906020019080838360005b838110156104145780820151818401526020810190506103f9565b50505050905090810190601f1680156104415780820380516001836020036101000a031916815260200191505b509250505060405180910390f35b341561045a57600080fd5b6104c060048080356000191690602001909190803590602001909190803590602001908201803590602001908080601f016020809104026020016040519081016040528093929190818152602001838380828437820191505050505050919050506110b8565b005b34156104cd57600080fd5b6104e760048080356000191690602001909190505061123d565b6040518080602001828103825283818151815260200191508051906020019080838360005b8381101561052757808201518184015260208101905061050c565b50505050905090810190601f1680156105545780820380516001836020036101000a031916815260200191505b509250505060405180910390f35b341561056d57600080fd5b6105ca60048080356000191690602001909190803590602001908201803590602001908080601f01602080910402602001604051908101604052809392919081815260200183838082843782019150505050505091905050611303565b005b34156105d757600080fd5b6105fe600480803560001916906020019091908035600019169060200190919050506114d1565b005b341561060b57600080fd5b610625600480803560001916906020019091905050611636565b60405180836000191660001916815260200182600019166000191681526020019250505060405180910390f35b341561065d57600080fd5b61069660048080356000191690602001909190803573ffffffffffffffffffffffffffffffffffffffff16906020019091905050611686565b005b6000633b3b57de7c0100000000000000000000000000000000000000000000000000000000027bffffffffffffffffffffffffffffffffffffffffffffffffffffffff1916827bffffffffffffffffffffffffffffffffffffffffffffffffffffffff19161480610769575063d8389dc57c0100000000000000000000000000000000000000000000000000000000027bffffffffffffffffffffffffffffffffffffffffffffffffffffffff1916827bffffffffffffffffffffffffffffffffffffffffffffffffffffffff1916145b806107d4575063691f34317c0100000000000000000000000000000000000000000000000000000000027bffffffffffffffffffffffffffffffffffffffffffffffffffffffff1916827bffffffffffffffffffffffffffffffffffffffffffffffffffffffff1916145b8061083f5750632203ab567c0100000000000000000000000000000000000000000000000000000000027bffffffffffffffffffffffffffffffffffffffffffffffffffffffff1916827bffffffffffffffffffffffffffffffffffffffffffffffffffffffff1916145b806108aa575063c86902337c0100000000000000000000000000000000000000000000000000000000027bffffffffffffffffffffffffffffffffffffffffffffffffffffffff1916827bffffffffffffffffffffffffffffffffffffffffffffffffffffffff1916145b8061091557506359d1d43c7c0100000000000000000000000000000000000000000000000000000000027bffffffffffffffffffffffffffffffffffffffffffffffffffffffff1916827bffffffffffffffffffffffffffffffffffffffffffffffffffffffff1916145b8061098057506301ffc9a77c0100000000000000000000000000000000000000000000000000000000027bffffffffffffffffffffffffffffffffffffffffffffffffffffffff1916827bffffffffffffffffffffffffffffffffffffffffffffffffffffffff1916145b9050919050565b823373ffffffffffffffffffffffffffffffffffffffff166000809054906101000a900473ffffffffffffffffffffffffffffffffffffffff1673ffffffffffffffffffffffffffffffffffffffff166302571be3836000604051602001526040518263ffffffff167c0100000000000000000000000000000000000000000000000000000000028152600401808260001916600019168152602001915050602060405180830381600087803b1515610a3f57600080fd5b6102c65a03f11515610a5057600080fd5b5050506040518051905073ffffffffffffffffffffffffffffffffffffffff16141515610a7c57600080fd5b81600160008660001916600019168152602001908152602001600020600501846040518082805190602001908083835b602083101515610ad15780518252602082019150602081019050602083039250610aac565b6001836020036101000a03801982511681845116808217855250505050505090500191505090815260200160405180910390209080519060200190610b17929190611845565b50826040518082805190602001908083835b602083101515610b4e5780518252602082019150602081019050602083039250610b29565b6001836020036101000a038019825116818451168082178552505050505050905001915050604051809103902084600019167fd8c9334b1a9c2f9da342a0a2b32629c1a229b6445dad78947f674b44444a7550856040518080602001828103825283818151815260200191508051906020019080838360005b83811015610be2578082015181840152602081019050610bc7565b50505050905090810190601f168015610c0f5780820380516001836020036101000a031916815260200191505b509250505060405180910390a350505050565b6000610c2c6118c5565b60006001600086600019166000191681526020019081526020016000209050600192505b8383111515610d5e57600084841614158015610c9557506000816006016000858152602001908152602001600020805460018160011615610100020316600290049050115b15610d4f578060060160008481526020019081526020016000208054600181600116156101000203166002900480601f016020809104026020016040519081016040528092919081815260200182805460018160011615610100020316600290048015610d435780601f10610d1857610100808354040283529160200191610d43565b820191906000526020600020905b815481529060010190602001808311610d2657829003601f168201915b50505050509150610d63565b6001839060020a029250610c50565b600092505b509250929050565b823373ffffffffffffffffffffffffffffffffffffffff166000809054906101000a900473ffffffffffffffffffffffffffffffffffffffff1673ffffffffffffffffffffffffffffffffffffffff166302571be3836000604051602001526040518263ffffffff167c0100000000000000000000000000000000000000000000000000000000028152600401808260001916600019168152602001915050602060405180830381600087803b1515610e2357600080fd5b6102c65a03f11515610e3457600080fd5b5050506040518051905073ffffffffffffffffffffffffffffffffffffffff16141515610e6057600080fd5b6040805190810160405280846000191681526020018360001916815250600160008660001916600019168152602001908152602001600020600301600082015181600001906000191690556020820151816001019060001916905590505083600019167f1d6f5e03d3f63eb58751986629a5439baee5079ff04f345becb66e23eb154e46848460405180836000191660001916815260200182600019166000191681526020019250505060405180910390a250505050565b6000600160008360001916600019168152602001908152602001600020600101549050919050565b600060016000836000191660001916815260200190815260200160002060000160009054906101000a900473ffffffffffffffffffffffffffffffffffffffff169050919050565b610f906118d9565b600160008460001916600019168152602001908152602001600020600501826040518082805190602001908083835b602083101515610fe45780518252602082019150602081019050602083039250610fbf565b6001836020036101000a03801982511681845116808217855250505050505090500191505090815260200160405180910390208054600181600116156101000203166002900480601f0160208091040260200160405190810160405280929190818152602001828054600181600116156101000203166002900480156110ab5780601f10611080576101008083540402835291602001916110ab565b820191906000526020600020905b81548152906001019060200180831161108e57829003601f168201915b5050505050905092915050565b823373ffffffffffffffffffffffffffffffffffffffff166000809054906101000a900473ffffffffffffffffffffffffffffffffffffffff1673ffffffffffffffffffffffffffffffffffffffff166302571be3836000604051602001526040518263ffffffff167c0100000000000000000000000000000000000000000000000000000000028152600401808260001916600019168152602001915050602060405180830381600087803b151561117057600080fd5b6102c65a03f1151561118157600080fd5b5050506040518051905073ffffffffffffffffffffffffffffffffffffffff161415156111ad57600080fd5b60008360018503161415156111c157600080fd5b81600160008660001916600019168152602001908152602001600020600601600085815260200190815260200160002090805190602001906112049291906118ed565b508284600019167faa121bbeef5f32f5961a2a28966e769023910fc9479059ee3495d4c1a696efe360405160405180910390a350505050565b6112456118d9565b6001600083600019166000191681526020019081526020016000206002018054600181600116156101000203166002900480601f0160208091040260200160405190810160405280929190818152602001828054600181600116156101000203166002900480156112f75780601f106112cc576101008083540402835291602001916112f7565b820191906000526020600020905b8154815290600101906020018083116112da57829003601f168201915b50505050509050919050565b813373ffffffffffffffffffffffffffffffffffffffff166000809054906101000a900473ffffffffffffffffffffffffffffffffffffffff1673ffffffffffffffffffffffffffffffffffffffff166302571be3836000604051602001526040518263ffffffff167c0100000000000000000000000000000000000000000000000000000000028152600401808260001916600019168152602001915050602060405180830381600087803b15156113bb57600080fd5b6102c65a03f115156113cc57600080fd5b5050506040518051905073ffffffffffffffffffffffffffffffffffffffff161415156113f857600080fd5b81600160008560001916600019168152602001908152602001600020600201908051906020019061142a929190611845565b5082600019167fb7d29e911041e8d9b843369e890bcb72c9388692ba48b65ac54e7214c4c348f7836040518080602001828103825283818151815260200191508051906020019080838360005b83811015611492578082015181840152602081019050611477565b50505050905090810190601f1680156114bf5780820380516001836020036101000a031916815260200191505b509250505060405180910390a2505050565b813373ffffffffffffffffffffffffffffffffffffffff166000809054906101000a900473ffffffffffffffffffffffffffffffffffffffff1673ffffffffffffffffffffffffffffffffffffffff166302571be3836000604051602001526040518263ffffffff167c0100000000000000000000000000000000000000000000000000000000028152600401808260001916600019168152602001915050602060405180830381600087803b151561158957600080fd5b6102c65a03f1151561159a57600080fd5b5050506040518051905073ffffffffffffffffffffffffffffffffffffffff161415156115c657600080fd5b81600160008560001916600019168152602001908152602001600020600101816000191690555082600019167f0424b6fe0d9c3bdbece0e7879dc241bb0c22e900be8b6c168b4ee08bd9bf83bc8360405180826000191660001916815260200191505060405180910390a2505050565b600080600160008460001916600019168152602001908152602001600020600301600001546001600085600019166000191681526020019081526020016000206003016001015491509150915091565b813373ffffffffffffffffffffffffffffffffffffffff166000809054906101000a900473ffffffffffffffffffffffffffffffffffffffff1673ffffffffffffffffffffffffffffffffffffffff166302571be3836000604051602001526040518263ffffffff167c0100000000000000000000000000000000000000000000000000000000028152600401808260001916600019168152602001915050602060405180830381600087803b151561173e57600080fd5b6102c65a03f1151561174f57600080fd5b5050506040518051905073ffffffffffffffffffffffffffffffffffffffff1614151561177b57600080fd5b8160016000856000191660001916815260200190815260200160002060000160006101000a81548173ffffffffffffffffffffffffffffffffffffffff021916908373ffffffffffffffffffffffffffffffffffffffff16021790555082600019167f52d7d861f09ab3d26239d492e8968629f95e9e318cf0b73bfddc441522a15fd283604051808273ffffffffffffffffffffffffffffffffffffffff1673ffffffffffffffffffffffffffffffffffffffff16815260200191505060405180910390a2505050565b828054600181600116156101000203166002900490600052602060002090601f016020900481019282601f1061188657805160ff19168380011785556118b4565b828001600101855582156118b4579182015b828111156118b3578251825591602001919060010190611898565b5b5090506118c1919061196d565b5090565b602060405190810160405280600081525090565b602060405190810160405280600081525090565b828054600181600116156101000203166002900490600052602060002090601f016020900481019282601f1061192e57805160ff191683800117855561195c565b8280016001018555821561195c579182015b8281111561195b578251825591602001919060010190611940565b5b509050611969919061196d565b5090565b61198f91905b8082111561198b576000816000905550600101611973565b5090565b905600a165627a7a72305820b0e8a6d0487e01cee74cbab29dbf669716b82f45ac8747ae0ab9c4c7dcd812b80029a165627a7a723058204848e1ab1db12ee9032095db761bbc0d70e85393d570567c48cf85e91cc424bb0029",
  "source": "pragma solidity ^0.4.18;\n\nimport \"../lib/ens/ENS.sol\";\nimport \"../lib/ens/PublicResolver.sol\";\nimport \"../ens/ENSSubdomainRegistrar.sol\";\n\n\ncontract ENSFactory is ENSConstants {\n    event DeployENS(address ens);\n\n    // This is an incredibly trustfull ENS deployment, only use for testing\n    function newENS(address _owner) public returns (ENS ens) {\n        ens = new ENS();\n\n        // Setup .eth TLD\n        ens.setSubnodeOwner(ENS_ROOT, ETH_TLD_LABEL, this);\n\n        // Setup public resolver\n        PublicResolver resolver = new PublicResolver(ens);\n        ens.setSubnodeOwner(ETH_TLD_NODE, PUBLIC_RESOLVER_LABEL, this);\n        ens.setResolver(PUBLIC_RESOLVER_NODE, resolver);\n        resolver.setAddr(PUBLIC_RESOLVER_NODE, resolver);\n\n        ens.setOwner(ETH_TLD_NODE, _owner);\n        ens.setOwner(ENS_ROOT, _owner);\n\n        DeployENS(ens);\n    }\n}\n",
  "sourcePath": "/Users/osarrouy/Documents/Devs/dapps/@wespr/swarm/contracts/factory/ENSFactory.sol",
  "compiler": {
    "name": "solc",
    "version": "0.4.19+commit.c4cbbb05.Emscripten.clang"
  },
  "schemaVersion": "1.0.1",
  "updatedAt": "2018-02-20T14:48:34.698Z"
}