{
  "contractName": "Initializable",
  "abi": [
    {
      "constant": true,
      "inputs": [],
      "name": "appId",
      "outputs": [
        {
          "name": "",
          "type": "bytes32"
        }
      ],
      "payable": false,
      "stateMutability": "view",
      "type": "function"
    },
    {
      "constant": true,
      "inputs": [],
      "name": "kernel",
      "outputs": [
        {
          "name": "",
          "type": "address"
        }
      ],
      "payable": false,
      "stateMutability": "view",
      "type": "function"
    },
    {
      "constant": true,
      "inputs": [],
      "name": "getInitializationBlock",
      "outputs": [
        {
          "name": "",
          "type": "uint256"
        }
      ],
      "payable": false,
      "stateMutability": "view",
      "type": "function"
    }
  ],
  "bytecode": "0x6060604052341561000f57600080fd5b61016c8061001e6000396000f300606060405260043610610057576000357c0100000000000000000000000000000000000000000000000000000000900463ffffffff16806380afdea81461005c5780638b3dd7491461008d578063d4aae0c4146100b6575b600080fd5b341561006757600080fd5b61006f61010b565b60405180826000191660001916815260200191505060405180910390f35b341561009857600080fd5b6100a0610111565b6040518082815260200191505060405180910390f35b34156100c157600080fd5b6100c961011b565b604051808273ffffffffffffffffffffffffffffffffffffffff1673ffffffffffffffffffffffffffffffffffffffff16815260200191505060405180910390f35b60015481565b6000600354905090565b6000809054906101000a900473ffffffffffffffffffffffffffffffffffffffff16815600a165627a7a7230582078ed2216a3be4d4df8f5adae08dc638cc2594d69ce16c62f00f6b30dc68c830d0029",
  "source": "pragma solidity ^0.4.18;\n\nimport \"../apps/AppStorage.sol\";\n\n\ncontract Initializable is AppStorage {\n    modifier onlyInit {\n        require(initializationBlock == 0);\n        _;\n    }\n\n    /**\n    * @return Block number in which the contract was initialized\n    */\n    function getInitializationBlock() public view returns (uint256) {\n        return initializationBlock;\n    }\n\n    /**\n    * @dev Function to be called by top level contract after initialization has finished.\n    */\n    function initialized() internal onlyInit {\n        initializationBlock = getBlockNumber();\n    }\n\n    /**\n    * @dev Returns the current block number.\n    *      Using a function rather than `block.number` allows us to easily mock the block number in\n    *      tests.\n    */\n    function getBlockNumber() internal view returns (uint256) {\n        return block.number;\n    }\n}\n",
  "sourcePath": "/Users/osarrouy/Documents/Devs/dapps/@wespr/swarm/contracts/common/Initializable.sol",
  "compiler": {
    "name": "solc",
    "version": "0.4.19+commit.c4cbbb05.Emscripten.clang"
  },
  "schemaVersion": "1.0.1",
  "updatedAt": "2018-03-01T11:33:06.450Z"
}