{
  "contractName": "Specimen",
  "abi": [
    {
      "constant": true,
      "inputs": [],
      "name": "APP_ADDR_NAMESPACE",
      "outputs": [
        {
          "name": "",
          "type": "bytes32"
        }
      ],
      "payable": false,
      "stateMutability": "view",
      "type": "function"
    },
    {
      "constant": true,
      "inputs": [],
      "name": "getRecoveryVault",
      "outputs": [
        {
          "name": "",
          "type": "address"
        }
      ],
      "payable": false,
      "stateMutability": "view",
      "type": "function"
    },
    {
      "constant": true,
      "inputs": [],
      "name": "EVMSCRIPT_REGISTRY_APP_ID",
      "outputs": [
        {
          "name": "",
          "type": "bytes32"
        }
      ],
      "payable": false,
      "stateMutability": "view",
      "type": "function"
    },
    {
      "constant": true,
      "inputs": [
        {
          "name": "token",
          "type": "address"
        }
      ],
      "name": "allowRecoverability",
      "outputs": [
        {
          "name": "",
          "type": "bool"
        }
      ],
      "payable": false,
      "stateMutability": "view",
      "type": "function"
    },
    {
      "constant": true,
      "inputs": [],
      "name": "appId",
      "outputs": [
        {
          "name": "",
          "type": "bytes32"
        }
      ],
      "payable": false,
      "stateMutability": "view",
      "type": "function"
    },
    {
      "constant": true,
      "inputs": [],
      "name": "ETH",
      "outputs": [
        {
          "name": "",
          "type": "address"
        }
      ],
      "payable": false,
      "stateMutability": "view",
      "type": "function"
    },
    {
      "constant": true,
      "inputs": [
        {
          "name": "",
          "type": "uint256"
        }
      ],
      "name": "branches",
      "outputs": [
        {
          "name": "name",
          "type": "string"
        }
      ],
      "payable": false,
      "stateMutability": "view",
      "type": "function"
    },
    {
      "constant": true,
      "inputs": [],
      "name": "getInitializationBlock",
      "outputs": [
        {
          "name": "",
          "type": "uint256"
        }
      ],
      "payable": false,
      "stateMutability": "view",
      "type": "function"
    },
    {
      "constant": true,
      "inputs": [],
      "name": "EVMSCRIPT_REGISTRY_APP",
      "outputs": [
        {
          "name": "",
          "type": "bytes32"
        }
      ],
      "payable": false,
      "stateMutability": "view",
      "type": "function"
    },
    {
      "constant": false,
      "inputs": [
        {
          "name": "_token",
          "type": "address"
        }
      ],
      "name": "transferToVault",
      "outputs": [],
      "payable": false,
      "stateMutability": "nonpayable",
      "type": "function"
    },
    {
      "constant": true,
      "inputs": [
        {
          "name": "_sender",
          "type": "address"
        },
        {
          "name": "_role",
          "type": "bytes32"
        },
        {
          "name": "params",
          "type": "uint256[]"
        }
      ],
      "name": "canPerform",
      "outputs": [
        {
          "name": "",
          "type": "bool"
        }
      ],
      "payable": false,
      "stateMutability": "view",
      "type": "function"
    },
    {
      "constant": true,
      "inputs": [],
      "name": "PUSH",
      "outputs": [
        {
          "name": "",
          "type": "bytes32"
        }
      ],
      "payable": false,
      "stateMutability": "view",
      "type": "function"
    },
    {
      "constant": true,
      "inputs": [],
      "name": "kernel",
      "outputs": [
        {
          "name": "",
          "type": "address"
        }
      ],
      "payable": false,
      "stateMutability": "view",
      "type": "function"
    },
    {
      "constant": true,
      "inputs": [
        {
          "name": "_script",
          "type": "bytes"
        }
      ],
      "name": "getExecutor",
      "outputs": [
        {
          "name": "",
          "type": "address"
        }
      ],
      "payable": false,
      "stateMutability": "view",
      "type": "function"
    },
    {
      "anonymous": false,
      "inputs": [
        {
          "indexed": false,
          "name": "name",
          "type": "string"
        },
        {
          "indexed": false,
          "name": "branchID",
          "type": "uint256"
        }
      ],
      "name": "NewBranch",
      "type": "event"
    },
    {
      "anonymous": false,
      "inputs": [
        {
          "indexed": false,
          "name": "branch",
          "type": "string"
        },
        {
          "indexed": false,
          "name": "author",
          "type": "address"
        },
        {
          "indexed": false,
          "name": "cid",
          "type": "string"
        }
      ],
      "name": "NewSnapshot",
      "type": "event"
    },
    {
      "constant": false,
      "inputs": [],
      "name": "initialize",
      "outputs": [],
      "payable": false,
      "stateMutability": "nonpayable",
      "type": "function"
    },
    {
      "constant": true,
      "inputs": [
        {
          "name": "_hash",
          "type": "bytes32"
        }
      ],
      "name": "isBranch",
      "outputs": [
        {
          "name": "isIndeed",
          "type": "bool"
        }
      ],
      "payable": false,
      "stateMutability": "view",
      "type": "function"
    },
    {
      "constant": false,
      "inputs": [
        {
          "name": "_branch",
          "type": "string"
        },
        {
          "name": "_head",
          "type": "string"
        }
      ],
      "name": "setHead",
      "outputs": [],
      "payable": false,
      "stateMutability": "nonpayable",
      "type": "function"
    },
    {
      "constant": true,
      "inputs": [
        {
          "name": "_branch",
          "type": "string"
        }
      ],
      "name": "getHead",
      "outputs": [
        {
          "name": "_cid",
          "type": "string"
        }
      ],
      "payable": false,
      "stateMutability": "view",
      "type": "function"
    },
    {
      "constant": true,
      "inputs": [
        {
          "name": "_hash",
          "type": "bytes32"
        }
      ],
      "name": "getHeadH",
      "outputs": [
        {
          "name": "cid_",
          "type": "string"
        }
      ],
      "payable": false,
      "stateMutability": "view",
      "type": "function"
    },
    {
      "constant": false,
      "inputs": [
        {
          "name": "_name",
          "type": "string"
        }
      ],
      "name": "newBranch",
      "outputs": [
        {
          "name": "branchID_",
          "type": "uint256"
        }
      ],
      "payable": false,
      "stateMutability": "nonpayable",
      "type": "function"
    }
  ],
  "bytecode": "0x608060405234801561001057600080fd5b506120c4806100206000396000f300608060405260043610610112576000357c0100000000000000000000000000000000000000000000000000000000900463ffffffff168063178e60791461011757806332f0a3b51461014257806360b1e0571461016d57806378483247146101985780637e7db6e1146101d557806380afdea8146102125780638129fc1c1461023d5780638322fff21461025457806383cc76601461027f578063874bbca1146102bc5780638b3dd749146102f957806392654c8d146103245780639b3fdf4c1461034d5780639d4941d814610378578063a1658fad146103a1578063afb00805146103de578063cc6804c81461041b578063cf6c2d5214610446578063d4aae0c414610483578063f92a79ff146104ae575b600080fd5b34801561012357600080fd5b5061012c6104eb565b6040516101399190611d51565b60405180910390f35b34801561014e57600080fd5b50610157610512565b6040516101649190611ca6565b60405180910390f35b34801561017957600080fd5b5061018261061c565b60405161018f9190611d51565b60405180910390f35b3480156101a457600080fd5b506101bf60048036036101ba9190810190611a32565b610643565b6040516101cc9190611e01565b60405180910390f35b3480156101e157600080fd5b506101fc60048036036101f79190810190611950565b610781565b6040516102099190611d36565b60405180910390f35b34801561021e57600080fd5b5061022761078c565b6040516102349190611d51565b60405180910390f35b34801561024957600080fd5b50610252610792565b005b34801561026057600080fd5b506102696107ad565b6040516102769190611ca6565b60405180910390f35b34801561028b57600080fd5b506102a660048036036102a19190810190611b49565b6107b2565b6040516102b39190611ddf565b60405180910390f35b3480156102c857600080fd5b506102e360048036036102de9190810190611a9c565b610877565b6040516102f09190611e98565b60405180910390f35b34801561030557600080fd5b5061030e610a9a565b60405161031b9190611e98565b60405180910390f35b34801561033057600080fd5b5061034b60048036036103469190810190611add565b610aa4565b005b34801561035957600080fd5b50610362610d27565b60405161036f9190611d51565b60405180910390f35b34801561038457600080fd5b5061039f600480360361039a9190810190611950565b610d4e565b005b3480156103ad57600080fd5b506103c860048036036103c391908101906119a2565b610f74565b6040516103d59190611d36565b60405180910390f35b3480156103ea57600080fd5b5061040560048036036104009190810190611a32565b6110ac565b6040516104129190611d36565b60405180910390f35b34801561042757600080fd5b506104306110e1565b60405161043d9190611d51565b60405180910390f35b34801561045257600080fd5b5061046d60048036036104689190810190611a9c565b6110e8565b60405161047a9190611e01565b60405180910390f35b34801561048f57600080fd5b506104986112f9565b6040516104a59190611da9565b60405180910390f35b3480156104ba57600080fd5b506104d560048036036104d09190810190611a5b565b61131e565b6040516104e29190611d8e565b60405180910390f35b7fd6f028ca0e8edb4a8c9757ca4fdccab25fa1e0317da1188108f7d2dee14902fb60010281565b6000806000809054906101000a900473ffffffffffffffffffffffffffffffffffffffff1673ffffffffffffffffffffffffffffffffffffffff161415151561055a57600080fd5b6000809054906101000a900473ffffffffffffffffffffffffffffffffffffffff1673ffffffffffffffffffffffffffffffffffffffff166332f0a3b56040518163ffffffff167c0100000000000000000000000000000000000000000000000000000000028152600401602060405180830381600087803b1580156105df57600080fd5b505af11580156105f3573d6000803e3d6000fd5b505050506040513d601f19601f820116820180604052506106179190810190611979565b905090565b7fddbcfd564f642ab5627cf68b9b7d374fb4f8a36e941a75d89c87998cef03bd6160010281565b60606000610650836110ac565b151561065b57600080fd5b60656000846000191660001916815260200190815260200160002060010154905060648181548110151561068b57fe5b906000526020600020906002020160010160016064838154811015156106ad57fe5b906000526020600020906002020160010180549050038154811015156106cf57fe5b90600052602060002090600302016002018054600181600116156101000203166002900480601f0160208091040260200160405190810160405280929190818152602001828054600181600116156101000203166002900480156107745780601f1061074957610100808354040283529160200191610774565b820191906000526020600020905b81548152906001019060200180831161075757829003601f168201915b5050505050915050919050565b600060019050919050565b60015481565b60006003541415156107a357600080fd5b6107ab6113d5565b565b600081565b6064818154811015156107c157fe5b9060005260206000209060020201600091509050806000018054600181600116156101000203166002900480601f01602080910402602001604051908101604052809291908181526020018280546001816001161561010002031660029004801561086d5780601f106108425761010080835404028352916020019161086d565b820191906000526020600020905b81548152906001019060200180831161085057829003601f168201915b5050505050905081565b6000806000600180026108bb338260006040519080825280602002602001820160405280156108b55781602001602082028038833980820191505090505b50610f74565b15156108c657600080fd5b846040516020018082805190602001908083835b6020831015156108ff57805182526020820191506020810190506020830392506108da565b6001836020036101000a0380198251168184511680821785525050505050509050019150506040516020818303038152906040526040518082805190602001908083835b6020831015156109685780518252602082019150602081019050602083039250610943565b6001836020036101000a038019825116818451168082178552505050505050905001915050604051809103902092506109a0836110ac565b1515156109ac57600080fd5b606480548091906001016109c09190611547565b9150846064838154811015156109d257fe5b906000526020600020906002020160000190805190602001906109f6929190611579565b5060408051908101604052806001151581526020018381525060656000856000191660001916815260200190815260200160002060008201518160000160006101000a81548160ff021916908315150217905550602082015181600101559050507e6eeee449a4a26aca42cb5305fb23c03ce35da3989e0282d09d9030d241a1ef8583604051610a87929190611e68565b60405180910390a1819350505050919050565b6000600354905090565b60008060018002610ae633826000604051908082528060200260200182016040528015610ae05781602001602082028038833980820191505090505b50610f74565b1515610af157600080fd5b846040516020018082805190602001908083835b602083101515610b2a5780518252602082019150602081019050602083039250610b05565b6001836020036101000a0380198251168184511680821785525050505050509050019150506040516020818303038152906040526040518082805190602001908083835b602083101515610b935780518252602082019150602081019050602083039250610b6e565b6001836020036101000a03801982511681845116808217855250505050505090500191505060405180910390209250610bcb836110ac565b1515610bd657600080fd5b606560008460001916600019168152602001908152602001600020600101549150606482815481101515610c0657fe5b90600052602060002090600202016001016060604051908101604052803373ffffffffffffffffffffffffffffffffffffffff168152602001438152602001868152509080600181540180825580915050906001820390600052602060002090600302016000909192909190915060008201518160000160006101000a81548173ffffffffffffffffffffffffffffffffffffffff021916908373ffffffffffffffffffffffffffffffffffffffff160217905550602082015181600101556040820151816002019080519060200190610ce19291906115f9565b505050507f8f5cde820cfe31eac4a807e146d250146e8f24b9a867cafc068335973b931a0a853386604051610d1893929190611e23565b60405180910390a15050505050565b7f34f01c17e9be6ddbf2c61f37b5b1fb9f1a090a975006581ad19bda1c4d38287160010281565b600080610d5a83610781565b1515610d6557600080fd5b610d6d610512565b9150610d78826113f6565b1515610d8357600080fd5b600073ffffffffffffffffffffffffffffffffffffffff168373ffffffffffffffffffffffffffffffffffffffff161415610e1b578173ffffffffffffffffffffffffffffffffffffffff166108fc3073ffffffffffffffffffffffffffffffffffffffff16319081150290604051600060405180830381858888f19350505050158015610e15573d6000803e3d6000fd5b50610f6f565b8273ffffffffffffffffffffffffffffffffffffffff166370a08231306040518263ffffffff167c0100000000000000000000000000000000000000000000000000000000028152600401610e709190611dc4565b602060405180830381600087803b158015610e8a57600080fd5b505af1158015610e9e573d6000803e3d6000fd5b505050506040513d601f19601f82011682018060405250610ec29190810190611b72565b90508273ffffffffffffffffffffffffffffffffffffffff1663a9059cbb83836040518363ffffffff167c0100000000000000000000000000000000000000000000000000000000028152600401610f1b929190611d0d565b602060405180830381600087803b158015610f3557600080fd5b505af1158015610f49573d6000803e3d6000fd5b505050506040513d601f19601f82011682018060405250610f6d9190810190611a09565b505b505050565b6000606060008084511115610f9157602084510290508391508082525b60008060009054906101000a900473ffffffffffffffffffffffffffffffffffffffff1673ffffffffffffffffffffffffffffffffffffffff1614806110a157506000809054906101000a900473ffffffffffffffffffffffffffffffffffffffff1673ffffffffffffffffffffffffffffffffffffffff1663fdef9106873088866040518563ffffffff167c010000000000000000000000000000000000000000000000000000000002815260040161104e9493929190611cc1565b602060405180830381600087803b15801561106857600080fd5b505af115801561107c573d6000803e3d6000fd5b505050506040513d601f19601f820116820180604052506110a09190810190611a09565b5b925050509392505050565b600060656000836000191660001916815260200190815260200160002060000160009054906101000a900460ff169050919050565b6001800281565b6060600080836040516020018082805190602001908083835b6020831015156111265780518252602082019150602081019050602083039250611101565b6001836020036101000a0380198251168184511680821785525050505050509050019150506040516020818303038152906040526040518082805190602001908083835b60208310151561118f578051825260208201915060208101905060208303925061116a565b6001836020036101000a038019825116818451168082178552505050505050905001915050604051809103902091506111c7826110ac565b15156111d257600080fd5b60656000836000191660001916815260200190815260200160002060010154905060648181548110151561120257fe5b9060005260206000209060020201600101600160648381548110151561122457fe5b9060005260206000209060020201600101805490500381548110151561124657fe5b90600052602060002090600302016002018054600181600116156101000203166002900480601f0160208091040260200160405190810160405280929190818152602001828054600181600116156101000203166002900480156112eb5780601f106112c0576101008083540402835291602001916112eb565b820191906000526020600020905b8154815290600101906020018083116112ce57829003601f168201915b505050505092505050919050565b6000809054906101000a900473ffffffffffffffffffffffffffffffffffffffff1681565b6000611328611448565b73ffffffffffffffffffffffffffffffffffffffff166304bf2a7f836040518263ffffffff167c010000000000000000000000000000000000000000000000000000000002815260040161137c9190611d6c565b602060405180830381600087803b15801561139657600080fd5b505af11580156113aa573d6000803e3d6000fd5b505050506040513d601f19601f820116820180604052506113ce9190810190611979565b9050919050565b60006003541415156113e657600080fd5b6113ee61153f565b600381905550565b600080600073ffffffffffffffffffffffffffffffffffffffff168373ffffffffffffffffffffffffffffffffffffffff1614156114375760009150611442565b823b90506000811191505b50919050565b6000806000809054906101000a900473ffffffffffffffffffffffffffffffffffffffff1673ffffffffffffffffffffffffffffffffffffffff166342c71f1d7f34f01c17e9be6ddbf2c61f37b5b1fb9f1a090a975006581ad19bda1c4d3828716001026040518263ffffffff167c01000000000000000000000000000000000000000000000000000000000281526004016114e49190611d51565b602060405180830381600087803b1580156114fe57600080fd5b505af1158015611512573d6000803e3d6000fd5b505050506040513d601f19601f820116820180604052506115369190810190611979565b90508091505090565b600043905090565b815481835581811115611574576002028160020283600052602060002091820191016115739190611679565b5b505050565b828054600181600116156101000203166002900490600052602060002090601f016020900481019282601f106115ba57805160ff19168380011785556115e8565b828001600101855582156115e8579182015b828111156115e75782518255916020019190600101906115cc565b5b5090506115f591906116b8565b5090565b828054600181600116156101000203166002900490600052602060002090601f016020900481019282601f1061163a57805160ff1916838001178555611668565b82800160010185558215611668579182015b8281111561166757825182559160200191906001019061164c565b5b50905061167591906116b8565b5090565b6116b591905b808211156116b1576000808201600061169891906116dd565b6001820160006116a89190611725565b5060020161167f565b5090565b90565b6116da91905b808211156116d65760008160009055506001016116be565b5090565b90565b50805460018160011615610100020316600290046000825580601f106117035750611722565b601f01602090049060005260206000209081019061172191906116b8565b5b50565b50805460008255600302906000526020600020908101906117469190611749565b50565b6117a491905b808211156117a057600080820160006101000a81549073ffffffffffffffffffffffffffffffffffffffff0219169055600182016000905560028201600061179791906116dd565b5060030161174f565b5090565b90565b60006117b38235611fc1565b905092915050565b60006117c78251611fc1565b905092915050565b600082601f83011215156117e257600080fd5b81356117f56117f082611ee0565b611eb3565b9150818183526020840193506020810190508385602084028201111561181a57600080fd5b60005b8381101561184a57816118308882611928565b84526020840193506020830192505060018101905061181d565b5050505092915050565b60006118608251611fe1565b905092915050565b60006118748235611fed565b905092915050565b600082601f830112151561188f57600080fd5b81356118a261189d82611f08565b611eb3565b915080825260208301602083018583830111156118be57600080fd5b6118c9838284612037565b50505092915050565b600082601f83011215156118e557600080fd5b81356118f86118f382611f34565b611eb3565b9150808252602083016020830185838301111561191457600080fd5b61191f838284612037565b50505092915050565b60006119348235611ff7565b905092915050565b60006119488251611ff7565b905092915050565b60006020828403121561196257600080fd5b6000611970848285016117a7565b91505092915050565b60006020828403121561198b57600080fd5b6000611999848285016117bb565b91505092915050565b6000806000606084860312156119b757600080fd5b60006119c5868287016117a7565b93505060206119d686828701611868565b925050604084013567ffffffffffffffff8111156119f357600080fd5b6119ff868287016117cf565b9150509250925092565b600060208284031215611a1b57600080fd5b6000611a2984828501611854565b91505092915050565b600060208284031215611a4457600080fd5b6000611a5284828501611868565b91505092915050565b600060208284031215611a6d57600080fd5b600082013567ffffffffffffffff811115611a8757600080fd5b611a938482850161187c565b91505092915050565b600060208284031215611aae57600080fd5b600082013567ffffffffffffffff811115611ac857600080fd5b611ad4848285016118d2565b91505092915050565b60008060408385031215611af057600080fd5b600083013567ffffffffffffffff811115611b0a57600080fd5b611b16858286016118d2565b925050602083013567ffffffffffffffff811115611b3357600080fd5b611b3f858286016118d2565b9150509250929050565b600060208284031215611b5b57600080fd5b6000611b6984828501611928565b91505092915050565b600060208284031215611b8457600080fd5b6000611b928482850161193c565b91505092915050565b611ba481611f81565b82525050565b611bb381611fa1565b82525050565b611bc281611fad565b82525050565b6000611bd382611f60565b808452611be7816020860160208601612046565b611bf081612079565b602085010191505092915050565b611c0781612001565b82525050565b611c1681612013565b82525050565b611c2581612025565b82525050565b6000611c3682611f76565b808452611c4a816020860160208601612046565b611c5381612079565b602085010191505092915050565b6000611c6c82611f6b565b808452611c80816020860160208601612046565b611c8981612079565b602085010191505092915050565b611ca081611fb7565b82525050565b6000602082019050611cbb6000830184611b9b565b92915050565b6000608082019050611cd66000830187611b9b565b611ce36020830186611b9b565b611cf06040830185611bb9565b8181036060830152611d028184611bc8565b905095945050505050565b6000604082019050611d226000830185611b9b565b611d2f6020830184611c97565b9392505050565b6000602082019050611d4b6000830184611baa565b92915050565b6000602082019050611d666000830184611bb9565b92915050565b60006020820190508181036000830152611d868184611bc8565b905092915050565b6000602082019050611da36000830184611bfe565b92915050565b6000602082019050611dbe6000830184611c0d565b92915050565b6000602082019050611dd96000830184611c1c565b92915050565b60006020820190508181036000830152611df98184611c61565b905092915050565b60006020820190508181036000830152611e1b8184611c2b565b905092915050565b60006060820190508181036000830152611e3d8186611c2b565b9050611e4c6020830185611b9b565b8181036040830152611e5e8184611c2b565b9050949350505050565b60006040820190508181036000830152611e828185611c2b565b9050611e916020830184611c97565b9392505050565b6000602082019050611ead6000830184611c97565b92915050565b6000604051905081810181811067ffffffffffffffff82111715611ed657600080fd5b8060405250919050565b600067ffffffffffffffff821115611ef757600080fd5b602082029050602081019050919050565b600067ffffffffffffffff821115611f1f57600080fd5b601f19601f8301169050602081019050919050565b600067ffffffffffffffff821115611f4b57600080fd5b601f19601f8301169050602081019050919050565b600081519050919050565b600081519050919050565b600081519050919050565b600073ffffffffffffffffffffffffffffffffffffffff82169050919050565b60008115159050919050565b6000819050919050565b6000819050919050565b600073ffffffffffffffffffffffffffffffffffffffff82169050919050565b60008115159050919050565b6000819050919050565b6000819050919050565b600061200c82611f81565b9050919050565b600061201e82611f81565b9050919050565b600061203082611f81565b9050919050565b82818337600083830152505050565b60005b83811015612064578082015181840152602081019050612049565b83811115612073576000848401525b50505050565b6000601f19601f83011690509190505600a265627a7a72305820d56537cb522ab3fe665d8583b411477bdb1a9e3ff3388ca84c2dc236d16267086c6578706572696d656e74616cf50037",
  "source": "pragma solidity ^0.4.18;\npragma experimental ABIEncoderV2;\n\nimport \"@aragon/os/contracts/apps/AragonApp.sol\";\n\ncontract Specimen is AragonApp {\n  \n  struct Snapshot {\n    address author;\n    uint256 block;\n    string  cid;\n  }\n  \n  struct Branch {\n    string name;\n    Snapshot[] snapshots;\n  }\n  \n  struct BranchID {\n    bool exists;\n    uint id;\n  }\n    \n  bytes32 constant public PUSH = bytes32(1);\n   \n  \n  Branch[] public branches;\n  mapping(bytes32 => BranchID) knownBranches;\n  \n  event NewBranch(string name, uint branchID);\n  event NewSnapshot(string branch, address author, string cid);\n\n  function initialize() onlyInit {\n      initialized();\n  }\n\n  function isBranch(bytes32 _hash) public view returns (bool isIndeed) {\n    return knownBranches[_hash].exists;\n  }\n\n  function setHead(string _branch, string _head) public auth(PUSH) {\n    bytes32 hash = keccak256(abi.encodePacked(_branch));\n    require(isBranch(hash));\n    \n    uint branchID = knownBranches[hash].id;\n    branches[branchID].snapshots.push(Snapshot(msg.sender, block.number, _head));\n    \n    emit NewSnapshot(_branch, msg.sender, _head);\n  }\n  \n  function getHead(string _branch) public view returns (string _cid){\n    bytes32 hash = keccak256(abi.encodePacked(_branch));\n    require(isBranch(hash));\n    \n    uint branchID = knownBranches[hash].id;\n    return branches[branchID].snapshots[branches[branchID].snapshots.length - 1].cid;\n    \n  }\n  \n  function getHeadH(bytes32 _hash) public view returns (string cid_){\n    require(isBranch(_hash));\n    \n    uint branchID = knownBranches[_hash].id;\n    return branches[branchID].snapshots[branches[branchID].snapshots.length - 1].cid;\n    /* return branches[branchID].snapshots[branches[branchID].snapshots.length - 1]; */\n    \n  }\n\n  function newBranch(string _name) public auth(PUSH) returns (uint branchID_){\n    bytes32 hash = keccak256(abi.encodePacked(_name));\n    require(!isBranch(hash));\n  \n    uint branchID = branches.length++;\n    branches[branchID].name = _name;\n    knownBranches[hash] = BranchID(true, branchID);\n    \n    emit NewBranch(_name, branchID);\n    \n    return branchID;\n  }  \n}",
  "sourcePath": "/Users/osarrouy/Documents/devs/dapps/@wespr/pando-core/contracts/Specimen.sol",
  "compiler": {
    "name": "solc",
    "version": "0.4.24+commit.e67f0147.Emscripten.clang"
  },
  "schemaVersion": "2.0.0",
  "updatedAt": "2018-06-27T07:58:42.905Z"
}