{
  "contractName": "Tree",
  "abi": [
    {
      "constant": true,
      "inputs": [],
      "name": "APP_ADDR_NAMESPACE",
      "outputs": [
        {
          "name": "",
          "type": "bytes32"
        }
      ],
      "payable": false,
      "stateMutability": "view",
      "type": "function"
    },
    {
      "constant": true,
      "inputs": [],
      "name": "getRecoveryVault",
      "outputs": [
        {
          "name": "",
          "type": "address"
        }
      ],
      "payable": false,
      "stateMutability": "view",
      "type": "function"
    },
    {
      "constant": true,
      "inputs": [],
      "name": "SEPARATOR",
      "outputs": [
        {
          "name": "",
          "type": "string"
        }
      ],
      "payable": false,
      "stateMutability": "view",
      "type": "function"
    },
    {
      "constant": true,
      "inputs": [],
      "name": "EVMSCRIPT_REGISTRY_APP_ID",
      "outputs": [
        {
          "name": "",
          "type": "bytes32"
        }
      ],
      "payable": false,
      "stateMutability": "view",
      "type": "function"
    },
    {
      "constant": true,
      "inputs": [
        {
          "name": "token",
          "type": "address"
        }
      ],
      "name": "allowRecoverability",
      "outputs": [
        {
          "name": "",
          "type": "bool"
        }
      ],
      "payable": false,
      "stateMutability": "view",
      "type": "function"
    },
    {
      "constant": true,
      "inputs": [],
      "name": "appId",
      "outputs": [
        {
          "name": "",
          "type": "bytes32"
        }
      ],
      "payable": false,
      "stateMutability": "view",
      "type": "function"
    },
    {
      "constant": true,
      "inputs": [],
      "name": "ETH",
      "outputs": [
        {
          "name": "",
          "type": "address"
        }
      ],
      "payable": false,
      "stateMutability": "view",
      "type": "function"
    },
    {
      "constant": true,
      "inputs": [
        {
          "name": "",
          "type": "uint256"
        }
      ],
      "name": "branches",
      "outputs": [
        {
          "name": "name",
          "type": "string"
        }
      ],
      "payable": false,
      "stateMutability": "view",
      "type": "function"
    },
    {
      "constant": true,
      "inputs": [],
      "name": "getInitializationBlock",
      "outputs": [
        {
          "name": "",
          "type": "uint256"
        }
      ],
      "payable": false,
      "stateMutability": "view",
      "type": "function"
    },
    {
      "constant": true,
      "inputs": [],
      "name": "EVMSCRIPT_REGISTRY_APP",
      "outputs": [
        {
          "name": "",
          "type": "bytes32"
        }
      ],
      "payable": false,
      "stateMutability": "view",
      "type": "function"
    },
    {
      "constant": false,
      "inputs": [
        {
          "name": "_token",
          "type": "address"
        }
      ],
      "name": "transferToVault",
      "outputs": [],
      "payable": false,
      "stateMutability": "nonpayable",
      "type": "function"
    },
    {
      "constant": true,
      "inputs": [
        {
          "name": "_sender",
          "type": "address"
        },
        {
          "name": "_role",
          "type": "bytes32"
        },
        {
          "name": "params",
          "type": "uint256[]"
        }
      ],
      "name": "canPerform",
      "outputs": [
        {
          "name": "",
          "type": "bool"
        }
      ],
      "payable": false,
      "stateMutability": "view",
      "type": "function"
    },
    {
      "constant": true,
      "inputs": [],
      "name": "PUSH",
      "outputs": [
        {
          "name": "",
          "type": "bytes32"
        }
      ],
      "payable": false,
      "stateMutability": "view",
      "type": "function"
    },
    {
      "constant": true,
      "inputs": [],
      "name": "kernel",
      "outputs": [
        {
          "name": "",
          "type": "address"
        }
      ],
      "payable": false,
      "stateMutability": "view",
      "type": "function"
    },
    {
      "constant": true,
      "inputs": [
        {
          "name": "_script",
          "type": "bytes"
        }
      ],
      "name": "getExecutor",
      "outputs": [
        {
          "name": "",
          "type": "address"
        }
      ],
      "payable": false,
      "stateMutability": "view",
      "type": "function"
    },
    {
      "anonymous": false,
      "inputs": [
        {
          "indexed": false,
          "name": "name",
          "type": "string"
        },
        {
          "indexed": false,
          "name": "branchID",
          "type": "uint256"
        }
      ],
      "name": "NewBranch",
      "type": "event"
    },
    {
      "anonymous": false,
      "inputs": [
        {
          "indexed": false,
          "name": "branch",
          "type": "string"
        },
        {
          "indexed": false,
          "name": "author",
          "type": "address"
        },
        {
          "indexed": false,
          "name": "cid",
          "type": "string"
        }
      ],
      "name": "NewSnapshot",
      "type": "event"
    },
    {
      "constant": false,
      "inputs": [],
      "name": "initialize",
      "outputs": [],
      "payable": false,
      "stateMutability": "nonpayable",
      "type": "function"
    },
    {
      "constant": true,
      "inputs": [
        {
          "name": "_hash",
          "type": "bytes32"
        }
      ],
      "name": "isBranch",
      "outputs": [
        {
          "name": "isIndeed",
          "type": "bool"
        }
      ],
      "payable": false,
      "stateMutability": "view",
      "type": "function"
    },
    {
      "constant": false,
      "inputs": [
        {
          "name": "_branch",
          "type": "string"
        },
        {
          "name": "_head",
          "type": "string"
        }
      ],
      "name": "setHead",
      "outputs": [],
      "payable": false,
      "stateMutability": "nonpayable",
      "type": "function"
    },
    {
      "constant": true,
      "inputs": [
        {
          "name": "_hash",
          "type": "bytes32"
        }
      ],
      "name": "getHead",
      "outputs": [
        {
          "name": "cid_",
          "type": "string"
        }
      ],
      "payable": false,
      "stateMutability": "view",
      "type": "function"
    },
    {
      "constant": false,
      "inputs": [
        {
          "name": "_name",
          "type": "string"
        }
      ],
      "name": "newBranch",
      "outputs": [
        {
          "name": "branchID_",
          "type": "uint256"
        }
      ],
      "payable": false,
      "stateMutability": "nonpayable",
      "type": "function"
    },
    {
      "constant": true,
      "inputs": [],
      "name": "getBranchesName",
      "outputs": [
        {
          "name": "branches_",
          "type": "string"
        }
      ],
      "payable": false,
      "stateMutability": "view",
      "type": "function"
    }
  ],
  "bytecode": "0x608060405234801561001057600080fd5b506121fa806100206000396000f30060806040526004361061011d576000357c0100000000000000000000000000000000000000000000000000000000900463ffffffff168063178e60791461012257806332f0a3b51461014d5780635d27e9a61461017857806360b1e057146101a35780637e7db6e1146101ce57806380afdea81461020b5780638129fc1c146102365780638322fff21461024d57806383cc766014610278578063874bbca1146102b55780638a307583146102f25780638b3dd7491461031d57806392654c8d146103485780639b3fdf4c146103715780639d4941d81461039c578063a1658fad146103c5578063afb0080514610402578063cc6804c81461043f578063d4aae0c41461046a578063df3efa8514610495578063f92a79ff146104d2575b600080fd5b34801561012e57600080fd5b5061013761050f565b6040516101449190611e87565b60405180910390f35b34801561015957600080fd5b50610162610536565b60405161016f9190611ddc565b60405180910390f35b34801561018457600080fd5b5061018d610640565b60405161019a9190611f15565b60405180910390f35b3480156101af57600080fd5b506101b8610679565b6040516101c59190611e87565b60405180910390f35b3480156101da57600080fd5b506101f560048036036101f09190810190611a86565b6106a0565b6040516102029190611e6c565b60405180910390f35b34801561021757600080fd5b506102206106ab565b60405161022d9190611e87565b60405180910390f35b34801561024257600080fd5b5061024b6106b1565b005b34801561025957600080fd5b506102626106cc565b60405161026f9190611ddc565b60405180910390f35b34801561028457600080fd5b5061029f600480360361029a9190810190611c7f565b6106d1565b6040516102ac9190611f15565b60405180910390f35b3480156102c157600080fd5b506102dc60048036036102d79190810190611bd2565b610796565b6040516102e99190611fce565b60405180910390f35b3480156102fe57600080fd5b506103076109b9565b6040516103149190611f37565b60405180910390f35b34801561032957600080fd5b50610332610b23565b60405161033f9190611fce565b60405180910390f35b34801561035457600080fd5b5061036f600480360361036a9190810190611c13565b610b2d565b005b34801561037d57600080fd5b50610386610db0565b6040516103939190611e87565b60405180910390f35b3480156103a857600080fd5b506103c360048036036103be9190810190611a86565b610dd7565b005b3480156103d157600080fd5b506103ec60048036036103e79190810190611ad8565b610ffd565b6040516103f99190611e6c565b60405180910390f35b34801561040e57600080fd5b5061042960048036036104249190810190611b68565b611135565b6040516104369190611e6c565b60405180910390f35b34801561044b57600080fd5b5061045461116a565b6040516104619190611e87565b60405180910390f35b34801561047657600080fd5b5061047f611171565b60405161048c9190611edf565b60405180910390f35b3480156104a157600080fd5b506104bc60048036036104b79190810190611b68565b611196565b6040516104c99190611f37565b60405180910390f35b3480156104de57600080fd5b506104f960048036036104f49190810190611b91565b61133f565b6040516105069190611ec4565b60405180910390f35b7fd6f028ca0e8edb4a8c9757ca4fdccab25fa1e0317da1188108f7d2dee14902fb60010281565b6000806000809054906101000a900473ffffffffffffffffffffffffffffffffffffffff1673ffffffffffffffffffffffffffffffffffffffff161415151561057e57600080fd5b6000809054906101000a900473ffffffffffffffffffffffffffffffffffffffff1673ffffffffffffffffffffffffffffffffffffffff166332f0a3b56040518163ffffffff167c0100000000000000000000000000000000000000000000000000000000028152600401602060405180830381600087803b15801561060357600080fd5b505af1158015610617573d6000803e3d6000fd5b505050506040513d601f19601f8201168201806040525061063b9190810190611aaf565b905090565b6040805190810160405280600581526020017f30787c783000000000000000000000000000000000000000000000000000000081525081565b7fddbcfd564f642ab5627cf68b9b7d374fb4f8a36e941a75d89c87998cef03bd6160010281565b600060019050919050565b60015481565b60006003541415156106c257600080fd5b6106ca6113f6565b565b600081565b6064818154811015156106e057fe5b9060005260206000209060020201600091509050806000018054600181600116156101000203166002900480601f01602080910402602001604051908101604052809291908181526020018280546001816001161561010002031660029004801561078c5780601f106107615761010080835404028352916020019161078c565b820191906000526020600020905b81548152906001019060200180831161076f57829003601f168201915b5050505050905081565b6000806000600180026107da338260006040519080825280602002602001820160405280156107d45781602001602082028038833980820191505090505b50610ffd565b15156107e557600080fd5b846040516020018082805190602001908083835b60208310151561081e57805182526020820191506020810190506020830392506107f9565b6001836020036101000a0380198251168184511680821785525050505050509050019150506040516020818303038152906040526040518082805190602001908083835b6020831015156108875780518252602082019150602081019050602083039250610862565b6001836020036101000a038019825116818451168082178552505050505050905001915050604051809103902092506108bf83611135565b1515156108cb57600080fd5b606480548091906001016108df9190611663565b9150846064838154811015156108f157fe5b90600052602060002090600202016000019080519060200190610915929190611695565b5060408051908101604052806001151581526020018381525060656000856000191660001916815260200190815260200160002060008201518160000160006101000a81548160ff021916908315150217905550602082015181600101559050507e6eeee449a4a26aca42cb5305fb23c03ce35da3989e0282d09d9030d241a1ef85836040516109a6929190611f9e565b60405180910390a1819350505050919050565b60606000606060006064805490509250600090505b82811015610b1a57610ab1610a9a6064838154811015156109eb57fe5b90600052602060002090600202016000018054600181600116156101000203166002900480601f016020809104026020016040519081016040528092919081815260200182805460018160011615610100020316600290048015610a905780601f10610a6557610100808354040283529160200191610a90565b820191906000526020600020905b815481529060010190602001808311610a7357829003601f168201915b5050505050611417565b610aa384611417565b61144590919063ffffffff16565b9150610b0b610af46040805190810160405280600581526020017f30787c7830000000000000000000000000000000000000000000000000000000815250611417565b610afd84611417565b61144590919063ffffffff16565b915080806001019150506109ce565b81935050505090565b6000600354905090565b60008060018002610b6f33826000604051908082528060200260200182016040528015610b695781602001602082028038833980820191505090505b50610ffd565b1515610b7a57600080fd5b846040516020018082805190602001908083835b602083101515610bb35780518252602082019150602081019050602083039250610b8e565b6001836020036101000a0380198251168184511680821785525050505050509050019150506040516020818303038152906040526040518082805190602001908083835b602083101515610c1c5780518252602082019150602081019050602083039250610bf7565b6001836020036101000a03801982511681845116808217855250505050505090500191505060405180910390209250610c5483611135565b1515610c5f57600080fd5b606560008460001916600019168152602001908152602001600020600101549150606482815481101515610c8f57fe5b90600052602060002090600202016001016060604051908101604052803373ffffffffffffffffffffffffffffffffffffffff168152602001438152602001868152509080600181540180825580915050906001820390600052602060002090600302016000909192909190915060008201518160000160006101000a81548173ffffffffffffffffffffffffffffffffffffffff021916908373ffffffffffffffffffffffffffffffffffffffff160217905550602082015181600101556040820151816002019080519060200190610d6a929190611715565b505050507f8f5cde820cfe31eac4a807e146d250146e8f24b9a867cafc068335973b931a0a853386604051610da193929190611f59565b60405180910390a15050505050565b7f34f01c17e9be6ddbf2c61f37b5b1fb9f1a090a975006581ad19bda1c4d38287160010281565b600080610de3836106a0565b1515610dee57600080fd5b610df6610536565b9150610e01826114c7565b1515610e0c57600080fd5b600073ffffffffffffffffffffffffffffffffffffffff168373ffffffffffffffffffffffffffffffffffffffff161415610ea4578173ffffffffffffffffffffffffffffffffffffffff166108fc3073ffffffffffffffffffffffffffffffffffffffff16319081150290604051600060405180830381858888f19350505050158015610e9e573d6000803e3d6000fd5b50610ff8565b8273ffffffffffffffffffffffffffffffffffffffff166370a08231306040518263ffffffff167c0100000000000000000000000000000000000000000000000000000000028152600401610ef99190611efa565b602060405180830381600087803b158015610f1357600080fd5b505af1158015610f27573d6000803e3d6000fd5b505050506040513d601f19601f82011682018060405250610f4b9190810190611ca8565b90508273ffffffffffffffffffffffffffffffffffffffff1663a9059cbb83836040518363ffffffff167c0100000000000000000000000000000000000000000000000000000000028152600401610fa4929190611e43565b602060405180830381600087803b158015610fbe57600080fd5b505af1158015610fd2573d6000803e3d6000fd5b505050506040513d601f19601f82011682018060405250610ff69190810190611b3f565b505b505050565b600060606000808451111561101a57602084510290508391508082525b60008060009054906101000a900473ffffffffffffffffffffffffffffffffffffffff1673ffffffffffffffffffffffffffffffffffffffff16148061112a57506000809054906101000a900473ffffffffffffffffffffffffffffffffffffffff1673ffffffffffffffffffffffffffffffffffffffff1663fdef9106873088866040518563ffffffff167c01000000000000000000000000000000000000000000000000000000000281526004016110d79493929190611df7565b602060405180830381600087803b1580156110f157600080fd5b505af1158015611105573d6000803e3d6000fd5b505050506040513d601f19601f820116820180604052506111299190810190611b3f565b5b925050509392505050565b600060656000836000191660001916815260200190815260200160002060000160009054906101000a900460ff169050919050565b6001800281565b6000809054906101000a900473ffffffffffffffffffffffffffffffffffffffff1681565b606060006111a383611135565b15156111ae57600080fd5b60656000846000191660001916815260200190815260200160002060010154905060006064828154811015156111e057fe5b9060005260206000209060020201600101805490501415156113005760648181548110151561120b57fe5b9060005260206000209060020201600101600160648381548110151561122d57fe5b9060005260206000209060020201600101805490500381548110151561124f57fe5b90600052602060002090600302016002018054600181600116156101000203166002900480601f0160208091040260200160405190810160405280929190818152602001828054600181600116156101000203166002900480156112f45780601f106112c9576101008083540402835291602001916112f4565b820191906000526020600020905b8154815290600101906020018083116112d757829003601f168201915b50505050509150611339565b6040805190810160405280600d81526020017f726f6f7420736e617073686f740000000000000000000000000000000000000081525091505b50919050565b6000611349611519565b73ffffffffffffffffffffffffffffffffffffffff166304bf2a7f836040518263ffffffff167c010000000000000000000000000000000000000000000000000000000002815260040161139d9190611ea2565b602060405180830381600087803b1580156113b757600080fd5b505af11580156113cb573d6000803e3d6000fd5b505050506040513d601f19601f820116820180604052506113ef9190810190611aaf565b9050919050565b600060035414151561140757600080fd5b61140f611610565b600381905550565b61141f611795565b600060208301905060408051908101604052808451815260200182815250915050919050565b606080600083600001518560000151016040519080825280601f01601f1916602001820160405280156114875781602001602082028038833980820191505090505b5091506020820190506114a38186602001518760000151611618565b6114bc8560000151820185602001518660000151611618565b819250505092915050565b600080600073ffffffffffffffffffffffffffffffffffffffff168373ffffffffffffffffffffffffffffffffffffffff1614156115085760009150611513565b823b90506000811191505b50919050565b6000806000809054906101000a900473ffffffffffffffffffffffffffffffffffffffff1673ffffffffffffffffffffffffffffffffffffffff166342c71f1d7f34f01c17e9be6ddbf2c61f37b5b1fb9f1a090a975006581ad19bda1c4d3828716001026040518263ffffffff167c01000000000000000000000000000000000000000000000000000000000281526004016115b59190611e87565b602060405180830381600087803b1580156115cf57600080fd5b505af11580156115e3573d6000803e3d6000fd5b505050506040513d601f19601f820116820180604052506116079190810190611aaf565b90508091505090565b600043905090565b60005b602082101515611640578251845260208401935060208301925060208203915061161b565b6001826020036101000a0390508019835116818551168181178652505050505050565b8154818355818111156116905760020281600202836000526020600020918201910161168f91906117af565b5b505050565b828054600181600116156101000203166002900490600052602060002090601f016020900481019282601f106116d657805160ff1916838001178555611704565b82800160010185558215611704579182015b828111156117035782518255916020019190600101906116e8565b5b50905061171191906117ee565b5090565b828054600181600116156101000203166002900490600052602060002090601f016020900481019282601f1061175657805160ff1916838001178555611784565b82800160010185558215611784579182015b82811115611783578251825591602001919060010190611768565b5b50905061179191906117ee565b5090565b604080519081016040528060008152602001600081525090565b6117eb91905b808211156117e757600080820160006117ce9190611813565b6001820160006117de919061185b565b506002016117b5565b5090565b90565b61181091905b8082111561180c5760008160009055506001016117f4565b5090565b90565b50805460018160011615610100020316600290046000825580601f106118395750611858565b601f01602090049060005260206000209081019061185791906117ee565b5b50565b508054600082556003029060005260206000209081019061187c919061187f565b50565b6118da91905b808211156118d657600080820160006101000a81549073ffffffffffffffffffffffffffffffffffffffff021916905560018201600090556002820160006118cd9190611813565b50600301611885565b5090565b90565b60006118e982356120f7565b905092915050565b60006118fd82516120f7565b905092915050565b600082601f830112151561191857600080fd5b813561192b61192682612016565b611fe9565b9150818183526020840193506020810190508385602084028201111561195057600080fd5b60005b8381101561198057816119668882611a5e565b845260208401935060208301925050600181019050611953565b5050505092915050565b60006119968251612117565b905092915050565b60006119aa8235612123565b905092915050565b600082601f83011215156119c557600080fd5b81356119d86119d38261203e565b611fe9565b915080825260208301602083018583830111156119f457600080fd5b6119ff83828461216d565b50505092915050565b600082601f8301121515611a1b57600080fd5b8135611a2e611a298261206a565b611fe9565b91508082526020830160208301858383011115611a4a57600080fd5b611a5583828461216d565b50505092915050565b6000611a6a823561212d565b905092915050565b6000611a7e825161212d565b905092915050565b600060208284031215611a9857600080fd5b6000611aa6848285016118dd565b91505092915050565b600060208284031215611ac157600080fd5b6000611acf848285016118f1565b91505092915050565b600080600060608486031215611aed57600080fd5b6000611afb868287016118dd565b9350506020611b0c8682870161199e565b925050604084013567ffffffffffffffff811115611b2957600080fd5b611b3586828701611905565b9150509250925092565b600060208284031215611b5157600080fd5b6000611b5f8482850161198a565b91505092915050565b600060208284031215611b7a57600080fd5b6000611b888482850161199e565b91505092915050565b600060208284031215611ba357600080fd5b600082013567ffffffffffffffff811115611bbd57600080fd5b611bc9848285016119b2565b91505092915050565b600060208284031215611be457600080fd5b600082013567ffffffffffffffff811115611bfe57600080fd5b611c0a84828501611a08565b91505092915050565b60008060408385031215611c2657600080fd5b600083013567ffffffffffffffff811115611c4057600080fd5b611c4c85828601611a08565b925050602083013567ffffffffffffffff811115611c6957600080fd5b611c7585828601611a08565b9150509250929050565b600060208284031215611c9157600080fd5b6000611c9f84828501611a5e565b91505092915050565b600060208284031215611cba57600080fd5b6000611cc884828501611a72565b91505092915050565b611cda816120b7565b82525050565b611ce9816120d7565b82525050565b611cf8816120e3565b82525050565b6000611d0982612096565b808452611d1d81602086016020860161217c565b611d26816121af565b602085010191505092915050565b611d3d81612137565b82525050565b611d4c81612149565b82525050565b611d5b8161215b565b82525050565b6000611d6c826120ac565b808452611d8081602086016020860161217c565b611d89816121af565b602085010191505092915050565b6000611da2826120a1565b808452611db681602086016020860161217c565b611dbf816121af565b602085010191505092915050565b611dd6816120ed565b82525050565b6000602082019050611df16000830184611cd1565b92915050565b6000608082019050611e0c6000830187611cd1565b611e196020830186611cd1565b611e266040830185611cef565b8181036060830152611e388184611cfe565b905095945050505050565b6000604082019050611e586000830185611cd1565b611e656020830184611dcd565b9392505050565b6000602082019050611e816000830184611ce0565b92915050565b6000602082019050611e9c6000830184611cef565b92915050565b60006020820190508181036000830152611ebc8184611cfe565b905092915050565b6000602082019050611ed96000830184611d34565b92915050565b6000602082019050611ef46000830184611d43565b92915050565b6000602082019050611f0f6000830184611d52565b92915050565b60006020820190508181036000830152611f2f8184611d97565b905092915050565b60006020820190508181036000830152611f518184611d61565b905092915050565b60006060820190508181036000830152611f738186611d61565b9050611f826020830185611cd1565b8181036040830152611f948184611d61565b9050949350505050565b60006040820190508181036000830152611fb88185611d61565b9050611fc76020830184611dcd565b9392505050565b6000602082019050611fe36000830184611dcd565b92915050565b6000604051905081810181811067ffffffffffffffff8211171561200c57600080fd5b8060405250919050565b600067ffffffffffffffff82111561202d57600080fd5b602082029050602081019050919050565b600067ffffffffffffffff82111561205557600080fd5b601f19601f8301169050602081019050919050565b600067ffffffffffffffff82111561208157600080fd5b601f19601f8301169050602081019050919050565b600081519050919050565b600081519050919050565b600081519050919050565b600073ffffffffffffffffffffffffffffffffffffffff82169050919050565b60008115159050919050565b6000819050919050565b6000819050919050565b600073ffffffffffffffffffffffffffffffffffffffff82169050919050565b60008115159050919050565b6000819050919050565b6000819050919050565b6000612142826120b7565b9050919050565b6000612154826120b7565b9050919050565b6000612166826120b7565b9050919050565b82818337600083830152505050565b60005b8381101561219a57808201518184015260208101905061217f565b838111156121a9576000848401525b50505050565b6000601f19601f83011690509190505600a265627a7a72305820e8e81092b3d7b18276296e3acdf5ebc955472d387a194bb7b9fd21c703f5cf2d6c6578706572696d656e74616cf50037",
  "source": "pragma solidity ^0.4.18;\npragma experimental ABIEncoderV2;\n\nimport \"@aragon/os/contracts/apps/AragonApp.sol\";\nimport \"./utils/Strings.sol\";\n\ncontract Tree is AragonApp {\n  using strings for *;\n  \n  struct Snapshot {\n    address author;\n    uint256 block;\n    string  cid;\n  }\n  \n  struct Branch {\n    string name;\n    Snapshot[] snapshots;\n  }\n  \n  struct BranchID {\n    bool exists;\n    uint id;\n  }\n    \n  bytes32 constant public PUSH = bytes32(1);\n  string constant public SEPARATOR = \"0x|x0\";\n   \n  \n  Branch[] public branches;\n  mapping(bytes32 => BranchID) knownBranches;\n  \n  event NewBranch(string name, uint branchID);\n  event NewSnapshot(string branch, address author, string cid);\n\n  function initialize() onlyInit {\n      initialized();\n  }\n\n  function isBranch(bytes32 _hash) public view returns (bool isIndeed) {\n    return knownBranches[_hash].exists;\n  }\n\n  function setHead(string _branch, string _head) public auth(PUSH) {\n    bytes32 hash = keccak256(abi.encodePacked(_branch));\n    require(isBranch(hash));\n    \n    uint branchID = knownBranches[hash].id;\n    branches[branchID].snapshots.push(Snapshot(msg.sender, block.number, _head));\n    \n    emit NewSnapshot(_branch, msg.sender, _head);\n  }\n  \n  /* function getHead(string _branch) public view returns (string _cid){\n    bytes32 hash = keccak256(abi.encodePacked(_branch));\n    require(isBranch(hash));\n    \n    uint branchID = knownBranches[hash].id;\n    return branches[branchID].snapshots[branches[branchID].snapshots.length - 1].cid;\n    \n  } */\n  \n  function getHead(bytes32 _hash) public view returns (string cid_){\n    require(isBranch(_hash));\n    \n    uint branchID = knownBranches[_hash].id;\n    if(branches[branchID].snapshots.length != 0) {\n      return branches[branchID].snapshots[branches[branchID].snapshots.length - 1].cid;   \n    } else {\n      return \"root snapshot\";\n    }\n     \n  }\n\n  function newBranch(string _name) public auth(PUSH) returns (uint branchID_){\n    bytes32 hash = keccak256(abi.encodePacked(_name));\n    require(!isBranch(hash));\n  \n    uint branchID = branches.length++;\n    branches[branchID].name = _name;\n    knownBranches[hash] = BranchID(true, branchID);\n    \n    emit NewBranch(_name, branchID);\n    \n    return branchID;\n  }\n  \n  function getBranchesName() public view returns (string branches_) {\n    /* string memory separator = \"0x|x0\"; */\n    uint length = branches.length;\n    \n    string memory _branches;\n    \n    for (uint i = 0 ; i < length ; i++) {\n      _branches = _branches.toSlice().concat(branches[i].name.toSlice()); // \"abcdef\"\n      _branches = _branches.toSlice().concat(SEPARATOR.toSlice()); // \"abcdef\"\n    }\n    \n    /* _branches = _branches.toSlice().concat(\"master\".toSlice()); // \"abcdef\"\n    _branches = _branches.toSlice().concat(SEPARATOR.toSlice()); // \"abcdef\"\n    _branches = _branches.toSlice().concat(\"dev\".toSlice()); // \"abcdef\" */\n    \n    \n    /* string[] memory _branches = new string[](length); */\n    \n    /* string[length] branches_; */\n    \n    /* branches_[0] = 'master'; */\n    \n    return _branches;\n  }\n  \n}",
  "sourcePath": "/Users/osarrouy/Documents/devs/dapps/@wespr/pando-core/contracts/Tree.sol",
  "compiler": {
    "name": "solc",
    "version": "0.4.24+commit.e67f0147.Emscripten.clang"
  },
  "schemaVersion": "2.0.0",
  "updatedAt": "2018-06-27T20:19:32.080Z"
}